{
  "_format": "hh-sol-artifact-1",
  "contractName": "Points",
  "sourceName": "contracts/Points.sol",
  "abi": [
    {
      "inputs": [],
      "stateMutability": "nonpayable",
      "type": "constructor"
    },
    {
      "inputs": [
        {
          "internalType": "uint256",
          "name": "min",
          "type": "uint256"
        }
      ],
      "name": "InvalidDeposit",
      "type": "error"
    },
    {
      "inputs": [],
      "name": "InvalidReferralCode",
      "type": "error"
    },
    {
      "inputs": [
        {
          "internalType": "address",
          "name": "owner",
          "type": "address"
        }
      ],
      "name": "OwnableInvalidOwner",
      "type": "error"
    },
    {
      "inputs": [
        {
          "internalType": "address",
          "name": "account",
          "type": "address"
        }
      ],
      "name": "OwnableUnauthorizedAccount",
      "type": "error"
    },
    {
      "inputs": [
        {
          "internalType": "uint256",
          "name": "remaining",
          "type": "uint256"
        }
      ],
      "name": "PointsCapReached",
      "type": "error"
    },
    {
      "inputs": [],
      "name": "ReferralCodeTaken",
      "type": "error"
    },
    {
      "inputs": [],
      "name": "ReferralCodeTooLong",
      "type": "error"
    },
    {
      "anonymous": false,
      "inputs": [
        {
          "indexed": true,
          "internalType": "address",
          "name": "depositor",
          "type": "address"
        },
        {
          "indexed": false,
          "internalType": "uint256",
          "name": "amount",
          "type": "uint256"
        }
      ],
      "name": "CashoutDepositReceived",
      "type": "event"
    },
    {
      "anonymous": false,
      "inputs": [
        {
          "indexed": true,
          "internalType": "address",
          "name": "contractAddress",
          "type": "address"
        },
        {
          "indexed": false,
          "internalType": "bool",
          "name": "authorized",
          "type": "bool"
        }
      ],
      "name": "ContractAuthorizationChanged",
      "type": "event"
    },
    {
      "anonymous": false,
      "inputs": [
        {
          "indexed": true,
          "internalType": "address",
          "name": "previousOwner",
          "type": "address"
        },
        {
          "indexed": true,
          "internalType": "address",
          "name": "newOwner",
          "type": "address"
        }
      ],
      "name": "OwnershipTransferred",
      "type": "event"
    },
    {
      "anonymous": false,
      "inputs": [
        {
          "indexed": true,
          "internalType": "address",
          "name": "recipient",
          "type": "address"
        },
        {
          "indexed": false,
          "internalType": "uint256",
          "name": "amount",
          "type": "uint256"
        }
      ],
      "name": "PointsAwarded",
      "type": "event"
    },
    {
      "anonymous": false,
      "inputs": [
        {
          "indexed": true,
          "internalType": "address",
          "name": "recipient",
          "type": "address"
        },
        {
          "indexed": false,
          "internalType": "uint256",
          "name": "amount",
          "type": "uint256"
        },
        {
          "indexed": true,
          "internalType": "address",
          "name": "authorizedContract",
          "type": "address"
        }
      ],
      "name": "PointsAwardedByContract",
      "type": "event"
    },
    {
      "anonymous": false,
      "inputs": [
        {
          "indexed": true,
          "internalType": "address",
          "name": "user",
          "type": "address"
        },
        {
          "indexed": false,
          "internalType": "string",
          "name": "code",
          "type": "string"
        }
      ],
      "name": "ReferralCodeRegistered",
      "type": "event"
    },
    {
      "anonymous": false,
      "inputs": [
        {
          "indexed": true,
          "internalType": "address",
          "name": "user",
          "type": "address"
        },
        {
          "indexed": false,
          "internalType": "uint256",
          "name": "points",
          "type": "uint256"
        },
        {
          "indexed": false,
          "internalType": "uint256",
          "name": "ethAmount",
          "type": "uint256"
        }
      ],
      "name": "ReferralPointsCashedOut",
      "type": "event"
    },
    {
      "anonymous": false,
      "inputs": [
        {
          "indexed": true,
          "internalType": "address",
          "name": "user",
          "type": "address"
        },
        {
          "indexed": false,
          "internalType": "string",
          "name": "code",
          "type": "string"
        },
        {
          "indexed": true,
          "internalType": "address",
          "name": "referrer",
          "type": "address"
        }
      ],
      "name": "ReferralUsed",
      "type": "event"
    },
    {
      "anonymous": false,
      "inputs": [
        {
          "indexed": true,
          "internalType": "address",
          "name": "owner",
          "type": "address"
        },
        {
          "indexed": false,
          "internalType": "uint256",
          "name": "amount",
          "type": "uint256"
        }
      ],
      "name": "Withdrawn",
      "type": "event"
    },
    {
      "inputs": [],
      "name": "MAX_POINTS",
      "outputs": [
        {
          "internalType": "uint256",
          "name": "",
          "type": "uint256"
        }
      ],
      "stateMutability": "view",
      "type": "function"
    },
    {
      "inputs": [],
      "name": "MIN_DEPOSIT",
      "outputs": [
        {
          "internalType": "uint256",
          "name": "",
          "type": "uint256"
        }
      ],
      "stateMutability": "view",
      "type": "function"
    },
    {
      "inputs": [],
      "name": "POINTS_PER_S",
      "outputs": [
        {
          "internalType": "uint256",
          "name": "",
          "type": "uint256"
        }
      ],
      "stateMutability": "view",
      "type": "function"
    },
    {
      "inputs": [],
      "name": "POINTS_PER_S_CASHOUT",
      "outputs": [
        {
          "internalType": "uint256",
          "name": "",
          "type": "uint256"
        }
      ],
      "stateMutability": "view",
      "type": "function"
    },
    {
      "inputs": [
        {
          "internalType": "uint256",
          "name": "",
          "type": "uint256"
        }
      ],
      "name": "addressList",
      "outputs": [
        {
          "internalType": "address",
          "name": "",
          "type": "address"
        }
      ],
      "stateMutability": "view",
      "type": "function"
    },
    {
      "inputs": [
        {
          "internalType": "address",
          "name": "",
          "type": "address"
        }
      ],
      "name": "addressToReferralCode",
      "outputs": [
        {
          "internalType": "string",
          "name": "",
          "type": "string"
        }
      ],
      "stateMutability": "view",
      "type": "function"
    },
    {
      "inputs": [
        {
          "internalType": "address",
          "name": "recipient",
          "type": "address"
        },
        {
          "internalType": "uint256",
          "name": "amount",
          "type": "uint256"
        },
        {
          "internalType": "bool",
          "name": "isReferralPoints",
          "type": "bool"
        }
      ],
      "name": "assignPoints",
      "outputs": [],
      "stateMutability": "nonpayable",
      "type": "function"
    },
    {
      "inputs": [
        {
          "internalType": "address",
          "name": "",
          "type": "address"
        }
      ],
      "name": "authorizedContracts",
      "outputs": [
        {
          "internalType": "bool",
          "name": "",
          "type": "bool"
        }
      ],
      "stateMutability": "view",
      "type": "function"
    },
    {
      "inputs": [
        {
          "internalType": "address",
          "name": "recipient",
          "type": "address"
        },
        {
          "internalType": "uint256",
          "name": "pointsAmount",
          "type": "uint256"
        },
        {
          "internalType": "bool",
          "name": "isWithdrawable",
          "type": "bool"
        }
      ],
      "name": "awardPointsForPayout",
      "outputs": [],
      "stateMutability": "nonpayable",
      "type": "function"
    },
    {
      "inputs": [
        {
          "internalType": "uint256",
          "name": "amount",
          "type": "uint256"
        }
      ],
      "name": "cashOutReferralPoints",
      "outputs": [],
      "stateMutability": "nonpayable",
      "type": "function"
    },
    {
      "inputs": [],
      "name": "deposit",
      "outputs": [],
      "stateMutability": "payable",
      "type": "function"
    },
    {
      "inputs": [
        {
          "internalType": "address",
          "name": "recipient",
          "type": "address"
        },
        {
          "internalType": "string",
          "name": "referralCode",
          "type": "string"
        }
      ],
      "name": "depositFor",
      "outputs": [],
      "stateMutability": "payable",
      "type": "function"
    },
    {
      "inputs": [
        {
          "internalType": "address",
          "name": "recipient",
          "type": "address"
        }
      ],
      "name": "depositFor",
      "outputs": [],
      "stateMutability": "payable",
      "type": "function"
    },
    {
      "inputs": [],
      "name": "depositForCashouts",
      "outputs": [],
      "stateMutability": "payable",
      "type": "function"
    },
    {
      "inputs": [],
      "name": "getAddressCount",
      "outputs": [
        {
          "internalType": "uint256",
          "name": "",
          "type": "uint256"
        }
      ],
      "stateMutability": "view",
      "type": "function"
    },
    {
      "inputs": [
        {
          "internalType": "uint256",
          "name": "start",
          "type": "uint256"
        },
        {
          "internalType": "uint256",
          "name": "size",
          "type": "uint256"
        }
      ],
      "name": "getAddressesPaginated",
      "outputs": [
        {
          "internalType": "address[]",
          "name": "addresses",
          "type": "address[]"
        },
        {
          "internalType": "uint256[]",
          "name": "balances",
          "type": "uint256[]"
        },
        {
          "internalType": "uint256[]",
          "name": "withdrawableBalances",
          "type": "uint256[]"
        }
      ],
      "stateMutability": "view",
      "type": "function"
    },
    {
      "inputs": [],
      "name": "getLeaderboard",
      "outputs": [
        {
          "internalType": "address[]",
          "name": "topAddresses",
          "type": "address[]"
        },
        {
          "internalType": "uint256[]",
          "name": "topBalances",
          "type": "uint256[]"
        },
        {
          "internalType": "uint256[]",
          "name": "withdrawableBalances",
          "type": "uint256[]"
        }
      ],
      "stateMutability": "view",
      "type": "function"
    },
    {
      "inputs": [
        {
          "internalType": "address",
          "name": "account",
          "type": "address"
        }
      ],
      "name": "getPoints",
      "outputs": [
        {
          "internalType": "uint256",
          "name": "total",
          "type": "uint256"
        },
        {
          "internalType": "uint256",
          "name": "withdrawable",
          "type": "uint256"
        }
      ],
      "stateMutability": "view",
      "type": "function"
    },
    {
      "inputs": [],
      "name": "getRemainingPoints",
      "outputs": [
        {
          "internalType": "uint256",
          "name": "",
          "type": "uint256"
        }
      ],
      "stateMutability": "view",
      "type": "function"
    },
    {
      "inputs": [
        {
          "internalType": "address",
          "name": "",
          "type": "address"
        }
      ],
      "name": "hasPoints",
      "outputs": [
        {
          "internalType": "bool",
          "name": "",
          "type": "bool"
        }
      ],
      "stateMutability": "view",
      "type": "function"
    },
    {
      "inputs": [
        {
          "internalType": "address",
          "name": "user",
          "type": "address"
        },
        {
          "internalType": "string",
          "name": "code",
          "type": "string"
        }
      ],
      "name": "migrateReferralCode",
      "outputs": [],
      "stateMutability": "nonpayable",
      "type": "function"
    },
    {
      "inputs": [
        {
          "internalType": "address",
          "name": "user",
          "type": "address"
        },
        {
          "internalType": "string",
          "name": "referralCode",
          "type": "string"
        }
      ],
      "name": "migrateUsedReferralCode",
      "outputs": [],
      "stateMutability": "nonpayable",
      "type": "function"
    },
    {
      "inputs": [],
      "name": "owner",
      "outputs": [
        {
          "internalType": "address",
          "name": "",
          "type": "address"
        }
      ],
      "stateMutability": "view",
      "type": "function"
    },
    {
      "inputs": [
        {
          "internalType": "address",
          "name": "",
          "type": "address"
        }
      ],
      "name": "points",
      "outputs": [
        {
          "internalType": "uint256",
          "name": "",
          "type": "uint256"
        }
      ],
      "stateMutability": "view",
      "type": "function"
    },
    {
      "inputs": [],
      "name": "referralBonusBps",
      "outputs": [
        {
          "internalType": "uint256",
          "name": "",
          "type": "uint256"
        }
      ],
      "stateMutability": "view",
      "type": "function"
    },
    {
      "inputs": [
        {
          "internalType": "string",
          "name": "",
          "type": "string"
        }
      ],
      "name": "referralCodeToAddress",
      "outputs": [
        {
          "internalType": "address",
          "name": "",
          "type": "address"
        }
      ],
      "stateMutability": "view",
      "type": "function"
    },
    {
      "inputs": [
        {
          "internalType": "address",
          "name": "",
          "type": "address"
        }
      ],
      "name": "referralPoints",
      "outputs": [
        {
          "internalType": "uint256",
          "name": "",
          "type": "uint256"
        }
      ],
      "stateMutability": "view",
      "type": "function"
    },
    {
      "inputs": [],
      "name": "registerMe",
      "outputs": [],
      "stateMutability": "nonpayable",
      "type": "function"
    },
    {
      "inputs": [
        {
          "internalType": "string",
          "name": "code",
          "type": "string"
        }
      ],
      "name": "registerReferralCode",
      "outputs": [],
      "stateMutability": "nonpayable",
      "type": "function"
    },
    {
      "inputs": [],
      "name": "renounceOwnership",
      "outputs": [],
      "stateMutability": "nonpayable",
      "type": "function"
    },
    {
      "inputs": [
        {
          "internalType": "address",
          "name": "contractAddress",
          "type": "address"
        },
        {
          "internalType": "bool",
          "name": "authorized",
          "type": "bool"
        }
      ],
      "name": "setContractAuthorization",
      "outputs": [],
      "stateMutability": "nonpayable",
      "type": "function"
    },
    {
      "inputs": [
        {
          "internalType": "uint256",
          "name": "newBonusBps",
          "type": "uint256"
        }
      ],
      "name": "setReferralBonus",
      "outputs": [],
      "stateMutability": "nonpayable",
      "type": "function"
    },
    {
      "inputs": [],
      "name": "totalPointsIssued",
      "outputs": [
        {
          "internalType": "uint256",
          "name": "",
          "type": "uint256"
        }
      ],
      "stateMutability": "view",
      "type": "function"
    },
    {
      "inputs": [
        {
          "internalType": "address",
          "name": "newOwner",
          "type": "address"
        }
      ],
      "name": "transferOwnership",
      "outputs": [],
      "stateMutability": "nonpayable",
      "type": "function"
    },
    {
      "inputs": [
        {
          "internalType": "address",
          "name": "",
          "type": "address"
        }
      ],
      "name": "usedReferralCode",
      "outputs": [
        {
          "internalType": "string",
          "name": "",
          "type": "string"
        }
      ],
      "stateMutability": "view",
      "type": "function"
    },
    {
      "inputs": [],
      "name": "withdraw",
      "outputs": [],
      "stateMutability": "nonpayable",
      "type": "function"
    }
  ],
  "bytecode": "0x60808060405234607b57331560655760008054336001600160a01b0319821681178355916001600160a01b03909116907f8be0079c531659141344cd1fd0a4f28419497f9722a3daafe3b4186f6b6457e09080a361138860015561240890816100818239f35b631e4fbdf760e01b600052600060045260246000fd5b600080fdfe608080604052600436101561001357600080fd5b60003560e01c908163195ad3d51461199d5750806325f87d231461197e5780632e8d97b71461179a578063350a8f6c14611612578063358b8166146115d85780633ccfd60b146114ff5780634347f23b1461133f5780635035070b1461130057806359fb7752146110f557806365dbcd43146110d95780636d763a6e14610fb6578063715018a614610f5d57806381a3b8ea14610f415780638da5cb5b14610f18578063935ecb6b14610ca957806397cbbf2414610b5a5780639a037aa014610aeb5780639a198d6114610a40578063a1283a68146109c3578063aa67c91914610993578063b810fb4314610951578063b868e7a114610917578063bd8672421461074f578063ca7eeb5714610705578063cdbb02af146106e7578063d0e30db0146106d0578063d5b9221b14610691578063d6f92372146105ef578063e1e158a5146105cc578063eb72d4f114610592578063ee204abb14610546578063f2fde38b146104bd578063f4f02a4d146102bc578063f5ee80e114610299578063f60ccc86146101ce5763fd1c8811146101ab57600080fd5b346101c95760003660031901126101c9576020600254604051908152f35b600080fd5b346101c95760403660031901126101c9576101e76119b8565b602435908115158092036101c9576101fd612170565b6001600160a01b03169081156102545760207ffb9ba5f99f5c43d50c89b686bbeaaff49442447b445c123ce00589f4c2fae184918360005260078252604060002060ff1981541660ff8316179055604051908152a2005b60405162461bcd60e51b815260206004820152601860248201527f496e76616c696420636f6e7472616374206164647265737300000000000000006044820152606490fd5b346101c95760003660031901126101c95760206102b4611f14565b604051908152f35b346101c9576102ca366119fc565b90916102d4612170565b6001600160a01b03166102e8811515611e51565b6102f3821515611cf1565b6040518284823760088184019081528190036020019020546001600160a01b03169182156104785781600052600a60205260406000209367ffffffffffffffff8211610462576103438554611b46565b601f811161041a575b50600094601f83116001146103a957826000805160206123b383398151915294959660009161039e575b508360011b906000198560031b1c19161790555b61039960405192839283611d35565b0390a3005b905082013587610376565b80865260208620601f19841696805b8881106104025750846000805160206123b3833981519152969798106103e8575b5050600183811b01905561038a565b830135600019600386901b60f8161c1916905586806103d9565b909160206001819285880135815501930191016103b8565b856000526020600020601f840160051c81019160208510610458575b601f0160051c01905b81811061044c575061034c565b6000815560010161043f565b9091508190610436565b634e487b7160e01b600052604160045260246000fd5b60405162461bcd60e51b815260206004820152601c60248201527f526566657272616c20636f646520646f6573206e6f74206578697374000000006044820152606490fd5b346101c95760203660031901126101c9576104d66119b8565b6104de612170565b6001600160a01b0316801561053057600080546001600160a01b03198116831782556001600160a01b0316907f8be0079c531659141344cd1fd0a4f28419497f9722a3daafe3b4186f6b6457e09080a3005b631e4fbdf760e01b600052600060045260246000fd5b346101c95760203660031901126101c95760406001600160a01b036105696119b8565b168060005260036020528160002054906000526004602052816000205482519182526020820152f35b346101c95760203660031901126101c9576001600160a01b036105b36119b8565b1660005260046020526020604060002054604051908152f35b346101c95760003660031901126101c9576020604051670de0b6b3a76400008152f35b346101c95760203660031901126101c95760043567ffffffffffffffff81116101c957366023820112156101c957806004013561062b81611c95565b6106386040519182611b80565b818152602081019136602482860101116101c957602081600092602483970186378301015261066f60405192839251928391611c46565b600890820190815281900382019020546040516001600160a01b039091168152f35b346101c95760203660031901126101c9576001600160a01b036106b26119b8565b166000526007602052602060ff604060002054166040519015158152f35b60003660031901126101c9576106e533611f3c565b005b346101c95760003660031901126101c9576020600554604051908152f35b346101c95760203660031901126101c9576001600160a01b036107266119b8565b16600052600a60205261074b61073f6040600020611ba2565b60405191829182611c69565b0390f35b346101c95761075d36611ae2565b909133600052600760205260ff60406000205416156108d2576001600160a01b0381169161078c831515611cb1565b8315610881576302faf0806107a385600254611d5d565b116108665782600052600360205260406000206107c1858254611d5d565b9055610846575b81600052600660205260ff604060002054161561081e575b506107ed82600254611d5d565b6002556040519182527f42032642f062f0971fa1a8e87754f6bd29ad5bc0af71930001c124884b9883df60203393a3005b61082790611e94565b8060005260066020526040600020600160ff19825416179055826107e0565b816000526004602052604060002061085f848254611d5d565b90556107c8565b61086e611f14565b625ef85b60e21b60005260045260246000fd5b60405162461bcd60e51b8152602060048201526024808201527f506f696e747320616d6f756e74206d75737420626520677265617465722074686044820152630616e20360e41b6064820152608490fd5b60405162461bcd60e51b815260206004820152601760248201527f4e6f7420617574686f72697a656420636f6e74726163740000000000000000006044820152606490fd5b346101c95760203660031901126101c9576001600160a01b036109386119b8565b16600052600960205261074b61073f6040600020611ba2565b346101c95760203660031901126101c9576004356005548110156101c95761097a602091611b15565b905460405160039290921b1c6001600160a01b03168152f35b60203660031901126101c9576106e56109aa6119b8565b6109be6001600160a01b0382161515611cb1565b611f3c565b60003660031901126101c9573415610a03576040513481527f49e370eb35b99fad82eba177be2c53102fb12acbada7d0de117099f6cb9efc1560203392a2005b60405162461bcd60e51b815260206004820152601560248201527409aeae6e840c8cae0dee6d2e840e6dedaca408aa89605b1b6044820152606490fd5b346101c95760003660031901126101c95760008060405160208101906307983f4560e21b82526097602482015260248152610a7c604482611b80565b51908273dc2b0d2dd2b7759d97d50db4eabdc369731108305af1610a9e611dd5565b5015610aa657005b60405162461bcd60e51b815260206004820152601860248201527f4665654d20726567697374726174696f6e206661696c656400000000000000006044820152606490fd5b346101c95760203660031901126101c957600435610b07612170565b6127108111610b1557600155005b60405162461bcd60e51b815260206004820152601860248201527f426f6e75732063616e6e6f7420657863656564203130302500000000000000006044820152606490fd5b346101c957610b6836611ae2565b610b73929192612170565b6001600160a01b03821692610b89841515611cb1565b610b94811515611e05565b6302faf080610ba582600254611d5d565b11610c64577f900825d4808e50002c1a3614c809eb06d2d7142338f0dec06ed9a4057c8a8c999260209285600052600384526040600020610be7848254611d5d565b9055610c45575b846000526006835260ff6040600020541615610c1e575b50610c1281600254611d5d565b600255604051908152a2005b610c2790611e94565b83600052600682526040600020600160ff1982541617905584610c05565b84600052600483526040600020610c5d838254611d5d565b9055610bee565b60405162461bcd60e51b815260206004820152601760248201527f576f756c642065786365656420706f696e7473206361700000000000000000006044820152606490fd5b346101c957610cb7366119fc565b9091610cc1612170565b6001600160a01b031690610cd6821515611e51565b60148111610f07578015610ef6576040518184823760088183019081528190036020019020546001600160a01b031680151590839082610eeb575b5050610eda57816000526009602052610d2d6040600020611ba2565b805180610ea3575b5050604051818482376020818381016008815203019020826001600160601b0360a01b82541617905581600052600960205260406000209267ffffffffffffffff821161046257610d868454611b46565b601f8111610e5b575b50600093601f8311600114610deb57826000805160206123938339815191529495600091610de0575b508360011b906000198560031b1c19161790555b610ddb60405192839283611d35565b0390a2005b905082013586610db8565b80855260208520601f19841695805b878110610e43575084600080516020612393833981519152969710610e29575b5050600183811b019055610dcc565b830135600019600386901b60f8161c191690558580610e1a565b90916020600181928588013581550193019101610dfa565b846000526020600020601f840160051c81019160208510610e99575b601f0160051c01905b818110610e8d5750610d8f565b60008155600101610e80565b9091508190610e77565b60209181610eb984936040518096819501611c46565b810160088152030190206001600160601b0360a01b81541690558380610d35565b63f8f4728d60e01b60005260046000fd5b141590508285610d11565b63e55b462960e01b60005260046000fd5b6302e22fd360e11b60005260046000fd5b346101c95760003660031901126101c9576000546040516001600160a01b039091168152602090f35b346101c95760003660031901126101c9576020604051604b8152f35b346101c95760003660031901126101c957610f76612170565b600080546001600160a01b0319811682556001600160a01b03167f8be0079c531659141344cd1fd0a4f28419497f9722a3daafe3b4186f6b6457e08280a3005b346101c95760003660031901126101c9576005546064808210911802606418610fde81611d8f565b610fe782611d8f565b91610ff181611d8f565b60005b82811061104e575060018211611016575b61074b915060405193849384611a74565b60001982019182116110385761103361074b9260008387876121f4565b611005565b634e487b7160e01b600052601160045260246000fd5b8061105a600192611b15565b9054838060a01b039160031b1c166110728287611dc1565b52604061107e82611b15565b9054848060a01b039160031b1c166000908152600360205220546110a28288611dc1565b5260406110ae82611b15565b9054848060a01b039160031b1c166000908152600460205220546110d28285611dc1565b5201610ff4565b346101c95760003660031901126101c957602060405160328152f35b346101c95760203660031901126101c95760043567ffffffffffffffff81116101c9576111269036906004016119ce565b60148111610f07578015610ef6576040518183823760088183019081528190036020019020546001600160a01b031680151590816112f5575b50610eda5733600052600960205261117b604060002054611b46565b610eda5760405181838237602081838101600881520301902060018060a01b0333166001600160601b0360a01b825416179055336000526009602052604060002067ffffffffffffffff8211610462576111d58154611b46565b601f81116112ad575b506000601f83116001146112375791610ddb91816000805160206123938339815191529460009161122c575b508260011b906000198460031b1c19161790555b604051918291339583611d35565b90508501358661120a565b8181526020812090601f198416815b818110611295575091610ddb93918560008051602061239383398151915296941061127b575b5050600182811b01905561121e565b860135600019600385901b60f8161c19169055858061126c565b9192602060018192868a013581550194019201611246565b816000526020600020601f840160051c810191602085106112eb575b601f0160051c01905b8181106112df57506111de565b600081556001016112d2565b90915081906112c9565b90503314158361115f565b346101c95760203660031901126101c9576001600160a01b036113216119b8565b166000526006602052602060ff604060002054166040519015158152f35b346101c95760203660031901126101c957600435801561135f8115611e05565b33600052600460205281604060002054106114ba576064820290828204606414171561103857604b9004662386f26fc10000810290808204662386f26fc100001490151715611038578047106114755733600052600460205260406000206113c8838254611d6a565b905533600052600360205260406000206113e3838254611d6a565b90556113f182600254611d6a565b600255600080808084335af1611405611dd5565b501561143e5760405191825260208201527f89212ff08f4e1a2d39a5e3a0342a6a0f0b203ef6c18f2c4276fa6ec13fee57f560403392a2005b60405162461bcd60e51b815260206004820152600f60248201526e151c985b9cd9995c8819985a5b1959608a1b6044820152606490fd5b60405162461bcd60e51b815260206004820152601d60248201527f496e73756666696369656e7420636f6e74726163742062616c616e63650000006044820152606490fd5b60405162461bcd60e51b815260206004820152601c60248201527f496e73756666696369656e7420726566657272616c20706f696e7473000000006044820152606490fd5b346101c95760003660031901126101c957611518612170565b47801561159d57600080808084335af1611530611dd5565b5015611564576040519081527f7084f5476618d8e60b11ef0d7d3f06914655adb8793e28ff7f018d4c76d505d560203392a2005b60405162461bcd60e51b815260206004820152601160248201527015da5d1a191c985dd85b0819985a5b1959607a1b6044820152606490fd5b60405162461bcd60e51b81526020600482015260136024820152724e6f7468696e6720746f20776974686472617760681b6044820152606490fd5b346101c95760203660031901126101c9576001600160a01b036115f96119b8565b1660005260036020526020604060002054604051908152f35b346101c95760403660031901126101c95760043560243560055490818310156117655780151580611759575b156117255761165f91611652849283611d5d565b8180821091180218611d6a565b9061166982611d8f565b9061167383611d8f565b9261167d81611d8f565b9160005b82811061169b5750505061074b9060405193849384611a74565b806116b06116ab60019385611d5d565b611b15565b838060a01b0391549060031b1c166116c88288611dc1565b52818060a01b036116d98288611dc1565b511660005260036020526040600020546116f38289611dc1565b52818060a01b036117048288611dc1565b5116600052600460205260406000205461171e8287611dc1565b5201611681565b60405162461bcd60e51b815260206004820152600c60248201526b496e76616c69642073697a6560a01b6044820152606490fd5b506103e881111561163e565b60405162461bcd60e51b815260206004820152600d60248201526c125b9d985b1a59081cdd185c9d609a1b6044820152606490fd5b6117a3366119fc565b91906001600160a01b0382166117ba811515611cb1565b6117e56040518584823760088187019081528190036020019020546001600160a01b03161515611cf1565b80600052600a6020526117fc604060002054611b46565b1561180b575b6106e583611f3c565b80600052600a602052604060002067ffffffffffffffff8511610462576118328154611b46565b601f8111611936575b506000601f86116001146118c057946000805160206123b383398151915291816106e5976000916118b5575b508260011b906000198460031b1c19161790555b60405181858237818101906008825260208160018060a01b0393030190205416936118ab60405192839283611d35565b0390a38280611802565b905085013588611867565b8181526020812090601f198716815b81811061191e5750916000805160206123b38339815191529391886106e5999410611904575b5050600182811b01905561187b565b860135600019600385901b60f8161c1916905587806118f5565b9192602060018192868a0135815501940192016118cf565b816000526020600020601f870160051c81019160208810611974575b601f0160051c01905b818110611968575061183b565b6000815560010161195b565b9091508190611952565b346101c95760003660031901126101c95760206040516302faf0808152f35b346101c95760003660031901126101c9576020906001548152f35b600435906001600160a01b03821682036101c957565b9181601f840112156101c95782359167ffffffffffffffff83116101c957602083818601950101116101c957565b9060406003198301126101c9576004356001600160a01b03811681036101c957916024359067ffffffffffffffff82116101c957611a3c916004016119ce565b9091565b906020808351928381520192019060005b818110611a5e5750505090565b8251845260209384019390920191600101611a51565b91939290936060830160608452855180915260206080850196019060005b818110611ac35750505084611ab29184611ac09697036020860152611a40565b916040818403910152611a40565b90565b82516001600160a01b0316885260209788019790920191600101611a92565b60609060031901126101c9576004356001600160a01b03811681036101c957906024359060443580151581036101c95790565b600554811015611b3057600560005260206000200190600090565b634e487b7160e01b600052603260045260246000fd5b90600182811c92168015611b76575b6020831014611b6057565b634e487b7160e01b600052602260045260246000fd5b91607f1691611b55565b90601f8019910116810190811067ffffffffffffffff82111761046257604052565b9060405191826000825492611bb684611b46565b8084529360018116908115611c245750600114611bdd575b50611bdb92500383611b80565b565b90506000929192526020600020906000915b818310611c08575050906020611bdb9282010138611bce565b6020919350806001915483858901015201910190918492611bef565b905060209250611bdb94915060ff191682840152151560051b82010138611bce565b60005b838110611c595750506000910152565b8181015183820152602001611c49565b60409160208252611c898151809281602086015260208686019101611c46565b601f01601f1916010190565b67ffffffffffffffff811161046257601f01601f191660200190565b15611cb857565b60405162461bcd60e51b8152602060048201526011602482015270125b9d985b1a59081c9958da5c1a595b9d607a1b6044820152606490fd5b15611cf857565b60405162461bcd60e51b8152602060048201526015602482015274496e76616c696420726566657272616c20636f646560581b6044820152606490fd5b90918060409360208452816020850152848401376000828201840152601f01601f1916010190565b9190820180921161103857565b9190820391821161103857565b67ffffffffffffffff81116104625760051b60200190565b90611d9982611d77565b611da66040519182611b80565b8281528092611db7601f1991611d77565b0190602036910137565b8051821015611b305760209160051b010190565b3d15611e00573d90611de682611c95565b91611df46040519384611b80565b82523d6000602084013e565b606090565b15611e0c57565b60405162461bcd60e51b815260206004820152601d60248201527f416d6f756e74206d7573742062652067726561746572207468616e20300000006044820152606490fd5b15611e5857565b60405162461bcd60e51b8152602060048201526014602482015273496e76616c69642075736572206164647265737360601b6044820152606490fd5b6005546801000000000000000081101561046257600181016005556000600554821015611f0057600590527f036b6384b5eca791c62761152d0c79bb0604c104a5fb6f4eb0703f3154bb3db00180546001600160a01b0319166001600160a01b03909216919091179055565b634e487b7160e01b81526032600452602490fd5b6002546302faf0808110611f285750600090565b6302faf080036302faf08081116110385790565b670de0b6b3a7640000341061215357670de0b6b3a7640000340460328102908082046032149015171561103857670de0b6b3a764000034069060328202918083046032149015171561103857670de0b6b3a7640000611f9c920490611d5d565b908160018060a01b0382169283600052600a602052611fbe6040600020611ba2565b80511561210f5760015480840290848204148415171561103857612710611fe791048094611d5d565b6302faf080611ff882600254611d5d565b11610866577f900825d4808e50002c1a3614c809eb06d2d7142338f0dec06ed9a4057c8a8c9994602094612097938661203a6040519283815193849201611c46565b600890820190815281900387019020546001600160a01b031690816120ca575b50505b86600052600385526040600020612075858254611d5d565b9055866000526006855260ff60406000205416156120a3575b50600254611d5d565b600255604051908152a2565b6120ac90611e94565b85600052600684526040600020600160ff198254161790553861208e565b868891836000526003825260406000206120e5828254611d5d565b9055836000526004825260406000206120ff828254611d5d565b9055604051908152a2388061205a565b506302faf08061212183600254611d5d565b11610866576120976020927f900825d4808e50002c1a3614c809eb06d2d7142338f0dec06ed9a4057c8a8c999461205d565b6382ad390560e01b600052670de0b6b3a764000060045260246000fd5b6000546001600160a01b0316330361218457565b63118cdaa760e01b6000523360045260246000fd5b8181039291600013801582851316918412161761103857565b9190916000838201938412911290801582169115161761103857565b6001600160ff1b0381146110385760010190565b600160ff1b8114611038576000190190565b93929190838312156122475761222661222061221a6122138688612199565b6002900590565b856121b2565b82611dc1565b51839085905b818613156122745750808212612261575b505083831261224e575b5050505050565b612257946121f4565b3880808080612247565b61226d918484896121f4565b388061223d565b9694979192979590955b87612289828b611dc1565b51111561229e57612299906121ce565b61227e565b94955b876122ac828b611dc1565b5110156122c1576122bc906121e2565b6122a1565b9095969792919781861361222c57909461238661238c916123296122f56122e88a8d611dc1565b516001600160a01b031690565b61231f8c6123108c61230a6122e88885611dc1565b92611dc1565b6001600160a01b039091169052565b612310838d611dc1565b6123338887611dc1565b5161233e8288611dc1565b516123498a89611dc1565b526123548288611dc1565b5261235f8888611dc1565b5161236a8289611dc1565b516123758a8a611dc1565b526123808289611dc1565b526121ce565b956121e2565b9061222c56fee8ca9ff7362b2885ad0e2b48628ea1734bf0e9ffaa84267274cfd05ab4897d547f4295d529cb1fafd5eee3e47f17f636e81a66d5bb99a18711f2b46e3ec58151a2646970667358221220ac542d9bdcf7e9b773d97909a831d91e90f417f06a8c5a2a5722dd2e5acbfdb964736f6c634300081c0033",
  "linkReferences": {},
  "deployedLinkReferences": {}
}