{"contracts/casino/climb.sol":{"Climb":{"abi":[{"inputs":[{"internalType":"address","name":"entropyAddress","type":"address"}],"stateMutability":"nonpayable","type":"constructor"},{"anonymous":false,"inputs":[{"indexed":true,"internalType":"uint64","name":"sequenceNumber","type":"uint64"},{"indexed":true,"internalType":"address","name":"player","type":"address"},{"indexed":false,"internalType":"bytes32","name":"randomNumber","type":"bytes32"},{"indexed":false,"internalType":"bool","name":"success","type":"bool"}],"name":"ClimbCompleted","type":"event"},{"anonymous":false,"inputs":[{"indexed":true,"internalType":"uint64","name":"sequenceNumber","type":"uint64"},{"indexed":true,"internalType":"address","name":"player","type":"address"},{"indexed":false,"internalType":"bytes32","name":"userRandomNumber","type":"bytes32"}],"name":"ClimbRequested","type":"event"},{"inputs":[{"internalType":"uint64","name":"sequence","type":"uint64"},{"internalType":"address","name":"provider","type":"address"},{"internalType":"bytes32","name":"randomNumber","type":"bytes32"}],"name":"_entropyCallback","outputs":[],"stateMutability":"nonpayable","type":"function"},{"inputs":[],"name":"climb","outputs":[{"internalType":"uint64","name":"","type":"uint64"}],"stateMutability":"payable","type":"function"},{"inputs":[{"internalType":"uint64","name":"","type":"uint64"}],"name":"climbRequesters","outputs":[{"internalType":"address","name":"","type":"address"}],"stateMutability":"view","type":"function"},{"inputs":[{"internalType":"uint64","name":"","type":"uint64"}],"name":"climbResults","outputs":[{"internalType":"bool","name":"","type":"bool"}],"stateMutability":"view","type":"function"},{"inputs":[{"internalType":"uint64","name":"sequenceNumber","type":"uint64"}],"name":"getClimbRequester","outputs":[{"internalType":"address","name":"","type":"address"}],"stateMutability":"view","type":"function"},{"inputs":[{"internalType":"uint64","name":"sequenceNumber","type":"uint64"}],"name":"getClimbResult","outputs":[{"internalType":"bool","name":"","type":"bool"}],"stateMutability":"view","type":"function"},{"inputs":[],"name":"latestRandomNumber","outputs":[{"internalType":"bytes32","name":"","type":"bytes32"}],"stateMutability":"view","type":"function"},{"inputs":[{"internalType":"bytes32","name":"userRandomNumber","type":"bytes32"}],"name":"requestRandomNumber","outputs":[],"stateMutability":"payable","type":"function"}],"evm":{"bytecode":{"linkReferences":{},"object":"608034607057601f61077038819003918201601f19168301916001600160401b03831184841017607557808492602094604052833981010312607057516001600160a01b03811690819003607057600080546001600160a01b0319169190911790556040516106e4908161008c8239f35b600080fd5b634e487b7160e01b600052604160045260246000fdfe608080604052600436101561001357600080fd5b60003560e01c90816316fe73ec146105e657508063360fbe341461021f57806352a5f1f8146104935780638bd82c8f14610077578063a5432fee14610262578063af8ea8fe1461021f578063bd313d78146100bc5763f9dbf10a1461007757600080fd5b346100b75760203660031901126100b75767ffffffffffffffff610099610601565b166000526002602052602060ff604060002054166040519015158152f35b600080fd5b60203660031901126100b7576000546040516320bba64360e21b8152906001600160a01b0316602082600481845afa9182156101b3576000926101ee575b50604051631711922960e31b81526001600160a01b0383166004820152602081602481855afa80156101b3576001600160801b0393602093610177936000936101bf575b506040516319cb825f60e01b81526001600160a01b03909216600480840191909152356024830152909485938492919083906044820190565b039316905af180156101b35761018957005b6101aa9060203d6020116101ac575b6101a28183610618565b81019061068e565b005b503d610198565b6040513d6000823e3d90fd5b6101e0919350853d87116101e7575b6101d88183610618565b81019061066f565b918661013e565b503d6101ce565b61021191925060203d602011610218575b6102098183610618565b810190610650565b90826100fa565b503d6101ff565b346100b75760203660031901126100b75767ffffffffffffffff610241610601565b166000526003602052602060018060a01b0360406000205416604051908152f35b60003660031901126100b757600019430143811161047d5760405160208101914283524460408301523360601b6060830152406074820152607481526102a9609482610618565b5190206000546040516320bba64360e21b81526001600160a01b039091169190602081600481865afa9081156101b35760009161045e575b50604051631711922960e31b81526001600160a01b0382166004820152602081602481875afa80156101b3576001600160801b039160009161043f575b50168034106103ee576040516319cb825f60e01b81526001600160a01b03929092166004830152602482018390529092602091849160449183915af19182156101b35760209267ffffffffffffffff916000916103d1575b50169081600052600383526040600020336bffffffffffffffffffffffff60a01b825416179055604051908152817f27bc7f78aaf1f0d415662488e1212e761201ca120bbb32bca57c891c06a9400b843393a3604051908152f35b6103e89150843d86116101ac576101a28183610618565b84610376565b60405162461bcd60e51b8152602060048201526024808201527f496e73756666696369656e742066656520666f7220656e74726f7079207265716044820152631d595cdd60e21b6064820152608490fd5b610458915060203d6020116101e7576101d88183610618565b8561031e565b610477915060203d602011610218576102098183610618565b836102e1565b634e487b7160e01b600052601160045260246000fd5b346100b75760603660031901126100b7576104ac610601565b6024356001600160a01b038116036100b757600054604435906001600160a01b031680156105a157330361055057806001557f1f01b45981a2f120824eccde7105d5fa4014c61b5234b843b88c97237626b84f604067ffffffffffffffff60018416159416928360005260026020528160002060ff1981541660ff871617905583600052600360205260018060a01b038260002054169482519182526020820152a3005b60405162461bcd60e51b815260206004820152602360248201527f4f6e6c7920456e74726f70792063616e2063616c6c20746869732066756e637460448201526234b7b760e91b6064820152608490fd5b60405162461bcd60e51b815260206004820152601760248201527f456e74726f70792061646472657373206e6f74207365740000000000000000006044820152606490fd5b346100b75760003660031901126100b7576020906001548152f35b6004359067ffffffffffffffff821682036100b757565b90601f8019910116810190811067ffffffffffffffff82111761063a57604052565b634e487b7160e01b600052604160045260246000fd5b908160209103126100b757516001600160a01b03811681036100b75790565b908160209103126100b757516001600160801b03811681036100b75790565b908160209103126100b7575167ffffffffffffffff811681036100b7579056fea264697066735822122049ffcac04f026d8e119d08b9191ab5cbb99b56a50643d602e83aefe04f11cf2a64736f6c634300081c0033","opcodes":"PUSH1 0x80 CALLVALUE PUSH1 0x70 JUMPI PUSH1 0x1F PUSH2 0x770 CODESIZE DUP2 SWAP1 SUB SWAP2 DUP3 ADD PUSH1 0x1F NOT AND DUP4 ADD SWAP2 PUSH1 0x1 PUSH1 0x1 PUSH1 0x40 SHL SUB DUP4 GT DUP5 DUP5 LT OR PUSH1 0x75 JUMPI DUP1 DUP5 SWAP3 PUSH1 0x20 SWAP5 PUSH1 0x40 MSTORE DUP4 CODECOPY DUP2 ADD SUB SLT PUSH1 0x70 JUMPI MLOAD PUSH1 0x1 PUSH1 0x1 PUSH1 0xA0 SHL SUB DUP2 AND SWAP1 DUP2 SWAP1 SUB PUSH1 0x70 JUMPI PUSH1 0x0 DUP1 SLOAD PUSH1 0x1 PUSH1 0x1 PUSH1 0xA0 SHL SUB NOT AND SWAP2 SWAP1 SWAP2 OR SWAP1 SSTORE PUSH1 0x40 MLOAD PUSH2 0x6E4 SWAP1 DUP2 PUSH2 0x8C DUP3 CODECOPY RETURN JUMPDEST PUSH1 0x0 DUP1 REVERT JUMPDEST PUSH4 0x4E487B71 PUSH1 0xE0 SHL PUSH1 0x0 MSTORE PUSH1 0x41 PUSH1 0x4 MSTORE PUSH1 0x24 PUSH1 0x0 REVERT INVALID PUSH1 0x80 DUP1 PUSH1 0x40 MSTORE PUSH1 0x4 CALLDATASIZE LT ISZERO PUSH2 0x13 JUMPI PUSH1 0x0 DUP1 REVERT JUMPDEST PUSH1 0x0 CALLDATALOAD PUSH1 0xE0 SHR SWAP1 DUP2 PUSH4 0x16FE73EC EQ PUSH2 0x5E6 JUMPI POP DUP1 PUSH4 0x360FBE34 EQ PUSH2 0x21F JUMPI DUP1 PUSH4 0x52A5F1F8 EQ PUSH2 0x493 JUMPI DUP1 PUSH4 0x8BD82C8F EQ PUSH2 0x77 JUMPI DUP1 PUSH4 0xA5432FEE EQ PUSH2 0x262 JUMPI DUP1 PUSH4 0xAF8EA8FE EQ PUSH2 0x21F JUMPI DUP1 PUSH4 0xBD313D78 EQ PUSH2 0xBC JUMPI PUSH4 0xF9DBF10A EQ PUSH2 0x77 JUMPI PUSH1 0x0 DUP1 REVERT JUMPDEST CALLVALUE PUSH2 0xB7 JUMPI PUSH1 0x20 CALLDATASIZE PUSH1 0x3 NOT ADD SLT PUSH2 0xB7 JUMPI PUSH8 0xFFFFFFFFFFFFFFFF PUSH2 0x99 PUSH2 0x601 JUMP JUMPDEST AND PUSH1 0x0 MSTORE PUSH1 0x2 PUSH1 0x20 MSTORE PUSH1 0x20 PUSH1 0xFF PUSH1 0x40 PUSH1 0x0 KECCAK256 SLOAD AND PUSH1 0x40 MLOAD SWAP1 ISZERO ISZERO DUP2 MSTORE RETURN JUMPDEST PUSH1 0x0 DUP1 REVERT JUMPDEST PUSH1 0x20 CALLDATASIZE PUSH1 0x3 NOT ADD SLT PUSH2 0xB7 JUMPI PUSH1 0x0 SLOAD PUSH1 0x40 MLOAD PUSH4 0x20BBA643 PUSH1 0xE2 SHL DUP2 MSTORE SWAP1 PUSH1 0x1 PUSH1 0x1 PUSH1 0xA0 SHL SUB AND PUSH1 0x20 DUP3 PUSH1 0x4 DUP2 DUP5 GAS STATICCALL SWAP2 DUP3 ISZERO PUSH2 0x1B3 JUMPI PUSH1 0x0 SWAP3 PUSH2 0x1EE JUMPI JUMPDEST POP PUSH1 0x40 MLOAD PUSH4 0x17119229 PUSH1 0xE3 SHL DUP2 MSTORE PUSH1 0x1 PUSH1 0x1 PUSH1 0xA0 SHL SUB DUP4 AND PUSH1 0x4 DUP3 ADD MSTORE PUSH1 0x20 DUP2 PUSH1 0x24 DUP2 DUP6 GAS STATICCALL DUP1 ISZERO PUSH2 0x1B3 JUMPI PUSH1 0x1 PUSH1 0x1 PUSH1 0x80 SHL SUB SWAP4 PUSH1 0x20 SWAP4 PUSH2 0x177 SWAP4 PUSH1 0x0 SWAP4 PUSH2 0x1BF JUMPI JUMPDEST POP PUSH1 0x40 MLOAD PUSH4 0x19CB825F PUSH1 0xE0 SHL DUP2 MSTORE PUSH1 0x1 PUSH1 0x1 PUSH1 0xA0 SHL SUB SWAP1 SWAP3 AND PUSH1 0x4 DUP1 DUP5 ADD SWAP2 SWAP1 SWAP2 MSTORE CALLDATALOAD PUSH1 0x24 DUP4 ADD MSTORE SWAP1 SWAP5 DUP6 SWAP4 DUP5 SWAP3 SWAP2 SWAP1 DUP4 SWAP1 PUSH1 0x44 DUP3 ADD SWAP1 JUMP JUMPDEST SUB SWAP4 AND SWAP1 GAS CALL DUP1 ISZERO PUSH2 0x1B3 JUMPI PUSH2 0x189 JUMPI STOP JUMPDEST PUSH2 0x1AA SWAP1 PUSH1 0x20 RETURNDATASIZE PUSH1 0x20 GT PUSH2 0x1AC JUMPI JUMPDEST PUSH2 0x1A2 DUP2 DUP4 PUSH2 0x618 JUMP JUMPDEST DUP2 ADD SWAP1 PUSH2 0x68E JUMP JUMPDEST STOP JUMPDEST POP RETURNDATASIZE PUSH2 0x198 JUMP JUMPDEST PUSH1 0x40 MLOAD RETURNDATASIZE PUSH1 0x0 DUP3 RETURNDATACOPY RETURNDATASIZE SWAP1 REVERT JUMPDEST PUSH2 0x1E0 SWAP2 SWAP4 POP DUP6 RETURNDATASIZE DUP8 GT PUSH2 0x1E7 JUMPI JUMPDEST PUSH2 0x1D8 DUP2 DUP4 PUSH2 0x618 JUMP JUMPDEST DUP2 ADD SWAP1 PUSH2 0x66F JUMP JUMPDEST SWAP2 DUP7 PUSH2 0x13E JUMP JUMPDEST POP RETURNDATASIZE PUSH2 0x1CE JUMP JUMPDEST PUSH2 0x211 SWAP2 SWAP3 POP PUSH1 0x20 RETURNDATASIZE PUSH1 0x20 GT PUSH2 0x218 JUMPI JUMPDEST PUSH2 0x209 DUP2 DUP4 PUSH2 0x618 JUMP JUMPDEST DUP2 ADD SWAP1 PUSH2 0x650 JUMP JUMPDEST SWAP1 DUP3 PUSH2 0xFA JUMP JUMPDEST POP RETURNDATASIZE PUSH2 0x1FF JUMP JUMPDEST CALLVALUE PUSH2 0xB7 JUMPI PUSH1 0x20 CALLDATASIZE PUSH1 0x3 NOT ADD SLT PUSH2 0xB7 JUMPI PUSH8 0xFFFFFFFFFFFFFFFF PUSH2 0x241 PUSH2 0x601 JUMP JUMPDEST AND PUSH1 0x0 MSTORE PUSH1 0x3 PUSH1 0x20 MSTORE PUSH1 0x20 PUSH1 0x1 DUP1 PUSH1 0xA0 SHL SUB PUSH1 0x40 PUSH1 0x0 KECCAK256 SLOAD AND PUSH1 0x40 MLOAD SWAP1 DUP2 MSTORE RETURN JUMPDEST PUSH1 0x0 CALLDATASIZE PUSH1 0x3 NOT ADD SLT PUSH2 0xB7 JUMPI PUSH1 0x0 NOT NUMBER ADD NUMBER DUP2 GT PUSH2 0x47D JUMPI PUSH1 0x40 MLOAD PUSH1 0x20 DUP2 ADD SWAP2 TIMESTAMP DUP4 MSTORE PREVRANDAO PUSH1 0x40 DUP4 ADD MSTORE CALLER PUSH1 0x60 SHL PUSH1 0x60 DUP4 ADD MSTORE BLOCKHASH PUSH1 0x74 DUP3 ADD MSTORE PUSH1 0x74 DUP2 MSTORE PUSH2 0x2A9 PUSH1 0x94 DUP3 PUSH2 0x618 JUMP JUMPDEST MLOAD SWAP1 KECCAK256 PUSH1 0x0 SLOAD PUSH1 0x40 MLOAD PUSH4 0x20BBA643 PUSH1 0xE2 SHL DUP2 MSTORE PUSH1 0x1 PUSH1 0x1 PUSH1 0xA0 SHL SUB SWAP1 SWAP2 AND SWAP2 SWAP1 PUSH1 0x20 DUP2 PUSH1 0x4 DUP2 DUP7 GAS STATICCALL SWAP1 DUP2 ISZERO PUSH2 0x1B3 JUMPI PUSH1 0x0 SWAP2 PUSH2 0x45E JUMPI JUMPDEST POP PUSH1 0x40 MLOAD PUSH4 0x17119229 PUSH1 0xE3 SHL DUP2 MSTORE PUSH1 0x1 PUSH1 0x1 PUSH1 0xA0 SHL SUB DUP3 AND PUSH1 0x4 DUP3 ADD MSTORE PUSH1 0x20 DUP2 PUSH1 0x24 DUP2 DUP8 GAS STATICCALL DUP1 ISZERO PUSH2 0x1B3 JUMPI PUSH1 0x1 PUSH1 0x1 PUSH1 0x80 SHL SUB SWAP2 PUSH1 0x0 SWAP2 PUSH2 0x43F JUMPI JUMPDEST POP AND DUP1 CALLVALUE LT PUSH2 0x3EE JUMPI PUSH1 0x40 MLOAD PUSH4 0x19CB825F PUSH1 0xE0 SHL DUP2 MSTORE PUSH1 0x1 PUSH1 0x1 PUSH1 0xA0 SHL SUB SWAP3 SWAP1 SWAP3 AND PUSH1 0x4 DUP4 ADD MSTORE PUSH1 0x24 DUP3 ADD DUP4 SWAP1 MSTORE SWAP1 SWAP3 PUSH1 0x20 SWAP2 DUP5 SWAP2 PUSH1 0x44 SWAP2 DUP4 SWAP2 GAS CALL SWAP2 DUP3 ISZERO PUSH2 0x1B3 JUMPI PUSH1 0x20 SWAP3 PUSH8 0xFFFFFFFFFFFFFFFF SWAP2 PUSH1 0x0 SWAP2 PUSH2 0x3D1 JUMPI JUMPDEST POP AND SWAP1 DUP2 PUSH1 0x0 MSTORE PUSH1 0x3 DUP4 MSTORE PUSH1 0x40 PUSH1 0x0 KECCAK256 CALLER PUSH12 0xFFFFFFFFFFFFFFFFFFFFFFFF PUSH1 0xA0 SHL DUP3 SLOAD AND OR SWAP1 SSTORE PUSH1 0x40 MLOAD SWAP1 DUP2 MSTORE DUP2 PUSH32 0x27BC7F78AAF1F0D415662488E1212E761201CA120BBB32BCA57C891C06A9400B DUP5 CALLER SWAP4 LOG3 PUSH1 0x40 MLOAD SWAP1 DUP2 MSTORE RETURN JUMPDEST PUSH2 0x3E8 SWAP2 POP DUP5 RETURNDATASIZE DUP7 GT PUSH2 0x1AC JUMPI PUSH2 0x1A2 DUP2 DUP4 PUSH2 0x618 JUMP JUMPDEST DUP5 PUSH2 0x376 JUMP JUMPDEST PUSH1 0x40 MLOAD PUSH3 0x461BCD PUSH1 0xE5 SHL DUP2 MSTORE PUSH1 0x20 PUSH1 0x4 DUP3 ADD MSTORE PUSH1 0x24 DUP1 DUP3 ADD MSTORE PUSH32 0x496E73756666696369656E742066656520666F7220656E74726F707920726571 PUSH1 0x44 DUP3 ADD MSTORE PUSH4 0x1D595CDD PUSH1 0xE2 SHL PUSH1 0x64 DUP3 ADD MSTORE PUSH1 0x84 SWAP1 REVERT JUMPDEST PUSH2 0x458 SWAP2 POP PUSH1 0x20 RETURNDATASIZE PUSH1 0x20 GT PUSH2 0x1E7 JUMPI PUSH2 0x1D8 DUP2 DUP4 PUSH2 0x618 JUMP JUMPDEST DUP6 PUSH2 0x31E JUMP JUMPDEST PUSH2 0x477 SWAP2 POP PUSH1 0x20 RETURNDATASIZE PUSH1 0x20 GT PUSH2 0x218 JUMPI PUSH2 0x209 DUP2 DUP4 PUSH2 0x618 JUMP JUMPDEST DUP4 PUSH2 0x2E1 JUMP JUMPDEST PUSH4 0x4E487B71 PUSH1 0xE0 SHL PUSH1 0x0 MSTORE PUSH1 0x11 PUSH1 0x4 MSTORE PUSH1 0x24 PUSH1 0x0 REVERT JUMPDEST CALLVALUE PUSH2 0xB7 JUMPI PUSH1 0x60 CALLDATASIZE PUSH1 0x3 NOT ADD SLT PUSH2 0xB7 JUMPI PUSH2 0x4AC PUSH2 0x601 JUMP JUMPDEST PUSH1 0x24 CALLDATALOAD PUSH1 0x1 PUSH1 0x1 PUSH1 0xA0 SHL SUB DUP2 AND SUB PUSH2 0xB7 JUMPI PUSH1 0x0 SLOAD PUSH1 0x44 CALLDATALOAD SWAP1 PUSH1 0x1 PUSH1 0x1 PUSH1 0xA0 SHL SUB AND DUP1 ISZERO PUSH2 0x5A1 JUMPI CALLER SUB PUSH2 0x550 JUMPI DUP1 PUSH1 0x1 SSTORE PUSH32 0x1F01B45981A2F120824ECCDE7105D5FA4014C61B5234B843B88C97237626B84F PUSH1 0x40 PUSH8 0xFFFFFFFFFFFFFFFF PUSH1 0x1 DUP5 AND ISZERO SWAP5 AND SWAP3 DUP4 PUSH1 0x0 MSTORE PUSH1 0x2 PUSH1 0x20 MSTORE DUP2 PUSH1 0x0 KECCAK256 PUSH1 0xFF NOT DUP2 SLOAD AND PUSH1 0xFF DUP8 AND OR SWAP1 SSTORE DUP4 PUSH1 0x0 MSTORE PUSH1 0x3 PUSH1 0x20 MSTORE PUSH1 0x1 DUP1 PUSH1 0xA0 SHL SUB DUP3 PUSH1 0x0 KECCAK256 SLOAD AND SWAP5 DUP3 MLOAD SWAP2 DUP3 MSTORE PUSH1 0x20 DUP3 ADD MSTORE LOG3 STOP JUMPDEST PUSH1 0x40 MLOAD PUSH3 0x461BCD PUSH1 0xE5 SHL DUP2 MSTORE PUSH1 0x20 PUSH1 0x4 DUP3 ADD MSTORE PUSH1 0x23 PUSH1 0x24 DUP3 ADD MSTORE PUSH32 0x4F6E6C7920456E74726F70792063616E2063616C6C20746869732066756E6374 PUSH1 0x44 DUP3 ADD MSTORE PUSH3 0x34B7B7 PUSH1 0xE9 SHL PUSH1 0x64 DUP3 ADD MSTORE PUSH1 0x84 SWAP1 REVERT JUMPDEST PUSH1 0x40 MLOAD PUSH3 0x461BCD PUSH1 0xE5 SHL DUP2 MSTORE PUSH1 0x20 PUSH1 0x4 DUP3 ADD MSTORE PUSH1 0x17 PUSH1 0x24 DUP3 ADD MSTORE PUSH32 0x456E74726F70792061646472657373206E6F7420736574000000000000000000 PUSH1 0x44 DUP3 ADD MSTORE PUSH1 0x64 SWAP1 REVERT JUMPDEST CALLVALUE PUSH2 0xB7 JUMPI PUSH1 0x0 CALLDATASIZE PUSH1 0x3 NOT ADD SLT PUSH2 0xB7 JUMPI PUSH1 0x20 SWAP1 PUSH1 0x1 SLOAD DUP2 MSTORE RETURN JUMPDEST PUSH1 0x4 CALLDATALOAD SWAP1 PUSH8 0xFFFFFFFFFFFFFFFF DUP3 AND DUP3 SUB PUSH2 0xB7 JUMPI JUMP JUMPDEST SWAP1 PUSH1 0x1F DUP1 NOT SWAP2 ADD AND DUP2 ADD SWAP1 DUP2 LT PUSH8 0xFFFFFFFFFFFFFFFF DUP3 GT OR PUSH2 0x63A JUMPI PUSH1 0x40 MSTORE JUMP JUMPDEST PUSH4 0x4E487B71 PUSH1 0xE0 SHL PUSH1 0x0 MSTORE PUSH1 0x41 PUSH1 0x4 MSTORE PUSH1 0x24 PUSH1 0x0 REVERT JUMPDEST SWAP1 DUP2 PUSH1 0x20 SWAP2 SUB SLT PUSH2 0xB7 JUMPI MLOAD PUSH1 0x1 PUSH1 0x1 PUSH1 0xA0 SHL SUB DUP2 AND DUP2 SUB PUSH2 0xB7 JUMPI SWAP1 JUMP JUMPDEST SWAP1 DUP2 PUSH1 0x20 SWAP2 SUB SLT PUSH2 0xB7 JUMPI MLOAD PUSH1 0x1 PUSH1 0x1 PUSH1 0x80 SHL SUB DUP2 AND DUP2 SUB PUSH2 0xB7 JUMPI SWAP1 JUMP JUMPDEST SWAP1 DUP2 PUSH1 0x20 SWAP2 SUB SLT PUSH2 0xB7 JUMPI MLOAD PUSH8 0xFFFFFFFFFFFFFFFF DUP2 AND DUP2 SUB PUSH2 0xB7 JUMPI SWAP1 JUMP INVALID LOG2 PUSH5 0x6970667358 0x22 SLT KECCAK256 BLOBHASH SELFDESTRUCT 0xCA 0xC0 0x4F MUL PUSH14 0x8E119D08B9191AB5CBB99B56A506 NUMBER 0xD6 MUL 0xE8 GASPRICE 0xEF 0xE0 0x4F GT 0xCF 0x2A PUSH5 0x736F6C6343 STOP ADDMOD SHR STOP CALLER "},"methodIdentifiers":{"_entropyCallback(uint64,address,bytes32)":"52a5f1f8","climb()":"a5432fee","climbRequesters(uint64)":"af8ea8fe","climbResults(uint64)":"f9dbf10a","getClimbRequester(uint64)":"360fbe34","getClimbResult(uint64)":"8bd82c8f","latestRandomNumber()":"16fe73ec","requestRandomNumber(bytes32)":"bd313d78"}}}}}