{"contracts/games/Descend.sol":{"Descend":{"abi":[{"inputs":[],"stateMutability":"nonpayable","type":"constructor"},{"inputs":[{"internalType":"address","name":"owner","type":"address"}],"name":"OwnableInvalidOwner","type":"error"},{"inputs":[{"internalType":"address","name":"account","type":"address"}],"name":"OwnableUnauthorizedAccount","type":"error"},{"anonymous":false,"inputs":[{"indexed":true,"internalType":"uint256","name":"gameId","type":"uint256"},{"indexed":false,"internalType":"address[]","name":"winners","type":"address[]"}],"name":"GameCompleted","type":"event"},{"anonymous":false,"inputs":[{"indexed":false,"internalType":"address[]","name":"players","type":"address[]"},{"indexed":false,"internalType":"uint256[]","name":"playerNumbers","type":"uint256[]"}],"name":"GameInitialized","type":"event"},{"anonymous":false,"inputs":[{"indexed":false,"internalType":"address","name":"newGameMaster","type":"address"}],"name":"GameMasterChanged","type":"event"},{"anonymous":false,"inputs":[{"indexed":true,"internalType":"uint256","name":"gameId","type":"uint256"},{"indexed":false,"internalType":"uint256","name":"level","type":"uint256"},{"indexed":false,"internalType":"uint256","name":"playerCount","type":"uint256"}],"name":"LevelElimination","type":"event"},{"anonymous":false,"inputs":[{"indexed":true,"internalType":"address","name":"previousOwner","type":"address"},{"indexed":true,"internalType":"address","name":"newOwner","type":"address"}],"name":"OwnershipTransferred","type":"event"},{"anonymous":false,"inputs":[{"indexed":true,"internalType":"uint256","name":"gameId","type":"uint256"},{"indexed":true,"internalType":"address","name":"player","type":"address"}],"name":"PlayerCommitted","type":"event"},{"anonymous":false,"inputs":[{"indexed":true,"internalType":"uint256","name":"gameId","type":"uint256"},{"indexed":true,"internalType":"address","name":"player","type":"address"},{"indexed":false,"internalType":"uint256","name":"playerNumber","type":"uint256"}],"name":"PlayerEliminated","type":"event"},{"anonymous":false,"inputs":[{"indexed":true,"internalType":"uint256","name":"gameId","type":"uint256"},{"indexed":true,"internalType":"address","name":"player","type":"address"},{"indexed":false,"internalType":"uint256","name":"fromLevel","type":"uint256"},{"indexed":false,"internalType":"uint256","name":"toLevel","type":"uint256"}],"name":"PlayerMoved","type":"event"},{"anonymous":false,"inputs":[{"indexed":true,"internalType":"uint256","name":"gameId","type":"uint256"},{"indexed":true,"internalType":"address","name":"player","type":"address"},{"indexed":false,"internalType":"uint256","name":"move","type":"uint256"}],"name":"PlayerRevealed","type":"event"},{"anonymous":false,"inputs":[{"indexed":true,"internalType":"uint256","name":"gameId","type":"uint256"},{"indexed":false,"internalType":"uint256","name":"roundNumber","type":"uint256"}],"name":"RoundEnded","type":"event"},{"anonymous":false,"inputs":[{"indexed":true,"internalType":"uint256","name":"gameId","type":"uint256"},{"indexed":false,"internalType":"uint256","name":"roundNumber","type":"uint256"},{"indexed":false,"internalType":"uint256","name":"phase","type":"uint256"},{"indexed":false,"internalType":"uint256","name":"endTime","type":"uint256"},{"indexed":false,"internalType":"uint256[]","name":"levelPopulations","type":"uint256[]"},{"indexed":false,"internalType":"uint256[]","name":"levelCapacities","type":"uint256[]"}],"name":"RoundStarted","type":"event"},{"inputs":[{"internalType":"bytes32","name":"commitment","type":"bytes32"}],"name":"commitMove","outputs":[],"stateMutability":"nonpayable","type":"function"},{"inputs":[],"name":"endExpiredGames","outputs":[],"stateMutability":"nonpayable","type":"function"},{"inputs":[],"name":"endGame","outputs":[{"internalType":"address[]","name":"","type":"address[]"}],"stateMutability":"nonpayable","type":"function"},{"inputs":[],"name":"gameIdCounter","outputs":[{"internalType":"uint256","name":"","type":"uint256"}],"stateMutability":"view","type":"function"},{"inputs":[],"name":"gameMaster","outputs":[{"internalType":"address","name":"","type":"address"}],"stateMutability":"view","type":"function"},{"inputs":[],"name":"getActivePlayers","outputs":[{"internalType":"address[]","name":"","type":"address[]"}],"stateMutability":"view","type":"function"},{"inputs":[{"internalType":"uint256","name":"gameId","type":"uint256"}],"name":"getCurrentPhase","outputs":[{"internalType":"uint256","name":"","type":"uint256"}],"stateMutability":"view","type":"function"},{"inputs":[{"internalType":"uint256","name":"gameId","type":"uint256"}],"name":"getGameInfo","outputs":[{"components":[{"internalType":"enum GameState","name":"state","type":"uint8"},{"internalType":"uint256","name":"currentRound","type":"uint256"},{"internalType":"uint256","name":"roundEndTime","type":"uint256"},{"internalType":"uint256","name":"gameStartTime","type":"uint256"},{"internalType":"uint256","name":"gameEndTime","type":"uint256"}],"internalType":"struct IGame.GameInfo","name":"","type":"tuple"}],"stateMutability":"view","type":"function"},{"inputs":[],"name":"getGameName","outputs":[{"internalType":"string","name":"","type":"string"}],"stateMutability":"pure","type":"function"},{"inputs":[{"internalType":"uint256","name":"gameId","type":"uint256"}],"name":"getGameState","outputs":[{"internalType":"enum GameState","name":"","type":"uint8"}],"stateMutability":"view","type":"function"},{"inputs":[],"name":"getGames","outputs":[{"components":[{"internalType":"uint256","name":"gameId","type":"uint256"},{"internalType":"enum GameState","name":"state","type":"uint8"},{"internalType":"uint256","name":"currentRound","type":"uint256"},{"internalType":"uint256","name":"activePlayerCount","type":"uint256"}],"internalType":"struct GameInstanceInfo[]","name":"gamesInfo","type":"tuple[]"}],"stateMutability":"view","type":"function"},{"inputs":[{"internalType":"uint256","name":"gameId","type":"uint256"},{"internalType":"address","name":"player","type":"address"}],"name":"getLastMove","outputs":[{"internalType":"uint256","name":"","type":"uint256"}],"stateMutability":"view","type":"function"},{"inputs":[{"internalType":"uint256","name":"gameId","type":"uint256"}],"name":"getLevelCapacities","outputs":[{"internalType":"uint256[]","name":"","type":"uint256[]"}],"stateMutability":"view","type":"function"},{"inputs":[{"internalType":"uint256","name":"gameId","type":"uint256"},{"internalType":"uint256","name":"level","type":"uint256"}],"name":"getLevelPopulation","outputs":[{"internalType":"uint256","name":"","type":"uint256"}],"stateMutability":"view","type":"function"},{"inputs":[{"internalType":"uint256","name":"gameId","type":"uint256"}],"name":"getLevelPopulations","outputs":[{"internalType":"uint256[]","name":"","type":"uint256[]"}],"stateMutability":"view","type":"function"},{"inputs":[{"internalType":"address","name":"player","type":"address"}],"name":"getPlayerGameId","outputs":[{"internalType":"uint256","name":"","type":"uint256"}],"stateMutability":"view","type":"function"},{"inputs":[{"internalType":"uint256","name":"gameId","type":"uint256"}],"name":"getPlayerInfo","outputs":[{"components":[{"internalType":"address","name":"playerAddress","type":"address"},{"internalType":"uint256","name":"playerNumber","type":"uint256"},{"internalType":"uint256","name":"level","type":"uint256"},{"internalType":"uint256","name":"lastMove","type":"uint256"},{"internalType":"bool","name":"hasCommitted","type":"bool"},{"internalType":"bool","name":"hasRevealed","type":"bool"},{"internalType":"bool","name":"isActive","type":"bool"}],"internalType":"struct Descend.DescendPlayerInfo[]","name":"","type":"tuple[]"}],"stateMutability":"view","type":"function"},{"inputs":[{"internalType":"uint256","name":"gameId","type":"uint256"},{"internalType":"address","name":"player","type":"address"}],"name":"getPlayerLevel","outputs":[{"internalType":"uint256","name":"","type":"uint256"}],"stateMutability":"view","type":"function"},{"inputs":[{"internalType":"uint256","name":"gameId","type":"uint256"},{"internalType":"address","name":"player","type":"address"}],"name":"getPlayerNumber","outputs":[{"internalType":"uint256","name":"","type":"uint256"}],"stateMutability":"view","type":"function"},{"inputs":[],"name":"getPlayers","outputs":[{"internalType":"address[]","name":"","type":"address[]"}],"stateMutability":"view","type":"function"},{"inputs":[{"internalType":"uint256","name":"gameId","type":"uint256"}],"name":"getRoundEndTime","outputs":[{"internalType":"uint256","name":"","type":"uint256"}],"stateMutability":"view","type":"function"},{"inputs":[{"internalType":"uint256","name":"gameId","type":"uint256"}],"name":"getWinners","outputs":[{"internalType":"address[]","name":"","type":"address[]"}],"stateMutability":"view","type":"function"},{"inputs":[{"internalType":"uint256","name":"gameId","type":"uint256"},{"internalType":"address","name":"player","type":"address"}],"name":"hasPlayerCommitted","outputs":[{"internalType":"bool","name":"","type":"bool"}],"stateMutability":"view","type":"function"},{"inputs":[{"internalType":"uint256","name":"gameId","type":"uint256"},{"internalType":"address","name":"player","type":"address"}],"name":"hasPlayerRevealed","outputs":[{"internalType":"bool","name":"","type":"bool"}],"stateMutability":"view","type":"function"},{"inputs":[{"internalType":"address[]","name":"_players","type":"address[]"},{"internalType":"uint256[]","name":"_playerNumbers","type":"uint256[]"}],"name":"initialize","outputs":[],"stateMutability":"nonpayable","type":"function"},{"inputs":[{"internalType":"address","name":"","type":"address"}],"name":"isPlayerInGame","outputs":[{"internalType":"bool","name":"","type":"bool"}],"stateMutability":"view","type":"function"},{"inputs":[],"name":"owner","outputs":[{"internalType":"address","name":"","type":"address"}],"stateMutability":"view","type":"function"},{"inputs":[{"internalType":"address","name":"","type":"address"}],"name":"playerGameId","outputs":[{"internalType":"uint256","name":"","type":"uint256"}],"stateMutability":"view","type":"function"},{"inputs":[],"name":"renounceOwnership","outputs":[],"stateMutability":"nonpayable","type":"function"},{"inputs":[{"internalType":"uint256","name":"move","type":"uint256"},{"internalType":"bytes32","name":"salt","type":"bytes32"}],"name":"revealMove","outputs":[],"stateMutability":"nonpayable","type":"function"},{"inputs":[{"internalType":"address","name":"_newGameMaster","type":"address"}],"name":"setGameMaster","outputs":[],"stateMutability":"nonpayable","type":"function"},{"inputs":[],"name":"startGames","outputs":[{"internalType":"bool","name":"","type":"bool"}],"stateMutability":"nonpayable","type":"function"},{"inputs":[{"internalType":"address","name":"newOwner","type":"address"}],"name":"transferOwnership","outputs":[],"stateMutability":"nonpayable","type":"function"}],"evm":{"bytecode":{"linkReferences":{},"object":"60808060405234608757331560715760008054336001600160a01b0319821681178355916001600160a01b03909116907f8be0079c531659141344cd1fd0a4f28419497f9722a3daafe3b4186f6b6457e09080a3600180546001600160a01b031916331790556133ca908161008d8239f35b631e4fbdf760e01b600052600060045260246000fd5b600080fdfe6080604052600436101561001257600080fd5b60003560e01c806312b19a13146119135780631336e25c1461185057806318979f9e146117b55780631bb412d61461179757806325b05c88146112af5780633532804d146116fc57806336c86ede146116635780633c4f5a661461158657806347e1d550146114a8578063572e85ec1461145b578063574a5b201461141c5780636b1426a4146113d35780636cbc2ded14611342578063715018a6146112e9578063773b549d146112af5780637d1ddd34146112905780637fbbe46f14610d7057806384cd7d3314610d015780638b5b9ccc14610c105780638da5cb5b14610be7578063a9ea37b614610bcb578063ab594a2114610b39578063bbda33d914610a92578063bdf84ae714610a69578063c04c594714610904578063c2e9492714610849578063d0f3a21e14610797578063d216b62b14610728578063d7bdf85f1461068d578063e81de9f5146104e5578063ea17532e14610269578063f2fde38b146101e05763ffde0c741461018757600080fd5b346101db5760203660031901126101db57600435801515806101cf575b6101ad90611a41565b6000526003602052602060ff604060002054166101cd6040518092611a03565bf35b506002548111156101a4565b600080fd5b346101db5760203660031901126101db576101f96119aa565b610201612b04565b6001600160a01b0316801561025357600080546001600160a01b03198116831782556001600160a01b0316907f8be0079c531659141344cd1fd0a4f28419497f9722a3daafe3b4186f6b6457e09080a3005b631e4fbdf760e01b600052600060045260246000fd5b346101db5760203660031901126101db57600435801515806104d9575b61028f90611a41565b60005260036020526040600020600881018054906102ac82611b02565b926102ba6040519485611ae0565b828452601f196102c984611b02565b0160005b81811061048b575050600090600a810192600d820193600e8301906011840192600c601286019501955b888110610390578960405180916020820160208352815180915260206040840192019060005b81811061032b575050500390f35b91935091602060e060019260c08751858060a01b0381511683528481015185840152604081015160408401526060810151606084015260808101511515608084015260a0810151151560a08401520151151560c082015201940191019184939261031d565b806040898989898960ff86818181818f8f9060019f6103b284939184926120f9565b60018060a01b0391549060031b1c169e8f9260009060018060a01b038516825260205220549d60009060018060a01b038416825260205220549860009160018060a01b031682526020522054976000908f808f9160a01b03168252602052205416966000908d8060a01b038c168252602052205416956000908b8060a01b038a168252602052205416946040519661044988611ac4565b875260208701526040860152606085015215156080840152151560a0830152151560c0820152610479828d611b3d565b52610484818c611b3d565b50016102f7565b60209060409593955161049d81611ac4565b60008152600083820152600060408201526000606082015260006080820152600060a0820152600060c0820152828289010152019391936102cd565b50600254811115610286565b346101db5760003660031901126101db5761050b60018060a01b03600154163314611c95565b6001805b600254811161068057806000526003602052604060002060ff815416600581101561066a576001148061065d575b1561064f57600260ff198254161781556001808201556104b04201908142116106395781600282015561056e611b1a565b90610577611b1a565b906013810160005b60158111156105d6575050928493926105c97f36c6d932cb9691bee381221cc5177bb28fd438ab828d9ed9ed7c3c546cb5d2b49360056105d1989601549260405194859485612342565b0390a2611b92565b61050f565b8061060e91600052826020526040600020546105f28288611b3d565b52806106135760088401546106078287611b3d565b525b611b92565b61057f565b6015810361062a5760078401546106078287611b3d565b60068401546106078287611b3d565b634e487b7160e01b600052601160045260246000fd5b5090506105d1600091611b92565b50600b810154151561053d565b634e487b7160e01b600052602160045260246000fd5b6020826040519015158152f35b346101db5760403660031901126101db576004356106a9611994565b908015158061071c575b6106bc90611a41565b806000526003602052600960406000200160018060a01b0383166000526020526106ed60ff60406000205416611b51565b6000526003602052600e6040600020019060018060a01b03166000526020526020604060002054604051908152f35b506002548111156106b3565b346101db5760403660031901126101db57600435610744611994565b908015158061078b575b61075790611a41565b600052600360205260126040600020019060018060a01b0316600052602052602060ff604060002054166040519015158152f35b5060025481111561074e565b346101db5760003660031901126101db5760015b60025481116108475780600052600360205260406000209060ff82541691600583101561066a5760026107e493146107e9575b50611b92565b6107ab565b6001810154600181148061083a575b1561080e57505061080881612b2d565b826107de565b600214908161082c575b50156108085761082781612e94565b610808565b600291500154421183610818565b50600282015442116107f8565b005b346101db5760203660031901126101db576108626119aa565b61086a612b04565b6001600160a01b031680156108bf576020817f63860f6674590a6969c4fe1dc738a9c8f955407c09e6c67a6bdb818f4c35cd8a926bffffffffffffffffffffffff60a01b6001541617600155604051908152a1005b60405162461bcd60e51b815260206004820152601a60248201527f496e76616c69642047616d654d617374657220616464726573730000000000006044820152606490fd5b346101db5760003660031901126101db5760025461092181611b02565b9061092f6040519283611ae0565b808252601f1961093e82611b02565b0160005b818110610a3657505060015b818111156109c5578260405180916020820160208352815180915260206040840192019060005b818110610983575050500390f35b919350916020608060019260608751805183526109a68582015186850190611a03565b6040810151604084015201516060820152019401910191849392610975565b80600052600360205260406000209060ff82541691600b600582015491015490610a01604051946109f586611aa8565b84865260208601611c16565b6040840152606083015260001981019181831161063957826107de91610a2a610a319588611b3d565b5285611b3d565b61094e565b602090604051610a4581611aa8565b60008152600083820152600060408201526000606082015282828701015201610942565b346101db5760003660031901126101db576001546040516001600160a01b039091168152602090f35b346101db5760003660031901126101db576040516040810181811067ffffffffffffffff821117610b2357604052600781526611195cd8d95b9960ca1b602082015260405190602082528181519182602083015260005b838110610b0b5750508160006040809484010152601f80199101168101030190f35b60208282018101516040878401015285935001610ae9565b634e487b7160e01b600052604160045260246000fd5b346101db5760203660031901126101db5760043580151580610bbf575b610b5f90611a41565b610b67611b1a565b9060005b6015811115610b8e5760405160208082528190610b8a90820186611960565b0390f35b610bba908260005260036020526013604060002001816000526020526040600020546106078286611b3d565b610b6b565b50600254811115610b56565b346101db5760203660031901126101db5761084760043561219f565b346101db5760003660031901126101db576000546040516001600160a01b039091168152602090f35b346101db5760003660031901126101db57600254600160005b82821115610cd657610c3b9150611ba1565b6000916001905b80821115610c585760405180610b8a85826119c0565b610c7f90826000949394526003602052610c86600860406000200160405193848092611bd3565b0383611ae0565b60005b8251811015610cc3576001906001600160a01b03610ca78286611b3d565b5116610cbc610cb589611b92565b9887611b3d565b5201610c89565b509192610cd09150611b92565b90610c42565b610cf5610cfb9183600052600360205260086040600020015490611a7f565b91611b92565b90610c29565b346101db5760403660031901126101db57600435610d1d611994565b9080151580610d64575b610d3090611a41565b600052600360205260116040600020019060018060a01b0316600052602052602060ff604060002054166040519015158152f35b50600254811115610d27565b346101db5760403660031901126101db5760043567ffffffffffffffff81116101db57610da1903690600401611a10565b60243567ffffffffffffffff81116101db57610dc1903690600401611a10565b610dd960018060a09594951b03600154163314611c95565b81156112555780820361121057600282106111cb576103e8820192838311610639576103e783019384116106395760006103e88504156111b757506103e884048304936000958690875b6103e884048110610e32578880f35b610e3d600254611b92565b9081600255818a52600360205260408a2091600160ff198454161783556001600584015542600384015589906103e887048a068310611190575b600a8204600685019080825515611186575b508160011c60078501908082551561117c575b50908b915b818310610f2957505050610eb482612fc8565b610ecc60405192604084526008604085019101611bd3565b82810360208401528781526001600160fb1b038811610f25578260206001947fb66ba8feaec509998ef3217bc97fbf1a0f906b89fac25a4ace8ddff059a41f12938b60051b8b848301378b60051b01030190a101610e23565b8a80fd5b909195610f37818c886120e9565b356001600160a01b0381168103611178576001600160a01b0381161561113a578d9060018060a01b038116825260056020528b8b8860ff604086205416611086575b92610f9b8660409461107d9794610f9685600860019c9a01612111565b6120e9565b35868060a01b0382168352600a8b0160205283832055858060a01b038116825260098a016020528282208660ff19825416179055610fdc81600b8c01612111565b60a086901b8690038116808352600c8b016020908152848420805460ff191689179055818452600d8c018152848420849055908352600e8b0181528383206006905582805260138b019052828220805461103590611b92565b905581805260148a0160205261104d81848420612111565b60a086901b86900316808252600460209081528383208890559082526005905220805460ff191684179055611b92565b96019190610ea1565b5050506001600160a01b038116909152600460205260408e20548015908f908215611102575b5050156110bd578d908b8b88610f79565b60405162461bcd60e51b815260206004820152601d60248201527f506c6179657220616c726561647920696e206163746976652067616d650000006044820152606490fd5b81526003602052604090205460ff1690506005811015611126576004148e386110ac565b634e487b7160e01b8f52602160045260248ffd5b60405162461bcd60e51b8152602060048201526016602482015275496e76616c696420706c61796572206164647265737360501b6044820152606490fd5b8d80fd5b600190558c610e9c565b600190558c610e89565b905060018a01808b116111a35790610e77565b634e487b7160e01b8c52601160045260248cfd5b634e487b7160e01b81526012600452602490fd5b60405162461bcd60e51b815260206004820152601760248201527f4e656564206174206c65617374203220706c61796572730000000000000000006044820152606490fd5b60405162461bcd60e51b815260206004820152601860248201527f4172726179206c656e67746873206d757374206d6174636800000000000000006044820152606490fd5b60405162461bcd60e51b8152602060048201526013602482015272139bc81c1b185e595c9cc81c1c9bdd9a591959606a1b6044820152606490fd5b346101db5760403660031901126101db57610847602435600435611d64565b346101db5760203660031901126101db576001600160a01b036112d06119aa565b1660005260046020526020604060002054604051908152f35b346101db5760003660031901126101db57611302612b04565b600080546001600160a01b0319811682556001600160a01b03167f8be0079c531659141344cd1fd0a4f28419497f9722a3daafe3b4186f6b6457e08280a3005b346101db5760003660031901126101db5761136860018060a01b03600154163314611c95565b60405160206113778183611ae0565b60008252600036813760015b60025481116113c557806000526003825260ff6040600020541690600582101561066a5760026113b792146113bc57611b92565b611383565b610609816123c3565b60405180610b8a85826119c0565b346101db5760203660031901126101db57610b8a61140460043580151580611410575b6113ff90611a41565b611c22565b604051918291826119c0565b506002548111156113f6565b346101db5760203660031901126101db576001600160a01b0361143d6119aa565b166000526005602052602060ff604060002054166040519015158152f35b346101db5760203660031901126101db576004358015158061149c575b61148190611a41565b60005260036020526020600160406000200154604051908152f35b50600254811115611478565b346101db5760203660031901126101db57600435600060806040516114cc81611a8c565b82815282602082015282604082015282606082015201528015158061157a575b6114f590611a41565b600052600360205260a0604060002060ff81541690600581015490600281015460046003830154920154926115366040519561153087611a8c565b86611c16565b60208501908152604085019182526060850192835260808501938452611560604051809651611a03565b516020850152516040840152516060830152516080820152f35b506002548111156114ec565b346101db5760003660031901126101db57600254600160005b8282111561163e576115b19150611ba1565b6000916001905b808211156115ce5760405180610b8a85826119c0565b610c7f908260009493945260036020526115f5600b60406000200160405193848092611bd3565b60005b825181101561162b576001906001600160a01b036116168286611b3d565b5116611624610cb589611b92565b52016115f8565b5091926116389150611b92565b906115b8565b610cf561165d91836000526003602052600b6040600020015490611a7f565b9061159f565b346101db5760403660031901126101db57602435600435801515806116f0575b61168c90611a41565b601582116116bb5760005260036020526013604060002001906000526020526020604060002054604051908152f35b60405162461bcd60e51b815260206004820152600d60248201526c125b9d985b1a59081b195d995b609a1b6044820152606490fd5b50600254811115611683565b346101db5760403660031901126101db57600435611718611994565b908015158061178b575b61172b90611a41565b806000526003602052600960406000200160018060a01b03831660005260205261175c60ff60406000205416611b51565b6000526003602052600a6040600020019060018060a01b03166000526020526020604060002054604051908152f35b50600254811115611722565b346101db5760003660031901126101db576020600254604051908152f35b346101db5760403660031901126101db576004356117d1611994565b9080151580611844575b6117e490611a41565b806000526003602052600960406000200160018060a01b03831660005260205261181560ff60406000205416611b51565b6000526003602052600d6040600020019060018060a01b03166000526020526020604060002054604051908152f35b506002548111156117db565b346101db5760203660031901126101db5760043580151580611907575b61187690611a41565b6000526003602052604060002061188b611b1a565b9060088101548251156118dc576020830152600681015460015b601581106118f257836007840154908051601510156118dc57610b8a916102c0820152604051918291602083526020830190611960565b634e487b7160e01b600052603260045260246000fd5b808261190060019387611b3d565b52016118a5565b5060025481111561186d565b346101db5760203660031901126101db5760043580151580611954575b61193990611a41565b60005260036020526020600260406000200154604051908152f35b50600254811115611930565b906020808351928381520192019060005b81811061197e5750505090565b8251845260209384019390920191600101611971565b602435906001600160a01b03821682036101db57565b600435906001600160a01b03821682036101db57565b602060408183019282815284518094520192019060005b8181106119e45750505090565b82516001600160a01b03168452602093840193909201916001016119d7565b90600582101561066a5752565b9181601f840112156101db5782359167ffffffffffffffff83116101db576020808501948460051b0101116101db57565b15611a4857565b60405162461bcd60e51b815260206004820152600f60248201526e125b9d985b1a590819d85b59481251608a1b6044820152606490fd5b9190820180921161063957565b60a0810190811067ffffffffffffffff821117610b2357604052565b6080810190811067ffffffffffffffff821117610b2357604052565b60e0810190811067ffffffffffffffff821117610b2357604052565b90601f8019910116810190811067ffffffffffffffff821117610b2357604052565b67ffffffffffffffff8111610b235760051b60200190565b6040516102e09190611b2c8382611ae0565b6016815291601f1901366020840137565b80518210156118dc5760209160051b010190565b15611b5857565b60405162461bcd60e51b8152602060048201526012602482015271506c61796572206e6f7420696e2067616d6560701b6044820152606490fd5b60001981146106395760010190565b90611bab82611b02565b611bb86040519182611ae0565b8281528092611bc9601f1991611b02565b0190602036910137565b906020825491828152019160005260206000209060005b818110611bf75750505090565b82546001600160a01b0316845260209093019260019283019201611bea565b600582101561066a5752565b6000526003602052604060002060ff815416600581101561066a57600414611c5f5750604051611c53602082611ae0565b60008152600036813790565b601881018054611c8192611c88929115611c8b57505b60405192838092611bd3565b0382611ae0565b90565b600b915001611c75565b15611c9c57565b60405162461bcd60e51b815260206004820152601860248201527f4f6e6c792047616d654d61737465722063616e2063616c6c00000000000000006044820152606490fd5b15611ce857565b60405162461bcd60e51b8152602060048201526016602482015275506c61796572206e6f7420696e20616e792067616d6560501b6044820152606490fd5b15611d2d57565b60405162461bcd60e51b815260206004820152600f60248201526e47616d65206e6f742061637469766560881b6044820152606490fd5b90336000526005602052611d7f60ff60406000205416611ce1565b3360005260046020526040600020549182600052600360205260406000209060ff825416600581101561066a576002611db89114611d26565b336000908152600d830160208190526040909120546015146120e25733600090815260118401602052604090205460ff16156120a95733600090815260128401602081905260409091205460ff16612071576005831161203d5760018401600181541480612030575b612009575b5460011901611fce57600284019485544211611f9357604051602081019185835260408201523360601b606082015260548152611e64607482611ae0565b519020336000908152600f8601602052604090205403611f5d573360009081526010850160209081526040808320869055928152828220805460ff1916600117905592909252902054601511611f48575b336000908152600e830160205260409020548114611f3a57604051908152837f0319fcec55b5300a4dcc6f96b2df475a149433dc721ba7d96c8fb14495b748ac60203393a360156017820154910154148015611f30575b611f14575050565b54421115611f2757611f2590612e94565b565b611f25906123c3565b5080544211611f0c565b505050611f25903390612c1b565b60178201611f568154611b92565b9055611eb5565b60405162461bcd60e51b815260206004820152600e60248201526d125b9d985b1a59081c995d99585b60921b6044820152606490fd5b60405162461bcd60e51b815260206004820152601360248201527214995d99585b081c195c9a5bd908195b991959606a1b6044820152606490fd5b60405162461bcd60e51b81526020600482015260136024820152724e6f7420696e2072657665616c20706861736560681b6044820152606490fd5b61201287612b2d565b60ff855416600581101561066a57600403611e265750505050505050565b5060028501544211611e21565b60405162461bcd60e51b815260206004820152600c60248201526b496e76616c6964206d6f766560a01b6044820152606490fd5b60405162461bcd60e51b815260206004820152601060248201526f105b1c9958591e481c995d99585b195960821b6044820152606490fd5b60405162461bcd60e51b8152602060048201526011602482015270135d5cdd0818dbdb5b5a5d08199a5c9cdd607a1b6044820152606490fd5b5050505050565b91908110156118dc5760051b0190565b80548210156118dc5760005260206000200190600090565b9081549168010000000000000000831015610b235782612139916001611f25950181556120f9565b81546001600160a01b0393841660039290921b91821b9390911b1916919091179055565b1561216457565b60405162461bcd60e51b81526020600482015260136024820152724e6f7420696e20636f6d6d697420706861736560681b6044820152606490fd5b3360005260056020526121b960ff60406000205416611ce1565b3360005260046020526040600020549081600052600360205260406000209060ff825416600581101561066a5760026121f29114611d26565b600d82019060018060a01b0333166000528160205260156040600020541461233c576122236001808501541461215d565b601183019060018060a01b0333166000528160205260ff6040600020541661230357600284015442116122df57336000908152600f85016020908152604080832093909355928352818120805460ff19166001179055929091529020546015116122ca575b33827f2e6ed0cae7a81e1893017dfafd5fbaf8594adcc50ff27b5f8eb70e0e90acf315600080a360156016820154910154146122c15750565b611f259061311d565b601681016122d88154611b92565b9055612288565b50505060ff906122ee83613032565b5416600581101561066a576004036122c15750565b60405162461bcd60e51b8152602060048201526011602482015270105b1c9958591e4818dbdb5b5a5d1d1959607a1b6044820152606490fd5b50505050565b92611c88949261236b92855260016020860152604085015260a0606085015260a0840190611960565b916080818403910152611960565b60406020820191602081528354809352019160005260206000209060005b8181106123a45750505090565b82546001600160a01b0316845260209093019260019283019201612397565b908160005260036020526040600020600092600091600b810194855460128301945b818110612a90575b5050612a65575b60005b855481101561255c578061240d600192886120f9565b838060a01b0391549060031b1c1660ff60406000858060a01b03841681528860205220541661243e575b50016123f7565b847fb5ac3117b47d1355284f96ae97a243bdf1b9879eb07334364220e37d71fbdda46040806000878060a01b0386168152601089016020522054600d8801826000898060a01b03881681528260205220549161249a8184611a7f565b9183888c60158611612553575b87928694926124b592613228565b6000908c8060a01b038b16825260205220558160005260138a01602052836000206124e08154611b92565b90558160005260148a016020526124fa8785600020612111565b8360008a8060a01b0389168152600e8c0160205220556015811480612542575b612530575b82519182526020820152a338612437565b61253d8660188b01612111565b61251f565b5061254d868a6132b3565b1561251a565b601595506124a7565b50601381019491939092906014840160005b60158111156129eb575060015b60158111156128b65750506005840194807f8868888cc18628a149bc88cc32a91976ab30e2cd9aececb0cfe184a73fe551f960208854604051908152a2600093600886019760118701955b895481101561267d57806125dc6001928c6120f9565b838060a01b0391549060031b1c1660ff60406000858060a01b03841681528b6020522054168015612660575b612614575b50016125c6565b60a083901b83900316600090815260208981526040808320805460ff199081169091558a835281842080549091169055600f8c01825280832083905560108c019091528120553861260d565b5060ff60406000858060a01b03841681528a602052205416612608565b509350949350949095600060168501556000601785015561269d84612fc8565b6126a684613303565b156127d2575050601560005260205260406000205460078201541115612724575b805460ff191660049081178255429082015560180180547fa7690f576eaef889ef9ef29d1eaee6c0e3b073108b66bb8009ec8af6428bb3459261271892911561271d57505b60405191829182612379565b0390a2565b905061270c565b815461272f81611ba1565b600091600d8401835b82811061277a5750505060005b828110612754575050506126c7565b6001906127746001600160a01b0361276c8386611b3d565b511688612c1b565b01612745565b80612787600192896120f9565b838060a01b0391549060031b1c16601560406000858060a01b0384168152866020522054106127b8575b5001612738565b6127cb6127c488611b92565b9787611b3d565b52386127b1565b909291959493506127e38354611b92565b8355600260ff198354161782556001808301556104b042019283421161063957836002840155612811611b1a565b9261281a611b1a565b9260005b6015811115612862575050507f36c6d932cb9691bee381221cc5177bb28fd438ab828d9ed9ed7c3c546cb5d2b4949596509061271891549260405194859485612342565b8061289a916000528a60205260406000205461287e8289611b3d565b5260006015820361289f575060078401545b6106078288611b3d565b61281e565b50806128ac578254612890565b6006840154612890565b8060009795975287602052604060002054601582146000146129e15760078701545b8111806129d7575b6128f7575b506128ef90611b92565b95939561257b565b979192939561291f9682600099939952846020526129266040600020604051998a8092611bd3565b0389611ae0565b600c82019560005b89518110156129915760019060ff60406001600160a01b03612950848f611b3d565b5116600090858060a01b031681528b602052205416612970575b0161292e565b61298c8b61298483858060a01b0392611b3d565b51168b612c1b565b61296a565b509493996128ef93999298508791965060407fd1d2639f7f04024f3049861f7802effaaa3cb181ff4660b1828e7f293a69408b918151908582526020820152a2906128e5565b50601582106128e0565b60068701546128d8565b8060009795975287602052604060002054816000528260205260406000205403612a2057612a1890611b92565b95939561256e565b60405162461bcd60e51b815260206004820152601960248201527f4c6576656c20706f70756c6174696f6e206d69736d61746368000000000000006044820152606490fd5b612a6e82612e94565b60ff815416600581101561066a576004036123f4579293505050600442910155565b612a9a81896120f9565b905460039190911b1c6001600160a01b031660008181526020889052604090205460ff16159081612adf575b50612ad3576001016123e5565b505050600138806123ed565b6001600160a01b03166000908152600d86016020526040902054601511905038612ac6565b6000546001600160a01b03163303612b1857565b63118cdaa760e01b6000523360045260246000fd5b8060005260036020526040600020612b4a6001808301541461215d565b600281015442118015612bba575b15612b755760156016820154910154146122c157611f2590613032565b60405162461bcd60e51b815260206004820152601b60248201527f43616e6e6f7420656e6420636f6d6d69742070686173652079657400000000006044820152606490fd5b506016810154601582015414612b58565b8015610639576000190190565b80548015612c05576000190190612bef82826120f9565b81549060018060a01b039060031b1b1916905555565b634e487b7160e01b600052603160045260246000fd5b9060009180835260036020526040832091600c830160018060a01b03821685528060205260ff60408620541615612e5b576001600160a01b0382168552600d84016020526040852054601590612c72818588613228565b10612df1575b60018060a01b03821685526020526040842060ff19815416905560018060a01b03169182845260056020526040842060ff198154169055828452600460205283604081205583600b8201945b855480821015612de55785612cd983896120f9565b905460039190911b1c6001600160a01b031614612cf95750600101612cc4565b6000969293949596198101908111612dd1578291612139612d20612d3993612d3e966120f9565b905460039190911b1c6001600160a01b031691846120f9565b612bd8565b612d4782612fc8565b6001546001600160a01b0316803b15612dcd57908080600a9493602460405180948193633ef6cf1d60e21b83528b60048401525af1612dbd575b505083600052016020527f51479c93d7646904d2282e9e79cddf11999ac774b7fd0289e2f59cb4ad0f086a6020604060002054604051908152a3565b81612dc791611ae0565b38612d81565b5080fd5b634e487b7160e01b84526011600452602484fd5b50509091929350612d3e565b6001600160a01b038216855260118401602052604085205460ff16612e46575b6001600160a01b038216855260128401602052604085205460ff1615612c785760178401612e3f8154612bcb565b9055612c78565b60168401612e548154612bcb565b9055612e11565b60405162461bcd60e51b8152602060048201526011602482015270506c61796572206e6f742061637469766560781b6044820152606490fd5b8060005260036020526040600020600b8101908154612eb281611ba1565b60009160128401835b828110612f505750505060005b828110612f3257505050612edb81612fc8565b6002825410612ee957505050565b805460ff1916600417815560180180547fa7690f576eaef889ef9ef29d1eaee6c0e3b073108b66bb8009ec8af6428bb3459261271892911561271d575060405191829182612379565b600190612f4a6001600160a01b0361276c8386611b3d565b01612ec8565b80612f5d600192896120f9565b838060a01b0391549060031b1c1660ff60406000858060a01b0384168152866020522054161580612fa8575b612f95575b5001612ebb565b612fa16127c488611b92565b5238612f8e565b50601560406000858060a01b0384168152600d8b01602052205410612f89565b6000805b600b83018054821015613029576040612fe7836015936120f9565b905460039190911b1c6001600160a01b03166000908152600d8601602052205410613015575b600101612fcc565b90613021600191611b92565b91905061300d565b50509060150155565b8060005260036020526040600020600b810190815461305081611ba1565b60009160118401835b8281106130a55750505060005b8281106130875750505061307981612fc8565b60028254106126c757505050565b60019061309f6001600160a01b0361276c8386611b3d565b01613066565b806130b2600192896120f9565b838060a01b0391549060031b1c1660ff60406000858060a01b03841681528660205220541615806130fd575b6130ea575b5001613059565b6130f66127c488611b92565b52386130e3565b50601560406000858060a01b0384168152600d8b016020522054106130de565b90816000526003602052604060002091600260018401556104b042018042116106395780600285015561314e611b1a565b613156611b1a565b946013810160005b60158111156131cc5750507f36c6d932cb9691bee381221cc5177bb28fd438ab828d9ed9ed7c3c546cb5d2b49394956131be600561271893015493604051958695865260026020870152604086015260a0606086015260a0850190611960565b908382036080850152611960565b806131fd91600052826020526040600020546131e88287611b3d565b5280613202576008840154610607828b611b3d565b61315e565b60158103613219576007840154610607828b611b3d565b6006840154610607828b611b3d565b60149192806000526013820160205260406000206132468154612bcb565b905560005201602052604060002060005b81548082101561233c5761326b82846120f9565b905460039190911b1c6001600160a01b03908116908516146132905750600101613257565b909250600019810190811161063957611f2592612139612d20612d3993856120f9565b9060005b6018830180548210156132fa57816132ce916120f9565b905460039190911b1c6001600160a01b03908116908316146132f2576001016132b7565b505050600190565b50505050600090565b600b810190815491600283108015613385575b6132f257601560005260138201602052604060002054600783015411156132f25760005b83811061334a5750505050600190565b6015604061335883856120f9565b905460039190911b1c6001600160a01b03166000908152600d86016020522054036132fa5760010161333a565b5060646005830154101561331656fea2646970667358221220cb73564c12f9a1baa75b947bb6538cfab6f960498483eaae09fd826d5477ea7364736f6c634300081c0033","opcodes":"PUSH1 0x80 DUP1 PUSH1 0x40 MSTORE CALLVALUE PUSH1 0x87 JUMPI CALLER ISZERO PUSH1 0x71 JUMPI PUSH1 0x0 DUP1 SLOAD CALLER PUSH1 0x1 PUSH1 0x1 PUSH1 0xA0 SHL SUB NOT DUP3 AND DUP2 OR DUP4 SSTORE SWAP2 PUSH1 0x1 PUSH1 0x1 PUSH1 0xA0 SHL SUB SWAP1 SWAP2 AND SWAP1 PUSH32 0x8BE0079C531659141344CD1FD0A4F28419497F9722A3DAAFE3B4186F6B6457E0 SWAP1 DUP1 LOG3 PUSH1 0x1 DUP1 SLOAD PUSH1 0x1 PUSH1 0x1 PUSH1 0xA0 SHL SUB NOT AND CALLER OR SWAP1 SSTORE PUSH2 0x33CA SWAP1 DUP2 PUSH2 0x8D DUP3 CODECOPY RETURN JUMPDEST PUSH4 0x1E4FBDF7 PUSH1 0xE0 SHL PUSH1 0x0 MSTORE PUSH1 0x0 PUSH1 0x4 MSTORE PUSH1 0x24 PUSH1 0x0 REVERT JUMPDEST PUSH1 0x0 DUP1 REVERT INVALID PUSH1 0x80 PUSH1 0x40 MSTORE PUSH1 0x4 CALLDATASIZE LT ISZERO PUSH2 0x12 JUMPI PUSH1 0x0 DUP1 REVERT JUMPDEST PUSH1 0x0 CALLDATALOAD PUSH1 0xE0 SHR DUP1 PUSH4 0x12B19A13 EQ PUSH2 0x1913 JUMPI DUP1 PUSH4 0x1336E25C EQ PUSH2 0x1850 JUMPI DUP1 PUSH4 0x18979F9E EQ PUSH2 0x17B5 JUMPI DUP1 PUSH4 0x1BB412D6 EQ PUSH2 0x1797 JUMPI DUP1 PUSH4 0x25B05C88 EQ PUSH2 0x12AF JUMPI DUP1 PUSH4 0x3532804D EQ PUSH2 0x16FC JUMPI DUP1 PUSH4 0x36C86EDE EQ PUSH2 0x1663 JUMPI DUP1 PUSH4 0x3C4F5A66 EQ PUSH2 0x1586 JUMPI DUP1 PUSH4 0x47E1D550 EQ PUSH2 0x14A8 JUMPI DUP1 PUSH4 0x572E85EC EQ PUSH2 0x145B JUMPI DUP1 PUSH4 0x574A5B20 EQ PUSH2 0x141C JUMPI DUP1 PUSH4 0x6B1426A4 EQ PUSH2 0x13D3 JUMPI DUP1 PUSH4 0x6CBC2DED EQ PUSH2 0x1342 JUMPI DUP1 PUSH4 0x715018A6 EQ PUSH2 0x12E9 JUMPI DUP1 PUSH4 0x773B549D EQ PUSH2 0x12AF JUMPI DUP1 PUSH4 0x7D1DDD34 EQ PUSH2 0x1290 JUMPI DUP1 PUSH4 0x7FBBE46F EQ PUSH2 0xD70 JUMPI DUP1 PUSH4 0x84CD7D33 EQ PUSH2 0xD01 JUMPI DUP1 PUSH4 0x8B5B9CCC EQ PUSH2 0xC10 JUMPI DUP1 PUSH4 0x8DA5CB5B EQ PUSH2 0xBE7 JUMPI DUP1 PUSH4 0xA9EA37B6 EQ PUSH2 0xBCB JUMPI DUP1 PUSH4 0xAB594A21 EQ PUSH2 0xB39 JUMPI DUP1 PUSH4 0xBBDA33D9 EQ PUSH2 0xA92 JUMPI DUP1 PUSH4 0xBDF84AE7 EQ PUSH2 0xA69 JUMPI DUP1 PUSH4 0xC04C5947 EQ PUSH2 0x904 JUMPI DUP1 PUSH4 0xC2E94927 EQ PUSH2 0x849 JUMPI DUP1 PUSH4 0xD0F3A21E EQ PUSH2 0x797 JUMPI DUP1 PUSH4 0xD216B62B EQ PUSH2 0x728 JUMPI DUP1 PUSH4 0xD7BDF85F EQ PUSH2 0x68D JUMPI DUP1 PUSH4 0xE81DE9F5 EQ PUSH2 0x4E5 JUMPI DUP1 PUSH4 0xEA17532E EQ PUSH2 0x269 JUMPI DUP1 PUSH4 0xF2FDE38B EQ PUSH2 0x1E0 JUMPI PUSH4 0xFFDE0C74 EQ PUSH2 0x187 JUMPI PUSH1 0x0 DUP1 REVERT JUMPDEST CALLVALUE PUSH2 0x1DB JUMPI PUSH1 0x20 CALLDATASIZE PUSH1 0x3 NOT ADD SLT PUSH2 0x1DB JUMPI PUSH1 0x4 CALLDATALOAD DUP1 ISZERO ISZERO DUP1 PUSH2 0x1CF JUMPI JUMPDEST PUSH2 0x1AD SWAP1 PUSH2 0x1A41 JUMP JUMPDEST PUSH1 0x0 MSTORE PUSH1 0x3 PUSH1 0x20 MSTORE PUSH1 0x20 PUSH1 0xFF PUSH1 0x40 PUSH1 0x0 KECCAK256 SLOAD AND PUSH2 0x1CD PUSH1 0x40 MLOAD DUP1 SWAP3 PUSH2 0x1A03 JUMP JUMPDEST RETURN JUMPDEST POP PUSH1 0x2 SLOAD DUP2 GT ISZERO PUSH2 0x1A4 JUMP JUMPDEST PUSH1 0x0 DUP1 REVERT JUMPDEST CALLVALUE PUSH2 0x1DB JUMPI PUSH1 0x20 CALLDATASIZE PUSH1 0x3 NOT ADD SLT PUSH2 0x1DB JUMPI PUSH2 0x1F9 PUSH2 0x19AA JUMP JUMPDEST PUSH2 0x201 PUSH2 0x2B04 JUMP JUMPDEST PUSH1 0x1 PUSH1 0x1 PUSH1 0xA0 SHL SUB AND DUP1 ISZERO PUSH2 0x253 JUMPI PUSH1 0x0 DUP1 SLOAD PUSH1 0x1 PUSH1 0x1 PUSH1 0xA0 SHL SUB NOT DUP2 AND DUP4 OR DUP3 SSTORE PUSH1 0x1 PUSH1 0x1 PUSH1 0xA0 SHL SUB AND SWAP1 PUSH32 0x8BE0079C531659141344CD1FD0A4F28419497F9722A3DAAFE3B4186F6B6457E0 SWAP1 DUP1 LOG3 STOP JUMPDEST PUSH4 0x1E4FBDF7 PUSH1 0xE0 SHL PUSH1 0x0 MSTORE PUSH1 0x0 PUSH1 0x4 MSTORE PUSH1 0x24 PUSH1 0x0 REVERT JUMPDEST CALLVALUE PUSH2 0x1DB JUMPI PUSH1 0x20 CALLDATASIZE PUSH1 0x3 NOT ADD SLT PUSH2 0x1DB JUMPI PUSH1 0x4 CALLDATALOAD DUP1 ISZERO ISZERO DUP1 PUSH2 0x4D9 JUMPI JUMPDEST PUSH2 0x28F SWAP1 PUSH2 0x1A41 JUMP JUMPDEST PUSH1 0x0 MSTORE PUSH1 0x3 PUSH1 0x20 MSTORE PUSH1 0x40 PUSH1 0x0 KECCAK256 PUSH1 0x8 DUP2 ADD DUP1 SLOAD SWAP1 PUSH2 0x2AC DUP3 PUSH2 0x1B02 JUMP JUMPDEST SWAP3 PUSH2 0x2BA PUSH1 0x40 MLOAD SWAP5 DUP6 PUSH2 0x1AE0 JUMP JUMPDEST DUP3 DUP5 MSTORE PUSH1 0x1F NOT PUSH2 0x2C9 DUP5 PUSH2 0x1B02 JUMP JUMPDEST ADD PUSH1 0x0 JUMPDEST DUP2 DUP2 LT PUSH2 0x48B JUMPI POP POP PUSH1 0x0 SWAP1 PUSH1 0xA DUP2 ADD SWAP3 PUSH1 0xD DUP3 ADD SWAP4 PUSH1 0xE DUP4 ADD SWAP1 PUSH1 0x11 DUP5 ADD SWAP3 PUSH1 0xC PUSH1 0x12 DUP7 ADD SWAP6 ADD SWAP6 JUMPDEST DUP9 DUP2 LT PUSH2 0x390 JUMPI DUP10 PUSH1 0x40 MLOAD DUP1 SWAP2 PUSH1 0x20 DUP3 ADD PUSH1 0x20 DUP4 MSTORE DUP2 MLOAD DUP1 SWAP2 MSTORE PUSH1 0x20 PUSH1 0x40 DUP5 ADD SWAP3 ADD SWAP1 PUSH1 0x0 JUMPDEST DUP2 DUP2 LT PUSH2 0x32B JUMPI POP POP POP SUB SWAP1 RETURN JUMPDEST SWAP2 SWAP4 POP SWAP2 PUSH1 0x20 PUSH1 0xE0 PUSH1 0x1 SWAP3 PUSH1 0xC0 DUP8 MLOAD DUP6 DUP1 PUSH1 0xA0 SHL SUB DUP2 MLOAD AND DUP4 MSTORE DUP5 DUP2 ADD MLOAD DUP6 DUP5 ADD MSTORE PUSH1 0x40 DUP2 ADD MLOAD PUSH1 0x40 DUP5 ADD MSTORE PUSH1 0x60 DUP2 ADD MLOAD PUSH1 0x60 DUP5 ADD MSTORE PUSH1 0x80 DUP2 ADD MLOAD ISZERO ISZERO PUSH1 0x80 DUP5 ADD MSTORE PUSH1 0xA0 DUP2 ADD MLOAD ISZERO ISZERO PUSH1 0xA0 DUP5 ADD MSTORE ADD MLOAD ISZERO ISZERO PUSH1 0xC0 DUP3 ADD MSTORE ADD SWAP5 ADD SWAP2 ADD SWAP2 DUP5 SWAP4 SWAP3 PUSH2 0x31D JUMP JUMPDEST DUP1 PUSH1 0x40 DUP10 DUP10 DUP10 DUP10 DUP10 PUSH1 0xFF DUP7 DUP2 DUP2 DUP2 DUP2 DUP16 DUP16 SWAP1 PUSH1 0x1 SWAP16 PUSH2 0x3B2 DUP5 SWAP4 SWAP2 DUP5 SWAP3 PUSH2 0x20F9 JUMP JUMPDEST PUSH1 0x1 DUP1 PUSH1 0xA0 SHL SUB SWAP2 SLOAD SWAP1 PUSH1 0x3 SHL SHR AND SWAP15 DUP16 SWAP3 PUSH1 0x0 SWAP1 PUSH1 0x1 DUP1 PUSH1 0xA0 SHL SUB DUP6 AND DUP3 MSTORE PUSH1 0x20 MSTORE KECCAK256 SLOAD SWAP14 PUSH1 0x0 SWAP1 PUSH1 0x1 DUP1 PUSH1 0xA0 SHL SUB DUP5 AND DUP3 MSTORE PUSH1 0x20 MSTORE KECCAK256 SLOAD SWAP9 PUSH1 0x0 SWAP2 PUSH1 0x1 DUP1 PUSH1 0xA0 SHL SUB AND DUP3 MSTORE PUSH1 0x20 MSTORE KECCAK256 SLOAD SWAP8 PUSH1 0x0 SWAP1 DUP16 DUP1 DUP16 SWAP2 PUSH1 0xA0 SHL SUB AND DUP3 MSTORE PUSH1 0x20 MSTORE KECCAK256 SLOAD AND SWAP7 PUSH1 0x0 SWAP1 DUP14 DUP1 PUSH1 0xA0 SHL SUB DUP13 AND DUP3 MSTORE PUSH1 0x20 MSTORE KECCAK256 SLOAD AND SWAP6 PUSH1 0x0 SWAP1 DUP12 DUP1 PUSH1 0xA0 SHL SUB DUP11 AND DUP3 MSTORE PUSH1 0x20 MSTORE KECCAK256 SLOAD AND SWAP5 PUSH1 0x40 MLOAD SWAP7 PUSH2 0x449 DUP9 PUSH2 0x1AC4 JUMP JUMPDEST DUP8 MSTORE PUSH1 0x20 DUP8 ADD MSTORE PUSH1 0x40 DUP7 ADD MSTORE PUSH1 0x60 DUP6 ADD MSTORE ISZERO ISZERO PUSH1 0x80 DUP5 ADD MSTORE ISZERO ISZERO PUSH1 0xA0 DUP4 ADD MSTORE ISZERO ISZERO PUSH1 0xC0 DUP3 ADD MSTORE PUSH2 0x479 DUP3 DUP14 PUSH2 0x1B3D JUMP JUMPDEST MSTORE PUSH2 0x484 DUP2 DUP13 PUSH2 0x1B3D JUMP JUMPDEST POP ADD PUSH2 0x2F7 JUMP JUMPDEST PUSH1 0x20 SWAP1 PUSH1 0x40 SWAP6 SWAP4 SWAP6 MLOAD PUSH2 0x49D DUP2 PUSH2 0x1AC4 JUMP JUMPDEST PUSH1 0x0 DUP2 MSTORE PUSH1 0x0 DUP4 DUP3 ADD MSTORE PUSH1 0x0 PUSH1 0x40 DUP3 ADD MSTORE PUSH1 0x0 PUSH1 0x60 DUP3 ADD MSTORE PUSH1 0x0 PUSH1 0x80 DUP3 ADD MSTORE PUSH1 0x0 PUSH1 0xA0 DUP3 ADD MSTORE PUSH1 0x0 PUSH1 0xC0 DUP3 ADD MSTORE DUP3 DUP3 DUP10 ADD ADD MSTORE ADD SWAP4 SWAP2 SWAP4 PUSH2 0x2CD JUMP JUMPDEST POP PUSH1 0x2 SLOAD DUP2 GT ISZERO PUSH2 0x286 JUMP JUMPDEST CALLVALUE PUSH2 0x1DB JUMPI PUSH1 0x0 CALLDATASIZE PUSH1 0x3 NOT ADD SLT PUSH2 0x1DB JUMPI PUSH2 0x50B PUSH1 0x1 DUP1 PUSH1 0xA0 SHL SUB PUSH1 0x1 SLOAD AND CALLER EQ PUSH2 0x1C95 JUMP JUMPDEST PUSH1 0x1 DUP1 JUMPDEST PUSH1 0x2 SLOAD DUP2 GT PUSH2 0x680 JUMPI DUP1 PUSH1 0x0 MSTORE PUSH1 0x3 PUSH1 0x20 MSTORE PUSH1 0x40 PUSH1 0x0 KECCAK256 PUSH1 0xFF DUP2 SLOAD AND PUSH1 0x5 DUP2 LT ISZERO PUSH2 0x66A JUMPI PUSH1 0x1 EQ DUP1 PUSH2 0x65D JUMPI JUMPDEST ISZERO PUSH2 0x64F JUMPI PUSH1 0x2 PUSH1 0xFF NOT DUP3 SLOAD AND OR DUP2 SSTORE PUSH1 0x1 DUP1 DUP3 ADD SSTORE PUSH2 0x4B0 TIMESTAMP ADD SWAP1 DUP2 TIMESTAMP GT PUSH2 0x639 JUMPI DUP2 PUSH1 0x2 DUP3 ADD SSTORE PUSH2 0x56E PUSH2 0x1B1A JUMP JUMPDEST SWAP1 PUSH2 0x577 PUSH2 0x1B1A JUMP JUMPDEST SWAP1 PUSH1 0x13 DUP2 ADD PUSH1 0x0 JUMPDEST PUSH1 0x15 DUP2 GT ISZERO PUSH2 0x5D6 JUMPI POP POP SWAP3 DUP5 SWAP4 SWAP3 PUSH2 0x5C9 PUSH32 0x36C6D932CB9691BEE381221CC5177BB28FD438AB828D9ED9ED7C3C546CB5D2B4 SWAP4 PUSH1 0x5 PUSH2 0x5D1 SWAP9 SWAP7 ADD SLOAD SWAP3 PUSH1 0x40 MLOAD SWAP5 DUP6 SWAP5 DUP6 PUSH2 0x2342 JUMP JUMPDEST SUB SWAP1 LOG2 PUSH2 0x1B92 JUMP JUMPDEST PUSH2 0x50F JUMP JUMPDEST DUP1 PUSH2 0x60E SWAP2 PUSH1 0x0 MSTORE DUP3 PUSH1 0x20 MSTORE PUSH1 0x40 PUSH1 0x0 KECCAK256 SLOAD PUSH2 0x5F2 DUP3 DUP9 PUSH2 0x1B3D JUMP JUMPDEST MSTORE DUP1 PUSH2 0x613 JUMPI PUSH1 0x8 DUP5 ADD SLOAD PUSH2 0x607 DUP3 DUP8 PUSH2 0x1B3D JUMP JUMPDEST MSTORE JUMPDEST PUSH2 0x1B92 JUMP JUMPDEST PUSH2 0x57F JUMP JUMPDEST PUSH1 0x15 DUP2 SUB PUSH2 0x62A JUMPI PUSH1 0x7 DUP5 ADD SLOAD PUSH2 0x607 DUP3 DUP8 PUSH2 0x1B3D JUMP JUMPDEST PUSH1 0x6 DUP5 ADD SLOAD PUSH2 0x607 DUP3 DUP8 PUSH2 0x1B3D JUMP JUMPDEST PUSH4 0x4E487B71 PUSH1 0xE0 SHL PUSH1 0x0 MSTORE PUSH1 0x11 PUSH1 0x4 MSTORE PUSH1 0x24 PUSH1 0x0 REVERT JUMPDEST POP SWAP1 POP PUSH2 0x5D1 PUSH1 0x0 SWAP2 PUSH2 0x1B92 JUMP JUMPDEST POP PUSH1 0xB DUP2 ADD SLOAD ISZERO ISZERO PUSH2 0x53D JUMP JUMPDEST PUSH4 0x4E487B71 PUSH1 0xE0 SHL PUSH1 0x0 MSTORE PUSH1 0x21 PUSH1 0x4 MSTORE PUSH1 0x24 PUSH1 0x0 REVERT JUMPDEST PUSH1 0x20 DUP3 PUSH1 0x40 MLOAD SWAP1 ISZERO ISZERO DUP2 MSTORE RETURN JUMPDEST CALLVALUE PUSH2 0x1DB JUMPI PUSH1 0x40 CALLDATASIZE PUSH1 0x3 NOT ADD SLT PUSH2 0x1DB JUMPI PUSH1 0x4 CALLDATALOAD PUSH2 0x6A9 PUSH2 0x1994 JUMP JUMPDEST SWAP1 DUP1 ISZERO ISZERO DUP1 PUSH2 0x71C JUMPI JUMPDEST PUSH2 0x6BC SWAP1 PUSH2 0x1A41 JUMP JUMPDEST DUP1 PUSH1 0x0 MSTORE PUSH1 0x3 PUSH1 0x20 MSTORE PUSH1 0x9 PUSH1 0x40 PUSH1 0x0 KECCAK256 ADD PUSH1 0x1 DUP1 PUSH1 0xA0 SHL SUB DUP4 AND PUSH1 0x0 MSTORE PUSH1 0x20 MSTORE PUSH2 0x6ED PUSH1 0xFF PUSH1 0x40 PUSH1 0x0 KECCAK256 SLOAD AND PUSH2 0x1B51 JUMP JUMPDEST PUSH1 0x0 MSTORE PUSH1 0x3 PUSH1 0x20 MSTORE PUSH1 0xE PUSH1 0x40 PUSH1 0x0 KECCAK256 ADD SWAP1 PUSH1 0x1 DUP1 PUSH1 0xA0 SHL SUB AND PUSH1 0x0 MSTORE PUSH1 0x20 MSTORE PUSH1 0x20 PUSH1 0x40 PUSH1 0x0 KECCAK256 SLOAD PUSH1 0x40 MLOAD SWAP1 DUP2 MSTORE RETURN JUMPDEST POP PUSH1 0x2 SLOAD DUP2 GT ISZERO PUSH2 0x6B3 JUMP JUMPDEST CALLVALUE PUSH2 0x1DB JUMPI PUSH1 0x40 CALLDATASIZE PUSH1 0x3 NOT ADD SLT PUSH2 0x1DB JUMPI PUSH1 0x4 CALLDATALOAD PUSH2 0x744 PUSH2 0x1994 JUMP JUMPDEST SWAP1 DUP1 ISZERO ISZERO DUP1 PUSH2 0x78B JUMPI JUMPDEST PUSH2 0x757 SWAP1 PUSH2 0x1A41 JUMP JUMPDEST PUSH1 0x0 MSTORE PUSH1 0x3 PUSH1 0x20 MSTORE PUSH1 0x12 PUSH1 0x40 PUSH1 0x0 KECCAK256 ADD SWAP1 PUSH1 0x1 DUP1 PUSH1 0xA0 SHL SUB AND PUSH1 0x0 MSTORE PUSH1 0x20 MSTORE PUSH1 0x20 PUSH1 0xFF PUSH1 0x40 PUSH1 0x0 KECCAK256 SLOAD AND PUSH1 0x40 MLOAD SWAP1 ISZERO ISZERO DUP2 MSTORE RETURN JUMPDEST POP PUSH1 0x2 SLOAD DUP2 GT ISZERO PUSH2 0x74E JUMP JUMPDEST CALLVALUE PUSH2 0x1DB JUMPI PUSH1 0x0 CALLDATASIZE PUSH1 0x3 NOT ADD SLT PUSH2 0x1DB JUMPI PUSH1 0x1 JUMPDEST PUSH1 0x2 SLOAD DUP2 GT PUSH2 0x847 JUMPI DUP1 PUSH1 0x0 MSTORE PUSH1 0x3 PUSH1 0x20 MSTORE PUSH1 0x40 PUSH1 0x0 KECCAK256 SWAP1 PUSH1 0xFF DUP3 SLOAD AND SWAP2 PUSH1 0x5 DUP4 LT ISZERO PUSH2 0x66A JUMPI PUSH1 0x2 PUSH2 0x7E4 SWAP4 EQ PUSH2 0x7E9 JUMPI JUMPDEST POP PUSH2 0x1B92 JUMP JUMPDEST PUSH2 0x7AB JUMP JUMPDEST PUSH1 0x1 DUP2 ADD SLOAD PUSH1 0x1 DUP2 EQ DUP1 PUSH2 0x83A JUMPI JUMPDEST ISZERO PUSH2 0x80E JUMPI POP POP PUSH2 0x808 DUP2 PUSH2 0x2B2D JUMP JUMPDEST DUP3 PUSH2 0x7DE JUMP JUMPDEST PUSH1 0x2 EQ SWAP1 DUP2 PUSH2 0x82C JUMPI JUMPDEST POP ISZERO PUSH2 0x808 JUMPI PUSH2 0x827 DUP2 PUSH2 0x2E94 JUMP JUMPDEST PUSH2 0x808 JUMP JUMPDEST PUSH1 0x2 SWAP2 POP ADD SLOAD TIMESTAMP GT DUP4 PUSH2 0x818 JUMP JUMPDEST POP PUSH1 0x2 DUP3 ADD SLOAD TIMESTAMP GT PUSH2 0x7F8 JUMP JUMPDEST STOP JUMPDEST CALLVALUE PUSH2 0x1DB JUMPI PUSH1 0x20 CALLDATASIZE PUSH1 0x3 NOT ADD SLT PUSH2 0x1DB JUMPI PUSH2 0x862 PUSH2 0x19AA JUMP JUMPDEST PUSH2 0x86A PUSH2 0x2B04 JUMP JUMPDEST PUSH1 0x1 PUSH1 0x1 PUSH1 0xA0 SHL SUB AND DUP1 ISZERO PUSH2 0x8BF JUMPI PUSH1 0x20 DUP2 PUSH32 0x63860F6674590A6969C4FE1DC738A9C8F955407C09E6C67A6BDB818F4C35CD8A SWAP3 PUSH12 0xFFFFFFFFFFFFFFFFFFFFFFFF PUSH1 0xA0 SHL PUSH1 0x1 SLOAD AND OR PUSH1 0x1 SSTORE PUSH1 0x40 MLOAD SWAP1 DUP2 MSTORE LOG1 STOP JUMPDEST PUSH1 0x40 MLOAD PUSH3 0x461BCD PUSH1 0xE5 SHL DUP2 MSTORE PUSH1 0x20 PUSH1 0x4 DUP3 ADD MSTORE PUSH1 0x1A PUSH1 0x24 DUP3 ADD MSTORE PUSH32 0x496E76616C69642047616D654D61737465722061646472657373000000000000 PUSH1 0x44 DUP3 ADD MSTORE PUSH1 0x64 SWAP1 REVERT JUMPDEST CALLVALUE PUSH2 0x1DB JUMPI PUSH1 0x0 CALLDATASIZE PUSH1 0x3 NOT ADD SLT PUSH2 0x1DB JUMPI PUSH1 0x2 SLOAD PUSH2 0x921 DUP2 PUSH2 0x1B02 JUMP JUMPDEST SWAP1 PUSH2 0x92F PUSH1 0x40 MLOAD SWAP3 DUP4 PUSH2 0x1AE0 JUMP JUMPDEST DUP1 DUP3 MSTORE PUSH1 0x1F NOT PUSH2 0x93E DUP3 PUSH2 0x1B02 JUMP JUMPDEST ADD PUSH1 0x0 JUMPDEST DUP2 DUP2 LT PUSH2 0xA36 JUMPI POP POP PUSH1 0x1 JUMPDEST DUP2 DUP2 GT ISZERO PUSH2 0x9C5 JUMPI DUP3 PUSH1 0x40 MLOAD DUP1 SWAP2 PUSH1 0x20 DUP3 ADD PUSH1 0x20 DUP4 MSTORE DUP2 MLOAD DUP1 SWAP2 MSTORE PUSH1 0x20 PUSH1 0x40 DUP5 ADD SWAP3 ADD SWAP1 PUSH1 0x0 JUMPDEST DUP2 DUP2 LT PUSH2 0x983 JUMPI POP POP POP SUB SWAP1 RETURN JUMPDEST SWAP2 SWAP4 POP SWAP2 PUSH1 0x20 PUSH1 0x80 PUSH1 0x1 SWAP3 PUSH1 0x60 DUP8 MLOAD DUP1 MLOAD DUP4 MSTORE PUSH2 0x9A6 DUP6 DUP3 ADD MLOAD DUP7 DUP6 ADD SWAP1 PUSH2 0x1A03 JUMP JUMPDEST PUSH1 0x40 DUP2 ADD MLOAD PUSH1 0x40 DUP5 ADD MSTORE ADD MLOAD PUSH1 0x60 DUP3 ADD MSTORE ADD SWAP5 ADD SWAP2 ADD SWAP2 DUP5 SWAP4 SWAP3 PUSH2 0x975 JUMP JUMPDEST DUP1 PUSH1 0x0 MSTORE PUSH1 0x3 PUSH1 0x20 MSTORE PUSH1 0x40 PUSH1 0x0 KECCAK256 SWAP1 PUSH1 0xFF DUP3 SLOAD AND SWAP2 PUSH1 0xB PUSH1 0x5 DUP3 ADD SLOAD SWAP2 ADD SLOAD SWAP1 PUSH2 0xA01 PUSH1 0x40 MLOAD SWAP5 PUSH2 0x9F5 DUP7 PUSH2 0x1AA8 JUMP JUMPDEST DUP5 DUP7 MSTORE PUSH1 0x20 DUP7 ADD PUSH2 0x1C16 JUMP JUMPDEST PUSH1 0x40 DUP5 ADD MSTORE PUSH1 0x60 DUP4 ADD MSTORE PUSH1 0x0 NOT DUP2 ADD SWAP2 DUP2 DUP4 GT PUSH2 0x639 JUMPI DUP3 PUSH2 0x7DE SWAP2 PUSH2 0xA2A PUSH2 0xA31 SWAP6 DUP9 PUSH2 0x1B3D JUMP JUMPDEST MSTORE DUP6 PUSH2 0x1B3D JUMP JUMPDEST PUSH2 0x94E JUMP JUMPDEST PUSH1 0x20 SWAP1 PUSH1 0x40 MLOAD PUSH2 0xA45 DUP2 PUSH2 0x1AA8 JUMP JUMPDEST PUSH1 0x0 DUP2 MSTORE PUSH1 0x0 DUP4 DUP3 ADD MSTORE PUSH1 0x0 PUSH1 0x40 DUP3 ADD MSTORE PUSH1 0x0 PUSH1 0x60 DUP3 ADD MSTORE DUP3 DUP3 DUP8 ADD ADD MSTORE ADD PUSH2 0x942 JUMP JUMPDEST CALLVALUE PUSH2 0x1DB JUMPI PUSH1 0x0 CALLDATASIZE PUSH1 0x3 NOT ADD SLT PUSH2 0x1DB JUMPI PUSH1 0x1 SLOAD PUSH1 0x40 MLOAD PUSH1 0x1 PUSH1 0x1 PUSH1 0xA0 SHL SUB SWAP1 SWAP2 AND DUP2 MSTORE PUSH1 0x20 SWAP1 RETURN JUMPDEST CALLVALUE PUSH2 0x1DB JUMPI PUSH1 0x0 CALLDATASIZE PUSH1 0x3 NOT ADD SLT PUSH2 0x1DB JUMPI PUSH1 0x40 MLOAD PUSH1 0x40 DUP2 ADD DUP2 DUP2 LT PUSH8 0xFFFFFFFFFFFFFFFF DUP3 GT OR PUSH2 0xB23 JUMPI PUSH1 0x40 MSTORE PUSH1 0x7 DUP2 MSTORE PUSH7 0x11195CD8D95B99 PUSH1 0xCA SHL PUSH1 0x20 DUP3 ADD MSTORE PUSH1 0x40 MLOAD SWAP1 PUSH1 0x20 DUP3 MSTORE DUP2 DUP2 MLOAD SWAP2 DUP3 PUSH1 0x20 DUP4 ADD MSTORE PUSH1 0x0 JUMPDEST DUP4 DUP2 LT PUSH2 0xB0B JUMPI POP POP DUP2 PUSH1 0x0 PUSH1 0x40 DUP1 SWAP5 DUP5 ADD ADD MSTORE PUSH1 0x1F DUP1 NOT SWAP2 ADD AND DUP2 ADD SUB ADD SWAP1 RETURN JUMPDEST PUSH1 0x20 DUP3 DUP3 ADD DUP2 ADD MLOAD PUSH1 0x40 DUP8 DUP5 ADD ADD MSTORE DUP6 SWAP4 POP ADD PUSH2 0xAE9 JUMP JUMPDEST PUSH4 0x4E487B71 PUSH1 0xE0 SHL PUSH1 0x0 MSTORE PUSH1 0x41 PUSH1 0x4 MSTORE PUSH1 0x24 PUSH1 0x0 REVERT JUMPDEST CALLVALUE PUSH2 0x1DB JUMPI PUSH1 0x20 CALLDATASIZE PUSH1 0x3 NOT ADD SLT PUSH2 0x1DB JUMPI PUSH1 0x4 CALLDATALOAD DUP1 ISZERO ISZERO DUP1 PUSH2 0xBBF JUMPI JUMPDEST PUSH2 0xB5F SWAP1 PUSH2 0x1A41 JUMP JUMPDEST PUSH2 0xB67 PUSH2 0x1B1A JUMP JUMPDEST SWAP1 PUSH1 0x0 JUMPDEST PUSH1 0x15 DUP2 GT ISZERO PUSH2 0xB8E JUMPI PUSH1 0x40 MLOAD PUSH1 0x20 DUP1 DUP3 MSTORE DUP2 SWAP1 PUSH2 0xB8A SWAP1 DUP3 ADD DUP7 PUSH2 0x1960 JUMP JUMPDEST SUB SWAP1 RETURN JUMPDEST PUSH2 0xBBA SWAP1 DUP3 PUSH1 0x0 MSTORE PUSH1 0x3 PUSH1 0x20 MSTORE PUSH1 0x13 PUSH1 0x40 PUSH1 0x0 KECCAK256 ADD DUP2 PUSH1 0x0 MSTORE PUSH1 0x20 MSTORE PUSH1 0x40 PUSH1 0x0 KECCAK256 SLOAD PUSH2 0x607 DUP3 DUP7 PUSH2 0x1B3D JUMP JUMPDEST PUSH2 0xB6B JUMP JUMPDEST POP PUSH1 0x2 SLOAD DUP2 GT ISZERO PUSH2 0xB56 JUMP JUMPDEST CALLVALUE PUSH2 0x1DB JUMPI PUSH1 0x20 CALLDATASIZE PUSH1 0x3 NOT ADD SLT PUSH2 0x1DB JUMPI PUSH2 0x847 PUSH1 0x4 CALLDATALOAD PUSH2 0x219F JUMP JUMPDEST CALLVALUE PUSH2 0x1DB JUMPI PUSH1 0x0 CALLDATASIZE PUSH1 0x3 NOT ADD SLT PUSH2 0x1DB JUMPI PUSH1 0x0 SLOAD PUSH1 0x40 MLOAD PUSH1 0x1 PUSH1 0x1 PUSH1 0xA0 SHL SUB SWAP1 SWAP2 AND DUP2 MSTORE PUSH1 0x20 SWAP1 RETURN JUMPDEST CALLVALUE PUSH2 0x1DB JUMPI PUSH1 0x0 CALLDATASIZE PUSH1 0x3 NOT ADD SLT PUSH2 0x1DB JUMPI PUSH1 0x2 SLOAD PUSH1 0x1 PUSH1 0x0 JUMPDEST DUP3 DUP3 GT ISZERO PUSH2 0xCD6 JUMPI PUSH2 0xC3B SWAP2 POP PUSH2 0x1BA1 JUMP JUMPDEST PUSH1 0x0 SWAP2 PUSH1 0x1 SWAP1 JUMPDEST DUP1 DUP3 GT ISZERO PUSH2 0xC58 JUMPI PUSH1 0x40 MLOAD DUP1 PUSH2 0xB8A DUP6 DUP3 PUSH2 0x19C0 JUMP JUMPDEST PUSH2 0xC7F SWAP1 DUP3 PUSH1 0x0 SWAP5 SWAP4 SWAP5 MSTORE PUSH1 0x3 PUSH1 0x20 MSTORE PUSH2 0xC86 PUSH1 0x8 PUSH1 0x40 PUSH1 0x0 KECCAK256 ADD PUSH1 0x40 MLOAD SWAP4 DUP5 DUP1 SWAP3 PUSH2 0x1BD3 JUMP JUMPDEST SUB DUP4 PUSH2 0x1AE0 JUMP JUMPDEST PUSH1 0x0 JUMPDEST DUP3 MLOAD DUP2 LT ISZERO PUSH2 0xCC3 JUMPI PUSH1 0x1 SWAP1 PUSH1 0x1 PUSH1 0x1 PUSH1 0xA0 SHL SUB PUSH2 0xCA7 DUP3 DUP7 PUSH2 0x1B3D JUMP JUMPDEST MLOAD AND PUSH2 0xCBC PUSH2 0xCB5 DUP10 PUSH2 0x1B92 JUMP JUMPDEST SWAP9 DUP8 PUSH2 0x1B3D JUMP JUMPDEST MSTORE ADD PUSH2 0xC89 JUMP JUMPDEST POP SWAP2 SWAP3 PUSH2 0xCD0 SWAP2 POP PUSH2 0x1B92 JUMP JUMPDEST SWAP1 PUSH2 0xC42 JUMP JUMPDEST PUSH2 0xCF5 PUSH2 0xCFB SWAP2 DUP4 PUSH1 0x0 MSTORE PUSH1 0x3 PUSH1 0x20 MSTORE PUSH1 0x8 PUSH1 0x40 PUSH1 0x0 KECCAK256 ADD SLOAD SWAP1 PUSH2 0x1A7F JUMP JUMPDEST SWAP2 PUSH2 0x1B92 JUMP JUMPDEST SWAP1 PUSH2 0xC29 JUMP JUMPDEST CALLVALUE PUSH2 0x1DB JUMPI PUSH1 0x40 CALLDATASIZE PUSH1 0x3 NOT ADD SLT PUSH2 0x1DB JUMPI PUSH1 0x4 CALLDATALOAD PUSH2 0xD1D PUSH2 0x1994 JUMP JUMPDEST SWAP1 DUP1 ISZERO ISZERO DUP1 PUSH2 0xD64 JUMPI JUMPDEST PUSH2 0xD30 SWAP1 PUSH2 0x1A41 JUMP JUMPDEST PUSH1 0x0 MSTORE PUSH1 0x3 PUSH1 0x20 MSTORE PUSH1 0x11 PUSH1 0x40 PUSH1 0x0 KECCAK256 ADD SWAP1 PUSH1 0x1 DUP1 PUSH1 0xA0 SHL SUB AND PUSH1 0x0 MSTORE PUSH1 0x20 MSTORE PUSH1 0x20 PUSH1 0xFF PUSH1 0x40 PUSH1 0x0 KECCAK256 SLOAD AND PUSH1 0x40 MLOAD SWAP1 ISZERO ISZERO DUP2 MSTORE RETURN JUMPDEST POP PUSH1 0x2 SLOAD DUP2 GT ISZERO PUSH2 0xD27 JUMP JUMPDEST CALLVALUE PUSH2 0x1DB JUMPI PUSH1 0x40 CALLDATASIZE PUSH1 0x3 NOT ADD SLT PUSH2 0x1DB JUMPI PUSH1 0x4 CALLDATALOAD PUSH8 0xFFFFFFFFFFFFFFFF DUP2 GT PUSH2 0x1DB JUMPI PUSH2 0xDA1 SWAP1 CALLDATASIZE SWAP1 PUSH1 0x4 ADD PUSH2 0x1A10 JUMP JUMPDEST PUSH1 0x24 CALLDATALOAD PUSH8 0xFFFFFFFFFFFFFFFF DUP2 GT PUSH2 0x1DB JUMPI PUSH2 0xDC1 SWAP1 CALLDATASIZE SWAP1 PUSH1 0x4 ADD PUSH2 0x1A10 JUMP JUMPDEST PUSH2 0xDD9 PUSH1 0x1 DUP1 PUSH1 0xA0 SWAP6 SWAP5 SWAP6 SHL SUB PUSH1 0x1 SLOAD AND CALLER EQ PUSH2 0x1C95 JUMP JUMPDEST DUP2 ISZERO PUSH2 0x1255 JUMPI DUP1 DUP3 SUB PUSH2 0x1210 JUMPI PUSH1 0x2 DUP3 LT PUSH2 0x11CB JUMPI PUSH2 0x3E8 DUP3 ADD SWAP3 DUP4 DUP4 GT PUSH2 0x639 JUMPI PUSH2 0x3E7 DUP4 ADD SWAP4 DUP5 GT PUSH2 0x639 JUMPI PUSH1 0x0 PUSH2 0x3E8 DUP6 DIV ISZERO PUSH2 0x11B7 JUMPI POP PUSH2 0x3E8 DUP5 DIV DUP4 DIV SWAP4 PUSH1 0x0 SWAP6 DUP7 SWAP1 DUP8 JUMPDEST PUSH2 0x3E8 DUP5 DIV DUP2 LT PUSH2 0xE32 JUMPI DUP9 DUP1 RETURN JUMPDEST PUSH2 0xE3D PUSH1 0x2 SLOAD PUSH2 0x1B92 JUMP JUMPDEST SWAP1 DUP2 PUSH1 0x2 SSTORE DUP2 DUP11 MSTORE PUSH1 0x3 PUSH1 0x20 MSTORE PUSH1 0x40 DUP11 KECCAK256 SWAP2 PUSH1 0x1 PUSH1 0xFF NOT DUP5 SLOAD AND OR DUP4 SSTORE PUSH1 0x1 PUSH1 0x5 DUP5 ADD SSTORE TIMESTAMP PUSH1 0x3 DUP5 ADD SSTORE DUP10 SWAP1 PUSH2 0x3E8 DUP8 DIV DUP11 MOD DUP4 LT PUSH2 0x1190 JUMPI JUMPDEST PUSH1 0xA DUP3 DIV PUSH1 0x6 DUP6 ADD SWAP1 DUP1 DUP3 SSTORE ISZERO PUSH2 0x1186 JUMPI JUMPDEST POP DUP2 PUSH1 0x1 SHR PUSH1 0x7 DUP6 ADD SWAP1 DUP1 DUP3 SSTORE ISZERO PUSH2 0x117C JUMPI JUMPDEST POP SWAP1 DUP12 SWAP2 JUMPDEST DUP2 DUP4 LT PUSH2 0xF29 JUMPI POP POP POP PUSH2 0xEB4 DUP3 PUSH2 0x2FC8 JUMP JUMPDEST PUSH2 0xECC PUSH1 0x40 MLOAD SWAP3 PUSH1 0x40 DUP5 MSTORE PUSH1 0x8 PUSH1 0x40 DUP6 ADD SWAP2 ADD PUSH2 0x1BD3 JUMP JUMPDEST DUP3 DUP2 SUB PUSH1 0x20 DUP5 ADD MSTORE DUP8 DUP2 MSTORE PUSH1 0x1 PUSH1 0x1 PUSH1 0xFB SHL SUB DUP9 GT PUSH2 0xF25 JUMPI DUP3 PUSH1 0x20 PUSH1 0x1 SWAP5 PUSH32 0xB66BA8FEAEC509998EF3217BC97FBF1A0F906B89FAC25A4ACE8DDFF059A41F12 SWAP4 DUP12 PUSH1 0x5 SHL DUP12 DUP5 DUP4 ADD CALLDATACOPY DUP12 PUSH1 0x5 SHL ADD SUB ADD SWAP1 LOG1 ADD PUSH2 0xE23 JUMP JUMPDEST DUP11 DUP1 REVERT JUMPDEST SWAP1 SWAP2 SWAP6 PUSH2 0xF37 DUP2 DUP13 DUP9 PUSH2 0x20E9 JUMP JUMPDEST CALLDATALOAD PUSH1 0x1 PUSH1 0x1 PUSH1 0xA0 SHL SUB DUP2 AND DUP2 SUB PUSH2 0x1178 JUMPI PUSH1 0x1 PUSH1 0x1 PUSH1 0xA0 SHL SUB DUP2 AND ISZERO PUSH2 0x113A JUMPI DUP14 SWAP1 PUSH1 0x1 DUP1 PUSH1 0xA0 SHL SUB DUP2 AND DUP3 MSTORE PUSH1 0x5 PUSH1 0x20 MSTORE DUP12 DUP12 DUP9 PUSH1 0xFF PUSH1 0x40 DUP7 KECCAK256 SLOAD AND PUSH2 0x1086 JUMPI JUMPDEST SWAP3 PUSH2 0xF9B DUP7 PUSH1 0x40 SWAP5 PUSH2 0x107D SWAP8 SWAP5 PUSH2 0xF96 DUP6 PUSH1 0x8 PUSH1 0x1 SWAP13 SWAP11 ADD PUSH2 0x2111 JUMP JUMPDEST PUSH2 0x20E9 JUMP JUMPDEST CALLDATALOAD DUP7 DUP1 PUSH1 0xA0 SHL SUB DUP3 AND DUP4 MSTORE PUSH1 0xA DUP12 ADD PUSH1 0x20 MSTORE DUP4 DUP4 KECCAK256 SSTORE DUP6 DUP1 PUSH1 0xA0 SHL SUB DUP2 AND DUP3 MSTORE PUSH1 0x9 DUP11 ADD PUSH1 0x20 MSTORE DUP3 DUP3 KECCAK256 DUP7 PUSH1 0xFF NOT DUP3 SLOAD AND OR SWAP1 SSTORE PUSH2 0xFDC DUP2 PUSH1 0xB DUP13 ADD PUSH2 0x2111 JUMP JUMPDEST PUSH1 0xA0 DUP7 SWAP1 SHL DUP7 SWAP1 SUB DUP2 AND DUP1 DUP4 MSTORE PUSH1 0xC DUP12 ADD PUSH1 0x20 SWAP1 DUP2 MSTORE DUP5 DUP5 KECCAK256 DUP1 SLOAD PUSH1 0xFF NOT AND DUP10 OR SWAP1 SSTORE DUP2 DUP5 MSTORE PUSH1 0xD DUP13 ADD DUP2 MSTORE DUP5 DUP5 KECCAK256 DUP5 SWAP1 SSTORE SWAP1 DUP4 MSTORE PUSH1 0xE DUP12 ADD DUP2 MSTORE DUP4 DUP4 KECCAK256 PUSH1 0x6 SWAP1 SSTORE DUP3 DUP1 MSTORE PUSH1 0x13 DUP12 ADD SWAP1 MSTORE DUP3 DUP3 KECCAK256 DUP1 SLOAD PUSH2 0x1035 SWAP1 PUSH2 0x1B92 JUMP JUMPDEST SWAP1 SSTORE DUP2 DUP1 MSTORE PUSH1 0x14 DUP11 ADD PUSH1 0x20 MSTORE PUSH2 0x104D DUP2 DUP5 DUP5 KECCAK256 PUSH2 0x2111 JUMP JUMPDEST PUSH1 0xA0 DUP7 SWAP1 SHL DUP7 SWAP1 SUB AND DUP1 DUP3 MSTORE PUSH1 0x4 PUSH1 0x20 SWAP1 DUP2 MSTORE DUP4 DUP4 KECCAK256 DUP9 SWAP1 SSTORE SWAP1 DUP3 MSTORE PUSH1 0x5 SWAP1 MSTORE KECCAK256 DUP1 SLOAD PUSH1 0xFF NOT AND DUP5 OR SWAP1 SSTORE PUSH2 0x1B92 JUMP JUMPDEST SWAP7 ADD SWAP2 SWAP1 PUSH2 0xEA1 JUMP JUMPDEST POP POP POP PUSH1 0x1 PUSH1 0x1 PUSH1 0xA0 SHL SUB DUP2 AND SWAP1 SWAP2 MSTORE PUSH1 0x4 PUSH1 0x20 MSTORE PUSH1 0x40 DUP15 KECCAK256 SLOAD DUP1 ISZERO SWAP1 DUP16 SWAP1 DUP3 ISZERO PUSH2 0x1102 JUMPI JUMPDEST POP POP ISZERO PUSH2 0x10BD JUMPI DUP14 SWAP1 DUP12 DUP12 DUP9 PUSH2 0xF79 JUMP JUMPDEST PUSH1 0x40 MLOAD PUSH3 0x461BCD PUSH1 0xE5 SHL DUP2 MSTORE PUSH1 0x20 PUSH1 0x4 DUP3 ADD MSTORE PUSH1 0x1D PUSH1 0x24 DUP3 ADD MSTORE PUSH32 0x506C6179657220616C726561647920696E206163746976652067616D65000000 PUSH1 0x44 DUP3 ADD MSTORE PUSH1 0x64 SWAP1 REVERT JUMPDEST DUP2 MSTORE PUSH1 0x3 PUSH1 0x20 MSTORE PUSH1 0x40 SWAP1 KECCAK256 SLOAD PUSH1 0xFF AND SWAP1 POP PUSH1 0x5 DUP2 LT ISZERO PUSH2 0x1126 JUMPI PUSH1 0x4 EQ DUP15 CODESIZE PUSH2 0x10AC JUMP JUMPDEST PUSH4 0x4E487B71 PUSH1 0xE0 SHL DUP16 MSTORE PUSH1 0x21 PUSH1 0x4 MSTORE PUSH1 0x24 DUP16 REVERT JUMPDEST PUSH1 0x40 MLOAD PUSH3 0x461BCD PUSH1 0xE5 SHL DUP2 MSTORE PUSH1 0x20 PUSH1 0x4 DUP3 ADD MSTORE PUSH1 0x16 PUSH1 0x24 DUP3 ADD MSTORE PUSH22 0x496E76616C696420706C617965722061646472657373 PUSH1 0x50 SHL PUSH1 0x44 DUP3 ADD MSTORE PUSH1 0x64 SWAP1 REVERT JUMPDEST DUP14 DUP1 REVERT JUMPDEST PUSH1 0x1 SWAP1 SSTORE DUP13 PUSH2 0xE9C JUMP JUMPDEST PUSH1 0x1 SWAP1 SSTORE DUP13 PUSH2 0xE89 JUMP JUMPDEST SWAP1 POP PUSH1 0x1 DUP11 ADD DUP1 DUP12 GT PUSH2 0x11A3 JUMPI SWAP1 PUSH2 0xE77 JUMP JUMPDEST PUSH4 0x4E487B71 PUSH1 0xE0 SHL DUP13 MSTORE PUSH1 0x11 PUSH1 0x4 MSTORE PUSH1 0x24 DUP13 REVERT JUMPDEST PUSH4 0x4E487B71 PUSH1 0xE0 SHL DUP2 MSTORE PUSH1 0x12 PUSH1 0x4 MSTORE PUSH1 0x24 SWAP1 REVERT JUMPDEST PUSH1 0x40 MLOAD PUSH3 0x461BCD PUSH1 0xE5 SHL DUP2 MSTORE PUSH1 0x20 PUSH1 0x4 DUP3 ADD MSTORE PUSH1 0x17 PUSH1 0x24 DUP3 ADD MSTORE PUSH32 0x4E656564206174206C65617374203220706C6179657273000000000000000000 PUSH1 0x44 DUP3 ADD MSTORE PUSH1 0x64 SWAP1 REVERT JUMPDEST PUSH1 0x40 MLOAD PUSH3 0x461BCD PUSH1 0xE5 SHL DUP2 MSTORE PUSH1 0x20 PUSH1 0x4 DUP3 ADD MSTORE PUSH1 0x18 PUSH1 0x24 DUP3 ADD MSTORE PUSH32 0x4172726179206C656E67746873206D757374206D617463680000000000000000 PUSH1 0x44 DUP3 ADD MSTORE PUSH1 0x64 SWAP1 REVERT JUMPDEST PUSH1 0x40 MLOAD PUSH3 0x461BCD PUSH1 0xE5 SHL DUP2 MSTORE PUSH1 0x20 PUSH1 0x4 DUP3 ADD MSTORE PUSH1 0x13 PUSH1 0x24 DUP3 ADD MSTORE PUSH19 0x139BC81C1B185E595C9CC81C1C9BDD9A591959 PUSH1 0x6A SHL PUSH1 0x44 DUP3 ADD MSTORE PUSH1 0x64 SWAP1 REVERT JUMPDEST CALLVALUE PUSH2 0x1DB JUMPI PUSH1 0x40 CALLDATASIZE PUSH1 0x3 NOT ADD SLT PUSH2 0x1DB JUMPI PUSH2 0x847 PUSH1 0x24 CALLDATALOAD PUSH1 0x4 CALLDATALOAD PUSH2 0x1D64 JUMP JUMPDEST CALLVALUE PUSH2 0x1DB JUMPI PUSH1 0x20 CALLDATASIZE PUSH1 0x3 NOT ADD SLT PUSH2 0x1DB JUMPI PUSH1 0x1 PUSH1 0x1 PUSH1 0xA0 SHL SUB PUSH2 0x12D0 PUSH2 0x19AA JUMP JUMPDEST AND PUSH1 0x0 MSTORE PUSH1 0x4 PUSH1 0x20 MSTORE PUSH1 0x20 PUSH1 0x40 PUSH1 0x0 KECCAK256 SLOAD PUSH1 0x40 MLOAD SWAP1 DUP2 MSTORE RETURN JUMPDEST CALLVALUE PUSH2 0x1DB JUMPI PUSH1 0x0 CALLDATASIZE PUSH1 0x3 NOT ADD SLT PUSH2 0x1DB JUMPI PUSH2 0x1302 PUSH2 0x2B04 JUMP JUMPDEST PUSH1 0x0 DUP1 SLOAD PUSH1 0x1 PUSH1 0x1 PUSH1 0xA0 SHL SUB NOT DUP2 AND DUP3 SSTORE PUSH1 0x1 PUSH1 0x1 PUSH1 0xA0 SHL SUB AND PUSH32 0x8BE0079C531659141344CD1FD0A4F28419497F9722A3DAAFE3B4186F6B6457E0 DUP3 DUP1 LOG3 STOP JUMPDEST CALLVALUE PUSH2 0x1DB JUMPI PUSH1 0x0 CALLDATASIZE PUSH1 0x3 NOT ADD SLT PUSH2 0x1DB JUMPI PUSH2 0x1368 PUSH1 0x1 DUP1 PUSH1 0xA0 SHL SUB PUSH1 0x1 SLOAD AND CALLER EQ PUSH2 0x1C95 JUMP JUMPDEST PUSH1 0x40 MLOAD PUSH1 0x20 PUSH2 0x1377 DUP2 DUP4 PUSH2 0x1AE0 JUMP JUMPDEST PUSH1 0x0 DUP3 MSTORE PUSH1 0x0 CALLDATASIZE DUP2 CALLDATACOPY PUSH1 0x1 JUMPDEST PUSH1 0x2 SLOAD DUP2 GT PUSH2 0x13C5 JUMPI DUP1 PUSH1 0x0 MSTORE PUSH1 0x3 DUP3 MSTORE PUSH1 0xFF PUSH1 0x40 PUSH1 0x0 KECCAK256 SLOAD AND SWAP1 PUSH1 0x5 DUP3 LT ISZERO PUSH2 0x66A JUMPI PUSH1 0x2 PUSH2 0x13B7 SWAP3 EQ PUSH2 0x13BC JUMPI PUSH2 0x1B92 JUMP JUMPDEST PUSH2 0x1383 JUMP JUMPDEST PUSH2 0x609 DUP2 PUSH2 0x23C3 JUMP JUMPDEST PUSH1 0x40 MLOAD DUP1 PUSH2 0xB8A DUP6 DUP3 PUSH2 0x19C0 JUMP JUMPDEST CALLVALUE PUSH2 0x1DB JUMPI PUSH1 0x20 CALLDATASIZE PUSH1 0x3 NOT ADD SLT PUSH2 0x1DB JUMPI PUSH2 0xB8A PUSH2 0x1404 PUSH1 0x4 CALLDATALOAD DUP1 ISZERO ISZERO DUP1 PUSH2 0x1410 JUMPI JUMPDEST PUSH2 0x13FF SWAP1 PUSH2 0x1A41 JUMP JUMPDEST PUSH2 0x1C22 JUMP JUMPDEST PUSH1 0x40 MLOAD SWAP2 DUP3 SWAP2 DUP3 PUSH2 0x19C0 JUMP JUMPDEST POP PUSH1 0x2 SLOAD DUP2 GT ISZERO PUSH2 0x13F6 JUMP JUMPDEST CALLVALUE PUSH2 0x1DB JUMPI PUSH1 0x20 CALLDATASIZE PUSH1 0x3 NOT ADD SLT PUSH2 0x1DB JUMPI PUSH1 0x1 PUSH1 0x1 PUSH1 0xA0 SHL SUB PUSH2 0x143D PUSH2 0x19AA JUMP JUMPDEST AND PUSH1 0x0 MSTORE PUSH1 0x5 PUSH1 0x20 MSTORE PUSH1 0x20 PUSH1 0xFF PUSH1 0x40 PUSH1 0x0 KECCAK256 SLOAD AND PUSH1 0x40 MLOAD SWAP1 ISZERO ISZERO DUP2 MSTORE RETURN JUMPDEST CALLVALUE PUSH2 0x1DB JUMPI PUSH1 0x20 CALLDATASIZE PUSH1 0x3 NOT ADD SLT PUSH2 0x1DB JUMPI PUSH1 0x4 CALLDATALOAD DUP1 ISZERO ISZERO DUP1 PUSH2 0x149C JUMPI JUMPDEST PUSH2 0x1481 SWAP1 PUSH2 0x1A41 JUMP JUMPDEST PUSH1 0x0 MSTORE PUSH1 0x3 PUSH1 0x20 MSTORE PUSH1 0x20 PUSH1 0x1 PUSH1 0x40 PUSH1 0x0 KECCAK256 ADD SLOAD PUSH1 0x40 MLOAD SWAP1 DUP2 MSTORE RETURN JUMPDEST POP PUSH1 0x2 SLOAD DUP2 GT ISZERO PUSH2 0x1478 JUMP JUMPDEST CALLVALUE PUSH2 0x1DB JUMPI PUSH1 0x20 CALLDATASIZE PUSH1 0x3 NOT ADD SLT PUSH2 0x1DB JUMPI PUSH1 0x4 CALLDATALOAD PUSH1 0x0 PUSH1 0x80 PUSH1 0x40 MLOAD PUSH2 0x14CC DUP2 PUSH2 0x1A8C JUMP JUMPDEST DUP3 DUP2 MSTORE DUP3 PUSH1 0x20 DUP3 ADD MSTORE DUP3 PUSH1 0x40 DUP3 ADD MSTORE DUP3 PUSH1 0x60 DUP3 ADD MSTORE ADD MSTORE DUP1 ISZERO ISZERO DUP1 PUSH2 0x157A JUMPI JUMPDEST PUSH2 0x14F5 SWAP1 PUSH2 0x1A41 JUMP JUMPDEST PUSH1 0x0 MSTORE PUSH1 0x3 PUSH1 0x20 MSTORE PUSH1 0xA0 PUSH1 0x40 PUSH1 0x0 KECCAK256 PUSH1 0xFF DUP2 SLOAD AND SWAP1 PUSH1 0x5 DUP2 ADD SLOAD SWAP1 PUSH1 0x2 DUP2 ADD SLOAD PUSH1 0x4 PUSH1 0x3 DUP4 ADD SLOAD SWAP3 ADD SLOAD SWAP3 PUSH2 0x1536 PUSH1 0x40 MLOAD SWAP6 PUSH2 0x1530 DUP8 PUSH2 0x1A8C JUMP JUMPDEST DUP7 PUSH2 0x1C16 JUMP JUMPDEST PUSH1 0x20 DUP6 ADD SWAP1 DUP2 MSTORE PUSH1 0x40 DUP6 ADD SWAP2 DUP3 MSTORE PUSH1 0x60 DUP6 ADD SWAP3 DUP4 MSTORE PUSH1 0x80 DUP6 ADD SWAP4 DUP5 MSTORE PUSH2 0x1560 PUSH1 0x40 MLOAD DUP1 SWAP7 MLOAD PUSH2 0x1A03 JUMP JUMPDEST MLOAD PUSH1 0x20 DUP6 ADD MSTORE MLOAD PUSH1 0x40 DUP5 ADD MSTORE MLOAD PUSH1 0x60 DUP4 ADD MSTORE MLOAD PUSH1 0x80 DUP3 ADD MSTORE RETURN JUMPDEST POP PUSH1 0x2 SLOAD DUP2 GT ISZERO PUSH2 0x14EC JUMP JUMPDEST CALLVALUE PUSH2 0x1DB JUMPI PUSH1 0x0 CALLDATASIZE PUSH1 0x3 NOT ADD SLT PUSH2 0x1DB JUMPI PUSH1 0x2 SLOAD PUSH1 0x1 PUSH1 0x0 JUMPDEST DUP3 DUP3 GT ISZERO PUSH2 0x163E JUMPI PUSH2 0x15B1 SWAP2 POP PUSH2 0x1BA1 JUMP JUMPDEST PUSH1 0x0 SWAP2 PUSH1 0x1 SWAP1 JUMPDEST DUP1 DUP3 GT ISZERO PUSH2 0x15CE JUMPI PUSH1 0x40 MLOAD DUP1 PUSH2 0xB8A DUP6 DUP3 PUSH2 0x19C0 JUMP JUMPDEST PUSH2 0xC7F SWAP1 DUP3 PUSH1 0x0 SWAP5 SWAP4 SWAP5 MSTORE PUSH1 0x3 PUSH1 0x20 MSTORE PUSH2 0x15F5 PUSH1 0xB PUSH1 0x40 PUSH1 0x0 KECCAK256 ADD PUSH1 0x40 MLOAD SWAP4 DUP5 DUP1 SWAP3 PUSH2 0x1BD3 JUMP JUMPDEST PUSH1 0x0 JUMPDEST DUP3 MLOAD DUP2 LT ISZERO PUSH2 0x162B JUMPI PUSH1 0x1 SWAP1 PUSH1 0x1 PUSH1 0x1 PUSH1 0xA0 SHL SUB PUSH2 0x1616 DUP3 DUP7 PUSH2 0x1B3D JUMP JUMPDEST MLOAD AND PUSH2 0x1624 PUSH2 0xCB5 DUP10 PUSH2 0x1B92 JUMP JUMPDEST MSTORE ADD PUSH2 0x15F8 JUMP JUMPDEST POP SWAP2 SWAP3 PUSH2 0x1638 SWAP2 POP PUSH2 0x1B92 JUMP JUMPDEST SWAP1 PUSH2 0x15B8 JUMP JUMPDEST PUSH2 0xCF5 PUSH2 0x165D SWAP2 DUP4 PUSH1 0x0 MSTORE PUSH1 0x3 PUSH1 0x20 MSTORE PUSH1 0xB PUSH1 0x40 PUSH1 0x0 KECCAK256 ADD SLOAD SWAP1 PUSH2 0x1A7F JUMP JUMPDEST SWAP1 PUSH2 0x159F JUMP JUMPDEST CALLVALUE PUSH2 0x1DB JUMPI PUSH1 0x40 CALLDATASIZE PUSH1 0x3 NOT ADD SLT PUSH2 0x1DB JUMPI PUSH1 0x24 CALLDATALOAD PUSH1 0x4 CALLDATALOAD DUP1 ISZERO ISZERO DUP1 PUSH2 0x16F0 JUMPI JUMPDEST PUSH2 0x168C SWAP1 PUSH2 0x1A41 JUMP JUMPDEST PUSH1 0x15 DUP3 GT PUSH2 0x16BB JUMPI PUSH1 0x0 MSTORE PUSH1 0x3 PUSH1 0x20 MSTORE PUSH1 0x13 PUSH1 0x40 PUSH1 0x0 KECCAK256 ADD SWAP1 PUSH1 0x0 MSTORE PUSH1 0x20 MSTORE PUSH1 0x20 PUSH1 0x40 PUSH1 0x0 KECCAK256 SLOAD PUSH1 0x40 MLOAD SWAP1 DUP2 MSTORE RETURN JUMPDEST PUSH1 0x40 MLOAD PUSH3 0x461BCD PUSH1 0xE5 SHL DUP2 MSTORE PUSH1 0x20 PUSH1 0x4 DUP3 ADD MSTORE PUSH1 0xD PUSH1 0x24 DUP3 ADD MSTORE PUSH13 0x125B9D985B1A59081B195D995B PUSH1 0x9A SHL PUSH1 0x44 DUP3 ADD MSTORE PUSH1 0x64 SWAP1 REVERT JUMPDEST POP PUSH1 0x2 SLOAD DUP2 GT ISZERO PUSH2 0x1683 JUMP JUMPDEST CALLVALUE PUSH2 0x1DB JUMPI PUSH1 0x40 CALLDATASIZE PUSH1 0x3 NOT ADD SLT PUSH2 0x1DB JUMPI PUSH1 0x4 CALLDATALOAD PUSH2 0x1718 PUSH2 0x1994 JUMP JUMPDEST SWAP1 DUP1 ISZERO ISZERO DUP1 PUSH2 0x178B JUMPI JUMPDEST PUSH2 0x172B SWAP1 PUSH2 0x1A41 JUMP JUMPDEST DUP1 PUSH1 0x0 MSTORE PUSH1 0x3 PUSH1 0x20 MSTORE PUSH1 0x9 PUSH1 0x40 PUSH1 0x0 KECCAK256 ADD PUSH1 0x1 DUP1 PUSH1 0xA0 SHL SUB DUP4 AND PUSH1 0x0 MSTORE PUSH1 0x20 MSTORE PUSH2 0x175C PUSH1 0xFF PUSH1 0x40 PUSH1 0x0 KECCAK256 SLOAD AND PUSH2 0x1B51 JUMP JUMPDEST PUSH1 0x0 MSTORE PUSH1 0x3 PUSH1 0x20 MSTORE PUSH1 0xA PUSH1 0x40 PUSH1 0x0 KECCAK256 ADD SWAP1 PUSH1 0x1 DUP1 PUSH1 0xA0 SHL SUB AND PUSH1 0x0 MSTORE PUSH1 0x20 MSTORE PUSH1 0x20 PUSH1 0x40 PUSH1 0x0 KECCAK256 SLOAD PUSH1 0x40 MLOAD SWAP1 DUP2 MSTORE RETURN JUMPDEST POP PUSH1 0x2 SLOAD DUP2 GT ISZERO PUSH2 0x1722 JUMP JUMPDEST CALLVALUE PUSH2 0x1DB JUMPI PUSH1 0x0 CALLDATASIZE PUSH1 0x3 NOT ADD SLT PUSH2 0x1DB JUMPI PUSH1 0x20 PUSH1 0x2 SLOAD PUSH1 0x40 MLOAD SWAP1 DUP2 MSTORE RETURN JUMPDEST CALLVALUE PUSH2 0x1DB JUMPI PUSH1 0x40 CALLDATASIZE PUSH1 0x3 NOT ADD SLT PUSH2 0x1DB JUMPI PUSH1 0x4 CALLDATALOAD PUSH2 0x17D1 PUSH2 0x1994 JUMP JUMPDEST SWAP1 DUP1 ISZERO ISZERO DUP1 PUSH2 0x1844 JUMPI JUMPDEST PUSH2 0x17E4 SWAP1 PUSH2 0x1A41 JUMP JUMPDEST DUP1 PUSH1 0x0 MSTORE PUSH1 0x3 PUSH1 0x20 MSTORE PUSH1 0x9 PUSH1 0x40 PUSH1 0x0 KECCAK256 ADD PUSH1 0x1 DUP1 PUSH1 0xA0 SHL SUB DUP4 AND PUSH1 0x0 MSTORE PUSH1 0x20 MSTORE PUSH2 0x1815 PUSH1 0xFF PUSH1 0x40 PUSH1 0x0 KECCAK256 SLOAD AND PUSH2 0x1B51 JUMP JUMPDEST PUSH1 0x0 MSTORE PUSH1 0x3 PUSH1 0x20 MSTORE PUSH1 0xD PUSH1 0x40 PUSH1 0x0 KECCAK256 ADD SWAP1 PUSH1 0x1 DUP1 PUSH1 0xA0 SHL SUB AND PUSH1 0x0 MSTORE PUSH1 0x20 MSTORE PUSH1 0x20 PUSH1 0x40 PUSH1 0x0 KECCAK256 SLOAD PUSH1 0x40 MLOAD SWAP1 DUP2 MSTORE RETURN JUMPDEST POP PUSH1 0x2 SLOAD DUP2 GT ISZERO PUSH2 0x17DB JUMP JUMPDEST CALLVALUE PUSH2 0x1DB JUMPI PUSH1 0x20 CALLDATASIZE PUSH1 0x3 NOT ADD SLT PUSH2 0x1DB JUMPI PUSH1 0x4 CALLDATALOAD DUP1 ISZERO ISZERO DUP1 PUSH2 0x1907 JUMPI JUMPDEST PUSH2 0x1876 SWAP1 PUSH2 0x1A41 JUMP JUMPDEST PUSH1 0x0 MSTORE PUSH1 0x3 PUSH1 0x20 MSTORE PUSH1 0x40 PUSH1 0x0 KECCAK256 PUSH2 0x188B PUSH2 0x1B1A JUMP JUMPDEST SWAP1 PUSH1 0x8 DUP2 ADD SLOAD DUP3 MLOAD ISZERO PUSH2 0x18DC JUMPI PUSH1 0x20 DUP4 ADD MSTORE PUSH1 0x6 DUP2 ADD SLOAD PUSH1 0x1 JUMPDEST PUSH1 0x15 DUP2 LT PUSH2 0x18F2 JUMPI DUP4 PUSH1 0x7 DUP5 ADD SLOAD SWAP1 DUP1 MLOAD PUSH1 0x15 LT ISZERO PUSH2 0x18DC JUMPI PUSH2 0xB8A SWAP2 PUSH2 0x2C0 DUP3 ADD MSTORE PUSH1 0x40 MLOAD SWAP2 DUP3 SWAP2 PUSH1 0x20 DUP4 MSTORE PUSH1 0x20 DUP4 ADD SWAP1 PUSH2 0x1960 JUMP JUMPDEST PUSH4 0x4E487B71 PUSH1 0xE0 SHL PUSH1 0x0 MSTORE PUSH1 0x32 PUSH1 0x4 MSTORE PUSH1 0x24 PUSH1 0x0 REVERT JUMPDEST DUP1 DUP3 PUSH2 0x1900 PUSH1 0x1 SWAP4 DUP8 PUSH2 0x1B3D JUMP JUMPDEST MSTORE ADD PUSH2 0x18A5 JUMP JUMPDEST POP PUSH1 0x2 SLOAD DUP2 GT ISZERO PUSH2 0x186D JUMP JUMPDEST CALLVALUE PUSH2 0x1DB JUMPI PUSH1 0x20 CALLDATASIZE PUSH1 0x3 NOT ADD SLT PUSH2 0x1DB JUMPI PUSH1 0x4 CALLDATALOAD DUP1 ISZERO ISZERO DUP1 PUSH2 0x1954 JUMPI JUMPDEST PUSH2 0x1939 SWAP1 PUSH2 0x1A41 JUMP JUMPDEST PUSH1 0x0 MSTORE PUSH1 0x3 PUSH1 0x20 MSTORE PUSH1 0x20 PUSH1 0x2 PUSH1 0x40 PUSH1 0x0 KECCAK256 ADD SLOAD PUSH1 0x40 MLOAD SWAP1 DUP2 MSTORE RETURN JUMPDEST POP PUSH1 0x2 SLOAD DUP2 GT ISZERO PUSH2 0x1930 JUMP JUMPDEST SWAP1 PUSH1 0x20 DUP1 DUP4 MLOAD SWAP3 DUP4 DUP2 MSTORE ADD SWAP3 ADD SWAP1 PUSH1 0x0 JUMPDEST DUP2 DUP2 LT PUSH2 0x197E JUMPI POP POP POP SWAP1 JUMP JUMPDEST DUP3 MLOAD DUP5 MSTORE PUSH1 0x20 SWAP4 DUP5 ADD SWAP4 SWAP1 SWAP3 ADD SWAP2 PUSH1 0x1 ADD PUSH2 0x1971 JUMP JUMPDEST PUSH1 0x24 CALLDATALOAD SWAP1 PUSH1 0x1 PUSH1 0x1 PUSH1 0xA0 SHL SUB DUP3 AND DUP3 SUB PUSH2 0x1DB JUMPI JUMP JUMPDEST PUSH1 0x4 CALLDATALOAD SWAP1 PUSH1 0x1 PUSH1 0x1 PUSH1 0xA0 SHL SUB DUP3 AND DUP3 SUB PUSH2 0x1DB JUMPI JUMP JUMPDEST PUSH1 0x20 PUSH1 0x40 DUP2 DUP4 ADD SWAP3 DUP3 DUP2 MSTORE DUP5 MLOAD DUP1 SWAP5 MSTORE ADD SWAP3 ADD SWAP1 PUSH1 0x0 JUMPDEST DUP2 DUP2 LT PUSH2 0x19E4 JUMPI POP POP POP SWAP1 JUMP JUMPDEST DUP3 MLOAD PUSH1 0x1 PUSH1 0x1 PUSH1 0xA0 SHL SUB AND DUP5 MSTORE PUSH1 0x20 SWAP4 DUP5 ADD SWAP4 SWAP1 SWAP3 ADD SWAP2 PUSH1 0x1 ADD PUSH2 0x19D7 JUMP JUMPDEST SWAP1 PUSH1 0x5 DUP3 LT ISZERO PUSH2 0x66A JUMPI MSTORE JUMP JUMPDEST SWAP2 DUP2 PUSH1 0x1F DUP5 ADD SLT ISZERO PUSH2 0x1DB JUMPI DUP3 CALLDATALOAD SWAP2 PUSH8 0xFFFFFFFFFFFFFFFF DUP4 GT PUSH2 0x1DB JUMPI PUSH1 0x20 DUP1 DUP6 ADD SWAP5 DUP5 PUSH1 0x5 SHL ADD ADD GT PUSH2 0x1DB JUMPI JUMP JUMPDEST ISZERO PUSH2 0x1A48 JUMPI JUMP JUMPDEST PUSH1 0x40 MLOAD PUSH3 0x461BCD PUSH1 0xE5 SHL DUP2 MSTORE PUSH1 0x20 PUSH1 0x4 DUP3 ADD MSTORE PUSH1 0xF PUSH1 0x24 DUP3 ADD MSTORE PUSH15 0x125B9D985B1A590819D85B59481251 PUSH1 0x8A SHL PUSH1 0x44 DUP3 ADD MSTORE PUSH1 0x64 SWAP1 REVERT JUMPDEST SWAP2 SWAP1 DUP3 ADD DUP1 SWAP3 GT PUSH2 0x639 JUMPI JUMP JUMPDEST PUSH1 0xA0 DUP2 ADD SWAP1 DUP2 LT PUSH8 0xFFFFFFFFFFFFFFFF DUP3 GT OR PUSH2 0xB23 JUMPI PUSH1 0x40 MSTORE JUMP JUMPDEST PUSH1 0x80 DUP2 ADD SWAP1 DUP2 LT PUSH8 0xFFFFFFFFFFFFFFFF DUP3 GT OR PUSH2 0xB23 JUMPI PUSH1 0x40 MSTORE JUMP JUMPDEST PUSH1 0xE0 DUP2 ADD SWAP1 DUP2 LT PUSH8 0xFFFFFFFFFFFFFFFF DUP3 GT OR PUSH2 0xB23 JUMPI PUSH1 0x40 MSTORE JUMP JUMPDEST SWAP1 PUSH1 0x1F DUP1 NOT SWAP2 ADD AND DUP2 ADD SWAP1 DUP2 LT PUSH8 0xFFFFFFFFFFFFFFFF DUP3 GT OR PUSH2 0xB23 JUMPI PUSH1 0x40 MSTORE JUMP JUMPDEST PUSH8 0xFFFFFFFFFFFFFFFF DUP2 GT PUSH2 0xB23 JUMPI PUSH1 0x5 SHL PUSH1 0x20 ADD SWAP1 JUMP JUMPDEST PUSH1 0x40 MLOAD PUSH2 0x2E0 SWAP2 SWAP1 PUSH2 0x1B2C DUP4 DUP3 PUSH2 0x1AE0 JUMP JUMPDEST PUSH1 0x16 DUP2 MSTORE SWAP2 PUSH1 0x1F NOT ADD CALLDATASIZE PUSH1 0x20 DUP5 ADD CALLDATACOPY JUMP JUMPDEST DUP1 MLOAD DUP3 LT ISZERO PUSH2 0x18DC JUMPI PUSH1 0x20 SWAP2 PUSH1 0x5 SHL ADD ADD SWAP1 JUMP JUMPDEST ISZERO PUSH2 0x1B58 JUMPI JUMP JUMPDEST PUSH1 0x40 MLOAD PUSH3 0x461BCD PUSH1 0xE5 SHL DUP2 MSTORE PUSH1 0x20 PUSH1 0x4 DUP3 ADD MSTORE PUSH1 0x12 PUSH1 0x24 DUP3 ADD MSTORE PUSH18 0x506C61796572206E6F7420696E2067616D65 PUSH1 0x70 SHL PUSH1 0x44 DUP3 ADD MSTORE PUSH1 0x64 SWAP1 REVERT JUMPDEST PUSH1 0x0 NOT DUP2 EQ PUSH2 0x639 JUMPI PUSH1 0x1 ADD SWAP1 JUMP JUMPDEST SWAP1 PUSH2 0x1BAB DUP3 PUSH2 0x1B02 JUMP JUMPDEST PUSH2 0x1BB8 PUSH1 0x40 MLOAD SWAP2 DUP3 PUSH2 0x1AE0 JUMP JUMPDEST DUP3 DUP2 MSTORE DUP1 SWAP3 PUSH2 0x1BC9 PUSH1 0x1F NOT SWAP2 PUSH2 0x1B02 JUMP JUMPDEST ADD SWAP1 PUSH1 0x20 CALLDATASIZE SWAP2 ADD CALLDATACOPY JUMP JUMPDEST SWAP1 PUSH1 0x20 DUP3 SLOAD SWAP2 DUP3 DUP2 MSTORE ADD SWAP2 PUSH1 0x0 MSTORE PUSH1 0x20 PUSH1 0x0 KECCAK256 SWAP1 PUSH1 0x0 JUMPDEST DUP2 DUP2 LT PUSH2 0x1BF7 JUMPI POP POP POP SWAP1 JUMP JUMPDEST DUP3 SLOAD PUSH1 0x1 PUSH1 0x1 PUSH1 0xA0 SHL SUB AND DUP5 MSTORE PUSH1 0x20 SWAP1 SWAP4 ADD SWAP3 PUSH1 0x1 SWAP3 DUP4 ADD SWAP3 ADD PUSH2 0x1BEA JUMP JUMPDEST PUSH1 0x5 DUP3 LT ISZERO PUSH2 0x66A JUMPI MSTORE JUMP JUMPDEST PUSH1 0x0 MSTORE PUSH1 0x3 PUSH1 0x20 MSTORE PUSH1 0x40 PUSH1 0x0 KECCAK256 PUSH1 0xFF DUP2 SLOAD AND PUSH1 0x5 DUP2 LT ISZERO PUSH2 0x66A JUMPI PUSH1 0x4 EQ PUSH2 0x1C5F JUMPI POP PUSH1 0x40 MLOAD PUSH2 0x1C53 PUSH1 0x20 DUP3 PUSH2 0x1AE0 JUMP JUMPDEST PUSH1 0x0 DUP2 MSTORE PUSH1 0x0 CALLDATASIZE DUP2 CALLDATACOPY SWAP1 JUMP JUMPDEST PUSH1 0x18 DUP2 ADD DUP1 SLOAD PUSH2 0x1C81 SWAP3 PUSH2 0x1C88 SWAP3 SWAP2 ISZERO PUSH2 0x1C8B JUMPI POP JUMPDEST PUSH1 0x40 MLOAD SWAP3 DUP4 DUP1 SWAP3 PUSH2 0x1BD3 JUMP JUMPDEST SUB DUP3 PUSH2 0x1AE0 JUMP JUMPDEST SWAP1 JUMP JUMPDEST PUSH1 0xB SWAP2 POP ADD PUSH2 0x1C75 JUMP JUMPDEST ISZERO PUSH2 0x1C9C JUMPI JUMP JUMPDEST PUSH1 0x40 MLOAD PUSH3 0x461BCD PUSH1 0xE5 SHL DUP2 MSTORE PUSH1 0x20 PUSH1 0x4 DUP3 ADD MSTORE PUSH1 0x18 PUSH1 0x24 DUP3 ADD MSTORE PUSH32 0x4F6E6C792047616D654D61737465722063616E2063616C6C0000000000000000 PUSH1 0x44 DUP3 ADD MSTORE PUSH1 0x64 SWAP1 REVERT JUMPDEST ISZERO PUSH2 0x1CE8 JUMPI JUMP JUMPDEST PUSH1 0x40 MLOAD PUSH3 0x461BCD PUSH1 0xE5 SHL DUP2 MSTORE PUSH1 0x20 PUSH1 0x4 DUP3 ADD MSTORE PUSH1 0x16 PUSH1 0x24 DUP3 ADD MSTORE PUSH22 0x506C61796572206E6F7420696E20616E792067616D65 PUSH1 0x50 SHL PUSH1 0x44 DUP3 ADD MSTORE PUSH1 0x64 SWAP1 REVERT JUMPDEST ISZERO PUSH2 0x1D2D JUMPI JUMP JUMPDEST PUSH1 0x40 MLOAD PUSH3 0x461BCD PUSH1 0xE5 SHL DUP2 MSTORE PUSH1 0x20 PUSH1 0x4 DUP3 ADD MSTORE PUSH1 0xF PUSH1 0x24 DUP3 ADD MSTORE PUSH15 0x47616D65206E6F7420616374697665 PUSH1 0x88 SHL PUSH1 0x44 DUP3 ADD MSTORE PUSH1 0x64 SWAP1 REVERT JUMPDEST SWAP1 CALLER PUSH1 0x0 MSTORE PUSH1 0x5 PUSH1 0x20 MSTORE PUSH2 0x1D7F PUSH1 0xFF PUSH1 0x40 PUSH1 0x0 KECCAK256 SLOAD AND PUSH2 0x1CE1 JUMP JUMPDEST CALLER PUSH1 0x0 MSTORE PUSH1 0x4 PUSH1 0x20 MSTORE PUSH1 0x40 PUSH1 0x0 KECCAK256 SLOAD SWAP2 DUP3 PUSH1 0x0 MSTORE PUSH1 0x3 PUSH1 0x20 MSTORE PUSH1 0x40 PUSH1 0x0 KECCAK256 SWAP1 PUSH1 0xFF DUP3 SLOAD AND PUSH1 0x5 DUP2 LT ISZERO PUSH2 0x66A JUMPI PUSH1 0x2 PUSH2 0x1DB8 SWAP2 EQ PUSH2 0x1D26 JUMP JUMPDEST CALLER PUSH1 0x0 SWAP1 DUP2 MSTORE PUSH1 0xD DUP4 ADD PUSH1 0x20 DUP2 SWAP1 MSTORE PUSH1 0x40 SWAP1 SWAP2 KECCAK256 SLOAD PUSH1 0x15 EQ PUSH2 0x20E2 JUMPI CALLER PUSH1 0x0 SWAP1 DUP2 MSTORE PUSH1 0x11 DUP5 ADD PUSH1 0x20 MSTORE PUSH1 0x40 SWAP1 KECCAK256 SLOAD PUSH1 0xFF AND ISZERO PUSH2 0x20A9 JUMPI CALLER PUSH1 0x0 SWAP1 DUP2 MSTORE PUSH1 0x12 DUP5 ADD PUSH1 0x20 DUP2 SWAP1 MSTORE PUSH1 0x40 SWAP1 SWAP2 KECCAK256 SLOAD PUSH1 0xFF AND PUSH2 0x2071 JUMPI PUSH1 0x5 DUP4 GT PUSH2 0x203D JUMPI PUSH1 0x1 DUP5 ADD PUSH1 0x1 DUP2 SLOAD EQ DUP1 PUSH2 0x2030 JUMPI JUMPDEST PUSH2 0x2009 JUMPI JUMPDEST SLOAD PUSH1 0x1 NOT ADD PUSH2 0x1FCE JUMPI PUSH1 0x2 DUP5 ADD SWAP5 DUP6 SLOAD TIMESTAMP GT PUSH2 0x1F93 JUMPI PUSH1 0x40 MLOAD PUSH1 0x20 DUP2 ADD SWAP2 DUP6 DUP4 MSTORE PUSH1 0x40 DUP3 ADD MSTORE CALLER PUSH1 0x60 SHL PUSH1 0x60 DUP3 ADD MSTORE PUSH1 0x54 DUP2 MSTORE PUSH2 0x1E64 PUSH1 0x74 DUP3 PUSH2 0x1AE0 JUMP JUMPDEST MLOAD SWAP1 KECCAK256 CALLER PUSH1 0x0 SWAP1 DUP2 MSTORE PUSH1 0xF DUP7 ADD PUSH1 0x20 MSTORE PUSH1 0x40 SWAP1 KECCAK256 SLOAD SUB PUSH2 0x1F5D JUMPI CALLER PUSH1 0x0 SWAP1 DUP2 MSTORE PUSH1 0x10 DUP6 ADD PUSH1 0x20 SWAP1 DUP2 MSTORE PUSH1 0x40 DUP1 DUP4 KECCAK256 DUP7 SWAP1 SSTORE SWAP3 DUP2 MSTORE DUP3 DUP3 KECCAK256 DUP1 SLOAD PUSH1 0xFF NOT AND PUSH1 0x1 OR SWAP1 SSTORE SWAP3 SWAP1 SWAP3 MSTORE SWAP1 KECCAK256 SLOAD PUSH1 0x15 GT PUSH2 0x1F48 JUMPI JUMPDEST CALLER PUSH1 0x0 SWAP1 DUP2 MSTORE PUSH1 0xE DUP4 ADD PUSH1 0x20 MSTORE PUSH1 0x40 SWAP1 KECCAK256 SLOAD DUP2 EQ PUSH2 0x1F3A JUMPI PUSH1 0x40 MLOAD SWAP1 DUP2 MSTORE DUP4 PUSH32 0x319FCEC55B5300A4DCC6F96B2DF475A149433DC721BA7D96C8FB14495B748AC PUSH1 0x20 CALLER SWAP4 LOG3 PUSH1 0x15 PUSH1 0x17 DUP3 ADD SLOAD SWAP2 ADD SLOAD EQ DUP1 ISZERO PUSH2 0x1F30 JUMPI JUMPDEST PUSH2 0x1F14 JUMPI POP POP JUMP JUMPDEST SLOAD TIMESTAMP GT ISZERO PUSH2 0x1F27 JUMPI PUSH2 0x1F25 SWAP1 PUSH2 0x2E94 JUMP JUMPDEST JUMP JUMPDEST PUSH2 0x1F25 SWAP1 PUSH2 0x23C3 JUMP JUMPDEST POP DUP1 SLOAD TIMESTAMP GT PUSH2 0x1F0C JUMP JUMPDEST POP POP POP PUSH2 0x1F25 SWAP1 CALLER SWAP1 PUSH2 0x2C1B JUMP JUMPDEST PUSH1 0x17 DUP3 ADD PUSH2 0x1F56 DUP2 SLOAD PUSH2 0x1B92 JUMP JUMPDEST SWAP1 SSTORE PUSH2 0x1EB5 JUMP JUMPDEST PUSH1 0x40 MLOAD PUSH3 0x461BCD PUSH1 0xE5 SHL DUP2 MSTORE PUSH1 0x20 PUSH1 0x4 DUP3 ADD MSTORE PUSH1 0xE PUSH1 0x24 DUP3 ADD MSTORE PUSH14 0x125B9D985B1A59081C995D99585B PUSH1 0x92 SHL PUSH1 0x44 DUP3 ADD MSTORE PUSH1 0x64 SWAP1 REVERT JUMPDEST PUSH1 0x40 MLOAD PUSH3 0x461BCD PUSH1 0xE5 SHL DUP2 MSTORE PUSH1 0x20 PUSH1 0x4 DUP3 ADD MSTORE PUSH1 0x13 PUSH1 0x24 DUP3 ADD MSTORE PUSH19 0x14995D99585B081C195C9A5BD908195B991959 PUSH1 0x6A SHL PUSH1 0x44 DUP3 ADD MSTORE PUSH1 0x64 SWAP1 REVERT JUMPDEST PUSH1 0x40 MLOAD PUSH3 0x461BCD PUSH1 0xE5 SHL DUP2 MSTORE PUSH1 0x20 PUSH1 0x4 DUP3 ADD MSTORE PUSH1 0x13 PUSH1 0x24 DUP3 ADD MSTORE PUSH19 0x4E6F7420696E2072657665616C207068617365 PUSH1 0x68 SHL PUSH1 0x44 DUP3 ADD MSTORE PUSH1 0x64 SWAP1 REVERT JUMPDEST PUSH2 0x2012 DUP8 PUSH2 0x2B2D JUMP JUMPDEST PUSH1 0xFF DUP6 SLOAD AND PUSH1 0x5 DUP2 LT ISZERO PUSH2 0x66A JUMPI PUSH1 0x4 SUB PUSH2 0x1E26 JUMPI POP POP POP POP POP POP POP JUMP JUMPDEST POP PUSH1 0x2 DUP6 ADD SLOAD TIMESTAMP GT PUSH2 0x1E21 JUMP JUMPDEST PUSH1 0x40 MLOAD PUSH3 0x461BCD PUSH1 0xE5 SHL DUP2 MSTORE PUSH1 0x20 PUSH1 0x4 DUP3 ADD MSTORE PUSH1 0xC PUSH1 0x24 DUP3 ADD MSTORE PUSH12 0x496E76616C6964206D6F7665 PUSH1 0xA0 SHL PUSH1 0x44 DUP3 ADD MSTORE PUSH1 0x64 SWAP1 REVERT JUMPDEST PUSH1 0x40 MLOAD PUSH3 0x461BCD PUSH1 0xE5 SHL DUP2 MSTORE PUSH1 0x20 PUSH1 0x4 DUP3 ADD MSTORE PUSH1 0x10 PUSH1 0x24 DUP3 ADD MSTORE PUSH16 0x105B1C9958591E481C995D99585B1959 PUSH1 0x82 SHL PUSH1 0x44 DUP3 ADD MSTORE PUSH1 0x64 SWAP1 REVERT JUMPDEST PUSH1 0x40 MLOAD PUSH3 0x461BCD PUSH1 0xE5 SHL DUP2 MSTORE PUSH1 0x20 PUSH1 0x4 DUP3 ADD MSTORE PUSH1 0x11 PUSH1 0x24 DUP3 ADD MSTORE PUSH17 0x135D5CDD0818DBDB5B5A5D08199A5C9CDD PUSH1 0x7A SHL PUSH1 0x44 DUP3 ADD MSTORE PUSH1 0x64 SWAP1 REVERT JUMPDEST POP POP POP POP POP JUMP JUMPDEST SWAP2 SWAP1 DUP2 LT ISZERO PUSH2 0x18DC JUMPI PUSH1 0x5 SHL ADD SWAP1 JUMP JUMPDEST DUP1 SLOAD DUP3 LT ISZERO PUSH2 0x18DC JUMPI PUSH1 0x0 MSTORE PUSH1 0x20 PUSH1 0x0 KECCAK256 ADD SWAP1 PUSH1 0x0 SWAP1 JUMP JUMPDEST SWAP1 DUP2 SLOAD SWAP2 PUSH9 0x10000000000000000 DUP4 LT ISZERO PUSH2 0xB23 JUMPI DUP3 PUSH2 0x2139 SWAP2 PUSH1 0x1 PUSH2 0x1F25 SWAP6 ADD DUP2 SSTORE PUSH2 0x20F9 JUMP JUMPDEST DUP2 SLOAD PUSH1 0x1 PUSH1 0x1 PUSH1 0xA0 SHL SUB SWAP4 DUP5 AND PUSH1 0x3 SWAP3 SWAP1 SWAP3 SHL SWAP2 DUP3 SHL SWAP4 SWAP1 SWAP2 SHL NOT AND SWAP2 SWAP1 SWAP2 OR SWAP1 SSTORE JUMP JUMPDEST ISZERO PUSH2 0x2164 JUMPI JUMP JUMPDEST PUSH1 0x40 MLOAD PUSH3 0x461BCD PUSH1 0xE5 SHL DUP2 MSTORE PUSH1 0x20 PUSH1 0x4 DUP3 ADD MSTORE PUSH1 0x13 PUSH1 0x24 DUP3 ADD MSTORE PUSH19 0x4E6F7420696E20636F6D6D6974207068617365 PUSH1 0x68 SHL PUSH1 0x44 DUP3 ADD MSTORE PUSH1 0x64 SWAP1 REVERT JUMPDEST CALLER PUSH1 0x0 MSTORE PUSH1 0x5 PUSH1 0x20 MSTORE PUSH2 0x21B9 PUSH1 0xFF PUSH1 0x40 PUSH1 0x0 KECCAK256 SLOAD AND PUSH2 0x1CE1 JUMP JUMPDEST CALLER PUSH1 0x0 MSTORE PUSH1 0x4 PUSH1 0x20 MSTORE PUSH1 0x40 PUSH1 0x0 KECCAK256 SLOAD SWAP1 DUP2 PUSH1 0x0 MSTORE PUSH1 0x3 PUSH1 0x20 MSTORE PUSH1 0x40 PUSH1 0x0 KECCAK256 SWAP1 PUSH1 0xFF DUP3 SLOAD AND PUSH1 0x5 DUP2 LT ISZERO PUSH2 0x66A JUMPI PUSH1 0x2 PUSH2 0x21F2 SWAP2 EQ PUSH2 0x1D26 JUMP JUMPDEST PUSH1 0xD DUP3 ADD SWAP1 PUSH1 0x1 DUP1 PUSH1 0xA0 SHL SUB CALLER AND PUSH1 0x0 MSTORE DUP2 PUSH1 0x20 MSTORE PUSH1 0x15 PUSH1 0x40 PUSH1 0x0 KECCAK256 SLOAD EQ PUSH2 0x233C JUMPI PUSH2 0x2223 PUSH1 0x1 DUP1 DUP6 ADD SLOAD EQ PUSH2 0x215D JUMP JUMPDEST PUSH1 0x11 DUP4 ADD SWAP1 PUSH1 0x1 DUP1 PUSH1 0xA0 SHL SUB CALLER AND PUSH1 0x0 MSTORE DUP2 PUSH1 0x20 MSTORE PUSH1 0xFF PUSH1 0x40 PUSH1 0x0 KECCAK256 SLOAD AND PUSH2 0x2303 JUMPI PUSH1 0x2 DUP5 ADD SLOAD TIMESTAMP GT PUSH2 0x22DF JUMPI CALLER PUSH1 0x0 SWAP1 DUP2 MSTORE PUSH1 0xF DUP6 ADD PUSH1 0x20 SWAP1 DUP2 MSTORE PUSH1 0x40 DUP1 DUP4 KECCAK256 SWAP4 SWAP1 SWAP4 SSTORE SWAP3 DUP4 MSTORE DUP2 DUP2 KECCAK256 DUP1 SLOAD PUSH1 0xFF NOT AND PUSH1 0x1 OR SWAP1 SSTORE SWAP3 SWAP1 SWAP2 MSTORE SWAP1 KECCAK256 SLOAD PUSH1 0x15 GT PUSH2 0x22CA JUMPI JUMPDEST CALLER DUP3 PUSH32 0x2E6ED0CAE7A81E1893017DFAFD5FBAF8594ADCC50FF27B5F8EB70E0E90ACF315 PUSH1 0x0 DUP1 LOG3 PUSH1 0x15 PUSH1 0x16 DUP3 ADD SLOAD SWAP2 ADD SLOAD EQ PUSH2 0x22C1 JUMPI POP JUMP JUMPDEST PUSH2 0x1F25 SWAP1 PUSH2 0x311D JUMP JUMPDEST PUSH1 0x16 DUP2 ADD PUSH2 0x22D8 DUP2 SLOAD PUSH2 0x1B92 JUMP JUMPDEST SWAP1 SSTORE PUSH2 0x2288 JUMP JUMPDEST POP POP POP PUSH1 0xFF SWAP1 PUSH2 0x22EE DUP4 PUSH2 0x3032 JUMP JUMPDEST SLOAD AND PUSH1 0x5 DUP2 LT ISZERO PUSH2 0x66A JUMPI PUSH1 0x4 SUB PUSH2 0x22C1 JUMPI POP JUMP JUMPDEST PUSH1 0x40 MLOAD PUSH3 0x461BCD PUSH1 0xE5 SHL DUP2 MSTORE PUSH1 0x20 PUSH1 0x4 DUP3 ADD MSTORE PUSH1 0x11 PUSH1 0x24 DUP3 ADD MSTORE PUSH17 0x105B1C9958591E4818DBDB5B5A5D1D1959 PUSH1 0x7A SHL PUSH1 0x44 DUP3 ADD MSTORE PUSH1 0x64 SWAP1 REVERT JUMPDEST POP POP POP POP JUMP JUMPDEST SWAP3 PUSH2 0x1C88 SWAP5 SWAP3 PUSH2 0x236B SWAP3 DUP6 MSTORE PUSH1 0x1 PUSH1 0x20 DUP7 ADD MSTORE PUSH1 0x40 DUP6 ADD MSTORE PUSH1 0xA0 PUSH1 0x60 DUP6 ADD MSTORE PUSH1 0xA0 DUP5 ADD SWAP1 PUSH2 0x1960 JUMP JUMPDEST SWAP2 PUSH1 0x80 DUP2 DUP5 SUB SWAP2 ADD MSTORE PUSH2 0x1960 JUMP JUMPDEST PUSH1 0x40 PUSH1 0x20 DUP3 ADD SWAP2 PUSH1 0x20 DUP2 MSTORE DUP4 SLOAD DUP1 SWAP4 MSTORE ADD SWAP2 PUSH1 0x0 MSTORE PUSH1 0x20 PUSH1 0x0 KECCAK256 SWAP1 PUSH1 0x0 JUMPDEST DUP2 DUP2 LT PUSH2 0x23A4 JUMPI POP POP POP SWAP1 JUMP JUMPDEST DUP3 SLOAD PUSH1 0x1 PUSH1 0x1 PUSH1 0xA0 SHL SUB AND DUP5 MSTORE PUSH1 0x20 SWAP1 SWAP4 ADD SWAP3 PUSH1 0x1 SWAP3 DUP4 ADD SWAP3 ADD PUSH2 0x2397 JUMP JUMPDEST SWAP1 DUP2 PUSH1 0x0 MSTORE PUSH1 0x3 PUSH1 0x20 MSTORE PUSH1 0x40 PUSH1 0x0 KECCAK256 PUSH1 0x0 SWAP3 PUSH1 0x0 SWAP2 PUSH1 0xB DUP2 ADD SWAP5 DUP6 SLOAD PUSH1 0x12 DUP4 ADD SWAP5 JUMPDEST DUP2 DUP2 LT PUSH2 0x2A90 JUMPI JUMPDEST POP POP PUSH2 0x2A65 JUMPI JUMPDEST PUSH1 0x0 JUMPDEST DUP6 SLOAD DUP2 LT ISZERO PUSH2 0x255C JUMPI DUP1 PUSH2 0x240D PUSH1 0x1 SWAP3 DUP9 PUSH2 0x20F9 JUMP JUMPDEST DUP4 DUP1 PUSH1 0xA0 SHL SUB SWAP2 SLOAD SWAP1 PUSH1 0x3 SHL SHR AND PUSH1 0xFF PUSH1 0x40 PUSH1 0x0 DUP6 DUP1 PUSH1 0xA0 SHL SUB DUP5 AND DUP2 MSTORE DUP9 PUSH1 0x20 MSTORE KECCAK256 SLOAD AND PUSH2 0x243E JUMPI JUMPDEST POP ADD PUSH2 0x23F7 JUMP JUMPDEST DUP5 PUSH32 0xB5AC3117B47D1355284F96AE97A243BDF1B9879EB07334364220E37D71FBDDA4 PUSH1 0x40 DUP1 PUSH1 0x0 DUP8 DUP1 PUSH1 0xA0 SHL SUB DUP7 AND DUP2 MSTORE PUSH1 0x10 DUP10 ADD PUSH1 0x20 MSTORE KECCAK256 SLOAD PUSH1 0xD DUP9 ADD DUP3 PUSH1 0x0 DUP10 DUP1 PUSH1 0xA0 SHL SUB DUP9 AND DUP2 MSTORE DUP3 PUSH1 0x20 MSTORE KECCAK256 SLOAD SWAP2 PUSH2 0x249A DUP2 DUP5 PUSH2 0x1A7F JUMP JUMPDEST SWAP2 DUP4 DUP9 DUP13 PUSH1 0x15 DUP7 GT PUSH2 0x2553 JUMPI JUMPDEST DUP8 SWAP3 DUP7 SWAP5 SWAP3 PUSH2 0x24B5 SWAP3 PUSH2 0x3228 JUMP JUMPDEST PUSH1 0x0 SWAP1 DUP13 DUP1 PUSH1 0xA0 SHL SUB DUP12 AND DUP3 MSTORE PUSH1 0x20 MSTORE KECCAK256 SSTORE DUP2 PUSH1 0x0 MSTORE PUSH1 0x13 DUP11 ADD PUSH1 0x20 MSTORE DUP4 PUSH1 0x0 KECCAK256 PUSH2 0x24E0 DUP2 SLOAD PUSH2 0x1B92 JUMP JUMPDEST SWAP1 SSTORE DUP2 PUSH1 0x0 MSTORE PUSH1 0x14 DUP11 ADD PUSH1 0x20 MSTORE PUSH2 0x24FA DUP8 DUP6 PUSH1 0x0 KECCAK256 PUSH2 0x2111 JUMP JUMPDEST DUP4 PUSH1 0x0 DUP11 DUP1 PUSH1 0xA0 SHL SUB DUP10 AND DUP2 MSTORE PUSH1 0xE DUP13 ADD PUSH1 0x20 MSTORE KECCAK256 SSTORE PUSH1 0x15 DUP2 EQ DUP1 PUSH2 0x2542 JUMPI JUMPDEST PUSH2 0x2530 JUMPI JUMPDEST DUP3 MLOAD SWAP2 DUP3 MSTORE PUSH1 0x20 DUP3 ADD MSTORE LOG3 CODESIZE PUSH2 0x2437 JUMP JUMPDEST PUSH2 0x253D DUP7 PUSH1 0x18 DUP12 ADD PUSH2 0x2111 JUMP JUMPDEST PUSH2 0x251F JUMP JUMPDEST POP PUSH2 0x254D DUP7 DUP11 PUSH2 0x32B3 JUMP JUMPDEST ISZERO PUSH2 0x251A JUMP JUMPDEST PUSH1 0x15 SWAP6 POP PUSH2 0x24A7 JUMP JUMPDEST POP PUSH1 0x13 DUP2 ADD SWAP5 SWAP2 SWAP4 SWAP1 SWAP3 SWAP1 PUSH1 0x14 DUP5 ADD PUSH1 0x0 JUMPDEST PUSH1 0x15 DUP2 GT ISZERO PUSH2 0x29EB JUMPI POP PUSH1 0x1 JUMPDEST PUSH1 0x15 DUP2 GT ISZERO PUSH2 0x28B6 JUMPI POP POP PUSH1 0x5 DUP5 ADD SWAP5 DUP1 PUSH32 0x8868888CC18628A149BC88CC32A91976AB30E2CD9AECECB0CFE184A73FE551F9 PUSH1 0x20 DUP9 SLOAD PUSH1 0x40 MLOAD SWAP1 DUP2 MSTORE LOG2 PUSH1 0x0 SWAP4 PUSH1 0x8 DUP7 ADD SWAP8 PUSH1 0x11 DUP8 ADD SWAP6 JUMPDEST DUP10 SLOAD DUP2 LT ISZERO PUSH2 0x267D JUMPI DUP1 PUSH2 0x25DC PUSH1 0x1 SWAP3 DUP13 PUSH2 0x20F9 JUMP JUMPDEST DUP4 DUP1 PUSH1 0xA0 SHL SUB SWAP2 SLOAD SWAP1 PUSH1 0x3 SHL SHR AND PUSH1 0xFF PUSH1 0x40 PUSH1 0x0 DUP6 DUP1 PUSH1 0xA0 SHL SUB DUP5 AND DUP2 MSTORE DUP12 PUSH1 0x20 MSTORE KECCAK256 SLOAD AND DUP1 ISZERO PUSH2 0x2660 JUMPI JUMPDEST PUSH2 0x2614 JUMPI JUMPDEST POP ADD PUSH2 0x25C6 JUMP JUMPDEST PUSH1 0xA0 DUP4 SWAP1 SHL DUP4 SWAP1 SUB AND PUSH1 0x0 SWAP1 DUP2 MSTORE PUSH1 0x20 DUP10 DUP2 MSTORE PUSH1 0x40 DUP1 DUP4 KECCAK256 DUP1 SLOAD PUSH1 0xFF NOT SWAP1 DUP2 AND SWAP1 SWAP2 SSTORE DUP11 DUP4 MSTORE DUP2 DUP5 KECCAK256 DUP1 SLOAD SWAP1 SWAP2 AND SWAP1 SSTORE PUSH1 0xF DUP13 ADD DUP3 MSTORE DUP1 DUP4 KECCAK256 DUP4 SWAP1 SSTORE PUSH1 0x10 DUP13 ADD SWAP1 SWAP2 MSTORE DUP2 KECCAK256 SSTORE CODESIZE PUSH2 0x260D JUMP JUMPDEST POP PUSH1 0xFF PUSH1 0x40 PUSH1 0x0 DUP6 DUP1 PUSH1 0xA0 SHL SUB DUP5 AND DUP2 MSTORE DUP11 PUSH1 0x20 MSTORE KECCAK256 SLOAD AND PUSH2 0x2608 JUMP JUMPDEST POP SWAP4 POP SWAP5 SWAP4 POP SWAP5 SWAP1 SWAP6 PUSH1 0x0 PUSH1 0x16 DUP6 ADD SSTORE PUSH1 0x0 PUSH1 0x17 DUP6 ADD SSTORE PUSH2 0x269D DUP5 PUSH2 0x2FC8 JUMP JUMPDEST PUSH2 0x26A6 DUP5 PUSH2 0x3303 JUMP JUMPDEST ISZERO PUSH2 0x27D2 JUMPI POP POP PUSH1 0x15 PUSH1 0x0 MSTORE PUSH1 0x20 MSTORE PUSH1 0x40 PUSH1 0x0 KECCAK256 SLOAD PUSH1 0x7 DUP3 ADD SLOAD GT ISZERO PUSH2 0x2724 JUMPI JUMPDEST DUP1 SLOAD PUSH1 0xFF NOT AND PUSH1 0x4 SWAP1 DUP2 OR DUP3 SSTORE TIMESTAMP SWAP1 DUP3 ADD SSTORE PUSH1 0x18 ADD DUP1 SLOAD PUSH32 0xA7690F576EAEF889EF9EF29D1EAEE6C0E3B073108B66BB8009EC8AF6428BB345 SWAP3 PUSH2 0x2718 SWAP3 SWAP2 ISZERO PUSH2 0x271D JUMPI POP JUMPDEST PUSH1 0x40 MLOAD SWAP2 DUP3 SWAP2 DUP3 PUSH2 0x2379 JUMP JUMPDEST SUB SWAP1 LOG2 JUMP JUMPDEST SWAP1 POP PUSH2 0x270C JUMP JUMPDEST DUP2 SLOAD PUSH2 0x272F DUP2 PUSH2 0x1BA1 JUMP JUMPDEST PUSH1 0x0 SWAP2 PUSH1 0xD DUP5 ADD DUP4 JUMPDEST DUP3 DUP2 LT PUSH2 0x277A JUMPI POP POP POP PUSH1 0x0 JUMPDEST DUP3 DUP2 LT PUSH2 0x2754 JUMPI POP POP POP PUSH2 0x26C7 JUMP JUMPDEST PUSH1 0x1 SWAP1 PUSH2 0x2774 PUSH1 0x1 PUSH1 0x1 PUSH1 0xA0 SHL SUB PUSH2 0x276C DUP4 DUP7 PUSH2 0x1B3D JUMP JUMPDEST MLOAD AND DUP9 PUSH2 0x2C1B JUMP JUMPDEST ADD PUSH2 0x2745 JUMP JUMPDEST DUP1 PUSH2 0x2787 PUSH1 0x1 SWAP3 DUP10 PUSH2 0x20F9 JUMP JUMPDEST DUP4 DUP1 PUSH1 0xA0 SHL SUB SWAP2 SLOAD SWAP1 PUSH1 0x3 SHL SHR AND PUSH1 0x15 PUSH1 0x40 PUSH1 0x0 DUP6 DUP1 PUSH1 0xA0 SHL SUB DUP5 AND DUP2 MSTORE DUP7 PUSH1 0x20 MSTORE KECCAK256 SLOAD LT PUSH2 0x27B8 JUMPI JUMPDEST POP ADD PUSH2 0x2738 JUMP JUMPDEST PUSH2 0x27CB PUSH2 0x27C4 DUP9 PUSH2 0x1B92 JUMP JUMPDEST SWAP8 DUP8 PUSH2 0x1B3D JUMP JUMPDEST MSTORE CODESIZE PUSH2 0x27B1 JUMP JUMPDEST SWAP1 SWAP3 SWAP2 SWAP6 SWAP5 SWAP4 POP PUSH2 0x27E3 DUP4 SLOAD PUSH2 0x1B92 JUMP JUMPDEST DUP4 SSTORE PUSH1 0x2 PUSH1 0xFF NOT DUP4 SLOAD AND OR DUP3 SSTORE PUSH1 0x1 DUP1 DUP4 ADD SSTORE PUSH2 0x4B0 TIMESTAMP ADD SWAP3 DUP4 TIMESTAMP GT PUSH2 0x639 JUMPI DUP4 PUSH1 0x2 DUP5 ADD SSTORE PUSH2 0x2811 PUSH2 0x1B1A JUMP JUMPDEST SWAP3 PUSH2 0x281A PUSH2 0x1B1A JUMP JUMPDEST SWAP3 PUSH1 0x0 JUMPDEST PUSH1 0x15 DUP2 GT ISZERO PUSH2 0x2862 JUMPI POP POP POP PUSH32 0x36C6D932CB9691BEE381221CC5177BB28FD438AB828D9ED9ED7C3C546CB5D2B4 SWAP5 SWAP6 SWAP7 POP SWAP1 PUSH2 0x2718 SWAP2 SLOAD SWAP3 PUSH1 0x40 MLOAD SWAP5 DUP6 SWAP5 DUP6 PUSH2 0x2342 JUMP JUMPDEST DUP1 PUSH2 0x289A SWAP2 PUSH1 0x0 MSTORE DUP11 PUSH1 0x20 MSTORE PUSH1 0x40 PUSH1 0x0 KECCAK256 SLOAD PUSH2 0x287E DUP3 DUP10 PUSH2 0x1B3D JUMP JUMPDEST MSTORE PUSH1 0x0 PUSH1 0x15 DUP3 SUB PUSH2 0x289F JUMPI POP PUSH1 0x7 DUP5 ADD SLOAD JUMPDEST PUSH2 0x607 DUP3 DUP9 PUSH2 0x1B3D JUMP JUMPDEST PUSH2 0x281E JUMP JUMPDEST POP DUP1 PUSH2 0x28AC JUMPI DUP3 SLOAD PUSH2 0x2890 JUMP JUMPDEST PUSH1 0x6 DUP5 ADD SLOAD PUSH2 0x2890 JUMP JUMPDEST DUP1 PUSH1 0x0 SWAP8 SWAP6 SWAP8 MSTORE DUP8 PUSH1 0x20 MSTORE PUSH1 0x40 PUSH1 0x0 KECCAK256 SLOAD PUSH1 0x15 DUP3 EQ PUSH1 0x0 EQ PUSH2 0x29E1 JUMPI PUSH1 0x7 DUP8 ADD SLOAD JUMPDEST DUP2 GT DUP1 PUSH2 0x29D7 JUMPI JUMPDEST PUSH2 0x28F7 JUMPI JUMPDEST POP PUSH2 0x28EF SWAP1 PUSH2 0x1B92 JUMP JUMPDEST SWAP6 SWAP4 SWAP6 PUSH2 0x257B JUMP JUMPDEST SWAP8 SWAP2 SWAP3 SWAP4 SWAP6 PUSH2 0x291F SWAP7 DUP3 PUSH1 0x0 SWAP10 SWAP4 SWAP10 MSTORE DUP5 PUSH1 0x20 MSTORE PUSH2 0x2926 PUSH1 0x40 PUSH1 0x0 KECCAK256 PUSH1 0x40 MLOAD SWAP10 DUP11 DUP1 SWAP3 PUSH2 0x1BD3 JUMP JUMPDEST SUB DUP10 PUSH2 0x1AE0 JUMP JUMPDEST PUSH1 0xC DUP3 ADD SWAP6 PUSH1 0x0 JUMPDEST DUP10 MLOAD DUP2 LT ISZERO PUSH2 0x2991 JUMPI PUSH1 0x1 SWAP1 PUSH1 0xFF PUSH1 0x40 PUSH1 0x1 PUSH1 0x1 PUSH1 0xA0 SHL SUB PUSH2 0x2950 DUP5 DUP16 PUSH2 0x1B3D JUMP JUMPDEST MLOAD AND PUSH1 0x0 SWAP1 DUP6 DUP1 PUSH1 0xA0 SHL SUB AND DUP2 MSTORE DUP12 PUSH1 0x20 MSTORE KECCAK256 SLOAD AND PUSH2 0x2970 JUMPI JUMPDEST ADD PUSH2 0x292E JUMP JUMPDEST PUSH2 0x298C DUP12 PUSH2 0x2984 DUP4 DUP6 DUP1 PUSH1 0xA0 SHL SUB SWAP3 PUSH2 0x1B3D JUMP JUMPDEST MLOAD AND DUP12 PUSH2 0x2C1B JUMP JUMPDEST PUSH2 0x296A JUMP JUMPDEST POP SWAP5 SWAP4 SWAP10 PUSH2 0x28EF SWAP4 SWAP10 SWAP3 SWAP9 POP DUP8 SWAP2 SWAP7 POP PUSH1 0x40 PUSH32 0xD1D2639F7F04024F3049861F7802EFFAAA3CB181FF4660B1828E7F293A69408B SWAP2 DUP2 MLOAD SWAP1 DUP6 DUP3 MSTORE PUSH1 0x20 DUP3 ADD MSTORE LOG2 SWAP1 PUSH2 0x28E5 JUMP JUMPDEST POP PUSH1 0x15 DUP3 LT PUSH2 0x28E0 JUMP JUMPDEST PUSH1 0x6 DUP8 ADD SLOAD PUSH2 0x28D8 JUMP JUMPDEST DUP1 PUSH1 0x0 SWAP8 SWAP6 SWAP8 MSTORE DUP8 PUSH1 0x20 MSTORE PUSH1 0x40 PUSH1 0x0 KECCAK256 SLOAD DUP2 PUSH1 0x0 MSTORE DUP3 PUSH1 0x20 MSTORE PUSH1 0x40 PUSH1 0x0 KECCAK256 SLOAD SUB PUSH2 0x2A20 JUMPI PUSH2 0x2A18 SWAP1 PUSH2 0x1B92 JUMP JUMPDEST SWAP6 SWAP4 SWAP6 PUSH2 0x256E JUMP JUMPDEST PUSH1 0x40 MLOAD PUSH3 0x461BCD PUSH1 0xE5 SHL DUP2 MSTORE PUSH1 0x20 PUSH1 0x4 DUP3 ADD MSTORE PUSH1 0x19 PUSH1 0x24 DUP3 ADD MSTORE PUSH32 0x4C6576656C20706F70756C6174696F6E206D69736D6174636800000000000000 PUSH1 0x44 DUP3 ADD MSTORE PUSH1 0x64 SWAP1 REVERT JUMPDEST PUSH2 0x2A6E DUP3 PUSH2 0x2E94 JUMP JUMPDEST PUSH1 0xFF DUP2 SLOAD AND PUSH1 0x5 DUP2 LT ISZERO PUSH2 0x66A JUMPI PUSH1 0x4 SUB PUSH2 0x23F4 JUMPI SWAP3 SWAP4 POP POP POP PUSH1 0x4 TIMESTAMP SWAP2 ADD SSTORE JUMP JUMPDEST PUSH2 0x2A9A DUP2 DUP10 PUSH2 0x20F9 JUMP JUMPDEST SWAP1 SLOAD PUSH1 0x3 SWAP2 SWAP1 SWAP2 SHL SHR PUSH1 0x1 PUSH1 0x1 PUSH1 0xA0 SHL SUB AND PUSH1 0x0 DUP2 DUP2 MSTORE PUSH1 0x20 DUP9 SWAP1 MSTORE PUSH1 0x40 SWAP1 KECCAK256 SLOAD PUSH1 0xFF AND ISZERO SWAP1 DUP2 PUSH2 0x2ADF JUMPI JUMPDEST POP PUSH2 0x2AD3 JUMPI PUSH1 0x1 ADD PUSH2 0x23E5 JUMP JUMPDEST POP POP POP PUSH1 0x1 CODESIZE DUP1 PUSH2 0x23ED JUMP JUMPDEST PUSH1 0x1 PUSH1 0x1 PUSH1 0xA0 SHL SUB AND PUSH1 0x0 SWAP1 DUP2 MSTORE PUSH1 0xD DUP7 ADD PUSH1 0x20 MSTORE PUSH1 0x40 SWAP1 KECCAK256 SLOAD PUSH1 0x15 GT SWAP1 POP CODESIZE PUSH2 0x2AC6 JUMP JUMPDEST PUSH1 0x0 SLOAD PUSH1 0x1 PUSH1 0x1 PUSH1 0xA0 SHL SUB AND CALLER SUB PUSH2 0x2B18 JUMPI JUMP JUMPDEST PUSH4 0x118CDAA7 PUSH1 0xE0 SHL PUSH1 0x0 MSTORE CALLER PUSH1 0x4 MSTORE PUSH1 0x24 PUSH1 0x0 REVERT JUMPDEST DUP1 PUSH1 0x0 MSTORE PUSH1 0x3 PUSH1 0x20 MSTORE PUSH1 0x40 PUSH1 0x0 KECCAK256 PUSH2 0x2B4A PUSH1 0x1 DUP1 DUP4 ADD SLOAD EQ PUSH2 0x215D JUMP JUMPDEST PUSH1 0x2 DUP2 ADD SLOAD TIMESTAMP GT DUP1 ISZERO PUSH2 0x2BBA JUMPI JUMPDEST ISZERO PUSH2 0x2B75 JUMPI PUSH1 0x15 PUSH1 0x16 DUP3 ADD SLOAD SWAP2 ADD SLOAD EQ PUSH2 0x22C1 JUMPI PUSH2 0x1F25 SWAP1 PUSH2 0x3032 JUMP JUMPDEST PUSH1 0x40 MLOAD PUSH3 0x461BCD PUSH1 0xE5 SHL DUP2 MSTORE PUSH1 0x20 PUSH1 0x4 DUP3 ADD MSTORE PUSH1 0x1B PUSH1 0x24 DUP3 ADD MSTORE PUSH32 0x43616E6E6F7420656E6420636F6D6D6974207068617365207965740000000000 PUSH1 0x44 DUP3 ADD MSTORE PUSH1 0x64 SWAP1 REVERT JUMPDEST POP PUSH1 0x16 DUP2 ADD SLOAD PUSH1 0x15 DUP3 ADD SLOAD EQ PUSH2 0x2B58 JUMP JUMPDEST DUP1 ISZERO PUSH2 0x639 JUMPI PUSH1 0x0 NOT ADD SWAP1 JUMP JUMPDEST DUP1 SLOAD DUP1 ISZERO PUSH2 0x2C05 JUMPI PUSH1 0x0 NOT ADD SWAP1 PUSH2 0x2BEF DUP3 DUP3 PUSH2 0x20F9 JUMP JUMPDEST DUP2 SLOAD SWAP1 PUSH1 0x1 DUP1 PUSH1 0xA0 SHL SUB SWAP1 PUSH1 0x3 SHL SHL NOT AND SWAP1 SSTORE SSTORE JUMP JUMPDEST PUSH4 0x4E487B71 PUSH1 0xE0 SHL PUSH1 0x0 MSTORE PUSH1 0x31 PUSH1 0x4 MSTORE PUSH1 0x24 PUSH1 0x0 REVERT JUMPDEST SWAP1 PUSH1 0x0 SWAP2 DUP1 DUP4 MSTORE PUSH1 0x3 PUSH1 0x20 MSTORE PUSH1 0x40 DUP4 KECCAK256 SWAP2 PUSH1 0xC DUP4 ADD PUSH1 0x1 DUP1 PUSH1 0xA0 SHL SUB DUP3 AND DUP6 MSTORE DUP1 PUSH1 0x20 MSTORE PUSH1 0xFF PUSH1 0x40 DUP7 KECCAK256 SLOAD AND ISZERO PUSH2 0x2E5B JUMPI PUSH1 0x1 PUSH1 0x1 PUSH1 0xA0 SHL SUB DUP3 AND DUP6 MSTORE PUSH1 0xD DUP5 ADD PUSH1 0x20 MSTORE PUSH1 0x40 DUP6 KECCAK256 SLOAD PUSH1 0x15 SWAP1 PUSH2 0x2C72 DUP2 DUP6 DUP9 PUSH2 0x3228 JUMP JUMPDEST LT PUSH2 0x2DF1 JUMPI JUMPDEST PUSH1 0x1 DUP1 PUSH1 0xA0 SHL SUB DUP3 AND DUP6 MSTORE PUSH1 0x20 MSTORE PUSH1 0x40 DUP5 KECCAK256 PUSH1 0xFF NOT DUP2 SLOAD AND SWAP1 SSTORE PUSH1 0x1 DUP1 PUSH1 0xA0 SHL SUB AND SWAP2 DUP3 DUP5 MSTORE PUSH1 0x5 PUSH1 0x20 MSTORE PUSH1 0x40 DUP5 KECCAK256 PUSH1 0xFF NOT DUP2 SLOAD AND SWAP1 SSTORE DUP3 DUP5 MSTORE PUSH1 0x4 PUSH1 0x20 MSTORE DUP4 PUSH1 0x40 DUP2 KECCAK256 SSTORE DUP4 PUSH1 0xB DUP3 ADD SWAP5 JUMPDEST DUP6 SLOAD DUP1 DUP3 LT ISZERO PUSH2 0x2DE5 JUMPI DUP6 PUSH2 0x2CD9 DUP4 DUP10 PUSH2 0x20F9 JUMP JUMPDEST SWAP1 SLOAD PUSH1 0x3 SWAP2 SWAP1 SWAP2 SHL SHR PUSH1 0x1 PUSH1 0x1 PUSH1 0xA0 SHL SUB AND EQ PUSH2 0x2CF9 JUMPI POP PUSH1 0x1 ADD PUSH2 0x2CC4 JUMP JUMPDEST PUSH1 0x0 SWAP7 SWAP3 SWAP4 SWAP5 SWAP6 SWAP7 NOT DUP2 ADD SWAP1 DUP2 GT PUSH2 0x2DD1 JUMPI DUP3 SWAP2 PUSH2 0x2139 PUSH2 0x2D20 PUSH2 0x2D39 SWAP4 PUSH2 0x2D3E SWAP7 PUSH2 0x20F9 JUMP JUMPDEST SWAP1 SLOAD PUSH1 0x3 SWAP2 SWAP1 SWAP2 SHL SHR PUSH1 0x1 PUSH1 0x1 PUSH1 0xA0 SHL SUB AND SWAP2 DUP5 PUSH2 0x20F9 JUMP JUMPDEST PUSH2 0x2BD8 JUMP JUMPDEST PUSH2 0x2D47 DUP3 PUSH2 0x2FC8 JUMP JUMPDEST PUSH1 0x1 SLOAD PUSH1 0x1 PUSH1 0x1 PUSH1 0xA0 SHL SUB AND DUP1 EXTCODESIZE ISZERO PUSH2 0x2DCD JUMPI SWAP1 DUP1 DUP1 PUSH1 0xA SWAP5 SWAP4 PUSH1 0x24 PUSH1 0x40 MLOAD DUP1 SWAP5 DUP2 SWAP4 PUSH4 0x3EF6CF1D PUSH1 0xE2 SHL DUP4 MSTORE DUP12 PUSH1 0x4 DUP5 ADD MSTORE GAS CALL PUSH2 0x2DBD JUMPI JUMPDEST POP POP DUP4 PUSH1 0x0 MSTORE ADD PUSH1 0x20 MSTORE PUSH32 0x51479C93D7646904D2282E9E79CDDF11999AC774B7FD0289E2F59CB4AD0F086A PUSH1 0x20 PUSH1 0x40 PUSH1 0x0 KECCAK256 SLOAD PUSH1 0x40 MLOAD SWAP1 DUP2 MSTORE LOG3 JUMP JUMPDEST DUP2 PUSH2 0x2DC7 SWAP2 PUSH2 0x1AE0 JUMP JUMPDEST CODESIZE PUSH2 0x2D81 JUMP JUMPDEST POP DUP1 REVERT JUMPDEST PUSH4 0x4E487B71 PUSH1 0xE0 SHL DUP5 MSTORE PUSH1 0x11 PUSH1 0x4 MSTORE PUSH1 0x24 DUP5 REVERT JUMPDEST POP POP SWAP1 SWAP2 SWAP3 SWAP4 POP PUSH2 0x2D3E JUMP JUMPDEST PUSH1 0x1 PUSH1 0x1 PUSH1 0xA0 SHL SUB DUP3 AND DUP6 MSTORE PUSH1 0x11 DUP5 ADD PUSH1 0x20 MSTORE PUSH1 0x40 DUP6 KECCAK256 SLOAD PUSH1 0xFF AND PUSH2 0x2E46 JUMPI JUMPDEST PUSH1 0x1 PUSH1 0x1 PUSH1 0xA0 SHL SUB DUP3 AND DUP6 MSTORE PUSH1 0x12 DUP5 ADD PUSH1 0x20 MSTORE PUSH1 0x40 DUP6 KECCAK256 SLOAD PUSH1 0xFF AND ISZERO PUSH2 0x2C78 JUMPI PUSH1 0x17 DUP5 ADD PUSH2 0x2E3F DUP2 SLOAD PUSH2 0x2BCB JUMP JUMPDEST SWAP1 SSTORE PUSH2 0x2C78 JUMP JUMPDEST PUSH1 0x16 DUP5 ADD PUSH2 0x2E54 DUP2 SLOAD PUSH2 0x2BCB JUMP JUMPDEST SWAP1 SSTORE PUSH2 0x2E11 JUMP JUMPDEST PUSH1 0x40 MLOAD PUSH3 0x461BCD PUSH1 0xE5 SHL DUP2 MSTORE PUSH1 0x20 PUSH1 0x4 DUP3 ADD MSTORE PUSH1 0x11 PUSH1 0x24 DUP3 ADD MSTORE PUSH17 0x506C61796572206E6F7420616374697665 PUSH1 0x78 SHL PUSH1 0x44 DUP3 ADD MSTORE PUSH1 0x64 SWAP1 REVERT JUMPDEST DUP1 PUSH1 0x0 MSTORE PUSH1 0x3 PUSH1 0x20 MSTORE PUSH1 0x40 PUSH1 0x0 KECCAK256 PUSH1 0xB DUP2 ADD SWAP1 DUP2 SLOAD PUSH2 0x2EB2 DUP2 PUSH2 0x1BA1 JUMP JUMPDEST PUSH1 0x0 SWAP2 PUSH1 0x12 DUP5 ADD DUP4 JUMPDEST DUP3 DUP2 LT PUSH2 0x2F50 JUMPI POP POP POP PUSH1 0x0 JUMPDEST DUP3 DUP2 LT PUSH2 0x2F32 JUMPI POP POP POP PUSH2 0x2EDB DUP2 PUSH2 0x2FC8 JUMP JUMPDEST PUSH1 0x2 DUP3 SLOAD LT PUSH2 0x2EE9 JUMPI POP POP POP JUMP JUMPDEST DUP1 SLOAD PUSH1 0xFF NOT AND PUSH1 0x4 OR DUP2 SSTORE PUSH1 0x18 ADD DUP1 SLOAD PUSH32 0xA7690F576EAEF889EF9EF29D1EAEE6C0E3B073108B66BB8009EC8AF6428BB345 SWAP3 PUSH2 0x2718 SWAP3 SWAP2 ISZERO PUSH2 0x271D JUMPI POP PUSH1 0x40 MLOAD SWAP2 DUP3 SWAP2 DUP3 PUSH2 0x2379 JUMP JUMPDEST PUSH1 0x1 SWAP1 PUSH2 0x2F4A PUSH1 0x1 PUSH1 0x1 PUSH1 0xA0 SHL SUB PUSH2 0x276C DUP4 DUP7 PUSH2 0x1B3D JUMP JUMPDEST ADD PUSH2 0x2EC8 JUMP JUMPDEST DUP1 PUSH2 0x2F5D PUSH1 0x1 SWAP3 DUP10 PUSH2 0x20F9 JUMP JUMPDEST DUP4 DUP1 PUSH1 0xA0 SHL SUB SWAP2 SLOAD SWAP1 PUSH1 0x3 SHL SHR AND PUSH1 0xFF PUSH1 0x40 PUSH1 0x0 DUP6 DUP1 PUSH1 0xA0 SHL SUB DUP5 AND DUP2 MSTORE DUP7 PUSH1 0x20 MSTORE KECCAK256 SLOAD AND ISZERO DUP1 PUSH2 0x2FA8 JUMPI JUMPDEST PUSH2 0x2F95 JUMPI JUMPDEST POP ADD PUSH2 0x2EBB JUMP JUMPDEST PUSH2 0x2FA1 PUSH2 0x27C4 DUP9 PUSH2 0x1B92 JUMP JUMPDEST MSTORE CODESIZE PUSH2 0x2F8E JUMP JUMPDEST POP PUSH1 0x15 PUSH1 0x40 PUSH1 0x0 DUP6 DUP1 PUSH1 0xA0 SHL SUB DUP5 AND DUP2 MSTORE PUSH1 0xD DUP12 ADD PUSH1 0x20 MSTORE KECCAK256 SLOAD LT PUSH2 0x2F89 JUMP JUMPDEST PUSH1 0x0 DUP1 JUMPDEST PUSH1 0xB DUP4 ADD DUP1 SLOAD DUP3 LT ISZERO PUSH2 0x3029 JUMPI PUSH1 0x40 PUSH2 0x2FE7 DUP4 PUSH1 0x15 SWAP4 PUSH2 0x20F9 JUMP JUMPDEST SWAP1 SLOAD PUSH1 0x3 SWAP2 SWAP1 SWAP2 SHL SHR PUSH1 0x1 PUSH1 0x1 PUSH1 0xA0 SHL SUB AND PUSH1 0x0 SWAP1 DUP2 MSTORE PUSH1 0xD DUP7 ADD PUSH1 0x20 MSTORE KECCAK256 SLOAD LT PUSH2 0x3015 JUMPI JUMPDEST PUSH1 0x1 ADD PUSH2 0x2FCC JUMP JUMPDEST SWAP1 PUSH2 0x3021 PUSH1 0x1 SWAP2 PUSH2 0x1B92 JUMP JUMPDEST SWAP2 SWAP1 POP PUSH2 0x300D JUMP JUMPDEST POP POP SWAP1 PUSH1 0x15 ADD SSTORE JUMP JUMPDEST DUP1 PUSH1 0x0 MSTORE PUSH1 0x3 PUSH1 0x20 MSTORE PUSH1 0x40 PUSH1 0x0 KECCAK256 PUSH1 0xB DUP2 ADD SWAP1 DUP2 SLOAD PUSH2 0x3050 DUP2 PUSH2 0x1BA1 JUMP JUMPDEST PUSH1 0x0 SWAP2 PUSH1 0x11 DUP5 ADD DUP4 JUMPDEST DUP3 DUP2 LT PUSH2 0x30A5 JUMPI POP POP POP PUSH1 0x0 JUMPDEST DUP3 DUP2 LT PUSH2 0x3087 JUMPI POP POP POP PUSH2 0x3079 DUP2 PUSH2 0x2FC8 JUMP JUMPDEST PUSH1 0x2 DUP3 SLOAD LT PUSH2 0x26C7 JUMPI POP POP POP JUMP JUMPDEST PUSH1 0x1 SWAP1 PUSH2 0x309F PUSH1 0x1 PUSH1 0x1 PUSH1 0xA0 SHL SUB PUSH2 0x276C DUP4 DUP7 PUSH2 0x1B3D JUMP JUMPDEST ADD PUSH2 0x3066 JUMP JUMPDEST DUP1 PUSH2 0x30B2 PUSH1 0x1 SWAP3 DUP10 PUSH2 0x20F9 JUMP JUMPDEST DUP4 DUP1 PUSH1 0xA0 SHL SUB SWAP2 SLOAD SWAP1 PUSH1 0x3 SHL SHR AND PUSH1 0xFF PUSH1 0x40 PUSH1 0x0 DUP6 DUP1 PUSH1 0xA0 SHL SUB DUP5 AND DUP2 MSTORE DUP7 PUSH1 0x20 MSTORE KECCAK256 SLOAD AND ISZERO DUP1 PUSH2 0x30FD JUMPI JUMPDEST PUSH2 0x30EA JUMPI JUMPDEST POP ADD PUSH2 0x3059 JUMP JUMPDEST PUSH2 0x30F6 PUSH2 0x27C4 DUP9 PUSH2 0x1B92 JUMP JUMPDEST MSTORE CODESIZE PUSH2 0x30E3 JUMP JUMPDEST POP PUSH1 0x15 PUSH1 0x40 PUSH1 0x0 DUP6 DUP1 PUSH1 0xA0 SHL SUB DUP5 AND DUP2 MSTORE PUSH1 0xD DUP12 ADD PUSH1 0x20 MSTORE KECCAK256 SLOAD LT PUSH2 0x30DE JUMP JUMPDEST SWAP1 DUP2 PUSH1 0x0 MSTORE PUSH1 0x3 PUSH1 0x20 MSTORE PUSH1 0x40 PUSH1 0x0 KECCAK256 SWAP2 PUSH1 0x2 PUSH1 0x1 DUP5 ADD SSTORE PUSH2 0x4B0 TIMESTAMP ADD DUP1 TIMESTAMP GT PUSH2 0x639 JUMPI DUP1 PUSH1 0x2 DUP6 ADD SSTORE PUSH2 0x314E PUSH2 0x1B1A JUMP JUMPDEST PUSH2 0x3156 PUSH2 0x1B1A JUMP JUMPDEST SWAP5 PUSH1 0x13 DUP2 ADD PUSH1 0x0 JUMPDEST PUSH1 0x15 DUP2 GT ISZERO PUSH2 0x31CC JUMPI POP POP PUSH32 0x36C6D932CB9691BEE381221CC5177BB28FD438AB828D9ED9ED7C3C546CB5D2B4 SWAP4 SWAP5 SWAP6 PUSH2 0x31BE PUSH1 0x5 PUSH2 0x2718 SWAP4 ADD SLOAD SWAP4 PUSH1 0x40 MLOAD SWAP6 DUP7 SWAP6 DUP7 MSTORE PUSH1 0x2 PUSH1 0x20 DUP8 ADD MSTORE PUSH1 0x40 DUP7 ADD MSTORE PUSH1 0xA0 PUSH1 0x60 DUP7 ADD MSTORE PUSH1 0xA0 DUP6 ADD SWAP1 PUSH2 0x1960 JUMP JUMPDEST SWAP1 DUP4 DUP3 SUB PUSH1 0x80 DUP6 ADD MSTORE PUSH2 0x1960 JUMP JUMPDEST DUP1 PUSH2 0x31FD SWAP2 PUSH1 0x0 MSTORE DUP3 PUSH1 0x20 MSTORE PUSH1 0x40 PUSH1 0x0 KECCAK256 SLOAD PUSH2 0x31E8 DUP3 DUP8 PUSH2 0x1B3D JUMP JUMPDEST MSTORE DUP1 PUSH2 0x3202 JUMPI PUSH1 0x8 DUP5 ADD SLOAD PUSH2 0x607 DUP3 DUP12 PUSH2 0x1B3D JUMP JUMPDEST PUSH2 0x315E JUMP JUMPDEST PUSH1 0x15 DUP2 SUB PUSH2 0x3219 JUMPI PUSH1 0x7 DUP5 ADD SLOAD PUSH2 0x607 DUP3 DUP12 PUSH2 0x1B3D JUMP JUMPDEST PUSH1 0x6 DUP5 ADD SLOAD PUSH2 0x607 DUP3 DUP12 PUSH2 0x1B3D JUMP JUMPDEST PUSH1 0x14 SWAP2 SWAP3 DUP1 PUSH1 0x0 MSTORE PUSH1 0x13 DUP3 ADD PUSH1 0x20 MSTORE PUSH1 0x40 PUSH1 0x0 KECCAK256 PUSH2 0x3246 DUP2 SLOAD PUSH2 0x2BCB JUMP JUMPDEST SWAP1 SSTORE PUSH1 0x0 MSTORE ADD PUSH1 0x20 MSTORE PUSH1 0x40 PUSH1 0x0 KECCAK256 PUSH1 0x0 JUMPDEST DUP2 SLOAD DUP1 DUP3 LT ISZERO PUSH2 0x233C JUMPI PUSH2 0x326B DUP3 DUP5 PUSH2 0x20F9 JUMP JUMPDEST SWAP1 SLOAD PUSH1 0x3 SWAP2 SWAP1 SWAP2 SHL SHR PUSH1 0x1 PUSH1 0x1 PUSH1 0xA0 SHL SUB SWAP1 DUP2 AND SWAP1 DUP6 AND EQ PUSH2 0x3290 JUMPI POP PUSH1 0x1 ADD PUSH2 0x3257 JUMP JUMPDEST SWAP1 SWAP3 POP PUSH1 0x0 NOT DUP2 ADD SWAP1 DUP2 GT PUSH2 0x639 JUMPI PUSH2 0x1F25 SWAP3 PUSH2 0x2139 PUSH2 0x2D20 PUSH2 0x2D39 SWAP4 DUP6 PUSH2 0x20F9 JUMP JUMPDEST SWAP1 PUSH1 0x0 JUMPDEST PUSH1 0x18 DUP4 ADD DUP1 SLOAD DUP3 LT ISZERO PUSH2 0x32FA JUMPI DUP2 PUSH2 0x32CE SWAP2 PUSH2 0x20F9 JUMP JUMPDEST SWAP1 SLOAD PUSH1 0x3 SWAP2 SWAP1 SWAP2 SHL SHR PUSH1 0x1 PUSH1 0x1 PUSH1 0xA0 SHL SUB SWAP1 DUP2 AND SWAP1 DUP4 AND EQ PUSH2 0x32F2 JUMPI PUSH1 0x1 ADD PUSH2 0x32B7 JUMP JUMPDEST POP POP POP PUSH1 0x1 SWAP1 JUMP JUMPDEST POP POP POP POP PUSH1 0x0 SWAP1 JUMP JUMPDEST PUSH1 0xB DUP2 ADD SWAP1 DUP2 SLOAD SWAP2 PUSH1 0x2 DUP4 LT DUP1 ISZERO PUSH2 0x3385 JUMPI JUMPDEST PUSH2 0x32F2 JUMPI PUSH1 0x15 PUSH1 0x0 MSTORE PUSH1 0x13 DUP3 ADD PUSH1 0x20 MSTORE PUSH1 0x40 PUSH1 0x0 KECCAK256 SLOAD PUSH1 0x7 DUP4 ADD SLOAD GT ISZERO PUSH2 0x32F2 JUMPI PUSH1 0x0 JUMPDEST DUP4 DUP2 LT PUSH2 0x334A JUMPI POP POP POP POP PUSH1 0x1 SWAP1 JUMP JUMPDEST PUSH1 0x15 PUSH1 0x40 PUSH2 0x3358 DUP4 DUP6 PUSH2 0x20F9 JUMP JUMPDEST SWAP1 SLOAD PUSH1 0x3 SWAP2 SWAP1 SWAP2 SHL SHR PUSH1 0x1 PUSH1 0x1 PUSH1 0xA0 SHL SUB AND PUSH1 0x0 SWAP1 DUP2 MSTORE PUSH1 0xD DUP7 ADD PUSH1 0x20 MSTORE KECCAK256 SLOAD SUB PUSH2 0x32FA JUMPI PUSH1 0x1 ADD PUSH2 0x333A JUMP JUMPDEST POP PUSH1 0x64 PUSH1 0x5 DUP4 ADD SLOAD LT ISZERO PUSH2 0x3316 JUMP INVALID LOG2 PUSH5 0x6970667358 0x22 SLT KECCAK256 0xCB PUSH20 0x564C12F9A1BAA75B947BB6538CFAB6F960498483 0xEA 0xAE MULMOD REVERT DUP3 PUSH14 0x5477EA7364736F6C634300081C00 CALLER "},"methodIdentifiers":{"commitMove(bytes32)":"a9ea37b6","endExpiredGames()":"d0f3a21e","endGame()":"6cbc2ded","gameIdCounter()":"1bb412d6","gameMaster()":"bdf84ae7","getActivePlayers()":"3c4f5a66","getCurrentPhase(uint256)":"572e85ec","getGameInfo(uint256)":"47e1d550","getGameName()":"bbda33d9","getGameState(uint256)":"ffde0c74","getGames()":"c04c5947","getLastMove(uint256,address)":"d7bdf85f","getLevelCapacities(uint256)":"1336e25c","getLevelPopulation(uint256,uint256)":"36c86ede","getLevelPopulations(uint256)":"ab594a21","getPlayerGameId(address)":"773b549d","getPlayerInfo(uint256)":"ea17532e","getPlayerLevel(uint256,address)":"18979f9e","getPlayerNumber(uint256,address)":"3532804d","getPlayers()":"8b5b9ccc","getRoundEndTime(uint256)":"12b19a13","getWinners(uint256)":"6b1426a4","hasPlayerCommitted(uint256,address)":"84cd7d33","hasPlayerRevealed(uint256,address)":"d216b62b","initialize(address[],uint256[])":"7fbbe46f","isPlayerInGame(address)":"574a5b20","owner()":"8da5cb5b","playerGameId(address)":"25b05c88","renounceOwnership()":"715018a6","revealMove(uint256,bytes32)":"7d1ddd34","setGameMaster(address)":"c2e94927","startGames()":"e81de9f5","transferOwnership(address)":"f2fde38b"}}}}}