{"contracts/GameMaster.sol":{"GameMaster":{"abi":[{"inputs":[],"stateMutability":"nonpayable","type":"constructor"},{"inputs":[{"internalType":"address","name":"owner","type":"address"}],"name":"OwnableInvalidOwner","type":"error"},{"inputs":[{"internalType":"address","name":"account","type":"address"}],"name":"OwnableUnauthorizedAccount","type":"error"},{"anonymous":false,"inputs":[{"indexed":false,"internalType":"string","name":"gameName","type":"string"},{"indexed":false,"internalType":"address","name":"gameAddress","type":"address"}],"name":"GameRegistered","type":"event"},{"anonymous":false,"inputs":[],"name":"GameReset","type":"event"},{"anonymous":false,"inputs":[{"indexed":false,"internalType":"string","name":"gameName","type":"string"},{"indexed":false,"internalType":"address","name":"gameAddress","type":"address"},{"indexed":false,"internalType":"uint256","name":"gameId","type":"uint256"}],"name":"GameStarted","type":"event"},{"anonymous":false,"inputs":[{"indexed":true,"internalType":"address","name":"previousOwner","type":"address"},{"indexed":true,"internalType":"address","name":"newOwner","type":"address"}],"name":"OwnershipTransferred","type":"event"},{"anonymous":false,"inputs":[{"indexed":true,"internalType":"address","name":"player","type":"address"},{"indexed":false,"internalType":"uint256","name":"playerNumber","type":"uint256"}],"name":"PlayerEliminated","type":"event"},{"anonymous":false,"inputs":[{"indexed":true,"internalType":"address","name":"player","type":"address"},{"indexed":false,"internalType":"uint256","name":"number","type":"uint256"}],"name":"PlayerNumberAssigned","type":"event"},{"anonymous":false,"inputs":[{"indexed":true,"internalType":"address","name":"player","type":"address"},{"indexed":false,"internalType":"uint256","name":"amount","type":"uint256"}],"name":"PlayerRefunded","type":"event"},{"anonymous":false,"inputs":[{"indexed":true,"internalType":"address","name":"player","type":"address"},{"indexed":false,"internalType":"uint256","name":"playerNumber","type":"uint256"}],"name":"PlayerRegistered","type":"event"},{"anonymous":false,"inputs":[{"indexed":false,"internalType":"address[]","name":"players","type":"address[]"}],"name":"PlayersRegistered","type":"event"},{"anonymous":false,"inputs":[{"indexed":true,"internalType":"address","name":"player","type":"address"},{"indexed":false,"internalType":"uint256","name":"amount","type":"uint256"}],"name":"RefundFailed","type":"event"},{"anonymous":false,"inputs":[],"name":"RegistrationClosed","type":"event"},{"anonymous":false,"inputs":[{"indexed":false,"internalType":"uint256","name":"newFee","type":"uint256"}],"name":"RegistrationFeeChanged","type":"event"},{"inputs":[],"name":"MAX_PLAYERS","outputs":[{"internalType":"uint256","name":"","type":"uint256"}],"stateMutability":"view","type":"function"},{"inputs":[{"internalType":"uint256","name":"","type":"uint256"}],"name":"activePlayers","outputs":[{"internalType":"address","name":"","type":"address"}],"stateMutability":"view","type":"function"},{"inputs":[],"name":"closeRegistration","outputs":[],"stateMutability":"nonpayable","type":"function"},{"inputs":[{"internalType":"uint256","name":"","type":"uint256"}],"name":"eliminatedPlayers","outputs":[{"internalType":"address","name":"","type":"address"}],"stateMutability":"view","type":"function"},{"inputs":[{"internalType":"string","name":"gameName","type":"string"}],"name":"endExpiredGames","outputs":[],"stateMutability":"nonpayable","type":"function"},{"inputs":[{"internalType":"string","name":"gameName","type":"string"}],"name":"endGames","outputs":[{"internalType":"address[]","name":"","type":"address[]"}],"stateMutability":"nonpayable","type":"function"},{"inputs":[{"internalType":"address","name":"","type":"address"}],"name":"finalPlacements","outputs":[{"internalType":"uint256","name":"","type":"uint256"}],"stateMutability":"view","type":"function"},{"inputs":[{"internalType":"string","name":"","type":"string"}],"name":"gameAddresses","outputs":[{"internalType":"address","name":"","type":"address"}],"stateMutability":"view","type":"function"},{"inputs":[],"name":"getActivePlayerCount","outputs":[{"internalType":"uint256","name":"","type":"uint256"}],"stateMutability":"view","type":"function"},{"inputs":[],"name":"getActivePlayers","outputs":[{"internalType":"address[]","name":"","type":"address[]"}],"stateMutability":"view","type":"function"},{"inputs":[],"name":"getActivePlayersAndNumbers","outputs":[{"internalType":"address[]","name":"players","type":"address[]"},{"internalType":"uint256[]","name":"numbers","type":"uint256[]"}],"stateMutability":"view","type":"function"},{"inputs":[],"name":"getEliminatedPlayerCount","outputs":[{"internalType":"uint256","name":"","type":"uint256"}],"stateMutability":"view","type":"function"},{"inputs":[],"name":"getEliminatedPlayers","outputs":[{"internalType":"address[]","name":"","type":"address[]"}],"stateMutability":"view","type":"function"},{"inputs":[],"name":"getGames","outputs":[{"internalType":"string[]","name":"gameTypes","type":"string[]"},{"components":[{"internalType":"uint256","name":"gameId","type":"uint256"},{"internalType":"enum GameState","name":"state","type":"uint8"},{"internalType":"uint256","name":"currentRound","type":"uint256"},{"internalType":"uint256","name":"activePlayerCount","type":"uint256"}],"internalType":"struct GameInstanceInfo[][]","name":"gameInstances","type":"tuple[][]"}],"stateMutability":"view","type":"function"},{"inputs":[],"name":"getPlayerCount","outputs":[{"internalType":"uint256","name":"","type":"uint256"}],"stateMutability":"view","type":"function"},{"inputs":[{"internalType":"address","name":"player","type":"address"}],"name":"getPlayerFinalPlacement","outputs":[{"internalType":"uint256","name":"","type":"uint256"}],"stateMutability":"view","type":"function"},{"inputs":[{"internalType":"address","name":"player","type":"address"}],"name":"getPlayerInfo","outputs":[{"internalType":"string","name":"gameName","type":"string"},{"internalType":"uint256","name":"gameId","type":"uint256"},{"internalType":"bool","name":"isActive","type":"bool"},{"internalType":"enum GameState","name":"gameState","type":"uint8"},{"internalType":"uint256","name":"playerNumber","type":"uint256"}],"stateMutability":"view","type":"function"},{"inputs":[{"internalType":"address","name":"player","type":"address"}],"name":"getPlayerNumber","outputs":[{"internalType":"uint256","name":"","type":"uint256"}],"stateMutability":"view","type":"function"},{"inputs":[],"name":"getRegisteredGames","outputs":[{"internalType":"string[]","name":"","type":"string[]"}],"stateMutability":"view","type":"function"},{"inputs":[],"name":"getRegisteredPlayers","outputs":[{"internalType":"address[]","name":"","type":"address[]"}],"stateMutability":"view","type":"function"},{"inputs":[{"internalType":"string","name":"gameName","type":"string"}],"name":"initializeGame","outputs":[{"internalType":"uint256","name":"","type":"uint256"}],"stateMutability":"nonpayable","type":"function"},{"inputs":[{"internalType":"address","name":"","type":"address"}],"name":"isActivePlayer","outputs":[{"internalType":"bool","name":"","type":"bool"}],"stateMutability":"view","type":"function"},{"inputs":[{"internalType":"string","name":"","type":"string"}],"name":"isGameRegistered","outputs":[{"internalType":"bool","name":"","type":"bool"}],"stateMutability":"view","type":"function"},{"inputs":[{"internalType":"address","name":"","type":"address"}],"name":"isRegistered","outputs":[{"internalType":"bool","name":"","type":"bool"}],"stateMutability":"view","type":"function"},{"inputs":[],"name":"owner","outputs":[{"internalType":"address","name":"","type":"address"}],"stateMutability":"view","type":"function"},{"inputs":[{"internalType":"address","name":"player","type":"address"}],"name":"playerEliminated","outputs":[],"stateMutability":"nonpayable","type":"function"},{"inputs":[{"internalType":"address","name":"","type":"address"}],"name":"playerNumbers","outputs":[{"internalType":"uint256","name":"","type":"uint256"}],"stateMutability":"view","type":"function"},{"inputs":[],"name":"register","outputs":[],"stateMutability":"payable","type":"function"},{"inputs":[{"internalType":"string","name":"gameName","type":"string"},{"internalType":"address","name":"gameAddress","type":"address"}],"name":"registerGame","outputs":[],"stateMutability":"nonpayable","type":"function"},{"inputs":[{"internalType":"address[]","name":"players","type":"address[]"}],"name":"registerPlayersBatch","outputs":[],"stateMutability":"nonpayable","type":"function"},{"inputs":[{"internalType":"uint256","name":"","type":"uint256"}],"name":"registeredGames","outputs":[{"internalType":"string","name":"","type":"string"}],"stateMutability":"view","type":"function"},{"inputs":[{"internalType":"uint256","name":"","type":"uint256"}],"name":"registeredPlayers","outputs":[{"internalType":"address","name":"","type":"address"}],"stateMutability":"view","type":"function"},{"inputs":[],"name":"registrationClosed","outputs":[{"internalType":"bool","name":"","type":"bool"}],"stateMutability":"view","type":"function"},{"inputs":[],"name":"registrationFee","outputs":[{"internalType":"uint256","name":"","type":"uint256"}],"stateMutability":"view","type":"function"},{"inputs":[],"name":"renounceOwnership","outputs":[],"stateMutability":"nonpayable","type":"function"},{"inputs":[],"name":"resetGame","outputs":[],"stateMutability":"nonpayable","type":"function"},{"inputs":[{"internalType":"uint256","name":"_newFee","type":"uint256"}],"name":"setRegistrationFee","outputs":[],"stateMutability":"nonpayable","type":"function"},{"inputs":[{"internalType":"string","name":"gameName","type":"string"}],"name":"startGames","outputs":[{"internalType":"bool","name":"","type":"bool"}],"stateMutability":"nonpayable","type":"function"},{"inputs":[{"internalType":"address","name":"newOwner","type":"address"}],"name":"transferOwnership","outputs":[],"stateMutability":"nonpayable","type":"function"},{"inputs":[],"name":"withdraw","outputs":[{"internalType":"bool","name":"","type":"bool"}],"stateMutability":"nonpayable","type":"function"}],"evm":{"bytecode":{"linkReferences":{},"object":"608080604052346081573315606b5760008054336001600160a01b0319821681178355916001600160a01b03909116907f8be0079c531659141344cd1fd0a4f28419497f9722a3daafe3b4186f6b6457e09080a367016345785d8a000060045561291890816100878239f35b631e4fbdf760e01b600052600060045260246000fd5b600080fdfe6080604052600436101561001257600080fd5b6000803560e01c80631247958e14611e0357806314c44e0914611de55780631a8e251414611d675780631aa3a00814611b6e5780631bc8c8a014611a0c5780632e7ea48a146119dc57806339e160f1146117ea5780633c4f5a66146117bf5780633ccfd60b146116f15780634411b3eb146116d45780634aefbbe7146113b15780634e347f2a1461139357806354a7d9311461135457806355e226c71461132757806359328401146112c757806364328b9c146112355780636a6b2722146111ee5780636e24b939146111505780637125963814611101578063715018a6146110a75780637dc673bc1461105a57806389a5b2291461102f5780638da5cb5b146110085780639e3c5a7214610fa15780639f9a093c14610f7e578063ada4a40114610f2f578063b55f108f14610eeb578063b6e79c5914610e32578063bb47221914610ba7578063c04c5947146108c5578063c07dda4a1461088c578063c2e522061461086e578063c320c727146107d4578063c3c5a54714610795578063d03b547e14610714578063d4e103d514610615578063e03a0288146105dc578063f2fde38b14610556578063fbdb3c74146101f55763fea55dad146101d557600080fd5b346101f257806003193601126101f2576020600854604051908152f35b80fd5b50346101f25760203660031901126101f25761020f612126565b6001600160a01b038116808352600260205260408320549091906102359060ff16612875565b818352600660205260ff60408420541615610511578283600c54905b818110610466575b50501561040d57818352600660205260408320805460ff19169055600854600160401b8110156103f957906102998260016102bd940160085560086122b4565b81546001600160a01b0393841660039290921b91821b9390911b1916919091179055565b6102cc6001546008549061247e565b600181018091116103e55781835260096020526040832055815b600554808210156103de57826102fb8361224d565b905460039190911b1c6001600160a01b03161461031b57506001016102e6565b60001981019081116103ca579061029961033761034f9361224d565b905460039190911b1c6001600160a01b03169161224d565b60055480156103b657600019016103658161224d565b81549060018060a01b039060031b1b191690556005555b80825260076020527f6d23a3ab6e6c4048b5879c5716bb756108e4e5d37158a83ea36761c83627da5760206040842054604051908152a280f35b634e487b7160e01b83526031600452602483fd5b634e487b7160e01b84526011600452602484fd5b505061037c565b634e487b7160e01b83526011600452602483fd5b634e487b7160e01b84526041600452602484fd5b60405162461bcd60e51b815260206004820152602b60248201527f4f6e6c7920726567697374657265642067616d65732063616e20656c696d696e60448201526a61746520706c617965727360a81b6064820152608490fd5b61046f8161227e565b5060405181548892610480826122cc565b91600181169081156104fa57506001146104c6575b5050600a825260208160018060a01b039303019020541633146104ba57600101610251565b50505060013880610259565b9091925088526020882088905b8282106104e65750508101903880610495565b6001816020925484870152019101906104d3565b60ff19168452505080151502810191503880610495565b60405162461bcd60e51b815260206004820152601960248201527f506c6179657220616c726561647920656c696d696e61746564000000000000006044820152606490fd5b50346101f25760203660031901126101f257610570612126565b6105786128b9565b6001600160a01b031680156105c85781546001600160a01b03198116821783556001600160a01b03167f8be0079c531659141344cd1fd0a4f28419497f9722a3daafe3b4186f6b6457e08380a380f35b631e4fbdf760e01b82526004829052602482fd5b50346101f25760203660031901126101f2576020906040906001600160a01b03610604612126565b168152600783522054604051908152f35b50346101f25760203660031901126101f257806004356001600160401b038111610711576106496020913690600401612053565b6106516128b9565b61067160ff604051838582378581858101600b81520301902054166124d1565b80604051928337600a908201908152819003820190205460405163e81de9f560e01b815292839160049183916001600160a01b03165af19081156107065782916106c3575b6020826040519015158152f35b90506020813d6020116106fe575b816106de6020938361213c565b810103126106fa575180151581036106fa5760209150386106b6565b5080fd5b3d91506106d1565b6040513d84823e3d90fd5b50fd5b50346101f25760203660031901126101f257600435906008548210156101f25760085482101561078157600881527ff3f7a9fe364faab93b216da50a3214154f22a0a2b415b23a84c8169e8b636ee39091015460405160039290921b1c6001600160a01b03168152602090f35b634e487b7160e01b81526032600452602490fd5b50346101f25760203660031901126101f25760209060ff906040906001600160a01b036107c0612126565b168152600284522054166040519015158152f35b50346101f25760203660031901126101f2576004356107f16128b9565b8015610829576020817ffd29c2cd5dc77cf2bad34e3b80ec2592a7c16d32869ccaee99f95af250db954a92600455604051908152a180f35b60405162461bcd60e51b815260206004820152601a60248201527f466565206d7573742062652067726561746572207468616e20300000000000006044820152606490fd5b50346101f257806003193601126101f2576020600154604051908152f35b50346101f25760203660031901126101f2576020906040906001600160a01b036108b4612126565b168152600983522054604051908152f35b50346101f257806003193601126101f257600c546108e161252a565b906108eb81612513565b906108f9604051928361213c565b808252601f1961090882612513565b01845b818110610b94575050835b8181106109e1575050610934604051926040845260408401906120cd565b8281036020840152815190818152602081016020808460051b84010194019580925b8484106109635786860387f35b9091929394601f198282030184528751906020808351928381520192019084905b8082106109a35750505060209788019790959460010193019190610956565b9091926020608060019260608751805183526109c585820151868501906121f6565b6040810151604084015201516060820152019401920190610984565b610a0e60206109fb6109f58498969861227e565b50612306565b8160405193828580945193849201612085565b600a90820190815203019020546001600160a01b0316908382610a3a575b506001915001939193610916565b60405163c04c594760e01b815292839060049082905afa8015610b89578490610a7e575b60019250610a6c82886125d1565b52610a7781876125d1565b5083610a2c565b50903d8085833e610a8f818361213c565b810190602081830312610b81578051906001600160401b038211610b85570181601f82011215610b8157805190610ac582612513565b92610ad3604051948561213c565b82845260208085019360071b83010191818311610b7d57602001925b828410610b03575050505090600191610a5e565b608084830312610b7d57604051608081018181106001600160401b03821117610b69576040528451815260208501516005811015610b655791816080936020809401526040870151604082015260608701516060820152815201930192610aef565b8980fd5b634e487b7160e01b8a52604160045260248afd5b8780fd5b8480fd5b8580fd5b6040513d86823e3d90fd5b606060208286018101919091520161090b565b50346101f257806003193601126101f257610bc06128b9565b60ff60035416158015610e27575b15610deb57805b600154811015610c855780610beb600192612299565b838060a01b0391549060031b1c1683808080600454855af1610c0b6124a1565b50610c5257807faf73b0b217208b61be286bbc37095bce7eb8b9ccf617244c2f0f154e8e04e3ff6020600454604051908152a25b8352600960205282604081205501610bd5565b807f48d31f1c958cd44f1f83a52ae2dfaf61e88a1b82c07a6d5711a4abef60b6531e6020600454604051908152a2610c3f565b506001548160015580610db3575b506005548160055580610d7b575b506008548160085580610d43575b5060ff1960035416600355805b600154811015610d1b5780610cd2600192612299565b838060a01b0391549060031b1c1680845260026020526040842060ff19815416905580845260066020526040842060ff1981541690558352600760205282604081205501610cbc565b507fc6976b6410888b44c765590c8368eb4a60e0431d4ad683c8a53ea85a8479f22e8180a180f35b60088252610d75907ff3f7a9fe364faab93b216da50a3214154f22a0a2b415b23a84c8169e8b636ee390810190612606565b38610caf565b60058252610dad907f036b6384b5eca791c62761152d0c79bb0604c104a5fb6f4eb0703f3154bb3db090810190612606565b38610ca1565b60018252610de5907fb10e2d527612073b26eecdfd717e6a320cf44b4afac2b0732d9fcbe2b7fa0cf690810190612606565b38610c93565b60405162461bcd60e51b8152602060048201526014602482015273139bc81c1b185e595c9cc81d1bc81c99599d5b9960621b6044820152606490fd5b506001541515610bce565b50346101f25760203660031901126101f257806004356001600160401b03811161071157610e64903690600401612053565b610e6c6128b9565b610e8d60ff60405183858237602081858101600b81520301902054166124d1565b80604051928337600a9082019081528190036020019020546001600160a01b0316803b1561071157818091600460405180948193636879d10f60e11b83525af1801561070657610eda5750f35b81610ee49161213c565b6101f25780f35b50346101f25760203660031901126101f257600435906005548210156101f2576020610f168361224d565b905460405160039290921b1c6001600160a01b03168152f35b50346101f25760203660031901126101f2576020906040906001600160a01b03610f57612126565b1680825260028452610f6e60ff8484205416612875565b8152600783522054604051908152f35b50346101f257806003193601126101f257602060ff600354166040519015158152f35b50346101f25760203660031901126101f257600435600c548110156106fa57610fc99061227e565b919091610ff457610ff0610fdc83612306565b6040519182916020835260208301906120a8565b0390f35b634e487b7160e01b81526004819052602490fd5b50346101f257806003193601126101f257546040516001600160a01b039091168152602090f35b50346101f25760203660031901126101f257600435906001548210156101f2576020610f1683612299565b50346101f257806003193601126101f2576110736128b9565b600160ff1960035416176003557f2fc209f3df2fb10c5fcb1620d3e5f067b9ef99813ca8fa6b24de0418bdac54208180a180f35b50346101f257806003193601126101f2576110c06128b9565b80546001600160a01b03198116825581906001600160a01b03167f8be0079c531659141344cd1fd0a4f28419497f9722a3daafe3b4186f6b6457e08280a380f35b50346101f25760203660031901126101f2576020906040906001600160a01b03611129612126565b168082526002845261114060ff8484205416612875565b8152600983522054604051908152f35b50346101f257806003193601126101f2576005549061116e8261259f565b91604051916111878361118081612439565b038461213c565b805b8281106111ba576111ac84610ff087604051938493604085526040850190612016565b908382036020850152612219565b6001906001600160a01b036111cf82876125d1565b51168352600760205260408320546111e782886125d1565b5201611189565b50346101f25760206111ff3661218e565b816112136040519283815193849201612085565b600a90820190815281900382019020546040516001600160a01b039091168152f35b50346101f257806003193601126101f25760405160088054808352908352909160208301917ff3f7a9fe364faab93b216da50a3214154f22a0a2b415b23a84c8169e8b636ee3915b8181106112a857610ff0856112948187038261213c565b604051918291602083526020830190612016565b82546001600160a01b031684526020909301926001928301920161127d565b50346101f25760203660031901126101f25761130761131e6112ef6112ea612126565b61261d565b9293949160405196879660a0885260a08801906120a8565b9460208701521515604086015260608501906121f6565b60808301520390f35b50346101f257602060ff61133e826109fb3661218e565b8101600b81520301902054166040519015158152f35b50346101f25760203660031901126101f25760209060ff906040906001600160a01b0361137f612126565b168152600684522054166040519015158152f35b50346101f257806003193601126101f2576020600554604051908152f35b50346101f25760403660031901126101f2576004356001600160401b0381116106fa576113e2903690600401612053565b6024356001600160a01b038116939291908490036116d0576114026128b9565b83156116945760ff60405182848237602081848101600b815203019020541661164f57801561160a5760405181838237602081838101600a815203019020846bffffffffffffffffffffffff60a01b82541617905560405181838237602081838101600b815203019020600160ff19825416179055600c54600160401b8110156103f9578060016114969201600c5561227e565b9490946115f6576001600160401b0382116103f9576114b585546122cc565b601f81116115bb575b508394601f8311600114611539578285967ff7757a7272e50875150e6020afe9040c7c2485f28d0513dad0f5170af4f20d43969161152e575b508360011b906000198560031b1c19161790555b6115226040519384936040855260408501916125e5565b9060208301520390a180f35b9050840135386114f7565b80855260208520601f19841696865b8881106115a35750847ff7757a7272e50875150e6020afe9040c7c2485f28d0513dad0f5170af4f20d43979810611589575b5050600183811b01905561150b565b850135600019600386901b60f8161c19169055388061157a565b9091602060018192858a013581550193019101611548565b6115e69086865260208620601f850160051c810191602086106115ec575b601f0160051c0190612606565b386114be565b90915081906115d9565b634e487b7160e01b84526004849052602484fd5b60405162461bcd60e51b815260206004820152601960248201527f47616d65206e616d652063616e6e6f7420626520656d707479000000000000006044820152606490fd5b60405162461bcd60e51b815260206004820152601760248201527f47616d6520616c726561647920726567697374657265640000000000000000006044820152606490fd5b60405162461bcd60e51b8152602060048201526014602482015273496e76616c69642067616d65206164647265737360601b6044820152606490fd5b8280fd5b50346101f257806003193601126101f25760206040516103e88152f35b50346101f257806003193601126101f25761170a6128b9565b478015611783578154829182918291906001600160a01b03165af161172d6124a1565b501561173e57602060405160018152f35b60405162461bcd60e51b815260206004820152601c60248201527f455448207472616e7366657220746f206f776e6572206661696c6564000000006044820152606490fd5b60405162461bcd60e51b81526020600482015260146024820152734e6f2066756e647320746f20776974686472617760601b6044820152606490fd5b50346101f257806003193601126101f257610ff0604051611294816117e381612439565b038261213c565b50346101f25760203660031901126101f2576004356001600160401b0381116106fa5761181b903690600401612053565b90916118256128b9565b61184660ff60405184868237602081868101600b81520301902054166124d1565b6005549283156119a35760405183828237600a8185019081528190036020019020546001600160a01b03169261187b8561259f565b94835b81811061196c575050833b156116d057826118c99560405180978192637fbbe46f60e01b8352604060048401526118b760448401612439565b83810360031901602485015290612219565b038183885af19485156119615760209561192f575b507f556ae6f2a401959ea3e8f5c4035f8063eff09c11d1565ab4f369920dd9da3b3692936119196040519384936060855260608501916125e5565b90868301528460408301520390a1604051908152f35b9261195b817f556ae6f2a401959ea3e8f5c4035f8063eff09c11d1565ab4f369920dd9da3b369561213c565b926118de565b6040513d85823e3d90fd5b8061197860019261224d565b838060a01b0391549060031b1c1686526007602052604086205461199c828a6125d1565b520161187e565b60405162461bcd60e51b81526020600482015260116024820152704e6f2061637469766520706c617965727360781b6044820152606490fd5b50346101f257806003193601126101f257610ff06119f861252a565b6040519182916020835260208301906120cd565b50346101f25760203660031901126101f257806004356001600160401b03811161071157611a3f82913690600401612053565b611a476128b9565b611a6860ff60405183858237602081858101600b81520301902054166124d1565b80604051928337600a908201908152819003602001902054604051636cbc2ded60e01b815292839160049183916001600160a01b03165af1908115610706578291611ac4575b60405160208082528190610ff090820185612016565b90503d8083833e611ad5818361213c565b8101906020818303126116d0578051906001600160401b038211611b6a57019080601f830112156116d057815192611b0c84612513565b92611b1a604051948561213c565b84845260208085019560051b8201019283116106fa57602001935b828510611b4a57505050610ff0915038611aae565b84516001600160a01b03811681036116d057815260209485019401611b35565b8380fd5b50806003193601126101f257611b8960ff60035416156123aa565b6004543410611d1257338152600260205260ff604082205416611cd8576001543382526007602052806040832055611bc0336123ef565b338252600260205260408220600160ff19825416179055611be033612414565b338252600660205260408220600160ff198254161790556040519081527f324cb0062138d65997c86cd3012489ceb351d602f2f55c7408306e8040c79f3f60203392a26103e86001541015611ca2575b80611c3d6004543461247e565b80611c455750f35b81808092335af1611c546124a1565b5015611c5d5780f35b60405162461bcd60e51b815260206004820152601f60248201527f4661696c656420746f2072657475726e20657863657373207061796d656e74006044820152606490fd5b600160ff1960035416176003557f2fc209f3df2fb10c5fcb1620d3e5f067b9ef99813ca8fa6b24de0418bdac54208180a1611c30565b60405162461bcd60e51b8152602060048201526012602482015271105b1c9958591e481c9959da5cdd195c995960721b6044820152606490fd5b60405162461bcd60e51b815260206004820152602760248201527f4d7573742073656e64206174206c656173742074686520726567697374726174604482015266696f6e2066656560c81b6064820152608490fd5b50346101f257806003193601126101f25760405160018054808352908352909160208301917fb10e2d527612073b26eecdfd717e6a320cf44b4afac2b0732d9fcbe2b7fa0cf6915b818110611dc657610ff0856112948187038261213c565b82546001600160a01b0316845260209093019260019283019201611daf565b50346101f257806003193601126101f2576020600454604051908152f35b50346101f25760203660031901126101f2576004356001600160401b0381116106fa57366023820112156106fa578060040135906001600160401b0382116116d0573660248360051b830101116116d057611e5c6128b9565b611e6b60ff60035416156123aa565b6001548281018091116103ca576103e810611fd157825b82811015611fc157600581901b820160240135906001600160a01b038216808303610b85578015611f8357808652600260205260ff604087205416611f3e577f324cb0062138d65997c86cd3012489ceb351d602f2f55c7408306e8040c79f3f6020600194611f1d865491858b52600784528260408c2055611f03816123ef565b858b526002845260408b20805460ff191689179055612414565b838952600682526040808a20805460ff19168817905551908152a201611e82565b60405162461bcd60e51b815260206004820152601960248201527f506c6179657220616c72656164792072656769737465726564000000000000006044820152606490fd5b60405162461bcd60e51b8152602060048201526016602482015275496e76616c696420706c61796572206164647265737360501b6044820152606490fd5b836103e860015410156110735780f35b60405162461bcd60e51b815260206004820152601c60248201527f576f756c6420657863656564206d6178696d756d20706c6179657273000000006044820152606490fd5b906020808351928381520192019060005b8181106120345750505090565b82516001600160a01b0316845260209384019390920191600101612027565b9181601f84011215612080578235916001600160401b038311612080576020838186019501011161208057565b600080fd5b60005b8381106120985750506000910152565b8181015183820152602001612088565b906020916120c181518092818552858086019101612085565b601f01601f1916010190565b9080602083519182815201916020808360051b8301019401926000915b8383106120f957505050505090565b9091929394602080612117600193601f1986820301875289516120a8565b970193019301919392906120ea565b600435906001600160a01b038216820361208057565b90601f801991011681019081106001600160401b0382111761215d57604052565b634e487b7160e01b600052604160045260246000fd5b6001600160401b03811161215d57601f01601f191660200190565b6020600319820112612080576004356001600160401b0381116120805781602382011215612080578060040135906121c582612173565b926121d3604051948561213c565b828452602483830101116120805781600092602460209301838601378301015290565b9060058210156122035752565b634e487b7160e01b600052602160045260246000fd5b906020808351928381520192019060005b8181106122375750505090565b825184526020938401939092019160010161222a565b60055481101561226857600560005260206000200190600090565b634e487b7160e01b600052603260045260246000fd5b600c5481101561226857600c60005260206000200190600090565b60015481101561226857600160005260206000200190600090565b80548210156122685760005260206000200190600090565b90600182811c921680156122fc575b60208310146122e657565b634e487b7160e01b600052602260045260246000fd5b91607f16916122db565b906040519182600082549261231a846122cc565b80845293600181169081156123885750600114612341575b5061233f9250038361213c565b565b90506000929192526020600020906000915b81831061236c57505090602061233f9282010138612332565b6020919350806001915483858901015201910190918492612353565b90506020925061233f94915060ff191682840152151560051b82010138612332565b156123b157565b60405162461bcd60e51b8152602060048201526016602482015275149959da5cdd1c985d1a5bdb881a5cc818db1bdcd95960521b6044820152606490fd5b60015490600160401b82101561215d5761029982600161233f940160015560016122b4565b60055490600160401b82101561215d5761029982600161233f940160055560056122b4565b6020600554918281520190600560005260206000209060005b81811061245f5750505090565b82546001600160a01b0316845260209093019260019283019201612452565b9190820391821161248b57565b634e487b7160e01b600052601160045260246000fd5b3d156124cc573d906124b282612173565b916124c0604051938461213c565b82523d6000602084013e565b606090565b156124d857565b60405162461bcd60e51b815260206004820152601360248201527211d85b59481b9bdd081c9959da5cdd195c9959606a1b6044820152606490fd5b6001600160401b03811161215d5760051b60200190565b600c549061253782612513565b91612545604051938461213c565b808352600c60009081527fdf6966c971051c3d54ec59162606531493a51404a002842f56009d7e5cf4a8c7602085015b8383106125825750505050565b60016020819261259185612306565b815201920192019190612575565b906125a982612513565b6125b6604051918261213c565b82815280926125c7601f1991612513565b0190602036910137565b80518210156122685760209160051b010190565b908060209392818452848401376000828201840152601f01601f1916010190565b818110612611575050565b60008155600101612606565b6001600160a01b031660008181526002602052604090205490919060ff16156128525781600052600660205260ff6040600020541690826000526007602052604060002054602091604051612672848261213c565b6000808252600c54909687959086805b8481106126955750505050509493929190565b6126a16109f58261227e565b9060405182516126b48183898701612085565b600a90820190815281900386019020546001600160a01b031691826126df575b506001915001612682565b60405163773b549d60e01b815260048101869052908682602481875afa91821561281757600092612823575b5081612718575b506126d4565b60a0602493946040519485809263047e1d5560e41b82528660048301525afa9283156128175760009361277e575b50606083015185811161275d575b50839250612712565b939b50935096509a5090949951600581101561220357976001388080612754565b60a0939193813d821161280f575b8161279960a0938361213c565b810103126106fa576040519160a083018381106001600160401b038211176127fb5760405281519060058210156101f2575090608091835288810151898401526040810151604084015260608101516060840152015160808201529138612746565b634e487b7160e01b82526041600452602482fd5b3d915061278c565b6040513d6000823e3d90fd5b90918782813d831161284b575b61283a818361213c565b810103126101f2575051903861270b565b503d612830565b905060405161286260208261213c565b6000815290600090600090600090600090565b1561287c57565b60405162461bcd60e51b8152602060048201526015602482015274141b185e595c881b9bdd081c9959da5cdd195c9959605a1b6044820152606490fd5b6000546001600160a01b031633036128cd57565b63118cdaa760e01b6000523360045260246000fdfea26469706673582212206d8b659f216910d4fb1f47ffbfc437aaa24ee7d6e0732c958e81c43125d26cbc64736f6c634300081c0033","opcodes":"PUSH1 0x80 DUP1 PUSH1 0x40 MSTORE CALLVALUE PUSH1 0x81 JUMPI CALLER ISZERO PUSH1 0x6B JUMPI PUSH1 0x0 DUP1 SLOAD CALLER PUSH1 0x1 PUSH1 0x1 PUSH1 0xA0 SHL SUB NOT DUP3 AND DUP2 OR DUP4 SSTORE SWAP2 PUSH1 0x1 PUSH1 0x1 PUSH1 0xA0 SHL SUB SWAP1 SWAP2 AND SWAP1 PUSH32 0x8BE0079C531659141344CD1FD0A4F28419497F9722A3DAAFE3B4186F6B6457E0 SWAP1 DUP1 LOG3 PUSH8 0x16345785D8A0000 PUSH1 0x4 SSTORE PUSH2 0x2918 SWAP1 DUP2 PUSH2 0x87 DUP3 CODECOPY RETURN JUMPDEST PUSH4 0x1E4FBDF7 PUSH1 0xE0 SHL PUSH1 0x0 MSTORE PUSH1 0x0 PUSH1 0x4 MSTORE PUSH1 0x24 PUSH1 0x0 REVERT JUMPDEST PUSH1 0x0 DUP1 REVERT INVALID PUSH1 0x80 PUSH1 0x40 MSTORE PUSH1 0x4 CALLDATASIZE LT ISZERO PUSH2 0x12 JUMPI PUSH1 0x0 DUP1 REVERT JUMPDEST PUSH1 0x0 DUP1 CALLDATALOAD PUSH1 0xE0 SHR DUP1 PUSH4 0x1247958E EQ PUSH2 0x1E03 JUMPI DUP1 PUSH4 0x14C44E09 EQ PUSH2 0x1DE5 JUMPI DUP1 PUSH4 0x1A8E2514 EQ PUSH2 0x1D67 JUMPI DUP1 PUSH4 0x1AA3A008 EQ PUSH2 0x1B6E JUMPI DUP1 PUSH4 0x1BC8C8A0 EQ PUSH2 0x1A0C JUMPI DUP1 PUSH4 0x2E7EA48A EQ PUSH2 0x19DC JUMPI DUP1 PUSH4 0x39E160F1 EQ PUSH2 0x17EA JUMPI DUP1 PUSH4 0x3C4F5A66 EQ PUSH2 0x17BF JUMPI DUP1 PUSH4 0x3CCFD60B EQ PUSH2 0x16F1 JUMPI DUP1 PUSH4 0x4411B3EB EQ PUSH2 0x16D4 JUMPI DUP1 PUSH4 0x4AEFBBE7 EQ PUSH2 0x13B1 JUMPI DUP1 PUSH4 0x4E347F2A EQ PUSH2 0x1393 JUMPI DUP1 PUSH4 0x54A7D931 EQ PUSH2 0x1354 JUMPI DUP1 PUSH4 0x55E226C7 EQ PUSH2 0x1327 JUMPI DUP1 PUSH4 0x59328401 EQ PUSH2 0x12C7 JUMPI DUP1 PUSH4 0x64328B9C EQ PUSH2 0x1235 JUMPI DUP1 PUSH4 0x6A6B2722 EQ PUSH2 0x11EE JUMPI DUP1 PUSH4 0x6E24B939 EQ PUSH2 0x1150 JUMPI DUP1 PUSH4 0x71259638 EQ PUSH2 0x1101 JUMPI DUP1 PUSH4 0x715018A6 EQ PUSH2 0x10A7 JUMPI DUP1 PUSH4 0x7DC673BC EQ PUSH2 0x105A JUMPI DUP1 PUSH4 0x89A5B229 EQ PUSH2 0x102F JUMPI DUP1 PUSH4 0x8DA5CB5B EQ PUSH2 0x1008 JUMPI DUP1 PUSH4 0x9E3C5A72 EQ PUSH2 0xFA1 JUMPI DUP1 PUSH4 0x9F9A093C EQ PUSH2 0xF7E JUMPI DUP1 PUSH4 0xADA4A401 EQ PUSH2 0xF2F JUMPI DUP1 PUSH4 0xB55F108F EQ PUSH2 0xEEB JUMPI DUP1 PUSH4 0xB6E79C59 EQ PUSH2 0xE32 JUMPI DUP1 PUSH4 0xBB472219 EQ PUSH2 0xBA7 JUMPI DUP1 PUSH4 0xC04C5947 EQ PUSH2 0x8C5 JUMPI DUP1 PUSH4 0xC07DDA4A EQ PUSH2 0x88C JUMPI DUP1 PUSH4 0xC2E52206 EQ PUSH2 0x86E JUMPI DUP1 PUSH4 0xC320C727 EQ PUSH2 0x7D4 JUMPI DUP1 PUSH4 0xC3C5A547 EQ PUSH2 0x795 JUMPI DUP1 PUSH4 0xD03B547E EQ PUSH2 0x714 JUMPI DUP1 PUSH4 0xD4E103D5 EQ PUSH2 0x615 JUMPI DUP1 PUSH4 0xE03A0288 EQ PUSH2 0x5DC JUMPI DUP1 PUSH4 0xF2FDE38B EQ PUSH2 0x556 JUMPI DUP1 PUSH4 0xFBDB3C74 EQ PUSH2 0x1F5 JUMPI PUSH4 0xFEA55DAD EQ PUSH2 0x1D5 JUMPI PUSH1 0x0 DUP1 REVERT JUMPDEST CALLVALUE PUSH2 0x1F2 JUMPI DUP1 PUSH1 0x3 NOT CALLDATASIZE ADD SLT PUSH2 0x1F2 JUMPI PUSH1 0x20 PUSH1 0x8 SLOAD PUSH1 0x40 MLOAD SWAP1 DUP2 MSTORE RETURN JUMPDEST DUP1 REVERT JUMPDEST POP CALLVALUE PUSH2 0x1F2 JUMPI PUSH1 0x20 CALLDATASIZE PUSH1 0x3 NOT ADD SLT PUSH2 0x1F2 JUMPI PUSH2 0x20F PUSH2 0x2126 JUMP JUMPDEST PUSH1 0x1 PUSH1 0x1 PUSH1 0xA0 SHL SUB DUP2 AND DUP1 DUP4 MSTORE PUSH1 0x2 PUSH1 0x20 MSTORE PUSH1 0x40 DUP4 KECCAK256 SLOAD SWAP1 SWAP2 SWAP1 PUSH2 0x235 SWAP1 PUSH1 0xFF AND PUSH2 0x2875 JUMP JUMPDEST DUP2 DUP4 MSTORE PUSH1 0x6 PUSH1 0x20 MSTORE PUSH1 0xFF PUSH1 0x40 DUP5 KECCAK256 SLOAD AND ISZERO PUSH2 0x511 JUMPI DUP3 DUP4 PUSH1 0xC SLOAD SWAP1 JUMPDEST DUP2 DUP2 LT PUSH2 0x466 JUMPI JUMPDEST POP POP ISZERO PUSH2 0x40D JUMPI DUP2 DUP4 MSTORE PUSH1 0x6 PUSH1 0x20 MSTORE PUSH1 0x40 DUP4 KECCAK256 DUP1 SLOAD PUSH1 0xFF NOT AND SWAP1 SSTORE PUSH1 0x8 SLOAD PUSH1 0x1 PUSH1 0x40 SHL DUP2 LT ISZERO PUSH2 0x3F9 JUMPI SWAP1 PUSH2 0x299 DUP3 PUSH1 0x1 PUSH2 0x2BD SWAP5 ADD PUSH1 0x8 SSTORE PUSH1 0x8 PUSH2 0x22B4 JUMP JUMPDEST DUP2 SLOAD PUSH1 0x1 PUSH1 0x1 PUSH1 0xA0 SHL SUB SWAP4 DUP5 AND PUSH1 0x3 SWAP3 SWAP1 SWAP3 SHL SWAP2 DUP3 SHL SWAP4 SWAP1 SWAP2 SHL NOT AND SWAP2 SWAP1 SWAP2 OR SWAP1 SSTORE JUMP JUMPDEST PUSH2 0x2CC PUSH1 0x1 SLOAD PUSH1 0x8 SLOAD SWAP1 PUSH2 0x247E JUMP JUMPDEST PUSH1 0x1 DUP2 ADD DUP1 SWAP2 GT PUSH2 0x3E5 JUMPI DUP2 DUP4 MSTORE PUSH1 0x9 PUSH1 0x20 MSTORE PUSH1 0x40 DUP4 KECCAK256 SSTORE DUP2 JUMPDEST PUSH1 0x5 SLOAD DUP1 DUP3 LT ISZERO PUSH2 0x3DE JUMPI DUP3 PUSH2 0x2FB DUP4 PUSH2 0x224D JUMP JUMPDEST SWAP1 SLOAD PUSH1 0x3 SWAP2 SWAP1 SWAP2 SHL SHR PUSH1 0x1 PUSH1 0x1 PUSH1 0xA0 SHL SUB AND EQ PUSH2 0x31B JUMPI POP PUSH1 0x1 ADD PUSH2 0x2E6 JUMP JUMPDEST PUSH1 0x0 NOT DUP2 ADD SWAP1 DUP2 GT PUSH2 0x3CA JUMPI SWAP1 PUSH2 0x299 PUSH2 0x337 PUSH2 0x34F SWAP4 PUSH2 0x224D JUMP JUMPDEST SWAP1 SLOAD PUSH1 0x3 SWAP2 SWAP1 SWAP2 SHL SHR PUSH1 0x1 PUSH1 0x1 PUSH1 0xA0 SHL SUB AND SWAP2 PUSH2 0x224D JUMP JUMPDEST PUSH1 0x5 SLOAD DUP1 ISZERO PUSH2 0x3B6 JUMPI PUSH1 0x0 NOT ADD PUSH2 0x365 DUP2 PUSH2 0x224D JUMP JUMPDEST DUP2 SLOAD SWAP1 PUSH1 0x1 DUP1 PUSH1 0xA0 SHL SUB SWAP1 PUSH1 0x3 SHL SHL NOT AND SWAP1 SSTORE PUSH1 0x5 SSTORE JUMPDEST DUP1 DUP3 MSTORE PUSH1 0x7 PUSH1 0x20 MSTORE PUSH32 0x6D23A3AB6E6C4048B5879C5716BB756108E4E5D37158A83EA36761C83627DA57 PUSH1 0x20 PUSH1 0x40 DUP5 KECCAK256 SLOAD PUSH1 0x40 MLOAD SWAP1 DUP2 MSTORE LOG2 DUP1 RETURN JUMPDEST PUSH4 0x4E487B71 PUSH1 0xE0 SHL DUP4 MSTORE PUSH1 0x31 PUSH1 0x4 MSTORE PUSH1 0x24 DUP4 REVERT JUMPDEST PUSH4 0x4E487B71 PUSH1 0xE0 SHL DUP5 MSTORE PUSH1 0x11 PUSH1 0x4 MSTORE PUSH1 0x24 DUP5 REVERT JUMPDEST POP POP PUSH2 0x37C JUMP JUMPDEST PUSH4 0x4E487B71 PUSH1 0xE0 SHL DUP4 MSTORE PUSH1 0x11 PUSH1 0x4 MSTORE PUSH1 0x24 DUP4 REVERT JUMPDEST PUSH4 0x4E487B71 PUSH1 0xE0 SHL DUP5 MSTORE PUSH1 0x41 PUSH1 0x4 MSTORE PUSH1 0x24 DUP5 REVERT JUMPDEST PUSH1 0x40 MLOAD PUSH3 0x461BCD PUSH1 0xE5 SHL DUP2 MSTORE PUSH1 0x20 PUSH1 0x4 DUP3 ADD MSTORE PUSH1 0x2B PUSH1 0x24 DUP3 ADD MSTORE PUSH32 0x4F6E6C7920726567697374657265642067616D65732063616E20656C696D696E PUSH1 0x44 DUP3 ADD MSTORE PUSH11 0x61746520706C6179657273 PUSH1 0xA8 SHL PUSH1 0x64 DUP3 ADD MSTORE PUSH1 0x84 SWAP1 REVERT JUMPDEST PUSH2 0x46F DUP2 PUSH2 0x227E JUMP JUMPDEST POP PUSH1 0x40 MLOAD DUP2 SLOAD DUP9 SWAP3 PUSH2 0x480 DUP3 PUSH2 0x22CC JUMP JUMPDEST SWAP2 PUSH1 0x1 DUP2 AND SWAP1 DUP2 ISZERO PUSH2 0x4FA JUMPI POP PUSH1 0x1 EQ PUSH2 0x4C6 JUMPI JUMPDEST POP POP PUSH1 0xA DUP3 MSTORE PUSH1 0x20 DUP2 PUSH1 0x1 DUP1 PUSH1 0xA0 SHL SUB SWAP4 SUB ADD SWAP1 KECCAK256 SLOAD AND CALLER EQ PUSH2 0x4BA JUMPI PUSH1 0x1 ADD PUSH2 0x251 JUMP JUMPDEST POP POP POP PUSH1 0x1 CODESIZE DUP1 PUSH2 0x259 JUMP JUMPDEST SWAP1 SWAP2 SWAP3 POP DUP9 MSTORE PUSH1 0x20 DUP9 KECCAK256 DUP9 SWAP1 JUMPDEST DUP3 DUP3 LT PUSH2 0x4E6 JUMPI POP POP DUP2 ADD SWAP1 CODESIZE DUP1 PUSH2 0x495 JUMP JUMPDEST PUSH1 0x1 DUP2 PUSH1 0x20 SWAP3 SLOAD DUP5 DUP8 ADD MSTORE ADD SWAP2 ADD SWAP1 PUSH2 0x4D3 JUMP JUMPDEST PUSH1 0xFF NOT AND DUP5 MSTORE POP POP DUP1 ISZERO ISZERO MUL DUP2 ADD SWAP2 POP CODESIZE DUP1 PUSH2 0x495 JUMP JUMPDEST PUSH1 0x40 MLOAD PUSH3 0x461BCD PUSH1 0xE5 SHL DUP2 MSTORE PUSH1 0x20 PUSH1 0x4 DUP3 ADD MSTORE PUSH1 0x19 PUSH1 0x24 DUP3 ADD MSTORE PUSH32 0x506C6179657220616C726561647920656C696D696E6174656400000000000000 PUSH1 0x44 DUP3 ADD MSTORE PUSH1 0x64 SWAP1 REVERT JUMPDEST POP CALLVALUE PUSH2 0x1F2 JUMPI PUSH1 0x20 CALLDATASIZE PUSH1 0x3 NOT ADD SLT PUSH2 0x1F2 JUMPI PUSH2 0x570 PUSH2 0x2126 JUMP JUMPDEST PUSH2 0x578 PUSH2 0x28B9 JUMP JUMPDEST PUSH1 0x1 PUSH1 0x1 PUSH1 0xA0 SHL SUB AND DUP1 ISZERO PUSH2 0x5C8 JUMPI DUP2 SLOAD PUSH1 0x1 PUSH1 0x1 PUSH1 0xA0 SHL SUB NOT DUP2 AND DUP3 OR DUP4 SSTORE PUSH1 0x1 PUSH1 0x1 PUSH1 0xA0 SHL SUB AND PUSH32 0x8BE0079C531659141344CD1FD0A4F28419497F9722A3DAAFE3B4186F6B6457E0 DUP4 DUP1 LOG3 DUP1 RETURN JUMPDEST PUSH4 0x1E4FBDF7 PUSH1 0xE0 SHL DUP3 MSTORE PUSH1 0x4 DUP3 SWAP1 MSTORE PUSH1 0x24 DUP3 REVERT JUMPDEST POP CALLVALUE PUSH2 0x1F2 JUMPI PUSH1 0x20 CALLDATASIZE PUSH1 0x3 NOT ADD SLT PUSH2 0x1F2 JUMPI PUSH1 0x20 SWAP1 PUSH1 0x40 SWAP1 PUSH1 0x1 PUSH1 0x1 PUSH1 0xA0 SHL SUB PUSH2 0x604 PUSH2 0x2126 JUMP JUMPDEST AND DUP2 MSTORE PUSH1 0x7 DUP4 MSTORE KECCAK256 SLOAD PUSH1 0x40 MLOAD SWAP1 DUP2 MSTORE RETURN JUMPDEST POP CALLVALUE PUSH2 0x1F2 JUMPI PUSH1 0x20 CALLDATASIZE PUSH1 0x3 NOT ADD SLT PUSH2 0x1F2 JUMPI DUP1 PUSH1 0x4 CALLDATALOAD PUSH1 0x1 PUSH1 0x1 PUSH1 0x40 SHL SUB DUP2 GT PUSH2 0x711 JUMPI PUSH2 0x649 PUSH1 0x20 SWAP2 CALLDATASIZE SWAP1 PUSH1 0x4 ADD PUSH2 0x2053 JUMP JUMPDEST PUSH2 0x651 PUSH2 0x28B9 JUMP JUMPDEST PUSH2 0x671 PUSH1 0xFF PUSH1 0x40 MLOAD DUP4 DUP6 DUP3 CALLDATACOPY DUP6 DUP2 DUP6 DUP2 ADD PUSH1 0xB DUP2 MSTORE SUB ADD SWAP1 KECCAK256 SLOAD AND PUSH2 0x24D1 JUMP JUMPDEST DUP1 PUSH1 0x40 MLOAD SWAP3 DUP4 CALLDATACOPY PUSH1 0xA SWAP1 DUP3 ADD SWAP1 DUP2 MSTORE DUP2 SWAP1 SUB DUP3 ADD SWAP1 KECCAK256 SLOAD PUSH1 0x40 MLOAD PUSH4 0xE81DE9F5 PUSH1 0xE0 SHL DUP2 MSTORE SWAP3 DUP4 SWAP2 PUSH1 0x4 SWAP2 DUP4 SWAP2 PUSH1 0x1 PUSH1 0x1 PUSH1 0xA0 SHL SUB AND GAS CALL SWAP1 DUP2 ISZERO PUSH2 0x706 JUMPI DUP3 SWAP2 PUSH2 0x6C3 JUMPI JUMPDEST PUSH1 0x20 DUP3 PUSH1 0x40 MLOAD SWAP1 ISZERO ISZERO DUP2 MSTORE RETURN JUMPDEST SWAP1 POP PUSH1 0x20 DUP2 RETURNDATASIZE PUSH1 0x20 GT PUSH2 0x6FE JUMPI JUMPDEST DUP2 PUSH2 0x6DE PUSH1 0x20 SWAP4 DUP4 PUSH2 0x213C JUMP JUMPDEST DUP2 ADD SUB SLT PUSH2 0x6FA JUMPI MLOAD DUP1 ISZERO ISZERO DUP2 SUB PUSH2 0x6FA JUMPI PUSH1 0x20 SWAP2 POP CODESIZE PUSH2 0x6B6 JUMP JUMPDEST POP DUP1 REVERT JUMPDEST RETURNDATASIZE SWAP2 POP PUSH2 0x6D1 JUMP JUMPDEST PUSH1 0x40 MLOAD RETURNDATASIZE DUP5 DUP3 RETURNDATACOPY RETURNDATASIZE SWAP1 REVERT JUMPDEST POP REVERT JUMPDEST POP CALLVALUE PUSH2 0x1F2 JUMPI PUSH1 0x20 CALLDATASIZE PUSH1 0x3 NOT ADD SLT PUSH2 0x1F2 JUMPI PUSH1 0x4 CALLDATALOAD SWAP1 PUSH1 0x8 SLOAD DUP3 LT ISZERO PUSH2 0x1F2 JUMPI PUSH1 0x8 SLOAD DUP3 LT ISZERO PUSH2 0x781 JUMPI PUSH1 0x8 DUP2 MSTORE PUSH32 0xF3F7A9FE364FAAB93B216DA50A3214154F22A0A2B415B23A84C8169E8B636EE3 SWAP1 SWAP2 ADD SLOAD PUSH1 0x40 MLOAD PUSH1 0x3 SWAP3 SWAP1 SWAP3 SHL SHR PUSH1 0x1 PUSH1 0x1 PUSH1 0xA0 SHL SUB AND DUP2 MSTORE PUSH1 0x20 SWAP1 RETURN JUMPDEST PUSH4 0x4E487B71 PUSH1 0xE0 SHL DUP2 MSTORE PUSH1 0x32 PUSH1 0x4 MSTORE PUSH1 0x24 SWAP1 REVERT JUMPDEST POP CALLVALUE PUSH2 0x1F2 JUMPI PUSH1 0x20 CALLDATASIZE PUSH1 0x3 NOT ADD SLT PUSH2 0x1F2 JUMPI PUSH1 0x20 SWAP1 PUSH1 0xFF SWAP1 PUSH1 0x40 SWAP1 PUSH1 0x1 PUSH1 0x1 PUSH1 0xA0 SHL SUB PUSH2 0x7C0 PUSH2 0x2126 JUMP JUMPDEST AND DUP2 MSTORE PUSH1 0x2 DUP5 MSTORE KECCAK256 SLOAD AND PUSH1 0x40 MLOAD SWAP1 ISZERO ISZERO DUP2 MSTORE RETURN JUMPDEST POP CALLVALUE PUSH2 0x1F2 JUMPI PUSH1 0x20 CALLDATASIZE PUSH1 0x3 NOT ADD SLT PUSH2 0x1F2 JUMPI PUSH1 0x4 CALLDATALOAD PUSH2 0x7F1 PUSH2 0x28B9 JUMP JUMPDEST DUP1 ISZERO PUSH2 0x829 JUMPI PUSH1 0x20 DUP2 PUSH32 0xFD29C2CD5DC77CF2BAD34E3B80EC2592A7C16D32869CCAEE99F95AF250DB954A SWAP3 PUSH1 0x4 SSTORE PUSH1 0x40 MLOAD SWAP1 DUP2 MSTORE LOG1 DUP1 RETURN JUMPDEST PUSH1 0x40 MLOAD PUSH3 0x461BCD PUSH1 0xE5 SHL DUP2 MSTORE PUSH1 0x20 PUSH1 0x4 DUP3 ADD MSTORE PUSH1 0x1A PUSH1 0x24 DUP3 ADD MSTORE PUSH32 0x466565206D7573742062652067726561746572207468616E2030000000000000 PUSH1 0x44 DUP3 ADD MSTORE PUSH1 0x64 SWAP1 REVERT JUMPDEST POP CALLVALUE PUSH2 0x1F2 JUMPI DUP1 PUSH1 0x3 NOT CALLDATASIZE ADD SLT PUSH2 0x1F2 JUMPI PUSH1 0x20 PUSH1 0x1 SLOAD PUSH1 0x40 MLOAD SWAP1 DUP2 MSTORE RETURN JUMPDEST POP CALLVALUE PUSH2 0x1F2 JUMPI PUSH1 0x20 CALLDATASIZE PUSH1 0x3 NOT ADD SLT PUSH2 0x1F2 JUMPI PUSH1 0x20 SWAP1 PUSH1 0x40 SWAP1 PUSH1 0x1 PUSH1 0x1 PUSH1 0xA0 SHL SUB PUSH2 0x8B4 PUSH2 0x2126 JUMP JUMPDEST AND DUP2 MSTORE PUSH1 0x9 DUP4 MSTORE KECCAK256 SLOAD PUSH1 0x40 MLOAD SWAP1 DUP2 MSTORE RETURN JUMPDEST POP CALLVALUE PUSH2 0x1F2 JUMPI DUP1 PUSH1 0x3 NOT CALLDATASIZE ADD SLT PUSH2 0x1F2 JUMPI PUSH1 0xC SLOAD PUSH2 0x8E1 PUSH2 0x252A JUMP JUMPDEST SWAP1 PUSH2 0x8EB DUP2 PUSH2 0x2513 JUMP JUMPDEST SWAP1 PUSH2 0x8F9 PUSH1 0x40 MLOAD SWAP3 DUP4 PUSH2 0x213C JUMP JUMPDEST DUP1 DUP3 MSTORE PUSH1 0x1F NOT PUSH2 0x908 DUP3 PUSH2 0x2513 JUMP JUMPDEST ADD DUP5 JUMPDEST DUP2 DUP2 LT PUSH2 0xB94 JUMPI POP POP DUP4 JUMPDEST DUP2 DUP2 LT PUSH2 0x9E1 JUMPI POP POP PUSH2 0x934 PUSH1 0x40 MLOAD SWAP3 PUSH1 0x40 DUP5 MSTORE PUSH1 0x40 DUP5 ADD SWAP1 PUSH2 0x20CD JUMP JUMPDEST DUP3 DUP2 SUB PUSH1 0x20 DUP5 ADD MSTORE DUP2 MLOAD SWAP1 DUP2 DUP2 MSTORE PUSH1 0x20 DUP2 ADD PUSH1 0x20 DUP1 DUP5 PUSH1 0x5 SHL DUP5 ADD ADD SWAP5 ADD SWAP6 DUP1 SWAP3 JUMPDEST DUP5 DUP5 LT PUSH2 0x963 JUMPI DUP7 DUP7 SUB DUP8 RETURN JUMPDEST SWAP1 SWAP2 SWAP3 SWAP4 SWAP5 PUSH1 0x1F NOT DUP3 DUP3 SUB ADD DUP5 MSTORE DUP8 MLOAD SWAP1 PUSH1 0x20 DUP1 DUP4 MLOAD SWAP3 DUP4 DUP2 MSTORE ADD SWAP3 ADD SWAP1 DUP5 SWAP1 JUMPDEST DUP1 DUP3 LT PUSH2 0x9A3 JUMPI POP POP POP PUSH1 0x20 SWAP8 DUP9 ADD SWAP8 SWAP1 SWAP6 SWAP5 PUSH1 0x1 ADD SWAP4 ADD SWAP2 SWAP1 PUSH2 0x956 JUMP JUMPDEST SWAP1 SWAP2 SWAP3 PUSH1 0x20 PUSH1 0x80 PUSH1 0x1 SWAP3 PUSH1 0x60 DUP8 MLOAD DUP1 MLOAD DUP4 MSTORE PUSH2 0x9C5 DUP6 DUP3 ADD MLOAD DUP7 DUP6 ADD SWAP1 PUSH2 0x21F6 JUMP JUMPDEST PUSH1 0x40 DUP2 ADD MLOAD PUSH1 0x40 DUP5 ADD MSTORE ADD MLOAD PUSH1 0x60 DUP3 ADD MSTORE ADD SWAP5 ADD SWAP3 ADD SWAP1 PUSH2 0x984 JUMP JUMPDEST PUSH2 0xA0E PUSH1 0x20 PUSH2 0x9FB PUSH2 0x9F5 DUP5 SWAP9 SWAP7 SWAP9 PUSH2 0x227E JUMP JUMPDEST POP PUSH2 0x2306 JUMP JUMPDEST DUP2 PUSH1 0x40 MLOAD SWAP4 DUP3 DUP6 DUP1 SWAP5 MLOAD SWAP4 DUP5 SWAP3 ADD PUSH2 0x2085 JUMP JUMPDEST PUSH1 0xA SWAP1 DUP3 ADD SWAP1 DUP2 MSTORE SUB ADD SWAP1 KECCAK256 SLOAD PUSH1 0x1 PUSH1 0x1 PUSH1 0xA0 SHL SUB AND SWAP1 DUP4 DUP3 PUSH2 0xA3A JUMPI JUMPDEST POP PUSH1 0x1 SWAP2 POP ADD SWAP4 SWAP2 SWAP4 PUSH2 0x916 JUMP JUMPDEST PUSH1 0x40 MLOAD PUSH4 0xC04C5947 PUSH1 0xE0 SHL DUP2 MSTORE SWAP3 DUP4 SWAP1 PUSH1 0x4 SWAP1 DUP3 SWAP1 GAS STATICCALL DUP1 ISZERO PUSH2 0xB89 JUMPI DUP5 SWAP1 PUSH2 0xA7E JUMPI JUMPDEST PUSH1 0x1 SWAP3 POP PUSH2 0xA6C DUP3 DUP9 PUSH2 0x25D1 JUMP JUMPDEST MSTORE PUSH2 0xA77 DUP2 DUP8 PUSH2 0x25D1 JUMP JUMPDEST POP DUP4 PUSH2 0xA2C JUMP JUMPDEST POP SWAP1 RETURNDATASIZE DUP1 DUP6 DUP4 RETURNDATACOPY PUSH2 0xA8F DUP2 DUP4 PUSH2 0x213C JUMP JUMPDEST DUP2 ADD SWAP1 PUSH1 0x20 DUP2 DUP4 SUB SLT PUSH2 0xB81 JUMPI DUP1 MLOAD SWAP1 PUSH1 0x1 PUSH1 0x1 PUSH1 0x40 SHL SUB DUP3 GT PUSH2 0xB85 JUMPI ADD DUP2 PUSH1 0x1F DUP3 ADD SLT ISZERO PUSH2 0xB81 JUMPI DUP1 MLOAD SWAP1 PUSH2 0xAC5 DUP3 PUSH2 0x2513 JUMP JUMPDEST SWAP3 PUSH2 0xAD3 PUSH1 0x40 MLOAD SWAP5 DUP6 PUSH2 0x213C JUMP JUMPDEST DUP3 DUP5 MSTORE PUSH1 0x20 DUP1 DUP6 ADD SWAP4 PUSH1 0x7 SHL DUP4 ADD ADD SWAP2 DUP2 DUP4 GT PUSH2 0xB7D JUMPI PUSH1 0x20 ADD SWAP3 JUMPDEST DUP3 DUP5 LT PUSH2 0xB03 JUMPI POP POP POP POP SWAP1 PUSH1 0x1 SWAP2 PUSH2 0xA5E JUMP JUMPDEST PUSH1 0x80 DUP5 DUP4 SUB SLT PUSH2 0xB7D JUMPI PUSH1 0x40 MLOAD PUSH1 0x80 DUP2 ADD DUP2 DUP2 LT PUSH1 0x1 PUSH1 0x1 PUSH1 0x40 SHL SUB DUP3 GT OR PUSH2 0xB69 JUMPI PUSH1 0x40 MSTORE DUP5 MLOAD DUP2 MSTORE PUSH1 0x20 DUP6 ADD MLOAD PUSH1 0x5 DUP2 LT ISZERO PUSH2 0xB65 JUMPI SWAP2 DUP2 PUSH1 0x80 SWAP4 PUSH1 0x20 DUP1 SWAP5 ADD MSTORE PUSH1 0x40 DUP8 ADD MLOAD PUSH1 0x40 DUP3 ADD MSTORE PUSH1 0x60 DUP8 ADD MLOAD PUSH1 0x60 DUP3 ADD MSTORE DUP2 MSTORE ADD SWAP4 ADD SWAP3 PUSH2 0xAEF JUMP JUMPDEST DUP10 DUP1 REVERT JUMPDEST PUSH4 0x4E487B71 PUSH1 0xE0 SHL DUP11 MSTORE PUSH1 0x41 PUSH1 0x4 MSTORE PUSH1 0x24 DUP11 REVERT JUMPDEST DUP8 DUP1 REVERT JUMPDEST DUP5 DUP1 REVERT JUMPDEST DUP6 DUP1 REVERT JUMPDEST PUSH1 0x40 MLOAD RETURNDATASIZE DUP7 DUP3 RETURNDATACOPY RETURNDATASIZE SWAP1 REVERT JUMPDEST PUSH1 0x60 PUSH1 0x20 DUP3 DUP7 ADD DUP2 ADD SWAP2 SWAP1 SWAP2 MSTORE ADD PUSH2 0x90B JUMP JUMPDEST POP CALLVALUE PUSH2 0x1F2 JUMPI DUP1 PUSH1 0x3 NOT CALLDATASIZE ADD SLT PUSH2 0x1F2 JUMPI PUSH2 0xBC0 PUSH2 0x28B9 JUMP JUMPDEST PUSH1 0xFF PUSH1 0x3 SLOAD AND ISZERO DUP1 ISZERO PUSH2 0xE27 JUMPI JUMPDEST ISZERO PUSH2 0xDEB JUMPI DUP1 JUMPDEST PUSH1 0x1 SLOAD DUP2 LT ISZERO PUSH2 0xC85 JUMPI DUP1 PUSH2 0xBEB PUSH1 0x1 SWAP3 PUSH2 0x2299 JUMP JUMPDEST DUP4 DUP1 PUSH1 0xA0 SHL SUB SWAP2 SLOAD SWAP1 PUSH1 0x3 SHL SHR AND DUP4 DUP1 DUP1 DUP1 PUSH1 0x4 SLOAD DUP6 GAS CALL PUSH2 0xC0B PUSH2 0x24A1 JUMP JUMPDEST POP PUSH2 0xC52 JUMPI DUP1 PUSH32 0xAF73B0B217208B61BE286BBC37095BCE7EB8B9CCF617244C2F0F154E8E04E3FF PUSH1 0x20 PUSH1 0x4 SLOAD PUSH1 0x40 MLOAD SWAP1 DUP2 MSTORE LOG2 JUMPDEST DUP4 MSTORE PUSH1 0x9 PUSH1 0x20 MSTORE DUP3 PUSH1 0x40 DUP2 KECCAK256 SSTORE ADD PUSH2 0xBD5 JUMP JUMPDEST DUP1 PUSH32 0x48D31F1C958CD44F1F83A52AE2DFAF61E88A1B82C07A6D5711A4ABEF60B6531E PUSH1 0x20 PUSH1 0x4 SLOAD PUSH1 0x40 MLOAD SWAP1 DUP2 MSTORE LOG2 PUSH2 0xC3F JUMP JUMPDEST POP PUSH1 0x1 SLOAD DUP2 PUSH1 0x1 SSTORE DUP1 PUSH2 0xDB3 JUMPI JUMPDEST POP PUSH1 0x5 SLOAD DUP2 PUSH1 0x5 SSTORE DUP1 PUSH2 0xD7B JUMPI JUMPDEST POP PUSH1 0x8 SLOAD DUP2 PUSH1 0x8 SSTORE DUP1 PUSH2 0xD43 JUMPI JUMPDEST POP PUSH1 0xFF NOT PUSH1 0x3 SLOAD AND PUSH1 0x3 SSTORE DUP1 JUMPDEST PUSH1 0x1 SLOAD DUP2 LT ISZERO PUSH2 0xD1B JUMPI DUP1 PUSH2 0xCD2 PUSH1 0x1 SWAP3 PUSH2 0x2299 JUMP JUMPDEST DUP4 DUP1 PUSH1 0xA0 SHL SUB SWAP2 SLOAD SWAP1 PUSH1 0x3 SHL SHR AND DUP1 DUP5 MSTORE PUSH1 0x2 PUSH1 0x20 MSTORE PUSH1 0x40 DUP5 KECCAK256 PUSH1 0xFF NOT DUP2 SLOAD AND SWAP1 SSTORE DUP1 DUP5 MSTORE PUSH1 0x6 PUSH1 0x20 MSTORE PUSH1 0x40 DUP5 KECCAK256 PUSH1 0xFF NOT DUP2 SLOAD AND SWAP1 SSTORE DUP4 MSTORE PUSH1 0x7 PUSH1 0x20 MSTORE DUP3 PUSH1 0x40 DUP2 KECCAK256 SSTORE ADD PUSH2 0xCBC JUMP JUMPDEST POP PUSH32 0xC6976B6410888B44C765590C8368EB4A60E0431D4AD683C8A53EA85A8479F22E DUP2 DUP1 LOG1 DUP1 RETURN JUMPDEST PUSH1 0x8 DUP3 MSTORE PUSH2 0xD75 SWAP1 PUSH32 0xF3F7A9FE364FAAB93B216DA50A3214154F22A0A2B415B23A84C8169E8B636EE3 SWAP1 DUP2 ADD SWAP1 PUSH2 0x2606 JUMP JUMPDEST CODESIZE PUSH2 0xCAF JUMP JUMPDEST PUSH1 0x5 DUP3 MSTORE PUSH2 0xDAD SWAP1 PUSH32 0x36B6384B5ECA791C62761152D0C79BB0604C104A5FB6F4EB0703F3154BB3DB0 SWAP1 DUP2 ADD SWAP1 PUSH2 0x2606 JUMP JUMPDEST CODESIZE PUSH2 0xCA1 JUMP JUMPDEST PUSH1 0x1 DUP3 MSTORE PUSH2 0xDE5 SWAP1 PUSH32 0xB10E2D527612073B26EECDFD717E6A320CF44B4AFAC2B0732D9FCBE2B7FA0CF6 SWAP1 DUP2 ADD SWAP1 PUSH2 0x2606 JUMP JUMPDEST CODESIZE PUSH2 0xC93 JUMP JUMPDEST PUSH1 0x40 MLOAD PUSH3 0x461BCD PUSH1 0xE5 SHL DUP2 MSTORE PUSH1 0x20 PUSH1 0x4 DUP3 ADD MSTORE PUSH1 0x14 PUSH1 0x24 DUP3 ADD MSTORE PUSH20 0x139BC81C1B185E595C9CC81D1BC81C99599D5B99 PUSH1 0x62 SHL PUSH1 0x44 DUP3 ADD MSTORE PUSH1 0x64 SWAP1 REVERT JUMPDEST POP PUSH1 0x1 SLOAD ISZERO ISZERO PUSH2 0xBCE JUMP JUMPDEST POP CALLVALUE PUSH2 0x1F2 JUMPI PUSH1 0x20 CALLDATASIZE PUSH1 0x3 NOT ADD SLT PUSH2 0x1F2 JUMPI DUP1 PUSH1 0x4 CALLDATALOAD PUSH1 0x1 PUSH1 0x1 PUSH1 0x40 SHL SUB DUP2 GT PUSH2 0x711 JUMPI PUSH2 0xE64 SWAP1 CALLDATASIZE SWAP1 PUSH1 0x4 ADD PUSH2 0x2053 JUMP JUMPDEST PUSH2 0xE6C PUSH2 0x28B9 JUMP JUMPDEST PUSH2 0xE8D PUSH1 0xFF PUSH1 0x40 MLOAD DUP4 DUP6 DUP3 CALLDATACOPY PUSH1 0x20 DUP2 DUP6 DUP2 ADD PUSH1 0xB DUP2 MSTORE SUB ADD SWAP1 KECCAK256 SLOAD AND PUSH2 0x24D1 JUMP JUMPDEST DUP1 PUSH1 0x40 MLOAD SWAP3 DUP4 CALLDATACOPY PUSH1 0xA SWAP1 DUP3 ADD SWAP1 DUP2 MSTORE DUP2 SWAP1 SUB PUSH1 0x20 ADD SWAP1 KECCAK256 SLOAD PUSH1 0x1 PUSH1 0x1 PUSH1 0xA0 SHL SUB AND DUP1 EXTCODESIZE ISZERO PUSH2 0x711 JUMPI DUP2 DUP1 SWAP2 PUSH1 0x4 PUSH1 0x40 MLOAD DUP1 SWAP5 DUP2 SWAP4 PUSH4 0x6879D10F PUSH1 0xE1 SHL DUP4 MSTORE GAS CALL DUP1 ISZERO PUSH2 0x706 JUMPI PUSH2 0xEDA JUMPI POP RETURN JUMPDEST DUP2 PUSH2 0xEE4 SWAP2 PUSH2 0x213C JUMP JUMPDEST PUSH2 0x1F2 JUMPI DUP1 RETURN JUMPDEST POP CALLVALUE PUSH2 0x1F2 JUMPI PUSH1 0x20 CALLDATASIZE PUSH1 0x3 NOT ADD SLT PUSH2 0x1F2 JUMPI PUSH1 0x4 CALLDATALOAD SWAP1 PUSH1 0x5 SLOAD DUP3 LT ISZERO PUSH2 0x1F2 JUMPI PUSH1 0x20 PUSH2 0xF16 DUP4 PUSH2 0x224D JUMP JUMPDEST SWAP1 SLOAD PUSH1 0x40 MLOAD PUSH1 0x3 SWAP3 SWAP1 SWAP3 SHL SHR PUSH1 0x1 PUSH1 0x1 PUSH1 0xA0 SHL SUB AND DUP2 MSTORE RETURN JUMPDEST POP CALLVALUE PUSH2 0x1F2 JUMPI PUSH1 0x20 CALLDATASIZE PUSH1 0x3 NOT ADD SLT PUSH2 0x1F2 JUMPI PUSH1 0x20 SWAP1 PUSH1 0x40 SWAP1 PUSH1 0x1 PUSH1 0x1 PUSH1 0xA0 SHL SUB PUSH2 0xF57 PUSH2 0x2126 JUMP JUMPDEST AND DUP1 DUP3 MSTORE PUSH1 0x2 DUP5 MSTORE PUSH2 0xF6E PUSH1 0xFF DUP5 DUP5 KECCAK256 SLOAD AND PUSH2 0x2875 JUMP JUMPDEST DUP2 MSTORE PUSH1 0x7 DUP4 MSTORE KECCAK256 SLOAD PUSH1 0x40 MLOAD SWAP1 DUP2 MSTORE RETURN JUMPDEST POP CALLVALUE PUSH2 0x1F2 JUMPI DUP1 PUSH1 0x3 NOT CALLDATASIZE ADD SLT PUSH2 0x1F2 JUMPI PUSH1 0x20 PUSH1 0xFF PUSH1 0x3 SLOAD AND PUSH1 0x40 MLOAD SWAP1 ISZERO ISZERO DUP2 MSTORE RETURN JUMPDEST POP CALLVALUE PUSH2 0x1F2 JUMPI PUSH1 0x20 CALLDATASIZE PUSH1 0x3 NOT ADD SLT PUSH2 0x1F2 JUMPI PUSH1 0x4 CALLDATALOAD PUSH1 0xC SLOAD DUP2 LT ISZERO PUSH2 0x6FA JUMPI PUSH2 0xFC9 SWAP1 PUSH2 0x227E JUMP JUMPDEST SWAP2 SWAP1 SWAP2 PUSH2 0xFF4 JUMPI PUSH2 0xFF0 PUSH2 0xFDC DUP4 PUSH2 0x2306 JUMP JUMPDEST PUSH1 0x40 MLOAD SWAP2 DUP3 SWAP2 PUSH1 0x20 DUP4 MSTORE PUSH1 0x20 DUP4 ADD SWAP1 PUSH2 0x20A8 JUMP JUMPDEST SUB SWAP1 RETURN JUMPDEST PUSH4 0x4E487B71 PUSH1 0xE0 SHL DUP2 MSTORE PUSH1 0x4 DUP2 SWAP1 MSTORE PUSH1 0x24 SWAP1 REVERT JUMPDEST POP CALLVALUE PUSH2 0x1F2 JUMPI DUP1 PUSH1 0x3 NOT CALLDATASIZE ADD SLT PUSH2 0x1F2 JUMPI SLOAD PUSH1 0x40 MLOAD PUSH1 0x1 PUSH1 0x1 PUSH1 0xA0 SHL SUB SWAP1 SWAP2 AND DUP2 MSTORE PUSH1 0x20 SWAP1 RETURN JUMPDEST POP CALLVALUE PUSH2 0x1F2 JUMPI PUSH1 0x20 CALLDATASIZE PUSH1 0x3 NOT ADD SLT PUSH2 0x1F2 JUMPI PUSH1 0x4 CALLDATALOAD SWAP1 PUSH1 0x1 SLOAD DUP3 LT ISZERO PUSH2 0x1F2 JUMPI PUSH1 0x20 PUSH2 0xF16 DUP4 PUSH2 0x2299 JUMP JUMPDEST POP CALLVALUE PUSH2 0x1F2 JUMPI DUP1 PUSH1 0x3 NOT CALLDATASIZE ADD SLT PUSH2 0x1F2 JUMPI PUSH2 0x1073 PUSH2 0x28B9 JUMP JUMPDEST PUSH1 0x1 PUSH1 0xFF NOT PUSH1 0x3 SLOAD AND OR PUSH1 0x3 SSTORE PUSH32 0x2FC209F3DF2FB10C5FCB1620D3E5F067B9EF99813CA8FA6B24DE0418BDAC5420 DUP2 DUP1 LOG1 DUP1 RETURN JUMPDEST POP CALLVALUE PUSH2 0x1F2 JUMPI DUP1 PUSH1 0x3 NOT CALLDATASIZE ADD SLT PUSH2 0x1F2 JUMPI PUSH2 0x10C0 PUSH2 0x28B9 JUMP JUMPDEST DUP1 SLOAD PUSH1 0x1 PUSH1 0x1 PUSH1 0xA0 SHL SUB NOT DUP2 AND DUP3 SSTORE DUP2 SWAP1 PUSH1 0x1 PUSH1 0x1 PUSH1 0xA0 SHL SUB AND PUSH32 0x8BE0079C531659141344CD1FD0A4F28419497F9722A3DAAFE3B4186F6B6457E0 DUP3 DUP1 LOG3 DUP1 RETURN JUMPDEST POP CALLVALUE PUSH2 0x1F2 JUMPI PUSH1 0x20 CALLDATASIZE PUSH1 0x3 NOT ADD SLT PUSH2 0x1F2 JUMPI PUSH1 0x20 SWAP1 PUSH1 0x40 SWAP1 PUSH1 0x1 PUSH1 0x1 PUSH1 0xA0 SHL SUB PUSH2 0x1129 PUSH2 0x2126 JUMP JUMPDEST AND DUP1 DUP3 MSTORE PUSH1 0x2 DUP5 MSTORE PUSH2 0x1140 PUSH1 0xFF DUP5 DUP5 KECCAK256 SLOAD AND PUSH2 0x2875 JUMP JUMPDEST DUP2 MSTORE PUSH1 0x9 DUP4 MSTORE KECCAK256 SLOAD PUSH1 0x40 MLOAD SWAP1 DUP2 MSTORE RETURN JUMPDEST POP CALLVALUE PUSH2 0x1F2 JUMPI DUP1 PUSH1 0x3 NOT CALLDATASIZE ADD SLT PUSH2 0x1F2 JUMPI PUSH1 0x5 SLOAD SWAP1 PUSH2 0x116E DUP3 PUSH2 0x259F JUMP JUMPDEST SWAP2 PUSH1 0x40 MLOAD SWAP2 PUSH2 0x1187 DUP4 PUSH2 0x1180 DUP2 PUSH2 0x2439 JUMP JUMPDEST SUB DUP5 PUSH2 0x213C JUMP JUMPDEST DUP1 JUMPDEST DUP3 DUP2 LT PUSH2 0x11BA JUMPI PUSH2 0x11AC DUP5 PUSH2 0xFF0 DUP8 PUSH1 0x40 MLOAD SWAP4 DUP5 SWAP4 PUSH1 0x40 DUP6 MSTORE PUSH1 0x40 DUP6 ADD SWAP1 PUSH2 0x2016 JUMP JUMPDEST SWAP1 DUP4 DUP3 SUB PUSH1 0x20 DUP6 ADD MSTORE PUSH2 0x2219 JUMP JUMPDEST PUSH1 0x1 SWAP1 PUSH1 0x1 PUSH1 0x1 PUSH1 0xA0 SHL SUB PUSH2 0x11CF DUP3 DUP8 PUSH2 0x25D1 JUMP JUMPDEST MLOAD AND DUP4 MSTORE PUSH1 0x7 PUSH1 0x20 MSTORE PUSH1 0x40 DUP4 KECCAK256 SLOAD PUSH2 0x11E7 DUP3 DUP9 PUSH2 0x25D1 JUMP JUMPDEST MSTORE ADD PUSH2 0x1189 JUMP JUMPDEST POP CALLVALUE PUSH2 0x1F2 JUMPI PUSH1 0x20 PUSH2 0x11FF CALLDATASIZE PUSH2 0x218E JUMP JUMPDEST DUP2 PUSH2 0x1213 PUSH1 0x40 MLOAD SWAP3 DUP4 DUP2 MLOAD SWAP4 DUP5 SWAP3 ADD PUSH2 0x2085 JUMP JUMPDEST PUSH1 0xA SWAP1 DUP3 ADD SWAP1 DUP2 MSTORE DUP2 SWAP1 SUB DUP3 ADD SWAP1 KECCAK256 SLOAD PUSH1 0x40 MLOAD PUSH1 0x1 PUSH1 0x1 PUSH1 0xA0 SHL SUB SWAP1 SWAP2 AND DUP2 MSTORE RETURN JUMPDEST POP CALLVALUE PUSH2 0x1F2 JUMPI DUP1 PUSH1 0x3 NOT CALLDATASIZE ADD SLT PUSH2 0x1F2 JUMPI PUSH1 0x40 MLOAD PUSH1 0x8 DUP1 SLOAD DUP1 DUP4 MSTORE SWAP1 DUP4 MSTORE SWAP1 SWAP2 PUSH1 0x20 DUP4 ADD SWAP2 PUSH32 0xF3F7A9FE364FAAB93B216DA50A3214154F22A0A2B415B23A84C8169E8B636EE3 SWAP2 JUMPDEST DUP2 DUP2 LT PUSH2 0x12A8 JUMPI PUSH2 0xFF0 DUP6 PUSH2 0x1294 DUP2 DUP8 SUB DUP3 PUSH2 0x213C JUMP JUMPDEST PUSH1 0x40 MLOAD SWAP2 DUP3 SWAP2 PUSH1 0x20 DUP4 MSTORE PUSH1 0x20 DUP4 ADD SWAP1 PUSH2 0x2016 JUMP JUMPDEST DUP3 SLOAD PUSH1 0x1 PUSH1 0x1 PUSH1 0xA0 SHL SUB AND DUP5 MSTORE PUSH1 0x20 SWAP1 SWAP4 ADD SWAP3 PUSH1 0x1 SWAP3 DUP4 ADD SWAP3 ADD PUSH2 0x127D JUMP JUMPDEST POP CALLVALUE PUSH2 0x1F2 JUMPI PUSH1 0x20 CALLDATASIZE PUSH1 0x3 NOT ADD SLT PUSH2 0x1F2 JUMPI PUSH2 0x1307 PUSH2 0x131E PUSH2 0x12EF PUSH2 0x12EA PUSH2 0x2126 JUMP JUMPDEST PUSH2 0x261D JUMP JUMPDEST SWAP3 SWAP4 SWAP5 SWAP2 PUSH1 0x40 MLOAD SWAP7 DUP8 SWAP7 PUSH1 0xA0 DUP9 MSTORE PUSH1 0xA0 DUP9 ADD SWAP1 PUSH2 0x20A8 JUMP JUMPDEST SWAP5 PUSH1 0x20 DUP8 ADD MSTORE ISZERO ISZERO PUSH1 0x40 DUP7 ADD MSTORE PUSH1 0x60 DUP6 ADD SWAP1 PUSH2 0x21F6 JUMP JUMPDEST PUSH1 0x80 DUP4 ADD MSTORE SUB SWAP1 RETURN JUMPDEST POP CALLVALUE PUSH2 0x1F2 JUMPI PUSH1 0x20 PUSH1 0xFF PUSH2 0x133E DUP3 PUSH2 0x9FB CALLDATASIZE PUSH2 0x218E JUMP JUMPDEST DUP2 ADD PUSH1 0xB DUP2 MSTORE SUB ADD SWAP1 KECCAK256 SLOAD AND PUSH1 0x40 MLOAD SWAP1 ISZERO ISZERO DUP2 MSTORE RETURN JUMPDEST POP CALLVALUE PUSH2 0x1F2 JUMPI PUSH1 0x20 CALLDATASIZE PUSH1 0x3 NOT ADD SLT PUSH2 0x1F2 JUMPI PUSH1 0x20 SWAP1 PUSH1 0xFF SWAP1 PUSH1 0x40 SWAP1 PUSH1 0x1 PUSH1 0x1 PUSH1 0xA0 SHL SUB PUSH2 0x137F PUSH2 0x2126 JUMP JUMPDEST AND DUP2 MSTORE PUSH1 0x6 DUP5 MSTORE KECCAK256 SLOAD AND PUSH1 0x40 MLOAD SWAP1 ISZERO ISZERO DUP2 MSTORE RETURN JUMPDEST POP CALLVALUE PUSH2 0x1F2 JUMPI DUP1 PUSH1 0x3 NOT CALLDATASIZE ADD SLT PUSH2 0x1F2 JUMPI PUSH1 0x20 PUSH1 0x5 SLOAD PUSH1 0x40 MLOAD SWAP1 DUP2 MSTORE RETURN JUMPDEST POP CALLVALUE PUSH2 0x1F2 JUMPI PUSH1 0x40 CALLDATASIZE PUSH1 0x3 NOT ADD SLT PUSH2 0x1F2 JUMPI PUSH1 0x4 CALLDATALOAD PUSH1 0x1 PUSH1 0x1 PUSH1 0x40 SHL SUB DUP2 GT PUSH2 0x6FA JUMPI PUSH2 0x13E2 SWAP1 CALLDATASIZE SWAP1 PUSH1 0x4 ADD PUSH2 0x2053 JUMP JUMPDEST PUSH1 0x24 CALLDATALOAD PUSH1 0x1 PUSH1 0x1 PUSH1 0xA0 SHL SUB DUP2 AND SWAP4 SWAP3 SWAP2 SWAP1 DUP5 SWAP1 SUB PUSH2 0x16D0 JUMPI PUSH2 0x1402 PUSH2 0x28B9 JUMP JUMPDEST DUP4 ISZERO PUSH2 0x1694 JUMPI PUSH1 0xFF PUSH1 0x40 MLOAD DUP3 DUP5 DUP3 CALLDATACOPY PUSH1 0x20 DUP2 DUP5 DUP2 ADD PUSH1 0xB DUP2 MSTORE SUB ADD SWAP1 KECCAK256 SLOAD AND PUSH2 0x164F JUMPI DUP1 ISZERO PUSH2 0x160A JUMPI PUSH1 0x40 MLOAD DUP2 DUP4 DUP3 CALLDATACOPY PUSH1 0x20 DUP2 DUP4 DUP2 ADD PUSH1 0xA DUP2 MSTORE SUB ADD SWAP1 KECCAK256 DUP5 PUSH12 0xFFFFFFFFFFFFFFFFFFFFFFFF PUSH1 0xA0 SHL DUP3 SLOAD AND OR SWAP1 SSTORE PUSH1 0x40 MLOAD DUP2 DUP4 DUP3 CALLDATACOPY PUSH1 0x20 DUP2 DUP4 DUP2 ADD PUSH1 0xB DUP2 MSTORE SUB ADD SWAP1 KECCAK256 PUSH1 0x1 PUSH1 0xFF NOT DUP3 SLOAD AND OR SWAP1 SSTORE PUSH1 0xC SLOAD PUSH1 0x1 PUSH1 0x40 SHL DUP2 LT ISZERO PUSH2 0x3F9 JUMPI DUP1 PUSH1 0x1 PUSH2 0x1496 SWAP3 ADD PUSH1 0xC SSTORE PUSH2 0x227E JUMP JUMPDEST SWAP5 SWAP1 SWAP5 PUSH2 0x15F6 JUMPI PUSH1 0x1 PUSH1 0x1 PUSH1 0x40 SHL SUB DUP3 GT PUSH2 0x3F9 JUMPI PUSH2 0x14B5 DUP6 SLOAD PUSH2 0x22CC JUMP JUMPDEST PUSH1 0x1F DUP2 GT PUSH2 0x15BB JUMPI JUMPDEST POP DUP4 SWAP5 PUSH1 0x1F DUP4 GT PUSH1 0x1 EQ PUSH2 0x1539 JUMPI DUP3 DUP6 SWAP7 PUSH32 0xF7757A7272E50875150E6020AFE9040C7C2485F28D0513DAD0F5170AF4F20D43 SWAP7 SWAP2 PUSH2 0x152E JUMPI JUMPDEST POP DUP4 PUSH1 0x1 SHL SWAP1 PUSH1 0x0 NOT DUP6 PUSH1 0x3 SHL SHR NOT AND OR SWAP1 SSTORE JUMPDEST PUSH2 0x1522 PUSH1 0x40 MLOAD SWAP4 DUP5 SWAP4 PUSH1 0x40 DUP6 MSTORE PUSH1 0x40 DUP6 ADD SWAP2 PUSH2 0x25E5 JUMP JUMPDEST SWAP1 PUSH1 0x20 DUP4 ADD MSTORE SUB SWAP1 LOG1 DUP1 RETURN JUMPDEST SWAP1 POP DUP5 ADD CALLDATALOAD CODESIZE PUSH2 0x14F7 JUMP JUMPDEST DUP1 DUP6 MSTORE PUSH1 0x20 DUP6 KECCAK256 PUSH1 0x1F NOT DUP5 AND SWAP7 DUP7 JUMPDEST DUP9 DUP2 LT PUSH2 0x15A3 JUMPI POP DUP5 PUSH32 0xF7757A7272E50875150E6020AFE9040C7C2485F28D0513DAD0F5170AF4F20D43 SWAP8 SWAP9 LT PUSH2 0x1589 JUMPI JUMPDEST POP POP PUSH1 0x1 DUP4 DUP2 SHL ADD SWAP1 SSTORE PUSH2 0x150B JUMP JUMPDEST DUP6 ADD CALLDATALOAD PUSH1 0x0 NOT PUSH1 0x3 DUP7 SWAP1 SHL PUSH1 0xF8 AND SHR NOT AND SWAP1 SSTORE CODESIZE DUP1 PUSH2 0x157A JUMP JUMPDEST SWAP1 SWAP2 PUSH1 0x20 PUSH1 0x1 DUP2 SWAP3 DUP6 DUP11 ADD CALLDATALOAD DUP2 SSTORE ADD SWAP4 ADD SWAP2 ADD PUSH2 0x1548 JUMP JUMPDEST PUSH2 0x15E6 SWAP1 DUP7 DUP7 MSTORE PUSH1 0x20 DUP7 KECCAK256 PUSH1 0x1F DUP6 ADD PUSH1 0x5 SHR DUP2 ADD SWAP2 PUSH1 0x20 DUP7 LT PUSH2 0x15EC JUMPI JUMPDEST PUSH1 0x1F ADD PUSH1 0x5 SHR ADD SWAP1 PUSH2 0x2606 JUMP JUMPDEST CODESIZE PUSH2 0x14BE JUMP JUMPDEST SWAP1 SWAP2 POP DUP2 SWAP1 PUSH2 0x15D9 JUMP JUMPDEST PUSH4 0x4E487B71 PUSH1 0xE0 SHL DUP5 MSTORE PUSH1 0x4 DUP5 SWAP1 MSTORE PUSH1 0x24 DUP5 REVERT JUMPDEST PUSH1 0x40 MLOAD PUSH3 0x461BCD PUSH1 0xE5 SHL DUP2 MSTORE PUSH1 0x20 PUSH1 0x4 DUP3 ADD MSTORE PUSH1 0x19 PUSH1 0x24 DUP3 ADD MSTORE PUSH32 0x47616D65206E616D652063616E6E6F7420626520656D70747900000000000000 PUSH1 0x44 DUP3 ADD MSTORE PUSH1 0x64 SWAP1 REVERT JUMPDEST PUSH1 0x40 MLOAD PUSH3 0x461BCD PUSH1 0xE5 SHL DUP2 MSTORE PUSH1 0x20 PUSH1 0x4 DUP3 ADD MSTORE PUSH1 0x17 PUSH1 0x24 DUP3 ADD MSTORE PUSH32 0x47616D6520616C72656164792072656769737465726564000000000000000000 PUSH1 0x44 DUP3 ADD MSTORE PUSH1 0x64 SWAP1 REVERT JUMPDEST PUSH1 0x40 MLOAD PUSH3 0x461BCD PUSH1 0xE5 SHL DUP2 MSTORE PUSH1 0x20 PUSH1 0x4 DUP3 ADD MSTORE PUSH1 0x14 PUSH1 0x24 DUP3 ADD MSTORE PUSH20 0x496E76616C69642067616D652061646472657373 PUSH1 0x60 SHL PUSH1 0x44 DUP3 ADD MSTORE PUSH1 0x64 SWAP1 REVERT JUMPDEST DUP3 DUP1 REVERT JUMPDEST POP CALLVALUE PUSH2 0x1F2 JUMPI DUP1 PUSH1 0x3 NOT CALLDATASIZE ADD SLT PUSH2 0x1F2 JUMPI PUSH1 0x20 PUSH1 0x40 MLOAD PUSH2 0x3E8 DUP2 MSTORE RETURN JUMPDEST POP CALLVALUE PUSH2 0x1F2 JUMPI DUP1 PUSH1 0x3 NOT CALLDATASIZE ADD SLT PUSH2 0x1F2 JUMPI PUSH2 0x170A PUSH2 0x28B9 JUMP JUMPDEST SELFBALANCE DUP1 ISZERO PUSH2 0x1783 JUMPI DUP2 SLOAD DUP3 SWAP2 DUP3 SWAP2 DUP3 SWAP2 SWAP1 PUSH1 0x1 PUSH1 0x1 PUSH1 0xA0 SHL SUB AND GAS CALL PUSH2 0x172D PUSH2 0x24A1 JUMP JUMPDEST POP ISZERO PUSH2 0x173E JUMPI PUSH1 0x20 PUSH1 0x40 MLOAD PUSH1 0x1 DUP2 MSTORE RETURN JUMPDEST PUSH1 0x40 MLOAD PUSH3 0x461BCD PUSH1 0xE5 SHL DUP2 MSTORE PUSH1 0x20 PUSH1 0x4 DUP3 ADD MSTORE PUSH1 0x1C PUSH1 0x24 DUP3 ADD MSTORE PUSH32 0x455448207472616E7366657220746F206F776E6572206661696C656400000000 PUSH1 0x44 DUP3 ADD MSTORE PUSH1 0x64 SWAP1 REVERT JUMPDEST PUSH1 0x40 MLOAD PUSH3 0x461BCD PUSH1 0xE5 SHL DUP2 MSTORE PUSH1 0x20 PUSH1 0x4 DUP3 ADD MSTORE PUSH1 0x14 PUSH1 0x24 DUP3 ADD MSTORE PUSH20 0x4E6F2066756E647320746F207769746864726177 PUSH1 0x60 SHL PUSH1 0x44 DUP3 ADD MSTORE PUSH1 0x64 SWAP1 REVERT JUMPDEST POP CALLVALUE PUSH2 0x1F2 JUMPI DUP1 PUSH1 0x3 NOT CALLDATASIZE ADD SLT PUSH2 0x1F2 JUMPI PUSH2 0xFF0 PUSH1 0x40 MLOAD PUSH2 0x1294 DUP2 PUSH2 0x17E3 DUP2 PUSH2 0x2439 JUMP JUMPDEST SUB DUP3 PUSH2 0x213C JUMP JUMPDEST POP CALLVALUE PUSH2 0x1F2 JUMPI PUSH1 0x20 CALLDATASIZE PUSH1 0x3 NOT ADD SLT PUSH2 0x1F2 JUMPI PUSH1 0x4 CALLDATALOAD PUSH1 0x1 PUSH1 0x1 PUSH1 0x40 SHL SUB DUP2 GT PUSH2 0x6FA JUMPI PUSH2 0x181B SWAP1 CALLDATASIZE SWAP1 PUSH1 0x4 ADD PUSH2 0x2053 JUMP JUMPDEST SWAP1 SWAP2 PUSH2 0x1825 PUSH2 0x28B9 JUMP JUMPDEST PUSH2 0x1846 PUSH1 0xFF PUSH1 0x40 MLOAD DUP5 DUP7 DUP3 CALLDATACOPY PUSH1 0x20 DUP2 DUP7 DUP2 ADD PUSH1 0xB DUP2 MSTORE SUB ADD SWAP1 KECCAK256 SLOAD AND PUSH2 0x24D1 JUMP JUMPDEST PUSH1 0x5 SLOAD SWAP3 DUP4 ISZERO PUSH2 0x19A3 JUMPI PUSH1 0x40 MLOAD DUP4 DUP3 DUP3 CALLDATACOPY PUSH1 0xA DUP2 DUP6 ADD SWAP1 DUP2 MSTORE DUP2 SWAP1 SUB PUSH1 0x20 ADD SWAP1 KECCAK256 SLOAD PUSH1 0x1 PUSH1 0x1 PUSH1 0xA0 SHL SUB AND SWAP3 PUSH2 0x187B DUP6 PUSH2 0x259F JUMP JUMPDEST SWAP5 DUP4 JUMPDEST DUP2 DUP2 LT PUSH2 0x196C JUMPI POP POP DUP4 EXTCODESIZE ISZERO PUSH2 0x16D0 JUMPI DUP3 PUSH2 0x18C9 SWAP6 PUSH1 0x40 MLOAD DUP1 SWAP8 DUP2 SWAP3 PUSH4 0x7FBBE46F PUSH1 0xE0 SHL DUP4 MSTORE PUSH1 0x40 PUSH1 0x4 DUP5 ADD MSTORE PUSH2 0x18B7 PUSH1 0x44 DUP5 ADD PUSH2 0x2439 JUMP JUMPDEST DUP4 DUP2 SUB PUSH1 0x3 NOT ADD PUSH1 0x24 DUP6 ADD MSTORE SWAP1 PUSH2 0x2219 JUMP JUMPDEST SUB DUP2 DUP4 DUP9 GAS CALL SWAP5 DUP6 ISZERO PUSH2 0x1961 JUMPI PUSH1 0x20 SWAP6 PUSH2 0x192F JUMPI JUMPDEST POP PUSH32 0x556AE6F2A401959EA3E8F5C4035F8063EFF09C11D1565AB4F369920DD9DA3B36 SWAP3 SWAP4 PUSH2 0x1919 PUSH1 0x40 MLOAD SWAP4 DUP5 SWAP4 PUSH1 0x60 DUP6 MSTORE PUSH1 0x60 DUP6 ADD SWAP2 PUSH2 0x25E5 JUMP JUMPDEST SWAP1 DUP7 DUP4 ADD MSTORE DUP5 PUSH1 0x40 DUP4 ADD MSTORE SUB SWAP1 LOG1 PUSH1 0x40 MLOAD SWAP1 DUP2 MSTORE RETURN JUMPDEST SWAP3 PUSH2 0x195B DUP2 PUSH32 0x556AE6F2A401959EA3E8F5C4035F8063EFF09C11D1565AB4F369920DD9DA3B36 SWAP6 PUSH2 0x213C JUMP JUMPDEST SWAP3 PUSH2 0x18DE JUMP JUMPDEST PUSH1 0x40 MLOAD RETURNDATASIZE DUP6 DUP3 RETURNDATACOPY RETURNDATASIZE SWAP1 REVERT JUMPDEST DUP1 PUSH2 0x1978 PUSH1 0x1 SWAP3 PUSH2 0x224D JUMP JUMPDEST DUP4 DUP1 PUSH1 0xA0 SHL SUB SWAP2 SLOAD SWAP1 PUSH1 0x3 SHL SHR AND DUP7 MSTORE PUSH1 0x7 PUSH1 0x20 MSTORE PUSH1 0x40 DUP7 KECCAK256 SLOAD PUSH2 0x199C DUP3 DUP11 PUSH2 0x25D1 JUMP JUMPDEST MSTORE ADD PUSH2 0x187E JUMP JUMPDEST PUSH1 0x40 MLOAD PUSH3 0x461BCD PUSH1 0xE5 SHL DUP2 MSTORE PUSH1 0x20 PUSH1 0x4 DUP3 ADD MSTORE PUSH1 0x11 PUSH1 0x24 DUP3 ADD MSTORE PUSH17 0x4E6F2061637469766520706C6179657273 PUSH1 0x78 SHL PUSH1 0x44 DUP3 ADD MSTORE PUSH1 0x64 SWAP1 REVERT JUMPDEST POP CALLVALUE PUSH2 0x1F2 JUMPI DUP1 PUSH1 0x3 NOT CALLDATASIZE ADD SLT PUSH2 0x1F2 JUMPI PUSH2 0xFF0 PUSH2 0x19F8 PUSH2 0x252A JUMP JUMPDEST PUSH1 0x40 MLOAD SWAP2 DUP3 SWAP2 PUSH1 0x20 DUP4 MSTORE PUSH1 0x20 DUP4 ADD SWAP1 PUSH2 0x20CD JUMP JUMPDEST POP CALLVALUE PUSH2 0x1F2 JUMPI PUSH1 0x20 CALLDATASIZE PUSH1 0x3 NOT ADD SLT PUSH2 0x1F2 JUMPI DUP1 PUSH1 0x4 CALLDATALOAD PUSH1 0x1 PUSH1 0x1 PUSH1 0x40 SHL SUB DUP2 GT PUSH2 0x711 JUMPI PUSH2 0x1A3F DUP3 SWAP2 CALLDATASIZE SWAP1 PUSH1 0x4 ADD PUSH2 0x2053 JUMP JUMPDEST PUSH2 0x1A47 PUSH2 0x28B9 JUMP JUMPDEST PUSH2 0x1A68 PUSH1 0xFF PUSH1 0x40 MLOAD DUP4 DUP6 DUP3 CALLDATACOPY PUSH1 0x20 DUP2 DUP6 DUP2 ADD PUSH1 0xB DUP2 MSTORE SUB ADD SWAP1 KECCAK256 SLOAD AND PUSH2 0x24D1 JUMP JUMPDEST DUP1 PUSH1 0x40 MLOAD SWAP3 DUP4 CALLDATACOPY PUSH1 0xA SWAP1 DUP3 ADD SWAP1 DUP2 MSTORE DUP2 SWAP1 SUB PUSH1 0x20 ADD SWAP1 KECCAK256 SLOAD PUSH1 0x40 MLOAD PUSH4 0x6CBC2DED PUSH1 0xE0 SHL DUP2 MSTORE SWAP3 DUP4 SWAP2 PUSH1 0x4 SWAP2 DUP4 SWAP2 PUSH1 0x1 PUSH1 0x1 PUSH1 0xA0 SHL SUB AND GAS CALL SWAP1 DUP2 ISZERO PUSH2 0x706 JUMPI DUP3 SWAP2 PUSH2 0x1AC4 JUMPI JUMPDEST PUSH1 0x40 MLOAD PUSH1 0x20 DUP1 DUP3 MSTORE DUP2 SWAP1 PUSH2 0xFF0 SWAP1 DUP3 ADD DUP6 PUSH2 0x2016 JUMP JUMPDEST SWAP1 POP RETURNDATASIZE DUP1 DUP4 DUP4 RETURNDATACOPY PUSH2 0x1AD5 DUP2 DUP4 PUSH2 0x213C JUMP JUMPDEST DUP2 ADD SWAP1 PUSH1 0x20 DUP2 DUP4 SUB SLT PUSH2 0x16D0 JUMPI DUP1 MLOAD SWAP1 PUSH1 0x1 PUSH1 0x1 PUSH1 0x40 SHL SUB DUP3 GT PUSH2 0x1B6A JUMPI ADD SWAP1 DUP1 PUSH1 0x1F DUP4 ADD SLT ISZERO PUSH2 0x16D0 JUMPI DUP2 MLOAD SWAP3 PUSH2 0x1B0C DUP5 PUSH2 0x2513 JUMP JUMPDEST SWAP3 PUSH2 0x1B1A PUSH1 0x40 MLOAD SWAP5 DUP6 PUSH2 0x213C JUMP JUMPDEST DUP5 DUP5 MSTORE PUSH1 0x20 DUP1 DUP6 ADD SWAP6 PUSH1 0x5 SHL DUP3 ADD ADD SWAP3 DUP4 GT PUSH2 0x6FA JUMPI PUSH1 0x20 ADD SWAP4 JUMPDEST DUP3 DUP6 LT PUSH2 0x1B4A JUMPI POP POP POP PUSH2 0xFF0 SWAP2 POP CODESIZE PUSH2 0x1AAE JUMP JUMPDEST DUP5 MLOAD PUSH1 0x1 PUSH1 0x1 PUSH1 0xA0 SHL SUB DUP2 AND DUP2 SUB PUSH2 0x16D0 JUMPI DUP2 MSTORE PUSH1 0x20 SWAP5 DUP6 ADD SWAP5 ADD PUSH2 0x1B35 JUMP JUMPDEST DUP4 DUP1 REVERT JUMPDEST POP DUP1 PUSH1 0x3 NOT CALLDATASIZE ADD SLT PUSH2 0x1F2 JUMPI PUSH2 0x1B89 PUSH1 0xFF PUSH1 0x3 SLOAD AND ISZERO PUSH2 0x23AA JUMP JUMPDEST PUSH1 0x4 SLOAD CALLVALUE LT PUSH2 0x1D12 JUMPI CALLER DUP2 MSTORE PUSH1 0x2 PUSH1 0x20 MSTORE PUSH1 0xFF PUSH1 0x40 DUP3 KECCAK256 SLOAD AND PUSH2 0x1CD8 JUMPI PUSH1 0x1 SLOAD CALLER DUP3 MSTORE PUSH1 0x7 PUSH1 0x20 MSTORE DUP1 PUSH1 0x40 DUP4 KECCAK256 SSTORE PUSH2 0x1BC0 CALLER PUSH2 0x23EF JUMP JUMPDEST CALLER DUP3 MSTORE PUSH1 0x2 PUSH1 0x20 MSTORE PUSH1 0x40 DUP3 KECCAK256 PUSH1 0x1 PUSH1 0xFF NOT DUP3 SLOAD AND OR SWAP1 SSTORE PUSH2 0x1BE0 CALLER PUSH2 0x2414 JUMP JUMPDEST CALLER DUP3 MSTORE PUSH1 0x6 PUSH1 0x20 MSTORE PUSH1 0x40 DUP3 KECCAK256 PUSH1 0x1 PUSH1 0xFF NOT DUP3 SLOAD AND OR SWAP1 SSTORE PUSH1 0x40 MLOAD SWAP1 DUP2 MSTORE PUSH32 0x324CB0062138D65997C86CD3012489CEB351D602F2F55C7408306E8040C79F3F PUSH1 0x20 CALLER SWAP3 LOG2 PUSH2 0x3E8 PUSH1 0x1 SLOAD LT ISZERO PUSH2 0x1CA2 JUMPI JUMPDEST DUP1 PUSH2 0x1C3D PUSH1 0x4 SLOAD CALLVALUE PUSH2 0x247E JUMP JUMPDEST DUP1 PUSH2 0x1C45 JUMPI POP RETURN JUMPDEST DUP2 DUP1 DUP1 SWAP3 CALLER GAS CALL PUSH2 0x1C54 PUSH2 0x24A1 JUMP JUMPDEST POP ISZERO PUSH2 0x1C5D JUMPI DUP1 RETURN JUMPDEST PUSH1 0x40 MLOAD PUSH3 0x461BCD PUSH1 0xE5 SHL DUP2 MSTORE PUSH1 0x20 PUSH1 0x4 DUP3 ADD MSTORE PUSH1 0x1F PUSH1 0x24 DUP3 ADD MSTORE PUSH32 0x4661696C656420746F2072657475726E20657863657373207061796D656E7400 PUSH1 0x44 DUP3 ADD MSTORE PUSH1 0x64 SWAP1 REVERT JUMPDEST PUSH1 0x1 PUSH1 0xFF NOT PUSH1 0x3 SLOAD AND OR PUSH1 0x3 SSTORE PUSH32 0x2FC209F3DF2FB10C5FCB1620D3E5F067B9EF99813CA8FA6B24DE0418BDAC5420 DUP2 DUP1 LOG1 PUSH2 0x1C30 JUMP JUMPDEST PUSH1 0x40 MLOAD PUSH3 0x461BCD PUSH1 0xE5 SHL DUP2 MSTORE PUSH1 0x20 PUSH1 0x4 DUP3 ADD MSTORE PUSH1 0x12 PUSH1 0x24 DUP3 ADD MSTORE PUSH18 0x105B1C9958591E481C9959DA5CDD195C9959 PUSH1 0x72 SHL PUSH1 0x44 DUP3 ADD MSTORE PUSH1 0x64 SWAP1 REVERT JUMPDEST PUSH1 0x40 MLOAD PUSH3 0x461BCD PUSH1 0xE5 SHL DUP2 MSTORE PUSH1 0x20 PUSH1 0x4 DUP3 ADD MSTORE PUSH1 0x27 PUSH1 0x24 DUP3 ADD MSTORE PUSH32 0x4D7573742073656E64206174206C656173742074686520726567697374726174 PUSH1 0x44 DUP3 ADD MSTORE PUSH7 0x696F6E20666565 PUSH1 0xC8 SHL PUSH1 0x64 DUP3 ADD MSTORE PUSH1 0x84 SWAP1 REVERT JUMPDEST POP CALLVALUE PUSH2 0x1F2 JUMPI DUP1 PUSH1 0x3 NOT CALLDATASIZE ADD SLT PUSH2 0x1F2 JUMPI PUSH1 0x40 MLOAD PUSH1 0x1 DUP1 SLOAD DUP1 DUP4 MSTORE SWAP1 DUP4 MSTORE SWAP1 SWAP2 PUSH1 0x20 DUP4 ADD SWAP2 PUSH32 0xB10E2D527612073B26EECDFD717E6A320CF44B4AFAC2B0732D9FCBE2B7FA0CF6 SWAP2 JUMPDEST DUP2 DUP2 LT PUSH2 0x1DC6 JUMPI PUSH2 0xFF0 DUP6 PUSH2 0x1294 DUP2 DUP8 SUB DUP3 PUSH2 0x213C JUMP JUMPDEST DUP3 SLOAD PUSH1 0x1 PUSH1 0x1 PUSH1 0xA0 SHL SUB AND DUP5 MSTORE PUSH1 0x20 SWAP1 SWAP4 ADD SWAP3 PUSH1 0x1 SWAP3 DUP4 ADD SWAP3 ADD PUSH2 0x1DAF JUMP JUMPDEST POP CALLVALUE PUSH2 0x1F2 JUMPI DUP1 PUSH1 0x3 NOT CALLDATASIZE ADD SLT PUSH2 0x1F2 JUMPI PUSH1 0x20 PUSH1 0x4 SLOAD PUSH1 0x40 MLOAD SWAP1 DUP2 MSTORE RETURN JUMPDEST POP CALLVALUE PUSH2 0x1F2 JUMPI PUSH1 0x20 CALLDATASIZE PUSH1 0x3 NOT ADD SLT PUSH2 0x1F2 JUMPI PUSH1 0x4 CALLDATALOAD PUSH1 0x1 PUSH1 0x1 PUSH1 0x40 SHL SUB DUP2 GT PUSH2 0x6FA JUMPI CALLDATASIZE PUSH1 0x23 DUP3 ADD SLT ISZERO PUSH2 0x6FA JUMPI DUP1 PUSH1 0x4 ADD CALLDATALOAD SWAP1 PUSH1 0x1 PUSH1 0x1 PUSH1 0x40 SHL SUB DUP3 GT PUSH2 0x16D0 JUMPI CALLDATASIZE PUSH1 0x24 DUP4 PUSH1 0x5 SHL DUP4 ADD ADD GT PUSH2 0x16D0 JUMPI PUSH2 0x1E5C PUSH2 0x28B9 JUMP JUMPDEST PUSH2 0x1E6B PUSH1 0xFF PUSH1 0x3 SLOAD AND ISZERO PUSH2 0x23AA JUMP JUMPDEST PUSH1 0x1 SLOAD DUP3 DUP2 ADD DUP1 SWAP2 GT PUSH2 0x3CA JUMPI PUSH2 0x3E8 LT PUSH2 0x1FD1 JUMPI DUP3 JUMPDEST DUP3 DUP2 LT ISZERO PUSH2 0x1FC1 JUMPI PUSH1 0x5 DUP2 SWAP1 SHL DUP3 ADD PUSH1 0x24 ADD CALLDATALOAD SWAP1 PUSH1 0x1 PUSH1 0x1 PUSH1 0xA0 SHL SUB DUP3 AND DUP1 DUP4 SUB PUSH2 0xB85 JUMPI DUP1 ISZERO PUSH2 0x1F83 JUMPI DUP1 DUP7 MSTORE PUSH1 0x2 PUSH1 0x20 MSTORE PUSH1 0xFF PUSH1 0x40 DUP8 KECCAK256 SLOAD AND PUSH2 0x1F3E JUMPI PUSH32 0x324CB0062138D65997C86CD3012489CEB351D602F2F55C7408306E8040C79F3F PUSH1 0x20 PUSH1 0x1 SWAP5 PUSH2 0x1F1D DUP7 SLOAD SWAP2 DUP6 DUP12 MSTORE PUSH1 0x7 DUP5 MSTORE DUP3 PUSH1 0x40 DUP13 KECCAK256 SSTORE PUSH2 0x1F03 DUP2 PUSH2 0x23EF JUMP JUMPDEST DUP6 DUP12 MSTORE PUSH1 0x2 DUP5 MSTORE PUSH1 0x40 DUP12 KECCAK256 DUP1 SLOAD PUSH1 0xFF NOT AND DUP10 OR SWAP1 SSTORE PUSH2 0x2414 JUMP JUMPDEST DUP4 DUP10 MSTORE PUSH1 0x6 DUP3 MSTORE PUSH1 0x40 DUP1 DUP11 KECCAK256 DUP1 SLOAD PUSH1 0xFF NOT AND DUP9 OR SWAP1 SSTORE MLOAD SWAP1 DUP2 MSTORE LOG2 ADD PUSH2 0x1E82 JUMP JUMPDEST PUSH1 0x40 MLOAD PUSH3 0x461BCD PUSH1 0xE5 SHL DUP2 MSTORE PUSH1 0x20 PUSH1 0x4 DUP3 ADD MSTORE PUSH1 0x19 PUSH1 0x24 DUP3 ADD MSTORE PUSH32 0x506C6179657220616C7265616479207265676973746572656400000000000000 PUSH1 0x44 DUP3 ADD MSTORE PUSH1 0x64 SWAP1 REVERT JUMPDEST PUSH1 0x40 MLOAD PUSH3 0x461BCD PUSH1 0xE5 SHL DUP2 MSTORE PUSH1 0x20 PUSH1 0x4 DUP3 ADD MSTORE PUSH1 0x16 PUSH1 0x24 DUP3 ADD MSTORE PUSH22 0x496E76616C696420706C617965722061646472657373 PUSH1 0x50 SHL PUSH1 0x44 DUP3 ADD MSTORE PUSH1 0x64 SWAP1 REVERT JUMPDEST DUP4 PUSH2 0x3E8 PUSH1 0x1 SLOAD LT ISZERO PUSH2 0x1073 JUMPI DUP1 RETURN JUMPDEST PUSH1 0x40 MLOAD PUSH3 0x461BCD PUSH1 0xE5 SHL DUP2 MSTORE PUSH1 0x20 PUSH1 0x4 DUP3 ADD MSTORE PUSH1 0x1C PUSH1 0x24 DUP3 ADD MSTORE PUSH32 0x576F756C6420657863656564206D6178696D756D20706C617965727300000000 PUSH1 0x44 DUP3 ADD MSTORE PUSH1 0x64 SWAP1 REVERT JUMPDEST SWAP1 PUSH1 0x20 DUP1 DUP4 MLOAD SWAP3 DUP4 DUP2 MSTORE ADD SWAP3 ADD SWAP1 PUSH1 0x0 JUMPDEST DUP2 DUP2 LT PUSH2 0x2034 JUMPI POP POP POP SWAP1 JUMP JUMPDEST DUP3 MLOAD PUSH1 0x1 PUSH1 0x1 PUSH1 0xA0 SHL SUB AND DUP5 MSTORE PUSH1 0x20 SWAP4 DUP5 ADD SWAP4 SWAP1 SWAP3 ADD SWAP2 PUSH1 0x1 ADD PUSH2 0x2027 JUMP JUMPDEST SWAP2 DUP2 PUSH1 0x1F DUP5 ADD SLT ISZERO PUSH2 0x2080 JUMPI DUP3 CALLDATALOAD SWAP2 PUSH1 0x1 PUSH1 0x1 PUSH1 0x40 SHL SUB DUP4 GT PUSH2 0x2080 JUMPI PUSH1 0x20 DUP4 DUP2 DUP7 ADD SWAP6 ADD ADD GT PUSH2 0x2080 JUMPI JUMP JUMPDEST PUSH1 0x0 DUP1 REVERT JUMPDEST PUSH1 0x0 JUMPDEST DUP4 DUP2 LT PUSH2 0x2098 JUMPI POP POP PUSH1 0x0 SWAP2 ADD MSTORE JUMP JUMPDEST DUP2 DUP2 ADD MLOAD DUP4 DUP3 ADD MSTORE PUSH1 0x20 ADD PUSH2 0x2088 JUMP JUMPDEST SWAP1 PUSH1 0x20 SWAP2 PUSH2 0x20C1 DUP2 MLOAD DUP1 SWAP3 DUP2 DUP6 MSTORE DUP6 DUP1 DUP7 ADD SWAP2 ADD PUSH2 0x2085 JUMP JUMPDEST PUSH1 0x1F ADD PUSH1 0x1F NOT AND ADD ADD SWAP1 JUMP JUMPDEST SWAP1 DUP1 PUSH1 0x20 DUP4 MLOAD SWAP2 DUP3 DUP2 MSTORE ADD SWAP2 PUSH1 0x20 DUP1 DUP4 PUSH1 0x5 SHL DUP4 ADD ADD SWAP5 ADD SWAP3 PUSH1 0x0 SWAP2 JUMPDEST DUP4 DUP4 LT PUSH2 0x20F9 JUMPI POP POP POP POP POP SWAP1 JUMP JUMPDEST SWAP1 SWAP2 SWAP3 SWAP4 SWAP5 PUSH1 0x20 DUP1 PUSH2 0x2117 PUSH1 0x1 SWAP4 PUSH1 0x1F NOT DUP7 DUP3 SUB ADD DUP8 MSTORE DUP10 MLOAD PUSH2 0x20A8 JUMP JUMPDEST SWAP8 ADD SWAP4 ADD SWAP4 ADD SWAP2 SWAP4 SWAP3 SWAP1 PUSH2 0x20EA JUMP JUMPDEST PUSH1 0x4 CALLDATALOAD SWAP1 PUSH1 0x1 PUSH1 0x1 PUSH1 0xA0 SHL SUB DUP3 AND DUP3 SUB PUSH2 0x2080 JUMPI JUMP JUMPDEST SWAP1 PUSH1 0x1F DUP1 NOT SWAP2 ADD AND DUP2 ADD SWAP1 DUP2 LT PUSH1 0x1 PUSH1 0x1 PUSH1 0x40 SHL SUB DUP3 GT OR PUSH2 0x215D JUMPI PUSH1 0x40 MSTORE JUMP JUMPDEST PUSH4 0x4E487B71 PUSH1 0xE0 SHL PUSH1 0x0 MSTORE PUSH1 0x41 PUSH1 0x4 MSTORE PUSH1 0x24 PUSH1 0x0 REVERT JUMPDEST PUSH1 0x1 PUSH1 0x1 PUSH1 0x40 SHL SUB DUP2 GT PUSH2 0x215D JUMPI PUSH1 0x1F ADD PUSH1 0x1F NOT AND PUSH1 0x20 ADD SWAP1 JUMP JUMPDEST PUSH1 0x20 PUSH1 0x3 NOT DUP3 ADD SLT PUSH2 0x2080 JUMPI PUSH1 0x4 CALLDATALOAD PUSH1 0x1 PUSH1 0x1 PUSH1 0x40 SHL SUB DUP2 GT PUSH2 0x2080 JUMPI DUP2 PUSH1 0x23 DUP3 ADD SLT ISZERO PUSH2 0x2080 JUMPI DUP1 PUSH1 0x4 ADD CALLDATALOAD SWAP1 PUSH2 0x21C5 DUP3 PUSH2 0x2173 JUMP JUMPDEST SWAP3 PUSH2 0x21D3 PUSH1 0x40 MLOAD SWAP5 DUP6 PUSH2 0x213C JUMP JUMPDEST DUP3 DUP5 MSTORE PUSH1 0x24 DUP4 DUP4 ADD ADD GT PUSH2 0x2080 JUMPI DUP2 PUSH1 0x0 SWAP3 PUSH1 0x24 PUSH1 0x20 SWAP4 ADD DUP4 DUP7 ADD CALLDATACOPY DUP4 ADD ADD MSTORE SWAP1 JUMP JUMPDEST SWAP1 PUSH1 0x5 DUP3 LT ISZERO PUSH2 0x2203 JUMPI MSTORE JUMP JUMPDEST PUSH4 0x4E487B71 PUSH1 0xE0 SHL PUSH1 0x0 MSTORE PUSH1 0x21 PUSH1 0x4 MSTORE PUSH1 0x24 PUSH1 0x0 REVERT JUMPDEST SWAP1 PUSH1 0x20 DUP1 DUP4 MLOAD SWAP3 DUP4 DUP2 MSTORE ADD SWAP3 ADD SWAP1 PUSH1 0x0 JUMPDEST DUP2 DUP2 LT PUSH2 0x2237 JUMPI POP POP POP SWAP1 JUMP JUMPDEST DUP3 MLOAD DUP5 MSTORE PUSH1 0x20 SWAP4 DUP5 ADD SWAP4 SWAP1 SWAP3 ADD SWAP2 PUSH1 0x1 ADD PUSH2 0x222A JUMP JUMPDEST PUSH1 0x5 SLOAD DUP2 LT ISZERO PUSH2 0x2268 JUMPI PUSH1 0x5 PUSH1 0x0 MSTORE PUSH1 0x20 PUSH1 0x0 KECCAK256 ADD SWAP1 PUSH1 0x0 SWAP1 JUMP JUMPDEST PUSH4 0x4E487B71 PUSH1 0xE0 SHL PUSH1 0x0 MSTORE PUSH1 0x32 PUSH1 0x4 MSTORE PUSH1 0x24 PUSH1 0x0 REVERT JUMPDEST PUSH1 0xC SLOAD DUP2 LT ISZERO PUSH2 0x2268 JUMPI PUSH1 0xC PUSH1 0x0 MSTORE PUSH1 0x20 PUSH1 0x0 KECCAK256 ADD SWAP1 PUSH1 0x0 SWAP1 JUMP JUMPDEST PUSH1 0x1 SLOAD DUP2 LT ISZERO PUSH2 0x2268 JUMPI PUSH1 0x1 PUSH1 0x0 MSTORE PUSH1 0x20 PUSH1 0x0 KECCAK256 ADD SWAP1 PUSH1 0x0 SWAP1 JUMP JUMPDEST DUP1 SLOAD DUP3 LT ISZERO PUSH2 0x2268 JUMPI PUSH1 0x0 MSTORE PUSH1 0x20 PUSH1 0x0 KECCAK256 ADD SWAP1 PUSH1 0x0 SWAP1 JUMP JUMPDEST SWAP1 PUSH1 0x1 DUP3 DUP2 SHR SWAP3 AND DUP1 ISZERO PUSH2 0x22FC JUMPI JUMPDEST PUSH1 0x20 DUP4 LT EQ PUSH2 0x22E6 JUMPI JUMP JUMPDEST PUSH4 0x4E487B71 PUSH1 0xE0 SHL PUSH1 0x0 MSTORE PUSH1 0x22 PUSH1 0x4 MSTORE PUSH1 0x24 PUSH1 0x0 REVERT JUMPDEST SWAP2 PUSH1 0x7F AND SWAP2 PUSH2 0x22DB JUMP JUMPDEST SWAP1 PUSH1 0x40 MLOAD SWAP2 DUP3 PUSH1 0x0 DUP3 SLOAD SWAP3 PUSH2 0x231A DUP5 PUSH2 0x22CC JUMP JUMPDEST DUP1 DUP5 MSTORE SWAP4 PUSH1 0x1 DUP2 AND SWAP1 DUP2 ISZERO PUSH2 0x2388 JUMPI POP PUSH1 0x1 EQ PUSH2 0x2341 JUMPI JUMPDEST POP PUSH2 0x233F SWAP3 POP SUB DUP4 PUSH2 0x213C JUMP JUMPDEST JUMP JUMPDEST SWAP1 POP PUSH1 0x0 SWAP3 SWAP2 SWAP3 MSTORE PUSH1 0x20 PUSH1 0x0 KECCAK256 SWAP1 PUSH1 0x0 SWAP2 JUMPDEST DUP2 DUP4 LT PUSH2 0x236C JUMPI POP POP SWAP1 PUSH1 0x20 PUSH2 0x233F SWAP3 DUP3 ADD ADD CODESIZE PUSH2 0x2332 JUMP JUMPDEST PUSH1 0x20 SWAP2 SWAP4 POP DUP1 PUSH1 0x1 SWAP2 SLOAD DUP4 DUP6 DUP10 ADD ADD MSTORE ADD SWAP2 ADD SWAP1 SWAP2 DUP5 SWAP3 PUSH2 0x2353 JUMP JUMPDEST SWAP1 POP PUSH1 0x20 SWAP3 POP PUSH2 0x233F SWAP5 SWAP2 POP PUSH1 0xFF NOT AND DUP3 DUP5 ADD MSTORE ISZERO ISZERO PUSH1 0x5 SHL DUP3 ADD ADD CODESIZE PUSH2 0x2332 JUMP JUMPDEST ISZERO PUSH2 0x23B1 JUMPI JUMP JUMPDEST PUSH1 0x40 MLOAD PUSH3 0x461BCD PUSH1 0xE5 SHL DUP2 MSTORE PUSH1 0x20 PUSH1 0x4 DUP3 ADD MSTORE PUSH1 0x16 PUSH1 0x24 DUP3 ADD MSTORE PUSH22 0x149959DA5CDD1C985D1A5BDB881A5CC818DB1BDCD959 PUSH1 0x52 SHL PUSH1 0x44 DUP3 ADD MSTORE PUSH1 0x64 SWAP1 REVERT JUMPDEST PUSH1 0x1 SLOAD SWAP1 PUSH1 0x1 PUSH1 0x40 SHL DUP3 LT ISZERO PUSH2 0x215D JUMPI PUSH2 0x299 DUP3 PUSH1 0x1 PUSH2 0x233F SWAP5 ADD PUSH1 0x1 SSTORE PUSH1 0x1 PUSH2 0x22B4 JUMP JUMPDEST PUSH1 0x5 SLOAD SWAP1 PUSH1 0x1 PUSH1 0x40 SHL DUP3 LT ISZERO PUSH2 0x215D JUMPI PUSH2 0x299 DUP3 PUSH1 0x1 PUSH2 0x233F SWAP5 ADD PUSH1 0x5 SSTORE PUSH1 0x5 PUSH2 0x22B4 JUMP JUMPDEST PUSH1 0x20 PUSH1 0x5 SLOAD SWAP2 DUP3 DUP2 MSTORE ADD SWAP1 PUSH1 0x5 PUSH1 0x0 MSTORE PUSH1 0x20 PUSH1 0x0 KECCAK256 SWAP1 PUSH1 0x0 JUMPDEST DUP2 DUP2 LT PUSH2 0x245F JUMPI POP POP POP SWAP1 JUMP JUMPDEST DUP3 SLOAD PUSH1 0x1 PUSH1 0x1 PUSH1 0xA0 SHL SUB AND DUP5 MSTORE PUSH1 0x20 SWAP1 SWAP4 ADD SWAP3 PUSH1 0x1 SWAP3 DUP4 ADD SWAP3 ADD PUSH2 0x2452 JUMP JUMPDEST SWAP2 SWAP1 DUP3 SUB SWAP2 DUP3 GT PUSH2 0x248B JUMPI JUMP JUMPDEST PUSH4 0x4E487B71 PUSH1 0xE0 SHL PUSH1 0x0 MSTORE PUSH1 0x11 PUSH1 0x4 MSTORE PUSH1 0x24 PUSH1 0x0 REVERT JUMPDEST RETURNDATASIZE ISZERO PUSH2 0x24CC JUMPI RETURNDATASIZE SWAP1 PUSH2 0x24B2 DUP3 PUSH2 0x2173 JUMP JUMPDEST SWAP2 PUSH2 0x24C0 PUSH1 0x40 MLOAD SWAP4 DUP5 PUSH2 0x213C JUMP JUMPDEST DUP3 MSTORE RETURNDATASIZE PUSH1 0x0 PUSH1 0x20 DUP5 ADD RETURNDATACOPY JUMP JUMPDEST PUSH1 0x60 SWAP1 JUMP JUMPDEST ISZERO PUSH2 0x24D8 JUMPI JUMP JUMPDEST PUSH1 0x40 MLOAD PUSH3 0x461BCD PUSH1 0xE5 SHL DUP2 MSTORE PUSH1 0x20 PUSH1 0x4 DUP3 ADD MSTORE PUSH1 0x13 PUSH1 0x24 DUP3 ADD MSTORE PUSH19 0x11D85B59481B9BDD081C9959DA5CDD195C9959 PUSH1 0x6A SHL PUSH1 0x44 DUP3 ADD MSTORE PUSH1 0x64 SWAP1 REVERT JUMPDEST PUSH1 0x1 PUSH1 0x1 PUSH1 0x40 SHL SUB DUP2 GT PUSH2 0x215D JUMPI PUSH1 0x5 SHL PUSH1 0x20 ADD SWAP1 JUMP JUMPDEST PUSH1 0xC SLOAD SWAP1 PUSH2 0x2537 DUP3 PUSH2 0x2513 JUMP JUMPDEST SWAP2 PUSH2 0x2545 PUSH1 0x40 MLOAD SWAP4 DUP5 PUSH2 0x213C JUMP JUMPDEST DUP1 DUP4 MSTORE PUSH1 0xC PUSH1 0x0 SWAP1 DUP2 MSTORE PUSH32 0xDF6966C971051C3D54EC59162606531493A51404A002842F56009D7E5CF4A8C7 PUSH1 0x20 DUP6 ADD JUMPDEST DUP4 DUP4 LT PUSH2 0x2582 JUMPI POP POP POP POP JUMP JUMPDEST PUSH1 0x1 PUSH1 0x20 DUP2 SWAP3 PUSH2 0x2591 DUP6 PUSH2 0x2306 JUMP JUMPDEST DUP2 MSTORE ADD SWAP3 ADD SWAP3 ADD SWAP2 SWAP1 PUSH2 0x2575 JUMP JUMPDEST SWAP1 PUSH2 0x25A9 DUP3 PUSH2 0x2513 JUMP JUMPDEST PUSH2 0x25B6 PUSH1 0x40 MLOAD SWAP2 DUP3 PUSH2 0x213C JUMP JUMPDEST DUP3 DUP2 MSTORE DUP1 SWAP3 PUSH2 0x25C7 PUSH1 0x1F NOT SWAP2 PUSH2 0x2513 JUMP JUMPDEST ADD SWAP1 PUSH1 0x20 CALLDATASIZE SWAP2 ADD CALLDATACOPY JUMP JUMPDEST DUP1 MLOAD DUP3 LT ISZERO PUSH2 0x2268 JUMPI PUSH1 0x20 SWAP2 PUSH1 0x5 SHL ADD ADD SWAP1 JUMP JUMPDEST SWAP1 DUP1 PUSH1 0x20 SWAP4 SWAP3 DUP2 DUP5 MSTORE DUP5 DUP5 ADD CALLDATACOPY PUSH1 0x0 DUP3 DUP3 ADD DUP5 ADD MSTORE PUSH1 0x1F ADD PUSH1 0x1F NOT AND ADD ADD SWAP1 JUMP JUMPDEST DUP2 DUP2 LT PUSH2 0x2611 JUMPI POP POP JUMP JUMPDEST PUSH1 0x0 DUP2 SSTORE PUSH1 0x1 ADD PUSH2 0x2606 JUMP JUMPDEST PUSH1 0x1 PUSH1 0x1 PUSH1 0xA0 SHL SUB AND PUSH1 0x0 DUP2 DUP2 MSTORE PUSH1 0x2 PUSH1 0x20 MSTORE PUSH1 0x40 SWAP1 KECCAK256 SLOAD SWAP1 SWAP2 SWAP1 PUSH1 0xFF AND ISZERO PUSH2 0x2852 JUMPI DUP2 PUSH1 0x0 MSTORE PUSH1 0x6 PUSH1 0x20 MSTORE PUSH1 0xFF PUSH1 0x40 PUSH1 0x0 KECCAK256 SLOAD AND SWAP1 DUP3 PUSH1 0x0 MSTORE PUSH1 0x7 PUSH1 0x20 MSTORE PUSH1 0x40 PUSH1 0x0 KECCAK256 SLOAD PUSH1 0x20 SWAP2 PUSH1 0x40 MLOAD PUSH2 0x2672 DUP5 DUP3 PUSH2 0x213C JUMP JUMPDEST PUSH1 0x0 DUP1 DUP3 MSTORE PUSH1 0xC SLOAD SWAP1 SWAP7 DUP8 SWAP6 SWAP1 DUP7 DUP1 JUMPDEST DUP5 DUP2 LT PUSH2 0x2695 JUMPI POP POP POP POP POP SWAP5 SWAP4 SWAP3 SWAP2 SWAP1 JUMP JUMPDEST PUSH2 0x26A1 PUSH2 0x9F5 DUP3 PUSH2 0x227E JUMP JUMPDEST SWAP1 PUSH1 0x40 MLOAD DUP3 MLOAD PUSH2 0x26B4 DUP2 DUP4 DUP10 DUP8 ADD PUSH2 0x2085 JUMP JUMPDEST PUSH1 0xA SWAP1 DUP3 ADD SWAP1 DUP2 MSTORE DUP2 SWAP1 SUB DUP7 ADD SWAP1 KECCAK256 SLOAD PUSH1 0x1 PUSH1 0x1 PUSH1 0xA0 SHL SUB AND SWAP2 DUP3 PUSH2 0x26DF JUMPI JUMPDEST POP PUSH1 0x1 SWAP2 POP ADD PUSH2 0x2682 JUMP JUMPDEST PUSH1 0x40 MLOAD PUSH4 0x773B549D PUSH1 0xE0 SHL DUP2 MSTORE PUSH1 0x4 DUP2 ADD DUP7 SWAP1 MSTORE SWAP1 DUP7 DUP3 PUSH1 0x24 DUP2 DUP8 GAS STATICCALL SWAP2 DUP3 ISZERO PUSH2 0x2817 JUMPI PUSH1 0x0 SWAP3 PUSH2 0x2823 JUMPI JUMPDEST POP DUP2 PUSH2 0x2718 JUMPI JUMPDEST POP PUSH2 0x26D4 JUMP JUMPDEST PUSH1 0xA0 PUSH1 0x24 SWAP4 SWAP5 PUSH1 0x40 MLOAD SWAP5 DUP6 DUP1 SWAP3 PUSH4 0x47E1D55 PUSH1 0xE4 SHL DUP3 MSTORE DUP7 PUSH1 0x4 DUP4 ADD MSTORE GAS STATICCALL SWAP3 DUP4 ISZERO PUSH2 0x2817 JUMPI PUSH1 0x0 SWAP4 PUSH2 0x277E JUMPI JUMPDEST POP PUSH1 0x60 DUP4 ADD MLOAD DUP6 DUP2 GT PUSH2 0x275D JUMPI JUMPDEST POP DUP4 SWAP3 POP PUSH2 0x2712 JUMP JUMPDEST SWAP4 SWAP12 POP SWAP4 POP SWAP7 POP SWAP11 POP SWAP1 SWAP5 SWAP10 MLOAD PUSH1 0x5 DUP2 LT ISZERO PUSH2 0x2203 JUMPI SWAP8 PUSH1 0x1 CODESIZE DUP1 DUP1 PUSH2 0x2754 JUMP JUMPDEST PUSH1 0xA0 SWAP4 SWAP2 SWAP4 DUP2 RETURNDATASIZE DUP3 GT PUSH2 0x280F JUMPI JUMPDEST DUP2 PUSH2 0x2799 PUSH1 0xA0 SWAP4 DUP4 PUSH2 0x213C JUMP JUMPDEST DUP2 ADD SUB SLT PUSH2 0x6FA JUMPI PUSH1 0x40 MLOAD SWAP2 PUSH1 0xA0 DUP4 ADD DUP4 DUP2 LT PUSH1 0x1 PUSH1 0x1 PUSH1 0x40 SHL SUB DUP3 GT OR PUSH2 0x27FB JUMPI PUSH1 0x40 MSTORE DUP2 MLOAD SWAP1 PUSH1 0x5 DUP3 LT ISZERO PUSH2 0x1F2 JUMPI POP SWAP1 PUSH1 0x80 SWAP2 DUP4 MSTORE DUP9 DUP2 ADD MLOAD DUP10 DUP5 ADD MSTORE PUSH1 0x40 DUP2 ADD MLOAD PUSH1 0x40 DUP5 ADD MSTORE PUSH1 0x60 DUP2 ADD MLOAD PUSH1 0x60 DUP5 ADD MSTORE ADD MLOAD PUSH1 0x80 DUP3 ADD MSTORE SWAP2 CODESIZE PUSH2 0x2746 JUMP JUMPDEST PUSH4 0x4E487B71 PUSH1 0xE0 SHL DUP3 MSTORE PUSH1 0x41 PUSH1 0x4 MSTORE PUSH1 0x24 DUP3 REVERT JUMPDEST RETURNDATASIZE SWAP2 POP PUSH2 0x278C JUMP JUMPDEST PUSH1 0x40 MLOAD RETURNDATASIZE PUSH1 0x0 DUP3 RETURNDATACOPY RETURNDATASIZE SWAP1 REVERT JUMPDEST SWAP1 SWAP2 DUP8 DUP3 DUP2 RETURNDATASIZE DUP4 GT PUSH2 0x284B JUMPI JUMPDEST PUSH2 0x283A DUP2 DUP4 PUSH2 0x213C JUMP JUMPDEST DUP2 ADD SUB SLT PUSH2 0x1F2 JUMPI POP MLOAD SWAP1 CODESIZE PUSH2 0x270B JUMP JUMPDEST POP RETURNDATASIZE PUSH2 0x2830 JUMP JUMPDEST SWAP1 POP PUSH1 0x40 MLOAD PUSH2 0x2862 PUSH1 0x20 DUP3 PUSH2 0x213C JUMP JUMPDEST PUSH1 0x0 DUP2 MSTORE SWAP1 PUSH1 0x0 SWAP1 PUSH1 0x0 SWAP1 PUSH1 0x0 SWAP1 PUSH1 0x0 SWAP1 JUMP JUMPDEST ISZERO PUSH2 0x287C JUMPI JUMP JUMPDEST PUSH1 0x40 MLOAD PUSH3 0x461BCD PUSH1 0xE5 SHL DUP2 MSTORE PUSH1 0x20 PUSH1 0x4 DUP3 ADD MSTORE PUSH1 0x15 PUSH1 0x24 DUP3 ADD MSTORE PUSH21 0x141B185E595C881B9BDD081C9959DA5CDD195C9959 PUSH1 0x5A SHL PUSH1 0x44 DUP3 ADD MSTORE PUSH1 0x64 SWAP1 REVERT JUMPDEST PUSH1 0x0 SLOAD PUSH1 0x1 PUSH1 0x1 PUSH1 0xA0 SHL SUB AND CALLER SUB PUSH2 0x28CD JUMPI JUMP JUMPDEST PUSH4 0x118CDAA7 PUSH1 0xE0 SHL PUSH1 0x0 MSTORE CALLER PUSH1 0x4 MSTORE PUSH1 0x24 PUSH1 0x0 REVERT INVALID LOG2 PUSH5 0x6970667358 0x22 SLT KECCAK256 PUSH14 0x8B659F216910D4FB1F47FFBFC437 0xAA LOG2 0x4E 0xE7 0xD6 0xE0 PUSH20 0x2C958E81C43125D26CBC64736F6C634300081C00 CALLER "},"methodIdentifiers":{"MAX_PLAYERS()":"4411b3eb","activePlayers(uint256)":"b55f108f","closeRegistration()":"7dc673bc","eliminatedPlayers(uint256)":"d03b547e","endExpiredGames(string)":"b6e79c59","endGames(string)":"1bc8c8a0","finalPlacements(address)":"c07dda4a","gameAddresses(string)":"6a6b2722","getActivePlayerCount()":"4e347f2a","getActivePlayers()":"3c4f5a66","getActivePlayersAndNumbers()":"6e24b939","getEliminatedPlayerCount()":"fea55dad","getEliminatedPlayers()":"64328b9c","getGames()":"c04c5947","getPlayerCount()":"c2e52206","getPlayerFinalPlacement(address)":"71259638","getPlayerInfo(address)":"59328401","getPlayerNumber(address)":"ada4a401","getRegisteredGames()":"2e7ea48a","getRegisteredPlayers()":"1a8e2514","initializeGame(string)":"39e160f1","isActivePlayer(address)":"54a7d931","isGameRegistered(string)":"55e226c7","isRegistered(address)":"c3c5a547","owner()":"8da5cb5b","playerEliminated(address)":"fbdb3c74","playerNumbers(address)":"e03a0288","register()":"1aa3a008","registerGame(string,address)":"4aefbbe7","registerPlayersBatch(address[])":"1247958e","registeredGames(uint256)":"9e3c5a72","registeredPlayers(uint256)":"89a5b229","registrationClosed()":"9f9a093c","registrationFee()":"14c44e09","renounceOwnership()":"715018a6","resetGame()":"bb472219","setRegistrationFee(uint256)":"c320c727","startGames(string)":"d4e103d5","transferOwnership(address)":"f2fde38b","withdraw()":"3ccfd60b"}}}}}