{"contracts/games/Doors.sol":{"Doors":{"abi":[{"inputs":[],"stateMutability":"nonpayable","type":"constructor"},{"inputs":[{"internalType":"address","name":"owner","type":"address"}],"name":"OwnableInvalidOwner","type":"error"},{"inputs":[{"internalType":"address","name":"account","type":"address"}],"name":"OwnableUnauthorizedAccount","type":"error"},{"anonymous":false,"inputs":[{"indexed":true,"internalType":"uint256","name":"gameId","type":"uint256"},{"indexed":true,"internalType":"address","name":"player","type":"address"},{"indexed":false,"internalType":"bool","name":"success","type":"bool"}],"name":"DoorOpened","type":"event"},{"anonymous":false,"inputs":[{"indexed":true,"internalType":"uint256","name":"gameId","type":"uint256"},{"indexed":false,"internalType":"address[]","name":"winners","type":"address[]"}],"name":"GameCompleted","type":"event"},{"anonymous":false,"inputs":[{"indexed":false,"internalType":"address[]","name":"players","type":"address[]"},{"indexed":false,"internalType":"uint256[]","name":"playerNumbers","type":"uint256[]"}],"name":"GameInitialized","type":"event"},{"anonymous":false,"inputs":[{"indexed":false,"internalType":"address","name":"newGameMaster","type":"address"}],"name":"GameMasterChanged","type":"event"},{"anonymous":false,"inputs":[{"indexed":true,"internalType":"address","name":"previousOwner","type":"address"},{"indexed":true,"internalType":"address","name":"newOwner","type":"address"}],"name":"OwnershipTransferred","type":"event"},{"anonymous":false,"inputs":[{"indexed":true,"internalType":"uint256","name":"gameId","type":"uint256"},{"indexed":true,"internalType":"address","name":"player","type":"address"},{"indexed":false,"internalType":"uint256","name":"playerNumber","type":"uint256"}],"name":"PlayerEliminated","type":"event"},{"anonymous":false,"inputs":[{"indexed":true,"internalType":"uint256","name":"gameId","type":"uint256"},{"indexed":false,"internalType":"uint256","name":"roundNumber","type":"uint256"}],"name":"RoundEnded","type":"event"},{"anonymous":false,"inputs":[{"indexed":true,"internalType":"uint256","name":"gameId","type":"uint256"},{"indexed":false,"internalType":"uint256","name":"roundNumber","type":"uint256"},{"indexed":false,"internalType":"uint256","name":"endTime","type":"uint256"}],"name":"RoundStarted","type":"event"},{"inputs":[],"name":"endExpiredGames","outputs":[],"stateMutability":"nonpayable","type":"function"},{"inputs":[],"name":"endGame","outputs":[{"internalType":"address[]","name":"winners","type":"address[]"}],"stateMutability":"nonpayable","type":"function"},{"inputs":[],"name":"gameIdCounter","outputs":[{"internalType":"uint256","name":"","type":"uint256"}],"stateMutability":"view","type":"function"},{"inputs":[],"name":"gameMaster","outputs":[{"internalType":"address","name":"","type":"address"}],"stateMutability":"view","type":"function"},{"inputs":[{"internalType":"uint256","name":"gameId","type":"uint256"}],"name":"getActivePlayers","outputs":[{"internalType":"address[]","name":"","type":"address[]"}],"stateMutability":"view","type":"function"},{"inputs":[],"name":"getActivePlayers","outputs":[{"internalType":"address[]","name":"","type":"address[]"}],"stateMutability":"view","type":"function"},{"inputs":[{"internalType":"uint256","name":"gameId","type":"uint256"},{"internalType":"address","name":"player","type":"address"}],"name":"getDoorsOpened","outputs":[{"internalType":"uint256","name":"","type":"uint256"}],"stateMutability":"view","type":"function"},{"inputs":[{"internalType":"uint256","name":"gameId","type":"uint256"}],"name":"getGameInfo","outputs":[{"components":[{"internalType":"enum GameState","name":"state","type":"uint8"},{"internalType":"uint256","name":"currentRound","type":"uint256"},{"internalType":"uint256","name":"roundEndTime","type":"uint256"},{"internalType":"uint256","name":"gameStartTime","type":"uint256"},{"internalType":"uint256","name":"gameEndTime","type":"uint256"}],"internalType":"struct IGame.GameInfo","name":"","type":"tuple"}],"stateMutability":"view","type":"function"},{"inputs":[],"name":"getGameName","outputs":[{"internalType":"string","name":"","type":"string"}],"stateMutability":"pure","type":"function"},{"inputs":[{"internalType":"uint256","name":"gameId","type":"uint256"}],"name":"getGameState","outputs":[{"internalType":"enum GameState","name":"","type":"uint8"}],"stateMutability":"view","type":"function"},{"inputs":[],"name":"getGames","outputs":[{"components":[{"internalType":"uint256","name":"gameId","type":"uint256"},{"internalType":"enum GameState","name":"state","type":"uint8"},{"internalType":"uint256","name":"currentRound","type":"uint256"},{"internalType":"uint256","name":"activePlayerCount","type":"uint256"}],"internalType":"struct GameInstanceInfo[]","name":"gamesInfo","type":"tuple[]"}],"stateMutability":"view","type":"function"},{"inputs":[{"internalType":"address","name":"player","type":"address"}],"name":"getPlayerGameId","outputs":[{"internalType":"uint256","name":"","type":"uint256"}],"stateMutability":"view","type":"function"},{"inputs":[{"internalType":"uint256","name":"gameId","type":"uint256"}],"name":"getPlayerInfo","outputs":[{"components":[{"internalType":"address","name":"playerAddress","type":"address"},{"internalType":"uint256","name":"playerNumber","type":"uint256"},{"internalType":"bool","name":"isActive","type":"bool"},{"internalType":"uint256","name":"doorsOpened","type":"uint256"}],"internalType":"struct Doors.PlayerInfo[]","name":"","type":"tuple[]"}],"stateMutability":"view","type":"function"},{"inputs":[{"internalType":"uint256","name":"gameId","type":"uint256"},{"internalType":"address","name":"player","type":"address"}],"name":"getPlayerNumber","outputs":[{"internalType":"uint256","name":"","type":"uint256"}],"stateMutability":"view","type":"function"},{"inputs":[{"internalType":"uint256","name":"gameId","type":"uint256"}],"name":"getPlayers","outputs":[{"internalType":"address[]","name":"","type":"address[]"}],"stateMutability":"view","type":"function"},{"inputs":[],"name":"getPlayers","outputs":[{"internalType":"address[]","name":"","type":"address[]"}],"stateMutability":"view","type":"function"},{"inputs":[{"internalType":"address[]","name":"_players","type":"address[]"},{"internalType":"uint256[]","name":"_playerNumbers","type":"uint256[]"}],"name":"initialize","outputs":[],"stateMutability":"nonpayable","type":"function"},{"inputs":[{"internalType":"address","name":"","type":"address"}],"name":"isPlayerInGame","outputs":[{"internalType":"bool","name":"","type":"bool"}],"stateMutability":"view","type":"function"},{"inputs":[],"name":"openDoor","outputs":[{"internalType":"bool","name":"","type":"bool"}],"stateMutability":"nonpayable","type":"function"},{"inputs":[],"name":"owner","outputs":[{"internalType":"address","name":"","type":"address"}],"stateMutability":"view","type":"function"},{"inputs":[{"internalType":"address","name":"","type":"address"}],"name":"playerGameId","outputs":[{"internalType":"uint256","name":"","type":"uint256"}],"stateMutability":"view","type":"function"},{"inputs":[],"name":"renounceOwnership","outputs":[],"stateMutability":"nonpayable","type":"function"},{"inputs":[{"internalType":"address","name":"_newGameMaster","type":"address"}],"name":"setGameMaster","outputs":[],"stateMutability":"nonpayable","type":"function"},{"inputs":[],"name":"startGames","outputs":[{"internalType":"bool","name":"","type":"bool"}],"stateMutability":"nonpayable","type":"function"},{"inputs":[{"internalType":"address","name":"newOwner","type":"address"}],"name":"transferOwnership","outputs":[],"stateMutability":"nonpayable","type":"function"}],"evm":{"bytecode":{"linkReferences":{},"object":"60808060405234608757331560715760008054336001600160a01b0319821681178355916001600160a01b03909116907f8be0079c531659141344cd1fd0a4f28419497f9722a3daafe3b4186f6b6457e09080a3600180546001600160a01b03191633179055611f4b908161008d8239f35b631e4fbdf760e01b600052600060045260246000fd5b600080fdfe608080604052600436101561001357600080fd5b60003560e01c9081631bb412d6146112a3575080631e756ff91461123957806325b05c88146111ff578063342ed956146111a85780633532804d146110d65780633c4f5a6614611000578063460e204914610f9657806347e1d55014610eb8578063574a5b2014610e795780636cbc2ded14610c5e578063715018a614610c05578063773b549d14610bda5780637fbbe46f146108b55780638b5b9ccc146107bc5780638da5cb5b14610793578063bbda33d9146106ee578063bdf84ae7146106c5578063c04c594714610560578063c2e94927146104a5578063d0f3a21e14610404578063db0e127a146103e9578063e81de9f5146103af578063ea17532e14610214578063f2fde38b1461018b5763ffde0c741461013257600080fd5b34610186576020366003190112610186576004358015158061017a575b6101589061136b565b6000526003602052602060ff60406000205416610178604051809261132d565bf35b5060025481111561014f565b600080fd5b34610186576020366003190112610186576101a46112d4565b6101ac611a20565b6001600160a01b031680156101fe57600080546001600160a01b03198116831782556001600160a01b0316907f8be0079c531659141344cd1fd0a4f28419497f9722a3daafe3b4186f6b6457e09080a3005b631e4fbdf760e01b600052600060045260246000fd5b3461018657602036600319011261018657600435801515806103a3575b61023a9061136b565b600052600360205260406000206005810180549061025782611462565b926102656040519485611424565b828452601f1961027484611462565b0160005b81811061038c57505060006007820192600a600984019301915b858110610309578660405180916020820160208352815180915260206040840192019060005b8181106102c6575050500390f35b919350916020608060019260608751858060a01b0381511683528481015185840152604081015115156040840152015160608201520194019101918493926102b8565b8061031660019284611575565b905460a084901b84900360039290921b1c166000818152602088815260408083205489835281842054928990529281902054905193909260ff909216919061035d85611408565b8452602084015215156040830152606082015261037a828a6114ac565b5261038581896114ac565b5001610292565b6020906103976115db565b82828901015201610278565b50600254811115610231565b34610186576000366003190112610186576103d560018060a01b036001541633146114e2565b60206103df61190a565b6040519015158152f35b346101865760003660031901126101865760206103df611600565b346101865760003660031901126101865761042a60018060a01b036001541633146114e2565b60015b60025481116104a35780600052600360205260406000209060ff82541691600583101561048d57600261046c9314908161047f575b5061047157611446565b61042d565b61047a81611a49565b611446565b600191500154421183610462565b634e487b7160e01b600052602160045260246000fd5b005b34610186576020366003190112610186576104be6112d4565b6104c6611a20565b6001600160a01b0316801561051b576020817f63860f6674590a6969c4fe1dc738a9c8f955407c09e6c67a6bdb818f4c35cd8a926bffffffffffffffffffffffff60a01b6001541617600155604051908152a1005b60405162461bcd60e51b815260206004820152601a60248201527f496e76616c69642047616d654d617374657220616464726573730000000000006044820152606490fd5b346101865760003660031901126101865760025461057d81611462565b9061058b6040519283611424565b808252601f1961059a82611462565b0160005b8181106106ae57505060015b81811115610621578260405180916020820160208352815180915260206040840192019060005b8181106105df575050500390f35b91935091602060806001926060875180518352610602858201518685019061132d565b60408101516040840152015160608201520194019101918493926105d1565b80600052600360205260406000209060ff82541691600860028201549101549061065d6040519461065186611408565b848652602086016114d6565b60408401526060830152600019810191818311610698578261068d9161068661069395886114ac565b52856114ac565b50611446565b6105aa565b634e487b7160e01b600052601160045260246000fd5b6020906106b96115db565b8282870101520161059e565b34610186576000366003190112610186576001546040516001600160a01b039091168152602090f35b34610186576000366003190112610186576040516040810181811067ffffffffffffffff82111761077d576040526005815264446f6f727360d81b602082015260405190602082528181519182602083015260005b8381106107655750508160006040809484010152601f80199101168101030190f35b60208282018101516040878401015285935001610743565b634e487b7160e01b600052604160045260246000fd5b34610186576000366003190112610186576000546040516001600160a01b039091168152602090f35b3461018657600036600319011261018657600254600160005b8282111561088a576107e7915061147a565b600160005b83821115610806576040518061080285826112ea565b0390f35b61082d908260009493945260036020526108346005604060002001604051938480926113a9565b0383611424565b6000905b82518210156108745760019061086c906001600160a01b0361085a85876114ac565b511661086682886114ac565b52611446565b910190610838565b94929390506108839150611446565b90926107ec565b6108a96108af9183600052600360205260056040600020015490611455565b91611446565b906107d5565b346101865760403660031901126101865760043567ffffffffffffffff8111610186576108e690369060040161133a565b60243567ffffffffffffffff81116101865761090690369060040161133a565b909261091d60018060a01b036001541633146114e2565b8215610b9f57818303610b5a5760148301808411610698576013840190811161069857601490049160008315610b46575082849394049184840690600080958460051b965b88811061096b57005b610976600254611446565b9081600255816000526003602052604060002091600160ff19845416178355600060028401554260038401558890878310610b33575b906000915b818310610a27575050506109d3604051926040845260056040850191016113a9565b82810360208401528781526001600160fb1b038811610186578260206001948c8f94817fb66ba8feaec509998ef3217bc97fbf1a0f906b89fac25a4ace8ddff059a41f12968583013701030190a101610962565b909195610a3581878a611565565b356001600160a01b0381169790888103610186578815610af5578f92610aa782610a738f8490600198610a6e610ac5988f60050161158d565b611565565b3560408d600090815260078d016020522055604060008d815260068c01602052208660ff1982541617905560088a0161158d565b604060008b815260098a01602052208460ff19825416179055611446565b9780600052600460205283604060002055600052600560205260406000208260ff198254161790550191906109b1565b60405162461bcd60e51b8152602060048201526016602482015275496e76616c696420706c61796572206164647265737360501b6044820152606490fd5b905060018901808a1161069857906109ac565b634e487b7160e01b81526012600452602490fd5b60405162461bcd60e51b815260206004820152601860248201527f4172726179206c656e67746873206d757374206d6174636800000000000000006044820152606490fd5b60405162461bcd60e51b8152602060048201526013602482015272139bc81c1b185e595c9cc81c1c9bdd9a591959606a1b6044820152606490fd5b34610186576020366003190112610186576020610bfd610bf86112d4565b61152e565b604051908152f35b3461018657600036600319011261018657610c1e611a20565b600080546001600160a01b0319811682556001600160a01b03167f8be0079c531659141344cd1fd0a4f28419497f9722a3daafe3b4186f6b6457e08280a3005b3461018657600036600319011261018657610c8460018060a01b036001541633146114e2565b60015b6002548111610da65780600052600360205260406000209060028083015410801590610d8f575b15610d325760ff825416600581101561048d57610cd6926004839203610cdb575b5050611446565b610c87565b610d287fa7690f576eaef889ef9ef29d1eaee6c0e3b073108b66bb8009ec8af6428bb34591600460ff198254161781554260048201556040519182916020835260086020840191016113a9565b0390a28083610ccf565b60405162461bcd60e51b815260206004820152602f60248201527f4e6f7420616c6c20696e7374616e636573206861766520636f6d706c6574656460448201526e206d6178696d756d20726f756e647360881b6064820152608490fd5b5060ff825416600581101561048d57600414610cae565b600254600160005b82821115610e5457610dc0915061147a565b6000916001905b80821115610ddd576040518061080285826112ea565b61082d90826000949394526003602052610e046008604060002001604051938480926113a9565b60005b8251811015610e41576001906001600160a01b03610e2582866114ac565b5116610e3a610e3389611446565b98876114ac565b5201610e07565b509192610e4e9150611446565b90610dc7565b6108a9610e739183600052600360205260086040600020015490611455565b90610dae565b34610186576020366003190112610186576001600160a01b03610e9a6112d4565b166000526005602052602060ff604060002054166040519015158152f35b346101865760203660031901126101865760043560006080604051610edc816113ec565b828152826020820152826040820152826060820152015280151580610f8a575b610f059061136b565b600052600360205260a0604060002060ff8154169060028101549060018101546004600383015492015492610f4660405195610f40876113ec565b866114d6565b60208501908152604085019182526060850192835260808501938452610f7060405180965161132d565b516020850152516040840152516060830152516080820152f35b50600254811115610efc565b346101865760203660031901126101865760043580151580610ff4575b610fbc9061136b565b6000526003602052610802610fe1610fe86005604060002001604051928380926113a9565b0382611424565b604051918291826112ea565b50600254811115610fb3565b3461018657600036600319011261018657600254600160005b828211156110b15761102b915061147a565b600160005b83821115611046576040518061080285826112ea565b61082d9082600094939452600360205261106d6008604060002001604051938480926113a9565b6000905b825182101561109b57600190611093906001600160a01b0361085a85876114ac565b910190611071565b94929390506110aa9150611446565b9092611030565b6108a96110d09183600052600360205260086040600020015490611455565b90611019565b34610186576040366003190112610186576004356110f26112be565b908015158061119c575b6111059061136b565b806000526003602052600660406000200160018060a01b03831660005260205260ff604060002054161561116257600052600360205260076040600020019060018060a01b03166000526020526020604060002054604051908152f35b60405162461bcd60e51b8152602060048201526012602482015271506c61796572206e6f7420696e2067616d6560701b6044820152606490fd5b506002548111156110fc565b3461018657602036600319011261018657600435801515806111f3575b6111ce9061136b565b6000526003602052610802610fe1610fe86008604060002001604051928380926113a9565b506002548111156111c5565b34610186576020366003190112610186576001600160a01b036112206112d4565b1660005260046020526020604060002054604051908152f35b34610186576040366003190112610186576004356112556112be565b9080151580611297575b6112689061136b565b6000526003602052600a6040600020019060018060a01b03166000526020526020604060002054604051908152f35b5060025481111561125f565b34610186576000366003190112610186576020906002548152f35b602435906001600160a01b038216820361018657565b600435906001600160a01b038216820361018657565b602060408183019282815284518094520192019060005b81811061130e5750505090565b82516001600160a01b0316845260209384019390920191600101611301565b90600582101561048d5752565b9181601f840112156101865782359167ffffffffffffffff8311610186576020808501948460051b01011161018657565b1561137257565b60405162461bcd60e51b815260206004820152600f60248201526e125b9d985b1a590819d85b59481251608a1b6044820152606490fd5b906020825491828152019160005260206000209060005b8181106113cd5750505090565b82546001600160a01b03168452602090930192600192830192016113c0565b60a0810190811067ffffffffffffffff82111761077d57604052565b6080810190811067ffffffffffffffff82111761077d57604052565b90601f8019910116810190811067ffffffffffffffff82111761077d57604052565b60001981146106985760010190565b9190820180921161069857565b67ffffffffffffffff811161077d5760051b60200190565b9061148482611462565b6114916040519182611424565b82815280926114a2601f1991611462565b0190602036910137565b80518210156114c05760209160051b010190565b634e487b7160e01b600052603260045260246000fd5b600582101561048d5752565b156114e957565b60405162461bcd60e51b815260206004820152601860248201527f4f6e6c792047616d654d61737465722063616e2063616c6c00000000000000006044820152606490fd5b6001600160a01b031660008181526005602052604090205460ff161561155f57600052600460205260406000205490565b50600090565b91908110156114c05760051b0190565b80548210156114c05760005260206000200190600090565b908154916801000000000000000083101561077d57826115b59160016115d995018155611575565b81546001600160a01b0393841660039290921b91821b9390911b1916919091179055565b565b604051906115e882611408565b60006060838281528260208201528260408201520152565b600090338252600560205260ff604083205416156118cc573382526004602052604082205480835260036020526040832060ff81541660058110156118b85760020361188157338452600981016020819052604085205460ff1615611845576001820154421161183757338552600a820160205260408520805461168390611446565b905560001943014381116118235760019060028401546040519060208201924083524260408301523360601b606083015260748201528560948201523060601b60b482015260a881526116d760c882611424565b5190201615604051818152847f4fff61170b45e4c2809f07a4bb02837d17fcdc209a7cb683ff938c9aa374100d60203393a31561180857338086526020828152604080882054838952938252808820805460ff9586161515861660ff19918216179091558389526005808452828a2054948a529092528720805492841615159093169116179055600801805460001981019081116117f457906115b5826117816117999484611575565b905460039190911b1c6001600160a01b031692611575565b6001546001600160a01b0316803b156117f0579280806117db9495602460405180948193633ef6cf1d60e21b83528160048401525af16117e0575b5050611d3c565b600190565b816117ea91611424565b386117d4565b8380fd5b634e487b7160e01b85526011600452602485fd5b50506118209061181b9392933382611b39565b611d3c565b90565b634e487b7160e01b86526011600452602486fd5b505061182090929192611a49565b60405162461bcd60e51b81526020600482015260146024820152732737ba1030b71030b1ba34bb3290383630bcb2b960611b6044820152606490fd5b60405162461bcd60e51b815260206004820152600f60248201526e47616d65206e6f742061637469766560881b6044820152606490fd5b634e487b7160e01b85526021600452602485fd5b60405162461bcd60e51b8152602060048201526016602482015275506c61796572206e6f7420696e20616e792067616d6560501b6044820152606490fd5b600160009160015b6002548111611a105780600052600360205260406000209360ff85541690600582101561048d5760048214611a045761194a90611446565b94600160009214806119f7575b806119eb575b156119df57600281019060018255600260ff1982541617815560784201928342116119cb57506040838594936119c6969460017fa359b664a68acd8839e42112eb50eff3408165e15074fde89ddb58a0db2e691d950155549082519182526020820152a2611446565b611912565b634e487b7160e01b81526011600452602490fd5b5092506119c690611446565b5060028101541561195d565b5060088101541515611957565b9450506119c690611446565b509115611a1a5790565b50600190565b6000546001600160a01b03163303611a3457565b63118cdaa760e01b6000523360045260246000fd5b806000526003602052604060002060088101805460005b818110611af7575050507f8868888cc18628a149bc88cc32a91976ab30e2cd9aececb0cfe184a73fe551f990600460ff198254161781554260048201556002602091847fa7690f576eaef889ef9ef29d1eaee6c0e3b073108b66bb8009ec8af6428bb345611ae9604051611ad48782611424565b600081526000368137604051918291826112ea565b0390a20154604051908152a2565b6000835415611b2557838152602090205460019190611b1f906001600160a01b031687611b39565b01611a60565b634e487b7160e01b81526032600452602490fd5b90600091808352600360205260408320916009830160018060a01b03821685528060205260ff60408620541615611d035760018060a01b03821685526020526040842060ff19815416905560018060a01b03169182845260056020526040842060ff1981541690558360088201945b855480821015611cf75785611bbd8389611575565b905460039190911b1c6001600160a01b031614611bdd5750600101611ba8565b6000969293949596198101908111611ce357906115b5611c00611c199385611575565b905460039190911b1c6001600160a01b03169184611575565b80548015611ccf576000190190611c308282611575565b81549060018060a01b039060031b1b19169055555b6001546001600160a01b0316803b15611ccb5790808060079493602460405180948193633ef6cf1d60e21b83528b60048401525af1611cbb575b505083600052016020527f51479c93d7646904d2282e9e79cddf11999ac774b7fd0289e2f59cb4ad0f086a6020604060002054604051908152a3565b81611cc591611424565b38611c7f565b5080fd5b634e487b7160e01b83526031600452602483fd5b634e487b7160e01b84526011600452602484fd5b50509091929350611c45565b60405162461bcd60e51b8152602060048201526011602482015270506c61796572206e6f742061637469766560781b6044820152606490fd5b80600052600360205280604060002060028101906002825410801590611ecb575b15611ddf57907f8868888cc18628a149bc88cc32a91976ab30e2cd9aececb0cfe184a73fe551f9927fa7690f576eaef889ef9ef29d1eaee6c0e3b073108b66bb8009ec8af6428bb345611dd2602094600460ff19825416178155426004820155604051918291878352600888840191016113a9565b0390a254604051908152a2565b805460ff19166003179055546040519081527f8868888cc18628a149bc88cc32a91976ab30e2cd9aececb0cfe184a73fe551f990602090a2806000526003602052604060002060ff815416600581101561048d5760031480611ebe575b80611eb1575b611e4a575050565b604081600160027fa359b664a68acd8839e42112eb50eff3408165e15074fde89ddb58a0db2e691d9401611e7e8154611446565b8155825460ff191660021783555491611e9f611e9984611eda565b42611455565b918291015582519182526020820152a2565b5060028082015410611e42565b5060088101541515611e3c565b50600160088201541115611d5d565b60001981019081116106985760068102908082046006149015171561069857603c8111611f0f57607803607881116106985790565b50603c9056fea2646970667358221220dee3b1b6515d30e0b857de2ee8160ed8d29ecb11d393b248d073dc4287ec3af864736f6c634300081c0033","opcodes":"PUSH1 0x80 DUP1 PUSH1 0x40 MSTORE CALLVALUE PUSH1 0x87 JUMPI CALLER ISZERO PUSH1 0x71 JUMPI PUSH1 0x0 DUP1 SLOAD CALLER PUSH1 0x1 PUSH1 0x1 PUSH1 0xA0 SHL SUB NOT DUP3 AND DUP2 OR DUP4 SSTORE SWAP2 PUSH1 0x1 PUSH1 0x1 PUSH1 0xA0 SHL SUB SWAP1 SWAP2 AND SWAP1 PUSH32 0x8BE0079C531659141344CD1FD0A4F28419497F9722A3DAAFE3B4186F6B6457E0 SWAP1 DUP1 LOG3 PUSH1 0x1 DUP1 SLOAD PUSH1 0x1 PUSH1 0x1 PUSH1 0xA0 SHL SUB NOT AND CALLER OR SWAP1 SSTORE PUSH2 0x1F4B SWAP1 DUP2 PUSH2 0x8D DUP3 CODECOPY RETURN JUMPDEST PUSH4 0x1E4FBDF7 PUSH1 0xE0 SHL PUSH1 0x0 MSTORE PUSH1 0x0 PUSH1 0x4 MSTORE PUSH1 0x24 PUSH1 0x0 REVERT JUMPDEST PUSH1 0x0 DUP1 REVERT INVALID PUSH1 0x80 DUP1 PUSH1 0x40 MSTORE PUSH1 0x4 CALLDATASIZE LT ISZERO PUSH2 0x13 JUMPI PUSH1 0x0 DUP1 REVERT JUMPDEST PUSH1 0x0 CALLDATALOAD PUSH1 0xE0 SHR SWAP1 DUP2 PUSH4 0x1BB412D6 EQ PUSH2 0x12A3 JUMPI POP DUP1 PUSH4 0x1E756FF9 EQ PUSH2 0x1239 JUMPI DUP1 PUSH4 0x25B05C88 EQ PUSH2 0x11FF JUMPI DUP1 PUSH4 0x342ED956 EQ PUSH2 0x11A8 JUMPI DUP1 PUSH4 0x3532804D EQ PUSH2 0x10D6 JUMPI DUP1 PUSH4 0x3C4F5A66 EQ PUSH2 0x1000 JUMPI DUP1 PUSH4 0x460E2049 EQ PUSH2 0xF96 JUMPI DUP1 PUSH4 0x47E1D550 EQ PUSH2 0xEB8 JUMPI DUP1 PUSH4 0x574A5B20 EQ PUSH2 0xE79 JUMPI DUP1 PUSH4 0x6CBC2DED EQ PUSH2 0xC5E JUMPI DUP1 PUSH4 0x715018A6 EQ PUSH2 0xC05 JUMPI DUP1 PUSH4 0x773B549D EQ PUSH2 0xBDA JUMPI DUP1 PUSH4 0x7FBBE46F EQ PUSH2 0x8B5 JUMPI DUP1 PUSH4 0x8B5B9CCC EQ PUSH2 0x7BC JUMPI DUP1 PUSH4 0x8DA5CB5B EQ PUSH2 0x793 JUMPI DUP1 PUSH4 0xBBDA33D9 EQ PUSH2 0x6EE JUMPI DUP1 PUSH4 0xBDF84AE7 EQ PUSH2 0x6C5 JUMPI DUP1 PUSH4 0xC04C5947 EQ PUSH2 0x560 JUMPI DUP1 PUSH4 0xC2E94927 EQ PUSH2 0x4A5 JUMPI DUP1 PUSH4 0xD0F3A21E EQ PUSH2 0x404 JUMPI DUP1 PUSH4 0xDB0E127A EQ PUSH2 0x3E9 JUMPI DUP1 PUSH4 0xE81DE9F5 EQ PUSH2 0x3AF JUMPI DUP1 PUSH4 0xEA17532E EQ PUSH2 0x214 JUMPI DUP1 PUSH4 0xF2FDE38B EQ PUSH2 0x18B JUMPI PUSH4 0xFFDE0C74 EQ PUSH2 0x132 JUMPI PUSH1 0x0 DUP1 REVERT JUMPDEST CALLVALUE PUSH2 0x186 JUMPI PUSH1 0x20 CALLDATASIZE PUSH1 0x3 NOT ADD SLT PUSH2 0x186 JUMPI PUSH1 0x4 CALLDATALOAD DUP1 ISZERO ISZERO DUP1 PUSH2 0x17A JUMPI JUMPDEST PUSH2 0x158 SWAP1 PUSH2 0x136B JUMP JUMPDEST PUSH1 0x0 MSTORE PUSH1 0x3 PUSH1 0x20 MSTORE PUSH1 0x20 PUSH1 0xFF PUSH1 0x40 PUSH1 0x0 KECCAK256 SLOAD AND PUSH2 0x178 PUSH1 0x40 MLOAD DUP1 SWAP3 PUSH2 0x132D JUMP JUMPDEST RETURN JUMPDEST POP PUSH1 0x2 SLOAD DUP2 GT ISZERO PUSH2 0x14F JUMP JUMPDEST PUSH1 0x0 DUP1 REVERT JUMPDEST CALLVALUE PUSH2 0x186 JUMPI PUSH1 0x20 CALLDATASIZE PUSH1 0x3 NOT ADD SLT PUSH2 0x186 JUMPI PUSH2 0x1A4 PUSH2 0x12D4 JUMP JUMPDEST PUSH2 0x1AC PUSH2 0x1A20 JUMP JUMPDEST PUSH1 0x1 PUSH1 0x1 PUSH1 0xA0 SHL SUB AND DUP1 ISZERO PUSH2 0x1FE JUMPI PUSH1 0x0 DUP1 SLOAD PUSH1 0x1 PUSH1 0x1 PUSH1 0xA0 SHL SUB NOT DUP2 AND DUP4 OR DUP3 SSTORE PUSH1 0x1 PUSH1 0x1 PUSH1 0xA0 SHL SUB AND SWAP1 PUSH32 0x8BE0079C531659141344CD1FD0A4F28419497F9722A3DAAFE3B4186F6B6457E0 SWAP1 DUP1 LOG3 STOP JUMPDEST PUSH4 0x1E4FBDF7 PUSH1 0xE0 SHL PUSH1 0x0 MSTORE PUSH1 0x0 PUSH1 0x4 MSTORE PUSH1 0x24 PUSH1 0x0 REVERT JUMPDEST CALLVALUE PUSH2 0x186 JUMPI PUSH1 0x20 CALLDATASIZE PUSH1 0x3 NOT ADD SLT PUSH2 0x186 JUMPI PUSH1 0x4 CALLDATALOAD DUP1 ISZERO ISZERO DUP1 PUSH2 0x3A3 JUMPI JUMPDEST PUSH2 0x23A SWAP1 PUSH2 0x136B JUMP JUMPDEST PUSH1 0x0 MSTORE PUSH1 0x3 PUSH1 0x20 MSTORE PUSH1 0x40 PUSH1 0x0 KECCAK256 PUSH1 0x5 DUP2 ADD DUP1 SLOAD SWAP1 PUSH2 0x257 DUP3 PUSH2 0x1462 JUMP JUMPDEST SWAP3 PUSH2 0x265 PUSH1 0x40 MLOAD SWAP5 DUP6 PUSH2 0x1424 JUMP JUMPDEST DUP3 DUP5 MSTORE PUSH1 0x1F NOT PUSH2 0x274 DUP5 PUSH2 0x1462 JUMP JUMPDEST ADD PUSH1 0x0 JUMPDEST DUP2 DUP2 LT PUSH2 0x38C JUMPI POP POP PUSH1 0x0 PUSH1 0x7 DUP3 ADD SWAP3 PUSH1 0xA PUSH1 0x9 DUP5 ADD SWAP4 ADD SWAP2 JUMPDEST DUP6 DUP2 LT PUSH2 0x309 JUMPI DUP7 PUSH1 0x40 MLOAD DUP1 SWAP2 PUSH1 0x20 DUP3 ADD PUSH1 0x20 DUP4 MSTORE DUP2 MLOAD DUP1 SWAP2 MSTORE PUSH1 0x20 PUSH1 0x40 DUP5 ADD SWAP3 ADD SWAP1 PUSH1 0x0 JUMPDEST DUP2 DUP2 LT PUSH2 0x2C6 JUMPI POP POP POP SUB SWAP1 RETURN JUMPDEST SWAP2 SWAP4 POP SWAP2 PUSH1 0x20 PUSH1 0x80 PUSH1 0x1 SWAP3 PUSH1 0x60 DUP8 MLOAD DUP6 DUP1 PUSH1 0xA0 SHL SUB DUP2 MLOAD AND DUP4 MSTORE DUP5 DUP2 ADD MLOAD DUP6 DUP5 ADD MSTORE PUSH1 0x40 DUP2 ADD MLOAD ISZERO ISZERO PUSH1 0x40 DUP5 ADD MSTORE ADD MLOAD PUSH1 0x60 DUP3 ADD MSTORE ADD SWAP5 ADD SWAP2 ADD SWAP2 DUP5 SWAP4 SWAP3 PUSH2 0x2B8 JUMP JUMPDEST DUP1 PUSH2 0x316 PUSH1 0x1 SWAP3 DUP5 PUSH2 0x1575 JUMP JUMPDEST SWAP1 SLOAD PUSH1 0xA0 DUP5 SWAP1 SHL DUP5 SWAP1 SUB PUSH1 0x3 SWAP3 SWAP1 SWAP3 SHL SHR AND PUSH1 0x0 DUP2 DUP2 MSTORE PUSH1 0x20 DUP9 DUP2 MSTORE PUSH1 0x40 DUP1 DUP4 KECCAK256 SLOAD DUP10 DUP4 MSTORE DUP2 DUP5 KECCAK256 SLOAD SWAP3 DUP10 SWAP1 MSTORE SWAP3 DUP2 SWAP1 KECCAK256 SLOAD SWAP1 MLOAD SWAP4 SWAP1 SWAP3 PUSH1 0xFF SWAP1 SWAP3 AND SWAP2 SWAP1 PUSH2 0x35D DUP6 PUSH2 0x1408 JUMP JUMPDEST DUP5 MSTORE PUSH1 0x20 DUP5 ADD MSTORE ISZERO ISZERO PUSH1 0x40 DUP4 ADD MSTORE PUSH1 0x60 DUP3 ADD MSTORE PUSH2 0x37A DUP3 DUP11 PUSH2 0x14AC JUMP JUMPDEST MSTORE PUSH2 0x385 DUP2 DUP10 PUSH2 0x14AC JUMP JUMPDEST POP ADD PUSH2 0x292 JUMP JUMPDEST PUSH1 0x20 SWAP1 PUSH2 0x397 PUSH2 0x15DB JUMP JUMPDEST DUP3 DUP3 DUP10 ADD ADD MSTORE ADD PUSH2 0x278 JUMP JUMPDEST POP PUSH1 0x2 SLOAD DUP2 GT ISZERO PUSH2 0x231 JUMP JUMPDEST CALLVALUE PUSH2 0x186 JUMPI PUSH1 0x0 CALLDATASIZE PUSH1 0x3 NOT ADD SLT PUSH2 0x186 JUMPI PUSH2 0x3D5 PUSH1 0x1 DUP1 PUSH1 0xA0 SHL SUB PUSH1 0x1 SLOAD AND CALLER EQ PUSH2 0x14E2 JUMP JUMPDEST PUSH1 0x20 PUSH2 0x3DF PUSH2 0x190A JUMP JUMPDEST PUSH1 0x40 MLOAD SWAP1 ISZERO ISZERO DUP2 MSTORE RETURN JUMPDEST CALLVALUE PUSH2 0x186 JUMPI PUSH1 0x0 CALLDATASIZE PUSH1 0x3 NOT ADD SLT PUSH2 0x186 JUMPI PUSH1 0x20 PUSH2 0x3DF PUSH2 0x1600 JUMP JUMPDEST CALLVALUE PUSH2 0x186 JUMPI PUSH1 0x0 CALLDATASIZE PUSH1 0x3 NOT ADD SLT PUSH2 0x186 JUMPI PUSH2 0x42A PUSH1 0x1 DUP1 PUSH1 0xA0 SHL SUB PUSH1 0x1 SLOAD AND CALLER EQ PUSH2 0x14E2 JUMP JUMPDEST PUSH1 0x1 JUMPDEST PUSH1 0x2 SLOAD DUP2 GT PUSH2 0x4A3 JUMPI DUP1 PUSH1 0x0 MSTORE PUSH1 0x3 PUSH1 0x20 MSTORE PUSH1 0x40 PUSH1 0x0 KECCAK256 SWAP1 PUSH1 0xFF DUP3 SLOAD AND SWAP2 PUSH1 0x5 DUP4 LT ISZERO PUSH2 0x48D JUMPI PUSH1 0x2 PUSH2 0x46C SWAP4 EQ SWAP1 DUP2 PUSH2 0x47F JUMPI JUMPDEST POP PUSH2 0x471 JUMPI PUSH2 0x1446 JUMP JUMPDEST PUSH2 0x42D JUMP JUMPDEST PUSH2 0x47A DUP2 PUSH2 0x1A49 JUMP JUMPDEST PUSH2 0x1446 JUMP JUMPDEST PUSH1 0x1 SWAP2 POP ADD SLOAD TIMESTAMP GT DUP4 PUSH2 0x462 JUMP JUMPDEST PUSH4 0x4E487B71 PUSH1 0xE0 SHL PUSH1 0x0 MSTORE PUSH1 0x21 PUSH1 0x4 MSTORE PUSH1 0x24 PUSH1 0x0 REVERT JUMPDEST STOP JUMPDEST CALLVALUE PUSH2 0x186 JUMPI PUSH1 0x20 CALLDATASIZE PUSH1 0x3 NOT ADD SLT PUSH2 0x186 JUMPI PUSH2 0x4BE PUSH2 0x12D4 JUMP JUMPDEST PUSH2 0x4C6 PUSH2 0x1A20 JUMP JUMPDEST PUSH1 0x1 PUSH1 0x1 PUSH1 0xA0 SHL SUB AND DUP1 ISZERO PUSH2 0x51B JUMPI PUSH1 0x20 DUP2 PUSH32 0x63860F6674590A6969C4FE1DC738A9C8F955407C09E6C67A6BDB818F4C35CD8A SWAP3 PUSH12 0xFFFFFFFFFFFFFFFFFFFFFFFF PUSH1 0xA0 SHL PUSH1 0x1 SLOAD AND OR PUSH1 0x1 SSTORE PUSH1 0x40 MLOAD SWAP1 DUP2 MSTORE LOG1 STOP JUMPDEST PUSH1 0x40 MLOAD PUSH3 0x461BCD PUSH1 0xE5 SHL DUP2 MSTORE PUSH1 0x20 PUSH1 0x4 DUP3 ADD MSTORE PUSH1 0x1A PUSH1 0x24 DUP3 ADD MSTORE PUSH32 0x496E76616C69642047616D654D61737465722061646472657373000000000000 PUSH1 0x44 DUP3 ADD MSTORE PUSH1 0x64 SWAP1 REVERT JUMPDEST CALLVALUE PUSH2 0x186 JUMPI PUSH1 0x0 CALLDATASIZE PUSH1 0x3 NOT ADD SLT PUSH2 0x186 JUMPI PUSH1 0x2 SLOAD PUSH2 0x57D DUP2 PUSH2 0x1462 JUMP JUMPDEST SWAP1 PUSH2 0x58B PUSH1 0x40 MLOAD SWAP3 DUP4 PUSH2 0x1424 JUMP JUMPDEST DUP1 DUP3 MSTORE PUSH1 0x1F NOT PUSH2 0x59A DUP3 PUSH2 0x1462 JUMP JUMPDEST ADD PUSH1 0x0 JUMPDEST DUP2 DUP2 LT PUSH2 0x6AE JUMPI POP POP PUSH1 0x1 JUMPDEST DUP2 DUP2 GT ISZERO PUSH2 0x621 JUMPI DUP3 PUSH1 0x40 MLOAD DUP1 SWAP2 PUSH1 0x20 DUP3 ADD PUSH1 0x20 DUP4 MSTORE DUP2 MLOAD DUP1 SWAP2 MSTORE PUSH1 0x20 PUSH1 0x40 DUP5 ADD SWAP3 ADD SWAP1 PUSH1 0x0 JUMPDEST DUP2 DUP2 LT PUSH2 0x5DF JUMPI POP POP POP SUB SWAP1 RETURN JUMPDEST SWAP2 SWAP4 POP SWAP2 PUSH1 0x20 PUSH1 0x80 PUSH1 0x1 SWAP3 PUSH1 0x60 DUP8 MLOAD DUP1 MLOAD DUP4 MSTORE PUSH2 0x602 DUP6 DUP3 ADD MLOAD DUP7 DUP6 ADD SWAP1 PUSH2 0x132D JUMP JUMPDEST PUSH1 0x40 DUP2 ADD MLOAD PUSH1 0x40 DUP5 ADD MSTORE ADD MLOAD PUSH1 0x60 DUP3 ADD MSTORE ADD SWAP5 ADD SWAP2 ADD SWAP2 DUP5 SWAP4 SWAP3 PUSH2 0x5D1 JUMP JUMPDEST DUP1 PUSH1 0x0 MSTORE PUSH1 0x3 PUSH1 0x20 MSTORE PUSH1 0x40 PUSH1 0x0 KECCAK256 SWAP1 PUSH1 0xFF DUP3 SLOAD AND SWAP2 PUSH1 0x8 PUSH1 0x2 DUP3 ADD SLOAD SWAP2 ADD SLOAD SWAP1 PUSH2 0x65D PUSH1 0x40 MLOAD SWAP5 PUSH2 0x651 DUP7 PUSH2 0x1408 JUMP JUMPDEST DUP5 DUP7 MSTORE PUSH1 0x20 DUP7 ADD PUSH2 0x14D6 JUMP JUMPDEST PUSH1 0x40 DUP5 ADD MSTORE PUSH1 0x60 DUP4 ADD MSTORE PUSH1 0x0 NOT DUP2 ADD SWAP2 DUP2 DUP4 GT PUSH2 0x698 JUMPI DUP3 PUSH2 0x68D SWAP2 PUSH2 0x686 PUSH2 0x693 SWAP6 DUP9 PUSH2 0x14AC JUMP JUMPDEST MSTORE DUP6 PUSH2 0x14AC JUMP JUMPDEST POP PUSH2 0x1446 JUMP JUMPDEST PUSH2 0x5AA JUMP JUMPDEST PUSH4 0x4E487B71 PUSH1 0xE0 SHL PUSH1 0x0 MSTORE PUSH1 0x11 PUSH1 0x4 MSTORE PUSH1 0x24 PUSH1 0x0 REVERT JUMPDEST PUSH1 0x20 SWAP1 PUSH2 0x6B9 PUSH2 0x15DB JUMP JUMPDEST DUP3 DUP3 DUP8 ADD ADD MSTORE ADD PUSH2 0x59E JUMP JUMPDEST CALLVALUE PUSH2 0x186 JUMPI PUSH1 0x0 CALLDATASIZE PUSH1 0x3 NOT ADD SLT PUSH2 0x186 JUMPI PUSH1 0x1 SLOAD PUSH1 0x40 MLOAD PUSH1 0x1 PUSH1 0x1 PUSH1 0xA0 SHL SUB SWAP1 SWAP2 AND DUP2 MSTORE PUSH1 0x20 SWAP1 RETURN JUMPDEST CALLVALUE PUSH2 0x186 JUMPI PUSH1 0x0 CALLDATASIZE PUSH1 0x3 NOT ADD SLT PUSH2 0x186 JUMPI PUSH1 0x40 MLOAD PUSH1 0x40 DUP2 ADD DUP2 DUP2 LT PUSH8 0xFFFFFFFFFFFFFFFF DUP3 GT OR PUSH2 0x77D JUMPI PUSH1 0x40 MSTORE PUSH1 0x5 DUP2 MSTORE PUSH5 0x446F6F7273 PUSH1 0xD8 SHL PUSH1 0x20 DUP3 ADD MSTORE PUSH1 0x40 MLOAD SWAP1 PUSH1 0x20 DUP3 MSTORE DUP2 DUP2 MLOAD SWAP2 DUP3 PUSH1 0x20 DUP4 ADD MSTORE PUSH1 0x0 JUMPDEST DUP4 DUP2 LT PUSH2 0x765 JUMPI POP POP DUP2 PUSH1 0x0 PUSH1 0x40 DUP1 SWAP5 DUP5 ADD ADD MSTORE PUSH1 0x1F DUP1 NOT SWAP2 ADD AND DUP2 ADD SUB ADD SWAP1 RETURN JUMPDEST PUSH1 0x20 DUP3 DUP3 ADD DUP2 ADD MLOAD PUSH1 0x40 DUP8 DUP5 ADD ADD MSTORE DUP6 SWAP4 POP ADD PUSH2 0x743 JUMP JUMPDEST PUSH4 0x4E487B71 PUSH1 0xE0 SHL PUSH1 0x0 MSTORE PUSH1 0x41 PUSH1 0x4 MSTORE PUSH1 0x24 PUSH1 0x0 REVERT JUMPDEST CALLVALUE PUSH2 0x186 JUMPI PUSH1 0x0 CALLDATASIZE PUSH1 0x3 NOT ADD SLT PUSH2 0x186 JUMPI PUSH1 0x0 SLOAD PUSH1 0x40 MLOAD PUSH1 0x1 PUSH1 0x1 PUSH1 0xA0 SHL SUB SWAP1 SWAP2 AND DUP2 MSTORE PUSH1 0x20 SWAP1 RETURN JUMPDEST CALLVALUE PUSH2 0x186 JUMPI PUSH1 0x0 CALLDATASIZE PUSH1 0x3 NOT ADD SLT PUSH2 0x186 JUMPI PUSH1 0x2 SLOAD PUSH1 0x1 PUSH1 0x0 JUMPDEST DUP3 DUP3 GT ISZERO PUSH2 0x88A JUMPI PUSH2 0x7E7 SWAP2 POP PUSH2 0x147A JUMP JUMPDEST PUSH1 0x1 PUSH1 0x0 JUMPDEST DUP4 DUP3 GT ISZERO PUSH2 0x806 JUMPI PUSH1 0x40 MLOAD DUP1 PUSH2 0x802 DUP6 DUP3 PUSH2 0x12EA JUMP JUMPDEST SUB SWAP1 RETURN JUMPDEST PUSH2 0x82D SWAP1 DUP3 PUSH1 0x0 SWAP5 SWAP4 SWAP5 MSTORE PUSH1 0x3 PUSH1 0x20 MSTORE PUSH2 0x834 PUSH1 0x5 PUSH1 0x40 PUSH1 0x0 KECCAK256 ADD PUSH1 0x40 MLOAD SWAP4 DUP5 DUP1 SWAP3 PUSH2 0x13A9 JUMP JUMPDEST SUB DUP4 PUSH2 0x1424 JUMP JUMPDEST PUSH1 0x0 SWAP1 JUMPDEST DUP3 MLOAD DUP3 LT ISZERO PUSH2 0x874 JUMPI PUSH1 0x1 SWAP1 PUSH2 0x86C SWAP1 PUSH1 0x1 PUSH1 0x1 PUSH1 0xA0 SHL SUB PUSH2 0x85A DUP6 DUP8 PUSH2 0x14AC JUMP JUMPDEST MLOAD AND PUSH2 0x866 DUP3 DUP9 PUSH2 0x14AC JUMP JUMPDEST MSTORE PUSH2 0x1446 JUMP JUMPDEST SWAP2 ADD SWAP1 PUSH2 0x838 JUMP JUMPDEST SWAP5 SWAP3 SWAP4 SWAP1 POP PUSH2 0x883 SWAP2 POP PUSH2 0x1446 JUMP JUMPDEST SWAP1 SWAP3 PUSH2 0x7EC JUMP JUMPDEST PUSH2 0x8A9 PUSH2 0x8AF SWAP2 DUP4 PUSH1 0x0 MSTORE PUSH1 0x3 PUSH1 0x20 MSTORE PUSH1 0x5 PUSH1 0x40 PUSH1 0x0 KECCAK256 ADD SLOAD SWAP1 PUSH2 0x1455 JUMP JUMPDEST SWAP2 PUSH2 0x1446 JUMP JUMPDEST SWAP1 PUSH2 0x7D5 JUMP JUMPDEST CALLVALUE PUSH2 0x186 JUMPI PUSH1 0x40 CALLDATASIZE PUSH1 0x3 NOT ADD SLT PUSH2 0x186 JUMPI PUSH1 0x4 CALLDATALOAD PUSH8 0xFFFFFFFFFFFFFFFF DUP2 GT PUSH2 0x186 JUMPI PUSH2 0x8E6 SWAP1 CALLDATASIZE SWAP1 PUSH1 0x4 ADD PUSH2 0x133A JUMP JUMPDEST PUSH1 0x24 CALLDATALOAD PUSH8 0xFFFFFFFFFFFFFFFF DUP2 GT PUSH2 0x186 JUMPI PUSH2 0x906 SWAP1 CALLDATASIZE SWAP1 PUSH1 0x4 ADD PUSH2 0x133A JUMP JUMPDEST SWAP1 SWAP3 PUSH2 0x91D PUSH1 0x1 DUP1 PUSH1 0xA0 SHL SUB PUSH1 0x1 SLOAD AND CALLER EQ PUSH2 0x14E2 JUMP JUMPDEST DUP3 ISZERO PUSH2 0xB9F JUMPI DUP2 DUP4 SUB PUSH2 0xB5A JUMPI PUSH1 0x14 DUP4 ADD DUP1 DUP5 GT PUSH2 0x698 JUMPI PUSH1 0x13 DUP5 ADD SWAP1 DUP2 GT PUSH2 0x698 JUMPI PUSH1 0x14 SWAP1 DIV SWAP2 PUSH1 0x0 DUP4 ISZERO PUSH2 0xB46 JUMPI POP DUP3 DUP5 SWAP4 SWAP5 DIV SWAP2 DUP5 DUP5 MOD SWAP1 PUSH1 0x0 DUP1 SWAP6 DUP5 PUSH1 0x5 SHL SWAP7 JUMPDEST DUP9 DUP2 LT PUSH2 0x96B JUMPI STOP JUMPDEST PUSH2 0x976 PUSH1 0x2 SLOAD PUSH2 0x1446 JUMP JUMPDEST SWAP1 DUP2 PUSH1 0x2 SSTORE DUP2 PUSH1 0x0 MSTORE PUSH1 0x3 PUSH1 0x20 MSTORE PUSH1 0x40 PUSH1 0x0 KECCAK256 SWAP2 PUSH1 0x1 PUSH1 0xFF NOT DUP5 SLOAD AND OR DUP4 SSTORE PUSH1 0x0 PUSH1 0x2 DUP5 ADD SSTORE TIMESTAMP PUSH1 0x3 DUP5 ADD SSTORE DUP9 SWAP1 DUP8 DUP4 LT PUSH2 0xB33 JUMPI JUMPDEST SWAP1 PUSH1 0x0 SWAP2 JUMPDEST DUP2 DUP4 LT PUSH2 0xA27 JUMPI POP POP POP PUSH2 0x9D3 PUSH1 0x40 MLOAD SWAP3 PUSH1 0x40 DUP5 MSTORE PUSH1 0x5 PUSH1 0x40 DUP6 ADD SWAP2 ADD PUSH2 0x13A9 JUMP JUMPDEST DUP3 DUP2 SUB PUSH1 0x20 DUP5 ADD MSTORE DUP8 DUP2 MSTORE PUSH1 0x1 PUSH1 0x1 PUSH1 0xFB SHL SUB DUP9 GT PUSH2 0x186 JUMPI DUP3 PUSH1 0x20 PUSH1 0x1 SWAP5 DUP13 DUP16 SWAP5 DUP2 PUSH32 0xB66BA8FEAEC509998EF3217BC97FBF1A0F906B89FAC25A4ACE8DDFF059A41F12 SWAP7 DUP6 DUP4 ADD CALLDATACOPY ADD SUB ADD SWAP1 LOG1 ADD PUSH2 0x962 JUMP JUMPDEST SWAP1 SWAP2 SWAP6 PUSH2 0xA35 DUP2 DUP8 DUP11 PUSH2 0x1565 JUMP JUMPDEST CALLDATALOAD PUSH1 0x1 PUSH1 0x1 PUSH1 0xA0 SHL SUB DUP2 AND SWAP8 SWAP1 DUP9 DUP2 SUB PUSH2 0x186 JUMPI DUP9 ISZERO PUSH2 0xAF5 JUMPI DUP16 SWAP3 PUSH2 0xAA7 DUP3 PUSH2 0xA73 DUP16 DUP5 SWAP1 PUSH1 0x1 SWAP9 PUSH2 0xA6E PUSH2 0xAC5 SWAP9 DUP16 PUSH1 0x5 ADD PUSH2 0x158D JUMP JUMPDEST PUSH2 0x1565 JUMP JUMPDEST CALLDATALOAD PUSH1 0x40 DUP14 PUSH1 0x0 SWAP1 DUP2 MSTORE PUSH1 0x7 DUP14 ADD PUSH1 0x20 MSTORE KECCAK256 SSTORE PUSH1 0x40 PUSH1 0x0 DUP14 DUP2 MSTORE PUSH1 0x6 DUP13 ADD PUSH1 0x20 MSTORE KECCAK256 DUP7 PUSH1 0xFF NOT DUP3 SLOAD AND OR SWAP1 SSTORE PUSH1 0x8 DUP11 ADD PUSH2 0x158D JUMP JUMPDEST PUSH1 0x40 PUSH1 0x0 DUP12 DUP2 MSTORE PUSH1 0x9 DUP11 ADD PUSH1 0x20 MSTORE KECCAK256 DUP5 PUSH1 0xFF NOT DUP3 SLOAD AND OR SWAP1 SSTORE PUSH2 0x1446 JUMP JUMPDEST SWAP8 DUP1 PUSH1 0x0 MSTORE PUSH1 0x4 PUSH1 0x20 MSTORE DUP4 PUSH1 0x40 PUSH1 0x0 KECCAK256 SSTORE PUSH1 0x0 MSTORE PUSH1 0x5 PUSH1 0x20 MSTORE PUSH1 0x40 PUSH1 0x0 KECCAK256 DUP3 PUSH1 0xFF NOT DUP3 SLOAD AND OR SWAP1 SSTORE ADD SWAP2 SWAP1 PUSH2 0x9B1 JUMP JUMPDEST PUSH1 0x40 MLOAD PUSH3 0x461BCD PUSH1 0xE5 SHL DUP2 MSTORE PUSH1 0x20 PUSH1 0x4 DUP3 ADD MSTORE PUSH1 0x16 PUSH1 0x24 DUP3 ADD MSTORE PUSH22 0x496E76616C696420706C617965722061646472657373 PUSH1 0x50 SHL PUSH1 0x44 DUP3 ADD MSTORE PUSH1 0x64 SWAP1 REVERT JUMPDEST SWAP1 POP PUSH1 0x1 DUP10 ADD DUP1 DUP11 GT PUSH2 0x698 JUMPI SWAP1 PUSH2 0x9AC JUMP JUMPDEST PUSH4 0x4E487B71 PUSH1 0xE0 SHL DUP2 MSTORE PUSH1 0x12 PUSH1 0x4 MSTORE PUSH1 0x24 SWAP1 REVERT JUMPDEST PUSH1 0x40 MLOAD PUSH3 0x461BCD PUSH1 0xE5 SHL DUP2 MSTORE PUSH1 0x20 PUSH1 0x4 DUP3 ADD MSTORE PUSH1 0x18 PUSH1 0x24 DUP3 ADD MSTORE PUSH32 0x4172726179206C656E67746873206D757374206D617463680000000000000000 PUSH1 0x44 DUP3 ADD MSTORE PUSH1 0x64 SWAP1 REVERT JUMPDEST PUSH1 0x40 MLOAD PUSH3 0x461BCD PUSH1 0xE5 SHL DUP2 MSTORE PUSH1 0x20 PUSH1 0x4 DUP3 ADD MSTORE PUSH1 0x13 PUSH1 0x24 DUP3 ADD MSTORE PUSH19 0x139BC81C1B185E595C9CC81C1C9BDD9A591959 PUSH1 0x6A SHL PUSH1 0x44 DUP3 ADD MSTORE PUSH1 0x64 SWAP1 REVERT JUMPDEST CALLVALUE PUSH2 0x186 JUMPI PUSH1 0x20 CALLDATASIZE PUSH1 0x3 NOT ADD SLT PUSH2 0x186 JUMPI PUSH1 0x20 PUSH2 0xBFD PUSH2 0xBF8 PUSH2 0x12D4 JUMP JUMPDEST PUSH2 0x152E JUMP JUMPDEST PUSH1 0x40 MLOAD SWAP1 DUP2 MSTORE RETURN JUMPDEST CALLVALUE PUSH2 0x186 JUMPI PUSH1 0x0 CALLDATASIZE PUSH1 0x3 NOT ADD SLT PUSH2 0x186 JUMPI PUSH2 0xC1E PUSH2 0x1A20 JUMP JUMPDEST PUSH1 0x0 DUP1 SLOAD PUSH1 0x1 PUSH1 0x1 PUSH1 0xA0 SHL SUB NOT DUP2 AND DUP3 SSTORE PUSH1 0x1 PUSH1 0x1 PUSH1 0xA0 SHL SUB AND PUSH32 0x8BE0079C531659141344CD1FD0A4F28419497F9722A3DAAFE3B4186F6B6457E0 DUP3 DUP1 LOG3 STOP JUMPDEST CALLVALUE PUSH2 0x186 JUMPI PUSH1 0x0 CALLDATASIZE PUSH1 0x3 NOT ADD SLT PUSH2 0x186 JUMPI PUSH2 0xC84 PUSH1 0x1 DUP1 PUSH1 0xA0 SHL SUB PUSH1 0x1 SLOAD AND CALLER EQ PUSH2 0x14E2 JUMP JUMPDEST PUSH1 0x1 JUMPDEST PUSH1 0x2 SLOAD DUP2 GT PUSH2 0xDA6 JUMPI DUP1 PUSH1 0x0 MSTORE PUSH1 0x3 PUSH1 0x20 MSTORE PUSH1 0x40 PUSH1 0x0 KECCAK256 SWAP1 PUSH1 0x2 DUP1 DUP4 ADD SLOAD LT DUP1 ISZERO SWAP1 PUSH2 0xD8F JUMPI JUMPDEST ISZERO PUSH2 0xD32 JUMPI PUSH1 0xFF DUP3 SLOAD AND PUSH1 0x5 DUP2 LT ISZERO PUSH2 0x48D JUMPI PUSH2 0xCD6 SWAP3 PUSH1 0x4 DUP4 SWAP3 SUB PUSH2 0xCDB JUMPI JUMPDEST POP POP PUSH2 0x1446 JUMP JUMPDEST PUSH2 0xC87 JUMP JUMPDEST PUSH2 0xD28 PUSH32 0xA7690F576EAEF889EF9EF29D1EAEE6C0E3B073108B66BB8009EC8AF6428BB345 SWAP2 PUSH1 0x4 PUSH1 0xFF NOT DUP3 SLOAD AND OR DUP2 SSTORE TIMESTAMP PUSH1 0x4 DUP3 ADD SSTORE PUSH1 0x40 MLOAD SWAP2 DUP3 SWAP2 PUSH1 0x20 DUP4 MSTORE PUSH1 0x8 PUSH1 0x20 DUP5 ADD SWAP2 ADD PUSH2 0x13A9 JUMP JUMPDEST SUB SWAP1 LOG2 DUP1 DUP4 PUSH2 0xCCF JUMP JUMPDEST PUSH1 0x40 MLOAD PUSH3 0x461BCD PUSH1 0xE5 SHL DUP2 MSTORE PUSH1 0x20 PUSH1 0x4 DUP3 ADD MSTORE PUSH1 0x2F PUSH1 0x24 DUP3 ADD MSTORE PUSH32 0x4E6F7420616C6C20696E7374616E636573206861766520636F6D706C65746564 PUSH1 0x44 DUP3 ADD MSTORE PUSH15 0x206D6178696D756D20726F756E6473 PUSH1 0x88 SHL PUSH1 0x64 DUP3 ADD MSTORE PUSH1 0x84 SWAP1 REVERT JUMPDEST POP PUSH1 0xFF DUP3 SLOAD AND PUSH1 0x5 DUP2 LT ISZERO PUSH2 0x48D JUMPI PUSH1 0x4 EQ PUSH2 0xCAE JUMP JUMPDEST PUSH1 0x2 SLOAD PUSH1 0x1 PUSH1 0x0 JUMPDEST DUP3 DUP3 GT ISZERO PUSH2 0xE54 JUMPI PUSH2 0xDC0 SWAP2 POP PUSH2 0x147A JUMP JUMPDEST PUSH1 0x0 SWAP2 PUSH1 0x1 SWAP1 JUMPDEST DUP1 DUP3 GT ISZERO PUSH2 0xDDD JUMPI PUSH1 0x40 MLOAD DUP1 PUSH2 0x802 DUP6 DUP3 PUSH2 0x12EA JUMP JUMPDEST PUSH2 0x82D SWAP1 DUP3 PUSH1 0x0 SWAP5 SWAP4 SWAP5 MSTORE PUSH1 0x3 PUSH1 0x20 MSTORE PUSH2 0xE04 PUSH1 0x8 PUSH1 0x40 PUSH1 0x0 KECCAK256 ADD PUSH1 0x40 MLOAD SWAP4 DUP5 DUP1 SWAP3 PUSH2 0x13A9 JUMP JUMPDEST PUSH1 0x0 JUMPDEST DUP3 MLOAD DUP2 LT ISZERO PUSH2 0xE41 JUMPI PUSH1 0x1 SWAP1 PUSH1 0x1 PUSH1 0x1 PUSH1 0xA0 SHL SUB PUSH2 0xE25 DUP3 DUP7 PUSH2 0x14AC JUMP JUMPDEST MLOAD AND PUSH2 0xE3A PUSH2 0xE33 DUP10 PUSH2 0x1446 JUMP JUMPDEST SWAP9 DUP8 PUSH2 0x14AC JUMP JUMPDEST MSTORE ADD PUSH2 0xE07 JUMP JUMPDEST POP SWAP2 SWAP3 PUSH2 0xE4E SWAP2 POP PUSH2 0x1446 JUMP JUMPDEST SWAP1 PUSH2 0xDC7 JUMP JUMPDEST PUSH2 0x8A9 PUSH2 0xE73 SWAP2 DUP4 PUSH1 0x0 MSTORE PUSH1 0x3 PUSH1 0x20 MSTORE PUSH1 0x8 PUSH1 0x40 PUSH1 0x0 KECCAK256 ADD SLOAD SWAP1 PUSH2 0x1455 JUMP JUMPDEST SWAP1 PUSH2 0xDAE JUMP JUMPDEST CALLVALUE PUSH2 0x186 JUMPI PUSH1 0x20 CALLDATASIZE PUSH1 0x3 NOT ADD SLT PUSH2 0x186 JUMPI PUSH1 0x1 PUSH1 0x1 PUSH1 0xA0 SHL SUB PUSH2 0xE9A PUSH2 0x12D4 JUMP JUMPDEST AND PUSH1 0x0 MSTORE PUSH1 0x5 PUSH1 0x20 MSTORE PUSH1 0x20 PUSH1 0xFF PUSH1 0x40 PUSH1 0x0 KECCAK256 SLOAD AND PUSH1 0x40 MLOAD SWAP1 ISZERO ISZERO DUP2 MSTORE RETURN JUMPDEST CALLVALUE PUSH2 0x186 JUMPI PUSH1 0x20 CALLDATASIZE PUSH1 0x3 NOT ADD SLT PUSH2 0x186 JUMPI PUSH1 0x4 CALLDATALOAD PUSH1 0x0 PUSH1 0x80 PUSH1 0x40 MLOAD PUSH2 0xEDC DUP2 PUSH2 0x13EC JUMP JUMPDEST DUP3 DUP2 MSTORE DUP3 PUSH1 0x20 DUP3 ADD MSTORE DUP3 PUSH1 0x40 DUP3 ADD MSTORE DUP3 PUSH1 0x60 DUP3 ADD MSTORE ADD MSTORE DUP1 ISZERO ISZERO DUP1 PUSH2 0xF8A JUMPI JUMPDEST PUSH2 0xF05 SWAP1 PUSH2 0x136B JUMP JUMPDEST PUSH1 0x0 MSTORE PUSH1 0x3 PUSH1 0x20 MSTORE PUSH1 0xA0 PUSH1 0x40 PUSH1 0x0 KECCAK256 PUSH1 0xFF DUP2 SLOAD AND SWAP1 PUSH1 0x2 DUP2 ADD SLOAD SWAP1 PUSH1 0x1 DUP2 ADD SLOAD PUSH1 0x4 PUSH1 0x3 DUP4 ADD SLOAD SWAP3 ADD SLOAD SWAP3 PUSH2 0xF46 PUSH1 0x40 MLOAD SWAP6 PUSH2 0xF40 DUP8 PUSH2 0x13EC JUMP JUMPDEST DUP7 PUSH2 0x14D6 JUMP JUMPDEST PUSH1 0x20 DUP6 ADD SWAP1 DUP2 MSTORE PUSH1 0x40 DUP6 ADD SWAP2 DUP3 MSTORE PUSH1 0x60 DUP6 ADD SWAP3 DUP4 MSTORE PUSH1 0x80 DUP6 ADD SWAP4 DUP5 MSTORE PUSH2 0xF70 PUSH1 0x40 MLOAD DUP1 SWAP7 MLOAD PUSH2 0x132D JUMP JUMPDEST MLOAD PUSH1 0x20 DUP6 ADD MSTORE MLOAD PUSH1 0x40 DUP5 ADD MSTORE MLOAD PUSH1 0x60 DUP4 ADD MSTORE MLOAD PUSH1 0x80 DUP3 ADD MSTORE RETURN JUMPDEST POP PUSH1 0x2 SLOAD DUP2 GT ISZERO PUSH2 0xEFC JUMP JUMPDEST CALLVALUE PUSH2 0x186 JUMPI PUSH1 0x20 CALLDATASIZE PUSH1 0x3 NOT ADD SLT PUSH2 0x186 JUMPI PUSH1 0x4 CALLDATALOAD DUP1 ISZERO ISZERO DUP1 PUSH2 0xFF4 JUMPI JUMPDEST PUSH2 0xFBC SWAP1 PUSH2 0x136B JUMP JUMPDEST PUSH1 0x0 MSTORE PUSH1 0x3 PUSH1 0x20 MSTORE PUSH2 0x802 PUSH2 0xFE1 PUSH2 0xFE8 PUSH1 0x5 PUSH1 0x40 PUSH1 0x0 KECCAK256 ADD PUSH1 0x40 MLOAD SWAP3 DUP4 DUP1 SWAP3 PUSH2 0x13A9 JUMP JUMPDEST SUB DUP3 PUSH2 0x1424 JUMP JUMPDEST PUSH1 0x40 MLOAD SWAP2 DUP3 SWAP2 DUP3 PUSH2 0x12EA JUMP JUMPDEST POP PUSH1 0x2 SLOAD DUP2 GT ISZERO PUSH2 0xFB3 JUMP JUMPDEST CALLVALUE PUSH2 0x186 JUMPI PUSH1 0x0 CALLDATASIZE PUSH1 0x3 NOT ADD SLT PUSH2 0x186 JUMPI PUSH1 0x2 SLOAD PUSH1 0x1 PUSH1 0x0 JUMPDEST DUP3 DUP3 GT ISZERO PUSH2 0x10B1 JUMPI PUSH2 0x102B SWAP2 POP PUSH2 0x147A JUMP JUMPDEST PUSH1 0x1 PUSH1 0x0 JUMPDEST DUP4 DUP3 GT ISZERO PUSH2 0x1046 JUMPI PUSH1 0x40 MLOAD DUP1 PUSH2 0x802 DUP6 DUP3 PUSH2 0x12EA JUMP JUMPDEST PUSH2 0x82D SWAP1 DUP3 PUSH1 0x0 SWAP5 SWAP4 SWAP5 MSTORE PUSH1 0x3 PUSH1 0x20 MSTORE PUSH2 0x106D PUSH1 0x8 PUSH1 0x40 PUSH1 0x0 KECCAK256 ADD PUSH1 0x40 MLOAD SWAP4 DUP5 DUP1 SWAP3 PUSH2 0x13A9 JUMP JUMPDEST PUSH1 0x0 SWAP1 JUMPDEST DUP3 MLOAD DUP3 LT ISZERO PUSH2 0x109B JUMPI PUSH1 0x1 SWAP1 PUSH2 0x1093 SWAP1 PUSH1 0x1 PUSH1 0x1 PUSH1 0xA0 SHL SUB PUSH2 0x85A DUP6 DUP8 PUSH2 0x14AC JUMP JUMPDEST SWAP2 ADD SWAP1 PUSH2 0x1071 JUMP JUMPDEST SWAP5 SWAP3 SWAP4 SWAP1 POP PUSH2 0x10AA SWAP2 POP PUSH2 0x1446 JUMP JUMPDEST SWAP1 SWAP3 PUSH2 0x1030 JUMP JUMPDEST PUSH2 0x8A9 PUSH2 0x10D0 SWAP2 DUP4 PUSH1 0x0 MSTORE PUSH1 0x3 PUSH1 0x20 MSTORE PUSH1 0x8 PUSH1 0x40 PUSH1 0x0 KECCAK256 ADD SLOAD SWAP1 PUSH2 0x1455 JUMP JUMPDEST SWAP1 PUSH2 0x1019 JUMP JUMPDEST CALLVALUE PUSH2 0x186 JUMPI PUSH1 0x40 CALLDATASIZE PUSH1 0x3 NOT ADD SLT PUSH2 0x186 JUMPI PUSH1 0x4 CALLDATALOAD PUSH2 0x10F2 PUSH2 0x12BE JUMP JUMPDEST SWAP1 DUP1 ISZERO ISZERO DUP1 PUSH2 0x119C JUMPI JUMPDEST PUSH2 0x1105 SWAP1 PUSH2 0x136B JUMP JUMPDEST DUP1 PUSH1 0x0 MSTORE PUSH1 0x3 PUSH1 0x20 MSTORE PUSH1 0x6 PUSH1 0x40 PUSH1 0x0 KECCAK256 ADD PUSH1 0x1 DUP1 PUSH1 0xA0 SHL SUB DUP4 AND PUSH1 0x0 MSTORE PUSH1 0x20 MSTORE PUSH1 0xFF PUSH1 0x40 PUSH1 0x0 KECCAK256 SLOAD AND ISZERO PUSH2 0x1162 JUMPI PUSH1 0x0 MSTORE PUSH1 0x3 PUSH1 0x20 MSTORE PUSH1 0x7 PUSH1 0x40 PUSH1 0x0 KECCAK256 ADD SWAP1 PUSH1 0x1 DUP1 PUSH1 0xA0 SHL SUB AND PUSH1 0x0 MSTORE PUSH1 0x20 MSTORE PUSH1 0x20 PUSH1 0x40 PUSH1 0x0 KECCAK256 SLOAD PUSH1 0x40 MLOAD SWAP1 DUP2 MSTORE RETURN JUMPDEST PUSH1 0x40 MLOAD PUSH3 0x461BCD PUSH1 0xE5 SHL DUP2 MSTORE PUSH1 0x20 PUSH1 0x4 DUP3 ADD MSTORE PUSH1 0x12 PUSH1 0x24 DUP3 ADD MSTORE PUSH18 0x506C61796572206E6F7420696E2067616D65 PUSH1 0x70 SHL PUSH1 0x44 DUP3 ADD MSTORE PUSH1 0x64 SWAP1 REVERT JUMPDEST POP PUSH1 0x2 SLOAD DUP2 GT ISZERO PUSH2 0x10FC JUMP JUMPDEST CALLVALUE PUSH2 0x186 JUMPI PUSH1 0x20 CALLDATASIZE PUSH1 0x3 NOT ADD SLT PUSH2 0x186 JUMPI PUSH1 0x4 CALLDATALOAD DUP1 ISZERO ISZERO DUP1 PUSH2 0x11F3 JUMPI JUMPDEST PUSH2 0x11CE SWAP1 PUSH2 0x136B JUMP JUMPDEST PUSH1 0x0 MSTORE PUSH1 0x3 PUSH1 0x20 MSTORE PUSH2 0x802 PUSH2 0xFE1 PUSH2 0xFE8 PUSH1 0x8 PUSH1 0x40 PUSH1 0x0 KECCAK256 ADD PUSH1 0x40 MLOAD SWAP3 DUP4 DUP1 SWAP3 PUSH2 0x13A9 JUMP JUMPDEST POP PUSH1 0x2 SLOAD DUP2 GT ISZERO PUSH2 0x11C5 JUMP JUMPDEST CALLVALUE PUSH2 0x186 JUMPI PUSH1 0x20 CALLDATASIZE PUSH1 0x3 NOT ADD SLT PUSH2 0x186 JUMPI PUSH1 0x1 PUSH1 0x1 PUSH1 0xA0 SHL SUB PUSH2 0x1220 PUSH2 0x12D4 JUMP JUMPDEST AND PUSH1 0x0 MSTORE PUSH1 0x4 PUSH1 0x20 MSTORE PUSH1 0x20 PUSH1 0x40 PUSH1 0x0 KECCAK256 SLOAD PUSH1 0x40 MLOAD SWAP1 DUP2 MSTORE RETURN JUMPDEST CALLVALUE PUSH2 0x186 JUMPI PUSH1 0x40 CALLDATASIZE PUSH1 0x3 NOT ADD SLT PUSH2 0x186 JUMPI PUSH1 0x4 CALLDATALOAD PUSH2 0x1255 PUSH2 0x12BE JUMP JUMPDEST SWAP1 DUP1 ISZERO ISZERO DUP1 PUSH2 0x1297 JUMPI JUMPDEST PUSH2 0x1268 SWAP1 PUSH2 0x136B JUMP JUMPDEST PUSH1 0x0 MSTORE PUSH1 0x3 PUSH1 0x20 MSTORE PUSH1 0xA PUSH1 0x40 PUSH1 0x0 KECCAK256 ADD SWAP1 PUSH1 0x1 DUP1 PUSH1 0xA0 SHL SUB AND PUSH1 0x0 MSTORE PUSH1 0x20 MSTORE PUSH1 0x20 PUSH1 0x40 PUSH1 0x0 KECCAK256 SLOAD PUSH1 0x40 MLOAD SWAP1 DUP2 MSTORE RETURN JUMPDEST POP PUSH1 0x2 SLOAD DUP2 GT ISZERO PUSH2 0x125F JUMP JUMPDEST CALLVALUE PUSH2 0x186 JUMPI PUSH1 0x0 CALLDATASIZE PUSH1 0x3 NOT ADD SLT PUSH2 0x186 JUMPI PUSH1 0x20 SWAP1 PUSH1 0x2 SLOAD DUP2 MSTORE RETURN JUMPDEST PUSH1 0x24 CALLDATALOAD SWAP1 PUSH1 0x1 PUSH1 0x1 PUSH1 0xA0 SHL SUB DUP3 AND DUP3 SUB PUSH2 0x186 JUMPI JUMP JUMPDEST PUSH1 0x4 CALLDATALOAD SWAP1 PUSH1 0x1 PUSH1 0x1 PUSH1 0xA0 SHL SUB DUP3 AND DUP3 SUB PUSH2 0x186 JUMPI JUMP JUMPDEST PUSH1 0x20 PUSH1 0x40 DUP2 DUP4 ADD SWAP3 DUP3 DUP2 MSTORE DUP5 MLOAD DUP1 SWAP5 MSTORE ADD SWAP3 ADD SWAP1 PUSH1 0x0 JUMPDEST DUP2 DUP2 LT PUSH2 0x130E JUMPI POP POP POP SWAP1 JUMP JUMPDEST DUP3 MLOAD PUSH1 0x1 PUSH1 0x1 PUSH1 0xA0 SHL SUB AND DUP5 MSTORE PUSH1 0x20 SWAP4 DUP5 ADD SWAP4 SWAP1 SWAP3 ADD SWAP2 PUSH1 0x1 ADD PUSH2 0x1301 JUMP JUMPDEST SWAP1 PUSH1 0x5 DUP3 LT ISZERO PUSH2 0x48D JUMPI MSTORE JUMP JUMPDEST SWAP2 DUP2 PUSH1 0x1F DUP5 ADD SLT ISZERO PUSH2 0x186 JUMPI DUP3 CALLDATALOAD SWAP2 PUSH8 0xFFFFFFFFFFFFFFFF DUP4 GT PUSH2 0x186 JUMPI PUSH1 0x20 DUP1 DUP6 ADD SWAP5 DUP5 PUSH1 0x5 SHL ADD ADD GT PUSH2 0x186 JUMPI JUMP JUMPDEST ISZERO PUSH2 0x1372 JUMPI JUMP JUMPDEST PUSH1 0x40 MLOAD PUSH3 0x461BCD PUSH1 0xE5 SHL DUP2 MSTORE PUSH1 0x20 PUSH1 0x4 DUP3 ADD MSTORE PUSH1 0xF PUSH1 0x24 DUP3 ADD MSTORE PUSH15 0x125B9D985B1A590819D85B59481251 PUSH1 0x8A SHL PUSH1 0x44 DUP3 ADD MSTORE PUSH1 0x64 SWAP1 REVERT JUMPDEST SWAP1 PUSH1 0x20 DUP3 SLOAD SWAP2 DUP3 DUP2 MSTORE ADD SWAP2 PUSH1 0x0 MSTORE PUSH1 0x20 PUSH1 0x0 KECCAK256 SWAP1 PUSH1 0x0 JUMPDEST DUP2 DUP2 LT PUSH2 0x13CD JUMPI POP POP POP SWAP1 JUMP JUMPDEST DUP3 SLOAD PUSH1 0x1 PUSH1 0x1 PUSH1 0xA0 SHL SUB AND DUP5 MSTORE PUSH1 0x20 SWAP1 SWAP4 ADD SWAP3 PUSH1 0x1 SWAP3 DUP4 ADD SWAP3 ADD PUSH2 0x13C0 JUMP JUMPDEST PUSH1 0xA0 DUP2 ADD SWAP1 DUP2 LT PUSH8 0xFFFFFFFFFFFFFFFF DUP3 GT OR PUSH2 0x77D JUMPI PUSH1 0x40 MSTORE JUMP JUMPDEST PUSH1 0x80 DUP2 ADD SWAP1 DUP2 LT PUSH8 0xFFFFFFFFFFFFFFFF DUP3 GT OR PUSH2 0x77D JUMPI PUSH1 0x40 MSTORE JUMP JUMPDEST SWAP1 PUSH1 0x1F DUP1 NOT SWAP2 ADD AND DUP2 ADD SWAP1 DUP2 LT PUSH8 0xFFFFFFFFFFFFFFFF DUP3 GT OR PUSH2 0x77D JUMPI PUSH1 0x40 MSTORE JUMP JUMPDEST PUSH1 0x0 NOT DUP2 EQ PUSH2 0x698 JUMPI PUSH1 0x1 ADD SWAP1 JUMP JUMPDEST SWAP2 SWAP1 DUP3 ADD DUP1 SWAP3 GT PUSH2 0x698 JUMPI JUMP JUMPDEST PUSH8 0xFFFFFFFFFFFFFFFF DUP2 GT PUSH2 0x77D JUMPI PUSH1 0x5 SHL PUSH1 0x20 ADD SWAP1 JUMP JUMPDEST SWAP1 PUSH2 0x1484 DUP3 PUSH2 0x1462 JUMP JUMPDEST PUSH2 0x1491 PUSH1 0x40 MLOAD SWAP2 DUP3 PUSH2 0x1424 JUMP JUMPDEST DUP3 DUP2 MSTORE DUP1 SWAP3 PUSH2 0x14A2 PUSH1 0x1F NOT SWAP2 PUSH2 0x1462 JUMP JUMPDEST ADD SWAP1 PUSH1 0x20 CALLDATASIZE SWAP2 ADD CALLDATACOPY JUMP JUMPDEST DUP1 MLOAD DUP3 LT ISZERO PUSH2 0x14C0 JUMPI PUSH1 0x20 SWAP2 PUSH1 0x5 SHL ADD ADD SWAP1 JUMP JUMPDEST PUSH4 0x4E487B71 PUSH1 0xE0 SHL PUSH1 0x0 MSTORE PUSH1 0x32 PUSH1 0x4 MSTORE PUSH1 0x24 PUSH1 0x0 REVERT JUMPDEST PUSH1 0x5 DUP3 LT ISZERO PUSH2 0x48D JUMPI MSTORE JUMP JUMPDEST ISZERO PUSH2 0x14E9 JUMPI JUMP JUMPDEST PUSH1 0x40 MLOAD PUSH3 0x461BCD PUSH1 0xE5 SHL DUP2 MSTORE PUSH1 0x20 PUSH1 0x4 DUP3 ADD MSTORE PUSH1 0x18 PUSH1 0x24 DUP3 ADD MSTORE PUSH32 0x4F6E6C792047616D654D61737465722063616E2063616C6C0000000000000000 PUSH1 0x44 DUP3 ADD MSTORE PUSH1 0x64 SWAP1 REVERT JUMPDEST PUSH1 0x1 PUSH1 0x1 PUSH1 0xA0 SHL SUB AND PUSH1 0x0 DUP2 DUP2 MSTORE PUSH1 0x5 PUSH1 0x20 MSTORE PUSH1 0x40 SWAP1 KECCAK256 SLOAD PUSH1 0xFF AND ISZERO PUSH2 0x155F JUMPI PUSH1 0x0 MSTORE PUSH1 0x4 PUSH1 0x20 MSTORE PUSH1 0x40 PUSH1 0x0 KECCAK256 SLOAD SWAP1 JUMP JUMPDEST POP PUSH1 0x0 SWAP1 JUMP JUMPDEST SWAP2 SWAP1 DUP2 LT ISZERO PUSH2 0x14C0 JUMPI PUSH1 0x5 SHL ADD SWAP1 JUMP JUMPDEST DUP1 SLOAD DUP3 LT ISZERO PUSH2 0x14C0 JUMPI PUSH1 0x0 MSTORE PUSH1 0x20 PUSH1 0x0 KECCAK256 ADD SWAP1 PUSH1 0x0 SWAP1 JUMP JUMPDEST SWAP1 DUP2 SLOAD SWAP2 PUSH9 0x10000000000000000 DUP4 LT ISZERO PUSH2 0x77D JUMPI DUP3 PUSH2 0x15B5 SWAP2 PUSH1 0x1 PUSH2 0x15D9 SWAP6 ADD DUP2 SSTORE PUSH2 0x1575 JUMP JUMPDEST DUP2 SLOAD PUSH1 0x1 PUSH1 0x1 PUSH1 0xA0 SHL SUB SWAP4 DUP5 AND PUSH1 0x3 SWAP3 SWAP1 SWAP3 SHL SWAP2 DUP3 SHL SWAP4 SWAP1 SWAP2 SHL NOT AND SWAP2 SWAP1 SWAP2 OR SWAP1 SSTORE JUMP JUMPDEST JUMP JUMPDEST PUSH1 0x40 MLOAD SWAP1 PUSH2 0x15E8 DUP3 PUSH2 0x1408 JUMP JUMPDEST PUSH1 0x0 PUSH1 0x60 DUP4 DUP3 DUP2 MSTORE DUP3 PUSH1 0x20 DUP3 ADD MSTORE DUP3 PUSH1 0x40 DUP3 ADD MSTORE ADD MSTORE JUMP JUMPDEST PUSH1 0x0 SWAP1 CALLER DUP3 MSTORE PUSH1 0x5 PUSH1 0x20 MSTORE PUSH1 0xFF PUSH1 0x40 DUP4 KECCAK256 SLOAD AND ISZERO PUSH2 0x18CC JUMPI CALLER DUP3 MSTORE PUSH1 0x4 PUSH1 0x20 MSTORE PUSH1 0x40 DUP3 KECCAK256 SLOAD DUP1 DUP4 MSTORE PUSH1 0x3 PUSH1 0x20 MSTORE PUSH1 0x40 DUP4 KECCAK256 PUSH1 0xFF DUP2 SLOAD AND PUSH1 0x5 DUP2 LT ISZERO PUSH2 0x18B8 JUMPI PUSH1 0x2 SUB PUSH2 0x1881 JUMPI CALLER DUP5 MSTORE PUSH1 0x9 DUP2 ADD PUSH1 0x20 DUP2 SWAP1 MSTORE PUSH1 0x40 DUP6 KECCAK256 SLOAD PUSH1 0xFF AND ISZERO PUSH2 0x1845 JUMPI PUSH1 0x1 DUP3 ADD SLOAD TIMESTAMP GT PUSH2 0x1837 JUMPI CALLER DUP6 MSTORE PUSH1 0xA DUP3 ADD PUSH1 0x20 MSTORE PUSH1 0x40 DUP6 KECCAK256 DUP1 SLOAD PUSH2 0x1683 SWAP1 PUSH2 0x1446 JUMP JUMPDEST SWAP1 SSTORE PUSH1 0x0 NOT NUMBER ADD NUMBER DUP2 GT PUSH2 0x1823 JUMPI PUSH1 0x1 SWAP1 PUSH1 0x2 DUP5 ADD SLOAD PUSH1 0x40 MLOAD SWAP1 PUSH1 0x20 DUP3 ADD SWAP3 BLOCKHASH DUP4 MSTORE TIMESTAMP PUSH1 0x40 DUP4 ADD MSTORE CALLER PUSH1 0x60 SHL PUSH1 0x60 DUP4 ADD MSTORE PUSH1 0x74 DUP3 ADD MSTORE DUP6 PUSH1 0x94 DUP3 ADD MSTORE ADDRESS PUSH1 0x60 SHL PUSH1 0xB4 DUP3 ADD MSTORE PUSH1 0xA8 DUP2 MSTORE PUSH2 0x16D7 PUSH1 0xC8 DUP3 PUSH2 0x1424 JUMP JUMPDEST MLOAD SWAP1 KECCAK256 AND ISZERO PUSH1 0x40 MLOAD DUP2 DUP2 MSTORE DUP5 PUSH32 0x4FFF61170B45E4C2809F07A4BB02837D17FCDC209A7CB683FF938C9AA374100D PUSH1 0x20 CALLER SWAP4 LOG3 ISZERO PUSH2 0x1808 JUMPI CALLER DUP1 DUP7 MSTORE PUSH1 0x20 DUP3 DUP2 MSTORE PUSH1 0x40 DUP1 DUP9 KECCAK256 SLOAD DUP4 DUP10 MSTORE SWAP4 DUP3 MSTORE DUP1 DUP9 KECCAK256 DUP1 SLOAD PUSH1 0xFF SWAP6 DUP7 AND ISZERO ISZERO DUP7 AND PUSH1 0xFF NOT SWAP2 DUP3 AND OR SWAP1 SWAP2 SSTORE DUP4 DUP10 MSTORE PUSH1 0x5 DUP1 DUP5 MSTORE DUP3 DUP11 KECCAK256 SLOAD SWAP5 DUP11 MSTORE SWAP1 SWAP3 MSTORE DUP8 KECCAK256 DUP1 SLOAD SWAP3 DUP5 AND ISZERO ISZERO SWAP1 SWAP4 AND SWAP2 AND OR SWAP1 SSTORE PUSH1 0x8 ADD DUP1 SLOAD PUSH1 0x0 NOT DUP2 ADD SWAP1 DUP2 GT PUSH2 0x17F4 JUMPI SWAP1 PUSH2 0x15B5 DUP3 PUSH2 0x1781 PUSH2 0x1799 SWAP5 DUP5 PUSH2 0x1575 JUMP JUMPDEST SWAP1 SLOAD PUSH1 0x3 SWAP2 SWAP1 SWAP2 SHL SHR PUSH1 0x1 PUSH1 0x1 PUSH1 0xA0 SHL SUB AND SWAP3 PUSH2 0x1575 JUMP JUMPDEST PUSH1 0x1 SLOAD PUSH1 0x1 PUSH1 0x1 PUSH1 0xA0 SHL SUB AND DUP1 EXTCODESIZE ISZERO PUSH2 0x17F0 JUMPI SWAP3 DUP1 DUP1 PUSH2 0x17DB SWAP5 SWAP6 PUSH1 0x24 PUSH1 0x40 MLOAD DUP1 SWAP5 DUP2 SWAP4 PUSH4 0x3EF6CF1D PUSH1 0xE2 SHL DUP4 MSTORE DUP2 PUSH1 0x4 DUP5 ADD MSTORE GAS CALL PUSH2 0x17E0 JUMPI JUMPDEST POP POP PUSH2 0x1D3C JUMP JUMPDEST PUSH1 0x1 SWAP1 JUMP JUMPDEST DUP2 PUSH2 0x17EA SWAP2 PUSH2 0x1424 JUMP JUMPDEST CODESIZE PUSH2 0x17D4 JUMP JUMPDEST DUP4 DUP1 REVERT JUMPDEST PUSH4 0x4E487B71 PUSH1 0xE0 SHL DUP6 MSTORE PUSH1 0x11 PUSH1 0x4 MSTORE PUSH1 0x24 DUP6 REVERT JUMPDEST POP POP PUSH2 0x1820 SWAP1 PUSH2 0x181B SWAP4 SWAP3 SWAP4 CALLER DUP3 PUSH2 0x1B39 JUMP JUMPDEST PUSH2 0x1D3C JUMP JUMPDEST SWAP1 JUMP JUMPDEST PUSH4 0x4E487B71 PUSH1 0xE0 SHL DUP7 MSTORE PUSH1 0x11 PUSH1 0x4 MSTORE PUSH1 0x24 DUP7 REVERT JUMPDEST POP POP PUSH2 0x1820 SWAP1 SWAP3 SWAP2 SWAP3 PUSH2 0x1A49 JUMP JUMPDEST PUSH1 0x40 MLOAD PUSH3 0x461BCD PUSH1 0xE5 SHL DUP2 MSTORE PUSH1 0x20 PUSH1 0x4 DUP3 ADD MSTORE PUSH1 0x14 PUSH1 0x24 DUP3 ADD MSTORE PUSH20 0x2737BA1030B71030B1BA34BB3290383630BCB2B9 PUSH1 0x61 SHL PUSH1 0x44 DUP3 ADD MSTORE PUSH1 0x64 SWAP1 REVERT JUMPDEST PUSH1 0x40 MLOAD PUSH3 0x461BCD PUSH1 0xE5 SHL DUP2 MSTORE PUSH1 0x20 PUSH1 0x4 DUP3 ADD MSTORE PUSH1 0xF PUSH1 0x24 DUP3 ADD MSTORE PUSH15 0x47616D65206E6F7420616374697665 PUSH1 0x88 SHL PUSH1 0x44 DUP3 ADD MSTORE PUSH1 0x64 SWAP1 REVERT JUMPDEST PUSH4 0x4E487B71 PUSH1 0xE0 SHL DUP6 MSTORE PUSH1 0x21 PUSH1 0x4 MSTORE PUSH1 0x24 DUP6 REVERT JUMPDEST PUSH1 0x40 MLOAD PUSH3 0x461BCD PUSH1 0xE5 SHL DUP2 MSTORE PUSH1 0x20 PUSH1 0x4 DUP3 ADD MSTORE PUSH1 0x16 PUSH1 0x24 DUP3 ADD MSTORE PUSH22 0x506C61796572206E6F7420696E20616E792067616D65 PUSH1 0x50 SHL PUSH1 0x44 DUP3 ADD MSTORE PUSH1 0x64 SWAP1 REVERT JUMPDEST PUSH1 0x1 PUSH1 0x0 SWAP2 PUSH1 0x1 JUMPDEST PUSH1 0x2 SLOAD DUP2 GT PUSH2 0x1A10 JUMPI DUP1 PUSH1 0x0 MSTORE PUSH1 0x3 PUSH1 0x20 MSTORE PUSH1 0x40 PUSH1 0x0 KECCAK256 SWAP4 PUSH1 0xFF DUP6 SLOAD AND SWAP1 PUSH1 0x5 DUP3 LT ISZERO PUSH2 0x48D JUMPI PUSH1 0x4 DUP3 EQ PUSH2 0x1A04 JUMPI PUSH2 0x194A SWAP1 PUSH2 0x1446 JUMP JUMPDEST SWAP5 PUSH1 0x1 PUSH1 0x0 SWAP3 EQ DUP1 PUSH2 0x19F7 JUMPI JUMPDEST DUP1 PUSH2 0x19EB JUMPI JUMPDEST ISZERO PUSH2 0x19DF JUMPI PUSH1 0x2 DUP2 ADD SWAP1 PUSH1 0x1 DUP3 SSTORE PUSH1 0x2 PUSH1 0xFF NOT DUP3 SLOAD AND OR DUP2 SSTORE PUSH1 0x78 TIMESTAMP ADD SWAP3 DUP4 TIMESTAMP GT PUSH2 0x19CB JUMPI POP PUSH1 0x40 DUP4 DUP6 SWAP5 SWAP4 PUSH2 0x19C6 SWAP7 SWAP5 PUSH1 0x1 PUSH32 0xA359B664A68ACD8839E42112EB50EFF3408165E15074FDE89DDB58A0DB2E691D SWAP6 ADD SSTORE SLOAD SWAP1 DUP3 MLOAD SWAP2 DUP3 MSTORE PUSH1 0x20 DUP3 ADD MSTORE LOG2 PUSH2 0x1446 JUMP JUMPDEST PUSH2 0x1912 JUMP JUMPDEST PUSH4 0x4E487B71 PUSH1 0xE0 SHL DUP2 MSTORE PUSH1 0x11 PUSH1 0x4 MSTORE PUSH1 0x24 SWAP1 REVERT JUMPDEST POP SWAP3 POP PUSH2 0x19C6 SWAP1 PUSH2 0x1446 JUMP JUMPDEST POP PUSH1 0x2 DUP2 ADD SLOAD ISZERO PUSH2 0x195D JUMP JUMPDEST POP PUSH1 0x8 DUP2 ADD SLOAD ISZERO ISZERO PUSH2 0x1957 JUMP JUMPDEST SWAP5 POP POP PUSH2 0x19C6 SWAP1 PUSH2 0x1446 JUMP JUMPDEST POP SWAP2 ISZERO PUSH2 0x1A1A JUMPI SWAP1 JUMP JUMPDEST POP PUSH1 0x1 SWAP1 JUMP JUMPDEST PUSH1 0x0 SLOAD PUSH1 0x1 PUSH1 0x1 PUSH1 0xA0 SHL SUB AND CALLER SUB PUSH2 0x1A34 JUMPI JUMP JUMPDEST PUSH4 0x118CDAA7 PUSH1 0xE0 SHL PUSH1 0x0 MSTORE CALLER PUSH1 0x4 MSTORE PUSH1 0x24 PUSH1 0x0 REVERT JUMPDEST DUP1 PUSH1 0x0 MSTORE PUSH1 0x3 PUSH1 0x20 MSTORE PUSH1 0x40 PUSH1 0x0 KECCAK256 PUSH1 0x8 DUP2 ADD DUP1 SLOAD PUSH1 0x0 JUMPDEST DUP2 DUP2 LT PUSH2 0x1AF7 JUMPI POP POP POP PUSH32 0x8868888CC18628A149BC88CC32A91976AB30E2CD9AECECB0CFE184A73FE551F9 SWAP1 PUSH1 0x4 PUSH1 0xFF NOT DUP3 SLOAD AND OR DUP2 SSTORE TIMESTAMP PUSH1 0x4 DUP3 ADD SSTORE PUSH1 0x2 PUSH1 0x20 SWAP2 DUP5 PUSH32 0xA7690F576EAEF889EF9EF29D1EAEE6C0E3B073108B66BB8009EC8AF6428BB345 PUSH2 0x1AE9 PUSH1 0x40 MLOAD PUSH2 0x1AD4 DUP8 DUP3 PUSH2 0x1424 JUMP JUMPDEST PUSH1 0x0 DUP2 MSTORE PUSH1 0x0 CALLDATASIZE DUP2 CALLDATACOPY PUSH1 0x40 MLOAD SWAP2 DUP3 SWAP2 DUP3 PUSH2 0x12EA JUMP JUMPDEST SUB SWAP1 LOG2 ADD SLOAD PUSH1 0x40 MLOAD SWAP1 DUP2 MSTORE LOG2 JUMP JUMPDEST PUSH1 0x0 DUP4 SLOAD ISZERO PUSH2 0x1B25 JUMPI DUP4 DUP2 MSTORE PUSH1 0x20 SWAP1 KECCAK256 SLOAD PUSH1 0x1 SWAP2 SWAP1 PUSH2 0x1B1F SWAP1 PUSH1 0x1 PUSH1 0x1 PUSH1 0xA0 SHL SUB AND DUP8 PUSH2 0x1B39 JUMP JUMPDEST ADD PUSH2 0x1A60 JUMP JUMPDEST PUSH4 0x4E487B71 PUSH1 0xE0 SHL DUP2 MSTORE PUSH1 0x32 PUSH1 0x4 MSTORE PUSH1 0x24 SWAP1 REVERT JUMPDEST SWAP1 PUSH1 0x0 SWAP2 DUP1 DUP4 MSTORE PUSH1 0x3 PUSH1 0x20 MSTORE PUSH1 0x40 DUP4 KECCAK256 SWAP2 PUSH1 0x9 DUP4 ADD PUSH1 0x1 DUP1 PUSH1 0xA0 SHL SUB DUP3 AND DUP6 MSTORE DUP1 PUSH1 0x20 MSTORE PUSH1 0xFF PUSH1 0x40 DUP7 KECCAK256 SLOAD AND ISZERO PUSH2 0x1D03 JUMPI PUSH1 0x1 DUP1 PUSH1 0xA0 SHL SUB DUP3 AND DUP6 MSTORE PUSH1 0x20 MSTORE PUSH1 0x40 DUP5 KECCAK256 PUSH1 0xFF NOT DUP2 SLOAD AND SWAP1 SSTORE PUSH1 0x1 DUP1 PUSH1 0xA0 SHL SUB AND SWAP2 DUP3 DUP5 MSTORE PUSH1 0x5 PUSH1 0x20 MSTORE PUSH1 0x40 DUP5 KECCAK256 PUSH1 0xFF NOT DUP2 SLOAD AND SWAP1 SSTORE DUP4 PUSH1 0x8 DUP3 ADD SWAP5 JUMPDEST DUP6 SLOAD DUP1 DUP3 LT ISZERO PUSH2 0x1CF7 JUMPI DUP6 PUSH2 0x1BBD DUP4 DUP10 PUSH2 0x1575 JUMP JUMPDEST SWAP1 SLOAD PUSH1 0x3 SWAP2 SWAP1 SWAP2 SHL SHR PUSH1 0x1 PUSH1 0x1 PUSH1 0xA0 SHL SUB AND EQ PUSH2 0x1BDD JUMPI POP PUSH1 0x1 ADD PUSH2 0x1BA8 JUMP JUMPDEST PUSH1 0x0 SWAP7 SWAP3 SWAP4 SWAP5 SWAP6 SWAP7 NOT DUP2 ADD SWAP1 DUP2 GT PUSH2 0x1CE3 JUMPI SWAP1 PUSH2 0x15B5 PUSH2 0x1C00 PUSH2 0x1C19 SWAP4 DUP6 PUSH2 0x1575 JUMP JUMPDEST SWAP1 SLOAD PUSH1 0x3 SWAP2 SWAP1 SWAP2 SHL SHR PUSH1 0x1 PUSH1 0x1 PUSH1 0xA0 SHL SUB AND SWAP2 DUP5 PUSH2 0x1575 JUMP JUMPDEST DUP1 SLOAD DUP1 ISZERO PUSH2 0x1CCF JUMPI PUSH1 0x0 NOT ADD SWAP1 PUSH2 0x1C30 DUP3 DUP3 PUSH2 0x1575 JUMP JUMPDEST DUP2 SLOAD SWAP1 PUSH1 0x1 DUP1 PUSH1 0xA0 SHL SUB SWAP1 PUSH1 0x3 SHL SHL NOT AND SWAP1 SSTORE SSTORE JUMPDEST PUSH1 0x1 SLOAD PUSH1 0x1 PUSH1 0x1 PUSH1 0xA0 SHL SUB AND DUP1 EXTCODESIZE ISZERO PUSH2 0x1CCB JUMPI SWAP1 DUP1 DUP1 PUSH1 0x7 SWAP5 SWAP4 PUSH1 0x24 PUSH1 0x40 MLOAD DUP1 SWAP5 DUP2 SWAP4 PUSH4 0x3EF6CF1D PUSH1 0xE2 SHL DUP4 MSTORE DUP12 PUSH1 0x4 DUP5 ADD MSTORE GAS CALL PUSH2 0x1CBB JUMPI JUMPDEST POP POP DUP4 PUSH1 0x0 MSTORE ADD PUSH1 0x20 MSTORE PUSH32 0x51479C93D7646904D2282E9E79CDDF11999AC774B7FD0289E2F59CB4AD0F086A PUSH1 0x20 PUSH1 0x40 PUSH1 0x0 KECCAK256 SLOAD PUSH1 0x40 MLOAD SWAP1 DUP2 MSTORE LOG3 JUMP JUMPDEST DUP2 PUSH2 0x1CC5 SWAP2 PUSH2 0x1424 JUMP JUMPDEST CODESIZE PUSH2 0x1C7F JUMP JUMPDEST POP DUP1 REVERT JUMPDEST PUSH4 0x4E487B71 PUSH1 0xE0 SHL DUP4 MSTORE PUSH1 0x31 PUSH1 0x4 MSTORE PUSH1 0x24 DUP4 REVERT JUMPDEST PUSH4 0x4E487B71 PUSH1 0xE0 SHL DUP5 MSTORE PUSH1 0x11 PUSH1 0x4 MSTORE PUSH1 0x24 DUP5 REVERT JUMPDEST POP POP SWAP1 SWAP2 SWAP3 SWAP4 POP PUSH2 0x1C45 JUMP JUMPDEST PUSH1 0x40 MLOAD PUSH3 0x461BCD PUSH1 0xE5 SHL DUP2 MSTORE PUSH1 0x20 PUSH1 0x4 DUP3 ADD MSTORE PUSH1 0x11 PUSH1 0x24 DUP3 ADD MSTORE PUSH17 0x506C61796572206E6F7420616374697665 PUSH1 0x78 SHL PUSH1 0x44 DUP3 ADD MSTORE PUSH1 0x64 SWAP1 REVERT JUMPDEST DUP1 PUSH1 0x0 MSTORE PUSH1 0x3 PUSH1 0x20 MSTORE DUP1 PUSH1 0x40 PUSH1 0x0 KECCAK256 PUSH1 0x2 DUP2 ADD SWAP1 PUSH1 0x2 DUP3 SLOAD LT DUP1 ISZERO SWAP1 PUSH2 0x1ECB JUMPI JUMPDEST ISZERO PUSH2 0x1DDF JUMPI SWAP1 PUSH32 0x8868888CC18628A149BC88CC32A91976AB30E2CD9AECECB0CFE184A73FE551F9 SWAP3 PUSH32 0xA7690F576EAEF889EF9EF29D1EAEE6C0E3B073108B66BB8009EC8AF6428BB345 PUSH2 0x1DD2 PUSH1 0x20 SWAP5 PUSH1 0x4 PUSH1 0xFF NOT DUP3 SLOAD AND OR DUP2 SSTORE TIMESTAMP PUSH1 0x4 DUP3 ADD SSTORE PUSH1 0x40 MLOAD SWAP2 DUP3 SWAP2 DUP8 DUP4 MSTORE PUSH1 0x8 DUP9 DUP5 ADD SWAP2 ADD PUSH2 0x13A9 JUMP JUMPDEST SUB SWAP1 LOG2 SLOAD PUSH1 0x40 MLOAD SWAP1 DUP2 MSTORE LOG2 JUMP JUMPDEST DUP1 SLOAD PUSH1 0xFF NOT AND PUSH1 0x3 OR SWAP1 SSTORE SLOAD PUSH1 0x40 MLOAD SWAP1 DUP2 MSTORE PUSH32 0x8868888CC18628A149BC88CC32A91976AB30E2CD9AECECB0CFE184A73FE551F9 SWAP1 PUSH1 0x20 SWAP1 LOG2 DUP1 PUSH1 0x0 MSTORE PUSH1 0x3 PUSH1 0x20 MSTORE PUSH1 0x40 PUSH1 0x0 KECCAK256 PUSH1 0xFF DUP2 SLOAD AND PUSH1 0x5 DUP2 LT ISZERO PUSH2 0x48D JUMPI PUSH1 0x3 EQ DUP1 PUSH2 0x1EBE JUMPI JUMPDEST DUP1 PUSH2 0x1EB1 JUMPI JUMPDEST PUSH2 0x1E4A JUMPI POP POP JUMP JUMPDEST PUSH1 0x40 DUP2 PUSH1 0x1 PUSH1 0x2 PUSH32 0xA359B664A68ACD8839E42112EB50EFF3408165E15074FDE89DDB58A0DB2E691D SWAP5 ADD PUSH2 0x1E7E DUP2 SLOAD PUSH2 0x1446 JUMP JUMPDEST DUP2 SSTORE DUP3 SLOAD PUSH1 0xFF NOT AND PUSH1 0x2 OR DUP4 SSTORE SLOAD SWAP2 PUSH2 0x1E9F PUSH2 0x1E99 DUP5 PUSH2 0x1EDA JUMP JUMPDEST TIMESTAMP PUSH2 0x1455 JUMP JUMPDEST SWAP2 DUP3 SWAP2 ADD SSTORE DUP3 MLOAD SWAP2 DUP3 MSTORE PUSH1 0x20 DUP3 ADD MSTORE LOG2 JUMP JUMPDEST POP PUSH1 0x2 DUP1 DUP3 ADD SLOAD LT PUSH2 0x1E42 JUMP JUMPDEST POP PUSH1 0x8 DUP2 ADD SLOAD ISZERO ISZERO PUSH2 0x1E3C JUMP JUMPDEST POP PUSH1 0x1 PUSH1 0x8 DUP3 ADD SLOAD GT ISZERO PUSH2 0x1D5D JUMP JUMPDEST PUSH1 0x0 NOT DUP2 ADD SWAP1 DUP2 GT PUSH2 0x698 JUMPI PUSH1 0x6 DUP2 MUL SWAP1 DUP1 DUP3 DIV PUSH1 0x6 EQ SWAP1 ISZERO OR ISZERO PUSH2 0x698 JUMPI PUSH1 0x3C DUP2 GT PUSH2 0x1F0F JUMPI PUSH1 0x78 SUB PUSH1 0x78 DUP2 GT PUSH2 0x698 JUMPI SWAP1 JUMP JUMPDEST POP PUSH1 0x3C SWAP1 JUMP INVALID LOG2 PUSH5 0x6970667358 0x22 SLT KECCAK256 0xDE 0xE3 0xB1 0xB6 MLOAD TSTORE ADDRESS 0xE0 0xB8 JUMPI 0xDE 0x2E 0xE8 AND 0xE 0xD8 0xD2 SWAP15 0xCB GT 0xD3 SWAP4 0xB2 BASEFEE 0xD0 PUSH20 0xDC4287EC3AF864736F6C634300081C0033000000 "},"methodIdentifiers":{"endExpiredGames()":"d0f3a21e","endGame()":"6cbc2ded","gameIdCounter()":"1bb412d6","gameMaster()":"bdf84ae7","getActivePlayers()":"3c4f5a66","getActivePlayers(uint256)":"342ed956","getDoorsOpened(uint256,address)":"1e756ff9","getGameInfo(uint256)":"47e1d550","getGameName()":"bbda33d9","getGameState(uint256)":"ffde0c74","getGames()":"c04c5947","getPlayerGameId(address)":"773b549d","getPlayerInfo(uint256)":"ea17532e","getPlayerNumber(uint256,address)":"3532804d","getPlayers()":"8b5b9ccc","getPlayers(uint256)":"460e2049","initialize(address[],uint256[])":"7fbbe46f","isPlayerInGame(address)":"574a5b20","openDoor()":"db0e127a","owner()":"8da5cb5b","playerGameId(address)":"25b05c88","renounceOwnership()":"715018a6","setGameMaster(address)":"c2e94927","startGames()":"e81de9f5","transferOwnership(address)":"f2fde38b"}}}}}