{"contracts/games/Equilibrium.sol":{"Equilibrium":{"abi":[{"inputs":[],"stateMutability":"nonpayable","type":"constructor"},{"inputs":[{"internalType":"address","name":"owner","type":"address"}],"name":"OwnableInvalidOwner","type":"error"},{"inputs":[{"internalType":"address","name":"account","type":"address"}],"name":"OwnableUnauthorizedAccount","type":"error"},{"anonymous":false,"inputs":[{"indexed":true,"internalType":"uint256","name":"gameId","type":"uint256"},{"indexed":false,"internalType":"address[]","name":"winners","type":"address[]"}],"name":"GameCompleted","type":"event"},{"anonymous":false,"inputs":[{"indexed":false,"internalType":"address[]","name":"players","type":"address[]"},{"indexed":false,"internalType":"uint256[]","name":"playerNumbers","type":"uint256[]"}],"name":"GameInitialized","type":"event"},{"anonymous":false,"inputs":[{"indexed":false,"internalType":"address","name":"newGameMaster","type":"address"}],"name":"GameMasterChanged","type":"event"},{"anonymous":false,"inputs":[{"indexed":true,"internalType":"uint256","name":"gameId","type":"uint256"},{"indexed":false,"internalType":"uint256","name":"endTime","type":"uint256"}],"name":"GameStarted","type":"event"},{"anonymous":false,"inputs":[{"indexed":true,"internalType":"address","name":"previousOwner","type":"address"},{"indexed":true,"internalType":"address","name":"newOwner","type":"address"}],"name":"OwnershipTransferred","type":"event"},{"anonymous":false,"inputs":[{"indexed":true,"internalType":"uint256","name":"gameId","type":"uint256"},{"indexed":true,"internalType":"address","name":"player","type":"address"},{"indexed":false,"internalType":"uint256","name":"playerNumber","type":"uint256"}],"name":"PlayerEliminated","type":"event"},{"anonymous":false,"inputs":[{"indexed":true,"internalType":"uint256","name":"gameId","type":"uint256"},{"indexed":true,"internalType":"address","name":"player","type":"address"},{"indexed":false,"internalType":"uint8","name":"fromTeam","type":"uint8"},{"indexed":false,"internalType":"uint8","name":"toTeam","type":"uint8"}],"name":"PlayerSwitchedTeam","type":"event"},{"anonymous":false,"inputs":[{"indexed":true,"internalType":"uint256","name":"gameId","type":"uint256"},{"indexed":false,"internalType":"uint8","name":"team","type":"uint8"},{"indexed":false,"internalType":"uint256","name":"teamSize","type":"uint256"}],"name":"TeamEliminated","type":"event"},{"inputs":[],"name":"endExpiredGames","outputs":[],"stateMutability":"nonpayable","type":"function"},{"inputs":[],"name":"endGame","outputs":[{"internalType":"address[]","name":"","type":"address[]"}],"stateMutability":"nonpayable","type":"function"},{"inputs":[],"name":"gameIdCounter","outputs":[{"internalType":"uint256","name":"","type":"uint256"}],"stateMutability":"view","type":"function"},{"inputs":[],"name":"gameMaster","outputs":[{"internalType":"address","name":"","type":"address"}],"stateMutability":"view","type":"function"},{"inputs":[],"name":"getActivePlayers","outputs":[{"internalType":"address[]","name":"","type":"address[]"}],"stateMutability":"view","type":"function"},{"inputs":[{"internalType":"uint256","name":"gameId","type":"uint256"}],"name":"getGameInfo","outputs":[{"components":[{"internalType":"enum GameState","name":"state","type":"uint8"},{"internalType":"uint256","name":"currentRound","type":"uint256"},{"internalType":"uint256","name":"roundEndTime","type":"uint256"},{"internalType":"uint256","name":"gameStartTime","type":"uint256"},{"internalType":"uint256","name":"gameEndTime","type":"uint256"}],"internalType":"struct IGame.GameInfo","name":"","type":"tuple"}],"stateMutability":"view","type":"function"},{"inputs":[],"name":"getGameName","outputs":[{"internalType":"string","name":"","type":"string"}],"stateMutability":"pure","type":"function"},{"inputs":[{"internalType":"uint256","name":"gameId","type":"uint256"}],"name":"getGameState","outputs":[{"internalType":"enum GameState","name":"","type":"uint8"}],"stateMutability":"view","type":"function"},{"inputs":[],"name":"getGames","outputs":[{"components":[{"internalType":"uint256","name":"gameId","type":"uint256"},{"internalType":"enum GameState","name":"state","type":"uint8"},{"internalType":"uint256","name":"currentRound","type":"uint256"},{"internalType":"uint256","name":"activePlayerCount","type":"uint256"}],"internalType":"struct GameInstanceInfo[]","name":"gamesInfo","type":"tuple[]"}],"stateMutability":"view","type":"function"},{"inputs":[{"internalType":"address","name":"player","type":"address"}],"name":"getPlayerGameId","outputs":[{"internalType":"uint256","name":"","type":"uint256"}],"stateMutability":"view","type":"function"},{"inputs":[{"internalType":"uint256","name":"gameId","type":"uint256"}],"name":"getPlayerInfo","outputs":[{"components":[{"internalType":"address","name":"playerAddress","type":"address"},{"internalType":"uint256","name":"playerNumber","type":"uint256"},{"internalType":"uint8","name":"team","type":"uint8"},{"internalType":"bool","name":"isActive","type":"bool"}],"internalType":"struct Equilibrium.EquilibriumPlayerInfo[]","name":"","type":"tuple[]"}],"stateMutability":"view","type":"function"},{"inputs":[{"internalType":"uint256","name":"gameId","type":"uint256"},{"internalType":"address","name":"player","type":"address"}],"name":"getPlayerNumber","outputs":[{"internalType":"uint256","name":"","type":"uint256"}],"stateMutability":"view","type":"function"},{"inputs":[{"internalType":"uint256","name":"gameId","type":"uint256"},{"internalType":"address","name":"player","type":"address"}],"name":"getPlayerTeam","outputs":[{"internalType":"uint8","name":"","type":"uint8"}],"stateMutability":"view","type":"function"},{"inputs":[],"name":"getPlayers","outputs":[{"internalType":"address[]","name":"","type":"address[]"}],"stateMutability":"view","type":"function"},{"inputs":[{"internalType":"uint256","name":"gameId","type":"uint256"},{"internalType":"uint8","name":"team","type":"uint8"}],"name":"getTeamSize","outputs":[{"internalType":"uint256","name":"","type":"uint256"}],"stateMutability":"view","type":"function"},{"inputs":[{"internalType":"address[]","name":"_players","type":"address[]"},{"internalType":"uint256[]","name":"_playerNumbers","type":"uint256[]"}],"name":"initialize","outputs":[],"stateMutability":"nonpayable","type":"function"},{"inputs":[{"internalType":"address","name":"","type":"address"}],"name":"isPlayerInGame","outputs":[{"internalType":"bool","name":"","type":"bool"}],"stateMutability":"view","type":"function"},{"inputs":[],"name":"owner","outputs":[{"internalType":"address","name":"","type":"address"}],"stateMutability":"view","type":"function"},{"inputs":[{"internalType":"address","name":"","type":"address"}],"name":"playerGameId","outputs":[{"internalType":"uint256","name":"","type":"uint256"}],"stateMutability":"view","type":"function"},{"inputs":[],"name":"renounceOwnership","outputs":[],"stateMutability":"nonpayable","type":"function"},{"inputs":[{"internalType":"address","name":"_newGameMaster","type":"address"}],"name":"setGameMaster","outputs":[],"stateMutability":"nonpayable","type":"function"},{"inputs":[],"name":"startGames","outputs":[{"internalType":"bool","name":"","type":"bool"}],"stateMutability":"nonpayable","type":"function"},{"inputs":[{"internalType":"uint8","name":"team","type":"uint8"}],"name":"switchTeam","outputs":[],"stateMutability":"nonpayable","type":"function"},{"inputs":[{"internalType":"address","name":"newOwner","type":"address"}],"name":"transferOwnership","outputs":[],"stateMutability":"nonpayable","type":"function"}],"evm":{"bytecode":{"linkReferences":{},"object":"60808060405234608757331560715760008054336001600160a01b0319821681178355916001600160a01b03909116907f8be0079c531659141344cd1fd0a4f28419497f9722a3daafe3b4186f6b6457e09080a3600180546001600160a01b03191633179055611a31908161008d8239f35b631e4fbdf760e01b600052600060045260246000fd5b600080fdfe608080604052600436101561001357600080fd5b60003560e01c9081631bb412d6146111a95750806325b05c8814610b8f5780632f07ba5814610f9a5780633532804d14610eff5780633c4f5a6614610ec65780634294b98414610e2857806347e1d55014610d4e578063574a5b2014610d0f57806365c7e4e514610c9b5780636cbc2ded14610c22578063715018a614610bc9578063773b549d14610b8f5780637fbbe46f146107bb5780638b5b9ccc1461076b5780638da5cb5b14610742578063bbda33d914610697578063bdf84ae71461066e578063c04c59471461050e578063c2e9492714610453578063d0f3a21e146103e3578063e81de9f5146103a9578063ea17532e14610209578063f2fde38b146101805763ffde0c741461012757600080fd5b3461017b57602036600319011261017b576004358015158061016f575b61014d906112cf565b6000526003602052602060ff6040600020541661016d6040518092611233565bf35b50600254811115610144565b600080fd5b3461017b57602036600319011261017b576101996111c4565b6101a16119d2565b6001600160a01b031680156101f357600080546001600160a01b03198116831782556001600160a01b0316907f8be0079c531659141344cd1fd0a4f28419497f9722a3daafe3b4186f6b6457e09080a3005b631e4fbdf760e01b600052600060045260246000fd5b3461017b57602036600319011261017b576004358015158061039d575b61022f906112cf565b600052600360205260406000206004810180549061024c826114cf565b9261025a60405194856113c9565b828452601f19610269846114cf565b0160005b818110610386575050600060068201926008600984019301915b858110610301578660405180916020820160208352815180915260206040840192019060005b8181106102bb575050500390f35b919350916020608060019260608751858060a01b038151168352848101518584015260ff60408201511660408401520151151560608201520194019101918493926102ad565b8061030e60019284611469565b905460a084901b84900360039290921b1c16600081815260208881526040808320548983528184205492899052928190205490519360ff918216939190921691610357856113ad565b84526020840152604083015215156060820152610374828a61150c565b5261037f818961150c565b5001610287565b6020906103916114e7565b8282890101520161026d565b50600254811115610226565b3461017b57600036600319011261017b576103cf60018060a01b036001541633146113f7565b60206103d9611520565b6040519015158152f35b3461017b57600036600319011261017b57600254806000526003602052604060002060ff815416600581101561043d57600214908161042f575b5061042457005b61042d906115af565b005b60039150015442118261041d565b634e487b7160e01b600052602160045260246000fd5b3461017b57602036600319011261017b5761046c6111c4565b6104746119d2565b6001600160a01b031680156104c9576020817f63860f6674590a6969c4fe1dc738a9c8f955407c09e6c67a6bdb818f4c35cd8a926bffffffffffffffffffffffff60a01b6001541617600155604051908152a1005b60405162461bcd60e51b815260206004820152601a60248201527f496e76616c69642047616d654d617374657220616464726573730000000000006044820152606490fd5b3461017b57600036600319011261017b5760025461052b816114cf565b9061053960405192836113c9565b808252601f19610548826114cf565b0160005b81811061065757505060015b818111156105cf578260405180916020820160208352815180915260206040840192019060005b81811061058d575050500390f35b919350916020608060019260608751805183526105b08582015186850190611233565b604081015160408401520151606082015201940191019184939261057f565b806000526003602052604060002090600760ff835416920154610604604051936105f8856113ad565b838552602085016113eb565b60016040840152606083015260001981019181831161064157826106369161062f61063c958861150c565b528561150c565b506112c0565b610558565b634e487b7160e01b600052601160045260246000fd5b6020906106626114e7565b8282870101520161054c565b3461017b57600036600319011261017b576001546040516001600160a01b039091168152602090f35b3461017b57600036600319011261017b576040516040810181811067ffffffffffffffff82111761072c57604052600b81526a457175696c69627269756d60a81b602082015260405190602082528181519182602083015260005b8381106107145750508160006040809484010152601f80199101168101030190f35b602082820181015160408784010152859350016106f2565b634e487b7160e01b600052604160045260246000fd5b3461017b57600036600319011261017b576000546040516001600160a01b039091168152602090f35b3461017b57600036600319011261017b5760025460005260036020526107b76107a46107ab60046040600020016040519283809261134e565b03826113c9565b604051918291826111f0565b0390f35b3461017b57604036600319011261017b5760043567ffffffffffffffff811161017b576107ec903690600401611240565b9060243567ffffffffffffffff811161017b5761080d903690600401611240565b909261082460018060a01b036001541633146113f7565b8015610b5457818103610b0f5760028110610aca576108446002546112c0565b9283600255836000526003602052604060002093600160ff1986541617855542600186015560009460048101956007820191600a8101926006820160058301976009600885019401945b8181106108fe578c8c8c6108ad6040519260408452604084019061134e565b8281036020840152818152906001600160fb1b03811161017b577fb66ba8feaec509998ef3217bc97fbf1a0f906b89fac25a4ace8ddff059a41f1293602092849260051b80928583013701030190a1005b61090981838b611443565b35906001600160a01b03821680830361017b578015610a8c578b8f8f908f9184600052600560205260ff604060002054166109f4575b9261095d86889460409461095860019b61098499611481565b611443565b358260008781528b6020522055600090858252602052208560ff1982541617905587611481565b6040600082815288602052208360ff1982541617905560406000828152896020522060ff198154169055600080528860205260406000206109c581546112c0565b905580600052600460205289604060002055600052600560205260406000208260ff198254161790550161088e565b505050508060005260046020526040600020548015908115610a67575b5015610a22578b8f8f908f9161093f565b60405162461bcd60e51b815260206004820152601d60248201527f506c6179657220616c726561647920696e206163746976652067616d650000006044820152606490fd5b9050600052600360205260ff60406000205416600581101561043d5760041438610a11565b60405162461bcd60e51b8152602060048201526016602482015275496e76616c696420706c61796572206164647265737360501b6044820152606490fd5b60405162461bcd60e51b815260206004820152601760248201527f4e656564206174206c65617374203220706c61796572730000000000000000006044820152606490fd5b60405162461bcd60e51b815260206004820152601860248201527f4172726179206c656e67746873206d757374206d6174636800000000000000006044820152606490fd5b60405162461bcd60e51b8152602060048201526013602482015272139bc81c1b185e595c9cc81c1c9bdd9a591959606a1b6044820152606490fd5b3461017b57602036600319011261017b576001600160a01b03610bb06111c4565b1660005260046020526020604060002054604051908152f35b3461017b57600036600319011261017b57610be26119d2565b600080546001600160a01b0319811682556001600160a01b03167f8be0079c531659141344cd1fd0a4f28419497f9722a3daafe3b4186f6b6457e08280a3005b3461017b57600036600319011261017b57610c4860018060a01b036001541633146113f7565b60025480600052600360205260406000209060ff825416600581101561043d576107b79260079260026107ab9314610c8c575b506107a4604051809481930161134e565b610c95906115af565b84610c7b565b3461017b57604036600319011261017b576004356024359060ff821680920361017b5780151580610d03575b610cd0906112cf565b610cdc60048310611271565b6000526003602052600a604060002001906000526020526020604060002054604051908152f35b50600254811115610cc7565b3461017b57602036600319011261017b576001600160a01b03610d306111c4565b166000526005602052602060ff604060002054166040519015158152f35b3461017b57602036600319011261017b5760043560006080604051610d7281611391565b828152826020820152826040820152826060820152015280151580610e1c575b610d9b906112cf565b600052600360205260a0604060002060ff815416906003810154906002600182015491015491610dd760405194610dd186611391565b856113eb565b6020840160018152604085019182526060850192835260808501938452610e02604051809651611233565b516020850152516040840152516060830152516080820152f35b50600254811115610d92565b3461017b57604036600319011261017b57600435610e446111da565b9080151580610eba575b610e57906112cf565b806000526003602052600560406000200160018060a01b038316600052602052610e8860ff6040600020541661130d565b600052600360205260096040600020019060018060a01b0316600052602052602060ff60406000205416604051908152f35b50600254811115610e4e565b3461017b57600036600319011261017b5760025460005260036020526107b76107a46107ab60076040600020016040519283809261134e565b3461017b57604036600319011261017b57600435610f1b6111da565b9080151580610f8e575b610f2e906112cf565b806000526003602052600560406000200160018060a01b038316600052602052610f5f60ff6040600020541661130d565b600052600360205260066040600020019060018060a01b03166000526020526020604060002054604051908152f35b50600254811115610f25565b3461017b57602036600319011261017b5760043560ff811680910361017b5733600052600560205260ff604060002054161561116b57610fdc60048210611271565b33600052600460205260406000205480600052600360205260406000209160ff835416600581101561043d5760020361113457600383015442116110fe5733600090815260098401602081905260409091205460ff16938285146110c257600a0160ff851660005280602052604060002061105781546112b3565b905582600052602052604060002061106f81546112c0565b905560018060a01b03331660005260205260406000208160ff1982541617905560405192835260208301527fe6e5fc6e2975ffc9ef7e3c2c7e29d0d370446c8daa529eef4b6ff1cd2da1f19360403393a3005b60405162461bcd60e51b8152602060048201526014602482015273416c7265616479206f6e2074686973207465616d60601b6044820152606490fd5b60405162461bcd60e51b815260206004820152600e60248201526d11d85b59481a185cc8195b99195960921b6044820152606490fd5b60405162461bcd60e51b815260206004820152600f60248201526e47616d65206e6f742061637469766560881b6044820152606490fd5b60405162461bcd60e51b8152602060048201526016602482015275506c61796572206e6f7420696e20616e792067616d6560501b6044820152606490fd5b3461017b57600036600319011261017b576020906002548152f35b600435906001600160a01b038216820361017b57565b602435906001600160a01b038216820361017b57565b602060408183019282815284518094520192019060005b8181106112145750505090565b82516001600160a01b0316845260209384019390920191600101611207565b90600582101561043d5752565b9181601f8401121561017b5782359167ffffffffffffffff831161017b576020808501948460051b01011161017b57565b1561127857565b60405162461bcd60e51b815260206004820152601360248201527224b73b30b634b2103a32b0b690373ab6b132b960691b6044820152606490fd5b8015610641576000190190565b60001981146106415760010190565b156112d657565b60405162461bcd60e51b815260206004820152600f60248201526e125b9d985b1a590819d85b59481251608a1b6044820152606490fd5b1561131457565b60405162461bcd60e51b8152602060048201526012602482015271506c61796572206e6f7420696e2067616d6560701b6044820152606490fd5b906020825491828152019160005260206000209060005b8181106113725750505090565b82546001600160a01b0316845260209093019260019283019201611365565b60a0810190811067ffffffffffffffff82111761072c57604052565b6080810190811067ffffffffffffffff82111761072c57604052565b90601f8019910116810190811067ffffffffffffffff82111761072c57604052565b600582101561043d5752565b156113fe57565b60405162461bcd60e51b815260206004820152601860248201527f4f6e6c792047616d654d61737465722063616e2063616c6c00000000000000006044820152606490fd5b91908110156114535760051b0190565b634e487b7160e01b600052603260045260246000fd5b80548210156114535760005260206000200190600090565b908154916801000000000000000083101561072c57826114a99160016114cd95018155611469565b81546001600160a01b0393841660039290921b91821b9390911b1916919091179055565b565b67ffffffffffffffff811161072c5760051b60200190565b604051906114f4826113ad565b60006060838281528260208201528260408201520152565b80518210156114535760209160051b010190565b6002546000526003602052604060002060ff815416600581101561043d57600114806115a2575b6115515750600090565b600260ff19825416178155610258420190814211610641576003829101557fa2dfaa3573b86004ec9d4d4abe5068d942579c59da4da8cd0d9e45e71a393bc1602060025492604051908152a2600190565b5060078101541515611547565b8060005260036020526040600020600090600a8101918080528260205260408120549260015b600460ff82161061198b575050600782019283546115f2816114cf565b6115ff60405191826113c9565b818152601f1961160e836114cf565b0136602083013760009160098601835b82811061192e57505050906000905b8082106116bb5750505091847fe41d6b13e5cba3ff95cceafbe365ee1bc0e88b7b44d6dfc4c99ebe6c8024c41960407fa7690f576eaef889ef9ef29d1eaee6c0e3b073108b66bb8009ec8af6428bb34596946116b69660ff8351921682526020820152a2600460ff1982541617815560024291015560405191829160208352602083019061134e565b0390a2565b92979196909593949093906001600160a01b036116d8888a61150c565b51169585600052600360205260406000209960088b0160ff6040600060018060a01b038c16815283602052205416156118f557604090818d600a60ff9a9e9a838e60009060018060a01b03168152600985016020522054169160ff600093168352016020522061174881546112b3565b905560009060018060a01b038b1682526020522060ff198154169055876000526005602052604060002060ff1981541690558760005260046020526000604081205560009960078c019a5b8b54808210156118e2578a6117a8838f611469565b905460039190911b1c6001600160a01b0316146117c85750600101611793565b9060009d959a9398969b94999c92979d198201918211610641576114a96117f261180b9385611469565b905460039190911b1c6001600160a01b03169184611469565b805480156118cc5760001901906118228282611469565b81549060018060a01b039060031b1b19169055555b6001546001600160a01b031692833b1561017b577f51479c93d7646904d2282e9e79cddf11999ac774b7fd0289e2f59cb4ad0f086a602060408d936000806001996024855180948193633ef6cf1d60e21b83528c60048401525af16118bb575b506006600091898060a01b03881683520183522054604051908152a301909161162d565b60006118c6916113c9565b38611897565b634e487b7160e01b600052603160045260246000fd5b5050949a92979095939891969950611837565b60405162461bcd60e51b8152602060048201526011602482015270506c61796572206e6f742061637469766560781b6044820152606490fd5b8061193b6001928b611469565b838060a01b0391549060031b1c1660ff60406000858060a01b03841681528660205220541660ff8a1614611971575b500161161e565b61198461197d886112c0565b978761150c565b523861196a565b846040600060ff84168152846020522054116119b5575b60ff1660ff8114610641576001016115d5565b60ff811660009081526020839052604090205494509150816119a2565b6000546001600160a01b031633036119e657565b63118cdaa760e01b6000523360045260246000fdfea264697066735822122042377c930a7a2dcf0606424cc959c0e94128fe5f2c97b84f8252b7b5a4cb3a1c64736f6c634300081c0033","opcodes":"PUSH1 0x80 DUP1 PUSH1 0x40 MSTORE CALLVALUE PUSH1 0x87 JUMPI CALLER ISZERO PUSH1 0x71 JUMPI PUSH1 0x0 DUP1 SLOAD CALLER PUSH1 0x1 PUSH1 0x1 PUSH1 0xA0 SHL SUB NOT DUP3 AND DUP2 OR DUP4 SSTORE SWAP2 PUSH1 0x1 PUSH1 0x1 PUSH1 0xA0 SHL SUB SWAP1 SWAP2 AND SWAP1 PUSH32 0x8BE0079C531659141344CD1FD0A4F28419497F9722A3DAAFE3B4186F6B6457E0 SWAP1 DUP1 LOG3 PUSH1 0x1 DUP1 SLOAD PUSH1 0x1 PUSH1 0x1 PUSH1 0xA0 SHL SUB NOT AND CALLER OR SWAP1 SSTORE PUSH2 0x1A31 SWAP1 DUP2 PUSH2 0x8D DUP3 CODECOPY RETURN JUMPDEST PUSH4 0x1E4FBDF7 PUSH1 0xE0 SHL PUSH1 0x0 MSTORE PUSH1 0x0 PUSH1 0x4 MSTORE PUSH1 0x24 PUSH1 0x0 REVERT JUMPDEST PUSH1 0x0 DUP1 REVERT INVALID PUSH1 0x80 DUP1 PUSH1 0x40 MSTORE PUSH1 0x4 CALLDATASIZE LT ISZERO PUSH2 0x13 JUMPI PUSH1 0x0 DUP1 REVERT JUMPDEST PUSH1 0x0 CALLDATALOAD PUSH1 0xE0 SHR SWAP1 DUP2 PUSH4 0x1BB412D6 EQ PUSH2 0x11A9 JUMPI POP DUP1 PUSH4 0x25B05C88 EQ PUSH2 0xB8F JUMPI DUP1 PUSH4 0x2F07BA58 EQ PUSH2 0xF9A JUMPI DUP1 PUSH4 0x3532804D EQ PUSH2 0xEFF JUMPI DUP1 PUSH4 0x3C4F5A66 EQ PUSH2 0xEC6 JUMPI DUP1 PUSH4 0x4294B984 EQ PUSH2 0xE28 JUMPI DUP1 PUSH4 0x47E1D550 EQ PUSH2 0xD4E JUMPI DUP1 PUSH4 0x574A5B20 EQ PUSH2 0xD0F JUMPI DUP1 PUSH4 0x65C7E4E5 EQ PUSH2 0xC9B JUMPI DUP1 PUSH4 0x6CBC2DED EQ PUSH2 0xC22 JUMPI DUP1 PUSH4 0x715018A6 EQ PUSH2 0xBC9 JUMPI DUP1 PUSH4 0x773B549D EQ PUSH2 0xB8F JUMPI DUP1 PUSH4 0x7FBBE46F EQ PUSH2 0x7BB JUMPI DUP1 PUSH4 0x8B5B9CCC EQ PUSH2 0x76B JUMPI DUP1 PUSH4 0x8DA5CB5B EQ PUSH2 0x742 JUMPI DUP1 PUSH4 0xBBDA33D9 EQ PUSH2 0x697 JUMPI DUP1 PUSH4 0xBDF84AE7 EQ PUSH2 0x66E JUMPI DUP1 PUSH4 0xC04C5947 EQ PUSH2 0x50E JUMPI DUP1 PUSH4 0xC2E94927 EQ PUSH2 0x453 JUMPI DUP1 PUSH4 0xD0F3A21E EQ PUSH2 0x3E3 JUMPI DUP1 PUSH4 0xE81DE9F5 EQ PUSH2 0x3A9 JUMPI DUP1 PUSH4 0xEA17532E EQ PUSH2 0x209 JUMPI DUP1 PUSH4 0xF2FDE38B EQ PUSH2 0x180 JUMPI PUSH4 0xFFDE0C74 EQ PUSH2 0x127 JUMPI PUSH1 0x0 DUP1 REVERT JUMPDEST CALLVALUE PUSH2 0x17B JUMPI PUSH1 0x20 CALLDATASIZE PUSH1 0x3 NOT ADD SLT PUSH2 0x17B JUMPI PUSH1 0x4 CALLDATALOAD DUP1 ISZERO ISZERO DUP1 PUSH2 0x16F JUMPI JUMPDEST PUSH2 0x14D SWAP1 PUSH2 0x12CF JUMP JUMPDEST PUSH1 0x0 MSTORE PUSH1 0x3 PUSH1 0x20 MSTORE PUSH1 0x20 PUSH1 0xFF PUSH1 0x40 PUSH1 0x0 KECCAK256 SLOAD AND PUSH2 0x16D PUSH1 0x40 MLOAD DUP1 SWAP3 PUSH2 0x1233 JUMP JUMPDEST RETURN JUMPDEST POP PUSH1 0x2 SLOAD DUP2 GT ISZERO PUSH2 0x144 JUMP JUMPDEST PUSH1 0x0 DUP1 REVERT JUMPDEST CALLVALUE PUSH2 0x17B JUMPI PUSH1 0x20 CALLDATASIZE PUSH1 0x3 NOT ADD SLT PUSH2 0x17B JUMPI PUSH2 0x199 PUSH2 0x11C4 JUMP JUMPDEST PUSH2 0x1A1 PUSH2 0x19D2 JUMP JUMPDEST PUSH1 0x1 PUSH1 0x1 PUSH1 0xA0 SHL SUB AND DUP1 ISZERO PUSH2 0x1F3 JUMPI PUSH1 0x0 DUP1 SLOAD PUSH1 0x1 PUSH1 0x1 PUSH1 0xA0 SHL SUB NOT DUP2 AND DUP4 OR DUP3 SSTORE PUSH1 0x1 PUSH1 0x1 PUSH1 0xA0 SHL SUB AND SWAP1 PUSH32 0x8BE0079C531659141344CD1FD0A4F28419497F9722A3DAAFE3B4186F6B6457E0 SWAP1 DUP1 LOG3 STOP JUMPDEST PUSH4 0x1E4FBDF7 PUSH1 0xE0 SHL PUSH1 0x0 MSTORE PUSH1 0x0 PUSH1 0x4 MSTORE PUSH1 0x24 PUSH1 0x0 REVERT JUMPDEST CALLVALUE PUSH2 0x17B JUMPI PUSH1 0x20 CALLDATASIZE PUSH1 0x3 NOT ADD SLT PUSH2 0x17B JUMPI PUSH1 0x4 CALLDATALOAD DUP1 ISZERO ISZERO DUP1 PUSH2 0x39D JUMPI JUMPDEST PUSH2 0x22F SWAP1 PUSH2 0x12CF JUMP JUMPDEST PUSH1 0x0 MSTORE PUSH1 0x3 PUSH1 0x20 MSTORE PUSH1 0x40 PUSH1 0x0 KECCAK256 PUSH1 0x4 DUP2 ADD DUP1 SLOAD SWAP1 PUSH2 0x24C DUP3 PUSH2 0x14CF JUMP JUMPDEST SWAP3 PUSH2 0x25A PUSH1 0x40 MLOAD SWAP5 DUP6 PUSH2 0x13C9 JUMP JUMPDEST DUP3 DUP5 MSTORE PUSH1 0x1F NOT PUSH2 0x269 DUP5 PUSH2 0x14CF JUMP JUMPDEST ADD PUSH1 0x0 JUMPDEST DUP2 DUP2 LT PUSH2 0x386 JUMPI POP POP PUSH1 0x0 PUSH1 0x6 DUP3 ADD SWAP3 PUSH1 0x8 PUSH1 0x9 DUP5 ADD SWAP4 ADD SWAP2 JUMPDEST DUP6 DUP2 LT PUSH2 0x301 JUMPI DUP7 PUSH1 0x40 MLOAD DUP1 SWAP2 PUSH1 0x20 DUP3 ADD PUSH1 0x20 DUP4 MSTORE DUP2 MLOAD DUP1 SWAP2 MSTORE PUSH1 0x20 PUSH1 0x40 DUP5 ADD SWAP3 ADD SWAP1 PUSH1 0x0 JUMPDEST DUP2 DUP2 LT PUSH2 0x2BB JUMPI POP POP POP SUB SWAP1 RETURN JUMPDEST SWAP2 SWAP4 POP SWAP2 PUSH1 0x20 PUSH1 0x80 PUSH1 0x1 SWAP3 PUSH1 0x60 DUP8 MLOAD DUP6 DUP1 PUSH1 0xA0 SHL SUB DUP2 MLOAD AND DUP4 MSTORE DUP5 DUP2 ADD MLOAD DUP6 DUP5 ADD MSTORE PUSH1 0xFF PUSH1 0x40 DUP3 ADD MLOAD AND PUSH1 0x40 DUP5 ADD MSTORE ADD MLOAD ISZERO ISZERO PUSH1 0x60 DUP3 ADD MSTORE ADD SWAP5 ADD SWAP2 ADD SWAP2 DUP5 SWAP4 SWAP3 PUSH2 0x2AD JUMP JUMPDEST DUP1 PUSH2 0x30E PUSH1 0x1 SWAP3 DUP5 PUSH2 0x1469 JUMP JUMPDEST SWAP1 SLOAD PUSH1 0xA0 DUP5 SWAP1 SHL DUP5 SWAP1 SUB PUSH1 0x3 SWAP3 SWAP1 SWAP3 SHL SHR AND PUSH1 0x0 DUP2 DUP2 MSTORE PUSH1 0x20 DUP9 DUP2 MSTORE PUSH1 0x40 DUP1 DUP4 KECCAK256 SLOAD DUP10 DUP4 MSTORE DUP2 DUP5 KECCAK256 SLOAD SWAP3 DUP10 SWAP1 MSTORE SWAP3 DUP2 SWAP1 KECCAK256 SLOAD SWAP1 MLOAD SWAP4 PUSH1 0xFF SWAP2 DUP3 AND SWAP4 SWAP2 SWAP1 SWAP3 AND SWAP2 PUSH2 0x357 DUP6 PUSH2 0x13AD JUMP JUMPDEST DUP5 MSTORE PUSH1 0x20 DUP5 ADD MSTORE PUSH1 0x40 DUP4 ADD MSTORE ISZERO ISZERO PUSH1 0x60 DUP3 ADD MSTORE PUSH2 0x374 DUP3 DUP11 PUSH2 0x150C JUMP JUMPDEST MSTORE PUSH2 0x37F DUP2 DUP10 PUSH2 0x150C JUMP JUMPDEST POP ADD PUSH2 0x287 JUMP JUMPDEST PUSH1 0x20 SWAP1 PUSH2 0x391 PUSH2 0x14E7 JUMP JUMPDEST DUP3 DUP3 DUP10 ADD ADD MSTORE ADD PUSH2 0x26D JUMP JUMPDEST POP PUSH1 0x2 SLOAD DUP2 GT ISZERO PUSH2 0x226 JUMP JUMPDEST CALLVALUE PUSH2 0x17B JUMPI PUSH1 0x0 CALLDATASIZE PUSH1 0x3 NOT ADD SLT PUSH2 0x17B JUMPI PUSH2 0x3CF PUSH1 0x1 DUP1 PUSH1 0xA0 SHL SUB PUSH1 0x1 SLOAD AND CALLER EQ PUSH2 0x13F7 JUMP JUMPDEST PUSH1 0x20 PUSH2 0x3D9 PUSH2 0x1520 JUMP JUMPDEST PUSH1 0x40 MLOAD SWAP1 ISZERO ISZERO DUP2 MSTORE RETURN JUMPDEST CALLVALUE PUSH2 0x17B JUMPI PUSH1 0x0 CALLDATASIZE PUSH1 0x3 NOT ADD SLT PUSH2 0x17B JUMPI PUSH1 0x2 SLOAD DUP1 PUSH1 0x0 MSTORE PUSH1 0x3 PUSH1 0x20 MSTORE PUSH1 0x40 PUSH1 0x0 KECCAK256 PUSH1 0xFF DUP2 SLOAD AND PUSH1 0x5 DUP2 LT ISZERO PUSH2 0x43D JUMPI PUSH1 0x2 EQ SWAP1 DUP2 PUSH2 0x42F JUMPI JUMPDEST POP PUSH2 0x424 JUMPI STOP JUMPDEST PUSH2 0x42D SWAP1 PUSH2 0x15AF JUMP JUMPDEST STOP JUMPDEST PUSH1 0x3 SWAP2 POP ADD SLOAD TIMESTAMP GT DUP3 PUSH2 0x41D JUMP JUMPDEST PUSH4 0x4E487B71 PUSH1 0xE0 SHL PUSH1 0x0 MSTORE PUSH1 0x21 PUSH1 0x4 MSTORE PUSH1 0x24 PUSH1 0x0 REVERT JUMPDEST CALLVALUE PUSH2 0x17B JUMPI PUSH1 0x20 CALLDATASIZE PUSH1 0x3 NOT ADD SLT PUSH2 0x17B JUMPI PUSH2 0x46C PUSH2 0x11C4 JUMP JUMPDEST PUSH2 0x474 PUSH2 0x19D2 JUMP JUMPDEST PUSH1 0x1 PUSH1 0x1 PUSH1 0xA0 SHL SUB AND DUP1 ISZERO PUSH2 0x4C9 JUMPI PUSH1 0x20 DUP2 PUSH32 0x63860F6674590A6969C4FE1DC738A9C8F955407C09E6C67A6BDB818F4C35CD8A SWAP3 PUSH12 0xFFFFFFFFFFFFFFFFFFFFFFFF PUSH1 0xA0 SHL PUSH1 0x1 SLOAD AND OR PUSH1 0x1 SSTORE PUSH1 0x40 MLOAD SWAP1 DUP2 MSTORE LOG1 STOP JUMPDEST PUSH1 0x40 MLOAD PUSH3 0x461BCD PUSH1 0xE5 SHL DUP2 MSTORE PUSH1 0x20 PUSH1 0x4 DUP3 ADD MSTORE PUSH1 0x1A PUSH1 0x24 DUP3 ADD MSTORE PUSH32 0x496E76616C69642047616D654D61737465722061646472657373000000000000 PUSH1 0x44 DUP3 ADD MSTORE PUSH1 0x64 SWAP1 REVERT JUMPDEST CALLVALUE PUSH2 0x17B JUMPI PUSH1 0x0 CALLDATASIZE PUSH1 0x3 NOT ADD SLT PUSH2 0x17B JUMPI PUSH1 0x2 SLOAD PUSH2 0x52B DUP2 PUSH2 0x14CF JUMP JUMPDEST SWAP1 PUSH2 0x539 PUSH1 0x40 MLOAD SWAP3 DUP4 PUSH2 0x13C9 JUMP JUMPDEST DUP1 DUP3 MSTORE PUSH1 0x1F NOT PUSH2 0x548 DUP3 PUSH2 0x14CF JUMP JUMPDEST ADD PUSH1 0x0 JUMPDEST DUP2 DUP2 LT PUSH2 0x657 JUMPI POP POP PUSH1 0x1 JUMPDEST DUP2 DUP2 GT ISZERO PUSH2 0x5CF JUMPI DUP3 PUSH1 0x40 MLOAD DUP1 SWAP2 PUSH1 0x20 DUP3 ADD PUSH1 0x20 DUP4 MSTORE DUP2 MLOAD DUP1 SWAP2 MSTORE PUSH1 0x20 PUSH1 0x40 DUP5 ADD SWAP3 ADD SWAP1 PUSH1 0x0 JUMPDEST DUP2 DUP2 LT PUSH2 0x58D JUMPI POP POP POP SUB SWAP1 RETURN JUMPDEST SWAP2 SWAP4 POP SWAP2 PUSH1 0x20 PUSH1 0x80 PUSH1 0x1 SWAP3 PUSH1 0x60 DUP8 MLOAD DUP1 MLOAD DUP4 MSTORE PUSH2 0x5B0 DUP6 DUP3 ADD MLOAD DUP7 DUP6 ADD SWAP1 PUSH2 0x1233 JUMP JUMPDEST PUSH1 0x40 DUP2 ADD MLOAD PUSH1 0x40 DUP5 ADD MSTORE ADD MLOAD PUSH1 0x60 DUP3 ADD MSTORE ADD SWAP5 ADD SWAP2 ADD SWAP2 DUP5 SWAP4 SWAP3 PUSH2 0x57F JUMP JUMPDEST DUP1 PUSH1 0x0 MSTORE PUSH1 0x3 PUSH1 0x20 MSTORE PUSH1 0x40 PUSH1 0x0 KECCAK256 SWAP1 PUSH1 0x7 PUSH1 0xFF DUP4 SLOAD AND SWAP3 ADD SLOAD PUSH2 0x604 PUSH1 0x40 MLOAD SWAP4 PUSH2 0x5F8 DUP6 PUSH2 0x13AD JUMP JUMPDEST DUP4 DUP6 MSTORE PUSH1 0x20 DUP6 ADD PUSH2 0x13EB JUMP JUMPDEST PUSH1 0x1 PUSH1 0x40 DUP5 ADD MSTORE PUSH1 0x60 DUP4 ADD MSTORE PUSH1 0x0 NOT DUP2 ADD SWAP2 DUP2 DUP4 GT PUSH2 0x641 JUMPI DUP3 PUSH2 0x636 SWAP2 PUSH2 0x62F PUSH2 0x63C SWAP6 DUP9 PUSH2 0x150C JUMP JUMPDEST MSTORE DUP6 PUSH2 0x150C JUMP JUMPDEST POP PUSH2 0x12C0 JUMP JUMPDEST PUSH2 0x558 JUMP JUMPDEST PUSH4 0x4E487B71 PUSH1 0xE0 SHL PUSH1 0x0 MSTORE PUSH1 0x11 PUSH1 0x4 MSTORE PUSH1 0x24 PUSH1 0x0 REVERT JUMPDEST PUSH1 0x20 SWAP1 PUSH2 0x662 PUSH2 0x14E7 JUMP JUMPDEST DUP3 DUP3 DUP8 ADD ADD MSTORE ADD PUSH2 0x54C JUMP JUMPDEST CALLVALUE PUSH2 0x17B JUMPI PUSH1 0x0 CALLDATASIZE PUSH1 0x3 NOT ADD SLT PUSH2 0x17B JUMPI PUSH1 0x1 SLOAD PUSH1 0x40 MLOAD PUSH1 0x1 PUSH1 0x1 PUSH1 0xA0 SHL SUB SWAP1 SWAP2 AND DUP2 MSTORE PUSH1 0x20 SWAP1 RETURN JUMPDEST CALLVALUE PUSH2 0x17B JUMPI PUSH1 0x0 CALLDATASIZE PUSH1 0x3 NOT ADD SLT PUSH2 0x17B JUMPI PUSH1 0x40 MLOAD PUSH1 0x40 DUP2 ADD DUP2 DUP2 LT PUSH8 0xFFFFFFFFFFFFFFFF DUP3 GT OR PUSH2 0x72C JUMPI PUSH1 0x40 MSTORE PUSH1 0xB DUP2 MSTORE PUSH11 0x457175696C69627269756D PUSH1 0xA8 SHL PUSH1 0x20 DUP3 ADD MSTORE PUSH1 0x40 MLOAD SWAP1 PUSH1 0x20 DUP3 MSTORE DUP2 DUP2 MLOAD SWAP2 DUP3 PUSH1 0x20 DUP4 ADD MSTORE PUSH1 0x0 JUMPDEST DUP4 DUP2 LT PUSH2 0x714 JUMPI POP POP DUP2 PUSH1 0x0 PUSH1 0x40 DUP1 SWAP5 DUP5 ADD ADD MSTORE PUSH1 0x1F DUP1 NOT SWAP2 ADD AND DUP2 ADD SUB ADD SWAP1 RETURN JUMPDEST PUSH1 0x20 DUP3 DUP3 ADD DUP2 ADD MLOAD PUSH1 0x40 DUP8 DUP5 ADD ADD MSTORE DUP6 SWAP4 POP ADD PUSH2 0x6F2 JUMP JUMPDEST PUSH4 0x4E487B71 PUSH1 0xE0 SHL PUSH1 0x0 MSTORE PUSH1 0x41 PUSH1 0x4 MSTORE PUSH1 0x24 PUSH1 0x0 REVERT JUMPDEST CALLVALUE PUSH2 0x17B JUMPI PUSH1 0x0 CALLDATASIZE PUSH1 0x3 NOT ADD SLT PUSH2 0x17B JUMPI PUSH1 0x0 SLOAD PUSH1 0x40 MLOAD PUSH1 0x1 PUSH1 0x1 PUSH1 0xA0 SHL SUB SWAP1 SWAP2 AND DUP2 MSTORE PUSH1 0x20 SWAP1 RETURN JUMPDEST CALLVALUE PUSH2 0x17B JUMPI PUSH1 0x0 CALLDATASIZE PUSH1 0x3 NOT ADD SLT PUSH2 0x17B JUMPI PUSH1 0x2 SLOAD PUSH1 0x0 MSTORE PUSH1 0x3 PUSH1 0x20 MSTORE PUSH2 0x7B7 PUSH2 0x7A4 PUSH2 0x7AB PUSH1 0x4 PUSH1 0x40 PUSH1 0x0 KECCAK256 ADD PUSH1 0x40 MLOAD SWAP3 DUP4 DUP1 SWAP3 PUSH2 0x134E JUMP JUMPDEST SUB DUP3 PUSH2 0x13C9 JUMP JUMPDEST PUSH1 0x40 MLOAD SWAP2 DUP3 SWAP2 DUP3 PUSH2 0x11F0 JUMP JUMPDEST SUB SWAP1 RETURN JUMPDEST CALLVALUE PUSH2 0x17B JUMPI PUSH1 0x40 CALLDATASIZE PUSH1 0x3 NOT ADD SLT PUSH2 0x17B JUMPI PUSH1 0x4 CALLDATALOAD PUSH8 0xFFFFFFFFFFFFFFFF DUP2 GT PUSH2 0x17B JUMPI PUSH2 0x7EC SWAP1 CALLDATASIZE SWAP1 PUSH1 0x4 ADD PUSH2 0x1240 JUMP JUMPDEST SWAP1 PUSH1 0x24 CALLDATALOAD PUSH8 0xFFFFFFFFFFFFFFFF DUP2 GT PUSH2 0x17B JUMPI PUSH2 0x80D SWAP1 CALLDATASIZE SWAP1 PUSH1 0x4 ADD PUSH2 0x1240 JUMP JUMPDEST SWAP1 SWAP3 PUSH2 0x824 PUSH1 0x1 DUP1 PUSH1 0xA0 SHL SUB PUSH1 0x1 SLOAD AND CALLER EQ PUSH2 0x13F7 JUMP JUMPDEST DUP1 ISZERO PUSH2 0xB54 JUMPI DUP2 DUP2 SUB PUSH2 0xB0F JUMPI PUSH1 0x2 DUP2 LT PUSH2 0xACA JUMPI PUSH2 0x844 PUSH1 0x2 SLOAD PUSH2 0x12C0 JUMP JUMPDEST SWAP3 DUP4 PUSH1 0x2 SSTORE DUP4 PUSH1 0x0 MSTORE PUSH1 0x3 PUSH1 0x20 MSTORE PUSH1 0x40 PUSH1 0x0 KECCAK256 SWAP4 PUSH1 0x1 PUSH1 0xFF NOT DUP7 SLOAD AND OR DUP6 SSTORE TIMESTAMP PUSH1 0x1 DUP7 ADD SSTORE PUSH1 0x0 SWAP5 PUSH1 0x4 DUP2 ADD SWAP6 PUSH1 0x7 DUP3 ADD SWAP2 PUSH1 0xA DUP2 ADD SWAP3 PUSH1 0x6 DUP3 ADD PUSH1 0x5 DUP4 ADD SWAP8 PUSH1 0x9 PUSH1 0x8 DUP6 ADD SWAP5 ADD SWAP5 JUMPDEST DUP2 DUP2 LT PUSH2 0x8FE JUMPI DUP13 DUP13 DUP13 PUSH2 0x8AD PUSH1 0x40 MLOAD SWAP3 PUSH1 0x40 DUP5 MSTORE PUSH1 0x40 DUP5 ADD SWAP1 PUSH2 0x134E JUMP JUMPDEST DUP3 DUP2 SUB PUSH1 0x20 DUP5 ADD MSTORE DUP2 DUP2 MSTORE SWAP1 PUSH1 0x1 PUSH1 0x1 PUSH1 0xFB SHL SUB DUP2 GT PUSH2 0x17B JUMPI PUSH32 0xB66BA8FEAEC509998EF3217BC97FBF1A0F906B89FAC25A4ACE8DDFF059A41F12 SWAP4 PUSH1 0x20 SWAP3 DUP5 SWAP3 PUSH1 0x5 SHL DUP1 SWAP3 DUP6 DUP4 ADD CALLDATACOPY ADD SUB ADD SWAP1 LOG1 STOP JUMPDEST PUSH2 0x909 DUP2 DUP4 DUP12 PUSH2 0x1443 JUMP JUMPDEST CALLDATALOAD SWAP1 PUSH1 0x1 PUSH1 0x1 PUSH1 0xA0 SHL SUB DUP3 AND DUP1 DUP4 SUB PUSH2 0x17B JUMPI DUP1 ISZERO PUSH2 0xA8C JUMPI DUP12 DUP16 DUP16 SWAP1 DUP16 SWAP2 DUP5 PUSH1 0x0 MSTORE PUSH1 0x5 PUSH1 0x20 MSTORE PUSH1 0xFF PUSH1 0x40 PUSH1 0x0 KECCAK256 SLOAD AND PUSH2 0x9F4 JUMPI JUMPDEST SWAP3 PUSH2 0x95D DUP7 DUP9 SWAP5 PUSH1 0x40 SWAP5 PUSH2 0x958 PUSH1 0x1 SWAP12 PUSH2 0x984 SWAP10 PUSH2 0x1481 JUMP JUMPDEST PUSH2 0x1443 JUMP JUMPDEST CALLDATALOAD DUP3 PUSH1 0x0 DUP8 DUP2 MSTORE DUP12 PUSH1 0x20 MSTORE KECCAK256 SSTORE PUSH1 0x0 SWAP1 DUP6 DUP3 MSTORE PUSH1 0x20 MSTORE KECCAK256 DUP6 PUSH1 0xFF NOT DUP3 SLOAD AND OR SWAP1 SSTORE DUP8 PUSH2 0x1481 JUMP JUMPDEST PUSH1 0x40 PUSH1 0x0 DUP3 DUP2 MSTORE DUP9 PUSH1 0x20 MSTORE KECCAK256 DUP4 PUSH1 0xFF NOT DUP3 SLOAD AND OR SWAP1 SSTORE PUSH1 0x40 PUSH1 0x0 DUP3 DUP2 MSTORE DUP10 PUSH1 0x20 MSTORE KECCAK256 PUSH1 0xFF NOT DUP2 SLOAD AND SWAP1 SSTORE PUSH1 0x0 DUP1 MSTORE DUP9 PUSH1 0x20 MSTORE PUSH1 0x40 PUSH1 0x0 KECCAK256 PUSH2 0x9C5 DUP2 SLOAD PUSH2 0x12C0 JUMP JUMPDEST SWAP1 SSTORE DUP1 PUSH1 0x0 MSTORE PUSH1 0x4 PUSH1 0x20 MSTORE DUP10 PUSH1 0x40 PUSH1 0x0 KECCAK256 SSTORE PUSH1 0x0 MSTORE PUSH1 0x5 PUSH1 0x20 MSTORE PUSH1 0x40 PUSH1 0x0 KECCAK256 DUP3 PUSH1 0xFF NOT DUP3 SLOAD AND OR SWAP1 SSTORE ADD PUSH2 0x88E JUMP JUMPDEST POP POP POP POP DUP1 PUSH1 0x0 MSTORE PUSH1 0x4 PUSH1 0x20 MSTORE PUSH1 0x40 PUSH1 0x0 KECCAK256 SLOAD DUP1 ISZERO SWAP1 DUP2 ISZERO PUSH2 0xA67 JUMPI JUMPDEST POP ISZERO PUSH2 0xA22 JUMPI DUP12 DUP16 DUP16 SWAP1 DUP16 SWAP2 PUSH2 0x93F JUMP JUMPDEST PUSH1 0x40 MLOAD PUSH3 0x461BCD PUSH1 0xE5 SHL DUP2 MSTORE PUSH1 0x20 PUSH1 0x4 DUP3 ADD MSTORE PUSH1 0x1D PUSH1 0x24 DUP3 ADD MSTORE PUSH32 0x506C6179657220616C726561647920696E206163746976652067616D65000000 PUSH1 0x44 DUP3 ADD MSTORE PUSH1 0x64 SWAP1 REVERT JUMPDEST SWAP1 POP PUSH1 0x0 MSTORE PUSH1 0x3 PUSH1 0x20 MSTORE PUSH1 0xFF PUSH1 0x40 PUSH1 0x0 KECCAK256 SLOAD AND PUSH1 0x5 DUP2 LT ISZERO PUSH2 0x43D JUMPI PUSH1 0x4 EQ CODESIZE PUSH2 0xA11 JUMP JUMPDEST PUSH1 0x40 MLOAD PUSH3 0x461BCD PUSH1 0xE5 SHL DUP2 MSTORE PUSH1 0x20 PUSH1 0x4 DUP3 ADD MSTORE PUSH1 0x16 PUSH1 0x24 DUP3 ADD MSTORE PUSH22 0x496E76616C696420706C617965722061646472657373 PUSH1 0x50 SHL PUSH1 0x44 DUP3 ADD MSTORE PUSH1 0x64 SWAP1 REVERT JUMPDEST PUSH1 0x40 MLOAD PUSH3 0x461BCD PUSH1 0xE5 SHL DUP2 MSTORE PUSH1 0x20 PUSH1 0x4 DUP3 ADD MSTORE PUSH1 0x17 PUSH1 0x24 DUP3 ADD MSTORE PUSH32 0x4E656564206174206C65617374203220706C6179657273000000000000000000 PUSH1 0x44 DUP3 ADD MSTORE PUSH1 0x64 SWAP1 REVERT JUMPDEST PUSH1 0x40 MLOAD PUSH3 0x461BCD PUSH1 0xE5 SHL DUP2 MSTORE PUSH1 0x20 PUSH1 0x4 DUP3 ADD MSTORE PUSH1 0x18 PUSH1 0x24 DUP3 ADD MSTORE PUSH32 0x4172726179206C656E67746873206D757374206D617463680000000000000000 PUSH1 0x44 DUP3 ADD MSTORE PUSH1 0x64 SWAP1 REVERT JUMPDEST PUSH1 0x40 MLOAD PUSH3 0x461BCD PUSH1 0xE5 SHL DUP2 MSTORE PUSH1 0x20 PUSH1 0x4 DUP3 ADD MSTORE PUSH1 0x13 PUSH1 0x24 DUP3 ADD MSTORE PUSH19 0x139BC81C1B185E595C9CC81C1C9BDD9A591959 PUSH1 0x6A SHL PUSH1 0x44 DUP3 ADD MSTORE PUSH1 0x64 SWAP1 REVERT JUMPDEST CALLVALUE PUSH2 0x17B JUMPI PUSH1 0x20 CALLDATASIZE PUSH1 0x3 NOT ADD SLT PUSH2 0x17B JUMPI PUSH1 0x1 PUSH1 0x1 PUSH1 0xA0 SHL SUB PUSH2 0xBB0 PUSH2 0x11C4 JUMP JUMPDEST AND PUSH1 0x0 MSTORE PUSH1 0x4 PUSH1 0x20 MSTORE PUSH1 0x20 PUSH1 0x40 PUSH1 0x0 KECCAK256 SLOAD PUSH1 0x40 MLOAD SWAP1 DUP2 MSTORE RETURN JUMPDEST CALLVALUE PUSH2 0x17B JUMPI PUSH1 0x0 CALLDATASIZE PUSH1 0x3 NOT ADD SLT PUSH2 0x17B JUMPI PUSH2 0xBE2 PUSH2 0x19D2 JUMP JUMPDEST PUSH1 0x0 DUP1 SLOAD PUSH1 0x1 PUSH1 0x1 PUSH1 0xA0 SHL SUB NOT DUP2 AND DUP3 SSTORE PUSH1 0x1 PUSH1 0x1 PUSH1 0xA0 SHL SUB AND PUSH32 0x8BE0079C531659141344CD1FD0A4F28419497F9722A3DAAFE3B4186F6B6457E0 DUP3 DUP1 LOG3 STOP JUMPDEST CALLVALUE PUSH2 0x17B JUMPI PUSH1 0x0 CALLDATASIZE PUSH1 0x3 NOT ADD SLT PUSH2 0x17B JUMPI PUSH2 0xC48 PUSH1 0x1 DUP1 PUSH1 0xA0 SHL SUB PUSH1 0x1 SLOAD AND CALLER EQ PUSH2 0x13F7 JUMP JUMPDEST PUSH1 0x2 SLOAD DUP1 PUSH1 0x0 MSTORE PUSH1 0x3 PUSH1 0x20 MSTORE PUSH1 0x40 PUSH1 0x0 KECCAK256 SWAP1 PUSH1 0xFF DUP3 SLOAD AND PUSH1 0x5 DUP2 LT ISZERO PUSH2 0x43D JUMPI PUSH2 0x7B7 SWAP3 PUSH1 0x7 SWAP3 PUSH1 0x2 PUSH2 0x7AB SWAP4 EQ PUSH2 0xC8C JUMPI JUMPDEST POP PUSH2 0x7A4 PUSH1 0x40 MLOAD DUP1 SWAP5 DUP2 SWAP4 ADD PUSH2 0x134E JUMP JUMPDEST PUSH2 0xC95 SWAP1 PUSH2 0x15AF JUMP JUMPDEST DUP5 PUSH2 0xC7B JUMP JUMPDEST CALLVALUE PUSH2 0x17B JUMPI PUSH1 0x40 CALLDATASIZE PUSH1 0x3 NOT ADD SLT PUSH2 0x17B JUMPI PUSH1 0x4 CALLDATALOAD PUSH1 0x24 CALLDATALOAD SWAP1 PUSH1 0xFF DUP3 AND DUP1 SWAP3 SUB PUSH2 0x17B JUMPI DUP1 ISZERO ISZERO DUP1 PUSH2 0xD03 JUMPI JUMPDEST PUSH2 0xCD0 SWAP1 PUSH2 0x12CF JUMP JUMPDEST PUSH2 0xCDC PUSH1 0x4 DUP4 LT PUSH2 0x1271 JUMP JUMPDEST PUSH1 0x0 MSTORE PUSH1 0x3 PUSH1 0x20 MSTORE PUSH1 0xA PUSH1 0x40 PUSH1 0x0 KECCAK256 ADD SWAP1 PUSH1 0x0 MSTORE PUSH1 0x20 MSTORE PUSH1 0x20 PUSH1 0x40 PUSH1 0x0 KECCAK256 SLOAD PUSH1 0x40 MLOAD SWAP1 DUP2 MSTORE RETURN JUMPDEST POP PUSH1 0x2 SLOAD DUP2 GT ISZERO PUSH2 0xCC7 JUMP JUMPDEST CALLVALUE PUSH2 0x17B JUMPI PUSH1 0x20 CALLDATASIZE PUSH1 0x3 NOT ADD SLT PUSH2 0x17B JUMPI PUSH1 0x1 PUSH1 0x1 PUSH1 0xA0 SHL SUB PUSH2 0xD30 PUSH2 0x11C4 JUMP JUMPDEST AND PUSH1 0x0 MSTORE PUSH1 0x5 PUSH1 0x20 MSTORE PUSH1 0x20 PUSH1 0xFF PUSH1 0x40 PUSH1 0x0 KECCAK256 SLOAD AND PUSH1 0x40 MLOAD SWAP1 ISZERO ISZERO DUP2 MSTORE RETURN JUMPDEST CALLVALUE PUSH2 0x17B JUMPI PUSH1 0x20 CALLDATASIZE PUSH1 0x3 NOT ADD SLT PUSH2 0x17B JUMPI PUSH1 0x4 CALLDATALOAD PUSH1 0x0 PUSH1 0x80 PUSH1 0x40 MLOAD PUSH2 0xD72 DUP2 PUSH2 0x1391 JUMP JUMPDEST DUP3 DUP2 MSTORE DUP3 PUSH1 0x20 DUP3 ADD MSTORE DUP3 PUSH1 0x40 DUP3 ADD MSTORE DUP3 PUSH1 0x60 DUP3 ADD MSTORE ADD MSTORE DUP1 ISZERO ISZERO DUP1 PUSH2 0xE1C JUMPI JUMPDEST PUSH2 0xD9B SWAP1 PUSH2 0x12CF JUMP JUMPDEST PUSH1 0x0 MSTORE PUSH1 0x3 PUSH1 0x20 MSTORE PUSH1 0xA0 PUSH1 0x40 PUSH1 0x0 KECCAK256 PUSH1 0xFF DUP2 SLOAD AND SWAP1 PUSH1 0x3 DUP2 ADD SLOAD SWAP1 PUSH1 0x2 PUSH1 0x1 DUP3 ADD SLOAD SWAP2 ADD SLOAD SWAP2 PUSH2 0xDD7 PUSH1 0x40 MLOAD SWAP5 PUSH2 0xDD1 DUP7 PUSH2 0x1391 JUMP JUMPDEST DUP6 PUSH2 0x13EB JUMP JUMPDEST PUSH1 0x20 DUP5 ADD PUSH1 0x1 DUP2 MSTORE PUSH1 0x40 DUP6 ADD SWAP2 DUP3 MSTORE PUSH1 0x60 DUP6 ADD SWAP3 DUP4 MSTORE PUSH1 0x80 DUP6 ADD SWAP4 DUP5 MSTORE PUSH2 0xE02 PUSH1 0x40 MLOAD DUP1 SWAP7 MLOAD PUSH2 0x1233 JUMP JUMPDEST MLOAD PUSH1 0x20 DUP6 ADD MSTORE MLOAD PUSH1 0x40 DUP5 ADD MSTORE MLOAD PUSH1 0x60 DUP4 ADD MSTORE MLOAD PUSH1 0x80 DUP3 ADD MSTORE RETURN JUMPDEST POP PUSH1 0x2 SLOAD DUP2 GT ISZERO PUSH2 0xD92 JUMP JUMPDEST CALLVALUE PUSH2 0x17B JUMPI PUSH1 0x40 CALLDATASIZE PUSH1 0x3 NOT ADD SLT PUSH2 0x17B JUMPI PUSH1 0x4 CALLDATALOAD PUSH2 0xE44 PUSH2 0x11DA JUMP JUMPDEST SWAP1 DUP1 ISZERO ISZERO DUP1 PUSH2 0xEBA JUMPI JUMPDEST PUSH2 0xE57 SWAP1 PUSH2 0x12CF JUMP JUMPDEST DUP1 PUSH1 0x0 MSTORE PUSH1 0x3 PUSH1 0x20 MSTORE PUSH1 0x5 PUSH1 0x40 PUSH1 0x0 KECCAK256 ADD PUSH1 0x1 DUP1 PUSH1 0xA0 SHL SUB DUP4 AND PUSH1 0x0 MSTORE PUSH1 0x20 MSTORE PUSH2 0xE88 PUSH1 0xFF PUSH1 0x40 PUSH1 0x0 KECCAK256 SLOAD AND PUSH2 0x130D JUMP JUMPDEST PUSH1 0x0 MSTORE PUSH1 0x3 PUSH1 0x20 MSTORE PUSH1 0x9 PUSH1 0x40 PUSH1 0x0 KECCAK256 ADD SWAP1 PUSH1 0x1 DUP1 PUSH1 0xA0 SHL SUB AND PUSH1 0x0 MSTORE PUSH1 0x20 MSTORE PUSH1 0x20 PUSH1 0xFF PUSH1 0x40 PUSH1 0x0 KECCAK256 SLOAD AND PUSH1 0x40 MLOAD SWAP1 DUP2 MSTORE RETURN JUMPDEST POP PUSH1 0x2 SLOAD DUP2 GT ISZERO PUSH2 0xE4E JUMP JUMPDEST CALLVALUE PUSH2 0x17B JUMPI PUSH1 0x0 CALLDATASIZE PUSH1 0x3 NOT ADD SLT PUSH2 0x17B JUMPI PUSH1 0x2 SLOAD PUSH1 0x0 MSTORE PUSH1 0x3 PUSH1 0x20 MSTORE PUSH2 0x7B7 PUSH2 0x7A4 PUSH2 0x7AB PUSH1 0x7 PUSH1 0x40 PUSH1 0x0 KECCAK256 ADD PUSH1 0x40 MLOAD SWAP3 DUP4 DUP1 SWAP3 PUSH2 0x134E JUMP JUMPDEST CALLVALUE PUSH2 0x17B JUMPI PUSH1 0x40 CALLDATASIZE PUSH1 0x3 NOT ADD SLT PUSH2 0x17B JUMPI PUSH1 0x4 CALLDATALOAD PUSH2 0xF1B PUSH2 0x11DA JUMP JUMPDEST SWAP1 DUP1 ISZERO ISZERO DUP1 PUSH2 0xF8E JUMPI JUMPDEST PUSH2 0xF2E SWAP1 PUSH2 0x12CF JUMP JUMPDEST DUP1 PUSH1 0x0 MSTORE PUSH1 0x3 PUSH1 0x20 MSTORE PUSH1 0x5 PUSH1 0x40 PUSH1 0x0 KECCAK256 ADD PUSH1 0x1 DUP1 PUSH1 0xA0 SHL SUB DUP4 AND PUSH1 0x0 MSTORE PUSH1 0x20 MSTORE PUSH2 0xF5F PUSH1 0xFF PUSH1 0x40 PUSH1 0x0 KECCAK256 SLOAD AND PUSH2 0x130D JUMP JUMPDEST PUSH1 0x0 MSTORE PUSH1 0x3 PUSH1 0x20 MSTORE PUSH1 0x6 PUSH1 0x40 PUSH1 0x0 KECCAK256 ADD SWAP1 PUSH1 0x1 DUP1 PUSH1 0xA0 SHL SUB AND PUSH1 0x0 MSTORE PUSH1 0x20 MSTORE PUSH1 0x20 PUSH1 0x40 PUSH1 0x0 KECCAK256 SLOAD PUSH1 0x40 MLOAD SWAP1 DUP2 MSTORE RETURN JUMPDEST POP PUSH1 0x2 SLOAD DUP2 GT ISZERO PUSH2 0xF25 JUMP JUMPDEST CALLVALUE PUSH2 0x17B JUMPI PUSH1 0x20 CALLDATASIZE PUSH1 0x3 NOT ADD SLT PUSH2 0x17B JUMPI PUSH1 0x4 CALLDATALOAD PUSH1 0xFF DUP2 AND DUP1 SWAP2 SUB PUSH2 0x17B JUMPI CALLER PUSH1 0x0 MSTORE PUSH1 0x5 PUSH1 0x20 MSTORE PUSH1 0xFF PUSH1 0x40 PUSH1 0x0 KECCAK256 SLOAD AND ISZERO PUSH2 0x116B JUMPI PUSH2 0xFDC PUSH1 0x4 DUP3 LT PUSH2 0x1271 JUMP JUMPDEST CALLER PUSH1 0x0 MSTORE PUSH1 0x4 PUSH1 0x20 MSTORE PUSH1 0x40 PUSH1 0x0 KECCAK256 SLOAD DUP1 PUSH1 0x0 MSTORE PUSH1 0x3 PUSH1 0x20 MSTORE PUSH1 0x40 PUSH1 0x0 KECCAK256 SWAP2 PUSH1 0xFF DUP4 SLOAD AND PUSH1 0x5 DUP2 LT ISZERO PUSH2 0x43D JUMPI PUSH1 0x2 SUB PUSH2 0x1134 JUMPI PUSH1 0x3 DUP4 ADD SLOAD TIMESTAMP GT PUSH2 0x10FE JUMPI CALLER PUSH1 0x0 SWAP1 DUP2 MSTORE PUSH1 0x9 DUP5 ADD PUSH1 0x20 DUP2 SWAP1 MSTORE PUSH1 0x40 SWAP1 SWAP2 KECCAK256 SLOAD PUSH1 0xFF AND SWAP4 DUP3 DUP6 EQ PUSH2 0x10C2 JUMPI PUSH1 0xA ADD PUSH1 0xFF DUP6 AND PUSH1 0x0 MSTORE DUP1 PUSH1 0x20 MSTORE PUSH1 0x40 PUSH1 0x0 KECCAK256 PUSH2 0x1057 DUP2 SLOAD PUSH2 0x12B3 JUMP JUMPDEST SWAP1 SSTORE DUP3 PUSH1 0x0 MSTORE PUSH1 0x20 MSTORE PUSH1 0x40 PUSH1 0x0 KECCAK256 PUSH2 0x106F DUP2 SLOAD PUSH2 0x12C0 JUMP JUMPDEST SWAP1 SSTORE PUSH1 0x1 DUP1 PUSH1 0xA0 SHL SUB CALLER AND PUSH1 0x0 MSTORE PUSH1 0x20 MSTORE PUSH1 0x40 PUSH1 0x0 KECCAK256 DUP2 PUSH1 0xFF NOT DUP3 SLOAD AND OR SWAP1 SSTORE PUSH1 0x40 MLOAD SWAP3 DUP4 MSTORE PUSH1 0x20 DUP4 ADD MSTORE PUSH32 0xE6E5FC6E2975FFC9EF7E3C2C7E29D0D370446C8DAA529EEF4B6FF1CD2DA1F193 PUSH1 0x40 CALLER SWAP4 LOG3 STOP JUMPDEST PUSH1 0x40 MLOAD PUSH3 0x461BCD PUSH1 0xE5 SHL DUP2 MSTORE PUSH1 0x20 PUSH1 0x4 DUP3 ADD MSTORE PUSH1 0x14 PUSH1 0x24 DUP3 ADD MSTORE PUSH20 0x416C7265616479206F6E2074686973207465616D PUSH1 0x60 SHL PUSH1 0x44 DUP3 ADD MSTORE PUSH1 0x64 SWAP1 REVERT JUMPDEST PUSH1 0x40 MLOAD PUSH3 0x461BCD PUSH1 0xE5 SHL DUP2 MSTORE PUSH1 0x20 PUSH1 0x4 DUP3 ADD MSTORE PUSH1 0xE PUSH1 0x24 DUP3 ADD MSTORE PUSH14 0x11D85B59481A185CC8195B991959 PUSH1 0x92 SHL PUSH1 0x44 DUP3 ADD MSTORE PUSH1 0x64 SWAP1 REVERT JUMPDEST PUSH1 0x40 MLOAD PUSH3 0x461BCD PUSH1 0xE5 SHL DUP2 MSTORE PUSH1 0x20 PUSH1 0x4 DUP3 ADD MSTORE PUSH1 0xF PUSH1 0x24 DUP3 ADD MSTORE PUSH15 0x47616D65206E6F7420616374697665 PUSH1 0x88 SHL PUSH1 0x44 DUP3 ADD MSTORE PUSH1 0x64 SWAP1 REVERT JUMPDEST PUSH1 0x40 MLOAD PUSH3 0x461BCD PUSH1 0xE5 SHL DUP2 MSTORE PUSH1 0x20 PUSH1 0x4 DUP3 ADD MSTORE PUSH1 0x16 PUSH1 0x24 DUP3 ADD MSTORE PUSH22 0x506C61796572206E6F7420696E20616E792067616D65 PUSH1 0x50 SHL PUSH1 0x44 DUP3 ADD MSTORE PUSH1 0x64 SWAP1 REVERT JUMPDEST CALLVALUE PUSH2 0x17B JUMPI PUSH1 0x0 CALLDATASIZE PUSH1 0x3 NOT ADD SLT PUSH2 0x17B JUMPI PUSH1 0x20 SWAP1 PUSH1 0x2 SLOAD DUP2 MSTORE RETURN JUMPDEST PUSH1 0x4 CALLDATALOAD SWAP1 PUSH1 0x1 PUSH1 0x1 PUSH1 0xA0 SHL SUB DUP3 AND DUP3 SUB PUSH2 0x17B JUMPI JUMP JUMPDEST PUSH1 0x24 CALLDATALOAD SWAP1 PUSH1 0x1 PUSH1 0x1 PUSH1 0xA0 SHL SUB DUP3 AND DUP3 SUB PUSH2 0x17B JUMPI JUMP JUMPDEST PUSH1 0x20 PUSH1 0x40 DUP2 DUP4 ADD SWAP3 DUP3 DUP2 MSTORE DUP5 MLOAD DUP1 SWAP5 MSTORE ADD SWAP3 ADD SWAP1 PUSH1 0x0 JUMPDEST DUP2 DUP2 LT PUSH2 0x1214 JUMPI POP POP POP SWAP1 JUMP JUMPDEST DUP3 MLOAD PUSH1 0x1 PUSH1 0x1 PUSH1 0xA0 SHL SUB AND DUP5 MSTORE PUSH1 0x20 SWAP4 DUP5 ADD SWAP4 SWAP1 SWAP3 ADD SWAP2 PUSH1 0x1 ADD PUSH2 0x1207 JUMP JUMPDEST SWAP1 PUSH1 0x5 DUP3 LT ISZERO PUSH2 0x43D JUMPI MSTORE JUMP JUMPDEST SWAP2 DUP2 PUSH1 0x1F DUP5 ADD SLT ISZERO PUSH2 0x17B JUMPI DUP3 CALLDATALOAD SWAP2 PUSH8 0xFFFFFFFFFFFFFFFF DUP4 GT PUSH2 0x17B JUMPI PUSH1 0x20 DUP1 DUP6 ADD SWAP5 DUP5 PUSH1 0x5 SHL ADD ADD GT PUSH2 0x17B JUMPI JUMP JUMPDEST ISZERO PUSH2 0x1278 JUMPI JUMP JUMPDEST PUSH1 0x40 MLOAD PUSH3 0x461BCD PUSH1 0xE5 SHL DUP2 MSTORE PUSH1 0x20 PUSH1 0x4 DUP3 ADD MSTORE PUSH1 0x13 PUSH1 0x24 DUP3 ADD MSTORE PUSH19 0x24B73B30B634B2103A32B0B690373AB6B132B9 PUSH1 0x69 SHL PUSH1 0x44 DUP3 ADD MSTORE PUSH1 0x64 SWAP1 REVERT JUMPDEST DUP1 ISZERO PUSH2 0x641 JUMPI PUSH1 0x0 NOT ADD SWAP1 JUMP JUMPDEST PUSH1 0x0 NOT DUP2 EQ PUSH2 0x641 JUMPI PUSH1 0x1 ADD SWAP1 JUMP JUMPDEST ISZERO PUSH2 0x12D6 JUMPI JUMP JUMPDEST PUSH1 0x40 MLOAD PUSH3 0x461BCD PUSH1 0xE5 SHL DUP2 MSTORE PUSH1 0x20 PUSH1 0x4 DUP3 ADD MSTORE PUSH1 0xF PUSH1 0x24 DUP3 ADD MSTORE PUSH15 0x125B9D985B1A590819D85B59481251 PUSH1 0x8A SHL PUSH1 0x44 DUP3 ADD MSTORE PUSH1 0x64 SWAP1 REVERT JUMPDEST ISZERO PUSH2 0x1314 JUMPI JUMP JUMPDEST PUSH1 0x40 MLOAD PUSH3 0x461BCD PUSH1 0xE5 SHL DUP2 MSTORE PUSH1 0x20 PUSH1 0x4 DUP3 ADD MSTORE PUSH1 0x12 PUSH1 0x24 DUP3 ADD MSTORE PUSH18 0x506C61796572206E6F7420696E2067616D65 PUSH1 0x70 SHL PUSH1 0x44 DUP3 ADD MSTORE PUSH1 0x64 SWAP1 REVERT JUMPDEST SWAP1 PUSH1 0x20 DUP3 SLOAD SWAP2 DUP3 DUP2 MSTORE ADD SWAP2 PUSH1 0x0 MSTORE PUSH1 0x20 PUSH1 0x0 KECCAK256 SWAP1 PUSH1 0x0 JUMPDEST DUP2 DUP2 LT PUSH2 0x1372 JUMPI POP POP POP SWAP1 JUMP JUMPDEST DUP3 SLOAD PUSH1 0x1 PUSH1 0x1 PUSH1 0xA0 SHL SUB AND DUP5 MSTORE PUSH1 0x20 SWAP1 SWAP4 ADD SWAP3 PUSH1 0x1 SWAP3 DUP4 ADD SWAP3 ADD PUSH2 0x1365 JUMP JUMPDEST PUSH1 0xA0 DUP2 ADD SWAP1 DUP2 LT PUSH8 0xFFFFFFFFFFFFFFFF DUP3 GT OR PUSH2 0x72C JUMPI PUSH1 0x40 MSTORE JUMP JUMPDEST PUSH1 0x80 DUP2 ADD SWAP1 DUP2 LT PUSH8 0xFFFFFFFFFFFFFFFF DUP3 GT OR PUSH2 0x72C JUMPI PUSH1 0x40 MSTORE JUMP JUMPDEST SWAP1 PUSH1 0x1F DUP1 NOT SWAP2 ADD AND DUP2 ADD SWAP1 DUP2 LT PUSH8 0xFFFFFFFFFFFFFFFF DUP3 GT OR PUSH2 0x72C JUMPI PUSH1 0x40 MSTORE JUMP JUMPDEST PUSH1 0x5 DUP3 LT ISZERO PUSH2 0x43D JUMPI MSTORE JUMP JUMPDEST ISZERO PUSH2 0x13FE JUMPI JUMP JUMPDEST PUSH1 0x40 MLOAD PUSH3 0x461BCD PUSH1 0xE5 SHL DUP2 MSTORE PUSH1 0x20 PUSH1 0x4 DUP3 ADD MSTORE PUSH1 0x18 PUSH1 0x24 DUP3 ADD MSTORE PUSH32 0x4F6E6C792047616D654D61737465722063616E2063616C6C0000000000000000 PUSH1 0x44 DUP3 ADD MSTORE PUSH1 0x64 SWAP1 REVERT JUMPDEST SWAP2 SWAP1 DUP2 LT ISZERO PUSH2 0x1453 JUMPI PUSH1 0x5 SHL ADD SWAP1 JUMP JUMPDEST PUSH4 0x4E487B71 PUSH1 0xE0 SHL PUSH1 0x0 MSTORE PUSH1 0x32 PUSH1 0x4 MSTORE PUSH1 0x24 PUSH1 0x0 REVERT JUMPDEST DUP1 SLOAD DUP3 LT ISZERO PUSH2 0x1453 JUMPI PUSH1 0x0 MSTORE PUSH1 0x20 PUSH1 0x0 KECCAK256 ADD SWAP1 PUSH1 0x0 SWAP1 JUMP JUMPDEST SWAP1 DUP2 SLOAD SWAP2 PUSH9 0x10000000000000000 DUP4 LT ISZERO PUSH2 0x72C JUMPI DUP3 PUSH2 0x14A9 SWAP2 PUSH1 0x1 PUSH2 0x14CD SWAP6 ADD DUP2 SSTORE PUSH2 0x1469 JUMP JUMPDEST DUP2 SLOAD PUSH1 0x1 PUSH1 0x1 PUSH1 0xA0 SHL SUB SWAP4 DUP5 AND PUSH1 0x3 SWAP3 SWAP1 SWAP3 SHL SWAP2 DUP3 SHL SWAP4 SWAP1 SWAP2 SHL NOT AND SWAP2 SWAP1 SWAP2 OR SWAP1 SSTORE JUMP JUMPDEST JUMP JUMPDEST PUSH8 0xFFFFFFFFFFFFFFFF DUP2 GT PUSH2 0x72C JUMPI PUSH1 0x5 SHL PUSH1 0x20 ADD SWAP1 JUMP JUMPDEST PUSH1 0x40 MLOAD SWAP1 PUSH2 0x14F4 DUP3 PUSH2 0x13AD JUMP JUMPDEST PUSH1 0x0 PUSH1 0x60 DUP4 DUP3 DUP2 MSTORE DUP3 PUSH1 0x20 DUP3 ADD MSTORE DUP3 PUSH1 0x40 DUP3 ADD MSTORE ADD MSTORE JUMP JUMPDEST DUP1 MLOAD DUP3 LT ISZERO PUSH2 0x1453 JUMPI PUSH1 0x20 SWAP2 PUSH1 0x5 SHL ADD ADD SWAP1 JUMP JUMPDEST PUSH1 0x2 SLOAD PUSH1 0x0 MSTORE PUSH1 0x3 PUSH1 0x20 MSTORE PUSH1 0x40 PUSH1 0x0 KECCAK256 PUSH1 0xFF DUP2 SLOAD AND PUSH1 0x5 DUP2 LT ISZERO PUSH2 0x43D JUMPI PUSH1 0x1 EQ DUP1 PUSH2 0x15A2 JUMPI JUMPDEST PUSH2 0x1551 JUMPI POP PUSH1 0x0 SWAP1 JUMP JUMPDEST PUSH1 0x2 PUSH1 0xFF NOT DUP3 SLOAD AND OR DUP2 SSTORE PUSH2 0x258 TIMESTAMP ADD SWAP1 DUP2 TIMESTAMP GT PUSH2 0x641 JUMPI PUSH1 0x3 DUP3 SWAP2 ADD SSTORE PUSH32 0xA2DFAA3573B86004EC9D4D4ABE5068D942579C59DA4DA8CD0D9E45E71A393BC1 PUSH1 0x20 PUSH1 0x2 SLOAD SWAP3 PUSH1 0x40 MLOAD SWAP1 DUP2 MSTORE LOG2 PUSH1 0x1 SWAP1 JUMP JUMPDEST POP PUSH1 0x7 DUP2 ADD SLOAD ISZERO ISZERO PUSH2 0x1547 JUMP JUMPDEST DUP1 PUSH1 0x0 MSTORE PUSH1 0x3 PUSH1 0x20 MSTORE PUSH1 0x40 PUSH1 0x0 KECCAK256 PUSH1 0x0 SWAP1 PUSH1 0xA DUP2 ADD SWAP2 DUP1 DUP1 MSTORE DUP3 PUSH1 0x20 MSTORE PUSH1 0x40 DUP2 KECCAK256 SLOAD SWAP3 PUSH1 0x1 JUMPDEST PUSH1 0x4 PUSH1 0xFF DUP3 AND LT PUSH2 0x198B JUMPI POP POP PUSH1 0x7 DUP3 ADD SWAP3 DUP4 SLOAD PUSH2 0x15F2 DUP2 PUSH2 0x14CF JUMP JUMPDEST PUSH2 0x15FF PUSH1 0x40 MLOAD SWAP2 DUP3 PUSH2 0x13C9 JUMP JUMPDEST DUP2 DUP2 MSTORE PUSH1 0x1F NOT PUSH2 0x160E DUP4 PUSH2 0x14CF JUMP JUMPDEST ADD CALLDATASIZE PUSH1 0x20 DUP4 ADD CALLDATACOPY PUSH1 0x0 SWAP2 PUSH1 0x9 DUP7 ADD DUP4 JUMPDEST DUP3 DUP2 LT PUSH2 0x192E JUMPI POP POP POP SWAP1 PUSH1 0x0 SWAP1 JUMPDEST DUP1 DUP3 LT PUSH2 0x16BB JUMPI POP POP POP SWAP2 DUP5 PUSH32 0xE41D6B13E5CBA3FF95CCEAFBE365EE1BC0E88B7B44D6DFC4C99EBE6C8024C419 PUSH1 0x40 PUSH32 0xA7690F576EAEF889EF9EF29D1EAEE6C0E3B073108B66BB8009EC8AF6428BB345 SWAP7 SWAP5 PUSH2 0x16B6 SWAP7 PUSH1 0xFF DUP4 MLOAD SWAP3 AND DUP3 MSTORE PUSH1 0x20 DUP3 ADD MSTORE LOG2 PUSH1 0x4 PUSH1 0xFF NOT DUP3 SLOAD AND OR DUP2 SSTORE PUSH1 0x2 TIMESTAMP SWAP2 ADD SSTORE PUSH1 0x40 MLOAD SWAP2 DUP3 SWAP2 PUSH1 0x20 DUP4 MSTORE PUSH1 0x20 DUP4 ADD SWAP1 PUSH2 0x134E JUMP JUMPDEST SUB SWAP1 LOG2 JUMP JUMPDEST SWAP3 SWAP8 SWAP2 SWAP7 SWAP1 SWAP6 SWAP4 SWAP5 SWAP1 SWAP4 SWAP1 PUSH1 0x1 PUSH1 0x1 PUSH1 0xA0 SHL SUB PUSH2 0x16D8 DUP9 DUP11 PUSH2 0x150C JUMP JUMPDEST MLOAD AND SWAP6 DUP6 PUSH1 0x0 MSTORE PUSH1 0x3 PUSH1 0x20 MSTORE PUSH1 0x40 PUSH1 0x0 KECCAK256 SWAP10 PUSH1 0x8 DUP12 ADD PUSH1 0xFF PUSH1 0x40 PUSH1 0x0 PUSH1 0x1 DUP1 PUSH1 0xA0 SHL SUB DUP13 AND DUP2 MSTORE DUP4 PUSH1 0x20 MSTORE KECCAK256 SLOAD AND ISZERO PUSH2 0x18F5 JUMPI PUSH1 0x40 SWAP1 DUP2 DUP14 PUSH1 0xA PUSH1 0xFF SWAP11 SWAP15 SWAP11 DUP4 DUP15 PUSH1 0x0 SWAP1 PUSH1 0x1 DUP1 PUSH1 0xA0 SHL SUB AND DUP2 MSTORE PUSH1 0x9 DUP6 ADD PUSH1 0x20 MSTORE KECCAK256 SLOAD AND SWAP2 PUSH1 0xFF PUSH1 0x0 SWAP4 AND DUP4 MSTORE ADD PUSH1 0x20 MSTORE KECCAK256 PUSH2 0x1748 DUP2 SLOAD PUSH2 0x12B3 JUMP JUMPDEST SWAP1 SSTORE PUSH1 0x0 SWAP1 PUSH1 0x1 DUP1 PUSH1 0xA0 SHL SUB DUP12 AND DUP3 MSTORE PUSH1 0x20 MSTORE KECCAK256 PUSH1 0xFF NOT DUP2 SLOAD AND SWAP1 SSTORE DUP8 PUSH1 0x0 MSTORE PUSH1 0x5 PUSH1 0x20 MSTORE PUSH1 0x40 PUSH1 0x0 KECCAK256 PUSH1 0xFF NOT DUP2 SLOAD AND SWAP1 SSTORE DUP8 PUSH1 0x0 MSTORE PUSH1 0x4 PUSH1 0x20 MSTORE PUSH1 0x0 PUSH1 0x40 DUP2 KECCAK256 SSTORE PUSH1 0x0 SWAP10 PUSH1 0x7 DUP13 ADD SWAP11 JUMPDEST DUP12 SLOAD DUP1 DUP3 LT ISZERO PUSH2 0x18E2 JUMPI DUP11 PUSH2 0x17A8 DUP4 DUP16 PUSH2 0x1469 JUMP JUMPDEST SWAP1 SLOAD PUSH1 0x3 SWAP2 SWAP1 SWAP2 SHL SHR PUSH1 0x1 PUSH1 0x1 PUSH1 0xA0 SHL SUB AND EQ PUSH2 0x17C8 JUMPI POP PUSH1 0x1 ADD PUSH2 0x1793 JUMP JUMPDEST SWAP1 PUSH1 0x0 SWAP14 SWAP6 SWAP11 SWAP4 SWAP9 SWAP7 SWAP12 SWAP5 SWAP10 SWAP13 SWAP3 SWAP8 SWAP14 NOT DUP3 ADD SWAP2 DUP3 GT PUSH2 0x641 JUMPI PUSH2 0x14A9 PUSH2 0x17F2 PUSH2 0x180B SWAP4 DUP6 PUSH2 0x1469 JUMP JUMPDEST SWAP1 SLOAD PUSH1 0x3 SWAP2 SWAP1 SWAP2 SHL SHR PUSH1 0x1 PUSH1 0x1 PUSH1 0xA0 SHL SUB AND SWAP2 DUP5 PUSH2 0x1469 JUMP JUMPDEST DUP1 SLOAD DUP1 ISZERO PUSH2 0x18CC JUMPI PUSH1 0x0 NOT ADD SWAP1 PUSH2 0x1822 DUP3 DUP3 PUSH2 0x1469 JUMP JUMPDEST DUP2 SLOAD SWAP1 PUSH1 0x1 DUP1 PUSH1 0xA0 SHL SUB SWAP1 PUSH1 0x3 SHL SHL NOT AND SWAP1 SSTORE SSTORE JUMPDEST PUSH1 0x1 SLOAD PUSH1 0x1 PUSH1 0x1 PUSH1 0xA0 SHL SUB AND SWAP3 DUP4 EXTCODESIZE ISZERO PUSH2 0x17B JUMPI PUSH32 0x51479C93D7646904D2282E9E79CDDF11999AC774B7FD0289E2F59CB4AD0F086A PUSH1 0x20 PUSH1 0x40 DUP14 SWAP4 PUSH1 0x0 DUP1 PUSH1 0x1 SWAP10 PUSH1 0x24 DUP6 MLOAD DUP1 SWAP5 DUP2 SWAP4 PUSH4 0x3EF6CF1D PUSH1 0xE2 SHL DUP4 MSTORE DUP13 PUSH1 0x4 DUP5 ADD MSTORE GAS CALL PUSH2 0x18BB JUMPI JUMPDEST POP PUSH1 0x6 PUSH1 0x0 SWAP2 DUP10 DUP1 PUSH1 0xA0 SHL SUB DUP9 AND DUP4 MSTORE ADD DUP4 MSTORE KECCAK256 SLOAD PUSH1 0x40 MLOAD SWAP1 DUP2 MSTORE LOG3 ADD SWAP1 SWAP2 PUSH2 0x162D JUMP JUMPDEST PUSH1 0x0 PUSH2 0x18C6 SWAP2 PUSH2 0x13C9 JUMP JUMPDEST CODESIZE PUSH2 0x1897 JUMP JUMPDEST PUSH4 0x4E487B71 PUSH1 0xE0 SHL PUSH1 0x0 MSTORE PUSH1 0x31 PUSH1 0x4 MSTORE PUSH1 0x24 PUSH1 0x0 REVERT JUMPDEST POP POP SWAP5 SWAP11 SWAP3 SWAP8 SWAP1 SWAP6 SWAP4 SWAP9 SWAP2 SWAP7 SWAP10 POP PUSH2 0x1837 JUMP JUMPDEST PUSH1 0x40 MLOAD PUSH3 0x461BCD PUSH1 0xE5 SHL DUP2 MSTORE PUSH1 0x20 PUSH1 0x4 DUP3 ADD MSTORE PUSH1 0x11 PUSH1 0x24 DUP3 ADD MSTORE PUSH17 0x506C61796572206E6F7420616374697665 PUSH1 0x78 SHL PUSH1 0x44 DUP3 ADD MSTORE PUSH1 0x64 SWAP1 REVERT JUMPDEST DUP1 PUSH2 0x193B PUSH1 0x1 SWAP3 DUP12 PUSH2 0x1469 JUMP JUMPDEST DUP4 DUP1 PUSH1 0xA0 SHL SUB SWAP2 SLOAD SWAP1 PUSH1 0x3 SHL SHR AND PUSH1 0xFF PUSH1 0x40 PUSH1 0x0 DUP6 DUP1 PUSH1 0xA0 SHL SUB DUP5 AND DUP2 MSTORE DUP7 PUSH1 0x20 MSTORE KECCAK256 SLOAD AND PUSH1 0xFF DUP11 AND EQ PUSH2 0x1971 JUMPI JUMPDEST POP ADD PUSH2 0x161E JUMP JUMPDEST PUSH2 0x1984 PUSH2 0x197D DUP9 PUSH2 0x12C0 JUMP JUMPDEST SWAP8 DUP8 PUSH2 0x150C JUMP JUMPDEST MSTORE CODESIZE PUSH2 0x196A JUMP JUMPDEST DUP5 PUSH1 0x40 PUSH1 0x0 PUSH1 0xFF DUP5 AND DUP2 MSTORE DUP5 PUSH1 0x20 MSTORE KECCAK256 SLOAD GT PUSH2 0x19B5 JUMPI JUMPDEST PUSH1 0xFF AND PUSH1 0xFF DUP2 EQ PUSH2 0x641 JUMPI PUSH1 0x1 ADD PUSH2 0x15D5 JUMP JUMPDEST PUSH1 0xFF DUP2 AND PUSH1 0x0 SWAP1 DUP2 MSTORE PUSH1 0x20 DUP4 SWAP1 MSTORE PUSH1 0x40 SWAP1 KECCAK256 SLOAD SWAP5 POP SWAP2 POP DUP2 PUSH2 0x19A2 JUMP JUMPDEST PUSH1 0x0 SLOAD PUSH1 0x1 PUSH1 0x1 PUSH1 0xA0 SHL SUB AND CALLER SUB PUSH2 0x19E6 JUMPI JUMP JUMPDEST PUSH4 0x118CDAA7 PUSH1 0xE0 SHL PUSH1 0x0 MSTORE CALLER PUSH1 0x4 MSTORE PUSH1 0x24 PUSH1 0x0 REVERT INVALID LOG2 PUSH5 0x6970667358 0x22 SLT KECCAK256 TIMESTAMP CALLDATACOPY PUSH29 0x930A7A2DCF0606424CC959C0E94128FE5F2C97B84F8252B7B5A4CB3A1C PUSH5 0x736F6C6343 STOP ADDMOD SHR STOP CALLER "},"methodIdentifiers":{"endExpiredGames()":"d0f3a21e","endGame()":"6cbc2ded","gameIdCounter()":"1bb412d6","gameMaster()":"bdf84ae7","getActivePlayers()":"3c4f5a66","getGameInfo(uint256)":"47e1d550","getGameName()":"bbda33d9","getGameState(uint256)":"ffde0c74","getGames()":"c04c5947","getPlayerGameId(address)":"773b549d","getPlayerInfo(uint256)":"ea17532e","getPlayerNumber(uint256,address)":"3532804d","getPlayerTeam(uint256,address)":"4294b984","getPlayers()":"8b5b9ccc","getTeamSize(uint256,uint8)":"65c7e4e5","initialize(address[],uint256[])":"7fbbe46f","isPlayerInGame(address)":"574a5b20","owner()":"8da5cb5b","playerGameId(address)":"25b05c88","renounceOwnership()":"715018a6","setGameMaster(address)":"c2e94927","startGames()":"e81de9f5","switchTeam(uint8)":"2f07ba58","transferOwnership(address)":"f2fde38b"}}}}}