{"contracts/Points.sol":{"Points":{"abi":[{"inputs":[],"stateMutability":"nonpayable","type":"constructor"},{"inputs":[{"internalType":"uint256","name":"min","type":"uint256"}],"name":"InvalidDeposit","type":"error"},{"inputs":[{"internalType":"address","name":"owner","type":"address"}],"name":"OwnableInvalidOwner","type":"error"},{"inputs":[{"internalType":"address","name":"account","type":"address"}],"name":"OwnableUnauthorizedAccount","type":"error"},{"inputs":[{"internalType":"uint256","name":"remaining","type":"uint256"}],"name":"PointsCapReached","type":"error"},{"anonymous":false,"inputs":[{"indexed":true,"internalType":"address","name":"previousOwner","type":"address"},{"indexed":true,"internalType":"address","name":"newOwner","type":"address"}],"name":"OwnershipTransferred","type":"event"},{"anonymous":false,"inputs":[{"indexed":true,"internalType":"address","name":"recipient","type":"address"},{"indexed":false,"internalType":"uint256","name":"amount","type":"uint256"}],"name":"PointsAwarded","type":"event"},{"anonymous":false,"inputs":[{"indexed":true,"internalType":"address","name":"owner","type":"address"},{"indexed":false,"internalType":"uint256","name":"amount","type":"uint256"}],"name":"Withdrawn","type":"event"},{"inputs":[],"name":"MAX_POINTS","outputs":[{"internalType":"uint256","name":"","type":"uint256"}],"stateMutability":"view","type":"function"},{"inputs":[],"name":"MIN_DEPOSIT","outputs":[{"internalType":"uint256","name":"","type":"uint256"}],"stateMutability":"view","type":"function"},{"inputs":[],"name":"POINTS_PER_S","outputs":[{"internalType":"uint256","name":"","type":"uint256"}],"stateMutability":"view","type":"function"},{"inputs":[{"internalType":"uint256","name":"","type":"uint256"}],"name":"addressList","outputs":[{"internalType":"address","name":"","type":"address"}],"stateMutability":"view","type":"function"},{"inputs":[],"name":"deposit","outputs":[],"stateMutability":"payable","type":"function"},{"inputs":[{"internalType":"address","name":"recipient","type":"address"}],"name":"depositFor","outputs":[],"stateMutability":"payable","type":"function"},{"inputs":[],"name":"getAddressCount","outputs":[{"internalType":"uint256","name":"","type":"uint256"}],"stateMutability":"view","type":"function"},{"inputs":[{"internalType":"uint256","name":"start","type":"uint256"},{"internalType":"uint256","name":"size","type":"uint256"}],"name":"getAddressesPaginated","outputs":[{"internalType":"address[]","name":"addresses","type":"address[]"},{"internalType":"uint256[]","name":"balances","type":"uint256[]"}],"stateMutability":"view","type":"function"},{"inputs":[{"internalType":"address","name":"account","type":"address"}],"name":"getPoints","outputs":[{"internalType":"uint256","name":"","type":"uint256"}],"stateMutability":"view","type":"function"},{"inputs":[],"name":"getRemainingPoints","outputs":[{"internalType":"uint256","name":"","type":"uint256"}],"stateMutability":"view","type":"function"},{"inputs":[],"name":"owner","outputs":[{"internalType":"address","name":"","type":"address"}],"stateMutability":"view","type":"function"},{"inputs":[{"internalType":"address","name":"","type":"address"}],"name":"points","outputs":[{"internalType":"uint256","name":"","type":"uint256"}],"stateMutability":"view","type":"function"},{"inputs":[],"name":"renounceOwnership","outputs":[],"stateMutability":"nonpayable","type":"function"},{"inputs":[],"name":"totalPointsIssued","outputs":[{"internalType":"uint256","name":"","type":"uint256"}],"stateMutability":"view","type":"function"},{"inputs":[{"internalType":"address","name":"newOwner","type":"address"}],"name":"transferOwnership","outputs":[],"stateMutability":"nonpayable","type":"function"},{"inputs":[],"name":"withdraw","outputs":[],"stateMutability":"nonpayable","type":"function"},{"stateMutability":"payable","type":"receive"}],"evm":{"bytecode":{"linkReferences":{},"object":"608080604052346075573315605f5760008054336001600160a01b0319821681178355916001600160a01b03909116907f8be0079c531659141344cd1fd0a4f28419497f9722a3daafe3b4186f6b6457e09080a36109ed908161007b8239f35b631e4fbdf760e01b600052600060045260246000fd5b600080fdfe6080806040526004361015610058575b50361561001b57600080fd5b60405162461bcd60e51b8152602060048201526015602482015274557365206465706f7369742066756e6374696f6e7360581b6044820152606490fd5b60003560e01c90816325f87d231461070957508063350a8f6c146104e6578063358b8166146101e85780633ccfd60b146103c657806365dbcd43146103a9578063715018a6146103505780638da5cb5b14610327578063aa67c919146102c0578063b810fb431461027e578063cdbb02af14610260578063d0e30db014610249578063e1e158a514610226578063ee204abb146101e8578063f2fde38b1461015b578063f5ee80e1146101385763fd1c881114610115573861000f565b34610133576000366003190112610133576020600154604051908152f35b600080fd5b346101335760003660031901126101335760206101536107b7565b604051908152f35b34610133576020366003190112610133576004356001600160a01b03811690819003610133576101896107e2565b80156101d257600080546001600160a01b03198116831782556001600160a01b0316907f8be0079c531659141344cd1fd0a4f28419497f9722a3daafe3b4186f6b6457e09080a3005b631e4fbdf760e01b600052600060045260246000fd5b34610133576020366003190112610133576004356001600160a01b038116908190036101335760005260026020526020604060002054604051908152f35b3461013357600036600319011261013357602060405167016345785d8a00008152f35b60003660031901126101335761025e3361080b565b005b34610133576000366003190112610133576020600354604051908152f35b3461013357602036600319011261013357600435600354811015610133576102a7602091610727565b905460405160039290921b1c6001600160a01b03168152f35b6020366003190112610133576004356001600160a01b03811680820361013357156102ee5761025e9061080b565b60405162461bcd60e51b8152602060048201526011602482015270125b9d985b1a59081c9958da5c1a595b9d607a1b6044820152606490fd5b34610133576000366003190112610133576000546040516001600160a01b039091168152602090f35b34610133576000366003190112610133576103696107e2565b600080546001600160a01b0319811682556001600160a01b03167f8be0079c531659141344cd1fd0a4f28419497f9722a3daafe3b4186f6b6457e08280a3005b346101335760003660031901126101335760206040516113888152f35b34610133576000366003190112610133576103df6107e2565b4780156104ab57600080808084335af13d156104a6573d67ffffffffffffffff811161049057610418601f8201601f1916602001610765565b908152600060203d92013e5b15610457576040519081527f7084f5476618d8e60b11ef0d7d3f06914655adb8793e28ff7f018d4c76d505d560203392a2005b60405162461bcd60e51b815260206004820152601160248201527015da5d1a191c985dd85b0819985a5b1959607a1b6044820152606490fd5b634e487b7160e01b600052604160045260246000fd5b610424565b60405162461bcd60e51b81526020600482015260136024820152724e6f7468696e6720746f20776974686472617760681b6044820152606490fd5b346101335760403660031901126101335760043560243560035490818310156106d457801515806106c8575b15610694576105219083610758565b81808210911802189080820391821161067e576105456105408361078b565b610765565b908282526105528361078b565b6020830190601f190136823761056a6105408561078b565b938085526105778161078b565b602086019390601f190136853760005b828110610615575050506040519384936040850190604086525180915260608501929060005b8181106105f35750505060209084830382860152519182815201919060005b8181106105da575050500390f35b82518452859450602093840193909201916001016105cc565b82516001600160a01b03168552879650602094850194909201916001016105ad565b8061062f61062a600193859a9798999a610758565b610727565b838060a01b0391549060031b1c16610647828a6107a3565b52818060a01b03610658828a6107a3565b5116600052600260205260406000205461067282876107a3565b52019594939295610587565b634e487b7160e01b600052601160045260246000fd5b60405162461bcd60e51b815260206004820152600c60248201526b496e76616c69642073697a6560a01b6044820152606490fd5b506103e8811115610512565b60405162461bcd60e51b815260206004820152600d60248201526c125b9d985b1a59081cdd185c9d609a1b6044820152606490fd5b34610133576000366003190112610133578064012a05f20060209252f35b60035481101561074257600360005260206000200190600090565b634e487b7160e01b600052603260045260246000fd5b9190820180921161067e57565b6040519190601f01601f1916820167ffffffffffffffff81118382101761049057604052565b67ffffffffffffffff81116104905760051b60200190565b80518210156107425760209160051b010190565b60015464012a05f20081106107cc5750600090565b64012a05f2000364012a05f200811161067e5790565b6000546001600160a01b031633036107f657565b63118cdaa760e01b6000523360045260246000fd5b67016345785d8a0000341061099a57670de0b6b3a76400003404611388810290808204611388149015171561067e57670de0b6b3a7640000340690611388820291808304611388149015171561067e57670de0b6b3a764000061086f920490610758565b9061087c82600154610758565b9064012a05f200821161097f576001600160a01b031660008181526004602052604090205490929060ff16156108f8575b6020907f900825d4808e50002c1a3614c809eb06d2d7142338f0dec06ed9a4057c8a8c9992846000526002835260406000206108ea838254610758565b9055600155604051908152a2565b6003549068010000000000000000821015610490577f900825d4808e50002c1a3614c809eb06d2d7142338f0dec06ed9a4057c8a8c999261094183600160209501600355610727565b81546001600160a01b0360039290921b91821b19169087901b179055600085815260049093526040909220805460ff191660011790559091506108ad565b6109876107b7565b625ef85b60e21b60005260045260246000fd5b6382ad390560e01b60005267016345785d8a000060045260246000fdfea264697066735822122001eb6679bf06101a3f109dbc817bf8ac3e6e425136c1b2e3aad07ca7c40c1c4864736f6c634300081c0033","opcodes":"PUSH1 0x80 DUP1 PUSH1 0x40 MSTORE CALLVALUE PUSH1 0x75 JUMPI CALLER ISZERO PUSH1 0x5F JUMPI PUSH1 0x0 DUP1 SLOAD CALLER PUSH1 0x1 PUSH1 0x1 PUSH1 0xA0 SHL SUB NOT DUP3 AND DUP2 OR DUP4 SSTORE SWAP2 PUSH1 0x1 PUSH1 0x1 PUSH1 0xA0 SHL SUB SWAP1 SWAP2 AND SWAP1 PUSH32 0x8BE0079C531659141344CD1FD0A4F28419497F9722A3DAAFE3B4186F6B6457E0 SWAP1 DUP1 LOG3 PUSH2 0x9ED SWAP1 DUP2 PUSH2 0x7B DUP3 CODECOPY RETURN JUMPDEST PUSH4 0x1E4FBDF7 PUSH1 0xE0 SHL PUSH1 0x0 MSTORE PUSH1 0x0 PUSH1 0x4 MSTORE PUSH1 0x24 PUSH1 0x0 REVERT JUMPDEST PUSH1 0x0 DUP1 REVERT INVALID PUSH1 0x80 DUP1 PUSH1 0x40 MSTORE PUSH1 0x4 CALLDATASIZE LT ISZERO PUSH2 0x58 JUMPI JUMPDEST POP CALLDATASIZE ISZERO PUSH2 0x1B JUMPI PUSH1 0x0 DUP1 REVERT JUMPDEST PUSH1 0x40 MLOAD PUSH3 0x461BCD PUSH1 0xE5 SHL DUP2 MSTORE PUSH1 0x20 PUSH1 0x4 DUP3 ADD MSTORE PUSH1 0x15 PUSH1 0x24 DUP3 ADD MSTORE PUSH21 0x557365206465706F7369742066756E6374696F6E73 PUSH1 0x58 SHL PUSH1 0x44 DUP3 ADD MSTORE PUSH1 0x64 SWAP1 REVERT JUMPDEST PUSH1 0x0 CALLDATALOAD PUSH1 0xE0 SHR SWAP1 DUP2 PUSH4 0x25F87D23 EQ PUSH2 0x709 JUMPI POP DUP1 PUSH4 0x350A8F6C EQ PUSH2 0x4E6 JUMPI DUP1 PUSH4 0x358B8166 EQ PUSH2 0x1E8 JUMPI DUP1 PUSH4 0x3CCFD60B EQ PUSH2 0x3C6 JUMPI DUP1 PUSH4 0x65DBCD43 EQ PUSH2 0x3A9 JUMPI DUP1 PUSH4 0x715018A6 EQ PUSH2 0x350 JUMPI DUP1 PUSH4 0x8DA5CB5B EQ PUSH2 0x327 JUMPI DUP1 PUSH4 0xAA67C919 EQ PUSH2 0x2C0 JUMPI DUP1 PUSH4 0xB810FB43 EQ PUSH2 0x27E JUMPI DUP1 PUSH4 0xCDBB02AF EQ PUSH2 0x260 JUMPI DUP1 PUSH4 0xD0E30DB0 EQ PUSH2 0x249 JUMPI DUP1 PUSH4 0xE1E158A5 EQ PUSH2 0x226 JUMPI DUP1 PUSH4 0xEE204ABB EQ PUSH2 0x1E8 JUMPI DUP1 PUSH4 0xF2FDE38B EQ PUSH2 0x15B JUMPI DUP1 PUSH4 0xF5EE80E1 EQ PUSH2 0x138 JUMPI PUSH4 0xFD1C8811 EQ PUSH2 0x115 JUMPI CODESIZE PUSH2 0xF JUMP JUMPDEST CALLVALUE PUSH2 0x133 JUMPI PUSH1 0x0 CALLDATASIZE PUSH1 0x3 NOT ADD SLT PUSH2 0x133 JUMPI PUSH1 0x20 PUSH1 0x1 SLOAD PUSH1 0x40 MLOAD SWAP1 DUP2 MSTORE RETURN JUMPDEST PUSH1 0x0 DUP1 REVERT JUMPDEST CALLVALUE PUSH2 0x133 JUMPI PUSH1 0x0 CALLDATASIZE PUSH1 0x3 NOT ADD SLT PUSH2 0x133 JUMPI PUSH1 0x20 PUSH2 0x153 PUSH2 0x7B7 JUMP JUMPDEST PUSH1 0x40 MLOAD SWAP1 DUP2 MSTORE RETURN JUMPDEST CALLVALUE PUSH2 0x133 JUMPI PUSH1 0x20 CALLDATASIZE PUSH1 0x3 NOT ADD SLT PUSH2 0x133 JUMPI PUSH1 0x4 CALLDATALOAD PUSH1 0x1 PUSH1 0x1 PUSH1 0xA0 SHL SUB DUP2 AND SWAP1 DUP2 SWAP1 SUB PUSH2 0x133 JUMPI PUSH2 0x189 PUSH2 0x7E2 JUMP JUMPDEST DUP1 ISZERO PUSH2 0x1D2 JUMPI PUSH1 0x0 DUP1 SLOAD PUSH1 0x1 PUSH1 0x1 PUSH1 0xA0 SHL SUB NOT DUP2 AND DUP4 OR DUP3 SSTORE PUSH1 0x1 PUSH1 0x1 PUSH1 0xA0 SHL SUB AND SWAP1 PUSH32 0x8BE0079C531659141344CD1FD0A4F28419497F9722A3DAAFE3B4186F6B6457E0 SWAP1 DUP1 LOG3 STOP JUMPDEST PUSH4 0x1E4FBDF7 PUSH1 0xE0 SHL PUSH1 0x0 MSTORE PUSH1 0x0 PUSH1 0x4 MSTORE PUSH1 0x24 PUSH1 0x0 REVERT JUMPDEST CALLVALUE PUSH2 0x133 JUMPI PUSH1 0x20 CALLDATASIZE PUSH1 0x3 NOT ADD SLT PUSH2 0x133 JUMPI PUSH1 0x4 CALLDATALOAD PUSH1 0x1 PUSH1 0x1 PUSH1 0xA0 SHL SUB DUP2 AND SWAP1 DUP2 SWAP1 SUB PUSH2 0x133 JUMPI PUSH1 0x0 MSTORE PUSH1 0x2 PUSH1 0x20 MSTORE PUSH1 0x20 PUSH1 0x40 PUSH1 0x0 KECCAK256 SLOAD PUSH1 0x40 MLOAD SWAP1 DUP2 MSTORE RETURN JUMPDEST CALLVALUE PUSH2 0x133 JUMPI PUSH1 0x0 CALLDATASIZE PUSH1 0x3 NOT ADD SLT PUSH2 0x133 JUMPI PUSH1 0x20 PUSH1 0x40 MLOAD PUSH8 0x16345785D8A0000 DUP2 MSTORE RETURN JUMPDEST PUSH1 0x0 CALLDATASIZE PUSH1 0x3 NOT ADD SLT PUSH2 0x133 JUMPI PUSH2 0x25E CALLER PUSH2 0x80B JUMP JUMPDEST STOP JUMPDEST CALLVALUE PUSH2 0x133 JUMPI PUSH1 0x0 CALLDATASIZE PUSH1 0x3 NOT ADD SLT PUSH2 0x133 JUMPI PUSH1 0x20 PUSH1 0x3 SLOAD PUSH1 0x40 MLOAD SWAP1 DUP2 MSTORE RETURN JUMPDEST CALLVALUE PUSH2 0x133 JUMPI PUSH1 0x20 CALLDATASIZE PUSH1 0x3 NOT ADD SLT PUSH2 0x133 JUMPI PUSH1 0x4 CALLDATALOAD PUSH1 0x3 SLOAD DUP2 LT ISZERO PUSH2 0x133 JUMPI PUSH2 0x2A7 PUSH1 0x20 SWAP2 PUSH2 0x727 JUMP JUMPDEST SWAP1 SLOAD PUSH1 0x40 MLOAD PUSH1 0x3 SWAP3 SWAP1 SWAP3 SHL SHR PUSH1 0x1 PUSH1 0x1 PUSH1 0xA0 SHL SUB AND DUP2 MSTORE RETURN JUMPDEST PUSH1 0x20 CALLDATASIZE PUSH1 0x3 NOT ADD SLT PUSH2 0x133 JUMPI PUSH1 0x4 CALLDATALOAD PUSH1 0x1 PUSH1 0x1 PUSH1 0xA0 SHL SUB DUP2 AND DUP1 DUP3 SUB PUSH2 0x133 JUMPI ISZERO PUSH2 0x2EE JUMPI PUSH2 0x25E SWAP1 PUSH2 0x80B JUMP JUMPDEST PUSH1 0x40 MLOAD PUSH3 0x461BCD PUSH1 0xE5 SHL DUP2 MSTORE PUSH1 0x20 PUSH1 0x4 DUP3 ADD MSTORE PUSH1 0x11 PUSH1 0x24 DUP3 ADD MSTORE PUSH17 0x125B9D985B1A59081C9958DA5C1A595B9D PUSH1 0x7A SHL PUSH1 0x44 DUP3 ADD MSTORE PUSH1 0x64 SWAP1 REVERT JUMPDEST CALLVALUE PUSH2 0x133 JUMPI PUSH1 0x0 CALLDATASIZE PUSH1 0x3 NOT ADD SLT PUSH2 0x133 JUMPI PUSH1 0x0 SLOAD PUSH1 0x40 MLOAD PUSH1 0x1 PUSH1 0x1 PUSH1 0xA0 SHL SUB SWAP1 SWAP2 AND DUP2 MSTORE PUSH1 0x20 SWAP1 RETURN JUMPDEST CALLVALUE PUSH2 0x133 JUMPI PUSH1 0x0 CALLDATASIZE PUSH1 0x3 NOT ADD SLT PUSH2 0x133 JUMPI PUSH2 0x369 PUSH2 0x7E2 JUMP JUMPDEST PUSH1 0x0 DUP1 SLOAD PUSH1 0x1 PUSH1 0x1 PUSH1 0xA0 SHL SUB NOT DUP2 AND DUP3 SSTORE PUSH1 0x1 PUSH1 0x1 PUSH1 0xA0 SHL SUB AND PUSH32 0x8BE0079C531659141344CD1FD0A4F28419497F9722A3DAAFE3B4186F6B6457E0 DUP3 DUP1 LOG3 STOP JUMPDEST CALLVALUE PUSH2 0x133 JUMPI PUSH1 0x0 CALLDATASIZE PUSH1 0x3 NOT ADD SLT PUSH2 0x133 JUMPI PUSH1 0x20 PUSH1 0x40 MLOAD PUSH2 0x1388 DUP2 MSTORE RETURN JUMPDEST CALLVALUE PUSH2 0x133 JUMPI PUSH1 0x0 CALLDATASIZE PUSH1 0x3 NOT ADD SLT PUSH2 0x133 JUMPI PUSH2 0x3DF PUSH2 0x7E2 JUMP JUMPDEST SELFBALANCE DUP1 ISZERO PUSH2 0x4AB JUMPI PUSH1 0x0 DUP1 DUP1 DUP1 DUP5 CALLER GAS CALL RETURNDATASIZE ISZERO PUSH2 0x4A6 JUMPI RETURNDATASIZE PUSH8 0xFFFFFFFFFFFFFFFF DUP2 GT PUSH2 0x490 JUMPI PUSH2 0x418 PUSH1 0x1F DUP3 ADD PUSH1 0x1F NOT AND PUSH1 0x20 ADD PUSH2 0x765 JUMP JUMPDEST SWAP1 DUP2 MSTORE PUSH1 0x0 PUSH1 0x20 RETURNDATASIZE SWAP3 ADD RETURNDATACOPY JUMPDEST ISZERO PUSH2 0x457 JUMPI PUSH1 0x40 MLOAD SWAP1 DUP2 MSTORE PUSH32 0x7084F5476618D8E60B11EF0D7D3F06914655ADB8793E28FF7F018D4C76D505D5 PUSH1 0x20 CALLER SWAP3 LOG2 STOP JUMPDEST PUSH1 0x40 MLOAD PUSH3 0x461BCD PUSH1 0xE5 SHL DUP2 MSTORE PUSH1 0x20 PUSH1 0x4 DUP3 ADD MSTORE PUSH1 0x11 PUSH1 0x24 DUP3 ADD MSTORE PUSH17 0x15DA5D1A191C985DD85B0819985A5B1959 PUSH1 0x7A SHL PUSH1 0x44 DUP3 ADD MSTORE PUSH1 0x64 SWAP1 REVERT JUMPDEST PUSH4 0x4E487B71 PUSH1 0xE0 SHL PUSH1 0x0 MSTORE PUSH1 0x41 PUSH1 0x4 MSTORE PUSH1 0x24 PUSH1 0x0 REVERT JUMPDEST PUSH2 0x424 JUMP JUMPDEST PUSH1 0x40 MLOAD PUSH3 0x461BCD PUSH1 0xE5 SHL DUP2 MSTORE PUSH1 0x20 PUSH1 0x4 DUP3 ADD MSTORE PUSH1 0x13 PUSH1 0x24 DUP3 ADD MSTORE PUSH19 0x4E6F7468696E6720746F207769746864726177 PUSH1 0x68 SHL PUSH1 0x44 DUP3 ADD MSTORE PUSH1 0x64 SWAP1 REVERT JUMPDEST CALLVALUE PUSH2 0x133 JUMPI PUSH1 0x40 CALLDATASIZE PUSH1 0x3 NOT ADD SLT PUSH2 0x133 JUMPI PUSH1 0x4 CALLDATALOAD PUSH1 0x24 CALLDATALOAD PUSH1 0x3 SLOAD SWAP1 DUP2 DUP4 LT ISZERO PUSH2 0x6D4 JUMPI DUP1 ISZERO ISZERO DUP1 PUSH2 0x6C8 JUMPI JUMPDEST ISZERO PUSH2 0x694 JUMPI PUSH2 0x521 SWAP1 DUP4 PUSH2 0x758 JUMP JUMPDEST DUP2 DUP1 DUP3 LT SWAP2 XOR MUL XOR SWAP1 DUP1 DUP3 SUB SWAP2 DUP3 GT PUSH2 0x67E JUMPI PUSH2 0x545 PUSH2 0x540 DUP4 PUSH2 0x78B JUMP JUMPDEST PUSH2 0x765 JUMP JUMPDEST SWAP1 DUP3 DUP3 MSTORE PUSH2 0x552 DUP4 PUSH2 0x78B JUMP JUMPDEST PUSH1 0x20 DUP4 ADD SWAP1 PUSH1 0x1F NOT ADD CALLDATASIZE DUP3 CALLDATACOPY PUSH2 0x56A PUSH2 0x540 DUP6 PUSH2 0x78B JUMP JUMPDEST SWAP4 DUP1 DUP6 MSTORE PUSH2 0x577 DUP2 PUSH2 0x78B JUMP JUMPDEST PUSH1 0x20 DUP7 ADD SWAP4 SWAP1 PUSH1 0x1F NOT ADD CALLDATASIZE DUP6 CALLDATACOPY PUSH1 0x0 JUMPDEST DUP3 DUP2 LT PUSH2 0x615 JUMPI POP POP POP PUSH1 0x40 MLOAD SWAP4 DUP5 SWAP4 PUSH1 0x40 DUP6 ADD SWAP1 PUSH1 0x40 DUP7 MSTORE MLOAD DUP1 SWAP2 MSTORE PUSH1 0x60 DUP6 ADD SWAP3 SWAP1 PUSH1 0x0 JUMPDEST DUP2 DUP2 LT PUSH2 0x5F3 JUMPI POP POP POP PUSH1 0x20 SWAP1 DUP5 DUP4 SUB DUP3 DUP7 ADD MSTORE MLOAD SWAP2 DUP3 DUP2 MSTORE ADD SWAP2 SWAP1 PUSH1 0x0 JUMPDEST DUP2 DUP2 LT PUSH2 0x5DA JUMPI POP POP POP SUB SWAP1 RETURN JUMPDEST DUP3 MLOAD DUP5 MSTORE DUP6 SWAP5 POP PUSH1 0x20 SWAP4 DUP5 ADD SWAP4 SWAP1 SWAP3 ADD SWAP2 PUSH1 0x1 ADD PUSH2 0x5CC JUMP JUMPDEST DUP3 MLOAD PUSH1 0x1 PUSH1 0x1 PUSH1 0xA0 SHL SUB AND DUP6 MSTORE DUP8 SWAP7 POP PUSH1 0x20 SWAP5 DUP6 ADD SWAP5 SWAP1 SWAP3 ADD SWAP2 PUSH1 0x1 ADD PUSH2 0x5AD JUMP JUMPDEST DUP1 PUSH2 0x62F PUSH2 0x62A PUSH1 0x1 SWAP4 DUP6 SWAP11 SWAP8 SWAP9 SWAP10 SWAP11 PUSH2 0x758 JUMP JUMPDEST PUSH2 0x727 JUMP JUMPDEST DUP4 DUP1 PUSH1 0xA0 SHL SUB SWAP2 SLOAD SWAP1 PUSH1 0x3 SHL SHR AND PUSH2 0x647 DUP3 DUP11 PUSH2 0x7A3 JUMP JUMPDEST MSTORE DUP2 DUP1 PUSH1 0xA0 SHL SUB PUSH2 0x658 DUP3 DUP11 PUSH2 0x7A3 JUMP JUMPDEST MLOAD AND PUSH1 0x0 MSTORE PUSH1 0x2 PUSH1 0x20 MSTORE PUSH1 0x40 PUSH1 0x0 KECCAK256 SLOAD PUSH2 0x672 DUP3 DUP8 PUSH2 0x7A3 JUMP JUMPDEST MSTORE ADD SWAP6 SWAP5 SWAP4 SWAP3 SWAP6 PUSH2 0x587 JUMP JUMPDEST PUSH4 0x4E487B71 PUSH1 0xE0 SHL PUSH1 0x0 MSTORE PUSH1 0x11 PUSH1 0x4 MSTORE PUSH1 0x24 PUSH1 0x0 REVERT JUMPDEST PUSH1 0x40 MLOAD PUSH3 0x461BCD PUSH1 0xE5 SHL DUP2 MSTORE PUSH1 0x20 PUSH1 0x4 DUP3 ADD MSTORE PUSH1 0xC PUSH1 0x24 DUP3 ADD MSTORE PUSH12 0x496E76616C69642073697A65 PUSH1 0xA0 SHL PUSH1 0x44 DUP3 ADD MSTORE PUSH1 0x64 SWAP1 REVERT JUMPDEST POP PUSH2 0x3E8 DUP2 GT ISZERO PUSH2 0x512 JUMP JUMPDEST PUSH1 0x40 MLOAD PUSH3 0x461BCD PUSH1 0xE5 SHL DUP2 MSTORE PUSH1 0x20 PUSH1 0x4 DUP3 ADD MSTORE PUSH1 0xD PUSH1 0x24 DUP3 ADD MSTORE PUSH13 0x125B9D985B1A59081CDD185C9D PUSH1 0x9A SHL PUSH1 0x44 DUP3 ADD MSTORE PUSH1 0x64 SWAP1 REVERT JUMPDEST CALLVALUE PUSH2 0x133 JUMPI PUSH1 0x0 CALLDATASIZE PUSH1 0x3 NOT ADD SLT PUSH2 0x133 JUMPI DUP1 PUSH5 0x12A05F200 PUSH1 0x20 SWAP3 MSTORE RETURN JUMPDEST PUSH1 0x3 SLOAD DUP2 LT ISZERO PUSH2 0x742 JUMPI PUSH1 0x3 PUSH1 0x0 MSTORE PUSH1 0x20 PUSH1 0x0 KECCAK256 ADD SWAP1 PUSH1 0x0 SWAP1 JUMP JUMPDEST PUSH4 0x4E487B71 PUSH1 0xE0 SHL PUSH1 0x0 MSTORE PUSH1 0x32 PUSH1 0x4 MSTORE PUSH1 0x24 PUSH1 0x0 REVERT JUMPDEST SWAP2 SWAP1 DUP3 ADD DUP1 SWAP3 GT PUSH2 0x67E JUMPI JUMP JUMPDEST PUSH1 0x40 MLOAD SWAP2 SWAP1 PUSH1 0x1F ADD PUSH1 0x1F NOT AND DUP3 ADD PUSH8 0xFFFFFFFFFFFFFFFF DUP2 GT DUP4 DUP3 LT OR PUSH2 0x490 JUMPI PUSH1 0x40 MSTORE JUMP JUMPDEST PUSH8 0xFFFFFFFFFFFFFFFF DUP2 GT PUSH2 0x490 JUMPI PUSH1 0x5 SHL PUSH1 0x20 ADD SWAP1 JUMP JUMPDEST DUP1 MLOAD DUP3 LT ISZERO PUSH2 0x742 JUMPI PUSH1 0x20 SWAP2 PUSH1 0x5 SHL ADD ADD SWAP1 JUMP JUMPDEST PUSH1 0x1 SLOAD PUSH5 0x12A05F200 DUP2 LT PUSH2 0x7CC JUMPI POP PUSH1 0x0 SWAP1 JUMP JUMPDEST PUSH5 0x12A05F200 SUB PUSH5 0x12A05F200 DUP2 GT PUSH2 0x67E JUMPI SWAP1 JUMP JUMPDEST PUSH1 0x0 SLOAD PUSH1 0x1 PUSH1 0x1 PUSH1 0xA0 SHL SUB AND CALLER SUB PUSH2 0x7F6 JUMPI JUMP JUMPDEST PUSH4 0x118CDAA7 PUSH1 0xE0 SHL PUSH1 0x0 MSTORE CALLER PUSH1 0x4 MSTORE PUSH1 0x24 PUSH1 0x0 REVERT JUMPDEST PUSH8 0x16345785D8A0000 CALLVALUE LT PUSH2 0x99A JUMPI PUSH8 0xDE0B6B3A7640000 CALLVALUE DIV PUSH2 0x1388 DUP2 MUL SWAP1 DUP1 DUP3 DIV PUSH2 0x1388 EQ SWAP1 ISZERO OR ISZERO PUSH2 0x67E JUMPI PUSH8 0xDE0B6B3A7640000 CALLVALUE MOD SWAP1 PUSH2 0x1388 DUP3 MUL SWAP2 DUP1 DUP4 DIV PUSH2 0x1388 EQ SWAP1 ISZERO OR ISZERO PUSH2 0x67E JUMPI PUSH8 0xDE0B6B3A7640000 PUSH2 0x86F SWAP3 DIV SWAP1 PUSH2 0x758 JUMP JUMPDEST SWAP1 PUSH2 0x87C DUP3 PUSH1 0x1 SLOAD PUSH2 0x758 JUMP JUMPDEST SWAP1 PUSH5 0x12A05F200 DUP3 GT PUSH2 0x97F JUMPI PUSH1 0x1 PUSH1 0x1 PUSH1 0xA0 SHL SUB AND PUSH1 0x0 DUP2 DUP2 MSTORE PUSH1 0x4 PUSH1 0x20 MSTORE PUSH1 0x40 SWAP1 KECCAK256 SLOAD SWAP1 SWAP3 SWAP1 PUSH1 0xFF AND ISZERO PUSH2 0x8F8 JUMPI JUMPDEST PUSH1 0x20 SWAP1 PUSH32 0x900825D4808E50002C1A3614C809EB06D2D7142338F0DEC06ED9A4057C8A8C99 SWAP3 DUP5 PUSH1 0x0 MSTORE PUSH1 0x2 DUP4 MSTORE PUSH1 0x40 PUSH1 0x0 KECCAK256 PUSH2 0x8EA DUP4 DUP3 SLOAD PUSH2 0x758 JUMP JUMPDEST SWAP1 SSTORE PUSH1 0x1 SSTORE PUSH1 0x40 MLOAD SWAP1 DUP2 MSTORE LOG2 JUMP JUMPDEST PUSH1 0x3 SLOAD SWAP1 PUSH9 0x10000000000000000 DUP3 LT ISZERO PUSH2 0x490 JUMPI PUSH32 0x900825D4808E50002C1A3614C809EB06D2D7142338F0DEC06ED9A4057C8A8C99 SWAP3 PUSH2 0x941 DUP4 PUSH1 0x1 PUSH1 0x20 SWAP6 ADD PUSH1 0x3 SSTORE PUSH2 0x727 JUMP JUMPDEST DUP2 SLOAD PUSH1 0x1 PUSH1 0x1 PUSH1 0xA0 SHL SUB PUSH1 0x3 SWAP3 SWAP1 SWAP3 SHL SWAP2 DUP3 SHL NOT AND SWAP1 DUP8 SWAP1 SHL OR SWAP1 SSTORE PUSH1 0x0 DUP6 DUP2 MSTORE PUSH1 0x4 SWAP1 SWAP4 MSTORE PUSH1 0x40 SWAP1 SWAP3 KECCAK256 DUP1 SLOAD PUSH1 0xFF NOT AND PUSH1 0x1 OR SWAP1 SSTORE SWAP1 SWAP2 POP PUSH2 0x8AD JUMP JUMPDEST PUSH2 0x987 PUSH2 0x7B7 JUMP JUMPDEST PUSH3 0x5EF85B PUSH1 0xE2 SHL PUSH1 0x0 MSTORE PUSH1 0x4 MSTORE PUSH1 0x24 PUSH1 0x0 REVERT JUMPDEST PUSH4 0x82AD3905 PUSH1 0xE0 SHL PUSH1 0x0 MSTORE PUSH8 0x16345785D8A0000 PUSH1 0x4 MSTORE PUSH1 0x24 PUSH1 0x0 REVERT INVALID LOG2 PUSH5 0x6970667358 0x22 SLT KECCAK256 ADD 0xEB PUSH7 0x79BF06101A3F10 SWAP14 0xBC DUP2 PUSH28 0xF8AC3E6E425136C1B2E3AAD07CA7C40C1C4864736F6C634300081C00 CALLER "},"methodIdentifiers":{"MAX_POINTS()":"25f87d23","MIN_DEPOSIT()":"e1e158a5","POINTS_PER_S()":"65dbcd43","addressList(uint256)":"b810fb43","deposit()":"d0e30db0","depositFor(address)":"aa67c919","getAddressCount()":"cdbb02af","getAddressesPaginated(uint256,uint256)":"350a8f6c","getPoints(address)":"ee204abb","getRemainingPoints()":"f5ee80e1","owner()":"8da5cb5b","points(address)":"358b8166","renounceOwnership()":"715018a6","totalPointsIssued()":"fd1c8811","transferOwnership(address)":"f2fde38b","withdraw()":"3ccfd60b"}}}}}