{"contracts/GameMaster.sol":{"GameMaster":{"abi":[{"inputs":[],"stateMutability":"nonpayable","type":"constructor"},{"inputs":[{"internalType":"address","name":"owner","type":"address"}],"name":"OwnableInvalidOwner","type":"error"},{"inputs":[{"internalType":"address","name":"account","type":"address"}],"name":"OwnableUnauthorizedAccount","type":"error"},{"anonymous":false,"inputs":[{"indexed":false,"internalType":"string","name":"gameName","type":"string"},{"indexed":false,"internalType":"address","name":"gameAddress","type":"address"}],"name":"GameRegistered","type":"event"},{"anonymous":false,"inputs":[],"name":"GameReset","type":"event"},{"anonymous":false,"inputs":[{"indexed":false,"internalType":"string","name":"gameName","type":"string"},{"indexed":false,"internalType":"address","name":"gameAddress","type":"address"},{"indexed":false,"internalType":"uint256","name":"gameId","type":"uint256"}],"name":"GameStarted","type":"event"},{"anonymous":false,"inputs":[{"indexed":true,"internalType":"address","name":"previousOwner","type":"address"},{"indexed":true,"internalType":"address","name":"newOwner","type":"address"}],"name":"OwnershipTransferred","type":"event"},{"anonymous":false,"inputs":[{"indexed":true,"internalType":"address","name":"player","type":"address"},{"indexed":false,"internalType":"uint256","name":"playerNumber","type":"uint256"}],"name":"PlayerEliminated","type":"event"},{"anonymous":false,"inputs":[{"indexed":true,"internalType":"address","name":"player","type":"address"},{"indexed":false,"internalType":"uint256","name":"number","type":"uint256"}],"name":"PlayerNumberAssigned","type":"event"},{"anonymous":false,"inputs":[{"indexed":true,"internalType":"address","name":"player","type":"address"},{"indexed":false,"internalType":"uint256","name":"amount","type":"uint256"}],"name":"PlayerRefunded","type":"event"},{"anonymous":false,"inputs":[{"indexed":true,"internalType":"address","name":"player","type":"address"},{"indexed":false,"internalType":"uint256","name":"playerNumber","type":"uint256"}],"name":"PlayerRegistered","type":"event"},{"anonymous":false,"inputs":[{"indexed":false,"internalType":"address[]","name":"players","type":"address[]"}],"name":"PlayersRegistered","type":"event"},{"anonymous":false,"inputs":[{"indexed":true,"internalType":"address","name":"player","type":"address"},{"indexed":false,"internalType":"uint256","name":"amount","type":"uint256"}],"name":"RefundFailed","type":"event"},{"anonymous":false,"inputs":[],"name":"RegistrationClosed","type":"event"},{"anonymous":false,"inputs":[{"indexed":false,"internalType":"uint256","name":"newFee","type":"uint256"}],"name":"RegistrationFeeChanged","type":"event"},{"inputs":[],"name":"MAX_PLAYERS","outputs":[{"internalType":"uint256","name":"","type":"uint256"}],"stateMutability":"view","type":"function"},{"inputs":[{"internalType":"uint256","name":"","type":"uint256"}],"name":"activePlayers","outputs":[{"internalType":"address","name":"","type":"address"}],"stateMutability":"view","type":"function"},{"inputs":[],"name":"closeRegistration","outputs":[],"stateMutability":"nonpayable","type":"function"},{"inputs":[{"internalType":"uint256","name":"","type":"uint256"}],"name":"eliminatedPlayers","outputs":[{"internalType":"address","name":"","type":"address"}],"stateMutability":"view","type":"function"},{"inputs":[{"internalType":"string","name":"gameName","type":"string"}],"name":"endExpiredGames","outputs":[],"stateMutability":"nonpayable","type":"function"},{"inputs":[{"internalType":"string","name":"gameName","type":"string"}],"name":"endGames","outputs":[{"internalType":"address[]","name":"","type":"address[]"}],"stateMutability":"nonpayable","type":"function"},{"inputs":[{"internalType":"address","name":"","type":"address"}],"name":"finalPlacements","outputs":[{"internalType":"uint256","name":"","type":"uint256"}],"stateMutability":"view","type":"function"},{"inputs":[{"internalType":"string","name":"","type":"string"}],"name":"gameAddresses","outputs":[{"internalType":"address","name":"","type":"address"}],"stateMutability":"view","type":"function"},{"inputs":[],"name":"getActivePlayerCount","outputs":[{"internalType":"uint256","name":"","type":"uint256"}],"stateMutability":"view","type":"function"},{"inputs":[],"name":"getActivePlayers","outputs":[{"internalType":"address[]","name":"","type":"address[]"}],"stateMutability":"view","type":"function"},{"inputs":[],"name":"getActivePlayersAndNumbers","outputs":[{"internalType":"address[]","name":"players","type":"address[]"},{"internalType":"uint256[]","name":"numbers","type":"uint256[]"}],"stateMutability":"view","type":"function"},{"inputs":[],"name":"getEliminatedPlayerCount","outputs":[{"internalType":"uint256","name":"","type":"uint256"}],"stateMutability":"view","type":"function"},{"inputs":[],"name":"getEliminatedPlayers","outputs":[{"internalType":"address[]","name":"","type":"address[]"}],"stateMutability":"view","type":"function"},{"inputs":[],"name":"getGames","outputs":[{"internalType":"string[]","name":"gameTypes","type":"string[]"},{"components":[{"internalType":"uint256","name":"gameId","type":"uint256"},{"internalType":"enum GameState","name":"state","type":"uint8"},{"internalType":"uint256","name":"currentRound","type":"uint256"},{"internalType":"uint256","name":"activePlayerCount","type":"uint256"}],"internalType":"struct GameInstanceInfo[][]","name":"gameInstances","type":"tuple[][]"}],"stateMutability":"view","type":"function"},{"inputs":[],"name":"getPlayerCount","outputs":[{"internalType":"uint256","name":"","type":"uint256"}],"stateMutability":"view","type":"function"},{"inputs":[{"internalType":"address","name":"player","type":"address"}],"name":"getPlayerFinalPlacement","outputs":[{"internalType":"uint256","name":"","type":"uint256"}],"stateMutability":"view","type":"function"},{"inputs":[{"internalType":"address","name":"player","type":"address"}],"name":"getPlayerInfo","outputs":[{"internalType":"string","name":"gameName","type":"string"},{"internalType":"uint256","name":"gameId","type":"uint256"},{"internalType":"bool","name":"isActive","type":"bool"},{"internalType":"enum GameState","name":"gameState","type":"uint8"},{"internalType":"uint256","name":"playerNumber","type":"uint256"}],"stateMutability":"view","type":"function"},{"inputs":[{"internalType":"address","name":"player","type":"address"}],"name":"getPlayerNumber","outputs":[{"internalType":"uint256","name":"","type":"uint256"}],"stateMutability":"view","type":"function"},{"inputs":[],"name":"getRegisteredGames","outputs":[{"internalType":"string[]","name":"","type":"string[]"}],"stateMutability":"view","type":"function"},{"inputs":[],"name":"getRegisteredPlayers","outputs":[{"internalType":"address[]","name":"","type":"address[]"}],"stateMutability":"view","type":"function"},{"inputs":[{"internalType":"string","name":"gameName","type":"string"}],"name":"initializeGame","outputs":[{"internalType":"uint256","name":"","type":"uint256"}],"stateMutability":"nonpayable","type":"function"},{"inputs":[{"internalType":"address","name":"","type":"address"}],"name":"isActivePlayer","outputs":[{"internalType":"bool","name":"","type":"bool"}],"stateMutability":"view","type":"function"},{"inputs":[{"internalType":"string","name":"","type":"string"}],"name":"isGameRegistered","outputs":[{"internalType":"bool","name":"","type":"bool"}],"stateMutability":"view","type":"function"},{"inputs":[{"internalType":"address","name":"","type":"address"}],"name":"isRegistered","outputs":[{"internalType":"bool","name":"","type":"bool"}],"stateMutability":"view","type":"function"},{"inputs":[],"name":"owner","outputs":[{"internalType":"address","name":"","type":"address"}],"stateMutability":"view","type":"function"},{"inputs":[{"internalType":"address","name":"player","type":"address"}],"name":"playerEliminated","outputs":[],"stateMutability":"nonpayable","type":"function"},{"inputs":[{"internalType":"address","name":"","type":"address"}],"name":"playerNumbers","outputs":[{"internalType":"uint256","name":"","type":"uint256"}],"stateMutability":"view","type":"function"},{"inputs":[],"name":"register","outputs":[],"stateMutability":"payable","type":"function"},{"inputs":[{"internalType":"string","name":"gameName","type":"string"},{"internalType":"address","name":"gameAddress","type":"address"}],"name":"registerGame","outputs":[],"stateMutability":"nonpayable","type":"function"},{"inputs":[{"internalType":"uint256","name":"","type":"uint256"}],"name":"registeredGames","outputs":[{"internalType":"string","name":"","type":"string"}],"stateMutability":"view","type":"function"},{"inputs":[{"internalType":"uint256","name":"","type":"uint256"}],"name":"registeredPlayers","outputs":[{"internalType":"address","name":"","type":"address"}],"stateMutability":"view","type":"function"},{"inputs":[],"name":"registrationClosed","outputs":[{"internalType":"bool","name":"","type":"bool"}],"stateMutability":"view","type":"function"},{"inputs":[],"name":"registrationFee","outputs":[{"internalType":"uint256","name":"","type":"uint256"}],"stateMutability":"view","type":"function"},{"inputs":[],"name":"renounceOwnership","outputs":[],"stateMutability":"nonpayable","type":"function"},{"inputs":[],"name":"resetGame","outputs":[],"stateMutability":"nonpayable","type":"function"},{"inputs":[{"internalType":"uint256","name":"_newFee","type":"uint256"}],"name":"setRegistrationFee","outputs":[],"stateMutability":"nonpayable","type":"function"},{"inputs":[{"internalType":"string","name":"gameName","type":"string"}],"name":"startGames","outputs":[{"internalType":"bool","name":"","type":"bool"}],"stateMutability":"nonpayable","type":"function"},{"inputs":[{"internalType":"address","name":"newOwner","type":"address"}],"name":"transferOwnership","outputs":[],"stateMutability":"nonpayable","type":"function"},{"inputs":[],"name":"withdraw","outputs":[],"stateMutability":"nonpayable","type":"function"}],"evm":{"bytecode":{"linkReferences":{},"object":"608080604052346081573315606b5760008054336001600160a01b0319821681178355916001600160a01b03909116907f8be0079c531659141344cd1fd0a4f28419497f9722a3daafe3b4186f6b6457e09080a367016345785d8a00006004556126b590816100878239f35b631e4fbdf760e01b600052600060045260246000fd5b600080fdfe608080604052600436101561001357600080fd5b600090813560e01c90816314c44e0914611e26575080631a8e251414611da85780631aa3a00814611b0e5780631bc8c8a0146119ac5780632e7ea48a1461197c57806339e160f11461178a5780633c4f5a661461175f5780633ccfd60b146116ea5780634411b3eb146116cd5780634aefbbe7146113aa5780634e347f2a1461138c57806354a7d9311461134d57806355e226c71461132057806359328401146112c057806364328b9c1461122e5780636a6b2722146111e75780636e24b9391461114957806371259638146110fa578063715018a6146110a05780637dc673bc1461105357806389a5b229146110285780638da5cb5b146110015780639e3c5a7214610f9a5780639f9a093c14610f77578063ada4a40114610f28578063b55f108f14610ee4578063b6e79c5914610e2b578063bb47221914610ba0578063c04c5947146108be578063c07dda4a14610885578063c2e5220614610867578063c320c727146107cd578063c3c5a5471461078e578063d03b547e1461070d578063d4e103d51461060e578063e03a0288146105d5578063f2fde38b1461054f578063fbdb3c74146101ee5763fea55dad146101ce57600080fd5b346101eb57806003193601126101eb576020600854604051908152f35b80fd5b50346101eb5760203660031901126101eb57610208611f52565b6001600160a01b0381168083526002602052604083205490919061022e9060ff16612612565b818352600660205260ff6040842054161561050a578283600c54905b81811061045f575b50501561040657818352600660205260408320805460ff19169055600854600160401b8110156103f257906102928260016102b6940160085560086120e0565b81546001600160a01b0393841660039290921b91821b9390911b1916919091179055565b6102c56001546008549061221b565b600181018091116103de5781835260096020526040832055815b600554808210156103d757826102f483612079565b905460039190911b1c6001600160a01b03161461031457506001016102df565b60001981019081116103c3579061029261033061034893612079565b905460039190911b1c6001600160a01b031691612079565b60055480156103af576000190161035e81612079565b81549060018060a01b039060031b1b191690556005555b80825260076020527f6d23a3ab6e6c4048b5879c5716bb756108e4e5d37158a83ea36761c83627da5760206040842054604051908152a280f35b634e487b7160e01b83526031600452602483fd5b634e487b7160e01b84526011600452602484fd5b5050610375565b634e487b7160e01b83526011600452602483fd5b634e487b7160e01b84526041600452602484fd5b60405162461bcd60e51b815260206004820152602b60248201527f4f6e6c7920726567697374657265642067616d65732063616e20656c696d696e60448201526a61746520706c617965727360a81b6064820152608490fd5b610468816120aa565b5060405181548892610479826120f8565b91600181169081156104f357506001146104bf575b5050600a825260208160018060a01b039303019020541633146104b35760010161024a565b50505060013880610252565b9091925088526020882088905b8282106104df575050810190388061048e565b6001816020925484870152019101906104cc565b60ff1916845250508015150281019150388061048e565b60405162461bcd60e51b815260206004820152601960248201527f506c6179657220616c726561647920656c696d696e61746564000000000000006044820152606490fd5b50346101eb5760203660031901126101eb57610569611f52565b610571612656565b6001600160a01b031680156105c15781546001600160a01b03198116821783556001600160a01b03167f8be0079c531659141344cd1fd0a4f28419497f9722a3daafe3b4186f6b6457e08380a380f35b631e4fbdf760e01b82526004829052602482fd5b50346101eb5760203660031901126101eb576020906040906001600160a01b036105fd611f52565b168152600783522054604051908152f35b50346101eb5760203660031901126101eb57806004356001600160401b03811161070a576106426020913690600401611e7f565b61064a612656565b61066a60ff604051838582378581858101600b815203019020541661226e565b80604051928337600a908201908152819003820190205460405163e81de9f560e01b815292839160049183916001600160a01b03165af19081156106ff5782916106bc575b6020826040519015158152f35b90506020813d6020116106f7575b816106d760209383611f68565b810103126106f3575180151581036106f35760209150386106af565b5080fd5b3d91506106ca565b6040513d84823e3d90fd5b50fd5b50346101eb5760203660031901126101eb57600435906008548210156101eb5760085482101561077a57600881527ff3f7a9fe364faab93b216da50a3214154f22a0a2b415b23a84c8169e8b636ee39091015460405160039290921b1c6001600160a01b03168152602090f35b634e487b7160e01b81526032600452602490fd5b50346101eb5760203660031901126101eb5760209060ff906040906001600160a01b036107b9611f52565b168152600284522054166040519015158152f35b50346101eb5760203660031901126101eb576004356107ea612656565b8015610822576020817ffd29c2cd5dc77cf2bad34e3b80ec2592a7c16d32869ccaee99f95af250db954a92600455604051908152a180f35b60405162461bcd60e51b815260206004820152601a60248201527f466565206d7573742062652067726561746572207468616e20300000000000006044820152606490fd5b50346101eb57806003193601126101eb576020600154604051908152f35b50346101eb5760203660031901126101eb576020906040906001600160a01b036108ad611f52565b168152600983522054604051908152f35b50346101eb57806003193601126101eb57600c546108da6122c7565b906108e4816122b0565b906108f26040519283611f68565b808252601f19610901826122b0565b01845b818110610b8d575050835b8181106109da57505061092d60405192604084526040840190611ef9565b8281036020840152815190818152602081016020808460051b84010194019580925b84841061095c5786860387f35b9091929394601f198282030184528751906020808351928381520192019084905b80821061099c575050506020978801979095946001019301919061094f565b9091926020608060019260608751805183526109be8582015186850190612022565b604081015160408401520151606082015201940192019061097d565b610a0760206109f46109ee849896986120aa565b50612132565b8160405193828580945193849201611eb1565b600a90820190815203019020546001600160a01b0316908382610a33575b50600191500193919361090f565b60405163c04c594760e01b815292839060049082905afa8015610b82578490610a77575b60019250610a65828861236e565b52610a70818761236e565b5083610a25565b50903d8085833e610a888183611f68565b810190602081830312610b7a578051906001600160401b038211610b7e570181601f82011215610b7a57805190610abe826122b0565b92610acc6040519485611f68565b82845260208085019360071b83010191818311610b7657602001925b828410610afc575050505090600191610a57565b608084830312610b7657604051608081018181106001600160401b03821117610b62576040528451815260208501516005811015610b5e5791816080936020809401526040870151604082015260608701516060820152815201930192610ae8565b8980fd5b634e487b7160e01b8a52604160045260248afd5b8780fd5b8480fd5b8580fd5b6040513d86823e3d90fd5b6060602082860181019190915201610904565b50346101eb57806003193601126101eb57610bb9612656565b60ff60035416158015610e20575b15610de457805b600154811015610c7e5780610be46001926120c5565b838060a01b0391549060031b1c1683808080600454855af1610c0461223e565b50610c4b57807faf73b0b217208b61be286bbc37095bce7eb8b9ccf617244c2f0f154e8e04e3ff6020600454604051908152a25b8352600960205282604081205501610bce565b807f48d31f1c958cd44f1f83a52ae2dfaf61e88a1b82c07a6d5711a4abef60b6531e6020600454604051908152a2610c38565b506001548160015580610dac575b506005548160055580610d74575b506008548160085580610d3c575b5060ff1960035416600355805b600154811015610d145780610ccb6001926120c5565b838060a01b0391549060031b1c1680845260026020526040842060ff19815416905580845260066020526040842060ff1981541690558352600760205282604081205501610cb5565b507fc6976b6410888b44c765590c8368eb4a60e0431d4ad683c8a53ea85a8479f22e8180a180f35b60088252610d6e907ff3f7a9fe364faab93b216da50a3214154f22a0a2b415b23a84c8169e8b636ee3908101906123a3565b38610ca8565b60058252610da6907f036b6384b5eca791c62761152d0c79bb0604c104a5fb6f4eb0703f3154bb3db0908101906123a3565b38610c9a565b60018252610dde907fb10e2d527612073b26eecdfd717e6a320cf44b4afac2b0732d9fcbe2b7fa0cf6908101906123a3565b38610c8c565b60405162461bcd60e51b8152602060048201526014602482015273139bc81c1b185e595c9cc81d1bc81c99599d5b9960621b6044820152606490fd5b506001541515610bc7565b50346101eb5760203660031901126101eb57806004356001600160401b03811161070a57610e5d903690600401611e7f565b610e65612656565b610e8660ff60405183858237602081858101600b815203019020541661226e565b80604051928337600a9082019081528190036020019020546001600160a01b0316803b1561070a57818091600460405180948193636879d10f60e11b83525af180156106ff57610ed35750f35b81610edd91611f68565b6101eb5780f35b50346101eb5760203660031901126101eb57600435906005548210156101eb576020610f0f83612079565b905460405160039290921b1c6001600160a01b03168152f35b50346101eb5760203660031901126101eb576020906040906001600160a01b03610f50611f52565b1680825260028452610f6760ff8484205416612612565b8152600783522054604051908152f35b50346101eb57806003193601126101eb57602060ff600354166040519015158152f35b50346101eb5760203660031901126101eb57600435600c548110156106f357610fc2906120aa565b919091610fed57610fe9610fd583612132565b604051918291602083526020830190611ed4565b0390f35b634e487b7160e01b81526004819052602490fd5b50346101eb57806003193601126101eb57546040516001600160a01b039091168152602090f35b50346101eb5760203660031901126101eb57600435906001548210156101eb576020610f0f836120c5565b50346101eb57806003193601126101eb5761106c612656565b600160ff1960035416176003557f2fc209f3df2fb10c5fcb1620d3e5f067b9ef99813ca8fa6b24de0418bdac54208180a180f35b50346101eb57806003193601126101eb576110b9612656565b80546001600160a01b03198116825581906001600160a01b03167f8be0079c531659141344cd1fd0a4f28419497f9722a3daafe3b4186f6b6457e08280a380f35b50346101eb5760203660031901126101eb576020906040906001600160a01b03611122611f52565b168082526002845261113960ff8484205416612612565b8152600983522054604051908152f35b50346101eb57806003193601126101eb57600554906111678261233c565b916040519161118083611179816121d6565b0384611f68565b805b8281106111b3576111a584610fe987604051938493604085526040850190611e42565b908382036020850152612045565b6001906001600160a01b036111c8828761236e565b51168352600760205260408320546111e0828861236e565b5201611182565b50346101eb5760206111f836611fba565b8161120c6040519283815193849201611eb1565b600a90820190815281900382019020546040516001600160a01b039091168152f35b50346101eb57806003193601126101eb5760405160088054808352908352909160208301917ff3f7a9fe364faab93b216da50a3214154f22a0a2b415b23a84c8169e8b636ee3915b8181106112a157610fe98561128d81870382611f68565b604051918291602083526020830190611e42565b82546001600160a01b0316845260209093019260019283019201611276565b50346101eb5760203660031901126101eb576113006113176112e86112e3611f52565b6123ba565b9293949160405196879660a0885260a0880190611ed4565b946020870152151560408601526060850190612022565b60808301520390f35b50346101eb57602060ff611337826109f436611fba565b8101600b81520301902054166040519015158152f35b50346101eb5760203660031901126101eb5760209060ff906040906001600160a01b03611378611f52565b168152600684522054166040519015158152f35b50346101eb57806003193601126101eb576020600554604051908152f35b50346101eb5760403660031901126101eb576004356001600160401b0381116106f3576113db903690600401611e7f565b6024356001600160a01b038116939291908490036116c9576113fb612656565b831561168d5760ff60405182848237602081848101600b81520301902054166116485780156116035760405181838237602081838101600a815203019020846bffffffffffffffffffffffff60a01b82541617905560405181838237602081838101600b815203019020600160ff19825416179055600c54600160401b8110156103f25780600161148f9201600c556120aa565b9490946115ef576001600160401b0382116103f2576114ae85546120f8565b601f81116115b4575b508394601f8311600114611532578285967ff7757a7272e50875150e6020afe9040c7c2485f28d0513dad0f5170af4f20d439691611527575b508360011b906000198560031b1c19161790555b61151b604051938493604085526040850191612382565b9060208301520390a180f35b9050840135386114f0565b80855260208520601f19841696865b88811061159c5750847ff7757a7272e50875150e6020afe9040c7c2485f28d0513dad0f5170af4f20d43979810611582575b5050600183811b019055611504565b850135600019600386901b60f8161c191690553880611573565b9091602060018192858a013581550193019101611541565b6115df9086865260208620601f850160051c810191602086106115e5575b601f0160051c01906123a3565b386114b7565b90915081906115d2565b634e487b7160e01b84526004849052602484fd5b60405162461bcd60e51b815260206004820152601960248201527f47616d65206e616d652063616e6e6f7420626520656d707479000000000000006044820152606490fd5b60405162461bcd60e51b815260206004820152601760248201527f47616d6520616c726561647920726567697374657265640000000000000000006044820152606490fd5b60405162461bcd60e51b8152602060048201526014602482015273496e76616c69642067616d65206164647265737360601b6044820152606490fd5b8280fd5b50346101eb57806003193601126101eb5760206040516103e88152f35b50346101eb57806003193601126101eb57611703612656565b8080808060018060a01b0381541647905af161171d61223e565b50156117265780f35b60405162461bcd60e51b815260206004820152601160248201527015da5d1a191c985dd85b0819985a5b1959607a1b6044820152606490fd5b50346101eb57806003193601126101eb57610fe960405161128d81611783816121d6565b0382611f68565b50346101eb5760203660031901126101eb576004356001600160401b0381116106f3576117bb903690600401611e7f565b90916117c5612656565b6117e660ff60405184868237602081868101600b815203019020541661226e565b6005549283156119435760405183828237600a8185019081528190036020019020546001600160a01b03169261181b8561233c565b94835b81811061190c575050833b156116c957826118699560405180978192637fbbe46f60e01b835260406004840152611857604484016121d6565b83810360031901602485015290612045565b038183885af1948515611901576020956118cf575b507f556ae6f2a401959ea3e8f5c4035f8063eff09c11d1565ab4f369920dd9da3b3692936118b9604051938493606085526060850191612382565b90868301528460408301520390a1604051908152f35b926118fb817f556ae6f2a401959ea3e8f5c4035f8063eff09c11d1565ab4f369920dd9da3b3695611f68565b9261187e565b6040513d85823e3d90fd5b80611918600192612079565b838060a01b0391549060031b1c1686526007602052604086205461193c828a61236e565b520161181e565b60405162461bcd60e51b81526020600482015260116024820152704e6f2061637469766520706c617965727360781b6044820152606490fd5b50346101eb57806003193601126101eb57610fe96119986122c7565b604051918291602083526020830190611ef9565b50346101eb5760203660031901126101eb57806004356001600160401b03811161070a576119df82913690600401611e7f565b6119e7612656565b611a0860ff60405183858237602081858101600b815203019020541661226e565b80604051928337600a908201908152819003602001902054604051636cbc2ded60e01b815292839160049183916001600160a01b03165af19081156106ff578291611a64575b60405160208082528190610fe990820185611e42565b90503d8083833e611a758183611f68565b8101906020818303126116c9578051906001600160401b038211611b0a57019080601f830112156116c957815192611aac846122b0565b92611aba6040519485611f68565b84845260208085019560051b8201019283116106f357602001935b828510611aea57505050610fe9915038611a4e565b84516001600160a01b03811681036116c957815260209485019401611ad5565b8380fd5b50806003193601126101eb5760ff60035416611d6a576004543410611d1557338152600260205260ff604082205416611cdb576001543382526007602052806040832055600154600160401b811015611cc757611b76816001611b94930160015560016120e0565b81546001600160a01b0360039290921b91821b19163390911b179055565b338252600260205260408220805460ff19166001179055600554600160401b811015611cc757611b76816001611bcf930160055560056120e0565b338252600660205260408220600160ff198254161790556040519081527f324cb0062138d65997c86cd3012489ceb351d602f2f55c7408306e8040c79f3f60203392a26103e86001541015611c91575b80611c2c6004543461221b565b80611c345750f35b81808092335af1611c4361223e565b5015611c4c5780f35b60405162461bcd60e51b815260206004820152601f60248201527f4661696c656420746f2072657475726e20657863657373207061796d656e74006044820152606490fd5b600160ff1960035416176003557f2fc209f3df2fb10c5fcb1620d3e5f067b9ef99813ca8fa6b24de0418bdac54208180a1611c1f565b634e487b7160e01b83526041600452602483fd5b60405162461bcd60e51b8152602060048201526012602482015271105b1c9958591e481c9959da5cdd195c995960721b6044820152606490fd5b60405162461bcd60e51b815260206004820152602760248201527f4d7573742073656e64206174206c656173742074686520726567697374726174604482015266696f6e2066656560c81b6064820152608490fd5b60405162461bcd60e51b8152602060048201526016602482015275149959da5cdd1c985d1a5bdb881a5cc818db1bdcd95960521b6044820152606490fd5b50346101eb57806003193601126101eb5760405160018054808352908352909160208301917fb10e2d527612073b26eecdfd717e6a320cf44b4afac2b0732d9fcbe2b7fa0cf6915b818110611e0757610fe98561128d81870382611f68565b82546001600160a01b0316845260209093019260019283019201611df0565b9050346106f357816003193601126106f3576020906004548152f35b906020808351928381520192019060005b818110611e605750505090565b82516001600160a01b0316845260209384019390920191600101611e53565b9181601f84011215611eac578235916001600160401b038311611eac5760208381860195010111611eac57565b600080fd5b60005b838110611ec45750506000910152565b8181015183820152602001611eb4565b90602091611eed81518092818552858086019101611eb1565b601f01601f1916010190565b9080602083519182815201916020808360051b8301019401926000915b838310611f2557505050505090565b9091929394602080611f43600193601f198682030187528951611ed4565b97019301930191939290611f16565b600435906001600160a01b0382168203611eac57565b90601f801991011681019081106001600160401b03821117611f8957604052565b634e487b7160e01b600052604160045260246000fd5b6001600160401b038111611f8957601f01601f191660200190565b6020600319820112611eac576004356001600160401b038111611eac5781602382011215611eac57806004013590611ff182611f9f565b92611fff6040519485611f68565b82845260248383010111611eac5781600092602460209301838601378301015290565b90600582101561202f5752565b634e487b7160e01b600052602160045260246000fd5b906020808351928381520192019060005b8181106120635750505090565b8251845260209384019390920191600101612056565b60055481101561209457600560005260206000200190600090565b634e487b7160e01b600052603260045260246000fd5b600c5481101561209457600c60005260206000200190600090565b60015481101561209457600160005260206000200190600090565b80548210156120945760005260206000200190600090565b90600182811c92168015612128575b602083101461211257565b634e487b7160e01b600052602260045260246000fd5b91607f1691612107565b9060405191826000825492612146846120f8565b80845293600181169081156121b4575060011461216d575b5061216b92500383611f68565b565b90506000929192526020600020906000915b81831061219857505090602061216b928201013861215e565b602091935080600191548385890101520191019091849261217f565b90506020925061216b94915060ff191682840152151560051b8201013861215e565b6020600554918281520190600560005260206000209060005b8181106121fc5750505090565b82546001600160a01b03168452602090930192600192830192016121ef565b9190820391821161222857565b634e487b7160e01b600052601160045260246000fd5b3d15612269573d9061224f82611f9f565b9161225d6040519384611f68565b82523d6000602084013e565b606090565b1561227557565b60405162461bcd60e51b815260206004820152601360248201527211d85b59481b9bdd081c9959da5cdd195c9959606a1b6044820152606490fd5b6001600160401b038111611f895760051b60200190565b600c54906122d4826122b0565b916122e26040519384611f68565b808352600c60009081527fdf6966c971051c3d54ec59162606531493a51404a002842f56009d7e5cf4a8c7602085015b83831061231f5750505050565b60016020819261232e85612132565b815201920192019190612312565b90612346826122b0565b6123536040519182611f68565b8281528092612364601f19916122b0565b0190602036910137565b80518210156120945760209160051b010190565b908060209392818452848401376000828201840152601f01601f1916010190565b8181106123ae575050565b600081556001016123a3565b6001600160a01b031660008181526002602052604090205490919060ff16156125ef5781600052600660205260ff604060002054169082600052600760205260406000205460209160405161240f8482611f68565b6000808252600c54909687959086805b8481106124325750505050509493929190565b61243e6109ee826120aa565b9060405182516124518183898701611eb1565b600a90820190815281900386019020546001600160a01b0316918261247c575b50600191500161241f565b60405163773b549d60e01b815260048101869052908682602481875afa9182156125b4576000926125c0575b50816124b5575b50612471565b60a0602493946040519485809263047e1d5560e41b82528660048301525afa9283156125b45760009361251b575b5060608301518581116124fa575b508392506124af565b939b50935096509a5090949951600581101561202f579760013880806124f1565b60a0939193813d82116125ac575b8161253660a09383611f68565b810103126106f3576040519160a083018381106001600160401b038211176125985760405281519060058210156101eb5750906080918352888101518984015260408101516040840152606081015160608401520151608082015291386124e3565b634e487b7160e01b82526041600452602482fd5b3d9150612529565b6040513d6000823e3d90fd5b90918782813d83116125e8575b6125d78183611f68565b810103126101eb57505190386124a8565b503d6125cd565b90506040516125ff602082611f68565b6000815290600090600090600090600090565b1561261957565b60405162461bcd60e51b8152602060048201526015602482015274141b185e595c881b9bdd081c9959da5cdd195c9959605a1b6044820152606490fd5b6000546001600160a01b0316330361266a57565b63118cdaa760e01b6000523360045260246000fdfea26469706673582212201fc5ed4bc9a057690cfe640a83b087613cb514ee758976ad522631f09849867664736f6c634300081c0033","opcodes":"PUSH1 0x80 DUP1 PUSH1 0x40 MSTORE CALLVALUE PUSH1 0x81 JUMPI CALLER ISZERO PUSH1 0x6B JUMPI PUSH1 0x0 DUP1 SLOAD CALLER PUSH1 0x1 PUSH1 0x1 PUSH1 0xA0 SHL SUB NOT DUP3 AND DUP2 OR DUP4 SSTORE SWAP2 PUSH1 0x1 PUSH1 0x1 PUSH1 0xA0 SHL SUB SWAP1 SWAP2 AND SWAP1 PUSH32 0x8BE0079C531659141344CD1FD0A4F28419497F9722A3DAAFE3B4186F6B6457E0 SWAP1 DUP1 LOG3 PUSH8 0x16345785D8A0000 PUSH1 0x4 SSTORE PUSH2 0x26B5 SWAP1 DUP2 PUSH2 0x87 DUP3 CODECOPY RETURN JUMPDEST PUSH4 0x1E4FBDF7 PUSH1 0xE0 SHL PUSH1 0x0 MSTORE PUSH1 0x0 PUSH1 0x4 MSTORE PUSH1 0x24 PUSH1 0x0 REVERT JUMPDEST PUSH1 0x0 DUP1 REVERT INVALID PUSH1 0x80 DUP1 PUSH1 0x40 MSTORE PUSH1 0x4 CALLDATASIZE LT ISZERO PUSH2 0x13 JUMPI PUSH1 0x0 DUP1 REVERT JUMPDEST PUSH1 0x0 SWAP1 DUP2 CALLDATALOAD PUSH1 0xE0 SHR SWAP1 DUP2 PUSH4 0x14C44E09 EQ PUSH2 0x1E26 JUMPI POP DUP1 PUSH4 0x1A8E2514 EQ PUSH2 0x1DA8 JUMPI DUP1 PUSH4 0x1AA3A008 EQ PUSH2 0x1B0E JUMPI DUP1 PUSH4 0x1BC8C8A0 EQ PUSH2 0x19AC JUMPI DUP1 PUSH4 0x2E7EA48A EQ PUSH2 0x197C JUMPI DUP1 PUSH4 0x39E160F1 EQ PUSH2 0x178A JUMPI DUP1 PUSH4 0x3C4F5A66 EQ PUSH2 0x175F JUMPI DUP1 PUSH4 0x3CCFD60B EQ PUSH2 0x16EA JUMPI DUP1 PUSH4 0x4411B3EB EQ PUSH2 0x16CD JUMPI DUP1 PUSH4 0x4AEFBBE7 EQ PUSH2 0x13AA JUMPI DUP1 PUSH4 0x4E347F2A EQ PUSH2 0x138C JUMPI DUP1 PUSH4 0x54A7D931 EQ PUSH2 0x134D JUMPI DUP1 PUSH4 0x55E226C7 EQ PUSH2 0x1320 JUMPI DUP1 PUSH4 0x59328401 EQ PUSH2 0x12C0 JUMPI DUP1 PUSH4 0x64328B9C EQ PUSH2 0x122E JUMPI DUP1 PUSH4 0x6A6B2722 EQ PUSH2 0x11E7 JUMPI DUP1 PUSH4 0x6E24B939 EQ PUSH2 0x1149 JUMPI DUP1 PUSH4 0x71259638 EQ PUSH2 0x10FA JUMPI DUP1 PUSH4 0x715018A6 EQ PUSH2 0x10A0 JUMPI DUP1 PUSH4 0x7DC673BC EQ PUSH2 0x1053 JUMPI DUP1 PUSH4 0x89A5B229 EQ PUSH2 0x1028 JUMPI DUP1 PUSH4 0x8DA5CB5B EQ PUSH2 0x1001 JUMPI DUP1 PUSH4 0x9E3C5A72 EQ PUSH2 0xF9A JUMPI DUP1 PUSH4 0x9F9A093C EQ PUSH2 0xF77 JUMPI DUP1 PUSH4 0xADA4A401 EQ PUSH2 0xF28 JUMPI DUP1 PUSH4 0xB55F108F EQ PUSH2 0xEE4 JUMPI DUP1 PUSH4 0xB6E79C59 EQ PUSH2 0xE2B JUMPI DUP1 PUSH4 0xBB472219 EQ PUSH2 0xBA0 JUMPI DUP1 PUSH4 0xC04C5947 EQ PUSH2 0x8BE JUMPI DUP1 PUSH4 0xC07DDA4A EQ PUSH2 0x885 JUMPI DUP1 PUSH4 0xC2E52206 EQ PUSH2 0x867 JUMPI DUP1 PUSH4 0xC320C727 EQ PUSH2 0x7CD JUMPI DUP1 PUSH4 0xC3C5A547 EQ PUSH2 0x78E JUMPI DUP1 PUSH4 0xD03B547E EQ PUSH2 0x70D JUMPI DUP1 PUSH4 0xD4E103D5 EQ PUSH2 0x60E JUMPI DUP1 PUSH4 0xE03A0288 EQ PUSH2 0x5D5 JUMPI DUP1 PUSH4 0xF2FDE38B EQ PUSH2 0x54F JUMPI DUP1 PUSH4 0xFBDB3C74 EQ PUSH2 0x1EE JUMPI PUSH4 0xFEA55DAD EQ PUSH2 0x1CE JUMPI PUSH1 0x0 DUP1 REVERT JUMPDEST CALLVALUE PUSH2 0x1EB JUMPI DUP1 PUSH1 0x3 NOT CALLDATASIZE ADD SLT PUSH2 0x1EB JUMPI PUSH1 0x20 PUSH1 0x8 SLOAD PUSH1 0x40 MLOAD SWAP1 DUP2 MSTORE RETURN JUMPDEST DUP1 REVERT JUMPDEST POP CALLVALUE PUSH2 0x1EB JUMPI PUSH1 0x20 CALLDATASIZE PUSH1 0x3 NOT ADD SLT PUSH2 0x1EB JUMPI PUSH2 0x208 PUSH2 0x1F52 JUMP JUMPDEST PUSH1 0x1 PUSH1 0x1 PUSH1 0xA0 SHL SUB DUP2 AND DUP1 DUP4 MSTORE PUSH1 0x2 PUSH1 0x20 MSTORE PUSH1 0x40 DUP4 KECCAK256 SLOAD SWAP1 SWAP2 SWAP1 PUSH2 0x22E SWAP1 PUSH1 0xFF AND PUSH2 0x2612 JUMP JUMPDEST DUP2 DUP4 MSTORE PUSH1 0x6 PUSH1 0x20 MSTORE PUSH1 0xFF PUSH1 0x40 DUP5 KECCAK256 SLOAD AND ISZERO PUSH2 0x50A JUMPI DUP3 DUP4 PUSH1 0xC SLOAD SWAP1 JUMPDEST DUP2 DUP2 LT PUSH2 0x45F JUMPI JUMPDEST POP POP ISZERO PUSH2 0x406 JUMPI DUP2 DUP4 MSTORE PUSH1 0x6 PUSH1 0x20 MSTORE PUSH1 0x40 DUP4 KECCAK256 DUP1 SLOAD PUSH1 0xFF NOT AND SWAP1 SSTORE PUSH1 0x8 SLOAD PUSH1 0x1 PUSH1 0x40 SHL DUP2 LT ISZERO PUSH2 0x3F2 JUMPI SWAP1 PUSH2 0x292 DUP3 PUSH1 0x1 PUSH2 0x2B6 SWAP5 ADD PUSH1 0x8 SSTORE PUSH1 0x8 PUSH2 0x20E0 JUMP JUMPDEST DUP2 SLOAD PUSH1 0x1 PUSH1 0x1 PUSH1 0xA0 SHL SUB SWAP4 DUP5 AND PUSH1 0x3 SWAP3 SWAP1 SWAP3 SHL SWAP2 DUP3 SHL SWAP4 SWAP1 SWAP2 SHL NOT AND SWAP2 SWAP1 SWAP2 OR SWAP1 SSTORE JUMP JUMPDEST PUSH2 0x2C5 PUSH1 0x1 SLOAD PUSH1 0x8 SLOAD SWAP1 PUSH2 0x221B JUMP JUMPDEST PUSH1 0x1 DUP2 ADD DUP1 SWAP2 GT PUSH2 0x3DE JUMPI DUP2 DUP4 MSTORE PUSH1 0x9 PUSH1 0x20 MSTORE PUSH1 0x40 DUP4 KECCAK256 SSTORE DUP2 JUMPDEST PUSH1 0x5 SLOAD DUP1 DUP3 LT ISZERO PUSH2 0x3D7 JUMPI DUP3 PUSH2 0x2F4 DUP4 PUSH2 0x2079 JUMP JUMPDEST SWAP1 SLOAD PUSH1 0x3 SWAP2 SWAP1 SWAP2 SHL SHR PUSH1 0x1 PUSH1 0x1 PUSH1 0xA0 SHL SUB AND EQ PUSH2 0x314 JUMPI POP PUSH1 0x1 ADD PUSH2 0x2DF JUMP JUMPDEST PUSH1 0x0 NOT DUP2 ADD SWAP1 DUP2 GT PUSH2 0x3C3 JUMPI SWAP1 PUSH2 0x292 PUSH2 0x330 PUSH2 0x348 SWAP4 PUSH2 0x2079 JUMP JUMPDEST SWAP1 SLOAD PUSH1 0x3 SWAP2 SWAP1 SWAP2 SHL SHR PUSH1 0x1 PUSH1 0x1 PUSH1 0xA0 SHL SUB AND SWAP2 PUSH2 0x2079 JUMP JUMPDEST PUSH1 0x5 SLOAD DUP1 ISZERO PUSH2 0x3AF JUMPI PUSH1 0x0 NOT ADD PUSH2 0x35E DUP2 PUSH2 0x2079 JUMP JUMPDEST DUP2 SLOAD SWAP1 PUSH1 0x1 DUP1 PUSH1 0xA0 SHL SUB SWAP1 PUSH1 0x3 SHL SHL NOT AND SWAP1 SSTORE PUSH1 0x5 SSTORE JUMPDEST DUP1 DUP3 MSTORE PUSH1 0x7 PUSH1 0x20 MSTORE PUSH32 0x6D23A3AB6E6C4048B5879C5716BB756108E4E5D37158A83EA36761C83627DA57 PUSH1 0x20 PUSH1 0x40 DUP5 KECCAK256 SLOAD PUSH1 0x40 MLOAD SWAP1 DUP2 MSTORE LOG2 DUP1 RETURN JUMPDEST PUSH4 0x4E487B71 PUSH1 0xE0 SHL DUP4 MSTORE PUSH1 0x31 PUSH1 0x4 MSTORE PUSH1 0x24 DUP4 REVERT JUMPDEST PUSH4 0x4E487B71 PUSH1 0xE0 SHL DUP5 MSTORE PUSH1 0x11 PUSH1 0x4 MSTORE PUSH1 0x24 DUP5 REVERT JUMPDEST POP POP PUSH2 0x375 JUMP JUMPDEST PUSH4 0x4E487B71 PUSH1 0xE0 SHL DUP4 MSTORE PUSH1 0x11 PUSH1 0x4 MSTORE PUSH1 0x24 DUP4 REVERT JUMPDEST PUSH4 0x4E487B71 PUSH1 0xE0 SHL DUP5 MSTORE PUSH1 0x41 PUSH1 0x4 MSTORE PUSH1 0x24 DUP5 REVERT JUMPDEST PUSH1 0x40 MLOAD PUSH3 0x461BCD PUSH1 0xE5 SHL DUP2 MSTORE PUSH1 0x20 PUSH1 0x4 DUP3 ADD MSTORE PUSH1 0x2B PUSH1 0x24 DUP3 ADD MSTORE PUSH32 0x4F6E6C7920726567697374657265642067616D65732063616E20656C696D696E PUSH1 0x44 DUP3 ADD MSTORE PUSH11 0x61746520706C6179657273 PUSH1 0xA8 SHL PUSH1 0x64 DUP3 ADD MSTORE PUSH1 0x84 SWAP1 REVERT JUMPDEST PUSH2 0x468 DUP2 PUSH2 0x20AA JUMP JUMPDEST POP PUSH1 0x40 MLOAD DUP2 SLOAD DUP9 SWAP3 PUSH2 0x479 DUP3 PUSH2 0x20F8 JUMP JUMPDEST SWAP2 PUSH1 0x1 DUP2 AND SWAP1 DUP2 ISZERO PUSH2 0x4F3 JUMPI POP PUSH1 0x1 EQ PUSH2 0x4BF JUMPI JUMPDEST POP POP PUSH1 0xA DUP3 MSTORE PUSH1 0x20 DUP2 PUSH1 0x1 DUP1 PUSH1 0xA0 SHL SUB SWAP4 SUB ADD SWAP1 KECCAK256 SLOAD AND CALLER EQ PUSH2 0x4B3 JUMPI PUSH1 0x1 ADD PUSH2 0x24A JUMP JUMPDEST POP POP POP PUSH1 0x1 CODESIZE DUP1 PUSH2 0x252 JUMP JUMPDEST SWAP1 SWAP2 SWAP3 POP DUP9 MSTORE PUSH1 0x20 DUP9 KECCAK256 DUP9 SWAP1 JUMPDEST DUP3 DUP3 LT PUSH2 0x4DF JUMPI POP POP DUP2 ADD SWAP1 CODESIZE DUP1 PUSH2 0x48E JUMP JUMPDEST PUSH1 0x1 DUP2 PUSH1 0x20 SWAP3 SLOAD DUP5 DUP8 ADD MSTORE ADD SWAP2 ADD SWAP1 PUSH2 0x4CC JUMP JUMPDEST PUSH1 0xFF NOT AND DUP5 MSTORE POP POP DUP1 ISZERO ISZERO MUL DUP2 ADD SWAP2 POP CODESIZE DUP1 PUSH2 0x48E JUMP JUMPDEST PUSH1 0x40 MLOAD PUSH3 0x461BCD PUSH1 0xE5 SHL DUP2 MSTORE PUSH1 0x20 PUSH1 0x4 DUP3 ADD MSTORE PUSH1 0x19 PUSH1 0x24 DUP3 ADD MSTORE PUSH32 0x506C6179657220616C726561647920656C696D696E6174656400000000000000 PUSH1 0x44 DUP3 ADD MSTORE PUSH1 0x64 SWAP1 REVERT JUMPDEST POP CALLVALUE PUSH2 0x1EB JUMPI PUSH1 0x20 CALLDATASIZE PUSH1 0x3 NOT ADD SLT PUSH2 0x1EB JUMPI PUSH2 0x569 PUSH2 0x1F52 JUMP JUMPDEST PUSH2 0x571 PUSH2 0x2656 JUMP JUMPDEST PUSH1 0x1 PUSH1 0x1 PUSH1 0xA0 SHL SUB AND DUP1 ISZERO PUSH2 0x5C1 JUMPI DUP2 SLOAD PUSH1 0x1 PUSH1 0x1 PUSH1 0xA0 SHL SUB NOT DUP2 AND DUP3 OR DUP4 SSTORE PUSH1 0x1 PUSH1 0x1 PUSH1 0xA0 SHL SUB AND PUSH32 0x8BE0079C531659141344CD1FD0A4F28419497F9722A3DAAFE3B4186F6B6457E0 DUP4 DUP1 LOG3 DUP1 RETURN JUMPDEST PUSH4 0x1E4FBDF7 PUSH1 0xE0 SHL DUP3 MSTORE PUSH1 0x4 DUP3 SWAP1 MSTORE PUSH1 0x24 DUP3 REVERT JUMPDEST POP CALLVALUE PUSH2 0x1EB JUMPI PUSH1 0x20 CALLDATASIZE PUSH1 0x3 NOT ADD SLT PUSH2 0x1EB JUMPI PUSH1 0x20 SWAP1 PUSH1 0x40 SWAP1 PUSH1 0x1 PUSH1 0x1 PUSH1 0xA0 SHL SUB PUSH2 0x5FD PUSH2 0x1F52 JUMP JUMPDEST AND DUP2 MSTORE PUSH1 0x7 DUP4 MSTORE KECCAK256 SLOAD PUSH1 0x40 MLOAD SWAP1 DUP2 MSTORE RETURN JUMPDEST POP CALLVALUE PUSH2 0x1EB JUMPI PUSH1 0x20 CALLDATASIZE PUSH1 0x3 NOT ADD SLT PUSH2 0x1EB JUMPI DUP1 PUSH1 0x4 CALLDATALOAD PUSH1 0x1 PUSH1 0x1 PUSH1 0x40 SHL SUB DUP2 GT PUSH2 0x70A JUMPI PUSH2 0x642 PUSH1 0x20 SWAP2 CALLDATASIZE SWAP1 PUSH1 0x4 ADD PUSH2 0x1E7F JUMP JUMPDEST PUSH2 0x64A PUSH2 0x2656 JUMP JUMPDEST PUSH2 0x66A PUSH1 0xFF PUSH1 0x40 MLOAD DUP4 DUP6 DUP3 CALLDATACOPY DUP6 DUP2 DUP6 DUP2 ADD PUSH1 0xB DUP2 MSTORE SUB ADD SWAP1 KECCAK256 SLOAD AND PUSH2 0x226E JUMP JUMPDEST DUP1 PUSH1 0x40 MLOAD SWAP3 DUP4 CALLDATACOPY PUSH1 0xA SWAP1 DUP3 ADD SWAP1 DUP2 MSTORE DUP2 SWAP1 SUB DUP3 ADD SWAP1 KECCAK256 SLOAD PUSH1 0x40 MLOAD PUSH4 0xE81DE9F5 PUSH1 0xE0 SHL DUP2 MSTORE SWAP3 DUP4 SWAP2 PUSH1 0x4 SWAP2 DUP4 SWAP2 PUSH1 0x1 PUSH1 0x1 PUSH1 0xA0 SHL SUB AND GAS CALL SWAP1 DUP2 ISZERO PUSH2 0x6FF JUMPI DUP3 SWAP2 PUSH2 0x6BC JUMPI JUMPDEST PUSH1 0x20 DUP3 PUSH1 0x40 MLOAD SWAP1 ISZERO ISZERO DUP2 MSTORE RETURN JUMPDEST SWAP1 POP PUSH1 0x20 DUP2 RETURNDATASIZE PUSH1 0x20 GT PUSH2 0x6F7 JUMPI JUMPDEST DUP2 PUSH2 0x6D7 PUSH1 0x20 SWAP4 DUP4 PUSH2 0x1F68 JUMP JUMPDEST DUP2 ADD SUB SLT PUSH2 0x6F3 JUMPI MLOAD DUP1 ISZERO ISZERO DUP2 SUB PUSH2 0x6F3 JUMPI PUSH1 0x20 SWAP2 POP CODESIZE PUSH2 0x6AF JUMP JUMPDEST POP DUP1 REVERT JUMPDEST RETURNDATASIZE SWAP2 POP PUSH2 0x6CA JUMP JUMPDEST PUSH1 0x40 MLOAD RETURNDATASIZE DUP5 DUP3 RETURNDATACOPY RETURNDATASIZE SWAP1 REVERT JUMPDEST POP REVERT JUMPDEST POP CALLVALUE PUSH2 0x1EB JUMPI PUSH1 0x20 CALLDATASIZE PUSH1 0x3 NOT ADD SLT PUSH2 0x1EB JUMPI PUSH1 0x4 CALLDATALOAD SWAP1 PUSH1 0x8 SLOAD DUP3 LT ISZERO PUSH2 0x1EB JUMPI PUSH1 0x8 SLOAD DUP3 LT ISZERO PUSH2 0x77A JUMPI PUSH1 0x8 DUP2 MSTORE PUSH32 0xF3F7A9FE364FAAB93B216DA50A3214154F22A0A2B415B23A84C8169E8B636EE3 SWAP1 SWAP2 ADD SLOAD PUSH1 0x40 MLOAD PUSH1 0x3 SWAP3 SWAP1 SWAP3 SHL SHR PUSH1 0x1 PUSH1 0x1 PUSH1 0xA0 SHL SUB AND DUP2 MSTORE PUSH1 0x20 SWAP1 RETURN JUMPDEST PUSH4 0x4E487B71 PUSH1 0xE0 SHL DUP2 MSTORE PUSH1 0x32 PUSH1 0x4 MSTORE PUSH1 0x24 SWAP1 REVERT JUMPDEST POP CALLVALUE PUSH2 0x1EB JUMPI PUSH1 0x20 CALLDATASIZE PUSH1 0x3 NOT ADD SLT PUSH2 0x1EB JUMPI PUSH1 0x20 SWAP1 PUSH1 0xFF SWAP1 PUSH1 0x40 SWAP1 PUSH1 0x1 PUSH1 0x1 PUSH1 0xA0 SHL SUB PUSH2 0x7B9 PUSH2 0x1F52 JUMP JUMPDEST AND DUP2 MSTORE PUSH1 0x2 DUP5 MSTORE KECCAK256 SLOAD AND PUSH1 0x40 MLOAD SWAP1 ISZERO ISZERO DUP2 MSTORE RETURN JUMPDEST POP CALLVALUE PUSH2 0x1EB JUMPI PUSH1 0x20 CALLDATASIZE PUSH1 0x3 NOT ADD SLT PUSH2 0x1EB JUMPI PUSH1 0x4 CALLDATALOAD PUSH2 0x7EA PUSH2 0x2656 JUMP JUMPDEST DUP1 ISZERO PUSH2 0x822 JUMPI PUSH1 0x20 DUP2 PUSH32 0xFD29C2CD5DC77CF2BAD34E3B80EC2592A7C16D32869CCAEE99F95AF250DB954A SWAP3 PUSH1 0x4 SSTORE PUSH1 0x40 MLOAD SWAP1 DUP2 MSTORE LOG1 DUP1 RETURN JUMPDEST PUSH1 0x40 MLOAD PUSH3 0x461BCD PUSH1 0xE5 SHL DUP2 MSTORE PUSH1 0x20 PUSH1 0x4 DUP3 ADD MSTORE PUSH1 0x1A PUSH1 0x24 DUP3 ADD MSTORE PUSH32 0x466565206D7573742062652067726561746572207468616E2030000000000000 PUSH1 0x44 DUP3 ADD MSTORE PUSH1 0x64 SWAP1 REVERT JUMPDEST POP CALLVALUE PUSH2 0x1EB JUMPI DUP1 PUSH1 0x3 NOT CALLDATASIZE ADD SLT PUSH2 0x1EB JUMPI PUSH1 0x20 PUSH1 0x1 SLOAD PUSH1 0x40 MLOAD SWAP1 DUP2 MSTORE RETURN JUMPDEST POP CALLVALUE PUSH2 0x1EB JUMPI PUSH1 0x20 CALLDATASIZE PUSH1 0x3 NOT ADD SLT PUSH2 0x1EB JUMPI PUSH1 0x20 SWAP1 PUSH1 0x40 SWAP1 PUSH1 0x1 PUSH1 0x1 PUSH1 0xA0 SHL SUB PUSH2 0x8AD PUSH2 0x1F52 JUMP JUMPDEST AND DUP2 MSTORE PUSH1 0x9 DUP4 MSTORE KECCAK256 SLOAD PUSH1 0x40 MLOAD SWAP1 DUP2 MSTORE RETURN JUMPDEST POP CALLVALUE PUSH2 0x1EB JUMPI DUP1 PUSH1 0x3 NOT CALLDATASIZE ADD SLT PUSH2 0x1EB JUMPI PUSH1 0xC SLOAD PUSH2 0x8DA PUSH2 0x22C7 JUMP JUMPDEST SWAP1 PUSH2 0x8E4 DUP2 PUSH2 0x22B0 JUMP JUMPDEST SWAP1 PUSH2 0x8F2 PUSH1 0x40 MLOAD SWAP3 DUP4 PUSH2 0x1F68 JUMP JUMPDEST DUP1 DUP3 MSTORE PUSH1 0x1F NOT PUSH2 0x901 DUP3 PUSH2 0x22B0 JUMP JUMPDEST ADD DUP5 JUMPDEST DUP2 DUP2 LT PUSH2 0xB8D JUMPI POP POP DUP4 JUMPDEST DUP2 DUP2 LT PUSH2 0x9DA JUMPI POP POP PUSH2 0x92D PUSH1 0x40 MLOAD SWAP3 PUSH1 0x40 DUP5 MSTORE PUSH1 0x40 DUP5 ADD SWAP1 PUSH2 0x1EF9 JUMP JUMPDEST DUP3 DUP2 SUB PUSH1 0x20 DUP5 ADD MSTORE DUP2 MLOAD SWAP1 DUP2 DUP2 MSTORE PUSH1 0x20 DUP2 ADD PUSH1 0x20 DUP1 DUP5 PUSH1 0x5 SHL DUP5 ADD ADD SWAP5 ADD SWAP6 DUP1 SWAP3 JUMPDEST DUP5 DUP5 LT PUSH2 0x95C JUMPI DUP7 DUP7 SUB DUP8 RETURN JUMPDEST SWAP1 SWAP2 SWAP3 SWAP4 SWAP5 PUSH1 0x1F NOT DUP3 DUP3 SUB ADD DUP5 MSTORE DUP8 MLOAD SWAP1 PUSH1 0x20 DUP1 DUP4 MLOAD SWAP3 DUP4 DUP2 MSTORE ADD SWAP3 ADD SWAP1 DUP5 SWAP1 JUMPDEST DUP1 DUP3 LT PUSH2 0x99C JUMPI POP POP POP PUSH1 0x20 SWAP8 DUP9 ADD SWAP8 SWAP1 SWAP6 SWAP5 PUSH1 0x1 ADD SWAP4 ADD SWAP2 SWAP1 PUSH2 0x94F JUMP JUMPDEST SWAP1 SWAP2 SWAP3 PUSH1 0x20 PUSH1 0x80 PUSH1 0x1 SWAP3 PUSH1 0x60 DUP8 MLOAD DUP1 MLOAD DUP4 MSTORE PUSH2 0x9BE DUP6 DUP3 ADD MLOAD DUP7 DUP6 ADD SWAP1 PUSH2 0x2022 JUMP JUMPDEST PUSH1 0x40 DUP2 ADD MLOAD PUSH1 0x40 DUP5 ADD MSTORE ADD MLOAD PUSH1 0x60 DUP3 ADD MSTORE ADD SWAP5 ADD SWAP3 ADD SWAP1 PUSH2 0x97D JUMP JUMPDEST PUSH2 0xA07 PUSH1 0x20 PUSH2 0x9F4 PUSH2 0x9EE DUP5 SWAP9 SWAP7 SWAP9 PUSH2 0x20AA JUMP JUMPDEST POP PUSH2 0x2132 JUMP JUMPDEST DUP2 PUSH1 0x40 MLOAD SWAP4 DUP3 DUP6 DUP1 SWAP5 MLOAD SWAP4 DUP5 SWAP3 ADD PUSH2 0x1EB1 JUMP JUMPDEST PUSH1 0xA SWAP1 DUP3 ADD SWAP1 DUP2 MSTORE SUB ADD SWAP1 KECCAK256 SLOAD PUSH1 0x1 PUSH1 0x1 PUSH1 0xA0 SHL SUB AND SWAP1 DUP4 DUP3 PUSH2 0xA33 JUMPI JUMPDEST POP PUSH1 0x1 SWAP2 POP ADD SWAP4 SWAP2 SWAP4 PUSH2 0x90F JUMP JUMPDEST PUSH1 0x40 MLOAD PUSH4 0xC04C5947 PUSH1 0xE0 SHL DUP2 MSTORE SWAP3 DUP4 SWAP1 PUSH1 0x4 SWAP1 DUP3 SWAP1 GAS STATICCALL DUP1 ISZERO PUSH2 0xB82 JUMPI DUP5 SWAP1 PUSH2 0xA77 JUMPI JUMPDEST PUSH1 0x1 SWAP3 POP PUSH2 0xA65 DUP3 DUP9 PUSH2 0x236E JUMP JUMPDEST MSTORE PUSH2 0xA70 DUP2 DUP8 PUSH2 0x236E JUMP JUMPDEST POP DUP4 PUSH2 0xA25 JUMP JUMPDEST POP SWAP1 RETURNDATASIZE DUP1 DUP6 DUP4 RETURNDATACOPY PUSH2 0xA88 DUP2 DUP4 PUSH2 0x1F68 JUMP JUMPDEST DUP2 ADD SWAP1 PUSH1 0x20 DUP2 DUP4 SUB SLT PUSH2 0xB7A JUMPI DUP1 MLOAD SWAP1 PUSH1 0x1 PUSH1 0x1 PUSH1 0x40 SHL SUB DUP3 GT PUSH2 0xB7E JUMPI ADD DUP2 PUSH1 0x1F DUP3 ADD SLT ISZERO PUSH2 0xB7A JUMPI DUP1 MLOAD SWAP1 PUSH2 0xABE DUP3 PUSH2 0x22B0 JUMP JUMPDEST SWAP3 PUSH2 0xACC PUSH1 0x40 MLOAD SWAP5 DUP6 PUSH2 0x1F68 JUMP JUMPDEST DUP3 DUP5 MSTORE PUSH1 0x20 DUP1 DUP6 ADD SWAP4 PUSH1 0x7 SHL DUP4 ADD ADD SWAP2 DUP2 DUP4 GT PUSH2 0xB76 JUMPI PUSH1 0x20 ADD SWAP3 JUMPDEST DUP3 DUP5 LT PUSH2 0xAFC JUMPI POP POP POP POP SWAP1 PUSH1 0x1 SWAP2 PUSH2 0xA57 JUMP JUMPDEST PUSH1 0x80 DUP5 DUP4 SUB SLT PUSH2 0xB76 JUMPI PUSH1 0x40 MLOAD PUSH1 0x80 DUP2 ADD DUP2 DUP2 LT PUSH1 0x1 PUSH1 0x1 PUSH1 0x40 SHL SUB DUP3 GT OR PUSH2 0xB62 JUMPI PUSH1 0x40 MSTORE DUP5 MLOAD DUP2 MSTORE PUSH1 0x20 DUP6 ADD MLOAD PUSH1 0x5 DUP2 LT ISZERO PUSH2 0xB5E JUMPI SWAP2 DUP2 PUSH1 0x80 SWAP4 PUSH1 0x20 DUP1 SWAP5 ADD MSTORE PUSH1 0x40 DUP8 ADD MLOAD PUSH1 0x40 DUP3 ADD MSTORE PUSH1 0x60 DUP8 ADD MLOAD PUSH1 0x60 DUP3 ADD MSTORE DUP2 MSTORE ADD SWAP4 ADD SWAP3 PUSH2 0xAE8 JUMP JUMPDEST DUP10 DUP1 REVERT JUMPDEST PUSH4 0x4E487B71 PUSH1 0xE0 SHL DUP11 MSTORE PUSH1 0x41 PUSH1 0x4 MSTORE PUSH1 0x24 DUP11 REVERT JUMPDEST DUP8 DUP1 REVERT JUMPDEST DUP5 DUP1 REVERT JUMPDEST DUP6 DUP1 REVERT JUMPDEST PUSH1 0x40 MLOAD RETURNDATASIZE DUP7 DUP3 RETURNDATACOPY RETURNDATASIZE SWAP1 REVERT JUMPDEST PUSH1 0x60 PUSH1 0x20 DUP3 DUP7 ADD DUP2 ADD SWAP2 SWAP1 SWAP2 MSTORE ADD PUSH2 0x904 JUMP JUMPDEST POP CALLVALUE PUSH2 0x1EB JUMPI DUP1 PUSH1 0x3 NOT CALLDATASIZE ADD SLT PUSH2 0x1EB JUMPI PUSH2 0xBB9 PUSH2 0x2656 JUMP JUMPDEST PUSH1 0xFF PUSH1 0x3 SLOAD AND ISZERO DUP1 ISZERO PUSH2 0xE20 JUMPI JUMPDEST ISZERO PUSH2 0xDE4 JUMPI DUP1 JUMPDEST PUSH1 0x1 SLOAD DUP2 LT ISZERO PUSH2 0xC7E JUMPI DUP1 PUSH2 0xBE4 PUSH1 0x1 SWAP3 PUSH2 0x20C5 JUMP JUMPDEST DUP4 DUP1 PUSH1 0xA0 SHL SUB SWAP2 SLOAD SWAP1 PUSH1 0x3 SHL SHR AND DUP4 DUP1 DUP1 DUP1 PUSH1 0x4 SLOAD DUP6 GAS CALL PUSH2 0xC04 PUSH2 0x223E JUMP JUMPDEST POP PUSH2 0xC4B JUMPI DUP1 PUSH32 0xAF73B0B217208B61BE286BBC37095BCE7EB8B9CCF617244C2F0F154E8E04E3FF PUSH1 0x20 PUSH1 0x4 SLOAD PUSH1 0x40 MLOAD SWAP1 DUP2 MSTORE LOG2 JUMPDEST DUP4 MSTORE PUSH1 0x9 PUSH1 0x20 MSTORE DUP3 PUSH1 0x40 DUP2 KECCAK256 SSTORE ADD PUSH2 0xBCE JUMP JUMPDEST DUP1 PUSH32 0x48D31F1C958CD44F1F83A52AE2DFAF61E88A1B82C07A6D5711A4ABEF60B6531E PUSH1 0x20 PUSH1 0x4 SLOAD PUSH1 0x40 MLOAD SWAP1 DUP2 MSTORE LOG2 PUSH2 0xC38 JUMP JUMPDEST POP PUSH1 0x1 SLOAD DUP2 PUSH1 0x1 SSTORE DUP1 PUSH2 0xDAC JUMPI JUMPDEST POP PUSH1 0x5 SLOAD DUP2 PUSH1 0x5 SSTORE DUP1 PUSH2 0xD74 JUMPI JUMPDEST POP PUSH1 0x8 SLOAD DUP2 PUSH1 0x8 SSTORE DUP1 PUSH2 0xD3C JUMPI JUMPDEST POP PUSH1 0xFF NOT PUSH1 0x3 SLOAD AND PUSH1 0x3 SSTORE DUP1 JUMPDEST PUSH1 0x1 SLOAD DUP2 LT ISZERO PUSH2 0xD14 JUMPI DUP1 PUSH2 0xCCB PUSH1 0x1 SWAP3 PUSH2 0x20C5 JUMP JUMPDEST DUP4 DUP1 PUSH1 0xA0 SHL SUB SWAP2 SLOAD SWAP1 PUSH1 0x3 SHL SHR AND DUP1 DUP5 MSTORE PUSH1 0x2 PUSH1 0x20 MSTORE PUSH1 0x40 DUP5 KECCAK256 PUSH1 0xFF NOT DUP2 SLOAD AND SWAP1 SSTORE DUP1 DUP5 MSTORE PUSH1 0x6 PUSH1 0x20 MSTORE PUSH1 0x40 DUP5 KECCAK256 PUSH1 0xFF NOT DUP2 SLOAD AND SWAP1 SSTORE DUP4 MSTORE PUSH1 0x7 PUSH1 0x20 MSTORE DUP3 PUSH1 0x40 DUP2 KECCAK256 SSTORE ADD PUSH2 0xCB5 JUMP JUMPDEST POP PUSH32 0xC6976B6410888B44C765590C8368EB4A60E0431D4AD683C8A53EA85A8479F22E DUP2 DUP1 LOG1 DUP1 RETURN JUMPDEST PUSH1 0x8 DUP3 MSTORE PUSH2 0xD6E SWAP1 PUSH32 0xF3F7A9FE364FAAB93B216DA50A3214154F22A0A2B415B23A84C8169E8B636EE3 SWAP1 DUP2 ADD SWAP1 PUSH2 0x23A3 JUMP JUMPDEST CODESIZE PUSH2 0xCA8 JUMP JUMPDEST PUSH1 0x5 DUP3 MSTORE PUSH2 0xDA6 SWAP1 PUSH32 0x36B6384B5ECA791C62761152D0C79BB0604C104A5FB6F4EB0703F3154BB3DB0 SWAP1 DUP2 ADD SWAP1 PUSH2 0x23A3 JUMP JUMPDEST CODESIZE PUSH2 0xC9A JUMP JUMPDEST PUSH1 0x1 DUP3 MSTORE PUSH2 0xDDE SWAP1 PUSH32 0xB10E2D527612073B26EECDFD717E6A320CF44B4AFAC2B0732D9FCBE2B7FA0CF6 SWAP1 DUP2 ADD SWAP1 PUSH2 0x23A3 JUMP JUMPDEST CODESIZE PUSH2 0xC8C JUMP JUMPDEST PUSH1 0x40 MLOAD PUSH3 0x461BCD PUSH1 0xE5 SHL DUP2 MSTORE PUSH1 0x20 PUSH1 0x4 DUP3 ADD MSTORE PUSH1 0x14 PUSH1 0x24 DUP3 ADD MSTORE PUSH20 0x139BC81C1B185E595C9CC81D1BC81C99599D5B99 PUSH1 0x62 SHL PUSH1 0x44 DUP3 ADD MSTORE PUSH1 0x64 SWAP1 REVERT JUMPDEST POP PUSH1 0x1 SLOAD ISZERO ISZERO PUSH2 0xBC7 JUMP JUMPDEST POP CALLVALUE PUSH2 0x1EB JUMPI PUSH1 0x20 CALLDATASIZE PUSH1 0x3 NOT ADD SLT PUSH2 0x1EB JUMPI DUP1 PUSH1 0x4 CALLDATALOAD PUSH1 0x1 PUSH1 0x1 PUSH1 0x40 SHL SUB DUP2 GT PUSH2 0x70A JUMPI PUSH2 0xE5D SWAP1 CALLDATASIZE SWAP1 PUSH1 0x4 ADD PUSH2 0x1E7F JUMP JUMPDEST PUSH2 0xE65 PUSH2 0x2656 JUMP JUMPDEST PUSH2 0xE86 PUSH1 0xFF PUSH1 0x40 MLOAD DUP4 DUP6 DUP3 CALLDATACOPY PUSH1 0x20 DUP2 DUP6 DUP2 ADD PUSH1 0xB DUP2 MSTORE SUB ADD SWAP1 KECCAK256 SLOAD AND PUSH2 0x226E JUMP JUMPDEST DUP1 PUSH1 0x40 MLOAD SWAP3 DUP4 CALLDATACOPY PUSH1 0xA SWAP1 DUP3 ADD SWAP1 DUP2 MSTORE DUP2 SWAP1 SUB PUSH1 0x20 ADD SWAP1 KECCAK256 SLOAD PUSH1 0x1 PUSH1 0x1 PUSH1 0xA0 SHL SUB AND DUP1 EXTCODESIZE ISZERO PUSH2 0x70A JUMPI DUP2 DUP1 SWAP2 PUSH1 0x4 PUSH1 0x40 MLOAD DUP1 SWAP5 DUP2 SWAP4 PUSH4 0x6879D10F PUSH1 0xE1 SHL DUP4 MSTORE GAS CALL DUP1 ISZERO PUSH2 0x6FF JUMPI PUSH2 0xED3 JUMPI POP RETURN JUMPDEST DUP2 PUSH2 0xEDD SWAP2 PUSH2 0x1F68 JUMP JUMPDEST PUSH2 0x1EB JUMPI DUP1 RETURN JUMPDEST POP CALLVALUE PUSH2 0x1EB JUMPI PUSH1 0x20 CALLDATASIZE PUSH1 0x3 NOT ADD SLT PUSH2 0x1EB JUMPI PUSH1 0x4 CALLDATALOAD SWAP1 PUSH1 0x5 SLOAD DUP3 LT ISZERO PUSH2 0x1EB JUMPI PUSH1 0x20 PUSH2 0xF0F DUP4 PUSH2 0x2079 JUMP JUMPDEST SWAP1 SLOAD PUSH1 0x40 MLOAD PUSH1 0x3 SWAP3 SWAP1 SWAP3 SHL SHR PUSH1 0x1 PUSH1 0x1 PUSH1 0xA0 SHL SUB AND DUP2 MSTORE RETURN JUMPDEST POP CALLVALUE PUSH2 0x1EB JUMPI PUSH1 0x20 CALLDATASIZE PUSH1 0x3 NOT ADD SLT PUSH2 0x1EB JUMPI PUSH1 0x20 SWAP1 PUSH1 0x40 SWAP1 PUSH1 0x1 PUSH1 0x1 PUSH1 0xA0 SHL SUB PUSH2 0xF50 PUSH2 0x1F52 JUMP JUMPDEST AND DUP1 DUP3 MSTORE PUSH1 0x2 DUP5 MSTORE PUSH2 0xF67 PUSH1 0xFF DUP5 DUP5 KECCAK256 SLOAD AND PUSH2 0x2612 JUMP JUMPDEST DUP2 MSTORE PUSH1 0x7 DUP4 MSTORE KECCAK256 SLOAD PUSH1 0x40 MLOAD SWAP1 DUP2 MSTORE RETURN JUMPDEST POP CALLVALUE PUSH2 0x1EB JUMPI DUP1 PUSH1 0x3 NOT CALLDATASIZE ADD SLT PUSH2 0x1EB JUMPI PUSH1 0x20 PUSH1 0xFF PUSH1 0x3 SLOAD AND PUSH1 0x40 MLOAD SWAP1 ISZERO ISZERO DUP2 MSTORE RETURN JUMPDEST POP CALLVALUE PUSH2 0x1EB JUMPI PUSH1 0x20 CALLDATASIZE PUSH1 0x3 NOT ADD SLT PUSH2 0x1EB JUMPI PUSH1 0x4 CALLDATALOAD PUSH1 0xC SLOAD DUP2 LT ISZERO PUSH2 0x6F3 JUMPI PUSH2 0xFC2 SWAP1 PUSH2 0x20AA JUMP JUMPDEST SWAP2 SWAP1 SWAP2 PUSH2 0xFED JUMPI PUSH2 0xFE9 PUSH2 0xFD5 DUP4 PUSH2 0x2132 JUMP JUMPDEST PUSH1 0x40 MLOAD SWAP2 DUP3 SWAP2 PUSH1 0x20 DUP4 MSTORE PUSH1 0x20 DUP4 ADD SWAP1 PUSH2 0x1ED4 JUMP JUMPDEST SUB SWAP1 RETURN JUMPDEST PUSH4 0x4E487B71 PUSH1 0xE0 SHL DUP2 MSTORE PUSH1 0x4 DUP2 SWAP1 MSTORE PUSH1 0x24 SWAP1 REVERT JUMPDEST POP CALLVALUE PUSH2 0x1EB JUMPI DUP1 PUSH1 0x3 NOT CALLDATASIZE ADD SLT PUSH2 0x1EB JUMPI SLOAD PUSH1 0x40 MLOAD PUSH1 0x1 PUSH1 0x1 PUSH1 0xA0 SHL SUB SWAP1 SWAP2 AND DUP2 MSTORE PUSH1 0x20 SWAP1 RETURN JUMPDEST POP CALLVALUE PUSH2 0x1EB JUMPI PUSH1 0x20 CALLDATASIZE PUSH1 0x3 NOT ADD SLT PUSH2 0x1EB JUMPI PUSH1 0x4 CALLDATALOAD SWAP1 PUSH1 0x1 SLOAD DUP3 LT ISZERO PUSH2 0x1EB JUMPI PUSH1 0x20 PUSH2 0xF0F DUP4 PUSH2 0x20C5 JUMP JUMPDEST POP CALLVALUE PUSH2 0x1EB JUMPI DUP1 PUSH1 0x3 NOT CALLDATASIZE ADD SLT PUSH2 0x1EB JUMPI PUSH2 0x106C PUSH2 0x2656 JUMP JUMPDEST PUSH1 0x1 PUSH1 0xFF NOT PUSH1 0x3 SLOAD AND OR PUSH1 0x3 SSTORE PUSH32 0x2FC209F3DF2FB10C5FCB1620D3E5F067B9EF99813CA8FA6B24DE0418BDAC5420 DUP2 DUP1 LOG1 DUP1 RETURN JUMPDEST POP CALLVALUE PUSH2 0x1EB JUMPI DUP1 PUSH1 0x3 NOT CALLDATASIZE ADD SLT PUSH2 0x1EB JUMPI PUSH2 0x10B9 PUSH2 0x2656 JUMP JUMPDEST DUP1 SLOAD PUSH1 0x1 PUSH1 0x1 PUSH1 0xA0 SHL SUB NOT DUP2 AND DUP3 SSTORE DUP2 SWAP1 PUSH1 0x1 PUSH1 0x1 PUSH1 0xA0 SHL SUB AND PUSH32 0x8BE0079C531659141344CD1FD0A4F28419497F9722A3DAAFE3B4186F6B6457E0 DUP3 DUP1 LOG3 DUP1 RETURN JUMPDEST POP CALLVALUE PUSH2 0x1EB JUMPI PUSH1 0x20 CALLDATASIZE PUSH1 0x3 NOT ADD SLT PUSH2 0x1EB JUMPI PUSH1 0x20 SWAP1 PUSH1 0x40 SWAP1 PUSH1 0x1 PUSH1 0x1 PUSH1 0xA0 SHL SUB PUSH2 0x1122 PUSH2 0x1F52 JUMP JUMPDEST AND DUP1 DUP3 MSTORE PUSH1 0x2 DUP5 MSTORE PUSH2 0x1139 PUSH1 0xFF DUP5 DUP5 KECCAK256 SLOAD AND PUSH2 0x2612 JUMP JUMPDEST DUP2 MSTORE PUSH1 0x9 DUP4 MSTORE KECCAK256 SLOAD PUSH1 0x40 MLOAD SWAP1 DUP2 MSTORE RETURN JUMPDEST POP CALLVALUE PUSH2 0x1EB JUMPI DUP1 PUSH1 0x3 NOT CALLDATASIZE ADD SLT PUSH2 0x1EB JUMPI PUSH1 0x5 SLOAD SWAP1 PUSH2 0x1167 DUP3 PUSH2 0x233C JUMP JUMPDEST SWAP2 PUSH1 0x40 MLOAD SWAP2 PUSH2 0x1180 DUP4 PUSH2 0x1179 DUP2 PUSH2 0x21D6 JUMP JUMPDEST SUB DUP5 PUSH2 0x1F68 JUMP JUMPDEST DUP1 JUMPDEST DUP3 DUP2 LT PUSH2 0x11B3 JUMPI PUSH2 0x11A5 DUP5 PUSH2 0xFE9 DUP8 PUSH1 0x40 MLOAD SWAP4 DUP5 SWAP4 PUSH1 0x40 DUP6 MSTORE PUSH1 0x40 DUP6 ADD SWAP1 PUSH2 0x1E42 JUMP JUMPDEST SWAP1 DUP4 DUP3 SUB PUSH1 0x20 DUP6 ADD MSTORE PUSH2 0x2045 JUMP JUMPDEST PUSH1 0x1 SWAP1 PUSH1 0x1 PUSH1 0x1 PUSH1 0xA0 SHL SUB PUSH2 0x11C8 DUP3 DUP8 PUSH2 0x236E JUMP JUMPDEST MLOAD AND DUP4 MSTORE PUSH1 0x7 PUSH1 0x20 MSTORE PUSH1 0x40 DUP4 KECCAK256 SLOAD PUSH2 0x11E0 DUP3 DUP9 PUSH2 0x236E JUMP JUMPDEST MSTORE ADD PUSH2 0x1182 JUMP JUMPDEST POP CALLVALUE PUSH2 0x1EB JUMPI PUSH1 0x20 PUSH2 0x11F8 CALLDATASIZE PUSH2 0x1FBA JUMP JUMPDEST DUP2 PUSH2 0x120C PUSH1 0x40 MLOAD SWAP3 DUP4 DUP2 MLOAD SWAP4 DUP5 SWAP3 ADD PUSH2 0x1EB1 JUMP JUMPDEST PUSH1 0xA SWAP1 DUP3 ADD SWAP1 DUP2 MSTORE DUP2 SWAP1 SUB DUP3 ADD SWAP1 KECCAK256 SLOAD PUSH1 0x40 MLOAD PUSH1 0x1 PUSH1 0x1 PUSH1 0xA0 SHL SUB SWAP1 SWAP2 AND DUP2 MSTORE RETURN JUMPDEST POP CALLVALUE PUSH2 0x1EB JUMPI DUP1 PUSH1 0x3 NOT CALLDATASIZE ADD SLT PUSH2 0x1EB JUMPI PUSH1 0x40 MLOAD PUSH1 0x8 DUP1 SLOAD DUP1 DUP4 MSTORE SWAP1 DUP4 MSTORE SWAP1 SWAP2 PUSH1 0x20 DUP4 ADD SWAP2 PUSH32 0xF3F7A9FE364FAAB93B216DA50A3214154F22A0A2B415B23A84C8169E8B636EE3 SWAP2 JUMPDEST DUP2 DUP2 LT PUSH2 0x12A1 JUMPI PUSH2 0xFE9 DUP6 PUSH2 0x128D DUP2 DUP8 SUB DUP3 PUSH2 0x1F68 JUMP JUMPDEST PUSH1 0x40 MLOAD SWAP2 DUP3 SWAP2 PUSH1 0x20 DUP4 MSTORE PUSH1 0x20 DUP4 ADD SWAP1 PUSH2 0x1E42 JUMP JUMPDEST DUP3 SLOAD PUSH1 0x1 PUSH1 0x1 PUSH1 0xA0 SHL SUB AND DUP5 MSTORE PUSH1 0x20 SWAP1 SWAP4 ADD SWAP3 PUSH1 0x1 SWAP3 DUP4 ADD SWAP3 ADD PUSH2 0x1276 JUMP JUMPDEST POP CALLVALUE PUSH2 0x1EB JUMPI PUSH1 0x20 CALLDATASIZE PUSH1 0x3 NOT ADD SLT PUSH2 0x1EB JUMPI PUSH2 0x1300 PUSH2 0x1317 PUSH2 0x12E8 PUSH2 0x12E3 PUSH2 0x1F52 JUMP JUMPDEST PUSH2 0x23BA JUMP JUMPDEST SWAP3 SWAP4 SWAP5 SWAP2 PUSH1 0x40 MLOAD SWAP7 DUP8 SWAP7 PUSH1 0xA0 DUP9 MSTORE PUSH1 0xA0 DUP9 ADD SWAP1 PUSH2 0x1ED4 JUMP JUMPDEST SWAP5 PUSH1 0x20 DUP8 ADD MSTORE ISZERO ISZERO PUSH1 0x40 DUP7 ADD MSTORE PUSH1 0x60 DUP6 ADD SWAP1 PUSH2 0x2022 JUMP JUMPDEST PUSH1 0x80 DUP4 ADD MSTORE SUB SWAP1 RETURN JUMPDEST POP CALLVALUE PUSH2 0x1EB JUMPI PUSH1 0x20 PUSH1 0xFF PUSH2 0x1337 DUP3 PUSH2 0x9F4 CALLDATASIZE PUSH2 0x1FBA JUMP JUMPDEST DUP2 ADD PUSH1 0xB DUP2 MSTORE SUB ADD SWAP1 KECCAK256 SLOAD AND PUSH1 0x40 MLOAD SWAP1 ISZERO ISZERO DUP2 MSTORE RETURN JUMPDEST POP CALLVALUE PUSH2 0x1EB JUMPI PUSH1 0x20 CALLDATASIZE PUSH1 0x3 NOT ADD SLT PUSH2 0x1EB JUMPI PUSH1 0x20 SWAP1 PUSH1 0xFF SWAP1 PUSH1 0x40 SWAP1 PUSH1 0x1 PUSH1 0x1 PUSH1 0xA0 SHL SUB PUSH2 0x1378 PUSH2 0x1F52 JUMP JUMPDEST AND DUP2 MSTORE PUSH1 0x6 DUP5 MSTORE KECCAK256 SLOAD AND PUSH1 0x40 MLOAD SWAP1 ISZERO ISZERO DUP2 MSTORE RETURN JUMPDEST POP CALLVALUE PUSH2 0x1EB JUMPI DUP1 PUSH1 0x3 NOT CALLDATASIZE ADD SLT PUSH2 0x1EB JUMPI PUSH1 0x20 PUSH1 0x5 SLOAD PUSH1 0x40 MLOAD SWAP1 DUP2 MSTORE RETURN JUMPDEST POP CALLVALUE PUSH2 0x1EB JUMPI PUSH1 0x40 CALLDATASIZE PUSH1 0x3 NOT ADD SLT PUSH2 0x1EB JUMPI PUSH1 0x4 CALLDATALOAD PUSH1 0x1 PUSH1 0x1 PUSH1 0x40 SHL SUB DUP2 GT PUSH2 0x6F3 JUMPI PUSH2 0x13DB SWAP1 CALLDATASIZE SWAP1 PUSH1 0x4 ADD PUSH2 0x1E7F JUMP JUMPDEST PUSH1 0x24 CALLDATALOAD PUSH1 0x1 PUSH1 0x1 PUSH1 0xA0 SHL SUB DUP2 AND SWAP4 SWAP3 SWAP2 SWAP1 DUP5 SWAP1 SUB PUSH2 0x16C9 JUMPI PUSH2 0x13FB PUSH2 0x2656 JUMP JUMPDEST DUP4 ISZERO PUSH2 0x168D JUMPI PUSH1 0xFF PUSH1 0x40 MLOAD DUP3 DUP5 DUP3 CALLDATACOPY PUSH1 0x20 DUP2 DUP5 DUP2 ADD PUSH1 0xB DUP2 MSTORE SUB ADD SWAP1 KECCAK256 SLOAD AND PUSH2 0x1648 JUMPI DUP1 ISZERO PUSH2 0x1603 JUMPI PUSH1 0x40 MLOAD DUP2 DUP4 DUP3 CALLDATACOPY PUSH1 0x20 DUP2 DUP4 DUP2 ADD PUSH1 0xA DUP2 MSTORE SUB ADD SWAP1 KECCAK256 DUP5 PUSH12 0xFFFFFFFFFFFFFFFFFFFFFFFF PUSH1 0xA0 SHL DUP3 SLOAD AND OR SWAP1 SSTORE PUSH1 0x40 MLOAD DUP2 DUP4 DUP3 CALLDATACOPY PUSH1 0x20 DUP2 DUP4 DUP2 ADD PUSH1 0xB DUP2 MSTORE SUB ADD SWAP1 KECCAK256 PUSH1 0x1 PUSH1 0xFF NOT DUP3 SLOAD AND OR SWAP1 SSTORE PUSH1 0xC SLOAD PUSH1 0x1 PUSH1 0x40 SHL DUP2 LT ISZERO PUSH2 0x3F2 JUMPI DUP1 PUSH1 0x1 PUSH2 0x148F SWAP3 ADD PUSH1 0xC SSTORE PUSH2 0x20AA JUMP JUMPDEST SWAP5 SWAP1 SWAP5 PUSH2 0x15EF JUMPI PUSH1 0x1 PUSH1 0x1 PUSH1 0x40 SHL SUB DUP3 GT PUSH2 0x3F2 JUMPI PUSH2 0x14AE DUP6 SLOAD PUSH2 0x20F8 JUMP JUMPDEST PUSH1 0x1F DUP2 GT PUSH2 0x15B4 JUMPI JUMPDEST POP DUP4 SWAP5 PUSH1 0x1F DUP4 GT PUSH1 0x1 EQ PUSH2 0x1532 JUMPI DUP3 DUP6 SWAP7 PUSH32 0xF7757A7272E50875150E6020AFE9040C7C2485F28D0513DAD0F5170AF4F20D43 SWAP7 SWAP2 PUSH2 0x1527 JUMPI JUMPDEST POP DUP4 PUSH1 0x1 SHL SWAP1 PUSH1 0x0 NOT DUP6 PUSH1 0x3 SHL SHR NOT AND OR SWAP1 SSTORE JUMPDEST PUSH2 0x151B PUSH1 0x40 MLOAD SWAP4 DUP5 SWAP4 PUSH1 0x40 DUP6 MSTORE PUSH1 0x40 DUP6 ADD SWAP2 PUSH2 0x2382 JUMP JUMPDEST SWAP1 PUSH1 0x20 DUP4 ADD MSTORE SUB SWAP1 LOG1 DUP1 RETURN JUMPDEST SWAP1 POP DUP5 ADD CALLDATALOAD CODESIZE PUSH2 0x14F0 JUMP JUMPDEST DUP1 DUP6 MSTORE PUSH1 0x20 DUP6 KECCAK256 PUSH1 0x1F NOT DUP5 AND SWAP7 DUP7 JUMPDEST DUP9 DUP2 LT PUSH2 0x159C JUMPI POP DUP5 PUSH32 0xF7757A7272E50875150E6020AFE9040C7C2485F28D0513DAD0F5170AF4F20D43 SWAP8 SWAP9 LT PUSH2 0x1582 JUMPI JUMPDEST POP POP PUSH1 0x1 DUP4 DUP2 SHL ADD SWAP1 SSTORE PUSH2 0x1504 JUMP JUMPDEST DUP6 ADD CALLDATALOAD PUSH1 0x0 NOT PUSH1 0x3 DUP7 SWAP1 SHL PUSH1 0xF8 AND SHR NOT AND SWAP1 SSTORE CODESIZE DUP1 PUSH2 0x1573 JUMP JUMPDEST SWAP1 SWAP2 PUSH1 0x20 PUSH1 0x1 DUP2 SWAP3 DUP6 DUP11 ADD CALLDATALOAD DUP2 SSTORE ADD SWAP4 ADD SWAP2 ADD PUSH2 0x1541 JUMP JUMPDEST PUSH2 0x15DF SWAP1 DUP7 DUP7 MSTORE PUSH1 0x20 DUP7 KECCAK256 PUSH1 0x1F DUP6 ADD PUSH1 0x5 SHR DUP2 ADD SWAP2 PUSH1 0x20 DUP7 LT PUSH2 0x15E5 JUMPI JUMPDEST PUSH1 0x1F ADD PUSH1 0x5 SHR ADD SWAP1 PUSH2 0x23A3 JUMP JUMPDEST CODESIZE PUSH2 0x14B7 JUMP JUMPDEST SWAP1 SWAP2 POP DUP2 SWAP1 PUSH2 0x15D2 JUMP JUMPDEST PUSH4 0x4E487B71 PUSH1 0xE0 SHL DUP5 MSTORE PUSH1 0x4 DUP5 SWAP1 MSTORE PUSH1 0x24 DUP5 REVERT JUMPDEST PUSH1 0x40 MLOAD PUSH3 0x461BCD PUSH1 0xE5 SHL DUP2 MSTORE PUSH1 0x20 PUSH1 0x4 DUP3 ADD MSTORE PUSH1 0x19 PUSH1 0x24 DUP3 ADD MSTORE PUSH32 0x47616D65206E616D652063616E6E6F7420626520656D70747900000000000000 PUSH1 0x44 DUP3 ADD MSTORE PUSH1 0x64 SWAP1 REVERT JUMPDEST PUSH1 0x40 MLOAD PUSH3 0x461BCD PUSH1 0xE5 SHL DUP2 MSTORE PUSH1 0x20 PUSH1 0x4 DUP3 ADD MSTORE PUSH1 0x17 PUSH1 0x24 DUP3 ADD MSTORE PUSH32 0x47616D6520616C72656164792072656769737465726564000000000000000000 PUSH1 0x44 DUP3 ADD MSTORE PUSH1 0x64 SWAP1 REVERT JUMPDEST PUSH1 0x40 MLOAD PUSH3 0x461BCD PUSH1 0xE5 SHL DUP2 MSTORE PUSH1 0x20 PUSH1 0x4 DUP3 ADD MSTORE PUSH1 0x14 PUSH1 0x24 DUP3 ADD MSTORE PUSH20 0x496E76616C69642067616D652061646472657373 PUSH1 0x60 SHL PUSH1 0x44 DUP3 ADD MSTORE PUSH1 0x64 SWAP1 REVERT JUMPDEST DUP3 DUP1 REVERT JUMPDEST POP CALLVALUE PUSH2 0x1EB JUMPI DUP1 PUSH1 0x3 NOT CALLDATASIZE ADD SLT PUSH2 0x1EB JUMPI PUSH1 0x20 PUSH1 0x40 MLOAD PUSH2 0x3E8 DUP2 MSTORE RETURN JUMPDEST POP CALLVALUE PUSH2 0x1EB JUMPI DUP1 PUSH1 0x3 NOT CALLDATASIZE ADD SLT PUSH2 0x1EB JUMPI PUSH2 0x1703 PUSH2 0x2656 JUMP JUMPDEST DUP1 DUP1 DUP1 DUP1 PUSH1 0x1 DUP1 PUSH1 0xA0 SHL SUB DUP2 SLOAD AND SELFBALANCE SWAP1 GAS CALL PUSH2 0x171D PUSH2 0x223E JUMP JUMPDEST POP ISZERO PUSH2 0x1726 JUMPI DUP1 RETURN JUMPDEST PUSH1 0x40 MLOAD PUSH3 0x461BCD PUSH1 0xE5 SHL DUP2 MSTORE PUSH1 0x20 PUSH1 0x4 DUP3 ADD MSTORE PUSH1 0x11 PUSH1 0x24 DUP3 ADD MSTORE PUSH17 0x15DA5D1A191C985DD85B0819985A5B1959 PUSH1 0x7A SHL PUSH1 0x44 DUP3 ADD MSTORE PUSH1 0x64 SWAP1 REVERT JUMPDEST POP CALLVALUE PUSH2 0x1EB JUMPI DUP1 PUSH1 0x3 NOT CALLDATASIZE ADD SLT PUSH2 0x1EB JUMPI PUSH2 0xFE9 PUSH1 0x40 MLOAD PUSH2 0x128D DUP2 PUSH2 0x1783 DUP2 PUSH2 0x21D6 JUMP JUMPDEST SUB DUP3 PUSH2 0x1F68 JUMP JUMPDEST POP CALLVALUE PUSH2 0x1EB JUMPI PUSH1 0x20 CALLDATASIZE PUSH1 0x3 NOT ADD SLT PUSH2 0x1EB JUMPI PUSH1 0x4 CALLDATALOAD PUSH1 0x1 PUSH1 0x1 PUSH1 0x40 SHL SUB DUP2 GT PUSH2 0x6F3 JUMPI PUSH2 0x17BB SWAP1 CALLDATASIZE SWAP1 PUSH1 0x4 ADD PUSH2 0x1E7F JUMP JUMPDEST SWAP1 SWAP2 PUSH2 0x17C5 PUSH2 0x2656 JUMP JUMPDEST PUSH2 0x17E6 PUSH1 0xFF PUSH1 0x40 MLOAD DUP5 DUP7 DUP3 CALLDATACOPY PUSH1 0x20 DUP2 DUP7 DUP2 ADD PUSH1 0xB DUP2 MSTORE SUB ADD SWAP1 KECCAK256 SLOAD AND PUSH2 0x226E JUMP JUMPDEST PUSH1 0x5 SLOAD SWAP3 DUP4 ISZERO PUSH2 0x1943 JUMPI PUSH1 0x40 MLOAD DUP4 DUP3 DUP3 CALLDATACOPY PUSH1 0xA DUP2 DUP6 ADD SWAP1 DUP2 MSTORE DUP2 SWAP1 SUB PUSH1 0x20 ADD SWAP1 KECCAK256 SLOAD PUSH1 0x1 PUSH1 0x1 PUSH1 0xA0 SHL SUB AND SWAP3 PUSH2 0x181B DUP6 PUSH2 0x233C JUMP JUMPDEST SWAP5 DUP4 JUMPDEST DUP2 DUP2 LT PUSH2 0x190C JUMPI POP POP DUP4 EXTCODESIZE ISZERO PUSH2 0x16C9 JUMPI DUP3 PUSH2 0x1869 SWAP6 PUSH1 0x40 MLOAD DUP1 SWAP8 DUP2 SWAP3 PUSH4 0x7FBBE46F PUSH1 0xE0 SHL DUP4 MSTORE PUSH1 0x40 PUSH1 0x4 DUP5 ADD MSTORE PUSH2 0x1857 PUSH1 0x44 DUP5 ADD PUSH2 0x21D6 JUMP JUMPDEST DUP4 DUP2 SUB PUSH1 0x3 NOT ADD PUSH1 0x24 DUP6 ADD MSTORE SWAP1 PUSH2 0x2045 JUMP JUMPDEST SUB DUP2 DUP4 DUP9 GAS CALL SWAP5 DUP6 ISZERO PUSH2 0x1901 JUMPI PUSH1 0x20 SWAP6 PUSH2 0x18CF JUMPI JUMPDEST POP PUSH32 0x556AE6F2A401959EA3E8F5C4035F8063EFF09C11D1565AB4F369920DD9DA3B36 SWAP3 SWAP4 PUSH2 0x18B9 PUSH1 0x40 MLOAD SWAP4 DUP5 SWAP4 PUSH1 0x60 DUP6 MSTORE PUSH1 0x60 DUP6 ADD SWAP2 PUSH2 0x2382 JUMP JUMPDEST SWAP1 DUP7 DUP4 ADD MSTORE DUP5 PUSH1 0x40 DUP4 ADD MSTORE SUB SWAP1 LOG1 PUSH1 0x40 MLOAD SWAP1 DUP2 MSTORE RETURN JUMPDEST SWAP3 PUSH2 0x18FB DUP2 PUSH32 0x556AE6F2A401959EA3E8F5C4035F8063EFF09C11D1565AB4F369920DD9DA3B36 SWAP6 PUSH2 0x1F68 JUMP JUMPDEST SWAP3 PUSH2 0x187E JUMP JUMPDEST PUSH1 0x40 MLOAD RETURNDATASIZE DUP6 DUP3 RETURNDATACOPY RETURNDATASIZE SWAP1 REVERT JUMPDEST DUP1 PUSH2 0x1918 PUSH1 0x1 SWAP3 PUSH2 0x2079 JUMP JUMPDEST DUP4 DUP1 PUSH1 0xA0 SHL SUB SWAP2 SLOAD SWAP1 PUSH1 0x3 SHL SHR AND DUP7 MSTORE PUSH1 0x7 PUSH1 0x20 MSTORE PUSH1 0x40 DUP7 KECCAK256 SLOAD PUSH2 0x193C DUP3 DUP11 PUSH2 0x236E JUMP JUMPDEST MSTORE ADD PUSH2 0x181E JUMP JUMPDEST PUSH1 0x40 MLOAD PUSH3 0x461BCD PUSH1 0xE5 SHL DUP2 MSTORE PUSH1 0x20 PUSH1 0x4 DUP3 ADD MSTORE PUSH1 0x11 PUSH1 0x24 DUP3 ADD MSTORE PUSH17 0x4E6F2061637469766520706C6179657273 PUSH1 0x78 SHL PUSH1 0x44 DUP3 ADD MSTORE PUSH1 0x64 SWAP1 REVERT JUMPDEST POP CALLVALUE PUSH2 0x1EB JUMPI DUP1 PUSH1 0x3 NOT CALLDATASIZE ADD SLT PUSH2 0x1EB JUMPI PUSH2 0xFE9 PUSH2 0x1998 PUSH2 0x22C7 JUMP JUMPDEST PUSH1 0x40 MLOAD SWAP2 DUP3 SWAP2 PUSH1 0x20 DUP4 MSTORE PUSH1 0x20 DUP4 ADD SWAP1 PUSH2 0x1EF9 JUMP JUMPDEST POP CALLVALUE PUSH2 0x1EB JUMPI PUSH1 0x20 CALLDATASIZE PUSH1 0x3 NOT ADD SLT PUSH2 0x1EB JUMPI DUP1 PUSH1 0x4 CALLDATALOAD PUSH1 0x1 PUSH1 0x1 PUSH1 0x40 SHL SUB DUP2 GT PUSH2 0x70A JUMPI PUSH2 0x19DF DUP3 SWAP2 CALLDATASIZE SWAP1 PUSH1 0x4 ADD PUSH2 0x1E7F JUMP JUMPDEST PUSH2 0x19E7 PUSH2 0x2656 JUMP JUMPDEST PUSH2 0x1A08 PUSH1 0xFF PUSH1 0x40 MLOAD DUP4 DUP6 DUP3 CALLDATACOPY PUSH1 0x20 DUP2 DUP6 DUP2 ADD PUSH1 0xB DUP2 MSTORE SUB ADD SWAP1 KECCAK256 SLOAD AND PUSH2 0x226E JUMP JUMPDEST DUP1 PUSH1 0x40 MLOAD SWAP3 DUP4 CALLDATACOPY PUSH1 0xA SWAP1 DUP3 ADD SWAP1 DUP2 MSTORE DUP2 SWAP1 SUB PUSH1 0x20 ADD SWAP1 KECCAK256 SLOAD PUSH1 0x40 MLOAD PUSH4 0x6CBC2DED PUSH1 0xE0 SHL DUP2 MSTORE SWAP3 DUP4 SWAP2 PUSH1 0x4 SWAP2 DUP4 SWAP2 PUSH1 0x1 PUSH1 0x1 PUSH1 0xA0 SHL SUB AND GAS CALL SWAP1 DUP2 ISZERO PUSH2 0x6FF JUMPI DUP3 SWAP2 PUSH2 0x1A64 JUMPI JUMPDEST PUSH1 0x40 MLOAD PUSH1 0x20 DUP1 DUP3 MSTORE DUP2 SWAP1 PUSH2 0xFE9 SWAP1 DUP3 ADD DUP6 PUSH2 0x1E42 JUMP JUMPDEST SWAP1 POP RETURNDATASIZE DUP1 DUP4 DUP4 RETURNDATACOPY PUSH2 0x1A75 DUP2 DUP4 PUSH2 0x1F68 JUMP JUMPDEST DUP2 ADD SWAP1 PUSH1 0x20 DUP2 DUP4 SUB SLT PUSH2 0x16C9 JUMPI DUP1 MLOAD SWAP1 PUSH1 0x1 PUSH1 0x1 PUSH1 0x40 SHL SUB DUP3 GT PUSH2 0x1B0A JUMPI ADD SWAP1 DUP1 PUSH1 0x1F DUP4 ADD SLT ISZERO PUSH2 0x16C9 JUMPI DUP2 MLOAD SWAP3 PUSH2 0x1AAC DUP5 PUSH2 0x22B0 JUMP JUMPDEST SWAP3 PUSH2 0x1ABA PUSH1 0x40 MLOAD SWAP5 DUP6 PUSH2 0x1F68 JUMP JUMPDEST DUP5 DUP5 MSTORE PUSH1 0x20 DUP1 DUP6 ADD SWAP6 PUSH1 0x5 SHL DUP3 ADD ADD SWAP3 DUP4 GT PUSH2 0x6F3 JUMPI PUSH1 0x20 ADD SWAP4 JUMPDEST DUP3 DUP6 LT PUSH2 0x1AEA JUMPI POP POP POP PUSH2 0xFE9 SWAP2 POP CODESIZE PUSH2 0x1A4E JUMP JUMPDEST DUP5 MLOAD PUSH1 0x1 PUSH1 0x1 PUSH1 0xA0 SHL SUB DUP2 AND DUP2 SUB PUSH2 0x16C9 JUMPI DUP2 MSTORE PUSH1 0x20 SWAP5 DUP6 ADD SWAP5 ADD PUSH2 0x1AD5 JUMP JUMPDEST DUP4 DUP1 REVERT JUMPDEST POP DUP1 PUSH1 0x3 NOT CALLDATASIZE ADD SLT PUSH2 0x1EB JUMPI PUSH1 0xFF PUSH1 0x3 SLOAD AND PUSH2 0x1D6A JUMPI PUSH1 0x4 SLOAD CALLVALUE LT PUSH2 0x1D15 JUMPI CALLER DUP2 MSTORE PUSH1 0x2 PUSH1 0x20 MSTORE PUSH1 0xFF PUSH1 0x40 DUP3 KECCAK256 SLOAD AND PUSH2 0x1CDB JUMPI PUSH1 0x1 SLOAD CALLER DUP3 MSTORE PUSH1 0x7 PUSH1 0x20 MSTORE DUP1 PUSH1 0x40 DUP4 KECCAK256 SSTORE PUSH1 0x1 SLOAD PUSH1 0x1 PUSH1 0x40 SHL DUP2 LT ISZERO PUSH2 0x1CC7 JUMPI PUSH2 0x1B76 DUP2 PUSH1 0x1 PUSH2 0x1B94 SWAP4 ADD PUSH1 0x1 SSTORE PUSH1 0x1 PUSH2 0x20E0 JUMP JUMPDEST DUP2 SLOAD PUSH1 0x1 PUSH1 0x1 PUSH1 0xA0 SHL SUB PUSH1 0x3 SWAP3 SWAP1 SWAP3 SHL SWAP2 DUP3 SHL NOT AND CALLER SWAP1 SWAP2 SHL OR SWAP1 SSTORE JUMP JUMPDEST CALLER DUP3 MSTORE PUSH1 0x2 PUSH1 0x20 MSTORE PUSH1 0x40 DUP3 KECCAK256 DUP1 SLOAD PUSH1 0xFF NOT AND PUSH1 0x1 OR SWAP1 SSTORE PUSH1 0x5 SLOAD PUSH1 0x1 PUSH1 0x40 SHL DUP2 LT ISZERO PUSH2 0x1CC7 JUMPI PUSH2 0x1B76 DUP2 PUSH1 0x1 PUSH2 0x1BCF SWAP4 ADD PUSH1 0x5 SSTORE PUSH1 0x5 PUSH2 0x20E0 JUMP JUMPDEST CALLER DUP3 MSTORE PUSH1 0x6 PUSH1 0x20 MSTORE PUSH1 0x40 DUP3 KECCAK256 PUSH1 0x1 PUSH1 0xFF NOT DUP3 SLOAD AND OR SWAP1 SSTORE PUSH1 0x40 MLOAD SWAP1 DUP2 MSTORE PUSH32 0x324CB0062138D65997C86CD3012489CEB351D602F2F55C7408306E8040C79F3F PUSH1 0x20 CALLER SWAP3 LOG2 PUSH2 0x3E8 PUSH1 0x1 SLOAD LT ISZERO PUSH2 0x1C91 JUMPI JUMPDEST DUP1 PUSH2 0x1C2C PUSH1 0x4 SLOAD CALLVALUE PUSH2 0x221B JUMP JUMPDEST DUP1 PUSH2 0x1C34 JUMPI POP RETURN JUMPDEST DUP2 DUP1 DUP1 SWAP3 CALLER GAS CALL PUSH2 0x1C43 PUSH2 0x223E JUMP JUMPDEST POP ISZERO PUSH2 0x1C4C JUMPI DUP1 RETURN JUMPDEST PUSH1 0x40 MLOAD PUSH3 0x461BCD PUSH1 0xE5 SHL DUP2 MSTORE PUSH1 0x20 PUSH1 0x4 DUP3 ADD MSTORE PUSH1 0x1F PUSH1 0x24 DUP3 ADD MSTORE PUSH32 0x4661696C656420746F2072657475726E20657863657373207061796D656E7400 PUSH1 0x44 DUP3 ADD MSTORE PUSH1 0x64 SWAP1 REVERT JUMPDEST PUSH1 0x1 PUSH1 0xFF NOT PUSH1 0x3 SLOAD AND OR PUSH1 0x3 SSTORE PUSH32 0x2FC209F3DF2FB10C5FCB1620D3E5F067B9EF99813CA8FA6B24DE0418BDAC5420 DUP2 DUP1 LOG1 PUSH2 0x1C1F JUMP JUMPDEST PUSH4 0x4E487B71 PUSH1 0xE0 SHL DUP4 MSTORE PUSH1 0x41 PUSH1 0x4 MSTORE PUSH1 0x24 DUP4 REVERT JUMPDEST PUSH1 0x40 MLOAD PUSH3 0x461BCD PUSH1 0xE5 SHL DUP2 MSTORE PUSH1 0x20 PUSH1 0x4 DUP3 ADD MSTORE PUSH1 0x12 PUSH1 0x24 DUP3 ADD MSTORE PUSH18 0x105B1C9958591E481C9959DA5CDD195C9959 PUSH1 0x72 SHL PUSH1 0x44 DUP3 ADD MSTORE PUSH1 0x64 SWAP1 REVERT JUMPDEST PUSH1 0x40 MLOAD PUSH3 0x461BCD PUSH1 0xE5 SHL DUP2 MSTORE PUSH1 0x20 PUSH1 0x4 DUP3 ADD MSTORE PUSH1 0x27 PUSH1 0x24 DUP3 ADD MSTORE PUSH32 0x4D7573742073656E64206174206C656173742074686520726567697374726174 PUSH1 0x44 DUP3 ADD MSTORE PUSH7 0x696F6E20666565 PUSH1 0xC8 SHL PUSH1 0x64 DUP3 ADD MSTORE PUSH1 0x84 SWAP1 REVERT JUMPDEST PUSH1 0x40 MLOAD PUSH3 0x461BCD PUSH1 0xE5 SHL DUP2 MSTORE PUSH1 0x20 PUSH1 0x4 DUP3 ADD MSTORE PUSH1 0x16 PUSH1 0x24 DUP3 ADD MSTORE PUSH22 0x149959DA5CDD1C985D1A5BDB881A5CC818DB1BDCD959 PUSH1 0x52 SHL PUSH1 0x44 DUP3 ADD MSTORE PUSH1 0x64 SWAP1 REVERT JUMPDEST POP CALLVALUE PUSH2 0x1EB JUMPI DUP1 PUSH1 0x3 NOT CALLDATASIZE ADD SLT PUSH2 0x1EB JUMPI PUSH1 0x40 MLOAD PUSH1 0x1 DUP1 SLOAD DUP1 DUP4 MSTORE SWAP1 DUP4 MSTORE SWAP1 SWAP2 PUSH1 0x20 DUP4 ADD SWAP2 PUSH32 0xB10E2D527612073B26EECDFD717E6A320CF44B4AFAC2B0732D9FCBE2B7FA0CF6 SWAP2 JUMPDEST DUP2 DUP2 LT PUSH2 0x1E07 JUMPI PUSH2 0xFE9 DUP6 PUSH2 0x128D DUP2 DUP8 SUB DUP3 PUSH2 0x1F68 JUMP JUMPDEST DUP3 SLOAD PUSH1 0x1 PUSH1 0x1 PUSH1 0xA0 SHL SUB AND DUP5 MSTORE PUSH1 0x20 SWAP1 SWAP4 ADD SWAP3 PUSH1 0x1 SWAP3 DUP4 ADD SWAP3 ADD PUSH2 0x1DF0 JUMP JUMPDEST SWAP1 POP CALLVALUE PUSH2 0x6F3 JUMPI DUP2 PUSH1 0x3 NOT CALLDATASIZE ADD SLT PUSH2 0x6F3 JUMPI PUSH1 0x20 SWAP1 PUSH1 0x4 SLOAD DUP2 MSTORE RETURN JUMPDEST SWAP1 PUSH1 0x20 DUP1 DUP4 MLOAD SWAP3 DUP4 DUP2 MSTORE ADD SWAP3 ADD SWAP1 PUSH1 0x0 JUMPDEST DUP2 DUP2 LT PUSH2 0x1E60 JUMPI POP POP POP SWAP1 JUMP JUMPDEST DUP3 MLOAD PUSH1 0x1 PUSH1 0x1 PUSH1 0xA0 SHL SUB AND DUP5 MSTORE PUSH1 0x20 SWAP4 DUP5 ADD SWAP4 SWAP1 SWAP3 ADD SWAP2 PUSH1 0x1 ADD PUSH2 0x1E53 JUMP JUMPDEST SWAP2 DUP2 PUSH1 0x1F DUP5 ADD SLT ISZERO PUSH2 0x1EAC JUMPI DUP3 CALLDATALOAD SWAP2 PUSH1 0x1 PUSH1 0x1 PUSH1 0x40 SHL SUB DUP4 GT PUSH2 0x1EAC JUMPI PUSH1 0x20 DUP4 DUP2 DUP7 ADD SWAP6 ADD ADD GT PUSH2 0x1EAC JUMPI JUMP JUMPDEST PUSH1 0x0 DUP1 REVERT JUMPDEST PUSH1 0x0 JUMPDEST DUP4 DUP2 LT PUSH2 0x1EC4 JUMPI POP POP PUSH1 0x0 SWAP2 ADD MSTORE JUMP JUMPDEST DUP2 DUP2 ADD MLOAD DUP4 DUP3 ADD MSTORE PUSH1 0x20 ADD PUSH2 0x1EB4 JUMP JUMPDEST SWAP1 PUSH1 0x20 SWAP2 PUSH2 0x1EED DUP2 MLOAD DUP1 SWAP3 DUP2 DUP6 MSTORE DUP6 DUP1 DUP7 ADD SWAP2 ADD PUSH2 0x1EB1 JUMP JUMPDEST PUSH1 0x1F ADD PUSH1 0x1F NOT AND ADD ADD SWAP1 JUMP JUMPDEST SWAP1 DUP1 PUSH1 0x20 DUP4 MLOAD SWAP2 DUP3 DUP2 MSTORE ADD SWAP2 PUSH1 0x20 DUP1 DUP4 PUSH1 0x5 SHL DUP4 ADD ADD SWAP5 ADD SWAP3 PUSH1 0x0 SWAP2 JUMPDEST DUP4 DUP4 LT PUSH2 0x1F25 JUMPI POP POP POP POP POP SWAP1 JUMP JUMPDEST SWAP1 SWAP2 SWAP3 SWAP4 SWAP5 PUSH1 0x20 DUP1 PUSH2 0x1F43 PUSH1 0x1 SWAP4 PUSH1 0x1F NOT DUP7 DUP3 SUB ADD DUP8 MSTORE DUP10 MLOAD PUSH2 0x1ED4 JUMP JUMPDEST SWAP8 ADD SWAP4 ADD SWAP4 ADD SWAP2 SWAP4 SWAP3 SWAP1 PUSH2 0x1F16 JUMP JUMPDEST PUSH1 0x4 CALLDATALOAD SWAP1 PUSH1 0x1 PUSH1 0x1 PUSH1 0xA0 SHL SUB DUP3 AND DUP3 SUB PUSH2 0x1EAC JUMPI JUMP JUMPDEST SWAP1 PUSH1 0x1F DUP1 NOT SWAP2 ADD AND DUP2 ADD SWAP1 DUP2 LT PUSH1 0x1 PUSH1 0x1 PUSH1 0x40 SHL SUB DUP3 GT OR PUSH2 0x1F89 JUMPI PUSH1 0x40 MSTORE JUMP JUMPDEST PUSH4 0x4E487B71 PUSH1 0xE0 SHL PUSH1 0x0 MSTORE PUSH1 0x41 PUSH1 0x4 MSTORE PUSH1 0x24 PUSH1 0x0 REVERT JUMPDEST PUSH1 0x1 PUSH1 0x1 PUSH1 0x40 SHL SUB DUP2 GT PUSH2 0x1F89 JUMPI PUSH1 0x1F ADD PUSH1 0x1F NOT AND PUSH1 0x20 ADD SWAP1 JUMP JUMPDEST PUSH1 0x20 PUSH1 0x3 NOT DUP3 ADD SLT PUSH2 0x1EAC JUMPI PUSH1 0x4 CALLDATALOAD PUSH1 0x1 PUSH1 0x1 PUSH1 0x40 SHL SUB DUP2 GT PUSH2 0x1EAC JUMPI DUP2 PUSH1 0x23 DUP3 ADD SLT ISZERO PUSH2 0x1EAC JUMPI DUP1 PUSH1 0x4 ADD CALLDATALOAD SWAP1 PUSH2 0x1FF1 DUP3 PUSH2 0x1F9F JUMP JUMPDEST SWAP3 PUSH2 0x1FFF PUSH1 0x40 MLOAD SWAP5 DUP6 PUSH2 0x1F68 JUMP JUMPDEST DUP3 DUP5 MSTORE PUSH1 0x24 DUP4 DUP4 ADD ADD GT PUSH2 0x1EAC JUMPI DUP2 PUSH1 0x0 SWAP3 PUSH1 0x24 PUSH1 0x20 SWAP4 ADD DUP4 DUP7 ADD CALLDATACOPY DUP4 ADD ADD MSTORE SWAP1 JUMP JUMPDEST SWAP1 PUSH1 0x5 DUP3 LT ISZERO PUSH2 0x202F JUMPI MSTORE JUMP JUMPDEST PUSH4 0x4E487B71 PUSH1 0xE0 SHL PUSH1 0x0 MSTORE PUSH1 0x21 PUSH1 0x4 MSTORE PUSH1 0x24 PUSH1 0x0 REVERT JUMPDEST SWAP1 PUSH1 0x20 DUP1 DUP4 MLOAD SWAP3 DUP4 DUP2 MSTORE ADD SWAP3 ADD SWAP1 PUSH1 0x0 JUMPDEST DUP2 DUP2 LT PUSH2 0x2063 JUMPI POP POP POP SWAP1 JUMP JUMPDEST DUP3 MLOAD DUP5 MSTORE PUSH1 0x20 SWAP4 DUP5 ADD SWAP4 SWAP1 SWAP3 ADD SWAP2 PUSH1 0x1 ADD PUSH2 0x2056 JUMP JUMPDEST PUSH1 0x5 SLOAD DUP2 LT ISZERO PUSH2 0x2094 JUMPI PUSH1 0x5 PUSH1 0x0 MSTORE PUSH1 0x20 PUSH1 0x0 KECCAK256 ADD SWAP1 PUSH1 0x0 SWAP1 JUMP JUMPDEST PUSH4 0x4E487B71 PUSH1 0xE0 SHL PUSH1 0x0 MSTORE PUSH1 0x32 PUSH1 0x4 MSTORE PUSH1 0x24 PUSH1 0x0 REVERT JUMPDEST PUSH1 0xC SLOAD DUP2 LT ISZERO PUSH2 0x2094 JUMPI PUSH1 0xC PUSH1 0x0 MSTORE PUSH1 0x20 PUSH1 0x0 KECCAK256 ADD SWAP1 PUSH1 0x0 SWAP1 JUMP JUMPDEST PUSH1 0x1 SLOAD DUP2 LT ISZERO PUSH2 0x2094 JUMPI PUSH1 0x1 PUSH1 0x0 MSTORE PUSH1 0x20 PUSH1 0x0 KECCAK256 ADD SWAP1 PUSH1 0x0 SWAP1 JUMP JUMPDEST DUP1 SLOAD DUP3 LT ISZERO PUSH2 0x2094 JUMPI PUSH1 0x0 MSTORE PUSH1 0x20 PUSH1 0x0 KECCAK256 ADD SWAP1 PUSH1 0x0 SWAP1 JUMP JUMPDEST SWAP1 PUSH1 0x1 DUP3 DUP2 SHR SWAP3 AND DUP1 ISZERO PUSH2 0x2128 JUMPI JUMPDEST PUSH1 0x20 DUP4 LT EQ PUSH2 0x2112 JUMPI JUMP JUMPDEST PUSH4 0x4E487B71 PUSH1 0xE0 SHL PUSH1 0x0 MSTORE PUSH1 0x22 PUSH1 0x4 MSTORE PUSH1 0x24 PUSH1 0x0 REVERT JUMPDEST SWAP2 PUSH1 0x7F AND SWAP2 PUSH2 0x2107 JUMP JUMPDEST SWAP1 PUSH1 0x40 MLOAD SWAP2 DUP3 PUSH1 0x0 DUP3 SLOAD SWAP3 PUSH2 0x2146 DUP5 PUSH2 0x20F8 JUMP JUMPDEST DUP1 DUP5 MSTORE SWAP4 PUSH1 0x1 DUP2 AND SWAP1 DUP2 ISZERO PUSH2 0x21B4 JUMPI POP PUSH1 0x1 EQ PUSH2 0x216D JUMPI JUMPDEST POP PUSH2 0x216B SWAP3 POP SUB DUP4 PUSH2 0x1F68 JUMP JUMPDEST JUMP JUMPDEST SWAP1 POP PUSH1 0x0 SWAP3 SWAP2 SWAP3 MSTORE PUSH1 0x20 PUSH1 0x0 KECCAK256 SWAP1 PUSH1 0x0 SWAP2 JUMPDEST DUP2 DUP4 LT PUSH2 0x2198 JUMPI POP POP SWAP1 PUSH1 0x20 PUSH2 0x216B SWAP3 DUP3 ADD ADD CODESIZE PUSH2 0x215E JUMP JUMPDEST PUSH1 0x20 SWAP2 SWAP4 POP DUP1 PUSH1 0x1 SWAP2 SLOAD DUP4 DUP6 DUP10 ADD ADD MSTORE ADD SWAP2 ADD SWAP1 SWAP2 DUP5 SWAP3 PUSH2 0x217F JUMP JUMPDEST SWAP1 POP PUSH1 0x20 SWAP3 POP PUSH2 0x216B SWAP5 SWAP2 POP PUSH1 0xFF NOT AND DUP3 DUP5 ADD MSTORE ISZERO ISZERO PUSH1 0x5 SHL DUP3 ADD ADD CODESIZE PUSH2 0x215E JUMP JUMPDEST PUSH1 0x20 PUSH1 0x5 SLOAD SWAP2 DUP3 DUP2 MSTORE ADD SWAP1 PUSH1 0x5 PUSH1 0x0 MSTORE PUSH1 0x20 PUSH1 0x0 KECCAK256 SWAP1 PUSH1 0x0 JUMPDEST DUP2 DUP2 LT PUSH2 0x21FC JUMPI POP POP POP SWAP1 JUMP JUMPDEST DUP3 SLOAD PUSH1 0x1 PUSH1 0x1 PUSH1 0xA0 SHL SUB AND DUP5 MSTORE PUSH1 0x20 SWAP1 SWAP4 ADD SWAP3 PUSH1 0x1 SWAP3 DUP4 ADD SWAP3 ADD PUSH2 0x21EF JUMP JUMPDEST SWAP2 SWAP1 DUP3 SUB SWAP2 DUP3 GT PUSH2 0x2228 JUMPI JUMP JUMPDEST PUSH4 0x4E487B71 PUSH1 0xE0 SHL PUSH1 0x0 MSTORE PUSH1 0x11 PUSH1 0x4 MSTORE PUSH1 0x24 PUSH1 0x0 REVERT JUMPDEST RETURNDATASIZE ISZERO PUSH2 0x2269 JUMPI RETURNDATASIZE SWAP1 PUSH2 0x224F DUP3 PUSH2 0x1F9F JUMP JUMPDEST SWAP2 PUSH2 0x225D PUSH1 0x40 MLOAD SWAP4 DUP5 PUSH2 0x1F68 JUMP JUMPDEST DUP3 MSTORE RETURNDATASIZE PUSH1 0x0 PUSH1 0x20 DUP5 ADD RETURNDATACOPY JUMP JUMPDEST PUSH1 0x60 SWAP1 JUMP JUMPDEST ISZERO PUSH2 0x2275 JUMPI JUMP JUMPDEST PUSH1 0x40 MLOAD PUSH3 0x461BCD PUSH1 0xE5 SHL DUP2 MSTORE PUSH1 0x20 PUSH1 0x4 DUP3 ADD MSTORE PUSH1 0x13 PUSH1 0x24 DUP3 ADD MSTORE PUSH19 0x11D85B59481B9BDD081C9959DA5CDD195C9959 PUSH1 0x6A SHL PUSH1 0x44 DUP3 ADD MSTORE PUSH1 0x64 SWAP1 REVERT JUMPDEST PUSH1 0x1 PUSH1 0x1 PUSH1 0x40 SHL SUB DUP2 GT PUSH2 0x1F89 JUMPI PUSH1 0x5 SHL PUSH1 0x20 ADD SWAP1 JUMP JUMPDEST PUSH1 0xC SLOAD SWAP1 PUSH2 0x22D4 DUP3 PUSH2 0x22B0 JUMP JUMPDEST SWAP2 PUSH2 0x22E2 PUSH1 0x40 MLOAD SWAP4 DUP5 PUSH2 0x1F68 JUMP JUMPDEST DUP1 DUP4 MSTORE PUSH1 0xC PUSH1 0x0 SWAP1 DUP2 MSTORE PUSH32 0xDF6966C971051C3D54EC59162606531493A51404A002842F56009D7E5CF4A8C7 PUSH1 0x20 DUP6 ADD JUMPDEST DUP4 DUP4 LT PUSH2 0x231F JUMPI POP POP POP POP JUMP JUMPDEST PUSH1 0x1 PUSH1 0x20 DUP2 SWAP3 PUSH2 0x232E DUP6 PUSH2 0x2132 JUMP JUMPDEST DUP2 MSTORE ADD SWAP3 ADD SWAP3 ADD SWAP2 SWAP1 PUSH2 0x2312 JUMP JUMPDEST SWAP1 PUSH2 0x2346 DUP3 PUSH2 0x22B0 JUMP JUMPDEST PUSH2 0x2353 PUSH1 0x40 MLOAD SWAP2 DUP3 PUSH2 0x1F68 JUMP JUMPDEST DUP3 DUP2 MSTORE DUP1 SWAP3 PUSH2 0x2364 PUSH1 0x1F NOT SWAP2 PUSH2 0x22B0 JUMP JUMPDEST ADD SWAP1 PUSH1 0x20 CALLDATASIZE SWAP2 ADD CALLDATACOPY JUMP JUMPDEST DUP1 MLOAD DUP3 LT ISZERO PUSH2 0x2094 JUMPI PUSH1 0x20 SWAP2 PUSH1 0x5 SHL ADD ADD SWAP1 JUMP JUMPDEST SWAP1 DUP1 PUSH1 0x20 SWAP4 SWAP3 DUP2 DUP5 MSTORE DUP5 DUP5 ADD CALLDATACOPY PUSH1 0x0 DUP3 DUP3 ADD DUP5 ADD MSTORE PUSH1 0x1F ADD PUSH1 0x1F NOT AND ADD ADD SWAP1 JUMP JUMPDEST DUP2 DUP2 LT PUSH2 0x23AE JUMPI POP POP JUMP JUMPDEST PUSH1 0x0 DUP2 SSTORE PUSH1 0x1 ADD PUSH2 0x23A3 JUMP JUMPDEST PUSH1 0x1 PUSH1 0x1 PUSH1 0xA0 SHL SUB AND PUSH1 0x0 DUP2 DUP2 MSTORE PUSH1 0x2 PUSH1 0x20 MSTORE PUSH1 0x40 SWAP1 KECCAK256 SLOAD SWAP1 SWAP2 SWAP1 PUSH1 0xFF AND ISZERO PUSH2 0x25EF JUMPI DUP2 PUSH1 0x0 MSTORE PUSH1 0x6 PUSH1 0x20 MSTORE PUSH1 0xFF PUSH1 0x40 PUSH1 0x0 KECCAK256 SLOAD AND SWAP1 DUP3 PUSH1 0x0 MSTORE PUSH1 0x7 PUSH1 0x20 MSTORE PUSH1 0x40 PUSH1 0x0 KECCAK256 SLOAD PUSH1 0x20 SWAP2 PUSH1 0x40 MLOAD PUSH2 0x240F DUP5 DUP3 PUSH2 0x1F68 JUMP JUMPDEST PUSH1 0x0 DUP1 DUP3 MSTORE PUSH1 0xC SLOAD SWAP1 SWAP7 DUP8 SWAP6 SWAP1 DUP7 DUP1 JUMPDEST DUP5 DUP2 LT PUSH2 0x2432 JUMPI POP POP POP POP POP SWAP5 SWAP4 SWAP3 SWAP2 SWAP1 JUMP JUMPDEST PUSH2 0x243E PUSH2 0x9EE DUP3 PUSH2 0x20AA JUMP JUMPDEST SWAP1 PUSH1 0x40 MLOAD DUP3 MLOAD PUSH2 0x2451 DUP2 DUP4 DUP10 DUP8 ADD PUSH2 0x1EB1 JUMP JUMPDEST PUSH1 0xA SWAP1 DUP3 ADD SWAP1 DUP2 MSTORE DUP2 SWAP1 SUB DUP7 ADD SWAP1 KECCAK256 SLOAD PUSH1 0x1 PUSH1 0x1 PUSH1 0xA0 SHL SUB AND SWAP2 DUP3 PUSH2 0x247C JUMPI JUMPDEST POP PUSH1 0x1 SWAP2 POP ADD PUSH2 0x241F JUMP JUMPDEST PUSH1 0x40 MLOAD PUSH4 0x773B549D PUSH1 0xE0 SHL DUP2 MSTORE PUSH1 0x4 DUP2 ADD DUP7 SWAP1 MSTORE SWAP1 DUP7 DUP3 PUSH1 0x24 DUP2 DUP8 GAS STATICCALL SWAP2 DUP3 ISZERO PUSH2 0x25B4 JUMPI PUSH1 0x0 SWAP3 PUSH2 0x25C0 JUMPI JUMPDEST POP DUP2 PUSH2 0x24B5 JUMPI JUMPDEST POP PUSH2 0x2471 JUMP JUMPDEST PUSH1 0xA0 PUSH1 0x24 SWAP4 SWAP5 PUSH1 0x40 MLOAD SWAP5 DUP6 DUP1 SWAP3 PUSH4 0x47E1D55 PUSH1 0xE4 SHL DUP3 MSTORE DUP7 PUSH1 0x4 DUP4 ADD MSTORE GAS STATICCALL SWAP3 DUP4 ISZERO PUSH2 0x25B4 JUMPI PUSH1 0x0 SWAP4 PUSH2 0x251B JUMPI JUMPDEST POP PUSH1 0x60 DUP4 ADD MLOAD DUP6 DUP2 GT PUSH2 0x24FA JUMPI JUMPDEST POP DUP4 SWAP3 POP PUSH2 0x24AF JUMP JUMPDEST SWAP4 SWAP12 POP SWAP4 POP SWAP7 POP SWAP11 POP SWAP1 SWAP5 SWAP10 MLOAD PUSH1 0x5 DUP2 LT ISZERO PUSH2 0x202F JUMPI SWAP8 PUSH1 0x1 CODESIZE DUP1 DUP1 PUSH2 0x24F1 JUMP JUMPDEST PUSH1 0xA0 SWAP4 SWAP2 SWAP4 DUP2 RETURNDATASIZE DUP3 GT PUSH2 0x25AC JUMPI JUMPDEST DUP2 PUSH2 0x2536 PUSH1 0xA0 SWAP4 DUP4 PUSH2 0x1F68 JUMP JUMPDEST DUP2 ADD SUB SLT PUSH2 0x6F3 JUMPI PUSH1 0x40 MLOAD SWAP2 PUSH1 0xA0 DUP4 ADD DUP4 DUP2 LT PUSH1 0x1 PUSH1 0x1 PUSH1 0x40 SHL SUB DUP3 GT OR PUSH2 0x2598 JUMPI PUSH1 0x40 MSTORE DUP2 MLOAD SWAP1 PUSH1 0x5 DUP3 LT ISZERO PUSH2 0x1EB JUMPI POP SWAP1 PUSH1 0x80 SWAP2 DUP4 MSTORE DUP9 DUP2 ADD MLOAD DUP10 DUP5 ADD MSTORE PUSH1 0x40 DUP2 ADD MLOAD PUSH1 0x40 DUP5 ADD MSTORE PUSH1 0x60 DUP2 ADD MLOAD PUSH1 0x60 DUP5 ADD MSTORE ADD MLOAD PUSH1 0x80 DUP3 ADD MSTORE SWAP2 CODESIZE PUSH2 0x24E3 JUMP JUMPDEST PUSH4 0x4E487B71 PUSH1 0xE0 SHL DUP3 MSTORE PUSH1 0x41 PUSH1 0x4 MSTORE PUSH1 0x24 DUP3 REVERT JUMPDEST RETURNDATASIZE SWAP2 POP PUSH2 0x2529 JUMP JUMPDEST PUSH1 0x40 MLOAD RETURNDATASIZE PUSH1 0x0 DUP3 RETURNDATACOPY RETURNDATASIZE SWAP1 REVERT JUMPDEST SWAP1 SWAP2 DUP8 DUP3 DUP2 RETURNDATASIZE DUP4 GT PUSH2 0x25E8 JUMPI JUMPDEST PUSH2 0x25D7 DUP2 DUP4 PUSH2 0x1F68 JUMP JUMPDEST DUP2 ADD SUB SLT PUSH2 0x1EB JUMPI POP MLOAD SWAP1 CODESIZE PUSH2 0x24A8 JUMP JUMPDEST POP RETURNDATASIZE PUSH2 0x25CD JUMP JUMPDEST SWAP1 POP PUSH1 0x40 MLOAD PUSH2 0x25FF PUSH1 0x20 DUP3 PUSH2 0x1F68 JUMP JUMPDEST PUSH1 0x0 DUP2 MSTORE SWAP1 PUSH1 0x0 SWAP1 PUSH1 0x0 SWAP1 PUSH1 0x0 SWAP1 PUSH1 0x0 SWAP1 JUMP JUMPDEST ISZERO PUSH2 0x2619 JUMPI JUMP JUMPDEST PUSH1 0x40 MLOAD PUSH3 0x461BCD PUSH1 0xE5 SHL DUP2 MSTORE PUSH1 0x20 PUSH1 0x4 DUP3 ADD MSTORE PUSH1 0x15 PUSH1 0x24 DUP3 ADD MSTORE PUSH21 0x141B185E595C881B9BDD081C9959DA5CDD195C9959 PUSH1 0x5A SHL PUSH1 0x44 DUP3 ADD MSTORE PUSH1 0x64 SWAP1 REVERT JUMPDEST PUSH1 0x0 SLOAD PUSH1 0x1 PUSH1 0x1 PUSH1 0xA0 SHL SUB AND CALLER SUB PUSH2 0x266A JUMPI JUMP JUMPDEST PUSH4 0x118CDAA7 PUSH1 0xE0 SHL PUSH1 0x0 MSTORE CALLER PUSH1 0x4 MSTORE PUSH1 0x24 PUSH1 0x0 REVERT INVALID LOG2 PUSH5 0x6970667358 0x22 SLT KECCAK256 0x1F 0xC5 0xED 0x4B 0xC9 LOG0 JUMPI PUSH10 0xCFE640A83B087613CB5 EQ 0xEE PUSH22 0x8976AD522631F09849867664736F6C634300081C0033 "},"methodIdentifiers":{"MAX_PLAYERS()":"4411b3eb","activePlayers(uint256)":"b55f108f","closeRegistration()":"7dc673bc","eliminatedPlayers(uint256)":"d03b547e","endExpiredGames(string)":"b6e79c59","endGames(string)":"1bc8c8a0","finalPlacements(address)":"c07dda4a","gameAddresses(string)":"6a6b2722","getActivePlayerCount()":"4e347f2a","getActivePlayers()":"3c4f5a66","getActivePlayersAndNumbers()":"6e24b939","getEliminatedPlayerCount()":"fea55dad","getEliminatedPlayers()":"64328b9c","getGames()":"c04c5947","getPlayerCount()":"c2e52206","getPlayerFinalPlacement(address)":"71259638","getPlayerInfo(address)":"59328401","getPlayerNumber(address)":"ada4a401","getRegisteredGames()":"2e7ea48a","getRegisteredPlayers()":"1a8e2514","initializeGame(string)":"39e160f1","isActivePlayer(address)":"54a7d931","isGameRegistered(string)":"55e226c7","isRegistered(address)":"c3c5a547","owner()":"8da5cb5b","playerEliminated(address)":"fbdb3c74","playerNumbers(address)":"e03a0288","register()":"1aa3a008","registerGame(string,address)":"4aefbbe7","registeredGames(uint256)":"9e3c5a72","registeredPlayers(uint256)":"89a5b229","registrationClosed()":"9f9a093c","registrationFee()":"14c44e09","renounceOwnership()":"715018a6","resetGame()":"bb472219","setRegistrationFee(uint256)":"c320c727","startGames(string)":"d4e103d5","transferOwnership(address)":"f2fde38b","withdraw()":"3ccfd60b"}}}}}