{"contracts/games/Bidding.sol":{"Bidding":{"abi":[{"inputs":[],"stateMutability":"nonpayable","type":"constructor"},{"inputs":[{"internalType":"address","name":"owner","type":"address"}],"name":"OwnableInvalidOwner","type":"error"},{"inputs":[{"internalType":"address","name":"account","type":"address"}],"name":"OwnableUnauthorizedAccount","type":"error"},{"anonymous":false,"inputs":[{"indexed":true,"internalType":"uint256","name":"gameId","type":"uint256"},{"indexed":false,"internalType":"address[]","name":"winners","type":"address[]"}],"name":"GameCompleted","type":"event"},{"anonymous":false,"inputs":[{"indexed":false,"internalType":"address[]","name":"players","type":"address[]"},{"indexed":false,"internalType":"uint256[]","name":"playerNumbers","type":"uint256[]"}],"name":"GameInitialized","type":"event"},{"anonymous":false,"inputs":[{"indexed":false,"internalType":"address","name":"newGameMaster","type":"address"}],"name":"GameMasterChanged","type":"event"},{"anonymous":false,"inputs":[{"indexed":true,"internalType":"address","name":"previousOwner","type":"address"},{"indexed":true,"internalType":"address","name":"newOwner","type":"address"}],"name":"OwnershipTransferred","type":"event"},{"anonymous":false,"inputs":[{"indexed":true,"internalType":"uint256","name":"gameId","type":"uint256"},{"indexed":true,"internalType":"address","name":"player","type":"address"}],"name":"PlayerCommitted","type":"event"},{"anonymous":false,"inputs":[{"indexed":true,"internalType":"uint256","name":"gameId","type":"uint256"},{"indexed":true,"internalType":"address","name":"player","type":"address"},{"indexed":false,"internalType":"uint256","name":"playerNumber","type":"uint256"}],"name":"PlayerEliminated","type":"event"},{"anonymous":false,"inputs":[{"indexed":true,"internalType":"uint256","name":"gameId","type":"uint256"},{"indexed":true,"internalType":"address","name":"player","type":"address"},{"indexed":false,"internalType":"uint256","name":"bid","type":"uint256"}],"name":"PlayerRevealed","type":"event"},{"anonymous":false,"inputs":[{"indexed":true,"internalType":"uint256","name":"gameId","type":"uint256"},{"indexed":true,"internalType":"address","name":"player","type":"address"},{"indexed":false,"internalType":"uint256","name":"bid","type":"uint256"},{"indexed":false,"internalType":"uint256","name":"remainingPoints","type":"uint256"}],"name":"PointsDeducted","type":"event"},{"anonymous":false,"inputs":[{"indexed":true,"internalType":"uint256","name":"gameId","type":"uint256"},{"indexed":false,"internalType":"uint256","name":"roundNumber","type":"uint256"},{"indexed":false,"internalType":"uint256","name":"phase","type":"uint256"},{"indexed":false,"internalType":"uint256","name":"endTime","type":"uint256"}],"name":"RoundStarted","type":"event"},{"inputs":[{"internalType":"bytes32","name":"commitment","type":"bytes32"}],"name":"commitBid","outputs":[],"stateMutability":"nonpayable","type":"function"},{"inputs":[],"name":"endExpiredGames","outputs":[],"stateMutability":"nonpayable","type":"function"},{"inputs":[],"name":"endGame","outputs":[{"internalType":"address[]","name":"","type":"address[]"}],"stateMutability":"nonpayable","type":"function"},{"inputs":[],"name":"gameIdCounter","outputs":[{"internalType":"uint256","name":"","type":"uint256"}],"stateMutability":"view","type":"function"},{"inputs":[],"name":"gameMaster","outputs":[{"internalType":"address","name":"","type":"address"}],"stateMutability":"view","type":"function"},{"inputs":[],"name":"getActivePlayers","outputs":[{"internalType":"address[]","name":"","type":"address[]"}],"stateMutability":"view","type":"function"},{"inputs":[{"internalType":"uint256","name":"gameId","type":"uint256"}],"name":"getCurrentPhase","outputs":[{"internalType":"uint256","name":"","type":"uint256"}],"stateMutability":"view","type":"function"},{"inputs":[{"internalType":"uint256","name":"gameId","type":"uint256"}],"name":"getGameInfo","outputs":[{"components":[{"internalType":"enum GameState","name":"state","type":"uint8"},{"internalType":"uint256","name":"currentRound","type":"uint256"},{"internalType":"uint256","name":"roundEndTime","type":"uint256"},{"internalType":"uint256","name":"gameStartTime","type":"uint256"},{"internalType":"uint256","name":"gameEndTime","type":"uint256"}],"internalType":"struct IGame.GameInfo","name":"","type":"tuple"}],"stateMutability":"view","type":"function"},{"inputs":[],"name":"getGameName","outputs":[{"internalType":"string","name":"","type":"string"}],"stateMutability":"pure","type":"function"},{"inputs":[{"internalType":"uint256","name":"gameId","type":"uint256"}],"name":"getGameState","outputs":[{"internalType":"enum GameState","name":"","type":"uint8"}],"stateMutability":"view","type":"function"},{"inputs":[],"name":"getGames","outputs":[{"components":[{"internalType":"uint256","name":"gameId","type":"uint256"},{"internalType":"enum GameState","name":"state","type":"uint8"},{"internalType":"uint256","name":"currentRound","type":"uint256"},{"internalType":"uint256","name":"activePlayerCount","type":"uint256"}],"internalType":"struct GameInstanceInfo[]","name":"gamesInfo","type":"tuple[]"}],"stateMutability":"view","type":"function"},{"inputs":[{"internalType":"address","name":"player","type":"address"}],"name":"getPlayerGameId","outputs":[{"internalType":"uint256","name":"","type":"uint256"}],"stateMutability":"view","type":"function"},{"inputs":[{"internalType":"uint256","name":"gameId","type":"uint256"}],"name":"getPlayerInfo","outputs":[{"components":[{"internalType":"address","name":"playerAddress","type":"address"},{"internalType":"uint256","name":"playerNumber","type":"uint256"},{"internalType":"uint256","name":"points","type":"uint256"},{"internalType":"bool","name":"hasCommitted","type":"bool"},{"internalType":"bool","name":"hasRevealed","type":"bool"},{"internalType":"bool","name":"isActive","type":"bool"}],"internalType":"struct Bidding.BiddingPlayerInfo[]","name":"","type":"tuple[]"}],"stateMutability":"view","type":"function"},{"inputs":[{"internalType":"uint256","name":"gameId","type":"uint256"},{"internalType":"address","name":"player","type":"address"}],"name":"getPlayerNumber","outputs":[{"internalType":"uint256","name":"","type":"uint256"}],"stateMutability":"view","type":"function"},{"inputs":[{"internalType":"uint256","name":"gameId","type":"uint256"},{"internalType":"address","name":"player","type":"address"}],"name":"getPlayerPoints","outputs":[{"internalType":"uint256","name":"","type":"uint256"}],"stateMutability":"view","type":"function"},{"inputs":[],"name":"getPlayers","outputs":[{"internalType":"address[]","name":"","type":"address[]"}],"stateMutability":"view","type":"function"},{"inputs":[{"internalType":"uint256","name":"gameId","type":"uint256"}],"name":"getRoundEndTime","outputs":[{"internalType":"uint256","name":"","type":"uint256"}],"stateMutability":"view","type":"function"},{"inputs":[{"internalType":"uint256","name":"gameId","type":"uint256"},{"internalType":"address","name":"player","type":"address"}],"name":"hasPlayerCommitted","outputs":[{"internalType":"bool","name":"","type":"bool"}],"stateMutability":"view","type":"function"},{"inputs":[{"internalType":"uint256","name":"gameId","type":"uint256"},{"internalType":"address","name":"player","type":"address"}],"name":"hasPlayerRevealed","outputs":[{"internalType":"bool","name":"","type":"bool"}],"stateMutability":"view","type":"function"},{"inputs":[{"internalType":"address[]","name":"_players","type":"address[]"},{"internalType":"uint256[]","name":"_playerNumbers","type":"uint256[]"}],"name":"initialize","outputs":[],"stateMutability":"nonpayable","type":"function"},{"inputs":[{"internalType":"address","name":"","type":"address"}],"name":"isPlayerInGame","outputs":[{"internalType":"bool","name":"","type":"bool"}],"stateMutability":"view","type":"function"},{"inputs":[],"name":"owner","outputs":[{"internalType":"address","name":"","type":"address"}],"stateMutability":"view","type":"function"},{"inputs":[{"internalType":"address","name":"","type":"address"}],"name":"playerGameId","outputs":[{"internalType":"uint256","name":"","type":"uint256"}],"stateMutability":"view","type":"function"},{"inputs":[],"name":"renounceOwnership","outputs":[],"stateMutability":"nonpayable","type":"function"},{"inputs":[{"internalType":"uint256","name":"bid","type":"uint256"},{"internalType":"bytes32","name":"salt","type":"bytes32"}],"name":"revealBid","outputs":[],"stateMutability":"nonpayable","type":"function"},{"inputs":[{"internalType":"address","name":"_newGameMaster","type":"address"}],"name":"setGameMaster","outputs":[],"stateMutability":"nonpayable","type":"function"},{"inputs":[],"name":"startGames","outputs":[{"internalType":"bool","name":"","type":"bool"}],"stateMutability":"nonpayable","type":"function"},{"inputs":[{"internalType":"address","name":"newOwner","type":"address"}],"name":"transferOwnership","outputs":[],"stateMutability":"nonpayable","type":"function"}],"evm":{"bytecode":{"linkReferences":{},"object":"60808060405234608757331560715760008054336001600160a01b0319821681178355916001600160a01b03909116907f8be0079c531659141344cd1fd0a4f28419497f9722a3daafe3b4186f6b6457e09080a3600180546001600160a01b031916331790556123e7908161008d8239f35b631e4fbdf760e01b600052600060045260246000fd5b600080fdfe6080604052600436101561001257600080fd5b60003560e01c806312b19a131461161a5780631bb412d6146115fc57806325b05c88146111375780633532804d146115615780633c4f5a661461148457806347e1d550146113a657806353fb1cd21461130b578063572e85ec146112be578063574a5b201461127f57806362c5424a146112605780636cbc2ded146111ca578063715018a614611171578063773b549d146111375780637fbbe46f14610ca757806384cd7d3314610c3857806386a2cc2714610a7a5780638b5b9ccc146109855780638da5cb5b1461095c578063bbda33d9146108b5578063bdf84ae71461088c578063c04c594714610727578063c2e949271461066c578063d0f3a21e146105ba578063d216b62b1461054b578063e81de9f51461043d578063ea17532e14610232578063f2fde38b146101a95763ffde0c741461015057600080fd5b346101a45760203660031901126101a45760043580151580610198575b61017690611714565b6000526003602052602060ff6040600020541661019660405180926116d6565bf35b5060025481111561016d565b600080fd5b346101a45760203660031901126101a4576101c2611667565b6101ca612157565b6001600160a01b0316801561021c57600080546001600160a01b03198116831782556001600160a01b0316907f8be0079c531659141344cd1fd0a4f28419497f9722a3daafe3b4186f6b6457e09080a3005b631e4fbdf760e01b600052600060045260246000fd5b346101a45760203660031901126101a45760043580151580610431575b61025890611714565b60005260036020526040600020600581019081549061027682611825565b926102846040519485611803565b828452601f1961029384611825565b0160005b8181106103f057505060006007830192600a810192600d8201906009600e84019301935b878110610349578860405180916020820160208352815180915260206040840192019060005b8181106102ef575050500390f35b91935091602060c060019260a087518580831b0381511683528481015185840152604081015160408401526060810151151560608401526080810151151560808401520151151560a08201520194019101918493926102e1565b8061035660019284611d06565b905460039190911b1c60a083901b83900316600081815260208a81526040808320548b835281842054898452828520548b855283862054948d9052948390205492519560ff9384169594841694909316929091906103b3876117e7565b8652602086015260408501521515606084015215156080830152151560a08201526103de828c6118b2565b526103e9818b6118b2565b50016102bb565b6020906040516103ff816117e7565b60008152600083820152600060408201526000606082015260006080820152600060a082015282828901015201610297565b5060025481111561024f565b346101a45760003660031901126101a45761046360018060a01b03600154163314611caa565b6001805b600254811161053e5780600052600360205260406000209060ff8254166005811015610528576001148061051b575b1561050d57600260ff1983541617825560018083015560784201918242116104f7576000805160206123928339815191526060846011846104f297600288970155015490604051918252600160208301526040820152a2611793565b610467565b634e487b7160e01b600052601160045260246000fd5b9150506104f2600091611793565b5060088201541515610496565b634e487b7160e01b600052602160045260246000fd5b6020826040519015158152f35b346101a45760403660031901126101a45760043561056761167d565b90801515806105ae575b61057a90611714565b6000526003602052600e6040600020019060018060a01b0316600052602052602060ff604060002054166040519015158152f35b50600254811115610571565b346101a45760003660031901126101a45760015b600254811161066a5780600052600360205260406000209060ff825416916005831015610528576002610607931461060c575b50611793565b6105ce565b6001810154600181148061065d575b1561063157505061062b81611dac565b82610601565b600214908161064f575b501561062b5761064a81611fe5565b61062b565b60029150015442118361063b565b506002820154421161061b565b005b346101a45760203660031901126101a457610685611667565b61068d612157565b6001600160a01b031680156106e2576020817f63860f6674590a6969c4fe1dc738a9c8f955407c09e6c67a6bdb818f4c35cd8a926bffffffffffffffffffffffff60a01b6001541617600155604051908152a1005b60405162461bcd60e51b815260206004820152601a60248201527f496e76616c69642047616d654d617374657220616464726573730000000000006044820152606490fd5b346101a45760003660031901126101a45760025461074481611825565b906107526040519283611803565b808252601f1961076182611825565b0160005b81811061085957505060015b818111156107e8578260405180916020820160208352815180915260206040840192019060005b8181106107a6575050500390f35b919350916020608060019260608751805183526107c985820151868501906116d6565b6040810151604084015201516060820152019401910191849392610798565b80600052600360205260406000209060ff82541691600860018201549101549061082460405194610818866117cb565b848652602086016118dc565b604084015260608301526000198101918183116104f757826106019161084d61085495886118b2565b52856118b2565b610771565b602090604051610868816117cb565b60008152600083820152600060408201526000606082015282828701015201610765565b346101a45760003660031901126101a4576001546040516001600160a01b039091168152602090f35b346101a45760003660031901126101a4576040516040810181811067ffffffffffffffff82111761094657604052600781526642696464696e6760c81b602082015260405190602082528181519182602083015260005b83811061092e5750508160006040809484010152601f80199101168101030190f35b6020828201810151604087840101528593500161090c565b634e487b7160e01b600052604160045260246000fd5b346101a45760003660031901126101a4576000546040516001600160a01b039091168152602090f35b346101a45760003660031901126101a457600254600160005b82821115610a4f576109b0915061183d565b6000916001905b808211156109d157604051806109cd8582611693565b0390f35b6109f8908260009493945260036020526109ff60056040600020016040519384809261186f565b0383611803565b60005b8251811015610a3c576001906001600160a01b03610a2082866118b2565b5116610a35610a2e89611793565b98876118b2565b5201610a02565b509192610a499150611793565b906109b7565b610a6e610a7491836000526003602052600560406000200154906117a2565b91611793565b9061099e565b346101a45760203660031901126101a457336000526005602052610aa560ff604060002054166118e8565b336000526004602052604060002054806000526003602052604060002060ff8154166005811015610528576002610adc911461192d565b6001810190610aee6001835414611d6a565b600281019182544211610bfd57336000908152600d8301602081905260409091205460ff16610bc457336000908152600b840160209081526040808320600435905592905220805460ff19166001179055600f82018054909190610b5190611793565b8092556040519133867f2e6ed0cae7a81e1893017dfafd5fbaf8594adcc50ff27b5f8eb70e0e90acf315600080a3600884015414610b8b57005b60029055607842018042116104f757601160609382600080516020612392833981519152965501548252600260208301526040820152a2005b60405162461bcd60e51b8152602060048201526011602482015270105b1c9958591e4818dbdb5b5a5d1d1959607a1b6044820152606490fd5b60405162461bcd60e51b815260206004820152601360248201527210dbdb5b5a5d081c195c9a5bd908195b991959606a1b6044820152606490fd5b346101a45760403660031901126101a457600435610c5461167d565b9080151580610c9b575b610c6790611714565b6000526003602052600d6040600020019060018060a01b0316600052602052602060ff604060002054166040519015158152f35b50600254811115610c5e565b346101a45760403660031901126101a45760043567ffffffffffffffff81116101a457610cd89036906004016116e3565b60243567ffffffffffffffff81116101a457610cf89036906004016116e3565b610d1060018060a09594951b03600154163314611caa565b81156110fc578082036110b7576002821061107257600a8201928383116104f757600983019384116104f7576000600a85041561105e5750600a84048304936000958690875b600a84048110610d64578880f35b610d6f600254611793565b9081600255818a52600360205260408a2091600160ff19845416178355600160118401554260038401558990600a87048a068310611037575b908b915b818310610e2b57505050610dce6040519260408452600560408501910161186f565b82810360208401528781526001600160fb1b038811610e27578260206001947fb66ba8feaec509998ef3217bc97fbf1a0f906b89fac25a4ace8ddff059a41f12938b60051b8b848301378b60051b01030190a101610d56565b8a80fd5b909195610e39818c88611cf6565b356001600160a01b0381168103611033576001600160a01b03811615610ff5578d9060018060a01b038116825260056020528b8b8860ff604086205416610f41575b92610e9d86604094610f389794610e9885600560019c9a01611d1e565b611cf6565b35868060a01b038216835260078b0160205283832055858060a01b038116825260068a016020528282208660ff19825416179055610ede8160088c01611d1e565b60a086901b8690031680825260098a016020908152838320805460ff199081168917909155828452600a8c018252848420606490558284526004825284842089905591835260059052919020805490911684179055611793565b96019190610dac565b5050506001600160a01b038116909152600460205260408e20548015908f908215610fbd575b505015610f78578d908b8b88610e7b565b60405162461bcd60e51b815260206004820152601d60248201527f506c6179657220616c726561647920696e206163746976652067616d650000006044820152606490fd5b81526003602052604090205460ff1690506005811015610fe1576004148e38610f67565b634e487b7160e01b8f52602160045260248ffd5b60405162461bcd60e51b8152602060048201526016602482015275496e76616c696420706c61796572206164647265737360501b6044820152606490fd5b8d80fd5b905060018a01808b1161104a5790610da8565b634e487b7160e01b8c52601160045260248cfd5b634e487b7160e01b81526012600452602490fd5b60405162461bcd60e51b815260206004820152601760248201527f4e656564206174206c65617374203220706c61796572730000000000000000006044820152606490fd5b60405162461bcd60e51b815260206004820152601860248201527f4172726179206c656e67746873206d757374206d6174636800000000000000006044820152606490fd5b60405162461bcd60e51b8152602060048201526013602482015272139bc81c1b185e595c9cc81c1c9bdd9a591959606a1b6044820152606490fd5b346101a45760203660031901126101a4576001600160a01b03611158611667565b1660005260046020526020604060002054604051908152f35b346101a45760003660031901126101a45761118a612157565b600080546001600160a01b0319811682556001600160a01b03167f8be0079c531659141344cd1fd0a4f28419497f9722a3daafe3b4186f6b6457e08280a3005b346101a45760003660031901126101a4576111f060018060a01b03600154163314611caa565b60405160206111ff8183611803565b60008252600036813760015b600254811161125257806000526003825260ff6040600020541690600582101561052857600261123f921461124457611793565b61120b565b61124d81611fe5565b611793565b604051806109cd8582611693565b346101a45760403660031901126101a45761066a60243560043561196b565b346101a45760203660031901126101a4576001600160a01b036112a0611667565b166000526005602052602060ff604060002054166040519015158152f35b346101a45760203660031901126101a457600435801515806112ff575b6112e490611714565b60005260036020526020600160406000200154604051908152f35b506002548111156112db565b346101a45760403660031901126101a45760043561132761167d565b908015158061139a575b61133a90611714565b806000526003602052600660406000200160018060a01b03831660005260205261136b60ff60406000205416611752565b6000526003602052600a6040600020019060018060a01b03166000526020526020604060002054604051908152f35b50600254811115611331565b346101a45760203660031901126101a457600435600060806040516113ca816117af565b828152826020820152826040820152826060820152015280151580611478575b6113f390611714565b600052600360205260a0604060002060ff81541690601181015490600281015460046003830154920154926114346040519561142e876117af565b866118dc565b6020850190815260408501918252606085019283526080850193845261145e6040518096516116d6565b516020850152516040840152516060830152516080820152f35b506002548111156113ea565b346101a45760003660031901126101a457600254600160005b8282111561153c576114af915061183d565b6000916001905b808211156114cc57604051806109cd8582611693565b6109f8908260009493945260036020526114f360086040600020016040519384809261186f565b60005b8251811015611529576001906001600160a01b0361151482866118b2565b5116611522610a2e89611793565b52016114f6565b5091926115369150611793565b906114b6565b610a6e61155b91836000526003602052600860406000200154906117a2565b9061149d565b346101a45760403660031901126101a45760043561157d61167d565b90801515806115f0575b61159090611714565b806000526003602052600660406000200160018060a01b0383166000526020526115c160ff60406000205416611752565b600052600360205260076040600020019060018060a01b03166000526020526020604060002054604051908152f35b50600254811115611587565b346101a45760003660031901126101a4576020600254604051908152f35b346101a45760203660031901126101a4576004358015158061165b575b61164090611714565b60005260036020526020600260406000200154604051908152f35b50600254811115611637565b600435906001600160a01b03821682036101a457565b602435906001600160a01b03821682036101a457565b602060408183019282815284518094520192019060005b8181106116b75750505090565b82516001600160a01b03168452602093840193909201916001016116aa565b9060058210156105285752565b9181601f840112156101a45782359167ffffffffffffffff83116101a4576020808501948460051b0101116101a457565b1561171b57565b60405162461bcd60e51b815260206004820152600f60248201526e125b9d985b1a590819d85b59481251608a1b6044820152606490fd5b1561175957565b60405162461bcd60e51b8152602060048201526012602482015271506c61796572206e6f7420696e2067616d6560701b6044820152606490fd5b60001981146104f75760010190565b919082018092116104f757565b60a0810190811067ffffffffffffffff82111761094657604052565b6080810190811067ffffffffffffffff82111761094657604052565b60c0810190811067ffffffffffffffff82111761094657604052565b90601f8019910116810190811067ffffffffffffffff82111761094657604052565b67ffffffffffffffff81116109465760051b60200190565b9061184782611825565b6118546040519182611803565b8281528092611865601f1991611825565b0190602036910137565b906020825491828152019160005260206000209060005b8181106118935750505090565b82546001600160a01b0316845260209093019260019283019201611886565b80518210156118c65760209160051b010190565b634e487b7160e01b600052603260045260246000fd5b60058210156105285752565b156118ef57565b60405162461bcd60e51b8152602060048201526016602482015275506c61796572206e6f7420696e20616e792067616d6560501b6044820152606490fd5b1561193457565b60405162461bcd60e51b815260206004820152600f60248201526e47616d65206e6f742061637469766560881b6044820152606490fd5b9033600052600560205261198660ff604060002054166118e8565b33600052600460205260406000205491826000526003602052604060002060ff81541660058110156105285760026119be911461192d565b336000908152600d8201602052604090205460ff1615611c7157600e81019060018060a01b0333166000528160205260ff60406000205416611c3957336000908152600a820160205260409020548311611bf45760018101600181541480611be7575b611bc1575b5460011901611b8657600281019384544211611b4b57604051602081019185835260408201523360601b606082015260548152611a64607482611803565b519020336000908152600b8301602052604090205403611b1557336000908152600c82016020908152604080832086905593905291909120805460ff19166001179055601081018054909260089291611abc90611793565b809455604051908152857f0319fcec55b5300a4dcc6f96b2df475a149433dc721ba7d96c8fb14495b748ac60203393a3015414908115611b0a575b50611aff5750565b611b0890611fe5565b565b905054421138611af7565b60405162461bcd60e51b815260206004820152600e60248201526d125b9d985b1a59081c995d99585b60921b6044820152606490fd5b60405162461bcd60e51b815260206004820152601360248201527214995d99585b081c195c9a5bd908195b991959606a1b6044820152606490fd5b60405162461bcd60e51b81526020600482015260136024820152724e6f7420696e2072657665616c20737461676560681b6044820152606490fd5b611bca86611dac565b60ff825416600581101561052857600403611a2657505050505050565b5060028201544211611a21565b60405162461bcd60e51b815260206004820152601c60248201527f426964206578636565647320617661696c61626c6520706f696e7473000000006044820152606490fd5b60405162461bcd60e51b815260206004820152601060248201526f105b1c9958591e481c995d99585b195960821b6044820152606490fd5b60405162461bcd60e51b8152602060048201526011602482015270135d5cdd0818dbdb5b5a5d08199a5c9cdd607a1b6044820152606490fd5b15611cb157565b60405162461bcd60e51b815260206004820152601860248201527f4f6e6c792047616d654d61737465722063616e2063616c6c00000000000000006044820152606490fd5b91908110156118c65760051b0190565b80548210156118c65760005260206000200190600090565b90815491680100000000000000008310156109465782611d46916001611b0895018155611d06565b81546001600160a01b0393841660039290921b91821b9390911b1916919091179055565b15611d7157565b60405162461bcd60e51b81526020600482015260136024820152724e6f7420696e20636f6d6d697420737461676560681b6044820152606490fd5b80600052600360205260406000206001810190611dcc6001835414611d6a565b60028101805442118015611fd4575b15611f8f57600f8201549260088301938454809114611f4e57611dfd8161183d565b600091600d8601835b828110611ee15750505060005b828110611ebb575050506002845410600014611e7b5750507fa7690f576eaef889ef9ef29d1eaee6c0e3b073108b66bb8009ec8af6428bb34591611e7691600460ff1982541617815560044291015560405191829160208352602083019061186f565b0390a2565b600291935055607842018042116104f7576011606092826000805160206123928339815191529555015490604051918252600260208301526040820152a2565b600190611edb6001600160a01b03611ed383866118b2565b51168a612180565b01611e13565b8060ff6040611ef26001948d611d06565b905460039190911b1c60a085901b859003166000908152602086905220541615611f1d575b01611e06565b611f27818b611d06565b838060a01b0391549060031b1c16611f48611f4188611793565b97876118b2565b52611f17565b50600291935055607842018042116104f7576011606092826000805160206123928339815191529555015490604051918252600260208301526040820152a2565b60405162461bcd60e51b815260206004820152601b60248201527f43616e6e6f7420656e6420636f6d6d69742073746167652079657400000000006044820152606490fd5b50600f820154600883015414611ddb565b80600052600360205260406000206008810180546120028161183d565b600091600e8501835b8281106121055750505060005b8281106120df57505050600281541080156120d0575b1561207e57611e76907fa7690f576eaef889ef9ef29d1eaee6c0e3b073108b66bb8009ec8af6428bb34592600460ff1982541617815560044291015560405191829160208352602083019061186f565b50601181019061208e8254611793565b80925560018082015560784201918242116104f757826000805160206123928339815191529360026060940155604051918252600160208301526040820152a2565b50600a6011830154101561202e565b6001906120ff6001600160a01b036120f783866118b2565b511688612180565b01612018565b8061211260019288611d06565b838060a01b0391549060031b1c1660ff60406000858060a01b03841681528660205220541615612144575b500161200b565b612150611f4188611793565b523861213d565b6000546001600160a01b0316330361216b57565b63118cdaa760e01b6000523360045260246000fd5b90600091808352600360205260408320916009830160018060a01b03821685528060205260ff604086205416156123585760018060a01b03821685526020526040842060ff19815416905560018060a01b03169182845260056020526040842060ff19815416905582845260046020528360408120558360088201945b85548082101561234c57856122128389611d06565b905460039190911b1c6001600160a01b03161461223257506001016121fd565b60009692939495961981019081116123385790611d4661225561226e9385611d06565b905460039190911b1c6001600160a01b03169184611d06565b805480156123245760001901906122858282611d06565b81549060018060a01b039060031b1b19169055555b6001546001600160a01b0316803b156123205790808060079493602460405180948193633ef6cf1d60e21b83528b60048401525af1612310575b505083600052016020527f51479c93d7646904d2282e9e79cddf11999ac774b7fd0289e2f59cb4ad0f086a6020604060002054604051908152a3565b8161231a91611803565b386122d4565b5080fd5b634e487b7160e01b83526031600452602483fd5b634e487b7160e01b84526011600452602484fd5b5050909192935061229a565b60405162461bcd60e51b8152602060048201526011602482015270506c61796572206e6f742061637469766560781b6044820152606490fdfefd9d17e5565deea3d25918d95fc398673b9445ef0a96d12eaf3ab2b198756c65a26469706673582212200d2fa0d76e14853628184d6186c0b37a0560a9feec2f488b0d67f9da337b5ef464736f6c634300081c0033","opcodes":"PUSH1 0x80 DUP1 PUSH1 0x40 MSTORE CALLVALUE PUSH1 0x87 JUMPI CALLER ISZERO PUSH1 0x71 JUMPI PUSH1 0x0 DUP1 SLOAD CALLER PUSH1 0x1 PUSH1 0x1 PUSH1 0xA0 SHL SUB NOT DUP3 AND DUP2 OR DUP4 SSTORE SWAP2 PUSH1 0x1 PUSH1 0x1 PUSH1 0xA0 SHL SUB SWAP1 SWAP2 AND SWAP1 PUSH32 0x8BE0079C531659141344CD1FD0A4F28419497F9722A3DAAFE3B4186F6B6457E0 SWAP1 DUP1 LOG3 PUSH1 0x1 DUP1 SLOAD PUSH1 0x1 PUSH1 0x1 PUSH1 0xA0 SHL SUB NOT AND CALLER OR SWAP1 SSTORE PUSH2 0x23E7 SWAP1 DUP2 PUSH2 0x8D DUP3 CODECOPY RETURN JUMPDEST PUSH4 0x1E4FBDF7 PUSH1 0xE0 SHL PUSH1 0x0 MSTORE PUSH1 0x0 PUSH1 0x4 MSTORE PUSH1 0x24 PUSH1 0x0 REVERT JUMPDEST PUSH1 0x0 DUP1 REVERT INVALID PUSH1 0x80 PUSH1 0x40 MSTORE PUSH1 0x4 CALLDATASIZE LT ISZERO PUSH2 0x12 JUMPI PUSH1 0x0 DUP1 REVERT JUMPDEST PUSH1 0x0 CALLDATALOAD PUSH1 0xE0 SHR DUP1 PUSH4 0x12B19A13 EQ PUSH2 0x161A JUMPI DUP1 PUSH4 0x1BB412D6 EQ PUSH2 0x15FC JUMPI DUP1 PUSH4 0x25B05C88 EQ PUSH2 0x1137 JUMPI DUP1 PUSH4 0x3532804D EQ PUSH2 0x1561 JUMPI DUP1 PUSH4 0x3C4F5A66 EQ PUSH2 0x1484 JUMPI DUP1 PUSH4 0x47E1D550 EQ PUSH2 0x13A6 JUMPI DUP1 PUSH4 0x53FB1CD2 EQ PUSH2 0x130B JUMPI DUP1 PUSH4 0x572E85EC EQ PUSH2 0x12BE JUMPI DUP1 PUSH4 0x574A5B20 EQ PUSH2 0x127F JUMPI DUP1 PUSH4 0x62C5424A EQ PUSH2 0x1260 JUMPI DUP1 PUSH4 0x6CBC2DED EQ PUSH2 0x11CA JUMPI DUP1 PUSH4 0x715018A6 EQ PUSH2 0x1171 JUMPI DUP1 PUSH4 0x773B549D EQ PUSH2 0x1137 JUMPI DUP1 PUSH4 0x7FBBE46F EQ PUSH2 0xCA7 JUMPI DUP1 PUSH4 0x84CD7D33 EQ PUSH2 0xC38 JUMPI DUP1 PUSH4 0x86A2CC27 EQ PUSH2 0xA7A JUMPI DUP1 PUSH4 0x8B5B9CCC EQ PUSH2 0x985 JUMPI DUP1 PUSH4 0x8DA5CB5B EQ PUSH2 0x95C JUMPI DUP1 PUSH4 0xBBDA33D9 EQ PUSH2 0x8B5 JUMPI DUP1 PUSH4 0xBDF84AE7 EQ PUSH2 0x88C JUMPI DUP1 PUSH4 0xC04C5947 EQ PUSH2 0x727 JUMPI DUP1 PUSH4 0xC2E94927 EQ PUSH2 0x66C JUMPI DUP1 PUSH4 0xD0F3A21E EQ PUSH2 0x5BA JUMPI DUP1 PUSH4 0xD216B62B EQ PUSH2 0x54B JUMPI DUP1 PUSH4 0xE81DE9F5 EQ PUSH2 0x43D JUMPI DUP1 PUSH4 0xEA17532E EQ PUSH2 0x232 JUMPI DUP1 PUSH4 0xF2FDE38B EQ PUSH2 0x1A9 JUMPI PUSH4 0xFFDE0C74 EQ PUSH2 0x150 JUMPI PUSH1 0x0 DUP1 REVERT JUMPDEST CALLVALUE PUSH2 0x1A4 JUMPI PUSH1 0x20 CALLDATASIZE PUSH1 0x3 NOT ADD SLT PUSH2 0x1A4 JUMPI PUSH1 0x4 CALLDATALOAD DUP1 ISZERO ISZERO DUP1 PUSH2 0x198 JUMPI JUMPDEST PUSH2 0x176 SWAP1 PUSH2 0x1714 JUMP JUMPDEST PUSH1 0x0 MSTORE PUSH1 0x3 PUSH1 0x20 MSTORE PUSH1 0x20 PUSH1 0xFF PUSH1 0x40 PUSH1 0x0 KECCAK256 SLOAD AND PUSH2 0x196 PUSH1 0x40 MLOAD DUP1 SWAP3 PUSH2 0x16D6 JUMP JUMPDEST RETURN JUMPDEST POP PUSH1 0x2 SLOAD DUP2 GT ISZERO PUSH2 0x16D JUMP JUMPDEST PUSH1 0x0 DUP1 REVERT JUMPDEST CALLVALUE PUSH2 0x1A4 JUMPI PUSH1 0x20 CALLDATASIZE PUSH1 0x3 NOT ADD SLT PUSH2 0x1A4 JUMPI PUSH2 0x1C2 PUSH2 0x1667 JUMP JUMPDEST PUSH2 0x1CA PUSH2 0x2157 JUMP JUMPDEST PUSH1 0x1 PUSH1 0x1 PUSH1 0xA0 SHL SUB AND DUP1 ISZERO PUSH2 0x21C JUMPI PUSH1 0x0 DUP1 SLOAD PUSH1 0x1 PUSH1 0x1 PUSH1 0xA0 SHL SUB NOT DUP2 AND DUP4 OR DUP3 SSTORE PUSH1 0x1 PUSH1 0x1 PUSH1 0xA0 SHL SUB AND SWAP1 PUSH32 0x8BE0079C531659141344CD1FD0A4F28419497F9722A3DAAFE3B4186F6B6457E0 SWAP1 DUP1 LOG3 STOP JUMPDEST PUSH4 0x1E4FBDF7 PUSH1 0xE0 SHL PUSH1 0x0 MSTORE PUSH1 0x0 PUSH1 0x4 MSTORE PUSH1 0x24 PUSH1 0x0 REVERT JUMPDEST CALLVALUE PUSH2 0x1A4 JUMPI PUSH1 0x20 CALLDATASIZE PUSH1 0x3 NOT ADD SLT PUSH2 0x1A4 JUMPI PUSH1 0x4 CALLDATALOAD DUP1 ISZERO ISZERO DUP1 PUSH2 0x431 JUMPI JUMPDEST PUSH2 0x258 SWAP1 PUSH2 0x1714 JUMP JUMPDEST PUSH1 0x0 MSTORE PUSH1 0x3 PUSH1 0x20 MSTORE PUSH1 0x40 PUSH1 0x0 KECCAK256 PUSH1 0x5 DUP2 ADD SWAP1 DUP2 SLOAD SWAP1 PUSH2 0x276 DUP3 PUSH2 0x1825 JUMP JUMPDEST SWAP3 PUSH2 0x284 PUSH1 0x40 MLOAD SWAP5 DUP6 PUSH2 0x1803 JUMP JUMPDEST DUP3 DUP5 MSTORE PUSH1 0x1F NOT PUSH2 0x293 DUP5 PUSH2 0x1825 JUMP JUMPDEST ADD PUSH1 0x0 JUMPDEST DUP2 DUP2 LT PUSH2 0x3F0 JUMPI POP POP PUSH1 0x0 PUSH1 0x7 DUP4 ADD SWAP3 PUSH1 0xA DUP2 ADD SWAP3 PUSH1 0xD DUP3 ADD SWAP1 PUSH1 0x9 PUSH1 0xE DUP5 ADD SWAP4 ADD SWAP4 JUMPDEST DUP8 DUP2 LT PUSH2 0x349 JUMPI DUP9 PUSH1 0x40 MLOAD DUP1 SWAP2 PUSH1 0x20 DUP3 ADD PUSH1 0x20 DUP4 MSTORE DUP2 MLOAD DUP1 SWAP2 MSTORE PUSH1 0x20 PUSH1 0x40 DUP5 ADD SWAP3 ADD SWAP1 PUSH1 0x0 JUMPDEST DUP2 DUP2 LT PUSH2 0x2EF JUMPI POP POP POP SUB SWAP1 RETURN JUMPDEST SWAP2 SWAP4 POP SWAP2 PUSH1 0x20 PUSH1 0xC0 PUSH1 0x1 SWAP3 PUSH1 0xA0 DUP8 MLOAD DUP6 DUP1 DUP4 SHL SUB DUP2 MLOAD AND DUP4 MSTORE DUP5 DUP2 ADD MLOAD DUP6 DUP5 ADD MSTORE PUSH1 0x40 DUP2 ADD MLOAD PUSH1 0x40 DUP5 ADD MSTORE PUSH1 0x60 DUP2 ADD MLOAD ISZERO ISZERO PUSH1 0x60 DUP5 ADD MSTORE PUSH1 0x80 DUP2 ADD MLOAD ISZERO ISZERO PUSH1 0x80 DUP5 ADD MSTORE ADD MLOAD ISZERO ISZERO PUSH1 0xA0 DUP3 ADD MSTORE ADD SWAP5 ADD SWAP2 ADD SWAP2 DUP5 SWAP4 SWAP3 PUSH2 0x2E1 JUMP JUMPDEST DUP1 PUSH2 0x356 PUSH1 0x1 SWAP3 DUP5 PUSH2 0x1D06 JUMP JUMPDEST SWAP1 SLOAD PUSH1 0x3 SWAP2 SWAP1 SWAP2 SHL SHR PUSH1 0xA0 DUP4 SWAP1 SHL DUP4 SWAP1 SUB AND PUSH1 0x0 DUP2 DUP2 MSTORE PUSH1 0x20 DUP11 DUP2 MSTORE PUSH1 0x40 DUP1 DUP4 KECCAK256 SLOAD DUP12 DUP4 MSTORE DUP2 DUP5 KECCAK256 SLOAD DUP10 DUP5 MSTORE DUP3 DUP6 KECCAK256 SLOAD DUP12 DUP6 MSTORE DUP4 DUP7 KECCAK256 SLOAD SWAP5 DUP14 SWAP1 MSTORE SWAP5 DUP4 SWAP1 KECCAK256 SLOAD SWAP3 MLOAD SWAP6 PUSH1 0xFF SWAP4 DUP5 AND SWAP6 SWAP5 DUP5 AND SWAP5 SWAP1 SWAP4 AND SWAP3 SWAP1 SWAP2 SWAP1 PUSH2 0x3B3 DUP8 PUSH2 0x17E7 JUMP JUMPDEST DUP7 MSTORE PUSH1 0x20 DUP7 ADD MSTORE PUSH1 0x40 DUP6 ADD MSTORE ISZERO ISZERO PUSH1 0x60 DUP5 ADD MSTORE ISZERO ISZERO PUSH1 0x80 DUP4 ADD MSTORE ISZERO ISZERO PUSH1 0xA0 DUP3 ADD MSTORE PUSH2 0x3DE DUP3 DUP13 PUSH2 0x18B2 JUMP JUMPDEST MSTORE PUSH2 0x3E9 DUP2 DUP12 PUSH2 0x18B2 JUMP JUMPDEST POP ADD PUSH2 0x2BB JUMP JUMPDEST PUSH1 0x20 SWAP1 PUSH1 0x40 MLOAD PUSH2 0x3FF DUP2 PUSH2 0x17E7 JUMP JUMPDEST PUSH1 0x0 DUP2 MSTORE PUSH1 0x0 DUP4 DUP3 ADD MSTORE PUSH1 0x0 PUSH1 0x40 DUP3 ADD MSTORE PUSH1 0x0 PUSH1 0x60 DUP3 ADD MSTORE PUSH1 0x0 PUSH1 0x80 DUP3 ADD MSTORE PUSH1 0x0 PUSH1 0xA0 DUP3 ADD MSTORE DUP3 DUP3 DUP10 ADD ADD MSTORE ADD PUSH2 0x297 JUMP JUMPDEST POP PUSH1 0x2 SLOAD DUP2 GT ISZERO PUSH2 0x24F JUMP JUMPDEST CALLVALUE PUSH2 0x1A4 JUMPI PUSH1 0x0 CALLDATASIZE PUSH1 0x3 NOT ADD SLT PUSH2 0x1A4 JUMPI PUSH2 0x463 PUSH1 0x1 DUP1 PUSH1 0xA0 SHL SUB PUSH1 0x1 SLOAD AND CALLER EQ PUSH2 0x1CAA JUMP JUMPDEST PUSH1 0x1 DUP1 JUMPDEST PUSH1 0x2 SLOAD DUP2 GT PUSH2 0x53E JUMPI DUP1 PUSH1 0x0 MSTORE PUSH1 0x3 PUSH1 0x20 MSTORE PUSH1 0x40 PUSH1 0x0 KECCAK256 SWAP1 PUSH1 0xFF DUP3 SLOAD AND PUSH1 0x5 DUP2 LT ISZERO PUSH2 0x528 JUMPI PUSH1 0x1 EQ DUP1 PUSH2 0x51B JUMPI JUMPDEST ISZERO PUSH2 0x50D JUMPI PUSH1 0x2 PUSH1 0xFF NOT DUP4 SLOAD AND OR DUP3 SSTORE PUSH1 0x1 DUP1 DUP4 ADD SSTORE PUSH1 0x78 TIMESTAMP ADD SWAP2 DUP3 TIMESTAMP GT PUSH2 0x4F7 JUMPI PUSH1 0x0 DUP1 MLOAD PUSH1 0x20 PUSH2 0x2392 DUP4 CODECOPY DUP2 MLOAD SWAP2 MSTORE PUSH1 0x60 DUP5 PUSH1 0x11 DUP5 PUSH2 0x4F2 SWAP8 PUSH1 0x2 DUP9 SWAP8 ADD SSTORE ADD SLOAD SWAP1 PUSH1 0x40 MLOAD SWAP2 DUP3 MSTORE PUSH1 0x1 PUSH1 0x20 DUP4 ADD MSTORE PUSH1 0x40 DUP3 ADD MSTORE LOG2 PUSH2 0x1793 JUMP JUMPDEST PUSH2 0x467 JUMP JUMPDEST PUSH4 0x4E487B71 PUSH1 0xE0 SHL PUSH1 0x0 MSTORE PUSH1 0x11 PUSH1 0x4 MSTORE PUSH1 0x24 PUSH1 0x0 REVERT JUMPDEST SWAP2 POP POP PUSH2 0x4F2 PUSH1 0x0 SWAP2 PUSH2 0x1793 JUMP JUMPDEST POP PUSH1 0x8 DUP3 ADD SLOAD ISZERO ISZERO PUSH2 0x496 JUMP JUMPDEST PUSH4 0x4E487B71 PUSH1 0xE0 SHL PUSH1 0x0 MSTORE PUSH1 0x21 PUSH1 0x4 MSTORE PUSH1 0x24 PUSH1 0x0 REVERT JUMPDEST PUSH1 0x20 DUP3 PUSH1 0x40 MLOAD SWAP1 ISZERO ISZERO DUP2 MSTORE RETURN JUMPDEST CALLVALUE PUSH2 0x1A4 JUMPI PUSH1 0x40 CALLDATASIZE PUSH1 0x3 NOT ADD SLT PUSH2 0x1A4 JUMPI PUSH1 0x4 CALLDATALOAD PUSH2 0x567 PUSH2 0x167D JUMP JUMPDEST SWAP1 DUP1 ISZERO ISZERO DUP1 PUSH2 0x5AE JUMPI JUMPDEST PUSH2 0x57A SWAP1 PUSH2 0x1714 JUMP JUMPDEST PUSH1 0x0 MSTORE PUSH1 0x3 PUSH1 0x20 MSTORE PUSH1 0xE PUSH1 0x40 PUSH1 0x0 KECCAK256 ADD SWAP1 PUSH1 0x1 DUP1 PUSH1 0xA0 SHL SUB AND PUSH1 0x0 MSTORE PUSH1 0x20 MSTORE PUSH1 0x20 PUSH1 0xFF PUSH1 0x40 PUSH1 0x0 KECCAK256 SLOAD AND PUSH1 0x40 MLOAD SWAP1 ISZERO ISZERO DUP2 MSTORE RETURN JUMPDEST POP PUSH1 0x2 SLOAD DUP2 GT ISZERO PUSH2 0x571 JUMP JUMPDEST CALLVALUE PUSH2 0x1A4 JUMPI PUSH1 0x0 CALLDATASIZE PUSH1 0x3 NOT ADD SLT PUSH2 0x1A4 JUMPI PUSH1 0x1 JUMPDEST PUSH1 0x2 SLOAD DUP2 GT PUSH2 0x66A JUMPI DUP1 PUSH1 0x0 MSTORE PUSH1 0x3 PUSH1 0x20 MSTORE PUSH1 0x40 PUSH1 0x0 KECCAK256 SWAP1 PUSH1 0xFF DUP3 SLOAD AND SWAP2 PUSH1 0x5 DUP4 LT ISZERO PUSH2 0x528 JUMPI PUSH1 0x2 PUSH2 0x607 SWAP4 EQ PUSH2 0x60C JUMPI JUMPDEST POP PUSH2 0x1793 JUMP JUMPDEST PUSH2 0x5CE JUMP JUMPDEST PUSH1 0x1 DUP2 ADD SLOAD PUSH1 0x1 DUP2 EQ DUP1 PUSH2 0x65D JUMPI JUMPDEST ISZERO PUSH2 0x631 JUMPI POP POP PUSH2 0x62B DUP2 PUSH2 0x1DAC JUMP JUMPDEST DUP3 PUSH2 0x601 JUMP JUMPDEST PUSH1 0x2 EQ SWAP1 DUP2 PUSH2 0x64F JUMPI JUMPDEST POP ISZERO PUSH2 0x62B JUMPI PUSH2 0x64A DUP2 PUSH2 0x1FE5 JUMP JUMPDEST PUSH2 0x62B JUMP JUMPDEST PUSH1 0x2 SWAP2 POP ADD SLOAD TIMESTAMP GT DUP4 PUSH2 0x63B JUMP JUMPDEST POP PUSH1 0x2 DUP3 ADD SLOAD TIMESTAMP GT PUSH2 0x61B JUMP JUMPDEST STOP JUMPDEST CALLVALUE PUSH2 0x1A4 JUMPI PUSH1 0x20 CALLDATASIZE PUSH1 0x3 NOT ADD SLT PUSH2 0x1A4 JUMPI PUSH2 0x685 PUSH2 0x1667 JUMP JUMPDEST PUSH2 0x68D PUSH2 0x2157 JUMP JUMPDEST PUSH1 0x1 PUSH1 0x1 PUSH1 0xA0 SHL SUB AND DUP1 ISZERO PUSH2 0x6E2 JUMPI PUSH1 0x20 DUP2 PUSH32 0x63860F6674590A6969C4FE1DC738A9C8F955407C09E6C67A6BDB818F4C35CD8A SWAP3 PUSH12 0xFFFFFFFFFFFFFFFFFFFFFFFF PUSH1 0xA0 SHL PUSH1 0x1 SLOAD AND OR PUSH1 0x1 SSTORE PUSH1 0x40 MLOAD SWAP1 DUP2 MSTORE LOG1 STOP JUMPDEST PUSH1 0x40 MLOAD PUSH3 0x461BCD PUSH1 0xE5 SHL DUP2 MSTORE PUSH1 0x20 PUSH1 0x4 DUP3 ADD MSTORE PUSH1 0x1A PUSH1 0x24 DUP3 ADD MSTORE PUSH32 0x496E76616C69642047616D654D61737465722061646472657373000000000000 PUSH1 0x44 DUP3 ADD MSTORE PUSH1 0x64 SWAP1 REVERT JUMPDEST CALLVALUE PUSH2 0x1A4 JUMPI PUSH1 0x0 CALLDATASIZE PUSH1 0x3 NOT ADD SLT PUSH2 0x1A4 JUMPI PUSH1 0x2 SLOAD PUSH2 0x744 DUP2 PUSH2 0x1825 JUMP JUMPDEST SWAP1 PUSH2 0x752 PUSH1 0x40 MLOAD SWAP3 DUP4 PUSH2 0x1803 JUMP JUMPDEST DUP1 DUP3 MSTORE PUSH1 0x1F NOT PUSH2 0x761 DUP3 PUSH2 0x1825 JUMP JUMPDEST ADD PUSH1 0x0 JUMPDEST DUP2 DUP2 LT PUSH2 0x859 JUMPI POP POP PUSH1 0x1 JUMPDEST DUP2 DUP2 GT ISZERO PUSH2 0x7E8 JUMPI DUP3 PUSH1 0x40 MLOAD DUP1 SWAP2 PUSH1 0x20 DUP3 ADD PUSH1 0x20 DUP4 MSTORE DUP2 MLOAD DUP1 SWAP2 MSTORE PUSH1 0x20 PUSH1 0x40 DUP5 ADD SWAP3 ADD SWAP1 PUSH1 0x0 JUMPDEST DUP2 DUP2 LT PUSH2 0x7A6 JUMPI POP POP POP SUB SWAP1 RETURN JUMPDEST SWAP2 SWAP4 POP SWAP2 PUSH1 0x20 PUSH1 0x80 PUSH1 0x1 SWAP3 PUSH1 0x60 DUP8 MLOAD DUP1 MLOAD DUP4 MSTORE PUSH2 0x7C9 DUP6 DUP3 ADD MLOAD DUP7 DUP6 ADD SWAP1 PUSH2 0x16D6 JUMP JUMPDEST PUSH1 0x40 DUP2 ADD MLOAD PUSH1 0x40 DUP5 ADD MSTORE ADD MLOAD PUSH1 0x60 DUP3 ADD MSTORE ADD SWAP5 ADD SWAP2 ADD SWAP2 DUP5 SWAP4 SWAP3 PUSH2 0x798 JUMP JUMPDEST DUP1 PUSH1 0x0 MSTORE PUSH1 0x3 PUSH1 0x20 MSTORE PUSH1 0x40 PUSH1 0x0 KECCAK256 SWAP1 PUSH1 0xFF DUP3 SLOAD AND SWAP2 PUSH1 0x8 PUSH1 0x1 DUP3 ADD SLOAD SWAP2 ADD SLOAD SWAP1 PUSH2 0x824 PUSH1 0x40 MLOAD SWAP5 PUSH2 0x818 DUP7 PUSH2 0x17CB JUMP JUMPDEST DUP5 DUP7 MSTORE PUSH1 0x20 DUP7 ADD PUSH2 0x18DC JUMP JUMPDEST PUSH1 0x40 DUP5 ADD MSTORE PUSH1 0x60 DUP4 ADD MSTORE PUSH1 0x0 NOT DUP2 ADD SWAP2 DUP2 DUP4 GT PUSH2 0x4F7 JUMPI DUP3 PUSH2 0x601 SWAP2 PUSH2 0x84D PUSH2 0x854 SWAP6 DUP9 PUSH2 0x18B2 JUMP JUMPDEST MSTORE DUP6 PUSH2 0x18B2 JUMP JUMPDEST PUSH2 0x771 JUMP JUMPDEST PUSH1 0x20 SWAP1 PUSH1 0x40 MLOAD PUSH2 0x868 DUP2 PUSH2 0x17CB JUMP JUMPDEST PUSH1 0x0 DUP2 MSTORE PUSH1 0x0 DUP4 DUP3 ADD MSTORE PUSH1 0x0 PUSH1 0x40 DUP3 ADD MSTORE PUSH1 0x0 PUSH1 0x60 DUP3 ADD MSTORE DUP3 DUP3 DUP8 ADD ADD MSTORE ADD PUSH2 0x765 JUMP JUMPDEST CALLVALUE PUSH2 0x1A4 JUMPI PUSH1 0x0 CALLDATASIZE PUSH1 0x3 NOT ADD SLT PUSH2 0x1A4 JUMPI PUSH1 0x1 SLOAD PUSH1 0x40 MLOAD PUSH1 0x1 PUSH1 0x1 PUSH1 0xA0 SHL SUB SWAP1 SWAP2 AND DUP2 MSTORE PUSH1 0x20 SWAP1 RETURN JUMPDEST CALLVALUE PUSH2 0x1A4 JUMPI PUSH1 0x0 CALLDATASIZE PUSH1 0x3 NOT ADD SLT PUSH2 0x1A4 JUMPI PUSH1 0x40 MLOAD PUSH1 0x40 DUP2 ADD DUP2 DUP2 LT PUSH8 0xFFFFFFFFFFFFFFFF DUP3 GT OR PUSH2 0x946 JUMPI PUSH1 0x40 MSTORE PUSH1 0x7 DUP2 MSTORE PUSH7 0x42696464696E67 PUSH1 0xC8 SHL PUSH1 0x20 DUP3 ADD MSTORE PUSH1 0x40 MLOAD SWAP1 PUSH1 0x20 DUP3 MSTORE DUP2 DUP2 MLOAD SWAP2 DUP3 PUSH1 0x20 DUP4 ADD MSTORE PUSH1 0x0 JUMPDEST DUP4 DUP2 LT PUSH2 0x92E JUMPI POP POP DUP2 PUSH1 0x0 PUSH1 0x40 DUP1 SWAP5 DUP5 ADD ADD MSTORE PUSH1 0x1F DUP1 NOT SWAP2 ADD AND DUP2 ADD SUB ADD SWAP1 RETURN JUMPDEST PUSH1 0x20 DUP3 DUP3 ADD DUP2 ADD MLOAD PUSH1 0x40 DUP8 DUP5 ADD ADD MSTORE DUP6 SWAP4 POP ADD PUSH2 0x90C JUMP JUMPDEST PUSH4 0x4E487B71 PUSH1 0xE0 SHL PUSH1 0x0 MSTORE PUSH1 0x41 PUSH1 0x4 MSTORE PUSH1 0x24 PUSH1 0x0 REVERT JUMPDEST CALLVALUE PUSH2 0x1A4 JUMPI PUSH1 0x0 CALLDATASIZE PUSH1 0x3 NOT ADD SLT PUSH2 0x1A4 JUMPI PUSH1 0x0 SLOAD PUSH1 0x40 MLOAD PUSH1 0x1 PUSH1 0x1 PUSH1 0xA0 SHL SUB SWAP1 SWAP2 AND DUP2 MSTORE PUSH1 0x20 SWAP1 RETURN JUMPDEST CALLVALUE PUSH2 0x1A4 JUMPI PUSH1 0x0 CALLDATASIZE PUSH1 0x3 NOT ADD SLT PUSH2 0x1A4 JUMPI PUSH1 0x2 SLOAD PUSH1 0x1 PUSH1 0x0 JUMPDEST DUP3 DUP3 GT ISZERO PUSH2 0xA4F JUMPI PUSH2 0x9B0 SWAP2 POP PUSH2 0x183D JUMP JUMPDEST PUSH1 0x0 SWAP2 PUSH1 0x1 SWAP1 JUMPDEST DUP1 DUP3 GT ISZERO PUSH2 0x9D1 JUMPI PUSH1 0x40 MLOAD DUP1 PUSH2 0x9CD DUP6 DUP3 PUSH2 0x1693 JUMP JUMPDEST SUB SWAP1 RETURN JUMPDEST PUSH2 0x9F8 SWAP1 DUP3 PUSH1 0x0 SWAP5 SWAP4 SWAP5 MSTORE PUSH1 0x3 PUSH1 0x20 MSTORE PUSH2 0x9FF PUSH1 0x5 PUSH1 0x40 PUSH1 0x0 KECCAK256 ADD PUSH1 0x40 MLOAD SWAP4 DUP5 DUP1 SWAP3 PUSH2 0x186F JUMP JUMPDEST SUB DUP4 PUSH2 0x1803 JUMP JUMPDEST PUSH1 0x0 JUMPDEST DUP3 MLOAD DUP2 LT ISZERO PUSH2 0xA3C JUMPI PUSH1 0x1 SWAP1 PUSH1 0x1 PUSH1 0x1 PUSH1 0xA0 SHL SUB PUSH2 0xA20 DUP3 DUP7 PUSH2 0x18B2 JUMP JUMPDEST MLOAD AND PUSH2 0xA35 PUSH2 0xA2E DUP10 PUSH2 0x1793 JUMP JUMPDEST SWAP9 DUP8 PUSH2 0x18B2 JUMP JUMPDEST MSTORE ADD PUSH2 0xA02 JUMP JUMPDEST POP SWAP2 SWAP3 PUSH2 0xA49 SWAP2 POP PUSH2 0x1793 JUMP JUMPDEST SWAP1 PUSH2 0x9B7 JUMP JUMPDEST PUSH2 0xA6E PUSH2 0xA74 SWAP2 DUP4 PUSH1 0x0 MSTORE PUSH1 0x3 PUSH1 0x20 MSTORE PUSH1 0x5 PUSH1 0x40 PUSH1 0x0 KECCAK256 ADD SLOAD SWAP1 PUSH2 0x17A2 JUMP JUMPDEST SWAP2 PUSH2 0x1793 JUMP JUMPDEST SWAP1 PUSH2 0x99E JUMP JUMPDEST CALLVALUE PUSH2 0x1A4 JUMPI PUSH1 0x20 CALLDATASIZE PUSH1 0x3 NOT ADD SLT PUSH2 0x1A4 JUMPI CALLER PUSH1 0x0 MSTORE PUSH1 0x5 PUSH1 0x20 MSTORE PUSH2 0xAA5 PUSH1 0xFF PUSH1 0x40 PUSH1 0x0 KECCAK256 SLOAD AND PUSH2 0x18E8 JUMP JUMPDEST CALLER PUSH1 0x0 MSTORE PUSH1 0x4 PUSH1 0x20 MSTORE PUSH1 0x40 PUSH1 0x0 KECCAK256 SLOAD DUP1 PUSH1 0x0 MSTORE PUSH1 0x3 PUSH1 0x20 MSTORE PUSH1 0x40 PUSH1 0x0 KECCAK256 PUSH1 0xFF DUP2 SLOAD AND PUSH1 0x5 DUP2 LT ISZERO PUSH2 0x528 JUMPI PUSH1 0x2 PUSH2 0xADC SWAP2 EQ PUSH2 0x192D JUMP JUMPDEST PUSH1 0x1 DUP2 ADD SWAP1 PUSH2 0xAEE PUSH1 0x1 DUP4 SLOAD EQ PUSH2 0x1D6A JUMP JUMPDEST PUSH1 0x2 DUP2 ADD SWAP2 DUP3 SLOAD TIMESTAMP GT PUSH2 0xBFD JUMPI CALLER PUSH1 0x0 SWAP1 DUP2 MSTORE PUSH1 0xD DUP4 ADD PUSH1 0x20 DUP2 SWAP1 MSTORE PUSH1 0x40 SWAP1 SWAP2 KECCAK256 SLOAD PUSH1 0xFF AND PUSH2 0xBC4 JUMPI CALLER PUSH1 0x0 SWAP1 DUP2 MSTORE PUSH1 0xB DUP5 ADD PUSH1 0x20 SWAP1 DUP2 MSTORE PUSH1 0x40 DUP1 DUP4 KECCAK256 PUSH1 0x4 CALLDATALOAD SWAP1 SSTORE SWAP3 SWAP1 MSTORE KECCAK256 DUP1 SLOAD PUSH1 0xFF NOT AND PUSH1 0x1 OR SWAP1 SSTORE PUSH1 0xF DUP3 ADD DUP1 SLOAD SWAP1 SWAP2 SWAP1 PUSH2 0xB51 SWAP1 PUSH2 0x1793 JUMP JUMPDEST DUP1 SWAP3 SSTORE PUSH1 0x40 MLOAD SWAP2 CALLER DUP7 PUSH32 0x2E6ED0CAE7A81E1893017DFAFD5FBAF8594ADCC50FF27B5F8EB70E0E90ACF315 PUSH1 0x0 DUP1 LOG3 PUSH1 0x8 DUP5 ADD SLOAD EQ PUSH2 0xB8B JUMPI STOP JUMPDEST PUSH1 0x2 SWAP1 SSTORE PUSH1 0x78 TIMESTAMP ADD DUP1 TIMESTAMP GT PUSH2 0x4F7 JUMPI PUSH1 0x11 PUSH1 0x60 SWAP4 DUP3 PUSH1 0x0 DUP1 MLOAD PUSH1 0x20 PUSH2 0x2392 DUP4 CODECOPY DUP2 MLOAD SWAP2 MSTORE SWAP7 SSTORE ADD SLOAD DUP3 MSTORE PUSH1 0x2 PUSH1 0x20 DUP4 ADD MSTORE PUSH1 0x40 DUP3 ADD MSTORE LOG2 STOP JUMPDEST PUSH1 0x40 MLOAD PUSH3 0x461BCD PUSH1 0xE5 SHL DUP2 MSTORE PUSH1 0x20 PUSH1 0x4 DUP3 ADD MSTORE PUSH1 0x11 PUSH1 0x24 DUP3 ADD MSTORE PUSH17 0x105B1C9958591E4818DBDB5B5A5D1D1959 PUSH1 0x7A SHL PUSH1 0x44 DUP3 ADD MSTORE PUSH1 0x64 SWAP1 REVERT JUMPDEST PUSH1 0x40 MLOAD PUSH3 0x461BCD PUSH1 0xE5 SHL DUP2 MSTORE PUSH1 0x20 PUSH1 0x4 DUP3 ADD MSTORE PUSH1 0x13 PUSH1 0x24 DUP3 ADD MSTORE PUSH19 0x10DBDB5B5A5D081C195C9A5BD908195B991959 PUSH1 0x6A SHL PUSH1 0x44 DUP3 ADD MSTORE PUSH1 0x64 SWAP1 REVERT JUMPDEST CALLVALUE PUSH2 0x1A4 JUMPI PUSH1 0x40 CALLDATASIZE PUSH1 0x3 NOT ADD SLT PUSH2 0x1A4 JUMPI PUSH1 0x4 CALLDATALOAD PUSH2 0xC54 PUSH2 0x167D JUMP JUMPDEST SWAP1 DUP1 ISZERO ISZERO DUP1 PUSH2 0xC9B JUMPI JUMPDEST PUSH2 0xC67 SWAP1 PUSH2 0x1714 JUMP JUMPDEST PUSH1 0x0 MSTORE PUSH1 0x3 PUSH1 0x20 MSTORE PUSH1 0xD PUSH1 0x40 PUSH1 0x0 KECCAK256 ADD SWAP1 PUSH1 0x1 DUP1 PUSH1 0xA0 SHL SUB AND PUSH1 0x0 MSTORE PUSH1 0x20 MSTORE PUSH1 0x20 PUSH1 0xFF PUSH1 0x40 PUSH1 0x0 KECCAK256 SLOAD AND PUSH1 0x40 MLOAD SWAP1 ISZERO ISZERO DUP2 MSTORE RETURN JUMPDEST POP PUSH1 0x2 SLOAD DUP2 GT ISZERO PUSH2 0xC5E JUMP JUMPDEST CALLVALUE PUSH2 0x1A4 JUMPI PUSH1 0x40 CALLDATASIZE PUSH1 0x3 NOT ADD SLT PUSH2 0x1A4 JUMPI PUSH1 0x4 CALLDATALOAD PUSH8 0xFFFFFFFFFFFFFFFF DUP2 GT PUSH2 0x1A4 JUMPI PUSH2 0xCD8 SWAP1 CALLDATASIZE SWAP1 PUSH1 0x4 ADD PUSH2 0x16E3 JUMP JUMPDEST PUSH1 0x24 CALLDATALOAD PUSH8 0xFFFFFFFFFFFFFFFF DUP2 GT PUSH2 0x1A4 JUMPI PUSH2 0xCF8 SWAP1 CALLDATASIZE SWAP1 PUSH1 0x4 ADD PUSH2 0x16E3 JUMP JUMPDEST PUSH2 0xD10 PUSH1 0x1 DUP1 PUSH1 0xA0 SWAP6 SWAP5 SWAP6 SHL SUB PUSH1 0x1 SLOAD AND CALLER EQ PUSH2 0x1CAA JUMP JUMPDEST DUP2 ISZERO PUSH2 0x10FC JUMPI DUP1 DUP3 SUB PUSH2 0x10B7 JUMPI PUSH1 0x2 DUP3 LT PUSH2 0x1072 JUMPI PUSH1 0xA DUP3 ADD SWAP3 DUP4 DUP4 GT PUSH2 0x4F7 JUMPI PUSH1 0x9 DUP4 ADD SWAP4 DUP5 GT PUSH2 0x4F7 JUMPI PUSH1 0x0 PUSH1 0xA DUP6 DIV ISZERO PUSH2 0x105E JUMPI POP PUSH1 0xA DUP5 DIV DUP4 DIV SWAP4 PUSH1 0x0 SWAP6 DUP7 SWAP1 DUP8 JUMPDEST PUSH1 0xA DUP5 DIV DUP2 LT PUSH2 0xD64 JUMPI DUP9 DUP1 RETURN JUMPDEST PUSH2 0xD6F PUSH1 0x2 SLOAD PUSH2 0x1793 JUMP JUMPDEST SWAP1 DUP2 PUSH1 0x2 SSTORE DUP2 DUP11 MSTORE PUSH1 0x3 PUSH1 0x20 MSTORE PUSH1 0x40 DUP11 KECCAK256 SWAP2 PUSH1 0x1 PUSH1 0xFF NOT DUP5 SLOAD AND OR DUP4 SSTORE PUSH1 0x1 PUSH1 0x11 DUP5 ADD SSTORE TIMESTAMP PUSH1 0x3 DUP5 ADD SSTORE DUP10 SWAP1 PUSH1 0xA DUP8 DIV DUP11 MOD DUP4 LT PUSH2 0x1037 JUMPI JUMPDEST SWAP1 DUP12 SWAP2 JUMPDEST DUP2 DUP4 LT PUSH2 0xE2B JUMPI POP POP POP PUSH2 0xDCE PUSH1 0x40 MLOAD SWAP3 PUSH1 0x40 DUP5 MSTORE PUSH1 0x5 PUSH1 0x40 DUP6 ADD SWAP2 ADD PUSH2 0x186F JUMP JUMPDEST DUP3 DUP2 SUB PUSH1 0x20 DUP5 ADD MSTORE DUP8 DUP2 MSTORE PUSH1 0x1 PUSH1 0x1 PUSH1 0xFB SHL SUB DUP9 GT PUSH2 0xE27 JUMPI DUP3 PUSH1 0x20 PUSH1 0x1 SWAP5 PUSH32 0xB66BA8FEAEC509998EF3217BC97FBF1A0F906B89FAC25A4ACE8DDFF059A41F12 SWAP4 DUP12 PUSH1 0x5 SHL DUP12 DUP5 DUP4 ADD CALLDATACOPY DUP12 PUSH1 0x5 SHL ADD SUB ADD SWAP1 LOG1 ADD PUSH2 0xD56 JUMP JUMPDEST DUP11 DUP1 REVERT JUMPDEST SWAP1 SWAP2 SWAP6 PUSH2 0xE39 DUP2 DUP13 DUP9 PUSH2 0x1CF6 JUMP JUMPDEST CALLDATALOAD PUSH1 0x1 PUSH1 0x1 PUSH1 0xA0 SHL SUB DUP2 AND DUP2 SUB PUSH2 0x1033 JUMPI PUSH1 0x1 PUSH1 0x1 PUSH1 0xA0 SHL SUB DUP2 AND ISZERO PUSH2 0xFF5 JUMPI DUP14 SWAP1 PUSH1 0x1 DUP1 PUSH1 0xA0 SHL SUB DUP2 AND DUP3 MSTORE PUSH1 0x5 PUSH1 0x20 MSTORE DUP12 DUP12 DUP9 PUSH1 0xFF PUSH1 0x40 DUP7 KECCAK256 SLOAD AND PUSH2 0xF41 JUMPI JUMPDEST SWAP3 PUSH2 0xE9D DUP7 PUSH1 0x40 SWAP5 PUSH2 0xF38 SWAP8 SWAP5 PUSH2 0xE98 DUP6 PUSH1 0x5 PUSH1 0x1 SWAP13 SWAP11 ADD PUSH2 0x1D1E JUMP JUMPDEST PUSH2 0x1CF6 JUMP JUMPDEST CALLDATALOAD DUP7 DUP1 PUSH1 0xA0 SHL SUB DUP3 AND DUP4 MSTORE PUSH1 0x7 DUP12 ADD PUSH1 0x20 MSTORE DUP4 DUP4 KECCAK256 SSTORE DUP6 DUP1 PUSH1 0xA0 SHL SUB DUP2 AND DUP3 MSTORE PUSH1 0x6 DUP11 ADD PUSH1 0x20 MSTORE DUP3 DUP3 KECCAK256 DUP7 PUSH1 0xFF NOT DUP3 SLOAD AND OR SWAP1 SSTORE PUSH2 0xEDE DUP2 PUSH1 0x8 DUP13 ADD PUSH2 0x1D1E JUMP JUMPDEST PUSH1 0xA0 DUP7 SWAP1 SHL DUP7 SWAP1 SUB AND DUP1 DUP3 MSTORE PUSH1 0x9 DUP11 ADD PUSH1 0x20 SWAP1 DUP2 MSTORE DUP4 DUP4 KECCAK256 DUP1 SLOAD PUSH1 0xFF NOT SWAP1 DUP2 AND DUP10 OR SWAP1 SWAP2 SSTORE DUP3 DUP5 MSTORE PUSH1 0xA DUP13 ADD DUP3 MSTORE DUP5 DUP5 KECCAK256 PUSH1 0x64 SWAP1 SSTORE DUP3 DUP5 MSTORE PUSH1 0x4 DUP3 MSTORE DUP5 DUP5 KECCAK256 DUP10 SWAP1 SSTORE SWAP2 DUP4 MSTORE PUSH1 0x5 SWAP1 MSTORE SWAP2 SWAP1 KECCAK256 DUP1 SLOAD SWAP1 SWAP2 AND DUP5 OR SWAP1 SSTORE PUSH2 0x1793 JUMP JUMPDEST SWAP7 ADD SWAP2 SWAP1 PUSH2 0xDAC JUMP JUMPDEST POP POP POP PUSH1 0x1 PUSH1 0x1 PUSH1 0xA0 SHL SUB DUP2 AND SWAP1 SWAP2 MSTORE PUSH1 0x4 PUSH1 0x20 MSTORE PUSH1 0x40 DUP15 KECCAK256 SLOAD DUP1 ISZERO SWAP1 DUP16 SWAP1 DUP3 ISZERO PUSH2 0xFBD JUMPI JUMPDEST POP POP ISZERO PUSH2 0xF78 JUMPI DUP14 SWAP1 DUP12 DUP12 DUP9 PUSH2 0xE7B JUMP JUMPDEST PUSH1 0x40 MLOAD PUSH3 0x461BCD PUSH1 0xE5 SHL DUP2 MSTORE PUSH1 0x20 PUSH1 0x4 DUP3 ADD MSTORE PUSH1 0x1D PUSH1 0x24 DUP3 ADD MSTORE PUSH32 0x506C6179657220616C726561647920696E206163746976652067616D65000000 PUSH1 0x44 DUP3 ADD MSTORE PUSH1 0x64 SWAP1 REVERT JUMPDEST DUP2 MSTORE PUSH1 0x3 PUSH1 0x20 MSTORE PUSH1 0x40 SWAP1 KECCAK256 SLOAD PUSH1 0xFF AND SWAP1 POP PUSH1 0x5 DUP2 LT ISZERO PUSH2 0xFE1 JUMPI PUSH1 0x4 EQ DUP15 CODESIZE PUSH2 0xF67 JUMP JUMPDEST PUSH4 0x4E487B71 PUSH1 0xE0 SHL DUP16 MSTORE PUSH1 0x21 PUSH1 0x4 MSTORE PUSH1 0x24 DUP16 REVERT JUMPDEST PUSH1 0x40 MLOAD PUSH3 0x461BCD PUSH1 0xE5 SHL DUP2 MSTORE PUSH1 0x20 PUSH1 0x4 DUP3 ADD MSTORE PUSH1 0x16 PUSH1 0x24 DUP3 ADD MSTORE PUSH22 0x496E76616C696420706C617965722061646472657373 PUSH1 0x50 SHL PUSH1 0x44 DUP3 ADD MSTORE PUSH1 0x64 SWAP1 REVERT JUMPDEST DUP14 DUP1 REVERT JUMPDEST SWAP1 POP PUSH1 0x1 DUP11 ADD DUP1 DUP12 GT PUSH2 0x104A JUMPI SWAP1 PUSH2 0xDA8 JUMP JUMPDEST PUSH4 0x4E487B71 PUSH1 0xE0 SHL DUP13 MSTORE PUSH1 0x11 PUSH1 0x4 MSTORE PUSH1 0x24 DUP13 REVERT JUMPDEST PUSH4 0x4E487B71 PUSH1 0xE0 SHL DUP2 MSTORE PUSH1 0x12 PUSH1 0x4 MSTORE PUSH1 0x24 SWAP1 REVERT JUMPDEST PUSH1 0x40 MLOAD PUSH3 0x461BCD PUSH1 0xE5 SHL DUP2 MSTORE PUSH1 0x20 PUSH1 0x4 DUP3 ADD MSTORE PUSH1 0x17 PUSH1 0x24 DUP3 ADD MSTORE PUSH32 0x4E656564206174206C65617374203220706C6179657273000000000000000000 PUSH1 0x44 DUP3 ADD MSTORE PUSH1 0x64 SWAP1 REVERT JUMPDEST PUSH1 0x40 MLOAD PUSH3 0x461BCD PUSH1 0xE5 SHL DUP2 MSTORE PUSH1 0x20 PUSH1 0x4 DUP3 ADD MSTORE PUSH1 0x18 PUSH1 0x24 DUP3 ADD MSTORE PUSH32 0x4172726179206C656E67746873206D757374206D617463680000000000000000 PUSH1 0x44 DUP3 ADD MSTORE PUSH1 0x64 SWAP1 REVERT JUMPDEST PUSH1 0x40 MLOAD PUSH3 0x461BCD PUSH1 0xE5 SHL DUP2 MSTORE PUSH1 0x20 PUSH1 0x4 DUP3 ADD MSTORE PUSH1 0x13 PUSH1 0x24 DUP3 ADD MSTORE PUSH19 0x139BC81C1B185E595C9CC81C1C9BDD9A591959 PUSH1 0x6A SHL PUSH1 0x44 DUP3 ADD MSTORE PUSH1 0x64 SWAP1 REVERT JUMPDEST CALLVALUE PUSH2 0x1A4 JUMPI PUSH1 0x20 CALLDATASIZE PUSH1 0x3 NOT ADD SLT PUSH2 0x1A4 JUMPI PUSH1 0x1 PUSH1 0x1 PUSH1 0xA0 SHL SUB PUSH2 0x1158 PUSH2 0x1667 JUMP JUMPDEST AND PUSH1 0x0 MSTORE PUSH1 0x4 PUSH1 0x20 MSTORE PUSH1 0x20 PUSH1 0x40 PUSH1 0x0 KECCAK256 SLOAD PUSH1 0x40 MLOAD SWAP1 DUP2 MSTORE RETURN JUMPDEST CALLVALUE PUSH2 0x1A4 JUMPI PUSH1 0x0 CALLDATASIZE PUSH1 0x3 NOT ADD SLT PUSH2 0x1A4 JUMPI PUSH2 0x118A PUSH2 0x2157 JUMP JUMPDEST PUSH1 0x0 DUP1 SLOAD PUSH1 0x1 PUSH1 0x1 PUSH1 0xA0 SHL SUB NOT DUP2 AND DUP3 SSTORE PUSH1 0x1 PUSH1 0x1 PUSH1 0xA0 SHL SUB AND PUSH32 0x8BE0079C531659141344CD1FD0A4F28419497F9722A3DAAFE3B4186F6B6457E0 DUP3 DUP1 LOG3 STOP JUMPDEST CALLVALUE PUSH2 0x1A4 JUMPI PUSH1 0x0 CALLDATASIZE PUSH1 0x3 NOT ADD SLT PUSH2 0x1A4 JUMPI PUSH2 0x11F0 PUSH1 0x1 DUP1 PUSH1 0xA0 SHL SUB PUSH1 0x1 SLOAD AND CALLER EQ PUSH2 0x1CAA JUMP JUMPDEST PUSH1 0x40 MLOAD PUSH1 0x20 PUSH2 0x11FF DUP2 DUP4 PUSH2 0x1803 JUMP JUMPDEST PUSH1 0x0 DUP3 MSTORE PUSH1 0x0 CALLDATASIZE DUP2 CALLDATACOPY PUSH1 0x1 JUMPDEST PUSH1 0x2 SLOAD DUP2 GT PUSH2 0x1252 JUMPI DUP1 PUSH1 0x0 MSTORE PUSH1 0x3 DUP3 MSTORE PUSH1 0xFF PUSH1 0x40 PUSH1 0x0 KECCAK256 SLOAD AND SWAP1 PUSH1 0x5 DUP3 LT ISZERO PUSH2 0x528 JUMPI PUSH1 0x2 PUSH2 0x123F SWAP3 EQ PUSH2 0x1244 JUMPI PUSH2 0x1793 JUMP JUMPDEST PUSH2 0x120B JUMP JUMPDEST PUSH2 0x124D DUP2 PUSH2 0x1FE5 JUMP JUMPDEST PUSH2 0x1793 JUMP JUMPDEST PUSH1 0x40 MLOAD DUP1 PUSH2 0x9CD DUP6 DUP3 PUSH2 0x1693 JUMP JUMPDEST CALLVALUE PUSH2 0x1A4 JUMPI PUSH1 0x40 CALLDATASIZE PUSH1 0x3 NOT ADD SLT PUSH2 0x1A4 JUMPI PUSH2 0x66A PUSH1 0x24 CALLDATALOAD PUSH1 0x4 CALLDATALOAD PUSH2 0x196B JUMP JUMPDEST CALLVALUE PUSH2 0x1A4 JUMPI PUSH1 0x20 CALLDATASIZE PUSH1 0x3 NOT ADD SLT PUSH2 0x1A4 JUMPI PUSH1 0x1 PUSH1 0x1 PUSH1 0xA0 SHL SUB PUSH2 0x12A0 PUSH2 0x1667 JUMP JUMPDEST AND PUSH1 0x0 MSTORE PUSH1 0x5 PUSH1 0x20 MSTORE PUSH1 0x20 PUSH1 0xFF PUSH1 0x40 PUSH1 0x0 KECCAK256 SLOAD AND PUSH1 0x40 MLOAD SWAP1 ISZERO ISZERO DUP2 MSTORE RETURN JUMPDEST CALLVALUE PUSH2 0x1A4 JUMPI PUSH1 0x20 CALLDATASIZE PUSH1 0x3 NOT ADD SLT PUSH2 0x1A4 JUMPI PUSH1 0x4 CALLDATALOAD DUP1 ISZERO ISZERO DUP1 PUSH2 0x12FF JUMPI JUMPDEST PUSH2 0x12E4 SWAP1 PUSH2 0x1714 JUMP JUMPDEST PUSH1 0x0 MSTORE PUSH1 0x3 PUSH1 0x20 MSTORE PUSH1 0x20 PUSH1 0x1 PUSH1 0x40 PUSH1 0x0 KECCAK256 ADD SLOAD PUSH1 0x40 MLOAD SWAP1 DUP2 MSTORE RETURN JUMPDEST POP PUSH1 0x2 SLOAD DUP2 GT ISZERO PUSH2 0x12DB JUMP JUMPDEST CALLVALUE PUSH2 0x1A4 JUMPI PUSH1 0x40 CALLDATASIZE PUSH1 0x3 NOT ADD SLT PUSH2 0x1A4 JUMPI PUSH1 0x4 CALLDATALOAD PUSH2 0x1327 PUSH2 0x167D JUMP JUMPDEST SWAP1 DUP1 ISZERO ISZERO DUP1 PUSH2 0x139A JUMPI JUMPDEST PUSH2 0x133A SWAP1 PUSH2 0x1714 JUMP JUMPDEST DUP1 PUSH1 0x0 MSTORE PUSH1 0x3 PUSH1 0x20 MSTORE PUSH1 0x6 PUSH1 0x40 PUSH1 0x0 KECCAK256 ADD PUSH1 0x1 DUP1 PUSH1 0xA0 SHL SUB DUP4 AND PUSH1 0x0 MSTORE PUSH1 0x20 MSTORE PUSH2 0x136B PUSH1 0xFF PUSH1 0x40 PUSH1 0x0 KECCAK256 SLOAD AND PUSH2 0x1752 JUMP JUMPDEST PUSH1 0x0 MSTORE PUSH1 0x3 PUSH1 0x20 MSTORE PUSH1 0xA PUSH1 0x40 PUSH1 0x0 KECCAK256 ADD SWAP1 PUSH1 0x1 DUP1 PUSH1 0xA0 SHL SUB AND PUSH1 0x0 MSTORE PUSH1 0x20 MSTORE PUSH1 0x20 PUSH1 0x40 PUSH1 0x0 KECCAK256 SLOAD PUSH1 0x40 MLOAD SWAP1 DUP2 MSTORE RETURN JUMPDEST POP PUSH1 0x2 SLOAD DUP2 GT ISZERO PUSH2 0x1331 JUMP JUMPDEST CALLVALUE PUSH2 0x1A4 JUMPI PUSH1 0x20 CALLDATASIZE PUSH1 0x3 NOT ADD SLT PUSH2 0x1A4 JUMPI PUSH1 0x4 CALLDATALOAD PUSH1 0x0 PUSH1 0x80 PUSH1 0x40 MLOAD PUSH2 0x13CA DUP2 PUSH2 0x17AF JUMP JUMPDEST DUP3 DUP2 MSTORE DUP3 PUSH1 0x20 DUP3 ADD MSTORE DUP3 PUSH1 0x40 DUP3 ADD MSTORE DUP3 PUSH1 0x60 DUP3 ADD MSTORE ADD MSTORE DUP1 ISZERO ISZERO DUP1 PUSH2 0x1478 JUMPI JUMPDEST PUSH2 0x13F3 SWAP1 PUSH2 0x1714 JUMP JUMPDEST PUSH1 0x0 MSTORE PUSH1 0x3 PUSH1 0x20 MSTORE PUSH1 0xA0 PUSH1 0x40 PUSH1 0x0 KECCAK256 PUSH1 0xFF DUP2 SLOAD AND SWAP1 PUSH1 0x11 DUP2 ADD SLOAD SWAP1 PUSH1 0x2 DUP2 ADD SLOAD PUSH1 0x4 PUSH1 0x3 DUP4 ADD SLOAD SWAP3 ADD SLOAD SWAP3 PUSH2 0x1434 PUSH1 0x40 MLOAD SWAP6 PUSH2 0x142E DUP8 PUSH2 0x17AF JUMP JUMPDEST DUP7 PUSH2 0x18DC JUMP JUMPDEST PUSH1 0x20 DUP6 ADD SWAP1 DUP2 MSTORE PUSH1 0x40 DUP6 ADD SWAP2 DUP3 MSTORE PUSH1 0x60 DUP6 ADD SWAP3 DUP4 MSTORE PUSH1 0x80 DUP6 ADD SWAP4 DUP5 MSTORE PUSH2 0x145E PUSH1 0x40 MLOAD DUP1 SWAP7 MLOAD PUSH2 0x16D6 JUMP JUMPDEST MLOAD PUSH1 0x20 DUP6 ADD MSTORE MLOAD PUSH1 0x40 DUP5 ADD MSTORE MLOAD PUSH1 0x60 DUP4 ADD MSTORE MLOAD PUSH1 0x80 DUP3 ADD MSTORE RETURN JUMPDEST POP PUSH1 0x2 SLOAD DUP2 GT ISZERO PUSH2 0x13EA JUMP JUMPDEST CALLVALUE PUSH2 0x1A4 JUMPI PUSH1 0x0 CALLDATASIZE PUSH1 0x3 NOT ADD SLT PUSH2 0x1A4 JUMPI PUSH1 0x2 SLOAD PUSH1 0x1 PUSH1 0x0 JUMPDEST DUP3 DUP3 GT ISZERO PUSH2 0x153C JUMPI PUSH2 0x14AF SWAP2 POP PUSH2 0x183D JUMP JUMPDEST PUSH1 0x0 SWAP2 PUSH1 0x1 SWAP1 JUMPDEST DUP1 DUP3 GT ISZERO PUSH2 0x14CC JUMPI PUSH1 0x40 MLOAD DUP1 PUSH2 0x9CD DUP6 DUP3 PUSH2 0x1693 JUMP JUMPDEST PUSH2 0x9F8 SWAP1 DUP3 PUSH1 0x0 SWAP5 SWAP4 SWAP5 MSTORE PUSH1 0x3 PUSH1 0x20 MSTORE PUSH2 0x14F3 PUSH1 0x8 PUSH1 0x40 PUSH1 0x0 KECCAK256 ADD PUSH1 0x40 MLOAD SWAP4 DUP5 DUP1 SWAP3 PUSH2 0x186F JUMP JUMPDEST PUSH1 0x0 JUMPDEST DUP3 MLOAD DUP2 LT ISZERO PUSH2 0x1529 JUMPI PUSH1 0x1 SWAP1 PUSH1 0x1 PUSH1 0x1 PUSH1 0xA0 SHL SUB PUSH2 0x1514 DUP3 DUP7 PUSH2 0x18B2 JUMP JUMPDEST MLOAD AND PUSH2 0x1522 PUSH2 0xA2E DUP10 PUSH2 0x1793 JUMP JUMPDEST MSTORE ADD PUSH2 0x14F6 JUMP JUMPDEST POP SWAP2 SWAP3 PUSH2 0x1536 SWAP2 POP PUSH2 0x1793 JUMP JUMPDEST SWAP1 PUSH2 0x14B6 JUMP JUMPDEST PUSH2 0xA6E PUSH2 0x155B SWAP2 DUP4 PUSH1 0x0 MSTORE PUSH1 0x3 PUSH1 0x20 MSTORE PUSH1 0x8 PUSH1 0x40 PUSH1 0x0 KECCAK256 ADD SLOAD SWAP1 PUSH2 0x17A2 JUMP JUMPDEST SWAP1 PUSH2 0x149D JUMP JUMPDEST CALLVALUE PUSH2 0x1A4 JUMPI PUSH1 0x40 CALLDATASIZE PUSH1 0x3 NOT ADD SLT PUSH2 0x1A4 JUMPI PUSH1 0x4 CALLDATALOAD PUSH2 0x157D PUSH2 0x167D JUMP JUMPDEST SWAP1 DUP1 ISZERO ISZERO DUP1 PUSH2 0x15F0 JUMPI JUMPDEST PUSH2 0x1590 SWAP1 PUSH2 0x1714 JUMP JUMPDEST DUP1 PUSH1 0x0 MSTORE PUSH1 0x3 PUSH1 0x20 MSTORE PUSH1 0x6 PUSH1 0x40 PUSH1 0x0 KECCAK256 ADD PUSH1 0x1 DUP1 PUSH1 0xA0 SHL SUB DUP4 AND PUSH1 0x0 MSTORE PUSH1 0x20 MSTORE PUSH2 0x15C1 PUSH1 0xFF PUSH1 0x40 PUSH1 0x0 KECCAK256 SLOAD AND PUSH2 0x1752 JUMP JUMPDEST PUSH1 0x0 MSTORE PUSH1 0x3 PUSH1 0x20 MSTORE PUSH1 0x7 PUSH1 0x40 PUSH1 0x0 KECCAK256 ADD SWAP1 PUSH1 0x1 DUP1 PUSH1 0xA0 SHL SUB AND PUSH1 0x0 MSTORE PUSH1 0x20 MSTORE PUSH1 0x20 PUSH1 0x40 PUSH1 0x0 KECCAK256 SLOAD PUSH1 0x40 MLOAD SWAP1 DUP2 MSTORE RETURN JUMPDEST POP PUSH1 0x2 SLOAD DUP2 GT ISZERO PUSH2 0x1587 JUMP JUMPDEST CALLVALUE PUSH2 0x1A4 JUMPI PUSH1 0x0 CALLDATASIZE PUSH1 0x3 NOT ADD SLT PUSH2 0x1A4 JUMPI PUSH1 0x20 PUSH1 0x2 SLOAD PUSH1 0x40 MLOAD SWAP1 DUP2 MSTORE RETURN JUMPDEST CALLVALUE PUSH2 0x1A4 JUMPI PUSH1 0x20 CALLDATASIZE PUSH1 0x3 NOT ADD SLT PUSH2 0x1A4 JUMPI PUSH1 0x4 CALLDATALOAD DUP1 ISZERO ISZERO DUP1 PUSH2 0x165B JUMPI JUMPDEST PUSH2 0x1640 SWAP1 PUSH2 0x1714 JUMP JUMPDEST PUSH1 0x0 MSTORE PUSH1 0x3 PUSH1 0x20 MSTORE PUSH1 0x20 PUSH1 0x2 PUSH1 0x40 PUSH1 0x0 KECCAK256 ADD SLOAD PUSH1 0x40 MLOAD SWAP1 DUP2 MSTORE RETURN JUMPDEST POP PUSH1 0x2 SLOAD DUP2 GT ISZERO PUSH2 0x1637 JUMP JUMPDEST PUSH1 0x4 CALLDATALOAD SWAP1 PUSH1 0x1 PUSH1 0x1 PUSH1 0xA0 SHL SUB DUP3 AND DUP3 SUB PUSH2 0x1A4 JUMPI JUMP JUMPDEST PUSH1 0x24 CALLDATALOAD SWAP1 PUSH1 0x1 PUSH1 0x1 PUSH1 0xA0 SHL SUB DUP3 AND DUP3 SUB PUSH2 0x1A4 JUMPI JUMP JUMPDEST PUSH1 0x20 PUSH1 0x40 DUP2 DUP4 ADD SWAP3 DUP3 DUP2 MSTORE DUP5 MLOAD DUP1 SWAP5 MSTORE ADD SWAP3 ADD SWAP1 PUSH1 0x0 JUMPDEST DUP2 DUP2 LT PUSH2 0x16B7 JUMPI POP POP POP SWAP1 JUMP JUMPDEST DUP3 MLOAD PUSH1 0x1 PUSH1 0x1 PUSH1 0xA0 SHL SUB AND DUP5 MSTORE PUSH1 0x20 SWAP4 DUP5 ADD SWAP4 SWAP1 SWAP3 ADD SWAP2 PUSH1 0x1 ADD PUSH2 0x16AA JUMP JUMPDEST SWAP1 PUSH1 0x5 DUP3 LT ISZERO PUSH2 0x528 JUMPI MSTORE JUMP JUMPDEST SWAP2 DUP2 PUSH1 0x1F DUP5 ADD SLT ISZERO PUSH2 0x1A4 JUMPI DUP3 CALLDATALOAD SWAP2 PUSH8 0xFFFFFFFFFFFFFFFF DUP4 GT PUSH2 0x1A4 JUMPI PUSH1 0x20 DUP1 DUP6 ADD SWAP5 DUP5 PUSH1 0x5 SHL ADD ADD GT PUSH2 0x1A4 JUMPI JUMP JUMPDEST ISZERO PUSH2 0x171B JUMPI JUMP JUMPDEST PUSH1 0x40 MLOAD PUSH3 0x461BCD PUSH1 0xE5 SHL DUP2 MSTORE PUSH1 0x20 PUSH1 0x4 DUP3 ADD MSTORE PUSH1 0xF PUSH1 0x24 DUP3 ADD MSTORE PUSH15 0x125B9D985B1A590819D85B59481251 PUSH1 0x8A SHL PUSH1 0x44 DUP3 ADD MSTORE PUSH1 0x64 SWAP1 REVERT JUMPDEST ISZERO PUSH2 0x1759 JUMPI JUMP JUMPDEST PUSH1 0x40 MLOAD PUSH3 0x461BCD PUSH1 0xE5 SHL DUP2 MSTORE PUSH1 0x20 PUSH1 0x4 DUP3 ADD MSTORE PUSH1 0x12 PUSH1 0x24 DUP3 ADD MSTORE PUSH18 0x506C61796572206E6F7420696E2067616D65 PUSH1 0x70 SHL PUSH1 0x44 DUP3 ADD MSTORE PUSH1 0x64 SWAP1 REVERT JUMPDEST PUSH1 0x0 NOT DUP2 EQ PUSH2 0x4F7 JUMPI PUSH1 0x1 ADD SWAP1 JUMP JUMPDEST SWAP2 SWAP1 DUP3 ADD DUP1 SWAP3 GT PUSH2 0x4F7 JUMPI JUMP JUMPDEST PUSH1 0xA0 DUP2 ADD SWAP1 DUP2 LT PUSH8 0xFFFFFFFFFFFFFFFF DUP3 GT OR PUSH2 0x946 JUMPI PUSH1 0x40 MSTORE JUMP JUMPDEST PUSH1 0x80 DUP2 ADD SWAP1 DUP2 LT PUSH8 0xFFFFFFFFFFFFFFFF DUP3 GT OR PUSH2 0x946 JUMPI PUSH1 0x40 MSTORE JUMP JUMPDEST PUSH1 0xC0 DUP2 ADD SWAP1 DUP2 LT PUSH8 0xFFFFFFFFFFFFFFFF DUP3 GT OR PUSH2 0x946 JUMPI PUSH1 0x40 MSTORE JUMP JUMPDEST SWAP1 PUSH1 0x1F DUP1 NOT SWAP2 ADD AND DUP2 ADD SWAP1 DUP2 LT PUSH8 0xFFFFFFFFFFFFFFFF DUP3 GT OR PUSH2 0x946 JUMPI PUSH1 0x40 MSTORE JUMP JUMPDEST PUSH8 0xFFFFFFFFFFFFFFFF DUP2 GT PUSH2 0x946 JUMPI PUSH1 0x5 SHL PUSH1 0x20 ADD SWAP1 JUMP JUMPDEST SWAP1 PUSH2 0x1847 DUP3 PUSH2 0x1825 JUMP JUMPDEST PUSH2 0x1854 PUSH1 0x40 MLOAD SWAP2 DUP3 PUSH2 0x1803 JUMP JUMPDEST DUP3 DUP2 MSTORE DUP1 SWAP3 PUSH2 0x1865 PUSH1 0x1F NOT SWAP2 PUSH2 0x1825 JUMP JUMPDEST ADD SWAP1 PUSH1 0x20 CALLDATASIZE SWAP2 ADD CALLDATACOPY JUMP JUMPDEST SWAP1 PUSH1 0x20 DUP3 SLOAD SWAP2 DUP3 DUP2 MSTORE ADD SWAP2 PUSH1 0x0 MSTORE PUSH1 0x20 PUSH1 0x0 KECCAK256 SWAP1 PUSH1 0x0 JUMPDEST DUP2 DUP2 LT PUSH2 0x1893 JUMPI POP POP POP SWAP1 JUMP JUMPDEST DUP3 SLOAD PUSH1 0x1 PUSH1 0x1 PUSH1 0xA0 SHL SUB AND DUP5 MSTORE PUSH1 0x20 SWAP1 SWAP4 ADD SWAP3 PUSH1 0x1 SWAP3 DUP4 ADD SWAP3 ADD PUSH2 0x1886 JUMP JUMPDEST DUP1 MLOAD DUP3 LT ISZERO PUSH2 0x18C6 JUMPI PUSH1 0x20 SWAP2 PUSH1 0x5 SHL ADD ADD SWAP1 JUMP JUMPDEST PUSH4 0x4E487B71 PUSH1 0xE0 SHL PUSH1 0x0 MSTORE PUSH1 0x32 PUSH1 0x4 MSTORE PUSH1 0x24 PUSH1 0x0 REVERT JUMPDEST PUSH1 0x5 DUP3 LT ISZERO PUSH2 0x528 JUMPI MSTORE JUMP JUMPDEST ISZERO PUSH2 0x18EF JUMPI JUMP JUMPDEST PUSH1 0x40 MLOAD PUSH3 0x461BCD PUSH1 0xE5 SHL DUP2 MSTORE PUSH1 0x20 PUSH1 0x4 DUP3 ADD MSTORE PUSH1 0x16 PUSH1 0x24 DUP3 ADD MSTORE PUSH22 0x506C61796572206E6F7420696E20616E792067616D65 PUSH1 0x50 SHL PUSH1 0x44 DUP3 ADD MSTORE PUSH1 0x64 SWAP1 REVERT JUMPDEST ISZERO PUSH2 0x1934 JUMPI JUMP JUMPDEST PUSH1 0x40 MLOAD PUSH3 0x461BCD PUSH1 0xE5 SHL DUP2 MSTORE PUSH1 0x20 PUSH1 0x4 DUP3 ADD MSTORE PUSH1 0xF PUSH1 0x24 DUP3 ADD MSTORE PUSH15 0x47616D65206E6F7420616374697665 PUSH1 0x88 SHL PUSH1 0x44 DUP3 ADD MSTORE PUSH1 0x64 SWAP1 REVERT JUMPDEST SWAP1 CALLER PUSH1 0x0 MSTORE PUSH1 0x5 PUSH1 0x20 MSTORE PUSH2 0x1986 PUSH1 0xFF PUSH1 0x40 PUSH1 0x0 KECCAK256 SLOAD AND PUSH2 0x18E8 JUMP JUMPDEST CALLER PUSH1 0x0 MSTORE PUSH1 0x4 PUSH1 0x20 MSTORE PUSH1 0x40 PUSH1 0x0 KECCAK256 SLOAD SWAP2 DUP3 PUSH1 0x0 MSTORE PUSH1 0x3 PUSH1 0x20 MSTORE PUSH1 0x40 PUSH1 0x0 KECCAK256 PUSH1 0xFF DUP2 SLOAD AND PUSH1 0x5 DUP2 LT ISZERO PUSH2 0x528 JUMPI PUSH1 0x2 PUSH2 0x19BE SWAP2 EQ PUSH2 0x192D JUMP JUMPDEST CALLER PUSH1 0x0 SWAP1 DUP2 MSTORE PUSH1 0xD DUP3 ADD PUSH1 0x20 MSTORE PUSH1 0x40 SWAP1 KECCAK256 SLOAD PUSH1 0xFF AND ISZERO PUSH2 0x1C71 JUMPI PUSH1 0xE DUP2 ADD SWAP1 PUSH1 0x1 DUP1 PUSH1 0xA0 SHL SUB CALLER AND PUSH1 0x0 MSTORE DUP2 PUSH1 0x20 MSTORE PUSH1 0xFF PUSH1 0x40 PUSH1 0x0 KECCAK256 SLOAD AND PUSH2 0x1C39 JUMPI CALLER PUSH1 0x0 SWAP1 DUP2 MSTORE PUSH1 0xA DUP3 ADD PUSH1 0x20 MSTORE PUSH1 0x40 SWAP1 KECCAK256 SLOAD DUP4 GT PUSH2 0x1BF4 JUMPI PUSH1 0x1 DUP2 ADD PUSH1 0x1 DUP2 SLOAD EQ DUP1 PUSH2 0x1BE7 JUMPI JUMPDEST PUSH2 0x1BC1 JUMPI JUMPDEST SLOAD PUSH1 0x1 NOT ADD PUSH2 0x1B86 JUMPI PUSH1 0x2 DUP2 ADD SWAP4 DUP5 SLOAD TIMESTAMP GT PUSH2 0x1B4B JUMPI PUSH1 0x40 MLOAD PUSH1 0x20 DUP2 ADD SWAP2 DUP6 DUP4 MSTORE PUSH1 0x40 DUP3 ADD MSTORE CALLER PUSH1 0x60 SHL PUSH1 0x60 DUP3 ADD MSTORE PUSH1 0x54 DUP2 MSTORE PUSH2 0x1A64 PUSH1 0x74 DUP3 PUSH2 0x1803 JUMP JUMPDEST MLOAD SWAP1 KECCAK256 CALLER PUSH1 0x0 SWAP1 DUP2 MSTORE PUSH1 0xB DUP4 ADD PUSH1 0x20 MSTORE PUSH1 0x40 SWAP1 KECCAK256 SLOAD SUB PUSH2 0x1B15 JUMPI CALLER PUSH1 0x0 SWAP1 DUP2 MSTORE PUSH1 0xC DUP3 ADD PUSH1 0x20 SWAP1 DUP2 MSTORE PUSH1 0x40 DUP1 DUP4 KECCAK256 DUP7 SWAP1 SSTORE SWAP4 SWAP1 MSTORE SWAP2 SWAP1 SWAP2 KECCAK256 DUP1 SLOAD PUSH1 0xFF NOT AND PUSH1 0x1 OR SWAP1 SSTORE PUSH1 0x10 DUP2 ADD DUP1 SLOAD SWAP1 SWAP3 PUSH1 0x8 SWAP3 SWAP2 PUSH2 0x1ABC SWAP1 PUSH2 0x1793 JUMP JUMPDEST DUP1 SWAP5 SSTORE PUSH1 0x40 MLOAD SWAP1 DUP2 MSTORE DUP6 PUSH32 0x319FCEC55B5300A4DCC6F96B2DF475A149433DC721BA7D96C8FB14495B748AC PUSH1 0x20 CALLER SWAP4 LOG3 ADD SLOAD EQ SWAP1 DUP2 ISZERO PUSH2 0x1B0A JUMPI JUMPDEST POP PUSH2 0x1AFF JUMPI POP JUMP JUMPDEST PUSH2 0x1B08 SWAP1 PUSH2 0x1FE5 JUMP JUMPDEST JUMP JUMPDEST SWAP1 POP SLOAD TIMESTAMP GT CODESIZE PUSH2 0x1AF7 JUMP JUMPDEST PUSH1 0x40 MLOAD PUSH3 0x461BCD PUSH1 0xE5 SHL DUP2 MSTORE PUSH1 0x20 PUSH1 0x4 DUP3 ADD MSTORE PUSH1 0xE PUSH1 0x24 DUP3 ADD MSTORE PUSH14 0x125B9D985B1A59081C995D99585B PUSH1 0x92 SHL PUSH1 0x44 DUP3 ADD MSTORE PUSH1 0x64 SWAP1 REVERT JUMPDEST PUSH1 0x40 MLOAD PUSH3 0x461BCD PUSH1 0xE5 SHL DUP2 MSTORE PUSH1 0x20 PUSH1 0x4 DUP3 ADD MSTORE PUSH1 0x13 PUSH1 0x24 DUP3 ADD MSTORE PUSH19 0x14995D99585B081C195C9A5BD908195B991959 PUSH1 0x6A SHL PUSH1 0x44 DUP3 ADD MSTORE PUSH1 0x64 SWAP1 REVERT JUMPDEST PUSH1 0x40 MLOAD PUSH3 0x461BCD PUSH1 0xE5 SHL DUP2 MSTORE PUSH1 0x20 PUSH1 0x4 DUP3 ADD MSTORE PUSH1 0x13 PUSH1 0x24 DUP3 ADD MSTORE PUSH19 0x4E6F7420696E2072657665616C207374616765 PUSH1 0x68 SHL PUSH1 0x44 DUP3 ADD MSTORE PUSH1 0x64 SWAP1 REVERT JUMPDEST PUSH2 0x1BCA DUP7 PUSH2 0x1DAC JUMP JUMPDEST PUSH1 0xFF DUP3 SLOAD AND PUSH1 0x5 DUP2 LT ISZERO PUSH2 0x528 JUMPI PUSH1 0x4 SUB PUSH2 0x1A26 JUMPI POP POP POP POP POP POP JUMP JUMPDEST POP PUSH1 0x2 DUP3 ADD SLOAD TIMESTAMP GT PUSH2 0x1A21 JUMP JUMPDEST PUSH1 0x40 MLOAD PUSH3 0x461BCD PUSH1 0xE5 SHL DUP2 MSTORE PUSH1 0x20 PUSH1 0x4 DUP3 ADD MSTORE PUSH1 0x1C PUSH1 0x24 DUP3 ADD MSTORE PUSH32 0x426964206578636565647320617661696C61626C6520706F696E747300000000 PUSH1 0x44 DUP3 ADD MSTORE PUSH1 0x64 SWAP1 REVERT JUMPDEST PUSH1 0x40 MLOAD PUSH3 0x461BCD PUSH1 0xE5 SHL DUP2 MSTORE PUSH1 0x20 PUSH1 0x4 DUP3 ADD MSTORE PUSH1 0x10 PUSH1 0x24 DUP3 ADD MSTORE PUSH16 0x105B1C9958591E481C995D99585B1959 PUSH1 0x82 SHL PUSH1 0x44 DUP3 ADD MSTORE PUSH1 0x64 SWAP1 REVERT JUMPDEST PUSH1 0x40 MLOAD PUSH3 0x461BCD PUSH1 0xE5 SHL DUP2 MSTORE PUSH1 0x20 PUSH1 0x4 DUP3 ADD MSTORE PUSH1 0x11 PUSH1 0x24 DUP3 ADD MSTORE PUSH17 0x135D5CDD0818DBDB5B5A5D08199A5C9CDD PUSH1 0x7A SHL PUSH1 0x44 DUP3 ADD MSTORE PUSH1 0x64 SWAP1 REVERT JUMPDEST ISZERO PUSH2 0x1CB1 JUMPI JUMP JUMPDEST PUSH1 0x40 MLOAD PUSH3 0x461BCD PUSH1 0xE5 SHL DUP2 MSTORE PUSH1 0x20 PUSH1 0x4 DUP3 ADD MSTORE PUSH1 0x18 PUSH1 0x24 DUP3 ADD MSTORE PUSH32 0x4F6E6C792047616D654D61737465722063616E2063616C6C0000000000000000 PUSH1 0x44 DUP3 ADD MSTORE PUSH1 0x64 SWAP1 REVERT JUMPDEST SWAP2 SWAP1 DUP2 LT ISZERO PUSH2 0x18C6 JUMPI PUSH1 0x5 SHL ADD SWAP1 JUMP JUMPDEST DUP1 SLOAD DUP3 LT ISZERO PUSH2 0x18C6 JUMPI PUSH1 0x0 MSTORE PUSH1 0x20 PUSH1 0x0 KECCAK256 ADD SWAP1 PUSH1 0x0 SWAP1 JUMP JUMPDEST SWAP1 DUP2 SLOAD SWAP2 PUSH9 0x10000000000000000 DUP4 LT ISZERO PUSH2 0x946 JUMPI DUP3 PUSH2 0x1D46 SWAP2 PUSH1 0x1 PUSH2 0x1B08 SWAP6 ADD DUP2 SSTORE PUSH2 0x1D06 JUMP JUMPDEST DUP2 SLOAD PUSH1 0x1 PUSH1 0x1 PUSH1 0xA0 SHL SUB SWAP4 DUP5 AND PUSH1 0x3 SWAP3 SWAP1 SWAP3 SHL SWAP2 DUP3 SHL SWAP4 SWAP1 SWAP2 SHL NOT AND SWAP2 SWAP1 SWAP2 OR SWAP1 SSTORE JUMP JUMPDEST ISZERO PUSH2 0x1D71 JUMPI JUMP JUMPDEST PUSH1 0x40 MLOAD PUSH3 0x461BCD PUSH1 0xE5 SHL DUP2 MSTORE PUSH1 0x20 PUSH1 0x4 DUP3 ADD MSTORE PUSH1 0x13 PUSH1 0x24 DUP3 ADD MSTORE PUSH19 0x4E6F7420696E20636F6D6D6974207374616765 PUSH1 0x68 SHL PUSH1 0x44 DUP3 ADD MSTORE PUSH1 0x64 SWAP1 REVERT JUMPDEST DUP1 PUSH1 0x0 MSTORE PUSH1 0x3 PUSH1 0x20 MSTORE PUSH1 0x40 PUSH1 0x0 KECCAK256 PUSH1 0x1 DUP2 ADD SWAP1 PUSH2 0x1DCC PUSH1 0x1 DUP4 SLOAD EQ PUSH2 0x1D6A JUMP JUMPDEST PUSH1 0x2 DUP2 ADD DUP1 SLOAD TIMESTAMP GT DUP1 ISZERO PUSH2 0x1FD4 JUMPI JUMPDEST ISZERO PUSH2 0x1F8F JUMPI PUSH1 0xF DUP3 ADD SLOAD SWAP3 PUSH1 0x8 DUP4 ADD SWAP4 DUP5 SLOAD DUP1 SWAP2 EQ PUSH2 0x1F4E JUMPI PUSH2 0x1DFD DUP2 PUSH2 0x183D JUMP JUMPDEST PUSH1 0x0 SWAP2 PUSH1 0xD DUP7 ADD DUP4 JUMPDEST DUP3 DUP2 LT PUSH2 0x1EE1 JUMPI POP POP POP PUSH1 0x0 JUMPDEST DUP3 DUP2 LT PUSH2 0x1EBB JUMPI POP POP POP PUSH1 0x2 DUP5 SLOAD LT PUSH1 0x0 EQ PUSH2 0x1E7B JUMPI POP POP PUSH32 0xA7690F576EAEF889EF9EF29D1EAEE6C0E3B073108B66BB8009EC8AF6428BB345 SWAP2 PUSH2 0x1E76 SWAP2 PUSH1 0x4 PUSH1 0xFF NOT DUP3 SLOAD AND OR DUP2 SSTORE PUSH1 0x4 TIMESTAMP SWAP2 ADD SSTORE PUSH1 0x40 MLOAD SWAP2 DUP3 SWAP2 PUSH1 0x20 DUP4 MSTORE PUSH1 0x20 DUP4 ADD SWAP1 PUSH2 0x186F JUMP JUMPDEST SUB SWAP1 LOG2 JUMP JUMPDEST PUSH1 0x2 SWAP2 SWAP4 POP SSTORE PUSH1 0x78 TIMESTAMP ADD DUP1 TIMESTAMP GT PUSH2 0x4F7 JUMPI PUSH1 0x11 PUSH1 0x60 SWAP3 DUP3 PUSH1 0x0 DUP1 MLOAD PUSH1 0x20 PUSH2 0x2392 DUP4 CODECOPY DUP2 MLOAD SWAP2 MSTORE SWAP6 SSTORE ADD SLOAD SWAP1 PUSH1 0x40 MLOAD SWAP2 DUP3 MSTORE PUSH1 0x2 PUSH1 0x20 DUP4 ADD MSTORE PUSH1 0x40 DUP3 ADD MSTORE LOG2 JUMP JUMPDEST PUSH1 0x1 SWAP1 PUSH2 0x1EDB PUSH1 0x1 PUSH1 0x1 PUSH1 0xA0 SHL SUB PUSH2 0x1ED3 DUP4 DUP7 PUSH2 0x18B2 JUMP JUMPDEST MLOAD AND DUP11 PUSH2 0x2180 JUMP JUMPDEST ADD PUSH2 0x1E13 JUMP JUMPDEST DUP1 PUSH1 0xFF PUSH1 0x40 PUSH2 0x1EF2 PUSH1 0x1 SWAP5 DUP14 PUSH2 0x1D06 JUMP JUMPDEST SWAP1 SLOAD PUSH1 0x3 SWAP2 SWAP1 SWAP2 SHL SHR PUSH1 0xA0 DUP6 SWAP1 SHL DUP6 SWAP1 SUB AND PUSH1 0x0 SWAP1 DUP2 MSTORE PUSH1 0x20 DUP7 SWAP1 MSTORE KECCAK256 SLOAD AND ISZERO PUSH2 0x1F1D JUMPI JUMPDEST ADD PUSH2 0x1E06 JUMP JUMPDEST PUSH2 0x1F27 DUP2 DUP12 PUSH2 0x1D06 JUMP JUMPDEST DUP4 DUP1 PUSH1 0xA0 SHL SUB SWAP2 SLOAD SWAP1 PUSH1 0x3 SHL SHR AND PUSH2 0x1F48 PUSH2 0x1F41 DUP9 PUSH2 0x1793 JUMP JUMPDEST SWAP8 DUP8 PUSH2 0x18B2 JUMP JUMPDEST MSTORE PUSH2 0x1F17 JUMP JUMPDEST POP PUSH1 0x2 SWAP2 SWAP4 POP SSTORE PUSH1 0x78 TIMESTAMP ADD DUP1 TIMESTAMP GT PUSH2 0x4F7 JUMPI PUSH1 0x11 PUSH1 0x60 SWAP3 DUP3 PUSH1 0x0 DUP1 MLOAD PUSH1 0x20 PUSH2 0x2392 DUP4 CODECOPY DUP2 MLOAD SWAP2 MSTORE SWAP6 SSTORE ADD SLOAD SWAP1 PUSH1 0x40 MLOAD SWAP2 DUP3 MSTORE PUSH1 0x2 PUSH1 0x20 DUP4 ADD MSTORE PUSH1 0x40 DUP3 ADD MSTORE LOG2 JUMP JUMPDEST PUSH1 0x40 MLOAD PUSH3 0x461BCD PUSH1 0xE5 SHL DUP2 MSTORE PUSH1 0x20 PUSH1 0x4 DUP3 ADD MSTORE PUSH1 0x1B PUSH1 0x24 DUP3 ADD MSTORE PUSH32 0x43616E6E6F7420656E6420636F6D6D6974207374616765207965740000000000 PUSH1 0x44 DUP3 ADD MSTORE PUSH1 0x64 SWAP1 REVERT JUMPDEST POP PUSH1 0xF DUP3 ADD SLOAD PUSH1 0x8 DUP4 ADD SLOAD EQ PUSH2 0x1DDB JUMP JUMPDEST DUP1 PUSH1 0x0 MSTORE PUSH1 0x3 PUSH1 0x20 MSTORE PUSH1 0x40 PUSH1 0x0 KECCAK256 PUSH1 0x8 DUP2 ADD DUP1 SLOAD PUSH2 0x2002 DUP2 PUSH2 0x183D JUMP JUMPDEST PUSH1 0x0 SWAP2 PUSH1 0xE DUP6 ADD DUP4 JUMPDEST DUP3 DUP2 LT PUSH2 0x2105 JUMPI POP POP POP PUSH1 0x0 JUMPDEST DUP3 DUP2 LT PUSH2 0x20DF JUMPI POP POP POP PUSH1 0x2 DUP2 SLOAD LT DUP1 ISZERO PUSH2 0x20D0 JUMPI JUMPDEST ISZERO PUSH2 0x207E JUMPI PUSH2 0x1E76 SWAP1 PUSH32 0xA7690F576EAEF889EF9EF29D1EAEE6C0E3B073108B66BB8009EC8AF6428BB345 SWAP3 PUSH1 0x4 PUSH1 0xFF NOT DUP3 SLOAD AND OR DUP2 SSTORE PUSH1 0x4 TIMESTAMP SWAP2 ADD SSTORE PUSH1 0x40 MLOAD SWAP2 DUP3 SWAP2 PUSH1 0x20 DUP4 MSTORE PUSH1 0x20 DUP4 ADD SWAP1 PUSH2 0x186F JUMP JUMPDEST POP PUSH1 0x11 DUP2 ADD SWAP1 PUSH2 0x208E DUP3 SLOAD PUSH2 0x1793 JUMP JUMPDEST DUP1 SWAP3 SSTORE PUSH1 0x1 DUP1 DUP3 ADD SSTORE PUSH1 0x78 TIMESTAMP ADD SWAP2 DUP3 TIMESTAMP GT PUSH2 0x4F7 JUMPI DUP3 PUSH1 0x0 DUP1 MLOAD PUSH1 0x20 PUSH2 0x2392 DUP4 CODECOPY DUP2 MLOAD SWAP2 MSTORE SWAP4 PUSH1 0x2 PUSH1 0x60 SWAP5 ADD SSTORE PUSH1 0x40 MLOAD SWAP2 DUP3 MSTORE PUSH1 0x1 PUSH1 0x20 DUP4 ADD MSTORE PUSH1 0x40 DUP3 ADD MSTORE LOG2 JUMP JUMPDEST POP PUSH1 0xA PUSH1 0x11 DUP4 ADD SLOAD LT ISZERO PUSH2 0x202E JUMP JUMPDEST PUSH1 0x1 SWAP1 PUSH2 0x20FF PUSH1 0x1 PUSH1 0x1 PUSH1 0xA0 SHL SUB PUSH2 0x20F7 DUP4 DUP7 PUSH2 0x18B2 JUMP JUMPDEST MLOAD AND DUP9 PUSH2 0x2180 JUMP JUMPDEST ADD PUSH2 0x2018 JUMP JUMPDEST DUP1 PUSH2 0x2112 PUSH1 0x1 SWAP3 DUP9 PUSH2 0x1D06 JUMP JUMPDEST DUP4 DUP1 PUSH1 0xA0 SHL SUB SWAP2 SLOAD SWAP1 PUSH1 0x3 SHL SHR AND PUSH1 0xFF PUSH1 0x40 PUSH1 0x0 DUP6 DUP1 PUSH1 0xA0 SHL SUB DUP5 AND DUP2 MSTORE DUP7 PUSH1 0x20 MSTORE KECCAK256 SLOAD AND ISZERO PUSH2 0x2144 JUMPI JUMPDEST POP ADD PUSH2 0x200B JUMP JUMPDEST PUSH2 0x2150 PUSH2 0x1F41 DUP9 PUSH2 0x1793 JUMP JUMPDEST MSTORE CODESIZE PUSH2 0x213D JUMP JUMPDEST PUSH1 0x0 SLOAD PUSH1 0x1 PUSH1 0x1 PUSH1 0xA0 SHL SUB AND CALLER SUB PUSH2 0x216B JUMPI JUMP JUMPDEST PUSH4 0x118CDAA7 PUSH1 0xE0 SHL PUSH1 0x0 MSTORE CALLER PUSH1 0x4 MSTORE PUSH1 0x24 PUSH1 0x0 REVERT JUMPDEST SWAP1 PUSH1 0x0 SWAP2 DUP1 DUP4 MSTORE PUSH1 0x3 PUSH1 0x20 MSTORE PUSH1 0x40 DUP4 KECCAK256 SWAP2 PUSH1 0x9 DUP4 ADD PUSH1 0x1 DUP1 PUSH1 0xA0 SHL SUB DUP3 AND DUP6 MSTORE DUP1 PUSH1 0x20 MSTORE PUSH1 0xFF PUSH1 0x40 DUP7 KECCAK256 SLOAD AND ISZERO PUSH2 0x2358 JUMPI PUSH1 0x1 DUP1 PUSH1 0xA0 SHL SUB DUP3 AND DUP6 MSTORE PUSH1 0x20 MSTORE PUSH1 0x40 DUP5 KECCAK256 PUSH1 0xFF NOT DUP2 SLOAD AND SWAP1 SSTORE PUSH1 0x1 DUP1 PUSH1 0xA0 SHL SUB AND SWAP2 DUP3 DUP5 MSTORE PUSH1 0x5 PUSH1 0x20 MSTORE PUSH1 0x40 DUP5 KECCAK256 PUSH1 0xFF NOT DUP2 SLOAD AND SWAP1 SSTORE DUP3 DUP5 MSTORE PUSH1 0x4 PUSH1 0x20 MSTORE DUP4 PUSH1 0x40 DUP2 KECCAK256 SSTORE DUP4 PUSH1 0x8 DUP3 ADD SWAP5 JUMPDEST DUP6 SLOAD DUP1 DUP3 LT ISZERO PUSH2 0x234C JUMPI DUP6 PUSH2 0x2212 DUP4 DUP10 PUSH2 0x1D06 JUMP JUMPDEST SWAP1 SLOAD PUSH1 0x3 SWAP2 SWAP1 SWAP2 SHL SHR PUSH1 0x1 PUSH1 0x1 PUSH1 0xA0 SHL SUB AND EQ PUSH2 0x2232 JUMPI POP PUSH1 0x1 ADD PUSH2 0x21FD JUMP JUMPDEST PUSH1 0x0 SWAP7 SWAP3 SWAP4 SWAP5 SWAP6 SWAP7 NOT DUP2 ADD SWAP1 DUP2 GT PUSH2 0x2338 JUMPI SWAP1 PUSH2 0x1D46 PUSH2 0x2255 PUSH2 0x226E SWAP4 DUP6 PUSH2 0x1D06 JUMP JUMPDEST SWAP1 SLOAD PUSH1 0x3 SWAP2 SWAP1 SWAP2 SHL SHR PUSH1 0x1 PUSH1 0x1 PUSH1 0xA0 SHL SUB AND SWAP2 DUP5 PUSH2 0x1D06 JUMP JUMPDEST DUP1 SLOAD DUP1 ISZERO PUSH2 0x2324 JUMPI PUSH1 0x0 NOT ADD SWAP1 PUSH2 0x2285 DUP3 DUP3 PUSH2 0x1D06 JUMP JUMPDEST DUP2 SLOAD SWAP1 PUSH1 0x1 DUP1 PUSH1 0xA0 SHL SUB SWAP1 PUSH1 0x3 SHL SHL NOT AND SWAP1 SSTORE SSTORE JUMPDEST PUSH1 0x1 SLOAD PUSH1 0x1 PUSH1 0x1 PUSH1 0xA0 SHL SUB AND DUP1 EXTCODESIZE ISZERO PUSH2 0x2320 JUMPI SWAP1 DUP1 DUP1 PUSH1 0x7 SWAP5 SWAP4 PUSH1 0x24 PUSH1 0x40 MLOAD DUP1 SWAP5 DUP2 SWAP4 PUSH4 0x3EF6CF1D PUSH1 0xE2 SHL DUP4 MSTORE DUP12 PUSH1 0x4 DUP5 ADD MSTORE GAS CALL PUSH2 0x2310 JUMPI JUMPDEST POP POP DUP4 PUSH1 0x0 MSTORE ADD PUSH1 0x20 MSTORE PUSH32 0x51479C93D7646904D2282E9E79CDDF11999AC774B7FD0289E2F59CB4AD0F086A PUSH1 0x20 PUSH1 0x40 PUSH1 0x0 KECCAK256 SLOAD PUSH1 0x40 MLOAD SWAP1 DUP2 MSTORE LOG3 JUMP JUMPDEST DUP2 PUSH2 0x231A SWAP2 PUSH2 0x1803 JUMP JUMPDEST CODESIZE PUSH2 0x22D4 JUMP JUMPDEST POP DUP1 REVERT JUMPDEST PUSH4 0x4E487B71 PUSH1 0xE0 SHL DUP4 MSTORE PUSH1 0x31 PUSH1 0x4 MSTORE PUSH1 0x24 DUP4 REVERT JUMPDEST PUSH4 0x4E487B71 PUSH1 0xE0 SHL DUP5 MSTORE PUSH1 0x11 PUSH1 0x4 MSTORE PUSH1 0x24 DUP5 REVERT JUMPDEST POP POP SWAP1 SWAP2 SWAP3 SWAP4 POP PUSH2 0x229A JUMP JUMPDEST PUSH1 0x40 MLOAD PUSH3 0x461BCD PUSH1 0xE5 SHL DUP2 MSTORE PUSH1 0x20 PUSH1 0x4 DUP3 ADD MSTORE PUSH1 0x11 PUSH1 0x24 DUP3 ADD MSTORE PUSH17 0x506C61796572206E6F7420616374697665 PUSH1 0x78 SHL PUSH1 0x44 DUP3 ADD MSTORE PUSH1 0x64 SWAP1 REVERT INVALID REVERT SWAP14 OR 0xE5 JUMP TSTORE 0xEE LOG3 0xD2 MSIZE XOR 0xD9 PUSH0 0xC3 SWAP9 PUSH8 0x3B9445EF0A96D12E 0xAF GASPRICE 0xB2 0xB1 SWAP9 PUSH22 0x6C65A26469706673582212200D2FA0D76E1485362818 0x4D PUSH2 0x86C0 0xB3 PUSH27 0x560A9FEEC2F488B0D67F9DA337B5EF464736F6C634300081C0033 "},"methodIdentifiers":{"commitBid(bytes32)":"86a2cc27","endExpiredGames()":"d0f3a21e","endGame()":"6cbc2ded","gameIdCounter()":"1bb412d6","gameMaster()":"bdf84ae7","getActivePlayers()":"3c4f5a66","getCurrentPhase(uint256)":"572e85ec","getGameInfo(uint256)":"47e1d550","getGameName()":"bbda33d9","getGameState(uint256)":"ffde0c74","getGames()":"c04c5947","getPlayerGameId(address)":"773b549d","getPlayerInfo(uint256)":"ea17532e","getPlayerNumber(uint256,address)":"3532804d","getPlayerPoints(uint256,address)":"53fb1cd2","getPlayers()":"8b5b9ccc","getRoundEndTime(uint256)":"12b19a13","hasPlayerCommitted(uint256,address)":"84cd7d33","hasPlayerRevealed(uint256,address)":"d216b62b","initialize(address[],uint256[])":"7fbbe46f","isPlayerInGame(address)":"574a5b20","owner()":"8da5cb5b","playerGameId(address)":"25b05c88","renounceOwnership()":"715018a6","revealBid(uint256,bytes32)":"62c5424a","setGameMaster(address)":"c2e94927","startGames()":"e81de9f5","transferOwnership(address)":"f2fde38b"}}}}}