{"contracts/games/Threes.sol":{"Threes":{"abi":[{"inputs":[],"stateMutability":"nonpayable","type":"constructor"},{"inputs":[{"internalType":"address","name":"owner","type":"address"}],"name":"OwnableInvalidOwner","type":"error"},{"inputs":[{"internalType":"address","name":"account","type":"address"}],"name":"OwnableUnauthorizedAccount","type":"error"},{"anonymous":false,"inputs":[{"indexed":true,"internalType":"uint256","name":"gameId","type":"uint256"},{"indexed":false,"internalType":"address[]","name":"winners","type":"address[]"}],"name":"GameCompleted","type":"event"},{"anonymous":false,"inputs":[{"indexed":false,"internalType":"address[]","name":"players","type":"address[]"},{"indexed":false,"internalType":"uint256[]","name":"playerNumbers","type":"uint256[]"}],"name":"GameInitialized","type":"event"},{"anonymous":false,"inputs":[{"indexed":false,"internalType":"address","name":"newGameMaster","type":"address"}],"name":"GameMasterChanged","type":"event"},{"anonymous":false,"inputs":[{"indexed":true,"internalType":"address","name":"previousOwner","type":"address"},{"indexed":true,"internalType":"address","name":"newOwner","type":"address"}],"name":"OwnershipTransferred","type":"event"},{"anonymous":false,"inputs":[{"indexed":true,"internalType":"uint256","name":"gameId","type":"uint256"},{"indexed":true,"internalType":"address","name":"player","type":"address"}],"name":"PlayerCommitted","type":"event"},{"anonymous":false,"inputs":[{"indexed":true,"internalType":"uint256","name":"gameId","type":"uint256"},{"indexed":true,"internalType":"address","name":"player","type":"address"},{"indexed":false,"internalType":"uint256","name":"playerNumber","type":"uint256"}],"name":"PlayerEliminated","type":"event"},{"anonymous":false,"inputs":[{"indexed":true,"internalType":"uint256","name":"gameId","type":"uint256"},{"indexed":true,"internalType":"address","name":"player","type":"address"},{"indexed":false,"internalType":"uint256","name":"choice","type":"uint256"}],"name":"PlayerRevealed","type":"event"},{"anonymous":false,"inputs":[{"indexed":true,"internalType":"uint256","name":"gameId","type":"uint256"},{"indexed":false,"internalType":"uint256","name":"roundNumber","type":"uint256"},{"indexed":false,"internalType":"uint256","name":"endTime","type":"uint256"}],"name":"RoundStarted","type":"event"},{"inputs":[{"internalType":"bytes32","name":"commitment","type":"bytes32"}],"name":"commitChoice","outputs":[],"stateMutability":"nonpayable","type":"function"},{"inputs":[],"name":"endExpiredGames","outputs":[],"stateMutability":"nonpayable","type":"function"},{"inputs":[],"name":"endGame","outputs":[{"internalType":"address[]","name":"","type":"address[]"}],"stateMutability":"nonpayable","type":"function"},{"inputs":[],"name":"gameIdCounter","outputs":[{"internalType":"uint256","name":"","type":"uint256"}],"stateMutability":"view","type":"function"},{"inputs":[],"name":"gameMaster","outputs":[{"internalType":"address","name":"","type":"address"}],"stateMutability":"view","type":"function"},{"inputs":[],"name":"getActivePlayers","outputs":[{"internalType":"address[]","name":"","type":"address[]"}],"stateMutability":"view","type":"function"},{"inputs":[{"internalType":"uint256","name":"gameId","type":"uint256"}],"name":"getCurrentRound","outputs":[{"internalType":"uint256","name":"","type":"uint256"}],"stateMutability":"view","type":"function"},{"inputs":[{"internalType":"uint256","name":"gameId","type":"uint256"}],"name":"getGameInfo","outputs":[{"components":[{"internalType":"enum GameState","name":"state","type":"uint8"},{"internalType":"uint256","name":"currentRound","type":"uint256"},{"internalType":"uint256","name":"roundEndTime","type":"uint256"},{"internalType":"uint256","name":"gameStartTime","type":"uint256"},{"internalType":"uint256","name":"gameEndTime","type":"uint256"}],"internalType":"struct IGame.GameInfo","name":"","type":"tuple"}],"stateMutability":"view","type":"function"},{"inputs":[],"name":"getGameName","outputs":[{"internalType":"string","name":"","type":"string"}],"stateMutability":"pure","type":"function"},{"inputs":[{"internalType":"uint256","name":"gameId","type":"uint256"}],"name":"getGameState","outputs":[{"internalType":"enum GameState","name":"","type":"uint8"}],"stateMutability":"view","type":"function"},{"inputs":[],"name":"getGames","outputs":[{"components":[{"internalType":"uint256","name":"gameId","type":"uint256"},{"internalType":"enum GameState","name":"state","type":"uint8"},{"internalType":"uint256","name":"currentRound","type":"uint256"},{"internalType":"uint256","name":"activePlayerCount","type":"uint256"}],"internalType":"struct GameInstanceInfo[]","name":"gamesInfo","type":"tuple[]"}],"stateMutability":"view","type":"function"},{"inputs":[{"internalType":"address","name":"player","type":"address"}],"name":"getPlayerGameId","outputs":[{"internalType":"uint256","name":"","type":"uint256"}],"stateMutability":"view","type":"function"},{"inputs":[{"internalType":"uint256","name":"gameId","type":"uint256"}],"name":"getPlayerInfo","outputs":[{"components":[{"internalType":"address","name":"playerAddress","type":"address"},{"internalType":"uint256","name":"playerNumber","type":"uint256"},{"internalType":"bool","name":"hasCommitted","type":"bool"},{"internalType":"bool","name":"hasRevealed","type":"bool"},{"internalType":"bool","name":"isActive","type":"bool"}],"internalType":"struct Threes.ThreesPlayerInfo[]","name":"","type":"tuple[]"}],"stateMutability":"view","type":"function"},{"inputs":[{"internalType":"uint256","name":"gameId","type":"uint256"},{"internalType":"address","name":"player","type":"address"}],"name":"getPlayerNumber","outputs":[{"internalType":"uint256","name":"","type":"uint256"}],"stateMutability":"view","type":"function"},{"inputs":[],"name":"getPlayers","outputs":[{"internalType":"address[]","name":"","type":"address[]"}],"stateMutability":"view","type":"function"},{"inputs":[{"internalType":"uint256","name":"gameId","type":"uint256"}],"name":"getRoundEndTime","outputs":[{"internalType":"uint256","name":"","type":"uint256"}],"stateMutability":"view","type":"function"},{"inputs":[{"internalType":"uint256","name":"gameId","type":"uint256"},{"internalType":"address","name":"player","type":"address"}],"name":"hasPlayerCommitted","outputs":[{"internalType":"bool","name":"","type":"bool"}],"stateMutability":"view","type":"function"},{"inputs":[{"internalType":"uint256","name":"gameId","type":"uint256"},{"internalType":"address","name":"player","type":"address"}],"name":"hasPlayerRevealed","outputs":[{"internalType":"bool","name":"","type":"bool"}],"stateMutability":"view","type":"function"},{"inputs":[{"internalType":"address[]","name":"_players","type":"address[]"},{"internalType":"uint256[]","name":"_playerNumbers","type":"uint256[]"}],"name":"initialize","outputs":[],"stateMutability":"nonpayable","type":"function"},{"inputs":[{"internalType":"address","name":"","type":"address"}],"name":"isPlayerInGame","outputs":[{"internalType":"bool","name":"","type":"bool"}],"stateMutability":"view","type":"function"},{"inputs":[],"name":"owner","outputs":[{"internalType":"address","name":"","type":"address"}],"stateMutability":"view","type":"function"},{"inputs":[{"internalType":"address","name":"","type":"address"}],"name":"playerGameId","outputs":[{"internalType":"uint256","name":"","type":"uint256"}],"stateMutability":"view","type":"function"},{"inputs":[],"name":"renounceOwnership","outputs":[],"stateMutability":"nonpayable","type":"function"},{"inputs":[{"internalType":"uint256","name":"choice","type":"uint256"},{"internalType":"bytes32","name":"salt","type":"bytes32"}],"name":"revealChoice","outputs":[],"stateMutability":"nonpayable","type":"function"},{"inputs":[{"internalType":"address","name":"_newGameMaster","type":"address"}],"name":"setGameMaster","outputs":[],"stateMutability":"nonpayable","type":"function"},{"inputs":[],"name":"startGames","outputs":[{"internalType":"bool","name":"","type":"bool"}],"stateMutability":"nonpayable","type":"function"},{"inputs":[{"internalType":"address","name":"newOwner","type":"address"}],"name":"transferOwnership","outputs":[],"stateMutability":"nonpayable","type":"function"}],"evm":{"bytecode":{"linkReferences":{},"object":"60808060405234608757331560715760008054336001600160a01b0319821681178355916001600160a01b03909116907f8be0079c531659141344cd1fd0a4f28419497f9722a3daafe3b4186f6b6457e09080a3600180546001600160a01b0319163317905561242b908161008d8239f35b631e4fbdf760e01b600052600060045260246000fd5b600080fdfe6080604052600436101561001257600080fd5b60003560e01c806312b19a131461150b578063148b02c5146114be5780631bb412d6146114a057806325b05c88146110c95780633532804d146113ce5780633c4f5a66146112f157806347e1d55014611231578063574a5b20146111f25780636cbc2ded1461115c578063715018a614611103578063773b549d146110c95780637fbbe46f14610c9457806384cd7d3314610c255780638b5b9ccc14610b305780638c10bb9614610b115780638da5cb5b14610ae8578063bbda33d914610a42578063bdf84ae714610a19578063c04c5947146108b4578063c2e94927146107f9578063d0f3a21e14610732578063d216b62b146106c3578063e05b10c0146104ff578063e81de9f5146103ea578063ea17532e14610227578063f2fde38b1461019e5763ffde0c741461014557600080fd5b34610199576020366003190112610199576004358015158061018d575b61016b90611605565b6000526003602052602060ff6040600020541661018b60405180926115c7565bf35b50600254811115610162565b600080fd5b34610199576020366003190112610199576101b7611558565b6101bf611fd0565b6001600160a01b0316801561021157600080546001600160a01b03198116831782556001600160a01b0316907f8be0079c531659141344cd1fd0a4f28419497f9722a3daafe3b4186f6b6457e09080a3005b631e4fbdf760e01b600052600060045260246000fd5b3461019957602036600319011261019957600435801515806103de575b61024d90611605565b60005260036020526040600020600581019081549061026b826116b9565b926102796040519485611697565b828452601f19610288846116b9565b0160005b8181106103c757505060006007830192600c8101926009600d83019201925b86811061032f578760405180916020820160208352815180915260206040840192019060005b8181106102df575050500390f35b91935091602060a0600192608087518580851b03815116835284810151858401526040810151151560408401526060810151151560608401520151151560808201520194019101918493926102d1565b8061033c60019284611803565b905460039190911b1c60a083901b83900316600081815260208981526040808320548a83528184205489845282852054938b9052938290205491519460ff92831694938316939092169161038f8661165f565b855260208501521515604084015215156060830152151560808201526103b5828b611746565b526103c0818a611746565b50016102ab565b6020906103d2611770565b8282890101520161028c565b50600254811115610244565b346101995760003660031901126101995761041060018060a01b036001541633146117a7565b6001805b60025481116104f25780600052600360205260406000209060ff82541660058110156104dc57600114806104cf575b156104c157600260ff1983541617825560018083015561012c4201918242116104ab577fa359b664a68acd8839e42112eb50eff3408165e15074fde89ddb58a0db2e691d6040846104a695600286950155815190600182526020820152a2611643565b610414565b634e487b7160e01b600052601160045260246000fd5b9150506104a6600091611643565b5060088201541515610443565b634e487b7160e01b600052602160045260246000fd5b6020826040519015158152f35b346101995760203660031901126101995733600052600560205261052a60ff60406000205416611869565b336000526004602052604060002054806000526003602052604060002060ff81541660058110156104dc57600261056191146118ae565b600181016105726001825414611c1d565b60028201908154421161068857336000908152600c8401602081905260409091205460ff1661064f57336000908152600a850160209081526040808320600435905592905220805460ff19166001179055600e830180546105d290611643565b80915560086040519433877f2e6ed0cae7a81e1893017dfafd5fbaf8594adcc50ff27b5f8eb70e0e90acf315600080a301541461060b57005b6002905561012c4201918242116104ab57827fa359b664a68acd8839e42112eb50eff3408165e15074fde89ddb58a0db2e691d9360409355600282526020820152a2005b60405162461bcd60e51b8152602060048201526011602482015270105b1c9958591e4818dbdb5b5a5d1d1959607a1b6044820152606490fd5b60405162461bcd60e51b815260206004820152601360248201527210dbdb5b5a5d081c195c9a5bd908195b991959606a1b6044820152606490fd5b34610199576040366003190112610199576004356106df61156e565b9080151580610726575b6106f290611605565b6000526003602052600d6040600020019060018060a01b0316600052602052602060ff604060002054166040519015158152f35b506002548111156106e9565b346101995760003660031901126101995761075860018060a01b036001541633146117a7565b60015b60025481116107f75780600052600360205260406000209060ff8254169160058310156104dc5760026107949314610799575b50611643565b61075b565b600181015460018114806107ea575b156107be5750506107b881611ff9565b8261078e565b60021490816107dc575b50156107b8576107d781611c70565b6107b8565b6002915001544211836107c8565b50600282015442116107a8565b005b3461019957602036600319011261019957610812611558565b61081a611fd0565b6001600160a01b0316801561086f576020817f63860f6674590a6969c4fe1dc738a9c8f955407c09e6c67a6bdb818f4c35cd8a926bffffffffffffffffffffffff60a01b6001541617600155604051908152a1005b60405162461bcd60e51b815260206004820152601a60248201527f496e76616c69642047616d654d617374657220616464726573730000000000006044820152606490fd5b34610199576000366003190112610199576002546108d1816116b9565b906108df6040519283611697565b808252601f196108ee826116b9565b0160005b8181106109e657505060015b81811115610975578260405180916020820160208352815180915260206040840192019060005b818110610933575050500390f35b9193509160206080600192606087518051835261095685820151868501906115c7565b6040810151604084015201516060820152019401910191849392610925565b80600052600360205260406000209060ff8254169160086001820154910154906109b1604051946109a58661167b565b8486526020860161179b565b604084015260608301526000198101918183116104ab578261078e916109da6109e19588611746565b5285611746565b6108fe565b6020906040516109f58161167b565b600081526000838201526000604082015260006060820152828287010152016108f2565b34610199576000366003190112610199576001546040516001600160a01b039091168152602090f35b34610199576000366003190112610199576040516040810181811067ffffffffffffffff821117610ad257604052600681526554687265657360d01b602082015260405190602082528181519182602083015260005b838110610aba5750508160006040809484010152601f80199101168101030190f35b60208282018101516040878401015285935001610a98565b634e487b7160e01b600052604160045260246000fd5b34610199576000366003190112610199576000546040516001600160a01b039091168152602090f35b34610199576040366003190112610199576107f76024356004356118ec565b3461019957600036600319011261019957600254600160005b82821115610bfa57610b5b91506116d1565b6000916001905b80821115610b7c5760405180610b788582611584565b0390f35b610ba390826000949394526003602052610baa600560406000200160405193848092611703565b0383611697565b60005b8251811015610be7576001906001600160a01b03610bcb8286611746565b5116610be0610bd989611643565b9887611746565b5201610bad565b509192610bf49150611643565b90610b62565b610c19610c1f9183600052600360205260056040600020015490611652565b91611643565b90610b49565b3461019957604036600319011261019957600435610c4161156e565b9080151580610c88575b610c5490611605565b6000526003602052600c6040600020019060018060a01b0316600052602052602060ff604060002054166040519015158152f35b50600254811115610c4b565b346101995760403660031901126101995760043567ffffffffffffffff811161019957610cc59036906004016115d4565b9060243567ffffffffffffffff811161019957610ce69036906004016115d4565b9092610cfd60018060a01b036001541633146117a7565b801561108e578181036110495760038106610ff8576003810492600583901b92906001600160fb1b03821190600090815b878110610d3757005b610d42600254611643565b90816002558160005260036020526040600020600160ff198254161781554260038201556000928b60058301946008840160078501926009600687019601925b8d8b60038310610e51575050505050505050506003825403610dfe57610db360405192604084526040840190611703565b828103602084015285878252610199578260206001948b848f8290857fb66ba8feaec509998ef3217bc97fbf1a0f906b89fac25a4ace8ddff059a41f1298013701030190a101610d2e565b60405162461bcd60e51b815260206004820152602560248201527f456163682067616d65206d75737420686176652065786163746c79203320706c604482015264617965727360d81b6064820152608490fd5b610e5b918c6117f3565b356001600160a01b0381169b908c8103610199578c15610fba578c8f8160005260056020528c60ff60406000205416610f24575b610ed892610eb186869460019a610eac610ef49a9960409761181b565b6117f3565b358260008381528d602052205560009081528c602052208660ff198254161790558661181b565b60408d600090815287602052208460ff19825416179055611643565b9a80600052600460205286604060002055600052600560205260406000208260ff19825416179055018f90610d82565b505060009291925260046020526040600020548015908115610f95575b5015610f5057908c8f8c610e8f565b60405162461bcd60e51b815260206004820152601d60248201527f506c6179657220616c726561647920696e206163746976652067616d650000006044820152606490fd5b9050600052600360205260ff6040600020541660058110156104dc5760041438610f41565b60405162461bcd60e51b8152602060048201526016602482015275496e76616c696420706c61796572206164647265737360501b6044820152606490fd5b60405162461bcd60e51b815260206004820152602360248201527f506c6179657220636f756e74206d75737420626520646976697369626c65206260448201526279203360e81b6064820152608490fd5b60405162461bcd60e51b815260206004820152601860248201527f4172726179206c656e67746873206d757374206d6174636800000000000000006044820152606490fd5b60405162461bcd60e51b8152602060048201526013602482015272139bc81c1b185e595c9cc81c1c9bdd9a591959606a1b6044820152606490fd5b34610199576020366003190112610199576001600160a01b036110ea611558565b1660005260046020526020604060002054604051908152f35b346101995760003660031901126101995761111c611fd0565b600080546001600160a01b0319811682556001600160a01b03167f8be0079c531659141344cd1fd0a4f28419497f9722a3daafe3b4186f6b6457e08280a3005b346101995760003660031901126101995761118260018060a01b036001541633146117a7565b60405160206111918183611697565b60008252600036813760015b60025481116111e457806000526003825260ff604060002054169060058210156104dc5760026111d192146111d657611643565b61119d565b6111df81611c70565b611643565b60405180610b788582611584565b34610199576020366003190112610199576001600160a01b03611213611558565b166000526005602052602060ff604060002054166040519015158152f35b346101995760203660031901126101995760043561124d611770565b50801515806112e5575b61126090611605565b600052600360205260a0604060002060ff81541690600181015490600281015460046003830154920154926112a16040519561129b8761165f565b8661179b565b602085019081526040850191825260608501928352608085019384526112cb6040518096516115c7565b516020850152516040840152516060830152516080820152f35b50600254811115611257565b3461019957600036600319011261019957600254600160005b828211156113a95761131c91506116d1565b6000916001905b808211156113395760405180610b788582611584565b610ba390826000949394526003602052611360600860406000200160405193848092611703565b60005b8251811015611396576001906001600160a01b036113818286611746565b511661138f610bd989611643565b5201611363565b5091926113a39150611643565b90611323565b610c196113c89183600052600360205260086040600020015490611652565b9061130a565b34610199576040366003190112610199576004356113ea61156e565b9080151580611494575b6113fd90611605565b806000526003602052600660406000200160018060a01b03831660005260205260ff604060002054161561145a57600052600360205260076040600020019060018060a01b03166000526020526020604060002054604051908152f35b60405162461bcd60e51b8152602060048201526012602482015271506c61796572206e6f7420696e2067616d6560701b6044820152606490fd5b506002548111156113f4565b34610199576000366003190112610199576020600254604051908152f35b3461019957602036600319011261019957600435801515806114ff575b6114e490611605565b60005260036020526020600160406000200154604051908152f35b506002548111156114db565b34610199576020366003190112610199576004358015158061154c575b61153190611605565b60005260036020526020600260406000200154604051908152f35b50600254811115611528565b600435906001600160a01b038216820361019957565b602435906001600160a01b038216820361019957565b602060408183019282815284518094520192019060005b8181106115a85750505090565b82516001600160a01b031684526020938401939092019160010161159b565b9060058210156104dc5752565b9181601f840112156101995782359167ffffffffffffffff8311610199576020808501948460051b01011161019957565b1561160c57565b60405162461bcd60e51b815260206004820152600f60248201526e125b9d985b1a590819d85b59481251608a1b6044820152606490fd5b60001981146104ab5760010190565b919082018092116104ab57565b60a0810190811067ffffffffffffffff821117610ad257604052565b6080810190811067ffffffffffffffff821117610ad257604052565b90601f8019910116810190811067ffffffffffffffff821117610ad257604052565b67ffffffffffffffff8111610ad25760051b60200190565b906116db826116b9565b6116e86040519182611697565b82815280926116f9601f19916116b9565b0190602036910137565b906020825491828152019160005260206000209060005b8181106117275750505090565b82546001600160a01b031684526020909301926001928301920161171a565b805182101561175a5760209160051b010190565b634e487b7160e01b600052603260045260246000fd5b6040519061177d8261165f565b60006080838281528260208201528260408201528260608201520152565b60058210156104dc5752565b156117ae57565b60405162461bcd60e51b815260206004820152601860248201527f4f6e6c792047616d654d61737465722063616e2063616c6c00000000000000006044820152606490fd5b919081101561175a5760051b0190565b805482101561175a5760005260206000200190600090565b9081549168010000000000000000831015610ad2578261184391600161186795018155611803565b81546001600160a01b0393841660039290921b91821b9390911b1916919091179055565b565b1561187057565b60405162461bcd60e51b8152602060048201526016602482015275506c61796572206e6f7420696e20616e792067616d6560501b6044820152606490fd5b156118b557565b60405162461bcd60e51b815260206004820152600f60248201526e47616d65206e6f742061637469766560881b6044820152606490fd5b9033600052600560205261190760ff60406000205416611869565b33600052600460205260406000205491826000526003602052604060002060ff81541660058110156104dc57600261193f91146118ae565b336000908152600c8201602052604090205460ff1615611be457600d81019060018060a01b0333166000528160205260ff60406000205416611bac57600183101580611ba1575b15611b6b5760018101600181541480611b5e575b611b38575b5460011901611afd57600281019384544211611ac257604051602081019185835260408201523360601b6060820152605481526119dd607482611697565b519020336000908152600a8301602052604090205403611a8c57336000908152600b82016020908152604080832086905593905291909120805460ff19166001179055600f81018054909260089291611a3590611643565b809455604051908152857f0319fcec55b5300a4dcc6f96b2df475a149433dc721ba7d96c8fb14495b748ac60203393a3015414908115611a81575b50611a785750565b61186790611c70565b905054421138611a70565b60405162461bcd60e51b815260206004820152600e60248201526d125b9d985b1a59081c995d99585b60921b6044820152606490fd5b60405162461bcd60e51b815260206004820152601360248201527214995d99585b081c195c9a5bd908195b991959606a1b6044820152606490fd5b60405162461bcd60e51b81526020600482015260136024820152724e6f7420696e2072657665616c20737461676560681b6044820152606490fd5b611b4186611ff9565b60ff82541660058110156104dc5760040361199f57505050505050565b506002820154421161199a565b60405162461bcd60e51b815260206004820152600e60248201526d496e76616c69642063686f69636560901b6044820152606490fd5b506003831115611986565b60405162461bcd60e51b815260206004820152601060248201526f105b1c9958591e481c995d99585b195960821b6044820152606490fd5b60405162461bcd60e51b8152602060048201526011602482015270135d5cdd0818dbdb5b5a5d08199a5c9cdd607a1b6044820152606490fd5b15611c2457565b60405162461bcd60e51b81526020600482015260136024820152724e6f7420696e20636f6d6d697420737461676560681b6044820152606490fd5b90600481101561175a5760051b0190565b806000526003602052604060002060088101908154611c8e816116d1565b90600090600d8401825b828110611f635750505060005b818110611f4557505082549060038214611d0c575b50507fa7690f576eaef889ef9ef29d1eaee6c0e3b073108b66bb8009ec8af6428bb34591611d0791600460ff19825416178155600442910155604051918291602083526020830190611703565b0390a2565b604051916080611d1c8185611697565b60038452601f198101366020860137600b85019360005b60038110611f07575060405191611d4a8184611697565b36833760005b60038110611ed55750506000936020820160028151148015611ec7575b8015611eb9575b15611e35575060005b838110611dbf57505050505b60005b828110611d995750611cba565b600190611db96001600160a01b03611db18386611746565b5116886121e4565b01611d8c565b806002611df76040611dd36001958d611803565b905460039190911b1c60a086901b8690031660009081526020879052205486611c5f565b5114611e04575b01611d7d565b611e0e818a611803565b838060a01b0391549060031b1c16611e2f611e2889611643565b9888611746565b52611dfe565b600391505114159081611ea9575b81611e99575b50611e55575b50611d89565b825b818110611e645750611e4f565b80611e7160019288611803565b838060a01b0391549060031b1c16611e92611e8b87611643565b9686611746565b5201611e57565b6003915060600151141538611e49565b6040810151600314159150611e43565b506002606084015114611d74565b506002604084015114611d6d565b80611ee260019284611746565b51611f00611ef9611ef38388611c5f565b51611643565b9186611c5f565b5201611d50565b806040611f166001938b611803565b905460039190911b1c60a084901b84900316600090815260208990522054611f3e8285611746565b5201611d33565b600190611f5d6001600160a01b03611db18387611746565b01611ca5565b8060ff6040611f746001948b611803565b905460039190911b1c60a085901b859003166000908152602086905220541615611f9f575b01611c98565b611fa98189611803565b838060a01b0391549060031b1c16611fca611fc387611643565b9688611746565b52611f99565b6000546001600160a01b03163303611fe457565b63118cdaa760e01b6000523360045260246000fd5b806000526003602052604060002060018101906120196001835414611c1d565b600281018054421180156121d3575b1561218e57600e820154906008830193845480931461214257505061204c816116d1565b600091600c8401835b8281106120d55750505060005b8281106120b7575050507fa7690f576eaef889ef9ef29d1eaee6c0e3b073108b66bb8009ec8af6428bb34591611d0791600460ff19825416178155600442910155604051918291602083526020830190611703565b6001906120cf6001600160a01b03611db18386611746565b01612062565b8060ff60406120e66001948b611803565b905460039190911b1c60a085901b859003166000908152602086905220541615612111575b01612055565b61211b8189611803565b838060a01b0391549060031b1c1661213c61213588611643565b9787611746565b5261210b565b91509250600291505561012c4201908142116104ab57817fa359b664a68acd8839e42112eb50eff3408165e15074fde89ddb58a0db2e691d9260409255815190600282526020820152a2565b60405162461bcd60e51b815260206004820152601b60248201527f43616e6e6f7420656e6420636f6d6d69742073746167652079657400000000006044820152606490fd5b50600e820154600883015414612028565b90600091808352600360205260408320916009830160018060a01b03821685528060205260ff604086205416156123bc5760018060a01b03821685526020526040842060ff19815416905560018060a01b03169182845260056020526040842060ff19815416905582845260046020528360408120558360088201945b8554808210156123b057856122768389611803565b905460039190911b1c6001600160a01b0316146122965750600101612261565b600096929394959619810190811161239c57906118436122b96122d29385611803565b905460039190911b1c6001600160a01b03169184611803565b805480156123885760001901906122e98282611803565b81549060018060a01b039060031b1b19169055555b6001546001600160a01b0316803b156123845790808060079493602460405180948193633ef6cf1d60e21b83528b60048401525af1612374575b505083600052016020527f51479c93d7646904d2282e9e79cddf11999ac774b7fd0289e2f59cb4ad0f086a6020604060002054604051908152a3565b8161237e91611697565b38612338565b5080fd5b634e487b7160e01b83526031600452602483fd5b634e487b7160e01b84526011600452602484fd5b505090919293506122fe565b60405162461bcd60e51b8152602060048201526011602482015270506c61796572206e6f742061637469766560781b6044820152606490fdfea26469706673582212206564f3896877ae13400bfa20144516430f2655d15dfee567bdc59e9b128308f164736f6c634300081c0033","opcodes":"PUSH1 0x80 DUP1 PUSH1 0x40 MSTORE CALLVALUE PUSH1 0x87 JUMPI CALLER ISZERO PUSH1 0x71 JUMPI PUSH1 0x0 DUP1 SLOAD CALLER PUSH1 0x1 PUSH1 0x1 PUSH1 0xA0 SHL SUB NOT DUP3 AND DUP2 OR DUP4 SSTORE SWAP2 PUSH1 0x1 PUSH1 0x1 PUSH1 0xA0 SHL SUB SWAP1 SWAP2 AND SWAP1 PUSH32 0x8BE0079C531659141344CD1FD0A4F28419497F9722A3DAAFE3B4186F6B6457E0 SWAP1 DUP1 LOG3 PUSH1 0x1 DUP1 SLOAD PUSH1 0x1 PUSH1 0x1 PUSH1 0xA0 SHL SUB NOT AND CALLER OR SWAP1 SSTORE PUSH2 0x242B SWAP1 DUP2 PUSH2 0x8D DUP3 CODECOPY RETURN JUMPDEST PUSH4 0x1E4FBDF7 PUSH1 0xE0 SHL PUSH1 0x0 MSTORE PUSH1 0x0 PUSH1 0x4 MSTORE PUSH1 0x24 PUSH1 0x0 REVERT JUMPDEST PUSH1 0x0 DUP1 REVERT INVALID PUSH1 0x80 PUSH1 0x40 MSTORE PUSH1 0x4 CALLDATASIZE LT ISZERO PUSH2 0x12 JUMPI PUSH1 0x0 DUP1 REVERT JUMPDEST PUSH1 0x0 CALLDATALOAD PUSH1 0xE0 SHR DUP1 PUSH4 0x12B19A13 EQ PUSH2 0x150B JUMPI DUP1 PUSH4 0x148B02C5 EQ PUSH2 0x14BE JUMPI DUP1 PUSH4 0x1BB412D6 EQ PUSH2 0x14A0 JUMPI DUP1 PUSH4 0x25B05C88 EQ PUSH2 0x10C9 JUMPI DUP1 PUSH4 0x3532804D EQ PUSH2 0x13CE JUMPI DUP1 PUSH4 0x3C4F5A66 EQ PUSH2 0x12F1 JUMPI DUP1 PUSH4 0x47E1D550 EQ PUSH2 0x1231 JUMPI DUP1 PUSH4 0x574A5B20 EQ PUSH2 0x11F2 JUMPI DUP1 PUSH4 0x6CBC2DED EQ PUSH2 0x115C JUMPI DUP1 PUSH4 0x715018A6 EQ PUSH2 0x1103 JUMPI DUP1 PUSH4 0x773B549D EQ PUSH2 0x10C9 JUMPI DUP1 PUSH4 0x7FBBE46F EQ PUSH2 0xC94 JUMPI DUP1 PUSH4 0x84CD7D33 EQ PUSH2 0xC25 JUMPI DUP1 PUSH4 0x8B5B9CCC EQ PUSH2 0xB30 JUMPI DUP1 PUSH4 0x8C10BB96 EQ PUSH2 0xB11 JUMPI DUP1 PUSH4 0x8DA5CB5B EQ PUSH2 0xAE8 JUMPI DUP1 PUSH4 0xBBDA33D9 EQ PUSH2 0xA42 JUMPI DUP1 PUSH4 0xBDF84AE7 EQ PUSH2 0xA19 JUMPI DUP1 PUSH4 0xC04C5947 EQ PUSH2 0x8B4 JUMPI DUP1 PUSH4 0xC2E94927 EQ PUSH2 0x7F9 JUMPI DUP1 PUSH4 0xD0F3A21E EQ PUSH2 0x732 JUMPI DUP1 PUSH4 0xD216B62B EQ PUSH2 0x6C3 JUMPI DUP1 PUSH4 0xE05B10C0 EQ PUSH2 0x4FF JUMPI DUP1 PUSH4 0xE81DE9F5 EQ PUSH2 0x3EA JUMPI DUP1 PUSH4 0xEA17532E EQ PUSH2 0x227 JUMPI DUP1 PUSH4 0xF2FDE38B EQ PUSH2 0x19E JUMPI PUSH4 0xFFDE0C74 EQ PUSH2 0x145 JUMPI PUSH1 0x0 DUP1 REVERT JUMPDEST CALLVALUE PUSH2 0x199 JUMPI PUSH1 0x20 CALLDATASIZE PUSH1 0x3 NOT ADD SLT PUSH2 0x199 JUMPI PUSH1 0x4 CALLDATALOAD DUP1 ISZERO ISZERO DUP1 PUSH2 0x18D JUMPI JUMPDEST PUSH2 0x16B SWAP1 PUSH2 0x1605 JUMP JUMPDEST PUSH1 0x0 MSTORE PUSH1 0x3 PUSH1 0x20 MSTORE PUSH1 0x20 PUSH1 0xFF PUSH1 0x40 PUSH1 0x0 KECCAK256 SLOAD AND PUSH2 0x18B PUSH1 0x40 MLOAD DUP1 SWAP3 PUSH2 0x15C7 JUMP JUMPDEST RETURN JUMPDEST POP PUSH1 0x2 SLOAD DUP2 GT ISZERO PUSH2 0x162 JUMP JUMPDEST PUSH1 0x0 DUP1 REVERT JUMPDEST CALLVALUE PUSH2 0x199 JUMPI PUSH1 0x20 CALLDATASIZE PUSH1 0x3 NOT ADD SLT PUSH2 0x199 JUMPI PUSH2 0x1B7 PUSH2 0x1558 JUMP JUMPDEST PUSH2 0x1BF PUSH2 0x1FD0 JUMP JUMPDEST PUSH1 0x1 PUSH1 0x1 PUSH1 0xA0 SHL SUB AND DUP1 ISZERO PUSH2 0x211 JUMPI PUSH1 0x0 DUP1 SLOAD PUSH1 0x1 PUSH1 0x1 PUSH1 0xA0 SHL SUB NOT DUP2 AND DUP4 OR DUP3 SSTORE PUSH1 0x1 PUSH1 0x1 PUSH1 0xA0 SHL SUB AND SWAP1 PUSH32 0x8BE0079C531659141344CD1FD0A4F28419497F9722A3DAAFE3B4186F6B6457E0 SWAP1 DUP1 LOG3 STOP JUMPDEST PUSH4 0x1E4FBDF7 PUSH1 0xE0 SHL PUSH1 0x0 MSTORE PUSH1 0x0 PUSH1 0x4 MSTORE PUSH1 0x24 PUSH1 0x0 REVERT JUMPDEST CALLVALUE PUSH2 0x199 JUMPI PUSH1 0x20 CALLDATASIZE PUSH1 0x3 NOT ADD SLT PUSH2 0x199 JUMPI PUSH1 0x4 CALLDATALOAD DUP1 ISZERO ISZERO DUP1 PUSH2 0x3DE JUMPI JUMPDEST PUSH2 0x24D SWAP1 PUSH2 0x1605 JUMP JUMPDEST PUSH1 0x0 MSTORE PUSH1 0x3 PUSH1 0x20 MSTORE PUSH1 0x40 PUSH1 0x0 KECCAK256 PUSH1 0x5 DUP2 ADD SWAP1 DUP2 SLOAD SWAP1 PUSH2 0x26B DUP3 PUSH2 0x16B9 JUMP JUMPDEST SWAP3 PUSH2 0x279 PUSH1 0x40 MLOAD SWAP5 DUP6 PUSH2 0x1697 JUMP JUMPDEST DUP3 DUP5 MSTORE PUSH1 0x1F NOT PUSH2 0x288 DUP5 PUSH2 0x16B9 JUMP JUMPDEST ADD PUSH1 0x0 JUMPDEST DUP2 DUP2 LT PUSH2 0x3C7 JUMPI POP POP PUSH1 0x0 PUSH1 0x7 DUP4 ADD SWAP3 PUSH1 0xC DUP2 ADD SWAP3 PUSH1 0x9 PUSH1 0xD DUP4 ADD SWAP3 ADD SWAP3 JUMPDEST DUP7 DUP2 LT PUSH2 0x32F JUMPI DUP8 PUSH1 0x40 MLOAD DUP1 SWAP2 PUSH1 0x20 DUP3 ADD PUSH1 0x20 DUP4 MSTORE DUP2 MLOAD DUP1 SWAP2 MSTORE PUSH1 0x20 PUSH1 0x40 DUP5 ADD SWAP3 ADD SWAP1 PUSH1 0x0 JUMPDEST DUP2 DUP2 LT PUSH2 0x2DF JUMPI POP POP POP SUB SWAP1 RETURN JUMPDEST SWAP2 SWAP4 POP SWAP2 PUSH1 0x20 PUSH1 0xA0 PUSH1 0x1 SWAP3 PUSH1 0x80 DUP8 MLOAD DUP6 DUP1 DUP6 SHL SUB DUP2 MLOAD AND DUP4 MSTORE DUP5 DUP2 ADD MLOAD DUP6 DUP5 ADD MSTORE PUSH1 0x40 DUP2 ADD MLOAD ISZERO ISZERO PUSH1 0x40 DUP5 ADD MSTORE PUSH1 0x60 DUP2 ADD MLOAD ISZERO ISZERO PUSH1 0x60 DUP5 ADD MSTORE ADD MLOAD ISZERO ISZERO PUSH1 0x80 DUP3 ADD MSTORE ADD SWAP5 ADD SWAP2 ADD SWAP2 DUP5 SWAP4 SWAP3 PUSH2 0x2D1 JUMP JUMPDEST DUP1 PUSH2 0x33C PUSH1 0x1 SWAP3 DUP5 PUSH2 0x1803 JUMP JUMPDEST SWAP1 SLOAD PUSH1 0x3 SWAP2 SWAP1 SWAP2 SHL SHR PUSH1 0xA0 DUP4 SWAP1 SHL DUP4 SWAP1 SUB AND PUSH1 0x0 DUP2 DUP2 MSTORE PUSH1 0x20 DUP10 DUP2 MSTORE PUSH1 0x40 DUP1 DUP4 KECCAK256 SLOAD DUP11 DUP4 MSTORE DUP2 DUP5 KECCAK256 SLOAD DUP10 DUP5 MSTORE DUP3 DUP6 KECCAK256 SLOAD SWAP4 DUP12 SWAP1 MSTORE SWAP4 DUP3 SWAP1 KECCAK256 SLOAD SWAP2 MLOAD SWAP5 PUSH1 0xFF SWAP3 DUP4 AND SWAP5 SWAP4 DUP4 AND SWAP4 SWAP1 SWAP3 AND SWAP2 PUSH2 0x38F DUP7 PUSH2 0x165F JUMP JUMPDEST DUP6 MSTORE PUSH1 0x20 DUP6 ADD MSTORE ISZERO ISZERO PUSH1 0x40 DUP5 ADD MSTORE ISZERO ISZERO PUSH1 0x60 DUP4 ADD MSTORE ISZERO ISZERO PUSH1 0x80 DUP3 ADD MSTORE PUSH2 0x3B5 DUP3 DUP12 PUSH2 0x1746 JUMP JUMPDEST MSTORE PUSH2 0x3C0 DUP2 DUP11 PUSH2 0x1746 JUMP JUMPDEST POP ADD PUSH2 0x2AB JUMP JUMPDEST PUSH1 0x20 SWAP1 PUSH2 0x3D2 PUSH2 0x1770 JUMP JUMPDEST DUP3 DUP3 DUP10 ADD ADD MSTORE ADD PUSH2 0x28C JUMP JUMPDEST POP PUSH1 0x2 SLOAD DUP2 GT ISZERO PUSH2 0x244 JUMP JUMPDEST CALLVALUE PUSH2 0x199 JUMPI PUSH1 0x0 CALLDATASIZE PUSH1 0x3 NOT ADD SLT PUSH2 0x199 JUMPI PUSH2 0x410 PUSH1 0x1 DUP1 PUSH1 0xA0 SHL SUB PUSH1 0x1 SLOAD AND CALLER EQ PUSH2 0x17A7 JUMP JUMPDEST PUSH1 0x1 DUP1 JUMPDEST PUSH1 0x2 SLOAD DUP2 GT PUSH2 0x4F2 JUMPI DUP1 PUSH1 0x0 MSTORE PUSH1 0x3 PUSH1 0x20 MSTORE PUSH1 0x40 PUSH1 0x0 KECCAK256 SWAP1 PUSH1 0xFF DUP3 SLOAD AND PUSH1 0x5 DUP2 LT ISZERO PUSH2 0x4DC JUMPI PUSH1 0x1 EQ DUP1 PUSH2 0x4CF JUMPI JUMPDEST ISZERO PUSH2 0x4C1 JUMPI PUSH1 0x2 PUSH1 0xFF NOT DUP4 SLOAD AND OR DUP3 SSTORE PUSH1 0x1 DUP1 DUP4 ADD SSTORE PUSH2 0x12C TIMESTAMP ADD SWAP2 DUP3 TIMESTAMP GT PUSH2 0x4AB JUMPI PUSH32 0xA359B664A68ACD8839E42112EB50EFF3408165E15074FDE89DDB58A0DB2E691D PUSH1 0x40 DUP5 PUSH2 0x4A6 SWAP6 PUSH1 0x2 DUP7 SWAP6 ADD SSTORE DUP2 MLOAD SWAP1 PUSH1 0x1 DUP3 MSTORE PUSH1 0x20 DUP3 ADD MSTORE LOG2 PUSH2 0x1643 JUMP JUMPDEST PUSH2 0x414 JUMP JUMPDEST PUSH4 0x4E487B71 PUSH1 0xE0 SHL PUSH1 0x0 MSTORE PUSH1 0x11 PUSH1 0x4 MSTORE PUSH1 0x24 PUSH1 0x0 REVERT JUMPDEST SWAP2 POP POP PUSH2 0x4A6 PUSH1 0x0 SWAP2 PUSH2 0x1643 JUMP JUMPDEST POP PUSH1 0x8 DUP3 ADD SLOAD ISZERO ISZERO PUSH2 0x443 JUMP JUMPDEST PUSH4 0x4E487B71 PUSH1 0xE0 SHL PUSH1 0x0 MSTORE PUSH1 0x21 PUSH1 0x4 MSTORE PUSH1 0x24 PUSH1 0x0 REVERT JUMPDEST PUSH1 0x20 DUP3 PUSH1 0x40 MLOAD SWAP1 ISZERO ISZERO DUP2 MSTORE RETURN JUMPDEST CALLVALUE PUSH2 0x199 JUMPI PUSH1 0x20 CALLDATASIZE PUSH1 0x3 NOT ADD SLT PUSH2 0x199 JUMPI CALLER PUSH1 0x0 MSTORE PUSH1 0x5 PUSH1 0x20 MSTORE PUSH2 0x52A PUSH1 0xFF PUSH1 0x40 PUSH1 0x0 KECCAK256 SLOAD AND PUSH2 0x1869 JUMP JUMPDEST CALLER PUSH1 0x0 MSTORE PUSH1 0x4 PUSH1 0x20 MSTORE PUSH1 0x40 PUSH1 0x0 KECCAK256 SLOAD DUP1 PUSH1 0x0 MSTORE PUSH1 0x3 PUSH1 0x20 MSTORE PUSH1 0x40 PUSH1 0x0 KECCAK256 PUSH1 0xFF DUP2 SLOAD AND PUSH1 0x5 DUP2 LT ISZERO PUSH2 0x4DC JUMPI PUSH1 0x2 PUSH2 0x561 SWAP2 EQ PUSH2 0x18AE JUMP JUMPDEST PUSH1 0x1 DUP2 ADD PUSH2 0x572 PUSH1 0x1 DUP3 SLOAD EQ PUSH2 0x1C1D JUMP JUMPDEST PUSH1 0x2 DUP3 ADD SWAP1 DUP2 SLOAD TIMESTAMP GT PUSH2 0x688 JUMPI CALLER PUSH1 0x0 SWAP1 DUP2 MSTORE PUSH1 0xC DUP5 ADD PUSH1 0x20 DUP2 SWAP1 MSTORE PUSH1 0x40 SWAP1 SWAP2 KECCAK256 SLOAD PUSH1 0xFF AND PUSH2 0x64F JUMPI CALLER PUSH1 0x0 SWAP1 DUP2 MSTORE PUSH1 0xA DUP6 ADD PUSH1 0x20 SWAP1 DUP2 MSTORE PUSH1 0x40 DUP1 DUP4 KECCAK256 PUSH1 0x4 CALLDATALOAD SWAP1 SSTORE SWAP3 SWAP1 MSTORE KECCAK256 DUP1 SLOAD PUSH1 0xFF NOT AND PUSH1 0x1 OR SWAP1 SSTORE PUSH1 0xE DUP4 ADD DUP1 SLOAD PUSH2 0x5D2 SWAP1 PUSH2 0x1643 JUMP JUMPDEST DUP1 SWAP2 SSTORE PUSH1 0x8 PUSH1 0x40 MLOAD SWAP5 CALLER DUP8 PUSH32 0x2E6ED0CAE7A81E1893017DFAFD5FBAF8594ADCC50FF27B5F8EB70E0E90ACF315 PUSH1 0x0 DUP1 LOG3 ADD SLOAD EQ PUSH2 0x60B JUMPI STOP JUMPDEST PUSH1 0x2 SWAP1 SSTORE PUSH2 0x12C TIMESTAMP ADD SWAP2 DUP3 TIMESTAMP GT PUSH2 0x4AB JUMPI DUP3 PUSH32 0xA359B664A68ACD8839E42112EB50EFF3408165E15074FDE89DDB58A0DB2E691D SWAP4 PUSH1 0x40 SWAP4 SSTORE PUSH1 0x2 DUP3 MSTORE PUSH1 0x20 DUP3 ADD MSTORE LOG2 STOP JUMPDEST PUSH1 0x40 MLOAD PUSH3 0x461BCD PUSH1 0xE5 SHL DUP2 MSTORE PUSH1 0x20 PUSH1 0x4 DUP3 ADD MSTORE PUSH1 0x11 PUSH1 0x24 DUP3 ADD MSTORE PUSH17 0x105B1C9958591E4818DBDB5B5A5D1D1959 PUSH1 0x7A SHL PUSH1 0x44 DUP3 ADD MSTORE PUSH1 0x64 SWAP1 REVERT JUMPDEST PUSH1 0x40 MLOAD PUSH3 0x461BCD PUSH1 0xE5 SHL DUP2 MSTORE PUSH1 0x20 PUSH1 0x4 DUP3 ADD MSTORE PUSH1 0x13 PUSH1 0x24 DUP3 ADD MSTORE PUSH19 0x10DBDB5B5A5D081C195C9A5BD908195B991959 PUSH1 0x6A SHL PUSH1 0x44 DUP3 ADD MSTORE PUSH1 0x64 SWAP1 REVERT JUMPDEST CALLVALUE PUSH2 0x199 JUMPI PUSH1 0x40 CALLDATASIZE PUSH1 0x3 NOT ADD SLT PUSH2 0x199 JUMPI PUSH1 0x4 CALLDATALOAD PUSH2 0x6DF PUSH2 0x156E JUMP JUMPDEST SWAP1 DUP1 ISZERO ISZERO DUP1 PUSH2 0x726 JUMPI JUMPDEST PUSH2 0x6F2 SWAP1 PUSH2 0x1605 JUMP JUMPDEST PUSH1 0x0 MSTORE PUSH1 0x3 PUSH1 0x20 MSTORE PUSH1 0xD PUSH1 0x40 PUSH1 0x0 KECCAK256 ADD SWAP1 PUSH1 0x1 DUP1 PUSH1 0xA0 SHL SUB AND PUSH1 0x0 MSTORE PUSH1 0x20 MSTORE PUSH1 0x20 PUSH1 0xFF PUSH1 0x40 PUSH1 0x0 KECCAK256 SLOAD AND PUSH1 0x40 MLOAD SWAP1 ISZERO ISZERO DUP2 MSTORE RETURN JUMPDEST POP PUSH1 0x2 SLOAD DUP2 GT ISZERO PUSH2 0x6E9 JUMP JUMPDEST CALLVALUE PUSH2 0x199 JUMPI PUSH1 0x0 CALLDATASIZE PUSH1 0x3 NOT ADD SLT PUSH2 0x199 JUMPI PUSH2 0x758 PUSH1 0x1 DUP1 PUSH1 0xA0 SHL SUB PUSH1 0x1 SLOAD AND CALLER EQ PUSH2 0x17A7 JUMP JUMPDEST PUSH1 0x1 JUMPDEST PUSH1 0x2 SLOAD DUP2 GT PUSH2 0x7F7 JUMPI DUP1 PUSH1 0x0 MSTORE PUSH1 0x3 PUSH1 0x20 MSTORE PUSH1 0x40 PUSH1 0x0 KECCAK256 SWAP1 PUSH1 0xFF DUP3 SLOAD AND SWAP2 PUSH1 0x5 DUP4 LT ISZERO PUSH2 0x4DC JUMPI PUSH1 0x2 PUSH2 0x794 SWAP4 EQ PUSH2 0x799 JUMPI JUMPDEST POP PUSH2 0x1643 JUMP JUMPDEST PUSH2 0x75B JUMP JUMPDEST PUSH1 0x1 DUP2 ADD SLOAD PUSH1 0x1 DUP2 EQ DUP1 PUSH2 0x7EA JUMPI JUMPDEST ISZERO PUSH2 0x7BE JUMPI POP POP PUSH2 0x7B8 DUP2 PUSH2 0x1FF9 JUMP JUMPDEST DUP3 PUSH2 0x78E JUMP JUMPDEST PUSH1 0x2 EQ SWAP1 DUP2 PUSH2 0x7DC JUMPI JUMPDEST POP ISZERO PUSH2 0x7B8 JUMPI PUSH2 0x7D7 DUP2 PUSH2 0x1C70 JUMP JUMPDEST PUSH2 0x7B8 JUMP JUMPDEST PUSH1 0x2 SWAP2 POP ADD SLOAD TIMESTAMP GT DUP4 PUSH2 0x7C8 JUMP JUMPDEST POP PUSH1 0x2 DUP3 ADD SLOAD TIMESTAMP GT PUSH2 0x7A8 JUMP JUMPDEST STOP JUMPDEST CALLVALUE PUSH2 0x199 JUMPI PUSH1 0x20 CALLDATASIZE PUSH1 0x3 NOT ADD SLT PUSH2 0x199 JUMPI PUSH2 0x812 PUSH2 0x1558 JUMP JUMPDEST PUSH2 0x81A PUSH2 0x1FD0 JUMP JUMPDEST PUSH1 0x1 PUSH1 0x1 PUSH1 0xA0 SHL SUB AND DUP1 ISZERO PUSH2 0x86F JUMPI PUSH1 0x20 DUP2 PUSH32 0x63860F6674590A6969C4FE1DC738A9C8F955407C09E6C67A6BDB818F4C35CD8A SWAP3 PUSH12 0xFFFFFFFFFFFFFFFFFFFFFFFF PUSH1 0xA0 SHL PUSH1 0x1 SLOAD AND OR PUSH1 0x1 SSTORE PUSH1 0x40 MLOAD SWAP1 DUP2 MSTORE LOG1 STOP JUMPDEST PUSH1 0x40 MLOAD PUSH3 0x461BCD PUSH1 0xE5 SHL DUP2 MSTORE PUSH1 0x20 PUSH1 0x4 DUP3 ADD MSTORE PUSH1 0x1A PUSH1 0x24 DUP3 ADD MSTORE PUSH32 0x496E76616C69642047616D654D61737465722061646472657373000000000000 PUSH1 0x44 DUP3 ADD MSTORE PUSH1 0x64 SWAP1 REVERT JUMPDEST CALLVALUE PUSH2 0x199 JUMPI PUSH1 0x0 CALLDATASIZE PUSH1 0x3 NOT ADD SLT PUSH2 0x199 JUMPI PUSH1 0x2 SLOAD PUSH2 0x8D1 DUP2 PUSH2 0x16B9 JUMP JUMPDEST SWAP1 PUSH2 0x8DF PUSH1 0x40 MLOAD SWAP3 DUP4 PUSH2 0x1697 JUMP JUMPDEST DUP1 DUP3 MSTORE PUSH1 0x1F NOT PUSH2 0x8EE DUP3 PUSH2 0x16B9 JUMP JUMPDEST ADD PUSH1 0x0 JUMPDEST DUP2 DUP2 LT PUSH2 0x9E6 JUMPI POP POP PUSH1 0x1 JUMPDEST DUP2 DUP2 GT ISZERO PUSH2 0x975 JUMPI DUP3 PUSH1 0x40 MLOAD DUP1 SWAP2 PUSH1 0x20 DUP3 ADD PUSH1 0x20 DUP4 MSTORE DUP2 MLOAD DUP1 SWAP2 MSTORE PUSH1 0x20 PUSH1 0x40 DUP5 ADD SWAP3 ADD SWAP1 PUSH1 0x0 JUMPDEST DUP2 DUP2 LT PUSH2 0x933 JUMPI POP POP POP SUB SWAP1 RETURN JUMPDEST SWAP2 SWAP4 POP SWAP2 PUSH1 0x20 PUSH1 0x80 PUSH1 0x1 SWAP3 PUSH1 0x60 DUP8 MLOAD DUP1 MLOAD DUP4 MSTORE PUSH2 0x956 DUP6 DUP3 ADD MLOAD DUP7 DUP6 ADD SWAP1 PUSH2 0x15C7 JUMP JUMPDEST PUSH1 0x40 DUP2 ADD MLOAD PUSH1 0x40 DUP5 ADD MSTORE ADD MLOAD PUSH1 0x60 DUP3 ADD MSTORE ADD SWAP5 ADD SWAP2 ADD SWAP2 DUP5 SWAP4 SWAP3 PUSH2 0x925 JUMP JUMPDEST DUP1 PUSH1 0x0 MSTORE PUSH1 0x3 PUSH1 0x20 MSTORE PUSH1 0x40 PUSH1 0x0 KECCAK256 SWAP1 PUSH1 0xFF DUP3 SLOAD AND SWAP2 PUSH1 0x8 PUSH1 0x1 DUP3 ADD SLOAD SWAP2 ADD SLOAD SWAP1 PUSH2 0x9B1 PUSH1 0x40 MLOAD SWAP5 PUSH2 0x9A5 DUP7 PUSH2 0x167B JUMP JUMPDEST DUP5 DUP7 MSTORE PUSH1 0x20 DUP7 ADD PUSH2 0x179B JUMP JUMPDEST PUSH1 0x40 DUP5 ADD MSTORE PUSH1 0x60 DUP4 ADD MSTORE PUSH1 0x0 NOT DUP2 ADD SWAP2 DUP2 DUP4 GT PUSH2 0x4AB JUMPI DUP3 PUSH2 0x78E SWAP2 PUSH2 0x9DA PUSH2 0x9E1 SWAP6 DUP9 PUSH2 0x1746 JUMP JUMPDEST MSTORE DUP6 PUSH2 0x1746 JUMP JUMPDEST PUSH2 0x8FE JUMP JUMPDEST PUSH1 0x20 SWAP1 PUSH1 0x40 MLOAD PUSH2 0x9F5 DUP2 PUSH2 0x167B JUMP JUMPDEST PUSH1 0x0 DUP2 MSTORE PUSH1 0x0 DUP4 DUP3 ADD MSTORE PUSH1 0x0 PUSH1 0x40 DUP3 ADD MSTORE PUSH1 0x0 PUSH1 0x60 DUP3 ADD MSTORE DUP3 DUP3 DUP8 ADD ADD MSTORE ADD PUSH2 0x8F2 JUMP JUMPDEST CALLVALUE PUSH2 0x199 JUMPI PUSH1 0x0 CALLDATASIZE PUSH1 0x3 NOT ADD SLT PUSH2 0x199 JUMPI PUSH1 0x1 SLOAD PUSH1 0x40 MLOAD PUSH1 0x1 PUSH1 0x1 PUSH1 0xA0 SHL SUB SWAP1 SWAP2 AND DUP2 MSTORE PUSH1 0x20 SWAP1 RETURN JUMPDEST CALLVALUE PUSH2 0x199 JUMPI PUSH1 0x0 CALLDATASIZE PUSH1 0x3 NOT ADD SLT PUSH2 0x199 JUMPI PUSH1 0x40 MLOAD PUSH1 0x40 DUP2 ADD DUP2 DUP2 LT PUSH8 0xFFFFFFFFFFFFFFFF DUP3 GT OR PUSH2 0xAD2 JUMPI PUSH1 0x40 MSTORE PUSH1 0x6 DUP2 MSTORE PUSH6 0x546872656573 PUSH1 0xD0 SHL PUSH1 0x20 DUP3 ADD MSTORE PUSH1 0x40 MLOAD SWAP1 PUSH1 0x20 DUP3 MSTORE DUP2 DUP2 MLOAD SWAP2 DUP3 PUSH1 0x20 DUP4 ADD MSTORE PUSH1 0x0 JUMPDEST DUP4 DUP2 LT PUSH2 0xABA JUMPI POP POP DUP2 PUSH1 0x0 PUSH1 0x40 DUP1 SWAP5 DUP5 ADD ADD MSTORE PUSH1 0x1F DUP1 NOT SWAP2 ADD AND DUP2 ADD SUB ADD SWAP1 RETURN JUMPDEST PUSH1 0x20 DUP3 DUP3 ADD DUP2 ADD MLOAD PUSH1 0x40 DUP8 DUP5 ADD ADD MSTORE DUP6 SWAP4 POP ADD PUSH2 0xA98 JUMP JUMPDEST PUSH4 0x4E487B71 PUSH1 0xE0 SHL PUSH1 0x0 MSTORE PUSH1 0x41 PUSH1 0x4 MSTORE PUSH1 0x24 PUSH1 0x0 REVERT JUMPDEST CALLVALUE PUSH2 0x199 JUMPI PUSH1 0x0 CALLDATASIZE PUSH1 0x3 NOT ADD SLT PUSH2 0x199 JUMPI PUSH1 0x0 SLOAD PUSH1 0x40 MLOAD PUSH1 0x1 PUSH1 0x1 PUSH1 0xA0 SHL SUB SWAP1 SWAP2 AND DUP2 MSTORE PUSH1 0x20 SWAP1 RETURN JUMPDEST CALLVALUE PUSH2 0x199 JUMPI PUSH1 0x40 CALLDATASIZE PUSH1 0x3 NOT ADD SLT PUSH2 0x199 JUMPI PUSH2 0x7F7 PUSH1 0x24 CALLDATALOAD PUSH1 0x4 CALLDATALOAD PUSH2 0x18EC JUMP JUMPDEST CALLVALUE PUSH2 0x199 JUMPI PUSH1 0x0 CALLDATASIZE PUSH1 0x3 NOT ADD SLT PUSH2 0x199 JUMPI PUSH1 0x2 SLOAD PUSH1 0x1 PUSH1 0x0 JUMPDEST DUP3 DUP3 GT ISZERO PUSH2 0xBFA JUMPI PUSH2 0xB5B SWAP2 POP PUSH2 0x16D1 JUMP JUMPDEST PUSH1 0x0 SWAP2 PUSH1 0x1 SWAP1 JUMPDEST DUP1 DUP3 GT ISZERO PUSH2 0xB7C JUMPI PUSH1 0x40 MLOAD DUP1 PUSH2 0xB78 DUP6 DUP3 PUSH2 0x1584 JUMP JUMPDEST SUB SWAP1 RETURN JUMPDEST PUSH2 0xBA3 SWAP1 DUP3 PUSH1 0x0 SWAP5 SWAP4 SWAP5 MSTORE PUSH1 0x3 PUSH1 0x20 MSTORE PUSH2 0xBAA PUSH1 0x5 PUSH1 0x40 PUSH1 0x0 KECCAK256 ADD PUSH1 0x40 MLOAD SWAP4 DUP5 DUP1 SWAP3 PUSH2 0x1703 JUMP JUMPDEST SUB DUP4 PUSH2 0x1697 JUMP JUMPDEST PUSH1 0x0 JUMPDEST DUP3 MLOAD DUP2 LT ISZERO PUSH2 0xBE7 JUMPI PUSH1 0x1 SWAP1 PUSH1 0x1 PUSH1 0x1 PUSH1 0xA0 SHL SUB PUSH2 0xBCB DUP3 DUP7 PUSH2 0x1746 JUMP JUMPDEST MLOAD AND PUSH2 0xBE0 PUSH2 0xBD9 DUP10 PUSH2 0x1643 JUMP JUMPDEST SWAP9 DUP8 PUSH2 0x1746 JUMP JUMPDEST MSTORE ADD PUSH2 0xBAD JUMP JUMPDEST POP SWAP2 SWAP3 PUSH2 0xBF4 SWAP2 POP PUSH2 0x1643 JUMP JUMPDEST SWAP1 PUSH2 0xB62 JUMP JUMPDEST PUSH2 0xC19 PUSH2 0xC1F SWAP2 DUP4 PUSH1 0x0 MSTORE PUSH1 0x3 PUSH1 0x20 MSTORE PUSH1 0x5 PUSH1 0x40 PUSH1 0x0 KECCAK256 ADD SLOAD SWAP1 PUSH2 0x1652 JUMP JUMPDEST SWAP2 PUSH2 0x1643 JUMP JUMPDEST SWAP1 PUSH2 0xB49 JUMP JUMPDEST CALLVALUE PUSH2 0x199 JUMPI PUSH1 0x40 CALLDATASIZE PUSH1 0x3 NOT ADD SLT PUSH2 0x199 JUMPI PUSH1 0x4 CALLDATALOAD PUSH2 0xC41 PUSH2 0x156E JUMP JUMPDEST SWAP1 DUP1 ISZERO ISZERO DUP1 PUSH2 0xC88 JUMPI JUMPDEST PUSH2 0xC54 SWAP1 PUSH2 0x1605 JUMP JUMPDEST PUSH1 0x0 MSTORE PUSH1 0x3 PUSH1 0x20 MSTORE PUSH1 0xC PUSH1 0x40 PUSH1 0x0 KECCAK256 ADD SWAP1 PUSH1 0x1 DUP1 PUSH1 0xA0 SHL SUB AND PUSH1 0x0 MSTORE PUSH1 0x20 MSTORE PUSH1 0x20 PUSH1 0xFF PUSH1 0x40 PUSH1 0x0 KECCAK256 SLOAD AND PUSH1 0x40 MLOAD SWAP1 ISZERO ISZERO DUP2 MSTORE RETURN JUMPDEST POP PUSH1 0x2 SLOAD DUP2 GT ISZERO PUSH2 0xC4B JUMP JUMPDEST CALLVALUE PUSH2 0x199 JUMPI PUSH1 0x40 CALLDATASIZE PUSH1 0x3 NOT ADD SLT PUSH2 0x199 JUMPI PUSH1 0x4 CALLDATALOAD PUSH8 0xFFFFFFFFFFFFFFFF DUP2 GT PUSH2 0x199 JUMPI PUSH2 0xCC5 SWAP1 CALLDATASIZE SWAP1 PUSH1 0x4 ADD PUSH2 0x15D4 JUMP JUMPDEST SWAP1 PUSH1 0x24 CALLDATALOAD PUSH8 0xFFFFFFFFFFFFFFFF DUP2 GT PUSH2 0x199 JUMPI PUSH2 0xCE6 SWAP1 CALLDATASIZE SWAP1 PUSH1 0x4 ADD PUSH2 0x15D4 JUMP JUMPDEST SWAP1 SWAP3 PUSH2 0xCFD PUSH1 0x1 DUP1 PUSH1 0xA0 SHL SUB PUSH1 0x1 SLOAD AND CALLER EQ PUSH2 0x17A7 JUMP JUMPDEST DUP1 ISZERO PUSH2 0x108E JUMPI DUP2 DUP2 SUB PUSH2 0x1049 JUMPI PUSH1 0x3 DUP2 MOD PUSH2 0xFF8 JUMPI PUSH1 0x3 DUP2 DIV SWAP3 PUSH1 0x5 DUP4 SWAP1 SHL SWAP3 SWAP1 PUSH1 0x1 PUSH1 0x1 PUSH1 0xFB SHL SUB DUP3 GT SWAP1 PUSH1 0x0 SWAP1 DUP2 JUMPDEST DUP8 DUP2 LT PUSH2 0xD37 JUMPI STOP JUMPDEST PUSH2 0xD42 PUSH1 0x2 SLOAD PUSH2 0x1643 JUMP JUMPDEST SWAP1 DUP2 PUSH1 0x2 SSTORE DUP2 PUSH1 0x0 MSTORE PUSH1 0x3 PUSH1 0x20 MSTORE PUSH1 0x40 PUSH1 0x0 KECCAK256 PUSH1 0x1 PUSH1 0xFF NOT DUP3 SLOAD AND OR DUP2 SSTORE TIMESTAMP PUSH1 0x3 DUP3 ADD SSTORE PUSH1 0x0 SWAP3 DUP12 PUSH1 0x5 DUP4 ADD SWAP5 PUSH1 0x8 DUP5 ADD PUSH1 0x7 DUP6 ADD SWAP3 PUSH1 0x9 PUSH1 0x6 DUP8 ADD SWAP7 ADD SWAP3 JUMPDEST DUP14 DUP12 PUSH1 0x3 DUP4 LT PUSH2 0xE51 JUMPI POP POP POP POP POP POP POP POP POP PUSH1 0x3 DUP3 SLOAD SUB PUSH2 0xDFE JUMPI PUSH2 0xDB3 PUSH1 0x40 MLOAD SWAP3 PUSH1 0x40 DUP5 MSTORE PUSH1 0x40 DUP5 ADD SWAP1 PUSH2 0x1703 JUMP JUMPDEST DUP3 DUP2 SUB PUSH1 0x20 DUP5 ADD MSTORE DUP6 DUP8 DUP3 MSTORE PUSH2 0x199 JUMPI DUP3 PUSH1 0x20 PUSH1 0x1 SWAP5 DUP12 DUP5 DUP16 DUP3 SWAP1 DUP6 PUSH32 0xB66BA8FEAEC509998EF3217BC97FBF1A0F906B89FAC25A4ACE8DDFF059A41F12 SWAP9 ADD CALLDATACOPY ADD SUB ADD SWAP1 LOG1 ADD PUSH2 0xD2E JUMP JUMPDEST PUSH1 0x40 MLOAD PUSH3 0x461BCD PUSH1 0xE5 SHL DUP2 MSTORE PUSH1 0x20 PUSH1 0x4 DUP3 ADD MSTORE PUSH1 0x25 PUSH1 0x24 DUP3 ADD MSTORE PUSH32 0x456163682067616D65206D75737420686176652065786163746C79203320706C PUSH1 0x44 DUP3 ADD MSTORE PUSH5 0x6179657273 PUSH1 0xD8 SHL PUSH1 0x64 DUP3 ADD MSTORE PUSH1 0x84 SWAP1 REVERT JUMPDEST PUSH2 0xE5B SWAP2 DUP13 PUSH2 0x17F3 JUMP JUMPDEST CALLDATALOAD PUSH1 0x1 PUSH1 0x1 PUSH1 0xA0 SHL SUB DUP2 AND SWAP12 SWAP1 DUP13 DUP2 SUB PUSH2 0x199 JUMPI DUP13 ISZERO PUSH2 0xFBA JUMPI DUP13 DUP16 DUP2 PUSH1 0x0 MSTORE PUSH1 0x5 PUSH1 0x20 MSTORE DUP13 PUSH1 0xFF PUSH1 0x40 PUSH1 0x0 KECCAK256 SLOAD AND PUSH2 0xF24 JUMPI JUMPDEST PUSH2 0xED8 SWAP3 PUSH2 0xEB1 DUP7 DUP7 SWAP5 PUSH1 0x1 SWAP11 PUSH2 0xEAC PUSH2 0xEF4 SWAP11 SWAP10 PUSH1 0x40 SWAP8 PUSH2 0x181B JUMP JUMPDEST PUSH2 0x17F3 JUMP JUMPDEST CALLDATALOAD DUP3 PUSH1 0x0 DUP4 DUP2 MSTORE DUP14 PUSH1 0x20 MSTORE KECCAK256 SSTORE PUSH1 0x0 SWAP1 DUP2 MSTORE DUP13 PUSH1 0x20 MSTORE KECCAK256 DUP7 PUSH1 0xFF NOT DUP3 SLOAD AND OR SWAP1 SSTORE DUP7 PUSH2 0x181B JUMP JUMPDEST PUSH1 0x40 DUP14 PUSH1 0x0 SWAP1 DUP2 MSTORE DUP8 PUSH1 0x20 MSTORE KECCAK256 DUP5 PUSH1 0xFF NOT DUP3 SLOAD AND OR SWAP1 SSTORE PUSH2 0x1643 JUMP JUMPDEST SWAP11 DUP1 PUSH1 0x0 MSTORE PUSH1 0x4 PUSH1 0x20 MSTORE DUP7 PUSH1 0x40 PUSH1 0x0 KECCAK256 SSTORE PUSH1 0x0 MSTORE PUSH1 0x5 PUSH1 0x20 MSTORE PUSH1 0x40 PUSH1 0x0 KECCAK256 DUP3 PUSH1 0xFF NOT DUP3 SLOAD AND OR SWAP1 SSTORE ADD DUP16 SWAP1 PUSH2 0xD82 JUMP JUMPDEST POP POP PUSH1 0x0 SWAP3 SWAP2 SWAP3 MSTORE PUSH1 0x4 PUSH1 0x20 MSTORE PUSH1 0x40 PUSH1 0x0 KECCAK256 SLOAD DUP1 ISZERO SWAP1 DUP2 ISZERO PUSH2 0xF95 JUMPI JUMPDEST POP ISZERO PUSH2 0xF50 JUMPI SWAP1 DUP13 DUP16 DUP13 PUSH2 0xE8F JUMP JUMPDEST PUSH1 0x40 MLOAD PUSH3 0x461BCD PUSH1 0xE5 SHL DUP2 MSTORE PUSH1 0x20 PUSH1 0x4 DUP3 ADD MSTORE PUSH1 0x1D PUSH1 0x24 DUP3 ADD MSTORE PUSH32 0x506C6179657220616C726561647920696E206163746976652067616D65000000 PUSH1 0x44 DUP3 ADD MSTORE PUSH1 0x64 SWAP1 REVERT JUMPDEST SWAP1 POP PUSH1 0x0 MSTORE PUSH1 0x3 PUSH1 0x20 MSTORE PUSH1 0xFF PUSH1 0x40 PUSH1 0x0 KECCAK256 SLOAD AND PUSH1 0x5 DUP2 LT ISZERO PUSH2 0x4DC JUMPI PUSH1 0x4 EQ CODESIZE PUSH2 0xF41 JUMP JUMPDEST PUSH1 0x40 MLOAD PUSH3 0x461BCD PUSH1 0xE5 SHL DUP2 MSTORE PUSH1 0x20 PUSH1 0x4 DUP3 ADD MSTORE PUSH1 0x16 PUSH1 0x24 DUP3 ADD MSTORE PUSH22 0x496E76616C696420706C617965722061646472657373 PUSH1 0x50 SHL PUSH1 0x44 DUP3 ADD MSTORE PUSH1 0x64 SWAP1 REVERT JUMPDEST PUSH1 0x40 MLOAD PUSH3 0x461BCD PUSH1 0xE5 SHL DUP2 MSTORE PUSH1 0x20 PUSH1 0x4 DUP3 ADD MSTORE PUSH1 0x23 PUSH1 0x24 DUP3 ADD MSTORE PUSH32 0x506C6179657220636F756E74206D75737420626520646976697369626C652062 PUSH1 0x44 DUP3 ADD MSTORE PUSH3 0x792033 PUSH1 0xE8 SHL PUSH1 0x64 DUP3 ADD MSTORE PUSH1 0x84 SWAP1 REVERT JUMPDEST PUSH1 0x40 MLOAD PUSH3 0x461BCD PUSH1 0xE5 SHL DUP2 MSTORE PUSH1 0x20 PUSH1 0x4 DUP3 ADD MSTORE PUSH1 0x18 PUSH1 0x24 DUP3 ADD MSTORE PUSH32 0x4172726179206C656E67746873206D757374206D617463680000000000000000 PUSH1 0x44 DUP3 ADD MSTORE PUSH1 0x64 SWAP1 REVERT JUMPDEST PUSH1 0x40 MLOAD PUSH3 0x461BCD PUSH1 0xE5 SHL DUP2 MSTORE PUSH1 0x20 PUSH1 0x4 DUP3 ADD MSTORE PUSH1 0x13 PUSH1 0x24 DUP3 ADD MSTORE PUSH19 0x139BC81C1B185E595C9CC81C1C9BDD9A591959 PUSH1 0x6A SHL PUSH1 0x44 DUP3 ADD MSTORE PUSH1 0x64 SWAP1 REVERT JUMPDEST CALLVALUE PUSH2 0x199 JUMPI PUSH1 0x20 CALLDATASIZE PUSH1 0x3 NOT ADD SLT PUSH2 0x199 JUMPI PUSH1 0x1 PUSH1 0x1 PUSH1 0xA0 SHL SUB PUSH2 0x10EA PUSH2 0x1558 JUMP JUMPDEST AND PUSH1 0x0 MSTORE PUSH1 0x4 PUSH1 0x20 MSTORE PUSH1 0x20 PUSH1 0x40 PUSH1 0x0 KECCAK256 SLOAD PUSH1 0x40 MLOAD SWAP1 DUP2 MSTORE RETURN JUMPDEST CALLVALUE PUSH2 0x199 JUMPI PUSH1 0x0 CALLDATASIZE PUSH1 0x3 NOT ADD SLT PUSH2 0x199 JUMPI PUSH2 0x111C PUSH2 0x1FD0 JUMP JUMPDEST PUSH1 0x0 DUP1 SLOAD PUSH1 0x1 PUSH1 0x1 PUSH1 0xA0 SHL SUB NOT DUP2 AND DUP3 SSTORE PUSH1 0x1 PUSH1 0x1 PUSH1 0xA0 SHL SUB AND PUSH32 0x8BE0079C531659141344CD1FD0A4F28419497F9722A3DAAFE3B4186F6B6457E0 DUP3 DUP1 LOG3 STOP JUMPDEST CALLVALUE PUSH2 0x199 JUMPI PUSH1 0x0 CALLDATASIZE PUSH1 0x3 NOT ADD SLT PUSH2 0x199 JUMPI PUSH2 0x1182 PUSH1 0x1 DUP1 PUSH1 0xA0 SHL SUB PUSH1 0x1 SLOAD AND CALLER EQ PUSH2 0x17A7 JUMP JUMPDEST PUSH1 0x40 MLOAD PUSH1 0x20 PUSH2 0x1191 DUP2 DUP4 PUSH2 0x1697 JUMP JUMPDEST PUSH1 0x0 DUP3 MSTORE PUSH1 0x0 CALLDATASIZE DUP2 CALLDATACOPY PUSH1 0x1 JUMPDEST PUSH1 0x2 SLOAD DUP2 GT PUSH2 0x11E4 JUMPI DUP1 PUSH1 0x0 MSTORE PUSH1 0x3 DUP3 MSTORE PUSH1 0xFF PUSH1 0x40 PUSH1 0x0 KECCAK256 SLOAD AND SWAP1 PUSH1 0x5 DUP3 LT ISZERO PUSH2 0x4DC JUMPI PUSH1 0x2 PUSH2 0x11D1 SWAP3 EQ PUSH2 0x11D6 JUMPI PUSH2 0x1643 JUMP JUMPDEST PUSH2 0x119D JUMP JUMPDEST PUSH2 0x11DF DUP2 PUSH2 0x1C70 JUMP JUMPDEST PUSH2 0x1643 JUMP JUMPDEST PUSH1 0x40 MLOAD DUP1 PUSH2 0xB78 DUP6 DUP3 PUSH2 0x1584 JUMP JUMPDEST CALLVALUE PUSH2 0x199 JUMPI PUSH1 0x20 CALLDATASIZE PUSH1 0x3 NOT ADD SLT PUSH2 0x199 JUMPI PUSH1 0x1 PUSH1 0x1 PUSH1 0xA0 SHL SUB PUSH2 0x1213 PUSH2 0x1558 JUMP JUMPDEST AND PUSH1 0x0 MSTORE PUSH1 0x5 PUSH1 0x20 MSTORE PUSH1 0x20 PUSH1 0xFF PUSH1 0x40 PUSH1 0x0 KECCAK256 SLOAD AND PUSH1 0x40 MLOAD SWAP1 ISZERO ISZERO DUP2 MSTORE RETURN JUMPDEST CALLVALUE PUSH2 0x199 JUMPI PUSH1 0x20 CALLDATASIZE PUSH1 0x3 NOT ADD SLT PUSH2 0x199 JUMPI PUSH1 0x4 CALLDATALOAD PUSH2 0x124D PUSH2 0x1770 JUMP JUMPDEST POP DUP1 ISZERO ISZERO DUP1 PUSH2 0x12E5 JUMPI JUMPDEST PUSH2 0x1260 SWAP1 PUSH2 0x1605 JUMP JUMPDEST PUSH1 0x0 MSTORE PUSH1 0x3 PUSH1 0x20 MSTORE PUSH1 0xA0 PUSH1 0x40 PUSH1 0x0 KECCAK256 PUSH1 0xFF DUP2 SLOAD AND SWAP1 PUSH1 0x1 DUP2 ADD SLOAD SWAP1 PUSH1 0x2 DUP2 ADD SLOAD PUSH1 0x4 PUSH1 0x3 DUP4 ADD SLOAD SWAP3 ADD SLOAD SWAP3 PUSH2 0x12A1 PUSH1 0x40 MLOAD SWAP6 PUSH2 0x129B DUP8 PUSH2 0x165F JUMP JUMPDEST DUP7 PUSH2 0x179B JUMP JUMPDEST PUSH1 0x20 DUP6 ADD SWAP1 DUP2 MSTORE PUSH1 0x40 DUP6 ADD SWAP2 DUP3 MSTORE PUSH1 0x60 DUP6 ADD SWAP3 DUP4 MSTORE PUSH1 0x80 DUP6 ADD SWAP4 DUP5 MSTORE PUSH2 0x12CB PUSH1 0x40 MLOAD DUP1 SWAP7 MLOAD PUSH2 0x15C7 JUMP JUMPDEST MLOAD PUSH1 0x20 DUP6 ADD MSTORE MLOAD PUSH1 0x40 DUP5 ADD MSTORE MLOAD PUSH1 0x60 DUP4 ADD MSTORE MLOAD PUSH1 0x80 DUP3 ADD MSTORE RETURN JUMPDEST POP PUSH1 0x2 SLOAD DUP2 GT ISZERO PUSH2 0x1257 JUMP JUMPDEST CALLVALUE PUSH2 0x199 JUMPI PUSH1 0x0 CALLDATASIZE PUSH1 0x3 NOT ADD SLT PUSH2 0x199 JUMPI PUSH1 0x2 SLOAD PUSH1 0x1 PUSH1 0x0 JUMPDEST DUP3 DUP3 GT ISZERO PUSH2 0x13A9 JUMPI PUSH2 0x131C SWAP2 POP PUSH2 0x16D1 JUMP JUMPDEST PUSH1 0x0 SWAP2 PUSH1 0x1 SWAP1 JUMPDEST DUP1 DUP3 GT ISZERO PUSH2 0x1339 JUMPI PUSH1 0x40 MLOAD DUP1 PUSH2 0xB78 DUP6 DUP3 PUSH2 0x1584 JUMP JUMPDEST PUSH2 0xBA3 SWAP1 DUP3 PUSH1 0x0 SWAP5 SWAP4 SWAP5 MSTORE PUSH1 0x3 PUSH1 0x20 MSTORE PUSH2 0x1360 PUSH1 0x8 PUSH1 0x40 PUSH1 0x0 KECCAK256 ADD PUSH1 0x40 MLOAD SWAP4 DUP5 DUP1 SWAP3 PUSH2 0x1703 JUMP JUMPDEST PUSH1 0x0 JUMPDEST DUP3 MLOAD DUP2 LT ISZERO PUSH2 0x1396 JUMPI PUSH1 0x1 SWAP1 PUSH1 0x1 PUSH1 0x1 PUSH1 0xA0 SHL SUB PUSH2 0x1381 DUP3 DUP7 PUSH2 0x1746 JUMP JUMPDEST MLOAD AND PUSH2 0x138F PUSH2 0xBD9 DUP10 PUSH2 0x1643 JUMP JUMPDEST MSTORE ADD PUSH2 0x1363 JUMP JUMPDEST POP SWAP2 SWAP3 PUSH2 0x13A3 SWAP2 POP PUSH2 0x1643 JUMP JUMPDEST SWAP1 PUSH2 0x1323 JUMP JUMPDEST PUSH2 0xC19 PUSH2 0x13C8 SWAP2 DUP4 PUSH1 0x0 MSTORE PUSH1 0x3 PUSH1 0x20 MSTORE PUSH1 0x8 PUSH1 0x40 PUSH1 0x0 KECCAK256 ADD SLOAD SWAP1 PUSH2 0x1652 JUMP JUMPDEST SWAP1 PUSH2 0x130A JUMP JUMPDEST CALLVALUE PUSH2 0x199 JUMPI PUSH1 0x40 CALLDATASIZE PUSH1 0x3 NOT ADD SLT PUSH2 0x199 JUMPI PUSH1 0x4 CALLDATALOAD PUSH2 0x13EA PUSH2 0x156E JUMP JUMPDEST SWAP1 DUP1 ISZERO ISZERO DUP1 PUSH2 0x1494 JUMPI JUMPDEST PUSH2 0x13FD SWAP1 PUSH2 0x1605 JUMP JUMPDEST DUP1 PUSH1 0x0 MSTORE PUSH1 0x3 PUSH1 0x20 MSTORE PUSH1 0x6 PUSH1 0x40 PUSH1 0x0 KECCAK256 ADD PUSH1 0x1 DUP1 PUSH1 0xA0 SHL SUB DUP4 AND PUSH1 0x0 MSTORE PUSH1 0x20 MSTORE PUSH1 0xFF PUSH1 0x40 PUSH1 0x0 KECCAK256 SLOAD AND ISZERO PUSH2 0x145A JUMPI PUSH1 0x0 MSTORE PUSH1 0x3 PUSH1 0x20 MSTORE PUSH1 0x7 PUSH1 0x40 PUSH1 0x0 KECCAK256 ADD SWAP1 PUSH1 0x1 DUP1 PUSH1 0xA0 SHL SUB AND PUSH1 0x0 MSTORE PUSH1 0x20 MSTORE PUSH1 0x20 PUSH1 0x40 PUSH1 0x0 KECCAK256 SLOAD PUSH1 0x40 MLOAD SWAP1 DUP2 MSTORE RETURN JUMPDEST PUSH1 0x40 MLOAD PUSH3 0x461BCD PUSH1 0xE5 SHL DUP2 MSTORE PUSH1 0x20 PUSH1 0x4 DUP3 ADD MSTORE PUSH1 0x12 PUSH1 0x24 DUP3 ADD MSTORE PUSH18 0x506C61796572206E6F7420696E2067616D65 PUSH1 0x70 SHL PUSH1 0x44 DUP3 ADD MSTORE PUSH1 0x64 SWAP1 REVERT JUMPDEST POP PUSH1 0x2 SLOAD DUP2 GT ISZERO PUSH2 0x13F4 JUMP JUMPDEST CALLVALUE PUSH2 0x199 JUMPI PUSH1 0x0 CALLDATASIZE PUSH1 0x3 NOT ADD SLT PUSH2 0x199 JUMPI PUSH1 0x20 PUSH1 0x2 SLOAD PUSH1 0x40 MLOAD SWAP1 DUP2 MSTORE RETURN JUMPDEST CALLVALUE PUSH2 0x199 JUMPI PUSH1 0x20 CALLDATASIZE PUSH1 0x3 NOT ADD SLT PUSH2 0x199 JUMPI PUSH1 0x4 CALLDATALOAD DUP1 ISZERO ISZERO DUP1 PUSH2 0x14FF JUMPI JUMPDEST PUSH2 0x14E4 SWAP1 PUSH2 0x1605 JUMP JUMPDEST PUSH1 0x0 MSTORE PUSH1 0x3 PUSH1 0x20 MSTORE PUSH1 0x20 PUSH1 0x1 PUSH1 0x40 PUSH1 0x0 KECCAK256 ADD SLOAD PUSH1 0x40 MLOAD SWAP1 DUP2 MSTORE RETURN JUMPDEST POP PUSH1 0x2 SLOAD DUP2 GT ISZERO PUSH2 0x14DB JUMP JUMPDEST CALLVALUE PUSH2 0x199 JUMPI PUSH1 0x20 CALLDATASIZE PUSH1 0x3 NOT ADD SLT PUSH2 0x199 JUMPI PUSH1 0x4 CALLDATALOAD DUP1 ISZERO ISZERO DUP1 PUSH2 0x154C JUMPI JUMPDEST PUSH2 0x1531 SWAP1 PUSH2 0x1605 JUMP JUMPDEST PUSH1 0x0 MSTORE PUSH1 0x3 PUSH1 0x20 MSTORE PUSH1 0x20 PUSH1 0x2 PUSH1 0x40 PUSH1 0x0 KECCAK256 ADD SLOAD PUSH1 0x40 MLOAD SWAP1 DUP2 MSTORE RETURN JUMPDEST POP PUSH1 0x2 SLOAD DUP2 GT ISZERO PUSH2 0x1528 JUMP JUMPDEST PUSH1 0x4 CALLDATALOAD SWAP1 PUSH1 0x1 PUSH1 0x1 PUSH1 0xA0 SHL SUB DUP3 AND DUP3 SUB PUSH2 0x199 JUMPI JUMP JUMPDEST PUSH1 0x24 CALLDATALOAD SWAP1 PUSH1 0x1 PUSH1 0x1 PUSH1 0xA0 SHL SUB DUP3 AND DUP3 SUB PUSH2 0x199 JUMPI JUMP JUMPDEST PUSH1 0x20 PUSH1 0x40 DUP2 DUP4 ADD SWAP3 DUP3 DUP2 MSTORE DUP5 MLOAD DUP1 SWAP5 MSTORE ADD SWAP3 ADD SWAP1 PUSH1 0x0 JUMPDEST DUP2 DUP2 LT PUSH2 0x15A8 JUMPI POP POP POP SWAP1 JUMP JUMPDEST DUP3 MLOAD PUSH1 0x1 PUSH1 0x1 PUSH1 0xA0 SHL SUB AND DUP5 MSTORE PUSH1 0x20 SWAP4 DUP5 ADD SWAP4 SWAP1 SWAP3 ADD SWAP2 PUSH1 0x1 ADD PUSH2 0x159B JUMP JUMPDEST SWAP1 PUSH1 0x5 DUP3 LT ISZERO PUSH2 0x4DC JUMPI MSTORE JUMP JUMPDEST SWAP2 DUP2 PUSH1 0x1F DUP5 ADD SLT ISZERO PUSH2 0x199 JUMPI DUP3 CALLDATALOAD SWAP2 PUSH8 0xFFFFFFFFFFFFFFFF DUP4 GT PUSH2 0x199 JUMPI PUSH1 0x20 DUP1 DUP6 ADD SWAP5 DUP5 PUSH1 0x5 SHL ADD ADD GT PUSH2 0x199 JUMPI JUMP JUMPDEST ISZERO PUSH2 0x160C JUMPI JUMP JUMPDEST PUSH1 0x40 MLOAD PUSH3 0x461BCD PUSH1 0xE5 SHL DUP2 MSTORE PUSH1 0x20 PUSH1 0x4 DUP3 ADD MSTORE PUSH1 0xF PUSH1 0x24 DUP3 ADD MSTORE PUSH15 0x125B9D985B1A590819D85B59481251 PUSH1 0x8A SHL PUSH1 0x44 DUP3 ADD MSTORE PUSH1 0x64 SWAP1 REVERT JUMPDEST PUSH1 0x0 NOT DUP2 EQ PUSH2 0x4AB JUMPI PUSH1 0x1 ADD SWAP1 JUMP JUMPDEST SWAP2 SWAP1 DUP3 ADD DUP1 SWAP3 GT PUSH2 0x4AB JUMPI JUMP JUMPDEST PUSH1 0xA0 DUP2 ADD SWAP1 DUP2 LT PUSH8 0xFFFFFFFFFFFFFFFF DUP3 GT OR PUSH2 0xAD2 JUMPI PUSH1 0x40 MSTORE JUMP JUMPDEST PUSH1 0x80 DUP2 ADD SWAP1 DUP2 LT PUSH8 0xFFFFFFFFFFFFFFFF DUP3 GT OR PUSH2 0xAD2 JUMPI PUSH1 0x40 MSTORE JUMP JUMPDEST SWAP1 PUSH1 0x1F DUP1 NOT SWAP2 ADD AND DUP2 ADD SWAP1 DUP2 LT PUSH8 0xFFFFFFFFFFFFFFFF DUP3 GT OR PUSH2 0xAD2 JUMPI PUSH1 0x40 MSTORE JUMP JUMPDEST PUSH8 0xFFFFFFFFFFFFFFFF DUP2 GT PUSH2 0xAD2 JUMPI PUSH1 0x5 SHL PUSH1 0x20 ADD SWAP1 JUMP JUMPDEST SWAP1 PUSH2 0x16DB DUP3 PUSH2 0x16B9 JUMP JUMPDEST PUSH2 0x16E8 PUSH1 0x40 MLOAD SWAP2 DUP3 PUSH2 0x1697 JUMP JUMPDEST DUP3 DUP2 MSTORE DUP1 SWAP3 PUSH2 0x16F9 PUSH1 0x1F NOT SWAP2 PUSH2 0x16B9 JUMP JUMPDEST ADD SWAP1 PUSH1 0x20 CALLDATASIZE SWAP2 ADD CALLDATACOPY JUMP JUMPDEST SWAP1 PUSH1 0x20 DUP3 SLOAD SWAP2 DUP3 DUP2 MSTORE ADD SWAP2 PUSH1 0x0 MSTORE PUSH1 0x20 PUSH1 0x0 KECCAK256 SWAP1 PUSH1 0x0 JUMPDEST DUP2 DUP2 LT PUSH2 0x1727 JUMPI POP POP POP SWAP1 JUMP JUMPDEST DUP3 SLOAD PUSH1 0x1 PUSH1 0x1 PUSH1 0xA0 SHL SUB AND DUP5 MSTORE PUSH1 0x20 SWAP1 SWAP4 ADD SWAP3 PUSH1 0x1 SWAP3 DUP4 ADD SWAP3 ADD PUSH2 0x171A JUMP JUMPDEST DUP1 MLOAD DUP3 LT ISZERO PUSH2 0x175A JUMPI PUSH1 0x20 SWAP2 PUSH1 0x5 SHL ADD ADD SWAP1 JUMP JUMPDEST PUSH4 0x4E487B71 PUSH1 0xE0 SHL PUSH1 0x0 MSTORE PUSH1 0x32 PUSH1 0x4 MSTORE PUSH1 0x24 PUSH1 0x0 REVERT JUMPDEST PUSH1 0x40 MLOAD SWAP1 PUSH2 0x177D DUP3 PUSH2 0x165F JUMP JUMPDEST PUSH1 0x0 PUSH1 0x80 DUP4 DUP3 DUP2 MSTORE DUP3 PUSH1 0x20 DUP3 ADD MSTORE DUP3 PUSH1 0x40 DUP3 ADD MSTORE DUP3 PUSH1 0x60 DUP3 ADD MSTORE ADD MSTORE JUMP JUMPDEST PUSH1 0x5 DUP3 LT ISZERO PUSH2 0x4DC JUMPI MSTORE JUMP JUMPDEST ISZERO PUSH2 0x17AE JUMPI JUMP JUMPDEST PUSH1 0x40 MLOAD PUSH3 0x461BCD PUSH1 0xE5 SHL DUP2 MSTORE PUSH1 0x20 PUSH1 0x4 DUP3 ADD MSTORE PUSH1 0x18 PUSH1 0x24 DUP3 ADD MSTORE PUSH32 0x4F6E6C792047616D654D61737465722063616E2063616C6C0000000000000000 PUSH1 0x44 DUP3 ADD MSTORE PUSH1 0x64 SWAP1 REVERT JUMPDEST SWAP2 SWAP1 DUP2 LT ISZERO PUSH2 0x175A JUMPI PUSH1 0x5 SHL ADD SWAP1 JUMP JUMPDEST DUP1 SLOAD DUP3 LT ISZERO PUSH2 0x175A JUMPI PUSH1 0x0 MSTORE PUSH1 0x20 PUSH1 0x0 KECCAK256 ADD SWAP1 PUSH1 0x0 SWAP1 JUMP JUMPDEST SWAP1 DUP2 SLOAD SWAP2 PUSH9 0x10000000000000000 DUP4 LT ISZERO PUSH2 0xAD2 JUMPI DUP3 PUSH2 0x1843 SWAP2 PUSH1 0x1 PUSH2 0x1867 SWAP6 ADD DUP2 SSTORE PUSH2 0x1803 JUMP JUMPDEST DUP2 SLOAD PUSH1 0x1 PUSH1 0x1 PUSH1 0xA0 SHL SUB SWAP4 DUP5 AND PUSH1 0x3 SWAP3 SWAP1 SWAP3 SHL SWAP2 DUP3 SHL SWAP4 SWAP1 SWAP2 SHL NOT AND SWAP2 SWAP1 SWAP2 OR SWAP1 SSTORE JUMP JUMPDEST JUMP JUMPDEST ISZERO PUSH2 0x1870 JUMPI JUMP JUMPDEST PUSH1 0x40 MLOAD PUSH3 0x461BCD PUSH1 0xE5 SHL DUP2 MSTORE PUSH1 0x20 PUSH1 0x4 DUP3 ADD MSTORE PUSH1 0x16 PUSH1 0x24 DUP3 ADD MSTORE PUSH22 0x506C61796572206E6F7420696E20616E792067616D65 PUSH1 0x50 SHL PUSH1 0x44 DUP3 ADD MSTORE PUSH1 0x64 SWAP1 REVERT JUMPDEST ISZERO PUSH2 0x18B5 JUMPI JUMP JUMPDEST PUSH1 0x40 MLOAD PUSH3 0x461BCD PUSH1 0xE5 SHL DUP2 MSTORE PUSH1 0x20 PUSH1 0x4 DUP3 ADD MSTORE PUSH1 0xF PUSH1 0x24 DUP3 ADD MSTORE PUSH15 0x47616D65206E6F7420616374697665 PUSH1 0x88 SHL PUSH1 0x44 DUP3 ADD MSTORE PUSH1 0x64 SWAP1 REVERT JUMPDEST SWAP1 CALLER PUSH1 0x0 MSTORE PUSH1 0x5 PUSH1 0x20 MSTORE PUSH2 0x1907 PUSH1 0xFF PUSH1 0x40 PUSH1 0x0 KECCAK256 SLOAD AND PUSH2 0x1869 JUMP JUMPDEST CALLER PUSH1 0x0 MSTORE PUSH1 0x4 PUSH1 0x20 MSTORE PUSH1 0x40 PUSH1 0x0 KECCAK256 SLOAD SWAP2 DUP3 PUSH1 0x0 MSTORE PUSH1 0x3 PUSH1 0x20 MSTORE PUSH1 0x40 PUSH1 0x0 KECCAK256 PUSH1 0xFF DUP2 SLOAD AND PUSH1 0x5 DUP2 LT ISZERO PUSH2 0x4DC JUMPI PUSH1 0x2 PUSH2 0x193F SWAP2 EQ PUSH2 0x18AE JUMP JUMPDEST CALLER PUSH1 0x0 SWAP1 DUP2 MSTORE PUSH1 0xC DUP3 ADD PUSH1 0x20 MSTORE PUSH1 0x40 SWAP1 KECCAK256 SLOAD PUSH1 0xFF AND ISZERO PUSH2 0x1BE4 JUMPI PUSH1 0xD DUP2 ADD SWAP1 PUSH1 0x1 DUP1 PUSH1 0xA0 SHL SUB CALLER AND PUSH1 0x0 MSTORE DUP2 PUSH1 0x20 MSTORE PUSH1 0xFF PUSH1 0x40 PUSH1 0x0 KECCAK256 SLOAD AND PUSH2 0x1BAC JUMPI PUSH1 0x1 DUP4 LT ISZERO DUP1 PUSH2 0x1BA1 JUMPI JUMPDEST ISZERO PUSH2 0x1B6B JUMPI PUSH1 0x1 DUP2 ADD PUSH1 0x1 DUP2 SLOAD EQ DUP1 PUSH2 0x1B5E JUMPI JUMPDEST PUSH2 0x1B38 JUMPI JUMPDEST SLOAD PUSH1 0x1 NOT ADD PUSH2 0x1AFD JUMPI PUSH1 0x2 DUP2 ADD SWAP4 DUP5 SLOAD TIMESTAMP GT PUSH2 0x1AC2 JUMPI PUSH1 0x40 MLOAD PUSH1 0x20 DUP2 ADD SWAP2 DUP6 DUP4 MSTORE PUSH1 0x40 DUP3 ADD MSTORE CALLER PUSH1 0x60 SHL PUSH1 0x60 DUP3 ADD MSTORE PUSH1 0x54 DUP2 MSTORE PUSH2 0x19DD PUSH1 0x74 DUP3 PUSH2 0x1697 JUMP JUMPDEST MLOAD SWAP1 KECCAK256 CALLER PUSH1 0x0 SWAP1 DUP2 MSTORE PUSH1 0xA DUP4 ADD PUSH1 0x20 MSTORE PUSH1 0x40 SWAP1 KECCAK256 SLOAD SUB PUSH2 0x1A8C JUMPI CALLER PUSH1 0x0 SWAP1 DUP2 MSTORE PUSH1 0xB DUP3 ADD PUSH1 0x20 SWAP1 DUP2 MSTORE PUSH1 0x40 DUP1 DUP4 KECCAK256 DUP7 SWAP1 SSTORE SWAP4 SWAP1 MSTORE SWAP2 SWAP1 SWAP2 KECCAK256 DUP1 SLOAD PUSH1 0xFF NOT AND PUSH1 0x1 OR SWAP1 SSTORE PUSH1 0xF DUP2 ADD DUP1 SLOAD SWAP1 SWAP3 PUSH1 0x8 SWAP3 SWAP2 PUSH2 0x1A35 SWAP1 PUSH2 0x1643 JUMP JUMPDEST DUP1 SWAP5 SSTORE PUSH1 0x40 MLOAD SWAP1 DUP2 MSTORE DUP6 PUSH32 0x319FCEC55B5300A4DCC6F96B2DF475A149433DC721BA7D96C8FB14495B748AC PUSH1 0x20 CALLER SWAP4 LOG3 ADD SLOAD EQ SWAP1 DUP2 ISZERO PUSH2 0x1A81 JUMPI JUMPDEST POP PUSH2 0x1A78 JUMPI POP JUMP JUMPDEST PUSH2 0x1867 SWAP1 PUSH2 0x1C70 JUMP JUMPDEST SWAP1 POP SLOAD TIMESTAMP GT CODESIZE PUSH2 0x1A70 JUMP JUMPDEST PUSH1 0x40 MLOAD PUSH3 0x461BCD PUSH1 0xE5 SHL DUP2 MSTORE PUSH1 0x20 PUSH1 0x4 DUP3 ADD MSTORE PUSH1 0xE PUSH1 0x24 DUP3 ADD MSTORE PUSH14 0x125B9D985B1A59081C995D99585B PUSH1 0x92 SHL PUSH1 0x44 DUP3 ADD MSTORE PUSH1 0x64 SWAP1 REVERT JUMPDEST PUSH1 0x40 MLOAD PUSH3 0x461BCD PUSH1 0xE5 SHL DUP2 MSTORE PUSH1 0x20 PUSH1 0x4 DUP3 ADD MSTORE PUSH1 0x13 PUSH1 0x24 DUP3 ADD MSTORE PUSH19 0x14995D99585B081C195C9A5BD908195B991959 PUSH1 0x6A SHL PUSH1 0x44 DUP3 ADD MSTORE PUSH1 0x64 SWAP1 REVERT JUMPDEST PUSH1 0x40 MLOAD PUSH3 0x461BCD PUSH1 0xE5 SHL DUP2 MSTORE PUSH1 0x20 PUSH1 0x4 DUP3 ADD MSTORE PUSH1 0x13 PUSH1 0x24 DUP3 ADD MSTORE PUSH19 0x4E6F7420696E2072657665616C207374616765 PUSH1 0x68 SHL PUSH1 0x44 DUP3 ADD MSTORE PUSH1 0x64 SWAP1 REVERT JUMPDEST PUSH2 0x1B41 DUP7 PUSH2 0x1FF9 JUMP JUMPDEST PUSH1 0xFF DUP3 SLOAD AND PUSH1 0x5 DUP2 LT ISZERO PUSH2 0x4DC JUMPI PUSH1 0x4 SUB PUSH2 0x199F JUMPI POP POP POP POP POP POP JUMP JUMPDEST POP PUSH1 0x2 DUP3 ADD SLOAD TIMESTAMP GT PUSH2 0x199A JUMP JUMPDEST PUSH1 0x40 MLOAD PUSH3 0x461BCD PUSH1 0xE5 SHL DUP2 MSTORE PUSH1 0x20 PUSH1 0x4 DUP3 ADD MSTORE PUSH1 0xE PUSH1 0x24 DUP3 ADD MSTORE PUSH14 0x496E76616C69642063686F696365 PUSH1 0x90 SHL PUSH1 0x44 DUP3 ADD MSTORE PUSH1 0x64 SWAP1 REVERT JUMPDEST POP PUSH1 0x3 DUP4 GT ISZERO PUSH2 0x1986 JUMP JUMPDEST PUSH1 0x40 MLOAD PUSH3 0x461BCD PUSH1 0xE5 SHL DUP2 MSTORE PUSH1 0x20 PUSH1 0x4 DUP3 ADD MSTORE PUSH1 0x10 PUSH1 0x24 DUP3 ADD MSTORE PUSH16 0x105B1C9958591E481C995D99585B1959 PUSH1 0x82 SHL PUSH1 0x44 DUP3 ADD MSTORE PUSH1 0x64 SWAP1 REVERT JUMPDEST PUSH1 0x40 MLOAD PUSH3 0x461BCD PUSH1 0xE5 SHL DUP2 MSTORE PUSH1 0x20 PUSH1 0x4 DUP3 ADD MSTORE PUSH1 0x11 PUSH1 0x24 DUP3 ADD MSTORE PUSH17 0x135D5CDD0818DBDB5B5A5D08199A5C9CDD PUSH1 0x7A SHL PUSH1 0x44 DUP3 ADD MSTORE PUSH1 0x64 SWAP1 REVERT JUMPDEST ISZERO PUSH2 0x1C24 JUMPI JUMP JUMPDEST PUSH1 0x40 MLOAD PUSH3 0x461BCD PUSH1 0xE5 SHL DUP2 MSTORE PUSH1 0x20 PUSH1 0x4 DUP3 ADD MSTORE PUSH1 0x13 PUSH1 0x24 DUP3 ADD MSTORE PUSH19 0x4E6F7420696E20636F6D6D6974207374616765 PUSH1 0x68 SHL PUSH1 0x44 DUP3 ADD MSTORE PUSH1 0x64 SWAP1 REVERT JUMPDEST SWAP1 PUSH1 0x4 DUP2 LT ISZERO PUSH2 0x175A JUMPI PUSH1 0x5 SHL ADD SWAP1 JUMP JUMPDEST DUP1 PUSH1 0x0 MSTORE PUSH1 0x3 PUSH1 0x20 MSTORE PUSH1 0x40 PUSH1 0x0 KECCAK256 PUSH1 0x8 DUP2 ADD SWAP1 DUP2 SLOAD PUSH2 0x1C8E DUP2 PUSH2 0x16D1 JUMP JUMPDEST SWAP1 PUSH1 0x0 SWAP1 PUSH1 0xD DUP5 ADD DUP3 JUMPDEST DUP3 DUP2 LT PUSH2 0x1F63 JUMPI POP POP POP PUSH1 0x0 JUMPDEST DUP2 DUP2 LT PUSH2 0x1F45 JUMPI POP POP DUP3 SLOAD SWAP1 PUSH1 0x3 DUP3 EQ PUSH2 0x1D0C JUMPI JUMPDEST POP POP PUSH32 0xA7690F576EAEF889EF9EF29D1EAEE6C0E3B073108B66BB8009EC8AF6428BB345 SWAP2 PUSH2 0x1D07 SWAP2 PUSH1 0x4 PUSH1 0xFF NOT DUP3 SLOAD AND OR DUP2 SSTORE PUSH1 0x4 TIMESTAMP SWAP2 ADD SSTORE PUSH1 0x40 MLOAD SWAP2 DUP3 SWAP2 PUSH1 0x20 DUP4 MSTORE PUSH1 0x20 DUP4 ADD SWAP1 PUSH2 0x1703 JUMP JUMPDEST SUB SWAP1 LOG2 JUMP JUMPDEST PUSH1 0x40 MLOAD SWAP2 PUSH1 0x80 PUSH2 0x1D1C DUP2 DUP6 PUSH2 0x1697 JUMP JUMPDEST PUSH1 0x3 DUP5 MSTORE PUSH1 0x1F NOT DUP2 ADD CALLDATASIZE PUSH1 0x20 DUP7 ADD CALLDATACOPY PUSH1 0xB DUP6 ADD SWAP4 PUSH1 0x0 JUMPDEST PUSH1 0x3 DUP2 LT PUSH2 0x1F07 JUMPI POP PUSH1 0x40 MLOAD SWAP2 PUSH2 0x1D4A DUP2 DUP5 PUSH2 0x1697 JUMP JUMPDEST CALLDATASIZE DUP4 CALLDATACOPY PUSH1 0x0 JUMPDEST PUSH1 0x3 DUP2 LT PUSH2 0x1ED5 JUMPI POP POP PUSH1 0x0 SWAP4 PUSH1 0x20 DUP3 ADD PUSH1 0x2 DUP2 MLOAD EQ DUP1 ISZERO PUSH2 0x1EC7 JUMPI JUMPDEST DUP1 ISZERO PUSH2 0x1EB9 JUMPI JUMPDEST ISZERO PUSH2 0x1E35 JUMPI POP PUSH1 0x0 JUMPDEST DUP4 DUP2 LT PUSH2 0x1DBF JUMPI POP POP POP POP JUMPDEST PUSH1 0x0 JUMPDEST DUP3 DUP2 LT PUSH2 0x1D99 JUMPI POP PUSH2 0x1CBA JUMP JUMPDEST PUSH1 0x1 SWAP1 PUSH2 0x1DB9 PUSH1 0x1 PUSH1 0x1 PUSH1 0xA0 SHL SUB PUSH2 0x1DB1 DUP4 DUP7 PUSH2 0x1746 JUMP JUMPDEST MLOAD AND DUP9 PUSH2 0x21E4 JUMP JUMPDEST ADD PUSH2 0x1D8C JUMP JUMPDEST DUP1 PUSH1 0x2 PUSH2 0x1DF7 PUSH1 0x40 PUSH2 0x1DD3 PUSH1 0x1 SWAP6 DUP14 PUSH2 0x1803 JUMP JUMPDEST SWAP1 SLOAD PUSH1 0x3 SWAP2 SWAP1 SWAP2 SHL SHR PUSH1 0xA0 DUP7 SWAP1 SHL DUP7 SWAP1 SUB AND PUSH1 0x0 SWAP1 DUP2 MSTORE PUSH1 0x20 DUP8 SWAP1 MSTORE KECCAK256 SLOAD DUP7 PUSH2 0x1C5F JUMP JUMPDEST MLOAD EQ PUSH2 0x1E04 JUMPI JUMPDEST ADD PUSH2 0x1D7D JUMP JUMPDEST PUSH2 0x1E0E DUP2 DUP11 PUSH2 0x1803 JUMP JUMPDEST DUP4 DUP1 PUSH1 0xA0 SHL SUB SWAP2 SLOAD SWAP1 PUSH1 0x3 SHL SHR AND PUSH2 0x1E2F PUSH2 0x1E28 DUP10 PUSH2 0x1643 JUMP JUMPDEST SWAP9 DUP9 PUSH2 0x1746 JUMP JUMPDEST MSTORE PUSH2 0x1DFE JUMP JUMPDEST PUSH1 0x3 SWAP2 POP MLOAD EQ ISZERO SWAP1 DUP2 PUSH2 0x1EA9 JUMPI JUMPDEST DUP2 PUSH2 0x1E99 JUMPI JUMPDEST POP PUSH2 0x1E55 JUMPI JUMPDEST POP PUSH2 0x1D89 JUMP JUMPDEST DUP3 JUMPDEST DUP2 DUP2 LT PUSH2 0x1E64 JUMPI POP PUSH2 0x1E4F JUMP JUMPDEST DUP1 PUSH2 0x1E71 PUSH1 0x1 SWAP3 DUP9 PUSH2 0x1803 JUMP JUMPDEST DUP4 DUP1 PUSH1 0xA0 SHL SUB SWAP2 SLOAD SWAP1 PUSH1 0x3 SHL SHR AND PUSH2 0x1E92 PUSH2 0x1E8B DUP8 PUSH2 0x1643 JUMP JUMPDEST SWAP7 DUP7 PUSH2 0x1746 JUMP JUMPDEST MSTORE ADD PUSH2 0x1E57 JUMP JUMPDEST PUSH1 0x3 SWAP2 POP PUSH1 0x60 ADD MLOAD EQ ISZERO CODESIZE PUSH2 0x1E49 JUMP JUMPDEST PUSH1 0x40 DUP2 ADD MLOAD PUSH1 0x3 EQ ISZERO SWAP2 POP PUSH2 0x1E43 JUMP JUMPDEST POP PUSH1 0x2 PUSH1 0x60 DUP5 ADD MLOAD EQ PUSH2 0x1D74 JUMP JUMPDEST POP PUSH1 0x2 PUSH1 0x40 DUP5 ADD MLOAD EQ PUSH2 0x1D6D JUMP JUMPDEST DUP1 PUSH2 0x1EE2 PUSH1 0x1 SWAP3 DUP5 PUSH2 0x1746 JUMP JUMPDEST MLOAD PUSH2 0x1F00 PUSH2 0x1EF9 PUSH2 0x1EF3 DUP4 DUP9 PUSH2 0x1C5F JUMP JUMPDEST MLOAD PUSH2 0x1643 JUMP JUMPDEST SWAP2 DUP7 PUSH2 0x1C5F JUMP JUMPDEST MSTORE ADD PUSH2 0x1D50 JUMP JUMPDEST DUP1 PUSH1 0x40 PUSH2 0x1F16 PUSH1 0x1 SWAP4 DUP12 PUSH2 0x1803 JUMP JUMPDEST SWAP1 SLOAD PUSH1 0x3 SWAP2 SWAP1 SWAP2 SHL SHR PUSH1 0xA0 DUP5 SWAP1 SHL DUP5 SWAP1 SUB AND PUSH1 0x0 SWAP1 DUP2 MSTORE PUSH1 0x20 DUP10 SWAP1 MSTORE KECCAK256 SLOAD PUSH2 0x1F3E DUP3 DUP6 PUSH2 0x1746 JUMP JUMPDEST MSTORE ADD PUSH2 0x1D33 JUMP JUMPDEST PUSH1 0x1 SWAP1 PUSH2 0x1F5D PUSH1 0x1 PUSH1 0x1 PUSH1 0xA0 SHL SUB PUSH2 0x1DB1 DUP4 DUP8 PUSH2 0x1746 JUMP JUMPDEST ADD PUSH2 0x1CA5 JUMP JUMPDEST DUP1 PUSH1 0xFF PUSH1 0x40 PUSH2 0x1F74 PUSH1 0x1 SWAP5 DUP12 PUSH2 0x1803 JUMP JUMPDEST SWAP1 SLOAD PUSH1 0x3 SWAP2 SWAP1 SWAP2 SHL SHR PUSH1 0xA0 DUP6 SWAP1 SHL DUP6 SWAP1 SUB AND PUSH1 0x0 SWAP1 DUP2 MSTORE PUSH1 0x20 DUP7 SWAP1 MSTORE KECCAK256 SLOAD AND ISZERO PUSH2 0x1F9F JUMPI JUMPDEST ADD PUSH2 0x1C98 JUMP JUMPDEST PUSH2 0x1FA9 DUP2 DUP10 PUSH2 0x1803 JUMP JUMPDEST DUP4 DUP1 PUSH1 0xA0 SHL SUB SWAP2 SLOAD SWAP1 PUSH1 0x3 SHL SHR AND PUSH2 0x1FCA PUSH2 0x1FC3 DUP8 PUSH2 0x1643 JUMP JUMPDEST SWAP7 DUP9 PUSH2 0x1746 JUMP JUMPDEST MSTORE PUSH2 0x1F99 JUMP JUMPDEST PUSH1 0x0 SLOAD PUSH1 0x1 PUSH1 0x1 PUSH1 0xA0 SHL SUB AND CALLER SUB PUSH2 0x1FE4 JUMPI JUMP JUMPDEST PUSH4 0x118CDAA7 PUSH1 0xE0 SHL PUSH1 0x0 MSTORE CALLER PUSH1 0x4 MSTORE PUSH1 0x24 PUSH1 0x0 REVERT JUMPDEST DUP1 PUSH1 0x0 MSTORE PUSH1 0x3 PUSH1 0x20 MSTORE PUSH1 0x40 PUSH1 0x0 KECCAK256 PUSH1 0x1 DUP2 ADD SWAP1 PUSH2 0x2019 PUSH1 0x1 DUP4 SLOAD EQ PUSH2 0x1C1D JUMP JUMPDEST PUSH1 0x2 DUP2 ADD DUP1 SLOAD TIMESTAMP GT DUP1 ISZERO PUSH2 0x21D3 JUMPI JUMPDEST ISZERO PUSH2 0x218E JUMPI PUSH1 0xE DUP3 ADD SLOAD SWAP1 PUSH1 0x8 DUP4 ADD SWAP4 DUP5 SLOAD DUP1 SWAP4 EQ PUSH2 0x2142 JUMPI POP POP PUSH2 0x204C DUP2 PUSH2 0x16D1 JUMP JUMPDEST PUSH1 0x0 SWAP2 PUSH1 0xC DUP5 ADD DUP4 JUMPDEST DUP3 DUP2 LT PUSH2 0x20D5 JUMPI POP POP POP PUSH1 0x0 JUMPDEST DUP3 DUP2 LT PUSH2 0x20B7 JUMPI POP POP POP PUSH32 0xA7690F576EAEF889EF9EF29D1EAEE6C0E3B073108B66BB8009EC8AF6428BB345 SWAP2 PUSH2 0x1D07 SWAP2 PUSH1 0x4 PUSH1 0xFF NOT DUP3 SLOAD AND OR DUP2 SSTORE PUSH1 0x4 TIMESTAMP SWAP2 ADD SSTORE PUSH1 0x40 MLOAD SWAP2 DUP3 SWAP2 PUSH1 0x20 DUP4 MSTORE PUSH1 0x20 DUP4 ADD SWAP1 PUSH2 0x1703 JUMP JUMPDEST PUSH1 0x1 SWAP1 PUSH2 0x20CF PUSH1 0x1 PUSH1 0x1 PUSH1 0xA0 SHL SUB PUSH2 0x1DB1 DUP4 DUP7 PUSH2 0x1746 JUMP JUMPDEST ADD PUSH2 0x2062 JUMP JUMPDEST DUP1 PUSH1 0xFF PUSH1 0x40 PUSH2 0x20E6 PUSH1 0x1 SWAP5 DUP12 PUSH2 0x1803 JUMP JUMPDEST SWAP1 SLOAD PUSH1 0x3 SWAP2 SWAP1 SWAP2 SHL SHR PUSH1 0xA0 DUP6 SWAP1 SHL DUP6 SWAP1 SUB AND PUSH1 0x0 SWAP1 DUP2 MSTORE PUSH1 0x20 DUP7 SWAP1 MSTORE KECCAK256 SLOAD AND ISZERO PUSH2 0x2111 JUMPI JUMPDEST ADD PUSH2 0x2055 JUMP JUMPDEST PUSH2 0x211B DUP2 DUP10 PUSH2 0x1803 JUMP JUMPDEST DUP4 DUP1 PUSH1 0xA0 SHL SUB SWAP2 SLOAD SWAP1 PUSH1 0x3 SHL SHR AND PUSH2 0x213C PUSH2 0x2135 DUP9 PUSH2 0x1643 JUMP JUMPDEST SWAP8 DUP8 PUSH2 0x1746 JUMP JUMPDEST MSTORE PUSH2 0x210B JUMP JUMPDEST SWAP2 POP SWAP3 POP PUSH1 0x2 SWAP2 POP SSTORE PUSH2 0x12C TIMESTAMP ADD SWAP1 DUP2 TIMESTAMP GT PUSH2 0x4AB JUMPI DUP2 PUSH32 0xA359B664A68ACD8839E42112EB50EFF3408165E15074FDE89DDB58A0DB2E691D SWAP3 PUSH1 0x40 SWAP3 SSTORE DUP2 MLOAD SWAP1 PUSH1 0x2 DUP3 MSTORE PUSH1 0x20 DUP3 ADD MSTORE LOG2 JUMP JUMPDEST PUSH1 0x40 MLOAD PUSH3 0x461BCD PUSH1 0xE5 SHL DUP2 MSTORE PUSH1 0x20 PUSH1 0x4 DUP3 ADD MSTORE PUSH1 0x1B PUSH1 0x24 DUP3 ADD MSTORE PUSH32 0x43616E6E6F7420656E6420636F6D6D6974207374616765207965740000000000 PUSH1 0x44 DUP3 ADD MSTORE PUSH1 0x64 SWAP1 REVERT JUMPDEST POP PUSH1 0xE DUP3 ADD SLOAD PUSH1 0x8 DUP4 ADD SLOAD EQ PUSH2 0x2028 JUMP JUMPDEST SWAP1 PUSH1 0x0 SWAP2 DUP1 DUP4 MSTORE PUSH1 0x3 PUSH1 0x20 MSTORE PUSH1 0x40 DUP4 KECCAK256 SWAP2 PUSH1 0x9 DUP4 ADD PUSH1 0x1 DUP1 PUSH1 0xA0 SHL SUB DUP3 AND DUP6 MSTORE DUP1 PUSH1 0x20 MSTORE PUSH1 0xFF PUSH1 0x40 DUP7 KECCAK256 SLOAD AND ISZERO PUSH2 0x23BC JUMPI PUSH1 0x1 DUP1 PUSH1 0xA0 SHL SUB DUP3 AND DUP6 MSTORE PUSH1 0x20 MSTORE PUSH1 0x40 DUP5 KECCAK256 PUSH1 0xFF NOT DUP2 SLOAD AND SWAP1 SSTORE PUSH1 0x1 DUP1 PUSH1 0xA0 SHL SUB AND SWAP2 DUP3 DUP5 MSTORE PUSH1 0x5 PUSH1 0x20 MSTORE PUSH1 0x40 DUP5 KECCAK256 PUSH1 0xFF NOT DUP2 SLOAD AND SWAP1 SSTORE DUP3 DUP5 MSTORE PUSH1 0x4 PUSH1 0x20 MSTORE DUP4 PUSH1 0x40 DUP2 KECCAK256 SSTORE DUP4 PUSH1 0x8 DUP3 ADD SWAP5 JUMPDEST DUP6 SLOAD DUP1 DUP3 LT ISZERO PUSH2 0x23B0 JUMPI DUP6 PUSH2 0x2276 DUP4 DUP10 PUSH2 0x1803 JUMP JUMPDEST SWAP1 SLOAD PUSH1 0x3 SWAP2 SWAP1 SWAP2 SHL SHR PUSH1 0x1 PUSH1 0x1 PUSH1 0xA0 SHL SUB AND EQ PUSH2 0x2296 JUMPI POP PUSH1 0x1 ADD PUSH2 0x2261 JUMP JUMPDEST PUSH1 0x0 SWAP7 SWAP3 SWAP4 SWAP5 SWAP6 SWAP7 NOT DUP2 ADD SWAP1 DUP2 GT PUSH2 0x239C JUMPI SWAP1 PUSH2 0x1843 PUSH2 0x22B9 PUSH2 0x22D2 SWAP4 DUP6 PUSH2 0x1803 JUMP JUMPDEST SWAP1 SLOAD PUSH1 0x3 SWAP2 SWAP1 SWAP2 SHL SHR PUSH1 0x1 PUSH1 0x1 PUSH1 0xA0 SHL SUB AND SWAP2 DUP5 PUSH2 0x1803 JUMP JUMPDEST DUP1 SLOAD DUP1 ISZERO PUSH2 0x2388 JUMPI PUSH1 0x0 NOT ADD SWAP1 PUSH2 0x22E9 DUP3 DUP3 PUSH2 0x1803 JUMP JUMPDEST DUP2 SLOAD SWAP1 PUSH1 0x1 DUP1 PUSH1 0xA0 SHL SUB SWAP1 PUSH1 0x3 SHL SHL NOT AND SWAP1 SSTORE SSTORE JUMPDEST PUSH1 0x1 SLOAD PUSH1 0x1 PUSH1 0x1 PUSH1 0xA0 SHL SUB AND DUP1 EXTCODESIZE ISZERO PUSH2 0x2384 JUMPI SWAP1 DUP1 DUP1 PUSH1 0x7 SWAP5 SWAP4 PUSH1 0x24 PUSH1 0x40 MLOAD DUP1 SWAP5 DUP2 SWAP4 PUSH4 0x3EF6CF1D PUSH1 0xE2 SHL DUP4 MSTORE DUP12 PUSH1 0x4 DUP5 ADD MSTORE GAS CALL PUSH2 0x2374 JUMPI JUMPDEST POP POP DUP4 PUSH1 0x0 MSTORE ADD PUSH1 0x20 MSTORE PUSH32 0x51479C93D7646904D2282E9E79CDDF11999AC774B7FD0289E2F59CB4AD0F086A PUSH1 0x20 PUSH1 0x40 PUSH1 0x0 KECCAK256 SLOAD PUSH1 0x40 MLOAD SWAP1 DUP2 MSTORE LOG3 JUMP JUMPDEST DUP2 PUSH2 0x237E SWAP2 PUSH2 0x1697 JUMP JUMPDEST CODESIZE PUSH2 0x2338 JUMP JUMPDEST POP DUP1 REVERT JUMPDEST PUSH4 0x4E487B71 PUSH1 0xE0 SHL DUP4 MSTORE PUSH1 0x31 PUSH1 0x4 MSTORE PUSH1 0x24 DUP4 REVERT JUMPDEST PUSH4 0x4E487B71 PUSH1 0xE0 SHL DUP5 MSTORE PUSH1 0x11 PUSH1 0x4 MSTORE PUSH1 0x24 DUP5 REVERT JUMPDEST POP POP SWAP1 SWAP2 SWAP3 SWAP4 POP PUSH2 0x22FE JUMP JUMPDEST PUSH1 0x40 MLOAD PUSH3 0x461BCD PUSH1 0xE5 SHL DUP2 MSTORE PUSH1 0x20 PUSH1 0x4 DUP3 ADD MSTORE PUSH1 0x11 PUSH1 0x24 DUP3 ADD MSTORE PUSH17 0x506C61796572206E6F7420616374697665 PUSH1 0x78 SHL PUSH1 0x44 DUP3 ADD MSTORE PUSH1 0x64 SWAP1 REVERT INVALID LOG2 PUSH5 0x6970667358 0x22 SLT KECCAK256 PUSH6 0x64F3896877AE SGT BLOCKHASH SIGNEXTEND STATICCALL KECCAK256 EQ GASLIMIT AND NUMBER 0xF 0x26 SSTORE 0xD1 TSTORE INVALID 0xE5 PUSH8 0xBDC59E9B128308F1 PUSH5 0x736F6C6343 STOP ADDMOD SHR STOP CALLER "},"methodIdentifiers":{"commitChoice(bytes32)":"e05b10c0","endExpiredGames()":"d0f3a21e","endGame()":"6cbc2ded","gameIdCounter()":"1bb412d6","gameMaster()":"bdf84ae7","getActivePlayers()":"3c4f5a66","getCurrentRound(uint256)":"148b02c5","getGameInfo(uint256)":"47e1d550","getGameName()":"bbda33d9","getGameState(uint256)":"ffde0c74","getGames()":"c04c5947","getPlayerGameId(address)":"773b549d","getPlayerInfo(uint256)":"ea17532e","getPlayerNumber(uint256,address)":"3532804d","getPlayers()":"8b5b9ccc","getRoundEndTime(uint256)":"12b19a13","hasPlayerCommitted(uint256,address)":"84cd7d33","hasPlayerRevealed(uint256,address)":"d216b62b","initialize(address[],uint256[])":"7fbbe46f","isPlayerInGame(address)":"574a5b20","owner()":"8da5cb5b","playerGameId(address)":"25b05c88","renounceOwnership()":"715018a6","revealChoice(uint256,bytes32)":"8c10bb96","setGameMaster(address)":"c2e94927","startGames()":"e81de9f5","transferOwnership(address)":"f2fde38b"}}}}}