{"contracts/games/Descend.sol":{"Descend":{"abi":[{"inputs":[],"stateMutability":"nonpayable","type":"constructor"},{"inputs":[{"internalType":"address","name":"owner","type":"address"}],"name":"OwnableInvalidOwner","type":"error"},{"inputs":[{"internalType":"address","name":"account","type":"address"}],"name":"OwnableUnauthorizedAccount","type":"error"},{"anonymous":false,"inputs":[{"indexed":true,"internalType":"uint256","name":"gameId","type":"uint256"},{"indexed":false,"internalType":"address[]","name":"winners","type":"address[]"}],"name":"GameCompleted","type":"event"},{"anonymous":false,"inputs":[{"indexed":false,"internalType":"address[]","name":"players","type":"address[]"},{"indexed":false,"internalType":"uint256[]","name":"playerNumbers","type":"uint256[]"}],"name":"GameInitialized","type":"event"},{"anonymous":false,"inputs":[{"indexed":false,"internalType":"address","name":"newGameMaster","type":"address"}],"name":"GameMasterChanged","type":"event"},{"anonymous":false,"inputs":[{"indexed":true,"internalType":"uint256","name":"gameId","type":"uint256"},{"indexed":false,"internalType":"uint256","name":"level","type":"uint256"},{"indexed":false,"internalType":"uint256","name":"playerCount","type":"uint256"}],"name":"LevelElimination","type":"event"},{"anonymous":false,"inputs":[{"indexed":true,"internalType":"address","name":"previousOwner","type":"address"},{"indexed":true,"internalType":"address","name":"newOwner","type":"address"}],"name":"OwnershipTransferred","type":"event"},{"anonymous":false,"inputs":[{"indexed":true,"internalType":"uint256","name":"gameId","type":"uint256"},{"indexed":true,"internalType":"address","name":"player","type":"address"}],"name":"PlayerCommitted","type":"event"},{"anonymous":false,"inputs":[{"indexed":true,"internalType":"uint256","name":"gameId","type":"uint256"},{"indexed":true,"internalType":"address","name":"player","type":"address"},{"indexed":false,"internalType":"uint256","name":"playerNumber","type":"uint256"}],"name":"PlayerEliminated","type":"event"},{"anonymous":false,"inputs":[{"indexed":true,"internalType":"uint256","name":"gameId","type":"uint256"},{"indexed":true,"internalType":"address","name":"player","type":"address"},{"indexed":false,"internalType":"uint256","name":"fromLevel","type":"uint256"},{"indexed":false,"internalType":"uint256","name":"toLevel","type":"uint256"}],"name":"PlayerMoved","type":"event"},{"anonymous":false,"inputs":[{"indexed":true,"internalType":"uint256","name":"gameId","type":"uint256"},{"indexed":true,"internalType":"address","name":"player","type":"address"},{"indexed":false,"internalType":"uint256","name":"move","type":"uint256"}],"name":"PlayerRevealed","type":"event"},{"anonymous":false,"inputs":[{"indexed":true,"internalType":"uint256","name":"gameId","type":"uint256"},{"indexed":false,"internalType":"uint256","name":"roundNumber","type":"uint256"}],"name":"RoundEnded","type":"event"},{"anonymous":false,"inputs":[{"indexed":true,"internalType":"uint256","name":"gameId","type":"uint256"},{"indexed":false,"internalType":"uint256","name":"roundNumber","type":"uint256"},{"indexed":false,"internalType":"uint256","name":"phase","type":"uint256"},{"indexed":false,"internalType":"uint256","name":"endTime","type":"uint256"},{"indexed":false,"internalType":"uint256[]","name":"levelPopulations","type":"uint256[]"},{"indexed":false,"internalType":"uint256[]","name":"levelCapacities","type":"uint256[]"}],"name":"RoundStarted","type":"event"},{"inputs":[{"internalType":"bytes32","name":"commitment","type":"bytes32"}],"name":"commitMove","outputs":[],"stateMutability":"nonpayable","type":"function"},{"inputs":[],"name":"endExpiredGames","outputs":[],"stateMutability":"nonpayable","type":"function"},{"inputs":[],"name":"endGame","outputs":[{"internalType":"address[]","name":"","type":"address[]"}],"stateMutability":"nonpayable","type":"function"},{"inputs":[],"name":"gameIdCounter","outputs":[{"internalType":"uint256","name":"","type":"uint256"}],"stateMutability":"view","type":"function"},{"inputs":[],"name":"gameMaster","outputs":[{"internalType":"address","name":"","type":"address"}],"stateMutability":"view","type":"function"},{"inputs":[],"name":"getActivePlayers","outputs":[{"internalType":"address[]","name":"","type":"address[]"}],"stateMutability":"view","type":"function"},{"inputs":[{"internalType":"uint256","name":"gameId","type":"uint256"}],"name":"getCurrentPhase","outputs":[{"internalType":"uint256","name":"","type":"uint256"}],"stateMutability":"view","type":"function"},{"inputs":[{"internalType":"uint256","name":"gameId","type":"uint256"}],"name":"getGameInfo","outputs":[{"components":[{"internalType":"enum GameState","name":"state","type":"uint8"},{"internalType":"uint256","name":"currentRound","type":"uint256"},{"internalType":"uint256","name":"roundEndTime","type":"uint256"},{"internalType":"uint256","name":"gameStartTime","type":"uint256"},{"internalType":"uint256","name":"gameEndTime","type":"uint256"}],"internalType":"struct IGame.GameInfo","name":"","type":"tuple"}],"stateMutability":"view","type":"function"},{"inputs":[],"name":"getGameName","outputs":[{"internalType":"string","name":"","type":"string"}],"stateMutability":"pure","type":"function"},{"inputs":[{"internalType":"uint256","name":"gameId","type":"uint256"}],"name":"getGameState","outputs":[{"internalType":"enum GameState","name":"","type":"uint8"}],"stateMutability":"view","type":"function"},{"inputs":[],"name":"getGames","outputs":[{"components":[{"internalType":"uint256","name":"gameId","type":"uint256"},{"internalType":"enum GameState","name":"state","type":"uint8"},{"internalType":"uint256","name":"currentRound","type":"uint256"},{"internalType":"uint256","name":"activePlayerCount","type":"uint256"}],"internalType":"struct GameInstanceInfo[]","name":"gamesInfo","type":"tuple[]"}],"stateMutability":"view","type":"function"},{"inputs":[{"internalType":"uint256","name":"gameId","type":"uint256"},{"internalType":"address","name":"player","type":"address"}],"name":"getLastMove","outputs":[{"internalType":"uint256","name":"","type":"uint256"}],"stateMutability":"view","type":"function"},{"inputs":[{"internalType":"uint256","name":"gameId","type":"uint256"}],"name":"getLevelCapacities","outputs":[{"internalType":"uint256[]","name":"","type":"uint256[]"}],"stateMutability":"view","type":"function"},{"inputs":[{"internalType":"uint256","name":"gameId","type":"uint256"},{"internalType":"uint256","name":"level","type":"uint256"}],"name":"getLevelPopulation","outputs":[{"internalType":"uint256","name":"","type":"uint256"}],"stateMutability":"view","type":"function"},{"inputs":[{"internalType":"uint256","name":"gameId","type":"uint256"}],"name":"getLevelPopulations","outputs":[{"internalType":"uint256[]","name":"","type":"uint256[]"}],"stateMutability":"view","type":"function"},{"inputs":[{"internalType":"address","name":"player","type":"address"}],"name":"getPlayerGameId","outputs":[{"internalType":"uint256","name":"","type":"uint256"}],"stateMutability":"view","type":"function"},{"inputs":[{"internalType":"uint256","name":"gameId","type":"uint256"}],"name":"getPlayerInfo","outputs":[{"components":[{"internalType":"address","name":"playerAddress","type":"address"},{"internalType":"uint256","name":"playerNumber","type":"uint256"},{"internalType":"uint256","name":"level","type":"uint256"},{"internalType":"uint256","name":"lastMove","type":"uint256"},{"internalType":"bool","name":"hasCommitted","type":"bool"},{"internalType":"bool","name":"hasRevealed","type":"bool"},{"internalType":"bool","name":"isActive","type":"bool"}],"internalType":"struct Descend.DescendPlayerInfo[]","name":"","type":"tuple[]"}],"stateMutability":"view","type":"function"},{"inputs":[{"internalType":"uint256","name":"gameId","type":"uint256"},{"internalType":"address","name":"player","type":"address"}],"name":"getPlayerLevel","outputs":[{"internalType":"uint256","name":"","type":"uint256"}],"stateMutability":"view","type":"function"},{"inputs":[{"internalType":"uint256","name":"gameId","type":"uint256"},{"internalType":"address","name":"player","type":"address"}],"name":"getPlayerNumber","outputs":[{"internalType":"uint256","name":"","type":"uint256"}],"stateMutability":"view","type":"function"},{"inputs":[],"name":"getPlayers","outputs":[{"internalType":"address[]","name":"","type":"address[]"}],"stateMutability":"view","type":"function"},{"inputs":[{"internalType":"uint256","name":"gameId","type":"uint256"}],"name":"getRoundEndTime","outputs":[{"internalType":"uint256","name":"","type":"uint256"}],"stateMutability":"view","type":"function"},{"inputs":[{"internalType":"uint256","name":"gameId","type":"uint256"}],"name":"getWinners","outputs":[{"internalType":"address[]","name":"","type":"address[]"}],"stateMutability":"view","type":"function"},{"inputs":[{"internalType":"uint256","name":"gameId","type":"uint256"},{"internalType":"address","name":"player","type":"address"}],"name":"hasPlayerCommitted","outputs":[{"internalType":"bool","name":"","type":"bool"}],"stateMutability":"view","type":"function"},{"inputs":[{"internalType":"uint256","name":"gameId","type":"uint256"},{"internalType":"address","name":"player","type":"address"}],"name":"hasPlayerRevealed","outputs":[{"internalType":"bool","name":"","type":"bool"}],"stateMutability":"view","type":"function"},{"inputs":[{"internalType":"address[]","name":"_players","type":"address[]"},{"internalType":"uint256[]","name":"_playerNumbers","type":"uint256[]"}],"name":"initialize","outputs":[],"stateMutability":"nonpayable","type":"function"},{"inputs":[{"internalType":"address","name":"","type":"address"}],"name":"isPlayerInGame","outputs":[{"internalType":"bool","name":"","type":"bool"}],"stateMutability":"view","type":"function"},{"inputs":[],"name":"owner","outputs":[{"internalType":"address","name":"","type":"address"}],"stateMutability":"view","type":"function"},{"inputs":[{"internalType":"address","name":"","type":"address"}],"name":"playerGameId","outputs":[{"internalType":"uint256","name":"","type":"uint256"}],"stateMutability":"view","type":"function"},{"inputs":[],"name":"registerMe","outputs":[],"stateMutability":"nonpayable","type":"function"},{"inputs":[],"name":"renounceOwnership","outputs":[],"stateMutability":"nonpayable","type":"function"},{"inputs":[{"internalType":"uint256","name":"move","type":"uint256"},{"internalType":"bytes32","name":"salt","type":"bytes32"}],"name":"revealMove","outputs":[],"stateMutability":"nonpayable","type":"function"},{"inputs":[{"internalType":"address","name":"_newGameMaster","type":"address"}],"name":"setGameMaster","outputs":[],"stateMutability":"nonpayable","type":"function"},{"inputs":[],"name":"startGames","outputs":[{"internalType":"bool","name":"","type":"bool"}],"stateMutability":"nonpayable","type":"function"},{"inputs":[{"internalType":"address","name":"newOwner","type":"address"}],"name":"transferOwnership","outputs":[],"stateMutability":"nonpayable","type":"function"}],"evm":{"bytecode":{"linkReferences":{},"object":"60808060405234608757331560715760008054336001600160a01b0319821681178355916001600160a01b03909116907f8be0079c531659141344cd1fd0a4f28419497f9722a3daafe3b4186f6b6457e09080a3600180546001600160a01b03191633179055613499908161008d8239f35b631e4fbdf760e01b600052600060045260246000fd5b600080fdfe6080604052600436101561001257600080fd5b60003560e01c806312b19a13146119e45780631336e25c1461192157806318979f9e146118865780631bb412d61461186857806325b05c88146113805780633532804d146117cd57806336c86ede146117345780633c4f5a661461165757806347e1d55014611579578063572e85ec1461152c578063574a5b20146114ed5780636b1426a4146114a45780636cbc2ded14611413578063715018a6146113ba578063773b549d146113805780637d1ddd34146113615780637fbbe46f14610e4757806384cd7d3314610dd85780638b5b9ccc14610ce75780638da5cb5b14610cbe5780639a198d6114610bc8578063a9ea37b614610bac578063ab594a2114610b1a578063bbda33d914610a9c578063bdf84ae714610a73578063c04c59471461090e578063c2e9492714610853578063d0f3a21e146107a1578063d216b62b14610732578063d7bdf85f14610697578063e81de9f5146104f0578063ea17532e14610274578063f2fde38b146101eb5763ffde0c741461019257600080fd5b346101e65760203660031901126101e657600435801515806101da575b6101b890611b12565b6000526003602052602060ff604060002054166101d86040518092611ad4565bf35b506002548111156101af565b600080fd5b346101e65760203660031901126101e657610204611a7b565b61020c612bd4565b6001600160a01b0316801561025e57600080546001600160a01b03198116831782556001600160a01b0316907f8be0079c531659141344cd1fd0a4f28419497f9722a3daafe3b4186f6b6457e09080a3005b631e4fbdf760e01b600052600060045260246000fd5b346101e65760203660031901126101e657600435801515806104e4575b61029a90611b12565b60005260036020526040600020600881018054906102b782611bd3565b926102c56040519485611bb1565b828452601f196102d484611bd3565b0160005b818110610496575050600090600a810192600d820193600e8301906011840192600c601286019501955b88811061039b578960405180916020820160208352815180915260206040840192019060005b818110610336575050500390f35b91935091602060e060019260c08751858060a01b0381511683528481015185840152604081015160408401526060810151606084015260808101511515608084015260a0810151151560a08401520151151560c0820152019401910191849392610328565b806040898989898960ff86818181818f8f9060019f6103bd84939184926121ca565b60018060a01b0391549060031b1c169e8f9260009060018060a01b038516825260205220549d60009060018060a01b038416825260205220549860009160018060a01b031682526020522054976000908f808f9160a01b03168252602052205416966000908d8060a01b038c168252602052205416956000908b8060a01b038a168252602052205416946040519661045488611b95565b875260208701526040860152606085015215156080840152151560a0830152151560c0820152610484828d611c0e565b5261048f818c611c0e565b5001610302565b6020906040959395516104a881611b95565b60008152600083820152600060408201526000606082015260006080820152600060a0820152600060c0820152828289010152019391936102d8565b50600254811115610291565b346101e65760003660031901126101e65761051660018060a01b03600154163314611d66565b6001805b600254811161068a57806000526003602052604060002060ff81541660058110156106745760011480610667575b1561065957600260ff19825416178155600180820155607842019081421161064357816002820155610578611beb565b90610581611beb565b906013810160005b60158111156105e0575050928493926105d37f36c6d932cb9691bee381221cc5177bb28fd438ab828d9ed9ed7c3c546cb5d2b49360056105db989601549260405194859485612413565b0390a2611c63565b61051a565b8061061891600052826020526040600020546105fc8288611c0e565b528061061d5760088401546106118287611c0e565b525b611c63565b610589565b601581036106345760078401546106118287611c0e565b60068401546106118287611c0e565b634e487b7160e01b600052601160045260246000fd5b5090506105db600091611c63565b50600b8101541515610548565b634e487b7160e01b600052602160045260246000fd5b6020826040519015158152f35b346101e65760403660031901126101e6576004356106b3611a65565b9080151580610726575b6106c690611b12565b806000526003602052600960406000200160018060a01b0383166000526020526106f760ff60406000205416611c22565b6000526003602052600e6040600020019060018060a01b03166000526020526020604060002054604051908152f35b506002548111156106bd565b346101e65760403660031901126101e65760043561074e611a65565b9080151580610795575b61076190611b12565b600052600360205260126040600020019060018060a01b0316600052602052602060ff604060002054166040519015158152f35b50600254811115610758565b346101e65760003660031901126101e65760015b60025481116108515780600052600360205260406000209060ff8254169160058310156106745760026107ee93146107f3575b50611c63565b6107b5565b60018101546001811480610844575b1561081857505061081281612bfd565b826107e8565b6002149081610836575b50156108125761083181612f64565b610812565b600291500154421183610822565b5060028201544211610802565b005b346101e65760203660031901126101e65761086c611a7b565b610874612bd4565b6001600160a01b031680156108c9576020817f63860f6674590a6969c4fe1dc738a9c8f955407c09e6c67a6bdb818f4c35cd8a926bffffffffffffffffffffffff60a01b6001541617600155604051908152a1005b60405162461bcd60e51b815260206004820152601a60248201527f496e76616c69642047616d654d617374657220616464726573730000000000006044820152606490fd5b346101e65760003660031901126101e65760025461092b81611bd3565b906109396040519283611bb1565b808252601f1961094882611bd3565b0160005b818110610a4057505060015b818111156109cf578260405180916020820160208352815180915260206040840192019060005b81811061098d575050500390f35b919350916020608060019260608751805183526109b08582015186850190611ad4565b604081015160408401520151606082015201940191019184939261097f565b80600052600360205260406000209060ff82541691600b600582015491015490610a0b604051946109ff86611b79565b84865260208601611ce7565b6040840152606083015260001981019181831161064357826107e891610a34610a3b9588611c0e565b5285611c0e565b610958565b602090604051610a4f81611b79565b6000815260008382015260006040820152600060608201528282870101520161094c565b346101e65760003660031901126101e6576001546040516001600160a01b039091168152602090f35b346101e65760003660031901126101e6576040805190610abc8183611bb1565b600782526611195cd8d95b9960ca1b6020830152805180926020825280519081602084015260005b828110610b035750506000828201840152601f01601f19168101030190f35b602082820181015187830187015286945001610ae4565b346101e65760203660031901126101e65760043580151580610ba0575b610b4090611b12565b610b48611beb565b9060005b6015811115610b6f5760405160208082528190610b6b90820186611a31565b0390f35b610b9b908260005260036020526013604060002001816000526020526040600020546106118286611c0e565b610b4c565b50600254811115610b37565b346101e65760203660031901126101e657610851600435612270565b346101e65760003660031901126101e65760008060405160208101906307983f4560e21b82526097602482015260248152610c04604482611bb1565b51908273dc2b0d2dd2b7759d97d50db4eabdc369731108305af13d15610cb9573d67ffffffffffffffff8111610ca35760405190610c4c601f8201601f191660200183611bb1565b8152600060203d92013e5b15610c5e57005b60405162461bcd60e51b815260206004820152601860248201527f4665654d20726567697374726174696f6e206661696c656400000000000000006044820152606490fd5b634e487b7160e01b600052604160045260246000fd5b610c57565b346101e65760003660031901126101e6576000546040516001600160a01b039091168152602090f35b346101e65760003660031901126101e657600254600160005b82821115610dad57610d129150611c72565b6000916001905b80821115610d2f5760405180610b6b8582611a91565b610d5690826000949394526003602052610d5d600860406000200160405193848092611ca4565b0383611bb1565b60005b8251811015610d9a576001906001600160a01b03610d7e8286611c0e565b5116610d93610d8c89611c63565b9887611c0e565b5201610d60565b509192610da79150611c63565b90610d19565b610dcc610dd29183600052600360205260086040600020015490611b50565b91611c63565b90610d00565b346101e65760403660031901126101e657600435610df4611a65565b9080151580610e3b575b610e0790611b12565b600052600360205260116040600020019060018060a01b0316600052602052602060ff604060002054166040519015158152f35b50600254811115610dfe565b346101e65760403660031901126101e65760043567ffffffffffffffff81116101e657610e78903690600401611ae1565b60243567ffffffffffffffff81116101e657610e98903690600401611ae1565b610eb060018060a09594951b03600154163314611d66565b8115611326578082036112e1576002821061129c57603b82019283831161064357603a8301938411610643576000603b8504156112885750603b84048304936000958690875b603b84048110610f04578880f35b610f0f600254611c63565b9081600255818a52600360205260408a2091600160ff19845416178355600160058401554260038401558990603b87048a068310611261575b600a8204600685019080825515611257575b508160011c60078501908082551561124d575b50908b915b818310610ffa57505050610f8582613098565b610f9d60405192604084526008604085019101611ca4565b82810360208401528781526001600160fb1b038811610ff6578260206001947fb66ba8feaec509998ef3217bc97fbf1a0f906b89fac25a4ace8ddff059a41f12938b60051b8b848301378b60051b01030190a101610ef6565b8a80fd5b909195611008818c886121ba565b356001600160a01b0381168103611249576001600160a01b0381161561120b578d9060018060a01b038116825260056020528b8b8860ff604086205416611157575b9261106c8660409461114e979461106785600860019c9a016121e2565b6121ba565b35868060a01b0382168352600a8b0160205283832055858060a01b038116825260098a016020528282208660ff198254161790556110ad81600b8c016121e2565b60a086901b8690038116808352600c8b016020908152848420805460ff191689179055818452600d8c018152848420849055908352600e8b0181528383206006905582805260138b019052828220805461110690611c63565b905581805260148a0160205261111e818484206121e2565b60a086901b86900316808252600460209081528383208890559082526005905220805460ff191684179055611c63565b96019190610f72565b5050506001600160a01b038116909152600460205260408e20548015908f9082156111d3575b50501561118e578d908b8b8861104a565b60405162461bcd60e51b815260206004820152601d60248201527f506c6179657220616c726561647920696e206163746976652067616d650000006044820152606490fd5b81526003602052604090205460ff16905060058110156111f7576004148e3861117d565b634e487b7160e01b8f52602160045260248ffd5b60405162461bcd60e51b8152602060048201526016602482015275496e76616c696420706c61796572206164647265737360501b6044820152606490fd5b8d80fd5b600190558c610f6d565b600190558c610f5a565b905060018a01808b116112745790610f48565b634e487b7160e01b8c52601160045260248cfd5b634e487b7160e01b81526012600452602490fd5b60405162461bcd60e51b815260206004820152601760248201527f4e656564206174206c65617374203220706c61796572730000000000000000006044820152606490fd5b60405162461bcd60e51b815260206004820152601860248201527f4172726179206c656e67746873206d757374206d6174636800000000000000006044820152606490fd5b60405162461bcd60e51b8152602060048201526013602482015272139bc81c1b185e595c9cc81c1c9bdd9a591959606a1b6044820152606490fd5b346101e65760403660031901126101e657610851602435600435611e35565b346101e65760203660031901126101e6576001600160a01b036113a1611a7b565b1660005260046020526020604060002054604051908152f35b346101e65760003660031901126101e6576113d3612bd4565b600080546001600160a01b0319811682556001600160a01b03167f8be0079c531659141344cd1fd0a4f28419497f9722a3daafe3b4186f6b6457e08280a3005b346101e65760003660031901126101e65761143960018060a01b03600154163314611d66565b60405160206114488183611bb1565b60008252600036813760015b600254811161149657806000526003825260ff60406000205416906005821015610674576002611488921461148d57611c63565b611454565b61061381612494565b60405180610b6b8582611a91565b346101e65760203660031901126101e657610b6b6114d5600435801515806114e1575b6114d090611b12565b611cf3565b60405191829182611a91565b506002548111156114c7565b346101e65760203660031901126101e6576001600160a01b0361150e611a7b565b166000526005602052602060ff604060002054166040519015158152f35b346101e65760203660031901126101e6576004358015158061156d575b61155290611b12565b60005260036020526020600160406000200154604051908152f35b50600254811115611549565b346101e65760203660031901126101e6576004356000608060405161159d81611b5d565b82815282602082015282604082015282606082015201528015158061164b575b6115c690611b12565b600052600360205260a0604060002060ff81541690600581015490600281015460046003830154920154926116076040519561160187611b5d565b86611ce7565b60208501908152604085019182526060850192835260808501938452611631604051809651611ad4565b516020850152516040840152516060830152516080820152f35b506002548111156115bd565b346101e65760003660031901126101e657600254600160005b8282111561170f576116829150611c72565b6000916001905b8082111561169f5760405180610b6b8582611a91565b610d56908260009493945260036020526116c6600b60406000200160405193848092611ca4565b60005b82518110156116fc576001906001600160a01b036116e78286611c0e565b51166116f5610d8c89611c63565b52016116c9565b5091926117099150611c63565b90611689565b610dcc61172e91836000526003602052600b6040600020015490611b50565b90611670565b346101e65760403660031901126101e657602435600435801515806117c1575b61175d90611b12565b6015821161178c5760005260036020526013604060002001906000526020526020604060002054604051908152f35b60405162461bcd60e51b815260206004820152600d60248201526c125b9d985b1a59081b195d995b609a1b6044820152606490fd5b50600254811115611754565b346101e65760403660031901126101e6576004356117e9611a65565b908015158061185c575b6117fc90611b12565b806000526003602052600960406000200160018060a01b03831660005260205261182d60ff60406000205416611c22565b6000526003602052600a6040600020019060018060a01b03166000526020526020604060002054604051908152f35b506002548111156117f3565b346101e65760003660031901126101e6576020600254604051908152f35b346101e65760403660031901126101e6576004356118a2611a65565b9080151580611915575b6118b590611b12565b806000526003602052600960406000200160018060a01b0383166000526020526118e660ff60406000205416611c22565b6000526003602052600d6040600020019060018060a01b03166000526020526020604060002054604051908152f35b506002548111156118ac565b346101e65760203660031901126101e657600435801515806119d8575b61194790611b12565b6000526003602052604060002061195c611beb565b9060088101548251156119ad576020830152600681015460015b601581106119c357836007840154908051601510156119ad57610b6b916102c0820152604051918291602083526020830190611a31565b634e487b7160e01b600052603260045260246000fd5b80826119d160019387611c0e565b5201611976565b5060025481111561193e565b346101e65760203660031901126101e65760043580151580611a25575b611a0a90611b12565b60005260036020526020600260406000200154604051908152f35b50600254811115611a01565b906020808351928381520192019060005b818110611a4f5750505090565b8251845260209384019390920191600101611a42565b602435906001600160a01b03821682036101e657565b600435906001600160a01b03821682036101e657565b602060408183019282815284518094520192019060005b818110611ab55750505090565b82516001600160a01b0316845260209384019390920191600101611aa8565b9060058210156106745752565b9181601f840112156101e65782359167ffffffffffffffff83116101e6576020808501948460051b0101116101e657565b15611b1957565b60405162461bcd60e51b815260206004820152600f60248201526e125b9d985b1a590819d85b59481251608a1b6044820152606490fd5b9190820180921161064357565b60a0810190811067ffffffffffffffff821117610ca357604052565b6080810190811067ffffffffffffffff821117610ca357604052565b60e0810190811067ffffffffffffffff821117610ca357604052565b90601f8019910116810190811067ffffffffffffffff821117610ca357604052565b67ffffffffffffffff8111610ca35760051b60200190565b6040516102e09190611bfd8382611bb1565b6016815291601f1901366020840137565b80518210156119ad5760209160051b010190565b15611c2957565b60405162461bcd60e51b8152602060048201526012602482015271506c61796572206e6f7420696e2067616d6560701b6044820152606490fd5b60001981146106435760010190565b90611c7c82611bd3565b611c896040519182611bb1565b8281528092611c9a601f1991611bd3565b0190602036910137565b906020825491828152019160005260206000209060005b818110611cc85750505090565b82546001600160a01b0316845260209093019260019283019201611cbb565b60058210156106745752565b6000526003602052604060002060ff815416600581101561067457600414611d305750604051611d24602082611bb1565b60008152600036813790565b601881018054611d5292611d59929115611d5c57505b60405192838092611ca4565b0382611bb1565b90565b600b915001611d46565b15611d6d57565b60405162461bcd60e51b815260206004820152601860248201527f4f6e6c792047616d654d61737465722063616e2063616c6c00000000000000006044820152606490fd5b15611db957565b60405162461bcd60e51b8152602060048201526016602482015275506c61796572206e6f7420696e20616e792067616d6560501b6044820152606490fd5b15611dfe57565b60405162461bcd60e51b815260206004820152600f60248201526e47616d65206e6f742061637469766560881b6044820152606490fd5b90336000526005602052611e5060ff60406000205416611db2565b3360005260046020526040600020549182600052600360205260406000209060ff8254166005811015610674576002611e899114611df7565b336000908152600d830160208190526040909120546015146121b35733600090815260118401602052604090205460ff161561217a5733600090815260128401602081905260409091205460ff16612142576005831161210e5760018401600181541480612101575b6120da575b546001190161209f5760028401948554421161206457604051602081019185835260408201523360601b606082015260548152611f35607482611bb1565b519020336000908152600f860160205260409020540361202e573360009081526010850160209081526040808320869055928152828220805460ff1916600117905592909252902054601511612019575b336000908152600e83016020526040902054811461200b57604051908152837f0319fcec55b5300a4dcc6f96b2df475a149433dc721ba7d96c8fb14495b748ac60203393a360156017820154910154148015612001575b611fe5575050565b54421115611ff857611ff690612f64565b565b611ff690612494565b5080544211611fdd565b505050611ff6903390612ceb565b601782016120278154611c63565b9055611f86565b60405162461bcd60e51b815260206004820152600e60248201526d125b9d985b1a59081c995d99585b60921b6044820152606490fd5b60405162461bcd60e51b815260206004820152601360248201527214995d99585b081c195c9a5bd908195b991959606a1b6044820152606490fd5b60405162461bcd60e51b81526020600482015260136024820152724e6f7420696e2072657665616c20706861736560681b6044820152606490fd5b6120e387612bfd565b60ff855416600581101561067457600403611ef75750505050505050565b5060028501544211611ef2565b60405162461bcd60e51b815260206004820152600c60248201526b496e76616c6964206d6f766560a01b6044820152606490fd5b60405162461bcd60e51b815260206004820152601060248201526f105b1c9958591e481c995d99585b195960821b6044820152606490fd5b60405162461bcd60e51b8152602060048201526011602482015270135d5cdd0818dbdb5b5a5d08199a5c9cdd607a1b6044820152606490fd5b5050505050565b91908110156119ad5760051b0190565b80548210156119ad5760005260206000200190600090565b9081549168010000000000000000831015610ca3578261220a916001611ff6950181556121ca565b81546001600160a01b0393841660039290921b91821b9390911b1916919091179055565b1561223557565b60405162461bcd60e51b81526020600482015260136024820152724e6f7420696e20636f6d6d697420706861736560681b6044820152606490fd5b33600052600560205261228a60ff60406000205416611db2565b3360005260046020526040600020549081600052600360205260406000209060ff82541660058110156106745760026122c39114611df7565b600d82019060018060a01b0333166000528160205260156040600020541461240d576122f46001808501541461222e565b601183019060018060a01b0333166000528160205260ff604060002054166123d457600284015442116123b057336000908152600f85016020908152604080832093909355928352818120805460ff191660011790559290915290205460151161239b575b33827f2e6ed0cae7a81e1893017dfafd5fbaf8594adcc50ff27b5f8eb70e0e90acf315600080a360156016820154910154146123925750565b611ff6906131ed565b601681016123a98154611c63565b9055612359565b50505060ff906123bf83613102565b54166005811015610674576004036123925750565b60405162461bcd60e51b8152602060048201526011602482015270105b1c9958591e4818dbdb5b5a5d1d1959607a1b6044820152606490fd5b50505050565b92611d59949261243c92855260016020860152604085015260a0606085015260a0840190611a31565b916080818403910152611a31565b60406020820191602081528354809352019160005260206000209060005b8181106124755750505090565b82546001600160a01b0316845260209093019260019283019201612468565b908160005260036020526040600020600092600091600b810194855460128301945b818110612b60575b5050612b35575b60005b855481101561262d57806124de600192886121ca565b838060a01b0391549060031b1c1660ff60406000858060a01b03841681528860205220541661250f575b50016124c8565b847fb5ac3117b47d1355284f96ae97a243bdf1b9879eb07334364220e37d71fbdda46040806000878060a01b0386168152601089016020522054600d8801826000898060a01b03881681528260205220549161256b8184611b50565b9183888c60158611612624575b8792869492612586926132f7565b6000908c8060a01b038b16825260205220558160005260138a01602052836000206125b18154611c63565b90558160005260148a016020526125cb87856000206121e2565b8360008a8060a01b0389168152600e8c0160205220556015811480612613575b612601575b82519182526020820152a338612508565b61260e8660188b016121e2565b6125f0565b5061261e868a613382565b156125eb565b60159550612578565b50601381019491939092906014840160005b6015811115612abb575060015b60158111156129865750506005840194807f8868888cc18628a149bc88cc32a91976ab30e2cd9aececb0cfe184a73fe551f960208854604051908152a2600093600886019760118701955b895481101561274e57806126ad6001928c6121ca565b838060a01b0391549060031b1c1660ff60406000858060a01b03841681528b6020522054168015612731575b6126e5575b5001612697565b60a083901b83900316600090815260208981526040808320805460ff199081169091558a835281842080549091169055600f8c01825280832083905560108c01909152812055386126de565b5060ff60406000858060a01b03841681528a6020522054166126d9565b509350949350949095600060168501556000601785015561276e84613098565b612777846133d2565b156128a35750506015600052602052604060002054600782015411156127f5575b805460ff191660049081178255429082015560180180547fa7690f576eaef889ef9ef29d1eaee6c0e3b073108b66bb8009ec8af6428bb345926127e99291156127ee57505b6040519182918261244a565b0390a2565b90506127dd565b815461280081611c72565b600091600d8401835b82811061284b5750505060005b82811061282557505050612798565b6001906128456001600160a01b0361283d8386611c0e565b511688612ceb565b01612816565b80612858600192896121ca565b838060a01b0391549060031b1c16601560406000858060a01b038416815286602052205410612889575b5001612809565b61289c61289588611c63565b9787611c0e565b5238612882565b909291959493506128b48354611c63565b8355600260ff198354161782556001808301556078420192834211610643578360028401556128e1611beb565b926128ea611beb565b9260005b6015811115612932575050507f36c6d932cb9691bee381221cc5177bb28fd438ab828d9ed9ed7c3c546cb5d2b494959650906127e991549260405194859485612413565b8061296a916000528a60205260406000205461294e8289611c0e565b5260006015820361296f575060078401545b6106118288611c0e565b6128ee565b508061297c578254612960565b6006840154612960565b806000979597528760205260406000205460158214600014612ab15760078701545b811180612aa7575b6129c7575b506129bf90611c63565b95939561264c565b97919293956129ef9682600099939952846020526129f66040600020604051998a8092611ca4565b0389611bb1565b600c82019560005b8951811015612a615760019060ff60406001600160a01b03612a20848f611c0e565b5116600090858060a01b031681528b602052205416612a40575b016129fe565b612a5c8b612a5483858060a01b0392611c0e565b51168b612ceb565b612a3a565b509493996129bf93999298508791965060407fd1d2639f7f04024f3049861f7802effaaa3cb181ff4660b1828e7f293a69408b918151908582526020820152a2906129b5565b50601582106129b0565b60068701546129a8565b8060009795975287602052604060002054816000528260205260406000205403612af057612ae890611c63565b95939561263f565b60405162461bcd60e51b815260206004820152601960248201527f4c6576656c20706f70756c6174696f6e206d69736d61746368000000000000006044820152606490fd5b612b3e82612f64565b60ff8154166005811015610674576004036124c5579293505050600442910155565b612b6a81896121ca565b905460039190911b1c6001600160a01b031660008181526020889052604090205460ff16159081612baf575b50612ba3576001016124b6565b505050600138806124be565b6001600160a01b03166000908152600d86016020526040902054601511905038612b96565b6000546001600160a01b03163303612be857565b63118cdaa760e01b6000523360045260246000fd5b8060005260036020526040600020612c1a6001808301541461222e565b600281015442118015612c8a575b15612c4557601560168201549101541461239257611ff690613102565b60405162461bcd60e51b815260206004820152601b60248201527f43616e6e6f7420656e6420636f6d6d69742070686173652079657400000000006044820152606490fd5b506016810154601582015414612c28565b8015610643576000190190565b80548015612cd5576000190190612cbf82826121ca565b81549060018060a01b039060031b1b1916905555565b634e487b7160e01b600052603160045260246000fd5b9060009180835260036020526040832091600c830160018060a01b03821685528060205260ff60408620541615612f2b576001600160a01b0382168552600d84016020526040852054601590612d428185886132f7565b10612ec1575b60018060a01b03821685526020526040842060ff19815416905560018060a01b03169182845260056020526040842060ff198154169055828452600460205283604081205583600b8201945b855480821015612eb55785612da983896121ca565b905460039190911b1c6001600160a01b031614612dc95750600101612d94565b6000969293949596198101908111612ea157829161220a612df0612e0993612e0e966121ca565b905460039190911b1c6001600160a01b031691846121ca565b612ca8565b612e1782613098565b6001546001600160a01b0316803b15612e9d57908080600a9493602460405180948193633ef6cf1d60e21b83528b60048401525af1612e8d575b505083600052016020527f51479c93d7646904d2282e9e79cddf11999ac774b7fd0289e2f59cb4ad0f086a6020604060002054604051908152a3565b81612e9791611bb1565b38612e51565b5080fd5b634e487b7160e01b84526011600452602484fd5b50509091929350612e0e565b6001600160a01b038216855260118401602052604085205460ff16612f16575b6001600160a01b038216855260128401602052604085205460ff1615612d485760178401612f0f8154612c9b565b9055612d48565b60168401612f248154612c9b565b9055612ee1565b60405162461bcd60e51b8152602060048201526011602482015270506c61796572206e6f742061637469766560781b6044820152606490fd5b8060005260036020526040600020600b8101908154612f8281611c72565b60009160128401835b8281106130205750505060005b82811061300257505050612fab81613098565b6002825410612fb957505050565b805460ff1916600417815560180180547fa7690f576eaef889ef9ef29d1eaee6c0e3b073108b66bb8009ec8af6428bb345926127e99291156127ee57506040519182918261244a565b60019061301a6001600160a01b0361283d8386611c0e565b01612f98565b8061302d600192896121ca565b838060a01b0391549060031b1c1660ff60406000858060a01b0384168152866020522054161580613078575b613065575b5001612f8b565b61307161289588611c63565b523861305e565b50601560406000858060a01b0384168152600d8b01602052205410613059565b6000805b600b830180548210156130f95760406130b7836015936121ca565b905460039190911b1c6001600160a01b03166000908152600d86016020522054106130e5575b60010161309c565b906130f1600191611c63565b9190506130dd565b50509060150155565b8060005260036020526040600020600b810190815461312081611c72565b60009160118401835b8281106131755750505060005b8281106131575750505061314981613098565b600282541061279857505050565b60019061316f6001600160a01b0361283d8386611c0e565b01613136565b80613182600192896121ca565b838060a01b0391549060031b1c1660ff60406000858060a01b03841681528660205220541615806131cd575b6131ba575b5001613129565b6131c661289588611c63565b52386131b3565b50601560406000858060a01b0384168152600d8b016020522054106131ae565b9081600052600360205260406000209160026001840155603c42018042116106435780600285015561321d611beb565b613225611beb565b946013810160005b601581111561329b5750507f36c6d932cb9691bee381221cc5177bb28fd438ab828d9ed9ed7c3c546cb5d2b493949561328d60056127e993015493604051958695865260026020870152604086015260a0606086015260a0850190611a31565b908382036080850152611a31565b806132cc91600052826020526040600020546132b78287611c0e565b52806132d1576008840154610611828b611c0e565b61322d565b601581036132e8576007840154610611828b611c0e565b6006840154610611828b611c0e565b60149192806000526013820160205260406000206133158154612c9b565b905560005201602052604060002060005b81548082101561240d5761333a82846121ca565b905460039190911b1c6001600160a01b039081169085161461335f5750600101613326565b909250600019810190811161064357611ff69261220a612df0612e0993856121ca565b9060005b6018830180548210156133c9578161339d916121ca565b905460039190911b1c6001600160a01b03908116908316146133c157600101613386565b505050600190565b50505050600090565b600b810190815491600283108015613454575b6133c157601560005260138201602052604060002054600783015411156133c15760005b8381106134195750505050600190565b6015604061342783856121ca565b905460039190911b1c6001600160a01b03166000908152600d86016020522054036133c957600101613409565b506014600583015410156133e556fea26469706673582212207a45b1739a6525c611702ce9c20339177c9a1c8959c0b057fe4b369754dfdc5c64736f6c634300081c0033","opcodes":"PUSH1 0x80 DUP1 PUSH1 0x40 MSTORE CALLVALUE PUSH1 0x87 JUMPI CALLER ISZERO PUSH1 0x71 JUMPI PUSH1 0x0 DUP1 SLOAD CALLER PUSH1 0x1 PUSH1 0x1 PUSH1 0xA0 SHL SUB NOT DUP3 AND DUP2 OR DUP4 SSTORE SWAP2 PUSH1 0x1 PUSH1 0x1 PUSH1 0xA0 SHL SUB SWAP1 SWAP2 AND SWAP1 PUSH32 0x8BE0079C531659141344CD1FD0A4F28419497F9722A3DAAFE3B4186F6B6457E0 SWAP1 DUP1 LOG3 PUSH1 0x1 DUP1 SLOAD PUSH1 0x1 PUSH1 0x1 PUSH1 0xA0 SHL SUB NOT AND CALLER OR SWAP1 SSTORE PUSH2 0x3499 SWAP1 DUP2 PUSH2 0x8D DUP3 CODECOPY RETURN JUMPDEST PUSH4 0x1E4FBDF7 PUSH1 0xE0 SHL PUSH1 0x0 MSTORE PUSH1 0x0 PUSH1 0x4 MSTORE PUSH1 0x24 PUSH1 0x0 REVERT JUMPDEST PUSH1 0x0 DUP1 REVERT INVALID PUSH1 0x80 PUSH1 0x40 MSTORE PUSH1 0x4 CALLDATASIZE LT ISZERO PUSH2 0x12 JUMPI PUSH1 0x0 DUP1 REVERT JUMPDEST PUSH1 0x0 CALLDATALOAD PUSH1 0xE0 SHR DUP1 PUSH4 0x12B19A13 EQ PUSH2 0x19E4 JUMPI DUP1 PUSH4 0x1336E25C EQ PUSH2 0x1921 JUMPI DUP1 PUSH4 0x18979F9E EQ PUSH2 0x1886 JUMPI DUP1 PUSH4 0x1BB412D6 EQ PUSH2 0x1868 JUMPI DUP1 PUSH4 0x25B05C88 EQ PUSH2 0x1380 JUMPI DUP1 PUSH4 0x3532804D EQ PUSH2 0x17CD JUMPI DUP1 PUSH4 0x36C86EDE EQ PUSH2 0x1734 JUMPI DUP1 PUSH4 0x3C4F5A66 EQ PUSH2 0x1657 JUMPI DUP1 PUSH4 0x47E1D550 EQ PUSH2 0x1579 JUMPI DUP1 PUSH4 0x572E85EC EQ PUSH2 0x152C JUMPI DUP1 PUSH4 0x574A5B20 EQ PUSH2 0x14ED JUMPI DUP1 PUSH4 0x6B1426A4 EQ PUSH2 0x14A4 JUMPI DUP1 PUSH4 0x6CBC2DED EQ PUSH2 0x1413 JUMPI DUP1 PUSH4 0x715018A6 EQ PUSH2 0x13BA JUMPI DUP1 PUSH4 0x773B549D EQ PUSH2 0x1380 JUMPI DUP1 PUSH4 0x7D1DDD34 EQ PUSH2 0x1361 JUMPI DUP1 PUSH4 0x7FBBE46F EQ PUSH2 0xE47 JUMPI DUP1 PUSH4 0x84CD7D33 EQ PUSH2 0xDD8 JUMPI DUP1 PUSH4 0x8B5B9CCC EQ PUSH2 0xCE7 JUMPI DUP1 PUSH4 0x8DA5CB5B EQ PUSH2 0xCBE JUMPI DUP1 PUSH4 0x9A198D61 EQ PUSH2 0xBC8 JUMPI DUP1 PUSH4 0xA9EA37B6 EQ PUSH2 0xBAC JUMPI DUP1 PUSH4 0xAB594A21 EQ PUSH2 0xB1A JUMPI DUP1 PUSH4 0xBBDA33D9 EQ PUSH2 0xA9C JUMPI DUP1 PUSH4 0xBDF84AE7 EQ PUSH2 0xA73 JUMPI DUP1 PUSH4 0xC04C5947 EQ PUSH2 0x90E JUMPI DUP1 PUSH4 0xC2E94927 EQ PUSH2 0x853 JUMPI DUP1 PUSH4 0xD0F3A21E EQ PUSH2 0x7A1 JUMPI DUP1 PUSH4 0xD216B62B EQ PUSH2 0x732 JUMPI DUP1 PUSH4 0xD7BDF85F EQ PUSH2 0x697 JUMPI DUP1 PUSH4 0xE81DE9F5 EQ PUSH2 0x4F0 JUMPI DUP1 PUSH4 0xEA17532E EQ PUSH2 0x274 JUMPI DUP1 PUSH4 0xF2FDE38B EQ PUSH2 0x1EB JUMPI PUSH4 0xFFDE0C74 EQ PUSH2 0x192 JUMPI PUSH1 0x0 DUP1 REVERT JUMPDEST CALLVALUE PUSH2 0x1E6 JUMPI PUSH1 0x20 CALLDATASIZE PUSH1 0x3 NOT ADD SLT PUSH2 0x1E6 JUMPI PUSH1 0x4 CALLDATALOAD DUP1 ISZERO ISZERO DUP1 PUSH2 0x1DA JUMPI JUMPDEST PUSH2 0x1B8 SWAP1 PUSH2 0x1B12 JUMP JUMPDEST PUSH1 0x0 MSTORE PUSH1 0x3 PUSH1 0x20 MSTORE PUSH1 0x20 PUSH1 0xFF PUSH1 0x40 PUSH1 0x0 KECCAK256 SLOAD AND PUSH2 0x1D8 PUSH1 0x40 MLOAD DUP1 SWAP3 PUSH2 0x1AD4 JUMP JUMPDEST RETURN JUMPDEST POP PUSH1 0x2 SLOAD DUP2 GT ISZERO PUSH2 0x1AF JUMP JUMPDEST PUSH1 0x0 DUP1 REVERT JUMPDEST CALLVALUE PUSH2 0x1E6 JUMPI PUSH1 0x20 CALLDATASIZE PUSH1 0x3 NOT ADD SLT PUSH2 0x1E6 JUMPI PUSH2 0x204 PUSH2 0x1A7B JUMP JUMPDEST PUSH2 0x20C PUSH2 0x2BD4 JUMP JUMPDEST PUSH1 0x1 PUSH1 0x1 PUSH1 0xA0 SHL SUB AND DUP1 ISZERO PUSH2 0x25E JUMPI PUSH1 0x0 DUP1 SLOAD PUSH1 0x1 PUSH1 0x1 PUSH1 0xA0 SHL SUB NOT DUP2 AND DUP4 OR DUP3 SSTORE PUSH1 0x1 PUSH1 0x1 PUSH1 0xA0 SHL SUB AND SWAP1 PUSH32 0x8BE0079C531659141344CD1FD0A4F28419497F9722A3DAAFE3B4186F6B6457E0 SWAP1 DUP1 LOG3 STOP JUMPDEST PUSH4 0x1E4FBDF7 PUSH1 0xE0 SHL PUSH1 0x0 MSTORE PUSH1 0x0 PUSH1 0x4 MSTORE PUSH1 0x24 PUSH1 0x0 REVERT JUMPDEST CALLVALUE PUSH2 0x1E6 JUMPI PUSH1 0x20 CALLDATASIZE PUSH1 0x3 NOT ADD SLT PUSH2 0x1E6 JUMPI PUSH1 0x4 CALLDATALOAD DUP1 ISZERO ISZERO DUP1 PUSH2 0x4E4 JUMPI JUMPDEST PUSH2 0x29A SWAP1 PUSH2 0x1B12 JUMP JUMPDEST PUSH1 0x0 MSTORE PUSH1 0x3 PUSH1 0x20 MSTORE PUSH1 0x40 PUSH1 0x0 KECCAK256 PUSH1 0x8 DUP2 ADD DUP1 SLOAD SWAP1 PUSH2 0x2B7 DUP3 PUSH2 0x1BD3 JUMP JUMPDEST SWAP3 PUSH2 0x2C5 PUSH1 0x40 MLOAD SWAP5 DUP6 PUSH2 0x1BB1 JUMP JUMPDEST DUP3 DUP5 MSTORE PUSH1 0x1F NOT PUSH2 0x2D4 DUP5 PUSH2 0x1BD3 JUMP JUMPDEST ADD PUSH1 0x0 JUMPDEST DUP2 DUP2 LT PUSH2 0x496 JUMPI POP POP PUSH1 0x0 SWAP1 PUSH1 0xA DUP2 ADD SWAP3 PUSH1 0xD DUP3 ADD SWAP4 PUSH1 0xE DUP4 ADD SWAP1 PUSH1 0x11 DUP5 ADD SWAP3 PUSH1 0xC PUSH1 0x12 DUP7 ADD SWAP6 ADD SWAP6 JUMPDEST DUP9 DUP2 LT PUSH2 0x39B JUMPI DUP10 PUSH1 0x40 MLOAD DUP1 SWAP2 PUSH1 0x20 DUP3 ADD PUSH1 0x20 DUP4 MSTORE DUP2 MLOAD DUP1 SWAP2 MSTORE PUSH1 0x20 PUSH1 0x40 DUP5 ADD SWAP3 ADD SWAP1 PUSH1 0x0 JUMPDEST DUP2 DUP2 LT PUSH2 0x336 JUMPI POP POP POP SUB SWAP1 RETURN JUMPDEST SWAP2 SWAP4 POP SWAP2 PUSH1 0x20 PUSH1 0xE0 PUSH1 0x1 SWAP3 PUSH1 0xC0 DUP8 MLOAD DUP6 DUP1 PUSH1 0xA0 SHL SUB DUP2 MLOAD AND DUP4 MSTORE DUP5 DUP2 ADD MLOAD DUP6 DUP5 ADD MSTORE PUSH1 0x40 DUP2 ADD MLOAD PUSH1 0x40 DUP5 ADD MSTORE PUSH1 0x60 DUP2 ADD MLOAD PUSH1 0x60 DUP5 ADD MSTORE PUSH1 0x80 DUP2 ADD MLOAD ISZERO ISZERO PUSH1 0x80 DUP5 ADD MSTORE PUSH1 0xA0 DUP2 ADD MLOAD ISZERO ISZERO PUSH1 0xA0 DUP5 ADD MSTORE ADD MLOAD ISZERO ISZERO PUSH1 0xC0 DUP3 ADD MSTORE ADD SWAP5 ADD SWAP2 ADD SWAP2 DUP5 SWAP4 SWAP3 PUSH2 0x328 JUMP JUMPDEST DUP1 PUSH1 0x40 DUP10 DUP10 DUP10 DUP10 DUP10 PUSH1 0xFF DUP7 DUP2 DUP2 DUP2 DUP2 DUP16 DUP16 SWAP1 PUSH1 0x1 SWAP16 PUSH2 0x3BD DUP5 SWAP4 SWAP2 DUP5 SWAP3 PUSH2 0x21CA JUMP JUMPDEST PUSH1 0x1 DUP1 PUSH1 0xA0 SHL SUB SWAP2 SLOAD SWAP1 PUSH1 0x3 SHL SHR AND SWAP15 DUP16 SWAP3 PUSH1 0x0 SWAP1 PUSH1 0x1 DUP1 PUSH1 0xA0 SHL SUB DUP6 AND DUP3 MSTORE PUSH1 0x20 MSTORE KECCAK256 SLOAD SWAP14 PUSH1 0x0 SWAP1 PUSH1 0x1 DUP1 PUSH1 0xA0 SHL SUB DUP5 AND DUP3 MSTORE PUSH1 0x20 MSTORE KECCAK256 SLOAD SWAP9 PUSH1 0x0 SWAP2 PUSH1 0x1 DUP1 PUSH1 0xA0 SHL SUB AND DUP3 MSTORE PUSH1 0x20 MSTORE KECCAK256 SLOAD SWAP8 PUSH1 0x0 SWAP1 DUP16 DUP1 DUP16 SWAP2 PUSH1 0xA0 SHL SUB AND DUP3 MSTORE PUSH1 0x20 MSTORE KECCAK256 SLOAD AND SWAP7 PUSH1 0x0 SWAP1 DUP14 DUP1 PUSH1 0xA0 SHL SUB DUP13 AND DUP3 MSTORE PUSH1 0x20 MSTORE KECCAK256 SLOAD AND SWAP6 PUSH1 0x0 SWAP1 DUP12 DUP1 PUSH1 0xA0 SHL SUB DUP11 AND DUP3 MSTORE PUSH1 0x20 MSTORE KECCAK256 SLOAD AND SWAP5 PUSH1 0x40 MLOAD SWAP7 PUSH2 0x454 DUP9 PUSH2 0x1B95 JUMP JUMPDEST DUP8 MSTORE PUSH1 0x20 DUP8 ADD MSTORE PUSH1 0x40 DUP7 ADD MSTORE PUSH1 0x60 DUP6 ADD MSTORE ISZERO ISZERO PUSH1 0x80 DUP5 ADD MSTORE ISZERO ISZERO PUSH1 0xA0 DUP4 ADD MSTORE ISZERO ISZERO PUSH1 0xC0 DUP3 ADD MSTORE PUSH2 0x484 DUP3 DUP14 PUSH2 0x1C0E JUMP JUMPDEST MSTORE PUSH2 0x48F DUP2 DUP13 PUSH2 0x1C0E JUMP JUMPDEST POP ADD PUSH2 0x302 JUMP JUMPDEST PUSH1 0x20 SWAP1 PUSH1 0x40 SWAP6 SWAP4 SWAP6 MLOAD PUSH2 0x4A8 DUP2 PUSH2 0x1B95 JUMP JUMPDEST PUSH1 0x0 DUP2 MSTORE PUSH1 0x0 DUP4 DUP3 ADD MSTORE PUSH1 0x0 PUSH1 0x40 DUP3 ADD MSTORE PUSH1 0x0 PUSH1 0x60 DUP3 ADD MSTORE PUSH1 0x0 PUSH1 0x80 DUP3 ADD MSTORE PUSH1 0x0 PUSH1 0xA0 DUP3 ADD MSTORE PUSH1 0x0 PUSH1 0xC0 DUP3 ADD MSTORE DUP3 DUP3 DUP10 ADD ADD MSTORE ADD SWAP4 SWAP2 SWAP4 PUSH2 0x2D8 JUMP JUMPDEST POP PUSH1 0x2 SLOAD DUP2 GT ISZERO PUSH2 0x291 JUMP JUMPDEST CALLVALUE PUSH2 0x1E6 JUMPI PUSH1 0x0 CALLDATASIZE PUSH1 0x3 NOT ADD SLT PUSH2 0x1E6 JUMPI PUSH2 0x516 PUSH1 0x1 DUP1 PUSH1 0xA0 SHL SUB PUSH1 0x1 SLOAD AND CALLER EQ PUSH2 0x1D66 JUMP JUMPDEST PUSH1 0x1 DUP1 JUMPDEST PUSH1 0x2 SLOAD DUP2 GT PUSH2 0x68A JUMPI DUP1 PUSH1 0x0 MSTORE PUSH1 0x3 PUSH1 0x20 MSTORE PUSH1 0x40 PUSH1 0x0 KECCAK256 PUSH1 0xFF DUP2 SLOAD AND PUSH1 0x5 DUP2 LT ISZERO PUSH2 0x674 JUMPI PUSH1 0x1 EQ DUP1 PUSH2 0x667 JUMPI JUMPDEST ISZERO PUSH2 0x659 JUMPI PUSH1 0x2 PUSH1 0xFF NOT DUP3 SLOAD AND OR DUP2 SSTORE PUSH1 0x1 DUP1 DUP3 ADD SSTORE PUSH1 0x78 TIMESTAMP ADD SWAP1 DUP2 TIMESTAMP GT PUSH2 0x643 JUMPI DUP2 PUSH1 0x2 DUP3 ADD SSTORE PUSH2 0x578 PUSH2 0x1BEB JUMP JUMPDEST SWAP1 PUSH2 0x581 PUSH2 0x1BEB JUMP JUMPDEST SWAP1 PUSH1 0x13 DUP2 ADD PUSH1 0x0 JUMPDEST PUSH1 0x15 DUP2 GT ISZERO PUSH2 0x5E0 JUMPI POP POP SWAP3 DUP5 SWAP4 SWAP3 PUSH2 0x5D3 PUSH32 0x36C6D932CB9691BEE381221CC5177BB28FD438AB828D9ED9ED7C3C546CB5D2B4 SWAP4 PUSH1 0x5 PUSH2 0x5DB SWAP9 SWAP7 ADD SLOAD SWAP3 PUSH1 0x40 MLOAD SWAP5 DUP6 SWAP5 DUP6 PUSH2 0x2413 JUMP JUMPDEST SUB SWAP1 LOG2 PUSH2 0x1C63 JUMP JUMPDEST PUSH2 0x51A JUMP JUMPDEST DUP1 PUSH2 0x618 SWAP2 PUSH1 0x0 MSTORE DUP3 PUSH1 0x20 MSTORE PUSH1 0x40 PUSH1 0x0 KECCAK256 SLOAD PUSH2 0x5FC DUP3 DUP9 PUSH2 0x1C0E JUMP JUMPDEST MSTORE DUP1 PUSH2 0x61D JUMPI PUSH1 0x8 DUP5 ADD SLOAD PUSH2 0x611 DUP3 DUP8 PUSH2 0x1C0E JUMP JUMPDEST MSTORE JUMPDEST PUSH2 0x1C63 JUMP JUMPDEST PUSH2 0x589 JUMP JUMPDEST PUSH1 0x15 DUP2 SUB PUSH2 0x634 JUMPI PUSH1 0x7 DUP5 ADD SLOAD PUSH2 0x611 DUP3 DUP8 PUSH2 0x1C0E JUMP JUMPDEST PUSH1 0x6 DUP5 ADD SLOAD PUSH2 0x611 DUP3 DUP8 PUSH2 0x1C0E JUMP JUMPDEST PUSH4 0x4E487B71 PUSH1 0xE0 SHL PUSH1 0x0 MSTORE PUSH1 0x11 PUSH1 0x4 MSTORE PUSH1 0x24 PUSH1 0x0 REVERT JUMPDEST POP SWAP1 POP PUSH2 0x5DB PUSH1 0x0 SWAP2 PUSH2 0x1C63 JUMP JUMPDEST POP PUSH1 0xB DUP2 ADD SLOAD ISZERO ISZERO PUSH2 0x548 JUMP JUMPDEST PUSH4 0x4E487B71 PUSH1 0xE0 SHL PUSH1 0x0 MSTORE PUSH1 0x21 PUSH1 0x4 MSTORE PUSH1 0x24 PUSH1 0x0 REVERT JUMPDEST PUSH1 0x20 DUP3 PUSH1 0x40 MLOAD SWAP1 ISZERO ISZERO DUP2 MSTORE RETURN JUMPDEST CALLVALUE PUSH2 0x1E6 JUMPI PUSH1 0x40 CALLDATASIZE PUSH1 0x3 NOT ADD SLT PUSH2 0x1E6 JUMPI PUSH1 0x4 CALLDATALOAD PUSH2 0x6B3 PUSH2 0x1A65 JUMP JUMPDEST SWAP1 DUP1 ISZERO ISZERO DUP1 PUSH2 0x726 JUMPI JUMPDEST PUSH2 0x6C6 SWAP1 PUSH2 0x1B12 JUMP JUMPDEST DUP1 PUSH1 0x0 MSTORE PUSH1 0x3 PUSH1 0x20 MSTORE PUSH1 0x9 PUSH1 0x40 PUSH1 0x0 KECCAK256 ADD PUSH1 0x1 DUP1 PUSH1 0xA0 SHL SUB DUP4 AND PUSH1 0x0 MSTORE PUSH1 0x20 MSTORE PUSH2 0x6F7 PUSH1 0xFF PUSH1 0x40 PUSH1 0x0 KECCAK256 SLOAD AND PUSH2 0x1C22 JUMP JUMPDEST PUSH1 0x0 MSTORE PUSH1 0x3 PUSH1 0x20 MSTORE PUSH1 0xE PUSH1 0x40 PUSH1 0x0 KECCAK256 ADD SWAP1 PUSH1 0x1 DUP1 PUSH1 0xA0 SHL SUB AND PUSH1 0x0 MSTORE PUSH1 0x20 MSTORE PUSH1 0x20 PUSH1 0x40 PUSH1 0x0 KECCAK256 SLOAD PUSH1 0x40 MLOAD SWAP1 DUP2 MSTORE RETURN JUMPDEST POP PUSH1 0x2 SLOAD DUP2 GT ISZERO PUSH2 0x6BD JUMP JUMPDEST CALLVALUE PUSH2 0x1E6 JUMPI PUSH1 0x40 CALLDATASIZE PUSH1 0x3 NOT ADD SLT PUSH2 0x1E6 JUMPI PUSH1 0x4 CALLDATALOAD PUSH2 0x74E PUSH2 0x1A65 JUMP JUMPDEST SWAP1 DUP1 ISZERO ISZERO DUP1 PUSH2 0x795 JUMPI JUMPDEST PUSH2 0x761 SWAP1 PUSH2 0x1B12 JUMP JUMPDEST PUSH1 0x0 MSTORE PUSH1 0x3 PUSH1 0x20 MSTORE PUSH1 0x12 PUSH1 0x40 PUSH1 0x0 KECCAK256 ADD SWAP1 PUSH1 0x1 DUP1 PUSH1 0xA0 SHL SUB AND PUSH1 0x0 MSTORE PUSH1 0x20 MSTORE PUSH1 0x20 PUSH1 0xFF PUSH1 0x40 PUSH1 0x0 KECCAK256 SLOAD AND PUSH1 0x40 MLOAD SWAP1 ISZERO ISZERO DUP2 MSTORE RETURN JUMPDEST POP PUSH1 0x2 SLOAD DUP2 GT ISZERO PUSH2 0x758 JUMP JUMPDEST CALLVALUE PUSH2 0x1E6 JUMPI PUSH1 0x0 CALLDATASIZE PUSH1 0x3 NOT ADD SLT PUSH2 0x1E6 JUMPI PUSH1 0x1 JUMPDEST PUSH1 0x2 SLOAD DUP2 GT PUSH2 0x851 JUMPI DUP1 PUSH1 0x0 MSTORE PUSH1 0x3 PUSH1 0x20 MSTORE PUSH1 0x40 PUSH1 0x0 KECCAK256 SWAP1 PUSH1 0xFF DUP3 SLOAD AND SWAP2 PUSH1 0x5 DUP4 LT ISZERO PUSH2 0x674 JUMPI PUSH1 0x2 PUSH2 0x7EE SWAP4 EQ PUSH2 0x7F3 JUMPI JUMPDEST POP PUSH2 0x1C63 JUMP JUMPDEST PUSH2 0x7B5 JUMP JUMPDEST PUSH1 0x1 DUP2 ADD SLOAD PUSH1 0x1 DUP2 EQ DUP1 PUSH2 0x844 JUMPI JUMPDEST ISZERO PUSH2 0x818 JUMPI POP POP PUSH2 0x812 DUP2 PUSH2 0x2BFD JUMP JUMPDEST DUP3 PUSH2 0x7E8 JUMP JUMPDEST PUSH1 0x2 EQ SWAP1 DUP2 PUSH2 0x836 JUMPI JUMPDEST POP ISZERO PUSH2 0x812 JUMPI PUSH2 0x831 DUP2 PUSH2 0x2F64 JUMP JUMPDEST PUSH2 0x812 JUMP JUMPDEST PUSH1 0x2 SWAP2 POP ADD SLOAD TIMESTAMP GT DUP4 PUSH2 0x822 JUMP JUMPDEST POP PUSH1 0x2 DUP3 ADD SLOAD TIMESTAMP GT PUSH2 0x802 JUMP JUMPDEST STOP JUMPDEST CALLVALUE PUSH2 0x1E6 JUMPI PUSH1 0x20 CALLDATASIZE PUSH1 0x3 NOT ADD SLT PUSH2 0x1E6 JUMPI PUSH2 0x86C PUSH2 0x1A7B JUMP JUMPDEST PUSH2 0x874 PUSH2 0x2BD4 JUMP JUMPDEST PUSH1 0x1 PUSH1 0x1 PUSH1 0xA0 SHL SUB AND DUP1 ISZERO PUSH2 0x8C9 JUMPI PUSH1 0x20 DUP2 PUSH32 0x63860F6674590A6969C4FE1DC738A9C8F955407C09E6C67A6BDB818F4C35CD8A SWAP3 PUSH12 0xFFFFFFFFFFFFFFFFFFFFFFFF PUSH1 0xA0 SHL PUSH1 0x1 SLOAD AND OR PUSH1 0x1 SSTORE PUSH1 0x40 MLOAD SWAP1 DUP2 MSTORE LOG1 STOP JUMPDEST PUSH1 0x40 MLOAD PUSH3 0x461BCD PUSH1 0xE5 SHL DUP2 MSTORE PUSH1 0x20 PUSH1 0x4 DUP3 ADD MSTORE PUSH1 0x1A PUSH1 0x24 DUP3 ADD MSTORE PUSH32 0x496E76616C69642047616D654D61737465722061646472657373000000000000 PUSH1 0x44 DUP3 ADD MSTORE PUSH1 0x64 SWAP1 REVERT JUMPDEST CALLVALUE PUSH2 0x1E6 JUMPI PUSH1 0x0 CALLDATASIZE PUSH1 0x3 NOT ADD SLT PUSH2 0x1E6 JUMPI PUSH1 0x2 SLOAD PUSH2 0x92B DUP2 PUSH2 0x1BD3 JUMP JUMPDEST SWAP1 PUSH2 0x939 PUSH1 0x40 MLOAD SWAP3 DUP4 PUSH2 0x1BB1 JUMP JUMPDEST DUP1 DUP3 MSTORE PUSH1 0x1F NOT PUSH2 0x948 DUP3 PUSH2 0x1BD3 JUMP JUMPDEST ADD PUSH1 0x0 JUMPDEST DUP2 DUP2 LT PUSH2 0xA40 JUMPI POP POP PUSH1 0x1 JUMPDEST DUP2 DUP2 GT ISZERO PUSH2 0x9CF JUMPI DUP3 PUSH1 0x40 MLOAD DUP1 SWAP2 PUSH1 0x20 DUP3 ADD PUSH1 0x20 DUP4 MSTORE DUP2 MLOAD DUP1 SWAP2 MSTORE PUSH1 0x20 PUSH1 0x40 DUP5 ADD SWAP3 ADD SWAP1 PUSH1 0x0 JUMPDEST DUP2 DUP2 LT PUSH2 0x98D JUMPI POP POP POP SUB SWAP1 RETURN JUMPDEST SWAP2 SWAP4 POP SWAP2 PUSH1 0x20 PUSH1 0x80 PUSH1 0x1 SWAP3 PUSH1 0x60 DUP8 MLOAD DUP1 MLOAD DUP4 MSTORE PUSH2 0x9B0 DUP6 DUP3 ADD MLOAD DUP7 DUP6 ADD SWAP1 PUSH2 0x1AD4 JUMP JUMPDEST PUSH1 0x40 DUP2 ADD MLOAD PUSH1 0x40 DUP5 ADD MSTORE ADD MLOAD PUSH1 0x60 DUP3 ADD MSTORE ADD SWAP5 ADD SWAP2 ADD SWAP2 DUP5 SWAP4 SWAP3 PUSH2 0x97F JUMP JUMPDEST DUP1 PUSH1 0x0 MSTORE PUSH1 0x3 PUSH1 0x20 MSTORE PUSH1 0x40 PUSH1 0x0 KECCAK256 SWAP1 PUSH1 0xFF DUP3 SLOAD AND SWAP2 PUSH1 0xB PUSH1 0x5 DUP3 ADD SLOAD SWAP2 ADD SLOAD SWAP1 PUSH2 0xA0B PUSH1 0x40 MLOAD SWAP5 PUSH2 0x9FF DUP7 PUSH2 0x1B79 JUMP JUMPDEST DUP5 DUP7 MSTORE PUSH1 0x20 DUP7 ADD PUSH2 0x1CE7 JUMP JUMPDEST PUSH1 0x40 DUP5 ADD MSTORE PUSH1 0x60 DUP4 ADD MSTORE PUSH1 0x0 NOT DUP2 ADD SWAP2 DUP2 DUP4 GT PUSH2 0x643 JUMPI DUP3 PUSH2 0x7E8 SWAP2 PUSH2 0xA34 PUSH2 0xA3B SWAP6 DUP9 PUSH2 0x1C0E JUMP JUMPDEST MSTORE DUP6 PUSH2 0x1C0E JUMP JUMPDEST PUSH2 0x958 JUMP JUMPDEST PUSH1 0x20 SWAP1 PUSH1 0x40 MLOAD PUSH2 0xA4F DUP2 PUSH2 0x1B79 JUMP JUMPDEST PUSH1 0x0 DUP2 MSTORE PUSH1 0x0 DUP4 DUP3 ADD MSTORE PUSH1 0x0 PUSH1 0x40 DUP3 ADD MSTORE PUSH1 0x0 PUSH1 0x60 DUP3 ADD MSTORE DUP3 DUP3 DUP8 ADD ADD MSTORE ADD PUSH2 0x94C JUMP JUMPDEST CALLVALUE PUSH2 0x1E6 JUMPI PUSH1 0x0 CALLDATASIZE PUSH1 0x3 NOT ADD SLT PUSH2 0x1E6 JUMPI PUSH1 0x1 SLOAD PUSH1 0x40 MLOAD PUSH1 0x1 PUSH1 0x1 PUSH1 0xA0 SHL SUB SWAP1 SWAP2 AND DUP2 MSTORE PUSH1 0x20 SWAP1 RETURN JUMPDEST CALLVALUE PUSH2 0x1E6 JUMPI PUSH1 0x0 CALLDATASIZE PUSH1 0x3 NOT ADD SLT PUSH2 0x1E6 JUMPI PUSH1 0x40 DUP1 MLOAD SWAP1 PUSH2 0xABC DUP2 DUP4 PUSH2 0x1BB1 JUMP JUMPDEST PUSH1 0x7 DUP3 MSTORE PUSH7 0x11195CD8D95B99 PUSH1 0xCA SHL PUSH1 0x20 DUP4 ADD MSTORE DUP1 MLOAD DUP1 SWAP3 PUSH1 0x20 DUP3 MSTORE DUP1 MLOAD SWAP1 DUP2 PUSH1 0x20 DUP5 ADD MSTORE PUSH1 0x0 JUMPDEST DUP3 DUP2 LT PUSH2 0xB03 JUMPI POP POP PUSH1 0x0 DUP3 DUP3 ADD DUP5 ADD MSTORE PUSH1 0x1F ADD PUSH1 0x1F NOT AND DUP2 ADD SUB ADD SWAP1 RETURN JUMPDEST PUSH1 0x20 DUP3 DUP3 ADD DUP2 ADD MLOAD DUP8 DUP4 ADD DUP8 ADD MSTORE DUP7 SWAP5 POP ADD PUSH2 0xAE4 JUMP JUMPDEST CALLVALUE PUSH2 0x1E6 JUMPI PUSH1 0x20 CALLDATASIZE PUSH1 0x3 NOT ADD SLT PUSH2 0x1E6 JUMPI PUSH1 0x4 CALLDATALOAD DUP1 ISZERO ISZERO DUP1 PUSH2 0xBA0 JUMPI JUMPDEST PUSH2 0xB40 SWAP1 PUSH2 0x1B12 JUMP JUMPDEST PUSH2 0xB48 PUSH2 0x1BEB JUMP JUMPDEST SWAP1 PUSH1 0x0 JUMPDEST PUSH1 0x15 DUP2 GT ISZERO PUSH2 0xB6F JUMPI PUSH1 0x40 MLOAD PUSH1 0x20 DUP1 DUP3 MSTORE DUP2 SWAP1 PUSH2 0xB6B SWAP1 DUP3 ADD DUP7 PUSH2 0x1A31 JUMP JUMPDEST SUB SWAP1 RETURN JUMPDEST PUSH2 0xB9B SWAP1 DUP3 PUSH1 0x0 MSTORE PUSH1 0x3 PUSH1 0x20 MSTORE PUSH1 0x13 PUSH1 0x40 PUSH1 0x0 KECCAK256 ADD DUP2 PUSH1 0x0 MSTORE PUSH1 0x20 MSTORE PUSH1 0x40 PUSH1 0x0 KECCAK256 SLOAD PUSH2 0x611 DUP3 DUP7 PUSH2 0x1C0E JUMP JUMPDEST PUSH2 0xB4C JUMP JUMPDEST POP PUSH1 0x2 SLOAD DUP2 GT ISZERO PUSH2 0xB37 JUMP JUMPDEST CALLVALUE PUSH2 0x1E6 JUMPI PUSH1 0x20 CALLDATASIZE PUSH1 0x3 NOT ADD SLT PUSH2 0x1E6 JUMPI PUSH2 0x851 PUSH1 0x4 CALLDATALOAD PUSH2 0x2270 JUMP JUMPDEST CALLVALUE PUSH2 0x1E6 JUMPI PUSH1 0x0 CALLDATASIZE PUSH1 0x3 NOT ADD SLT PUSH2 0x1E6 JUMPI PUSH1 0x0 DUP1 PUSH1 0x40 MLOAD PUSH1 0x20 DUP2 ADD SWAP1 PUSH4 0x7983F45 PUSH1 0xE2 SHL DUP3 MSTORE PUSH1 0x97 PUSH1 0x24 DUP3 ADD MSTORE PUSH1 0x24 DUP2 MSTORE PUSH2 0xC04 PUSH1 0x44 DUP3 PUSH2 0x1BB1 JUMP JUMPDEST MLOAD SWAP1 DUP3 PUSH20 0xDC2B0D2DD2B7759D97D50DB4EABDC36973110830 GAS CALL RETURNDATASIZE ISZERO PUSH2 0xCB9 JUMPI RETURNDATASIZE PUSH8 0xFFFFFFFFFFFFFFFF DUP2 GT PUSH2 0xCA3 JUMPI PUSH1 0x40 MLOAD SWAP1 PUSH2 0xC4C PUSH1 0x1F DUP3 ADD PUSH1 0x1F NOT AND PUSH1 0x20 ADD DUP4 PUSH2 0x1BB1 JUMP JUMPDEST DUP2 MSTORE PUSH1 0x0 PUSH1 0x20 RETURNDATASIZE SWAP3 ADD RETURNDATACOPY JUMPDEST ISZERO PUSH2 0xC5E JUMPI STOP JUMPDEST PUSH1 0x40 MLOAD PUSH3 0x461BCD PUSH1 0xE5 SHL DUP2 MSTORE PUSH1 0x20 PUSH1 0x4 DUP3 ADD MSTORE PUSH1 0x18 PUSH1 0x24 DUP3 ADD MSTORE PUSH32 0x4665654D20726567697374726174696F6E206661696C65640000000000000000 PUSH1 0x44 DUP3 ADD MSTORE PUSH1 0x64 SWAP1 REVERT JUMPDEST PUSH4 0x4E487B71 PUSH1 0xE0 SHL PUSH1 0x0 MSTORE PUSH1 0x41 PUSH1 0x4 MSTORE PUSH1 0x24 PUSH1 0x0 REVERT JUMPDEST PUSH2 0xC57 JUMP JUMPDEST CALLVALUE PUSH2 0x1E6 JUMPI PUSH1 0x0 CALLDATASIZE PUSH1 0x3 NOT ADD SLT PUSH2 0x1E6 JUMPI PUSH1 0x0 SLOAD PUSH1 0x40 MLOAD PUSH1 0x1 PUSH1 0x1 PUSH1 0xA0 SHL SUB SWAP1 SWAP2 AND DUP2 MSTORE PUSH1 0x20 SWAP1 RETURN JUMPDEST CALLVALUE PUSH2 0x1E6 JUMPI PUSH1 0x0 CALLDATASIZE PUSH1 0x3 NOT ADD SLT PUSH2 0x1E6 JUMPI PUSH1 0x2 SLOAD PUSH1 0x1 PUSH1 0x0 JUMPDEST DUP3 DUP3 GT ISZERO PUSH2 0xDAD JUMPI PUSH2 0xD12 SWAP2 POP PUSH2 0x1C72 JUMP JUMPDEST PUSH1 0x0 SWAP2 PUSH1 0x1 SWAP1 JUMPDEST DUP1 DUP3 GT ISZERO PUSH2 0xD2F JUMPI PUSH1 0x40 MLOAD DUP1 PUSH2 0xB6B DUP6 DUP3 PUSH2 0x1A91 JUMP JUMPDEST PUSH2 0xD56 SWAP1 DUP3 PUSH1 0x0 SWAP5 SWAP4 SWAP5 MSTORE PUSH1 0x3 PUSH1 0x20 MSTORE PUSH2 0xD5D PUSH1 0x8 PUSH1 0x40 PUSH1 0x0 KECCAK256 ADD PUSH1 0x40 MLOAD SWAP4 DUP5 DUP1 SWAP3 PUSH2 0x1CA4 JUMP JUMPDEST SUB DUP4 PUSH2 0x1BB1 JUMP JUMPDEST PUSH1 0x0 JUMPDEST DUP3 MLOAD DUP2 LT ISZERO PUSH2 0xD9A JUMPI PUSH1 0x1 SWAP1 PUSH1 0x1 PUSH1 0x1 PUSH1 0xA0 SHL SUB PUSH2 0xD7E DUP3 DUP7 PUSH2 0x1C0E JUMP JUMPDEST MLOAD AND PUSH2 0xD93 PUSH2 0xD8C DUP10 PUSH2 0x1C63 JUMP JUMPDEST SWAP9 DUP8 PUSH2 0x1C0E JUMP JUMPDEST MSTORE ADD PUSH2 0xD60 JUMP JUMPDEST POP SWAP2 SWAP3 PUSH2 0xDA7 SWAP2 POP PUSH2 0x1C63 JUMP JUMPDEST SWAP1 PUSH2 0xD19 JUMP JUMPDEST PUSH2 0xDCC PUSH2 0xDD2 SWAP2 DUP4 PUSH1 0x0 MSTORE PUSH1 0x3 PUSH1 0x20 MSTORE PUSH1 0x8 PUSH1 0x40 PUSH1 0x0 KECCAK256 ADD SLOAD SWAP1 PUSH2 0x1B50 JUMP JUMPDEST SWAP2 PUSH2 0x1C63 JUMP JUMPDEST SWAP1 PUSH2 0xD00 JUMP JUMPDEST CALLVALUE PUSH2 0x1E6 JUMPI PUSH1 0x40 CALLDATASIZE PUSH1 0x3 NOT ADD SLT PUSH2 0x1E6 JUMPI PUSH1 0x4 CALLDATALOAD PUSH2 0xDF4 PUSH2 0x1A65 JUMP JUMPDEST SWAP1 DUP1 ISZERO ISZERO DUP1 PUSH2 0xE3B JUMPI JUMPDEST PUSH2 0xE07 SWAP1 PUSH2 0x1B12 JUMP JUMPDEST PUSH1 0x0 MSTORE PUSH1 0x3 PUSH1 0x20 MSTORE PUSH1 0x11 PUSH1 0x40 PUSH1 0x0 KECCAK256 ADD SWAP1 PUSH1 0x1 DUP1 PUSH1 0xA0 SHL SUB AND PUSH1 0x0 MSTORE PUSH1 0x20 MSTORE PUSH1 0x20 PUSH1 0xFF PUSH1 0x40 PUSH1 0x0 KECCAK256 SLOAD AND PUSH1 0x40 MLOAD SWAP1 ISZERO ISZERO DUP2 MSTORE RETURN JUMPDEST POP PUSH1 0x2 SLOAD DUP2 GT ISZERO PUSH2 0xDFE JUMP JUMPDEST CALLVALUE PUSH2 0x1E6 JUMPI PUSH1 0x40 CALLDATASIZE PUSH1 0x3 NOT ADD SLT PUSH2 0x1E6 JUMPI PUSH1 0x4 CALLDATALOAD PUSH8 0xFFFFFFFFFFFFFFFF DUP2 GT PUSH2 0x1E6 JUMPI PUSH2 0xE78 SWAP1 CALLDATASIZE SWAP1 PUSH1 0x4 ADD PUSH2 0x1AE1 JUMP JUMPDEST PUSH1 0x24 CALLDATALOAD PUSH8 0xFFFFFFFFFFFFFFFF DUP2 GT PUSH2 0x1E6 JUMPI PUSH2 0xE98 SWAP1 CALLDATASIZE SWAP1 PUSH1 0x4 ADD PUSH2 0x1AE1 JUMP JUMPDEST PUSH2 0xEB0 PUSH1 0x1 DUP1 PUSH1 0xA0 SWAP6 SWAP5 SWAP6 SHL SUB PUSH1 0x1 SLOAD AND CALLER EQ PUSH2 0x1D66 JUMP JUMPDEST DUP2 ISZERO PUSH2 0x1326 JUMPI DUP1 DUP3 SUB PUSH2 0x12E1 JUMPI PUSH1 0x2 DUP3 LT PUSH2 0x129C JUMPI PUSH1 0x3B DUP3 ADD SWAP3 DUP4 DUP4 GT PUSH2 0x643 JUMPI PUSH1 0x3A DUP4 ADD SWAP4 DUP5 GT PUSH2 0x643 JUMPI PUSH1 0x0 PUSH1 0x3B DUP6 DIV ISZERO PUSH2 0x1288 JUMPI POP PUSH1 0x3B DUP5 DIV DUP4 DIV SWAP4 PUSH1 0x0 SWAP6 DUP7 SWAP1 DUP8 JUMPDEST PUSH1 0x3B DUP5 DIV DUP2 LT PUSH2 0xF04 JUMPI DUP9 DUP1 RETURN JUMPDEST PUSH2 0xF0F PUSH1 0x2 SLOAD PUSH2 0x1C63 JUMP JUMPDEST SWAP1 DUP2 PUSH1 0x2 SSTORE DUP2 DUP11 MSTORE PUSH1 0x3 PUSH1 0x20 MSTORE PUSH1 0x40 DUP11 KECCAK256 SWAP2 PUSH1 0x1 PUSH1 0xFF NOT DUP5 SLOAD AND OR DUP4 SSTORE PUSH1 0x1 PUSH1 0x5 DUP5 ADD SSTORE TIMESTAMP PUSH1 0x3 DUP5 ADD SSTORE DUP10 SWAP1 PUSH1 0x3B DUP8 DIV DUP11 MOD DUP4 LT PUSH2 0x1261 JUMPI JUMPDEST PUSH1 0xA DUP3 DIV PUSH1 0x6 DUP6 ADD SWAP1 DUP1 DUP3 SSTORE ISZERO PUSH2 0x1257 JUMPI JUMPDEST POP DUP2 PUSH1 0x1 SHR PUSH1 0x7 DUP6 ADD SWAP1 DUP1 DUP3 SSTORE ISZERO PUSH2 0x124D JUMPI JUMPDEST POP SWAP1 DUP12 SWAP2 JUMPDEST DUP2 DUP4 LT PUSH2 0xFFA JUMPI POP POP POP PUSH2 0xF85 DUP3 PUSH2 0x3098 JUMP JUMPDEST PUSH2 0xF9D PUSH1 0x40 MLOAD SWAP3 PUSH1 0x40 DUP5 MSTORE PUSH1 0x8 PUSH1 0x40 DUP6 ADD SWAP2 ADD PUSH2 0x1CA4 JUMP JUMPDEST DUP3 DUP2 SUB PUSH1 0x20 DUP5 ADD MSTORE DUP8 DUP2 MSTORE PUSH1 0x1 PUSH1 0x1 PUSH1 0xFB SHL SUB DUP9 GT PUSH2 0xFF6 JUMPI DUP3 PUSH1 0x20 PUSH1 0x1 SWAP5 PUSH32 0xB66BA8FEAEC509998EF3217BC97FBF1A0F906B89FAC25A4ACE8DDFF059A41F12 SWAP4 DUP12 PUSH1 0x5 SHL DUP12 DUP5 DUP4 ADD CALLDATACOPY DUP12 PUSH1 0x5 SHL ADD SUB ADD SWAP1 LOG1 ADD PUSH2 0xEF6 JUMP JUMPDEST DUP11 DUP1 REVERT JUMPDEST SWAP1 SWAP2 SWAP6 PUSH2 0x1008 DUP2 DUP13 DUP9 PUSH2 0x21BA JUMP JUMPDEST CALLDATALOAD PUSH1 0x1 PUSH1 0x1 PUSH1 0xA0 SHL SUB DUP2 AND DUP2 SUB PUSH2 0x1249 JUMPI PUSH1 0x1 PUSH1 0x1 PUSH1 0xA0 SHL SUB DUP2 AND ISZERO PUSH2 0x120B JUMPI DUP14 SWAP1 PUSH1 0x1 DUP1 PUSH1 0xA0 SHL SUB DUP2 AND DUP3 MSTORE PUSH1 0x5 PUSH1 0x20 MSTORE DUP12 DUP12 DUP9 PUSH1 0xFF PUSH1 0x40 DUP7 KECCAK256 SLOAD AND PUSH2 0x1157 JUMPI JUMPDEST SWAP3 PUSH2 0x106C DUP7 PUSH1 0x40 SWAP5 PUSH2 0x114E SWAP8 SWAP5 PUSH2 0x1067 DUP6 PUSH1 0x8 PUSH1 0x1 SWAP13 SWAP11 ADD PUSH2 0x21E2 JUMP JUMPDEST PUSH2 0x21BA JUMP JUMPDEST CALLDATALOAD DUP7 DUP1 PUSH1 0xA0 SHL SUB DUP3 AND DUP4 MSTORE PUSH1 0xA DUP12 ADD PUSH1 0x20 MSTORE DUP4 DUP4 KECCAK256 SSTORE DUP6 DUP1 PUSH1 0xA0 SHL SUB DUP2 AND DUP3 MSTORE PUSH1 0x9 DUP11 ADD PUSH1 0x20 MSTORE DUP3 DUP3 KECCAK256 DUP7 PUSH1 0xFF NOT DUP3 SLOAD AND OR SWAP1 SSTORE PUSH2 0x10AD DUP2 PUSH1 0xB DUP13 ADD PUSH2 0x21E2 JUMP JUMPDEST PUSH1 0xA0 DUP7 SWAP1 SHL DUP7 SWAP1 SUB DUP2 AND DUP1 DUP4 MSTORE PUSH1 0xC DUP12 ADD PUSH1 0x20 SWAP1 DUP2 MSTORE DUP5 DUP5 KECCAK256 DUP1 SLOAD PUSH1 0xFF NOT AND DUP10 OR SWAP1 SSTORE DUP2 DUP5 MSTORE PUSH1 0xD DUP13 ADD DUP2 MSTORE DUP5 DUP5 KECCAK256 DUP5 SWAP1 SSTORE SWAP1 DUP4 MSTORE PUSH1 0xE DUP12 ADD DUP2 MSTORE DUP4 DUP4 KECCAK256 PUSH1 0x6 SWAP1 SSTORE DUP3 DUP1 MSTORE PUSH1 0x13 DUP12 ADD SWAP1 MSTORE DUP3 DUP3 KECCAK256 DUP1 SLOAD PUSH2 0x1106 SWAP1 PUSH2 0x1C63 JUMP JUMPDEST SWAP1 SSTORE DUP2 DUP1 MSTORE PUSH1 0x14 DUP11 ADD PUSH1 0x20 MSTORE PUSH2 0x111E DUP2 DUP5 DUP5 KECCAK256 PUSH2 0x21E2 JUMP JUMPDEST PUSH1 0xA0 DUP7 SWAP1 SHL DUP7 SWAP1 SUB AND DUP1 DUP3 MSTORE PUSH1 0x4 PUSH1 0x20 SWAP1 DUP2 MSTORE DUP4 DUP4 KECCAK256 DUP9 SWAP1 SSTORE SWAP1 DUP3 MSTORE PUSH1 0x5 SWAP1 MSTORE KECCAK256 DUP1 SLOAD PUSH1 0xFF NOT AND DUP5 OR SWAP1 SSTORE PUSH2 0x1C63 JUMP JUMPDEST SWAP7 ADD SWAP2 SWAP1 PUSH2 0xF72 JUMP JUMPDEST POP POP POP PUSH1 0x1 PUSH1 0x1 PUSH1 0xA0 SHL SUB DUP2 AND SWAP1 SWAP2 MSTORE PUSH1 0x4 PUSH1 0x20 MSTORE PUSH1 0x40 DUP15 KECCAK256 SLOAD DUP1 ISZERO SWAP1 DUP16 SWAP1 DUP3 ISZERO PUSH2 0x11D3 JUMPI JUMPDEST POP POP ISZERO PUSH2 0x118E JUMPI DUP14 SWAP1 DUP12 DUP12 DUP9 PUSH2 0x104A JUMP JUMPDEST PUSH1 0x40 MLOAD PUSH3 0x461BCD PUSH1 0xE5 SHL DUP2 MSTORE PUSH1 0x20 PUSH1 0x4 DUP3 ADD MSTORE PUSH1 0x1D PUSH1 0x24 DUP3 ADD MSTORE PUSH32 0x506C6179657220616C726561647920696E206163746976652067616D65000000 PUSH1 0x44 DUP3 ADD MSTORE PUSH1 0x64 SWAP1 REVERT JUMPDEST DUP2 MSTORE PUSH1 0x3 PUSH1 0x20 MSTORE PUSH1 0x40 SWAP1 KECCAK256 SLOAD PUSH1 0xFF AND SWAP1 POP PUSH1 0x5 DUP2 LT ISZERO PUSH2 0x11F7 JUMPI PUSH1 0x4 EQ DUP15 CODESIZE PUSH2 0x117D JUMP JUMPDEST PUSH4 0x4E487B71 PUSH1 0xE0 SHL DUP16 MSTORE PUSH1 0x21 PUSH1 0x4 MSTORE PUSH1 0x24 DUP16 REVERT JUMPDEST PUSH1 0x40 MLOAD PUSH3 0x461BCD PUSH1 0xE5 SHL DUP2 MSTORE PUSH1 0x20 PUSH1 0x4 DUP3 ADD MSTORE PUSH1 0x16 PUSH1 0x24 DUP3 ADD MSTORE PUSH22 0x496E76616C696420706C617965722061646472657373 PUSH1 0x50 SHL PUSH1 0x44 DUP3 ADD MSTORE PUSH1 0x64 SWAP1 REVERT JUMPDEST DUP14 DUP1 REVERT JUMPDEST PUSH1 0x1 SWAP1 SSTORE DUP13 PUSH2 0xF6D JUMP JUMPDEST PUSH1 0x1 SWAP1 SSTORE DUP13 PUSH2 0xF5A JUMP JUMPDEST SWAP1 POP PUSH1 0x1 DUP11 ADD DUP1 DUP12 GT PUSH2 0x1274 JUMPI SWAP1 PUSH2 0xF48 JUMP JUMPDEST PUSH4 0x4E487B71 PUSH1 0xE0 SHL DUP13 MSTORE PUSH1 0x11 PUSH1 0x4 MSTORE PUSH1 0x24 DUP13 REVERT JUMPDEST PUSH4 0x4E487B71 PUSH1 0xE0 SHL DUP2 MSTORE PUSH1 0x12 PUSH1 0x4 MSTORE PUSH1 0x24 SWAP1 REVERT JUMPDEST PUSH1 0x40 MLOAD PUSH3 0x461BCD PUSH1 0xE5 SHL DUP2 MSTORE PUSH1 0x20 PUSH1 0x4 DUP3 ADD MSTORE PUSH1 0x17 PUSH1 0x24 DUP3 ADD MSTORE PUSH32 0x4E656564206174206C65617374203220706C6179657273000000000000000000 PUSH1 0x44 DUP3 ADD MSTORE PUSH1 0x64 SWAP1 REVERT JUMPDEST PUSH1 0x40 MLOAD PUSH3 0x461BCD PUSH1 0xE5 SHL DUP2 MSTORE PUSH1 0x20 PUSH1 0x4 DUP3 ADD MSTORE PUSH1 0x18 PUSH1 0x24 DUP3 ADD MSTORE PUSH32 0x4172726179206C656E67746873206D757374206D617463680000000000000000 PUSH1 0x44 DUP3 ADD MSTORE PUSH1 0x64 SWAP1 REVERT JUMPDEST PUSH1 0x40 MLOAD PUSH3 0x461BCD PUSH1 0xE5 SHL DUP2 MSTORE PUSH1 0x20 PUSH1 0x4 DUP3 ADD MSTORE PUSH1 0x13 PUSH1 0x24 DUP3 ADD MSTORE PUSH19 0x139BC81C1B185E595C9CC81C1C9BDD9A591959 PUSH1 0x6A SHL PUSH1 0x44 DUP3 ADD MSTORE PUSH1 0x64 SWAP1 REVERT JUMPDEST CALLVALUE PUSH2 0x1E6 JUMPI PUSH1 0x40 CALLDATASIZE PUSH1 0x3 NOT ADD SLT PUSH2 0x1E6 JUMPI PUSH2 0x851 PUSH1 0x24 CALLDATALOAD PUSH1 0x4 CALLDATALOAD PUSH2 0x1E35 JUMP JUMPDEST CALLVALUE PUSH2 0x1E6 JUMPI PUSH1 0x20 CALLDATASIZE PUSH1 0x3 NOT ADD SLT PUSH2 0x1E6 JUMPI PUSH1 0x1 PUSH1 0x1 PUSH1 0xA0 SHL SUB PUSH2 0x13A1 PUSH2 0x1A7B JUMP JUMPDEST AND PUSH1 0x0 MSTORE PUSH1 0x4 PUSH1 0x20 MSTORE PUSH1 0x20 PUSH1 0x40 PUSH1 0x0 KECCAK256 SLOAD PUSH1 0x40 MLOAD SWAP1 DUP2 MSTORE RETURN JUMPDEST CALLVALUE PUSH2 0x1E6 JUMPI PUSH1 0x0 CALLDATASIZE PUSH1 0x3 NOT ADD SLT PUSH2 0x1E6 JUMPI PUSH2 0x13D3 PUSH2 0x2BD4 JUMP JUMPDEST PUSH1 0x0 DUP1 SLOAD PUSH1 0x1 PUSH1 0x1 PUSH1 0xA0 SHL SUB NOT DUP2 AND DUP3 SSTORE PUSH1 0x1 PUSH1 0x1 PUSH1 0xA0 SHL SUB AND PUSH32 0x8BE0079C531659141344CD1FD0A4F28419497F9722A3DAAFE3B4186F6B6457E0 DUP3 DUP1 LOG3 STOP JUMPDEST CALLVALUE PUSH2 0x1E6 JUMPI PUSH1 0x0 CALLDATASIZE PUSH1 0x3 NOT ADD SLT PUSH2 0x1E6 JUMPI PUSH2 0x1439 PUSH1 0x1 DUP1 PUSH1 0xA0 SHL SUB PUSH1 0x1 SLOAD AND CALLER EQ PUSH2 0x1D66 JUMP JUMPDEST PUSH1 0x40 MLOAD PUSH1 0x20 PUSH2 0x1448 DUP2 DUP4 PUSH2 0x1BB1 JUMP JUMPDEST PUSH1 0x0 DUP3 MSTORE PUSH1 0x0 CALLDATASIZE DUP2 CALLDATACOPY PUSH1 0x1 JUMPDEST PUSH1 0x2 SLOAD DUP2 GT PUSH2 0x1496 JUMPI DUP1 PUSH1 0x0 MSTORE PUSH1 0x3 DUP3 MSTORE PUSH1 0xFF PUSH1 0x40 PUSH1 0x0 KECCAK256 SLOAD AND SWAP1 PUSH1 0x5 DUP3 LT ISZERO PUSH2 0x674 JUMPI PUSH1 0x2 PUSH2 0x1488 SWAP3 EQ PUSH2 0x148D JUMPI PUSH2 0x1C63 JUMP JUMPDEST PUSH2 0x1454 JUMP JUMPDEST PUSH2 0x613 DUP2 PUSH2 0x2494 JUMP JUMPDEST PUSH1 0x40 MLOAD DUP1 PUSH2 0xB6B DUP6 DUP3 PUSH2 0x1A91 JUMP JUMPDEST CALLVALUE PUSH2 0x1E6 JUMPI PUSH1 0x20 CALLDATASIZE PUSH1 0x3 NOT ADD SLT PUSH2 0x1E6 JUMPI PUSH2 0xB6B PUSH2 0x14D5 PUSH1 0x4 CALLDATALOAD DUP1 ISZERO ISZERO DUP1 PUSH2 0x14E1 JUMPI JUMPDEST PUSH2 0x14D0 SWAP1 PUSH2 0x1B12 JUMP JUMPDEST PUSH2 0x1CF3 JUMP JUMPDEST PUSH1 0x40 MLOAD SWAP2 DUP3 SWAP2 DUP3 PUSH2 0x1A91 JUMP JUMPDEST POP PUSH1 0x2 SLOAD DUP2 GT ISZERO PUSH2 0x14C7 JUMP JUMPDEST CALLVALUE PUSH2 0x1E6 JUMPI PUSH1 0x20 CALLDATASIZE PUSH1 0x3 NOT ADD SLT PUSH2 0x1E6 JUMPI PUSH1 0x1 PUSH1 0x1 PUSH1 0xA0 SHL SUB PUSH2 0x150E PUSH2 0x1A7B JUMP JUMPDEST AND PUSH1 0x0 MSTORE PUSH1 0x5 PUSH1 0x20 MSTORE PUSH1 0x20 PUSH1 0xFF PUSH1 0x40 PUSH1 0x0 KECCAK256 SLOAD AND PUSH1 0x40 MLOAD SWAP1 ISZERO ISZERO DUP2 MSTORE RETURN JUMPDEST CALLVALUE PUSH2 0x1E6 JUMPI PUSH1 0x20 CALLDATASIZE PUSH1 0x3 NOT ADD SLT PUSH2 0x1E6 JUMPI PUSH1 0x4 CALLDATALOAD DUP1 ISZERO ISZERO DUP1 PUSH2 0x156D JUMPI JUMPDEST PUSH2 0x1552 SWAP1 PUSH2 0x1B12 JUMP JUMPDEST PUSH1 0x0 MSTORE PUSH1 0x3 PUSH1 0x20 MSTORE PUSH1 0x20 PUSH1 0x1 PUSH1 0x40 PUSH1 0x0 KECCAK256 ADD SLOAD PUSH1 0x40 MLOAD SWAP1 DUP2 MSTORE RETURN JUMPDEST POP PUSH1 0x2 SLOAD DUP2 GT ISZERO PUSH2 0x1549 JUMP JUMPDEST CALLVALUE PUSH2 0x1E6 JUMPI PUSH1 0x20 CALLDATASIZE PUSH1 0x3 NOT ADD SLT PUSH2 0x1E6 JUMPI PUSH1 0x4 CALLDATALOAD PUSH1 0x0 PUSH1 0x80 PUSH1 0x40 MLOAD PUSH2 0x159D DUP2 PUSH2 0x1B5D JUMP JUMPDEST DUP3 DUP2 MSTORE DUP3 PUSH1 0x20 DUP3 ADD MSTORE DUP3 PUSH1 0x40 DUP3 ADD MSTORE DUP3 PUSH1 0x60 DUP3 ADD MSTORE ADD MSTORE DUP1 ISZERO ISZERO DUP1 PUSH2 0x164B JUMPI JUMPDEST PUSH2 0x15C6 SWAP1 PUSH2 0x1B12 JUMP JUMPDEST PUSH1 0x0 MSTORE PUSH1 0x3 PUSH1 0x20 MSTORE PUSH1 0xA0 PUSH1 0x40 PUSH1 0x0 KECCAK256 PUSH1 0xFF DUP2 SLOAD AND SWAP1 PUSH1 0x5 DUP2 ADD SLOAD SWAP1 PUSH1 0x2 DUP2 ADD SLOAD PUSH1 0x4 PUSH1 0x3 DUP4 ADD SLOAD SWAP3 ADD SLOAD SWAP3 PUSH2 0x1607 PUSH1 0x40 MLOAD SWAP6 PUSH2 0x1601 DUP8 PUSH2 0x1B5D JUMP JUMPDEST DUP7 PUSH2 0x1CE7 JUMP JUMPDEST PUSH1 0x20 DUP6 ADD SWAP1 DUP2 MSTORE PUSH1 0x40 DUP6 ADD SWAP2 DUP3 MSTORE PUSH1 0x60 DUP6 ADD SWAP3 DUP4 MSTORE PUSH1 0x80 DUP6 ADD SWAP4 DUP5 MSTORE PUSH2 0x1631 PUSH1 0x40 MLOAD DUP1 SWAP7 MLOAD PUSH2 0x1AD4 JUMP JUMPDEST MLOAD PUSH1 0x20 DUP6 ADD MSTORE MLOAD PUSH1 0x40 DUP5 ADD MSTORE MLOAD PUSH1 0x60 DUP4 ADD MSTORE MLOAD PUSH1 0x80 DUP3 ADD MSTORE RETURN JUMPDEST POP PUSH1 0x2 SLOAD DUP2 GT ISZERO PUSH2 0x15BD JUMP JUMPDEST CALLVALUE PUSH2 0x1E6 JUMPI PUSH1 0x0 CALLDATASIZE PUSH1 0x3 NOT ADD SLT PUSH2 0x1E6 JUMPI PUSH1 0x2 SLOAD PUSH1 0x1 PUSH1 0x0 JUMPDEST DUP3 DUP3 GT ISZERO PUSH2 0x170F JUMPI PUSH2 0x1682 SWAP2 POP PUSH2 0x1C72 JUMP JUMPDEST PUSH1 0x0 SWAP2 PUSH1 0x1 SWAP1 JUMPDEST DUP1 DUP3 GT ISZERO PUSH2 0x169F JUMPI PUSH1 0x40 MLOAD DUP1 PUSH2 0xB6B DUP6 DUP3 PUSH2 0x1A91 JUMP JUMPDEST PUSH2 0xD56 SWAP1 DUP3 PUSH1 0x0 SWAP5 SWAP4 SWAP5 MSTORE PUSH1 0x3 PUSH1 0x20 MSTORE PUSH2 0x16C6 PUSH1 0xB PUSH1 0x40 PUSH1 0x0 KECCAK256 ADD PUSH1 0x40 MLOAD SWAP4 DUP5 DUP1 SWAP3 PUSH2 0x1CA4 JUMP JUMPDEST PUSH1 0x0 JUMPDEST DUP3 MLOAD DUP2 LT ISZERO PUSH2 0x16FC JUMPI PUSH1 0x1 SWAP1 PUSH1 0x1 PUSH1 0x1 PUSH1 0xA0 SHL SUB PUSH2 0x16E7 DUP3 DUP7 PUSH2 0x1C0E JUMP JUMPDEST MLOAD AND PUSH2 0x16F5 PUSH2 0xD8C DUP10 PUSH2 0x1C63 JUMP JUMPDEST MSTORE ADD PUSH2 0x16C9 JUMP JUMPDEST POP SWAP2 SWAP3 PUSH2 0x1709 SWAP2 POP PUSH2 0x1C63 JUMP JUMPDEST SWAP1 PUSH2 0x1689 JUMP JUMPDEST PUSH2 0xDCC PUSH2 0x172E SWAP2 DUP4 PUSH1 0x0 MSTORE PUSH1 0x3 PUSH1 0x20 MSTORE PUSH1 0xB PUSH1 0x40 PUSH1 0x0 KECCAK256 ADD SLOAD SWAP1 PUSH2 0x1B50 JUMP JUMPDEST SWAP1 PUSH2 0x1670 JUMP JUMPDEST CALLVALUE PUSH2 0x1E6 JUMPI PUSH1 0x40 CALLDATASIZE PUSH1 0x3 NOT ADD SLT PUSH2 0x1E6 JUMPI PUSH1 0x24 CALLDATALOAD PUSH1 0x4 CALLDATALOAD DUP1 ISZERO ISZERO DUP1 PUSH2 0x17C1 JUMPI JUMPDEST PUSH2 0x175D SWAP1 PUSH2 0x1B12 JUMP JUMPDEST PUSH1 0x15 DUP3 GT PUSH2 0x178C JUMPI PUSH1 0x0 MSTORE PUSH1 0x3 PUSH1 0x20 MSTORE PUSH1 0x13 PUSH1 0x40 PUSH1 0x0 KECCAK256 ADD SWAP1 PUSH1 0x0 MSTORE PUSH1 0x20 MSTORE PUSH1 0x20 PUSH1 0x40 PUSH1 0x0 KECCAK256 SLOAD PUSH1 0x40 MLOAD SWAP1 DUP2 MSTORE RETURN JUMPDEST PUSH1 0x40 MLOAD PUSH3 0x461BCD PUSH1 0xE5 SHL DUP2 MSTORE PUSH1 0x20 PUSH1 0x4 DUP3 ADD MSTORE PUSH1 0xD PUSH1 0x24 DUP3 ADD MSTORE PUSH13 0x125B9D985B1A59081B195D995B PUSH1 0x9A SHL PUSH1 0x44 DUP3 ADD MSTORE PUSH1 0x64 SWAP1 REVERT JUMPDEST POP PUSH1 0x2 SLOAD DUP2 GT ISZERO PUSH2 0x1754 JUMP JUMPDEST CALLVALUE PUSH2 0x1E6 JUMPI PUSH1 0x40 CALLDATASIZE PUSH1 0x3 NOT ADD SLT PUSH2 0x1E6 JUMPI PUSH1 0x4 CALLDATALOAD PUSH2 0x17E9 PUSH2 0x1A65 JUMP JUMPDEST SWAP1 DUP1 ISZERO ISZERO DUP1 PUSH2 0x185C JUMPI JUMPDEST PUSH2 0x17FC SWAP1 PUSH2 0x1B12 JUMP JUMPDEST DUP1 PUSH1 0x0 MSTORE PUSH1 0x3 PUSH1 0x20 MSTORE PUSH1 0x9 PUSH1 0x40 PUSH1 0x0 KECCAK256 ADD PUSH1 0x1 DUP1 PUSH1 0xA0 SHL SUB DUP4 AND PUSH1 0x0 MSTORE PUSH1 0x20 MSTORE PUSH2 0x182D PUSH1 0xFF PUSH1 0x40 PUSH1 0x0 KECCAK256 SLOAD AND PUSH2 0x1C22 JUMP JUMPDEST PUSH1 0x0 MSTORE PUSH1 0x3 PUSH1 0x20 MSTORE PUSH1 0xA PUSH1 0x40 PUSH1 0x0 KECCAK256 ADD SWAP1 PUSH1 0x1 DUP1 PUSH1 0xA0 SHL SUB AND PUSH1 0x0 MSTORE PUSH1 0x20 MSTORE PUSH1 0x20 PUSH1 0x40 PUSH1 0x0 KECCAK256 SLOAD PUSH1 0x40 MLOAD SWAP1 DUP2 MSTORE RETURN JUMPDEST POP PUSH1 0x2 SLOAD DUP2 GT ISZERO PUSH2 0x17F3 JUMP JUMPDEST CALLVALUE PUSH2 0x1E6 JUMPI PUSH1 0x0 CALLDATASIZE PUSH1 0x3 NOT ADD SLT PUSH2 0x1E6 JUMPI PUSH1 0x20 PUSH1 0x2 SLOAD PUSH1 0x40 MLOAD SWAP1 DUP2 MSTORE RETURN JUMPDEST CALLVALUE PUSH2 0x1E6 JUMPI PUSH1 0x40 CALLDATASIZE PUSH1 0x3 NOT ADD SLT PUSH2 0x1E6 JUMPI PUSH1 0x4 CALLDATALOAD PUSH2 0x18A2 PUSH2 0x1A65 JUMP JUMPDEST SWAP1 DUP1 ISZERO ISZERO DUP1 PUSH2 0x1915 JUMPI JUMPDEST PUSH2 0x18B5 SWAP1 PUSH2 0x1B12 JUMP JUMPDEST DUP1 PUSH1 0x0 MSTORE PUSH1 0x3 PUSH1 0x20 MSTORE PUSH1 0x9 PUSH1 0x40 PUSH1 0x0 KECCAK256 ADD PUSH1 0x1 DUP1 PUSH1 0xA0 SHL SUB DUP4 AND PUSH1 0x0 MSTORE PUSH1 0x20 MSTORE PUSH2 0x18E6 PUSH1 0xFF PUSH1 0x40 PUSH1 0x0 KECCAK256 SLOAD AND PUSH2 0x1C22 JUMP JUMPDEST PUSH1 0x0 MSTORE PUSH1 0x3 PUSH1 0x20 MSTORE PUSH1 0xD PUSH1 0x40 PUSH1 0x0 KECCAK256 ADD SWAP1 PUSH1 0x1 DUP1 PUSH1 0xA0 SHL SUB AND PUSH1 0x0 MSTORE PUSH1 0x20 MSTORE PUSH1 0x20 PUSH1 0x40 PUSH1 0x0 KECCAK256 SLOAD PUSH1 0x40 MLOAD SWAP1 DUP2 MSTORE RETURN JUMPDEST POP PUSH1 0x2 SLOAD DUP2 GT ISZERO PUSH2 0x18AC JUMP JUMPDEST CALLVALUE PUSH2 0x1E6 JUMPI PUSH1 0x20 CALLDATASIZE PUSH1 0x3 NOT ADD SLT PUSH2 0x1E6 JUMPI PUSH1 0x4 CALLDATALOAD DUP1 ISZERO ISZERO DUP1 PUSH2 0x19D8 JUMPI JUMPDEST PUSH2 0x1947 SWAP1 PUSH2 0x1B12 JUMP JUMPDEST PUSH1 0x0 MSTORE PUSH1 0x3 PUSH1 0x20 MSTORE PUSH1 0x40 PUSH1 0x0 KECCAK256 PUSH2 0x195C PUSH2 0x1BEB JUMP JUMPDEST SWAP1 PUSH1 0x8 DUP2 ADD SLOAD DUP3 MLOAD ISZERO PUSH2 0x19AD JUMPI PUSH1 0x20 DUP4 ADD MSTORE PUSH1 0x6 DUP2 ADD SLOAD PUSH1 0x1 JUMPDEST PUSH1 0x15 DUP2 LT PUSH2 0x19C3 JUMPI DUP4 PUSH1 0x7 DUP5 ADD SLOAD SWAP1 DUP1 MLOAD PUSH1 0x15 LT ISZERO PUSH2 0x19AD JUMPI PUSH2 0xB6B SWAP2 PUSH2 0x2C0 DUP3 ADD MSTORE PUSH1 0x40 MLOAD SWAP2 DUP3 SWAP2 PUSH1 0x20 DUP4 MSTORE PUSH1 0x20 DUP4 ADD SWAP1 PUSH2 0x1A31 JUMP JUMPDEST PUSH4 0x4E487B71 PUSH1 0xE0 SHL PUSH1 0x0 MSTORE PUSH1 0x32 PUSH1 0x4 MSTORE PUSH1 0x24 PUSH1 0x0 REVERT JUMPDEST DUP1 DUP3 PUSH2 0x19D1 PUSH1 0x1 SWAP4 DUP8 PUSH2 0x1C0E JUMP JUMPDEST MSTORE ADD PUSH2 0x1976 JUMP JUMPDEST POP PUSH1 0x2 SLOAD DUP2 GT ISZERO PUSH2 0x193E JUMP JUMPDEST CALLVALUE PUSH2 0x1E6 JUMPI PUSH1 0x20 CALLDATASIZE PUSH1 0x3 NOT ADD SLT PUSH2 0x1E6 JUMPI PUSH1 0x4 CALLDATALOAD DUP1 ISZERO ISZERO DUP1 PUSH2 0x1A25 JUMPI JUMPDEST PUSH2 0x1A0A SWAP1 PUSH2 0x1B12 JUMP JUMPDEST PUSH1 0x0 MSTORE PUSH1 0x3 PUSH1 0x20 MSTORE PUSH1 0x20 PUSH1 0x2 PUSH1 0x40 PUSH1 0x0 KECCAK256 ADD SLOAD PUSH1 0x40 MLOAD SWAP1 DUP2 MSTORE RETURN JUMPDEST POP PUSH1 0x2 SLOAD DUP2 GT ISZERO PUSH2 0x1A01 JUMP JUMPDEST SWAP1 PUSH1 0x20 DUP1 DUP4 MLOAD SWAP3 DUP4 DUP2 MSTORE ADD SWAP3 ADD SWAP1 PUSH1 0x0 JUMPDEST DUP2 DUP2 LT PUSH2 0x1A4F JUMPI POP POP POP SWAP1 JUMP JUMPDEST DUP3 MLOAD DUP5 MSTORE PUSH1 0x20 SWAP4 DUP5 ADD SWAP4 SWAP1 SWAP3 ADD SWAP2 PUSH1 0x1 ADD PUSH2 0x1A42 JUMP JUMPDEST PUSH1 0x24 CALLDATALOAD SWAP1 PUSH1 0x1 PUSH1 0x1 PUSH1 0xA0 SHL SUB DUP3 AND DUP3 SUB PUSH2 0x1E6 JUMPI JUMP JUMPDEST PUSH1 0x4 CALLDATALOAD SWAP1 PUSH1 0x1 PUSH1 0x1 PUSH1 0xA0 SHL SUB DUP3 AND DUP3 SUB PUSH2 0x1E6 JUMPI JUMP JUMPDEST PUSH1 0x20 PUSH1 0x40 DUP2 DUP4 ADD SWAP3 DUP3 DUP2 MSTORE DUP5 MLOAD DUP1 SWAP5 MSTORE ADD SWAP3 ADD SWAP1 PUSH1 0x0 JUMPDEST DUP2 DUP2 LT PUSH2 0x1AB5 JUMPI POP POP POP SWAP1 JUMP JUMPDEST DUP3 MLOAD PUSH1 0x1 PUSH1 0x1 PUSH1 0xA0 SHL SUB AND DUP5 MSTORE PUSH1 0x20 SWAP4 DUP5 ADD SWAP4 SWAP1 SWAP3 ADD SWAP2 PUSH1 0x1 ADD PUSH2 0x1AA8 JUMP JUMPDEST SWAP1 PUSH1 0x5 DUP3 LT ISZERO PUSH2 0x674 JUMPI MSTORE JUMP JUMPDEST SWAP2 DUP2 PUSH1 0x1F DUP5 ADD SLT ISZERO PUSH2 0x1E6 JUMPI DUP3 CALLDATALOAD SWAP2 PUSH8 0xFFFFFFFFFFFFFFFF DUP4 GT PUSH2 0x1E6 JUMPI PUSH1 0x20 DUP1 DUP6 ADD SWAP5 DUP5 PUSH1 0x5 SHL ADD ADD GT PUSH2 0x1E6 JUMPI JUMP JUMPDEST ISZERO PUSH2 0x1B19 JUMPI JUMP JUMPDEST PUSH1 0x40 MLOAD PUSH3 0x461BCD PUSH1 0xE5 SHL DUP2 MSTORE PUSH1 0x20 PUSH1 0x4 DUP3 ADD MSTORE PUSH1 0xF PUSH1 0x24 DUP3 ADD MSTORE PUSH15 0x125B9D985B1A590819D85B59481251 PUSH1 0x8A SHL PUSH1 0x44 DUP3 ADD MSTORE PUSH1 0x64 SWAP1 REVERT JUMPDEST SWAP2 SWAP1 DUP3 ADD DUP1 SWAP3 GT PUSH2 0x643 JUMPI JUMP JUMPDEST PUSH1 0xA0 DUP2 ADD SWAP1 DUP2 LT PUSH8 0xFFFFFFFFFFFFFFFF DUP3 GT OR PUSH2 0xCA3 JUMPI PUSH1 0x40 MSTORE JUMP JUMPDEST PUSH1 0x80 DUP2 ADD SWAP1 DUP2 LT PUSH8 0xFFFFFFFFFFFFFFFF DUP3 GT OR PUSH2 0xCA3 JUMPI PUSH1 0x40 MSTORE JUMP JUMPDEST PUSH1 0xE0 DUP2 ADD SWAP1 DUP2 LT PUSH8 0xFFFFFFFFFFFFFFFF DUP3 GT OR PUSH2 0xCA3 JUMPI PUSH1 0x40 MSTORE JUMP JUMPDEST SWAP1 PUSH1 0x1F DUP1 NOT SWAP2 ADD AND DUP2 ADD SWAP1 DUP2 LT PUSH8 0xFFFFFFFFFFFFFFFF DUP3 GT OR PUSH2 0xCA3 JUMPI PUSH1 0x40 MSTORE JUMP JUMPDEST PUSH8 0xFFFFFFFFFFFFFFFF DUP2 GT PUSH2 0xCA3 JUMPI PUSH1 0x5 SHL PUSH1 0x20 ADD SWAP1 JUMP JUMPDEST PUSH1 0x40 MLOAD PUSH2 0x2E0 SWAP2 SWAP1 PUSH2 0x1BFD DUP4 DUP3 PUSH2 0x1BB1 JUMP JUMPDEST PUSH1 0x16 DUP2 MSTORE SWAP2 PUSH1 0x1F NOT ADD CALLDATASIZE PUSH1 0x20 DUP5 ADD CALLDATACOPY JUMP JUMPDEST DUP1 MLOAD DUP3 LT ISZERO PUSH2 0x19AD JUMPI PUSH1 0x20 SWAP2 PUSH1 0x5 SHL ADD ADD SWAP1 JUMP JUMPDEST ISZERO PUSH2 0x1C29 JUMPI JUMP JUMPDEST PUSH1 0x40 MLOAD PUSH3 0x461BCD PUSH1 0xE5 SHL DUP2 MSTORE PUSH1 0x20 PUSH1 0x4 DUP3 ADD MSTORE PUSH1 0x12 PUSH1 0x24 DUP3 ADD MSTORE PUSH18 0x506C61796572206E6F7420696E2067616D65 PUSH1 0x70 SHL PUSH1 0x44 DUP3 ADD MSTORE PUSH1 0x64 SWAP1 REVERT JUMPDEST PUSH1 0x0 NOT DUP2 EQ PUSH2 0x643 JUMPI PUSH1 0x1 ADD SWAP1 JUMP JUMPDEST SWAP1 PUSH2 0x1C7C DUP3 PUSH2 0x1BD3 JUMP JUMPDEST PUSH2 0x1C89 PUSH1 0x40 MLOAD SWAP2 DUP3 PUSH2 0x1BB1 JUMP JUMPDEST DUP3 DUP2 MSTORE DUP1 SWAP3 PUSH2 0x1C9A PUSH1 0x1F NOT SWAP2 PUSH2 0x1BD3 JUMP JUMPDEST ADD SWAP1 PUSH1 0x20 CALLDATASIZE SWAP2 ADD CALLDATACOPY JUMP JUMPDEST SWAP1 PUSH1 0x20 DUP3 SLOAD SWAP2 DUP3 DUP2 MSTORE ADD SWAP2 PUSH1 0x0 MSTORE PUSH1 0x20 PUSH1 0x0 KECCAK256 SWAP1 PUSH1 0x0 JUMPDEST DUP2 DUP2 LT PUSH2 0x1CC8 JUMPI POP POP POP SWAP1 JUMP JUMPDEST DUP3 SLOAD PUSH1 0x1 PUSH1 0x1 PUSH1 0xA0 SHL SUB AND DUP5 MSTORE PUSH1 0x20 SWAP1 SWAP4 ADD SWAP3 PUSH1 0x1 SWAP3 DUP4 ADD SWAP3 ADD PUSH2 0x1CBB JUMP JUMPDEST PUSH1 0x5 DUP3 LT ISZERO PUSH2 0x674 JUMPI MSTORE JUMP JUMPDEST PUSH1 0x0 MSTORE PUSH1 0x3 PUSH1 0x20 MSTORE PUSH1 0x40 PUSH1 0x0 KECCAK256 PUSH1 0xFF DUP2 SLOAD AND PUSH1 0x5 DUP2 LT ISZERO PUSH2 0x674 JUMPI PUSH1 0x4 EQ PUSH2 0x1D30 JUMPI POP PUSH1 0x40 MLOAD PUSH2 0x1D24 PUSH1 0x20 DUP3 PUSH2 0x1BB1 JUMP JUMPDEST PUSH1 0x0 DUP2 MSTORE PUSH1 0x0 CALLDATASIZE DUP2 CALLDATACOPY SWAP1 JUMP JUMPDEST PUSH1 0x18 DUP2 ADD DUP1 SLOAD PUSH2 0x1D52 SWAP3 PUSH2 0x1D59 SWAP3 SWAP2 ISZERO PUSH2 0x1D5C JUMPI POP JUMPDEST PUSH1 0x40 MLOAD SWAP3 DUP4 DUP1 SWAP3 PUSH2 0x1CA4 JUMP JUMPDEST SUB DUP3 PUSH2 0x1BB1 JUMP JUMPDEST SWAP1 JUMP JUMPDEST PUSH1 0xB SWAP2 POP ADD PUSH2 0x1D46 JUMP JUMPDEST ISZERO PUSH2 0x1D6D JUMPI JUMP JUMPDEST PUSH1 0x40 MLOAD PUSH3 0x461BCD PUSH1 0xE5 SHL DUP2 MSTORE PUSH1 0x20 PUSH1 0x4 DUP3 ADD MSTORE PUSH1 0x18 PUSH1 0x24 DUP3 ADD MSTORE PUSH32 0x4F6E6C792047616D654D61737465722063616E2063616C6C0000000000000000 PUSH1 0x44 DUP3 ADD MSTORE PUSH1 0x64 SWAP1 REVERT JUMPDEST ISZERO PUSH2 0x1DB9 JUMPI JUMP JUMPDEST PUSH1 0x40 MLOAD PUSH3 0x461BCD PUSH1 0xE5 SHL DUP2 MSTORE PUSH1 0x20 PUSH1 0x4 DUP3 ADD MSTORE PUSH1 0x16 PUSH1 0x24 DUP3 ADD MSTORE PUSH22 0x506C61796572206E6F7420696E20616E792067616D65 PUSH1 0x50 SHL PUSH1 0x44 DUP3 ADD MSTORE PUSH1 0x64 SWAP1 REVERT JUMPDEST ISZERO PUSH2 0x1DFE JUMPI JUMP JUMPDEST PUSH1 0x40 MLOAD PUSH3 0x461BCD PUSH1 0xE5 SHL DUP2 MSTORE PUSH1 0x20 PUSH1 0x4 DUP3 ADD MSTORE PUSH1 0xF PUSH1 0x24 DUP3 ADD MSTORE PUSH15 0x47616D65206E6F7420616374697665 PUSH1 0x88 SHL PUSH1 0x44 DUP3 ADD MSTORE PUSH1 0x64 SWAP1 REVERT JUMPDEST SWAP1 CALLER PUSH1 0x0 MSTORE PUSH1 0x5 PUSH1 0x20 MSTORE PUSH2 0x1E50 PUSH1 0xFF PUSH1 0x40 PUSH1 0x0 KECCAK256 SLOAD AND PUSH2 0x1DB2 JUMP JUMPDEST CALLER PUSH1 0x0 MSTORE PUSH1 0x4 PUSH1 0x20 MSTORE PUSH1 0x40 PUSH1 0x0 KECCAK256 SLOAD SWAP2 DUP3 PUSH1 0x0 MSTORE PUSH1 0x3 PUSH1 0x20 MSTORE PUSH1 0x40 PUSH1 0x0 KECCAK256 SWAP1 PUSH1 0xFF DUP3 SLOAD AND PUSH1 0x5 DUP2 LT ISZERO PUSH2 0x674 JUMPI PUSH1 0x2 PUSH2 0x1E89 SWAP2 EQ PUSH2 0x1DF7 JUMP JUMPDEST CALLER PUSH1 0x0 SWAP1 DUP2 MSTORE PUSH1 0xD DUP4 ADD PUSH1 0x20 DUP2 SWAP1 MSTORE PUSH1 0x40 SWAP1 SWAP2 KECCAK256 SLOAD PUSH1 0x15 EQ PUSH2 0x21B3 JUMPI CALLER PUSH1 0x0 SWAP1 DUP2 MSTORE PUSH1 0x11 DUP5 ADD PUSH1 0x20 MSTORE PUSH1 0x40 SWAP1 KECCAK256 SLOAD PUSH1 0xFF AND ISZERO PUSH2 0x217A JUMPI CALLER PUSH1 0x0 SWAP1 DUP2 MSTORE PUSH1 0x12 DUP5 ADD PUSH1 0x20 DUP2 SWAP1 MSTORE PUSH1 0x40 SWAP1 SWAP2 KECCAK256 SLOAD PUSH1 0xFF AND PUSH2 0x2142 JUMPI PUSH1 0x5 DUP4 GT PUSH2 0x210E JUMPI PUSH1 0x1 DUP5 ADD PUSH1 0x1 DUP2 SLOAD EQ DUP1 PUSH2 0x2101 JUMPI JUMPDEST PUSH2 0x20DA JUMPI JUMPDEST SLOAD PUSH1 0x1 NOT ADD PUSH2 0x209F JUMPI PUSH1 0x2 DUP5 ADD SWAP5 DUP6 SLOAD TIMESTAMP GT PUSH2 0x2064 JUMPI PUSH1 0x40 MLOAD PUSH1 0x20 DUP2 ADD SWAP2 DUP6 DUP4 MSTORE PUSH1 0x40 DUP3 ADD MSTORE CALLER PUSH1 0x60 SHL PUSH1 0x60 DUP3 ADD MSTORE PUSH1 0x54 DUP2 MSTORE PUSH2 0x1F35 PUSH1 0x74 DUP3 PUSH2 0x1BB1 JUMP JUMPDEST MLOAD SWAP1 KECCAK256 CALLER PUSH1 0x0 SWAP1 DUP2 MSTORE PUSH1 0xF DUP7 ADD PUSH1 0x20 MSTORE PUSH1 0x40 SWAP1 KECCAK256 SLOAD SUB PUSH2 0x202E JUMPI CALLER PUSH1 0x0 SWAP1 DUP2 MSTORE PUSH1 0x10 DUP6 ADD PUSH1 0x20 SWAP1 DUP2 MSTORE PUSH1 0x40 DUP1 DUP4 KECCAK256 DUP7 SWAP1 SSTORE SWAP3 DUP2 MSTORE DUP3 DUP3 KECCAK256 DUP1 SLOAD PUSH1 0xFF NOT AND PUSH1 0x1 OR SWAP1 SSTORE SWAP3 SWAP1 SWAP3 MSTORE SWAP1 KECCAK256 SLOAD PUSH1 0x15 GT PUSH2 0x2019 JUMPI JUMPDEST CALLER PUSH1 0x0 SWAP1 DUP2 MSTORE PUSH1 0xE DUP4 ADD PUSH1 0x20 MSTORE PUSH1 0x40 SWAP1 KECCAK256 SLOAD DUP2 EQ PUSH2 0x200B JUMPI PUSH1 0x40 MLOAD SWAP1 DUP2 MSTORE DUP4 PUSH32 0x319FCEC55B5300A4DCC6F96B2DF475A149433DC721BA7D96C8FB14495B748AC PUSH1 0x20 CALLER SWAP4 LOG3 PUSH1 0x15 PUSH1 0x17 DUP3 ADD SLOAD SWAP2 ADD SLOAD EQ DUP1 ISZERO PUSH2 0x2001 JUMPI JUMPDEST PUSH2 0x1FE5 JUMPI POP POP JUMP JUMPDEST SLOAD TIMESTAMP GT ISZERO PUSH2 0x1FF8 JUMPI PUSH2 0x1FF6 SWAP1 PUSH2 0x2F64 JUMP JUMPDEST JUMP JUMPDEST PUSH2 0x1FF6 SWAP1 PUSH2 0x2494 JUMP JUMPDEST POP DUP1 SLOAD TIMESTAMP GT PUSH2 0x1FDD JUMP JUMPDEST POP POP POP PUSH2 0x1FF6 SWAP1 CALLER SWAP1 PUSH2 0x2CEB JUMP JUMPDEST PUSH1 0x17 DUP3 ADD PUSH2 0x2027 DUP2 SLOAD PUSH2 0x1C63 JUMP JUMPDEST SWAP1 SSTORE PUSH2 0x1F86 JUMP JUMPDEST PUSH1 0x40 MLOAD PUSH3 0x461BCD PUSH1 0xE5 SHL DUP2 MSTORE PUSH1 0x20 PUSH1 0x4 DUP3 ADD MSTORE PUSH1 0xE PUSH1 0x24 DUP3 ADD MSTORE PUSH14 0x125B9D985B1A59081C995D99585B PUSH1 0x92 SHL PUSH1 0x44 DUP3 ADD MSTORE PUSH1 0x64 SWAP1 REVERT JUMPDEST PUSH1 0x40 MLOAD PUSH3 0x461BCD PUSH1 0xE5 SHL DUP2 MSTORE PUSH1 0x20 PUSH1 0x4 DUP3 ADD MSTORE PUSH1 0x13 PUSH1 0x24 DUP3 ADD MSTORE PUSH19 0x14995D99585B081C195C9A5BD908195B991959 PUSH1 0x6A SHL PUSH1 0x44 DUP3 ADD MSTORE PUSH1 0x64 SWAP1 REVERT JUMPDEST PUSH1 0x40 MLOAD PUSH3 0x461BCD PUSH1 0xE5 SHL DUP2 MSTORE PUSH1 0x20 PUSH1 0x4 DUP3 ADD MSTORE PUSH1 0x13 PUSH1 0x24 DUP3 ADD MSTORE PUSH19 0x4E6F7420696E2072657665616C207068617365 PUSH1 0x68 SHL PUSH1 0x44 DUP3 ADD MSTORE PUSH1 0x64 SWAP1 REVERT JUMPDEST PUSH2 0x20E3 DUP8 PUSH2 0x2BFD JUMP JUMPDEST PUSH1 0xFF DUP6 SLOAD AND PUSH1 0x5 DUP2 LT ISZERO PUSH2 0x674 JUMPI PUSH1 0x4 SUB PUSH2 0x1EF7 JUMPI POP POP POP POP POP POP POP JUMP JUMPDEST POP PUSH1 0x2 DUP6 ADD SLOAD TIMESTAMP GT PUSH2 0x1EF2 JUMP JUMPDEST PUSH1 0x40 MLOAD PUSH3 0x461BCD PUSH1 0xE5 SHL DUP2 MSTORE PUSH1 0x20 PUSH1 0x4 DUP3 ADD MSTORE PUSH1 0xC PUSH1 0x24 DUP3 ADD MSTORE PUSH12 0x496E76616C6964206D6F7665 PUSH1 0xA0 SHL PUSH1 0x44 DUP3 ADD MSTORE PUSH1 0x64 SWAP1 REVERT JUMPDEST PUSH1 0x40 MLOAD PUSH3 0x461BCD PUSH1 0xE5 SHL DUP2 MSTORE PUSH1 0x20 PUSH1 0x4 DUP3 ADD MSTORE PUSH1 0x10 PUSH1 0x24 DUP3 ADD MSTORE PUSH16 0x105B1C9958591E481C995D99585B1959 PUSH1 0x82 SHL PUSH1 0x44 DUP3 ADD MSTORE PUSH1 0x64 SWAP1 REVERT JUMPDEST PUSH1 0x40 MLOAD PUSH3 0x461BCD PUSH1 0xE5 SHL DUP2 MSTORE PUSH1 0x20 PUSH1 0x4 DUP3 ADD MSTORE PUSH1 0x11 PUSH1 0x24 DUP3 ADD MSTORE PUSH17 0x135D5CDD0818DBDB5B5A5D08199A5C9CDD PUSH1 0x7A SHL PUSH1 0x44 DUP3 ADD MSTORE PUSH1 0x64 SWAP1 REVERT JUMPDEST POP POP POP POP POP JUMP JUMPDEST SWAP2 SWAP1 DUP2 LT ISZERO PUSH2 0x19AD JUMPI PUSH1 0x5 SHL ADD SWAP1 JUMP JUMPDEST DUP1 SLOAD DUP3 LT ISZERO PUSH2 0x19AD JUMPI PUSH1 0x0 MSTORE PUSH1 0x20 PUSH1 0x0 KECCAK256 ADD SWAP1 PUSH1 0x0 SWAP1 JUMP JUMPDEST SWAP1 DUP2 SLOAD SWAP2 PUSH9 0x10000000000000000 DUP4 LT ISZERO PUSH2 0xCA3 JUMPI DUP3 PUSH2 0x220A SWAP2 PUSH1 0x1 PUSH2 0x1FF6 SWAP6 ADD DUP2 SSTORE PUSH2 0x21CA JUMP JUMPDEST DUP2 SLOAD PUSH1 0x1 PUSH1 0x1 PUSH1 0xA0 SHL SUB SWAP4 DUP5 AND PUSH1 0x3 SWAP3 SWAP1 SWAP3 SHL SWAP2 DUP3 SHL SWAP4 SWAP1 SWAP2 SHL NOT AND SWAP2 SWAP1 SWAP2 OR SWAP1 SSTORE JUMP JUMPDEST ISZERO PUSH2 0x2235 JUMPI JUMP JUMPDEST PUSH1 0x40 MLOAD PUSH3 0x461BCD PUSH1 0xE5 SHL DUP2 MSTORE PUSH1 0x20 PUSH1 0x4 DUP3 ADD MSTORE PUSH1 0x13 PUSH1 0x24 DUP3 ADD MSTORE PUSH19 0x4E6F7420696E20636F6D6D6974207068617365 PUSH1 0x68 SHL PUSH1 0x44 DUP3 ADD MSTORE PUSH1 0x64 SWAP1 REVERT JUMPDEST CALLER PUSH1 0x0 MSTORE PUSH1 0x5 PUSH1 0x20 MSTORE PUSH2 0x228A PUSH1 0xFF PUSH1 0x40 PUSH1 0x0 KECCAK256 SLOAD AND PUSH2 0x1DB2 JUMP JUMPDEST CALLER PUSH1 0x0 MSTORE PUSH1 0x4 PUSH1 0x20 MSTORE PUSH1 0x40 PUSH1 0x0 KECCAK256 SLOAD SWAP1 DUP2 PUSH1 0x0 MSTORE PUSH1 0x3 PUSH1 0x20 MSTORE PUSH1 0x40 PUSH1 0x0 KECCAK256 SWAP1 PUSH1 0xFF DUP3 SLOAD AND PUSH1 0x5 DUP2 LT ISZERO PUSH2 0x674 JUMPI PUSH1 0x2 PUSH2 0x22C3 SWAP2 EQ PUSH2 0x1DF7 JUMP JUMPDEST PUSH1 0xD DUP3 ADD SWAP1 PUSH1 0x1 DUP1 PUSH1 0xA0 SHL SUB CALLER AND PUSH1 0x0 MSTORE DUP2 PUSH1 0x20 MSTORE PUSH1 0x15 PUSH1 0x40 PUSH1 0x0 KECCAK256 SLOAD EQ PUSH2 0x240D JUMPI PUSH2 0x22F4 PUSH1 0x1 DUP1 DUP6 ADD SLOAD EQ PUSH2 0x222E JUMP JUMPDEST PUSH1 0x11 DUP4 ADD SWAP1 PUSH1 0x1 DUP1 PUSH1 0xA0 SHL SUB CALLER AND PUSH1 0x0 MSTORE DUP2 PUSH1 0x20 MSTORE PUSH1 0xFF PUSH1 0x40 PUSH1 0x0 KECCAK256 SLOAD AND PUSH2 0x23D4 JUMPI PUSH1 0x2 DUP5 ADD SLOAD TIMESTAMP GT PUSH2 0x23B0 JUMPI CALLER PUSH1 0x0 SWAP1 DUP2 MSTORE PUSH1 0xF DUP6 ADD PUSH1 0x20 SWAP1 DUP2 MSTORE PUSH1 0x40 DUP1 DUP4 KECCAK256 SWAP4 SWAP1 SWAP4 SSTORE SWAP3 DUP4 MSTORE DUP2 DUP2 KECCAK256 DUP1 SLOAD PUSH1 0xFF NOT AND PUSH1 0x1 OR SWAP1 SSTORE SWAP3 SWAP1 SWAP2 MSTORE SWAP1 KECCAK256 SLOAD PUSH1 0x15 GT PUSH2 0x239B JUMPI JUMPDEST CALLER DUP3 PUSH32 0x2E6ED0CAE7A81E1893017DFAFD5FBAF8594ADCC50FF27B5F8EB70E0E90ACF315 PUSH1 0x0 DUP1 LOG3 PUSH1 0x15 PUSH1 0x16 DUP3 ADD SLOAD SWAP2 ADD SLOAD EQ PUSH2 0x2392 JUMPI POP JUMP JUMPDEST PUSH2 0x1FF6 SWAP1 PUSH2 0x31ED JUMP JUMPDEST PUSH1 0x16 DUP2 ADD PUSH2 0x23A9 DUP2 SLOAD PUSH2 0x1C63 JUMP JUMPDEST SWAP1 SSTORE PUSH2 0x2359 JUMP JUMPDEST POP POP POP PUSH1 0xFF SWAP1 PUSH2 0x23BF DUP4 PUSH2 0x3102 JUMP JUMPDEST SLOAD AND PUSH1 0x5 DUP2 LT ISZERO PUSH2 0x674 JUMPI PUSH1 0x4 SUB PUSH2 0x2392 JUMPI POP JUMP JUMPDEST PUSH1 0x40 MLOAD PUSH3 0x461BCD PUSH1 0xE5 SHL DUP2 MSTORE PUSH1 0x20 PUSH1 0x4 DUP3 ADD MSTORE PUSH1 0x11 PUSH1 0x24 DUP3 ADD MSTORE PUSH17 0x105B1C9958591E4818DBDB5B5A5D1D1959 PUSH1 0x7A SHL PUSH1 0x44 DUP3 ADD MSTORE PUSH1 0x64 SWAP1 REVERT JUMPDEST POP POP POP POP JUMP JUMPDEST SWAP3 PUSH2 0x1D59 SWAP5 SWAP3 PUSH2 0x243C SWAP3 DUP6 MSTORE PUSH1 0x1 PUSH1 0x20 DUP7 ADD MSTORE PUSH1 0x40 DUP6 ADD MSTORE PUSH1 0xA0 PUSH1 0x60 DUP6 ADD MSTORE PUSH1 0xA0 DUP5 ADD SWAP1 PUSH2 0x1A31 JUMP JUMPDEST SWAP2 PUSH1 0x80 DUP2 DUP5 SUB SWAP2 ADD MSTORE PUSH2 0x1A31 JUMP JUMPDEST PUSH1 0x40 PUSH1 0x20 DUP3 ADD SWAP2 PUSH1 0x20 DUP2 MSTORE DUP4 SLOAD DUP1 SWAP4 MSTORE ADD SWAP2 PUSH1 0x0 MSTORE PUSH1 0x20 PUSH1 0x0 KECCAK256 SWAP1 PUSH1 0x0 JUMPDEST DUP2 DUP2 LT PUSH2 0x2475 JUMPI POP POP POP SWAP1 JUMP JUMPDEST DUP3 SLOAD PUSH1 0x1 PUSH1 0x1 PUSH1 0xA0 SHL SUB AND DUP5 MSTORE PUSH1 0x20 SWAP1 SWAP4 ADD SWAP3 PUSH1 0x1 SWAP3 DUP4 ADD SWAP3 ADD PUSH2 0x2468 JUMP JUMPDEST SWAP1 DUP2 PUSH1 0x0 MSTORE PUSH1 0x3 PUSH1 0x20 MSTORE PUSH1 0x40 PUSH1 0x0 KECCAK256 PUSH1 0x0 SWAP3 PUSH1 0x0 SWAP2 PUSH1 0xB DUP2 ADD SWAP5 DUP6 SLOAD PUSH1 0x12 DUP4 ADD SWAP5 JUMPDEST DUP2 DUP2 LT PUSH2 0x2B60 JUMPI JUMPDEST POP POP PUSH2 0x2B35 JUMPI JUMPDEST PUSH1 0x0 JUMPDEST DUP6 SLOAD DUP2 LT ISZERO PUSH2 0x262D JUMPI DUP1 PUSH2 0x24DE PUSH1 0x1 SWAP3 DUP9 PUSH2 0x21CA JUMP JUMPDEST DUP4 DUP1 PUSH1 0xA0 SHL SUB SWAP2 SLOAD SWAP1 PUSH1 0x3 SHL SHR AND PUSH1 0xFF PUSH1 0x40 PUSH1 0x0 DUP6 DUP1 PUSH1 0xA0 SHL SUB DUP5 AND DUP2 MSTORE DUP9 PUSH1 0x20 MSTORE KECCAK256 SLOAD AND PUSH2 0x250F JUMPI JUMPDEST POP ADD PUSH2 0x24C8 JUMP JUMPDEST DUP5 PUSH32 0xB5AC3117B47D1355284F96AE97A243BDF1B9879EB07334364220E37D71FBDDA4 PUSH1 0x40 DUP1 PUSH1 0x0 DUP8 DUP1 PUSH1 0xA0 SHL SUB DUP7 AND DUP2 MSTORE PUSH1 0x10 DUP10 ADD PUSH1 0x20 MSTORE KECCAK256 SLOAD PUSH1 0xD DUP9 ADD DUP3 PUSH1 0x0 DUP10 DUP1 PUSH1 0xA0 SHL SUB DUP9 AND DUP2 MSTORE DUP3 PUSH1 0x20 MSTORE KECCAK256 SLOAD SWAP2 PUSH2 0x256B DUP2 DUP5 PUSH2 0x1B50 JUMP JUMPDEST SWAP2 DUP4 DUP9 DUP13 PUSH1 0x15 DUP7 GT PUSH2 0x2624 JUMPI JUMPDEST DUP8 SWAP3 DUP7 SWAP5 SWAP3 PUSH2 0x2586 SWAP3 PUSH2 0x32F7 JUMP JUMPDEST PUSH1 0x0 SWAP1 DUP13 DUP1 PUSH1 0xA0 SHL SUB DUP12 AND DUP3 MSTORE PUSH1 0x20 MSTORE KECCAK256 SSTORE DUP2 PUSH1 0x0 MSTORE PUSH1 0x13 DUP11 ADD PUSH1 0x20 MSTORE DUP4 PUSH1 0x0 KECCAK256 PUSH2 0x25B1 DUP2 SLOAD PUSH2 0x1C63 JUMP JUMPDEST SWAP1 SSTORE DUP2 PUSH1 0x0 MSTORE PUSH1 0x14 DUP11 ADD PUSH1 0x20 MSTORE PUSH2 0x25CB DUP8 DUP6 PUSH1 0x0 KECCAK256 PUSH2 0x21E2 JUMP JUMPDEST DUP4 PUSH1 0x0 DUP11 DUP1 PUSH1 0xA0 SHL SUB DUP10 AND DUP2 MSTORE PUSH1 0xE DUP13 ADD PUSH1 0x20 MSTORE KECCAK256 SSTORE PUSH1 0x15 DUP2 EQ DUP1 PUSH2 0x2613 JUMPI JUMPDEST PUSH2 0x2601 JUMPI JUMPDEST DUP3 MLOAD SWAP2 DUP3 MSTORE PUSH1 0x20 DUP3 ADD MSTORE LOG3 CODESIZE PUSH2 0x2508 JUMP JUMPDEST PUSH2 0x260E DUP7 PUSH1 0x18 DUP12 ADD PUSH2 0x21E2 JUMP JUMPDEST PUSH2 0x25F0 JUMP JUMPDEST POP PUSH2 0x261E DUP7 DUP11 PUSH2 0x3382 JUMP JUMPDEST ISZERO PUSH2 0x25EB JUMP JUMPDEST PUSH1 0x15 SWAP6 POP PUSH2 0x2578 JUMP JUMPDEST POP PUSH1 0x13 DUP2 ADD SWAP5 SWAP2 SWAP4 SWAP1 SWAP3 SWAP1 PUSH1 0x14 DUP5 ADD PUSH1 0x0 JUMPDEST PUSH1 0x15 DUP2 GT ISZERO PUSH2 0x2ABB JUMPI POP PUSH1 0x1 JUMPDEST PUSH1 0x15 DUP2 GT ISZERO PUSH2 0x2986 JUMPI POP POP PUSH1 0x5 DUP5 ADD SWAP5 DUP1 PUSH32 0x8868888CC18628A149BC88CC32A91976AB30E2CD9AECECB0CFE184A73FE551F9 PUSH1 0x20 DUP9 SLOAD PUSH1 0x40 MLOAD SWAP1 DUP2 MSTORE LOG2 PUSH1 0x0 SWAP4 PUSH1 0x8 DUP7 ADD SWAP8 PUSH1 0x11 DUP8 ADD SWAP6 JUMPDEST DUP10 SLOAD DUP2 LT ISZERO PUSH2 0x274E JUMPI DUP1 PUSH2 0x26AD PUSH1 0x1 SWAP3 DUP13 PUSH2 0x21CA JUMP JUMPDEST DUP4 DUP1 PUSH1 0xA0 SHL SUB SWAP2 SLOAD SWAP1 PUSH1 0x3 SHL SHR AND PUSH1 0xFF PUSH1 0x40 PUSH1 0x0 DUP6 DUP1 PUSH1 0xA0 SHL SUB DUP5 AND DUP2 MSTORE DUP12 PUSH1 0x20 MSTORE KECCAK256 SLOAD AND DUP1 ISZERO PUSH2 0x2731 JUMPI JUMPDEST PUSH2 0x26E5 JUMPI JUMPDEST POP ADD PUSH2 0x2697 JUMP JUMPDEST PUSH1 0xA0 DUP4 SWAP1 SHL DUP4 SWAP1 SUB AND PUSH1 0x0 SWAP1 DUP2 MSTORE PUSH1 0x20 DUP10 DUP2 MSTORE PUSH1 0x40 DUP1 DUP4 KECCAK256 DUP1 SLOAD PUSH1 0xFF NOT SWAP1 DUP2 AND SWAP1 SWAP2 SSTORE DUP11 DUP4 MSTORE DUP2 DUP5 KECCAK256 DUP1 SLOAD SWAP1 SWAP2 AND SWAP1 SSTORE PUSH1 0xF DUP13 ADD DUP3 MSTORE DUP1 DUP4 KECCAK256 DUP4 SWAP1 SSTORE PUSH1 0x10 DUP13 ADD SWAP1 SWAP2 MSTORE DUP2 KECCAK256 SSTORE CODESIZE PUSH2 0x26DE JUMP JUMPDEST POP PUSH1 0xFF PUSH1 0x40 PUSH1 0x0 DUP6 DUP1 PUSH1 0xA0 SHL SUB DUP5 AND DUP2 MSTORE DUP11 PUSH1 0x20 MSTORE KECCAK256 SLOAD AND PUSH2 0x26D9 JUMP JUMPDEST POP SWAP4 POP SWAP5 SWAP4 POP SWAP5 SWAP1 SWAP6 PUSH1 0x0 PUSH1 0x16 DUP6 ADD SSTORE PUSH1 0x0 PUSH1 0x17 DUP6 ADD SSTORE PUSH2 0x276E DUP5 PUSH2 0x3098 JUMP JUMPDEST PUSH2 0x2777 DUP5 PUSH2 0x33D2 JUMP JUMPDEST ISZERO PUSH2 0x28A3 JUMPI POP POP PUSH1 0x15 PUSH1 0x0 MSTORE PUSH1 0x20 MSTORE PUSH1 0x40 PUSH1 0x0 KECCAK256 SLOAD PUSH1 0x7 DUP3 ADD SLOAD GT ISZERO PUSH2 0x27F5 JUMPI JUMPDEST DUP1 SLOAD PUSH1 0xFF NOT AND PUSH1 0x4 SWAP1 DUP2 OR DUP3 SSTORE TIMESTAMP SWAP1 DUP3 ADD SSTORE PUSH1 0x18 ADD DUP1 SLOAD PUSH32 0xA7690F576EAEF889EF9EF29D1EAEE6C0E3B073108B66BB8009EC8AF6428BB345 SWAP3 PUSH2 0x27E9 SWAP3 SWAP2 ISZERO PUSH2 0x27EE JUMPI POP JUMPDEST PUSH1 0x40 MLOAD SWAP2 DUP3 SWAP2 DUP3 PUSH2 0x244A JUMP JUMPDEST SUB SWAP1 LOG2 JUMP JUMPDEST SWAP1 POP PUSH2 0x27DD JUMP JUMPDEST DUP2 SLOAD PUSH2 0x2800 DUP2 PUSH2 0x1C72 JUMP JUMPDEST PUSH1 0x0 SWAP2 PUSH1 0xD DUP5 ADD DUP4 JUMPDEST DUP3 DUP2 LT PUSH2 0x284B JUMPI POP POP POP PUSH1 0x0 JUMPDEST DUP3 DUP2 LT PUSH2 0x2825 JUMPI POP POP POP PUSH2 0x2798 JUMP JUMPDEST PUSH1 0x1 SWAP1 PUSH2 0x2845 PUSH1 0x1 PUSH1 0x1 PUSH1 0xA0 SHL SUB PUSH2 0x283D DUP4 DUP7 PUSH2 0x1C0E JUMP JUMPDEST MLOAD AND DUP9 PUSH2 0x2CEB JUMP JUMPDEST ADD PUSH2 0x2816 JUMP JUMPDEST DUP1 PUSH2 0x2858 PUSH1 0x1 SWAP3 DUP10 PUSH2 0x21CA JUMP JUMPDEST DUP4 DUP1 PUSH1 0xA0 SHL SUB SWAP2 SLOAD SWAP1 PUSH1 0x3 SHL SHR AND PUSH1 0x15 PUSH1 0x40 PUSH1 0x0 DUP6 DUP1 PUSH1 0xA0 SHL SUB DUP5 AND DUP2 MSTORE DUP7 PUSH1 0x20 MSTORE KECCAK256 SLOAD LT PUSH2 0x2889 JUMPI JUMPDEST POP ADD PUSH2 0x2809 JUMP JUMPDEST PUSH2 0x289C PUSH2 0x2895 DUP9 PUSH2 0x1C63 JUMP JUMPDEST SWAP8 DUP8 PUSH2 0x1C0E JUMP JUMPDEST MSTORE CODESIZE PUSH2 0x2882 JUMP JUMPDEST SWAP1 SWAP3 SWAP2 SWAP6 SWAP5 SWAP4 POP PUSH2 0x28B4 DUP4 SLOAD PUSH2 0x1C63 JUMP JUMPDEST DUP4 SSTORE PUSH1 0x2 PUSH1 0xFF NOT DUP4 SLOAD AND OR DUP3 SSTORE PUSH1 0x1 DUP1 DUP4 ADD SSTORE PUSH1 0x78 TIMESTAMP ADD SWAP3 DUP4 TIMESTAMP GT PUSH2 0x643 JUMPI DUP4 PUSH1 0x2 DUP5 ADD SSTORE PUSH2 0x28E1 PUSH2 0x1BEB JUMP JUMPDEST SWAP3 PUSH2 0x28EA PUSH2 0x1BEB JUMP JUMPDEST SWAP3 PUSH1 0x0 JUMPDEST PUSH1 0x15 DUP2 GT ISZERO PUSH2 0x2932 JUMPI POP POP POP PUSH32 0x36C6D932CB9691BEE381221CC5177BB28FD438AB828D9ED9ED7C3C546CB5D2B4 SWAP5 SWAP6 SWAP7 POP SWAP1 PUSH2 0x27E9 SWAP2 SLOAD SWAP3 PUSH1 0x40 MLOAD SWAP5 DUP6 SWAP5 DUP6 PUSH2 0x2413 JUMP JUMPDEST DUP1 PUSH2 0x296A SWAP2 PUSH1 0x0 MSTORE DUP11 PUSH1 0x20 MSTORE PUSH1 0x40 PUSH1 0x0 KECCAK256 SLOAD PUSH2 0x294E DUP3 DUP10 PUSH2 0x1C0E JUMP JUMPDEST MSTORE PUSH1 0x0 PUSH1 0x15 DUP3 SUB PUSH2 0x296F JUMPI POP PUSH1 0x7 DUP5 ADD SLOAD JUMPDEST PUSH2 0x611 DUP3 DUP9 PUSH2 0x1C0E JUMP JUMPDEST PUSH2 0x28EE JUMP JUMPDEST POP DUP1 PUSH2 0x297C JUMPI DUP3 SLOAD PUSH2 0x2960 JUMP JUMPDEST PUSH1 0x6 DUP5 ADD SLOAD PUSH2 0x2960 JUMP JUMPDEST DUP1 PUSH1 0x0 SWAP8 SWAP6 SWAP8 MSTORE DUP8 PUSH1 0x20 MSTORE PUSH1 0x40 PUSH1 0x0 KECCAK256 SLOAD PUSH1 0x15 DUP3 EQ PUSH1 0x0 EQ PUSH2 0x2AB1 JUMPI PUSH1 0x7 DUP8 ADD SLOAD JUMPDEST DUP2 GT DUP1 PUSH2 0x2AA7 JUMPI JUMPDEST PUSH2 0x29C7 JUMPI JUMPDEST POP PUSH2 0x29BF SWAP1 PUSH2 0x1C63 JUMP JUMPDEST SWAP6 SWAP4 SWAP6 PUSH2 0x264C JUMP JUMPDEST SWAP8 SWAP2 SWAP3 SWAP4 SWAP6 PUSH2 0x29EF SWAP7 DUP3 PUSH1 0x0 SWAP10 SWAP4 SWAP10 MSTORE DUP5 PUSH1 0x20 MSTORE PUSH2 0x29F6 PUSH1 0x40 PUSH1 0x0 KECCAK256 PUSH1 0x40 MLOAD SWAP10 DUP11 DUP1 SWAP3 PUSH2 0x1CA4 JUMP JUMPDEST SUB DUP10 PUSH2 0x1BB1 JUMP JUMPDEST PUSH1 0xC DUP3 ADD SWAP6 PUSH1 0x0 JUMPDEST DUP10 MLOAD DUP2 LT ISZERO PUSH2 0x2A61 JUMPI PUSH1 0x1 SWAP1 PUSH1 0xFF PUSH1 0x40 PUSH1 0x1 PUSH1 0x1 PUSH1 0xA0 SHL SUB PUSH2 0x2A20 DUP5 DUP16 PUSH2 0x1C0E JUMP JUMPDEST MLOAD AND PUSH1 0x0 SWAP1 DUP6 DUP1 PUSH1 0xA0 SHL SUB AND DUP2 MSTORE DUP12 PUSH1 0x20 MSTORE KECCAK256 SLOAD AND PUSH2 0x2A40 JUMPI JUMPDEST ADD PUSH2 0x29FE JUMP JUMPDEST PUSH2 0x2A5C DUP12 PUSH2 0x2A54 DUP4 DUP6 DUP1 PUSH1 0xA0 SHL SUB SWAP3 PUSH2 0x1C0E JUMP JUMPDEST MLOAD AND DUP12 PUSH2 0x2CEB JUMP JUMPDEST PUSH2 0x2A3A JUMP JUMPDEST POP SWAP5 SWAP4 SWAP10 PUSH2 0x29BF SWAP4 SWAP10 SWAP3 SWAP9 POP DUP8 SWAP2 SWAP7 POP PUSH1 0x40 PUSH32 0xD1D2639F7F04024F3049861F7802EFFAAA3CB181FF4660B1828E7F293A69408B SWAP2 DUP2 MLOAD SWAP1 DUP6 DUP3 MSTORE PUSH1 0x20 DUP3 ADD MSTORE LOG2 SWAP1 PUSH2 0x29B5 JUMP JUMPDEST POP PUSH1 0x15 DUP3 LT PUSH2 0x29B0 JUMP JUMPDEST PUSH1 0x6 DUP8 ADD SLOAD PUSH2 0x29A8 JUMP JUMPDEST DUP1 PUSH1 0x0 SWAP8 SWAP6 SWAP8 MSTORE DUP8 PUSH1 0x20 MSTORE PUSH1 0x40 PUSH1 0x0 KECCAK256 SLOAD DUP2 PUSH1 0x0 MSTORE DUP3 PUSH1 0x20 MSTORE PUSH1 0x40 PUSH1 0x0 KECCAK256 SLOAD SUB PUSH2 0x2AF0 JUMPI PUSH2 0x2AE8 SWAP1 PUSH2 0x1C63 JUMP JUMPDEST SWAP6 SWAP4 SWAP6 PUSH2 0x263F JUMP JUMPDEST PUSH1 0x40 MLOAD PUSH3 0x461BCD PUSH1 0xE5 SHL DUP2 MSTORE PUSH1 0x20 PUSH1 0x4 DUP3 ADD MSTORE PUSH1 0x19 PUSH1 0x24 DUP3 ADD MSTORE PUSH32 0x4C6576656C20706F70756C6174696F6E206D69736D6174636800000000000000 PUSH1 0x44 DUP3 ADD MSTORE PUSH1 0x64 SWAP1 REVERT JUMPDEST PUSH2 0x2B3E DUP3 PUSH2 0x2F64 JUMP JUMPDEST PUSH1 0xFF DUP2 SLOAD AND PUSH1 0x5 DUP2 LT ISZERO PUSH2 0x674 JUMPI PUSH1 0x4 SUB PUSH2 0x24C5 JUMPI SWAP3 SWAP4 POP POP POP PUSH1 0x4 TIMESTAMP SWAP2 ADD SSTORE JUMP JUMPDEST PUSH2 0x2B6A DUP2 DUP10 PUSH2 0x21CA JUMP JUMPDEST SWAP1 SLOAD PUSH1 0x3 SWAP2 SWAP1 SWAP2 SHL SHR PUSH1 0x1 PUSH1 0x1 PUSH1 0xA0 SHL SUB AND PUSH1 0x0 DUP2 DUP2 MSTORE PUSH1 0x20 DUP9 SWAP1 MSTORE PUSH1 0x40 SWAP1 KECCAK256 SLOAD PUSH1 0xFF AND ISZERO SWAP1 DUP2 PUSH2 0x2BAF JUMPI JUMPDEST POP PUSH2 0x2BA3 JUMPI PUSH1 0x1 ADD PUSH2 0x24B6 JUMP JUMPDEST POP POP POP PUSH1 0x1 CODESIZE DUP1 PUSH2 0x24BE JUMP JUMPDEST PUSH1 0x1 PUSH1 0x1 PUSH1 0xA0 SHL SUB AND PUSH1 0x0 SWAP1 DUP2 MSTORE PUSH1 0xD DUP7 ADD PUSH1 0x20 MSTORE PUSH1 0x40 SWAP1 KECCAK256 SLOAD PUSH1 0x15 GT SWAP1 POP CODESIZE PUSH2 0x2B96 JUMP JUMPDEST PUSH1 0x0 SLOAD PUSH1 0x1 PUSH1 0x1 PUSH1 0xA0 SHL SUB AND CALLER SUB PUSH2 0x2BE8 JUMPI JUMP JUMPDEST PUSH4 0x118CDAA7 PUSH1 0xE0 SHL PUSH1 0x0 MSTORE CALLER PUSH1 0x4 MSTORE PUSH1 0x24 PUSH1 0x0 REVERT JUMPDEST DUP1 PUSH1 0x0 MSTORE PUSH1 0x3 PUSH1 0x20 MSTORE PUSH1 0x40 PUSH1 0x0 KECCAK256 PUSH2 0x2C1A PUSH1 0x1 DUP1 DUP4 ADD SLOAD EQ PUSH2 0x222E JUMP JUMPDEST PUSH1 0x2 DUP2 ADD SLOAD TIMESTAMP GT DUP1 ISZERO PUSH2 0x2C8A JUMPI JUMPDEST ISZERO PUSH2 0x2C45 JUMPI PUSH1 0x15 PUSH1 0x16 DUP3 ADD SLOAD SWAP2 ADD SLOAD EQ PUSH2 0x2392 JUMPI PUSH2 0x1FF6 SWAP1 PUSH2 0x3102 JUMP JUMPDEST PUSH1 0x40 MLOAD PUSH3 0x461BCD PUSH1 0xE5 SHL DUP2 MSTORE PUSH1 0x20 PUSH1 0x4 DUP3 ADD MSTORE PUSH1 0x1B PUSH1 0x24 DUP3 ADD MSTORE PUSH32 0x43616E6E6F7420656E6420636F6D6D6974207068617365207965740000000000 PUSH1 0x44 DUP3 ADD MSTORE PUSH1 0x64 SWAP1 REVERT JUMPDEST POP PUSH1 0x16 DUP2 ADD SLOAD PUSH1 0x15 DUP3 ADD SLOAD EQ PUSH2 0x2C28 JUMP JUMPDEST DUP1 ISZERO PUSH2 0x643 JUMPI PUSH1 0x0 NOT ADD SWAP1 JUMP JUMPDEST DUP1 SLOAD DUP1 ISZERO PUSH2 0x2CD5 JUMPI PUSH1 0x0 NOT ADD SWAP1 PUSH2 0x2CBF DUP3 DUP3 PUSH2 0x21CA JUMP JUMPDEST DUP2 SLOAD SWAP1 PUSH1 0x1 DUP1 PUSH1 0xA0 SHL SUB SWAP1 PUSH1 0x3 SHL SHL NOT AND SWAP1 SSTORE SSTORE JUMP JUMPDEST PUSH4 0x4E487B71 PUSH1 0xE0 SHL PUSH1 0x0 MSTORE PUSH1 0x31 PUSH1 0x4 MSTORE PUSH1 0x24 PUSH1 0x0 REVERT JUMPDEST SWAP1 PUSH1 0x0 SWAP2 DUP1 DUP4 MSTORE PUSH1 0x3 PUSH1 0x20 MSTORE PUSH1 0x40 DUP4 KECCAK256 SWAP2 PUSH1 0xC DUP4 ADD PUSH1 0x1 DUP1 PUSH1 0xA0 SHL SUB DUP3 AND DUP6 MSTORE DUP1 PUSH1 0x20 MSTORE PUSH1 0xFF PUSH1 0x40 DUP7 KECCAK256 SLOAD AND ISZERO PUSH2 0x2F2B JUMPI PUSH1 0x1 PUSH1 0x1 PUSH1 0xA0 SHL SUB DUP3 AND DUP6 MSTORE PUSH1 0xD DUP5 ADD PUSH1 0x20 MSTORE PUSH1 0x40 DUP6 KECCAK256 SLOAD PUSH1 0x15 SWAP1 PUSH2 0x2D42 DUP2 DUP6 DUP9 PUSH2 0x32F7 JUMP JUMPDEST LT PUSH2 0x2EC1 JUMPI JUMPDEST PUSH1 0x1 DUP1 PUSH1 0xA0 SHL SUB DUP3 AND DUP6 MSTORE PUSH1 0x20 MSTORE PUSH1 0x40 DUP5 KECCAK256 PUSH1 0xFF NOT DUP2 SLOAD AND SWAP1 SSTORE PUSH1 0x1 DUP1 PUSH1 0xA0 SHL SUB AND SWAP2 DUP3 DUP5 MSTORE PUSH1 0x5 PUSH1 0x20 MSTORE PUSH1 0x40 DUP5 KECCAK256 PUSH1 0xFF NOT DUP2 SLOAD AND SWAP1 SSTORE DUP3 DUP5 MSTORE PUSH1 0x4 PUSH1 0x20 MSTORE DUP4 PUSH1 0x40 DUP2 KECCAK256 SSTORE DUP4 PUSH1 0xB DUP3 ADD SWAP5 JUMPDEST DUP6 SLOAD DUP1 DUP3 LT ISZERO PUSH2 0x2EB5 JUMPI DUP6 PUSH2 0x2DA9 DUP4 DUP10 PUSH2 0x21CA JUMP JUMPDEST SWAP1 SLOAD PUSH1 0x3 SWAP2 SWAP1 SWAP2 SHL SHR PUSH1 0x1 PUSH1 0x1 PUSH1 0xA0 SHL SUB AND EQ PUSH2 0x2DC9 JUMPI POP PUSH1 0x1 ADD PUSH2 0x2D94 JUMP JUMPDEST PUSH1 0x0 SWAP7 SWAP3 SWAP4 SWAP5 SWAP6 SWAP7 NOT DUP2 ADD SWAP1 DUP2 GT PUSH2 0x2EA1 JUMPI DUP3 SWAP2 PUSH2 0x220A PUSH2 0x2DF0 PUSH2 0x2E09 SWAP4 PUSH2 0x2E0E SWAP7 PUSH2 0x21CA JUMP JUMPDEST SWAP1 SLOAD PUSH1 0x3 SWAP2 SWAP1 SWAP2 SHL SHR PUSH1 0x1 PUSH1 0x1 PUSH1 0xA0 SHL SUB AND SWAP2 DUP5 PUSH2 0x21CA JUMP JUMPDEST PUSH2 0x2CA8 JUMP JUMPDEST PUSH2 0x2E17 DUP3 PUSH2 0x3098 JUMP JUMPDEST PUSH1 0x1 SLOAD PUSH1 0x1 PUSH1 0x1 PUSH1 0xA0 SHL SUB AND DUP1 EXTCODESIZE ISZERO PUSH2 0x2E9D JUMPI SWAP1 DUP1 DUP1 PUSH1 0xA SWAP5 SWAP4 PUSH1 0x24 PUSH1 0x40 MLOAD DUP1 SWAP5 DUP2 SWAP4 PUSH4 0x3EF6CF1D PUSH1 0xE2 SHL DUP4 MSTORE DUP12 PUSH1 0x4 DUP5 ADD MSTORE GAS CALL PUSH2 0x2E8D JUMPI JUMPDEST POP POP DUP4 PUSH1 0x0 MSTORE ADD PUSH1 0x20 MSTORE PUSH32 0x51479C93D7646904D2282E9E79CDDF11999AC774B7FD0289E2F59CB4AD0F086A PUSH1 0x20 PUSH1 0x40 PUSH1 0x0 KECCAK256 SLOAD PUSH1 0x40 MLOAD SWAP1 DUP2 MSTORE LOG3 JUMP JUMPDEST DUP2 PUSH2 0x2E97 SWAP2 PUSH2 0x1BB1 JUMP JUMPDEST CODESIZE PUSH2 0x2E51 JUMP JUMPDEST POP DUP1 REVERT JUMPDEST PUSH4 0x4E487B71 PUSH1 0xE0 SHL DUP5 MSTORE PUSH1 0x11 PUSH1 0x4 MSTORE PUSH1 0x24 DUP5 REVERT JUMPDEST POP POP SWAP1 SWAP2 SWAP3 SWAP4 POP PUSH2 0x2E0E JUMP JUMPDEST PUSH1 0x1 PUSH1 0x1 PUSH1 0xA0 SHL SUB DUP3 AND DUP6 MSTORE PUSH1 0x11 DUP5 ADD PUSH1 0x20 MSTORE PUSH1 0x40 DUP6 KECCAK256 SLOAD PUSH1 0xFF AND PUSH2 0x2F16 JUMPI JUMPDEST PUSH1 0x1 PUSH1 0x1 PUSH1 0xA0 SHL SUB DUP3 AND DUP6 MSTORE PUSH1 0x12 DUP5 ADD PUSH1 0x20 MSTORE PUSH1 0x40 DUP6 KECCAK256 SLOAD PUSH1 0xFF AND ISZERO PUSH2 0x2D48 JUMPI PUSH1 0x17 DUP5 ADD PUSH2 0x2F0F DUP2 SLOAD PUSH2 0x2C9B JUMP JUMPDEST SWAP1 SSTORE PUSH2 0x2D48 JUMP JUMPDEST PUSH1 0x16 DUP5 ADD PUSH2 0x2F24 DUP2 SLOAD PUSH2 0x2C9B JUMP JUMPDEST SWAP1 SSTORE PUSH2 0x2EE1 JUMP JUMPDEST PUSH1 0x40 MLOAD PUSH3 0x461BCD PUSH1 0xE5 SHL DUP2 MSTORE PUSH1 0x20 PUSH1 0x4 DUP3 ADD MSTORE PUSH1 0x11 PUSH1 0x24 DUP3 ADD MSTORE PUSH17 0x506C61796572206E6F7420616374697665 PUSH1 0x78 SHL PUSH1 0x44 DUP3 ADD MSTORE PUSH1 0x64 SWAP1 REVERT JUMPDEST DUP1 PUSH1 0x0 MSTORE PUSH1 0x3 PUSH1 0x20 MSTORE PUSH1 0x40 PUSH1 0x0 KECCAK256 PUSH1 0xB DUP2 ADD SWAP1 DUP2 SLOAD PUSH2 0x2F82 DUP2 PUSH2 0x1C72 JUMP JUMPDEST PUSH1 0x0 SWAP2 PUSH1 0x12 DUP5 ADD DUP4 JUMPDEST DUP3 DUP2 LT PUSH2 0x3020 JUMPI POP POP POP PUSH1 0x0 JUMPDEST DUP3 DUP2 LT PUSH2 0x3002 JUMPI POP POP POP PUSH2 0x2FAB DUP2 PUSH2 0x3098 JUMP JUMPDEST PUSH1 0x2 DUP3 SLOAD LT PUSH2 0x2FB9 JUMPI POP POP POP JUMP JUMPDEST DUP1 SLOAD PUSH1 0xFF NOT AND PUSH1 0x4 OR DUP2 SSTORE PUSH1 0x18 ADD DUP1 SLOAD PUSH32 0xA7690F576EAEF889EF9EF29D1EAEE6C0E3B073108B66BB8009EC8AF6428BB345 SWAP3 PUSH2 0x27E9 SWAP3 SWAP2 ISZERO PUSH2 0x27EE JUMPI POP PUSH1 0x40 MLOAD SWAP2 DUP3 SWAP2 DUP3 PUSH2 0x244A JUMP JUMPDEST PUSH1 0x1 SWAP1 PUSH2 0x301A PUSH1 0x1 PUSH1 0x1 PUSH1 0xA0 SHL SUB PUSH2 0x283D DUP4 DUP7 PUSH2 0x1C0E JUMP JUMPDEST ADD PUSH2 0x2F98 JUMP JUMPDEST DUP1 PUSH2 0x302D PUSH1 0x1 SWAP3 DUP10 PUSH2 0x21CA JUMP JUMPDEST DUP4 DUP1 PUSH1 0xA0 SHL SUB SWAP2 SLOAD SWAP1 PUSH1 0x3 SHL SHR AND PUSH1 0xFF PUSH1 0x40 PUSH1 0x0 DUP6 DUP1 PUSH1 0xA0 SHL SUB DUP5 AND DUP2 MSTORE DUP7 PUSH1 0x20 MSTORE KECCAK256 SLOAD AND ISZERO DUP1 PUSH2 0x3078 JUMPI JUMPDEST PUSH2 0x3065 JUMPI JUMPDEST POP ADD PUSH2 0x2F8B JUMP JUMPDEST PUSH2 0x3071 PUSH2 0x2895 DUP9 PUSH2 0x1C63 JUMP JUMPDEST MSTORE CODESIZE PUSH2 0x305E JUMP JUMPDEST POP PUSH1 0x15 PUSH1 0x40 PUSH1 0x0 DUP6 DUP1 PUSH1 0xA0 SHL SUB DUP5 AND DUP2 MSTORE PUSH1 0xD DUP12 ADD PUSH1 0x20 MSTORE KECCAK256 SLOAD LT PUSH2 0x3059 JUMP JUMPDEST PUSH1 0x0 DUP1 JUMPDEST PUSH1 0xB DUP4 ADD DUP1 SLOAD DUP3 LT ISZERO PUSH2 0x30F9 JUMPI PUSH1 0x40 PUSH2 0x30B7 DUP4 PUSH1 0x15 SWAP4 PUSH2 0x21CA JUMP JUMPDEST SWAP1 SLOAD PUSH1 0x3 SWAP2 SWAP1 SWAP2 SHL SHR PUSH1 0x1 PUSH1 0x1 PUSH1 0xA0 SHL SUB AND PUSH1 0x0 SWAP1 DUP2 MSTORE PUSH1 0xD DUP7 ADD PUSH1 0x20 MSTORE KECCAK256 SLOAD LT PUSH2 0x30E5 JUMPI JUMPDEST PUSH1 0x1 ADD PUSH2 0x309C JUMP JUMPDEST SWAP1 PUSH2 0x30F1 PUSH1 0x1 SWAP2 PUSH2 0x1C63 JUMP JUMPDEST SWAP2 SWAP1 POP PUSH2 0x30DD JUMP JUMPDEST POP POP SWAP1 PUSH1 0x15 ADD SSTORE JUMP JUMPDEST DUP1 PUSH1 0x0 MSTORE PUSH1 0x3 PUSH1 0x20 MSTORE PUSH1 0x40 PUSH1 0x0 KECCAK256 PUSH1 0xB DUP2 ADD SWAP1 DUP2 SLOAD PUSH2 0x3120 DUP2 PUSH2 0x1C72 JUMP JUMPDEST PUSH1 0x0 SWAP2 PUSH1 0x11 DUP5 ADD DUP4 JUMPDEST DUP3 DUP2 LT PUSH2 0x3175 JUMPI POP POP POP PUSH1 0x0 JUMPDEST DUP3 DUP2 LT PUSH2 0x3157 JUMPI POP POP POP PUSH2 0x3149 DUP2 PUSH2 0x3098 JUMP JUMPDEST PUSH1 0x2 DUP3 SLOAD LT PUSH2 0x2798 JUMPI POP POP POP JUMP JUMPDEST PUSH1 0x1 SWAP1 PUSH2 0x316F PUSH1 0x1 PUSH1 0x1 PUSH1 0xA0 SHL SUB PUSH2 0x283D DUP4 DUP7 PUSH2 0x1C0E JUMP JUMPDEST ADD PUSH2 0x3136 JUMP JUMPDEST DUP1 PUSH2 0x3182 PUSH1 0x1 SWAP3 DUP10 PUSH2 0x21CA JUMP JUMPDEST DUP4 DUP1 PUSH1 0xA0 SHL SUB SWAP2 SLOAD SWAP1 PUSH1 0x3 SHL SHR AND PUSH1 0xFF PUSH1 0x40 PUSH1 0x0 DUP6 DUP1 PUSH1 0xA0 SHL SUB DUP5 AND DUP2 MSTORE DUP7 PUSH1 0x20 MSTORE KECCAK256 SLOAD AND ISZERO DUP1 PUSH2 0x31CD JUMPI JUMPDEST PUSH2 0x31BA JUMPI JUMPDEST POP ADD PUSH2 0x3129 JUMP JUMPDEST PUSH2 0x31C6 PUSH2 0x2895 DUP9 PUSH2 0x1C63 JUMP JUMPDEST MSTORE CODESIZE PUSH2 0x31B3 JUMP JUMPDEST POP PUSH1 0x15 PUSH1 0x40 PUSH1 0x0 DUP6 DUP1 PUSH1 0xA0 SHL SUB DUP5 AND DUP2 MSTORE PUSH1 0xD DUP12 ADD PUSH1 0x20 MSTORE KECCAK256 SLOAD LT PUSH2 0x31AE JUMP JUMPDEST SWAP1 DUP2 PUSH1 0x0 MSTORE PUSH1 0x3 PUSH1 0x20 MSTORE PUSH1 0x40 PUSH1 0x0 KECCAK256 SWAP2 PUSH1 0x2 PUSH1 0x1 DUP5 ADD SSTORE PUSH1 0x3C TIMESTAMP ADD DUP1 TIMESTAMP GT PUSH2 0x643 JUMPI DUP1 PUSH1 0x2 DUP6 ADD SSTORE PUSH2 0x321D PUSH2 0x1BEB JUMP JUMPDEST PUSH2 0x3225 PUSH2 0x1BEB JUMP JUMPDEST SWAP5 PUSH1 0x13 DUP2 ADD PUSH1 0x0 JUMPDEST PUSH1 0x15 DUP2 GT ISZERO PUSH2 0x329B JUMPI POP POP PUSH32 0x36C6D932CB9691BEE381221CC5177BB28FD438AB828D9ED9ED7C3C546CB5D2B4 SWAP4 SWAP5 SWAP6 PUSH2 0x328D PUSH1 0x5 PUSH2 0x27E9 SWAP4 ADD SLOAD SWAP4 PUSH1 0x40 MLOAD SWAP6 DUP7 SWAP6 DUP7 MSTORE PUSH1 0x2 PUSH1 0x20 DUP8 ADD MSTORE PUSH1 0x40 DUP7 ADD MSTORE PUSH1 0xA0 PUSH1 0x60 DUP7 ADD MSTORE PUSH1 0xA0 DUP6 ADD SWAP1 PUSH2 0x1A31 JUMP JUMPDEST SWAP1 DUP4 DUP3 SUB PUSH1 0x80 DUP6 ADD MSTORE PUSH2 0x1A31 JUMP JUMPDEST DUP1 PUSH2 0x32CC SWAP2 PUSH1 0x0 MSTORE DUP3 PUSH1 0x20 MSTORE PUSH1 0x40 PUSH1 0x0 KECCAK256 SLOAD PUSH2 0x32B7 DUP3 DUP8 PUSH2 0x1C0E JUMP JUMPDEST MSTORE DUP1 PUSH2 0x32D1 JUMPI PUSH1 0x8 DUP5 ADD SLOAD PUSH2 0x611 DUP3 DUP12 PUSH2 0x1C0E JUMP JUMPDEST PUSH2 0x322D JUMP JUMPDEST PUSH1 0x15 DUP2 SUB PUSH2 0x32E8 JUMPI PUSH1 0x7 DUP5 ADD SLOAD PUSH2 0x611 DUP3 DUP12 PUSH2 0x1C0E JUMP JUMPDEST PUSH1 0x6 DUP5 ADD SLOAD PUSH2 0x611 DUP3 DUP12 PUSH2 0x1C0E JUMP JUMPDEST PUSH1 0x14 SWAP2 SWAP3 DUP1 PUSH1 0x0 MSTORE PUSH1 0x13 DUP3 ADD PUSH1 0x20 MSTORE PUSH1 0x40 PUSH1 0x0 KECCAK256 PUSH2 0x3315 DUP2 SLOAD PUSH2 0x2C9B JUMP JUMPDEST SWAP1 SSTORE PUSH1 0x0 MSTORE ADD PUSH1 0x20 MSTORE PUSH1 0x40 PUSH1 0x0 KECCAK256 PUSH1 0x0 JUMPDEST DUP2 SLOAD DUP1 DUP3 LT ISZERO PUSH2 0x240D JUMPI PUSH2 0x333A DUP3 DUP5 PUSH2 0x21CA JUMP JUMPDEST SWAP1 SLOAD PUSH1 0x3 SWAP2 SWAP1 SWAP2 SHL SHR PUSH1 0x1 PUSH1 0x1 PUSH1 0xA0 SHL SUB SWAP1 DUP2 AND SWAP1 DUP6 AND EQ PUSH2 0x335F JUMPI POP PUSH1 0x1 ADD PUSH2 0x3326 JUMP JUMPDEST SWAP1 SWAP3 POP PUSH1 0x0 NOT DUP2 ADD SWAP1 DUP2 GT PUSH2 0x643 JUMPI PUSH2 0x1FF6 SWAP3 PUSH2 0x220A PUSH2 0x2DF0 PUSH2 0x2E09 SWAP4 DUP6 PUSH2 0x21CA JUMP JUMPDEST SWAP1 PUSH1 0x0 JUMPDEST PUSH1 0x18 DUP4 ADD DUP1 SLOAD DUP3 LT ISZERO PUSH2 0x33C9 JUMPI DUP2 PUSH2 0x339D SWAP2 PUSH2 0x21CA JUMP JUMPDEST SWAP1 SLOAD PUSH1 0x3 SWAP2 SWAP1 SWAP2 SHL SHR PUSH1 0x1 PUSH1 0x1 PUSH1 0xA0 SHL SUB SWAP1 DUP2 AND SWAP1 DUP4 AND EQ PUSH2 0x33C1 JUMPI PUSH1 0x1 ADD PUSH2 0x3386 JUMP JUMPDEST POP POP POP PUSH1 0x1 SWAP1 JUMP JUMPDEST POP POP POP POP PUSH1 0x0 SWAP1 JUMP JUMPDEST PUSH1 0xB DUP2 ADD SWAP1 DUP2 SLOAD SWAP2 PUSH1 0x2 DUP4 LT DUP1 ISZERO PUSH2 0x3454 JUMPI JUMPDEST PUSH2 0x33C1 JUMPI PUSH1 0x15 PUSH1 0x0 MSTORE PUSH1 0x13 DUP3 ADD PUSH1 0x20 MSTORE PUSH1 0x40 PUSH1 0x0 KECCAK256 SLOAD PUSH1 0x7 DUP4 ADD SLOAD GT ISZERO PUSH2 0x33C1 JUMPI PUSH1 0x0 JUMPDEST DUP4 DUP2 LT PUSH2 0x3419 JUMPI POP POP POP POP PUSH1 0x1 SWAP1 JUMP JUMPDEST PUSH1 0x15 PUSH1 0x40 PUSH2 0x3427 DUP4 DUP6 PUSH2 0x21CA JUMP JUMPDEST SWAP1 SLOAD PUSH1 0x3 SWAP2 SWAP1 SWAP2 SHL SHR PUSH1 0x1 PUSH1 0x1 PUSH1 0xA0 SHL SUB AND PUSH1 0x0 SWAP1 DUP2 MSTORE PUSH1 0xD DUP7 ADD PUSH1 0x20 MSTORE KECCAK256 SLOAD SUB PUSH2 0x33C9 JUMPI PUSH1 0x1 ADD PUSH2 0x3409 JUMP JUMPDEST POP PUSH1 0x14 PUSH1 0x5 DUP4 ADD SLOAD LT ISZERO PUSH2 0x33E5 JUMP INVALID LOG2 PUSH5 0x6970667358 0x22 SLT KECCAK256 PUSH27 0x45B1739A6525C611702CE9C20339177C9A1C8959C0B057FE4B3697 SLOAD 0xDF 0xDC TLOAD PUSH5 0x736F6C6343 STOP ADDMOD SHR STOP CALLER "},"methodIdentifiers":{"commitMove(bytes32)":"a9ea37b6","endExpiredGames()":"d0f3a21e","endGame()":"6cbc2ded","gameIdCounter()":"1bb412d6","gameMaster()":"bdf84ae7","getActivePlayers()":"3c4f5a66","getCurrentPhase(uint256)":"572e85ec","getGameInfo(uint256)":"47e1d550","getGameName()":"bbda33d9","getGameState(uint256)":"ffde0c74","getGames()":"c04c5947","getLastMove(uint256,address)":"d7bdf85f","getLevelCapacities(uint256)":"1336e25c","getLevelPopulation(uint256,uint256)":"36c86ede","getLevelPopulations(uint256)":"ab594a21","getPlayerGameId(address)":"773b549d","getPlayerInfo(uint256)":"ea17532e","getPlayerLevel(uint256,address)":"18979f9e","getPlayerNumber(uint256,address)":"3532804d","getPlayers()":"8b5b9ccc","getRoundEndTime(uint256)":"12b19a13","getWinners(uint256)":"6b1426a4","hasPlayerCommitted(uint256,address)":"84cd7d33","hasPlayerRevealed(uint256,address)":"d216b62b","initialize(address[],uint256[])":"7fbbe46f","isPlayerInGame(address)":"574a5b20","owner()":"8da5cb5b","playerGameId(address)":"25b05c88","registerMe()":"9a198d61","renounceOwnership()":"715018a6","revealMove(uint256,bytes32)":"7d1ddd34","setGameMaster(address)":"c2e94927","startGames()":"e81de9f5","transferOwnership(address)":"f2fde38b"}}}}}