{"contracts/games/Bidding.sol":{"Bidding":{"abi":[{"inputs":[],"stateMutability":"nonpayable","type":"constructor"},{"inputs":[{"internalType":"address","name":"owner","type":"address"}],"name":"OwnableInvalidOwner","type":"error"},{"inputs":[{"internalType":"address","name":"account","type":"address"}],"name":"OwnableUnauthorizedAccount","type":"error"},{"anonymous":false,"inputs":[{"indexed":true,"internalType":"uint256","name":"gameId","type":"uint256"},{"indexed":false,"internalType":"address[]","name":"winners","type":"address[]"}],"name":"GameCompleted","type":"event"},{"anonymous":false,"inputs":[{"indexed":false,"internalType":"address[]","name":"players","type":"address[]"},{"indexed":false,"internalType":"uint256[]","name":"playerNumbers","type":"uint256[]"}],"name":"GameInitialized","type":"event"},{"anonymous":false,"inputs":[{"indexed":false,"internalType":"address","name":"newGameMaster","type":"address"}],"name":"GameMasterChanged","type":"event"},{"anonymous":false,"inputs":[{"indexed":true,"internalType":"address","name":"previousOwner","type":"address"},{"indexed":true,"internalType":"address","name":"newOwner","type":"address"}],"name":"OwnershipTransferred","type":"event"},{"anonymous":false,"inputs":[{"indexed":true,"internalType":"uint256","name":"gameId","type":"uint256"},{"indexed":true,"internalType":"address","name":"player","type":"address"}],"name":"PlayerCommitted","type":"event"},{"anonymous":false,"inputs":[{"indexed":true,"internalType":"uint256","name":"gameId","type":"uint256"},{"indexed":true,"internalType":"address","name":"player","type":"address"},{"indexed":false,"internalType":"uint256","name":"playerNumber","type":"uint256"}],"name":"PlayerEliminated","type":"event"},{"anonymous":false,"inputs":[{"indexed":true,"internalType":"uint256","name":"gameId","type":"uint256"},{"indexed":true,"internalType":"address","name":"player","type":"address"},{"indexed":false,"internalType":"uint256","name":"bid","type":"uint256"}],"name":"PlayerRevealed","type":"event"},{"anonymous":false,"inputs":[{"indexed":true,"internalType":"uint256","name":"gameId","type":"uint256"},{"indexed":true,"internalType":"address","name":"player","type":"address"},{"indexed":false,"internalType":"uint256","name":"bid","type":"uint256"},{"indexed":false,"internalType":"uint256","name":"remainingPoints","type":"uint256"}],"name":"PointsDeducted","type":"event"},{"anonymous":false,"inputs":[{"indexed":true,"internalType":"uint256","name":"gameId","type":"uint256"},{"indexed":false,"internalType":"uint256","name":"roundNumber","type":"uint256"},{"indexed":false,"internalType":"uint256","name":"phase","type":"uint256"},{"indexed":false,"internalType":"uint256","name":"endTime","type":"uint256"}],"name":"RoundStarted","type":"event"},{"inputs":[{"internalType":"bytes32","name":"commitment","type":"bytes32"}],"name":"commitBid","outputs":[],"stateMutability":"nonpayable","type":"function"},{"inputs":[],"name":"endExpiredGames","outputs":[],"stateMutability":"nonpayable","type":"function"},{"inputs":[],"name":"endGame","outputs":[{"internalType":"address[]","name":"","type":"address[]"}],"stateMutability":"nonpayable","type":"function"},{"inputs":[],"name":"gameIdCounter","outputs":[{"internalType":"uint256","name":"","type":"uint256"}],"stateMutability":"view","type":"function"},{"inputs":[],"name":"gameMaster","outputs":[{"internalType":"address","name":"","type":"address"}],"stateMutability":"view","type":"function"},{"inputs":[],"name":"getActivePlayers","outputs":[{"internalType":"address[]","name":"","type":"address[]"}],"stateMutability":"view","type":"function"},{"inputs":[{"internalType":"uint256","name":"gameId","type":"uint256"}],"name":"getCurrentPhase","outputs":[{"internalType":"uint256","name":"","type":"uint256"}],"stateMutability":"view","type":"function"},{"inputs":[{"internalType":"uint256","name":"gameId","type":"uint256"}],"name":"getGameInfo","outputs":[{"components":[{"internalType":"enum GameState","name":"state","type":"uint8"},{"internalType":"uint256","name":"currentRound","type":"uint256"},{"internalType":"uint256","name":"roundEndTime","type":"uint256"},{"internalType":"uint256","name":"gameStartTime","type":"uint256"},{"internalType":"uint256","name":"gameEndTime","type":"uint256"}],"internalType":"struct IGame.GameInfo","name":"","type":"tuple"}],"stateMutability":"view","type":"function"},{"inputs":[],"name":"getGameName","outputs":[{"internalType":"string","name":"","type":"string"}],"stateMutability":"pure","type":"function"},{"inputs":[{"internalType":"uint256","name":"gameId","type":"uint256"}],"name":"getGameState","outputs":[{"internalType":"enum GameState","name":"","type":"uint8"}],"stateMutability":"view","type":"function"},{"inputs":[],"name":"getGames","outputs":[{"components":[{"internalType":"uint256","name":"gameId","type":"uint256"},{"internalType":"enum GameState","name":"state","type":"uint8"},{"internalType":"uint256","name":"currentRound","type":"uint256"},{"internalType":"uint256","name":"activePlayerCount","type":"uint256"}],"internalType":"struct GameInstanceInfo[]","name":"gamesInfo","type":"tuple[]"}],"stateMutability":"view","type":"function"},{"inputs":[{"internalType":"address","name":"player","type":"address"}],"name":"getPlayerGameId","outputs":[{"internalType":"uint256","name":"","type":"uint256"}],"stateMutability":"view","type":"function"},{"inputs":[{"internalType":"uint256","name":"gameId","type":"uint256"}],"name":"getPlayerInfo","outputs":[{"components":[{"internalType":"address","name":"playerAddress","type":"address"},{"internalType":"uint256","name":"playerNumber","type":"uint256"},{"internalType":"uint256","name":"points","type":"uint256"},{"internalType":"bool","name":"hasCommitted","type":"bool"},{"internalType":"bool","name":"hasRevealed","type":"bool"},{"internalType":"bool","name":"isActive","type":"bool"}],"internalType":"struct Bidding.BiddingPlayerInfo[]","name":"","type":"tuple[]"}],"stateMutability":"view","type":"function"},{"inputs":[{"internalType":"uint256","name":"gameId","type":"uint256"},{"internalType":"address","name":"player","type":"address"}],"name":"getPlayerNumber","outputs":[{"internalType":"uint256","name":"","type":"uint256"}],"stateMutability":"view","type":"function"},{"inputs":[{"internalType":"uint256","name":"gameId","type":"uint256"},{"internalType":"address","name":"player","type":"address"}],"name":"getPlayerPoints","outputs":[{"internalType":"uint256","name":"","type":"uint256"}],"stateMutability":"view","type":"function"},{"inputs":[],"name":"getPlayers","outputs":[{"internalType":"address[]","name":"","type":"address[]"}],"stateMutability":"view","type":"function"},{"inputs":[{"internalType":"uint256","name":"gameId","type":"uint256"}],"name":"getRoundEndTime","outputs":[{"internalType":"uint256","name":"","type":"uint256"}],"stateMutability":"view","type":"function"},{"inputs":[{"internalType":"uint256","name":"gameId","type":"uint256"},{"internalType":"address","name":"player","type":"address"}],"name":"hasPlayerCommitted","outputs":[{"internalType":"bool","name":"","type":"bool"}],"stateMutability":"view","type":"function"},{"inputs":[{"internalType":"uint256","name":"gameId","type":"uint256"},{"internalType":"address","name":"player","type":"address"}],"name":"hasPlayerRevealed","outputs":[{"internalType":"bool","name":"","type":"bool"}],"stateMutability":"view","type":"function"},{"inputs":[{"internalType":"address[]","name":"_players","type":"address[]"},{"internalType":"uint256[]","name":"_playerNumbers","type":"uint256[]"}],"name":"initialize","outputs":[],"stateMutability":"nonpayable","type":"function"},{"inputs":[{"internalType":"address","name":"","type":"address"}],"name":"isPlayerInGame","outputs":[{"internalType":"bool","name":"","type":"bool"}],"stateMutability":"view","type":"function"},{"inputs":[],"name":"owner","outputs":[{"internalType":"address","name":"","type":"address"}],"stateMutability":"view","type":"function"},{"inputs":[{"internalType":"address","name":"","type":"address"}],"name":"playerGameId","outputs":[{"internalType":"uint256","name":"","type":"uint256"}],"stateMutability":"view","type":"function"},{"inputs":[],"name":"registerMe","outputs":[],"stateMutability":"nonpayable","type":"function"},{"inputs":[],"name":"renounceOwnership","outputs":[],"stateMutability":"nonpayable","type":"function"},{"inputs":[{"internalType":"uint256","name":"bid","type":"uint256"},{"internalType":"bytes32","name":"salt","type":"bytes32"}],"name":"revealBid","outputs":[],"stateMutability":"nonpayable","type":"function"},{"inputs":[{"internalType":"address","name":"_newGameMaster","type":"address"}],"name":"setGameMaster","outputs":[],"stateMutability":"nonpayable","type":"function"},{"inputs":[],"name":"startGames","outputs":[{"internalType":"bool","name":"","type":"bool"}],"stateMutability":"nonpayable","type":"function"},{"inputs":[{"internalType":"address","name":"newOwner","type":"address"}],"name":"transferOwnership","outputs":[],"stateMutability":"nonpayable","type":"function"}],"evm":{"bytecode":{"linkReferences":{},"object":"60808060405234608757331560715760008054336001600160a01b0319821681178355916001600160a01b03909116907f8be0079c531659141344cd1fd0a4f28419497f9722a3daafe3b4186f6b6457e09080a3600180546001600160a01b03191633179055612819908161008d8239f35b631e4fbdf760e01b600052600060045260246000fd5b600080fdfe6080604052600436101561001257600080fd5b60003560e01c806312b19a13146116f35780631bb412d6146116d557806325b05c88146112105780633532804d1461163a5780633c4f5a661461155d57806347e1d5501461147f57806353fb1cd2146113e4578063572e85ec14611397578063574a5b201461135857806362c5424a146113395780636cbc2ded146112a3578063715018a61461124a578063773b549d146112105780637fbbe46f14610d7f57806384cd7d3314610d1057806386a2cc2714610b525780638b5b9ccc14610a5d5780638da5cb5b14610a345780639a198d611461093e578063bbda33d9146108c0578063bdf84ae714610897578063c04c594714610732578063c2e9492714610677578063d0f3a21e146105c5578063d216b62b14610556578063e81de9f514610448578063ea17532e1461023d578063f2fde38b146101b45763ffde0c741461015b57600080fd5b346101af5760203660031901126101af57600435801515806101a3575b610181906117ed565b6000526003602052602060ff604060002054166101a160405180926117af565bf35b50600254811115610178565b600080fd5b346101af5760203660031901126101af576101cd611740565b6101d5612589565b6001600160a01b0316801561022757600080546001600160a01b03198116831782556001600160a01b0316907f8be0079c531659141344cd1fd0a4f28419497f9722a3daafe3b4186f6b6457e09080a3005b631e4fbdf760e01b600052600060045260246000fd5b346101af5760203660031901126101af576004358015158061043c575b610263906117ed565b600052600360205260406000206005810190815490610281826118fe565b9261028f60405194856118dc565b828452601f1961029e846118fe565b0160005b8181106103fb57505060006007830192600a810192600d8201906009600e84019301935b878110610354578860405180916020820160208352815180915260206040840192019060005b8181106102fa575050500390f35b91935091602060c060019260a087518580831b0381511683528481015185840152604081015160408401526060810151151560608401526080810151151560808401520151151560a08201520194019101918493926102ec565b8061036160019284611ddf565b905460039190911b1c60a083901b83900316600081815260208a81526040808320548b835281842054898452828520548b855283862054948d9052948390205492519560ff9384169594841694909316929091906103be876118c0565b8652602086015260408501521515606084015215156080830152151560a08201526103e9828c61198b565b526103f4818b61198b565b50016102c6565b60209060405161040a816118c0565b60008152600083820152600060408201526000606082015260006080820152600060a0820152828289010152016102a2565b5060025481111561025a565b346101af5760003660031901126101af5761046e60018060a01b03600154163314611d83565b6001805b60025481116105495780600052600360205260406000209060ff82541660058110156105335760011480610526575b1561051857600260ff198354161782556001808301556078420191824211610502576000805160206127c48339815191526060846011846104fd97600288970155015490604051918252600160208301526040820152a261186c565b610472565b634e487b7160e01b600052601160045260246000fd5b9150506104fd60009161186c565b50600882015415156104a1565b634e487b7160e01b600052602160045260246000fd5b6020826040519015158152f35b346101af5760403660031901126101af57600435610572611756565b90801515806105b9575b610585906117ed565b6000526003602052600e6040600020019060018060a01b0316600052602052602060ff604060002054166040519015158152f35b5060025481111561057c565b346101af5760003660031901126101af5760015b60025481116106755780600052600360205260406000209060ff8254169160058310156105335760026106129314610617575b5061186c565b6105d9565b60018101546001811480610668575b1561063c57505061063681611e85565b8261060c565b600214908161065a575b501561063657610655816120be565b610636565b600291500154421183610646565b5060028201544211610626565b005b346101af5760203660031901126101af57610690611740565b610698612589565b6001600160a01b031680156106ed576020817f63860f6674590a6969c4fe1dc738a9c8f955407c09e6c67a6bdb818f4c35cd8a926bffffffffffffffffffffffff60a01b6001541617600155604051908152a1005b60405162461bcd60e51b815260206004820152601a60248201527f496e76616c69642047616d654d617374657220616464726573730000000000006044820152606490fd5b346101af5760003660031901126101af5760025461074f816118fe565b9061075d60405192836118dc565b808252601f1961076c826118fe565b0160005b81811061086457505060015b818111156107f3578260405180916020820160208352815180915260206040840192019060005b8181106107b1575050500390f35b919350916020608060019260608751805183526107d485820151868501906117af565b60408101516040840152015160608201520194019101918493926107a3565b80600052600360205260406000209060ff82541691600860018201549101549061082f60405194610823866118a4565b848652602086016119b5565b60408401526060830152600019810191818311610502578261060c9161085861085f958861198b565b528561198b565b61077c565b602090604051610873816118a4565b60008152600083820152600060408201526000606082015282828701015201610770565b346101af5760003660031901126101af576001546040516001600160a01b039091168152602090f35b346101af5760003660031901126101af5760408051906108e081836118dc565b600782526642696464696e6760c81b6020830152805180926020825280519081602084015260005b8281106109275750506000828201840152601f01601f19168101030190f35b602082820181015187830187015286945001610908565b346101af5760003660031901126101af5760008060405160208101906307983f4560e21b8252609760248201526024815261097a6044826118dc565b51908273dc2b0d2dd2b7759d97d50db4eabdc369731108305af13d15610a2f573d67ffffffffffffffff8111610a1957604051906109c2601f8201601f1916602001836118dc565b8152600060203d92013e5b156109d457005b60405162461bcd60e51b815260206004820152601860248201527f4665654d20726567697374726174696f6e206661696c656400000000000000006044820152606490fd5b634e487b7160e01b600052604160045260246000fd5b6109cd565b346101af5760003660031901126101af576000546040516001600160a01b039091168152602090f35b346101af5760003660031901126101af57600254600160005b82821115610b2757610a889150611916565b6000916001905b80821115610aa95760405180610aa5858261176c565b0390f35b610ad090826000949394526003602052610ad7600560406000200160405193848092611948565b03836118dc565b60005b8251811015610b14576001906001600160a01b03610af8828661198b565b5116610b0d610b068961186c565b988761198b565b5201610ada565b509192610b21915061186c565b90610a8f565b610b46610b4c918360005260036020526005604060002001549061187b565b9161186c565b90610a76565b346101af5760203660031901126101af57336000526005602052610b7d60ff604060002054166119c1565b336000526004602052604060002054806000526003602052604060002060ff8154166005811015610533576002610bb49114611a06565b6001810190610bc66001835414611e43565b600281019182544211610cd557336000908152600d8301602081905260409091205460ff16610c9c57336000908152600b840160209081526040808320600435905592905220805460ff19166001179055600f82018054909190610c299061186c565b8092556040519133867f2e6ed0cae7a81e1893017dfafd5fbaf8594adcc50ff27b5f8eb70e0e90acf315600080a3600884015414610c6357005b60029055603c4201804211610502576011606093826000805160206127c4833981519152965501548252600260208301526040820152a2005b60405162461bcd60e51b8152602060048201526011602482015270105b1c9958591e4818dbdb5b5a5d1d1959607a1b6044820152606490fd5b60405162461bcd60e51b815260206004820152601360248201527210dbdb5b5a5d081c195c9a5bd908195b991959606a1b6044820152606490fd5b346101af5760403660031901126101af57600435610d2c611756565b9080151580610d73575b610d3f906117ed565b6000526003602052600d6040600020019060018060a01b0316600052602052602060ff604060002054166040519015158152f35b50600254811115610d36565b346101af5760403660031901126101af5760043567ffffffffffffffff81116101af57610db09036906004016117bc565b60243567ffffffffffffffff81116101af57610dd09036906004016117bc565b610de860018060a09594951b03600154163314611d83565b81156111d557808203611190576002821061114b57600a8201928383116105025760098301938411610502576000600a8504156111375750600a84048304936000958690875b600a84048110610e3c578880f35b610e4760025461186c565b9081600255818a52600360205260408a2091600160ff19845416178355600160118401554260038401558990600a87048a068310611110575b908b915b818310610f0357505050610ea660405192604084526005604085019101611948565b82810360208401528781526001600160fb1b038811610eff578260206001947fb66ba8feaec509998ef3217bc97fbf1a0f906b89fac25a4ace8ddff059a41f12938b60051b8b848301378b60051b01030190a101610e2e565b8a80fd5b909195610f11818c88611dcf565b356001600160a01b038116810361110c576001600160a01b038116156110ce578d9060018060a01b038116825260056020528b8b8860ff60408620541661101a575b92610f75866040946110119794610f7085600560019c9a01611df7565b611dcf565b35868060a01b038216835260078b0160205283832055858060a01b038116825260068a016020528282208660ff19825416179055610fb68160088c01611df7565b60a086901b8690031680825260098a016020908152838320805460ff199081168917909155828452600a8c0182528484206103e89055828452600482528484208990559183526005905291902080549091168417905561186c565b96019190610e84565b5050506001600160a01b038116909152600460205260408e20548015908f908215611096575b505015611051578d908b8b88610f53565b60405162461bcd60e51b815260206004820152601d60248201527f506c6179657220616c726561647920696e206163746976652067616d650000006044820152606490fd5b81526003602052604090205460ff16905060058110156110ba576004148e38611040565b634e487b7160e01b8f52602160045260248ffd5b60405162461bcd60e51b8152602060048201526016602482015275496e76616c696420706c61796572206164647265737360501b6044820152606490fd5b8d80fd5b905060018a01808b116111235790610e80565b634e487b7160e01b8c52601160045260248cfd5b634e487b7160e01b81526012600452602490fd5b60405162461bcd60e51b815260206004820152601760248201527f4e656564206174206c65617374203220706c61796572730000000000000000006044820152606490fd5b60405162461bcd60e51b815260206004820152601860248201527f4172726179206c656e67746873206d757374206d6174636800000000000000006044820152606490fd5b60405162461bcd60e51b8152602060048201526013602482015272139bc81c1b185e595c9cc81c1c9bdd9a591959606a1b6044820152606490fd5b346101af5760203660031901126101af576001600160a01b03611231611740565b1660005260046020526020604060002054604051908152f35b346101af5760003660031901126101af57611263612589565b600080546001600160a01b0319811682556001600160a01b03167f8be0079c531659141344cd1fd0a4f28419497f9722a3daafe3b4186f6b6457e08280a3005b346101af5760003660031901126101af576112c960018060a01b03600154163314611d83565b60405160206112d881836118dc565b60008252600036813760015b600254811161132b57806000526003825260ff60406000205416906005821015610533576002611318921461131d5761186c565b6112e4565b611326816120be565b61186c565b60405180610aa5858261176c565b346101af5760403660031901126101af57610675602435600435611a44565b346101af5760203660031901126101af576001600160a01b03611379611740565b166000526005602052602060ff604060002054166040519015158152f35b346101af5760203660031901126101af57600435801515806113d8575b6113bd906117ed565b60005260036020526020600160406000200154604051908152f35b506002548111156113b4565b346101af5760403660031901126101af57600435611400611756565b9080151580611473575b611413906117ed565b806000526003602052600660406000200160018060a01b03831660005260205261144460ff6040600020541661182b565b6000526003602052600a6040600020019060018060a01b03166000526020526020604060002054604051908152f35b5060025481111561140a565b346101af5760203660031901126101af57600435600060806040516114a381611888565b828152826020820152826040820152826060820152015280151580611551575b6114cc906117ed565b600052600360205260a0604060002060ff815416906011810154906002810154600460038301549201549261150d6040519561150787611888565b866119b5565b602085019081526040850191825260608501928352608085019384526115376040518096516117af565b516020850152516040840152516060830152516080820152f35b506002548111156114c3565b346101af5760003660031901126101af57600254600160005b82821115611615576115889150611916565b6000916001905b808211156115a55760405180610aa5858261176c565b610ad0908260009493945260036020526115cc600860406000200160405193848092611948565b60005b8251811015611602576001906001600160a01b036115ed828661198b565b51166115fb610b068961186c565b52016115cf565b50919261160f915061186c565b9061158f565b610b46611634918360005260036020526008604060002001549061187b565b90611576565b346101af5760403660031901126101af57600435611656611756565b90801515806116c9575b611669906117ed565b806000526003602052600660406000200160018060a01b03831660005260205261169a60ff6040600020541661182b565b600052600360205260076040600020019060018060a01b03166000526020526020604060002054604051908152f35b50600254811115611660565b346101af5760003660031901126101af576020600254604051908152f35b346101af5760203660031901126101af5760043580151580611734575b611719906117ed565b60005260036020526020600260406000200154604051908152f35b50600254811115611710565b600435906001600160a01b03821682036101af57565b602435906001600160a01b03821682036101af57565b602060408183019282815284518094520192019060005b8181106117905750505090565b82516001600160a01b0316845260209384019390920191600101611783565b9060058210156105335752565b9181601f840112156101af5782359167ffffffffffffffff83116101af576020808501948460051b0101116101af57565b156117f457565b60405162461bcd60e51b815260206004820152600f60248201526e125b9d985b1a590819d85b59481251608a1b6044820152606490fd5b1561183257565b60405162461bcd60e51b8152602060048201526012602482015271506c61796572206e6f7420696e2067616d6560701b6044820152606490fd5b60001981146105025760010190565b9190820180921161050257565b60a0810190811067ffffffffffffffff821117610a1957604052565b6080810190811067ffffffffffffffff821117610a1957604052565b60c0810190811067ffffffffffffffff821117610a1957604052565b90601f8019910116810190811067ffffffffffffffff821117610a1957604052565b67ffffffffffffffff8111610a195760051b60200190565b90611920826118fe565b61192d60405191826118dc565b828152809261193e601f19916118fe565b0190602036910137565b906020825491828152019160005260206000209060005b81811061196c5750505090565b82546001600160a01b031684526020909301926001928301920161195f565b805182101561199f5760209160051b010190565b634e487b7160e01b600052603260045260246000fd5b60058210156105335752565b156119c857565b60405162461bcd60e51b8152602060048201526016602482015275506c61796572206e6f7420696e20616e792067616d6560501b6044820152606490fd5b15611a0d57565b60405162461bcd60e51b815260206004820152600f60248201526e47616d65206e6f742061637469766560881b6044820152606490fd5b90336000526005602052611a5f60ff604060002054166119c1565b33600052600460205260406000205491826000526003602052604060002060ff8154166005811015610533576002611a979114611a06565b336000908152600d8201602052604090205460ff1615611d4a57600e81019060018060a01b0333166000528160205260ff60406000205416611d1257336000908152600a820160205260409020548311611ccd5760018101600181541480611cc0575b611c9a575b5460011901611c5f57600281019384544211611c2457604051602081019185835260408201523360601b606082015260548152611b3d6074826118dc565b519020336000908152600b8301602052604090205403611bee57336000908152600c82016020908152604080832086905593905291909120805460ff19166001179055601081018054909260089291611b959061186c565b809455604051908152857f0319fcec55b5300a4dcc6f96b2df475a149433dc721ba7d96c8fb14495b748ac60203393a3015414908115611be3575b50611bd85750565b611be1906120be565b565b905054421138611bd0565b60405162461bcd60e51b815260206004820152600e60248201526d125b9d985b1a59081c995d99585b60921b6044820152606490fd5b60405162461bcd60e51b815260206004820152601360248201527214995d99585b081c195c9a5bd908195b991959606a1b6044820152606490fd5b60405162461bcd60e51b81526020600482015260136024820152724e6f7420696e2072657665616c20737461676560681b6044820152606490fd5b611ca386611e85565b60ff825416600581101561053357600403611aff57505050505050565b5060028201544211611afa565b60405162461bcd60e51b815260206004820152601c60248201527f426964206578636565647320617661696c61626c6520706f696e7473000000006044820152606490fd5b60405162461bcd60e51b815260206004820152601060248201526f105b1c9958591e481c995d99585b195960821b6044820152606490fd5b60405162461bcd60e51b8152602060048201526011602482015270135d5cdd0818dbdb5b5a5d08199a5c9cdd607a1b6044820152606490fd5b15611d8a57565b60405162461bcd60e51b815260206004820152601860248201527f4f6e6c792047616d654d61737465722063616e2063616c6c00000000000000006044820152606490fd5b919081101561199f5760051b0190565b805482101561199f5760005260206000200190600090565b9081549168010000000000000000831015610a195782611e1f916001611be195018155611ddf565b81546001600160a01b0393841660039290921b91821b9390911b1916919091179055565b15611e4a57565b60405162461bcd60e51b81526020600482015260136024820152724e6f7420696e20636f6d6d697420737461676560681b6044820152606490fd5b80600052600360205260406000206001810190611ea56001835414611e43565b600281018054421180156120ad575b1561206857600f820154926008830193845480911461202757611ed681611916565b600091600d8601835b828110611fba5750505060005b828110611f94575050506002845410600014611f545750507fa7690f576eaef889ef9ef29d1eaee6c0e3b073108b66bb8009ec8af6428bb34591611f4f91600460ff19825416178155600442910155604051918291602083526020830190611948565b0390a2565b600291935055603c4201804211610502576011606092826000805160206127c48339815191529555015490604051918252600260208301526040820152a2565b600190611fb46001600160a01b03611fac838661198b565b51168a6125b2565b01611eec565b8060ff6040611fcb6001948d611ddf565b905460039190911b1c60a085901b859003166000908152602086905220541615611ff6575b01611edf565b612000818b611ddf565b838060a01b0391549060031b1c1661202161201a8861186c565b978761198b565b52611ff0565b50600291935055603c4201804211610502576011606092826000805160206127c48339815191529555015490604051918252600260208301526040820152a2565b60405162461bcd60e51b815260206004820152601b60248201527f43616e6e6f7420656e6420636f6d6d69742073746167652079657400000000006044820152606490fd5b50600f820154600883015414611eb4565b600081815260036020526040902060088101805482906120dd81611916565b91600093600e60009201915b838110612530575050505060005b82811061251257505050600801546122a0575b80600052600360205260406000206002600882015410908115612290575b5015612188578060005260036020527fa7690f576eaef889ef9ef29d1eaee6c0e3b073108b66bb8009ec8af6428bb345611f4f6040600020600460ff19825416178155426004820155604051918291602083526008602084019101611948565b90816000526003602052604060002060118101906121a6825461186c565b82556001808201556078420180421161050257600282949394019081556000600f830155600060108301556000926008830190600d840196600e850193600c600b87019601965b845481101561225b5780600060408c816122096001968b611ddf565b905460039190911b1c60a087901b879003168085526020928352908420805460ff199081169091558185528b8352838520805490911690558084528b825282842084905583528b9052812055016121ed565b50935095915095506000805160206127c4833981519152935060609250549054604051918252600160208301526040820152a2565b600a915060110154101538612128565b9081600052600360205260406000206000199260088201916122c28354611916565b91600095600094600e8401955b81548110156123e9576122e28183611ddf565b905460039190911b1c6001600160a01b031660008181526020899052604090205490919060ff16612318575b60019150016122cf565b6001600160a01b0382166000908152600c87016020908152604080832054600a8a019283905292205491939184111561236957506001925061236361235c8c61186c565b9b8961198b565b5261230e565b8584106123e0575b6040600060018060a01b038416815282602052209081548581039081116105025760019560407f35f48251a260a81f4842c8ab03d63a9e1845547fb728412340a68ec6c8f300219381938c9655600090898060a01b0388168252602052205482519182526020820152a361230e565b94508294612371565b50509350939491905060005b8281106124ec5750505081600052600360205260406000206008810180549061241d82611916565b92600094600092600e8301935b85811061246f5750505050505060005b8281106124495750505061210a565b6001906124696001600160a01b03612461838661198b565b5116866125b2565b0161243a565b8061247c60019284611ddf565b838060a01b0391549060031b1c1660ff60406000858060a01b038416815289602052205416806124cd575b6124b3575b500161242a565b6124c66124bf8b61186c565b9a8a61198b565b52386124ac565b508460406000858060a01b0384168152600c89016020522054146124a7565b60019061250c6001600160a01b03612504838661198b565b5116876125b2565b016123f5565b60019061252a6001600160a01b03612504838661198b565b016120f7565b8061253d60019284611ddf565b838060a01b0391549060031b1c1660ff60406000858060a01b0384168152876020522054161561256f575b50016120e9565b61258261257b8961186c565b988861198b565b5238612568565b6000546001600160a01b0316330361259d57565b63118cdaa760e01b6000523360045260246000fd5b90600091808352600360205260408320916009830160018060a01b03821685528060205260ff6040862054161561278a5760018060a01b03821685526020526040842060ff19815416905560018060a01b03169182845260056020526040842060ff19815416905582845260046020528360408120558360088201945b85548082101561277e57856126448389611ddf565b905460039190911b1c6001600160a01b031614612664575060010161262f565b600096929394959619810190811161276a5790611e1f6126876126a09385611ddf565b905460039190911b1c6001600160a01b03169184611ddf565b805480156127565760001901906126b78282611ddf565b81549060018060a01b039060031b1b19169055555b6001546001600160a01b0316803b156127525790808060079493602460405180948193633ef6cf1d60e21b83528b60048401525af1612742575b505083600052016020527f51479c93d7646904d2282e9e79cddf11999ac774b7fd0289e2f59cb4ad0f086a6020604060002054604051908152a3565b8161274c916118dc565b38612706565b5080fd5b634e487b7160e01b83526031600452602483fd5b634e487b7160e01b84526011600452602484fd5b505090919293506126cc565b60405162461bcd60e51b8152602060048201526011602482015270506c61796572206e6f742061637469766560781b6044820152606490fdfefd9d17e5565deea3d25918d95fc398673b9445ef0a96d12eaf3ab2b198756c65a2646970667358221220aca019ebe2e018aa893ce609a40eb97d68dd1a11900cedeead8e7c151fee2d3f64736f6c634300081c0033","opcodes":"PUSH1 0x80 DUP1 PUSH1 0x40 MSTORE CALLVALUE PUSH1 0x87 JUMPI CALLER ISZERO PUSH1 0x71 JUMPI PUSH1 0x0 DUP1 SLOAD CALLER PUSH1 0x1 PUSH1 0x1 PUSH1 0xA0 SHL SUB NOT DUP3 AND DUP2 OR DUP4 SSTORE SWAP2 PUSH1 0x1 PUSH1 0x1 PUSH1 0xA0 SHL SUB SWAP1 SWAP2 AND SWAP1 PUSH32 0x8BE0079C531659141344CD1FD0A4F28419497F9722A3DAAFE3B4186F6B6457E0 SWAP1 DUP1 LOG3 PUSH1 0x1 DUP1 SLOAD PUSH1 0x1 PUSH1 0x1 PUSH1 0xA0 SHL SUB NOT AND CALLER OR SWAP1 SSTORE PUSH2 0x2819 SWAP1 DUP2 PUSH2 0x8D DUP3 CODECOPY RETURN JUMPDEST PUSH4 0x1E4FBDF7 PUSH1 0xE0 SHL PUSH1 0x0 MSTORE PUSH1 0x0 PUSH1 0x4 MSTORE PUSH1 0x24 PUSH1 0x0 REVERT JUMPDEST PUSH1 0x0 DUP1 REVERT INVALID PUSH1 0x80 PUSH1 0x40 MSTORE PUSH1 0x4 CALLDATASIZE LT ISZERO PUSH2 0x12 JUMPI PUSH1 0x0 DUP1 REVERT JUMPDEST PUSH1 0x0 CALLDATALOAD PUSH1 0xE0 SHR DUP1 PUSH4 0x12B19A13 EQ PUSH2 0x16F3 JUMPI DUP1 PUSH4 0x1BB412D6 EQ PUSH2 0x16D5 JUMPI DUP1 PUSH4 0x25B05C88 EQ PUSH2 0x1210 JUMPI DUP1 PUSH4 0x3532804D EQ PUSH2 0x163A JUMPI DUP1 PUSH4 0x3C4F5A66 EQ PUSH2 0x155D JUMPI DUP1 PUSH4 0x47E1D550 EQ PUSH2 0x147F JUMPI DUP1 PUSH4 0x53FB1CD2 EQ PUSH2 0x13E4 JUMPI DUP1 PUSH4 0x572E85EC EQ PUSH2 0x1397 JUMPI DUP1 PUSH4 0x574A5B20 EQ PUSH2 0x1358 JUMPI DUP1 PUSH4 0x62C5424A EQ PUSH2 0x1339 JUMPI DUP1 PUSH4 0x6CBC2DED EQ PUSH2 0x12A3 JUMPI DUP1 PUSH4 0x715018A6 EQ PUSH2 0x124A JUMPI DUP1 PUSH4 0x773B549D EQ PUSH2 0x1210 JUMPI DUP1 PUSH4 0x7FBBE46F EQ PUSH2 0xD7F JUMPI DUP1 PUSH4 0x84CD7D33 EQ PUSH2 0xD10 JUMPI DUP1 PUSH4 0x86A2CC27 EQ PUSH2 0xB52 JUMPI DUP1 PUSH4 0x8B5B9CCC EQ PUSH2 0xA5D JUMPI DUP1 PUSH4 0x8DA5CB5B EQ PUSH2 0xA34 JUMPI DUP1 PUSH4 0x9A198D61 EQ PUSH2 0x93E JUMPI DUP1 PUSH4 0xBBDA33D9 EQ PUSH2 0x8C0 JUMPI DUP1 PUSH4 0xBDF84AE7 EQ PUSH2 0x897 JUMPI DUP1 PUSH4 0xC04C5947 EQ PUSH2 0x732 JUMPI DUP1 PUSH4 0xC2E94927 EQ PUSH2 0x677 JUMPI DUP1 PUSH4 0xD0F3A21E EQ PUSH2 0x5C5 JUMPI DUP1 PUSH4 0xD216B62B EQ PUSH2 0x556 JUMPI DUP1 PUSH4 0xE81DE9F5 EQ PUSH2 0x448 JUMPI DUP1 PUSH4 0xEA17532E EQ PUSH2 0x23D JUMPI DUP1 PUSH4 0xF2FDE38B EQ PUSH2 0x1B4 JUMPI PUSH4 0xFFDE0C74 EQ PUSH2 0x15B JUMPI PUSH1 0x0 DUP1 REVERT JUMPDEST CALLVALUE PUSH2 0x1AF JUMPI PUSH1 0x20 CALLDATASIZE PUSH1 0x3 NOT ADD SLT PUSH2 0x1AF JUMPI PUSH1 0x4 CALLDATALOAD DUP1 ISZERO ISZERO DUP1 PUSH2 0x1A3 JUMPI JUMPDEST PUSH2 0x181 SWAP1 PUSH2 0x17ED JUMP JUMPDEST PUSH1 0x0 MSTORE PUSH1 0x3 PUSH1 0x20 MSTORE PUSH1 0x20 PUSH1 0xFF PUSH1 0x40 PUSH1 0x0 KECCAK256 SLOAD AND PUSH2 0x1A1 PUSH1 0x40 MLOAD DUP1 SWAP3 PUSH2 0x17AF JUMP JUMPDEST RETURN JUMPDEST POP PUSH1 0x2 SLOAD DUP2 GT ISZERO PUSH2 0x178 JUMP JUMPDEST PUSH1 0x0 DUP1 REVERT JUMPDEST CALLVALUE PUSH2 0x1AF JUMPI PUSH1 0x20 CALLDATASIZE PUSH1 0x3 NOT ADD SLT PUSH2 0x1AF JUMPI PUSH2 0x1CD PUSH2 0x1740 JUMP JUMPDEST PUSH2 0x1D5 PUSH2 0x2589 JUMP JUMPDEST PUSH1 0x1 PUSH1 0x1 PUSH1 0xA0 SHL SUB AND DUP1 ISZERO PUSH2 0x227 JUMPI PUSH1 0x0 DUP1 SLOAD PUSH1 0x1 PUSH1 0x1 PUSH1 0xA0 SHL SUB NOT DUP2 AND DUP4 OR DUP3 SSTORE PUSH1 0x1 PUSH1 0x1 PUSH1 0xA0 SHL SUB AND SWAP1 PUSH32 0x8BE0079C531659141344CD1FD0A4F28419497F9722A3DAAFE3B4186F6B6457E0 SWAP1 DUP1 LOG3 STOP JUMPDEST PUSH4 0x1E4FBDF7 PUSH1 0xE0 SHL PUSH1 0x0 MSTORE PUSH1 0x0 PUSH1 0x4 MSTORE PUSH1 0x24 PUSH1 0x0 REVERT JUMPDEST CALLVALUE PUSH2 0x1AF JUMPI PUSH1 0x20 CALLDATASIZE PUSH1 0x3 NOT ADD SLT PUSH2 0x1AF JUMPI PUSH1 0x4 CALLDATALOAD DUP1 ISZERO ISZERO DUP1 PUSH2 0x43C JUMPI JUMPDEST PUSH2 0x263 SWAP1 PUSH2 0x17ED JUMP JUMPDEST PUSH1 0x0 MSTORE PUSH1 0x3 PUSH1 0x20 MSTORE PUSH1 0x40 PUSH1 0x0 KECCAK256 PUSH1 0x5 DUP2 ADD SWAP1 DUP2 SLOAD SWAP1 PUSH2 0x281 DUP3 PUSH2 0x18FE JUMP JUMPDEST SWAP3 PUSH2 0x28F PUSH1 0x40 MLOAD SWAP5 DUP6 PUSH2 0x18DC JUMP JUMPDEST DUP3 DUP5 MSTORE PUSH1 0x1F NOT PUSH2 0x29E DUP5 PUSH2 0x18FE JUMP JUMPDEST ADD PUSH1 0x0 JUMPDEST DUP2 DUP2 LT PUSH2 0x3FB JUMPI POP POP PUSH1 0x0 PUSH1 0x7 DUP4 ADD SWAP3 PUSH1 0xA DUP2 ADD SWAP3 PUSH1 0xD DUP3 ADD SWAP1 PUSH1 0x9 PUSH1 0xE DUP5 ADD SWAP4 ADD SWAP4 JUMPDEST DUP8 DUP2 LT PUSH2 0x354 JUMPI DUP9 PUSH1 0x40 MLOAD DUP1 SWAP2 PUSH1 0x20 DUP3 ADD PUSH1 0x20 DUP4 MSTORE DUP2 MLOAD DUP1 SWAP2 MSTORE PUSH1 0x20 PUSH1 0x40 DUP5 ADD SWAP3 ADD SWAP1 PUSH1 0x0 JUMPDEST DUP2 DUP2 LT PUSH2 0x2FA JUMPI POP POP POP SUB SWAP1 RETURN JUMPDEST SWAP2 SWAP4 POP SWAP2 PUSH1 0x20 PUSH1 0xC0 PUSH1 0x1 SWAP3 PUSH1 0xA0 DUP8 MLOAD DUP6 DUP1 DUP4 SHL SUB DUP2 MLOAD AND DUP4 MSTORE DUP5 DUP2 ADD MLOAD DUP6 DUP5 ADD MSTORE PUSH1 0x40 DUP2 ADD MLOAD PUSH1 0x40 DUP5 ADD MSTORE PUSH1 0x60 DUP2 ADD MLOAD ISZERO ISZERO PUSH1 0x60 DUP5 ADD MSTORE PUSH1 0x80 DUP2 ADD MLOAD ISZERO ISZERO PUSH1 0x80 DUP5 ADD MSTORE ADD MLOAD ISZERO ISZERO PUSH1 0xA0 DUP3 ADD MSTORE ADD SWAP5 ADD SWAP2 ADD SWAP2 DUP5 SWAP4 SWAP3 PUSH2 0x2EC JUMP JUMPDEST DUP1 PUSH2 0x361 PUSH1 0x1 SWAP3 DUP5 PUSH2 0x1DDF JUMP JUMPDEST SWAP1 SLOAD PUSH1 0x3 SWAP2 SWAP1 SWAP2 SHL SHR PUSH1 0xA0 DUP4 SWAP1 SHL DUP4 SWAP1 SUB AND PUSH1 0x0 DUP2 DUP2 MSTORE PUSH1 0x20 DUP11 DUP2 MSTORE PUSH1 0x40 DUP1 DUP4 KECCAK256 SLOAD DUP12 DUP4 MSTORE DUP2 DUP5 KECCAK256 SLOAD DUP10 DUP5 MSTORE DUP3 DUP6 KECCAK256 SLOAD DUP12 DUP6 MSTORE DUP4 DUP7 KECCAK256 SLOAD SWAP5 DUP14 SWAP1 MSTORE SWAP5 DUP4 SWAP1 KECCAK256 SLOAD SWAP3 MLOAD SWAP6 PUSH1 0xFF SWAP4 DUP5 AND SWAP6 SWAP5 DUP5 AND SWAP5 SWAP1 SWAP4 AND SWAP3 SWAP1 SWAP2 SWAP1 PUSH2 0x3BE DUP8 PUSH2 0x18C0 JUMP JUMPDEST DUP7 MSTORE PUSH1 0x20 DUP7 ADD MSTORE PUSH1 0x40 DUP6 ADD MSTORE ISZERO ISZERO PUSH1 0x60 DUP5 ADD MSTORE ISZERO ISZERO PUSH1 0x80 DUP4 ADD MSTORE ISZERO ISZERO PUSH1 0xA0 DUP3 ADD MSTORE PUSH2 0x3E9 DUP3 DUP13 PUSH2 0x198B JUMP JUMPDEST MSTORE PUSH2 0x3F4 DUP2 DUP12 PUSH2 0x198B JUMP JUMPDEST POP ADD PUSH2 0x2C6 JUMP JUMPDEST PUSH1 0x20 SWAP1 PUSH1 0x40 MLOAD PUSH2 0x40A DUP2 PUSH2 0x18C0 JUMP JUMPDEST PUSH1 0x0 DUP2 MSTORE PUSH1 0x0 DUP4 DUP3 ADD MSTORE PUSH1 0x0 PUSH1 0x40 DUP3 ADD MSTORE PUSH1 0x0 PUSH1 0x60 DUP3 ADD MSTORE PUSH1 0x0 PUSH1 0x80 DUP3 ADD MSTORE PUSH1 0x0 PUSH1 0xA0 DUP3 ADD MSTORE DUP3 DUP3 DUP10 ADD ADD MSTORE ADD PUSH2 0x2A2 JUMP JUMPDEST POP PUSH1 0x2 SLOAD DUP2 GT ISZERO PUSH2 0x25A JUMP JUMPDEST CALLVALUE PUSH2 0x1AF JUMPI PUSH1 0x0 CALLDATASIZE PUSH1 0x3 NOT ADD SLT PUSH2 0x1AF JUMPI PUSH2 0x46E PUSH1 0x1 DUP1 PUSH1 0xA0 SHL SUB PUSH1 0x1 SLOAD AND CALLER EQ PUSH2 0x1D83 JUMP JUMPDEST PUSH1 0x1 DUP1 JUMPDEST PUSH1 0x2 SLOAD DUP2 GT PUSH2 0x549 JUMPI DUP1 PUSH1 0x0 MSTORE PUSH1 0x3 PUSH1 0x20 MSTORE PUSH1 0x40 PUSH1 0x0 KECCAK256 SWAP1 PUSH1 0xFF DUP3 SLOAD AND PUSH1 0x5 DUP2 LT ISZERO PUSH2 0x533 JUMPI PUSH1 0x1 EQ DUP1 PUSH2 0x526 JUMPI JUMPDEST ISZERO PUSH2 0x518 JUMPI PUSH1 0x2 PUSH1 0xFF NOT DUP4 SLOAD AND OR DUP3 SSTORE PUSH1 0x1 DUP1 DUP4 ADD SSTORE PUSH1 0x78 TIMESTAMP ADD SWAP2 DUP3 TIMESTAMP GT PUSH2 0x502 JUMPI PUSH1 0x0 DUP1 MLOAD PUSH1 0x20 PUSH2 0x27C4 DUP4 CODECOPY DUP2 MLOAD SWAP2 MSTORE PUSH1 0x60 DUP5 PUSH1 0x11 DUP5 PUSH2 0x4FD SWAP8 PUSH1 0x2 DUP9 SWAP8 ADD SSTORE ADD SLOAD SWAP1 PUSH1 0x40 MLOAD SWAP2 DUP3 MSTORE PUSH1 0x1 PUSH1 0x20 DUP4 ADD MSTORE PUSH1 0x40 DUP3 ADD MSTORE LOG2 PUSH2 0x186C JUMP JUMPDEST PUSH2 0x472 JUMP JUMPDEST PUSH4 0x4E487B71 PUSH1 0xE0 SHL PUSH1 0x0 MSTORE PUSH1 0x11 PUSH1 0x4 MSTORE PUSH1 0x24 PUSH1 0x0 REVERT JUMPDEST SWAP2 POP POP PUSH2 0x4FD PUSH1 0x0 SWAP2 PUSH2 0x186C JUMP JUMPDEST POP PUSH1 0x8 DUP3 ADD SLOAD ISZERO ISZERO PUSH2 0x4A1 JUMP JUMPDEST PUSH4 0x4E487B71 PUSH1 0xE0 SHL PUSH1 0x0 MSTORE PUSH1 0x21 PUSH1 0x4 MSTORE PUSH1 0x24 PUSH1 0x0 REVERT JUMPDEST PUSH1 0x20 DUP3 PUSH1 0x40 MLOAD SWAP1 ISZERO ISZERO DUP2 MSTORE RETURN JUMPDEST CALLVALUE PUSH2 0x1AF JUMPI PUSH1 0x40 CALLDATASIZE PUSH1 0x3 NOT ADD SLT PUSH2 0x1AF JUMPI PUSH1 0x4 CALLDATALOAD PUSH2 0x572 PUSH2 0x1756 JUMP JUMPDEST SWAP1 DUP1 ISZERO ISZERO DUP1 PUSH2 0x5B9 JUMPI JUMPDEST PUSH2 0x585 SWAP1 PUSH2 0x17ED JUMP JUMPDEST PUSH1 0x0 MSTORE PUSH1 0x3 PUSH1 0x20 MSTORE PUSH1 0xE PUSH1 0x40 PUSH1 0x0 KECCAK256 ADD SWAP1 PUSH1 0x1 DUP1 PUSH1 0xA0 SHL SUB AND PUSH1 0x0 MSTORE PUSH1 0x20 MSTORE PUSH1 0x20 PUSH1 0xFF PUSH1 0x40 PUSH1 0x0 KECCAK256 SLOAD AND PUSH1 0x40 MLOAD SWAP1 ISZERO ISZERO DUP2 MSTORE RETURN JUMPDEST POP PUSH1 0x2 SLOAD DUP2 GT ISZERO PUSH2 0x57C JUMP JUMPDEST CALLVALUE PUSH2 0x1AF JUMPI PUSH1 0x0 CALLDATASIZE PUSH1 0x3 NOT ADD SLT PUSH2 0x1AF JUMPI PUSH1 0x1 JUMPDEST PUSH1 0x2 SLOAD DUP2 GT PUSH2 0x675 JUMPI DUP1 PUSH1 0x0 MSTORE PUSH1 0x3 PUSH1 0x20 MSTORE PUSH1 0x40 PUSH1 0x0 KECCAK256 SWAP1 PUSH1 0xFF DUP3 SLOAD AND SWAP2 PUSH1 0x5 DUP4 LT ISZERO PUSH2 0x533 JUMPI PUSH1 0x2 PUSH2 0x612 SWAP4 EQ PUSH2 0x617 JUMPI JUMPDEST POP PUSH2 0x186C JUMP JUMPDEST PUSH2 0x5D9 JUMP JUMPDEST PUSH1 0x1 DUP2 ADD SLOAD PUSH1 0x1 DUP2 EQ DUP1 PUSH2 0x668 JUMPI JUMPDEST ISZERO PUSH2 0x63C JUMPI POP POP PUSH2 0x636 DUP2 PUSH2 0x1E85 JUMP JUMPDEST DUP3 PUSH2 0x60C JUMP JUMPDEST PUSH1 0x2 EQ SWAP1 DUP2 PUSH2 0x65A JUMPI JUMPDEST POP ISZERO PUSH2 0x636 JUMPI PUSH2 0x655 DUP2 PUSH2 0x20BE JUMP JUMPDEST PUSH2 0x636 JUMP JUMPDEST PUSH1 0x2 SWAP2 POP ADD SLOAD TIMESTAMP GT DUP4 PUSH2 0x646 JUMP JUMPDEST POP PUSH1 0x2 DUP3 ADD SLOAD TIMESTAMP GT PUSH2 0x626 JUMP JUMPDEST STOP JUMPDEST CALLVALUE PUSH2 0x1AF JUMPI PUSH1 0x20 CALLDATASIZE PUSH1 0x3 NOT ADD SLT PUSH2 0x1AF JUMPI PUSH2 0x690 PUSH2 0x1740 JUMP JUMPDEST PUSH2 0x698 PUSH2 0x2589 JUMP JUMPDEST PUSH1 0x1 PUSH1 0x1 PUSH1 0xA0 SHL SUB AND DUP1 ISZERO PUSH2 0x6ED JUMPI PUSH1 0x20 DUP2 PUSH32 0x63860F6674590A6969C4FE1DC738A9C8F955407C09E6C67A6BDB818F4C35CD8A SWAP3 PUSH12 0xFFFFFFFFFFFFFFFFFFFFFFFF PUSH1 0xA0 SHL PUSH1 0x1 SLOAD AND OR PUSH1 0x1 SSTORE PUSH1 0x40 MLOAD SWAP1 DUP2 MSTORE LOG1 STOP JUMPDEST PUSH1 0x40 MLOAD PUSH3 0x461BCD PUSH1 0xE5 SHL DUP2 MSTORE PUSH1 0x20 PUSH1 0x4 DUP3 ADD MSTORE PUSH1 0x1A PUSH1 0x24 DUP3 ADD MSTORE PUSH32 0x496E76616C69642047616D654D61737465722061646472657373000000000000 PUSH1 0x44 DUP3 ADD MSTORE PUSH1 0x64 SWAP1 REVERT JUMPDEST CALLVALUE PUSH2 0x1AF JUMPI PUSH1 0x0 CALLDATASIZE PUSH1 0x3 NOT ADD SLT PUSH2 0x1AF JUMPI PUSH1 0x2 SLOAD PUSH2 0x74F DUP2 PUSH2 0x18FE JUMP JUMPDEST SWAP1 PUSH2 0x75D PUSH1 0x40 MLOAD SWAP3 DUP4 PUSH2 0x18DC JUMP JUMPDEST DUP1 DUP3 MSTORE PUSH1 0x1F NOT PUSH2 0x76C DUP3 PUSH2 0x18FE JUMP JUMPDEST ADD PUSH1 0x0 JUMPDEST DUP2 DUP2 LT PUSH2 0x864 JUMPI POP POP PUSH1 0x1 JUMPDEST DUP2 DUP2 GT ISZERO PUSH2 0x7F3 JUMPI DUP3 PUSH1 0x40 MLOAD DUP1 SWAP2 PUSH1 0x20 DUP3 ADD PUSH1 0x20 DUP4 MSTORE DUP2 MLOAD DUP1 SWAP2 MSTORE PUSH1 0x20 PUSH1 0x40 DUP5 ADD SWAP3 ADD SWAP1 PUSH1 0x0 JUMPDEST DUP2 DUP2 LT PUSH2 0x7B1 JUMPI POP POP POP SUB SWAP1 RETURN JUMPDEST SWAP2 SWAP4 POP SWAP2 PUSH1 0x20 PUSH1 0x80 PUSH1 0x1 SWAP3 PUSH1 0x60 DUP8 MLOAD DUP1 MLOAD DUP4 MSTORE PUSH2 0x7D4 DUP6 DUP3 ADD MLOAD DUP7 DUP6 ADD SWAP1 PUSH2 0x17AF JUMP JUMPDEST PUSH1 0x40 DUP2 ADD MLOAD PUSH1 0x40 DUP5 ADD MSTORE ADD MLOAD PUSH1 0x60 DUP3 ADD MSTORE ADD SWAP5 ADD SWAP2 ADD SWAP2 DUP5 SWAP4 SWAP3 PUSH2 0x7A3 JUMP JUMPDEST DUP1 PUSH1 0x0 MSTORE PUSH1 0x3 PUSH1 0x20 MSTORE PUSH1 0x40 PUSH1 0x0 KECCAK256 SWAP1 PUSH1 0xFF DUP3 SLOAD AND SWAP2 PUSH1 0x8 PUSH1 0x1 DUP3 ADD SLOAD SWAP2 ADD SLOAD SWAP1 PUSH2 0x82F PUSH1 0x40 MLOAD SWAP5 PUSH2 0x823 DUP7 PUSH2 0x18A4 JUMP JUMPDEST DUP5 DUP7 MSTORE PUSH1 0x20 DUP7 ADD PUSH2 0x19B5 JUMP JUMPDEST PUSH1 0x40 DUP5 ADD MSTORE PUSH1 0x60 DUP4 ADD MSTORE PUSH1 0x0 NOT DUP2 ADD SWAP2 DUP2 DUP4 GT PUSH2 0x502 JUMPI DUP3 PUSH2 0x60C SWAP2 PUSH2 0x858 PUSH2 0x85F SWAP6 DUP9 PUSH2 0x198B JUMP JUMPDEST MSTORE DUP6 PUSH2 0x198B JUMP JUMPDEST PUSH2 0x77C JUMP JUMPDEST PUSH1 0x20 SWAP1 PUSH1 0x40 MLOAD PUSH2 0x873 DUP2 PUSH2 0x18A4 JUMP JUMPDEST PUSH1 0x0 DUP2 MSTORE PUSH1 0x0 DUP4 DUP3 ADD MSTORE PUSH1 0x0 PUSH1 0x40 DUP3 ADD MSTORE PUSH1 0x0 PUSH1 0x60 DUP3 ADD MSTORE DUP3 DUP3 DUP8 ADD ADD MSTORE ADD PUSH2 0x770 JUMP JUMPDEST CALLVALUE PUSH2 0x1AF JUMPI PUSH1 0x0 CALLDATASIZE PUSH1 0x3 NOT ADD SLT PUSH2 0x1AF JUMPI PUSH1 0x1 SLOAD PUSH1 0x40 MLOAD PUSH1 0x1 PUSH1 0x1 PUSH1 0xA0 SHL SUB SWAP1 SWAP2 AND DUP2 MSTORE PUSH1 0x20 SWAP1 RETURN JUMPDEST CALLVALUE PUSH2 0x1AF JUMPI PUSH1 0x0 CALLDATASIZE PUSH1 0x3 NOT ADD SLT PUSH2 0x1AF JUMPI PUSH1 0x40 DUP1 MLOAD SWAP1 PUSH2 0x8E0 DUP2 DUP4 PUSH2 0x18DC JUMP JUMPDEST PUSH1 0x7 DUP3 MSTORE PUSH7 0x42696464696E67 PUSH1 0xC8 SHL PUSH1 0x20 DUP4 ADD MSTORE DUP1 MLOAD DUP1 SWAP3 PUSH1 0x20 DUP3 MSTORE DUP1 MLOAD SWAP1 DUP2 PUSH1 0x20 DUP5 ADD MSTORE PUSH1 0x0 JUMPDEST DUP3 DUP2 LT PUSH2 0x927 JUMPI POP POP PUSH1 0x0 DUP3 DUP3 ADD DUP5 ADD MSTORE PUSH1 0x1F ADD PUSH1 0x1F NOT AND DUP2 ADD SUB ADD SWAP1 RETURN JUMPDEST PUSH1 0x20 DUP3 DUP3 ADD DUP2 ADD MLOAD DUP8 DUP4 ADD DUP8 ADD MSTORE DUP7 SWAP5 POP ADD PUSH2 0x908 JUMP JUMPDEST CALLVALUE PUSH2 0x1AF JUMPI PUSH1 0x0 CALLDATASIZE PUSH1 0x3 NOT ADD SLT PUSH2 0x1AF JUMPI PUSH1 0x0 DUP1 PUSH1 0x40 MLOAD PUSH1 0x20 DUP2 ADD SWAP1 PUSH4 0x7983F45 PUSH1 0xE2 SHL DUP3 MSTORE PUSH1 0x97 PUSH1 0x24 DUP3 ADD MSTORE PUSH1 0x24 DUP2 MSTORE PUSH2 0x97A PUSH1 0x44 DUP3 PUSH2 0x18DC JUMP JUMPDEST MLOAD SWAP1 DUP3 PUSH20 0xDC2B0D2DD2B7759D97D50DB4EABDC36973110830 GAS CALL RETURNDATASIZE ISZERO PUSH2 0xA2F JUMPI RETURNDATASIZE PUSH8 0xFFFFFFFFFFFFFFFF DUP2 GT PUSH2 0xA19 JUMPI PUSH1 0x40 MLOAD SWAP1 PUSH2 0x9C2 PUSH1 0x1F DUP3 ADD PUSH1 0x1F NOT AND PUSH1 0x20 ADD DUP4 PUSH2 0x18DC JUMP JUMPDEST DUP2 MSTORE PUSH1 0x0 PUSH1 0x20 RETURNDATASIZE SWAP3 ADD RETURNDATACOPY JUMPDEST ISZERO PUSH2 0x9D4 JUMPI STOP JUMPDEST PUSH1 0x40 MLOAD PUSH3 0x461BCD PUSH1 0xE5 SHL DUP2 MSTORE PUSH1 0x20 PUSH1 0x4 DUP3 ADD MSTORE PUSH1 0x18 PUSH1 0x24 DUP3 ADD MSTORE PUSH32 0x4665654D20726567697374726174696F6E206661696C65640000000000000000 PUSH1 0x44 DUP3 ADD MSTORE PUSH1 0x64 SWAP1 REVERT JUMPDEST PUSH4 0x4E487B71 PUSH1 0xE0 SHL PUSH1 0x0 MSTORE PUSH1 0x41 PUSH1 0x4 MSTORE PUSH1 0x24 PUSH1 0x0 REVERT JUMPDEST PUSH2 0x9CD JUMP JUMPDEST CALLVALUE PUSH2 0x1AF JUMPI PUSH1 0x0 CALLDATASIZE PUSH1 0x3 NOT ADD SLT PUSH2 0x1AF JUMPI PUSH1 0x0 SLOAD PUSH1 0x40 MLOAD PUSH1 0x1 PUSH1 0x1 PUSH1 0xA0 SHL SUB SWAP1 SWAP2 AND DUP2 MSTORE PUSH1 0x20 SWAP1 RETURN JUMPDEST CALLVALUE PUSH2 0x1AF JUMPI PUSH1 0x0 CALLDATASIZE PUSH1 0x3 NOT ADD SLT PUSH2 0x1AF JUMPI PUSH1 0x2 SLOAD PUSH1 0x1 PUSH1 0x0 JUMPDEST DUP3 DUP3 GT ISZERO PUSH2 0xB27 JUMPI PUSH2 0xA88 SWAP2 POP PUSH2 0x1916 JUMP JUMPDEST PUSH1 0x0 SWAP2 PUSH1 0x1 SWAP1 JUMPDEST DUP1 DUP3 GT ISZERO PUSH2 0xAA9 JUMPI PUSH1 0x40 MLOAD DUP1 PUSH2 0xAA5 DUP6 DUP3 PUSH2 0x176C JUMP JUMPDEST SUB SWAP1 RETURN JUMPDEST PUSH2 0xAD0 SWAP1 DUP3 PUSH1 0x0 SWAP5 SWAP4 SWAP5 MSTORE PUSH1 0x3 PUSH1 0x20 MSTORE PUSH2 0xAD7 PUSH1 0x5 PUSH1 0x40 PUSH1 0x0 KECCAK256 ADD PUSH1 0x40 MLOAD SWAP4 DUP5 DUP1 SWAP3 PUSH2 0x1948 JUMP JUMPDEST SUB DUP4 PUSH2 0x18DC JUMP JUMPDEST PUSH1 0x0 JUMPDEST DUP3 MLOAD DUP2 LT ISZERO PUSH2 0xB14 JUMPI PUSH1 0x1 SWAP1 PUSH1 0x1 PUSH1 0x1 PUSH1 0xA0 SHL SUB PUSH2 0xAF8 DUP3 DUP7 PUSH2 0x198B JUMP JUMPDEST MLOAD AND PUSH2 0xB0D PUSH2 0xB06 DUP10 PUSH2 0x186C JUMP JUMPDEST SWAP9 DUP8 PUSH2 0x198B JUMP JUMPDEST MSTORE ADD PUSH2 0xADA JUMP JUMPDEST POP SWAP2 SWAP3 PUSH2 0xB21 SWAP2 POP PUSH2 0x186C JUMP JUMPDEST SWAP1 PUSH2 0xA8F JUMP JUMPDEST PUSH2 0xB46 PUSH2 0xB4C SWAP2 DUP4 PUSH1 0x0 MSTORE PUSH1 0x3 PUSH1 0x20 MSTORE PUSH1 0x5 PUSH1 0x40 PUSH1 0x0 KECCAK256 ADD SLOAD SWAP1 PUSH2 0x187B JUMP JUMPDEST SWAP2 PUSH2 0x186C JUMP JUMPDEST SWAP1 PUSH2 0xA76 JUMP JUMPDEST CALLVALUE PUSH2 0x1AF JUMPI PUSH1 0x20 CALLDATASIZE PUSH1 0x3 NOT ADD SLT PUSH2 0x1AF JUMPI CALLER PUSH1 0x0 MSTORE PUSH1 0x5 PUSH1 0x20 MSTORE PUSH2 0xB7D PUSH1 0xFF PUSH1 0x40 PUSH1 0x0 KECCAK256 SLOAD AND PUSH2 0x19C1 JUMP JUMPDEST CALLER PUSH1 0x0 MSTORE PUSH1 0x4 PUSH1 0x20 MSTORE PUSH1 0x40 PUSH1 0x0 KECCAK256 SLOAD DUP1 PUSH1 0x0 MSTORE PUSH1 0x3 PUSH1 0x20 MSTORE PUSH1 0x40 PUSH1 0x0 KECCAK256 PUSH1 0xFF DUP2 SLOAD AND PUSH1 0x5 DUP2 LT ISZERO PUSH2 0x533 JUMPI PUSH1 0x2 PUSH2 0xBB4 SWAP2 EQ PUSH2 0x1A06 JUMP JUMPDEST PUSH1 0x1 DUP2 ADD SWAP1 PUSH2 0xBC6 PUSH1 0x1 DUP4 SLOAD EQ PUSH2 0x1E43 JUMP JUMPDEST PUSH1 0x2 DUP2 ADD SWAP2 DUP3 SLOAD TIMESTAMP GT PUSH2 0xCD5 JUMPI CALLER PUSH1 0x0 SWAP1 DUP2 MSTORE PUSH1 0xD DUP4 ADD PUSH1 0x20 DUP2 SWAP1 MSTORE PUSH1 0x40 SWAP1 SWAP2 KECCAK256 SLOAD PUSH1 0xFF AND PUSH2 0xC9C JUMPI CALLER PUSH1 0x0 SWAP1 DUP2 MSTORE PUSH1 0xB DUP5 ADD PUSH1 0x20 SWAP1 DUP2 MSTORE PUSH1 0x40 DUP1 DUP4 KECCAK256 PUSH1 0x4 CALLDATALOAD SWAP1 SSTORE SWAP3 SWAP1 MSTORE KECCAK256 DUP1 SLOAD PUSH1 0xFF NOT AND PUSH1 0x1 OR SWAP1 SSTORE PUSH1 0xF DUP3 ADD DUP1 SLOAD SWAP1 SWAP2 SWAP1 PUSH2 0xC29 SWAP1 PUSH2 0x186C JUMP JUMPDEST DUP1 SWAP3 SSTORE PUSH1 0x40 MLOAD SWAP2 CALLER DUP7 PUSH32 0x2E6ED0CAE7A81E1893017DFAFD5FBAF8594ADCC50FF27B5F8EB70E0E90ACF315 PUSH1 0x0 DUP1 LOG3 PUSH1 0x8 DUP5 ADD SLOAD EQ PUSH2 0xC63 JUMPI STOP JUMPDEST PUSH1 0x2 SWAP1 SSTORE PUSH1 0x3C TIMESTAMP ADD DUP1 TIMESTAMP GT PUSH2 0x502 JUMPI PUSH1 0x11 PUSH1 0x60 SWAP4 DUP3 PUSH1 0x0 DUP1 MLOAD PUSH1 0x20 PUSH2 0x27C4 DUP4 CODECOPY DUP2 MLOAD SWAP2 MSTORE SWAP7 SSTORE ADD SLOAD DUP3 MSTORE PUSH1 0x2 PUSH1 0x20 DUP4 ADD MSTORE PUSH1 0x40 DUP3 ADD MSTORE LOG2 STOP JUMPDEST PUSH1 0x40 MLOAD PUSH3 0x461BCD PUSH1 0xE5 SHL DUP2 MSTORE PUSH1 0x20 PUSH1 0x4 DUP3 ADD MSTORE PUSH1 0x11 PUSH1 0x24 DUP3 ADD MSTORE PUSH17 0x105B1C9958591E4818DBDB5B5A5D1D1959 PUSH1 0x7A SHL PUSH1 0x44 DUP3 ADD MSTORE PUSH1 0x64 SWAP1 REVERT JUMPDEST PUSH1 0x40 MLOAD PUSH3 0x461BCD PUSH1 0xE5 SHL DUP2 MSTORE PUSH1 0x20 PUSH1 0x4 DUP3 ADD MSTORE PUSH1 0x13 PUSH1 0x24 DUP3 ADD MSTORE PUSH19 0x10DBDB5B5A5D081C195C9A5BD908195B991959 PUSH1 0x6A SHL PUSH1 0x44 DUP3 ADD MSTORE PUSH1 0x64 SWAP1 REVERT JUMPDEST CALLVALUE PUSH2 0x1AF JUMPI PUSH1 0x40 CALLDATASIZE PUSH1 0x3 NOT ADD SLT PUSH2 0x1AF JUMPI PUSH1 0x4 CALLDATALOAD PUSH2 0xD2C PUSH2 0x1756 JUMP JUMPDEST SWAP1 DUP1 ISZERO ISZERO DUP1 PUSH2 0xD73 JUMPI JUMPDEST PUSH2 0xD3F SWAP1 PUSH2 0x17ED JUMP JUMPDEST PUSH1 0x0 MSTORE PUSH1 0x3 PUSH1 0x20 MSTORE PUSH1 0xD PUSH1 0x40 PUSH1 0x0 KECCAK256 ADD SWAP1 PUSH1 0x1 DUP1 PUSH1 0xA0 SHL SUB AND PUSH1 0x0 MSTORE PUSH1 0x20 MSTORE PUSH1 0x20 PUSH1 0xFF PUSH1 0x40 PUSH1 0x0 KECCAK256 SLOAD AND PUSH1 0x40 MLOAD SWAP1 ISZERO ISZERO DUP2 MSTORE RETURN JUMPDEST POP PUSH1 0x2 SLOAD DUP2 GT ISZERO PUSH2 0xD36 JUMP JUMPDEST CALLVALUE PUSH2 0x1AF JUMPI PUSH1 0x40 CALLDATASIZE PUSH1 0x3 NOT ADD SLT PUSH2 0x1AF JUMPI PUSH1 0x4 CALLDATALOAD PUSH8 0xFFFFFFFFFFFFFFFF DUP2 GT PUSH2 0x1AF JUMPI PUSH2 0xDB0 SWAP1 CALLDATASIZE SWAP1 PUSH1 0x4 ADD PUSH2 0x17BC JUMP JUMPDEST PUSH1 0x24 CALLDATALOAD PUSH8 0xFFFFFFFFFFFFFFFF DUP2 GT PUSH2 0x1AF JUMPI PUSH2 0xDD0 SWAP1 CALLDATASIZE SWAP1 PUSH1 0x4 ADD PUSH2 0x17BC JUMP JUMPDEST PUSH2 0xDE8 PUSH1 0x1 DUP1 PUSH1 0xA0 SWAP6 SWAP5 SWAP6 SHL SUB PUSH1 0x1 SLOAD AND CALLER EQ PUSH2 0x1D83 JUMP JUMPDEST DUP2 ISZERO PUSH2 0x11D5 JUMPI DUP1 DUP3 SUB PUSH2 0x1190 JUMPI PUSH1 0x2 DUP3 LT PUSH2 0x114B JUMPI PUSH1 0xA DUP3 ADD SWAP3 DUP4 DUP4 GT PUSH2 0x502 JUMPI PUSH1 0x9 DUP4 ADD SWAP4 DUP5 GT PUSH2 0x502 JUMPI PUSH1 0x0 PUSH1 0xA DUP6 DIV ISZERO PUSH2 0x1137 JUMPI POP PUSH1 0xA DUP5 DIV DUP4 DIV SWAP4 PUSH1 0x0 SWAP6 DUP7 SWAP1 DUP8 JUMPDEST PUSH1 0xA DUP5 DIV DUP2 LT PUSH2 0xE3C JUMPI DUP9 DUP1 RETURN JUMPDEST PUSH2 0xE47 PUSH1 0x2 SLOAD PUSH2 0x186C JUMP JUMPDEST SWAP1 DUP2 PUSH1 0x2 SSTORE DUP2 DUP11 MSTORE PUSH1 0x3 PUSH1 0x20 MSTORE PUSH1 0x40 DUP11 KECCAK256 SWAP2 PUSH1 0x1 PUSH1 0xFF NOT DUP5 SLOAD AND OR DUP4 SSTORE PUSH1 0x1 PUSH1 0x11 DUP5 ADD SSTORE TIMESTAMP PUSH1 0x3 DUP5 ADD SSTORE DUP10 SWAP1 PUSH1 0xA DUP8 DIV DUP11 MOD DUP4 LT PUSH2 0x1110 JUMPI JUMPDEST SWAP1 DUP12 SWAP2 JUMPDEST DUP2 DUP4 LT PUSH2 0xF03 JUMPI POP POP POP PUSH2 0xEA6 PUSH1 0x40 MLOAD SWAP3 PUSH1 0x40 DUP5 MSTORE PUSH1 0x5 PUSH1 0x40 DUP6 ADD SWAP2 ADD PUSH2 0x1948 JUMP JUMPDEST DUP3 DUP2 SUB PUSH1 0x20 DUP5 ADD MSTORE DUP8 DUP2 MSTORE PUSH1 0x1 PUSH1 0x1 PUSH1 0xFB SHL SUB DUP9 GT PUSH2 0xEFF JUMPI DUP3 PUSH1 0x20 PUSH1 0x1 SWAP5 PUSH32 0xB66BA8FEAEC509998EF3217BC97FBF1A0F906B89FAC25A4ACE8DDFF059A41F12 SWAP4 DUP12 PUSH1 0x5 SHL DUP12 DUP5 DUP4 ADD CALLDATACOPY DUP12 PUSH1 0x5 SHL ADD SUB ADD SWAP1 LOG1 ADD PUSH2 0xE2E JUMP JUMPDEST DUP11 DUP1 REVERT JUMPDEST SWAP1 SWAP2 SWAP6 PUSH2 0xF11 DUP2 DUP13 DUP9 PUSH2 0x1DCF JUMP JUMPDEST CALLDATALOAD PUSH1 0x1 PUSH1 0x1 PUSH1 0xA0 SHL SUB DUP2 AND DUP2 SUB PUSH2 0x110C JUMPI PUSH1 0x1 PUSH1 0x1 PUSH1 0xA0 SHL SUB DUP2 AND ISZERO PUSH2 0x10CE JUMPI DUP14 SWAP1 PUSH1 0x1 DUP1 PUSH1 0xA0 SHL SUB DUP2 AND DUP3 MSTORE PUSH1 0x5 PUSH1 0x20 MSTORE DUP12 DUP12 DUP9 PUSH1 0xFF PUSH1 0x40 DUP7 KECCAK256 SLOAD AND PUSH2 0x101A JUMPI JUMPDEST SWAP3 PUSH2 0xF75 DUP7 PUSH1 0x40 SWAP5 PUSH2 0x1011 SWAP8 SWAP5 PUSH2 0xF70 DUP6 PUSH1 0x5 PUSH1 0x1 SWAP13 SWAP11 ADD PUSH2 0x1DF7 JUMP JUMPDEST PUSH2 0x1DCF JUMP JUMPDEST CALLDATALOAD DUP7 DUP1 PUSH1 0xA0 SHL SUB DUP3 AND DUP4 MSTORE PUSH1 0x7 DUP12 ADD PUSH1 0x20 MSTORE DUP4 DUP4 KECCAK256 SSTORE DUP6 DUP1 PUSH1 0xA0 SHL SUB DUP2 AND DUP3 MSTORE PUSH1 0x6 DUP11 ADD PUSH1 0x20 MSTORE DUP3 DUP3 KECCAK256 DUP7 PUSH1 0xFF NOT DUP3 SLOAD AND OR SWAP1 SSTORE PUSH2 0xFB6 DUP2 PUSH1 0x8 DUP13 ADD PUSH2 0x1DF7 JUMP JUMPDEST PUSH1 0xA0 DUP7 SWAP1 SHL DUP7 SWAP1 SUB AND DUP1 DUP3 MSTORE PUSH1 0x9 DUP11 ADD PUSH1 0x20 SWAP1 DUP2 MSTORE DUP4 DUP4 KECCAK256 DUP1 SLOAD PUSH1 0xFF NOT SWAP1 DUP2 AND DUP10 OR SWAP1 SWAP2 SSTORE DUP3 DUP5 MSTORE PUSH1 0xA DUP13 ADD DUP3 MSTORE DUP5 DUP5 KECCAK256 PUSH2 0x3E8 SWAP1 SSTORE DUP3 DUP5 MSTORE PUSH1 0x4 DUP3 MSTORE DUP5 DUP5 KECCAK256 DUP10 SWAP1 SSTORE SWAP2 DUP4 MSTORE PUSH1 0x5 SWAP1 MSTORE SWAP2 SWAP1 KECCAK256 DUP1 SLOAD SWAP1 SWAP2 AND DUP5 OR SWAP1 SSTORE PUSH2 0x186C JUMP JUMPDEST SWAP7 ADD SWAP2 SWAP1 PUSH2 0xE84 JUMP JUMPDEST POP POP POP PUSH1 0x1 PUSH1 0x1 PUSH1 0xA0 SHL SUB DUP2 AND SWAP1 SWAP2 MSTORE PUSH1 0x4 PUSH1 0x20 MSTORE PUSH1 0x40 DUP15 KECCAK256 SLOAD DUP1 ISZERO SWAP1 DUP16 SWAP1 DUP3 ISZERO PUSH2 0x1096 JUMPI JUMPDEST POP POP ISZERO PUSH2 0x1051 JUMPI DUP14 SWAP1 DUP12 DUP12 DUP9 PUSH2 0xF53 JUMP JUMPDEST PUSH1 0x40 MLOAD PUSH3 0x461BCD PUSH1 0xE5 SHL DUP2 MSTORE PUSH1 0x20 PUSH1 0x4 DUP3 ADD MSTORE PUSH1 0x1D PUSH1 0x24 DUP3 ADD MSTORE PUSH32 0x506C6179657220616C726561647920696E206163746976652067616D65000000 PUSH1 0x44 DUP3 ADD MSTORE PUSH1 0x64 SWAP1 REVERT JUMPDEST DUP2 MSTORE PUSH1 0x3 PUSH1 0x20 MSTORE PUSH1 0x40 SWAP1 KECCAK256 SLOAD PUSH1 0xFF AND SWAP1 POP PUSH1 0x5 DUP2 LT ISZERO PUSH2 0x10BA JUMPI PUSH1 0x4 EQ DUP15 CODESIZE PUSH2 0x1040 JUMP JUMPDEST PUSH4 0x4E487B71 PUSH1 0xE0 SHL DUP16 MSTORE PUSH1 0x21 PUSH1 0x4 MSTORE PUSH1 0x24 DUP16 REVERT JUMPDEST PUSH1 0x40 MLOAD PUSH3 0x461BCD PUSH1 0xE5 SHL DUP2 MSTORE PUSH1 0x20 PUSH1 0x4 DUP3 ADD MSTORE PUSH1 0x16 PUSH1 0x24 DUP3 ADD MSTORE PUSH22 0x496E76616C696420706C617965722061646472657373 PUSH1 0x50 SHL PUSH1 0x44 DUP3 ADD MSTORE PUSH1 0x64 SWAP1 REVERT JUMPDEST DUP14 DUP1 REVERT JUMPDEST SWAP1 POP PUSH1 0x1 DUP11 ADD DUP1 DUP12 GT PUSH2 0x1123 JUMPI SWAP1 PUSH2 0xE80 JUMP JUMPDEST PUSH4 0x4E487B71 PUSH1 0xE0 SHL DUP13 MSTORE PUSH1 0x11 PUSH1 0x4 MSTORE PUSH1 0x24 DUP13 REVERT JUMPDEST PUSH4 0x4E487B71 PUSH1 0xE0 SHL DUP2 MSTORE PUSH1 0x12 PUSH1 0x4 MSTORE PUSH1 0x24 SWAP1 REVERT JUMPDEST PUSH1 0x40 MLOAD PUSH3 0x461BCD PUSH1 0xE5 SHL DUP2 MSTORE PUSH1 0x20 PUSH1 0x4 DUP3 ADD MSTORE PUSH1 0x17 PUSH1 0x24 DUP3 ADD MSTORE PUSH32 0x4E656564206174206C65617374203220706C6179657273000000000000000000 PUSH1 0x44 DUP3 ADD MSTORE PUSH1 0x64 SWAP1 REVERT JUMPDEST PUSH1 0x40 MLOAD PUSH3 0x461BCD PUSH1 0xE5 SHL DUP2 MSTORE PUSH1 0x20 PUSH1 0x4 DUP3 ADD MSTORE PUSH1 0x18 PUSH1 0x24 DUP3 ADD MSTORE PUSH32 0x4172726179206C656E67746873206D757374206D617463680000000000000000 PUSH1 0x44 DUP3 ADD MSTORE PUSH1 0x64 SWAP1 REVERT JUMPDEST PUSH1 0x40 MLOAD PUSH3 0x461BCD PUSH1 0xE5 SHL DUP2 MSTORE PUSH1 0x20 PUSH1 0x4 DUP3 ADD MSTORE PUSH1 0x13 PUSH1 0x24 DUP3 ADD MSTORE PUSH19 0x139BC81C1B185E595C9CC81C1C9BDD9A591959 PUSH1 0x6A SHL PUSH1 0x44 DUP3 ADD MSTORE PUSH1 0x64 SWAP1 REVERT JUMPDEST CALLVALUE PUSH2 0x1AF JUMPI PUSH1 0x20 CALLDATASIZE PUSH1 0x3 NOT ADD SLT PUSH2 0x1AF JUMPI PUSH1 0x1 PUSH1 0x1 PUSH1 0xA0 SHL SUB PUSH2 0x1231 PUSH2 0x1740 JUMP JUMPDEST AND PUSH1 0x0 MSTORE PUSH1 0x4 PUSH1 0x20 MSTORE PUSH1 0x20 PUSH1 0x40 PUSH1 0x0 KECCAK256 SLOAD PUSH1 0x40 MLOAD SWAP1 DUP2 MSTORE RETURN JUMPDEST CALLVALUE PUSH2 0x1AF JUMPI PUSH1 0x0 CALLDATASIZE PUSH1 0x3 NOT ADD SLT PUSH2 0x1AF JUMPI PUSH2 0x1263 PUSH2 0x2589 JUMP JUMPDEST PUSH1 0x0 DUP1 SLOAD PUSH1 0x1 PUSH1 0x1 PUSH1 0xA0 SHL SUB NOT DUP2 AND DUP3 SSTORE PUSH1 0x1 PUSH1 0x1 PUSH1 0xA0 SHL SUB AND PUSH32 0x8BE0079C531659141344CD1FD0A4F28419497F9722A3DAAFE3B4186F6B6457E0 DUP3 DUP1 LOG3 STOP JUMPDEST CALLVALUE PUSH2 0x1AF JUMPI PUSH1 0x0 CALLDATASIZE PUSH1 0x3 NOT ADD SLT PUSH2 0x1AF JUMPI PUSH2 0x12C9 PUSH1 0x1 DUP1 PUSH1 0xA0 SHL SUB PUSH1 0x1 SLOAD AND CALLER EQ PUSH2 0x1D83 JUMP JUMPDEST PUSH1 0x40 MLOAD PUSH1 0x20 PUSH2 0x12D8 DUP2 DUP4 PUSH2 0x18DC JUMP JUMPDEST PUSH1 0x0 DUP3 MSTORE PUSH1 0x0 CALLDATASIZE DUP2 CALLDATACOPY PUSH1 0x1 JUMPDEST PUSH1 0x2 SLOAD DUP2 GT PUSH2 0x132B JUMPI DUP1 PUSH1 0x0 MSTORE PUSH1 0x3 DUP3 MSTORE PUSH1 0xFF PUSH1 0x40 PUSH1 0x0 KECCAK256 SLOAD AND SWAP1 PUSH1 0x5 DUP3 LT ISZERO PUSH2 0x533 JUMPI PUSH1 0x2 PUSH2 0x1318 SWAP3 EQ PUSH2 0x131D JUMPI PUSH2 0x186C JUMP JUMPDEST PUSH2 0x12E4 JUMP JUMPDEST PUSH2 0x1326 DUP2 PUSH2 0x20BE JUMP JUMPDEST PUSH2 0x186C JUMP JUMPDEST PUSH1 0x40 MLOAD DUP1 PUSH2 0xAA5 DUP6 DUP3 PUSH2 0x176C JUMP JUMPDEST CALLVALUE PUSH2 0x1AF JUMPI PUSH1 0x40 CALLDATASIZE PUSH1 0x3 NOT ADD SLT PUSH2 0x1AF JUMPI PUSH2 0x675 PUSH1 0x24 CALLDATALOAD PUSH1 0x4 CALLDATALOAD PUSH2 0x1A44 JUMP JUMPDEST CALLVALUE PUSH2 0x1AF JUMPI PUSH1 0x20 CALLDATASIZE PUSH1 0x3 NOT ADD SLT PUSH2 0x1AF JUMPI PUSH1 0x1 PUSH1 0x1 PUSH1 0xA0 SHL SUB PUSH2 0x1379 PUSH2 0x1740 JUMP JUMPDEST AND PUSH1 0x0 MSTORE PUSH1 0x5 PUSH1 0x20 MSTORE PUSH1 0x20 PUSH1 0xFF PUSH1 0x40 PUSH1 0x0 KECCAK256 SLOAD AND PUSH1 0x40 MLOAD SWAP1 ISZERO ISZERO DUP2 MSTORE RETURN JUMPDEST CALLVALUE PUSH2 0x1AF JUMPI PUSH1 0x20 CALLDATASIZE PUSH1 0x3 NOT ADD SLT PUSH2 0x1AF JUMPI PUSH1 0x4 CALLDATALOAD DUP1 ISZERO ISZERO DUP1 PUSH2 0x13D8 JUMPI JUMPDEST PUSH2 0x13BD SWAP1 PUSH2 0x17ED JUMP JUMPDEST PUSH1 0x0 MSTORE PUSH1 0x3 PUSH1 0x20 MSTORE PUSH1 0x20 PUSH1 0x1 PUSH1 0x40 PUSH1 0x0 KECCAK256 ADD SLOAD PUSH1 0x40 MLOAD SWAP1 DUP2 MSTORE RETURN JUMPDEST POP PUSH1 0x2 SLOAD DUP2 GT ISZERO PUSH2 0x13B4 JUMP JUMPDEST CALLVALUE PUSH2 0x1AF JUMPI PUSH1 0x40 CALLDATASIZE PUSH1 0x3 NOT ADD SLT PUSH2 0x1AF JUMPI PUSH1 0x4 CALLDATALOAD PUSH2 0x1400 PUSH2 0x1756 JUMP JUMPDEST SWAP1 DUP1 ISZERO ISZERO DUP1 PUSH2 0x1473 JUMPI JUMPDEST PUSH2 0x1413 SWAP1 PUSH2 0x17ED JUMP JUMPDEST DUP1 PUSH1 0x0 MSTORE PUSH1 0x3 PUSH1 0x20 MSTORE PUSH1 0x6 PUSH1 0x40 PUSH1 0x0 KECCAK256 ADD PUSH1 0x1 DUP1 PUSH1 0xA0 SHL SUB DUP4 AND PUSH1 0x0 MSTORE PUSH1 0x20 MSTORE PUSH2 0x1444 PUSH1 0xFF PUSH1 0x40 PUSH1 0x0 KECCAK256 SLOAD AND PUSH2 0x182B JUMP JUMPDEST PUSH1 0x0 MSTORE PUSH1 0x3 PUSH1 0x20 MSTORE PUSH1 0xA PUSH1 0x40 PUSH1 0x0 KECCAK256 ADD SWAP1 PUSH1 0x1 DUP1 PUSH1 0xA0 SHL SUB AND PUSH1 0x0 MSTORE PUSH1 0x20 MSTORE PUSH1 0x20 PUSH1 0x40 PUSH1 0x0 KECCAK256 SLOAD PUSH1 0x40 MLOAD SWAP1 DUP2 MSTORE RETURN JUMPDEST POP PUSH1 0x2 SLOAD DUP2 GT ISZERO PUSH2 0x140A JUMP JUMPDEST CALLVALUE PUSH2 0x1AF JUMPI PUSH1 0x20 CALLDATASIZE PUSH1 0x3 NOT ADD SLT PUSH2 0x1AF JUMPI PUSH1 0x4 CALLDATALOAD PUSH1 0x0 PUSH1 0x80 PUSH1 0x40 MLOAD PUSH2 0x14A3 DUP2 PUSH2 0x1888 JUMP JUMPDEST DUP3 DUP2 MSTORE DUP3 PUSH1 0x20 DUP3 ADD MSTORE DUP3 PUSH1 0x40 DUP3 ADD MSTORE DUP3 PUSH1 0x60 DUP3 ADD MSTORE ADD MSTORE DUP1 ISZERO ISZERO DUP1 PUSH2 0x1551 JUMPI JUMPDEST PUSH2 0x14CC SWAP1 PUSH2 0x17ED JUMP JUMPDEST PUSH1 0x0 MSTORE PUSH1 0x3 PUSH1 0x20 MSTORE PUSH1 0xA0 PUSH1 0x40 PUSH1 0x0 KECCAK256 PUSH1 0xFF DUP2 SLOAD AND SWAP1 PUSH1 0x11 DUP2 ADD SLOAD SWAP1 PUSH1 0x2 DUP2 ADD SLOAD PUSH1 0x4 PUSH1 0x3 DUP4 ADD SLOAD SWAP3 ADD SLOAD SWAP3 PUSH2 0x150D PUSH1 0x40 MLOAD SWAP6 PUSH2 0x1507 DUP8 PUSH2 0x1888 JUMP JUMPDEST DUP7 PUSH2 0x19B5 JUMP JUMPDEST PUSH1 0x20 DUP6 ADD SWAP1 DUP2 MSTORE PUSH1 0x40 DUP6 ADD SWAP2 DUP3 MSTORE PUSH1 0x60 DUP6 ADD SWAP3 DUP4 MSTORE PUSH1 0x80 DUP6 ADD SWAP4 DUP5 MSTORE PUSH2 0x1537 PUSH1 0x40 MLOAD DUP1 SWAP7 MLOAD PUSH2 0x17AF JUMP JUMPDEST MLOAD PUSH1 0x20 DUP6 ADD MSTORE MLOAD PUSH1 0x40 DUP5 ADD MSTORE MLOAD PUSH1 0x60 DUP4 ADD MSTORE MLOAD PUSH1 0x80 DUP3 ADD MSTORE RETURN JUMPDEST POP PUSH1 0x2 SLOAD DUP2 GT ISZERO PUSH2 0x14C3 JUMP JUMPDEST CALLVALUE PUSH2 0x1AF JUMPI PUSH1 0x0 CALLDATASIZE PUSH1 0x3 NOT ADD SLT PUSH2 0x1AF JUMPI PUSH1 0x2 SLOAD PUSH1 0x1 PUSH1 0x0 JUMPDEST DUP3 DUP3 GT ISZERO PUSH2 0x1615 JUMPI PUSH2 0x1588 SWAP2 POP PUSH2 0x1916 JUMP JUMPDEST PUSH1 0x0 SWAP2 PUSH1 0x1 SWAP1 JUMPDEST DUP1 DUP3 GT ISZERO PUSH2 0x15A5 JUMPI PUSH1 0x40 MLOAD DUP1 PUSH2 0xAA5 DUP6 DUP3 PUSH2 0x176C JUMP JUMPDEST PUSH2 0xAD0 SWAP1 DUP3 PUSH1 0x0 SWAP5 SWAP4 SWAP5 MSTORE PUSH1 0x3 PUSH1 0x20 MSTORE PUSH2 0x15CC PUSH1 0x8 PUSH1 0x40 PUSH1 0x0 KECCAK256 ADD PUSH1 0x40 MLOAD SWAP4 DUP5 DUP1 SWAP3 PUSH2 0x1948 JUMP JUMPDEST PUSH1 0x0 JUMPDEST DUP3 MLOAD DUP2 LT ISZERO PUSH2 0x1602 JUMPI PUSH1 0x1 SWAP1 PUSH1 0x1 PUSH1 0x1 PUSH1 0xA0 SHL SUB PUSH2 0x15ED DUP3 DUP7 PUSH2 0x198B JUMP JUMPDEST MLOAD AND PUSH2 0x15FB PUSH2 0xB06 DUP10 PUSH2 0x186C JUMP JUMPDEST MSTORE ADD PUSH2 0x15CF JUMP JUMPDEST POP SWAP2 SWAP3 PUSH2 0x160F SWAP2 POP PUSH2 0x186C JUMP JUMPDEST SWAP1 PUSH2 0x158F JUMP JUMPDEST PUSH2 0xB46 PUSH2 0x1634 SWAP2 DUP4 PUSH1 0x0 MSTORE PUSH1 0x3 PUSH1 0x20 MSTORE PUSH1 0x8 PUSH1 0x40 PUSH1 0x0 KECCAK256 ADD SLOAD SWAP1 PUSH2 0x187B JUMP JUMPDEST SWAP1 PUSH2 0x1576 JUMP JUMPDEST CALLVALUE PUSH2 0x1AF JUMPI PUSH1 0x40 CALLDATASIZE PUSH1 0x3 NOT ADD SLT PUSH2 0x1AF JUMPI PUSH1 0x4 CALLDATALOAD PUSH2 0x1656 PUSH2 0x1756 JUMP JUMPDEST SWAP1 DUP1 ISZERO ISZERO DUP1 PUSH2 0x16C9 JUMPI JUMPDEST PUSH2 0x1669 SWAP1 PUSH2 0x17ED JUMP JUMPDEST DUP1 PUSH1 0x0 MSTORE PUSH1 0x3 PUSH1 0x20 MSTORE PUSH1 0x6 PUSH1 0x40 PUSH1 0x0 KECCAK256 ADD PUSH1 0x1 DUP1 PUSH1 0xA0 SHL SUB DUP4 AND PUSH1 0x0 MSTORE PUSH1 0x20 MSTORE PUSH2 0x169A PUSH1 0xFF PUSH1 0x40 PUSH1 0x0 KECCAK256 SLOAD AND PUSH2 0x182B JUMP JUMPDEST PUSH1 0x0 MSTORE PUSH1 0x3 PUSH1 0x20 MSTORE PUSH1 0x7 PUSH1 0x40 PUSH1 0x0 KECCAK256 ADD SWAP1 PUSH1 0x1 DUP1 PUSH1 0xA0 SHL SUB AND PUSH1 0x0 MSTORE PUSH1 0x20 MSTORE PUSH1 0x20 PUSH1 0x40 PUSH1 0x0 KECCAK256 SLOAD PUSH1 0x40 MLOAD SWAP1 DUP2 MSTORE RETURN JUMPDEST POP PUSH1 0x2 SLOAD DUP2 GT ISZERO PUSH2 0x1660 JUMP JUMPDEST CALLVALUE PUSH2 0x1AF JUMPI PUSH1 0x0 CALLDATASIZE PUSH1 0x3 NOT ADD SLT PUSH2 0x1AF JUMPI PUSH1 0x20 PUSH1 0x2 SLOAD PUSH1 0x40 MLOAD SWAP1 DUP2 MSTORE RETURN JUMPDEST CALLVALUE PUSH2 0x1AF JUMPI PUSH1 0x20 CALLDATASIZE PUSH1 0x3 NOT ADD SLT PUSH2 0x1AF JUMPI PUSH1 0x4 CALLDATALOAD DUP1 ISZERO ISZERO DUP1 PUSH2 0x1734 JUMPI JUMPDEST PUSH2 0x1719 SWAP1 PUSH2 0x17ED JUMP JUMPDEST PUSH1 0x0 MSTORE PUSH1 0x3 PUSH1 0x20 MSTORE PUSH1 0x20 PUSH1 0x2 PUSH1 0x40 PUSH1 0x0 KECCAK256 ADD SLOAD PUSH1 0x40 MLOAD SWAP1 DUP2 MSTORE RETURN JUMPDEST POP PUSH1 0x2 SLOAD DUP2 GT ISZERO PUSH2 0x1710 JUMP JUMPDEST PUSH1 0x4 CALLDATALOAD SWAP1 PUSH1 0x1 PUSH1 0x1 PUSH1 0xA0 SHL SUB DUP3 AND DUP3 SUB PUSH2 0x1AF JUMPI JUMP JUMPDEST PUSH1 0x24 CALLDATALOAD SWAP1 PUSH1 0x1 PUSH1 0x1 PUSH1 0xA0 SHL SUB DUP3 AND DUP3 SUB PUSH2 0x1AF JUMPI JUMP JUMPDEST PUSH1 0x20 PUSH1 0x40 DUP2 DUP4 ADD SWAP3 DUP3 DUP2 MSTORE DUP5 MLOAD DUP1 SWAP5 MSTORE ADD SWAP3 ADD SWAP1 PUSH1 0x0 JUMPDEST DUP2 DUP2 LT PUSH2 0x1790 JUMPI POP POP POP SWAP1 JUMP JUMPDEST DUP3 MLOAD PUSH1 0x1 PUSH1 0x1 PUSH1 0xA0 SHL SUB AND DUP5 MSTORE PUSH1 0x20 SWAP4 DUP5 ADD SWAP4 SWAP1 SWAP3 ADD SWAP2 PUSH1 0x1 ADD PUSH2 0x1783 JUMP JUMPDEST SWAP1 PUSH1 0x5 DUP3 LT ISZERO PUSH2 0x533 JUMPI MSTORE JUMP JUMPDEST SWAP2 DUP2 PUSH1 0x1F DUP5 ADD SLT ISZERO PUSH2 0x1AF JUMPI DUP3 CALLDATALOAD SWAP2 PUSH8 0xFFFFFFFFFFFFFFFF DUP4 GT PUSH2 0x1AF JUMPI PUSH1 0x20 DUP1 DUP6 ADD SWAP5 DUP5 PUSH1 0x5 SHL ADD ADD GT PUSH2 0x1AF JUMPI JUMP JUMPDEST ISZERO PUSH2 0x17F4 JUMPI JUMP JUMPDEST PUSH1 0x40 MLOAD PUSH3 0x461BCD PUSH1 0xE5 SHL DUP2 MSTORE PUSH1 0x20 PUSH1 0x4 DUP3 ADD MSTORE PUSH1 0xF PUSH1 0x24 DUP3 ADD MSTORE PUSH15 0x125B9D985B1A590819D85B59481251 PUSH1 0x8A SHL PUSH1 0x44 DUP3 ADD MSTORE PUSH1 0x64 SWAP1 REVERT JUMPDEST ISZERO PUSH2 0x1832 JUMPI JUMP JUMPDEST PUSH1 0x40 MLOAD PUSH3 0x461BCD PUSH1 0xE5 SHL DUP2 MSTORE PUSH1 0x20 PUSH1 0x4 DUP3 ADD MSTORE PUSH1 0x12 PUSH1 0x24 DUP3 ADD MSTORE PUSH18 0x506C61796572206E6F7420696E2067616D65 PUSH1 0x70 SHL PUSH1 0x44 DUP3 ADD MSTORE PUSH1 0x64 SWAP1 REVERT JUMPDEST PUSH1 0x0 NOT DUP2 EQ PUSH2 0x502 JUMPI PUSH1 0x1 ADD SWAP1 JUMP JUMPDEST SWAP2 SWAP1 DUP3 ADD DUP1 SWAP3 GT PUSH2 0x502 JUMPI JUMP JUMPDEST PUSH1 0xA0 DUP2 ADD SWAP1 DUP2 LT PUSH8 0xFFFFFFFFFFFFFFFF DUP3 GT OR PUSH2 0xA19 JUMPI PUSH1 0x40 MSTORE JUMP JUMPDEST PUSH1 0x80 DUP2 ADD SWAP1 DUP2 LT PUSH8 0xFFFFFFFFFFFFFFFF DUP3 GT OR PUSH2 0xA19 JUMPI PUSH1 0x40 MSTORE JUMP JUMPDEST PUSH1 0xC0 DUP2 ADD SWAP1 DUP2 LT PUSH8 0xFFFFFFFFFFFFFFFF DUP3 GT OR PUSH2 0xA19 JUMPI PUSH1 0x40 MSTORE JUMP JUMPDEST SWAP1 PUSH1 0x1F DUP1 NOT SWAP2 ADD AND DUP2 ADD SWAP1 DUP2 LT PUSH8 0xFFFFFFFFFFFFFFFF DUP3 GT OR PUSH2 0xA19 JUMPI PUSH1 0x40 MSTORE JUMP JUMPDEST PUSH8 0xFFFFFFFFFFFFFFFF DUP2 GT PUSH2 0xA19 JUMPI PUSH1 0x5 SHL PUSH1 0x20 ADD SWAP1 JUMP JUMPDEST SWAP1 PUSH2 0x1920 DUP3 PUSH2 0x18FE JUMP JUMPDEST PUSH2 0x192D PUSH1 0x40 MLOAD SWAP2 DUP3 PUSH2 0x18DC JUMP JUMPDEST DUP3 DUP2 MSTORE DUP1 SWAP3 PUSH2 0x193E PUSH1 0x1F NOT SWAP2 PUSH2 0x18FE JUMP JUMPDEST ADD SWAP1 PUSH1 0x20 CALLDATASIZE SWAP2 ADD CALLDATACOPY JUMP JUMPDEST SWAP1 PUSH1 0x20 DUP3 SLOAD SWAP2 DUP3 DUP2 MSTORE ADD SWAP2 PUSH1 0x0 MSTORE PUSH1 0x20 PUSH1 0x0 KECCAK256 SWAP1 PUSH1 0x0 JUMPDEST DUP2 DUP2 LT PUSH2 0x196C JUMPI POP POP POP SWAP1 JUMP JUMPDEST DUP3 SLOAD PUSH1 0x1 PUSH1 0x1 PUSH1 0xA0 SHL SUB AND DUP5 MSTORE PUSH1 0x20 SWAP1 SWAP4 ADD SWAP3 PUSH1 0x1 SWAP3 DUP4 ADD SWAP3 ADD PUSH2 0x195F JUMP JUMPDEST DUP1 MLOAD DUP3 LT ISZERO PUSH2 0x199F JUMPI PUSH1 0x20 SWAP2 PUSH1 0x5 SHL ADD ADD SWAP1 JUMP JUMPDEST PUSH4 0x4E487B71 PUSH1 0xE0 SHL PUSH1 0x0 MSTORE PUSH1 0x32 PUSH1 0x4 MSTORE PUSH1 0x24 PUSH1 0x0 REVERT JUMPDEST PUSH1 0x5 DUP3 LT ISZERO PUSH2 0x533 JUMPI MSTORE JUMP JUMPDEST ISZERO PUSH2 0x19C8 JUMPI JUMP JUMPDEST PUSH1 0x40 MLOAD PUSH3 0x461BCD PUSH1 0xE5 SHL DUP2 MSTORE PUSH1 0x20 PUSH1 0x4 DUP3 ADD MSTORE PUSH1 0x16 PUSH1 0x24 DUP3 ADD MSTORE PUSH22 0x506C61796572206E6F7420696E20616E792067616D65 PUSH1 0x50 SHL PUSH1 0x44 DUP3 ADD MSTORE PUSH1 0x64 SWAP1 REVERT JUMPDEST ISZERO PUSH2 0x1A0D JUMPI JUMP JUMPDEST PUSH1 0x40 MLOAD PUSH3 0x461BCD PUSH1 0xE5 SHL DUP2 MSTORE PUSH1 0x20 PUSH1 0x4 DUP3 ADD MSTORE PUSH1 0xF PUSH1 0x24 DUP3 ADD MSTORE PUSH15 0x47616D65206E6F7420616374697665 PUSH1 0x88 SHL PUSH1 0x44 DUP3 ADD MSTORE PUSH1 0x64 SWAP1 REVERT JUMPDEST SWAP1 CALLER PUSH1 0x0 MSTORE PUSH1 0x5 PUSH1 0x20 MSTORE PUSH2 0x1A5F PUSH1 0xFF PUSH1 0x40 PUSH1 0x0 KECCAK256 SLOAD AND PUSH2 0x19C1 JUMP JUMPDEST CALLER PUSH1 0x0 MSTORE PUSH1 0x4 PUSH1 0x20 MSTORE PUSH1 0x40 PUSH1 0x0 KECCAK256 SLOAD SWAP2 DUP3 PUSH1 0x0 MSTORE PUSH1 0x3 PUSH1 0x20 MSTORE PUSH1 0x40 PUSH1 0x0 KECCAK256 PUSH1 0xFF DUP2 SLOAD AND PUSH1 0x5 DUP2 LT ISZERO PUSH2 0x533 JUMPI PUSH1 0x2 PUSH2 0x1A97 SWAP2 EQ PUSH2 0x1A06 JUMP JUMPDEST CALLER PUSH1 0x0 SWAP1 DUP2 MSTORE PUSH1 0xD DUP3 ADD PUSH1 0x20 MSTORE PUSH1 0x40 SWAP1 KECCAK256 SLOAD PUSH1 0xFF AND ISZERO PUSH2 0x1D4A JUMPI PUSH1 0xE DUP2 ADD SWAP1 PUSH1 0x1 DUP1 PUSH1 0xA0 SHL SUB CALLER AND PUSH1 0x0 MSTORE DUP2 PUSH1 0x20 MSTORE PUSH1 0xFF PUSH1 0x40 PUSH1 0x0 KECCAK256 SLOAD AND PUSH2 0x1D12 JUMPI CALLER PUSH1 0x0 SWAP1 DUP2 MSTORE PUSH1 0xA DUP3 ADD PUSH1 0x20 MSTORE PUSH1 0x40 SWAP1 KECCAK256 SLOAD DUP4 GT PUSH2 0x1CCD JUMPI PUSH1 0x1 DUP2 ADD PUSH1 0x1 DUP2 SLOAD EQ DUP1 PUSH2 0x1CC0 JUMPI JUMPDEST PUSH2 0x1C9A JUMPI JUMPDEST SLOAD PUSH1 0x1 NOT ADD PUSH2 0x1C5F JUMPI PUSH1 0x2 DUP2 ADD SWAP4 DUP5 SLOAD TIMESTAMP GT PUSH2 0x1C24 JUMPI PUSH1 0x40 MLOAD PUSH1 0x20 DUP2 ADD SWAP2 DUP6 DUP4 MSTORE PUSH1 0x40 DUP3 ADD MSTORE CALLER PUSH1 0x60 SHL PUSH1 0x60 DUP3 ADD MSTORE PUSH1 0x54 DUP2 MSTORE PUSH2 0x1B3D PUSH1 0x74 DUP3 PUSH2 0x18DC JUMP JUMPDEST MLOAD SWAP1 KECCAK256 CALLER PUSH1 0x0 SWAP1 DUP2 MSTORE PUSH1 0xB DUP4 ADD PUSH1 0x20 MSTORE PUSH1 0x40 SWAP1 KECCAK256 SLOAD SUB PUSH2 0x1BEE JUMPI CALLER PUSH1 0x0 SWAP1 DUP2 MSTORE PUSH1 0xC DUP3 ADD PUSH1 0x20 SWAP1 DUP2 MSTORE PUSH1 0x40 DUP1 DUP4 KECCAK256 DUP7 SWAP1 SSTORE SWAP4 SWAP1 MSTORE SWAP2 SWAP1 SWAP2 KECCAK256 DUP1 SLOAD PUSH1 0xFF NOT AND PUSH1 0x1 OR SWAP1 SSTORE PUSH1 0x10 DUP2 ADD DUP1 SLOAD SWAP1 SWAP3 PUSH1 0x8 SWAP3 SWAP2 PUSH2 0x1B95 SWAP1 PUSH2 0x186C JUMP JUMPDEST DUP1 SWAP5 SSTORE PUSH1 0x40 MLOAD SWAP1 DUP2 MSTORE DUP6 PUSH32 0x319FCEC55B5300A4DCC6F96B2DF475A149433DC721BA7D96C8FB14495B748AC PUSH1 0x20 CALLER SWAP4 LOG3 ADD SLOAD EQ SWAP1 DUP2 ISZERO PUSH2 0x1BE3 JUMPI JUMPDEST POP PUSH2 0x1BD8 JUMPI POP JUMP JUMPDEST PUSH2 0x1BE1 SWAP1 PUSH2 0x20BE JUMP JUMPDEST JUMP JUMPDEST SWAP1 POP SLOAD TIMESTAMP GT CODESIZE PUSH2 0x1BD0 JUMP JUMPDEST PUSH1 0x40 MLOAD PUSH3 0x461BCD PUSH1 0xE5 SHL DUP2 MSTORE PUSH1 0x20 PUSH1 0x4 DUP3 ADD MSTORE PUSH1 0xE PUSH1 0x24 DUP3 ADD MSTORE PUSH14 0x125B9D985B1A59081C995D99585B PUSH1 0x92 SHL PUSH1 0x44 DUP3 ADD MSTORE PUSH1 0x64 SWAP1 REVERT JUMPDEST PUSH1 0x40 MLOAD PUSH3 0x461BCD PUSH1 0xE5 SHL DUP2 MSTORE PUSH1 0x20 PUSH1 0x4 DUP3 ADD MSTORE PUSH1 0x13 PUSH1 0x24 DUP3 ADD MSTORE PUSH19 0x14995D99585B081C195C9A5BD908195B991959 PUSH1 0x6A SHL PUSH1 0x44 DUP3 ADD MSTORE PUSH1 0x64 SWAP1 REVERT JUMPDEST PUSH1 0x40 MLOAD PUSH3 0x461BCD PUSH1 0xE5 SHL DUP2 MSTORE PUSH1 0x20 PUSH1 0x4 DUP3 ADD MSTORE PUSH1 0x13 PUSH1 0x24 DUP3 ADD MSTORE PUSH19 0x4E6F7420696E2072657665616C207374616765 PUSH1 0x68 SHL PUSH1 0x44 DUP3 ADD MSTORE PUSH1 0x64 SWAP1 REVERT JUMPDEST PUSH2 0x1CA3 DUP7 PUSH2 0x1E85 JUMP JUMPDEST PUSH1 0xFF DUP3 SLOAD AND PUSH1 0x5 DUP2 LT ISZERO PUSH2 0x533 JUMPI PUSH1 0x4 SUB PUSH2 0x1AFF JUMPI POP POP POP POP POP POP JUMP JUMPDEST POP PUSH1 0x2 DUP3 ADD SLOAD TIMESTAMP GT PUSH2 0x1AFA JUMP JUMPDEST PUSH1 0x40 MLOAD PUSH3 0x461BCD PUSH1 0xE5 SHL DUP2 MSTORE PUSH1 0x20 PUSH1 0x4 DUP3 ADD MSTORE PUSH1 0x1C PUSH1 0x24 DUP3 ADD MSTORE PUSH32 0x426964206578636565647320617661696C61626C6520706F696E747300000000 PUSH1 0x44 DUP3 ADD MSTORE PUSH1 0x64 SWAP1 REVERT JUMPDEST PUSH1 0x40 MLOAD PUSH3 0x461BCD PUSH1 0xE5 SHL DUP2 MSTORE PUSH1 0x20 PUSH1 0x4 DUP3 ADD MSTORE PUSH1 0x10 PUSH1 0x24 DUP3 ADD MSTORE PUSH16 0x105B1C9958591E481C995D99585B1959 PUSH1 0x82 SHL PUSH1 0x44 DUP3 ADD MSTORE PUSH1 0x64 SWAP1 REVERT JUMPDEST PUSH1 0x40 MLOAD PUSH3 0x461BCD PUSH1 0xE5 SHL DUP2 MSTORE PUSH1 0x20 PUSH1 0x4 DUP3 ADD MSTORE PUSH1 0x11 PUSH1 0x24 DUP3 ADD MSTORE PUSH17 0x135D5CDD0818DBDB5B5A5D08199A5C9CDD PUSH1 0x7A SHL PUSH1 0x44 DUP3 ADD MSTORE PUSH1 0x64 SWAP1 REVERT JUMPDEST ISZERO PUSH2 0x1D8A JUMPI JUMP JUMPDEST PUSH1 0x40 MLOAD PUSH3 0x461BCD PUSH1 0xE5 SHL DUP2 MSTORE PUSH1 0x20 PUSH1 0x4 DUP3 ADD MSTORE PUSH1 0x18 PUSH1 0x24 DUP3 ADD MSTORE PUSH32 0x4F6E6C792047616D654D61737465722063616E2063616C6C0000000000000000 PUSH1 0x44 DUP3 ADD MSTORE PUSH1 0x64 SWAP1 REVERT JUMPDEST SWAP2 SWAP1 DUP2 LT ISZERO PUSH2 0x199F JUMPI PUSH1 0x5 SHL ADD SWAP1 JUMP JUMPDEST DUP1 SLOAD DUP3 LT ISZERO PUSH2 0x199F JUMPI PUSH1 0x0 MSTORE PUSH1 0x20 PUSH1 0x0 KECCAK256 ADD SWAP1 PUSH1 0x0 SWAP1 JUMP JUMPDEST SWAP1 DUP2 SLOAD SWAP2 PUSH9 0x10000000000000000 DUP4 LT ISZERO PUSH2 0xA19 JUMPI DUP3 PUSH2 0x1E1F SWAP2 PUSH1 0x1 PUSH2 0x1BE1 SWAP6 ADD DUP2 SSTORE PUSH2 0x1DDF JUMP JUMPDEST DUP2 SLOAD PUSH1 0x1 PUSH1 0x1 PUSH1 0xA0 SHL SUB SWAP4 DUP5 AND PUSH1 0x3 SWAP3 SWAP1 SWAP3 SHL SWAP2 DUP3 SHL SWAP4 SWAP1 SWAP2 SHL NOT AND SWAP2 SWAP1 SWAP2 OR SWAP1 SSTORE JUMP JUMPDEST ISZERO PUSH2 0x1E4A JUMPI JUMP JUMPDEST PUSH1 0x40 MLOAD PUSH3 0x461BCD PUSH1 0xE5 SHL DUP2 MSTORE PUSH1 0x20 PUSH1 0x4 DUP3 ADD MSTORE PUSH1 0x13 PUSH1 0x24 DUP3 ADD MSTORE PUSH19 0x4E6F7420696E20636F6D6D6974207374616765 PUSH1 0x68 SHL PUSH1 0x44 DUP3 ADD MSTORE PUSH1 0x64 SWAP1 REVERT JUMPDEST DUP1 PUSH1 0x0 MSTORE PUSH1 0x3 PUSH1 0x20 MSTORE PUSH1 0x40 PUSH1 0x0 KECCAK256 PUSH1 0x1 DUP2 ADD SWAP1 PUSH2 0x1EA5 PUSH1 0x1 DUP4 SLOAD EQ PUSH2 0x1E43 JUMP JUMPDEST PUSH1 0x2 DUP2 ADD DUP1 SLOAD TIMESTAMP GT DUP1 ISZERO PUSH2 0x20AD JUMPI JUMPDEST ISZERO PUSH2 0x2068 JUMPI PUSH1 0xF DUP3 ADD SLOAD SWAP3 PUSH1 0x8 DUP4 ADD SWAP4 DUP5 SLOAD DUP1 SWAP2 EQ PUSH2 0x2027 JUMPI PUSH2 0x1ED6 DUP2 PUSH2 0x1916 JUMP JUMPDEST PUSH1 0x0 SWAP2 PUSH1 0xD DUP7 ADD DUP4 JUMPDEST DUP3 DUP2 LT PUSH2 0x1FBA JUMPI POP POP POP PUSH1 0x0 JUMPDEST DUP3 DUP2 LT PUSH2 0x1F94 JUMPI POP POP POP PUSH1 0x2 DUP5 SLOAD LT PUSH1 0x0 EQ PUSH2 0x1F54 JUMPI POP POP PUSH32 0xA7690F576EAEF889EF9EF29D1EAEE6C0E3B073108B66BB8009EC8AF6428BB345 SWAP2 PUSH2 0x1F4F SWAP2 PUSH1 0x4 PUSH1 0xFF NOT DUP3 SLOAD AND OR DUP2 SSTORE PUSH1 0x4 TIMESTAMP SWAP2 ADD SSTORE PUSH1 0x40 MLOAD SWAP2 DUP3 SWAP2 PUSH1 0x20 DUP4 MSTORE PUSH1 0x20 DUP4 ADD SWAP1 PUSH2 0x1948 JUMP JUMPDEST SUB SWAP1 LOG2 JUMP JUMPDEST PUSH1 0x2 SWAP2 SWAP4 POP SSTORE PUSH1 0x3C TIMESTAMP ADD DUP1 TIMESTAMP GT PUSH2 0x502 JUMPI PUSH1 0x11 PUSH1 0x60 SWAP3 DUP3 PUSH1 0x0 DUP1 MLOAD PUSH1 0x20 PUSH2 0x27C4 DUP4 CODECOPY DUP2 MLOAD SWAP2 MSTORE SWAP6 SSTORE ADD SLOAD SWAP1 PUSH1 0x40 MLOAD SWAP2 DUP3 MSTORE PUSH1 0x2 PUSH1 0x20 DUP4 ADD MSTORE PUSH1 0x40 DUP3 ADD MSTORE LOG2 JUMP JUMPDEST PUSH1 0x1 SWAP1 PUSH2 0x1FB4 PUSH1 0x1 PUSH1 0x1 PUSH1 0xA0 SHL SUB PUSH2 0x1FAC DUP4 DUP7 PUSH2 0x198B JUMP JUMPDEST MLOAD AND DUP11 PUSH2 0x25B2 JUMP JUMPDEST ADD PUSH2 0x1EEC JUMP JUMPDEST DUP1 PUSH1 0xFF PUSH1 0x40 PUSH2 0x1FCB PUSH1 0x1 SWAP5 DUP14 PUSH2 0x1DDF JUMP JUMPDEST SWAP1 SLOAD PUSH1 0x3 SWAP2 SWAP1 SWAP2 SHL SHR PUSH1 0xA0 DUP6 SWAP1 SHL DUP6 SWAP1 SUB AND PUSH1 0x0 SWAP1 DUP2 MSTORE PUSH1 0x20 DUP7 SWAP1 MSTORE KECCAK256 SLOAD AND ISZERO PUSH2 0x1FF6 JUMPI JUMPDEST ADD PUSH2 0x1EDF JUMP JUMPDEST PUSH2 0x2000 DUP2 DUP12 PUSH2 0x1DDF JUMP JUMPDEST DUP4 DUP1 PUSH1 0xA0 SHL SUB SWAP2 SLOAD SWAP1 PUSH1 0x3 SHL SHR AND PUSH2 0x2021 PUSH2 0x201A DUP9 PUSH2 0x186C JUMP JUMPDEST SWAP8 DUP8 PUSH2 0x198B JUMP JUMPDEST MSTORE PUSH2 0x1FF0 JUMP JUMPDEST POP PUSH1 0x2 SWAP2 SWAP4 POP SSTORE PUSH1 0x3C TIMESTAMP ADD DUP1 TIMESTAMP GT PUSH2 0x502 JUMPI PUSH1 0x11 PUSH1 0x60 SWAP3 DUP3 PUSH1 0x0 DUP1 MLOAD PUSH1 0x20 PUSH2 0x27C4 DUP4 CODECOPY DUP2 MLOAD SWAP2 MSTORE SWAP6 SSTORE ADD SLOAD SWAP1 PUSH1 0x40 MLOAD SWAP2 DUP3 MSTORE PUSH1 0x2 PUSH1 0x20 DUP4 ADD MSTORE PUSH1 0x40 DUP3 ADD MSTORE LOG2 JUMP JUMPDEST PUSH1 0x40 MLOAD PUSH3 0x461BCD PUSH1 0xE5 SHL DUP2 MSTORE PUSH1 0x20 PUSH1 0x4 DUP3 ADD MSTORE PUSH1 0x1B PUSH1 0x24 DUP3 ADD MSTORE PUSH32 0x43616E6E6F7420656E6420636F6D6D6974207374616765207965740000000000 PUSH1 0x44 DUP3 ADD MSTORE PUSH1 0x64 SWAP1 REVERT JUMPDEST POP PUSH1 0xF DUP3 ADD SLOAD PUSH1 0x8 DUP4 ADD SLOAD EQ PUSH2 0x1EB4 JUMP JUMPDEST PUSH1 0x0 DUP2 DUP2 MSTORE PUSH1 0x3 PUSH1 0x20 MSTORE PUSH1 0x40 SWAP1 KECCAK256 PUSH1 0x8 DUP2 ADD DUP1 SLOAD DUP3 SWAP1 PUSH2 0x20DD DUP2 PUSH2 0x1916 JUMP JUMPDEST SWAP2 PUSH1 0x0 SWAP4 PUSH1 0xE PUSH1 0x0 SWAP3 ADD SWAP2 JUMPDEST DUP4 DUP2 LT PUSH2 0x2530 JUMPI POP POP POP POP PUSH1 0x0 JUMPDEST DUP3 DUP2 LT PUSH2 0x2512 JUMPI POP POP POP PUSH1 0x8 ADD SLOAD PUSH2 0x22A0 JUMPI JUMPDEST DUP1 PUSH1 0x0 MSTORE PUSH1 0x3 PUSH1 0x20 MSTORE PUSH1 0x40 PUSH1 0x0 KECCAK256 PUSH1 0x2 PUSH1 0x8 DUP3 ADD SLOAD LT SWAP1 DUP2 ISZERO PUSH2 0x2290 JUMPI JUMPDEST POP ISZERO PUSH2 0x2188 JUMPI DUP1 PUSH1 0x0 MSTORE PUSH1 0x3 PUSH1 0x20 MSTORE PUSH32 0xA7690F576EAEF889EF9EF29D1EAEE6C0E3B073108B66BB8009EC8AF6428BB345 PUSH2 0x1F4F PUSH1 0x40 PUSH1 0x0 KECCAK256 PUSH1 0x4 PUSH1 0xFF NOT DUP3 SLOAD AND OR DUP2 SSTORE TIMESTAMP PUSH1 0x4 DUP3 ADD SSTORE PUSH1 0x40 MLOAD SWAP2 DUP3 SWAP2 PUSH1 0x20 DUP4 MSTORE PUSH1 0x8 PUSH1 0x20 DUP5 ADD SWAP2 ADD PUSH2 0x1948 JUMP JUMPDEST SWAP1 DUP2 PUSH1 0x0 MSTORE PUSH1 0x3 PUSH1 0x20 MSTORE PUSH1 0x40 PUSH1 0x0 KECCAK256 PUSH1 0x11 DUP2 ADD SWAP1 PUSH2 0x21A6 DUP3 SLOAD PUSH2 0x186C JUMP JUMPDEST DUP3 SSTORE PUSH1 0x1 DUP1 DUP3 ADD SSTORE PUSH1 0x78 TIMESTAMP ADD DUP1 TIMESTAMP GT PUSH2 0x502 JUMPI PUSH1 0x2 DUP3 SWAP5 SWAP4 SWAP5 ADD SWAP1 DUP2 SSTORE PUSH1 0x0 PUSH1 0xF DUP4 ADD SSTORE PUSH1 0x0 PUSH1 0x10 DUP4 ADD SSTORE PUSH1 0x0 SWAP3 PUSH1 0x8 DUP4 ADD SWAP1 PUSH1 0xD DUP5 ADD SWAP7 PUSH1 0xE DUP6 ADD SWAP4 PUSH1 0xC PUSH1 0xB DUP8 ADD SWAP7 ADD SWAP7 JUMPDEST DUP5 SLOAD DUP2 LT ISZERO PUSH2 0x225B JUMPI DUP1 PUSH1 0x0 PUSH1 0x40 DUP13 DUP2 PUSH2 0x2209 PUSH1 0x1 SWAP7 DUP12 PUSH2 0x1DDF JUMP JUMPDEST SWAP1 SLOAD PUSH1 0x3 SWAP2 SWAP1 SWAP2 SHL SHR PUSH1 0xA0 DUP8 SWAP1 SHL DUP8 SWAP1 SUB AND DUP1 DUP6 MSTORE PUSH1 0x20 SWAP3 DUP4 MSTORE SWAP1 DUP5 KECCAK256 DUP1 SLOAD PUSH1 0xFF NOT SWAP1 DUP2 AND SWAP1 SWAP2 SSTORE DUP2 DUP6 MSTORE DUP12 DUP4 MSTORE DUP4 DUP6 KECCAK256 DUP1 SLOAD SWAP1 SWAP2 AND SWAP1 SSTORE DUP1 DUP5 MSTORE DUP12 DUP3 MSTORE DUP3 DUP5 KECCAK256 DUP5 SWAP1 SSTORE DUP4 MSTORE DUP12 SWAP1 MSTORE DUP2 KECCAK256 SSTORE ADD PUSH2 0x21ED JUMP JUMPDEST POP SWAP4 POP SWAP6 SWAP2 POP SWAP6 POP PUSH1 0x0 DUP1 MLOAD PUSH1 0x20 PUSH2 0x27C4 DUP4 CODECOPY DUP2 MLOAD SWAP2 MSTORE SWAP4 POP PUSH1 0x60 SWAP3 POP SLOAD SWAP1 SLOAD PUSH1 0x40 MLOAD SWAP2 DUP3 MSTORE PUSH1 0x1 PUSH1 0x20 DUP4 ADD MSTORE PUSH1 0x40 DUP3 ADD MSTORE LOG2 JUMP JUMPDEST PUSH1 0xA SWAP2 POP PUSH1 0x11 ADD SLOAD LT ISZERO CODESIZE PUSH2 0x2128 JUMP JUMPDEST SWAP1 DUP2 PUSH1 0x0 MSTORE PUSH1 0x3 PUSH1 0x20 MSTORE PUSH1 0x40 PUSH1 0x0 KECCAK256 PUSH1 0x0 NOT SWAP3 PUSH1 0x8 DUP3 ADD SWAP2 PUSH2 0x22C2 DUP4 SLOAD PUSH2 0x1916 JUMP JUMPDEST SWAP2 PUSH1 0x0 SWAP6 PUSH1 0x0 SWAP5 PUSH1 0xE DUP5 ADD SWAP6 JUMPDEST DUP2 SLOAD DUP2 LT ISZERO PUSH2 0x23E9 JUMPI PUSH2 0x22E2 DUP2 DUP4 PUSH2 0x1DDF JUMP JUMPDEST SWAP1 SLOAD PUSH1 0x3 SWAP2 SWAP1 SWAP2 SHL SHR PUSH1 0x1 PUSH1 0x1 PUSH1 0xA0 SHL SUB AND PUSH1 0x0 DUP2 DUP2 MSTORE PUSH1 0x20 DUP10 SWAP1 MSTORE PUSH1 0x40 SWAP1 KECCAK256 SLOAD SWAP1 SWAP2 SWAP1 PUSH1 0xFF AND PUSH2 0x2318 JUMPI JUMPDEST PUSH1 0x1 SWAP2 POP ADD PUSH2 0x22CF JUMP JUMPDEST PUSH1 0x1 PUSH1 0x1 PUSH1 0xA0 SHL SUB DUP3 AND PUSH1 0x0 SWAP1 DUP2 MSTORE PUSH1 0xC DUP8 ADD PUSH1 0x20 SWAP1 DUP2 MSTORE PUSH1 0x40 DUP1 DUP4 KECCAK256 SLOAD PUSH1 0xA DUP11 ADD SWAP3 DUP4 SWAP1 MSTORE SWAP3 KECCAK256 SLOAD SWAP2 SWAP4 SWAP2 DUP5 GT ISZERO PUSH2 0x2369 JUMPI POP PUSH1 0x1 SWAP3 POP PUSH2 0x2363 PUSH2 0x235C DUP13 PUSH2 0x186C JUMP JUMPDEST SWAP12 DUP10 PUSH2 0x198B JUMP JUMPDEST MSTORE PUSH2 0x230E JUMP JUMPDEST DUP6 DUP5 LT PUSH2 0x23E0 JUMPI JUMPDEST PUSH1 0x40 PUSH1 0x0 PUSH1 0x1 DUP1 PUSH1 0xA0 SHL SUB DUP5 AND DUP2 MSTORE DUP3 PUSH1 0x20 MSTORE KECCAK256 SWAP1 DUP2 SLOAD DUP6 DUP2 SUB SWAP1 DUP2 GT PUSH2 0x502 JUMPI PUSH1 0x1 SWAP6 PUSH1 0x40 PUSH32 0x35F48251A260A81F4842C8AB03D63A9E1845547FB728412340A68EC6C8F30021 SWAP4 DUP2 SWAP4 DUP13 SWAP7 SSTORE PUSH1 0x0 SWAP1 DUP10 DUP1 PUSH1 0xA0 SHL SUB DUP9 AND DUP3 MSTORE PUSH1 0x20 MSTORE KECCAK256 SLOAD DUP3 MLOAD SWAP2 DUP3 MSTORE PUSH1 0x20 DUP3 ADD MSTORE LOG3 PUSH2 0x230E JUMP JUMPDEST SWAP5 POP DUP3 SWAP5 PUSH2 0x2371 JUMP JUMPDEST POP POP SWAP4 POP SWAP4 SWAP5 SWAP2 SWAP1 POP PUSH1 0x0 JUMPDEST DUP3 DUP2 LT PUSH2 0x24EC JUMPI POP POP POP DUP2 PUSH1 0x0 MSTORE PUSH1 0x3 PUSH1 0x20 MSTORE PUSH1 0x40 PUSH1 0x0 KECCAK256 PUSH1 0x8 DUP2 ADD DUP1 SLOAD SWAP1 PUSH2 0x241D DUP3 PUSH2 0x1916 JUMP JUMPDEST SWAP3 PUSH1 0x0 SWAP5 PUSH1 0x0 SWAP3 PUSH1 0xE DUP4 ADD SWAP4 JUMPDEST DUP6 DUP2 LT PUSH2 0x246F JUMPI POP POP POP POP POP POP PUSH1 0x0 JUMPDEST DUP3 DUP2 LT PUSH2 0x2449 JUMPI POP POP POP PUSH2 0x210A JUMP JUMPDEST PUSH1 0x1 SWAP1 PUSH2 0x2469 PUSH1 0x1 PUSH1 0x1 PUSH1 0xA0 SHL SUB PUSH2 0x2461 DUP4 DUP7 PUSH2 0x198B JUMP JUMPDEST MLOAD AND DUP7 PUSH2 0x25B2 JUMP JUMPDEST ADD PUSH2 0x243A JUMP JUMPDEST DUP1 PUSH2 0x247C PUSH1 0x1 SWAP3 DUP5 PUSH2 0x1DDF JUMP JUMPDEST DUP4 DUP1 PUSH1 0xA0 SHL SUB SWAP2 SLOAD SWAP1 PUSH1 0x3 SHL SHR AND PUSH1 0xFF PUSH1 0x40 PUSH1 0x0 DUP6 DUP1 PUSH1 0xA0 SHL SUB DUP5 AND DUP2 MSTORE DUP10 PUSH1 0x20 MSTORE KECCAK256 SLOAD AND DUP1 PUSH2 0x24CD JUMPI JUMPDEST PUSH2 0x24B3 JUMPI JUMPDEST POP ADD PUSH2 0x242A JUMP JUMPDEST PUSH2 0x24C6 PUSH2 0x24BF DUP12 PUSH2 0x186C JUMP JUMPDEST SWAP11 DUP11 PUSH2 0x198B JUMP JUMPDEST MSTORE CODESIZE PUSH2 0x24AC JUMP JUMPDEST POP DUP5 PUSH1 0x40 PUSH1 0x0 DUP6 DUP1 PUSH1 0xA0 SHL SUB DUP5 AND DUP2 MSTORE PUSH1 0xC DUP10 ADD PUSH1 0x20 MSTORE KECCAK256 SLOAD EQ PUSH2 0x24A7 JUMP JUMPDEST PUSH1 0x1 SWAP1 PUSH2 0x250C PUSH1 0x1 PUSH1 0x1 PUSH1 0xA0 SHL SUB PUSH2 0x2504 DUP4 DUP7 PUSH2 0x198B JUMP JUMPDEST MLOAD AND DUP8 PUSH2 0x25B2 JUMP JUMPDEST ADD PUSH2 0x23F5 JUMP JUMPDEST PUSH1 0x1 SWAP1 PUSH2 0x252A PUSH1 0x1 PUSH1 0x1 PUSH1 0xA0 SHL SUB PUSH2 0x2504 DUP4 DUP7 PUSH2 0x198B JUMP JUMPDEST ADD PUSH2 0x20F7 JUMP JUMPDEST DUP1 PUSH2 0x253D PUSH1 0x1 SWAP3 DUP5 PUSH2 0x1DDF JUMP JUMPDEST DUP4 DUP1 PUSH1 0xA0 SHL SUB SWAP2 SLOAD SWAP1 PUSH1 0x3 SHL SHR AND PUSH1 0xFF PUSH1 0x40 PUSH1 0x0 DUP6 DUP1 PUSH1 0xA0 SHL SUB DUP5 AND DUP2 MSTORE DUP8 PUSH1 0x20 MSTORE KECCAK256 SLOAD AND ISZERO PUSH2 0x256F JUMPI JUMPDEST POP ADD PUSH2 0x20E9 JUMP JUMPDEST PUSH2 0x2582 PUSH2 0x257B DUP10 PUSH2 0x186C JUMP JUMPDEST SWAP9 DUP9 PUSH2 0x198B JUMP JUMPDEST MSTORE CODESIZE PUSH2 0x2568 JUMP JUMPDEST PUSH1 0x0 SLOAD PUSH1 0x1 PUSH1 0x1 PUSH1 0xA0 SHL SUB AND CALLER SUB PUSH2 0x259D JUMPI JUMP JUMPDEST PUSH4 0x118CDAA7 PUSH1 0xE0 SHL PUSH1 0x0 MSTORE CALLER PUSH1 0x4 MSTORE PUSH1 0x24 PUSH1 0x0 REVERT JUMPDEST SWAP1 PUSH1 0x0 SWAP2 DUP1 DUP4 MSTORE PUSH1 0x3 PUSH1 0x20 MSTORE PUSH1 0x40 DUP4 KECCAK256 SWAP2 PUSH1 0x9 DUP4 ADD PUSH1 0x1 DUP1 PUSH1 0xA0 SHL SUB DUP3 AND DUP6 MSTORE DUP1 PUSH1 0x20 MSTORE PUSH1 0xFF PUSH1 0x40 DUP7 KECCAK256 SLOAD AND ISZERO PUSH2 0x278A JUMPI PUSH1 0x1 DUP1 PUSH1 0xA0 SHL SUB DUP3 AND DUP6 MSTORE PUSH1 0x20 MSTORE PUSH1 0x40 DUP5 KECCAK256 PUSH1 0xFF NOT DUP2 SLOAD AND SWAP1 SSTORE PUSH1 0x1 DUP1 PUSH1 0xA0 SHL SUB AND SWAP2 DUP3 DUP5 MSTORE PUSH1 0x5 PUSH1 0x20 MSTORE PUSH1 0x40 DUP5 KECCAK256 PUSH1 0xFF NOT DUP2 SLOAD AND SWAP1 SSTORE DUP3 DUP5 MSTORE PUSH1 0x4 PUSH1 0x20 MSTORE DUP4 PUSH1 0x40 DUP2 KECCAK256 SSTORE DUP4 PUSH1 0x8 DUP3 ADD SWAP5 JUMPDEST DUP6 SLOAD DUP1 DUP3 LT ISZERO PUSH2 0x277E JUMPI DUP6 PUSH2 0x2644 DUP4 DUP10 PUSH2 0x1DDF JUMP JUMPDEST SWAP1 SLOAD PUSH1 0x3 SWAP2 SWAP1 SWAP2 SHL SHR PUSH1 0x1 PUSH1 0x1 PUSH1 0xA0 SHL SUB AND EQ PUSH2 0x2664 JUMPI POP PUSH1 0x1 ADD PUSH2 0x262F JUMP JUMPDEST PUSH1 0x0 SWAP7 SWAP3 SWAP4 SWAP5 SWAP6 SWAP7 NOT DUP2 ADD SWAP1 DUP2 GT PUSH2 0x276A JUMPI SWAP1 PUSH2 0x1E1F PUSH2 0x2687 PUSH2 0x26A0 SWAP4 DUP6 PUSH2 0x1DDF JUMP JUMPDEST SWAP1 SLOAD PUSH1 0x3 SWAP2 SWAP1 SWAP2 SHL SHR PUSH1 0x1 PUSH1 0x1 PUSH1 0xA0 SHL SUB AND SWAP2 DUP5 PUSH2 0x1DDF JUMP JUMPDEST DUP1 SLOAD DUP1 ISZERO PUSH2 0x2756 JUMPI PUSH1 0x0 NOT ADD SWAP1 PUSH2 0x26B7 DUP3 DUP3 PUSH2 0x1DDF JUMP JUMPDEST DUP2 SLOAD SWAP1 PUSH1 0x1 DUP1 PUSH1 0xA0 SHL SUB SWAP1 PUSH1 0x3 SHL SHL NOT AND SWAP1 SSTORE SSTORE JUMPDEST PUSH1 0x1 SLOAD PUSH1 0x1 PUSH1 0x1 PUSH1 0xA0 SHL SUB AND DUP1 EXTCODESIZE ISZERO PUSH2 0x2752 JUMPI SWAP1 DUP1 DUP1 PUSH1 0x7 SWAP5 SWAP4 PUSH1 0x24 PUSH1 0x40 MLOAD DUP1 SWAP5 DUP2 SWAP4 PUSH4 0x3EF6CF1D PUSH1 0xE2 SHL DUP4 MSTORE DUP12 PUSH1 0x4 DUP5 ADD MSTORE GAS CALL PUSH2 0x2742 JUMPI JUMPDEST POP POP DUP4 PUSH1 0x0 MSTORE ADD PUSH1 0x20 MSTORE PUSH32 0x51479C93D7646904D2282E9E79CDDF11999AC774B7FD0289E2F59CB4AD0F086A PUSH1 0x20 PUSH1 0x40 PUSH1 0x0 KECCAK256 SLOAD PUSH1 0x40 MLOAD SWAP1 DUP2 MSTORE LOG3 JUMP JUMPDEST DUP2 PUSH2 0x274C SWAP2 PUSH2 0x18DC JUMP JUMPDEST CODESIZE PUSH2 0x2706 JUMP JUMPDEST POP DUP1 REVERT JUMPDEST PUSH4 0x4E487B71 PUSH1 0xE0 SHL DUP4 MSTORE PUSH1 0x31 PUSH1 0x4 MSTORE PUSH1 0x24 DUP4 REVERT JUMPDEST PUSH4 0x4E487B71 PUSH1 0xE0 SHL DUP5 MSTORE PUSH1 0x11 PUSH1 0x4 MSTORE PUSH1 0x24 DUP5 REVERT JUMPDEST POP POP SWAP1 SWAP2 SWAP3 SWAP4 POP PUSH2 0x26CC JUMP JUMPDEST PUSH1 0x40 MLOAD PUSH3 0x461BCD PUSH1 0xE5 SHL DUP2 MSTORE PUSH1 0x20 PUSH1 0x4 DUP3 ADD MSTORE PUSH1 0x11 PUSH1 0x24 DUP3 ADD MSTORE PUSH17 0x506C61796572206E6F7420616374697665 PUSH1 0x78 SHL PUSH1 0x44 DUP3 ADD MSTORE PUSH1 0x64 SWAP1 REVERT INVALID REVERT SWAP14 OR 0xE5 JUMP TSTORE 0xEE LOG3 0xD2 MSIZE XOR 0xD9 PUSH0 0xC3 SWAP9 PUSH8 0x3B9445EF0A96D12E 0xAF GASPRICE 0xB2 0xB1 SWAP9 PUSH22 0x6C65A2646970667358221220ACA019EBE2E018AA893C 0xE6 MULMOD LOG4 0xE 0xB9 PUSH30 0x68DD1A11900CEDEEAD8E7C151FEE2D3F64736F6C634300081C0033000000 "},"methodIdentifiers":{"commitBid(bytes32)":"86a2cc27","endExpiredGames()":"d0f3a21e","endGame()":"6cbc2ded","gameIdCounter()":"1bb412d6","gameMaster()":"bdf84ae7","getActivePlayers()":"3c4f5a66","getCurrentPhase(uint256)":"572e85ec","getGameInfo(uint256)":"47e1d550","getGameName()":"bbda33d9","getGameState(uint256)":"ffde0c74","getGames()":"c04c5947","getPlayerGameId(address)":"773b549d","getPlayerInfo(uint256)":"ea17532e","getPlayerNumber(uint256,address)":"3532804d","getPlayerPoints(uint256,address)":"53fb1cd2","getPlayers()":"8b5b9ccc","getRoundEndTime(uint256)":"12b19a13","hasPlayerCommitted(uint256,address)":"84cd7d33","hasPlayerRevealed(uint256,address)":"d216b62b","initialize(address[],uint256[])":"7fbbe46f","isPlayerInGame(address)":"574a5b20","owner()":"8da5cb5b","playerGameId(address)":"25b05c88","registerMe()":"9a198d61","renounceOwnership()":"715018a6","revealBid(uint256,bytes32)":"62c5424a","setGameMaster(address)":"c2e94927","startGames()":"e81de9f5","transferOwnership(address)":"f2fde38b"}}}}}