{"contracts/casino/climb.sol":{"Climb":{"abi":[{"inputs":[{"internalType":"address","name":"entropyAddress","type":"address"},{"internalType":"address","name":"pointsAddress","type":"address"}],"stateMutability":"nonpayable","type":"constructor"},{"inputs":[{"internalType":"address","name":"owner","type":"address"}],"name":"OwnableInvalidOwner","type":"error"},{"inputs":[{"internalType":"address","name":"account","type":"address"}],"name":"OwnableUnauthorizedAccount","type":"error"},{"inputs":[],"name":"ReentrancyGuardReentrantCall","type":"error"},{"anonymous":false,"inputs":[{"indexed":true,"internalType":"address","name":"player","type":"address"},{"indexed":true,"internalType":"uint256","name":"gameId","type":"uint256"},{"indexed":false,"internalType":"uint8","name":"fromLevel","type":"uint8"},{"indexed":false,"internalType":"uint8","name":"newLevel","type":"uint8"},{"indexed":false,"internalType":"bool","name":"success","type":"bool"},{"indexed":false,"internalType":"bool","name":"gameEnded","type":"bool"},{"indexed":false,"internalType":"uint256","name":"randomNumber","type":"uint256"}],"name":"ClimbResult","type":"event"},{"anonymous":false,"inputs":[{"indexed":true,"internalType":"address","name":"depositor","type":"address"},{"indexed":false,"internalType":"uint256","name":"amount","type":"uint256"}],"name":"FundsDeposited","type":"event"},{"anonymous":false,"inputs":[{"components":[{"internalType":"address","name":"player","type":"address"},{"internalType":"uint256","name":"gameId","type":"uint256"},{"internalType":"uint8","name":"finalLevel","type":"uint8"},{"internalType":"bool","name":"success","type":"bool"},{"internalType":"uint32","name":"finalMultiplier","type":"uint32"},{"internalType":"uint256","name":"payout","type":"uint256"},{"internalType":"string","name":"endReason","type":"string"},{"internalType":"bool","name":"paidInPoints","type":"bool"}],"indexed":false,"internalType":"struct Climb.GameEndData","name":"data","type":"tuple"}],"name":"GameEnded","type":"event"},{"anonymous":false,"inputs":[{"components":[{"internalType":"address","name":"player","type":"address"},{"internalType":"uint256","name":"gameId","type":"uint256"},{"internalType":"uint256","name":"timestamp","type":"uint256"},{"internalType":"uint256","name":"depositAmount","type":"uint256"}],"indexed":false,"internalType":"struct Climb.GameStartData","name":"data","type":"tuple"}],"name":"GameStarted","type":"event"},{"anonymous":false,"inputs":[{"indexed":false,"internalType":"uint256","name":"oldMaxDeposit","type":"uint256"},{"indexed":false,"internalType":"uint256","name":"newMaxDeposit","type":"uint256"}],"name":"MaxDepositChanged","type":"event"},{"anonymous":false,"inputs":[{"indexed":true,"internalType":"address","name":"previousOwner","type":"address"},{"indexed":true,"internalType":"address","name":"newOwner","type":"address"}],"name":"OwnershipTransferred","type":"event"},{"anonymous":false,"inputs":[{"indexed":true,"internalType":"address","name":"player","type":"address"},{"indexed":true,"internalType":"uint256","name":"gameId","type":"uint256"},{"indexed":false,"internalType":"uint8","name":"level","type":"uint8"},{"indexed":false,"internalType":"uint32","name":"multiplierValue","type":"uint32"},{"indexed":false,"internalType":"uint256","name":"payout","type":"uint256"},{"indexed":false,"internalType":"bool","name":"paidInPoints","type":"bool"}],"name":"PlayerCashedOut","type":"event"},{"anonymous":false,"inputs":[{"indexed":true,"internalType":"address","name":"oldContract","type":"address"},{"indexed":true,"internalType":"address","name":"newContract","type":"address"}],"name":"PointsContractUpdated","type":"event"},{"anonymous":false,"inputs":[{"indexed":false,"internalType":"bool","name":"oldValue","type":"bool"},{"indexed":false,"internalType":"bool","name":"newValue","type":"bool"}],"name":"PointsWithdrawableChanged","type":"event"},{"anonymous":false,"inputs":[{"components":[{"internalType":"address","name":"player","type":"address"},{"internalType":"uint256","name":"gameId","type":"uint256"},{"internalType":"uint8","name":"level","type":"uint8"},{"internalType":"uint64","name":"sequenceNumber","type":"uint64"}],"indexed":false,"internalType":"struct Climb.RequestData","name":"data","type":"tuple"},{"indexed":false,"internalType":"bool","name":"isCashout","type":"bool"}],"name":"RequestAttempted","type":"event"},{"inputs":[],"name":"MAX_LEVEL","outputs":[{"internalType":"uint8","name":"","type":"uint8"}],"stateMutability":"view","type":"function"},{"inputs":[],"name":"MIN_CASHOUT_LEVEL","outputs":[{"internalType":"uint8","name":"","type":"uint8"}],"stateMutability":"view","type":"function"},{"inputs":[],"name":"MIN_DEPOSIT","outputs":[{"internalType":"uint256","name":"","type":"uint256"}],"stateMutability":"view","type":"function"},{"inputs":[],"name":"MULTIPLIER_PRECISION","outputs":[{"internalType":"uint32","name":"","type":"uint32"}],"stateMutability":"view","type":"function"},{"inputs":[],"name":"ODDS_PRECISION","outputs":[{"internalType":"uint16","name":"","type":"uint16"}],"stateMutability":"view","type":"function"},{"inputs":[{"internalType":"uint64","name":"sequence","type":"uint64"},{"internalType":"address","name":"provider","type":"address"},{"internalType":"bytes32","name":"randomNumber","type":"bytes32"}],"name":"_entropyCallback","outputs":[],"stateMutability":"nonpayable","type":"function"},{"inputs":[{"internalType":"address","name":"player","type":"address"}],"name":"canPlayerCashOut","outputs":[{"internalType":"bool","name":"","type":"bool"}],"stateMutability":"view","type":"function"},{"inputs":[{"internalType":"address","name":"player","type":"address"}],"name":"canPlayerClimb","outputs":[{"internalType":"bool","name":"","type":"bool"}],"stateMutability":"view","type":"function"},{"inputs":[],"name":"cashOut","outputs":[],"stateMutability":"payable","type":"function"},{"inputs":[],"name":"climb","outputs":[{"internalType":"uint64","name":"","type":"uint64"}],"stateMutability":"payable","type":"function"},{"inputs":[{"internalType":"uint256","name":"","type":"uint256"}],"name":"completedGames","outputs":[{"internalType":"uint256","name":"gameId","type":"uint256"},{"internalType":"address","name":"player","type":"address"},{"internalType":"uint8","name":"finalLevel","type":"uint8"},{"internalType":"bool","name":"success","type":"bool"},{"internalType":"uint32","name":"finalMultiplier","type":"uint32"},{"internalType":"uint256","name":"depositAmount","type":"uint256"},{"internalType":"uint256","name":"payout","type":"uint256"},{"internalType":"uint256","name":"startTime","type":"uint256"},{"internalType":"uint256","name":"endTime","type":"uint256"},{"internalType":"string","name":"endReason","type":"string"},{"internalType":"bool","name":"paidInPoints","type":"bool"}],"stateMutability":"view","type":"function"},{"inputs":[],"name":"depositFunds","outputs":[],"stateMutability":"payable","type":"function"},{"inputs":[],"name":"getAllLevelInfo","outputs":[{"internalType":"uint16[11]","name":"allOdds","type":"uint16[11]"},{"internalType":"uint32[11]","name":"allSonicMultipliers","type":"uint32[11]"},{"internalType":"uint32[11]","name":"allPointMultipliers","type":"uint32[11]"},{"internalType":"uint8","name":"minCashoutLevel","type":"uint8"},{"internalType":"uint8","name":"maxLevel","type":"uint8"}],"stateMutability":"view","type":"function"},{"inputs":[],"name":"getAllMultipliers","outputs":[{"internalType":"uint32[11]","name":"","type":"uint32[11]"}],"stateMutability":"view","type":"function"},{"inputs":[],"name":"getAllOdds","outputs":[{"internalType":"uint16[11]","name":"","type":"uint16[11]"}],"stateMutability":"view","type":"function"},{"inputs":[],"name":"getAllPointMultipliers","outputs":[{"internalType":"uint32[11]","name":"","type":"uint32[11]"}],"stateMutability":"view","type":"function"},{"inputs":[{"internalType":"address","name":"player","type":"address"}],"name":"getClimbOdds","outputs":[{"internalType":"uint16","name":"","type":"uint16"}],"stateMutability":"view","type":"function"},{"inputs":[{"internalType":"uint256","name":"gameId","type":"uint256"}],"name":"getCompletedGame","outputs":[{"components":[{"internalType":"uint256","name":"gameId","type":"uint256"},{"internalType":"address","name":"player","type":"address"},{"internalType":"uint8","name":"finalLevel","type":"uint8"},{"internalType":"bool","name":"success","type":"bool"},{"internalType":"uint32","name":"finalMultiplier","type":"uint32"},{"internalType":"uint256","name":"depositAmount","type":"uint256"},{"internalType":"uint256","name":"payout","type":"uint256"},{"internalType":"uint256","name":"startTime","type":"uint256"},{"internalType":"uint256","name":"endTime","type":"uint256"},{"internalType":"string","name":"endReason","type":"string"},{"internalType":"bool","name":"paidInPoints","type":"bool"}],"internalType":"struct Climb.CompletedGame","name":"","type":"tuple"}],"stateMutability":"view","type":"function"},{"inputs":[],"name":"getContractBalance","outputs":[{"internalType":"uint256","name":"","type":"uint256"}],"stateMutability":"view","type":"function"},{"inputs":[{"internalType":"uint8","name":"level","type":"uint8"}],"name":"getLevelInfo","outputs":[{"internalType":"uint16","name":"oddsToReach","type":"uint16"},{"internalType":"uint32","name":"sonicMultiplier","type":"uint32"},{"internalType":"uint32","name":"pointMultiplier_","type":"uint32"},{"internalType":"bool","name":"canCashOut","type":"bool"}],"stateMutability":"view","type":"function"},{"inputs":[{"internalType":"uint8","name":"level","type":"uint8"}],"name":"getMultiplier","outputs":[{"internalType":"uint32","name":"","type":"uint32"}],"stateMutability":"view","type":"function"},{"inputs":[{"internalType":"uint8","name":"level","type":"uint8"}],"name":"getOdds","outputs":[{"internalType":"uint16","name":"","type":"uint16"}],"stateMutability":"view","type":"function"},{"inputs":[{"internalType":"address","name":"player","type":"address"}],"name":"getPlayerGame","outputs":[{"components":[{"internalType":"uint8","name":"currentLevel","type":"uint8"},{"internalType":"bool","name":"isActive","type":"bool"},{"internalType":"uint64","name":"pendingSequence","type":"uint64"},{"internalType":"enum Climb.RequestType","name":"pendingType","type":"uint8"},{"internalType":"uint256","name":"startTime","type":"uint256"},{"internalType":"uint256","name":"depositAmount","type":"uint256"},{"internalType":"uint256","name":"gameId","type":"uint256"}],"internalType":"struct Climb.GameState","name":"","type":"tuple"}],"stateMutability":"view","type":"function"},{"inputs":[{"internalType":"address","name":"player","type":"address"}],"name":"getPlayerGameCount","outputs":[{"internalType":"uint256","name":"","type":"uint256"}],"stateMutability":"view","type":"function"},{"inputs":[{"internalType":"address","name":"player","type":"address"}],"name":"getPlayerGameHistory","outputs":[{"internalType":"uint256[]","name":"","type":"uint256[]"}],"stateMutability":"view","type":"function"},{"inputs":[{"internalType":"address","name":"player","type":"address"},{"internalType":"uint256","name":"offset","type":"uint256"},{"internalType":"uint256","name":"limit","type":"uint256"}],"name":"getPlayerGameHistoryPaginated","outputs":[{"components":[{"internalType":"uint256","name":"gameId","type":"uint256"},{"internalType":"address","name":"player","type":"address"},{"internalType":"uint8","name":"finalLevel","type":"uint8"},{"internalType":"bool","name":"success","type":"bool"},{"internalType":"uint32","name":"finalMultiplier","type":"uint32"},{"internalType":"uint256","name":"depositAmount","type":"uint256"},{"internalType":"uint256","name":"payout","type":"uint256"},{"internalType":"uint256","name":"startTime","type":"uint256"},{"internalType":"uint256","name":"endTime","type":"uint256"},{"internalType":"string","name":"endReason","type":"string"},{"internalType":"bool","name":"paidInPoints","type":"bool"}],"internalType":"struct Climb.CompletedGame[]","name":"","type":"tuple[]"}],"stateMutability":"view","type":"function"},{"inputs":[{"internalType":"address","name":"player","type":"address"}],"name":"getPlayerStats","outputs":[{"internalType":"uint256","name":"totalGames","type":"uint256"},{"internalType":"uint256","name":"totalWins","type":"uint256"},{"internalType":"uint256","name":"totalBusts","type":"uint256"},{"internalType":"uint256","name":"totalDeposited","type":"uint256"},{"internalType":"uint256","name":"totalWon","type":"uint256"},{"internalType":"uint256","name":"netProfit","type":"uint256"}],"stateMutability":"view","type":"function"},{"inputs":[{"internalType":"uint8","name":"level","type":"uint8"}],"name":"getPointMultiplier","outputs":[{"internalType":"uint32","name":"","type":"uint32"}],"stateMutability":"view","type":"function"},{"inputs":[{"internalType":"address","name":"player","type":"address"},{"internalType":"uint8","name":"level","type":"uint8"},{"internalType":"bool","name":"isPoints","type":"bool"}],"name":"getPotentialPayout","outputs":[{"internalType":"uint256","name":"","type":"uint256"}],"stateMutability":"view","type":"function"},{"inputs":[{"internalType":"uint8","name":"currentLevel","type":"uint8"}],"name":"getSuccessThreshold","outputs":[{"internalType":"uint256","name":"","type":"uint256"}],"stateMutability":"view","type":"function"},{"inputs":[{"internalType":"uint256","name":"randomNumber","type":"uint256"},{"internalType":"uint8","name":"currentLevel","type":"uint8"}],"name":"isClimbSuccessful","outputs":[{"internalType":"bool","name":"","type":"bool"}],"stateMutability":"view","type":"function"},{"inputs":[{"internalType":"uint256","name":"randomNumber","type":"uint256"}],"name":"isPointsPayout","outputs":[{"internalType":"bool","name":"","type":"bool"}],"stateMutability":"pure","type":"function"},{"inputs":[],"name":"maxDeposit","outputs":[{"internalType":"uint256","name":"","type":"uint256"}],"stateMutability":"view","type":"function"},{"inputs":[{"internalType":"uint256","name":"","type":"uint256"}],"name":"multiplier","outputs":[{"internalType":"uint32","name":"","type":"uint32"}],"stateMutability":"view","type":"function"},{"inputs":[{"internalType":"uint256","name":"","type":"uint256"}],"name":"odds","outputs":[{"internalType":"uint16","name":"","type":"uint16"}],"stateMutability":"view","type":"function"},{"inputs":[],"name":"owner","outputs":[{"internalType":"address","name":"","type":"address"}],"stateMutability":"view","type":"function"},{"inputs":[{"internalType":"address","name":"","type":"address"},{"internalType":"uint256","name":"","type":"uint256"}],"name":"playerGameHistory","outputs":[{"internalType":"uint256","name":"","type":"uint256"}],"stateMutability":"view","type":"function"},{"inputs":[{"internalType":"address","name":"","type":"address"}],"name":"playerGames","outputs":[{"internalType":"uint8","name":"currentLevel","type":"uint8"},{"internalType":"bool","name":"isActive","type":"bool"},{"internalType":"uint64","name":"pendingSequence","type":"uint64"},{"internalType":"enum Climb.RequestType","name":"pendingType","type":"uint8"},{"internalType":"uint256","name":"startTime","type":"uint256"},{"internalType":"uint256","name":"depositAmount","type":"uint256"},{"internalType":"uint256","name":"gameId","type":"uint256"}],"stateMutability":"view","type":"function"},{"inputs":[{"internalType":"uint256","name":"","type":"uint256"}],"name":"pointMultiplier","outputs":[{"internalType":"uint32","name":"","type":"uint32"}],"stateMutability":"view","type":"function"},{"inputs":[],"name":"pointsAreWithdrawable","outputs":[{"internalType":"bool","name":"","type":"bool"}],"stateMutability":"view","type":"function"},{"inputs":[],"name":"pointsContract","outputs":[{"internalType":"contract IPoints","name":"","type":"address"}],"stateMutability":"view","type":"function"},{"inputs":[],"name":"renounceOwnership","outputs":[],"stateMutability":"nonpayable","type":"function"},{"inputs":[{"internalType":"uint256","name":"newMaxDeposit","type":"uint256"}],"name":"setMaxDeposit","outputs":[],"stateMutability":"nonpayable","type":"function"},{"inputs":[{"internalType":"address","name":"newPointsContract","type":"address"}],"name":"setPointsContract","outputs":[],"stateMutability":"nonpayable","type":"function"},{"inputs":[{"internalType":"bool","name":"withdrawable","type":"bool"}],"name":"setPointsWithdrawable","outputs":[],"stateMutability":"nonpayable","type":"function"},{"inputs":[],"name":"startGame","outputs":[],"stateMutability":"payable","type":"function"},{"inputs":[],"name":"totalGamesPlayed","outputs":[{"internalType":"uint256","name":"","type":"uint256"}],"stateMutability":"view","type":"function"},{"inputs":[{"internalType":"address","name":"newOwner","type":"address"}],"name":"transferOwnership","outputs":[],"stateMutability":"nonpayable","type":"function"},{"inputs":[{"internalType":"uint256","name":"amount","type":"uint256"}],"name":"withdraw","outputs":[],"stateMutability":"nonpayable","type":"function"},{"stateMutability":"payable","type":"receive"}],"evm":{"bytecode":{"linkReferences":{},"object":"6080346101c057601f613f1e38819003918201601f19168301916001600160401b038311848410176101c55780849260409485528339810103126101c057610052602061004b836101db565b92016101db565b90600160005533156101aa5760018054336001600160a01b0319821681179092556001600160a01b03167f8be0079c531659141344cd1fd0a4f28419497f9722a3daafe3b4186f6b6457e0600080a3670de0b6b3a7640000600255600380546001600160a81b03191660089290921b610100600160a81b0316919091179055600480546001600160a01b0319166001600160a01b03929092169190911790556000600a55600b8054750790097412ed0f2812f616c619531c831be622cd03e86001600160b01b03199091161790557d09c4000003e8000001f40000012c000000c8000000960000006e00000064600c55600d80546a0186a000004e20000013886001600160601b0319918216179091557d04e2000001f4000000fa0000006400000032000000230000001400000000600e55600f805469c35000002710000009c49216919091179055604051613d2e90816101f08239f35b631e4fbdf760e01b600052600060045260246000fd5b600080fd5b634e487b7160e01b600052604160045260246000fd5b51906001600160a01b03821682036101c05756fe60806040526004361015610047575b361561001957600080fd5b6040513481527f543ba50a5eec5e6178218e364b1d0f396157b3c8fa278522c2cb7fd99407d47460203392a2005b6000803560e01c806305e30f51146130865780630b072b8d1461304d5780631d33488414612f6f57806324448c6314612f4b57806326c1f13e14612f2f5780632a39298e14612d465780632b4f8a1f14612d1d5780632c5f994714612cee5780632e1a7d4d14612c2e5780632f912e2e14612bfc57806339ab240414612baf5780633cddb89a14612abb5780634005650514612a2857806346156ea0146129fb5780634c629da4146129d45780634d30372d1461290a5780634e1523dc146128555780634fd66eae1461270f57806352a5f1f8146116cb5780635c492129146116ad5780635de704761461160b5780636083e59a146115ed5780636805267e1461157a5780636bc98ba31461155d5780636e37da1b146114d75780636f9fb98a146114bb578063715018a61461145e578063793cd71e146110975780638da5cb5b1461106e578063931287351461101757806395754abb14610f5d578063a49062d414610f41578063a5432fee14610b57578063b309483a14610b3b578063ba24d2e314610b02578063bb371fdd146109ea578063c3e7167014610918578063ce00348f14610802578063d076d5a0146107d2578063d65ab5f2146104f7578063d82c4cc3146104ab578063dd81378814610488578063e1e158a514610465578063e2c41dbc146103df578063e4ab043d146103ae578063eeebba2914610371578063efedf50b14610332578063f25764b5146102f95763f2fde38b1461026e575061000e565b346102f65760203660031901126102f657610287613122565b61028f613adb565b6001600160a01b031680156102e257600180546001600160a01b0319811683179091556001600160a01b03167f8be0079c531659141344cd1fd0a4f28419497f9722a3daafe3b4186f6b6457e08380a380f35b631e4fbdf760e01b82526004829052602482fd5b80fd5b50346102f65760203660031901126102f6576020906040906001600160a01b03610321613122565b168152600783522054604051908152f35b50346102f657806003193601126102f6576101608091604051906103568383613321565b50369037610362613884565b61036f6040518092613412565bf35b50346102f657806003193601126102f6576101608091604051906103958383613321565b503690376103a16137fa565b61036f60405180926133e6565b50346102f65760403660031901126102f65760206103d26103cd613112565b613767565b6004351115604051908152f35b50806003193601126102f6576103f3613adb565b3415610428576040513481527f543ba50a5eec5e6178218e364b1d0f396157b3c8fa278522c2cb7fd99407d47460203392a280f35b60405162461bcd60e51b815260206004820152601560248201527409aeae6e840c8cae0dee6d2e840e6dedaca408aa89605b1b6044820152606490fd5b50346102f657806003193601126102f6576020604051670de0b6b3a76400008152f35b50346102f657806003193601126102f657602060ff600354166040519015158152f35b50346102f65760203660031901126102f6576104df60406104f3926104ce6134e7565b50600435815260066020522061354e565b60405191829160208352602083019061318f565b0390f35b50806003193601126102f65761050b613b50565b670de0b6b3a7640000341061079557600254341161075057338152600560205260ff604082205460081c1661070b57338152600560205260ff604082205460501c1660038110156106f7576106a357610565600a546137eb565b9081600a556040516105768161329d565b8181526001602080830191825260408084018581526060850186815242608087019081523460a0880190815260c08801998a523389526005909552928720955186549551925169ffffffffffffffffffff1990961660ff919091161791151560081b61ff00169190911760109490941b69ffffffffffffffff00001693909317845594915194600386101561068f57610613849596600395613ab7565b516001850155516002840155519101557fdec0d6e2ae1ceb47a21ddb69901b8248210103e53a06facfdc33f46cd01756826080600a54604051610655816132ea565b3381526020810191825260606040820191428352019034825260405192338452516020840152516040830152516060820152a16001815580f35b634e487b7160e01b85526021600452602485fd5b60405162461bcd60e51b815260206004820152602660248201527f50656e64696e672072657175657374206d757374206265207265736f6c76656460448201526508199a5c9cdd60d21b6064820152608490fd5b634e487b7160e01b82526021600452602482fd5b60405162461bcd60e51b815260206004820152601860248201527f47616d6520616c726561647920696e2070726f677265737300000000000000006044820152606490fd5b60405162461bcd60e51b815260206004820152601760248201527f4465706f7369742065786365656473206d6178696d756d0000000000000000006044820152606490fd5b60405162461bcd60e51b81526020600482015260156024820152744465706f7369742062656c6f77206d696e696d756d60581b6044820152606490fd5b50346102f657806003193601126102f6576101608091604051906107f68383613321565b50369037610362613946565b50346102f65760203660031901126102f657604060e091610821613122565b8160c0845161082f8161329d565b82815282602082015282868201528260608201528260808201528260a0820152015260018060a01b031681526005602052206040519061086e8261329d565b80549060ff82168352602083019160ff8160081c161515835261090460408501916001600160401b038160101c1683526108b260ff606088019260501c1682613494565b6001600160401b0360018501549360808801948552600360028701549660a08a0197885201549660c0890197885260ff6040519951168952511515602089015251166040870152516060860190613225565b5160808401525160a08301525160c0820152f35b50346102f65760203660031901126102f65761ffff6109da6109d560ff604060209560018060a01b03610949613122565b16815260058752206109bf604051916109618361329d565b6003815491858316855261099c868b870194818160081c16151586526001600160401b038160101c16604089015260501c1660608701613494565b60018101546080860152600281015460a0860152015460c0840152511515613625565b6109ce600a8383511610613a6b565b5116613741565b613248565b90549060031b1c16604051908152f35b50346102f65760203660031901126102f657600435610a07613adb565b670de0b6b3a76400008110610aa9578015610a565760407f04f57e88d155dd8095ed0d01a2787f469eb9ba59cd7d06ba45d88365be7ec93691600254908060025582519182526020820152a180f35b60405162461bcd60e51b815260206004820152602560248201527f4d6178206465706f736974206d7573742062652067726561746572207468616e604482015264207a65726f60d81b6064820152608490fd5b60405162461bcd60e51b815260206004820152602b60248201527f4d6178206465706f7369742063616e6e6f742062652062656c6f77206d696e6960448201526a1b5d5b4819195c1bdcda5d60aa1b6064820152608490fd5b50346102f65760203660031901126102f657602063ffffffff6109da610b266130fd565b610b36600a60ff83161115613458565b6130e2565b50346102f657806003193601126102f657602060405160648152f35b50806003193601126102f657610b6b613b50565b3381526005602052610b8660ff604083205460081c16613625565b338152600560205260ff604082205460501c1660038110156106f757610bac9015613a08565b338152600560205260408120610bc8600a60ff83541610613a6b565b610bd68260ff835416613753565b600019430190438211610f2d576040519060208201924284524460408401523360601b606084015240607483015260ff60f81b9060f81b16609482015260758152610c22609582613321565b5190206003546040516320bba64360e21b815260089190911c6001600160a01b03169291602082600481875afa918215610f22578592610eda575b50604051631711922960e31b81526001600160a01b039092166004830181905291602081602481885afa8015610ecf578690610e82575b6001600160801b03915016803410610e315760209260449160405196879485936319cb825f60e01b8552600485015260248401525af1918215610e26578392610ddd575b50805469ffffffffffffffff00001916601083901b69ffffffffffffffff0000161781556020926001917fcb9f534d41d12f39394586d6a7bbae75471bd457e6bd88546f4d5ae46e05754e9060a090610d318582613ab7565b6001600160401b0386169586855260088852604085208680851b0333166001600160601b03851b825416179055868552600988526040852060ff198154169055506001600160401b0360ff60038301549254169160ff60405193610d94856132ea565b3385528a85019283526040850190815260608501928a8452604051958a80891b039051168652518b8601525116604084015251166060820152836080820152a155604051908152f35b9091506020813d602011610e1e575b81610df960209383613321565b81010312610e1a57516001600160401b0381168103610e1a57906020610cd8565b8280fd5b3d9150610dec565b6040513d85823e3d90fd5b60405162461bcd60e51b8152602060048201526024808201527f496e73756666696369656e742066656520666f7220656e74726f7079207265716044820152631d595cdd60e21b6064820152608490fd5b506020813d602011610ec7575b81610e9c60209383613321565b81010312610ec357516001600160801b0381168103610ec3576001600160801b0390610c94565b8580fd5b3d9150610e8f565b6040513d88823e3d90fd5b9091506020813d602011610f1a575b81610ef660209383613321565b81010312610f1657516001600160a01b0381168103610f16579038610c5d565b8480fd5b3d9150610ee9565b6040513d87823e3d90fd5b634e487b7160e01b84526011600452602484fd5b50346102f657806003193601126102f6576020604051600a8152f35b50346102f65760203660031901126102f657610f77613122565b610f7f613adb565b6001600160a01b03168015610fd257600480546001600160a01b0319811683179091556001600160a01b03167f7b5eabeb4ab16a2ad7e5311f64b056ae65cae15ff946519963a642fffdaad14a8380a380f35b60405162461bcd60e51b815260206004820152601f60248201527f496e76616c696420706f696e747320636f6e74726163742061646472657373006044820152606490fd5b50346102f65760403660031901126102f657611031613122565b6001600160a01b03168152600760205260408120805460243592908310156102f657602061105f8484613440565b90549060031b1c604051908152f35b50346102f657806003193601126102f6576001546040516001600160a01b039091168152602090f35b50806003193601126102f6576110ab613b50565b33815260056020526110c660ff604083205460081c16613625565b338152600560205260ff604082205460501c1660038110156106f7576110ec9015613a08565b33815260056020526040812060ff81541660018110159081611452575b501561140d5761111e606460ff835416613753565b600019430190438211610f2d576040519060208201924284524460408401523360601b606084015240607483015260ff60f81b9060f81b1660948201526075815261116a609582613321565b5190206003546040516320bba64360e21b815260089190911c6001600160a01b031691602082600481865afa918215610f225785926113c9575b50604051631711922960e31b81526001600160a01b039092166004830181905291602081602481875afa8015610ecf578690611380575b6001600160801b03915016803410610e315760209260449160405195869485936319cb825f60e01b8552600485015260248401525af1908115610e2657839161131e575b50815469ffffffffffffffff00001916601082901b69ffffffffffffffff0000161782557fcb9f534d41d12f39394586d6a7bbae75471bd457e6bd88546f4d5ae46e05754e9160a0916001600160401b039061127c600284613ab7565b81811690818752600860205260408720600180871b0333166001600160601b03871b825416179055818752600960205260408720600160ff198254161790555060ff806003850154945416604051946112d4866132ea565b33865260208601908152604086019182526060860193845260405195600180891b039051168652516020860152511660408401525116606082015260016080820152a16001815580f35b90506020813d602011611378575b8161133960209383613321565b81010312610e1a57516001600160401b0381168103610e1a577fcb9f534d41d12f39394586d6a7bbae75471bd457e6bd88546f4d5ae46e05754e61121f565b3d915061132c565b506020813d6020116113c1575b8161139a60209383613321565b81010312610ec357516001600160801b0381168103610ec3576001600160801b03906111db565b3d915061138d565b9091506020813d602011611405575b816113e560209383613321565b81010312610f1657516001600160a01b0381168103610f165790386111a4565b3d91506113d8565b60405162461bcd60e51b815260206004820152601a60248201527f43616e6e6f742063617368206f7574206174206c6576656c20300000000000006044820152606490fd5b600a9150111538611109565b50346102f657806003193601126102f657611477613adb565b600180546001600160a01b0319811690915581906001600160a01b03167f8be0079c531659141344cd1fd0a4f28419497f9722a3daafe3b4186f6b6457e08280a380f35b50346102f657806003193601126102f657602047604051908152f35b50346102f65760203660031901126102f65760806114f36130fd565b600160ff8216611506600a821115613458565b61ffff61151284613248565b90549060031b1c169263ffffffff61153b8161152d846130b1565b90549060031b1c16926130e2565b90549060031b1c16906040519485526020850152604084015210156060820152f35b50346102f657806003193601126102f65760206040516127108152f35b50346102f65760203660031901126102f6576004358015158091036115e95760407fc9231ba029c34ac08ff14e68398a3c3c01f81a4184650e7a74e4af659165a204916115c5613adb565b6003549060ff811660ff1983161760035560ff83519216151582526020820152a180f35b5080fd5b50346102f657806003193601126102f6576020600254604051908152f35b50346102f657806003193601126102f6578061046091506101608091816040516116358282613321565b369037816040516116468282613321565b369037604051906116578383613321565b5036903761169b6116666137fa565b91611690611672613884565b61167a613946565b9261168860405180976133e6565b850190613412565b6102c0830190613412565b6001610420820152600a610440820152f35b50346102f657806003193601126102f6576020600a54604051908152f35b50346102f65760603660031901126102f657600435906001600160401b03821682036102f6576116f9613138565b5060035460081c6001600160a01b031680156126ca573303612679576001600160401b0382168152600860205260408120546001600160a01b031691821561263457828252600560205260408220926001600160401b0382168352600960205260ff604084205416600014611d7957835460ff8160501c16600381101561068f57600203611d345760ff906117a46001600160401b0385166001600160401b038360101c1614613b04565b6044356001161591168115611d05578463ffffffff6117c2836130e2565b90549060031b1c16916117d98360028a0154613662565b925b88546affffffffffffffffff0000191689556117f5613b72565b9086845260056020526040842091604051906118108261329d565b61184860ff85548181168552818160081c16151560208601526001600160401b038160101c16604086015260501c1660608401613494565b8760018501548060808501528860c060036002890154988960a089015201549501968588526040519561187a87613305565b8652602086018d815260408701978a8952606088019060018252604063ffffffff60808b0192169d8e835260a08b0195865260c08b0196875260e08b019788526101008b0198428a526101208c019a8b526101408c01528c5181526006602052209989518b5560018b019360018060a01b039060018060a01b03905116166001600160601b0360a01b855416178455519183549060ff60a81b9051151560a81b169163ffffffff60b01b905160b01b169260ff60a01b9060a01b169065ffffffffffff60a01b191617171790555160028701555160038601555160048501555160058401556006830190518051906001600160401b038211611cf1576119808354613263565b8d601f8211611ca8575b9050506020908d601f8411600114611c3a5792806119de979693600796936101409692611c2f575b50508160011b916000199060031b1c19161790555b0151151591019060ff801983541691151516179055565b858852600760205260408820905190805490600160401b821015611c1b5781611a10916001611a299594018155613440565b90919082549060031b91821b91600019901b1916179055565b875461ff00191688558380611c07575b15611bba5760018060a01b036004541660ff60035416813b15611bb6578891606483926040519485938492635ec3392160e11b84528c60048501528a6024850152151560448401525af18015611bab57611b71575b5091611b3b9391600080516020613cd9833981519152959360036001600160401b03999a5b015480867f6eff5bf191a1c31ad478bf2982a4bbd28c955660db851d62f724d11746cd77d36080604051868152876020820152886040820152896060820152a360405195611b00876132ce565b86526020860152604085015260016060850152608084015260a0830152611b25613b72565b60c083015260e082015260405191829182613c28565b0390a15b1680825260086020908152604080842080546001600160a01b0319169055918352600990528120805460ff1916905580f35b91600080516020613cd9833981519152959391600389611b9d6001600160401b039b611b3b9997613321565b995050919395509193611a8e565b6040513d8a823e3d90fd5b8880fd5b91611b3b9391600080516020613cd9833981519152959360036001600160401b03999a611be985471015613b97565b611c028c808080898c5af1611bfc6135e6565b50613be3565b611ab3565b506004546001600160a01b03161515611a39565b634e487b7160e01b8a52604160045260248afd5b0151905038806119b2565b9190601f198416858452828420935b818110611c905750936119de97969360079693600193836101409810611c77575b505050811b0190556119c7565b015160001960f88460031b161c19169055388080611c6a565b92936020600181928786015181550195019301611c49565b80856020925220601f840160051c81019160208510611ce7575b601f0160051c01908e905b828110611cda575061198a565b6001918155018e90611ccd565b9091508190611cc2565b634e487b7160e01b8d52604160045260248dfd5b8463ffffffff611d14836130b1565b90549060031b1c16916064611d2d8460028b0154613662565b04926117db565b60405162461bcd60e51b815260206004820152601d60248201527f4e6f2070656e64696e6720636173686f757420666f7220706c617965720000006044820152606490fd5b9280549360ff8560501c16600381101561068f576001036125ef57611db46001600160401b0384166001600160401b038760101c1614613b04565b611dc060ff8616613767565b82546affffffffffffffffff00001916835560443511801595906122685760ff83541660ff811461225457600160ff91011660ff19845416178355600a60ff8454161015611e70575b60a07ffb58f29e16c938d85340fdc0faf5e70107133e3f268ab9b6215233227a077c129160ff6001600160401b0397985b600387015496549082604051941684528282166020850152604084015260081c16151560608201526044356080820152a3611b3f565b63ffffffff600d5460401c16956064611e8d886002870154613662565b04611e96613cb7565b84885260056020526040882060405191611eaf8361329d565b611ee760ff83548181168652818160081c16151560208701526001600160401b038160101c16604087015260501c1660608501613494565b6001820154908160808501528a60036002850154948560a08801520154928360c087015260405193611f1885613305565b84528d60208501958b87526040860196600a885260608701600181526080880193845260a0880192835260c08801938b855260e0890195865260406101008a01974289526101208b01998a52806101408c015260c08d015181526006602052209989518b5560018b019360018060a01b039060018060a01b03905116166001600160601b0360a01b855416178455519183549060ff60a81b9051151560a81b169163ffffffff60b01b905160b01b169260ff60a01b9060a01b169065ffffffffffff60a01b19161717179055516002870155516003860155516004850155516005840155518051906001600160401b0382116122405761201b6006850154613263565b601f81116121f9575b506020908c601f8411600114612186579280610140936120779796936007969261217b575b50508160011b916000199060031b1c19161760068501550151151591019060ff801983541691151516179055565b848852600760205260c06040892091015190805490600160401b821015611c1b5761216c8a9b8561211b8d806001600160401b039f808f9b8f7ffb58f29e16c938d85340fdc0faf5e70107133e3f268ab9b6215233227a077c129f9d60a09f9c60ff9e611a1082600080516020613cd98339815191529f60016120fc95018155613440565b61ff0019815416905561211182471015613b97565b5af1611bfc6135e6565b60038b0154916040519261212e846132ce565b8b84526020840152600a604084015260016060840152608083015287820152612155613cb7565b60c08201528c60e082015260405191829182613c28565b0390a198975050915050611e09565b015190503880612049565b9190601f198416600687018452828420935b8181106121e15750936101409361207797969360019383600798106121c8575b505050811b0160068501556119c7565b015160001960f88460031b161c191690553880806121b8565b92936020600181928786015181550195019301612198565b600685018d5260208d20601f840160051c810160208510612239575b8e5b601f840160051c8301821061222e57505050612024565b81556001018e612217565b5080612215565b634e487b7160e01b8c52604160045260248cfd5b634e487b7160e01b86526011600452602486fd5b94612271613c95565b82865260056020526040862090866040519161228c8361329d565b6122c460ff85548181168652818160081c16151560208701526001600160401b038160101c16604087015260501c1660608501613494565b89600185015480608086015260c060036002880154978860a08901520154950195858752604051956122f587613305565b865260208087018a815260ff9490941660408089019182526060890188815260808a0189815260a0808c0196875260c08c018b815260e08d01988952426101008e019081526101208e019b8c526101408e018d81528f518e5260069889905295909c209c518d55985160018d0180549651945193516001600160d01b03199097166001600160a01b0392909216919091179390911b60ff60a01b169290921790151560a81b60ff60a81b161760b09390931b63ffffffff60b01b1692909217909155915160028801559251600387015590516004860155925160058501559051805191840191906001600160401b0382116125db576123f48354613263565b601f8111612596575b506020908b601f841160011461252a579260079492819261244b9897959261251f575b50508160011b916000199060031b1c19161790555b51151591019060ff801983541691151516179055565b828652600760205260408620905190805490600160401b82101561250b577ffb58f29e16c938d85340fdc0faf5e70107133e3f268ab9b6215233227a077c12936124ad60a094611a108560ff9560016001600160401b039e9f98018155613440565b61ff00198754168755600080516020613cd98339815191526125036003890154604051906124da826132ce565b898252602082015284861660408201528c60608201528c60808201528c87820152612155613c95565b0390a1611e3a565b634e487b7160e01b88526041600452602488fd5b015190503880612420565b50838c52818c209190601f1984168d5b81811061257e575092600192859261244b9998966007989610612565575b505050811b019055612435565b015160001960f88460031b161c19169055388080612558565b9293602060018192878601518155019501930161253a565b838c5260208c20601f840160051c810191602085106125d1575b601f0160051c01905b8181106125c657506123fd565b8c81556001016125b9565b90915081906125b0565b634e487b7160e01b8b52604160045260248bfd5b60405162461bcd60e51b815260206004820152601b60248201527f4e6f2070656e64696e6720636c696d6220666f7220706c6179657200000000006044820152606490fd5b60405162461bcd60e51b815260206004820152601760248201527f556e6b6e6f776e2073657175656e6365206e756d6265720000000000000000006044820152606490fd5b60405162461bcd60e51b815260206004820152602360248201527f4f6e6c7920456e74726f70792063616e2063616c6c20746869732066756e637460448201526234b7b760e91b6064820152608490fd5b60405162461bcd60e51b815260206004820152601760248201527f456e74726f70792061646472657373206e6f74207365740000000000000000006044820152606490fd5b50346102f65760203660031901126102f657612729613122565b818283849360018060a01b0316855260076020526040852093604051918286602082985495868152019089526020892089955b808710612839575050612773929394500386613321565b84519486945b81518610156127f25761278c868361353a565b518852600660205260606127c06127b46127a860408c2061354e565b9560a0870151906134a0565b9560c0860151906134a0565b930151156127df576127d36001916137eb565b955b0194929192612779565b94936127ec6001916137eb565b946127d5565b945050909160c09582841015600014612833575061281082846134c3565b935b604051958652602086015260408501526060840152608083015260a0820152f35b93612812565b815483526001968701968a94506020909301929091019061275c565b50346102f65760203660031901126102f6576001600160a01b03612877613122565b168152600760205260408120604051908160208254918281520190819285526020852090855b8181106128f457505050826128b3910383613321565b604051928392602084019060208552518091526040840192915b8181106128db575050500390f35b82518452859450602093840193909201916001016128cd565b825484526020909301926001928301920161289d565b50346102f65760203660031901126102f657604090600435815260066020522080546001820154916129c76002820154916003810154600482015460058301549160ff600761295b60068701613342565b950154169563ffffffff604051998a998a5260018060a01b03811660208b015260ff8160a01c1660408b015260ff8160a81c16151560608b015260b01c16608089015260a088015260c087015260e086015261010085015261016061012085015261016084019061314e565b9015156101408301520390f35b50346102f65760203660031901126102f65760206129f36103cd6130fd565b604051908152f35b50346102f65760203660031901126102f65760043590600b8210156102f657602061ffff6109da84613248565b50346102f65760203660031901126102f65760e0906040906001600160a01b03612a50613122565b1681526005602052208054906001810154906003600282015491015491612aaa6040519460ff8116865260ff8160081c16151560208701526001600160401b038160101c16604087015260ff606087019160501c16613225565b608084015260a083015260c0820152f35b50346102f65760203660031901126102f6576001600160a01b03612add613122565b168152600560205260408120604051612af58161329d565b81549160ff831682526003602083019160ff8560081c16151583526001600160401b038560101c166040850152612b3660ff606086019660501c1686613494565b60018101546080850152600281015460a0850152015460c08301525115159182612b82575b506020925081612b71575b506040519015158152f35b6001915060ff905116101538612b66565b909150516003811015612b9b5760209250159038612b5b565b634e487b7160e01b83526021600452602483fd5b50346102f65760603660031901126102f657612bc9613122565b612bd1613112565b906044359283151584036102f65760206129f3858585612bf7600a60ff84161115613458565b613675565b50346102f65760203660031901126102f657602061ffff6109da612c1e6130fd565b6109d5600a60ff83161115613458565b50346102f65760203660031901126102f657600435612c4b613adb565b804710612cb25760015482918291829182916001600160a01b03165af1612c706135e6565b5015612c795780f35b60405162461bcd60e51b815260206004820152601160248201527015da5d1a191c985dd85b0819985a5b1959607a1b6044820152606490fd5b60405162461bcd60e51b8152602060048201526014602482015273496e73756666696369656e742062616c616e636560601b6044820152606490fd5b50346102f65760203660031901126102f65760043590600b8210156102f657602063ffffffff6109da846130e2565b50346102f657806003193601126102f6576004546040516001600160a01b039091168152602090f35b50346102f65760603660031901126102f657612d60613122565b6001600160a01b03168152600760209081526040808320905181548082529184528284209092602435928491820190865b818110612f16575050612da692500383613321565b8151811015612eda57612dbb604435826134a0565b908251808311612ed2575b50612dd181836134c3565b92612ddb846134d0565b93612de96040519586613321565b808552612df8601f19916134d0565b01855b818110612ebb575050815b838110612e745784866040519182916020830160208452825180915260408401602060408360051b870101940192905b828210612e4557505050500390f35b91936001919395506020612e648192603f198a8203018652885161318f565b9601920192018594939192612e36565b80612e816001928461353a565b5187526006602052612eb460408820612ea3612e9d87856134c3565b9161354e565b612ead828a61353a565b528761353a565b5001612e06565b602090612ec66134e7565b82828901015201612dfb565b915038612dc6565b60405162461bcd60e51b81526020600482015260146024820152734f6666736574206f7574206f6620626f756e647360601b6044820152606490fd5b8454835260019485019487945060209093019201612d91565b50346102f657806003193601126102f657602060405160018152f35b50346102f65760203660031901126102f65750602060016004351615604051908152f35b50346102f65760203660031901126102f6576001600160a01b03612f91613122565b168152600560205260408120604051612fa98161329d565b81549160ff831682526003602083019160ff8560081c16151583526001600160401b038560101c166040850152612fea60ff606086019660501c1686613494565b60018101546080850152600281015460a0850152015460c08301525115159182613034575b50602092508161302457506040519015158152f35b600a915060ff9051161038612b66565b909150516003811015612b9b576020925015903861300f565b50346102f65760203660031901126102f657602063ffffffff6109da6130716130fd565b613081600a60ff83161115613458565b6130b1565b50346102f65760203660031901126102f65760043590600b8210156102f657602063ffffffff6109da845b90600b8210156130cc57601c8260031c600c019260021b1690565b634e487b7160e01b600052603260045260246000fd5b90600b8210156130cc57601c8260031c600e019260021b1690565b6004359060ff8216820361310d57565b600080fd5b6024359060ff8216820361310d57565b600435906001600160a01b038216820361310d57565b602435906001600160a01b038216820361310d57565b919082519283825260005b84811061317a575050826000602080949584010152601f8019910116010190565b80602080928401015182828601015201613159565b908151815260018060a01b03602083015116602082015260ff604083015116604082015260608201511515606082015263ffffffff608083015116608082015260a082015160a082015260c082015160c082015260e082015160e08201526101008201516101008201526101408061321a61012085015161016061012086015261016085019061314e565b930151151591015290565b9060038210156132325752565b634e487b7160e01b600052602160045260246000fd5b90600b8210156130cc57601e8260041c600b019260011b1690565b90600182811c92168015613293575b602083101461327d57565b634e487b7160e01b600052602260045260246000fd5b91607f1691613272565b60e081019081106001600160401b038211176132b857604052565b634e487b7160e01b600052604160045260246000fd5b61010081019081106001600160401b038211176132b857604052565b608081019081106001600160401b038211176132b857604052565b61016081019081106001600160401b038211176132b857604052565b90601f801991011681019081106001600160401b038211176132b857604052565b906040519182600082549261335684613263565b80845293600181169081156133c4575060011461337d575b5061337b92500383613321565b565b90506000929192526020600020906000915b8183106133a857505090602061337b928201013861336e565b602091935080600191548385890101520191019091849261338f565b90506020925061337b94915060ff191682840152151560051b8201013861336e565b906000905b600b82106133f857505050565b60208060019261ffff8651168152019301910190916133eb565b906000905b600b821061342457505050565b60208060019263ffffffff865116815201930191019091613417565b80548210156130cc5760005260206000200190600090565b1561345f57565b60405162461bcd60e51b815260206004820152600d60248201526c125b9d985b1a59081b195d995b609a1b6044820152606490fd5b60038210156132325752565b919082018092116134ad57565b634e487b7160e01b600052601160045260246000fd5b919082039182116134ad57565b6001600160401b0381116132b85760051b60200190565b604051906134f482613305565b6000610140838281528260208201528260408201528260608201528260808201528260a08201528260c08201528260e08201528261010082015260606101208201520152565b80518210156130cc5760209160051b010190565b9060405161355b81613305565b61014060ff600783958054855263ffffffff600182015460018060a01b0381166020880152848160a01c166040880152848160a81c161515606088015260b01c166080860152600281015460a0860152600381015460c0860152600481015460e086015260058101546101008601526135d660068201613342565b6101208601520154161515910152565b3d15613620573d906001600160401b0382116132b85760405191613614601f8201601f191660200184613321565b82523d6000602084013e565b606090565b1561362c57565b60405162461bcd60e51b815260206004820152600e60248201526d4e6f206163746976652067616d6560901b6044820152606490fd5b818102929181159184041417156134ad57565b60018060a01b031660005260056020526040600020916136fe60405161369a8161329d565b84549060ff821681526136d660ff6020830193818160081c16151585526001600160401b038160101c16604085015260501c1660608301613494565b6001860154608082015260c0600360028801549760a084019889520154910152511515613625565b156137275763ffffffff6137166137249351926130e2565b90549060031b1c1690613662565b90565b61373d9063ffffffff61371660649451926130b1565b0490565b60ff60019116019060ff82116134ad57565b9060ff8091169116019060ff82116134ad57565b600a60ff821610156137a6576137826109d561ffff92613741565b90549060031b1c16806000039080820460001914901517156134ad57612710900490565b60405162461bcd60e51b815260206004820152601a60248201527f496e76616c6964206c6576656c20666f7220636c696d62696e670000000000006044820152606490fd5b60001981146134ad5760010190565b6040519061ffff600b548181168452818160101c166020850152818160201c166040850152818160301c166060850152818160401c166080850152818160501c1660a0850152818160601c1660c0850152818160701c1660e0850152818160801c16610100850152818160901c1661012085015260a01c1661014083015261337b61016083613321565b6040519081600c60005b600b60078201106138c5575063ffffffff604091548181168452818160201c166020850152821c1691015261337b61016083613321565b90916001610100600892855463ffffffff8116825263ffffffff8160201c16602083015263ffffffff8160401c16604083015263ffffffff8160601c16606083015263ffffffff8160801c16608083015263ffffffff8160a01c1660a083015263ffffffff8160c01c1660c083015260e01c60e0820152019301910161388e565b6040519081600e60005b600b6007820110613987575063ffffffff604091548181168452818160201c166020850152821c1691015261337b61016083613321565b90916001610100600892855463ffffffff8116825263ffffffff8160201c16602083015263ffffffff8160401c16604083015263ffffffff8160601c16606083015263ffffffff8160801c16608083015263ffffffff8160a01c1660a083015263ffffffff8160c01c1660c083015260e01c60e08201520193019101613950565b15613a0f57565b60405162461bcd60e51b815260206004820152602e60248201527f43616e6e6f7420706572666f726d20616374696f6e207768696c65207265717560448201526d6573742069732070656e64696e6760901b6064820152608490fd5b15613a7257565b60405162461bcd60e51b815260206004820152601860248201527f416c7265616479206174206d6178696d756d206c6576656c00000000000000006044820152606490fd5b90600381101561323257815460ff60501b191660509190911b60ff60501b16179055565b6001546001600160a01b03163303613aef57565b63118cdaa760e01b6000523360045260246000fd5b15613b0b57565b60405162461bcd60e51b815260206004820152601860248201527f53657175656e6365206e756d626572206d69736d6174636800000000000000006044820152606490fd5b600260005414613b61576002600055565b633ee5aeb560e01b60005260046000fd5b60405190613b81604083613321565b600782526618d85cda13dd5d60ca1b6020830152565b15613b9e57565b60405162461bcd60e51b815260206004820152601d60248201527f496e73756666696369656e7420636f6e74726163742062616c616e63650000006044820152606490fd5b15613bea57565b60405162461bcd60e51b815260206004820152601660248201527514185e5bdd5d081d1c985b9cd9995c8819985a5b195960521b6044820152606490fd5b6020815260018060a01b0382511660208201526020820151604082015260ff604083015116606082015260608201511515608082015263ffffffff60808301511660a082015260a082015160c082015261010060e061321a60c0850151838386015261012085019061314e565b60405190613ca4604083613321565b6004825263189d5cdd60e21b6020830152565b60405190613cc6604083613321565b60038252623bb4b760e91b602083015256fe08575c54594a7c9bca9c3b4f3c0c0140d23249091d17179ef1d9b734af81f736a2646970667358221220171b2ed219b67c8431edf6090c6b6b7f3a9ab98ec564be3c8aa5f828e86ed9be64736f6c634300081c0033","opcodes":"PUSH1 0x80 CALLVALUE PUSH2 0x1C0 JUMPI PUSH1 0x1F PUSH2 0x3F1E CODESIZE DUP2 SWAP1 SUB SWAP2 DUP3 ADD PUSH1 0x1F NOT AND DUP4 ADD SWAP2 PUSH1 0x1 PUSH1 0x1 PUSH1 0x40 SHL SUB DUP4 GT DUP5 DUP5 LT OR PUSH2 0x1C5 JUMPI DUP1 DUP5 SWAP3 PUSH1 0x40 SWAP5 DUP6 MSTORE DUP4 CODECOPY DUP2 ADD SUB SLT PUSH2 0x1C0 JUMPI PUSH2 0x52 PUSH1 0x20 PUSH2 0x4B DUP4 PUSH2 0x1DB JUMP JUMPDEST SWAP3 ADD PUSH2 0x1DB JUMP JUMPDEST SWAP1 PUSH1 0x1 PUSH1 0x0 SSTORE CALLER ISZERO PUSH2 0x1AA JUMPI PUSH1 0x1 DUP1 SLOAD CALLER PUSH1 0x1 PUSH1 0x1 PUSH1 0xA0 SHL SUB NOT DUP3 AND DUP2 OR SWAP1 SWAP3 SSTORE PUSH1 0x1 PUSH1 0x1 PUSH1 0xA0 SHL SUB AND PUSH32 0x8BE0079C531659141344CD1FD0A4F28419497F9722A3DAAFE3B4186F6B6457E0 PUSH1 0x0 DUP1 LOG3 PUSH8 0xDE0B6B3A7640000 PUSH1 0x2 SSTORE PUSH1 0x3 DUP1 SLOAD PUSH1 0x1 PUSH1 0x1 PUSH1 0xA8 SHL SUB NOT AND PUSH1 0x8 SWAP3 SWAP1 SWAP3 SHL PUSH2 0x100 PUSH1 0x1 PUSH1 0xA8 SHL SUB AND SWAP2 SWAP1 SWAP2 OR SWAP1 SSTORE PUSH1 0x4 DUP1 SLOAD PUSH1 0x1 PUSH1 0x1 PUSH1 0xA0 SHL SUB NOT AND PUSH1 0x1 PUSH1 0x1 PUSH1 0xA0 SHL SUB SWAP3 SWAP1 SWAP3 AND SWAP2 SWAP1 SWAP2 OR SWAP1 SSTORE PUSH1 0x0 PUSH1 0xA SSTORE PUSH1 0xB DUP1 SLOAD PUSH22 0x790097412ED0F2812F616C619531C831BE622CD03E8 PUSH1 0x1 PUSH1 0x1 PUSH1 0xB0 SHL SUB NOT SWAP1 SWAP2 AND OR SWAP1 SSTORE PUSH30 0x9C4000003E8000001F40000012C000000C8000000960000006E00000064 PUSH1 0xC SSTORE PUSH1 0xD DUP1 SLOAD PUSH11 0x186A000004E2000001388 PUSH1 0x1 PUSH1 0x1 PUSH1 0x60 SHL SUB NOT SWAP2 DUP3 AND OR SWAP1 SWAP2 SSTORE PUSH30 0x4E2000001F4000000FA0000006400000032000000230000001400000000 PUSH1 0xE SSTORE PUSH1 0xF DUP1 SLOAD PUSH10 0xC35000002710000009C4 SWAP3 AND SWAP2 SWAP1 SWAP2 OR SWAP1 SSTORE PUSH1 0x40 MLOAD PUSH2 0x3D2E SWAP1 DUP2 PUSH2 0x1F0 DUP3 CODECOPY RETURN JUMPDEST PUSH4 0x1E4FBDF7 PUSH1 0xE0 SHL PUSH1 0x0 MSTORE PUSH1 0x0 PUSH1 0x4 MSTORE PUSH1 0x24 PUSH1 0x0 REVERT JUMPDEST PUSH1 0x0 DUP1 REVERT JUMPDEST PUSH4 0x4E487B71 PUSH1 0xE0 SHL PUSH1 0x0 MSTORE PUSH1 0x41 PUSH1 0x4 MSTORE PUSH1 0x24 PUSH1 0x0 REVERT JUMPDEST MLOAD SWAP1 PUSH1 0x1 PUSH1 0x1 PUSH1 0xA0 SHL SUB DUP3 AND DUP3 SUB PUSH2 0x1C0 JUMPI JUMP INVALID PUSH1 0x80 PUSH1 0x40 MSTORE PUSH1 0x4 CALLDATASIZE LT ISZERO PUSH2 0x47 JUMPI JUMPDEST CALLDATASIZE ISZERO PUSH2 0x19 JUMPI PUSH1 0x0 DUP1 REVERT JUMPDEST PUSH1 0x40 MLOAD CALLVALUE DUP2 MSTORE PUSH32 0x543BA50A5EEC5E6178218E364B1D0F396157B3C8FA278522C2CB7FD99407D474 PUSH1 0x20 CALLER SWAP3 LOG2 STOP JUMPDEST PUSH1 0x0 DUP1 CALLDATALOAD PUSH1 0xE0 SHR DUP1 PUSH4 0x5E30F51 EQ PUSH2 0x3086 JUMPI DUP1 PUSH4 0xB072B8D EQ PUSH2 0x304D JUMPI DUP1 PUSH4 0x1D334884 EQ PUSH2 0x2F6F JUMPI DUP1 PUSH4 0x24448C63 EQ PUSH2 0x2F4B JUMPI DUP1 PUSH4 0x26C1F13E EQ PUSH2 0x2F2F JUMPI DUP1 PUSH4 0x2A39298E EQ PUSH2 0x2D46 JUMPI DUP1 PUSH4 0x2B4F8A1F EQ PUSH2 0x2D1D JUMPI DUP1 PUSH4 0x2C5F9947 EQ PUSH2 0x2CEE JUMPI DUP1 PUSH4 0x2E1A7D4D EQ PUSH2 0x2C2E JUMPI DUP1 PUSH4 0x2F912E2E EQ PUSH2 0x2BFC JUMPI DUP1 PUSH4 0x39AB2404 EQ PUSH2 0x2BAF JUMPI DUP1 PUSH4 0x3CDDB89A EQ PUSH2 0x2ABB JUMPI DUP1 PUSH4 0x40056505 EQ PUSH2 0x2A28 JUMPI DUP1 PUSH4 0x46156EA0 EQ PUSH2 0x29FB JUMPI DUP1 PUSH4 0x4C629DA4 EQ PUSH2 0x29D4 JUMPI DUP1 PUSH4 0x4D30372D EQ PUSH2 0x290A JUMPI DUP1 PUSH4 0x4E1523DC EQ PUSH2 0x2855 JUMPI DUP1 PUSH4 0x4FD66EAE EQ PUSH2 0x270F JUMPI DUP1 PUSH4 0x52A5F1F8 EQ PUSH2 0x16CB JUMPI DUP1 PUSH4 0x5C492129 EQ PUSH2 0x16AD JUMPI DUP1 PUSH4 0x5DE70476 EQ PUSH2 0x160B JUMPI DUP1 PUSH4 0x6083E59A EQ PUSH2 0x15ED JUMPI DUP1 PUSH4 0x6805267E EQ PUSH2 0x157A JUMPI DUP1 PUSH4 0x6BC98BA3 EQ PUSH2 0x155D JUMPI DUP1 PUSH4 0x6E37DA1B EQ PUSH2 0x14D7 JUMPI DUP1 PUSH4 0x6F9FB98A EQ PUSH2 0x14BB JUMPI DUP1 PUSH4 0x715018A6 EQ PUSH2 0x145E JUMPI DUP1 PUSH4 0x793CD71E EQ PUSH2 0x1097 JUMPI DUP1 PUSH4 0x8DA5CB5B EQ PUSH2 0x106E JUMPI DUP1 PUSH4 0x93128735 EQ PUSH2 0x1017 JUMPI DUP1 PUSH4 0x95754ABB EQ PUSH2 0xF5D JUMPI DUP1 PUSH4 0xA49062D4 EQ PUSH2 0xF41 JUMPI DUP1 PUSH4 0xA5432FEE EQ PUSH2 0xB57 JUMPI DUP1 PUSH4 0xB309483A EQ PUSH2 0xB3B JUMPI DUP1 PUSH4 0xBA24D2E3 EQ PUSH2 0xB02 JUMPI DUP1 PUSH4 0xBB371FDD EQ PUSH2 0x9EA JUMPI DUP1 PUSH4 0xC3E71670 EQ PUSH2 0x918 JUMPI DUP1 PUSH4 0xCE00348F EQ PUSH2 0x802 JUMPI DUP1 PUSH4 0xD076D5A0 EQ PUSH2 0x7D2 JUMPI DUP1 PUSH4 0xD65AB5F2 EQ PUSH2 0x4F7 JUMPI DUP1 PUSH4 0xD82C4CC3 EQ PUSH2 0x4AB JUMPI DUP1 PUSH4 0xDD813788 EQ PUSH2 0x488 JUMPI DUP1 PUSH4 0xE1E158A5 EQ PUSH2 0x465 JUMPI DUP1 PUSH4 0xE2C41DBC EQ PUSH2 0x3DF JUMPI DUP1 PUSH4 0xE4AB043D EQ PUSH2 0x3AE JUMPI DUP1 PUSH4 0xEEEBBA29 EQ PUSH2 0x371 JUMPI DUP1 PUSH4 0xEFEDF50B EQ PUSH2 0x332 JUMPI DUP1 PUSH4 0xF25764B5 EQ PUSH2 0x2F9 JUMPI PUSH4 0xF2FDE38B EQ PUSH2 0x26E JUMPI POP PUSH2 0xE JUMP JUMPDEST CALLVALUE PUSH2 0x2F6 JUMPI PUSH1 0x20 CALLDATASIZE PUSH1 0x3 NOT ADD SLT PUSH2 0x2F6 JUMPI PUSH2 0x287 PUSH2 0x3122 JUMP JUMPDEST PUSH2 0x28F PUSH2 0x3ADB JUMP JUMPDEST PUSH1 0x1 PUSH1 0x1 PUSH1 0xA0 SHL SUB AND DUP1 ISZERO PUSH2 0x2E2 JUMPI PUSH1 0x1 DUP1 SLOAD PUSH1 0x1 PUSH1 0x1 PUSH1 0xA0 SHL SUB NOT DUP2 AND DUP4 OR SWAP1 SWAP2 SSTORE PUSH1 0x1 PUSH1 0x1 PUSH1 0xA0 SHL SUB AND PUSH32 0x8BE0079C531659141344CD1FD0A4F28419497F9722A3DAAFE3B4186F6B6457E0 DUP4 DUP1 LOG3 DUP1 RETURN JUMPDEST PUSH4 0x1E4FBDF7 PUSH1 0xE0 SHL DUP3 MSTORE PUSH1 0x4 DUP3 SWAP1 MSTORE PUSH1 0x24 DUP3 REVERT JUMPDEST DUP1 REVERT JUMPDEST POP CALLVALUE PUSH2 0x2F6 JUMPI PUSH1 0x20 CALLDATASIZE PUSH1 0x3 NOT ADD SLT PUSH2 0x2F6 JUMPI PUSH1 0x20 SWAP1 PUSH1 0x40 SWAP1 PUSH1 0x1 PUSH1 0x1 PUSH1 0xA0 SHL SUB PUSH2 0x321 PUSH2 0x3122 JUMP JUMPDEST AND DUP2 MSTORE PUSH1 0x7 DUP4 MSTORE KECCAK256 SLOAD PUSH1 0x40 MLOAD SWAP1 DUP2 MSTORE RETURN JUMPDEST POP CALLVALUE PUSH2 0x2F6 JUMPI DUP1 PUSH1 0x3 NOT CALLDATASIZE ADD SLT PUSH2 0x2F6 JUMPI PUSH2 0x160 DUP1 SWAP2 PUSH1 0x40 MLOAD SWAP1 PUSH2 0x356 DUP4 DUP4 PUSH2 0x3321 JUMP JUMPDEST POP CALLDATASIZE SWAP1 CALLDATACOPY PUSH2 0x362 PUSH2 0x3884 JUMP JUMPDEST PUSH2 0x36F PUSH1 0x40 MLOAD DUP1 SWAP3 PUSH2 0x3412 JUMP JUMPDEST RETURN JUMPDEST POP CALLVALUE PUSH2 0x2F6 JUMPI DUP1 PUSH1 0x3 NOT CALLDATASIZE ADD SLT PUSH2 0x2F6 JUMPI PUSH2 0x160 DUP1 SWAP2 PUSH1 0x40 MLOAD SWAP1 PUSH2 0x395 DUP4 DUP4 PUSH2 0x3321 JUMP JUMPDEST POP CALLDATASIZE SWAP1 CALLDATACOPY PUSH2 0x3A1 PUSH2 0x37FA JUMP JUMPDEST PUSH2 0x36F PUSH1 0x40 MLOAD DUP1 SWAP3 PUSH2 0x33E6 JUMP JUMPDEST POP CALLVALUE PUSH2 0x2F6 JUMPI PUSH1 0x40 CALLDATASIZE PUSH1 0x3 NOT ADD SLT PUSH2 0x2F6 JUMPI PUSH1 0x20 PUSH2 0x3D2 PUSH2 0x3CD PUSH2 0x3112 JUMP JUMPDEST PUSH2 0x3767 JUMP JUMPDEST PUSH1 0x4 CALLDATALOAD GT ISZERO PUSH1 0x40 MLOAD SWAP1 DUP2 MSTORE RETURN JUMPDEST POP DUP1 PUSH1 0x3 NOT CALLDATASIZE ADD SLT PUSH2 0x2F6 JUMPI PUSH2 0x3F3 PUSH2 0x3ADB JUMP JUMPDEST CALLVALUE ISZERO PUSH2 0x428 JUMPI PUSH1 0x40 MLOAD CALLVALUE DUP2 MSTORE PUSH32 0x543BA50A5EEC5E6178218E364B1D0F396157B3C8FA278522C2CB7FD99407D474 PUSH1 0x20 CALLER SWAP3 LOG2 DUP1 RETURN JUMPDEST PUSH1 0x40 MLOAD PUSH3 0x461BCD PUSH1 0xE5 SHL DUP2 MSTORE PUSH1 0x20 PUSH1 0x4 DUP3 ADD MSTORE PUSH1 0x15 PUSH1 0x24 DUP3 ADD MSTORE PUSH21 0x9AEAE6E840C8CAE0DEE6D2E840E6DEDACA408AA89 PUSH1 0x5B SHL PUSH1 0x44 DUP3 ADD MSTORE PUSH1 0x64 SWAP1 REVERT JUMPDEST POP CALLVALUE PUSH2 0x2F6 JUMPI DUP1 PUSH1 0x3 NOT CALLDATASIZE ADD SLT PUSH2 0x2F6 JUMPI PUSH1 0x20 PUSH1 0x40 MLOAD PUSH8 0xDE0B6B3A7640000 DUP2 MSTORE RETURN JUMPDEST POP CALLVALUE PUSH2 0x2F6 JUMPI DUP1 PUSH1 0x3 NOT CALLDATASIZE ADD SLT PUSH2 0x2F6 JUMPI PUSH1 0x20 PUSH1 0xFF PUSH1 0x3 SLOAD AND PUSH1 0x40 MLOAD SWAP1 ISZERO ISZERO DUP2 MSTORE RETURN JUMPDEST POP CALLVALUE PUSH2 0x2F6 JUMPI PUSH1 0x20 CALLDATASIZE PUSH1 0x3 NOT ADD SLT PUSH2 0x2F6 JUMPI PUSH2 0x4DF PUSH1 0x40 PUSH2 0x4F3 SWAP3 PUSH2 0x4CE PUSH2 0x34E7 JUMP JUMPDEST POP PUSH1 0x4 CALLDATALOAD DUP2 MSTORE PUSH1 0x6 PUSH1 0x20 MSTORE KECCAK256 PUSH2 0x354E JUMP JUMPDEST PUSH1 0x40 MLOAD SWAP2 DUP3 SWAP2 PUSH1 0x20 DUP4 MSTORE PUSH1 0x20 DUP4 ADD SWAP1 PUSH2 0x318F JUMP JUMPDEST SUB SWAP1 RETURN JUMPDEST POP DUP1 PUSH1 0x3 NOT CALLDATASIZE ADD SLT PUSH2 0x2F6 JUMPI PUSH2 0x50B PUSH2 0x3B50 JUMP JUMPDEST PUSH8 0xDE0B6B3A7640000 CALLVALUE LT PUSH2 0x795 JUMPI PUSH1 0x2 SLOAD CALLVALUE GT PUSH2 0x750 JUMPI CALLER DUP2 MSTORE PUSH1 0x5 PUSH1 0x20 MSTORE PUSH1 0xFF PUSH1 0x40 DUP3 KECCAK256 SLOAD PUSH1 0x8 SHR AND PUSH2 0x70B JUMPI CALLER DUP2 MSTORE PUSH1 0x5 PUSH1 0x20 MSTORE PUSH1 0xFF PUSH1 0x40 DUP3 KECCAK256 SLOAD PUSH1 0x50 SHR AND PUSH1 0x3 DUP2 LT ISZERO PUSH2 0x6F7 JUMPI PUSH2 0x6A3 JUMPI PUSH2 0x565 PUSH1 0xA SLOAD PUSH2 0x37EB JUMP JUMPDEST SWAP1 DUP2 PUSH1 0xA SSTORE PUSH1 0x40 MLOAD PUSH2 0x576 DUP2 PUSH2 0x329D JUMP JUMPDEST DUP2 DUP2 MSTORE PUSH1 0x1 PUSH1 0x20 DUP1 DUP4 ADD SWAP2 DUP3 MSTORE PUSH1 0x40 DUP1 DUP5 ADD DUP6 DUP2 MSTORE PUSH1 0x60 DUP6 ADD DUP7 DUP2 MSTORE TIMESTAMP PUSH1 0x80 DUP8 ADD SWAP1 DUP2 MSTORE CALLVALUE PUSH1 0xA0 DUP9 ADD SWAP1 DUP2 MSTORE PUSH1 0xC0 DUP9 ADD SWAP10 DUP11 MSTORE CALLER DUP10 MSTORE PUSH1 0x5 SWAP1 SWAP6 MSTORE SWAP3 DUP8 KECCAK256 SWAP6 MLOAD DUP7 SLOAD SWAP6 MLOAD SWAP3 MLOAD PUSH10 0xFFFFFFFFFFFFFFFFFFFF NOT SWAP1 SWAP7 AND PUSH1 0xFF SWAP2 SWAP1 SWAP2 AND OR SWAP2 ISZERO ISZERO PUSH1 0x8 SHL PUSH2 0xFF00 AND SWAP2 SWAP1 SWAP2 OR PUSH1 0x10 SWAP5 SWAP1 SWAP5 SHL PUSH10 0xFFFFFFFFFFFFFFFF0000 AND SWAP4 SWAP1 SWAP4 OR DUP5 SSTORE SWAP5 SWAP2 MLOAD SWAP5 PUSH1 0x3 DUP7 LT ISZERO PUSH2 0x68F JUMPI PUSH2 0x613 DUP5 SWAP6 SWAP7 PUSH1 0x3 SWAP6 PUSH2 0x3AB7 JUMP JUMPDEST MLOAD PUSH1 0x1 DUP6 ADD SSTORE MLOAD PUSH1 0x2 DUP5 ADD SSTORE MLOAD SWAP2 ADD SSTORE PUSH32 0xDEC0D6E2AE1CEB47A21DDB69901B8248210103E53A06FACFDC33F46CD0175682 PUSH1 0x80 PUSH1 0xA SLOAD PUSH1 0x40 MLOAD PUSH2 0x655 DUP2 PUSH2 0x32EA JUMP JUMPDEST CALLER DUP2 MSTORE PUSH1 0x20 DUP2 ADD SWAP2 DUP3 MSTORE PUSH1 0x60 PUSH1 0x40 DUP3 ADD SWAP2 TIMESTAMP DUP4 MSTORE ADD SWAP1 CALLVALUE DUP3 MSTORE PUSH1 0x40 MLOAD SWAP3 CALLER DUP5 MSTORE MLOAD PUSH1 0x20 DUP5 ADD MSTORE MLOAD PUSH1 0x40 DUP4 ADD MSTORE MLOAD PUSH1 0x60 DUP3 ADD MSTORE LOG1 PUSH1 0x1 DUP2 SSTORE DUP1 RETURN JUMPDEST PUSH4 0x4E487B71 PUSH1 0xE0 SHL DUP6 MSTORE PUSH1 0x21 PUSH1 0x4 MSTORE PUSH1 0x24 DUP6 REVERT JUMPDEST PUSH1 0x40 MLOAD PUSH3 0x461BCD PUSH1 0xE5 SHL DUP2 MSTORE PUSH1 0x20 PUSH1 0x4 DUP3 ADD MSTORE PUSH1 0x26 PUSH1 0x24 DUP3 ADD MSTORE PUSH32 0x50656E64696E672072657175657374206D757374206265207265736F6C766564 PUSH1 0x44 DUP3 ADD MSTORE PUSH6 0x8199A5C9CDD PUSH1 0xD2 SHL PUSH1 0x64 DUP3 ADD MSTORE PUSH1 0x84 SWAP1 REVERT JUMPDEST PUSH4 0x4E487B71 PUSH1 0xE0 SHL DUP3 MSTORE PUSH1 0x21 PUSH1 0x4 MSTORE PUSH1 0x24 DUP3 REVERT JUMPDEST PUSH1 0x40 MLOAD PUSH3 0x461BCD PUSH1 0xE5 SHL DUP2 MSTORE PUSH1 0x20 PUSH1 0x4 DUP3 ADD MSTORE PUSH1 0x18 PUSH1 0x24 DUP3 ADD MSTORE PUSH32 0x47616D6520616C726561647920696E2070726F67726573730000000000000000 PUSH1 0x44 DUP3 ADD MSTORE PUSH1 0x64 SWAP1 REVERT JUMPDEST PUSH1 0x40 MLOAD PUSH3 0x461BCD PUSH1 0xE5 SHL DUP2 MSTORE PUSH1 0x20 PUSH1 0x4 DUP3 ADD MSTORE PUSH1 0x17 PUSH1 0x24 DUP3 ADD MSTORE PUSH32 0x4465706F7369742065786365656473206D6178696D756D000000000000000000 PUSH1 0x44 DUP3 ADD MSTORE PUSH1 0x64 SWAP1 REVERT JUMPDEST PUSH1 0x40 MLOAD PUSH3 0x461BCD PUSH1 0xE5 SHL DUP2 MSTORE PUSH1 0x20 PUSH1 0x4 DUP3 ADD MSTORE PUSH1 0x15 PUSH1 0x24 DUP3 ADD MSTORE PUSH21 0x4465706F7369742062656C6F77206D696E696D756D PUSH1 0x58 SHL PUSH1 0x44 DUP3 ADD MSTORE PUSH1 0x64 SWAP1 REVERT JUMPDEST POP CALLVALUE PUSH2 0x2F6 JUMPI DUP1 PUSH1 0x3 NOT CALLDATASIZE ADD SLT PUSH2 0x2F6 JUMPI PUSH2 0x160 DUP1 SWAP2 PUSH1 0x40 MLOAD SWAP1 PUSH2 0x7F6 DUP4 DUP4 PUSH2 0x3321 JUMP JUMPDEST POP CALLDATASIZE SWAP1 CALLDATACOPY PUSH2 0x362 PUSH2 0x3946 JUMP JUMPDEST POP CALLVALUE PUSH2 0x2F6 JUMPI PUSH1 0x20 CALLDATASIZE PUSH1 0x3 NOT ADD SLT PUSH2 0x2F6 JUMPI PUSH1 0x40 PUSH1 0xE0 SWAP2 PUSH2 0x821 PUSH2 0x3122 JUMP JUMPDEST DUP2 PUSH1 0xC0 DUP5 MLOAD PUSH2 0x82F DUP2 PUSH2 0x329D JUMP JUMPDEST DUP3 DUP2 MSTORE DUP3 PUSH1 0x20 DUP3 ADD MSTORE DUP3 DUP7 DUP3 ADD MSTORE DUP3 PUSH1 0x60 DUP3 ADD MSTORE DUP3 PUSH1 0x80 DUP3 ADD MSTORE DUP3 PUSH1 0xA0 DUP3 ADD MSTORE ADD MSTORE PUSH1 0x1 DUP1 PUSH1 0xA0 SHL SUB AND DUP2 MSTORE PUSH1 0x5 PUSH1 0x20 MSTORE KECCAK256 PUSH1 0x40 MLOAD SWAP1 PUSH2 0x86E DUP3 PUSH2 0x329D JUMP JUMPDEST DUP1 SLOAD SWAP1 PUSH1 0xFF DUP3 AND DUP4 MSTORE PUSH1 0x20 DUP4 ADD SWAP2 PUSH1 0xFF DUP2 PUSH1 0x8 SHR AND ISZERO ISZERO DUP4 MSTORE PUSH2 0x904 PUSH1 0x40 DUP6 ADD SWAP2 PUSH1 0x1 PUSH1 0x1 PUSH1 0x40 SHL SUB DUP2 PUSH1 0x10 SHR AND DUP4 MSTORE PUSH2 0x8B2 PUSH1 0xFF PUSH1 0x60 DUP9 ADD SWAP3 PUSH1 0x50 SHR AND DUP3 PUSH2 0x3494 JUMP JUMPDEST PUSH1 0x1 PUSH1 0x1 PUSH1 0x40 SHL SUB PUSH1 0x1 DUP6 ADD SLOAD SWAP4 PUSH1 0x80 DUP9 ADD SWAP5 DUP6 MSTORE PUSH1 0x3 PUSH1 0x2 DUP8 ADD SLOAD SWAP7 PUSH1 0xA0 DUP11 ADD SWAP8 DUP9 MSTORE ADD SLOAD SWAP7 PUSH1 0xC0 DUP10 ADD SWAP8 DUP9 MSTORE PUSH1 0xFF PUSH1 0x40 MLOAD SWAP10 MLOAD AND DUP10 MSTORE MLOAD ISZERO ISZERO PUSH1 0x20 DUP10 ADD MSTORE MLOAD AND PUSH1 0x40 DUP8 ADD MSTORE MLOAD PUSH1 0x60 DUP7 ADD SWAP1 PUSH2 0x3225 JUMP JUMPDEST MLOAD PUSH1 0x80 DUP5 ADD MSTORE MLOAD PUSH1 0xA0 DUP4 ADD MSTORE MLOAD PUSH1 0xC0 DUP3 ADD MSTORE RETURN JUMPDEST POP CALLVALUE PUSH2 0x2F6 JUMPI PUSH1 0x20 CALLDATASIZE PUSH1 0x3 NOT ADD SLT PUSH2 0x2F6 JUMPI PUSH2 0xFFFF PUSH2 0x9DA PUSH2 0x9D5 PUSH1 0xFF PUSH1 0x40 PUSH1 0x20 SWAP6 PUSH1 0x1 DUP1 PUSH1 0xA0 SHL SUB PUSH2 0x949 PUSH2 0x3122 JUMP JUMPDEST AND DUP2 MSTORE PUSH1 0x5 DUP8 MSTORE KECCAK256 PUSH2 0x9BF PUSH1 0x40 MLOAD SWAP2 PUSH2 0x961 DUP4 PUSH2 0x329D JUMP JUMPDEST PUSH1 0x3 DUP2 SLOAD SWAP2 DUP6 DUP4 AND DUP6 MSTORE PUSH2 0x99C DUP7 DUP12 DUP8 ADD SWAP5 DUP2 DUP2 PUSH1 0x8 SHR AND ISZERO ISZERO DUP7 MSTORE PUSH1 0x1 PUSH1 0x1 PUSH1 0x40 SHL SUB DUP2 PUSH1 0x10 SHR AND PUSH1 0x40 DUP10 ADD MSTORE PUSH1 0x50 SHR AND PUSH1 0x60 DUP8 ADD PUSH2 0x3494 JUMP JUMPDEST PUSH1 0x1 DUP2 ADD SLOAD PUSH1 0x80 DUP7 ADD MSTORE PUSH1 0x2 DUP2 ADD SLOAD PUSH1 0xA0 DUP7 ADD MSTORE ADD SLOAD PUSH1 0xC0 DUP5 ADD MSTORE MLOAD ISZERO ISZERO PUSH2 0x3625 JUMP JUMPDEST PUSH2 0x9CE PUSH1 0xA DUP4 DUP4 MLOAD AND LT PUSH2 0x3A6B JUMP JUMPDEST MLOAD AND PUSH2 0x3741 JUMP JUMPDEST PUSH2 0x3248 JUMP JUMPDEST SWAP1 SLOAD SWAP1 PUSH1 0x3 SHL SHR AND PUSH1 0x40 MLOAD SWAP1 DUP2 MSTORE RETURN JUMPDEST POP CALLVALUE PUSH2 0x2F6 JUMPI PUSH1 0x20 CALLDATASIZE PUSH1 0x3 NOT ADD SLT PUSH2 0x2F6 JUMPI PUSH1 0x4 CALLDATALOAD PUSH2 0xA07 PUSH2 0x3ADB JUMP JUMPDEST PUSH8 0xDE0B6B3A7640000 DUP2 LT PUSH2 0xAA9 JUMPI DUP1 ISZERO PUSH2 0xA56 JUMPI PUSH1 0x40 PUSH32 0x4F57E88D155DD8095ED0D01A2787F469EB9BA59CD7D06BA45D88365BE7EC936 SWAP2 PUSH1 0x2 SLOAD SWAP1 DUP1 PUSH1 0x2 SSTORE DUP3 MLOAD SWAP2 DUP3 MSTORE PUSH1 0x20 DUP3 ADD MSTORE LOG1 DUP1 RETURN JUMPDEST PUSH1 0x40 MLOAD PUSH3 0x461BCD PUSH1 0xE5 SHL DUP2 MSTORE PUSH1 0x20 PUSH1 0x4 DUP3 ADD MSTORE PUSH1 0x25 PUSH1 0x24 DUP3 ADD MSTORE PUSH32 0x4D6178206465706F736974206D7573742062652067726561746572207468616E PUSH1 0x44 DUP3 ADD MSTORE PUSH5 0x207A65726F PUSH1 0xD8 SHL PUSH1 0x64 DUP3 ADD MSTORE PUSH1 0x84 SWAP1 REVERT JUMPDEST PUSH1 0x40 MLOAD PUSH3 0x461BCD PUSH1 0xE5 SHL DUP2 MSTORE PUSH1 0x20 PUSH1 0x4 DUP3 ADD MSTORE PUSH1 0x2B PUSH1 0x24 DUP3 ADD MSTORE PUSH32 0x4D6178206465706F7369742063616E6E6F742062652062656C6F77206D696E69 PUSH1 0x44 DUP3 ADD MSTORE PUSH11 0x1B5D5B4819195C1BDCDA5D PUSH1 0xAA SHL PUSH1 0x64 DUP3 ADD MSTORE PUSH1 0x84 SWAP1 REVERT JUMPDEST POP CALLVALUE PUSH2 0x2F6 JUMPI PUSH1 0x20 CALLDATASIZE PUSH1 0x3 NOT ADD SLT PUSH2 0x2F6 JUMPI PUSH1 0x20 PUSH4 0xFFFFFFFF PUSH2 0x9DA PUSH2 0xB26 PUSH2 0x30FD JUMP JUMPDEST PUSH2 0xB36 PUSH1 0xA PUSH1 0xFF DUP4 AND GT ISZERO PUSH2 0x3458 JUMP JUMPDEST PUSH2 0x30E2 JUMP JUMPDEST POP CALLVALUE PUSH2 0x2F6 JUMPI DUP1 PUSH1 0x3 NOT CALLDATASIZE ADD SLT PUSH2 0x2F6 JUMPI PUSH1 0x20 PUSH1 0x40 MLOAD PUSH1 0x64 DUP2 MSTORE RETURN JUMPDEST POP DUP1 PUSH1 0x3 NOT CALLDATASIZE ADD SLT PUSH2 0x2F6 JUMPI PUSH2 0xB6B PUSH2 0x3B50 JUMP JUMPDEST CALLER DUP2 MSTORE PUSH1 0x5 PUSH1 0x20 MSTORE PUSH2 0xB86 PUSH1 0xFF PUSH1 0x40 DUP4 KECCAK256 SLOAD PUSH1 0x8 SHR AND PUSH2 0x3625 JUMP JUMPDEST CALLER DUP2 MSTORE PUSH1 0x5 PUSH1 0x20 MSTORE PUSH1 0xFF PUSH1 0x40 DUP3 KECCAK256 SLOAD PUSH1 0x50 SHR AND PUSH1 0x3 DUP2 LT ISZERO PUSH2 0x6F7 JUMPI PUSH2 0xBAC SWAP1 ISZERO PUSH2 0x3A08 JUMP JUMPDEST CALLER DUP2 MSTORE PUSH1 0x5 PUSH1 0x20 MSTORE PUSH1 0x40 DUP2 KECCAK256 PUSH2 0xBC8 PUSH1 0xA PUSH1 0xFF DUP4 SLOAD AND LT PUSH2 0x3A6B JUMP JUMPDEST PUSH2 0xBD6 DUP3 PUSH1 0xFF DUP4 SLOAD AND PUSH2 0x3753 JUMP JUMPDEST PUSH1 0x0 NOT NUMBER ADD SWAP1 NUMBER DUP3 GT PUSH2 0xF2D JUMPI PUSH1 0x40 MLOAD SWAP1 PUSH1 0x20 DUP3 ADD SWAP3 TIMESTAMP DUP5 MSTORE PREVRANDAO PUSH1 0x40 DUP5 ADD MSTORE CALLER PUSH1 0x60 SHL PUSH1 0x60 DUP5 ADD MSTORE BLOCKHASH PUSH1 0x74 DUP4 ADD MSTORE PUSH1 0xFF PUSH1 0xF8 SHL SWAP1 PUSH1 0xF8 SHL AND PUSH1 0x94 DUP3 ADD MSTORE PUSH1 0x75 DUP2 MSTORE PUSH2 0xC22 PUSH1 0x95 DUP3 PUSH2 0x3321 JUMP JUMPDEST MLOAD SWAP1 KECCAK256 PUSH1 0x3 SLOAD PUSH1 0x40 MLOAD PUSH4 0x20BBA643 PUSH1 0xE2 SHL DUP2 MSTORE PUSH1 0x8 SWAP2 SWAP1 SWAP2 SHR PUSH1 0x1 PUSH1 0x1 PUSH1 0xA0 SHL SUB AND SWAP3 SWAP2 PUSH1 0x20 DUP3 PUSH1 0x4 DUP2 DUP8 GAS STATICCALL SWAP2 DUP3 ISZERO PUSH2 0xF22 JUMPI DUP6 SWAP3 PUSH2 0xEDA JUMPI JUMPDEST POP PUSH1 0x40 MLOAD PUSH4 0x17119229 PUSH1 0xE3 SHL DUP2 MSTORE PUSH1 0x1 PUSH1 0x1 PUSH1 0xA0 SHL SUB SWAP1 SWAP3 AND PUSH1 0x4 DUP4 ADD DUP2 SWAP1 MSTORE SWAP2 PUSH1 0x20 DUP2 PUSH1 0x24 DUP2 DUP9 GAS STATICCALL DUP1 ISZERO PUSH2 0xECF JUMPI DUP7 SWAP1 PUSH2 0xE82 JUMPI JUMPDEST PUSH1 0x1 PUSH1 0x1 PUSH1 0x80 SHL SUB SWAP2 POP AND DUP1 CALLVALUE LT PUSH2 0xE31 JUMPI PUSH1 0x20 SWAP3 PUSH1 0x44 SWAP2 PUSH1 0x40 MLOAD SWAP7 DUP8 SWAP5 DUP6 SWAP4 PUSH4 0x19CB825F PUSH1 0xE0 SHL DUP6 MSTORE PUSH1 0x4 DUP6 ADD MSTORE PUSH1 0x24 DUP5 ADD MSTORE GAS CALL SWAP2 DUP3 ISZERO PUSH2 0xE26 JUMPI DUP4 SWAP3 PUSH2 0xDDD JUMPI JUMPDEST POP DUP1 SLOAD PUSH10 0xFFFFFFFFFFFFFFFF0000 NOT AND PUSH1 0x10 DUP4 SWAP1 SHL PUSH10 0xFFFFFFFFFFFFFFFF0000 AND OR DUP2 SSTORE PUSH1 0x20 SWAP3 PUSH1 0x1 SWAP2 PUSH32 0xCB9F534D41D12F39394586D6A7BBAE75471BD457E6BD88546F4D5AE46E05754E SWAP1 PUSH1 0xA0 SWAP1 PUSH2 0xD31 DUP6 DUP3 PUSH2 0x3AB7 JUMP JUMPDEST PUSH1 0x1 PUSH1 0x1 PUSH1 0x40 SHL SUB DUP7 AND SWAP6 DUP7 DUP6 MSTORE PUSH1 0x8 DUP9 MSTORE PUSH1 0x40 DUP6 KECCAK256 DUP7 DUP1 DUP6 SHL SUB CALLER AND PUSH1 0x1 PUSH1 0x1 PUSH1 0x60 SHL SUB DUP6 SHL DUP3 SLOAD AND OR SWAP1 SSTORE DUP7 DUP6 MSTORE PUSH1 0x9 DUP9 MSTORE PUSH1 0x40 DUP6 KECCAK256 PUSH1 0xFF NOT DUP2 SLOAD AND SWAP1 SSTORE POP PUSH1 0x1 PUSH1 0x1 PUSH1 0x40 SHL SUB PUSH1 0xFF PUSH1 0x3 DUP4 ADD SLOAD SWAP3 SLOAD AND SWAP2 PUSH1 0xFF PUSH1 0x40 MLOAD SWAP4 PUSH2 0xD94 DUP6 PUSH2 0x32EA JUMP JUMPDEST CALLER DUP6 MSTORE DUP11 DUP6 ADD SWAP3 DUP4 MSTORE PUSH1 0x40 DUP6 ADD SWAP1 DUP2 MSTORE PUSH1 0x60 DUP6 ADD SWAP3 DUP11 DUP5 MSTORE PUSH1 0x40 MLOAD SWAP6 DUP11 DUP1 DUP10 SHL SUB SWAP1 MLOAD AND DUP7 MSTORE MLOAD DUP12 DUP7 ADD MSTORE MLOAD AND PUSH1 0x40 DUP5 ADD MSTORE MLOAD AND PUSH1 0x60 DUP3 ADD MSTORE DUP4 PUSH1 0x80 DUP3 ADD MSTORE LOG1 SSTORE PUSH1 0x40 MLOAD SWAP1 DUP2 MSTORE RETURN JUMPDEST SWAP1 SWAP2 POP PUSH1 0x20 DUP2 RETURNDATASIZE PUSH1 0x20 GT PUSH2 0xE1E JUMPI JUMPDEST DUP2 PUSH2 0xDF9 PUSH1 0x20 SWAP4 DUP4 PUSH2 0x3321 JUMP JUMPDEST DUP2 ADD SUB SLT PUSH2 0xE1A JUMPI MLOAD PUSH1 0x1 PUSH1 0x1 PUSH1 0x40 SHL SUB DUP2 AND DUP2 SUB PUSH2 0xE1A JUMPI SWAP1 PUSH1 0x20 PUSH2 0xCD8 JUMP JUMPDEST DUP3 DUP1 REVERT JUMPDEST RETURNDATASIZE SWAP2 POP PUSH2 0xDEC JUMP JUMPDEST PUSH1 0x40 MLOAD RETURNDATASIZE DUP6 DUP3 RETURNDATACOPY RETURNDATASIZE SWAP1 REVERT JUMPDEST PUSH1 0x40 MLOAD PUSH3 0x461BCD PUSH1 0xE5 SHL DUP2 MSTORE PUSH1 0x20 PUSH1 0x4 DUP3 ADD MSTORE PUSH1 0x24 DUP1 DUP3 ADD MSTORE PUSH32 0x496E73756666696369656E742066656520666F7220656E74726F707920726571 PUSH1 0x44 DUP3 ADD MSTORE PUSH4 0x1D595CDD PUSH1 0xE2 SHL PUSH1 0x64 DUP3 ADD MSTORE PUSH1 0x84 SWAP1 REVERT JUMPDEST POP PUSH1 0x20 DUP2 RETURNDATASIZE PUSH1 0x20 GT PUSH2 0xEC7 JUMPI JUMPDEST DUP2 PUSH2 0xE9C PUSH1 0x20 SWAP4 DUP4 PUSH2 0x3321 JUMP JUMPDEST DUP2 ADD SUB SLT PUSH2 0xEC3 JUMPI MLOAD PUSH1 0x1 PUSH1 0x1 PUSH1 0x80 SHL SUB DUP2 AND DUP2 SUB PUSH2 0xEC3 JUMPI PUSH1 0x1 PUSH1 0x1 PUSH1 0x80 SHL SUB SWAP1 PUSH2 0xC94 JUMP JUMPDEST DUP6 DUP1 REVERT JUMPDEST RETURNDATASIZE SWAP2 POP PUSH2 0xE8F JUMP JUMPDEST PUSH1 0x40 MLOAD RETURNDATASIZE DUP9 DUP3 RETURNDATACOPY RETURNDATASIZE SWAP1 REVERT JUMPDEST SWAP1 SWAP2 POP PUSH1 0x20 DUP2 RETURNDATASIZE PUSH1 0x20 GT PUSH2 0xF1A JUMPI JUMPDEST DUP2 PUSH2 0xEF6 PUSH1 0x20 SWAP4 DUP4 PUSH2 0x3321 JUMP JUMPDEST DUP2 ADD SUB SLT PUSH2 0xF16 JUMPI MLOAD PUSH1 0x1 PUSH1 0x1 PUSH1 0xA0 SHL SUB DUP2 AND DUP2 SUB PUSH2 0xF16 JUMPI SWAP1 CODESIZE PUSH2 0xC5D JUMP JUMPDEST DUP5 DUP1 REVERT JUMPDEST RETURNDATASIZE SWAP2 POP PUSH2 0xEE9 JUMP JUMPDEST PUSH1 0x40 MLOAD RETURNDATASIZE DUP8 DUP3 RETURNDATACOPY RETURNDATASIZE SWAP1 REVERT JUMPDEST PUSH4 0x4E487B71 PUSH1 0xE0 SHL DUP5 MSTORE PUSH1 0x11 PUSH1 0x4 MSTORE PUSH1 0x24 DUP5 REVERT JUMPDEST POP CALLVALUE PUSH2 0x2F6 JUMPI DUP1 PUSH1 0x3 NOT CALLDATASIZE ADD SLT PUSH2 0x2F6 JUMPI PUSH1 0x20 PUSH1 0x40 MLOAD PUSH1 0xA DUP2 MSTORE RETURN JUMPDEST POP CALLVALUE PUSH2 0x2F6 JUMPI PUSH1 0x20 CALLDATASIZE PUSH1 0x3 NOT ADD SLT PUSH2 0x2F6 JUMPI PUSH2 0xF77 PUSH2 0x3122 JUMP JUMPDEST PUSH2 0xF7F PUSH2 0x3ADB JUMP JUMPDEST PUSH1 0x1 PUSH1 0x1 PUSH1 0xA0 SHL SUB AND DUP1 ISZERO PUSH2 0xFD2 JUMPI PUSH1 0x4 DUP1 SLOAD PUSH1 0x1 PUSH1 0x1 PUSH1 0xA0 SHL SUB NOT DUP2 AND DUP4 OR SWAP1 SWAP2 SSTORE PUSH1 0x1 PUSH1 0x1 PUSH1 0xA0 SHL SUB AND PUSH32 0x7B5EABEB4AB16A2AD7E5311F64B056AE65CAE15FF946519963A642FFFDAAD14A DUP4 DUP1 LOG3 DUP1 RETURN JUMPDEST PUSH1 0x40 MLOAD PUSH3 0x461BCD PUSH1 0xE5 SHL DUP2 MSTORE PUSH1 0x20 PUSH1 0x4 DUP3 ADD MSTORE PUSH1 0x1F PUSH1 0x24 DUP3 ADD MSTORE PUSH32 0x496E76616C696420706F696E747320636F6E7472616374206164647265737300 PUSH1 0x44 DUP3 ADD MSTORE PUSH1 0x64 SWAP1 REVERT JUMPDEST POP CALLVALUE PUSH2 0x2F6 JUMPI PUSH1 0x40 CALLDATASIZE PUSH1 0x3 NOT ADD SLT PUSH2 0x2F6 JUMPI PUSH2 0x1031 PUSH2 0x3122 JUMP JUMPDEST PUSH1 0x1 PUSH1 0x1 PUSH1 0xA0 SHL SUB AND DUP2 MSTORE PUSH1 0x7 PUSH1 0x20 MSTORE PUSH1 0x40 DUP2 KECCAK256 DUP1 SLOAD PUSH1 0x24 CALLDATALOAD SWAP3 SWAP1 DUP4 LT ISZERO PUSH2 0x2F6 JUMPI PUSH1 0x20 PUSH2 0x105F DUP5 DUP5 PUSH2 0x3440 JUMP JUMPDEST SWAP1 SLOAD SWAP1 PUSH1 0x3 SHL SHR PUSH1 0x40 MLOAD SWAP1 DUP2 MSTORE RETURN JUMPDEST POP CALLVALUE PUSH2 0x2F6 JUMPI DUP1 PUSH1 0x3 NOT CALLDATASIZE ADD SLT PUSH2 0x2F6 JUMPI PUSH1 0x1 SLOAD PUSH1 0x40 MLOAD PUSH1 0x1 PUSH1 0x1 PUSH1 0xA0 SHL SUB SWAP1 SWAP2 AND DUP2 MSTORE PUSH1 0x20 SWAP1 RETURN JUMPDEST POP DUP1 PUSH1 0x3 NOT CALLDATASIZE ADD SLT PUSH2 0x2F6 JUMPI PUSH2 0x10AB PUSH2 0x3B50 JUMP JUMPDEST CALLER DUP2 MSTORE PUSH1 0x5 PUSH1 0x20 MSTORE PUSH2 0x10C6 PUSH1 0xFF PUSH1 0x40 DUP4 KECCAK256 SLOAD PUSH1 0x8 SHR AND PUSH2 0x3625 JUMP JUMPDEST CALLER DUP2 MSTORE PUSH1 0x5 PUSH1 0x20 MSTORE PUSH1 0xFF PUSH1 0x40 DUP3 KECCAK256 SLOAD PUSH1 0x50 SHR AND PUSH1 0x3 DUP2 LT ISZERO PUSH2 0x6F7 JUMPI PUSH2 0x10EC SWAP1 ISZERO PUSH2 0x3A08 JUMP JUMPDEST CALLER DUP2 MSTORE PUSH1 0x5 PUSH1 0x20 MSTORE PUSH1 0x40 DUP2 KECCAK256 PUSH1 0xFF DUP2 SLOAD AND PUSH1 0x1 DUP2 LT ISZERO SWAP1 DUP2 PUSH2 0x1452 JUMPI JUMPDEST POP ISZERO PUSH2 0x140D JUMPI PUSH2 0x111E PUSH1 0x64 PUSH1 0xFF DUP4 SLOAD AND PUSH2 0x3753 JUMP JUMPDEST PUSH1 0x0 NOT NUMBER ADD SWAP1 NUMBER DUP3 GT PUSH2 0xF2D JUMPI PUSH1 0x40 MLOAD SWAP1 PUSH1 0x20 DUP3 ADD SWAP3 TIMESTAMP DUP5 MSTORE PREVRANDAO PUSH1 0x40 DUP5 ADD MSTORE CALLER PUSH1 0x60 SHL PUSH1 0x60 DUP5 ADD MSTORE BLOCKHASH PUSH1 0x74 DUP4 ADD MSTORE PUSH1 0xFF PUSH1 0xF8 SHL SWAP1 PUSH1 0xF8 SHL AND PUSH1 0x94 DUP3 ADD MSTORE PUSH1 0x75 DUP2 MSTORE PUSH2 0x116A PUSH1 0x95 DUP3 PUSH2 0x3321 JUMP JUMPDEST MLOAD SWAP1 KECCAK256 PUSH1 0x3 SLOAD PUSH1 0x40 MLOAD PUSH4 0x20BBA643 PUSH1 0xE2 SHL DUP2 MSTORE PUSH1 0x8 SWAP2 SWAP1 SWAP2 SHR PUSH1 0x1 PUSH1 0x1 PUSH1 0xA0 SHL SUB AND SWAP2 PUSH1 0x20 DUP3 PUSH1 0x4 DUP2 DUP7 GAS STATICCALL SWAP2 DUP3 ISZERO PUSH2 0xF22 JUMPI DUP6 SWAP3 PUSH2 0x13C9 JUMPI JUMPDEST POP PUSH1 0x40 MLOAD PUSH4 0x17119229 PUSH1 0xE3 SHL DUP2 MSTORE PUSH1 0x1 PUSH1 0x1 PUSH1 0xA0 SHL SUB SWAP1 SWAP3 AND PUSH1 0x4 DUP4 ADD DUP2 SWAP1 MSTORE SWAP2 PUSH1 0x20 DUP2 PUSH1 0x24 DUP2 DUP8 GAS STATICCALL DUP1 ISZERO PUSH2 0xECF JUMPI DUP7 SWAP1 PUSH2 0x1380 JUMPI JUMPDEST PUSH1 0x1 PUSH1 0x1 PUSH1 0x80 SHL SUB SWAP2 POP AND DUP1 CALLVALUE LT PUSH2 0xE31 JUMPI PUSH1 0x20 SWAP3 PUSH1 0x44 SWAP2 PUSH1 0x40 MLOAD SWAP6 DUP7 SWAP5 DUP6 SWAP4 PUSH4 0x19CB825F PUSH1 0xE0 SHL DUP6 MSTORE PUSH1 0x4 DUP6 ADD MSTORE PUSH1 0x24 DUP5 ADD MSTORE GAS CALL SWAP1 DUP2 ISZERO PUSH2 0xE26 JUMPI DUP4 SWAP2 PUSH2 0x131E JUMPI JUMPDEST POP DUP2 SLOAD PUSH10 0xFFFFFFFFFFFFFFFF0000 NOT AND PUSH1 0x10 DUP3 SWAP1 SHL PUSH10 0xFFFFFFFFFFFFFFFF0000 AND OR DUP3 SSTORE PUSH32 0xCB9F534D41D12F39394586D6A7BBAE75471BD457E6BD88546F4D5AE46E05754E SWAP2 PUSH1 0xA0 SWAP2 PUSH1 0x1 PUSH1 0x1 PUSH1 0x40 SHL SUB SWAP1 PUSH2 0x127C PUSH1 0x2 DUP5 PUSH2 0x3AB7 JUMP JUMPDEST DUP2 DUP2 AND SWAP1 DUP2 DUP8 MSTORE PUSH1 0x8 PUSH1 0x20 MSTORE PUSH1 0x40 DUP8 KECCAK256 PUSH1 0x1 DUP1 DUP8 SHL SUB CALLER AND PUSH1 0x1 PUSH1 0x1 PUSH1 0x60 SHL SUB DUP8 SHL DUP3 SLOAD AND OR SWAP1 SSTORE DUP2 DUP8 MSTORE PUSH1 0x9 PUSH1 0x20 MSTORE PUSH1 0x40 DUP8 KECCAK256 PUSH1 0x1 PUSH1 0xFF NOT DUP3 SLOAD AND OR SWAP1 SSTORE POP PUSH1 0xFF DUP1 PUSH1 0x3 DUP6 ADD SLOAD SWAP5 SLOAD AND PUSH1 0x40 MLOAD SWAP5 PUSH2 0x12D4 DUP7 PUSH2 0x32EA JUMP JUMPDEST CALLER DUP7 MSTORE PUSH1 0x20 DUP7 ADD SWAP1 DUP2 MSTORE PUSH1 0x40 DUP7 ADD SWAP2 DUP3 MSTORE PUSH1 0x60 DUP7 ADD SWAP4 DUP5 MSTORE PUSH1 0x40 MLOAD SWAP6 PUSH1 0x1 DUP1 DUP10 SHL SUB SWAP1 MLOAD AND DUP7 MSTORE MLOAD PUSH1 0x20 DUP7 ADD MSTORE MLOAD AND PUSH1 0x40 DUP5 ADD MSTORE MLOAD AND PUSH1 0x60 DUP3 ADD MSTORE PUSH1 0x1 PUSH1 0x80 DUP3 ADD MSTORE LOG1 PUSH1 0x1 DUP2 SSTORE DUP1 RETURN JUMPDEST SWAP1 POP PUSH1 0x20 DUP2 RETURNDATASIZE PUSH1 0x20 GT PUSH2 0x1378 JUMPI JUMPDEST DUP2 PUSH2 0x1339 PUSH1 0x20 SWAP4 DUP4 PUSH2 0x3321 JUMP JUMPDEST DUP2 ADD SUB SLT PUSH2 0xE1A JUMPI MLOAD PUSH1 0x1 PUSH1 0x1 PUSH1 0x40 SHL SUB DUP2 AND DUP2 SUB PUSH2 0xE1A JUMPI PUSH32 0xCB9F534D41D12F39394586D6A7BBAE75471BD457E6BD88546F4D5AE46E05754E PUSH2 0x121F JUMP JUMPDEST RETURNDATASIZE SWAP2 POP PUSH2 0x132C JUMP JUMPDEST POP PUSH1 0x20 DUP2 RETURNDATASIZE PUSH1 0x20 GT PUSH2 0x13C1 JUMPI JUMPDEST DUP2 PUSH2 0x139A PUSH1 0x20 SWAP4 DUP4 PUSH2 0x3321 JUMP JUMPDEST DUP2 ADD SUB SLT PUSH2 0xEC3 JUMPI MLOAD PUSH1 0x1 PUSH1 0x1 PUSH1 0x80 SHL SUB DUP2 AND DUP2 SUB PUSH2 0xEC3 JUMPI PUSH1 0x1 PUSH1 0x1 PUSH1 0x80 SHL SUB SWAP1 PUSH2 0x11DB JUMP JUMPDEST RETURNDATASIZE SWAP2 POP PUSH2 0x138D JUMP JUMPDEST SWAP1 SWAP2 POP PUSH1 0x20 DUP2 RETURNDATASIZE PUSH1 0x20 GT PUSH2 0x1405 JUMPI JUMPDEST DUP2 PUSH2 0x13E5 PUSH1 0x20 SWAP4 DUP4 PUSH2 0x3321 JUMP JUMPDEST DUP2 ADD SUB SLT PUSH2 0xF16 JUMPI MLOAD PUSH1 0x1 PUSH1 0x1 PUSH1 0xA0 SHL SUB DUP2 AND DUP2 SUB PUSH2 0xF16 JUMPI SWAP1 CODESIZE PUSH2 0x11A4 JUMP JUMPDEST RETURNDATASIZE SWAP2 POP PUSH2 0x13D8 JUMP JUMPDEST PUSH1 0x40 MLOAD PUSH3 0x461BCD PUSH1 0xE5 SHL DUP2 MSTORE PUSH1 0x20 PUSH1 0x4 DUP3 ADD MSTORE PUSH1 0x1A PUSH1 0x24 DUP3 ADD MSTORE PUSH32 0x43616E6E6F742063617368206F7574206174206C6576656C2030000000000000 PUSH1 0x44 DUP3 ADD MSTORE PUSH1 0x64 SWAP1 REVERT JUMPDEST PUSH1 0xA SWAP2 POP GT ISZERO CODESIZE PUSH2 0x1109 JUMP JUMPDEST POP CALLVALUE PUSH2 0x2F6 JUMPI DUP1 PUSH1 0x3 NOT CALLDATASIZE ADD SLT PUSH2 0x2F6 JUMPI PUSH2 0x1477 PUSH2 0x3ADB JUMP JUMPDEST PUSH1 0x1 DUP1 SLOAD PUSH1 0x1 PUSH1 0x1 PUSH1 0xA0 SHL SUB NOT DUP2 AND SWAP1 SWAP2 SSTORE DUP2 SWAP1 PUSH1 0x1 PUSH1 0x1 PUSH1 0xA0 SHL SUB AND PUSH32 0x8BE0079C531659141344CD1FD0A4F28419497F9722A3DAAFE3B4186F6B6457E0 DUP3 DUP1 LOG3 DUP1 RETURN JUMPDEST POP CALLVALUE PUSH2 0x2F6 JUMPI DUP1 PUSH1 0x3 NOT CALLDATASIZE ADD SLT PUSH2 0x2F6 JUMPI PUSH1 0x20 SELFBALANCE PUSH1 0x40 MLOAD SWAP1 DUP2 MSTORE RETURN JUMPDEST POP CALLVALUE PUSH2 0x2F6 JUMPI PUSH1 0x20 CALLDATASIZE PUSH1 0x3 NOT ADD SLT PUSH2 0x2F6 JUMPI PUSH1 0x80 PUSH2 0x14F3 PUSH2 0x30FD JUMP JUMPDEST PUSH1 0x1 PUSH1 0xFF DUP3 AND PUSH2 0x1506 PUSH1 0xA DUP3 GT ISZERO PUSH2 0x3458 JUMP JUMPDEST PUSH2 0xFFFF PUSH2 0x1512 DUP5 PUSH2 0x3248 JUMP JUMPDEST SWAP1 SLOAD SWAP1 PUSH1 0x3 SHL SHR AND SWAP3 PUSH4 0xFFFFFFFF PUSH2 0x153B DUP2 PUSH2 0x152D DUP5 PUSH2 0x30B1 JUMP JUMPDEST SWAP1 SLOAD SWAP1 PUSH1 0x3 SHL SHR AND SWAP3 PUSH2 0x30E2 JUMP JUMPDEST SWAP1 SLOAD SWAP1 PUSH1 0x3 SHL SHR AND SWAP1 PUSH1 0x40 MLOAD SWAP5 DUP6 MSTORE PUSH1 0x20 DUP6 ADD MSTORE PUSH1 0x40 DUP5 ADD MSTORE LT ISZERO PUSH1 0x60 DUP3 ADD MSTORE RETURN JUMPDEST POP CALLVALUE PUSH2 0x2F6 JUMPI DUP1 PUSH1 0x3 NOT CALLDATASIZE ADD SLT PUSH2 0x2F6 JUMPI PUSH1 0x20 PUSH1 0x40 MLOAD PUSH2 0x2710 DUP2 MSTORE RETURN JUMPDEST POP CALLVALUE PUSH2 0x2F6 JUMPI PUSH1 0x20 CALLDATASIZE PUSH1 0x3 NOT ADD SLT PUSH2 0x2F6 JUMPI PUSH1 0x4 CALLDATALOAD DUP1 ISZERO ISZERO DUP1 SWAP2 SUB PUSH2 0x15E9 JUMPI PUSH1 0x40 PUSH32 0xC9231BA029C34AC08FF14E68398A3C3C01F81A4184650E7A74E4AF659165A204 SWAP2 PUSH2 0x15C5 PUSH2 0x3ADB JUMP JUMPDEST PUSH1 0x3 SLOAD SWAP1 PUSH1 0xFF DUP2 AND PUSH1 0xFF NOT DUP4 AND OR PUSH1 0x3 SSTORE PUSH1 0xFF DUP4 MLOAD SWAP3 AND ISZERO ISZERO DUP3 MSTORE PUSH1 0x20 DUP3 ADD MSTORE LOG1 DUP1 RETURN JUMPDEST POP DUP1 REVERT JUMPDEST POP CALLVALUE PUSH2 0x2F6 JUMPI DUP1 PUSH1 0x3 NOT CALLDATASIZE ADD SLT PUSH2 0x2F6 JUMPI PUSH1 0x20 PUSH1 0x2 SLOAD PUSH1 0x40 MLOAD SWAP1 DUP2 MSTORE RETURN JUMPDEST POP CALLVALUE PUSH2 0x2F6 JUMPI DUP1 PUSH1 0x3 NOT CALLDATASIZE ADD SLT PUSH2 0x2F6 JUMPI DUP1 PUSH2 0x460 SWAP2 POP PUSH2 0x160 DUP1 SWAP2 DUP2 PUSH1 0x40 MLOAD PUSH2 0x1635 DUP3 DUP3 PUSH2 0x3321 JUMP JUMPDEST CALLDATASIZE SWAP1 CALLDATACOPY DUP2 PUSH1 0x40 MLOAD PUSH2 0x1646 DUP3 DUP3 PUSH2 0x3321 JUMP JUMPDEST CALLDATASIZE SWAP1 CALLDATACOPY PUSH1 0x40 MLOAD SWAP1 PUSH2 0x1657 DUP4 DUP4 PUSH2 0x3321 JUMP JUMPDEST POP CALLDATASIZE SWAP1 CALLDATACOPY PUSH2 0x169B PUSH2 0x1666 PUSH2 0x37FA JUMP JUMPDEST SWAP2 PUSH2 0x1690 PUSH2 0x1672 PUSH2 0x3884 JUMP JUMPDEST PUSH2 0x167A PUSH2 0x3946 JUMP JUMPDEST SWAP3 PUSH2 0x1688 PUSH1 0x40 MLOAD DUP1 SWAP8 PUSH2 0x33E6 JUMP JUMPDEST DUP6 ADD SWAP1 PUSH2 0x3412 JUMP JUMPDEST PUSH2 0x2C0 DUP4 ADD SWAP1 PUSH2 0x3412 JUMP JUMPDEST PUSH1 0x1 PUSH2 0x420 DUP3 ADD MSTORE PUSH1 0xA PUSH2 0x440 DUP3 ADD MSTORE RETURN JUMPDEST POP CALLVALUE PUSH2 0x2F6 JUMPI DUP1 PUSH1 0x3 NOT CALLDATASIZE ADD SLT PUSH2 0x2F6 JUMPI PUSH1 0x20 PUSH1 0xA SLOAD PUSH1 0x40 MLOAD SWAP1 DUP2 MSTORE RETURN JUMPDEST POP CALLVALUE PUSH2 0x2F6 JUMPI PUSH1 0x60 CALLDATASIZE PUSH1 0x3 NOT ADD SLT PUSH2 0x2F6 JUMPI PUSH1 0x4 CALLDATALOAD SWAP1 PUSH1 0x1 PUSH1 0x1 PUSH1 0x40 SHL SUB DUP3 AND DUP3 SUB PUSH2 0x2F6 JUMPI PUSH2 0x16F9 PUSH2 0x3138 JUMP JUMPDEST POP PUSH1 0x3 SLOAD PUSH1 0x8 SHR PUSH1 0x1 PUSH1 0x1 PUSH1 0xA0 SHL SUB AND DUP1 ISZERO PUSH2 0x26CA JUMPI CALLER SUB PUSH2 0x2679 JUMPI PUSH1 0x1 PUSH1 0x1 PUSH1 0x40 SHL SUB DUP3 AND DUP2 MSTORE PUSH1 0x8 PUSH1 0x20 MSTORE PUSH1 0x40 DUP2 KECCAK256 SLOAD PUSH1 0x1 PUSH1 0x1 PUSH1 0xA0 SHL SUB AND SWAP2 DUP3 ISZERO PUSH2 0x2634 JUMPI DUP3 DUP3 MSTORE PUSH1 0x5 PUSH1 0x20 MSTORE PUSH1 0x40 DUP3 KECCAK256 SWAP3 PUSH1 0x1 PUSH1 0x1 PUSH1 0x40 SHL SUB DUP3 AND DUP4 MSTORE PUSH1 0x9 PUSH1 0x20 MSTORE PUSH1 0xFF PUSH1 0x40 DUP5 KECCAK256 SLOAD AND PUSH1 0x0 EQ PUSH2 0x1D79 JUMPI DUP4 SLOAD PUSH1 0xFF DUP2 PUSH1 0x50 SHR AND PUSH1 0x3 DUP2 LT ISZERO PUSH2 0x68F JUMPI PUSH1 0x2 SUB PUSH2 0x1D34 JUMPI PUSH1 0xFF SWAP1 PUSH2 0x17A4 PUSH1 0x1 PUSH1 0x1 PUSH1 0x40 SHL SUB DUP6 AND PUSH1 0x1 PUSH1 0x1 PUSH1 0x40 SHL SUB DUP4 PUSH1 0x10 SHR AND EQ PUSH2 0x3B04 JUMP JUMPDEST PUSH1 0x44 CALLDATALOAD PUSH1 0x1 AND ISZERO SWAP2 AND DUP2 ISZERO PUSH2 0x1D05 JUMPI DUP5 PUSH4 0xFFFFFFFF PUSH2 0x17C2 DUP4 PUSH2 0x30E2 JUMP JUMPDEST SWAP1 SLOAD SWAP1 PUSH1 0x3 SHL SHR AND SWAP2 PUSH2 0x17D9 DUP4 PUSH1 0x2 DUP11 ADD SLOAD PUSH2 0x3662 JUMP JUMPDEST SWAP3 JUMPDEST DUP9 SLOAD PUSH11 0xFFFFFFFFFFFFFFFFFF0000 NOT AND DUP10 SSTORE PUSH2 0x17F5 PUSH2 0x3B72 JUMP JUMPDEST SWAP1 DUP7 DUP5 MSTORE PUSH1 0x5 PUSH1 0x20 MSTORE PUSH1 0x40 DUP5 KECCAK256 SWAP2 PUSH1 0x40 MLOAD SWAP1 PUSH2 0x1810 DUP3 PUSH2 0x329D JUMP JUMPDEST PUSH2 0x1848 PUSH1 0xFF DUP6 SLOAD DUP2 DUP2 AND DUP6 MSTORE DUP2 DUP2 PUSH1 0x8 SHR AND ISZERO ISZERO PUSH1 0x20 DUP7 ADD MSTORE PUSH1 0x1 PUSH1 0x1 PUSH1 0x40 SHL SUB DUP2 PUSH1 0x10 SHR AND PUSH1 0x40 DUP7 ADD MSTORE PUSH1 0x50 SHR AND PUSH1 0x60 DUP5 ADD PUSH2 0x3494 JUMP JUMPDEST DUP8 PUSH1 0x1 DUP6 ADD SLOAD DUP1 PUSH1 0x80 DUP6 ADD MSTORE DUP9 PUSH1 0xC0 PUSH1 0x3 PUSH1 0x2 DUP10 ADD SLOAD SWAP9 DUP10 PUSH1 0xA0 DUP10 ADD MSTORE ADD SLOAD SWAP6 ADD SWAP7 DUP6 DUP9 MSTORE PUSH1 0x40 MLOAD SWAP6 PUSH2 0x187A DUP8 PUSH2 0x3305 JUMP JUMPDEST DUP7 MSTORE PUSH1 0x20 DUP7 ADD DUP14 DUP2 MSTORE PUSH1 0x40 DUP8 ADD SWAP8 DUP11 DUP10 MSTORE PUSH1 0x60 DUP9 ADD SWAP1 PUSH1 0x1 DUP3 MSTORE PUSH1 0x40 PUSH4 0xFFFFFFFF PUSH1 0x80 DUP12 ADD SWAP3 AND SWAP14 DUP15 DUP4 MSTORE PUSH1 0xA0 DUP12 ADD SWAP6 DUP7 MSTORE PUSH1 0xC0 DUP12 ADD SWAP7 DUP8 MSTORE PUSH1 0xE0 DUP12 ADD SWAP8 DUP9 MSTORE PUSH2 0x100 DUP12 ADD SWAP9 TIMESTAMP DUP11 MSTORE PUSH2 0x120 DUP13 ADD SWAP11 DUP12 MSTORE PUSH2 0x140 DUP13 ADD MSTORE DUP13 MLOAD DUP2 MSTORE PUSH1 0x6 PUSH1 0x20 MSTORE KECCAK256 SWAP10 DUP10 MLOAD DUP12 SSTORE PUSH1 0x1 DUP12 ADD SWAP4 PUSH1 0x1 DUP1 PUSH1 0xA0 SHL SUB SWAP1 PUSH1 0x1 DUP1 PUSH1 0xA0 SHL SUB SWAP1 MLOAD AND AND PUSH1 0x1 PUSH1 0x1 PUSH1 0x60 SHL SUB PUSH1 0xA0 SHL DUP6 SLOAD AND OR DUP5 SSTORE MLOAD SWAP2 DUP4 SLOAD SWAP1 PUSH1 0xFF PUSH1 0xA8 SHL SWAP1 MLOAD ISZERO ISZERO PUSH1 0xA8 SHL AND SWAP2 PUSH4 0xFFFFFFFF PUSH1 0xB0 SHL SWAP1 MLOAD PUSH1 0xB0 SHL AND SWAP3 PUSH1 0xFF PUSH1 0xA0 SHL SWAP1 PUSH1 0xA0 SHL AND SWAP1 PUSH6 0xFFFFFFFFFFFF PUSH1 0xA0 SHL NOT AND OR OR OR SWAP1 SSTORE MLOAD PUSH1 0x2 DUP8 ADD SSTORE MLOAD PUSH1 0x3 DUP7 ADD SSTORE MLOAD PUSH1 0x4 DUP6 ADD SSTORE MLOAD PUSH1 0x5 DUP5 ADD SSTORE PUSH1 0x6 DUP4 ADD SWAP1 MLOAD DUP1 MLOAD SWAP1 PUSH1 0x1 PUSH1 0x1 PUSH1 0x40 SHL SUB DUP3 GT PUSH2 0x1CF1 JUMPI PUSH2 0x1980 DUP4 SLOAD PUSH2 0x3263 JUMP JUMPDEST DUP14 PUSH1 0x1F DUP3 GT PUSH2 0x1CA8 JUMPI JUMPDEST SWAP1 POP POP PUSH1 0x20 SWAP1 DUP14 PUSH1 0x1F DUP5 GT PUSH1 0x1 EQ PUSH2 0x1C3A JUMPI SWAP3 DUP1 PUSH2 0x19DE SWAP8 SWAP7 SWAP4 PUSH1 0x7 SWAP7 SWAP4 PUSH2 0x140 SWAP7 SWAP3 PUSH2 0x1C2F JUMPI JUMPDEST POP POP DUP2 PUSH1 0x1 SHL SWAP2 PUSH1 0x0 NOT SWAP1 PUSH1 0x3 SHL SHR NOT AND OR SWAP1 SSTORE JUMPDEST ADD MLOAD ISZERO ISZERO SWAP2 ADD SWAP1 PUSH1 0xFF DUP1 NOT DUP4 SLOAD AND SWAP2 ISZERO ISZERO AND OR SWAP1 SSTORE JUMP JUMPDEST DUP6 DUP9 MSTORE PUSH1 0x7 PUSH1 0x20 MSTORE PUSH1 0x40 DUP9 KECCAK256 SWAP1 MLOAD SWAP1 DUP1 SLOAD SWAP1 PUSH1 0x1 PUSH1 0x40 SHL DUP3 LT ISZERO PUSH2 0x1C1B JUMPI DUP2 PUSH2 0x1A10 SWAP2 PUSH1 0x1 PUSH2 0x1A29 SWAP6 SWAP5 ADD DUP2 SSTORE PUSH2 0x3440 JUMP JUMPDEST SWAP1 SWAP2 SWAP1 DUP3 SLOAD SWAP1 PUSH1 0x3 SHL SWAP2 DUP3 SHL SWAP2 PUSH1 0x0 NOT SWAP1 SHL NOT AND OR SWAP1 SSTORE JUMP JUMPDEST DUP8 SLOAD PUSH2 0xFF00 NOT AND DUP9 SSTORE DUP4 DUP1 PUSH2 0x1C07 JUMPI JUMPDEST ISZERO PUSH2 0x1BBA JUMPI PUSH1 0x1 DUP1 PUSH1 0xA0 SHL SUB PUSH1 0x4 SLOAD AND PUSH1 0xFF PUSH1 0x3 SLOAD AND DUP2 EXTCODESIZE ISZERO PUSH2 0x1BB6 JUMPI DUP9 SWAP2 PUSH1 0x64 DUP4 SWAP3 PUSH1 0x40 MLOAD SWAP5 DUP6 SWAP4 DUP5 SWAP3 PUSH4 0x5EC33921 PUSH1 0xE1 SHL DUP5 MSTORE DUP13 PUSH1 0x4 DUP6 ADD MSTORE DUP11 PUSH1 0x24 DUP6 ADD MSTORE ISZERO ISZERO PUSH1 0x44 DUP5 ADD MSTORE GAS CALL DUP1 ISZERO PUSH2 0x1BAB JUMPI PUSH2 0x1B71 JUMPI JUMPDEST POP SWAP2 PUSH2 0x1B3B SWAP4 SWAP2 PUSH1 0x0 DUP1 MLOAD PUSH1 0x20 PUSH2 0x3CD9 DUP4 CODECOPY DUP2 MLOAD SWAP2 MSTORE SWAP6 SWAP4 PUSH1 0x3 PUSH1 0x1 PUSH1 0x1 PUSH1 0x40 SHL SUB SWAP10 SWAP11 JUMPDEST ADD SLOAD DUP1 DUP7 PUSH32 0x6EFF5BF191A1C31AD478BF2982A4BBD28C955660DB851D62F724D11746CD77D3 PUSH1 0x80 PUSH1 0x40 MLOAD DUP7 DUP2 MSTORE DUP8 PUSH1 0x20 DUP3 ADD MSTORE DUP9 PUSH1 0x40 DUP3 ADD MSTORE DUP10 PUSH1 0x60 DUP3 ADD MSTORE LOG3 PUSH1 0x40 MLOAD SWAP6 PUSH2 0x1B00 DUP8 PUSH2 0x32CE JUMP JUMPDEST DUP7 MSTORE PUSH1 0x20 DUP7 ADD MSTORE PUSH1 0x40 DUP6 ADD MSTORE PUSH1 0x1 PUSH1 0x60 DUP6 ADD MSTORE PUSH1 0x80 DUP5 ADD MSTORE PUSH1 0xA0 DUP4 ADD MSTORE PUSH2 0x1B25 PUSH2 0x3B72 JUMP JUMPDEST PUSH1 0xC0 DUP4 ADD MSTORE PUSH1 0xE0 DUP3 ADD MSTORE PUSH1 0x40 MLOAD SWAP2 DUP3 SWAP2 DUP3 PUSH2 0x3C28 JUMP JUMPDEST SUB SWAP1 LOG1 JUMPDEST AND DUP1 DUP3 MSTORE PUSH1 0x8 PUSH1 0x20 SWAP1 DUP2 MSTORE PUSH1 0x40 DUP1 DUP5 KECCAK256 DUP1 SLOAD PUSH1 0x1 PUSH1 0x1 PUSH1 0xA0 SHL SUB NOT AND SWAP1 SSTORE SWAP2 DUP4 MSTORE PUSH1 0x9 SWAP1 MSTORE DUP2 KECCAK256 DUP1 SLOAD PUSH1 0xFF NOT AND SWAP1 SSTORE DUP1 RETURN JUMPDEST SWAP2 PUSH1 0x0 DUP1 MLOAD PUSH1 0x20 PUSH2 0x3CD9 DUP4 CODECOPY DUP2 MLOAD SWAP2 MSTORE SWAP6 SWAP4 SWAP2 PUSH1 0x3 DUP10 PUSH2 0x1B9D PUSH1 0x1 PUSH1 0x1 PUSH1 0x40 SHL SUB SWAP12 PUSH2 0x1B3B SWAP10 SWAP8 PUSH2 0x3321 JUMP JUMPDEST SWAP10 POP POP SWAP2 SWAP4 SWAP6 POP SWAP2 SWAP4 PUSH2 0x1A8E JUMP JUMPDEST PUSH1 0x40 MLOAD RETURNDATASIZE DUP11 DUP3 RETURNDATACOPY RETURNDATASIZE SWAP1 REVERT JUMPDEST DUP9 DUP1 REVERT JUMPDEST SWAP2 PUSH2 0x1B3B SWAP4 SWAP2 PUSH1 0x0 DUP1 MLOAD PUSH1 0x20 PUSH2 0x3CD9 DUP4 CODECOPY DUP2 MLOAD SWAP2 MSTORE SWAP6 SWAP4 PUSH1 0x3 PUSH1 0x1 PUSH1 0x1 PUSH1 0x40 SHL SUB SWAP10 SWAP11 PUSH2 0x1BE9 DUP6 SELFBALANCE LT ISZERO PUSH2 0x3B97 JUMP JUMPDEST PUSH2 0x1C02 DUP13 DUP1 DUP1 DUP1 DUP10 DUP13 GAS CALL PUSH2 0x1BFC PUSH2 0x35E6 JUMP JUMPDEST POP PUSH2 0x3BE3 JUMP JUMPDEST PUSH2 0x1AB3 JUMP JUMPDEST POP PUSH1 0x4 SLOAD PUSH1 0x1 PUSH1 0x1 PUSH1 0xA0 SHL SUB AND ISZERO ISZERO PUSH2 0x1A39 JUMP JUMPDEST PUSH4 0x4E487B71 PUSH1 0xE0 SHL DUP11 MSTORE PUSH1 0x41 PUSH1 0x4 MSTORE PUSH1 0x24 DUP11 REVERT JUMPDEST ADD MLOAD SWAP1 POP CODESIZE DUP1 PUSH2 0x19B2 JUMP JUMPDEST SWAP2 SWAP1 PUSH1 0x1F NOT DUP5 AND DUP6 DUP5 MSTORE DUP3 DUP5 KECCAK256 SWAP4 JUMPDEST DUP2 DUP2 LT PUSH2 0x1C90 JUMPI POP SWAP4 PUSH2 0x19DE SWAP8 SWAP7 SWAP4 PUSH1 0x7 SWAP7 SWAP4 PUSH1 0x1 SWAP4 DUP4 PUSH2 0x140 SWAP9 LT PUSH2 0x1C77 JUMPI JUMPDEST POP POP POP DUP2 SHL ADD SWAP1 SSTORE PUSH2 0x19C7 JUMP JUMPDEST ADD MLOAD PUSH1 0x0 NOT PUSH1 0xF8 DUP5 PUSH1 0x3 SHL AND SHR NOT AND SWAP1 SSTORE CODESIZE DUP1 DUP1 PUSH2 0x1C6A JUMP JUMPDEST SWAP3 SWAP4 PUSH1 0x20 PUSH1 0x1 DUP2 SWAP3 DUP8 DUP7 ADD MLOAD DUP2 SSTORE ADD SWAP6 ADD SWAP4 ADD PUSH2 0x1C49 JUMP JUMPDEST DUP1 DUP6 PUSH1 0x20 SWAP3 MSTORE KECCAK256 PUSH1 0x1F DUP5 ADD PUSH1 0x5 SHR DUP2 ADD SWAP2 PUSH1 0x20 DUP6 LT PUSH2 0x1CE7 JUMPI JUMPDEST PUSH1 0x1F ADD PUSH1 0x5 SHR ADD SWAP1 DUP15 SWAP1 JUMPDEST DUP3 DUP2 LT PUSH2 0x1CDA JUMPI POP PUSH2 0x198A JUMP JUMPDEST PUSH1 0x1 SWAP2 DUP2 SSTORE ADD DUP15 SWAP1 PUSH2 0x1CCD JUMP JUMPDEST SWAP1 SWAP2 POP DUP2 SWAP1 PUSH2 0x1CC2 JUMP JUMPDEST PUSH4 0x4E487B71 PUSH1 0xE0 SHL DUP14 MSTORE PUSH1 0x41 PUSH1 0x4 MSTORE PUSH1 0x24 DUP14 REVERT JUMPDEST DUP5 PUSH4 0xFFFFFFFF PUSH2 0x1D14 DUP4 PUSH2 0x30B1 JUMP JUMPDEST SWAP1 SLOAD SWAP1 PUSH1 0x3 SHL SHR AND SWAP2 PUSH1 0x64 PUSH2 0x1D2D DUP5 PUSH1 0x2 DUP12 ADD SLOAD PUSH2 0x3662 JUMP JUMPDEST DIV SWAP3 PUSH2 0x17DB JUMP JUMPDEST PUSH1 0x40 MLOAD PUSH3 0x461BCD PUSH1 0xE5 SHL DUP2 MSTORE PUSH1 0x20 PUSH1 0x4 DUP3 ADD MSTORE PUSH1 0x1D PUSH1 0x24 DUP3 ADD MSTORE PUSH32 0x4E6F2070656E64696E6720636173686F757420666F7220706C61796572000000 PUSH1 0x44 DUP3 ADD MSTORE PUSH1 0x64 SWAP1 REVERT JUMPDEST SWAP3 DUP1 SLOAD SWAP4 PUSH1 0xFF DUP6 PUSH1 0x50 SHR AND PUSH1 0x3 DUP2 LT ISZERO PUSH2 0x68F JUMPI PUSH1 0x1 SUB PUSH2 0x25EF JUMPI PUSH2 0x1DB4 PUSH1 0x1 PUSH1 0x1 PUSH1 0x40 SHL SUB DUP5 AND PUSH1 0x1 PUSH1 0x1 PUSH1 0x40 SHL SUB DUP8 PUSH1 0x10 SHR AND EQ PUSH2 0x3B04 JUMP JUMPDEST PUSH2 0x1DC0 PUSH1 0xFF DUP7 AND PUSH2 0x3767 JUMP JUMPDEST DUP3 SLOAD PUSH11 0xFFFFFFFFFFFFFFFFFF0000 NOT AND DUP4 SSTORE PUSH1 0x44 CALLDATALOAD GT DUP1 ISZERO SWAP6 SWAP1 PUSH2 0x2268 JUMPI PUSH1 0xFF DUP4 SLOAD AND PUSH1 0xFF DUP2 EQ PUSH2 0x2254 JUMPI PUSH1 0x1 PUSH1 0xFF SWAP2 ADD AND PUSH1 0xFF NOT DUP5 SLOAD AND OR DUP4 SSTORE PUSH1 0xA PUSH1 0xFF DUP5 SLOAD AND LT ISZERO PUSH2 0x1E70 JUMPI JUMPDEST PUSH1 0xA0 PUSH32 0xFB58F29E16C938D85340FDC0FAF5E70107133E3F268AB9B6215233227A077C12 SWAP2 PUSH1 0xFF PUSH1 0x1 PUSH1 0x1 PUSH1 0x40 SHL SUB SWAP8 SWAP9 JUMPDEST PUSH1 0x3 DUP8 ADD SLOAD SWAP7 SLOAD SWAP1 DUP3 PUSH1 0x40 MLOAD SWAP5 AND DUP5 MSTORE DUP3 DUP3 AND PUSH1 0x20 DUP6 ADD MSTORE PUSH1 0x40 DUP5 ADD MSTORE PUSH1 0x8 SHR AND ISZERO ISZERO PUSH1 0x60 DUP3 ADD MSTORE PUSH1 0x44 CALLDATALOAD PUSH1 0x80 DUP3 ADD MSTORE LOG3 PUSH2 0x1B3F JUMP JUMPDEST PUSH4 0xFFFFFFFF PUSH1 0xD SLOAD PUSH1 0x40 SHR AND SWAP6 PUSH1 0x64 PUSH2 0x1E8D DUP9 PUSH1 0x2 DUP8 ADD SLOAD PUSH2 0x3662 JUMP JUMPDEST DIV PUSH2 0x1E96 PUSH2 0x3CB7 JUMP JUMPDEST DUP5 DUP9 MSTORE PUSH1 0x5 PUSH1 0x20 MSTORE PUSH1 0x40 DUP9 KECCAK256 PUSH1 0x40 MLOAD SWAP2 PUSH2 0x1EAF DUP4 PUSH2 0x329D JUMP JUMPDEST PUSH2 0x1EE7 PUSH1 0xFF DUP4 SLOAD DUP2 DUP2 AND DUP7 MSTORE DUP2 DUP2 PUSH1 0x8 SHR AND ISZERO ISZERO PUSH1 0x20 DUP8 ADD MSTORE PUSH1 0x1 PUSH1 0x1 PUSH1 0x40 SHL SUB DUP2 PUSH1 0x10 SHR AND PUSH1 0x40 DUP8 ADD MSTORE PUSH1 0x50 SHR AND PUSH1 0x60 DUP6 ADD PUSH2 0x3494 JUMP JUMPDEST PUSH1 0x1 DUP3 ADD SLOAD SWAP1 DUP2 PUSH1 0x80 DUP6 ADD MSTORE DUP11 PUSH1 0x3 PUSH1 0x2 DUP6 ADD SLOAD SWAP5 DUP6 PUSH1 0xA0 DUP9 ADD MSTORE ADD SLOAD SWAP3 DUP4 PUSH1 0xC0 DUP8 ADD MSTORE PUSH1 0x40 MLOAD SWAP4 PUSH2 0x1F18 DUP6 PUSH2 0x3305 JUMP JUMPDEST DUP5 MSTORE DUP14 PUSH1 0x20 DUP6 ADD SWAP6 DUP12 DUP8 MSTORE PUSH1 0x40 DUP7 ADD SWAP7 PUSH1 0xA DUP9 MSTORE PUSH1 0x60 DUP8 ADD PUSH1 0x1 DUP2 MSTORE PUSH1 0x80 DUP9 ADD SWAP4 DUP5 MSTORE PUSH1 0xA0 DUP9 ADD SWAP3 DUP4 MSTORE PUSH1 0xC0 DUP9 ADD SWAP4 DUP12 DUP6 MSTORE PUSH1 0xE0 DUP10 ADD SWAP6 DUP7 MSTORE PUSH1 0x40 PUSH2 0x100 DUP11 ADD SWAP8 TIMESTAMP DUP10 MSTORE PUSH2 0x120 DUP12 ADD SWAP10 DUP11 MSTORE DUP1 PUSH2 0x140 DUP13 ADD MSTORE PUSH1 0xC0 DUP14 ADD MLOAD DUP2 MSTORE PUSH1 0x6 PUSH1 0x20 MSTORE KECCAK256 SWAP10 DUP10 MLOAD DUP12 SSTORE PUSH1 0x1 DUP12 ADD SWAP4 PUSH1 0x1 DUP1 PUSH1 0xA0 SHL SUB SWAP1 PUSH1 0x1 DUP1 PUSH1 0xA0 SHL SUB SWAP1 MLOAD AND AND PUSH1 0x1 PUSH1 0x1 PUSH1 0x60 SHL SUB PUSH1 0xA0 SHL DUP6 SLOAD AND OR DUP5 SSTORE MLOAD SWAP2 DUP4 SLOAD SWAP1 PUSH1 0xFF PUSH1 0xA8 SHL SWAP1 MLOAD ISZERO ISZERO PUSH1 0xA8 SHL AND SWAP2 PUSH4 0xFFFFFFFF PUSH1 0xB0 SHL SWAP1 MLOAD PUSH1 0xB0 SHL AND SWAP3 PUSH1 0xFF PUSH1 0xA0 SHL SWAP1 PUSH1 0xA0 SHL AND SWAP1 PUSH6 0xFFFFFFFFFFFF PUSH1 0xA0 SHL NOT AND OR OR OR SWAP1 SSTORE MLOAD PUSH1 0x2 DUP8 ADD SSTORE MLOAD PUSH1 0x3 DUP7 ADD SSTORE MLOAD PUSH1 0x4 DUP6 ADD SSTORE MLOAD PUSH1 0x5 DUP5 ADD SSTORE MLOAD DUP1 MLOAD SWAP1 PUSH1 0x1 PUSH1 0x1 PUSH1 0x40 SHL SUB DUP3 GT PUSH2 0x2240 JUMPI PUSH2 0x201B PUSH1 0x6 DUP6 ADD SLOAD PUSH2 0x3263 JUMP JUMPDEST PUSH1 0x1F DUP2 GT PUSH2 0x21F9 JUMPI JUMPDEST POP PUSH1 0x20 SWAP1 DUP13 PUSH1 0x1F DUP5 GT PUSH1 0x1 EQ PUSH2 0x2186 JUMPI SWAP3 DUP1 PUSH2 0x140 SWAP4 PUSH2 0x2077 SWAP8 SWAP7 SWAP4 PUSH1 0x7 SWAP7 SWAP3 PUSH2 0x217B JUMPI JUMPDEST POP POP DUP2 PUSH1 0x1 SHL SWAP2 PUSH1 0x0 NOT SWAP1 PUSH1 0x3 SHL SHR NOT AND OR PUSH1 0x6 DUP6 ADD SSTORE ADD MLOAD ISZERO ISZERO SWAP2 ADD SWAP1 PUSH1 0xFF DUP1 NOT DUP4 SLOAD AND SWAP2 ISZERO ISZERO AND OR SWAP1 SSTORE JUMP JUMPDEST DUP5 DUP9 MSTORE PUSH1 0x7 PUSH1 0x20 MSTORE PUSH1 0xC0 PUSH1 0x40 DUP10 KECCAK256 SWAP2 ADD MLOAD SWAP1 DUP1 SLOAD SWAP1 PUSH1 0x1 PUSH1 0x40 SHL DUP3 LT ISZERO PUSH2 0x1C1B JUMPI PUSH2 0x216C DUP11 SWAP12 DUP6 PUSH2 0x211B DUP14 DUP1 PUSH1 0x1 PUSH1 0x1 PUSH1 0x40 SHL SUB SWAP16 DUP1 DUP16 SWAP12 DUP16 PUSH32 0xFB58F29E16C938D85340FDC0FAF5E70107133E3F268AB9B6215233227A077C12 SWAP16 SWAP14 PUSH1 0xA0 SWAP16 SWAP13 PUSH1 0xFF SWAP15 PUSH2 0x1A10 DUP3 PUSH1 0x0 DUP1 MLOAD PUSH1 0x20 PUSH2 0x3CD9 DUP4 CODECOPY DUP2 MLOAD SWAP2 MSTORE SWAP16 PUSH1 0x1 PUSH2 0x20FC SWAP6 ADD DUP2 SSTORE PUSH2 0x3440 JUMP JUMPDEST PUSH2 0xFF00 NOT DUP2 SLOAD AND SWAP1 SSTORE PUSH2 0x2111 DUP3 SELFBALANCE LT ISZERO PUSH2 0x3B97 JUMP JUMPDEST GAS CALL PUSH2 0x1BFC PUSH2 0x35E6 JUMP JUMPDEST PUSH1 0x3 DUP12 ADD SLOAD SWAP2 PUSH1 0x40 MLOAD SWAP3 PUSH2 0x212E DUP5 PUSH2 0x32CE JUMP JUMPDEST DUP12 DUP5 MSTORE PUSH1 0x20 DUP5 ADD MSTORE PUSH1 0xA PUSH1 0x40 DUP5 ADD MSTORE PUSH1 0x1 PUSH1 0x60 DUP5 ADD MSTORE PUSH1 0x80 DUP4 ADD MSTORE DUP8 DUP3 ADD MSTORE PUSH2 0x2155 PUSH2 0x3CB7 JUMP JUMPDEST PUSH1 0xC0 DUP3 ADD MSTORE DUP13 PUSH1 0xE0 DUP3 ADD MSTORE PUSH1 0x40 MLOAD SWAP2 DUP3 SWAP2 DUP3 PUSH2 0x3C28 JUMP JUMPDEST SUB SWAP1 LOG1 SWAP9 SWAP8 POP POP SWAP2 POP POP PUSH2 0x1E09 JUMP JUMPDEST ADD MLOAD SWAP1 POP CODESIZE DUP1 PUSH2 0x2049 JUMP JUMPDEST SWAP2 SWAP1 PUSH1 0x1F NOT DUP5 AND PUSH1 0x6 DUP8 ADD DUP5 MSTORE DUP3 DUP5 KECCAK256 SWAP4 JUMPDEST DUP2 DUP2 LT PUSH2 0x21E1 JUMPI POP SWAP4 PUSH2 0x140 SWAP4 PUSH2 0x2077 SWAP8 SWAP7 SWAP4 PUSH1 0x1 SWAP4 DUP4 PUSH1 0x7 SWAP9 LT PUSH2 0x21C8 JUMPI JUMPDEST POP POP POP DUP2 SHL ADD PUSH1 0x6 DUP6 ADD SSTORE PUSH2 0x19C7 JUMP JUMPDEST ADD MLOAD PUSH1 0x0 NOT PUSH1 0xF8 DUP5 PUSH1 0x3 SHL AND SHR NOT AND SWAP1 SSTORE CODESIZE DUP1 DUP1 PUSH2 0x21B8 JUMP JUMPDEST SWAP3 SWAP4 PUSH1 0x20 PUSH1 0x1 DUP2 SWAP3 DUP8 DUP7 ADD MLOAD DUP2 SSTORE ADD SWAP6 ADD SWAP4 ADD PUSH2 0x2198 JUMP JUMPDEST PUSH1 0x6 DUP6 ADD DUP14 MSTORE PUSH1 0x20 DUP14 KECCAK256 PUSH1 0x1F DUP5 ADD PUSH1 0x5 SHR DUP2 ADD PUSH1 0x20 DUP6 LT PUSH2 0x2239 JUMPI JUMPDEST DUP15 JUMPDEST PUSH1 0x1F DUP5 ADD PUSH1 0x5 SHR DUP4 ADD DUP3 LT PUSH2 0x222E JUMPI POP POP POP PUSH2 0x2024 JUMP JUMPDEST DUP2 SSTORE PUSH1 0x1 ADD DUP15 PUSH2 0x2217 JUMP JUMPDEST POP DUP1 PUSH2 0x2215 JUMP JUMPDEST PUSH4 0x4E487B71 PUSH1 0xE0 SHL DUP13 MSTORE PUSH1 0x41 PUSH1 0x4 MSTORE PUSH1 0x24 DUP13 REVERT JUMPDEST PUSH4 0x4E487B71 PUSH1 0xE0 SHL DUP7 MSTORE PUSH1 0x11 PUSH1 0x4 MSTORE PUSH1 0x24 DUP7 REVERT JUMPDEST SWAP5 PUSH2 0x2271 PUSH2 0x3C95 JUMP JUMPDEST DUP3 DUP7 MSTORE PUSH1 0x5 PUSH1 0x20 MSTORE PUSH1 0x40 DUP7 KECCAK256 SWAP1 DUP7 PUSH1 0x40 MLOAD SWAP2 PUSH2 0x228C DUP4 PUSH2 0x329D JUMP JUMPDEST PUSH2 0x22C4 PUSH1 0xFF DUP6 SLOAD DUP2 DUP2 AND DUP7 MSTORE DUP2 DUP2 PUSH1 0x8 SHR AND ISZERO ISZERO PUSH1 0x20 DUP8 ADD MSTORE PUSH1 0x1 PUSH1 0x1 PUSH1 0x40 SHL SUB DUP2 PUSH1 0x10 SHR AND PUSH1 0x40 DUP8 ADD MSTORE PUSH1 0x50 SHR AND PUSH1 0x60 DUP6 ADD PUSH2 0x3494 JUMP JUMPDEST DUP10 PUSH1 0x1 DUP6 ADD SLOAD DUP1 PUSH1 0x80 DUP7 ADD MSTORE PUSH1 0xC0 PUSH1 0x3 PUSH1 0x2 DUP9 ADD SLOAD SWAP8 DUP9 PUSH1 0xA0 DUP10 ADD MSTORE ADD SLOAD SWAP6 ADD SWAP6 DUP6 DUP8 MSTORE PUSH1 0x40 MLOAD SWAP6 PUSH2 0x22F5 DUP8 PUSH2 0x3305 JUMP JUMPDEST DUP7 MSTORE PUSH1 0x20 DUP1 DUP8 ADD DUP11 DUP2 MSTORE PUSH1 0xFF SWAP5 SWAP1 SWAP5 AND PUSH1 0x40 DUP1 DUP10 ADD SWAP2 DUP3 MSTORE PUSH1 0x60 DUP10 ADD DUP9 DUP2 MSTORE PUSH1 0x80 DUP11 ADD DUP10 DUP2 MSTORE PUSH1 0xA0 DUP1 DUP13 ADD SWAP7 DUP8 MSTORE PUSH1 0xC0 DUP13 ADD DUP12 DUP2 MSTORE PUSH1 0xE0 DUP14 ADD SWAP9 DUP10 MSTORE TIMESTAMP PUSH2 0x100 DUP15 ADD SWAP1 DUP2 MSTORE PUSH2 0x120 DUP15 ADD SWAP12 DUP13 MSTORE PUSH2 0x140 DUP15 ADD DUP14 DUP2 MSTORE DUP16 MLOAD DUP15 MSTORE PUSH1 0x6 SWAP9 DUP10 SWAP1 MSTORE SWAP6 SWAP1 SWAP13 KECCAK256 SWAP13 MLOAD DUP14 SSTORE SWAP9 MLOAD PUSH1 0x1 DUP14 ADD DUP1 SLOAD SWAP7 MLOAD SWAP5 MLOAD SWAP4 MLOAD PUSH1 0x1 PUSH1 0x1 PUSH1 0xD0 SHL SUB NOT SWAP1 SWAP8 AND PUSH1 0x1 PUSH1 0x1 PUSH1 0xA0 SHL SUB SWAP3 SWAP1 SWAP3 AND SWAP2 SWAP1 SWAP2 OR SWAP4 SWAP1 SWAP2 SHL PUSH1 0xFF PUSH1 0xA0 SHL AND SWAP3 SWAP1 SWAP3 OR SWAP1 ISZERO ISZERO PUSH1 0xA8 SHL PUSH1 0xFF PUSH1 0xA8 SHL AND OR PUSH1 0xB0 SWAP4 SWAP1 SWAP4 SHL PUSH4 0xFFFFFFFF PUSH1 0xB0 SHL AND SWAP3 SWAP1 SWAP3 OR SWAP1 SWAP2 SSTORE SWAP2 MLOAD PUSH1 0x2 DUP9 ADD SSTORE SWAP3 MLOAD PUSH1 0x3 DUP8 ADD SSTORE SWAP1 MLOAD PUSH1 0x4 DUP7 ADD SSTORE SWAP3 MLOAD PUSH1 0x5 DUP6 ADD SSTORE SWAP1 MLOAD DUP1 MLOAD SWAP2 DUP5 ADD SWAP2 SWAP1 PUSH1 0x1 PUSH1 0x1 PUSH1 0x40 SHL SUB DUP3 GT PUSH2 0x25DB JUMPI PUSH2 0x23F4 DUP4 SLOAD PUSH2 0x3263 JUMP JUMPDEST PUSH1 0x1F DUP2 GT PUSH2 0x2596 JUMPI JUMPDEST POP PUSH1 0x20 SWAP1 DUP12 PUSH1 0x1F DUP5 GT PUSH1 0x1 EQ PUSH2 0x252A JUMPI SWAP3 PUSH1 0x7 SWAP5 SWAP3 DUP2 SWAP3 PUSH2 0x244B SWAP9 SWAP8 SWAP6 SWAP3 PUSH2 0x251F JUMPI JUMPDEST POP POP DUP2 PUSH1 0x1 SHL SWAP2 PUSH1 0x0 NOT SWAP1 PUSH1 0x3 SHL SHR NOT AND OR SWAP1 SSTORE JUMPDEST MLOAD ISZERO ISZERO SWAP2 ADD SWAP1 PUSH1 0xFF DUP1 NOT DUP4 SLOAD AND SWAP2 ISZERO ISZERO AND OR SWAP1 SSTORE JUMP JUMPDEST DUP3 DUP7 MSTORE PUSH1 0x7 PUSH1 0x20 MSTORE PUSH1 0x40 DUP7 KECCAK256 SWAP1 MLOAD SWAP1 DUP1 SLOAD SWAP1 PUSH1 0x1 PUSH1 0x40 SHL DUP3 LT ISZERO PUSH2 0x250B JUMPI PUSH32 0xFB58F29E16C938D85340FDC0FAF5E70107133E3F268AB9B6215233227A077C12 SWAP4 PUSH2 0x24AD PUSH1 0xA0 SWAP5 PUSH2 0x1A10 DUP6 PUSH1 0xFF SWAP6 PUSH1 0x1 PUSH1 0x1 PUSH1 0x1 PUSH1 0x40 SHL SUB SWAP15 SWAP16 SWAP9 ADD DUP2 SSTORE PUSH2 0x3440 JUMP JUMPDEST PUSH2 0xFF00 NOT DUP8 SLOAD AND DUP8 SSTORE PUSH1 0x0 DUP1 MLOAD PUSH1 0x20 PUSH2 0x3CD9 DUP4 CODECOPY DUP2 MLOAD SWAP2 MSTORE PUSH2 0x2503 PUSH1 0x3 DUP10 ADD SLOAD PUSH1 0x40 MLOAD SWAP1 PUSH2 0x24DA DUP3 PUSH2 0x32CE JUMP JUMPDEST DUP10 DUP3 MSTORE PUSH1 0x20 DUP3 ADD MSTORE DUP5 DUP7 AND PUSH1 0x40 DUP3 ADD MSTORE DUP13 PUSH1 0x60 DUP3 ADD MSTORE DUP13 PUSH1 0x80 DUP3 ADD MSTORE DUP13 DUP8 DUP3 ADD MSTORE PUSH2 0x2155 PUSH2 0x3C95 JUMP JUMPDEST SUB SWAP1 LOG1 PUSH2 0x1E3A JUMP JUMPDEST PUSH4 0x4E487B71 PUSH1 0xE0 SHL DUP9 MSTORE PUSH1 0x41 PUSH1 0x4 MSTORE PUSH1 0x24 DUP9 REVERT JUMPDEST ADD MLOAD SWAP1 POP CODESIZE DUP1 PUSH2 0x2420 JUMP JUMPDEST POP DUP4 DUP13 MSTORE DUP2 DUP13 KECCAK256 SWAP2 SWAP1 PUSH1 0x1F NOT DUP5 AND DUP14 JUMPDEST DUP2 DUP2 LT PUSH2 0x257E JUMPI POP SWAP3 PUSH1 0x1 SWAP3 DUP6 SWAP3 PUSH2 0x244B SWAP10 SWAP9 SWAP7 PUSH1 0x7 SWAP9 SWAP7 LT PUSH2 0x2565 JUMPI JUMPDEST POP POP POP DUP2 SHL ADD SWAP1 SSTORE PUSH2 0x2435 JUMP JUMPDEST ADD MLOAD PUSH1 0x0 NOT PUSH1 0xF8 DUP5 PUSH1 0x3 SHL AND SHR NOT AND SWAP1 SSTORE CODESIZE DUP1 DUP1 PUSH2 0x2558 JUMP JUMPDEST SWAP3 SWAP4 PUSH1 0x20 PUSH1 0x1 DUP2 SWAP3 DUP8 DUP7 ADD MLOAD DUP2 SSTORE ADD SWAP6 ADD SWAP4 ADD PUSH2 0x253A JUMP JUMPDEST DUP4 DUP13 MSTORE PUSH1 0x20 DUP13 KECCAK256 PUSH1 0x1F DUP5 ADD PUSH1 0x5 SHR DUP2 ADD SWAP2 PUSH1 0x20 DUP6 LT PUSH2 0x25D1 JUMPI JUMPDEST PUSH1 0x1F ADD PUSH1 0x5 SHR ADD SWAP1 JUMPDEST DUP2 DUP2 LT PUSH2 0x25C6 JUMPI POP PUSH2 0x23FD JUMP JUMPDEST DUP13 DUP2 SSTORE PUSH1 0x1 ADD PUSH2 0x25B9 JUMP JUMPDEST SWAP1 SWAP2 POP DUP2 SWAP1 PUSH2 0x25B0 JUMP JUMPDEST PUSH4 0x4E487B71 PUSH1 0xE0 SHL DUP12 MSTORE PUSH1 0x41 PUSH1 0x4 MSTORE PUSH1 0x24 DUP12 REVERT JUMPDEST PUSH1 0x40 MLOAD PUSH3 0x461BCD PUSH1 0xE5 SHL DUP2 MSTORE PUSH1 0x20 PUSH1 0x4 DUP3 ADD MSTORE PUSH1 0x1B PUSH1 0x24 DUP3 ADD MSTORE PUSH32 0x4E6F2070656E64696E6720636C696D6220666F7220706C617965720000000000 PUSH1 0x44 DUP3 ADD MSTORE PUSH1 0x64 SWAP1 REVERT JUMPDEST PUSH1 0x40 MLOAD PUSH3 0x461BCD PUSH1 0xE5 SHL DUP2 MSTORE PUSH1 0x20 PUSH1 0x4 DUP3 ADD MSTORE PUSH1 0x17 PUSH1 0x24 DUP3 ADD MSTORE PUSH32 0x556E6B6E6F776E2073657175656E6365206E756D626572000000000000000000 PUSH1 0x44 DUP3 ADD MSTORE PUSH1 0x64 SWAP1 REVERT JUMPDEST PUSH1 0x40 MLOAD PUSH3 0x461BCD PUSH1 0xE5 SHL DUP2 MSTORE PUSH1 0x20 PUSH1 0x4 DUP3 ADD MSTORE PUSH1 0x23 PUSH1 0x24 DUP3 ADD MSTORE PUSH32 0x4F6E6C7920456E74726F70792063616E2063616C6C20746869732066756E6374 PUSH1 0x44 DUP3 ADD MSTORE PUSH3 0x34B7B7 PUSH1 0xE9 SHL PUSH1 0x64 DUP3 ADD MSTORE PUSH1 0x84 SWAP1 REVERT JUMPDEST PUSH1 0x40 MLOAD PUSH3 0x461BCD PUSH1 0xE5 SHL DUP2 MSTORE PUSH1 0x20 PUSH1 0x4 DUP3 ADD MSTORE PUSH1 0x17 PUSH1 0x24 DUP3 ADD MSTORE PUSH32 0x456E74726F70792061646472657373206E6F7420736574000000000000000000 PUSH1 0x44 DUP3 ADD MSTORE PUSH1 0x64 SWAP1 REVERT JUMPDEST POP CALLVALUE PUSH2 0x2F6 JUMPI PUSH1 0x20 CALLDATASIZE PUSH1 0x3 NOT ADD SLT PUSH2 0x2F6 JUMPI PUSH2 0x2729 PUSH2 0x3122 JUMP JUMPDEST DUP2 DUP3 DUP4 DUP5 SWAP4 PUSH1 0x1 DUP1 PUSH1 0xA0 SHL SUB AND DUP6 MSTORE PUSH1 0x7 PUSH1 0x20 MSTORE PUSH1 0x40 DUP6 KECCAK256 SWAP4 PUSH1 0x40 MLOAD SWAP2 DUP3 DUP7 PUSH1 0x20 DUP3 SWAP9 SLOAD SWAP6 DUP7 DUP2 MSTORE ADD SWAP1 DUP10 MSTORE PUSH1 0x20 DUP10 KECCAK256 DUP10 SWAP6 JUMPDEST DUP1 DUP8 LT PUSH2 0x2839 JUMPI POP POP PUSH2 0x2773 SWAP3 SWAP4 SWAP5 POP SUB DUP7 PUSH2 0x3321 JUMP JUMPDEST DUP5 MLOAD SWAP5 DUP7 SWAP5 JUMPDEST DUP2 MLOAD DUP7 LT ISZERO PUSH2 0x27F2 JUMPI PUSH2 0x278C DUP7 DUP4 PUSH2 0x353A JUMP JUMPDEST MLOAD DUP9 MSTORE PUSH1 0x6 PUSH1 0x20 MSTORE PUSH1 0x60 PUSH2 0x27C0 PUSH2 0x27B4 PUSH2 0x27A8 PUSH1 0x40 DUP13 KECCAK256 PUSH2 0x354E JUMP JUMPDEST SWAP6 PUSH1 0xA0 DUP8 ADD MLOAD SWAP1 PUSH2 0x34A0 JUMP JUMPDEST SWAP6 PUSH1 0xC0 DUP7 ADD MLOAD SWAP1 PUSH2 0x34A0 JUMP JUMPDEST SWAP4 ADD MLOAD ISZERO PUSH2 0x27DF JUMPI PUSH2 0x27D3 PUSH1 0x1 SWAP2 PUSH2 0x37EB JUMP JUMPDEST SWAP6 JUMPDEST ADD SWAP5 SWAP3 SWAP2 SWAP3 PUSH2 0x2779 JUMP JUMPDEST SWAP5 SWAP4 PUSH2 0x27EC PUSH1 0x1 SWAP2 PUSH2 0x37EB JUMP JUMPDEST SWAP5 PUSH2 0x27D5 JUMP JUMPDEST SWAP5 POP POP SWAP1 SWAP2 PUSH1 0xC0 SWAP6 DUP3 DUP5 LT ISZERO PUSH1 0x0 EQ PUSH2 0x2833 JUMPI POP PUSH2 0x2810 DUP3 DUP5 PUSH2 0x34C3 JUMP JUMPDEST SWAP4 JUMPDEST PUSH1 0x40 MLOAD SWAP6 DUP7 MSTORE PUSH1 0x20 DUP7 ADD MSTORE PUSH1 0x40 DUP6 ADD MSTORE PUSH1 0x60 DUP5 ADD MSTORE PUSH1 0x80 DUP4 ADD MSTORE PUSH1 0xA0 DUP3 ADD MSTORE RETURN JUMPDEST SWAP4 PUSH2 0x2812 JUMP JUMPDEST DUP2 SLOAD DUP4 MSTORE PUSH1 0x1 SWAP7 DUP8 ADD SWAP7 DUP11 SWAP5 POP PUSH1 0x20 SWAP1 SWAP4 ADD SWAP3 SWAP1 SWAP2 ADD SWAP1 PUSH2 0x275C JUMP JUMPDEST POP CALLVALUE PUSH2 0x2F6 JUMPI PUSH1 0x20 CALLDATASIZE PUSH1 0x3 NOT ADD SLT PUSH2 0x2F6 JUMPI PUSH1 0x1 PUSH1 0x1 PUSH1 0xA0 SHL SUB PUSH2 0x2877 PUSH2 0x3122 JUMP JUMPDEST AND DUP2 MSTORE PUSH1 0x7 PUSH1 0x20 MSTORE PUSH1 0x40 DUP2 KECCAK256 PUSH1 0x40 MLOAD SWAP1 DUP2 PUSH1 0x20 DUP3 SLOAD SWAP2 DUP3 DUP2 MSTORE ADD SWAP1 DUP2 SWAP3 DUP6 MSTORE PUSH1 0x20 DUP6 KECCAK256 SWAP1 DUP6 JUMPDEST DUP2 DUP2 LT PUSH2 0x28F4 JUMPI POP POP POP DUP3 PUSH2 0x28B3 SWAP2 SUB DUP4 PUSH2 0x3321 JUMP JUMPDEST PUSH1 0x40 MLOAD SWAP3 DUP4 SWAP3 PUSH1 0x20 DUP5 ADD SWAP1 PUSH1 0x20 DUP6 MSTORE MLOAD DUP1 SWAP2 MSTORE PUSH1 0x40 DUP5 ADD SWAP3 SWAP2 JUMPDEST DUP2 DUP2 LT PUSH2 0x28DB JUMPI POP POP POP SUB SWAP1 RETURN JUMPDEST DUP3 MLOAD DUP5 MSTORE DUP6 SWAP5 POP PUSH1 0x20 SWAP4 DUP5 ADD SWAP4 SWAP1 SWAP3 ADD SWAP2 PUSH1 0x1 ADD PUSH2 0x28CD JUMP JUMPDEST DUP3 SLOAD DUP5 MSTORE PUSH1 0x20 SWAP1 SWAP4 ADD SWAP3 PUSH1 0x1 SWAP3 DUP4 ADD SWAP3 ADD PUSH2 0x289D JUMP JUMPDEST POP CALLVALUE PUSH2 0x2F6 JUMPI PUSH1 0x20 CALLDATASIZE PUSH1 0x3 NOT ADD SLT PUSH2 0x2F6 JUMPI PUSH1 0x40 SWAP1 PUSH1 0x4 CALLDATALOAD DUP2 MSTORE PUSH1 0x6 PUSH1 0x20 MSTORE KECCAK256 DUP1 SLOAD PUSH1 0x1 DUP3 ADD SLOAD SWAP2 PUSH2 0x29C7 PUSH1 0x2 DUP3 ADD SLOAD SWAP2 PUSH1 0x3 DUP2 ADD SLOAD PUSH1 0x4 DUP3 ADD SLOAD PUSH1 0x5 DUP4 ADD SLOAD SWAP2 PUSH1 0xFF PUSH1 0x7 PUSH2 0x295B PUSH1 0x6 DUP8 ADD PUSH2 0x3342 JUMP JUMPDEST SWAP6 ADD SLOAD AND SWAP6 PUSH4 0xFFFFFFFF PUSH1 0x40 MLOAD SWAP10 DUP11 SWAP10 DUP11 MSTORE PUSH1 0x1 DUP1 PUSH1 0xA0 SHL SUB DUP2 AND PUSH1 0x20 DUP12 ADD MSTORE PUSH1 0xFF DUP2 PUSH1 0xA0 SHR AND PUSH1 0x40 DUP12 ADD MSTORE PUSH1 0xFF DUP2 PUSH1 0xA8 SHR AND ISZERO ISZERO PUSH1 0x60 DUP12 ADD MSTORE PUSH1 0xB0 SHR AND PUSH1 0x80 DUP10 ADD MSTORE PUSH1 0xA0 DUP9 ADD MSTORE PUSH1 0xC0 DUP8 ADD MSTORE PUSH1 0xE0 DUP7 ADD MSTORE PUSH2 0x100 DUP6 ADD MSTORE PUSH2 0x160 PUSH2 0x120 DUP6 ADD MSTORE PUSH2 0x160 DUP5 ADD SWAP1 PUSH2 0x314E JUMP JUMPDEST SWAP1 ISZERO ISZERO PUSH2 0x140 DUP4 ADD MSTORE SUB SWAP1 RETURN JUMPDEST POP CALLVALUE PUSH2 0x2F6 JUMPI PUSH1 0x20 CALLDATASIZE PUSH1 0x3 NOT ADD SLT PUSH2 0x2F6 JUMPI PUSH1 0x20 PUSH2 0x29F3 PUSH2 0x3CD PUSH2 0x30FD JUMP JUMPDEST PUSH1 0x40 MLOAD SWAP1 DUP2 MSTORE RETURN JUMPDEST POP CALLVALUE PUSH2 0x2F6 JUMPI PUSH1 0x20 CALLDATASIZE PUSH1 0x3 NOT ADD SLT PUSH2 0x2F6 JUMPI PUSH1 0x4 CALLDATALOAD SWAP1 PUSH1 0xB DUP3 LT ISZERO PUSH2 0x2F6 JUMPI PUSH1 0x20 PUSH2 0xFFFF PUSH2 0x9DA DUP5 PUSH2 0x3248 JUMP JUMPDEST POP CALLVALUE PUSH2 0x2F6 JUMPI PUSH1 0x20 CALLDATASIZE PUSH1 0x3 NOT ADD SLT PUSH2 0x2F6 JUMPI PUSH1 0xE0 SWAP1 PUSH1 0x40 SWAP1 PUSH1 0x1 PUSH1 0x1 PUSH1 0xA0 SHL SUB PUSH2 0x2A50 PUSH2 0x3122 JUMP JUMPDEST AND DUP2 MSTORE PUSH1 0x5 PUSH1 0x20 MSTORE KECCAK256 DUP1 SLOAD SWAP1 PUSH1 0x1 DUP2 ADD SLOAD SWAP1 PUSH1 0x3 PUSH1 0x2 DUP3 ADD SLOAD SWAP2 ADD SLOAD SWAP2 PUSH2 0x2AAA PUSH1 0x40 MLOAD SWAP5 PUSH1 0xFF DUP2 AND DUP7 MSTORE PUSH1 0xFF DUP2 PUSH1 0x8 SHR AND ISZERO ISZERO PUSH1 0x20 DUP8 ADD MSTORE PUSH1 0x1 PUSH1 0x1 PUSH1 0x40 SHL SUB DUP2 PUSH1 0x10 SHR AND PUSH1 0x40 DUP8 ADD MSTORE PUSH1 0xFF PUSH1 0x60 DUP8 ADD SWAP2 PUSH1 0x50 SHR AND PUSH2 0x3225 JUMP JUMPDEST PUSH1 0x80 DUP5 ADD MSTORE PUSH1 0xA0 DUP4 ADD MSTORE PUSH1 0xC0 DUP3 ADD MSTORE RETURN JUMPDEST POP CALLVALUE PUSH2 0x2F6 JUMPI PUSH1 0x20 CALLDATASIZE PUSH1 0x3 NOT ADD SLT PUSH2 0x2F6 JUMPI PUSH1 0x1 PUSH1 0x1 PUSH1 0xA0 SHL SUB PUSH2 0x2ADD PUSH2 0x3122 JUMP JUMPDEST AND DUP2 MSTORE PUSH1 0x5 PUSH1 0x20 MSTORE PUSH1 0x40 DUP2 KECCAK256 PUSH1 0x40 MLOAD PUSH2 0x2AF5 DUP2 PUSH2 0x329D JUMP JUMPDEST DUP2 SLOAD SWAP2 PUSH1 0xFF DUP4 AND DUP3 MSTORE PUSH1 0x3 PUSH1 0x20 DUP4 ADD SWAP2 PUSH1 0xFF DUP6 PUSH1 0x8 SHR AND ISZERO ISZERO DUP4 MSTORE PUSH1 0x1 PUSH1 0x1 PUSH1 0x40 SHL SUB DUP6 PUSH1 0x10 SHR AND PUSH1 0x40 DUP6 ADD MSTORE PUSH2 0x2B36 PUSH1 0xFF PUSH1 0x60 DUP7 ADD SWAP7 PUSH1 0x50 SHR AND DUP7 PUSH2 0x3494 JUMP JUMPDEST PUSH1 0x1 DUP2 ADD SLOAD PUSH1 0x80 DUP6 ADD MSTORE PUSH1 0x2 DUP2 ADD SLOAD PUSH1 0xA0 DUP6 ADD MSTORE ADD SLOAD PUSH1 0xC0 DUP4 ADD MSTORE MLOAD ISZERO ISZERO SWAP2 DUP3 PUSH2 0x2B82 JUMPI JUMPDEST POP PUSH1 0x20 SWAP3 POP DUP2 PUSH2 0x2B71 JUMPI JUMPDEST POP PUSH1 0x40 MLOAD SWAP1 ISZERO ISZERO DUP2 MSTORE RETURN JUMPDEST PUSH1 0x1 SWAP2 POP PUSH1 0xFF SWAP1 MLOAD AND LT ISZERO CODESIZE PUSH2 0x2B66 JUMP JUMPDEST SWAP1 SWAP2 POP MLOAD PUSH1 0x3 DUP2 LT ISZERO PUSH2 0x2B9B JUMPI PUSH1 0x20 SWAP3 POP ISZERO SWAP1 CODESIZE PUSH2 0x2B5B JUMP JUMPDEST PUSH4 0x4E487B71 PUSH1 0xE0 SHL DUP4 MSTORE PUSH1 0x21 PUSH1 0x4 MSTORE PUSH1 0x24 DUP4 REVERT JUMPDEST POP CALLVALUE PUSH2 0x2F6 JUMPI PUSH1 0x60 CALLDATASIZE PUSH1 0x3 NOT ADD SLT PUSH2 0x2F6 JUMPI PUSH2 0x2BC9 PUSH2 0x3122 JUMP JUMPDEST PUSH2 0x2BD1 PUSH2 0x3112 JUMP JUMPDEST SWAP1 PUSH1 0x44 CALLDATALOAD SWAP3 DUP4 ISZERO ISZERO DUP5 SUB PUSH2 0x2F6 JUMPI PUSH1 0x20 PUSH2 0x29F3 DUP6 DUP6 DUP6 PUSH2 0x2BF7 PUSH1 0xA PUSH1 0xFF DUP5 AND GT ISZERO PUSH2 0x3458 JUMP JUMPDEST PUSH2 0x3675 JUMP JUMPDEST POP CALLVALUE PUSH2 0x2F6 JUMPI PUSH1 0x20 CALLDATASIZE PUSH1 0x3 NOT ADD SLT PUSH2 0x2F6 JUMPI PUSH1 0x20 PUSH2 0xFFFF PUSH2 0x9DA PUSH2 0x2C1E PUSH2 0x30FD JUMP JUMPDEST PUSH2 0x9D5 PUSH1 0xA PUSH1 0xFF DUP4 AND GT ISZERO PUSH2 0x3458 JUMP JUMPDEST POP CALLVALUE PUSH2 0x2F6 JUMPI PUSH1 0x20 CALLDATASIZE PUSH1 0x3 NOT ADD SLT PUSH2 0x2F6 JUMPI PUSH1 0x4 CALLDATALOAD PUSH2 0x2C4B PUSH2 0x3ADB JUMP JUMPDEST DUP1 SELFBALANCE LT PUSH2 0x2CB2 JUMPI PUSH1 0x1 SLOAD DUP3 SWAP2 DUP3 SWAP2 DUP3 SWAP2 DUP3 SWAP2 PUSH1 0x1 PUSH1 0x1 PUSH1 0xA0 SHL SUB AND GAS CALL PUSH2 0x2C70 PUSH2 0x35E6 JUMP JUMPDEST POP ISZERO PUSH2 0x2C79 JUMPI DUP1 RETURN JUMPDEST PUSH1 0x40 MLOAD PUSH3 0x461BCD PUSH1 0xE5 SHL DUP2 MSTORE PUSH1 0x20 PUSH1 0x4 DUP3 ADD MSTORE PUSH1 0x11 PUSH1 0x24 DUP3 ADD MSTORE PUSH17 0x15DA5D1A191C985DD85B0819985A5B1959 PUSH1 0x7A SHL PUSH1 0x44 DUP3 ADD MSTORE PUSH1 0x64 SWAP1 REVERT JUMPDEST PUSH1 0x40 MLOAD PUSH3 0x461BCD PUSH1 0xE5 SHL DUP2 MSTORE PUSH1 0x20 PUSH1 0x4 DUP3 ADD MSTORE PUSH1 0x14 PUSH1 0x24 DUP3 ADD MSTORE PUSH20 0x496E73756666696369656E742062616C616E6365 PUSH1 0x60 SHL PUSH1 0x44 DUP3 ADD MSTORE PUSH1 0x64 SWAP1 REVERT JUMPDEST POP CALLVALUE PUSH2 0x2F6 JUMPI PUSH1 0x20 CALLDATASIZE PUSH1 0x3 NOT ADD SLT PUSH2 0x2F6 JUMPI PUSH1 0x4 CALLDATALOAD SWAP1 PUSH1 0xB DUP3 LT ISZERO PUSH2 0x2F6 JUMPI PUSH1 0x20 PUSH4 0xFFFFFFFF PUSH2 0x9DA DUP5 PUSH2 0x30E2 JUMP JUMPDEST POP CALLVALUE PUSH2 0x2F6 JUMPI DUP1 PUSH1 0x3 NOT CALLDATASIZE ADD SLT PUSH2 0x2F6 JUMPI PUSH1 0x4 SLOAD PUSH1 0x40 MLOAD PUSH1 0x1 PUSH1 0x1 PUSH1 0xA0 SHL SUB SWAP1 SWAP2 AND DUP2 MSTORE PUSH1 0x20 SWAP1 RETURN JUMPDEST POP CALLVALUE PUSH2 0x2F6 JUMPI PUSH1 0x60 CALLDATASIZE PUSH1 0x3 NOT ADD SLT PUSH2 0x2F6 JUMPI PUSH2 0x2D60 PUSH2 0x3122 JUMP JUMPDEST PUSH1 0x1 PUSH1 0x1 PUSH1 0xA0 SHL SUB AND DUP2 MSTORE PUSH1 0x7 PUSH1 0x20 SWAP1 DUP2 MSTORE PUSH1 0x40 DUP1 DUP4 KECCAK256 SWAP1 MLOAD DUP2 SLOAD DUP1 DUP3 MSTORE SWAP2 DUP5 MSTORE DUP3 DUP5 KECCAK256 SWAP1 SWAP3 PUSH1 0x24 CALLDATALOAD SWAP3 DUP5 SWAP2 DUP3 ADD SWAP1 DUP7 JUMPDEST DUP2 DUP2 LT PUSH2 0x2F16 JUMPI POP POP PUSH2 0x2DA6 SWAP3 POP SUB DUP4 PUSH2 0x3321 JUMP JUMPDEST DUP2 MLOAD DUP2 LT ISZERO PUSH2 0x2EDA JUMPI PUSH2 0x2DBB PUSH1 0x44 CALLDATALOAD DUP3 PUSH2 0x34A0 JUMP JUMPDEST SWAP1 DUP3 MLOAD DUP1 DUP4 GT PUSH2 0x2ED2 JUMPI JUMPDEST POP PUSH2 0x2DD1 DUP2 DUP4 PUSH2 0x34C3 JUMP JUMPDEST SWAP3 PUSH2 0x2DDB DUP5 PUSH2 0x34D0 JUMP JUMPDEST SWAP4 PUSH2 0x2DE9 PUSH1 0x40 MLOAD SWAP6 DUP7 PUSH2 0x3321 JUMP JUMPDEST DUP1 DUP6 MSTORE PUSH2 0x2DF8 PUSH1 0x1F NOT SWAP2 PUSH2 0x34D0 JUMP JUMPDEST ADD DUP6 JUMPDEST DUP2 DUP2 LT PUSH2 0x2EBB JUMPI POP POP DUP2 JUMPDEST DUP4 DUP2 LT PUSH2 0x2E74 JUMPI DUP5 DUP7 PUSH1 0x40 MLOAD SWAP2 DUP3 SWAP2 PUSH1 0x20 DUP4 ADD PUSH1 0x20 DUP5 MSTORE DUP3 MLOAD DUP1 SWAP2 MSTORE PUSH1 0x40 DUP5 ADD PUSH1 0x20 PUSH1 0x40 DUP4 PUSH1 0x5 SHL DUP8 ADD ADD SWAP5 ADD SWAP3 SWAP1 JUMPDEST DUP3 DUP3 LT PUSH2 0x2E45 JUMPI POP POP POP POP SUB SWAP1 RETURN JUMPDEST SWAP2 SWAP4 PUSH1 0x1 SWAP2 SWAP4 SWAP6 POP PUSH1 0x20 PUSH2 0x2E64 DUP2 SWAP3 PUSH1 0x3F NOT DUP11 DUP3 SUB ADD DUP7 MSTORE DUP9 MLOAD PUSH2 0x318F JUMP JUMPDEST SWAP7 ADD SWAP3 ADD SWAP3 ADD DUP6 SWAP5 SWAP4 SWAP2 SWAP3 PUSH2 0x2E36 JUMP JUMPDEST DUP1 PUSH2 0x2E81 PUSH1 0x1 SWAP3 DUP5 PUSH2 0x353A JUMP JUMPDEST MLOAD DUP8 MSTORE PUSH1 0x6 PUSH1 0x20 MSTORE PUSH2 0x2EB4 PUSH1 0x40 DUP9 KECCAK256 PUSH2 0x2EA3 PUSH2 0x2E9D DUP8 DUP6 PUSH2 0x34C3 JUMP JUMPDEST SWAP2 PUSH2 0x354E JUMP JUMPDEST PUSH2 0x2EAD DUP3 DUP11 PUSH2 0x353A JUMP JUMPDEST MSTORE DUP8 PUSH2 0x353A JUMP JUMPDEST POP ADD PUSH2 0x2E06 JUMP JUMPDEST PUSH1 0x20 SWAP1 PUSH2 0x2EC6 PUSH2 0x34E7 JUMP JUMPDEST DUP3 DUP3 DUP10 ADD ADD MSTORE ADD PUSH2 0x2DFB JUMP JUMPDEST SWAP2 POP CODESIZE PUSH2 0x2DC6 JUMP JUMPDEST PUSH1 0x40 MLOAD PUSH3 0x461BCD PUSH1 0xE5 SHL DUP2 MSTORE PUSH1 0x20 PUSH1 0x4 DUP3 ADD MSTORE PUSH1 0x14 PUSH1 0x24 DUP3 ADD MSTORE PUSH20 0x4F6666736574206F7574206F6620626F756E6473 PUSH1 0x60 SHL PUSH1 0x44 DUP3 ADD MSTORE PUSH1 0x64 SWAP1 REVERT JUMPDEST DUP5 SLOAD DUP4 MSTORE PUSH1 0x1 SWAP5 DUP6 ADD SWAP5 DUP8 SWAP5 POP PUSH1 0x20 SWAP1 SWAP4 ADD SWAP3 ADD PUSH2 0x2D91 JUMP JUMPDEST POP CALLVALUE PUSH2 0x2F6 JUMPI DUP1 PUSH1 0x3 NOT CALLDATASIZE ADD SLT PUSH2 0x2F6 JUMPI PUSH1 0x20 PUSH1 0x40 MLOAD PUSH1 0x1 DUP2 MSTORE RETURN JUMPDEST POP CALLVALUE PUSH2 0x2F6 JUMPI PUSH1 0x20 CALLDATASIZE PUSH1 0x3 NOT ADD SLT PUSH2 0x2F6 JUMPI POP PUSH1 0x20 PUSH1 0x1 PUSH1 0x4 CALLDATALOAD AND ISZERO PUSH1 0x40 MLOAD SWAP1 DUP2 MSTORE RETURN JUMPDEST POP CALLVALUE PUSH2 0x2F6 JUMPI PUSH1 0x20 CALLDATASIZE PUSH1 0x3 NOT ADD SLT PUSH2 0x2F6 JUMPI PUSH1 0x1 PUSH1 0x1 PUSH1 0xA0 SHL SUB PUSH2 0x2F91 PUSH2 0x3122 JUMP JUMPDEST AND DUP2 MSTORE PUSH1 0x5 PUSH1 0x20 MSTORE PUSH1 0x40 DUP2 KECCAK256 PUSH1 0x40 MLOAD PUSH2 0x2FA9 DUP2 PUSH2 0x329D JUMP JUMPDEST DUP2 SLOAD SWAP2 PUSH1 0xFF DUP4 AND DUP3 MSTORE PUSH1 0x3 PUSH1 0x20 DUP4 ADD SWAP2 PUSH1 0xFF DUP6 PUSH1 0x8 SHR AND ISZERO ISZERO DUP4 MSTORE PUSH1 0x1 PUSH1 0x1 PUSH1 0x40 SHL SUB DUP6 PUSH1 0x10 SHR AND PUSH1 0x40 DUP6 ADD MSTORE PUSH2 0x2FEA PUSH1 0xFF PUSH1 0x60 DUP7 ADD SWAP7 PUSH1 0x50 SHR AND DUP7 PUSH2 0x3494 JUMP JUMPDEST PUSH1 0x1 DUP2 ADD SLOAD PUSH1 0x80 DUP6 ADD MSTORE PUSH1 0x2 DUP2 ADD SLOAD PUSH1 0xA0 DUP6 ADD MSTORE ADD SLOAD PUSH1 0xC0 DUP4 ADD MSTORE MLOAD ISZERO ISZERO SWAP2 DUP3 PUSH2 0x3034 JUMPI JUMPDEST POP PUSH1 0x20 SWAP3 POP DUP2 PUSH2 0x3024 JUMPI POP PUSH1 0x40 MLOAD SWAP1 ISZERO ISZERO DUP2 MSTORE RETURN JUMPDEST PUSH1 0xA SWAP2 POP PUSH1 0xFF SWAP1 MLOAD AND LT CODESIZE PUSH2 0x2B66 JUMP JUMPDEST SWAP1 SWAP2 POP MLOAD PUSH1 0x3 DUP2 LT ISZERO PUSH2 0x2B9B JUMPI PUSH1 0x20 SWAP3 POP ISZERO SWAP1 CODESIZE PUSH2 0x300F JUMP JUMPDEST POP CALLVALUE PUSH2 0x2F6 JUMPI PUSH1 0x20 CALLDATASIZE PUSH1 0x3 NOT ADD SLT PUSH2 0x2F6 JUMPI PUSH1 0x20 PUSH4 0xFFFFFFFF PUSH2 0x9DA PUSH2 0x3071 PUSH2 0x30FD JUMP JUMPDEST PUSH2 0x3081 PUSH1 0xA PUSH1 0xFF DUP4 AND GT ISZERO PUSH2 0x3458 JUMP JUMPDEST PUSH2 0x30B1 JUMP JUMPDEST POP CALLVALUE PUSH2 0x2F6 JUMPI PUSH1 0x20 CALLDATASIZE PUSH1 0x3 NOT ADD SLT PUSH2 0x2F6 JUMPI PUSH1 0x4 CALLDATALOAD SWAP1 PUSH1 0xB DUP3 LT ISZERO PUSH2 0x2F6 JUMPI PUSH1 0x20 PUSH4 0xFFFFFFFF PUSH2 0x9DA DUP5 JUMPDEST SWAP1 PUSH1 0xB DUP3 LT ISZERO PUSH2 0x30CC JUMPI PUSH1 0x1C DUP3 PUSH1 0x3 SHR PUSH1 0xC ADD SWAP3 PUSH1 0x2 SHL AND SWAP1 JUMP JUMPDEST PUSH4 0x4E487B71 PUSH1 0xE0 SHL PUSH1 0x0 MSTORE PUSH1 0x32 PUSH1 0x4 MSTORE PUSH1 0x24 PUSH1 0x0 REVERT JUMPDEST SWAP1 PUSH1 0xB DUP3 LT ISZERO PUSH2 0x30CC JUMPI PUSH1 0x1C DUP3 PUSH1 0x3 SHR PUSH1 0xE ADD SWAP3 PUSH1 0x2 SHL AND SWAP1 JUMP JUMPDEST PUSH1 0x4 CALLDATALOAD SWAP1 PUSH1 0xFF DUP3 AND DUP3 SUB PUSH2 0x310D JUMPI JUMP JUMPDEST PUSH1 0x0 DUP1 REVERT JUMPDEST PUSH1 0x24 CALLDATALOAD SWAP1 PUSH1 0xFF DUP3 AND DUP3 SUB PUSH2 0x310D JUMPI JUMP JUMPDEST PUSH1 0x4 CALLDATALOAD SWAP1 PUSH1 0x1 PUSH1 0x1 PUSH1 0xA0 SHL SUB DUP3 AND DUP3 SUB PUSH2 0x310D JUMPI JUMP JUMPDEST PUSH1 0x24 CALLDATALOAD SWAP1 PUSH1 0x1 PUSH1 0x1 PUSH1 0xA0 SHL SUB DUP3 AND DUP3 SUB PUSH2 0x310D JUMPI JUMP JUMPDEST SWAP2 SWAP1 DUP3 MLOAD SWAP3 DUP4 DUP3 MSTORE PUSH1 0x0 JUMPDEST DUP5 DUP2 LT PUSH2 0x317A JUMPI POP POP DUP3 PUSH1 0x0 PUSH1 0x20 DUP1 SWAP5 SWAP6 DUP5 ADD ADD MSTORE PUSH1 0x1F DUP1 NOT SWAP2 ADD AND ADD ADD SWAP1 JUMP JUMPDEST DUP1 PUSH1 0x20 DUP1 SWAP3 DUP5 ADD ADD MLOAD DUP3 DUP3 DUP7 ADD ADD MSTORE ADD PUSH2 0x3159 JUMP JUMPDEST SWAP1 DUP2 MLOAD DUP2 MSTORE PUSH1 0x1 DUP1 PUSH1 0xA0 SHL SUB PUSH1 0x20 DUP4 ADD MLOAD AND PUSH1 0x20 DUP3 ADD MSTORE PUSH1 0xFF PUSH1 0x40 DUP4 ADD MLOAD AND PUSH1 0x40 DUP3 ADD MSTORE PUSH1 0x60 DUP3 ADD MLOAD ISZERO ISZERO PUSH1 0x60 DUP3 ADD MSTORE PUSH4 0xFFFFFFFF PUSH1 0x80 DUP4 ADD MLOAD AND PUSH1 0x80 DUP3 ADD MSTORE PUSH1 0xA0 DUP3 ADD MLOAD PUSH1 0xA0 DUP3 ADD MSTORE PUSH1 0xC0 DUP3 ADD MLOAD PUSH1 0xC0 DUP3 ADD MSTORE PUSH1 0xE0 DUP3 ADD MLOAD PUSH1 0xE0 DUP3 ADD MSTORE PUSH2 0x100 DUP3 ADD MLOAD PUSH2 0x100 DUP3 ADD MSTORE PUSH2 0x140 DUP1 PUSH2 0x321A PUSH2 0x120 DUP6 ADD MLOAD PUSH2 0x160 PUSH2 0x120 DUP7 ADD MSTORE PUSH2 0x160 DUP6 ADD SWAP1 PUSH2 0x314E JUMP JUMPDEST SWAP4 ADD MLOAD ISZERO ISZERO SWAP2 ADD MSTORE SWAP1 JUMP JUMPDEST SWAP1 PUSH1 0x3 DUP3 LT ISZERO PUSH2 0x3232 JUMPI MSTORE JUMP JUMPDEST PUSH4 0x4E487B71 PUSH1 0xE0 SHL PUSH1 0x0 MSTORE PUSH1 0x21 PUSH1 0x4 MSTORE PUSH1 0x24 PUSH1 0x0 REVERT JUMPDEST SWAP1 PUSH1 0xB DUP3 LT ISZERO PUSH2 0x30CC JUMPI PUSH1 0x1E DUP3 PUSH1 0x4 SHR PUSH1 0xB ADD SWAP3 PUSH1 0x1 SHL AND SWAP1 JUMP JUMPDEST SWAP1 PUSH1 0x1 DUP3 DUP2 SHR SWAP3 AND DUP1 ISZERO PUSH2 0x3293 JUMPI JUMPDEST PUSH1 0x20 DUP4 LT EQ PUSH2 0x327D JUMPI JUMP JUMPDEST PUSH4 0x4E487B71 PUSH1 0xE0 SHL PUSH1 0x0 MSTORE PUSH1 0x22 PUSH1 0x4 MSTORE PUSH1 0x24 PUSH1 0x0 REVERT JUMPDEST SWAP2 PUSH1 0x7F AND SWAP2 PUSH2 0x3272 JUMP JUMPDEST PUSH1 0xE0 DUP2 ADD SWAP1 DUP2 LT PUSH1 0x1 PUSH1 0x1 PUSH1 0x40 SHL SUB DUP3 GT OR PUSH2 0x32B8 JUMPI PUSH1 0x40 MSTORE JUMP JUMPDEST PUSH4 0x4E487B71 PUSH1 0xE0 SHL PUSH1 0x0 MSTORE PUSH1 0x41 PUSH1 0x4 MSTORE PUSH1 0x24 PUSH1 0x0 REVERT JUMPDEST PUSH2 0x100 DUP2 ADD SWAP1 DUP2 LT PUSH1 0x1 PUSH1 0x1 PUSH1 0x40 SHL SUB DUP3 GT OR PUSH2 0x32B8 JUMPI PUSH1 0x40 MSTORE JUMP JUMPDEST PUSH1 0x80 DUP2 ADD SWAP1 DUP2 LT PUSH1 0x1 PUSH1 0x1 PUSH1 0x40 SHL SUB DUP3 GT OR PUSH2 0x32B8 JUMPI PUSH1 0x40 MSTORE JUMP JUMPDEST PUSH2 0x160 DUP2 ADD SWAP1 DUP2 LT PUSH1 0x1 PUSH1 0x1 PUSH1 0x40 SHL SUB DUP3 GT OR PUSH2 0x32B8 JUMPI PUSH1 0x40 MSTORE JUMP JUMPDEST SWAP1 PUSH1 0x1F DUP1 NOT SWAP2 ADD AND DUP2 ADD SWAP1 DUP2 LT PUSH1 0x1 PUSH1 0x1 PUSH1 0x40 SHL SUB DUP3 GT OR PUSH2 0x32B8 JUMPI PUSH1 0x40 MSTORE JUMP JUMPDEST SWAP1 PUSH1 0x40 MLOAD SWAP2 DUP3 PUSH1 0x0 DUP3 SLOAD SWAP3 PUSH2 0x3356 DUP5 PUSH2 0x3263 JUMP JUMPDEST DUP1 DUP5 MSTORE SWAP4 PUSH1 0x1 DUP2 AND SWAP1 DUP2 ISZERO PUSH2 0x33C4 JUMPI POP PUSH1 0x1 EQ PUSH2 0x337D JUMPI JUMPDEST POP PUSH2 0x337B SWAP3 POP SUB DUP4 PUSH2 0x3321 JUMP JUMPDEST JUMP JUMPDEST SWAP1 POP PUSH1 0x0 SWAP3 SWAP2 SWAP3 MSTORE PUSH1 0x20 PUSH1 0x0 KECCAK256 SWAP1 PUSH1 0x0 SWAP2 JUMPDEST DUP2 DUP4 LT PUSH2 0x33A8 JUMPI POP POP SWAP1 PUSH1 0x20 PUSH2 0x337B SWAP3 DUP3 ADD ADD CODESIZE PUSH2 0x336E JUMP JUMPDEST PUSH1 0x20 SWAP2 SWAP4 POP DUP1 PUSH1 0x1 SWAP2 SLOAD DUP4 DUP6 DUP10 ADD ADD MSTORE ADD SWAP2 ADD SWAP1 SWAP2 DUP5 SWAP3 PUSH2 0x338F JUMP JUMPDEST SWAP1 POP PUSH1 0x20 SWAP3 POP PUSH2 0x337B SWAP5 SWAP2 POP PUSH1 0xFF NOT AND DUP3 DUP5 ADD MSTORE ISZERO ISZERO PUSH1 0x5 SHL DUP3 ADD ADD CODESIZE PUSH2 0x336E JUMP JUMPDEST SWAP1 PUSH1 0x0 SWAP1 JUMPDEST PUSH1 0xB DUP3 LT PUSH2 0x33F8 JUMPI POP POP POP JUMP JUMPDEST PUSH1 0x20 DUP1 PUSH1 0x1 SWAP3 PUSH2 0xFFFF DUP7 MLOAD AND DUP2 MSTORE ADD SWAP4 ADD SWAP2 ADD SWAP1 SWAP2 PUSH2 0x33EB JUMP JUMPDEST SWAP1 PUSH1 0x0 SWAP1 JUMPDEST PUSH1 0xB DUP3 LT PUSH2 0x3424 JUMPI POP POP POP JUMP JUMPDEST PUSH1 0x20 DUP1 PUSH1 0x1 SWAP3 PUSH4 0xFFFFFFFF DUP7 MLOAD AND DUP2 MSTORE ADD SWAP4 ADD SWAP2 ADD SWAP1 SWAP2 PUSH2 0x3417 JUMP JUMPDEST DUP1 SLOAD DUP3 LT ISZERO PUSH2 0x30CC JUMPI PUSH1 0x0 MSTORE PUSH1 0x20 PUSH1 0x0 KECCAK256 ADD SWAP1 PUSH1 0x0 SWAP1 JUMP JUMPDEST ISZERO PUSH2 0x345F JUMPI JUMP JUMPDEST PUSH1 0x40 MLOAD PUSH3 0x461BCD PUSH1 0xE5 SHL DUP2 MSTORE PUSH1 0x20 PUSH1 0x4 DUP3 ADD MSTORE PUSH1 0xD PUSH1 0x24 DUP3 ADD MSTORE PUSH13 0x125B9D985B1A59081B195D995B PUSH1 0x9A SHL PUSH1 0x44 DUP3 ADD MSTORE PUSH1 0x64 SWAP1 REVERT JUMPDEST PUSH1 0x3 DUP3 LT ISZERO PUSH2 0x3232 JUMPI MSTORE JUMP JUMPDEST SWAP2 SWAP1 DUP3 ADD DUP1 SWAP3 GT PUSH2 0x34AD JUMPI JUMP JUMPDEST PUSH4 0x4E487B71 PUSH1 0xE0 SHL PUSH1 0x0 MSTORE PUSH1 0x11 PUSH1 0x4 MSTORE PUSH1 0x24 PUSH1 0x0 REVERT JUMPDEST SWAP2 SWAP1 DUP3 SUB SWAP2 DUP3 GT PUSH2 0x34AD JUMPI JUMP JUMPDEST PUSH1 0x1 PUSH1 0x1 PUSH1 0x40 SHL SUB DUP2 GT PUSH2 0x32B8 JUMPI PUSH1 0x5 SHL PUSH1 0x20 ADD SWAP1 JUMP JUMPDEST PUSH1 0x40 MLOAD SWAP1 PUSH2 0x34F4 DUP3 PUSH2 0x3305 JUMP JUMPDEST PUSH1 0x0 PUSH2 0x140 DUP4 DUP3 DUP2 MSTORE DUP3 PUSH1 0x20 DUP3 ADD MSTORE DUP3 PUSH1 0x40 DUP3 ADD MSTORE DUP3 PUSH1 0x60 DUP3 ADD MSTORE DUP3 PUSH1 0x80 DUP3 ADD MSTORE DUP3 PUSH1 0xA0 DUP3 ADD MSTORE DUP3 PUSH1 0xC0 DUP3 ADD MSTORE DUP3 PUSH1 0xE0 DUP3 ADD MSTORE DUP3 PUSH2 0x100 DUP3 ADD MSTORE PUSH1 0x60 PUSH2 0x120 DUP3 ADD MSTORE ADD MSTORE JUMP JUMPDEST DUP1 MLOAD DUP3 LT ISZERO PUSH2 0x30CC JUMPI PUSH1 0x20 SWAP2 PUSH1 0x5 SHL ADD ADD SWAP1 JUMP JUMPDEST SWAP1 PUSH1 0x40 MLOAD PUSH2 0x355B DUP2 PUSH2 0x3305 JUMP JUMPDEST PUSH2 0x140 PUSH1 0xFF PUSH1 0x7 DUP4 SWAP6 DUP1 SLOAD DUP6 MSTORE PUSH4 0xFFFFFFFF PUSH1 0x1 DUP3 ADD SLOAD PUSH1 0x1 DUP1 PUSH1 0xA0 SHL SUB DUP2 AND PUSH1 0x20 DUP9 ADD MSTORE DUP5 DUP2 PUSH1 0xA0 SHR AND PUSH1 0x40 DUP9 ADD MSTORE DUP5 DUP2 PUSH1 0xA8 SHR AND ISZERO ISZERO PUSH1 0x60 DUP9 ADD MSTORE PUSH1 0xB0 SHR AND PUSH1 0x80 DUP7 ADD MSTORE PUSH1 0x2 DUP2 ADD SLOAD PUSH1 0xA0 DUP7 ADD MSTORE PUSH1 0x3 DUP2 ADD SLOAD PUSH1 0xC0 DUP7 ADD MSTORE PUSH1 0x4 DUP2 ADD SLOAD PUSH1 0xE0 DUP7 ADD MSTORE PUSH1 0x5 DUP2 ADD SLOAD PUSH2 0x100 DUP7 ADD MSTORE PUSH2 0x35D6 PUSH1 0x6 DUP3 ADD PUSH2 0x3342 JUMP JUMPDEST PUSH2 0x120 DUP7 ADD MSTORE ADD SLOAD AND ISZERO ISZERO SWAP2 ADD MSTORE JUMP JUMPDEST RETURNDATASIZE ISZERO PUSH2 0x3620 JUMPI RETURNDATASIZE SWAP1 PUSH1 0x1 PUSH1 0x1 PUSH1 0x40 SHL SUB DUP3 GT PUSH2 0x32B8 JUMPI PUSH1 0x40 MLOAD SWAP2 PUSH2 0x3614 PUSH1 0x1F DUP3 ADD PUSH1 0x1F NOT AND PUSH1 0x20 ADD DUP5 PUSH2 0x3321 JUMP JUMPDEST DUP3 MSTORE RETURNDATASIZE PUSH1 0x0 PUSH1 0x20 DUP5 ADD RETURNDATACOPY JUMP JUMPDEST PUSH1 0x60 SWAP1 JUMP JUMPDEST ISZERO PUSH2 0x362C JUMPI JUMP JUMPDEST PUSH1 0x40 MLOAD PUSH3 0x461BCD PUSH1 0xE5 SHL DUP2 MSTORE PUSH1 0x20 PUSH1 0x4 DUP3 ADD MSTORE PUSH1 0xE PUSH1 0x24 DUP3 ADD MSTORE PUSH14 0x4E6F206163746976652067616D65 PUSH1 0x90 SHL PUSH1 0x44 DUP3 ADD MSTORE PUSH1 0x64 SWAP1 REVERT JUMPDEST DUP2 DUP2 MUL SWAP3 SWAP2 DUP2 ISZERO SWAP2 DUP5 DIV EQ OR ISZERO PUSH2 0x34AD JUMPI JUMP JUMPDEST PUSH1 0x1 DUP1 PUSH1 0xA0 SHL SUB AND PUSH1 0x0 MSTORE PUSH1 0x5 PUSH1 0x20 MSTORE PUSH1 0x40 PUSH1 0x0 KECCAK256 SWAP2 PUSH2 0x36FE PUSH1 0x40 MLOAD PUSH2 0x369A DUP2 PUSH2 0x329D JUMP JUMPDEST DUP5 SLOAD SWAP1 PUSH1 0xFF DUP3 AND DUP2 MSTORE PUSH2 0x36D6 PUSH1 0xFF PUSH1 0x20 DUP4 ADD SWAP4 DUP2 DUP2 PUSH1 0x8 SHR AND ISZERO ISZERO DUP6 MSTORE PUSH1 0x1 PUSH1 0x1 PUSH1 0x40 SHL SUB DUP2 PUSH1 0x10 SHR AND PUSH1 0x40 DUP6 ADD MSTORE PUSH1 0x50 SHR AND PUSH1 0x60 DUP4 ADD PUSH2 0x3494 JUMP JUMPDEST PUSH1 0x1 DUP7 ADD SLOAD PUSH1 0x80 DUP3 ADD MSTORE PUSH1 0xC0 PUSH1 0x3 PUSH1 0x2 DUP9 ADD SLOAD SWAP8 PUSH1 0xA0 DUP5 ADD SWAP9 DUP10 MSTORE ADD SLOAD SWAP2 ADD MSTORE MLOAD ISZERO ISZERO PUSH2 0x3625 JUMP JUMPDEST ISZERO PUSH2 0x3727 JUMPI PUSH4 0xFFFFFFFF PUSH2 0x3716 PUSH2 0x3724 SWAP4 MLOAD SWAP3 PUSH2 0x30E2 JUMP JUMPDEST SWAP1 SLOAD SWAP1 PUSH1 0x3 SHL SHR AND SWAP1 PUSH2 0x3662 JUMP JUMPDEST SWAP1 JUMP JUMPDEST PUSH2 0x373D SWAP1 PUSH4 0xFFFFFFFF PUSH2 0x3716 PUSH1 0x64 SWAP5 MLOAD SWAP3 PUSH2 0x30B1 JUMP JUMPDEST DIV SWAP1 JUMP JUMPDEST PUSH1 0xFF PUSH1 0x1 SWAP2 AND ADD SWAP1 PUSH1 0xFF DUP3 GT PUSH2 0x34AD JUMPI JUMP JUMPDEST SWAP1 PUSH1 0xFF DUP1 SWAP2 AND SWAP2 AND ADD SWAP1 PUSH1 0xFF DUP3 GT PUSH2 0x34AD JUMPI JUMP JUMPDEST PUSH1 0xA PUSH1 0xFF DUP3 AND LT ISZERO PUSH2 0x37A6 JUMPI PUSH2 0x3782 PUSH2 0x9D5 PUSH2 0xFFFF SWAP3 PUSH2 0x3741 JUMP JUMPDEST SWAP1 SLOAD SWAP1 PUSH1 0x3 SHL SHR AND DUP1 PUSH1 0x0 SUB SWAP1 DUP1 DUP3 DIV PUSH1 0x0 NOT EQ SWAP1 ISZERO OR ISZERO PUSH2 0x34AD JUMPI PUSH2 0x2710 SWAP1 DIV SWAP1 JUMP JUMPDEST PUSH1 0x40 MLOAD PUSH3 0x461BCD PUSH1 0xE5 SHL DUP2 MSTORE PUSH1 0x20 PUSH1 0x4 DUP3 ADD MSTORE PUSH1 0x1A PUSH1 0x24 DUP3 ADD MSTORE PUSH32 0x496E76616C6964206C6576656C20666F7220636C696D62696E67000000000000 PUSH1 0x44 DUP3 ADD MSTORE PUSH1 0x64 SWAP1 REVERT JUMPDEST PUSH1 0x0 NOT DUP2 EQ PUSH2 0x34AD JUMPI PUSH1 0x1 ADD SWAP1 JUMP JUMPDEST PUSH1 0x40 MLOAD SWAP1 PUSH2 0xFFFF PUSH1 0xB SLOAD DUP2 DUP2 AND DUP5 MSTORE DUP2 DUP2 PUSH1 0x10 SHR AND PUSH1 0x20 DUP6 ADD MSTORE DUP2 DUP2 PUSH1 0x20 SHR AND PUSH1 0x40 DUP6 ADD MSTORE DUP2 DUP2 PUSH1 0x30 SHR AND PUSH1 0x60 DUP6 ADD MSTORE DUP2 DUP2 PUSH1 0x40 SHR AND PUSH1 0x80 DUP6 ADD MSTORE DUP2 DUP2 PUSH1 0x50 SHR AND PUSH1 0xA0 DUP6 ADD MSTORE DUP2 DUP2 PUSH1 0x60 SHR AND PUSH1 0xC0 DUP6 ADD MSTORE DUP2 DUP2 PUSH1 0x70 SHR AND PUSH1 0xE0 DUP6 ADD MSTORE DUP2 DUP2 PUSH1 0x80 SHR AND PUSH2 0x100 DUP6 ADD MSTORE DUP2 DUP2 PUSH1 0x90 SHR AND PUSH2 0x120 DUP6 ADD MSTORE PUSH1 0xA0 SHR AND PUSH2 0x140 DUP4 ADD MSTORE PUSH2 0x337B PUSH2 0x160 DUP4 PUSH2 0x3321 JUMP JUMPDEST PUSH1 0x40 MLOAD SWAP1 DUP2 PUSH1 0xC PUSH1 0x0 JUMPDEST PUSH1 0xB PUSH1 0x7 DUP3 ADD LT PUSH2 0x38C5 JUMPI POP PUSH4 0xFFFFFFFF PUSH1 0x40 SWAP2 SLOAD DUP2 DUP2 AND DUP5 MSTORE DUP2 DUP2 PUSH1 0x20 SHR AND PUSH1 0x20 DUP6 ADD MSTORE DUP3 SHR AND SWAP2 ADD MSTORE PUSH2 0x337B PUSH2 0x160 DUP4 PUSH2 0x3321 JUMP JUMPDEST SWAP1 SWAP2 PUSH1 0x1 PUSH2 0x100 PUSH1 0x8 SWAP3 DUP6 SLOAD PUSH4 0xFFFFFFFF DUP2 AND DUP3 MSTORE PUSH4 0xFFFFFFFF DUP2 PUSH1 0x20 SHR AND PUSH1 0x20 DUP4 ADD MSTORE PUSH4 0xFFFFFFFF DUP2 PUSH1 0x40 SHR AND PUSH1 0x40 DUP4 ADD MSTORE PUSH4 0xFFFFFFFF DUP2 PUSH1 0x60 SHR AND PUSH1 0x60 DUP4 ADD MSTORE PUSH4 0xFFFFFFFF DUP2 PUSH1 0x80 SHR AND PUSH1 0x80 DUP4 ADD MSTORE PUSH4 0xFFFFFFFF DUP2 PUSH1 0xA0 SHR AND PUSH1 0xA0 DUP4 ADD MSTORE PUSH4 0xFFFFFFFF DUP2 PUSH1 0xC0 SHR AND PUSH1 0xC0 DUP4 ADD MSTORE PUSH1 0xE0 SHR PUSH1 0xE0 DUP3 ADD MSTORE ADD SWAP4 ADD SWAP2 ADD PUSH2 0x388E JUMP JUMPDEST PUSH1 0x40 MLOAD SWAP1 DUP2 PUSH1 0xE PUSH1 0x0 JUMPDEST PUSH1 0xB PUSH1 0x7 DUP3 ADD LT PUSH2 0x3987 JUMPI POP PUSH4 0xFFFFFFFF PUSH1 0x40 SWAP2 SLOAD DUP2 DUP2 AND DUP5 MSTORE DUP2 DUP2 PUSH1 0x20 SHR AND PUSH1 0x20 DUP6 ADD MSTORE DUP3 SHR AND SWAP2 ADD MSTORE PUSH2 0x337B PUSH2 0x160 DUP4 PUSH2 0x3321 JUMP JUMPDEST SWAP1 SWAP2 PUSH1 0x1 PUSH2 0x100 PUSH1 0x8 SWAP3 DUP6 SLOAD PUSH4 0xFFFFFFFF DUP2 AND DUP3 MSTORE PUSH4 0xFFFFFFFF DUP2 PUSH1 0x20 SHR AND PUSH1 0x20 DUP4 ADD MSTORE PUSH4 0xFFFFFFFF DUP2 PUSH1 0x40 SHR AND PUSH1 0x40 DUP4 ADD MSTORE PUSH4 0xFFFFFFFF DUP2 PUSH1 0x60 SHR AND PUSH1 0x60 DUP4 ADD MSTORE PUSH4 0xFFFFFFFF DUP2 PUSH1 0x80 SHR AND PUSH1 0x80 DUP4 ADD MSTORE PUSH4 0xFFFFFFFF DUP2 PUSH1 0xA0 SHR AND PUSH1 0xA0 DUP4 ADD MSTORE PUSH4 0xFFFFFFFF DUP2 PUSH1 0xC0 SHR AND PUSH1 0xC0 DUP4 ADD MSTORE PUSH1 0xE0 SHR PUSH1 0xE0 DUP3 ADD MSTORE ADD SWAP4 ADD SWAP2 ADD PUSH2 0x3950 JUMP JUMPDEST ISZERO PUSH2 0x3A0F JUMPI JUMP JUMPDEST PUSH1 0x40 MLOAD PUSH3 0x461BCD PUSH1 0xE5 SHL DUP2 MSTORE PUSH1 0x20 PUSH1 0x4 DUP3 ADD MSTORE PUSH1 0x2E PUSH1 0x24 DUP3 ADD MSTORE PUSH32 0x43616E6E6F7420706572666F726D20616374696F6E207768696C652072657175 PUSH1 0x44 DUP3 ADD MSTORE PUSH14 0x6573742069732070656E64696E67 PUSH1 0x90 SHL PUSH1 0x64 DUP3 ADD MSTORE PUSH1 0x84 SWAP1 REVERT JUMPDEST ISZERO PUSH2 0x3A72 JUMPI JUMP JUMPDEST PUSH1 0x40 MLOAD PUSH3 0x461BCD PUSH1 0xE5 SHL DUP2 MSTORE PUSH1 0x20 PUSH1 0x4 DUP3 ADD MSTORE PUSH1 0x18 PUSH1 0x24 DUP3 ADD MSTORE PUSH32 0x416C7265616479206174206D6178696D756D206C6576656C0000000000000000 PUSH1 0x44 DUP3 ADD MSTORE PUSH1 0x64 SWAP1 REVERT JUMPDEST SWAP1 PUSH1 0x3 DUP2 LT ISZERO PUSH2 0x3232 JUMPI DUP2 SLOAD PUSH1 0xFF PUSH1 0x50 SHL NOT AND PUSH1 0x50 SWAP2 SWAP1 SWAP2 SHL PUSH1 0xFF PUSH1 0x50 SHL AND OR SWAP1 SSTORE JUMP JUMPDEST PUSH1 0x1 SLOAD PUSH1 0x1 PUSH1 0x1 PUSH1 0xA0 SHL SUB AND CALLER SUB PUSH2 0x3AEF JUMPI JUMP JUMPDEST PUSH4 0x118CDAA7 PUSH1 0xE0 SHL PUSH1 0x0 MSTORE CALLER PUSH1 0x4 MSTORE PUSH1 0x24 PUSH1 0x0 REVERT JUMPDEST ISZERO PUSH2 0x3B0B JUMPI JUMP JUMPDEST PUSH1 0x40 MLOAD PUSH3 0x461BCD PUSH1 0xE5 SHL DUP2 MSTORE PUSH1 0x20 PUSH1 0x4 DUP3 ADD MSTORE PUSH1 0x18 PUSH1 0x24 DUP3 ADD MSTORE PUSH32 0x53657175656E6365206E756D626572206D69736D617463680000000000000000 PUSH1 0x44 DUP3 ADD MSTORE PUSH1 0x64 SWAP1 REVERT JUMPDEST PUSH1 0x2 PUSH1 0x0 SLOAD EQ PUSH2 0x3B61 JUMPI PUSH1 0x2 PUSH1 0x0 SSTORE JUMP JUMPDEST PUSH4 0x3EE5AEB5 PUSH1 0xE0 SHL PUSH1 0x0 MSTORE PUSH1 0x4 PUSH1 0x0 REVERT JUMPDEST PUSH1 0x40 MLOAD SWAP1 PUSH2 0x3B81 PUSH1 0x40 DUP4 PUSH2 0x3321 JUMP JUMPDEST PUSH1 0x7 DUP3 MSTORE PUSH7 0x18D85CDA13DD5D PUSH1 0xCA SHL PUSH1 0x20 DUP4 ADD MSTORE JUMP JUMPDEST ISZERO PUSH2 0x3B9E JUMPI JUMP JUMPDEST PUSH1 0x40 MLOAD PUSH3 0x461BCD PUSH1 0xE5 SHL DUP2 MSTORE PUSH1 0x20 PUSH1 0x4 DUP3 ADD MSTORE PUSH1 0x1D PUSH1 0x24 DUP3 ADD MSTORE PUSH32 0x496E73756666696369656E7420636F6E74726163742062616C616E6365000000 PUSH1 0x44 DUP3 ADD MSTORE PUSH1 0x64 SWAP1 REVERT JUMPDEST ISZERO PUSH2 0x3BEA JUMPI JUMP JUMPDEST PUSH1 0x40 MLOAD PUSH3 0x461BCD PUSH1 0xE5 SHL DUP2 MSTORE PUSH1 0x20 PUSH1 0x4 DUP3 ADD MSTORE PUSH1 0x16 PUSH1 0x24 DUP3 ADD MSTORE PUSH22 0x14185E5BDD5D081D1C985B9CD9995C8819985A5B1959 PUSH1 0x52 SHL PUSH1 0x44 DUP3 ADD MSTORE PUSH1 0x64 SWAP1 REVERT JUMPDEST PUSH1 0x20 DUP2 MSTORE PUSH1 0x1 DUP1 PUSH1 0xA0 SHL SUB DUP3 MLOAD AND PUSH1 0x20 DUP3 ADD MSTORE PUSH1 0x20 DUP3 ADD MLOAD PUSH1 0x40 DUP3 ADD MSTORE PUSH1 0xFF PUSH1 0x40 DUP4 ADD MLOAD AND PUSH1 0x60 DUP3 ADD MSTORE PUSH1 0x60 DUP3 ADD MLOAD ISZERO ISZERO PUSH1 0x80 DUP3 ADD MSTORE PUSH4 0xFFFFFFFF PUSH1 0x80 DUP4 ADD MLOAD AND PUSH1 0xA0 DUP3 ADD MSTORE PUSH1 0xA0 DUP3 ADD MLOAD PUSH1 0xC0 DUP3 ADD MSTORE PUSH2 0x100 PUSH1 0xE0 PUSH2 0x321A PUSH1 0xC0 DUP6 ADD MLOAD DUP4 DUP4 DUP7 ADD MSTORE PUSH2 0x120 DUP6 ADD SWAP1 PUSH2 0x314E JUMP JUMPDEST PUSH1 0x40 MLOAD SWAP1 PUSH2 0x3CA4 PUSH1 0x40 DUP4 PUSH2 0x3321 JUMP JUMPDEST PUSH1 0x4 DUP3 MSTORE PUSH4 0x189D5CDD PUSH1 0xE2 SHL PUSH1 0x20 DUP4 ADD MSTORE JUMP JUMPDEST PUSH1 0x40 MLOAD SWAP1 PUSH2 0x3CC6 PUSH1 0x40 DUP4 PUSH2 0x3321 JUMP JUMPDEST PUSH1 0x3 DUP3 MSTORE PUSH3 0x3BB4B7 PUSH1 0xE9 SHL PUSH1 0x20 DUP4 ADD MSTORE JUMP INVALID ADDMOD JUMPI TLOAD SLOAD MSIZE BLOBBASEFEE PUSH29 0x9BCA9C3B4F3C0C0140D23249091D17179EF1D9B734AF81F736A2646970 PUSH7 0x7358221220171B 0x2E 0xD2 NOT 0xB6 PUSH29 0x8431EDF6090C6B6B7F3A9AB98EC564BE3C8AA5F828E86ED9BE64736F6C PUSH4 0x4300081C STOP CALLER "},"methodIdentifiers":{"MAX_LEVEL()":"a49062d4","MIN_CASHOUT_LEVEL()":"26c1f13e","MIN_DEPOSIT()":"e1e158a5","MULTIPLIER_PRECISION()":"b309483a","ODDS_PRECISION()":"6bc98ba3","_entropyCallback(uint64,address,bytes32)":"52a5f1f8","canPlayerCashOut(address)":"3cddb89a","canPlayerClimb(address)":"1d334884","cashOut()":"793cd71e","climb()":"a5432fee","completedGames(uint256)":"4d30372d","depositFunds()":"e2c41dbc","getAllLevelInfo()":"5de70476","getAllMultipliers()":"efedf50b","getAllOdds()":"eeebba29","getAllPointMultipliers()":"d076d5a0","getClimbOdds(address)":"c3e71670","getCompletedGame(uint256)":"d82c4cc3","getContractBalance()":"6f9fb98a","getLevelInfo(uint8)":"6e37da1b","getMultiplier(uint8)":"0b072b8d","getOdds(uint8)":"2f912e2e","getPlayerGame(address)":"ce00348f","getPlayerGameCount(address)":"f25764b5","getPlayerGameHistory(address)":"4e1523dc","getPlayerGameHistoryPaginated(address,uint256,uint256)":"2a39298e","getPlayerStats(address)":"4fd66eae","getPointMultiplier(uint8)":"ba24d2e3","getPotentialPayout(address,uint8,bool)":"39ab2404","getSuccessThreshold(uint8)":"4c629da4","isClimbSuccessful(uint256,uint8)":"e4ab043d","isPointsPayout(uint256)":"24448c63","maxDeposit()":"6083e59a","multiplier(uint256)":"05e30f51","odds(uint256)":"46156ea0","owner()":"8da5cb5b","playerGameHistory(address,uint256)":"93128735","playerGames(address)":"40056505","pointMultiplier(uint256)":"2c5f9947","pointsAreWithdrawable()":"dd813788","pointsContract()":"2b4f8a1f","renounceOwnership()":"715018a6","setMaxDeposit(uint256)":"bb371fdd","setPointsContract(address)":"95754abb","setPointsWithdrawable(bool)":"6805267e","startGame()":"d65ab5f2","totalGamesPlayed()":"5c492129","transferOwnership(address)":"f2fde38b","withdraw(uint256)":"2e1a7d4d"}}}}}