{"contracts/GameMaster.sol":{"GameMaster":{"abi":[{"inputs":[],"stateMutability":"nonpayable","type":"constructor"},{"inputs":[{"internalType":"address","name":"owner","type":"address"}],"name":"OwnableInvalidOwner","type":"error"},{"inputs":[{"internalType":"address","name":"account","type":"address"}],"name":"OwnableUnauthorizedAccount","type":"error"},{"anonymous":false,"inputs":[{"indexed":false,"internalType":"string","name":"gameName","type":"string"},{"indexed":false,"internalType":"address","name":"gameAddress","type":"address"}],"name":"GameRegistered","type":"event"},{"anonymous":false,"inputs":[],"name":"GameReset","type":"event"},{"anonymous":false,"inputs":[{"indexed":false,"internalType":"string","name":"gameName","type":"string"},{"indexed":false,"internalType":"address","name":"gameAddress","type":"address"},{"indexed":false,"internalType":"uint256","name":"gameId","type":"uint256"}],"name":"GameStarted","type":"event"},{"anonymous":false,"inputs":[{"indexed":true,"internalType":"address","name":"previousOwner","type":"address"},{"indexed":true,"internalType":"address","name":"newOwner","type":"address"}],"name":"OwnershipTransferred","type":"event"},{"anonymous":false,"inputs":[{"indexed":true,"internalType":"address","name":"player","type":"address"},{"indexed":false,"internalType":"uint256","name":"playerNumber","type":"uint256"}],"name":"PlayerEliminated","type":"event"},{"anonymous":false,"inputs":[{"indexed":true,"internalType":"address","name":"player","type":"address"},{"indexed":false,"internalType":"uint256","name":"number","type":"uint256"}],"name":"PlayerNumberAssigned","type":"event"},{"anonymous":false,"inputs":[{"indexed":true,"internalType":"address","name":"player","type":"address"},{"indexed":false,"internalType":"uint256","name":"amount","type":"uint256"}],"name":"PlayerRefunded","type":"event"},{"anonymous":false,"inputs":[{"indexed":true,"internalType":"address","name":"player","type":"address"},{"indexed":false,"internalType":"uint256","name":"playerNumber","type":"uint256"}],"name":"PlayerRegistered","type":"event"},{"anonymous":false,"inputs":[{"indexed":false,"internalType":"address[]","name":"players","type":"address[]"}],"name":"PlayersRegistered","type":"event"},{"anonymous":false,"inputs":[{"indexed":true,"internalType":"address","name":"player","type":"address"},{"indexed":false,"internalType":"uint256","name":"amount","type":"uint256"}],"name":"RefundFailed","type":"event"},{"anonymous":false,"inputs":[],"name":"RegistrationClosed","type":"event"},{"anonymous":false,"inputs":[{"indexed":false,"internalType":"uint256","name":"newFee","type":"uint256"}],"name":"RegistrationFeeChanged","type":"event"},{"inputs":[{"internalType":"uint256","name":"","type":"uint256"}],"name":"activePlayers","outputs":[{"internalType":"address","name":"","type":"address"}],"stateMutability":"view","type":"function"},{"inputs":[],"name":"closeRegistration","outputs":[],"stateMutability":"nonpayable","type":"function"},{"inputs":[{"internalType":"uint256","name":"","type":"uint256"}],"name":"eliminatedPlayers","outputs":[{"internalType":"address","name":"","type":"address"}],"stateMutability":"view","type":"function"},{"inputs":[{"internalType":"string","name":"gameName","type":"string"}],"name":"endExpiredGames","outputs":[],"stateMutability":"nonpayable","type":"function"},{"inputs":[{"internalType":"string","name":"gameName","type":"string"}],"name":"endGames","outputs":[{"internalType":"address[]","name":"","type":"address[]"}],"stateMutability":"nonpayable","type":"function"},{"inputs":[{"internalType":"address","name":"","type":"address"}],"name":"finalPlacements","outputs":[{"internalType":"uint256","name":"","type":"uint256"}],"stateMutability":"view","type":"function"},{"inputs":[{"internalType":"string","name":"","type":"string"}],"name":"gameAddresses","outputs":[{"internalType":"address","name":"","type":"address"}],"stateMutability":"view","type":"function"},{"inputs":[],"name":"getActivePlayerCount","outputs":[{"internalType":"uint256","name":"","type":"uint256"}],"stateMutability":"view","type":"function"},{"inputs":[],"name":"getActivePlayers","outputs":[{"internalType":"address[]","name":"","type":"address[]"}],"stateMutability":"view","type":"function"},{"inputs":[],"name":"getActivePlayersAndNumbers","outputs":[{"internalType":"address[]","name":"players","type":"address[]"},{"internalType":"uint256[]","name":"numbers","type":"uint256[]"}],"stateMutability":"view","type":"function"},{"inputs":[],"name":"getEliminatedPlayerCount","outputs":[{"internalType":"uint256","name":"","type":"uint256"}],"stateMutability":"view","type":"function"},{"inputs":[],"name":"getEliminatedPlayers","outputs":[{"internalType":"address[]","name":"","type":"address[]"}],"stateMutability":"view","type":"function"},{"inputs":[],"name":"getGames","outputs":[{"internalType":"string[]","name":"gameTypes","type":"string[]"},{"components":[{"internalType":"uint256","name":"gameId","type":"uint256"},{"internalType":"enum GameState","name":"state","type":"uint8"},{"internalType":"uint256","name":"currentRound","type":"uint256"},{"internalType":"uint256","name":"activePlayerCount","type":"uint256"}],"internalType":"struct GameInstanceInfo[][]","name":"gameInstances","type":"tuple[][]"}],"stateMutability":"view","type":"function"},{"inputs":[],"name":"getPlayerCount","outputs":[{"internalType":"uint256","name":"","type":"uint256"}],"stateMutability":"view","type":"function"},{"inputs":[{"internalType":"address","name":"player","type":"address"}],"name":"getPlayerFinalPlacement","outputs":[{"internalType":"uint256","name":"","type":"uint256"}],"stateMutability":"view","type":"function"},{"inputs":[{"internalType":"address","name":"player","type":"address"}],"name":"getPlayerInfo","outputs":[{"internalType":"string","name":"gameName","type":"string"},{"internalType":"uint256","name":"gameId","type":"uint256"},{"internalType":"bool","name":"isActive","type":"bool"},{"internalType":"enum GameState","name":"gameState","type":"uint8"},{"internalType":"uint256","name":"playerNumber","type":"uint256"}],"stateMutability":"view","type":"function"},{"inputs":[{"internalType":"address","name":"player","type":"address"}],"name":"getPlayerNumber","outputs":[{"internalType":"uint256","name":"","type":"uint256"}],"stateMutability":"view","type":"function"},{"inputs":[],"name":"getRegisteredGames","outputs":[{"internalType":"string[]","name":"","type":"string[]"}],"stateMutability":"view","type":"function"},{"inputs":[],"name":"getRegisteredPlayers","outputs":[{"internalType":"address[]","name":"","type":"address[]"}],"stateMutability":"view","type":"function"},{"inputs":[{"internalType":"string","name":"gameName","type":"string"}],"name":"initializeGame","outputs":[{"internalType":"uint256","name":"","type":"uint256"}],"stateMutability":"nonpayable","type":"function"},{"inputs":[{"internalType":"address","name":"","type":"address"}],"name":"isActivePlayer","outputs":[{"internalType":"bool","name":"","type":"bool"}],"stateMutability":"view","type":"function"},{"inputs":[{"internalType":"string","name":"","type":"string"}],"name":"isGameRegistered","outputs":[{"internalType":"bool","name":"","type":"bool"}],"stateMutability":"view","type":"function"},{"inputs":[{"internalType":"address","name":"","type":"address"}],"name":"isRegistered","outputs":[{"internalType":"bool","name":"","type":"bool"}],"stateMutability":"view","type":"function"},{"inputs":[],"name":"maxPlayers","outputs":[{"internalType":"uint256","name":"","type":"uint256"}],"stateMutability":"view","type":"function"},{"inputs":[],"name":"owner","outputs":[{"internalType":"address","name":"","type":"address"}],"stateMutability":"view","type":"function"},{"inputs":[{"internalType":"address","name":"player","type":"address"}],"name":"playerEliminated","outputs":[],"stateMutability":"nonpayable","type":"function"},{"inputs":[{"internalType":"address","name":"","type":"address"}],"name":"playerNumbers","outputs":[{"internalType":"uint256","name":"","type":"uint256"}],"stateMutability":"view","type":"function"},{"inputs":[],"name":"pointsContract","outputs":[{"internalType":"contract Points","name":"","type":"address"}],"stateMutability":"view","type":"function"},{"inputs":[],"name":"register","outputs":[],"stateMutability":"payable","type":"function"},{"inputs":[{"internalType":"string","name":"gameName","type":"string"},{"internalType":"address","name":"gameAddress","type":"address"}],"name":"registerGame","outputs":[],"stateMutability":"nonpayable","type":"function"},{"inputs":[],"name":"registerMe","outputs":[],"stateMutability":"nonpayable","type":"function"},{"inputs":[{"internalType":"address[]","name":"players","type":"address[]"}],"name":"registerPlayersBatch","outputs":[],"stateMutability":"nonpayable","type":"function"},{"inputs":[{"internalType":"string","name":"referralCode","type":"string"}],"name":"registerWithReferral","outputs":[],"stateMutability":"payable","type":"function"},{"inputs":[{"internalType":"uint256","name":"","type":"uint256"}],"name":"registeredGames","outputs":[{"internalType":"string","name":"","type":"string"}],"stateMutability":"view","type":"function"},{"inputs":[{"internalType":"uint256","name":"","type":"uint256"}],"name":"registeredPlayers","outputs":[{"internalType":"address","name":"","type":"address"}],"stateMutability":"view","type":"function"},{"inputs":[],"name":"registrationClosed","outputs":[{"internalType":"bool","name":"","type":"bool"}],"stateMutability":"view","type":"function"},{"inputs":[],"name":"registrationFee","outputs":[{"internalType":"uint256","name":"","type":"uint256"}],"stateMutability":"view","type":"function"},{"inputs":[],"name":"renounceOwnership","outputs":[],"stateMutability":"nonpayable","type":"function"},{"inputs":[],"name":"resetGame","outputs":[],"stateMutability":"nonpayable","type":"function"},{"inputs":[{"internalType":"uint256","name":"_maxPlayers","type":"uint256"}],"name":"setMaxPlayers","outputs":[],"stateMutability":"nonpayable","type":"function"},{"inputs":[{"internalType":"address payable","name":"_pointsContract","type":"address"}],"name":"setPointsContract","outputs":[],"stateMutability":"nonpayable","type":"function"},{"inputs":[{"internalType":"uint256","name":"_newFee","type":"uint256"}],"name":"setRegistrationFee","outputs":[],"stateMutability":"nonpayable","type":"function"},{"inputs":[{"internalType":"string","name":"gameName","type":"string"}],"name":"startGames","outputs":[{"internalType":"bool","name":"","type":"bool"}],"stateMutability":"nonpayable","type":"function"},{"inputs":[],"name":"toggleRegistration","outputs":[],"stateMutability":"nonpayable","type":"function"},{"inputs":[{"internalType":"address","name":"newOwner","type":"address"}],"name":"transferOwnership","outputs":[],"stateMutability":"nonpayable","type":"function"},{"inputs":[],"name":"withdraw","outputs":[{"internalType":"bool","name":"","type":"bool"}],"stateMutability":"nonpayable","type":"function"}],"evm":{"bytecode":{"linkReferences":{},"object":"60808060405234608757331560715760008054336001600160a01b0319821681178355916001600160a01b03909116907f8be0079c531659141344cd1fd0a4f28419497f9722a3daafe3b4186f6b6457e09080a36103e860015567a688906bd8b00000600655612db6908161008d8239f35b631e4fbdf760e01b600052600060045260246000fd5b600080fdfe6080604052600436101561001257600080fd5b6000803560e01c80631247958e1461216b57806314c44e091461214d5780631a8e2514146120cf5780631aa3a008146120065780631bc8c8a014611ea8578063288dee3b14611dc75780632b4f8a1f14611d9e5780632e7ea48a14611d6e57806339e160f114611b995780633c4f5a6614611b6e5780633ccfd60b14611aa05780634aefbbe71461177d5780634c2412a21461175f5780634e347f2a1461174157806354a7d9311461170257806355e226c7146116d5578063593284011461167557806364328b9c146115e35780636a6b27221461159c5780636e24b939146114fe57806371259638146114af578063715018a6146114555780637dc673bc1461140857806389a5b229146113dd5780638ba90d801461120c5780638da5cb5b146111e557806395754abb146111505780639a198d61146110a55780639e3c5a721461103e5780639f9a093c1461101b578063ada4a40114610fcc578063b55f108f14610f88578063b6e79c5914610ecf578063bb47221914610c44578063c04c594714610962578063c07dda4a14610929578063c2e522061461090b578063c320c72714610871578063c3c5a54714610832578063d03b547e146107b1578063d23d08a714610756578063d4e103d514610657578063e03a02881461061e578063f2fde38b14610598578063fbdb3c74146102375763fea55dad1461021757600080fd5b346102345780600319360112610234576020600a54604051908152f35b80fd5b50346102345760203660031901126102345761025161248f565b6001600160a01b038116808352600460205260408320549091906102779060ff16612d13565b818352600860205260ff60408420541615610553578283600e54905b8181106104a8575b50501561044f57818352600860205260408320805460ff19169055600a54600160401b81101561043b57906102db8260016102ff9401600a55600a61261d565b81546001600160a01b0393841660039290921b91821b9390911b1916919091179055565b61030e600354600a54906128d0565b6001810180911161042757818352600b6020526040832055815b60075480821015610420578261033d836125b6565b905460039190911b1c6001600160a01b03161461035d5750600101610328565b600019810190811161040c57906102db610379610391936125b6565b905460039190911b1c6001600160a01b0316916125b6565b60075480156103f857600019016103a7816125b6565b81549060018060a01b039060031b1b191690556007555b80825260096020527f6d23a3ab6e6c4048b5879c5716bb756108e4e5d37158a83ea36761c83627da5760206040842054604051908152a280f35b634e487b7160e01b83526031600452602483fd5b634e487b7160e01b84526011600452602484fd5b50506103be565b634e487b7160e01b83526011600452602483fd5b634e487b7160e01b84526041600452602484fd5b60405162461bcd60e51b815260206004820152602b60248201527f4f6e6c7920726567697374657265642067616d65732063616e20656c696d696e60448201526a61746520706c617965727360a81b6064820152608490fd5b6104b1816125e7565b50604051815488926104c282612635565b916001811690811561053c5750600114610508575b5050600c825260208160018060a01b039303019020541633146104fc57600101610293565b5050506001388061029b565b9091925088526020882088905b82821061052857505081019038806104d7565b600181602092548487015201910190610515565b60ff191684525050801515028101915038806104d7565b60405162461bcd60e51b815260206004820152601960248201527f506c6179657220616c726561647920656c696d696e61746564000000000000006044820152606490fd5b5034610234576020366003190112610234576105b261248f565b6105ba612d57565b6001600160a01b0316801561060a5781546001600160a01b03198116821783556001600160a01b03167f8be0079c531659141344cd1fd0a4f28419497f9722a3daafe3b4186f6b6457e08380a380f35b631e4fbdf760e01b82526004829052602482fd5b5034610234576020366003190112610234576020906040906001600160a01b0361064661248f565b168152600983522054604051908152f35b503461023457602036600319011261023457806004356001600160401b0381116107535761068b60209136906004016123bc565b610693612d57565b6106b360ff604051838582378581858101600d815203019020541661296f565b80604051928337600c908201908152819003820190205460405163e81de9f560e01b815292839160049183916001600160a01b03165af1908115610748578291610705575b6020826040519015158152f35b90506020813d602011610740575b81610720602093836124a5565b8101031261073c5751801515810361073c5760209150386106f8565b5080fd5b3d9150610713565b6040513d84823e3d90fd5b50fd5b503461023457806003193601126102345761076f612d57565b60055460ff8082161516809160ff19161760055561078a5780f35b7f2fc209f3df2fb10c5fcb1620d3e5f067b9ef99813ca8fa6b24de0418bdac54208180a180f35b50346102345760203660031901126102345760043590600a5482101561023457600a5482101561081e57600a81527fc65a7bb8d6351c1cf70c95a316cc6a92839c986682d98bc35f958f4883f9d2a89091015460405160039290921b1c6001600160a01b03168152602090f35b634e487b7160e01b81526032600452602490fd5b50346102345760203660031901126102345760209060ff906040906001600160a01b0361085d61248f565b168152600484522054166040519015158152f35b50346102345760203660031901126102345760043561088e612d57565b80156108c6576020817ffd29c2cd5dc77cf2bad34e3b80ec2592a7c16d32869ccaee99f95af250db954a92600655604051908152a180f35b60405162461bcd60e51b815260206004820152601a60248201527f466565206d7573742062652067726561746572207468616e20300000000000006044820152606490fd5b50346102345780600319360112610234576020600354604051908152f35b5034610234576020366003190112610234576020906040906001600160a01b0361095161248f565b168152600b83522054604051908152f35b5034610234578060031936011261023457600e5461097e6129c8565b90610988816129b1565b9061099660405192836124a5565b808252601f196109a5826129b1565b01845b818110610c31575050835b818110610a7e5750506109d160405192604084526040840190612436565b8281036020840152815190818152602081016020808460051b84010194019580925b848410610a005786860387f35b9091929394601f198282030184528751906020808351928381520192019084905b808210610a4057505050602097880197909594600101930191906109f3565b909192602060806001926060875180518352610a62858201518685019061255f565b6040810151604084015201516060820152019401920190610a21565b610aab6020610a98610a92849896986125e7565b5061266f565b81604051938285809451938492016123ee565b600c90820190815203019020546001600160a01b0316908382610ad7575b5060019150019391936109b3565b60405163c04c594760e01b815292839060049082905afa8015610c26578490610b1b575b60019250610b098288612a6f565b52610b148187612a6f565b5083610ac9565b50903d8085833e610b2c81836124a5565b810190602081830312610c1e578051906001600160401b038211610c22570181601f82011215610c1e57805190610b62826129b1565b92610b7060405194856124a5565b82845260208085019360071b83010191818311610c1a57602001925b828410610ba0575050505090600191610afb565b608084830312610c1a57604051608081018181106001600160401b03821117610c06576040528451815260208501516005811015610c025791816080936020809401526040870151604082015260608701516060820152815201930192610b8c565b8980fd5b634e487b7160e01b8a52604160045260248afd5b8780fd5b8480fd5b8580fd5b6040513d86823e3d90fd5b60606020828601810191909152016109a8565b5034610234578060031936011261023457610c5d612d57565b60ff60055416158015610ec4575b15610e8857805b600354811015610d225780610c88600192612602565b838060a01b0391549060031b1c1683808080600654855af1610ca86128f3565b50610cef57807faf73b0b217208b61be286bbc37095bce7eb8b9ccf617244c2f0f154e8e04e3ff6020600654604051908152a25b8352600b60205282604081205501610c72565b807f48d31f1c958cd44f1f83a52ae2dfaf61e88a1b82c07a6d5711a4abef60b6531e6020600654604051908152a2610cdc565b506003548160035580610e50575b506007548160075580610e18575b50600a5481600a5580610de0575b5060ff1960055416600555805b600354811015610db85780610d6f600192612602565b838060a01b0391549060031b1c1680845260046020526040842060ff19815416905580845260086020526040842060ff1981541690558352600960205282604081205501610d59565b507fc6976b6410888b44c765590c8368eb4a60e0431d4ad683c8a53ea85a8479f22e8180a180f35b600a8252610e12907fc65a7bb8d6351c1cf70c95a316cc6a92839c986682d98bc35f958f4883f9d2a890810190612aa4565b38610d4c565b60078252610e4a907fa66cc928b5edb82af9bd49922954155ab7b0942694bea4ce44661d9a8736c68890810190612aa4565b38610d3e565b60038252610e82907fc2575a0e9e593c00f959f8c92f12db2869c3395a3b0502d05e2516446f71f85b90810190612aa4565b38610d30565b60405162461bcd60e51b8152602060048201526014602482015273139bc81c1b185e595c9cc81d1bc81c99599d5b9960621b6044820152606490fd5b506003541515610c6b565b503461023457602036600319011261023457806004356001600160401b03811161075357610f019036906004016123bc565b610f09612d57565b610f2a60ff60405183858237602081858101600d815203019020541661296f565b80604051928337600c9082019081528190036020019020546001600160a01b0316803b1561075357818091600460405180948193636879d10f60e11b83525af1801561074857610f775750f35b81610f81916124a5565b6102345780f35b50346102345760203660031901126102345760043590600754821015610234576020610fb3836125b6565b905460405160039290921b1c6001600160a01b03168152f35b5034610234576020366003190112610234576020906040906001600160a01b03610ff461248f565b168082526004845261100b60ff8484205416612d13565b8152600983522054604051908152f35b5034610234578060031936011261023457602060ff600554166040519015158152f35b503461023457602036600319011261023457600435600e5481101561073c57611066906125e7565b9190916110915761108d6110798361266f565b604051918291602083526020830190612411565b0390f35b634e487b7160e01b81526004819052602490fd5b5034610234578060031936011261023457808060405160208101906307983f4560e21b825260976024820152602481526110e06044826124a5565b51908273dc2b0d2dd2b7759d97d50db4eabdc369731108305af16111026128f3565b501561110b5780f35b60405162461bcd60e51b815260206004820152601860248201527f4665654d20726567697374726174696f6e206661696c656400000000000000006044820152606490fd5b5034610234576020366003190112610234576004356001600160a01b0381169081900361073c5761117f612d57565b80156111a0576bffffffffffffffffffffffff60a01b600254161760025580f35b60405162461bcd60e51b815260206004820152601f60248201527f496e76616c696420506f696e747320636f6e74726163742061646472657373006044820152606490fd5b5034610234578060031936011261023457546040516001600160a01b039091168152602090f35b50602036600319011261023457806004356001600160401b038111610753576112399036906004016123bc565b9061124960ff6005541615612713565b60065490611259823410156127e7565b338452600460205261127260ff60408620541615612843565b6002546001600160a01b03169161128a831515612884565b823b15610c1e576112c39385936006604051809781968295632e8d97b760e01b8452336004850152604060248501526044840191612a83565b039304905af18015610748576113c8575b505060035433825260096020528060408320556112f033612758565b338252600460205260408220600160ff198254161790556113103361277d565b338252600860205260408220600160ff198254161790556040519081527f324cb0062138d65997c86cd3012489ceb351d602f2f55c7408306e8040c79f3f60203392a26003546001541115611392575b61136c600654346128d0565b81816113755780f35b80808061138d94335af16113876128f3565b50612923565b388180f35b600160ff1960055416176005557f2fc209f3df2fb10c5fcb1620d3e5f067b9ef99813ca8fa6b24de0418bdac54208180a1611360565b816113d2916124a5565b6102345780386112d4565b50346102345760203660031901126102345760043590600354821015610234576020610fb383612602565b5034610234578060031936011261023457611421612d57565b600160ff1960055416176005557f2fc209f3df2fb10c5fcb1620d3e5f067b9ef99813ca8fa6b24de0418bdac54208180a180f35b503461023457806003193601126102345761146e612d57565b80546001600160a01b03198116825581906001600160a01b03167f8be0079c531659141344cd1fd0a4f28419497f9722a3daafe3b4186f6b6457e08280a380f35b5034610234576020366003190112610234576020906040906001600160a01b036114d761248f565b16808252600484526114ee60ff8484205416612d13565b8152600b83522054604051908152f35b50346102345780600319360112610234576007549061151c82612a3d565b91604051916115358361152e816127a2565b03846124a5565b805b8281106115685761155a8461108d8760405193849360408552604085019061237f565b908382036020850152612582565b6001906001600160a01b0361157d8287612a6f565b51168352600960205260408320546115958288612a6f565b5201611537565b50346102345760206115ad366124f7565b816115c160405192838151938492016123ee565b600c90820190815281900382019020546040516001600160a01b039091168152f35b5034610234578060031936011261023457604051600a8054808352908352909160208301917fc65a7bb8d6351c1cf70c95a316cc6a92839c986682d98bc35f958f4883f9d2a8915b8181106116565761108d85611642818703826124a5565b60405191829160208352602083019061237f565b82546001600160a01b031684526020909301926001928301920161162b565b5034610234576020366003190112610234576116b56116cc61169d61169861248f565b612abb565b9293949160405196879660a0885260a0880190612411565b94602087015215156040860152606085019061255f565b60808301520390f35b503461023457602060ff6116ec82610a98366124f7565b8101600d81520301902054166040519015158152f35b50346102345760203660031901126102345760209060ff906040906001600160a01b0361172d61248f565b168152600884522054166040519015158152f35b50346102345780600319360112610234576020600754604051908152f35b50346102345780600319360112610234576020600154604051908152f35b5034610234576040366003190112610234576004356001600160401b03811161073c576117ae9036906004016123bc565b6024356001600160a01b03811693929190849003611a9c576117ce612d57565b8315611a605760ff60405182848237602081848101600d8152030190205416611a1b5780156119d65760405181838237602081838101600c815203019020846bffffffffffffffffffffffff60a01b82541617905560405181838237602081838101600d815203019020600160ff19825416179055600e54600160401b81101561043b578060016118629201600e556125e7565b9490946119c2576001600160401b03821161043b576118818554612635565b601f8111611987575b508394601f8311600114611905578285967ff7757a7272e50875150e6020afe9040c7c2485f28d0513dad0f5170af4f20d4396916118fa575b508360011b906000198560031b1c19161790555b6118ee604051938493604085526040850191612a83565b9060208301520390a180f35b9050840135386118c3565b80855260208520601f19841696865b88811061196f5750847ff7757a7272e50875150e6020afe9040c7c2485f28d0513dad0f5170af4f20d43979810611955575b5050600183811b0190556118d7565b850135600019600386901b60f8161c191690553880611946565b9091602060018192858a013581550193019101611914565b6119b29086865260208620601f850160051c810191602086106119b8575b601f0160051c0190612aa4565b3861188a565b90915081906119a5565b634e487b7160e01b84526004849052602484fd5b60405162461bcd60e51b815260206004820152601960248201527f47616d65206e616d652063616e6e6f7420626520656d707479000000000000006044820152606490fd5b60405162461bcd60e51b815260206004820152601760248201527f47616d6520616c726561647920726567697374657265640000000000000000006044820152606490fd5b60405162461bcd60e51b8152602060048201526014602482015273496e76616c69642067616d65206164647265737360601b6044820152606490fd5b8280fd5b5034610234578060031936011261023457611ab9612d57565b478015611b32578154829182918291906001600160a01b03165af1611adc6128f3565b5015611aed57602060405160018152f35b60405162461bcd60e51b815260206004820152601c60248201527f455448207472616e7366657220746f206f776e6572206661696c6564000000006044820152606490fd5b60405162461bcd60e51b81526020600482015260146024820152734e6f2066756e647320746f20776974686472617760601b6044820152606490fd5b503461023457806003193601126102345761108d60405161164281611b92816127a2565b03826124a5565b5034610234576020366003190112610234576004356001600160401b03811161073c57611bca9036906004016123bc565b611bd2612d57565b611bf360ff60405183858237602081858101600d815203019020541661296f565b6007548015611d355760405182848237600c8184019081528190036020019020546001600160a01b031690611c2781612a3d565b90855b818110611cfe57505084823b1561023457611c759160405180938192637fbbe46f60e01b835260406004840152611c63604484016127a2565b83810360031901602485015290612582565b038183865af18015611cf357611cda575b6020857f556ae6f2a401959ea3e8f5c4035f8063eff09c11d1565ab4f369920dd9da3b36868686611cc4604051938493606085526060850191612a83565b90868301528460408301520390a1604051908152f35b611ce58580926124a5565b611cef5738611c86565b8380fd5b6040513d87823e3d90fd5b80611d0a6001926125b6565b838060a01b0391549060031b1c16885260096020526040882054611d2e8286612a6f565b5201611c2a565b60405162461bcd60e51b81526020600482015260116024820152704e6f2061637469766520706c617965727360781b6044820152606490fd5b503461023457806003193601126102345761108d611d8a6129c8565b604051918291602083526020830190612436565b50346102345780600319360112610234576002546040516001600160a01b039091168152602090f35b503461023457602036600319011261023457600435611de4612d57565b8015611e58576003548110611df95760015580f35b60405162461bcd60e51b815260206004820152603160248201527f43616e6e6f7420736574206d617820706c61796572732062656c6f77206375726044820152701c995b9d081c1b185e595c8818dbdd5b9d607a1b6064820152608490fd5b60405162461bcd60e51b815260206004820152602260248201527f4d617820706c6179657273206d7573742062652067726561746572207468616e604482015261020360f41b6064820152608490fd5b503461023457602036600319011261023457806004356001600160401b03811161075357611edb829136906004016123bc565b611ee3612d57565b611f0460ff60405183858237602081858101600d815203019020541661296f565b80604051928337600c908201908152819003602001902054604051636cbc2ded60e01b815292839160049183916001600160a01b03165af1908115610748578291611f60575b6040516020808252819061108d9082018561237f565b90503d8083833e611f7181836124a5565b810190602081830312611a9c578051906001600160401b038211611cef57019080601f83011215611a9c57815192611fa8846129b1565b92611fb660405194856124a5565b84845260208085019560051b82010192831161073c57602001935b828510611fe65750505061108d915038611f4a565b84516001600160a01b0381168103611a9c57815260209485019401611fd1565b50806003193601126102345761202160ff6005541615612713565b600654612030813410156127e7565b338252600460205261204960ff60408420541615612843565b6002546001600160a01b0316908290612063831515612884565b823b1561073c57600660248392604051958693849263aa67c91960e01b845233600485015204905af180156120c2576120b257505060035433825260096020528060408320556112f033612758565b6120bb916124a5565b38816112d4565b50604051903d90823e3d90fd5b503461023457806003193601126102345760405160038054808352908352909160208301917fc2575a0e9e593c00f959f8c92f12db2869c3395a3b0502d05e2516446f71f85b915b81811061212e5761108d85611642818703826124a5565b82546001600160a01b0316845260209093019260019283019201612117565b50346102345780600319360112610234576020600654604051908152f35b5034610234576020366003190112610234576004356001600160401b03811161073c573660238201121561073c578060040135906001600160401b038211611a9c573660248360051b83010111611a9c576121c4612d57565b6121d360ff6005541615612713565b60035482810180911161040c576001541061233a57825b8281101561232a57600581901b820160240135906001600160a01b038216808303610c225780156122ec57808652600460205260ff6040872054166122a7577f324cb0062138d65997c86cd3012489ceb351d602f2f55c7408306e8040c79f3f602060019461228660035491858b52600984528260408c205561226c81612758565b858b526004845260408b20805460ff19168917905561277d565b838952600882526040808a20805460ff19168817905551908152a2016121ea565b60405162461bcd60e51b815260206004820152601960248201527f506c6179657220616c72656164792072656769737465726564000000000000006044820152606490fd5b60405162461bcd60e51b8152602060048201526016602482015275496e76616c696420706c61796572206164647265737360501b6044820152606490fd5b8360035460015411156114215780f35b60405162461bcd60e51b815260206004820152601c60248201527f576f756c6420657863656564206d6178696d756d20706c6179657273000000006044820152606490fd5b906020808351928381520192019060005b81811061239d5750505090565b82516001600160a01b0316845260209384019390920191600101612390565b9181601f840112156123e9578235916001600160401b0383116123e957602083818601950101116123e957565b600080fd5b60005b8381106124015750506000910152565b81810151838201526020016123f1565b9060209161242a815180928185528580860191016123ee565b601f01601f1916010190565b9080602083519182815201916020808360051b8301019401926000915b83831061246257505050505090565b9091929394602080612480600193601f198682030187528951612411565b97019301930191939290612453565b600435906001600160a01b03821682036123e957565b90601f801991011681019081106001600160401b038211176124c657604052565b634e487b7160e01b600052604160045260246000fd5b6001600160401b0381116124c657601f01601f191660200190565b60206003198201126123e9576004356001600160401b0381116123e957816023820112156123e95780600401359061252e826124dc565b9261253c60405194856124a5565b828452602483830101116123e95781600092602460209301838601378301015290565b90600582101561256c5752565b634e487b7160e01b600052602160045260246000fd5b906020808351928381520192019060005b8181106125a05750505090565b8251845260209384019390920191600101612593565b6007548110156125d157600760005260206000200190600090565b634e487b7160e01b600052603260045260246000fd5b600e548110156125d157600e60005260206000200190600090565b6003548110156125d157600360005260206000200190600090565b80548210156125d15760005260206000200190600090565b90600182811c92168015612665575b602083101461264f57565b634e487b7160e01b600052602260045260246000fd5b91607f1691612644565b906040519182600082549261268384612635565b80845293600181169081156126f157506001146126aa575b506126a8925003836124a5565b565b90506000929192526020600020906000915b8183106126d55750509060206126a8928201013861269b565b60209193508060019154838589010152019101909184926126bc565b9050602092506126a894915060ff191682840152151560051b8201013861269b565b1561271a57565b60405162461bcd60e51b8152602060048201526016602482015275149959da5cdd1c985d1a5bdb881a5cc818db1bdcd95960521b6044820152606490fd5b60035490600160401b8210156124c6576102db8260016126a89401600355600361261d565b60075490600160401b8210156124c6576102db8260016126a89401600755600761261d565b6020600754918281520190600760005260206000209060005b8181106127c85750505090565b82546001600160a01b03168452602090930192600192830192016127bb565b156127ee57565b60405162461bcd60e51b815260206004820152602760248201527f4d7573742073656e64206174206c656173742074686520726567697374726174604482015266696f6e2066656560c81b6064820152608490fd5b1561284a57565b60405162461bcd60e51b8152602060048201526012602482015271105b1c9958591e481c9959da5cdd195c995960721b6044820152606490fd5b1561288b57565b60405162461bcd60e51b815260206004820152601760248201527f506f696e747320636f6e7472616374206e6f74207365740000000000000000006044820152606490fd5b919082039182116128dd57565b634e487b7160e01b600052601160045260246000fd5b3d1561291e573d90612904826124dc565b9161291260405193846124a5565b82523d6000602084013e565b606090565b1561292a57565b60405162461bcd60e51b815260206004820152601f60248201527f4661696c656420746f2072657475726e20657863657373207061796d656e74006044820152606490fd5b1561297657565b60405162461bcd60e51b815260206004820152601360248201527211d85b59481b9bdd081c9959da5cdd195c9959606a1b6044820152606490fd5b6001600160401b0381116124c65760051b60200190565b600e54906129d5826129b1565b916129e360405193846124a5565b808352600e60009081527fbb7b4a454dc3493923482f07822329ed19e8244eff582cc204f8554c3620c3fd602085015b838310612a205750505050565b600160208192612a2f8561266f565b815201920192019190612a13565b90612a47826129b1565b612a5460405191826124a5565b8281528092612a65601f19916129b1565b0190602036910137565b80518210156125d15760209160051b010190565b908060209392818452848401376000828201840152601f01601f1916010190565b818110612aaf575050565b60008155600101612aa4565b6001600160a01b031660008181526004602052604090205490919060ff1615612cf05781600052600860205260ff6040600020541690826000526009602052604060002054602091604051612b1084826124a5565b6000808252600e54909687959086805b848110612b335750505050509493929190565b612b3f610a92826125e7565b906040518251612b5281838987016123ee565b600c90820190815281900386019020546001600160a01b03169182612b7d575b506001915001612b20565b60405163773b549d60e01b815260048101869052908682602481875afa918215612cb557600092612cc1575b5081612bb6575b50612b72565b60a0602493946040519485809263047e1d5560e41b82528660048301525afa928315612cb557600093612c1c575b506060830151858111612bfb575b50839250612bb0565b939b50935096509a5090949951600581101561256c57976001388080612bf2565b60a0939193813d8211612cad575b81612c3760a093836124a5565b8101031261073c576040519160a083018381106001600160401b03821117612c99576040528151906005821015610234575090608091835288810151898401526040810151604084015260608101516060840152015160808201529138612be4565b634e487b7160e01b82526041600452602482fd5b3d9150612c2a565b6040513d6000823e3d90fd5b90918782813d8311612ce9575b612cd881836124a5565b810103126102345750519038612ba9565b503d612cce565b9050604051612d006020826124a5565b6000815290600090600090600090600090565b15612d1a57565b60405162461bcd60e51b8152602060048201526015602482015274141b185e595c881b9bdd081c9959da5cdd195c9959605a1b6044820152606490fd5b6000546001600160a01b03163303612d6b57565b63118cdaa760e01b6000523360045260246000fdfea2646970667358221220584b34defaa615e2fc6628890132b57311f1d79a25903415e35091f49401802764736f6c634300081c0033","opcodes":"PUSH1 0x80 DUP1 PUSH1 0x40 MSTORE CALLVALUE PUSH1 0x87 JUMPI CALLER ISZERO PUSH1 0x71 JUMPI PUSH1 0x0 DUP1 SLOAD CALLER PUSH1 0x1 PUSH1 0x1 PUSH1 0xA0 SHL SUB NOT DUP3 AND DUP2 OR DUP4 SSTORE SWAP2 PUSH1 0x1 PUSH1 0x1 PUSH1 0xA0 SHL SUB SWAP1 SWAP2 AND SWAP1 PUSH32 0x8BE0079C531659141344CD1FD0A4F28419497F9722A3DAAFE3B4186F6B6457E0 SWAP1 DUP1 LOG3 PUSH2 0x3E8 PUSH1 0x1 SSTORE PUSH8 0xA688906BD8B00000 PUSH1 0x6 SSTORE PUSH2 0x2DB6 SWAP1 DUP2 PUSH2 0x8D DUP3 CODECOPY RETURN JUMPDEST PUSH4 0x1E4FBDF7 PUSH1 0xE0 SHL PUSH1 0x0 MSTORE PUSH1 0x0 PUSH1 0x4 MSTORE PUSH1 0x24 PUSH1 0x0 REVERT JUMPDEST PUSH1 0x0 DUP1 REVERT INVALID PUSH1 0x80 PUSH1 0x40 MSTORE PUSH1 0x4 CALLDATASIZE LT ISZERO PUSH2 0x12 JUMPI PUSH1 0x0 DUP1 REVERT JUMPDEST PUSH1 0x0 DUP1 CALLDATALOAD PUSH1 0xE0 SHR DUP1 PUSH4 0x1247958E EQ PUSH2 0x216B JUMPI DUP1 PUSH4 0x14C44E09 EQ PUSH2 0x214D JUMPI DUP1 PUSH4 0x1A8E2514 EQ PUSH2 0x20CF JUMPI DUP1 PUSH4 0x1AA3A008 EQ PUSH2 0x2006 JUMPI DUP1 PUSH4 0x1BC8C8A0 EQ PUSH2 0x1EA8 JUMPI DUP1 PUSH4 0x288DEE3B EQ PUSH2 0x1DC7 JUMPI DUP1 PUSH4 0x2B4F8A1F EQ PUSH2 0x1D9E JUMPI DUP1 PUSH4 0x2E7EA48A EQ PUSH2 0x1D6E JUMPI DUP1 PUSH4 0x39E160F1 EQ PUSH2 0x1B99 JUMPI DUP1 PUSH4 0x3C4F5A66 EQ PUSH2 0x1B6E JUMPI DUP1 PUSH4 0x3CCFD60B EQ PUSH2 0x1AA0 JUMPI DUP1 PUSH4 0x4AEFBBE7 EQ PUSH2 0x177D JUMPI DUP1 PUSH4 0x4C2412A2 EQ PUSH2 0x175F JUMPI DUP1 PUSH4 0x4E347F2A EQ PUSH2 0x1741 JUMPI DUP1 PUSH4 0x54A7D931 EQ PUSH2 0x1702 JUMPI DUP1 PUSH4 0x55E226C7 EQ PUSH2 0x16D5 JUMPI DUP1 PUSH4 0x59328401 EQ PUSH2 0x1675 JUMPI DUP1 PUSH4 0x64328B9C EQ PUSH2 0x15E3 JUMPI DUP1 PUSH4 0x6A6B2722 EQ PUSH2 0x159C JUMPI DUP1 PUSH4 0x6E24B939 EQ PUSH2 0x14FE JUMPI DUP1 PUSH4 0x71259638 EQ PUSH2 0x14AF JUMPI DUP1 PUSH4 0x715018A6 EQ PUSH2 0x1455 JUMPI DUP1 PUSH4 0x7DC673BC EQ PUSH2 0x1408 JUMPI DUP1 PUSH4 0x89A5B229 EQ PUSH2 0x13DD JUMPI DUP1 PUSH4 0x8BA90D80 EQ PUSH2 0x120C JUMPI DUP1 PUSH4 0x8DA5CB5B EQ PUSH2 0x11E5 JUMPI DUP1 PUSH4 0x95754ABB EQ PUSH2 0x1150 JUMPI DUP1 PUSH4 0x9A198D61 EQ PUSH2 0x10A5 JUMPI DUP1 PUSH4 0x9E3C5A72 EQ PUSH2 0x103E JUMPI DUP1 PUSH4 0x9F9A093C EQ PUSH2 0x101B JUMPI DUP1 PUSH4 0xADA4A401 EQ PUSH2 0xFCC JUMPI DUP1 PUSH4 0xB55F108F EQ PUSH2 0xF88 JUMPI DUP1 PUSH4 0xB6E79C59 EQ PUSH2 0xECF JUMPI DUP1 PUSH4 0xBB472219 EQ PUSH2 0xC44 JUMPI DUP1 PUSH4 0xC04C5947 EQ PUSH2 0x962 JUMPI DUP1 PUSH4 0xC07DDA4A EQ PUSH2 0x929 JUMPI DUP1 PUSH4 0xC2E52206 EQ PUSH2 0x90B JUMPI DUP1 PUSH4 0xC320C727 EQ PUSH2 0x871 JUMPI DUP1 PUSH4 0xC3C5A547 EQ PUSH2 0x832 JUMPI DUP1 PUSH4 0xD03B547E EQ PUSH2 0x7B1 JUMPI DUP1 PUSH4 0xD23D08A7 EQ PUSH2 0x756 JUMPI DUP1 PUSH4 0xD4E103D5 EQ PUSH2 0x657 JUMPI DUP1 PUSH4 0xE03A0288 EQ PUSH2 0x61E JUMPI DUP1 PUSH4 0xF2FDE38B EQ PUSH2 0x598 JUMPI DUP1 PUSH4 0xFBDB3C74 EQ PUSH2 0x237 JUMPI PUSH4 0xFEA55DAD EQ PUSH2 0x217 JUMPI PUSH1 0x0 DUP1 REVERT JUMPDEST CALLVALUE PUSH2 0x234 JUMPI DUP1 PUSH1 0x3 NOT CALLDATASIZE ADD SLT PUSH2 0x234 JUMPI PUSH1 0x20 PUSH1 0xA SLOAD PUSH1 0x40 MLOAD SWAP1 DUP2 MSTORE RETURN JUMPDEST DUP1 REVERT JUMPDEST POP CALLVALUE PUSH2 0x234 JUMPI PUSH1 0x20 CALLDATASIZE PUSH1 0x3 NOT ADD SLT PUSH2 0x234 JUMPI PUSH2 0x251 PUSH2 0x248F JUMP JUMPDEST PUSH1 0x1 PUSH1 0x1 PUSH1 0xA0 SHL SUB DUP2 AND DUP1 DUP4 MSTORE PUSH1 0x4 PUSH1 0x20 MSTORE PUSH1 0x40 DUP4 KECCAK256 SLOAD SWAP1 SWAP2 SWAP1 PUSH2 0x277 SWAP1 PUSH1 0xFF AND PUSH2 0x2D13 JUMP JUMPDEST DUP2 DUP4 MSTORE PUSH1 0x8 PUSH1 0x20 MSTORE PUSH1 0xFF PUSH1 0x40 DUP5 KECCAK256 SLOAD AND ISZERO PUSH2 0x553 JUMPI DUP3 DUP4 PUSH1 0xE SLOAD SWAP1 JUMPDEST DUP2 DUP2 LT PUSH2 0x4A8 JUMPI JUMPDEST POP POP ISZERO PUSH2 0x44F JUMPI DUP2 DUP4 MSTORE PUSH1 0x8 PUSH1 0x20 MSTORE PUSH1 0x40 DUP4 KECCAK256 DUP1 SLOAD PUSH1 0xFF NOT AND SWAP1 SSTORE PUSH1 0xA SLOAD PUSH1 0x1 PUSH1 0x40 SHL DUP2 LT ISZERO PUSH2 0x43B JUMPI SWAP1 PUSH2 0x2DB DUP3 PUSH1 0x1 PUSH2 0x2FF SWAP5 ADD PUSH1 0xA SSTORE PUSH1 0xA PUSH2 0x261D JUMP JUMPDEST DUP2 SLOAD PUSH1 0x1 PUSH1 0x1 PUSH1 0xA0 SHL SUB SWAP4 DUP5 AND PUSH1 0x3 SWAP3 SWAP1 SWAP3 SHL SWAP2 DUP3 SHL SWAP4 SWAP1 SWAP2 SHL NOT AND SWAP2 SWAP1 SWAP2 OR SWAP1 SSTORE JUMP JUMPDEST PUSH2 0x30E PUSH1 0x3 SLOAD PUSH1 0xA SLOAD SWAP1 PUSH2 0x28D0 JUMP JUMPDEST PUSH1 0x1 DUP2 ADD DUP1 SWAP2 GT PUSH2 0x427 JUMPI DUP2 DUP4 MSTORE PUSH1 0xB PUSH1 0x20 MSTORE PUSH1 0x40 DUP4 KECCAK256 SSTORE DUP2 JUMPDEST PUSH1 0x7 SLOAD DUP1 DUP3 LT ISZERO PUSH2 0x420 JUMPI DUP3 PUSH2 0x33D DUP4 PUSH2 0x25B6 JUMP JUMPDEST SWAP1 SLOAD PUSH1 0x3 SWAP2 SWAP1 SWAP2 SHL SHR PUSH1 0x1 PUSH1 0x1 PUSH1 0xA0 SHL SUB AND EQ PUSH2 0x35D JUMPI POP PUSH1 0x1 ADD PUSH2 0x328 JUMP JUMPDEST PUSH1 0x0 NOT DUP2 ADD SWAP1 DUP2 GT PUSH2 0x40C JUMPI SWAP1 PUSH2 0x2DB PUSH2 0x379 PUSH2 0x391 SWAP4 PUSH2 0x25B6 JUMP JUMPDEST SWAP1 SLOAD PUSH1 0x3 SWAP2 SWAP1 SWAP2 SHL SHR PUSH1 0x1 PUSH1 0x1 PUSH1 0xA0 SHL SUB AND SWAP2 PUSH2 0x25B6 JUMP JUMPDEST PUSH1 0x7 SLOAD DUP1 ISZERO PUSH2 0x3F8 JUMPI PUSH1 0x0 NOT ADD PUSH2 0x3A7 DUP2 PUSH2 0x25B6 JUMP JUMPDEST DUP2 SLOAD SWAP1 PUSH1 0x1 DUP1 PUSH1 0xA0 SHL SUB SWAP1 PUSH1 0x3 SHL SHL NOT AND SWAP1 SSTORE PUSH1 0x7 SSTORE JUMPDEST DUP1 DUP3 MSTORE PUSH1 0x9 PUSH1 0x20 MSTORE PUSH32 0x6D23A3AB6E6C4048B5879C5716BB756108E4E5D37158A83EA36761C83627DA57 PUSH1 0x20 PUSH1 0x40 DUP5 KECCAK256 SLOAD PUSH1 0x40 MLOAD SWAP1 DUP2 MSTORE LOG2 DUP1 RETURN JUMPDEST PUSH4 0x4E487B71 PUSH1 0xE0 SHL DUP4 MSTORE PUSH1 0x31 PUSH1 0x4 MSTORE PUSH1 0x24 DUP4 REVERT JUMPDEST PUSH4 0x4E487B71 PUSH1 0xE0 SHL DUP5 MSTORE PUSH1 0x11 PUSH1 0x4 MSTORE PUSH1 0x24 DUP5 REVERT JUMPDEST POP POP PUSH2 0x3BE JUMP JUMPDEST PUSH4 0x4E487B71 PUSH1 0xE0 SHL DUP4 MSTORE PUSH1 0x11 PUSH1 0x4 MSTORE PUSH1 0x24 DUP4 REVERT JUMPDEST PUSH4 0x4E487B71 PUSH1 0xE0 SHL DUP5 MSTORE PUSH1 0x41 PUSH1 0x4 MSTORE PUSH1 0x24 DUP5 REVERT JUMPDEST PUSH1 0x40 MLOAD PUSH3 0x461BCD PUSH1 0xE5 SHL DUP2 MSTORE PUSH1 0x20 PUSH1 0x4 DUP3 ADD MSTORE PUSH1 0x2B PUSH1 0x24 DUP3 ADD MSTORE PUSH32 0x4F6E6C7920726567697374657265642067616D65732063616E20656C696D696E PUSH1 0x44 DUP3 ADD MSTORE PUSH11 0x61746520706C6179657273 PUSH1 0xA8 SHL PUSH1 0x64 DUP3 ADD MSTORE PUSH1 0x84 SWAP1 REVERT JUMPDEST PUSH2 0x4B1 DUP2 PUSH2 0x25E7 JUMP JUMPDEST POP PUSH1 0x40 MLOAD DUP2 SLOAD DUP9 SWAP3 PUSH2 0x4C2 DUP3 PUSH2 0x2635 JUMP JUMPDEST SWAP2 PUSH1 0x1 DUP2 AND SWAP1 DUP2 ISZERO PUSH2 0x53C JUMPI POP PUSH1 0x1 EQ PUSH2 0x508 JUMPI JUMPDEST POP POP PUSH1 0xC DUP3 MSTORE PUSH1 0x20 DUP2 PUSH1 0x1 DUP1 PUSH1 0xA0 SHL SUB SWAP4 SUB ADD SWAP1 KECCAK256 SLOAD AND CALLER EQ PUSH2 0x4FC JUMPI PUSH1 0x1 ADD PUSH2 0x293 JUMP JUMPDEST POP POP POP PUSH1 0x1 CODESIZE DUP1 PUSH2 0x29B JUMP JUMPDEST SWAP1 SWAP2 SWAP3 POP DUP9 MSTORE PUSH1 0x20 DUP9 KECCAK256 DUP9 SWAP1 JUMPDEST DUP3 DUP3 LT PUSH2 0x528 JUMPI POP POP DUP2 ADD SWAP1 CODESIZE DUP1 PUSH2 0x4D7 JUMP JUMPDEST PUSH1 0x1 DUP2 PUSH1 0x20 SWAP3 SLOAD DUP5 DUP8 ADD MSTORE ADD SWAP2 ADD SWAP1 PUSH2 0x515 JUMP JUMPDEST PUSH1 0xFF NOT AND DUP5 MSTORE POP POP DUP1 ISZERO ISZERO MUL DUP2 ADD SWAP2 POP CODESIZE DUP1 PUSH2 0x4D7 JUMP JUMPDEST PUSH1 0x40 MLOAD PUSH3 0x461BCD PUSH1 0xE5 SHL DUP2 MSTORE PUSH1 0x20 PUSH1 0x4 DUP3 ADD MSTORE PUSH1 0x19 PUSH1 0x24 DUP3 ADD MSTORE PUSH32 0x506C6179657220616C726561647920656C696D696E6174656400000000000000 PUSH1 0x44 DUP3 ADD MSTORE PUSH1 0x64 SWAP1 REVERT JUMPDEST POP CALLVALUE PUSH2 0x234 JUMPI PUSH1 0x20 CALLDATASIZE PUSH1 0x3 NOT ADD SLT PUSH2 0x234 JUMPI PUSH2 0x5B2 PUSH2 0x248F JUMP JUMPDEST PUSH2 0x5BA PUSH2 0x2D57 JUMP JUMPDEST PUSH1 0x1 PUSH1 0x1 PUSH1 0xA0 SHL SUB AND DUP1 ISZERO PUSH2 0x60A JUMPI DUP2 SLOAD PUSH1 0x1 PUSH1 0x1 PUSH1 0xA0 SHL SUB NOT DUP2 AND DUP3 OR DUP4 SSTORE PUSH1 0x1 PUSH1 0x1 PUSH1 0xA0 SHL SUB AND PUSH32 0x8BE0079C531659141344CD1FD0A4F28419497F9722A3DAAFE3B4186F6B6457E0 DUP4 DUP1 LOG3 DUP1 RETURN JUMPDEST PUSH4 0x1E4FBDF7 PUSH1 0xE0 SHL DUP3 MSTORE PUSH1 0x4 DUP3 SWAP1 MSTORE PUSH1 0x24 DUP3 REVERT JUMPDEST POP CALLVALUE PUSH2 0x234 JUMPI PUSH1 0x20 CALLDATASIZE PUSH1 0x3 NOT ADD SLT PUSH2 0x234 JUMPI PUSH1 0x20 SWAP1 PUSH1 0x40 SWAP1 PUSH1 0x1 PUSH1 0x1 PUSH1 0xA0 SHL SUB PUSH2 0x646 PUSH2 0x248F JUMP JUMPDEST AND DUP2 MSTORE PUSH1 0x9 DUP4 MSTORE KECCAK256 SLOAD PUSH1 0x40 MLOAD SWAP1 DUP2 MSTORE RETURN JUMPDEST POP CALLVALUE PUSH2 0x234 JUMPI PUSH1 0x20 CALLDATASIZE PUSH1 0x3 NOT ADD SLT PUSH2 0x234 JUMPI DUP1 PUSH1 0x4 CALLDATALOAD PUSH1 0x1 PUSH1 0x1 PUSH1 0x40 SHL SUB DUP2 GT PUSH2 0x753 JUMPI PUSH2 0x68B PUSH1 0x20 SWAP2 CALLDATASIZE SWAP1 PUSH1 0x4 ADD PUSH2 0x23BC JUMP JUMPDEST PUSH2 0x693 PUSH2 0x2D57 JUMP JUMPDEST PUSH2 0x6B3 PUSH1 0xFF PUSH1 0x40 MLOAD DUP4 DUP6 DUP3 CALLDATACOPY DUP6 DUP2 DUP6 DUP2 ADD PUSH1 0xD DUP2 MSTORE SUB ADD SWAP1 KECCAK256 SLOAD AND PUSH2 0x296F JUMP JUMPDEST DUP1 PUSH1 0x40 MLOAD SWAP3 DUP4 CALLDATACOPY PUSH1 0xC SWAP1 DUP3 ADD SWAP1 DUP2 MSTORE DUP2 SWAP1 SUB DUP3 ADD SWAP1 KECCAK256 SLOAD PUSH1 0x40 MLOAD PUSH4 0xE81DE9F5 PUSH1 0xE0 SHL DUP2 MSTORE SWAP3 DUP4 SWAP2 PUSH1 0x4 SWAP2 DUP4 SWAP2 PUSH1 0x1 PUSH1 0x1 PUSH1 0xA0 SHL SUB AND GAS CALL SWAP1 DUP2 ISZERO PUSH2 0x748 JUMPI DUP3 SWAP2 PUSH2 0x705 JUMPI JUMPDEST PUSH1 0x20 DUP3 PUSH1 0x40 MLOAD SWAP1 ISZERO ISZERO DUP2 MSTORE RETURN JUMPDEST SWAP1 POP PUSH1 0x20 DUP2 RETURNDATASIZE PUSH1 0x20 GT PUSH2 0x740 JUMPI JUMPDEST DUP2 PUSH2 0x720 PUSH1 0x20 SWAP4 DUP4 PUSH2 0x24A5 JUMP JUMPDEST DUP2 ADD SUB SLT PUSH2 0x73C JUMPI MLOAD DUP1 ISZERO ISZERO DUP2 SUB PUSH2 0x73C JUMPI PUSH1 0x20 SWAP2 POP CODESIZE PUSH2 0x6F8 JUMP JUMPDEST POP DUP1 REVERT JUMPDEST RETURNDATASIZE SWAP2 POP PUSH2 0x713 JUMP JUMPDEST PUSH1 0x40 MLOAD RETURNDATASIZE DUP5 DUP3 RETURNDATACOPY RETURNDATASIZE SWAP1 REVERT JUMPDEST POP REVERT JUMPDEST POP CALLVALUE PUSH2 0x234 JUMPI DUP1 PUSH1 0x3 NOT CALLDATASIZE ADD SLT PUSH2 0x234 JUMPI PUSH2 0x76F PUSH2 0x2D57 JUMP JUMPDEST PUSH1 0x5 SLOAD PUSH1 0xFF DUP1 DUP3 AND ISZERO AND DUP1 SWAP2 PUSH1 0xFF NOT AND OR PUSH1 0x5 SSTORE PUSH2 0x78A JUMPI DUP1 RETURN JUMPDEST PUSH32 0x2FC209F3DF2FB10C5FCB1620D3E5F067B9EF99813CA8FA6B24DE0418BDAC5420 DUP2 DUP1 LOG1 DUP1 RETURN JUMPDEST POP CALLVALUE PUSH2 0x234 JUMPI PUSH1 0x20 CALLDATASIZE PUSH1 0x3 NOT ADD SLT PUSH2 0x234 JUMPI PUSH1 0x4 CALLDATALOAD SWAP1 PUSH1 0xA SLOAD DUP3 LT ISZERO PUSH2 0x234 JUMPI PUSH1 0xA SLOAD DUP3 LT ISZERO PUSH2 0x81E JUMPI PUSH1 0xA DUP2 MSTORE PUSH32 0xC65A7BB8D6351C1CF70C95A316CC6A92839C986682D98BC35F958F4883F9D2A8 SWAP1 SWAP2 ADD SLOAD PUSH1 0x40 MLOAD PUSH1 0x3 SWAP3 SWAP1 SWAP3 SHL SHR PUSH1 0x1 PUSH1 0x1 PUSH1 0xA0 SHL SUB AND DUP2 MSTORE PUSH1 0x20 SWAP1 RETURN JUMPDEST PUSH4 0x4E487B71 PUSH1 0xE0 SHL DUP2 MSTORE PUSH1 0x32 PUSH1 0x4 MSTORE PUSH1 0x24 SWAP1 REVERT JUMPDEST POP CALLVALUE PUSH2 0x234 JUMPI PUSH1 0x20 CALLDATASIZE PUSH1 0x3 NOT ADD SLT PUSH2 0x234 JUMPI PUSH1 0x20 SWAP1 PUSH1 0xFF SWAP1 PUSH1 0x40 SWAP1 PUSH1 0x1 PUSH1 0x1 PUSH1 0xA0 SHL SUB PUSH2 0x85D PUSH2 0x248F JUMP JUMPDEST AND DUP2 MSTORE PUSH1 0x4 DUP5 MSTORE KECCAK256 SLOAD AND PUSH1 0x40 MLOAD SWAP1 ISZERO ISZERO DUP2 MSTORE RETURN JUMPDEST POP CALLVALUE PUSH2 0x234 JUMPI PUSH1 0x20 CALLDATASIZE PUSH1 0x3 NOT ADD SLT PUSH2 0x234 JUMPI PUSH1 0x4 CALLDATALOAD PUSH2 0x88E PUSH2 0x2D57 JUMP JUMPDEST DUP1 ISZERO PUSH2 0x8C6 JUMPI PUSH1 0x20 DUP2 PUSH32 0xFD29C2CD5DC77CF2BAD34E3B80EC2592A7C16D32869CCAEE99F95AF250DB954A SWAP3 PUSH1 0x6 SSTORE PUSH1 0x40 MLOAD SWAP1 DUP2 MSTORE LOG1 DUP1 RETURN JUMPDEST PUSH1 0x40 MLOAD PUSH3 0x461BCD PUSH1 0xE5 SHL DUP2 MSTORE PUSH1 0x20 PUSH1 0x4 DUP3 ADD MSTORE PUSH1 0x1A PUSH1 0x24 DUP3 ADD MSTORE PUSH32 0x466565206D7573742062652067726561746572207468616E2030000000000000 PUSH1 0x44 DUP3 ADD MSTORE PUSH1 0x64 SWAP1 REVERT JUMPDEST POP CALLVALUE PUSH2 0x234 JUMPI DUP1 PUSH1 0x3 NOT CALLDATASIZE ADD SLT PUSH2 0x234 JUMPI PUSH1 0x20 PUSH1 0x3 SLOAD PUSH1 0x40 MLOAD SWAP1 DUP2 MSTORE RETURN JUMPDEST POP CALLVALUE PUSH2 0x234 JUMPI PUSH1 0x20 CALLDATASIZE PUSH1 0x3 NOT ADD SLT PUSH2 0x234 JUMPI PUSH1 0x20 SWAP1 PUSH1 0x40 SWAP1 PUSH1 0x1 PUSH1 0x1 PUSH1 0xA0 SHL SUB PUSH2 0x951 PUSH2 0x248F JUMP JUMPDEST AND DUP2 MSTORE PUSH1 0xB DUP4 MSTORE KECCAK256 SLOAD PUSH1 0x40 MLOAD SWAP1 DUP2 MSTORE RETURN JUMPDEST POP CALLVALUE PUSH2 0x234 JUMPI DUP1 PUSH1 0x3 NOT CALLDATASIZE ADD SLT PUSH2 0x234 JUMPI PUSH1 0xE SLOAD PUSH2 0x97E PUSH2 0x29C8 JUMP JUMPDEST SWAP1 PUSH2 0x988 DUP2 PUSH2 0x29B1 JUMP JUMPDEST SWAP1 PUSH2 0x996 PUSH1 0x40 MLOAD SWAP3 DUP4 PUSH2 0x24A5 JUMP JUMPDEST DUP1 DUP3 MSTORE PUSH1 0x1F NOT PUSH2 0x9A5 DUP3 PUSH2 0x29B1 JUMP JUMPDEST ADD DUP5 JUMPDEST DUP2 DUP2 LT PUSH2 0xC31 JUMPI POP POP DUP4 JUMPDEST DUP2 DUP2 LT PUSH2 0xA7E JUMPI POP POP PUSH2 0x9D1 PUSH1 0x40 MLOAD SWAP3 PUSH1 0x40 DUP5 MSTORE PUSH1 0x40 DUP5 ADD SWAP1 PUSH2 0x2436 JUMP JUMPDEST DUP3 DUP2 SUB PUSH1 0x20 DUP5 ADD MSTORE DUP2 MLOAD SWAP1 DUP2 DUP2 MSTORE PUSH1 0x20 DUP2 ADD PUSH1 0x20 DUP1 DUP5 PUSH1 0x5 SHL DUP5 ADD ADD SWAP5 ADD SWAP6 DUP1 SWAP3 JUMPDEST DUP5 DUP5 LT PUSH2 0xA00 JUMPI DUP7 DUP7 SUB DUP8 RETURN JUMPDEST SWAP1 SWAP2 SWAP3 SWAP4 SWAP5 PUSH1 0x1F NOT DUP3 DUP3 SUB ADD DUP5 MSTORE DUP8 MLOAD SWAP1 PUSH1 0x20 DUP1 DUP4 MLOAD SWAP3 DUP4 DUP2 MSTORE ADD SWAP3 ADD SWAP1 DUP5 SWAP1 JUMPDEST DUP1 DUP3 LT PUSH2 0xA40 JUMPI POP POP POP PUSH1 0x20 SWAP8 DUP9 ADD SWAP8 SWAP1 SWAP6 SWAP5 PUSH1 0x1 ADD SWAP4 ADD SWAP2 SWAP1 PUSH2 0x9F3 JUMP JUMPDEST SWAP1 SWAP2 SWAP3 PUSH1 0x20 PUSH1 0x80 PUSH1 0x1 SWAP3 PUSH1 0x60 DUP8 MLOAD DUP1 MLOAD DUP4 MSTORE PUSH2 0xA62 DUP6 DUP3 ADD MLOAD DUP7 DUP6 ADD SWAP1 PUSH2 0x255F JUMP JUMPDEST PUSH1 0x40 DUP2 ADD MLOAD PUSH1 0x40 DUP5 ADD MSTORE ADD MLOAD PUSH1 0x60 DUP3 ADD MSTORE ADD SWAP5 ADD SWAP3 ADD SWAP1 PUSH2 0xA21 JUMP JUMPDEST PUSH2 0xAAB PUSH1 0x20 PUSH2 0xA98 PUSH2 0xA92 DUP5 SWAP9 SWAP7 SWAP9 PUSH2 0x25E7 JUMP JUMPDEST POP PUSH2 0x266F JUMP JUMPDEST DUP2 PUSH1 0x40 MLOAD SWAP4 DUP3 DUP6 DUP1 SWAP5 MLOAD SWAP4 DUP5 SWAP3 ADD PUSH2 0x23EE JUMP JUMPDEST PUSH1 0xC SWAP1 DUP3 ADD SWAP1 DUP2 MSTORE SUB ADD SWAP1 KECCAK256 SLOAD PUSH1 0x1 PUSH1 0x1 PUSH1 0xA0 SHL SUB AND SWAP1 DUP4 DUP3 PUSH2 0xAD7 JUMPI JUMPDEST POP PUSH1 0x1 SWAP2 POP ADD SWAP4 SWAP2 SWAP4 PUSH2 0x9B3 JUMP JUMPDEST PUSH1 0x40 MLOAD PUSH4 0xC04C5947 PUSH1 0xE0 SHL DUP2 MSTORE SWAP3 DUP4 SWAP1 PUSH1 0x4 SWAP1 DUP3 SWAP1 GAS STATICCALL DUP1 ISZERO PUSH2 0xC26 JUMPI DUP5 SWAP1 PUSH2 0xB1B JUMPI JUMPDEST PUSH1 0x1 SWAP3 POP PUSH2 0xB09 DUP3 DUP9 PUSH2 0x2A6F JUMP JUMPDEST MSTORE PUSH2 0xB14 DUP2 DUP8 PUSH2 0x2A6F JUMP JUMPDEST POP DUP4 PUSH2 0xAC9 JUMP JUMPDEST POP SWAP1 RETURNDATASIZE DUP1 DUP6 DUP4 RETURNDATACOPY PUSH2 0xB2C DUP2 DUP4 PUSH2 0x24A5 JUMP JUMPDEST DUP2 ADD SWAP1 PUSH1 0x20 DUP2 DUP4 SUB SLT PUSH2 0xC1E JUMPI DUP1 MLOAD SWAP1 PUSH1 0x1 PUSH1 0x1 PUSH1 0x40 SHL SUB DUP3 GT PUSH2 0xC22 JUMPI ADD DUP2 PUSH1 0x1F DUP3 ADD SLT ISZERO PUSH2 0xC1E JUMPI DUP1 MLOAD SWAP1 PUSH2 0xB62 DUP3 PUSH2 0x29B1 JUMP JUMPDEST SWAP3 PUSH2 0xB70 PUSH1 0x40 MLOAD SWAP5 DUP6 PUSH2 0x24A5 JUMP JUMPDEST DUP3 DUP5 MSTORE PUSH1 0x20 DUP1 DUP6 ADD SWAP4 PUSH1 0x7 SHL DUP4 ADD ADD SWAP2 DUP2 DUP4 GT PUSH2 0xC1A JUMPI PUSH1 0x20 ADD SWAP3 JUMPDEST DUP3 DUP5 LT PUSH2 0xBA0 JUMPI POP POP POP POP SWAP1 PUSH1 0x1 SWAP2 PUSH2 0xAFB JUMP JUMPDEST PUSH1 0x80 DUP5 DUP4 SUB SLT PUSH2 0xC1A JUMPI PUSH1 0x40 MLOAD PUSH1 0x80 DUP2 ADD DUP2 DUP2 LT PUSH1 0x1 PUSH1 0x1 PUSH1 0x40 SHL SUB DUP3 GT OR PUSH2 0xC06 JUMPI PUSH1 0x40 MSTORE DUP5 MLOAD DUP2 MSTORE PUSH1 0x20 DUP6 ADD MLOAD PUSH1 0x5 DUP2 LT ISZERO PUSH2 0xC02 JUMPI SWAP2 DUP2 PUSH1 0x80 SWAP4 PUSH1 0x20 DUP1 SWAP5 ADD MSTORE PUSH1 0x40 DUP8 ADD MLOAD PUSH1 0x40 DUP3 ADD MSTORE PUSH1 0x60 DUP8 ADD MLOAD PUSH1 0x60 DUP3 ADD MSTORE DUP2 MSTORE ADD SWAP4 ADD SWAP3 PUSH2 0xB8C JUMP JUMPDEST DUP10 DUP1 REVERT JUMPDEST PUSH4 0x4E487B71 PUSH1 0xE0 SHL DUP11 MSTORE PUSH1 0x41 PUSH1 0x4 MSTORE PUSH1 0x24 DUP11 REVERT JUMPDEST DUP8 DUP1 REVERT JUMPDEST DUP5 DUP1 REVERT JUMPDEST DUP6 DUP1 REVERT JUMPDEST PUSH1 0x40 MLOAD RETURNDATASIZE DUP7 DUP3 RETURNDATACOPY RETURNDATASIZE SWAP1 REVERT JUMPDEST PUSH1 0x60 PUSH1 0x20 DUP3 DUP7 ADD DUP2 ADD SWAP2 SWAP1 SWAP2 MSTORE ADD PUSH2 0x9A8 JUMP JUMPDEST POP CALLVALUE PUSH2 0x234 JUMPI DUP1 PUSH1 0x3 NOT CALLDATASIZE ADD SLT PUSH2 0x234 JUMPI PUSH2 0xC5D PUSH2 0x2D57 JUMP JUMPDEST PUSH1 0xFF PUSH1 0x5 SLOAD AND ISZERO DUP1 ISZERO PUSH2 0xEC4 JUMPI JUMPDEST ISZERO PUSH2 0xE88 JUMPI DUP1 JUMPDEST PUSH1 0x3 SLOAD DUP2 LT ISZERO PUSH2 0xD22 JUMPI DUP1 PUSH2 0xC88 PUSH1 0x1 SWAP3 PUSH2 0x2602 JUMP JUMPDEST DUP4 DUP1 PUSH1 0xA0 SHL SUB SWAP2 SLOAD SWAP1 PUSH1 0x3 SHL SHR AND DUP4 DUP1 DUP1 DUP1 PUSH1 0x6 SLOAD DUP6 GAS CALL PUSH2 0xCA8 PUSH2 0x28F3 JUMP JUMPDEST POP PUSH2 0xCEF JUMPI DUP1 PUSH32 0xAF73B0B217208B61BE286BBC37095BCE7EB8B9CCF617244C2F0F154E8E04E3FF PUSH1 0x20 PUSH1 0x6 SLOAD PUSH1 0x40 MLOAD SWAP1 DUP2 MSTORE LOG2 JUMPDEST DUP4 MSTORE PUSH1 0xB PUSH1 0x20 MSTORE DUP3 PUSH1 0x40 DUP2 KECCAK256 SSTORE ADD PUSH2 0xC72 JUMP JUMPDEST DUP1 PUSH32 0x48D31F1C958CD44F1F83A52AE2DFAF61E88A1B82C07A6D5711A4ABEF60B6531E PUSH1 0x20 PUSH1 0x6 SLOAD PUSH1 0x40 MLOAD SWAP1 DUP2 MSTORE LOG2 PUSH2 0xCDC JUMP JUMPDEST POP PUSH1 0x3 SLOAD DUP2 PUSH1 0x3 SSTORE DUP1 PUSH2 0xE50 JUMPI JUMPDEST POP PUSH1 0x7 SLOAD DUP2 PUSH1 0x7 SSTORE DUP1 PUSH2 0xE18 JUMPI JUMPDEST POP PUSH1 0xA SLOAD DUP2 PUSH1 0xA SSTORE DUP1 PUSH2 0xDE0 JUMPI JUMPDEST POP PUSH1 0xFF NOT PUSH1 0x5 SLOAD AND PUSH1 0x5 SSTORE DUP1 JUMPDEST PUSH1 0x3 SLOAD DUP2 LT ISZERO PUSH2 0xDB8 JUMPI DUP1 PUSH2 0xD6F PUSH1 0x1 SWAP3 PUSH2 0x2602 JUMP JUMPDEST DUP4 DUP1 PUSH1 0xA0 SHL SUB SWAP2 SLOAD SWAP1 PUSH1 0x3 SHL SHR AND DUP1 DUP5 MSTORE PUSH1 0x4 PUSH1 0x20 MSTORE PUSH1 0x40 DUP5 KECCAK256 PUSH1 0xFF NOT DUP2 SLOAD AND SWAP1 SSTORE DUP1 DUP5 MSTORE PUSH1 0x8 PUSH1 0x20 MSTORE PUSH1 0x40 DUP5 KECCAK256 PUSH1 0xFF NOT DUP2 SLOAD AND SWAP1 SSTORE DUP4 MSTORE PUSH1 0x9 PUSH1 0x20 MSTORE DUP3 PUSH1 0x40 DUP2 KECCAK256 SSTORE ADD PUSH2 0xD59 JUMP JUMPDEST POP PUSH32 0xC6976B6410888B44C765590C8368EB4A60E0431D4AD683C8A53EA85A8479F22E DUP2 DUP1 LOG1 DUP1 RETURN JUMPDEST PUSH1 0xA DUP3 MSTORE PUSH2 0xE12 SWAP1 PUSH32 0xC65A7BB8D6351C1CF70C95A316CC6A92839C986682D98BC35F958F4883F9D2A8 SWAP1 DUP2 ADD SWAP1 PUSH2 0x2AA4 JUMP JUMPDEST CODESIZE PUSH2 0xD4C JUMP JUMPDEST PUSH1 0x7 DUP3 MSTORE PUSH2 0xE4A SWAP1 PUSH32 0xA66CC928B5EDB82AF9BD49922954155AB7B0942694BEA4CE44661D9A8736C688 SWAP1 DUP2 ADD SWAP1 PUSH2 0x2AA4 JUMP JUMPDEST CODESIZE PUSH2 0xD3E JUMP JUMPDEST PUSH1 0x3 DUP3 MSTORE PUSH2 0xE82 SWAP1 PUSH32 0xC2575A0E9E593C00F959F8C92F12DB2869C3395A3B0502D05E2516446F71F85B SWAP1 DUP2 ADD SWAP1 PUSH2 0x2AA4 JUMP JUMPDEST CODESIZE PUSH2 0xD30 JUMP JUMPDEST PUSH1 0x40 MLOAD PUSH3 0x461BCD PUSH1 0xE5 SHL DUP2 MSTORE PUSH1 0x20 PUSH1 0x4 DUP3 ADD MSTORE PUSH1 0x14 PUSH1 0x24 DUP3 ADD MSTORE PUSH20 0x139BC81C1B185E595C9CC81D1BC81C99599D5B99 PUSH1 0x62 SHL PUSH1 0x44 DUP3 ADD MSTORE PUSH1 0x64 SWAP1 REVERT JUMPDEST POP PUSH1 0x3 SLOAD ISZERO ISZERO PUSH2 0xC6B JUMP JUMPDEST POP CALLVALUE PUSH2 0x234 JUMPI PUSH1 0x20 CALLDATASIZE PUSH1 0x3 NOT ADD SLT PUSH2 0x234 JUMPI DUP1 PUSH1 0x4 CALLDATALOAD PUSH1 0x1 PUSH1 0x1 PUSH1 0x40 SHL SUB DUP2 GT PUSH2 0x753 JUMPI PUSH2 0xF01 SWAP1 CALLDATASIZE SWAP1 PUSH1 0x4 ADD PUSH2 0x23BC JUMP JUMPDEST PUSH2 0xF09 PUSH2 0x2D57 JUMP JUMPDEST PUSH2 0xF2A PUSH1 0xFF PUSH1 0x40 MLOAD DUP4 DUP6 DUP3 CALLDATACOPY PUSH1 0x20 DUP2 DUP6 DUP2 ADD PUSH1 0xD DUP2 MSTORE SUB ADD SWAP1 KECCAK256 SLOAD AND PUSH2 0x296F JUMP JUMPDEST DUP1 PUSH1 0x40 MLOAD SWAP3 DUP4 CALLDATACOPY PUSH1 0xC SWAP1 DUP3 ADD SWAP1 DUP2 MSTORE DUP2 SWAP1 SUB PUSH1 0x20 ADD SWAP1 KECCAK256 SLOAD PUSH1 0x1 PUSH1 0x1 PUSH1 0xA0 SHL SUB AND DUP1 EXTCODESIZE ISZERO PUSH2 0x753 JUMPI DUP2 DUP1 SWAP2 PUSH1 0x4 PUSH1 0x40 MLOAD DUP1 SWAP5 DUP2 SWAP4 PUSH4 0x6879D10F PUSH1 0xE1 SHL DUP4 MSTORE GAS CALL DUP1 ISZERO PUSH2 0x748 JUMPI PUSH2 0xF77 JUMPI POP RETURN JUMPDEST DUP2 PUSH2 0xF81 SWAP2 PUSH2 0x24A5 JUMP JUMPDEST PUSH2 0x234 JUMPI DUP1 RETURN JUMPDEST POP CALLVALUE PUSH2 0x234 JUMPI PUSH1 0x20 CALLDATASIZE PUSH1 0x3 NOT ADD SLT PUSH2 0x234 JUMPI PUSH1 0x4 CALLDATALOAD SWAP1 PUSH1 0x7 SLOAD DUP3 LT ISZERO PUSH2 0x234 JUMPI PUSH1 0x20 PUSH2 0xFB3 DUP4 PUSH2 0x25B6 JUMP JUMPDEST SWAP1 SLOAD PUSH1 0x40 MLOAD PUSH1 0x3 SWAP3 SWAP1 SWAP3 SHL SHR PUSH1 0x1 PUSH1 0x1 PUSH1 0xA0 SHL SUB AND DUP2 MSTORE RETURN JUMPDEST POP CALLVALUE PUSH2 0x234 JUMPI PUSH1 0x20 CALLDATASIZE PUSH1 0x3 NOT ADD SLT PUSH2 0x234 JUMPI PUSH1 0x20 SWAP1 PUSH1 0x40 SWAP1 PUSH1 0x1 PUSH1 0x1 PUSH1 0xA0 SHL SUB PUSH2 0xFF4 PUSH2 0x248F JUMP JUMPDEST AND DUP1 DUP3 MSTORE PUSH1 0x4 DUP5 MSTORE PUSH2 0x100B PUSH1 0xFF DUP5 DUP5 KECCAK256 SLOAD AND PUSH2 0x2D13 JUMP JUMPDEST DUP2 MSTORE PUSH1 0x9 DUP4 MSTORE KECCAK256 SLOAD PUSH1 0x40 MLOAD SWAP1 DUP2 MSTORE RETURN JUMPDEST POP CALLVALUE PUSH2 0x234 JUMPI DUP1 PUSH1 0x3 NOT CALLDATASIZE ADD SLT PUSH2 0x234 JUMPI PUSH1 0x20 PUSH1 0xFF PUSH1 0x5 SLOAD AND PUSH1 0x40 MLOAD SWAP1 ISZERO ISZERO DUP2 MSTORE RETURN JUMPDEST POP CALLVALUE PUSH2 0x234 JUMPI PUSH1 0x20 CALLDATASIZE PUSH1 0x3 NOT ADD SLT PUSH2 0x234 JUMPI PUSH1 0x4 CALLDATALOAD PUSH1 0xE SLOAD DUP2 LT ISZERO PUSH2 0x73C JUMPI PUSH2 0x1066 SWAP1 PUSH2 0x25E7 JUMP JUMPDEST SWAP2 SWAP1 SWAP2 PUSH2 0x1091 JUMPI PUSH2 0x108D PUSH2 0x1079 DUP4 PUSH2 0x266F JUMP JUMPDEST PUSH1 0x40 MLOAD SWAP2 DUP3 SWAP2 PUSH1 0x20 DUP4 MSTORE PUSH1 0x20 DUP4 ADD SWAP1 PUSH2 0x2411 JUMP JUMPDEST SUB SWAP1 RETURN JUMPDEST PUSH4 0x4E487B71 PUSH1 0xE0 SHL DUP2 MSTORE PUSH1 0x4 DUP2 SWAP1 MSTORE PUSH1 0x24 SWAP1 REVERT JUMPDEST POP CALLVALUE PUSH2 0x234 JUMPI DUP1 PUSH1 0x3 NOT CALLDATASIZE ADD SLT PUSH2 0x234 JUMPI DUP1 DUP1 PUSH1 0x40 MLOAD PUSH1 0x20 DUP2 ADD SWAP1 PUSH4 0x7983F45 PUSH1 0xE2 SHL DUP3 MSTORE PUSH1 0x97 PUSH1 0x24 DUP3 ADD MSTORE PUSH1 0x24 DUP2 MSTORE PUSH2 0x10E0 PUSH1 0x44 DUP3 PUSH2 0x24A5 JUMP JUMPDEST MLOAD SWAP1 DUP3 PUSH20 0xDC2B0D2DD2B7759D97D50DB4EABDC36973110830 GAS CALL PUSH2 0x1102 PUSH2 0x28F3 JUMP JUMPDEST POP ISZERO PUSH2 0x110B JUMPI DUP1 RETURN JUMPDEST PUSH1 0x40 MLOAD PUSH3 0x461BCD PUSH1 0xE5 SHL DUP2 MSTORE PUSH1 0x20 PUSH1 0x4 DUP3 ADD MSTORE PUSH1 0x18 PUSH1 0x24 DUP3 ADD MSTORE PUSH32 0x4665654D20726567697374726174696F6E206661696C65640000000000000000 PUSH1 0x44 DUP3 ADD MSTORE PUSH1 0x64 SWAP1 REVERT JUMPDEST POP CALLVALUE PUSH2 0x234 JUMPI PUSH1 0x20 CALLDATASIZE PUSH1 0x3 NOT ADD SLT PUSH2 0x234 JUMPI PUSH1 0x4 CALLDATALOAD PUSH1 0x1 PUSH1 0x1 PUSH1 0xA0 SHL SUB DUP2 AND SWAP1 DUP2 SWAP1 SUB PUSH2 0x73C JUMPI PUSH2 0x117F PUSH2 0x2D57 JUMP JUMPDEST DUP1 ISZERO PUSH2 0x11A0 JUMPI PUSH12 0xFFFFFFFFFFFFFFFFFFFFFFFF PUSH1 0xA0 SHL PUSH1 0x2 SLOAD AND OR PUSH1 0x2 SSTORE DUP1 RETURN JUMPDEST PUSH1 0x40 MLOAD PUSH3 0x461BCD PUSH1 0xE5 SHL DUP2 MSTORE PUSH1 0x20 PUSH1 0x4 DUP3 ADD MSTORE PUSH1 0x1F PUSH1 0x24 DUP3 ADD MSTORE PUSH32 0x496E76616C696420506F696E747320636F6E7472616374206164647265737300 PUSH1 0x44 DUP3 ADD MSTORE PUSH1 0x64 SWAP1 REVERT JUMPDEST POP CALLVALUE PUSH2 0x234 JUMPI DUP1 PUSH1 0x3 NOT CALLDATASIZE ADD SLT PUSH2 0x234 JUMPI SLOAD PUSH1 0x40 MLOAD PUSH1 0x1 PUSH1 0x1 PUSH1 0xA0 SHL SUB SWAP1 SWAP2 AND DUP2 MSTORE PUSH1 0x20 SWAP1 RETURN JUMPDEST POP PUSH1 0x20 CALLDATASIZE PUSH1 0x3 NOT ADD SLT PUSH2 0x234 JUMPI DUP1 PUSH1 0x4 CALLDATALOAD PUSH1 0x1 PUSH1 0x1 PUSH1 0x40 SHL SUB DUP2 GT PUSH2 0x753 JUMPI PUSH2 0x1239 SWAP1 CALLDATASIZE SWAP1 PUSH1 0x4 ADD PUSH2 0x23BC JUMP JUMPDEST SWAP1 PUSH2 0x1249 PUSH1 0xFF PUSH1 0x5 SLOAD AND ISZERO PUSH2 0x2713 JUMP JUMPDEST PUSH1 0x6 SLOAD SWAP1 PUSH2 0x1259 DUP3 CALLVALUE LT ISZERO PUSH2 0x27E7 JUMP JUMPDEST CALLER DUP5 MSTORE PUSH1 0x4 PUSH1 0x20 MSTORE PUSH2 0x1272 PUSH1 0xFF PUSH1 0x40 DUP7 KECCAK256 SLOAD AND ISZERO PUSH2 0x2843 JUMP JUMPDEST PUSH1 0x2 SLOAD PUSH1 0x1 PUSH1 0x1 PUSH1 0xA0 SHL SUB AND SWAP2 PUSH2 0x128A DUP4 ISZERO ISZERO PUSH2 0x2884 JUMP JUMPDEST DUP3 EXTCODESIZE ISZERO PUSH2 0xC1E JUMPI PUSH2 0x12C3 SWAP4 DUP6 SWAP4 PUSH1 0x6 PUSH1 0x40 MLOAD DUP1 SWAP8 DUP2 SWAP7 DUP3 SWAP6 PUSH4 0x2E8D97B7 PUSH1 0xE0 SHL DUP5 MSTORE CALLER PUSH1 0x4 DUP6 ADD MSTORE PUSH1 0x40 PUSH1 0x24 DUP6 ADD MSTORE PUSH1 0x44 DUP5 ADD SWAP2 PUSH2 0x2A83 JUMP JUMPDEST SUB SWAP4 DIV SWAP1 GAS CALL DUP1 ISZERO PUSH2 0x748 JUMPI PUSH2 0x13C8 JUMPI JUMPDEST POP POP PUSH1 0x3 SLOAD CALLER DUP3 MSTORE PUSH1 0x9 PUSH1 0x20 MSTORE DUP1 PUSH1 0x40 DUP4 KECCAK256 SSTORE PUSH2 0x12F0 CALLER PUSH2 0x2758 JUMP JUMPDEST CALLER DUP3 MSTORE PUSH1 0x4 PUSH1 0x20 MSTORE PUSH1 0x40 DUP3 KECCAK256 PUSH1 0x1 PUSH1 0xFF NOT DUP3 SLOAD AND OR SWAP1 SSTORE PUSH2 0x1310 CALLER PUSH2 0x277D JUMP JUMPDEST CALLER DUP3 MSTORE PUSH1 0x8 PUSH1 0x20 MSTORE PUSH1 0x40 DUP3 KECCAK256 PUSH1 0x1 PUSH1 0xFF NOT DUP3 SLOAD AND OR SWAP1 SSTORE PUSH1 0x40 MLOAD SWAP1 DUP2 MSTORE PUSH32 0x324CB0062138D65997C86CD3012489CEB351D602F2F55C7408306E8040C79F3F PUSH1 0x20 CALLER SWAP3 LOG2 PUSH1 0x3 SLOAD PUSH1 0x1 SLOAD GT ISZERO PUSH2 0x1392 JUMPI JUMPDEST PUSH2 0x136C PUSH1 0x6 SLOAD CALLVALUE PUSH2 0x28D0 JUMP JUMPDEST DUP2 DUP2 PUSH2 0x1375 JUMPI DUP1 RETURN JUMPDEST DUP1 DUP1 DUP1 PUSH2 0x138D SWAP5 CALLER GAS CALL PUSH2 0x1387 PUSH2 0x28F3 JUMP JUMPDEST POP PUSH2 0x2923 JUMP JUMPDEST CODESIZE DUP2 DUP1 RETURN JUMPDEST PUSH1 0x1 PUSH1 0xFF NOT PUSH1 0x5 SLOAD AND OR PUSH1 0x5 SSTORE PUSH32 0x2FC209F3DF2FB10C5FCB1620D3E5F067B9EF99813CA8FA6B24DE0418BDAC5420 DUP2 DUP1 LOG1 PUSH2 0x1360 JUMP JUMPDEST DUP2 PUSH2 0x13D2 SWAP2 PUSH2 0x24A5 JUMP JUMPDEST PUSH2 0x234 JUMPI DUP1 CODESIZE PUSH2 0x12D4 JUMP JUMPDEST POP CALLVALUE PUSH2 0x234 JUMPI PUSH1 0x20 CALLDATASIZE PUSH1 0x3 NOT ADD SLT PUSH2 0x234 JUMPI PUSH1 0x4 CALLDATALOAD SWAP1 PUSH1 0x3 SLOAD DUP3 LT ISZERO PUSH2 0x234 JUMPI PUSH1 0x20 PUSH2 0xFB3 DUP4 PUSH2 0x2602 JUMP JUMPDEST POP CALLVALUE PUSH2 0x234 JUMPI DUP1 PUSH1 0x3 NOT CALLDATASIZE ADD SLT PUSH2 0x234 JUMPI PUSH2 0x1421 PUSH2 0x2D57 JUMP JUMPDEST PUSH1 0x1 PUSH1 0xFF NOT PUSH1 0x5 SLOAD AND OR PUSH1 0x5 SSTORE PUSH32 0x2FC209F3DF2FB10C5FCB1620D3E5F067B9EF99813CA8FA6B24DE0418BDAC5420 DUP2 DUP1 LOG1 DUP1 RETURN JUMPDEST POP CALLVALUE PUSH2 0x234 JUMPI DUP1 PUSH1 0x3 NOT CALLDATASIZE ADD SLT PUSH2 0x234 JUMPI PUSH2 0x146E PUSH2 0x2D57 JUMP JUMPDEST DUP1 SLOAD PUSH1 0x1 PUSH1 0x1 PUSH1 0xA0 SHL SUB NOT DUP2 AND DUP3 SSTORE DUP2 SWAP1 PUSH1 0x1 PUSH1 0x1 PUSH1 0xA0 SHL SUB AND PUSH32 0x8BE0079C531659141344CD1FD0A4F28419497F9722A3DAAFE3B4186F6B6457E0 DUP3 DUP1 LOG3 DUP1 RETURN JUMPDEST POP CALLVALUE PUSH2 0x234 JUMPI PUSH1 0x20 CALLDATASIZE PUSH1 0x3 NOT ADD SLT PUSH2 0x234 JUMPI PUSH1 0x20 SWAP1 PUSH1 0x40 SWAP1 PUSH1 0x1 PUSH1 0x1 PUSH1 0xA0 SHL SUB PUSH2 0x14D7 PUSH2 0x248F JUMP JUMPDEST AND DUP1 DUP3 MSTORE PUSH1 0x4 DUP5 MSTORE PUSH2 0x14EE PUSH1 0xFF DUP5 DUP5 KECCAK256 SLOAD AND PUSH2 0x2D13 JUMP JUMPDEST DUP2 MSTORE PUSH1 0xB DUP4 MSTORE KECCAK256 SLOAD PUSH1 0x40 MLOAD SWAP1 DUP2 MSTORE RETURN JUMPDEST POP CALLVALUE PUSH2 0x234 JUMPI DUP1 PUSH1 0x3 NOT CALLDATASIZE ADD SLT PUSH2 0x234 JUMPI PUSH1 0x7 SLOAD SWAP1 PUSH2 0x151C DUP3 PUSH2 0x2A3D JUMP JUMPDEST SWAP2 PUSH1 0x40 MLOAD SWAP2 PUSH2 0x1535 DUP4 PUSH2 0x152E DUP2 PUSH2 0x27A2 JUMP JUMPDEST SUB DUP5 PUSH2 0x24A5 JUMP JUMPDEST DUP1 JUMPDEST DUP3 DUP2 LT PUSH2 0x1568 JUMPI PUSH2 0x155A DUP5 PUSH2 0x108D DUP8 PUSH1 0x40 MLOAD SWAP4 DUP5 SWAP4 PUSH1 0x40 DUP6 MSTORE PUSH1 0x40 DUP6 ADD SWAP1 PUSH2 0x237F JUMP JUMPDEST SWAP1 DUP4 DUP3 SUB PUSH1 0x20 DUP6 ADD MSTORE PUSH2 0x2582 JUMP JUMPDEST PUSH1 0x1 SWAP1 PUSH1 0x1 PUSH1 0x1 PUSH1 0xA0 SHL SUB PUSH2 0x157D DUP3 DUP8 PUSH2 0x2A6F JUMP JUMPDEST MLOAD AND DUP4 MSTORE PUSH1 0x9 PUSH1 0x20 MSTORE PUSH1 0x40 DUP4 KECCAK256 SLOAD PUSH2 0x1595 DUP3 DUP9 PUSH2 0x2A6F JUMP JUMPDEST MSTORE ADD PUSH2 0x1537 JUMP JUMPDEST POP CALLVALUE PUSH2 0x234 JUMPI PUSH1 0x20 PUSH2 0x15AD CALLDATASIZE PUSH2 0x24F7 JUMP JUMPDEST DUP2 PUSH2 0x15C1 PUSH1 0x40 MLOAD SWAP3 DUP4 DUP2 MLOAD SWAP4 DUP5 SWAP3 ADD PUSH2 0x23EE JUMP JUMPDEST PUSH1 0xC SWAP1 DUP3 ADD SWAP1 DUP2 MSTORE DUP2 SWAP1 SUB DUP3 ADD SWAP1 KECCAK256 SLOAD PUSH1 0x40 MLOAD PUSH1 0x1 PUSH1 0x1 PUSH1 0xA0 SHL SUB SWAP1 SWAP2 AND DUP2 MSTORE RETURN JUMPDEST POP CALLVALUE PUSH2 0x234 JUMPI DUP1 PUSH1 0x3 NOT CALLDATASIZE ADD SLT PUSH2 0x234 JUMPI PUSH1 0x40 MLOAD PUSH1 0xA DUP1 SLOAD DUP1 DUP4 MSTORE SWAP1 DUP4 MSTORE SWAP1 SWAP2 PUSH1 0x20 DUP4 ADD SWAP2 PUSH32 0xC65A7BB8D6351C1CF70C95A316CC6A92839C986682D98BC35F958F4883F9D2A8 SWAP2 JUMPDEST DUP2 DUP2 LT PUSH2 0x1656 JUMPI PUSH2 0x108D DUP6 PUSH2 0x1642 DUP2 DUP8 SUB DUP3 PUSH2 0x24A5 JUMP JUMPDEST PUSH1 0x40 MLOAD SWAP2 DUP3 SWAP2 PUSH1 0x20 DUP4 MSTORE PUSH1 0x20 DUP4 ADD SWAP1 PUSH2 0x237F JUMP JUMPDEST DUP3 SLOAD PUSH1 0x1 PUSH1 0x1 PUSH1 0xA0 SHL SUB AND DUP5 MSTORE PUSH1 0x20 SWAP1 SWAP4 ADD SWAP3 PUSH1 0x1 SWAP3 DUP4 ADD SWAP3 ADD PUSH2 0x162B JUMP JUMPDEST POP CALLVALUE PUSH2 0x234 JUMPI PUSH1 0x20 CALLDATASIZE PUSH1 0x3 NOT ADD SLT PUSH2 0x234 JUMPI PUSH2 0x16B5 PUSH2 0x16CC PUSH2 0x169D PUSH2 0x1698 PUSH2 0x248F JUMP JUMPDEST PUSH2 0x2ABB JUMP JUMPDEST SWAP3 SWAP4 SWAP5 SWAP2 PUSH1 0x40 MLOAD SWAP7 DUP8 SWAP7 PUSH1 0xA0 DUP9 MSTORE PUSH1 0xA0 DUP9 ADD SWAP1 PUSH2 0x2411 JUMP JUMPDEST SWAP5 PUSH1 0x20 DUP8 ADD MSTORE ISZERO ISZERO PUSH1 0x40 DUP7 ADD MSTORE PUSH1 0x60 DUP6 ADD SWAP1 PUSH2 0x255F JUMP JUMPDEST PUSH1 0x80 DUP4 ADD MSTORE SUB SWAP1 RETURN JUMPDEST POP CALLVALUE PUSH2 0x234 JUMPI PUSH1 0x20 PUSH1 0xFF PUSH2 0x16EC DUP3 PUSH2 0xA98 CALLDATASIZE PUSH2 0x24F7 JUMP JUMPDEST DUP2 ADD PUSH1 0xD DUP2 MSTORE SUB ADD SWAP1 KECCAK256 SLOAD AND PUSH1 0x40 MLOAD SWAP1 ISZERO ISZERO DUP2 MSTORE RETURN JUMPDEST POP CALLVALUE PUSH2 0x234 JUMPI PUSH1 0x20 CALLDATASIZE PUSH1 0x3 NOT ADD SLT PUSH2 0x234 JUMPI PUSH1 0x20 SWAP1 PUSH1 0xFF SWAP1 PUSH1 0x40 SWAP1 PUSH1 0x1 PUSH1 0x1 PUSH1 0xA0 SHL SUB PUSH2 0x172D PUSH2 0x248F JUMP JUMPDEST AND DUP2 MSTORE PUSH1 0x8 DUP5 MSTORE KECCAK256 SLOAD AND PUSH1 0x40 MLOAD SWAP1 ISZERO ISZERO DUP2 MSTORE RETURN JUMPDEST POP CALLVALUE PUSH2 0x234 JUMPI DUP1 PUSH1 0x3 NOT CALLDATASIZE ADD SLT PUSH2 0x234 JUMPI PUSH1 0x20 PUSH1 0x7 SLOAD PUSH1 0x40 MLOAD SWAP1 DUP2 MSTORE RETURN JUMPDEST POP CALLVALUE PUSH2 0x234 JUMPI DUP1 PUSH1 0x3 NOT CALLDATASIZE ADD SLT PUSH2 0x234 JUMPI PUSH1 0x20 PUSH1 0x1 SLOAD PUSH1 0x40 MLOAD SWAP1 DUP2 MSTORE RETURN JUMPDEST POP CALLVALUE PUSH2 0x234 JUMPI PUSH1 0x40 CALLDATASIZE PUSH1 0x3 NOT ADD SLT PUSH2 0x234 JUMPI PUSH1 0x4 CALLDATALOAD PUSH1 0x1 PUSH1 0x1 PUSH1 0x40 SHL SUB DUP2 GT PUSH2 0x73C JUMPI PUSH2 0x17AE SWAP1 CALLDATASIZE SWAP1 PUSH1 0x4 ADD PUSH2 0x23BC JUMP JUMPDEST PUSH1 0x24 CALLDATALOAD PUSH1 0x1 PUSH1 0x1 PUSH1 0xA0 SHL SUB DUP2 AND SWAP4 SWAP3 SWAP2 SWAP1 DUP5 SWAP1 SUB PUSH2 0x1A9C JUMPI PUSH2 0x17CE PUSH2 0x2D57 JUMP JUMPDEST DUP4 ISZERO PUSH2 0x1A60 JUMPI PUSH1 0xFF PUSH1 0x40 MLOAD DUP3 DUP5 DUP3 CALLDATACOPY PUSH1 0x20 DUP2 DUP5 DUP2 ADD PUSH1 0xD DUP2 MSTORE SUB ADD SWAP1 KECCAK256 SLOAD AND PUSH2 0x1A1B JUMPI DUP1 ISZERO PUSH2 0x19D6 JUMPI PUSH1 0x40 MLOAD DUP2 DUP4 DUP3 CALLDATACOPY PUSH1 0x20 DUP2 DUP4 DUP2 ADD PUSH1 0xC DUP2 MSTORE SUB ADD SWAP1 KECCAK256 DUP5 PUSH12 0xFFFFFFFFFFFFFFFFFFFFFFFF PUSH1 0xA0 SHL DUP3 SLOAD AND OR SWAP1 SSTORE PUSH1 0x40 MLOAD DUP2 DUP4 DUP3 CALLDATACOPY PUSH1 0x20 DUP2 DUP4 DUP2 ADD PUSH1 0xD DUP2 MSTORE SUB ADD SWAP1 KECCAK256 PUSH1 0x1 PUSH1 0xFF NOT DUP3 SLOAD AND OR SWAP1 SSTORE PUSH1 0xE SLOAD PUSH1 0x1 PUSH1 0x40 SHL DUP2 LT ISZERO PUSH2 0x43B JUMPI DUP1 PUSH1 0x1 PUSH2 0x1862 SWAP3 ADD PUSH1 0xE SSTORE PUSH2 0x25E7 JUMP JUMPDEST SWAP5 SWAP1 SWAP5 PUSH2 0x19C2 JUMPI PUSH1 0x1 PUSH1 0x1 PUSH1 0x40 SHL SUB DUP3 GT PUSH2 0x43B JUMPI PUSH2 0x1881 DUP6 SLOAD PUSH2 0x2635 JUMP JUMPDEST PUSH1 0x1F DUP2 GT PUSH2 0x1987 JUMPI JUMPDEST POP DUP4 SWAP5 PUSH1 0x1F DUP4 GT PUSH1 0x1 EQ PUSH2 0x1905 JUMPI DUP3 DUP6 SWAP7 PUSH32 0xF7757A7272E50875150E6020AFE9040C7C2485F28D0513DAD0F5170AF4F20D43 SWAP7 SWAP2 PUSH2 0x18FA JUMPI JUMPDEST POP DUP4 PUSH1 0x1 SHL SWAP1 PUSH1 0x0 NOT DUP6 PUSH1 0x3 SHL SHR NOT AND OR SWAP1 SSTORE JUMPDEST PUSH2 0x18EE PUSH1 0x40 MLOAD SWAP4 DUP5 SWAP4 PUSH1 0x40 DUP6 MSTORE PUSH1 0x40 DUP6 ADD SWAP2 PUSH2 0x2A83 JUMP JUMPDEST SWAP1 PUSH1 0x20 DUP4 ADD MSTORE SUB SWAP1 LOG1 DUP1 RETURN JUMPDEST SWAP1 POP DUP5 ADD CALLDATALOAD CODESIZE PUSH2 0x18C3 JUMP JUMPDEST DUP1 DUP6 MSTORE PUSH1 0x20 DUP6 KECCAK256 PUSH1 0x1F NOT DUP5 AND SWAP7 DUP7 JUMPDEST DUP9 DUP2 LT PUSH2 0x196F JUMPI POP DUP5 PUSH32 0xF7757A7272E50875150E6020AFE9040C7C2485F28D0513DAD0F5170AF4F20D43 SWAP8 SWAP9 LT PUSH2 0x1955 JUMPI JUMPDEST POP POP PUSH1 0x1 DUP4 DUP2 SHL ADD SWAP1 SSTORE PUSH2 0x18D7 JUMP JUMPDEST DUP6 ADD CALLDATALOAD PUSH1 0x0 NOT PUSH1 0x3 DUP7 SWAP1 SHL PUSH1 0xF8 AND SHR NOT AND SWAP1 SSTORE CODESIZE DUP1 PUSH2 0x1946 JUMP JUMPDEST SWAP1 SWAP2 PUSH1 0x20 PUSH1 0x1 DUP2 SWAP3 DUP6 DUP11 ADD CALLDATALOAD DUP2 SSTORE ADD SWAP4 ADD SWAP2 ADD PUSH2 0x1914 JUMP JUMPDEST PUSH2 0x19B2 SWAP1 DUP7 DUP7 MSTORE PUSH1 0x20 DUP7 KECCAK256 PUSH1 0x1F DUP6 ADD PUSH1 0x5 SHR DUP2 ADD SWAP2 PUSH1 0x20 DUP7 LT PUSH2 0x19B8 JUMPI JUMPDEST PUSH1 0x1F ADD PUSH1 0x5 SHR ADD SWAP1 PUSH2 0x2AA4 JUMP JUMPDEST CODESIZE PUSH2 0x188A JUMP JUMPDEST SWAP1 SWAP2 POP DUP2 SWAP1 PUSH2 0x19A5 JUMP JUMPDEST PUSH4 0x4E487B71 PUSH1 0xE0 SHL DUP5 MSTORE PUSH1 0x4 DUP5 SWAP1 MSTORE PUSH1 0x24 DUP5 REVERT JUMPDEST PUSH1 0x40 MLOAD PUSH3 0x461BCD PUSH1 0xE5 SHL DUP2 MSTORE PUSH1 0x20 PUSH1 0x4 DUP3 ADD MSTORE PUSH1 0x19 PUSH1 0x24 DUP3 ADD MSTORE PUSH32 0x47616D65206E616D652063616E6E6F7420626520656D70747900000000000000 PUSH1 0x44 DUP3 ADD MSTORE PUSH1 0x64 SWAP1 REVERT JUMPDEST PUSH1 0x40 MLOAD PUSH3 0x461BCD PUSH1 0xE5 SHL DUP2 MSTORE PUSH1 0x20 PUSH1 0x4 DUP3 ADD MSTORE PUSH1 0x17 PUSH1 0x24 DUP3 ADD MSTORE PUSH32 0x47616D6520616C72656164792072656769737465726564000000000000000000 PUSH1 0x44 DUP3 ADD MSTORE PUSH1 0x64 SWAP1 REVERT JUMPDEST PUSH1 0x40 MLOAD PUSH3 0x461BCD PUSH1 0xE5 SHL DUP2 MSTORE PUSH1 0x20 PUSH1 0x4 DUP3 ADD MSTORE PUSH1 0x14 PUSH1 0x24 DUP3 ADD MSTORE PUSH20 0x496E76616C69642067616D652061646472657373 PUSH1 0x60 SHL PUSH1 0x44 DUP3 ADD MSTORE PUSH1 0x64 SWAP1 REVERT JUMPDEST DUP3 DUP1 REVERT JUMPDEST POP CALLVALUE PUSH2 0x234 JUMPI DUP1 PUSH1 0x3 NOT CALLDATASIZE ADD SLT PUSH2 0x234 JUMPI PUSH2 0x1AB9 PUSH2 0x2D57 JUMP JUMPDEST SELFBALANCE DUP1 ISZERO PUSH2 0x1B32 JUMPI DUP2 SLOAD DUP3 SWAP2 DUP3 SWAP2 DUP3 SWAP2 SWAP1 PUSH1 0x1 PUSH1 0x1 PUSH1 0xA0 SHL SUB AND GAS CALL PUSH2 0x1ADC PUSH2 0x28F3 JUMP JUMPDEST POP ISZERO PUSH2 0x1AED JUMPI PUSH1 0x20 PUSH1 0x40 MLOAD PUSH1 0x1 DUP2 MSTORE RETURN JUMPDEST PUSH1 0x40 MLOAD PUSH3 0x461BCD PUSH1 0xE5 SHL DUP2 MSTORE PUSH1 0x20 PUSH1 0x4 DUP3 ADD MSTORE PUSH1 0x1C PUSH1 0x24 DUP3 ADD MSTORE PUSH32 0x455448207472616E7366657220746F206F776E6572206661696C656400000000 PUSH1 0x44 DUP3 ADD MSTORE PUSH1 0x64 SWAP1 REVERT JUMPDEST PUSH1 0x40 MLOAD PUSH3 0x461BCD PUSH1 0xE5 SHL DUP2 MSTORE PUSH1 0x20 PUSH1 0x4 DUP3 ADD MSTORE PUSH1 0x14 PUSH1 0x24 DUP3 ADD MSTORE PUSH20 0x4E6F2066756E647320746F207769746864726177 PUSH1 0x60 SHL PUSH1 0x44 DUP3 ADD MSTORE PUSH1 0x64 SWAP1 REVERT JUMPDEST POP CALLVALUE PUSH2 0x234 JUMPI DUP1 PUSH1 0x3 NOT CALLDATASIZE ADD SLT PUSH2 0x234 JUMPI PUSH2 0x108D PUSH1 0x40 MLOAD PUSH2 0x1642 DUP2 PUSH2 0x1B92 DUP2 PUSH2 0x27A2 JUMP JUMPDEST SUB DUP3 PUSH2 0x24A5 JUMP JUMPDEST POP CALLVALUE PUSH2 0x234 JUMPI PUSH1 0x20 CALLDATASIZE PUSH1 0x3 NOT ADD SLT PUSH2 0x234 JUMPI PUSH1 0x4 CALLDATALOAD PUSH1 0x1 PUSH1 0x1 PUSH1 0x40 SHL SUB DUP2 GT PUSH2 0x73C JUMPI PUSH2 0x1BCA SWAP1 CALLDATASIZE SWAP1 PUSH1 0x4 ADD PUSH2 0x23BC JUMP JUMPDEST PUSH2 0x1BD2 PUSH2 0x2D57 JUMP JUMPDEST PUSH2 0x1BF3 PUSH1 0xFF PUSH1 0x40 MLOAD DUP4 DUP6 DUP3 CALLDATACOPY PUSH1 0x20 DUP2 DUP6 DUP2 ADD PUSH1 0xD DUP2 MSTORE SUB ADD SWAP1 KECCAK256 SLOAD AND PUSH2 0x296F JUMP JUMPDEST PUSH1 0x7 SLOAD DUP1 ISZERO PUSH2 0x1D35 JUMPI PUSH1 0x40 MLOAD DUP3 DUP5 DUP3 CALLDATACOPY PUSH1 0xC DUP2 DUP5 ADD SWAP1 DUP2 MSTORE DUP2 SWAP1 SUB PUSH1 0x20 ADD SWAP1 KECCAK256 SLOAD PUSH1 0x1 PUSH1 0x1 PUSH1 0xA0 SHL SUB AND SWAP1 PUSH2 0x1C27 DUP2 PUSH2 0x2A3D JUMP JUMPDEST SWAP1 DUP6 JUMPDEST DUP2 DUP2 LT PUSH2 0x1CFE JUMPI POP POP DUP5 DUP3 EXTCODESIZE ISZERO PUSH2 0x234 JUMPI PUSH2 0x1C75 SWAP2 PUSH1 0x40 MLOAD DUP1 SWAP4 DUP2 SWAP3 PUSH4 0x7FBBE46F PUSH1 0xE0 SHL DUP4 MSTORE PUSH1 0x40 PUSH1 0x4 DUP5 ADD MSTORE PUSH2 0x1C63 PUSH1 0x44 DUP5 ADD PUSH2 0x27A2 JUMP JUMPDEST DUP4 DUP2 SUB PUSH1 0x3 NOT ADD PUSH1 0x24 DUP6 ADD MSTORE SWAP1 PUSH2 0x2582 JUMP JUMPDEST SUB DUP2 DUP4 DUP7 GAS CALL DUP1 ISZERO PUSH2 0x1CF3 JUMPI PUSH2 0x1CDA JUMPI JUMPDEST PUSH1 0x20 DUP6 PUSH32 0x556AE6F2A401959EA3E8F5C4035F8063EFF09C11D1565AB4F369920DD9DA3B36 DUP7 DUP7 DUP7 PUSH2 0x1CC4 PUSH1 0x40 MLOAD SWAP4 DUP5 SWAP4 PUSH1 0x60 DUP6 MSTORE PUSH1 0x60 DUP6 ADD SWAP2 PUSH2 0x2A83 JUMP JUMPDEST SWAP1 DUP7 DUP4 ADD MSTORE DUP5 PUSH1 0x40 DUP4 ADD MSTORE SUB SWAP1 LOG1 PUSH1 0x40 MLOAD SWAP1 DUP2 MSTORE RETURN JUMPDEST PUSH2 0x1CE5 DUP6 DUP1 SWAP3 PUSH2 0x24A5 JUMP JUMPDEST PUSH2 0x1CEF JUMPI CODESIZE PUSH2 0x1C86 JUMP JUMPDEST DUP4 DUP1 REVERT JUMPDEST PUSH1 0x40 MLOAD RETURNDATASIZE DUP8 DUP3 RETURNDATACOPY RETURNDATASIZE SWAP1 REVERT JUMPDEST DUP1 PUSH2 0x1D0A PUSH1 0x1 SWAP3 PUSH2 0x25B6 JUMP JUMPDEST DUP4 DUP1 PUSH1 0xA0 SHL SUB SWAP2 SLOAD SWAP1 PUSH1 0x3 SHL SHR AND DUP9 MSTORE PUSH1 0x9 PUSH1 0x20 MSTORE PUSH1 0x40 DUP9 KECCAK256 SLOAD PUSH2 0x1D2E DUP3 DUP7 PUSH2 0x2A6F JUMP JUMPDEST MSTORE ADD PUSH2 0x1C2A JUMP JUMPDEST PUSH1 0x40 MLOAD PUSH3 0x461BCD PUSH1 0xE5 SHL DUP2 MSTORE PUSH1 0x20 PUSH1 0x4 DUP3 ADD MSTORE PUSH1 0x11 PUSH1 0x24 DUP3 ADD MSTORE PUSH17 0x4E6F2061637469766520706C6179657273 PUSH1 0x78 SHL PUSH1 0x44 DUP3 ADD MSTORE PUSH1 0x64 SWAP1 REVERT JUMPDEST POP CALLVALUE PUSH2 0x234 JUMPI DUP1 PUSH1 0x3 NOT CALLDATASIZE ADD SLT PUSH2 0x234 JUMPI PUSH2 0x108D PUSH2 0x1D8A PUSH2 0x29C8 JUMP JUMPDEST PUSH1 0x40 MLOAD SWAP2 DUP3 SWAP2 PUSH1 0x20 DUP4 MSTORE PUSH1 0x20 DUP4 ADD SWAP1 PUSH2 0x2436 JUMP JUMPDEST POP CALLVALUE PUSH2 0x234 JUMPI DUP1 PUSH1 0x3 NOT CALLDATASIZE ADD SLT PUSH2 0x234 JUMPI PUSH1 0x2 SLOAD PUSH1 0x40 MLOAD PUSH1 0x1 PUSH1 0x1 PUSH1 0xA0 SHL SUB SWAP1 SWAP2 AND DUP2 MSTORE PUSH1 0x20 SWAP1 RETURN JUMPDEST POP CALLVALUE PUSH2 0x234 JUMPI PUSH1 0x20 CALLDATASIZE PUSH1 0x3 NOT ADD SLT PUSH2 0x234 JUMPI PUSH1 0x4 CALLDATALOAD PUSH2 0x1DE4 PUSH2 0x2D57 JUMP JUMPDEST DUP1 ISZERO PUSH2 0x1E58 JUMPI PUSH1 0x3 SLOAD DUP2 LT PUSH2 0x1DF9 JUMPI PUSH1 0x1 SSTORE DUP1 RETURN JUMPDEST PUSH1 0x40 MLOAD PUSH3 0x461BCD PUSH1 0xE5 SHL DUP2 MSTORE PUSH1 0x20 PUSH1 0x4 DUP3 ADD MSTORE PUSH1 0x31 PUSH1 0x24 DUP3 ADD MSTORE PUSH32 0x43616E6E6F7420736574206D617820706C61796572732062656C6F7720637572 PUSH1 0x44 DUP3 ADD MSTORE PUSH17 0x1C995B9D081C1B185E595C8818DBDD5B9D PUSH1 0x7A SHL PUSH1 0x64 DUP3 ADD MSTORE PUSH1 0x84 SWAP1 REVERT JUMPDEST PUSH1 0x40 MLOAD PUSH3 0x461BCD PUSH1 0xE5 SHL DUP2 MSTORE PUSH1 0x20 PUSH1 0x4 DUP3 ADD MSTORE PUSH1 0x22 PUSH1 0x24 DUP3 ADD MSTORE PUSH32 0x4D617820706C6179657273206D7573742062652067726561746572207468616E PUSH1 0x44 DUP3 ADD MSTORE PUSH2 0x203 PUSH1 0xF4 SHL PUSH1 0x64 DUP3 ADD MSTORE PUSH1 0x84 SWAP1 REVERT JUMPDEST POP CALLVALUE PUSH2 0x234 JUMPI PUSH1 0x20 CALLDATASIZE PUSH1 0x3 NOT ADD SLT PUSH2 0x234 JUMPI DUP1 PUSH1 0x4 CALLDATALOAD PUSH1 0x1 PUSH1 0x1 PUSH1 0x40 SHL SUB DUP2 GT PUSH2 0x753 JUMPI PUSH2 0x1EDB DUP3 SWAP2 CALLDATASIZE SWAP1 PUSH1 0x4 ADD PUSH2 0x23BC JUMP JUMPDEST PUSH2 0x1EE3 PUSH2 0x2D57 JUMP JUMPDEST PUSH2 0x1F04 PUSH1 0xFF PUSH1 0x40 MLOAD DUP4 DUP6 DUP3 CALLDATACOPY PUSH1 0x20 DUP2 DUP6 DUP2 ADD PUSH1 0xD DUP2 MSTORE SUB ADD SWAP1 KECCAK256 SLOAD AND PUSH2 0x296F JUMP JUMPDEST DUP1 PUSH1 0x40 MLOAD SWAP3 DUP4 CALLDATACOPY PUSH1 0xC SWAP1 DUP3 ADD SWAP1 DUP2 MSTORE DUP2 SWAP1 SUB PUSH1 0x20 ADD SWAP1 KECCAK256 SLOAD PUSH1 0x40 MLOAD PUSH4 0x6CBC2DED PUSH1 0xE0 SHL DUP2 MSTORE SWAP3 DUP4 SWAP2 PUSH1 0x4 SWAP2 DUP4 SWAP2 PUSH1 0x1 PUSH1 0x1 PUSH1 0xA0 SHL SUB AND GAS CALL SWAP1 DUP2 ISZERO PUSH2 0x748 JUMPI DUP3 SWAP2 PUSH2 0x1F60 JUMPI JUMPDEST PUSH1 0x40 MLOAD PUSH1 0x20 DUP1 DUP3 MSTORE DUP2 SWAP1 PUSH2 0x108D SWAP1 DUP3 ADD DUP6 PUSH2 0x237F JUMP JUMPDEST SWAP1 POP RETURNDATASIZE DUP1 DUP4 DUP4 RETURNDATACOPY PUSH2 0x1F71 DUP2 DUP4 PUSH2 0x24A5 JUMP JUMPDEST DUP2 ADD SWAP1 PUSH1 0x20 DUP2 DUP4 SUB SLT PUSH2 0x1A9C JUMPI DUP1 MLOAD SWAP1 PUSH1 0x1 PUSH1 0x1 PUSH1 0x40 SHL SUB DUP3 GT PUSH2 0x1CEF JUMPI ADD SWAP1 DUP1 PUSH1 0x1F DUP4 ADD SLT ISZERO PUSH2 0x1A9C JUMPI DUP2 MLOAD SWAP3 PUSH2 0x1FA8 DUP5 PUSH2 0x29B1 JUMP JUMPDEST SWAP3 PUSH2 0x1FB6 PUSH1 0x40 MLOAD SWAP5 DUP6 PUSH2 0x24A5 JUMP JUMPDEST DUP5 DUP5 MSTORE PUSH1 0x20 DUP1 DUP6 ADD SWAP6 PUSH1 0x5 SHL DUP3 ADD ADD SWAP3 DUP4 GT PUSH2 0x73C JUMPI PUSH1 0x20 ADD SWAP4 JUMPDEST DUP3 DUP6 LT PUSH2 0x1FE6 JUMPI POP POP POP PUSH2 0x108D SWAP2 POP CODESIZE PUSH2 0x1F4A JUMP JUMPDEST DUP5 MLOAD PUSH1 0x1 PUSH1 0x1 PUSH1 0xA0 SHL SUB DUP2 AND DUP2 SUB PUSH2 0x1A9C JUMPI DUP2 MSTORE PUSH1 0x20 SWAP5 DUP6 ADD SWAP5 ADD PUSH2 0x1FD1 JUMP JUMPDEST POP DUP1 PUSH1 0x3 NOT CALLDATASIZE ADD SLT PUSH2 0x234 JUMPI PUSH2 0x2021 PUSH1 0xFF PUSH1 0x5 SLOAD AND ISZERO PUSH2 0x2713 JUMP JUMPDEST PUSH1 0x6 SLOAD PUSH2 0x2030 DUP2 CALLVALUE LT ISZERO PUSH2 0x27E7 JUMP JUMPDEST CALLER DUP3 MSTORE PUSH1 0x4 PUSH1 0x20 MSTORE PUSH2 0x2049 PUSH1 0xFF PUSH1 0x40 DUP5 KECCAK256 SLOAD AND ISZERO PUSH2 0x2843 JUMP JUMPDEST PUSH1 0x2 SLOAD PUSH1 0x1 PUSH1 0x1 PUSH1 0xA0 SHL SUB AND SWAP1 DUP3 SWAP1 PUSH2 0x2063 DUP4 ISZERO ISZERO PUSH2 0x2884 JUMP JUMPDEST DUP3 EXTCODESIZE ISZERO PUSH2 0x73C JUMPI PUSH1 0x6 PUSH1 0x24 DUP4 SWAP3 PUSH1 0x40 MLOAD SWAP6 DUP7 SWAP4 DUP5 SWAP3 PUSH4 0xAA67C919 PUSH1 0xE0 SHL DUP5 MSTORE CALLER PUSH1 0x4 DUP6 ADD MSTORE DIV SWAP1 GAS CALL DUP1 ISZERO PUSH2 0x20C2 JUMPI PUSH2 0x20B2 JUMPI POP POP PUSH1 0x3 SLOAD CALLER DUP3 MSTORE PUSH1 0x9 PUSH1 0x20 MSTORE DUP1 PUSH1 0x40 DUP4 KECCAK256 SSTORE PUSH2 0x12F0 CALLER PUSH2 0x2758 JUMP JUMPDEST PUSH2 0x20BB SWAP2 PUSH2 0x24A5 JUMP JUMPDEST CODESIZE DUP2 PUSH2 0x12D4 JUMP JUMPDEST POP PUSH1 0x40 MLOAD SWAP1 RETURNDATASIZE SWAP1 DUP3 RETURNDATACOPY RETURNDATASIZE SWAP1 REVERT JUMPDEST POP CALLVALUE PUSH2 0x234 JUMPI DUP1 PUSH1 0x3 NOT CALLDATASIZE ADD SLT PUSH2 0x234 JUMPI PUSH1 0x40 MLOAD PUSH1 0x3 DUP1 SLOAD DUP1 DUP4 MSTORE SWAP1 DUP4 MSTORE SWAP1 SWAP2 PUSH1 0x20 DUP4 ADD SWAP2 PUSH32 0xC2575A0E9E593C00F959F8C92F12DB2869C3395A3B0502D05E2516446F71F85B SWAP2 JUMPDEST DUP2 DUP2 LT PUSH2 0x212E JUMPI PUSH2 0x108D DUP6 PUSH2 0x1642 DUP2 DUP8 SUB DUP3 PUSH2 0x24A5 JUMP JUMPDEST DUP3 SLOAD PUSH1 0x1 PUSH1 0x1 PUSH1 0xA0 SHL SUB AND DUP5 MSTORE PUSH1 0x20 SWAP1 SWAP4 ADD SWAP3 PUSH1 0x1 SWAP3 DUP4 ADD SWAP3 ADD PUSH2 0x2117 JUMP JUMPDEST POP CALLVALUE PUSH2 0x234 JUMPI DUP1 PUSH1 0x3 NOT CALLDATASIZE ADD SLT PUSH2 0x234 JUMPI PUSH1 0x20 PUSH1 0x6 SLOAD PUSH1 0x40 MLOAD SWAP1 DUP2 MSTORE RETURN JUMPDEST POP CALLVALUE PUSH2 0x234 JUMPI PUSH1 0x20 CALLDATASIZE PUSH1 0x3 NOT ADD SLT PUSH2 0x234 JUMPI PUSH1 0x4 CALLDATALOAD PUSH1 0x1 PUSH1 0x1 PUSH1 0x40 SHL SUB DUP2 GT PUSH2 0x73C JUMPI CALLDATASIZE PUSH1 0x23 DUP3 ADD SLT ISZERO PUSH2 0x73C JUMPI DUP1 PUSH1 0x4 ADD CALLDATALOAD SWAP1 PUSH1 0x1 PUSH1 0x1 PUSH1 0x40 SHL SUB DUP3 GT PUSH2 0x1A9C JUMPI CALLDATASIZE PUSH1 0x24 DUP4 PUSH1 0x5 SHL DUP4 ADD ADD GT PUSH2 0x1A9C JUMPI PUSH2 0x21C4 PUSH2 0x2D57 JUMP JUMPDEST PUSH2 0x21D3 PUSH1 0xFF PUSH1 0x5 SLOAD AND ISZERO PUSH2 0x2713 JUMP JUMPDEST PUSH1 0x3 SLOAD DUP3 DUP2 ADD DUP1 SWAP2 GT PUSH2 0x40C JUMPI PUSH1 0x1 SLOAD LT PUSH2 0x233A JUMPI DUP3 JUMPDEST DUP3 DUP2 LT ISZERO PUSH2 0x232A JUMPI PUSH1 0x5 DUP2 SWAP1 SHL DUP3 ADD PUSH1 0x24 ADD CALLDATALOAD SWAP1 PUSH1 0x1 PUSH1 0x1 PUSH1 0xA0 SHL SUB DUP3 AND DUP1 DUP4 SUB PUSH2 0xC22 JUMPI DUP1 ISZERO PUSH2 0x22EC JUMPI DUP1 DUP7 MSTORE PUSH1 0x4 PUSH1 0x20 MSTORE PUSH1 0xFF PUSH1 0x40 DUP8 KECCAK256 SLOAD AND PUSH2 0x22A7 JUMPI PUSH32 0x324CB0062138D65997C86CD3012489CEB351D602F2F55C7408306E8040C79F3F PUSH1 0x20 PUSH1 0x1 SWAP5 PUSH2 0x2286 PUSH1 0x3 SLOAD SWAP2 DUP6 DUP12 MSTORE PUSH1 0x9 DUP5 MSTORE DUP3 PUSH1 0x40 DUP13 KECCAK256 SSTORE PUSH2 0x226C DUP2 PUSH2 0x2758 JUMP JUMPDEST DUP6 DUP12 MSTORE PUSH1 0x4 DUP5 MSTORE PUSH1 0x40 DUP12 KECCAK256 DUP1 SLOAD PUSH1 0xFF NOT AND DUP10 OR SWAP1 SSTORE PUSH2 0x277D JUMP JUMPDEST DUP4 DUP10 MSTORE PUSH1 0x8 DUP3 MSTORE PUSH1 0x40 DUP1 DUP11 KECCAK256 DUP1 SLOAD PUSH1 0xFF NOT AND DUP9 OR SWAP1 SSTORE MLOAD SWAP1 DUP2 MSTORE LOG2 ADD PUSH2 0x21EA JUMP JUMPDEST PUSH1 0x40 MLOAD PUSH3 0x461BCD PUSH1 0xE5 SHL DUP2 MSTORE PUSH1 0x20 PUSH1 0x4 DUP3 ADD MSTORE PUSH1 0x19 PUSH1 0x24 DUP3 ADD MSTORE PUSH32 0x506C6179657220616C7265616479207265676973746572656400000000000000 PUSH1 0x44 DUP3 ADD MSTORE PUSH1 0x64 SWAP1 REVERT JUMPDEST PUSH1 0x40 MLOAD PUSH3 0x461BCD PUSH1 0xE5 SHL DUP2 MSTORE PUSH1 0x20 PUSH1 0x4 DUP3 ADD MSTORE PUSH1 0x16 PUSH1 0x24 DUP3 ADD MSTORE PUSH22 0x496E76616C696420706C617965722061646472657373 PUSH1 0x50 SHL PUSH1 0x44 DUP3 ADD MSTORE PUSH1 0x64 SWAP1 REVERT JUMPDEST DUP4 PUSH1 0x3 SLOAD PUSH1 0x1 SLOAD GT ISZERO PUSH2 0x1421 JUMPI DUP1 RETURN JUMPDEST PUSH1 0x40 MLOAD PUSH3 0x461BCD PUSH1 0xE5 SHL DUP2 MSTORE PUSH1 0x20 PUSH1 0x4 DUP3 ADD MSTORE PUSH1 0x1C PUSH1 0x24 DUP3 ADD MSTORE PUSH32 0x576F756C6420657863656564206D6178696D756D20706C617965727300000000 PUSH1 0x44 DUP3 ADD MSTORE PUSH1 0x64 SWAP1 REVERT JUMPDEST SWAP1 PUSH1 0x20 DUP1 DUP4 MLOAD SWAP3 DUP4 DUP2 MSTORE ADD SWAP3 ADD SWAP1 PUSH1 0x0 JUMPDEST DUP2 DUP2 LT PUSH2 0x239D JUMPI POP POP POP SWAP1 JUMP JUMPDEST DUP3 MLOAD PUSH1 0x1 PUSH1 0x1 PUSH1 0xA0 SHL SUB AND DUP5 MSTORE PUSH1 0x20 SWAP4 DUP5 ADD SWAP4 SWAP1 SWAP3 ADD SWAP2 PUSH1 0x1 ADD PUSH2 0x2390 JUMP JUMPDEST SWAP2 DUP2 PUSH1 0x1F DUP5 ADD SLT ISZERO PUSH2 0x23E9 JUMPI DUP3 CALLDATALOAD SWAP2 PUSH1 0x1 PUSH1 0x1 PUSH1 0x40 SHL SUB DUP4 GT PUSH2 0x23E9 JUMPI PUSH1 0x20 DUP4 DUP2 DUP7 ADD SWAP6 ADD ADD GT PUSH2 0x23E9 JUMPI JUMP JUMPDEST PUSH1 0x0 DUP1 REVERT JUMPDEST PUSH1 0x0 JUMPDEST DUP4 DUP2 LT PUSH2 0x2401 JUMPI POP POP PUSH1 0x0 SWAP2 ADD MSTORE JUMP JUMPDEST DUP2 DUP2 ADD MLOAD DUP4 DUP3 ADD MSTORE PUSH1 0x20 ADD PUSH2 0x23F1 JUMP JUMPDEST SWAP1 PUSH1 0x20 SWAP2 PUSH2 0x242A DUP2 MLOAD DUP1 SWAP3 DUP2 DUP6 MSTORE DUP6 DUP1 DUP7 ADD SWAP2 ADD PUSH2 0x23EE JUMP JUMPDEST PUSH1 0x1F ADD PUSH1 0x1F NOT AND ADD ADD SWAP1 JUMP JUMPDEST SWAP1 DUP1 PUSH1 0x20 DUP4 MLOAD SWAP2 DUP3 DUP2 MSTORE ADD SWAP2 PUSH1 0x20 DUP1 DUP4 PUSH1 0x5 SHL DUP4 ADD ADD SWAP5 ADD SWAP3 PUSH1 0x0 SWAP2 JUMPDEST DUP4 DUP4 LT PUSH2 0x2462 JUMPI POP POP POP POP POP SWAP1 JUMP JUMPDEST SWAP1 SWAP2 SWAP3 SWAP4 SWAP5 PUSH1 0x20 DUP1 PUSH2 0x2480 PUSH1 0x1 SWAP4 PUSH1 0x1F NOT DUP7 DUP3 SUB ADD DUP8 MSTORE DUP10 MLOAD PUSH2 0x2411 JUMP JUMPDEST SWAP8 ADD SWAP4 ADD SWAP4 ADD SWAP2 SWAP4 SWAP3 SWAP1 PUSH2 0x2453 JUMP JUMPDEST PUSH1 0x4 CALLDATALOAD SWAP1 PUSH1 0x1 PUSH1 0x1 PUSH1 0xA0 SHL SUB DUP3 AND DUP3 SUB PUSH2 0x23E9 JUMPI JUMP JUMPDEST SWAP1 PUSH1 0x1F DUP1 NOT SWAP2 ADD AND DUP2 ADD SWAP1 DUP2 LT PUSH1 0x1 PUSH1 0x1 PUSH1 0x40 SHL SUB DUP3 GT OR PUSH2 0x24C6 JUMPI PUSH1 0x40 MSTORE JUMP JUMPDEST PUSH4 0x4E487B71 PUSH1 0xE0 SHL PUSH1 0x0 MSTORE PUSH1 0x41 PUSH1 0x4 MSTORE PUSH1 0x24 PUSH1 0x0 REVERT JUMPDEST PUSH1 0x1 PUSH1 0x1 PUSH1 0x40 SHL SUB DUP2 GT PUSH2 0x24C6 JUMPI PUSH1 0x1F ADD PUSH1 0x1F NOT AND PUSH1 0x20 ADD SWAP1 JUMP JUMPDEST PUSH1 0x20 PUSH1 0x3 NOT DUP3 ADD SLT PUSH2 0x23E9 JUMPI PUSH1 0x4 CALLDATALOAD PUSH1 0x1 PUSH1 0x1 PUSH1 0x40 SHL SUB DUP2 GT PUSH2 0x23E9 JUMPI DUP2 PUSH1 0x23 DUP3 ADD SLT ISZERO PUSH2 0x23E9 JUMPI DUP1 PUSH1 0x4 ADD CALLDATALOAD SWAP1 PUSH2 0x252E DUP3 PUSH2 0x24DC JUMP JUMPDEST SWAP3 PUSH2 0x253C PUSH1 0x40 MLOAD SWAP5 DUP6 PUSH2 0x24A5 JUMP JUMPDEST DUP3 DUP5 MSTORE PUSH1 0x24 DUP4 DUP4 ADD ADD GT PUSH2 0x23E9 JUMPI DUP2 PUSH1 0x0 SWAP3 PUSH1 0x24 PUSH1 0x20 SWAP4 ADD DUP4 DUP7 ADD CALLDATACOPY DUP4 ADD ADD MSTORE SWAP1 JUMP JUMPDEST SWAP1 PUSH1 0x5 DUP3 LT ISZERO PUSH2 0x256C JUMPI MSTORE JUMP JUMPDEST PUSH4 0x4E487B71 PUSH1 0xE0 SHL PUSH1 0x0 MSTORE PUSH1 0x21 PUSH1 0x4 MSTORE PUSH1 0x24 PUSH1 0x0 REVERT JUMPDEST SWAP1 PUSH1 0x20 DUP1 DUP4 MLOAD SWAP3 DUP4 DUP2 MSTORE ADD SWAP3 ADD SWAP1 PUSH1 0x0 JUMPDEST DUP2 DUP2 LT PUSH2 0x25A0 JUMPI POP POP POP SWAP1 JUMP JUMPDEST DUP3 MLOAD DUP5 MSTORE PUSH1 0x20 SWAP4 DUP5 ADD SWAP4 SWAP1 SWAP3 ADD SWAP2 PUSH1 0x1 ADD PUSH2 0x2593 JUMP JUMPDEST PUSH1 0x7 SLOAD DUP2 LT ISZERO PUSH2 0x25D1 JUMPI PUSH1 0x7 PUSH1 0x0 MSTORE PUSH1 0x20 PUSH1 0x0 KECCAK256 ADD SWAP1 PUSH1 0x0 SWAP1 JUMP JUMPDEST PUSH4 0x4E487B71 PUSH1 0xE0 SHL PUSH1 0x0 MSTORE PUSH1 0x32 PUSH1 0x4 MSTORE PUSH1 0x24 PUSH1 0x0 REVERT JUMPDEST PUSH1 0xE SLOAD DUP2 LT ISZERO PUSH2 0x25D1 JUMPI PUSH1 0xE PUSH1 0x0 MSTORE PUSH1 0x20 PUSH1 0x0 KECCAK256 ADD SWAP1 PUSH1 0x0 SWAP1 JUMP JUMPDEST PUSH1 0x3 SLOAD DUP2 LT ISZERO PUSH2 0x25D1 JUMPI PUSH1 0x3 PUSH1 0x0 MSTORE PUSH1 0x20 PUSH1 0x0 KECCAK256 ADD SWAP1 PUSH1 0x0 SWAP1 JUMP JUMPDEST DUP1 SLOAD DUP3 LT ISZERO PUSH2 0x25D1 JUMPI PUSH1 0x0 MSTORE PUSH1 0x20 PUSH1 0x0 KECCAK256 ADD SWAP1 PUSH1 0x0 SWAP1 JUMP JUMPDEST SWAP1 PUSH1 0x1 DUP3 DUP2 SHR SWAP3 AND DUP1 ISZERO PUSH2 0x2665 JUMPI JUMPDEST PUSH1 0x20 DUP4 LT EQ PUSH2 0x264F JUMPI JUMP JUMPDEST PUSH4 0x4E487B71 PUSH1 0xE0 SHL PUSH1 0x0 MSTORE PUSH1 0x22 PUSH1 0x4 MSTORE PUSH1 0x24 PUSH1 0x0 REVERT JUMPDEST SWAP2 PUSH1 0x7F AND SWAP2 PUSH2 0x2644 JUMP JUMPDEST SWAP1 PUSH1 0x40 MLOAD SWAP2 DUP3 PUSH1 0x0 DUP3 SLOAD SWAP3 PUSH2 0x2683 DUP5 PUSH2 0x2635 JUMP JUMPDEST DUP1 DUP5 MSTORE SWAP4 PUSH1 0x1 DUP2 AND SWAP1 DUP2 ISZERO PUSH2 0x26F1 JUMPI POP PUSH1 0x1 EQ PUSH2 0x26AA JUMPI JUMPDEST POP PUSH2 0x26A8 SWAP3 POP SUB DUP4 PUSH2 0x24A5 JUMP JUMPDEST JUMP JUMPDEST SWAP1 POP PUSH1 0x0 SWAP3 SWAP2 SWAP3 MSTORE PUSH1 0x20 PUSH1 0x0 KECCAK256 SWAP1 PUSH1 0x0 SWAP2 JUMPDEST DUP2 DUP4 LT PUSH2 0x26D5 JUMPI POP POP SWAP1 PUSH1 0x20 PUSH2 0x26A8 SWAP3 DUP3 ADD ADD CODESIZE PUSH2 0x269B JUMP JUMPDEST PUSH1 0x20 SWAP2 SWAP4 POP DUP1 PUSH1 0x1 SWAP2 SLOAD DUP4 DUP6 DUP10 ADD ADD MSTORE ADD SWAP2 ADD SWAP1 SWAP2 DUP5 SWAP3 PUSH2 0x26BC JUMP JUMPDEST SWAP1 POP PUSH1 0x20 SWAP3 POP PUSH2 0x26A8 SWAP5 SWAP2 POP PUSH1 0xFF NOT AND DUP3 DUP5 ADD MSTORE ISZERO ISZERO PUSH1 0x5 SHL DUP3 ADD ADD CODESIZE PUSH2 0x269B JUMP JUMPDEST ISZERO PUSH2 0x271A JUMPI JUMP JUMPDEST PUSH1 0x40 MLOAD PUSH3 0x461BCD PUSH1 0xE5 SHL DUP2 MSTORE PUSH1 0x20 PUSH1 0x4 DUP3 ADD MSTORE PUSH1 0x16 PUSH1 0x24 DUP3 ADD MSTORE PUSH22 0x149959DA5CDD1C985D1A5BDB881A5CC818DB1BDCD959 PUSH1 0x52 SHL PUSH1 0x44 DUP3 ADD MSTORE PUSH1 0x64 SWAP1 REVERT JUMPDEST PUSH1 0x3 SLOAD SWAP1 PUSH1 0x1 PUSH1 0x40 SHL DUP3 LT ISZERO PUSH2 0x24C6 JUMPI PUSH2 0x2DB DUP3 PUSH1 0x1 PUSH2 0x26A8 SWAP5 ADD PUSH1 0x3 SSTORE PUSH1 0x3 PUSH2 0x261D JUMP JUMPDEST PUSH1 0x7 SLOAD SWAP1 PUSH1 0x1 PUSH1 0x40 SHL DUP3 LT ISZERO PUSH2 0x24C6 JUMPI PUSH2 0x2DB DUP3 PUSH1 0x1 PUSH2 0x26A8 SWAP5 ADD PUSH1 0x7 SSTORE PUSH1 0x7 PUSH2 0x261D JUMP JUMPDEST PUSH1 0x20 PUSH1 0x7 SLOAD SWAP2 DUP3 DUP2 MSTORE ADD SWAP1 PUSH1 0x7 PUSH1 0x0 MSTORE PUSH1 0x20 PUSH1 0x0 KECCAK256 SWAP1 PUSH1 0x0 JUMPDEST DUP2 DUP2 LT PUSH2 0x27C8 JUMPI POP POP POP SWAP1 JUMP JUMPDEST DUP3 SLOAD PUSH1 0x1 PUSH1 0x1 PUSH1 0xA0 SHL SUB AND DUP5 MSTORE PUSH1 0x20 SWAP1 SWAP4 ADD SWAP3 PUSH1 0x1 SWAP3 DUP4 ADD SWAP3 ADD PUSH2 0x27BB JUMP JUMPDEST ISZERO PUSH2 0x27EE JUMPI JUMP JUMPDEST PUSH1 0x40 MLOAD PUSH3 0x461BCD PUSH1 0xE5 SHL DUP2 MSTORE PUSH1 0x20 PUSH1 0x4 DUP3 ADD MSTORE PUSH1 0x27 PUSH1 0x24 DUP3 ADD MSTORE PUSH32 0x4D7573742073656E64206174206C656173742074686520726567697374726174 PUSH1 0x44 DUP3 ADD MSTORE PUSH7 0x696F6E20666565 PUSH1 0xC8 SHL PUSH1 0x64 DUP3 ADD MSTORE PUSH1 0x84 SWAP1 REVERT JUMPDEST ISZERO PUSH2 0x284A JUMPI JUMP JUMPDEST PUSH1 0x40 MLOAD PUSH3 0x461BCD PUSH1 0xE5 SHL DUP2 MSTORE PUSH1 0x20 PUSH1 0x4 DUP3 ADD MSTORE PUSH1 0x12 PUSH1 0x24 DUP3 ADD MSTORE PUSH18 0x105B1C9958591E481C9959DA5CDD195C9959 PUSH1 0x72 SHL PUSH1 0x44 DUP3 ADD MSTORE PUSH1 0x64 SWAP1 REVERT JUMPDEST ISZERO PUSH2 0x288B JUMPI JUMP JUMPDEST PUSH1 0x40 MLOAD PUSH3 0x461BCD PUSH1 0xE5 SHL DUP2 MSTORE PUSH1 0x20 PUSH1 0x4 DUP3 ADD MSTORE PUSH1 0x17 PUSH1 0x24 DUP3 ADD MSTORE PUSH32 0x506F696E747320636F6E7472616374206E6F7420736574000000000000000000 PUSH1 0x44 DUP3 ADD MSTORE PUSH1 0x64 SWAP1 REVERT JUMPDEST SWAP2 SWAP1 DUP3 SUB SWAP2 DUP3 GT PUSH2 0x28DD JUMPI JUMP JUMPDEST PUSH4 0x4E487B71 PUSH1 0xE0 SHL PUSH1 0x0 MSTORE PUSH1 0x11 PUSH1 0x4 MSTORE PUSH1 0x24 PUSH1 0x0 REVERT JUMPDEST RETURNDATASIZE ISZERO PUSH2 0x291E JUMPI RETURNDATASIZE SWAP1 PUSH2 0x2904 DUP3 PUSH2 0x24DC JUMP JUMPDEST SWAP2 PUSH2 0x2912 PUSH1 0x40 MLOAD SWAP4 DUP5 PUSH2 0x24A5 JUMP JUMPDEST DUP3 MSTORE RETURNDATASIZE PUSH1 0x0 PUSH1 0x20 DUP5 ADD RETURNDATACOPY JUMP JUMPDEST PUSH1 0x60 SWAP1 JUMP JUMPDEST ISZERO PUSH2 0x292A JUMPI JUMP JUMPDEST PUSH1 0x40 MLOAD PUSH3 0x461BCD PUSH1 0xE5 SHL DUP2 MSTORE PUSH1 0x20 PUSH1 0x4 DUP3 ADD MSTORE PUSH1 0x1F PUSH1 0x24 DUP3 ADD MSTORE PUSH32 0x4661696C656420746F2072657475726E20657863657373207061796D656E7400 PUSH1 0x44 DUP3 ADD MSTORE PUSH1 0x64 SWAP1 REVERT JUMPDEST ISZERO PUSH2 0x2976 JUMPI JUMP JUMPDEST PUSH1 0x40 MLOAD PUSH3 0x461BCD PUSH1 0xE5 SHL DUP2 MSTORE PUSH1 0x20 PUSH1 0x4 DUP3 ADD MSTORE PUSH1 0x13 PUSH1 0x24 DUP3 ADD MSTORE PUSH19 0x11D85B59481B9BDD081C9959DA5CDD195C9959 PUSH1 0x6A SHL PUSH1 0x44 DUP3 ADD MSTORE PUSH1 0x64 SWAP1 REVERT JUMPDEST PUSH1 0x1 PUSH1 0x1 PUSH1 0x40 SHL SUB DUP2 GT PUSH2 0x24C6 JUMPI PUSH1 0x5 SHL PUSH1 0x20 ADD SWAP1 JUMP JUMPDEST PUSH1 0xE SLOAD SWAP1 PUSH2 0x29D5 DUP3 PUSH2 0x29B1 JUMP JUMPDEST SWAP2 PUSH2 0x29E3 PUSH1 0x40 MLOAD SWAP4 DUP5 PUSH2 0x24A5 JUMP JUMPDEST DUP1 DUP4 MSTORE PUSH1 0xE PUSH1 0x0 SWAP1 DUP2 MSTORE PUSH32 0xBB7B4A454DC3493923482F07822329ED19E8244EFF582CC204F8554C3620C3FD PUSH1 0x20 DUP6 ADD JUMPDEST DUP4 DUP4 LT PUSH2 0x2A20 JUMPI POP POP POP POP JUMP JUMPDEST PUSH1 0x1 PUSH1 0x20 DUP2 SWAP3 PUSH2 0x2A2F DUP6 PUSH2 0x266F JUMP JUMPDEST DUP2 MSTORE ADD SWAP3 ADD SWAP3 ADD SWAP2 SWAP1 PUSH2 0x2A13 JUMP JUMPDEST SWAP1 PUSH2 0x2A47 DUP3 PUSH2 0x29B1 JUMP JUMPDEST PUSH2 0x2A54 PUSH1 0x40 MLOAD SWAP2 DUP3 PUSH2 0x24A5 JUMP JUMPDEST DUP3 DUP2 MSTORE DUP1 SWAP3 PUSH2 0x2A65 PUSH1 0x1F NOT SWAP2 PUSH2 0x29B1 JUMP JUMPDEST ADD SWAP1 PUSH1 0x20 CALLDATASIZE SWAP2 ADD CALLDATACOPY JUMP JUMPDEST DUP1 MLOAD DUP3 LT ISZERO PUSH2 0x25D1 JUMPI PUSH1 0x20 SWAP2 PUSH1 0x5 SHL ADD ADD SWAP1 JUMP JUMPDEST SWAP1 DUP1 PUSH1 0x20 SWAP4 SWAP3 DUP2 DUP5 MSTORE DUP5 DUP5 ADD CALLDATACOPY PUSH1 0x0 DUP3 DUP3 ADD DUP5 ADD MSTORE PUSH1 0x1F ADD PUSH1 0x1F NOT AND ADD ADD SWAP1 JUMP JUMPDEST DUP2 DUP2 LT PUSH2 0x2AAF JUMPI POP POP JUMP JUMPDEST PUSH1 0x0 DUP2 SSTORE PUSH1 0x1 ADD PUSH2 0x2AA4 JUMP JUMPDEST PUSH1 0x1 PUSH1 0x1 PUSH1 0xA0 SHL SUB AND PUSH1 0x0 DUP2 DUP2 MSTORE PUSH1 0x4 PUSH1 0x20 MSTORE PUSH1 0x40 SWAP1 KECCAK256 SLOAD SWAP1 SWAP2 SWAP1 PUSH1 0xFF AND ISZERO PUSH2 0x2CF0 JUMPI DUP2 PUSH1 0x0 MSTORE PUSH1 0x8 PUSH1 0x20 MSTORE PUSH1 0xFF PUSH1 0x40 PUSH1 0x0 KECCAK256 SLOAD AND SWAP1 DUP3 PUSH1 0x0 MSTORE PUSH1 0x9 PUSH1 0x20 MSTORE PUSH1 0x40 PUSH1 0x0 KECCAK256 SLOAD PUSH1 0x20 SWAP2 PUSH1 0x40 MLOAD PUSH2 0x2B10 DUP5 DUP3 PUSH2 0x24A5 JUMP JUMPDEST PUSH1 0x0 DUP1 DUP3 MSTORE PUSH1 0xE SLOAD SWAP1 SWAP7 DUP8 SWAP6 SWAP1 DUP7 DUP1 JUMPDEST DUP5 DUP2 LT PUSH2 0x2B33 JUMPI POP POP POP POP POP SWAP5 SWAP4 SWAP3 SWAP2 SWAP1 JUMP JUMPDEST PUSH2 0x2B3F PUSH2 0xA92 DUP3 PUSH2 0x25E7 JUMP JUMPDEST SWAP1 PUSH1 0x40 MLOAD DUP3 MLOAD PUSH2 0x2B52 DUP2 DUP4 DUP10 DUP8 ADD PUSH2 0x23EE JUMP JUMPDEST PUSH1 0xC SWAP1 DUP3 ADD SWAP1 DUP2 MSTORE DUP2 SWAP1 SUB DUP7 ADD SWAP1 KECCAK256 SLOAD PUSH1 0x1 PUSH1 0x1 PUSH1 0xA0 SHL SUB AND SWAP2 DUP3 PUSH2 0x2B7D JUMPI JUMPDEST POP PUSH1 0x1 SWAP2 POP ADD PUSH2 0x2B20 JUMP JUMPDEST PUSH1 0x40 MLOAD PUSH4 0x773B549D PUSH1 0xE0 SHL DUP2 MSTORE PUSH1 0x4 DUP2 ADD DUP7 SWAP1 MSTORE SWAP1 DUP7 DUP3 PUSH1 0x24 DUP2 DUP8 GAS STATICCALL SWAP2 DUP3 ISZERO PUSH2 0x2CB5 JUMPI PUSH1 0x0 SWAP3 PUSH2 0x2CC1 JUMPI JUMPDEST POP DUP2 PUSH2 0x2BB6 JUMPI JUMPDEST POP PUSH2 0x2B72 JUMP JUMPDEST PUSH1 0xA0 PUSH1 0x24 SWAP4 SWAP5 PUSH1 0x40 MLOAD SWAP5 DUP6 DUP1 SWAP3 PUSH4 0x47E1D55 PUSH1 0xE4 SHL DUP3 MSTORE DUP7 PUSH1 0x4 DUP4 ADD MSTORE GAS STATICCALL SWAP3 DUP4 ISZERO PUSH2 0x2CB5 JUMPI PUSH1 0x0 SWAP4 PUSH2 0x2C1C JUMPI JUMPDEST POP PUSH1 0x60 DUP4 ADD MLOAD DUP6 DUP2 GT PUSH2 0x2BFB JUMPI JUMPDEST POP DUP4 SWAP3 POP PUSH2 0x2BB0 JUMP JUMPDEST SWAP4 SWAP12 POP SWAP4 POP SWAP7 POP SWAP11 POP SWAP1 SWAP5 SWAP10 MLOAD PUSH1 0x5 DUP2 LT ISZERO PUSH2 0x256C JUMPI SWAP8 PUSH1 0x1 CODESIZE DUP1 DUP1 PUSH2 0x2BF2 JUMP JUMPDEST PUSH1 0xA0 SWAP4 SWAP2 SWAP4 DUP2 RETURNDATASIZE DUP3 GT PUSH2 0x2CAD JUMPI JUMPDEST DUP2 PUSH2 0x2C37 PUSH1 0xA0 SWAP4 DUP4 PUSH2 0x24A5 JUMP JUMPDEST DUP2 ADD SUB SLT PUSH2 0x73C JUMPI PUSH1 0x40 MLOAD SWAP2 PUSH1 0xA0 DUP4 ADD DUP4 DUP2 LT PUSH1 0x1 PUSH1 0x1 PUSH1 0x40 SHL SUB DUP3 GT OR PUSH2 0x2C99 JUMPI PUSH1 0x40 MSTORE DUP2 MLOAD SWAP1 PUSH1 0x5 DUP3 LT ISZERO PUSH2 0x234 JUMPI POP SWAP1 PUSH1 0x80 SWAP2 DUP4 MSTORE DUP9 DUP2 ADD MLOAD DUP10 DUP5 ADD MSTORE PUSH1 0x40 DUP2 ADD MLOAD PUSH1 0x40 DUP5 ADD MSTORE PUSH1 0x60 DUP2 ADD MLOAD PUSH1 0x60 DUP5 ADD MSTORE ADD MLOAD PUSH1 0x80 DUP3 ADD MSTORE SWAP2 CODESIZE PUSH2 0x2BE4 JUMP JUMPDEST PUSH4 0x4E487B71 PUSH1 0xE0 SHL DUP3 MSTORE PUSH1 0x41 PUSH1 0x4 MSTORE PUSH1 0x24 DUP3 REVERT JUMPDEST RETURNDATASIZE SWAP2 POP PUSH2 0x2C2A JUMP JUMPDEST PUSH1 0x40 MLOAD RETURNDATASIZE PUSH1 0x0 DUP3 RETURNDATACOPY RETURNDATASIZE SWAP1 REVERT JUMPDEST SWAP1 SWAP2 DUP8 DUP3 DUP2 RETURNDATASIZE DUP4 GT PUSH2 0x2CE9 JUMPI JUMPDEST PUSH2 0x2CD8 DUP2 DUP4 PUSH2 0x24A5 JUMP JUMPDEST DUP2 ADD SUB SLT PUSH2 0x234 JUMPI POP MLOAD SWAP1 CODESIZE PUSH2 0x2BA9 JUMP JUMPDEST POP RETURNDATASIZE PUSH2 0x2CCE JUMP JUMPDEST SWAP1 POP PUSH1 0x40 MLOAD PUSH2 0x2D00 PUSH1 0x20 DUP3 PUSH2 0x24A5 JUMP JUMPDEST PUSH1 0x0 DUP2 MSTORE SWAP1 PUSH1 0x0 SWAP1 PUSH1 0x0 SWAP1 PUSH1 0x0 SWAP1 PUSH1 0x0 SWAP1 JUMP JUMPDEST ISZERO PUSH2 0x2D1A JUMPI JUMP JUMPDEST PUSH1 0x40 MLOAD PUSH3 0x461BCD PUSH1 0xE5 SHL DUP2 MSTORE PUSH1 0x20 PUSH1 0x4 DUP3 ADD MSTORE PUSH1 0x15 PUSH1 0x24 DUP3 ADD MSTORE PUSH21 0x141B185E595C881B9BDD081C9959DA5CDD195C9959 PUSH1 0x5A SHL PUSH1 0x44 DUP3 ADD MSTORE PUSH1 0x64 SWAP1 REVERT JUMPDEST PUSH1 0x0 SLOAD PUSH1 0x1 PUSH1 0x1 PUSH1 0xA0 SHL SUB AND CALLER SUB PUSH2 0x2D6B JUMPI JUMP JUMPDEST PUSH4 0x118CDAA7 PUSH1 0xE0 SHL PUSH1 0x0 MSTORE CALLER PUSH1 0x4 MSTORE PUSH1 0x24 PUSH1 0x0 REVERT INVALID LOG2 PUSH5 0x6970667358 0x22 SLT KECCAK256 PC 0x4B CALLVALUE 0xDE STATICCALL 0xA6 ISZERO 0xE2 0xFC PUSH7 0x28890132B57311 CALL 0xD7 SWAP11 0x25 SWAP1 CALLVALUE ISZERO 0xE3 POP SWAP2 DELEGATECALL SWAP5 ADD DUP1 0x27 PUSH5 0x736F6C6343 STOP ADDMOD SHR STOP CALLER "},"methodIdentifiers":{"activePlayers(uint256)":"b55f108f","closeRegistration()":"7dc673bc","eliminatedPlayers(uint256)":"d03b547e","endExpiredGames(string)":"b6e79c59","endGames(string)":"1bc8c8a0","finalPlacements(address)":"c07dda4a","gameAddresses(string)":"6a6b2722","getActivePlayerCount()":"4e347f2a","getActivePlayers()":"3c4f5a66","getActivePlayersAndNumbers()":"6e24b939","getEliminatedPlayerCount()":"fea55dad","getEliminatedPlayers()":"64328b9c","getGames()":"c04c5947","getPlayerCount()":"c2e52206","getPlayerFinalPlacement(address)":"71259638","getPlayerInfo(address)":"59328401","getPlayerNumber(address)":"ada4a401","getRegisteredGames()":"2e7ea48a","getRegisteredPlayers()":"1a8e2514","initializeGame(string)":"39e160f1","isActivePlayer(address)":"54a7d931","isGameRegistered(string)":"55e226c7","isRegistered(address)":"c3c5a547","maxPlayers()":"4c2412a2","owner()":"8da5cb5b","playerEliminated(address)":"fbdb3c74","playerNumbers(address)":"e03a0288","pointsContract()":"2b4f8a1f","register()":"1aa3a008","registerGame(string,address)":"4aefbbe7","registerMe()":"9a198d61","registerPlayersBatch(address[])":"1247958e","registerWithReferral(string)":"8ba90d80","registeredGames(uint256)":"9e3c5a72","registeredPlayers(uint256)":"89a5b229","registrationClosed()":"9f9a093c","registrationFee()":"14c44e09","renounceOwnership()":"715018a6","resetGame()":"bb472219","setMaxPlayers(uint256)":"288dee3b","setPointsContract(address)":"95754abb","setRegistrationFee(uint256)":"c320c727","startGames(string)":"d4e103d5","toggleRegistration()":"d23d08a7","transferOwnership(address)":"f2fde38b","withdraw()":"3ccfd60b"}}}}}