{"contracts/Points.sol":{"Points":{"abi":[{"inputs":[],"stateMutability":"nonpayable","type":"constructor"},{"inputs":[{"internalType":"uint256","name":"min","type":"uint256"}],"name":"InvalidDeposit","type":"error"},{"inputs":[],"name":"InvalidReferralCode","type":"error"},{"inputs":[{"internalType":"address","name":"owner","type":"address"}],"name":"OwnableInvalidOwner","type":"error"},{"inputs":[{"internalType":"address","name":"account","type":"address"}],"name":"OwnableUnauthorizedAccount","type":"error"},{"inputs":[{"internalType":"uint256","name":"remaining","type":"uint256"}],"name":"PointsCapReached","type":"error"},{"inputs":[],"name":"ReferralCodeTaken","type":"error"},{"inputs":[],"name":"ReferralCodeTooLong","type":"error"},{"anonymous":false,"inputs":[{"indexed":true,"internalType":"address","name":"depositor","type":"address"},{"indexed":false,"internalType":"uint256","name":"amount","type":"uint256"}],"name":"CashoutDepositReceived","type":"event"},{"anonymous":false,"inputs":[{"indexed":true,"internalType":"address","name":"contractAddress","type":"address"},{"indexed":false,"internalType":"bool","name":"authorized","type":"bool"}],"name":"ContractAuthorizationChanged","type":"event"},{"anonymous":false,"inputs":[{"indexed":true,"internalType":"address","name":"previousOwner","type":"address"},{"indexed":true,"internalType":"address","name":"newOwner","type":"address"}],"name":"OwnershipTransferred","type":"event"},{"anonymous":false,"inputs":[{"indexed":true,"internalType":"address","name":"recipient","type":"address"},{"indexed":false,"internalType":"uint256","name":"amount","type":"uint256"}],"name":"PointsAwarded","type":"event"},{"anonymous":false,"inputs":[{"indexed":true,"internalType":"address","name":"recipient","type":"address"},{"indexed":false,"internalType":"uint256","name":"amount","type":"uint256"},{"indexed":true,"internalType":"address","name":"authorizedContract","type":"address"}],"name":"PointsAwardedByContract","type":"event"},{"anonymous":false,"inputs":[{"indexed":true,"internalType":"address","name":"user","type":"address"},{"indexed":false,"internalType":"string","name":"code","type":"string"}],"name":"ReferralCodeRegistered","type":"event"},{"anonymous":false,"inputs":[{"indexed":true,"internalType":"address","name":"user","type":"address"},{"indexed":false,"internalType":"uint256","name":"points","type":"uint256"},{"indexed":false,"internalType":"uint256","name":"ethAmount","type":"uint256"}],"name":"ReferralPointsCashedOut","type":"event"},{"anonymous":false,"inputs":[{"indexed":true,"internalType":"address","name":"user","type":"address"},{"indexed":false,"internalType":"string","name":"code","type":"string"},{"indexed":true,"internalType":"address","name":"referrer","type":"address"}],"name":"ReferralUsed","type":"event"},{"anonymous":false,"inputs":[{"indexed":true,"internalType":"address","name":"owner","type":"address"},{"indexed":false,"internalType":"uint256","name":"amount","type":"uint256"}],"name":"Withdrawn","type":"event"},{"inputs":[],"name":"MAX_POINTS","outputs":[{"internalType":"uint256","name":"","type":"uint256"}],"stateMutability":"view","type":"function"},{"inputs":[],"name":"MIN_DEPOSIT","outputs":[{"internalType":"uint256","name":"","type":"uint256"}],"stateMutability":"view","type":"function"},{"inputs":[],"name":"POINTS_PER_S","outputs":[{"internalType":"uint256","name":"","type":"uint256"}],"stateMutability":"view","type":"function"},{"inputs":[],"name":"POINTS_PER_S_CASHOUT","outputs":[{"internalType":"uint256","name":"","type":"uint256"}],"stateMutability":"view","type":"function"},{"inputs":[{"internalType":"uint256","name":"","type":"uint256"}],"name":"addressList","outputs":[{"internalType":"address","name":"","type":"address"}],"stateMutability":"view","type":"function"},{"inputs":[{"internalType":"address","name":"","type":"address"}],"name":"addressToReferralCode","outputs":[{"internalType":"string","name":"","type":"string"}],"stateMutability":"view","type":"function"},{"inputs":[{"internalType":"address","name":"recipient","type":"address"},{"internalType":"uint256","name":"amount","type":"uint256"},{"internalType":"bool","name":"isReferralPoints","type":"bool"}],"name":"assignPoints","outputs":[],"stateMutability":"nonpayable","type":"function"},{"inputs":[{"internalType":"address","name":"","type":"address"}],"name":"authorizedContracts","outputs":[{"internalType":"bool","name":"","type":"bool"}],"stateMutability":"view","type":"function"},{"inputs":[{"internalType":"address","name":"recipient","type":"address"},{"internalType":"uint256","name":"pointsAmount","type":"uint256"},{"internalType":"bool","name":"isWithdrawable","type":"bool"}],"name":"awardPointsForPayout","outputs":[],"stateMutability":"nonpayable","type":"function"},{"inputs":[{"internalType":"uint256","name":"amount","type":"uint256"}],"name":"cashOutReferralPoints","outputs":[],"stateMutability":"nonpayable","type":"function"},{"inputs":[],"name":"deposit","outputs":[],"stateMutability":"payable","type":"function"},{"inputs":[{"internalType":"address","name":"recipient","type":"address"},{"internalType":"string","name":"referralCode","type":"string"}],"name":"depositFor","outputs":[],"stateMutability":"payable","type":"function"},{"inputs":[{"internalType":"address","name":"recipient","type":"address"}],"name":"depositFor","outputs":[],"stateMutability":"payable","type":"function"},{"inputs":[],"name":"depositForCashouts","outputs":[],"stateMutability":"payable","type":"function"},{"inputs":[],"name":"getAddressCount","outputs":[{"internalType":"uint256","name":"","type":"uint256"}],"stateMutability":"view","type":"function"},{"inputs":[{"internalType":"uint256","name":"start","type":"uint256"},{"internalType":"uint256","name":"size","type":"uint256"}],"name":"getAddressesPaginated","outputs":[{"internalType":"address[]","name":"addresses","type":"address[]"},{"internalType":"uint256[]","name":"balances","type":"uint256[]"},{"internalType":"uint256[]","name":"withdrawableBalances","type":"uint256[]"}],"stateMutability":"view","type":"function"},{"inputs":[],"name":"getLeaderboard","outputs":[{"internalType":"address[]","name":"topAddresses","type":"address[]"},{"internalType":"uint256[]","name":"topBalances","type":"uint256[]"},{"internalType":"uint256[]","name":"withdrawableBalances","type":"uint256[]"}],"stateMutability":"view","type":"function"},{"inputs":[{"internalType":"address","name":"account","type":"address"}],"name":"getPoints","outputs":[{"internalType":"uint256","name":"total","type":"uint256"},{"internalType":"uint256","name":"withdrawable","type":"uint256"}],"stateMutability":"view","type":"function"},{"inputs":[],"name":"getRemainingPoints","outputs":[{"internalType":"uint256","name":"","type":"uint256"}],"stateMutability":"view","type":"function"},{"inputs":[{"internalType":"address","name":"","type":"address"}],"name":"hasPoints","outputs":[{"internalType":"bool","name":"","type":"bool"}],"stateMutability":"view","type":"function"},{"inputs":[],"name":"owner","outputs":[{"internalType":"address","name":"","type":"address"}],"stateMutability":"view","type":"function"},{"inputs":[{"internalType":"address","name":"","type":"address"}],"name":"points","outputs":[{"internalType":"uint256","name":"","type":"uint256"}],"stateMutability":"view","type":"function"},{"inputs":[],"name":"referralBonusBps","outputs":[{"internalType":"uint256","name":"","type":"uint256"}],"stateMutability":"view","type":"function"},{"inputs":[{"internalType":"string","name":"","type":"string"}],"name":"referralCodeToAddress","outputs":[{"internalType":"address","name":"","type":"address"}],"stateMutability":"view","type":"function"},{"inputs":[{"internalType":"address","name":"","type":"address"}],"name":"referralPoints","outputs":[{"internalType":"uint256","name":"","type":"uint256"}],"stateMutability":"view","type":"function"},{"inputs":[],"name":"registerMe","outputs":[],"stateMutability":"nonpayable","type":"function"},{"inputs":[{"internalType":"string","name":"code","type":"string"}],"name":"registerReferralCode","outputs":[],"stateMutability":"nonpayable","type":"function"},{"inputs":[],"name":"renounceOwnership","outputs":[],"stateMutability":"nonpayable","type":"function"},{"inputs":[{"internalType":"address","name":"contractAddress","type":"address"},{"internalType":"bool","name":"authorized","type":"bool"}],"name":"setContractAuthorization","outputs":[],"stateMutability":"nonpayable","type":"function"},{"inputs":[{"internalType":"uint256","name":"newBonusBps","type":"uint256"}],"name":"setReferralBonus","outputs":[],"stateMutability":"nonpayable","type":"function"},{"inputs":[],"name":"totalPointsIssued","outputs":[{"internalType":"uint256","name":"","type":"uint256"}],"stateMutability":"view","type":"function"},{"inputs":[{"internalType":"address","name":"newOwner","type":"address"}],"name":"transferOwnership","outputs":[],"stateMutability":"nonpayable","type":"function"},{"inputs":[{"internalType":"address","name":"","type":"address"}],"name":"usedReferralCode","outputs":[{"internalType":"string","name":"","type":"string"}],"stateMutability":"view","type":"function"},{"inputs":[],"name":"withdraw","outputs":[],"stateMutability":"nonpayable","type":"function"}],"evm":{"bytecode":{"linkReferences":{},"object":"60808060405234607b57331560655760008054336001600160a01b0319821681178355916001600160a01b03909116907f8be0079c531659141344cd1fd0a4f28419497f9722a3daafe3b4186f6b6457e09080a3611388600155611f6d90816100818239f35b631e4fbdf760e01b600052600060045260246000fd5b600080fdfe608080604052600436101561001357600080fd5b60003560e01c908163195ad3d51461160d5750806325f87d23146115ee5780632e8d97b714611383578063350a8f6c146111fb578063358b8166146111c15780633ccfd60b146110e85780634347f23b14610f285780635035070b14610ee957806359fb775214610c6f57806365dbcd4314610c535780636d763a6e14610b30578063715018a614610ad757806381a3b8ea14610abb5780638da5cb5b14610a9257806397cbbf24146109435780639a037aa0146108d45780639a198d6114610829578063a1283a68146107ac578063aa67c9191461077c578063b810fb431461073a578063b868e7a114610700578063bd86724214610538578063ca7eeb57146104ee578063cdbb02af146104d0578063d0e30db0146104b9578063d5b9221b1461047a578063d6f92372146103d8578063e1e158a5146103b5578063eb72d4f11461037b578063ee204abb1461032f578063f2fde38b146102a6578063f5ee80e114610283578063f60ccc86146101b85763fd1c88111461019557600080fd5b346101b35760003660031901126101b3576020600254604051908152f35b600080fd5b346101b35760403660031901126101b3576101d1611628565b602435908115158092036101b3576101e7611d15565b6001600160a01b031690811561023e5760207ffb9ba5f99f5c43d50c89b686bbeaaff49442447b445c123ce00589f4c2fae184918360005260078252604060002060ff1981541660ff8316179055604051908152a2005b60405162461bcd60e51b815260206004820152601860248201527f496e76616c696420636f6e7472616374206164647265737300000000000000006044820152606490fd5b346101b35760003660031901126101b357602061029e611ab9565b604051908152f35b346101b35760203660031901126101b3576102bf611628565b6102c7611d15565b6001600160a01b0316801561031957600080546001600160a01b03198116831782556001600160a01b0316907f8be0079c531659141344cd1fd0a4f28419497f9722a3daafe3b4186f6b6457e09080a3005b631e4fbdf760e01b600052600060045260246000fd5b346101b35760203660031901126101b35760406001600160a01b03610352611628565b168060005260036020528160002054906000526004602052816000205482519182526020820152f35b346101b35760203660031901126101b3576001600160a01b0361039c611628565b1660005260046020526020604060002054604051908152f35b346101b35760003660031901126101b3576020604051670de0b6b3a76400008152f35b346101b35760203660031901126101b35760043567ffffffffffffffff81116101b357366023820112156101b3578060040135610414816118c1565b61042160405191826117ac565b818152602081019136602482860101116101b357602081600092602483970186378301015261045860405192839251928391611872565b600890820190815281900382019020546040516001600160a01b039091168152f35b346101b35760203660031901126101b3576001600160a01b0361049b611628565b166000526007602052602060ff604060002054166040519015158152f35b60003660031901126101b3576104ce33611ae1565b005b346101b35760003660031901126101b3576020600554604051908152f35b346101b35760203660031901126101b3576001600160a01b0361050f611628565b16600052600a60205261053461052860406000206117ce565b60405191829182611895565b0390f35b346101b3576105463661170e565b909133600052600760205260ff60406000205416156106bb576001600160a01b038116916105758315156118dd565b831561066a576302faf08061058c85600254611945565b1161064f5782600052600360205260406000206105aa858254611945565b905561062f575b81600052600660205260ff6040600020541615610607575b506105d682600254611945565b6002556040519182527f42032642f062f0971fa1a8e87754f6bd29ad5bc0af71930001c124884b9883df60203393a3005b61061090611a39565b8060005260066020526040600020600160ff19825416179055826105c9565b8160005260046020526040600020610648848254611945565b90556105b1565b610657611ab9565b625ef85b60e21b60005260045260246000fd5b60405162461bcd60e51b8152602060048201526024808201527f506f696e747320616d6f756e74206d75737420626520677265617465722074686044820152630616e20360e41b6064820152608490fd5b60405162461bcd60e51b815260206004820152601760248201527f4e6f7420617574686f72697a656420636f6e74726163740000000000000000006044820152606490fd5b346101b35760203660031901126101b3576001600160a01b03610721611628565b16600052600960205261053461052860406000206117ce565b346101b35760203660031901126101b3576004356005548110156101b357610763602091611741565b905460405160039290921b1c6001600160a01b03168152f35b60203660031901126101b3576104ce610793611628565b6107a76001600160a01b03821615156118dd565b611ae1565b60003660031901126101b35734156107ec576040513481527f49e370eb35b99fad82eba177be2c53102fb12acbada7d0de117099f6cb9efc1560203392a2005b60405162461bcd60e51b815260206004820152601560248201527409aeae6e840c8cae0dee6d2e840e6dedaca408aa89605b1b6044820152606490fd5b346101b35760003660031901126101b35760008060405160208101906307983f4560e21b825260976024820152602481526108656044826117ac565b51908273dc2b0d2dd2b7759d97d50db4eabdc369731108305af16108876119bd565b501561088f57005b60405162461bcd60e51b815260206004820152601860248201527f4665654d20726567697374726174696f6e206661696c656400000000000000006044820152606490fd5b346101b35760203660031901126101b3576004356108f0611d15565b61271081116108fe57600155005b60405162461bcd60e51b815260206004820152601860248201527f426f6e75732063616e6e6f7420657863656564203130302500000000000000006044820152606490fd5b346101b3576109513661170e565b61095c929192611d15565b6001600160a01b038216926109728415156118dd565b61097d8115156119ed565b6302faf08061098e82600254611945565b11610a4d577f900825d4808e50002c1a3614c809eb06d2d7142338f0dec06ed9a4057c8a8c9992602092856000526003845260406000206109d0848254611945565b9055610a2e575b846000526006835260ff6040600020541615610a07575b506109fb81600254611945565b600255604051908152a2005b610a1090611a39565b83600052600682526040600020600160ff19825416179055846109ee565b84600052600483526040600020610a46838254611945565b90556109d7565b60405162461bcd60e51b815260206004820152601760248201527f576f756c642065786365656420706f696e7473206361700000000000000000006044820152606490fd5b346101b35760003660031901126101b3576000546040516001600160a01b039091168152602090f35b346101b35760003660031901126101b3576020604051604b8152f35b346101b35760003660031901126101b357610af0611d15565b600080546001600160a01b0319811682556001600160a01b03167f8be0079c531659141344cd1fd0a4f28419497f9722a3daafe3b4186f6b6457e08280a3005b346101b35760003660031901126101b3576005546064808210911802606418610b5881611977565b610b6182611977565b91610b6b81611977565b60005b828110610bc8575060018211610b90575b6105349150604051938493846116a0565b6000198201918211610bb257610bad610534926000838787611d99565b610b7f565b634e487b7160e01b600052601160045260246000fd5b80610bd4600192611741565b9054838060a01b039160031b1c16610bec82876119a9565b526040610bf882611741565b9054848060a01b039160031b1c16600090815260036020522054610c1c82886119a9565b526040610c2882611741565b9054848060a01b039160031b1c16600090815260046020522054610c4c82856119a9565b5201610b6e565b346101b35760003660031901126101b357602060405160328152f35b346101b35760203660031901126101b35760043567ffffffffffffffff81116101b357610ca090369060040161163e565b60148111610ed8578015610ec7576040518183823760088183019081528190036020019020546001600160a01b03168015159081610ebc575b50610eab57336000526009602052610cf5604060002054611772565b610eab57604051818382376020818381016008815203019020336bffffffffffffffffffffffff60a01b825416179055336000526009602052604060002067ffffffffffffffff8211610e9557610d4c8154611772565b601f8111610e4d575b506000601f8311600114610dc55791610db591817fe8ca9ff7362b2885ad0e2b48628ea1734bf0e9ffaa84267274cfd05ab4897d5494600091610dba575b508260011b906000198460031b1c19161790555b60405191829133958361191d565b0390a2005b905085013586610d93565b8181526020812090601f198416815b818110610e35575091610db59391857fe8ca9ff7362b2885ad0e2b48628ea1734bf0e9ffaa84267274cfd05ab4897d54969410610e1b575b5050600182811b019055610da7565b860135600019600385901b60f8161c191690558580610e0c565b9192602060018192868a013581550194019201610dd4565b816000526020600020601f840160051c81019160208510610e8b575b601f0160051c01905b818110610e7f5750610d55565b60008155600101610e72565b9091508190610e69565b634e487b7160e01b600052604160045260246000fd5b63f8f4728d60e01b60005260046000fd5b905033141583610cd9565b63e55b462960e01b60005260046000fd5b6302e22fd360e11b60005260046000fd5b346101b35760203660031901126101b3576001600160a01b03610f0a611628565b166000526006602052602060ff604060002054166040519015158152f35b346101b35760203660031901126101b3576004358015610f4881156119ed565b33600052600460205281604060002054106110a35760648202908282046064141715610bb257604b9004662386f26fc10000810290808204662386f26fc100001490151715610bb25780471061105e573360005260046020526040600020610fb1838254611952565b90553360005260036020526040600020610fcc838254611952565b9055610fda82600254611952565b600255600080808084335af1610fee6119bd565b50156110275760405191825260208201527f89212ff08f4e1a2d39a5e3a0342a6a0f0b203ef6c18f2c4276fa6ec13fee57f560403392a2005b60405162461bcd60e51b815260206004820152600f60248201526e151c985b9cd9995c8819985a5b1959608a1b6044820152606490fd5b60405162461bcd60e51b815260206004820152601d60248201527f496e73756666696369656e7420636f6e74726163742062616c616e63650000006044820152606490fd5b60405162461bcd60e51b815260206004820152601c60248201527f496e73756666696369656e7420726566657272616c20706f696e7473000000006044820152606490fd5b346101b35760003660031901126101b357611101611d15565b47801561118657600080808084335af16111196119bd565b501561114d576040519081527f7084f5476618d8e60b11ef0d7d3f06914655adb8793e28ff7f018d4c76d505d560203392a2005b60405162461bcd60e51b815260206004820152601160248201527015da5d1a191c985dd85b0819985a5b1959607a1b6044820152606490fd5b60405162461bcd60e51b81526020600482015260136024820152724e6f7468696e6720746f20776974686472617760681b6044820152606490fd5b346101b35760203660031901126101b3576001600160a01b036111e2611628565b1660005260036020526020604060002054604051908152f35b346101b35760403660031901126101b357600435602435600554908183101561134e5780151580611342575b1561130e576112489161123b849283611945565b8180821091180218611952565b9061125282611977565b9061125c83611977565b9261126681611977565b9160005b8281106112845750505061053490604051938493846116a0565b8061129961129460019385611945565b611741565b838060a01b0391549060031b1c166112b182886119a9565b52818060a01b036112c282886119a9565b511660005260036020526040600020546112dc82896119a9565b52818060a01b036112ed82886119a9565b5116600052600460205260406000205461130782876119a9565b520161126a565b60405162461bcd60e51b815260206004820152600c60248201526b496e76616c69642073697a6560a01b6044820152606490fd5b506103e8811115611227565b60405162461bcd60e51b815260206004820152600d60248201526c125b9d985b1a59081cdd185c9d609a1b6044820152606490fd5b60403660031901126101b357611397611628565b60243567ffffffffffffffff81116101b3576113b790369060040161163e565b91906001600160a01b0382166113ce8115156118dd565b6040518483823760088186019081528190036020019020546001600160a01b0316156115b15780600052600a60205261140b604060002054611772565b1561141a575b6104ce83611ae1565b80600052600a602052604060002067ffffffffffffffff8511610e95576114418154611772565b601f8111611569575b506000601f86116001146114e157947f7f4295d529cb1fafd5eee3e47f17f636e81a66d5bb99a18711f2b46e3ec5815191816104ce976000916114d6575b508260011b906000198460031b1c19161790555b60405181858237818101906008825260208160018060a01b0393030190205416936114cc6040519283928361191d565b0390a38280611411565b905085013588611488565b8181526020812090601f198716815b8181106115515750917f7f4295d529cb1fafd5eee3e47f17f636e81a66d5bb99a18711f2b46e3ec581519391886104ce999410611537575b5050600182811b01905561149c565b860135600019600385901b60f8161c191690558780611528565b9192602060018192868a0135815501940192016114f0565b816000526020600020601f870160051c810191602088106115a7575b601f0160051c01905b81811061159b575061144a565b6000815560010161158e565b9091508190611585565b60405162461bcd60e51b8152602060048201526015602482015274496e76616c696420726566657272616c20636f646560581b6044820152606490fd5b346101b35760003660031901126101b35760206040516302faf0808152f35b346101b35760003660031901126101b3576020906001548152f35b600435906001600160a01b03821682036101b357565b9181601f840112156101b35782359167ffffffffffffffff83116101b357602083818601950101116101b357565b906020808351928381520192019060005b81811061168a5750505090565b825184526020938401939092019160010161167d565b91939290936060830160608452855180915260206080850196019060005b8181106116ef57505050846116de91846116ec969703602086015261166c565b91604081840391015261166c565b90565b82516001600160a01b03168852602097880197909201916001016116be565b60609060031901126101b3576004356001600160a01b03811681036101b357906024359060443580151581036101b35790565b60055481101561175c57600560005260206000200190600090565b634e487b7160e01b600052603260045260246000fd5b90600182811c921680156117a2575b602083101461178c57565b634e487b7160e01b600052602260045260246000fd5b91607f1691611781565b90601f8019910116810190811067ffffffffffffffff821117610e9557604052565b90604051918260008254926117e284611772565b80845293600181169081156118505750600114611809575b50611807925003836117ac565b565b90506000929192526020600020906000915b81831061183457505090602061180792820101386117fa565b602091935080600191548385890101520191019091849261181b565b90506020925061180794915060ff191682840152151560051b820101386117fa565b60005b8381106118855750506000910152565b8181015183820152602001611875565b604091602082526118b58151809281602086015260208686019101611872565b601f01601f1916010190565b67ffffffffffffffff8111610e9557601f01601f191660200190565b156118e457565b60405162461bcd60e51b8152602060048201526011602482015270125b9d985b1a59081c9958da5c1a595b9d607a1b6044820152606490fd5b90918060409360208452816020850152848401376000828201840152601f01601f1916010190565b91908201809211610bb257565b91908203918211610bb257565b67ffffffffffffffff8111610e955760051b60200190565b906119818261195f565b61198e60405191826117ac565b828152809261199f601f199161195f565b0190602036910137565b805182101561175c5760209160051b010190565b3d156119e8573d906119ce826118c1565b916119dc60405193846117ac565b82523d6000602084013e565b606090565b156119f457565b60405162461bcd60e51b815260206004820152601d60248201527f416d6f756e74206d7573742062652067726561746572207468616e20300000006044820152606490fd5b60055468010000000000000000811015610e9557600181016005556000600554821015611aa557600590527f036b6384b5eca791c62761152d0c79bb0604c104a5fb6f4eb0703f3154bb3db00180546001600160a01b0319166001600160a01b03909216919091179055565b634e487b7160e01b81526032600452602490fd5b6002546302faf0808110611acd5750600090565b6302faf080036302faf0808111610bb25790565b670de0b6b3a76400003410611cf857670de0b6b3a76400003404603281029080820460321490151715610bb257670de0b6b3a7640000340690603282029180830460321490151715610bb257670de0b6b3a7640000611b41920490611945565b908160018060a01b0382169283600052600a602052611b6360406000206117ce565b805115611cb457600154808402908482041484151715610bb257612710611b8c91048094611945565b6302faf080611b9d82600254611945565b1161064f577f900825d4808e50002c1a3614c809eb06d2d7142338f0dec06ed9a4057c8a8c9994602094611c3c9386611bdf6040519283815193849201611872565b600890820190815281900387019020546001600160a01b03169081611c6f575b50505b86600052600385526040600020611c1a858254611945565b9055866000526006855260ff6040600020541615611c48575b50600254611945565b600255604051908152a2565b611c5190611a39565b85600052600684526040600020600160ff1982541617905538611c33565b86889183600052600382526040600020611c8a828254611945565b905583600052600482526040600020611ca4828254611945565b9055604051908152a23880611bff565b506302faf080611cc683600254611945565b1161064f57611c3c6020927f900825d4808e50002c1a3614c809eb06d2d7142338f0dec06ed9a4057c8a8c9994611c02565b6382ad390560e01b600052670de0b6b3a764000060045260246000fd5b6000546001600160a01b03163303611d2957565b63118cdaa760e01b6000523360045260246000fd5b81810392916000138015828513169184121617610bb257565b91909160008382019384129112908015821691151617610bb257565b6001600160ff1b038114610bb25760010190565b600160ff1b8114610bb2576000190190565b9392919083831215611dec57611dcb611dc5611dbf611db88688611d3e565b6002900590565b85611d57565b826119a9565b51839085905b81861315611e195750808212611e06575b5050838312611df3575b5050505050565b611dfc94611d99565b3880808080611dec565b611e1291848489611d99565b3880611de2565b9694979192979590955b87611e2e828b6119a9565b511115611e4357611e3e90611d73565b611e23565b94955b87611e51828b6119a9565b511015611e6657611e6190611d87565b611e46565b90959697929197818613611dd1579094611f2b611f3191611ece611e9a611e8d8a8d6119a9565b516001600160a01b031690565b611ec48c611eb58c611eaf611e8d88856119a9565b926119a9565b6001600160a01b039091169052565b611eb5838d6119a9565b611ed888876119a9565b51611ee382886119a9565b51611eee8a896119a9565b52611ef982886119a9565b52611f0488886119a9565b51611f0f82896119a9565b51611f1a8a8a6119a9565b52611f2582896119a9565b52611d73565b95611d87565b90611dd156fea2646970667358221220bfe39d63f9b3891fbb7af2c3debe8a3283b6c3686989a54b6a271ab5305f23a564736f6c634300081c0033","opcodes":"PUSH1 0x80 DUP1 PUSH1 0x40 MSTORE CALLVALUE PUSH1 0x7B JUMPI CALLER ISZERO PUSH1 0x65 JUMPI PUSH1 0x0 DUP1 SLOAD CALLER PUSH1 0x1 PUSH1 0x1 PUSH1 0xA0 SHL SUB NOT DUP3 AND DUP2 OR DUP4 SSTORE SWAP2 PUSH1 0x1 PUSH1 0x1 PUSH1 0xA0 SHL SUB SWAP1 SWAP2 AND SWAP1 PUSH32 0x8BE0079C531659141344CD1FD0A4F28419497F9722A3DAAFE3B4186F6B6457E0 SWAP1 DUP1 LOG3 PUSH2 0x1388 PUSH1 0x1 SSTORE PUSH2 0x1F6D SWAP1 DUP2 PUSH2 0x81 DUP3 CODECOPY RETURN JUMPDEST PUSH4 0x1E4FBDF7 PUSH1 0xE0 SHL PUSH1 0x0 MSTORE PUSH1 0x0 PUSH1 0x4 MSTORE PUSH1 0x24 PUSH1 0x0 REVERT JUMPDEST PUSH1 0x0 DUP1 REVERT INVALID PUSH1 0x80 DUP1 PUSH1 0x40 MSTORE PUSH1 0x4 CALLDATASIZE LT ISZERO PUSH2 0x13 JUMPI PUSH1 0x0 DUP1 REVERT JUMPDEST PUSH1 0x0 CALLDATALOAD PUSH1 0xE0 SHR SWAP1 DUP2 PUSH4 0x195AD3D5 EQ PUSH2 0x160D JUMPI POP DUP1 PUSH4 0x25F87D23 EQ PUSH2 0x15EE JUMPI DUP1 PUSH4 0x2E8D97B7 EQ PUSH2 0x1383 JUMPI DUP1 PUSH4 0x350A8F6C EQ PUSH2 0x11FB JUMPI DUP1 PUSH4 0x358B8166 EQ PUSH2 0x11C1 JUMPI DUP1 PUSH4 0x3CCFD60B EQ PUSH2 0x10E8 JUMPI DUP1 PUSH4 0x4347F23B EQ PUSH2 0xF28 JUMPI DUP1 PUSH4 0x5035070B EQ PUSH2 0xEE9 JUMPI DUP1 PUSH4 0x59FB7752 EQ PUSH2 0xC6F JUMPI DUP1 PUSH4 0x65DBCD43 EQ PUSH2 0xC53 JUMPI DUP1 PUSH4 0x6D763A6E EQ PUSH2 0xB30 JUMPI DUP1 PUSH4 0x715018A6 EQ PUSH2 0xAD7 JUMPI DUP1 PUSH4 0x81A3B8EA EQ PUSH2 0xABB JUMPI DUP1 PUSH4 0x8DA5CB5B EQ PUSH2 0xA92 JUMPI DUP1 PUSH4 0x97CBBF24 EQ PUSH2 0x943 JUMPI DUP1 PUSH4 0x9A037AA0 EQ PUSH2 0x8D4 JUMPI DUP1 PUSH4 0x9A198D61 EQ PUSH2 0x829 JUMPI DUP1 PUSH4 0xA1283A68 EQ PUSH2 0x7AC JUMPI DUP1 PUSH4 0xAA67C919 EQ PUSH2 0x77C JUMPI DUP1 PUSH4 0xB810FB43 EQ PUSH2 0x73A JUMPI DUP1 PUSH4 0xB868E7A1 EQ PUSH2 0x700 JUMPI DUP1 PUSH4 0xBD867242 EQ PUSH2 0x538 JUMPI DUP1 PUSH4 0xCA7EEB57 EQ PUSH2 0x4EE JUMPI DUP1 PUSH4 0xCDBB02AF EQ PUSH2 0x4D0 JUMPI DUP1 PUSH4 0xD0E30DB0 EQ PUSH2 0x4B9 JUMPI DUP1 PUSH4 0xD5B9221B EQ PUSH2 0x47A JUMPI DUP1 PUSH4 0xD6F92372 EQ PUSH2 0x3D8 JUMPI DUP1 PUSH4 0xE1E158A5 EQ PUSH2 0x3B5 JUMPI DUP1 PUSH4 0xEB72D4F1 EQ PUSH2 0x37B JUMPI DUP1 PUSH4 0xEE204ABB EQ PUSH2 0x32F JUMPI DUP1 PUSH4 0xF2FDE38B EQ PUSH2 0x2A6 JUMPI DUP1 PUSH4 0xF5EE80E1 EQ PUSH2 0x283 JUMPI DUP1 PUSH4 0xF60CCC86 EQ PUSH2 0x1B8 JUMPI PUSH4 0xFD1C8811 EQ PUSH2 0x195 JUMPI PUSH1 0x0 DUP1 REVERT JUMPDEST CALLVALUE PUSH2 0x1B3 JUMPI PUSH1 0x0 CALLDATASIZE PUSH1 0x3 NOT ADD SLT PUSH2 0x1B3 JUMPI PUSH1 0x20 PUSH1 0x2 SLOAD PUSH1 0x40 MLOAD SWAP1 DUP2 MSTORE RETURN JUMPDEST PUSH1 0x0 DUP1 REVERT JUMPDEST CALLVALUE PUSH2 0x1B3 JUMPI PUSH1 0x40 CALLDATASIZE PUSH1 0x3 NOT ADD SLT PUSH2 0x1B3 JUMPI PUSH2 0x1D1 PUSH2 0x1628 JUMP JUMPDEST PUSH1 0x24 CALLDATALOAD SWAP1 DUP2 ISZERO ISZERO DUP1 SWAP3 SUB PUSH2 0x1B3 JUMPI PUSH2 0x1E7 PUSH2 0x1D15 JUMP JUMPDEST PUSH1 0x1 PUSH1 0x1 PUSH1 0xA0 SHL SUB AND SWAP1 DUP2 ISZERO PUSH2 0x23E JUMPI PUSH1 0x20 PUSH32 0xFB9BA5F99F5C43D50C89B686BBEAAFF49442447B445C123CE00589F4C2FAE184 SWAP2 DUP4 PUSH1 0x0 MSTORE PUSH1 0x7 DUP3 MSTORE PUSH1 0x40 PUSH1 0x0 KECCAK256 PUSH1 0xFF NOT DUP2 SLOAD AND PUSH1 0xFF DUP4 AND OR SWAP1 SSTORE PUSH1 0x40 MLOAD SWAP1 DUP2 MSTORE LOG2 STOP JUMPDEST PUSH1 0x40 MLOAD PUSH3 0x461BCD PUSH1 0xE5 SHL DUP2 MSTORE PUSH1 0x20 PUSH1 0x4 DUP3 ADD MSTORE PUSH1 0x18 PUSH1 0x24 DUP3 ADD MSTORE PUSH32 0x496E76616C696420636F6E747261637420616464726573730000000000000000 PUSH1 0x44 DUP3 ADD MSTORE PUSH1 0x64 SWAP1 REVERT JUMPDEST CALLVALUE PUSH2 0x1B3 JUMPI PUSH1 0x0 CALLDATASIZE PUSH1 0x3 NOT ADD SLT PUSH2 0x1B3 JUMPI PUSH1 0x20 PUSH2 0x29E PUSH2 0x1AB9 JUMP JUMPDEST PUSH1 0x40 MLOAD SWAP1 DUP2 MSTORE RETURN JUMPDEST CALLVALUE PUSH2 0x1B3 JUMPI PUSH1 0x20 CALLDATASIZE PUSH1 0x3 NOT ADD SLT PUSH2 0x1B3 JUMPI PUSH2 0x2BF PUSH2 0x1628 JUMP JUMPDEST PUSH2 0x2C7 PUSH2 0x1D15 JUMP JUMPDEST PUSH1 0x1 PUSH1 0x1 PUSH1 0xA0 SHL SUB AND DUP1 ISZERO PUSH2 0x319 JUMPI PUSH1 0x0 DUP1 SLOAD PUSH1 0x1 PUSH1 0x1 PUSH1 0xA0 SHL SUB NOT DUP2 AND DUP4 OR DUP3 SSTORE PUSH1 0x1 PUSH1 0x1 PUSH1 0xA0 SHL SUB AND SWAP1 PUSH32 0x8BE0079C531659141344CD1FD0A4F28419497F9722A3DAAFE3B4186F6B6457E0 SWAP1 DUP1 LOG3 STOP JUMPDEST PUSH4 0x1E4FBDF7 PUSH1 0xE0 SHL PUSH1 0x0 MSTORE PUSH1 0x0 PUSH1 0x4 MSTORE PUSH1 0x24 PUSH1 0x0 REVERT JUMPDEST CALLVALUE PUSH2 0x1B3 JUMPI PUSH1 0x20 CALLDATASIZE PUSH1 0x3 NOT ADD SLT PUSH2 0x1B3 JUMPI PUSH1 0x40 PUSH1 0x1 PUSH1 0x1 PUSH1 0xA0 SHL SUB PUSH2 0x352 PUSH2 0x1628 JUMP JUMPDEST AND DUP1 PUSH1 0x0 MSTORE PUSH1 0x3 PUSH1 0x20 MSTORE DUP2 PUSH1 0x0 KECCAK256 SLOAD SWAP1 PUSH1 0x0 MSTORE PUSH1 0x4 PUSH1 0x20 MSTORE DUP2 PUSH1 0x0 KECCAK256 SLOAD DUP3 MLOAD SWAP2 DUP3 MSTORE PUSH1 0x20 DUP3 ADD MSTORE RETURN JUMPDEST CALLVALUE PUSH2 0x1B3 JUMPI PUSH1 0x20 CALLDATASIZE PUSH1 0x3 NOT ADD SLT PUSH2 0x1B3 JUMPI PUSH1 0x1 PUSH1 0x1 PUSH1 0xA0 SHL SUB PUSH2 0x39C PUSH2 0x1628 JUMP JUMPDEST AND PUSH1 0x0 MSTORE PUSH1 0x4 PUSH1 0x20 MSTORE PUSH1 0x20 PUSH1 0x40 PUSH1 0x0 KECCAK256 SLOAD PUSH1 0x40 MLOAD SWAP1 DUP2 MSTORE RETURN JUMPDEST CALLVALUE PUSH2 0x1B3 JUMPI PUSH1 0x0 CALLDATASIZE PUSH1 0x3 NOT ADD SLT PUSH2 0x1B3 JUMPI PUSH1 0x20 PUSH1 0x40 MLOAD PUSH8 0xDE0B6B3A7640000 DUP2 MSTORE RETURN JUMPDEST CALLVALUE PUSH2 0x1B3 JUMPI PUSH1 0x20 CALLDATASIZE PUSH1 0x3 NOT ADD SLT PUSH2 0x1B3 JUMPI PUSH1 0x4 CALLDATALOAD PUSH8 0xFFFFFFFFFFFFFFFF DUP2 GT PUSH2 0x1B3 JUMPI CALLDATASIZE PUSH1 0x23 DUP3 ADD SLT ISZERO PUSH2 0x1B3 JUMPI DUP1 PUSH1 0x4 ADD CALLDATALOAD PUSH2 0x414 DUP2 PUSH2 0x18C1 JUMP JUMPDEST PUSH2 0x421 PUSH1 0x40 MLOAD SWAP2 DUP3 PUSH2 0x17AC JUMP JUMPDEST DUP2 DUP2 MSTORE PUSH1 0x20 DUP2 ADD SWAP2 CALLDATASIZE PUSH1 0x24 DUP3 DUP7 ADD ADD GT PUSH2 0x1B3 JUMPI PUSH1 0x20 DUP2 PUSH1 0x0 SWAP3 PUSH1 0x24 DUP4 SWAP8 ADD DUP7 CALLDATACOPY DUP4 ADD ADD MSTORE PUSH2 0x458 PUSH1 0x40 MLOAD SWAP3 DUP4 SWAP3 MLOAD SWAP3 DUP4 SWAP2 PUSH2 0x1872 JUMP JUMPDEST PUSH1 0x8 SWAP1 DUP3 ADD SWAP1 DUP2 MSTORE DUP2 SWAP1 SUB DUP3 ADD SWAP1 KECCAK256 SLOAD PUSH1 0x40 MLOAD PUSH1 0x1 PUSH1 0x1 PUSH1 0xA0 SHL SUB SWAP1 SWAP2 AND DUP2 MSTORE RETURN JUMPDEST CALLVALUE PUSH2 0x1B3 JUMPI PUSH1 0x20 CALLDATASIZE PUSH1 0x3 NOT ADD SLT PUSH2 0x1B3 JUMPI PUSH1 0x1 PUSH1 0x1 PUSH1 0xA0 SHL SUB PUSH2 0x49B PUSH2 0x1628 JUMP JUMPDEST AND PUSH1 0x0 MSTORE PUSH1 0x7 PUSH1 0x20 MSTORE PUSH1 0x20 PUSH1 0xFF PUSH1 0x40 PUSH1 0x0 KECCAK256 SLOAD AND PUSH1 0x40 MLOAD SWAP1 ISZERO ISZERO DUP2 MSTORE RETURN JUMPDEST PUSH1 0x0 CALLDATASIZE PUSH1 0x3 NOT ADD SLT PUSH2 0x1B3 JUMPI PUSH2 0x4CE CALLER PUSH2 0x1AE1 JUMP JUMPDEST STOP JUMPDEST CALLVALUE PUSH2 0x1B3 JUMPI PUSH1 0x0 CALLDATASIZE PUSH1 0x3 NOT ADD SLT PUSH2 0x1B3 JUMPI PUSH1 0x20 PUSH1 0x5 SLOAD PUSH1 0x40 MLOAD SWAP1 DUP2 MSTORE RETURN JUMPDEST CALLVALUE PUSH2 0x1B3 JUMPI PUSH1 0x20 CALLDATASIZE PUSH1 0x3 NOT ADD SLT PUSH2 0x1B3 JUMPI PUSH1 0x1 PUSH1 0x1 PUSH1 0xA0 SHL SUB PUSH2 0x50F PUSH2 0x1628 JUMP JUMPDEST AND PUSH1 0x0 MSTORE PUSH1 0xA PUSH1 0x20 MSTORE PUSH2 0x534 PUSH2 0x528 PUSH1 0x40 PUSH1 0x0 KECCAK256 PUSH2 0x17CE JUMP JUMPDEST PUSH1 0x40 MLOAD SWAP2 DUP3 SWAP2 DUP3 PUSH2 0x1895 JUMP JUMPDEST SUB SWAP1 RETURN JUMPDEST CALLVALUE PUSH2 0x1B3 JUMPI PUSH2 0x546 CALLDATASIZE PUSH2 0x170E JUMP JUMPDEST SWAP1 SWAP2 CALLER PUSH1 0x0 MSTORE PUSH1 0x7 PUSH1 0x20 MSTORE PUSH1 0xFF PUSH1 0x40 PUSH1 0x0 KECCAK256 SLOAD AND ISZERO PUSH2 0x6BB JUMPI PUSH1 0x1 PUSH1 0x1 PUSH1 0xA0 SHL SUB DUP2 AND SWAP2 PUSH2 0x575 DUP4 ISZERO ISZERO PUSH2 0x18DD JUMP JUMPDEST DUP4 ISZERO PUSH2 0x66A JUMPI PUSH4 0x2FAF080 PUSH2 0x58C DUP6 PUSH1 0x2 SLOAD PUSH2 0x1945 JUMP JUMPDEST GT PUSH2 0x64F JUMPI DUP3 PUSH1 0x0 MSTORE PUSH1 0x3 PUSH1 0x20 MSTORE PUSH1 0x40 PUSH1 0x0 KECCAK256 PUSH2 0x5AA DUP6 DUP3 SLOAD PUSH2 0x1945 JUMP JUMPDEST SWAP1 SSTORE PUSH2 0x62F JUMPI JUMPDEST DUP2 PUSH1 0x0 MSTORE PUSH1 0x6 PUSH1 0x20 MSTORE PUSH1 0xFF PUSH1 0x40 PUSH1 0x0 KECCAK256 SLOAD AND ISZERO PUSH2 0x607 JUMPI JUMPDEST POP PUSH2 0x5D6 DUP3 PUSH1 0x2 SLOAD PUSH2 0x1945 JUMP JUMPDEST PUSH1 0x2 SSTORE PUSH1 0x40 MLOAD SWAP2 DUP3 MSTORE PUSH32 0x42032642F062F0971FA1A8E87754F6BD29AD5BC0AF71930001C124884B9883DF PUSH1 0x20 CALLER SWAP4 LOG3 STOP JUMPDEST PUSH2 0x610 SWAP1 PUSH2 0x1A39 JUMP JUMPDEST DUP1 PUSH1 0x0 MSTORE PUSH1 0x6 PUSH1 0x20 MSTORE PUSH1 0x40 PUSH1 0x0 KECCAK256 PUSH1 0x1 PUSH1 0xFF NOT DUP3 SLOAD AND OR SWAP1 SSTORE DUP3 PUSH2 0x5C9 JUMP JUMPDEST DUP2 PUSH1 0x0 MSTORE PUSH1 0x4 PUSH1 0x20 MSTORE PUSH1 0x40 PUSH1 0x0 KECCAK256 PUSH2 0x648 DUP5 DUP3 SLOAD PUSH2 0x1945 JUMP JUMPDEST SWAP1 SSTORE PUSH2 0x5B1 JUMP JUMPDEST PUSH2 0x657 PUSH2 0x1AB9 JUMP JUMPDEST PUSH3 0x5EF85B PUSH1 0xE2 SHL PUSH1 0x0 MSTORE PUSH1 0x4 MSTORE PUSH1 0x24 PUSH1 0x0 REVERT JUMPDEST PUSH1 0x40 MLOAD PUSH3 0x461BCD PUSH1 0xE5 SHL DUP2 MSTORE PUSH1 0x20 PUSH1 0x4 DUP3 ADD MSTORE PUSH1 0x24 DUP1 DUP3 ADD MSTORE PUSH32 0x506F696E747320616D6F756E74206D7573742062652067726561746572207468 PUSH1 0x44 DUP3 ADD MSTORE PUSH4 0x616E203 PUSH1 0xE4 SHL PUSH1 0x64 DUP3 ADD MSTORE PUSH1 0x84 SWAP1 REVERT JUMPDEST PUSH1 0x40 MLOAD PUSH3 0x461BCD PUSH1 0xE5 SHL DUP2 MSTORE PUSH1 0x20 PUSH1 0x4 DUP3 ADD MSTORE PUSH1 0x17 PUSH1 0x24 DUP3 ADD MSTORE PUSH32 0x4E6F7420617574686F72697A656420636F6E7472616374000000000000000000 PUSH1 0x44 DUP3 ADD MSTORE PUSH1 0x64 SWAP1 REVERT JUMPDEST CALLVALUE PUSH2 0x1B3 JUMPI PUSH1 0x20 CALLDATASIZE PUSH1 0x3 NOT ADD SLT PUSH2 0x1B3 JUMPI PUSH1 0x1 PUSH1 0x1 PUSH1 0xA0 SHL SUB PUSH2 0x721 PUSH2 0x1628 JUMP JUMPDEST AND PUSH1 0x0 MSTORE PUSH1 0x9 PUSH1 0x20 MSTORE PUSH2 0x534 PUSH2 0x528 PUSH1 0x40 PUSH1 0x0 KECCAK256 PUSH2 0x17CE JUMP JUMPDEST CALLVALUE PUSH2 0x1B3 JUMPI PUSH1 0x20 CALLDATASIZE PUSH1 0x3 NOT ADD SLT PUSH2 0x1B3 JUMPI PUSH1 0x4 CALLDATALOAD PUSH1 0x5 SLOAD DUP2 LT ISZERO PUSH2 0x1B3 JUMPI PUSH2 0x763 PUSH1 0x20 SWAP2 PUSH2 0x1741 JUMP JUMPDEST SWAP1 SLOAD PUSH1 0x40 MLOAD PUSH1 0x3 SWAP3 SWAP1 SWAP3 SHL SHR PUSH1 0x1 PUSH1 0x1 PUSH1 0xA0 SHL SUB AND DUP2 MSTORE RETURN JUMPDEST PUSH1 0x20 CALLDATASIZE PUSH1 0x3 NOT ADD SLT PUSH2 0x1B3 JUMPI PUSH2 0x4CE PUSH2 0x793 PUSH2 0x1628 JUMP JUMPDEST PUSH2 0x7A7 PUSH1 0x1 PUSH1 0x1 PUSH1 0xA0 SHL SUB DUP3 AND ISZERO ISZERO PUSH2 0x18DD JUMP JUMPDEST PUSH2 0x1AE1 JUMP JUMPDEST PUSH1 0x0 CALLDATASIZE PUSH1 0x3 NOT ADD SLT PUSH2 0x1B3 JUMPI CALLVALUE ISZERO PUSH2 0x7EC JUMPI PUSH1 0x40 MLOAD CALLVALUE DUP2 MSTORE PUSH32 0x49E370EB35B99FAD82EBA177BE2C53102FB12ACBADA7D0DE117099F6CB9EFC15 PUSH1 0x20 CALLER SWAP3 LOG2 STOP JUMPDEST PUSH1 0x40 MLOAD PUSH3 0x461BCD PUSH1 0xE5 SHL DUP2 MSTORE PUSH1 0x20 PUSH1 0x4 DUP3 ADD MSTORE PUSH1 0x15 PUSH1 0x24 DUP3 ADD MSTORE PUSH21 0x9AEAE6E840C8CAE0DEE6D2E840E6DEDACA408AA89 PUSH1 0x5B SHL PUSH1 0x44 DUP3 ADD MSTORE PUSH1 0x64 SWAP1 REVERT JUMPDEST CALLVALUE PUSH2 0x1B3 JUMPI PUSH1 0x0 CALLDATASIZE PUSH1 0x3 NOT ADD SLT PUSH2 0x1B3 JUMPI PUSH1 0x0 DUP1 PUSH1 0x40 MLOAD PUSH1 0x20 DUP2 ADD SWAP1 PUSH4 0x7983F45 PUSH1 0xE2 SHL DUP3 MSTORE PUSH1 0x97 PUSH1 0x24 DUP3 ADD MSTORE PUSH1 0x24 DUP2 MSTORE PUSH2 0x865 PUSH1 0x44 DUP3 PUSH2 0x17AC JUMP JUMPDEST MLOAD SWAP1 DUP3 PUSH20 0xDC2B0D2DD2B7759D97D50DB4EABDC36973110830 GAS CALL PUSH2 0x887 PUSH2 0x19BD JUMP JUMPDEST POP ISZERO PUSH2 0x88F JUMPI STOP JUMPDEST PUSH1 0x40 MLOAD PUSH3 0x461BCD PUSH1 0xE5 SHL DUP2 MSTORE PUSH1 0x20 PUSH1 0x4 DUP3 ADD MSTORE PUSH1 0x18 PUSH1 0x24 DUP3 ADD MSTORE PUSH32 0x4665654D20726567697374726174696F6E206661696C65640000000000000000 PUSH1 0x44 DUP3 ADD MSTORE PUSH1 0x64 SWAP1 REVERT JUMPDEST CALLVALUE PUSH2 0x1B3 JUMPI PUSH1 0x20 CALLDATASIZE PUSH1 0x3 NOT ADD SLT PUSH2 0x1B3 JUMPI PUSH1 0x4 CALLDATALOAD PUSH2 0x8F0 PUSH2 0x1D15 JUMP JUMPDEST PUSH2 0x2710 DUP2 GT PUSH2 0x8FE JUMPI PUSH1 0x1 SSTORE STOP JUMPDEST PUSH1 0x40 MLOAD PUSH3 0x461BCD PUSH1 0xE5 SHL DUP2 MSTORE PUSH1 0x20 PUSH1 0x4 DUP3 ADD MSTORE PUSH1 0x18 PUSH1 0x24 DUP3 ADD MSTORE PUSH32 0x426F6E75732063616E6E6F742065786365656420313030250000000000000000 PUSH1 0x44 DUP3 ADD MSTORE PUSH1 0x64 SWAP1 REVERT JUMPDEST CALLVALUE PUSH2 0x1B3 JUMPI PUSH2 0x951 CALLDATASIZE PUSH2 0x170E JUMP JUMPDEST PUSH2 0x95C SWAP3 SWAP2 SWAP3 PUSH2 0x1D15 JUMP JUMPDEST PUSH1 0x1 PUSH1 0x1 PUSH1 0xA0 SHL SUB DUP3 AND SWAP3 PUSH2 0x972 DUP5 ISZERO ISZERO PUSH2 0x18DD JUMP JUMPDEST PUSH2 0x97D DUP2 ISZERO ISZERO PUSH2 0x19ED JUMP JUMPDEST PUSH4 0x2FAF080 PUSH2 0x98E DUP3 PUSH1 0x2 SLOAD PUSH2 0x1945 JUMP JUMPDEST GT PUSH2 0xA4D JUMPI PUSH32 0x900825D4808E50002C1A3614C809EB06D2D7142338F0DEC06ED9A4057C8A8C99 SWAP3 PUSH1 0x20 SWAP3 DUP6 PUSH1 0x0 MSTORE PUSH1 0x3 DUP5 MSTORE PUSH1 0x40 PUSH1 0x0 KECCAK256 PUSH2 0x9D0 DUP5 DUP3 SLOAD PUSH2 0x1945 JUMP JUMPDEST SWAP1 SSTORE PUSH2 0xA2E JUMPI JUMPDEST DUP5 PUSH1 0x0 MSTORE PUSH1 0x6 DUP4 MSTORE PUSH1 0xFF PUSH1 0x40 PUSH1 0x0 KECCAK256 SLOAD AND ISZERO PUSH2 0xA07 JUMPI JUMPDEST POP PUSH2 0x9FB DUP2 PUSH1 0x2 SLOAD PUSH2 0x1945 JUMP JUMPDEST PUSH1 0x2 SSTORE PUSH1 0x40 MLOAD SWAP1 DUP2 MSTORE LOG2 STOP JUMPDEST PUSH2 0xA10 SWAP1 PUSH2 0x1A39 JUMP JUMPDEST DUP4 PUSH1 0x0 MSTORE PUSH1 0x6 DUP3 MSTORE PUSH1 0x40 PUSH1 0x0 KECCAK256 PUSH1 0x1 PUSH1 0xFF NOT DUP3 SLOAD AND OR SWAP1 SSTORE DUP5 PUSH2 0x9EE JUMP JUMPDEST DUP5 PUSH1 0x0 MSTORE PUSH1 0x4 DUP4 MSTORE PUSH1 0x40 PUSH1 0x0 KECCAK256 PUSH2 0xA46 DUP4 DUP3 SLOAD PUSH2 0x1945 JUMP JUMPDEST SWAP1 SSTORE PUSH2 0x9D7 JUMP JUMPDEST PUSH1 0x40 MLOAD PUSH3 0x461BCD PUSH1 0xE5 SHL DUP2 MSTORE PUSH1 0x20 PUSH1 0x4 DUP3 ADD MSTORE PUSH1 0x17 PUSH1 0x24 DUP3 ADD MSTORE PUSH32 0x576F756C642065786365656420706F696E747320636170000000000000000000 PUSH1 0x44 DUP3 ADD MSTORE PUSH1 0x64 SWAP1 REVERT JUMPDEST CALLVALUE PUSH2 0x1B3 JUMPI PUSH1 0x0 CALLDATASIZE PUSH1 0x3 NOT ADD SLT PUSH2 0x1B3 JUMPI PUSH1 0x0 SLOAD PUSH1 0x40 MLOAD PUSH1 0x1 PUSH1 0x1 PUSH1 0xA0 SHL SUB SWAP1 SWAP2 AND DUP2 MSTORE PUSH1 0x20 SWAP1 RETURN JUMPDEST CALLVALUE PUSH2 0x1B3 JUMPI PUSH1 0x0 CALLDATASIZE PUSH1 0x3 NOT ADD SLT PUSH2 0x1B3 JUMPI PUSH1 0x20 PUSH1 0x40 MLOAD PUSH1 0x4B DUP2 MSTORE RETURN JUMPDEST CALLVALUE PUSH2 0x1B3 JUMPI PUSH1 0x0 CALLDATASIZE PUSH1 0x3 NOT ADD SLT PUSH2 0x1B3 JUMPI PUSH2 0xAF0 PUSH2 0x1D15 JUMP JUMPDEST PUSH1 0x0 DUP1 SLOAD PUSH1 0x1 PUSH1 0x1 PUSH1 0xA0 SHL SUB NOT DUP2 AND DUP3 SSTORE PUSH1 0x1 PUSH1 0x1 PUSH1 0xA0 SHL SUB AND PUSH32 0x8BE0079C531659141344CD1FD0A4F28419497F9722A3DAAFE3B4186F6B6457E0 DUP3 DUP1 LOG3 STOP JUMPDEST CALLVALUE PUSH2 0x1B3 JUMPI PUSH1 0x0 CALLDATASIZE PUSH1 0x3 NOT ADD SLT PUSH2 0x1B3 JUMPI PUSH1 0x5 SLOAD PUSH1 0x64 DUP1 DUP3 LT SWAP2 XOR MUL PUSH1 0x64 XOR PUSH2 0xB58 DUP2 PUSH2 0x1977 JUMP JUMPDEST PUSH2 0xB61 DUP3 PUSH2 0x1977 JUMP JUMPDEST SWAP2 PUSH2 0xB6B DUP2 PUSH2 0x1977 JUMP JUMPDEST PUSH1 0x0 JUMPDEST DUP3 DUP2 LT PUSH2 0xBC8 JUMPI POP PUSH1 0x1 DUP3 GT PUSH2 0xB90 JUMPI JUMPDEST PUSH2 0x534 SWAP2 POP PUSH1 0x40 MLOAD SWAP4 DUP5 SWAP4 DUP5 PUSH2 0x16A0 JUMP JUMPDEST PUSH1 0x0 NOT DUP3 ADD SWAP2 DUP3 GT PUSH2 0xBB2 JUMPI PUSH2 0xBAD PUSH2 0x534 SWAP3 PUSH1 0x0 DUP4 DUP8 DUP8 PUSH2 0x1D99 JUMP JUMPDEST PUSH2 0xB7F JUMP JUMPDEST PUSH4 0x4E487B71 PUSH1 0xE0 SHL PUSH1 0x0 MSTORE PUSH1 0x11 PUSH1 0x4 MSTORE PUSH1 0x24 PUSH1 0x0 REVERT JUMPDEST DUP1 PUSH2 0xBD4 PUSH1 0x1 SWAP3 PUSH2 0x1741 JUMP JUMPDEST SWAP1 SLOAD DUP4 DUP1 PUSH1 0xA0 SHL SUB SWAP2 PUSH1 0x3 SHL SHR AND PUSH2 0xBEC DUP3 DUP8 PUSH2 0x19A9 JUMP JUMPDEST MSTORE PUSH1 0x40 PUSH2 0xBF8 DUP3 PUSH2 0x1741 JUMP JUMPDEST SWAP1 SLOAD DUP5 DUP1 PUSH1 0xA0 SHL SUB SWAP2 PUSH1 0x3 SHL SHR AND PUSH1 0x0 SWAP1 DUP2 MSTORE PUSH1 0x3 PUSH1 0x20 MSTORE KECCAK256 SLOAD PUSH2 0xC1C DUP3 DUP9 PUSH2 0x19A9 JUMP JUMPDEST MSTORE PUSH1 0x40 PUSH2 0xC28 DUP3 PUSH2 0x1741 JUMP JUMPDEST SWAP1 SLOAD DUP5 DUP1 PUSH1 0xA0 SHL SUB SWAP2 PUSH1 0x3 SHL SHR AND PUSH1 0x0 SWAP1 DUP2 MSTORE PUSH1 0x4 PUSH1 0x20 MSTORE KECCAK256 SLOAD PUSH2 0xC4C DUP3 DUP6 PUSH2 0x19A9 JUMP JUMPDEST MSTORE ADD PUSH2 0xB6E JUMP JUMPDEST CALLVALUE PUSH2 0x1B3 JUMPI PUSH1 0x0 CALLDATASIZE PUSH1 0x3 NOT ADD SLT PUSH2 0x1B3 JUMPI PUSH1 0x20 PUSH1 0x40 MLOAD PUSH1 0x32 DUP2 MSTORE RETURN JUMPDEST CALLVALUE PUSH2 0x1B3 JUMPI PUSH1 0x20 CALLDATASIZE PUSH1 0x3 NOT ADD SLT PUSH2 0x1B3 JUMPI PUSH1 0x4 CALLDATALOAD PUSH8 0xFFFFFFFFFFFFFFFF DUP2 GT PUSH2 0x1B3 JUMPI PUSH2 0xCA0 SWAP1 CALLDATASIZE SWAP1 PUSH1 0x4 ADD PUSH2 0x163E JUMP JUMPDEST PUSH1 0x14 DUP2 GT PUSH2 0xED8 JUMPI DUP1 ISZERO PUSH2 0xEC7 JUMPI PUSH1 0x40 MLOAD DUP2 DUP4 DUP3 CALLDATACOPY PUSH1 0x8 DUP2 DUP4 ADD SWAP1 DUP2 MSTORE DUP2 SWAP1 SUB PUSH1 0x20 ADD SWAP1 KECCAK256 SLOAD PUSH1 0x1 PUSH1 0x1 PUSH1 0xA0 SHL SUB AND DUP1 ISZERO ISZERO SWAP1 DUP2 PUSH2 0xEBC JUMPI JUMPDEST POP PUSH2 0xEAB JUMPI CALLER PUSH1 0x0 MSTORE PUSH1 0x9 PUSH1 0x20 MSTORE PUSH2 0xCF5 PUSH1 0x40 PUSH1 0x0 KECCAK256 SLOAD PUSH2 0x1772 JUMP JUMPDEST PUSH2 0xEAB JUMPI PUSH1 0x40 MLOAD DUP2 DUP4 DUP3 CALLDATACOPY PUSH1 0x20 DUP2 DUP4 DUP2 ADD PUSH1 0x8 DUP2 MSTORE SUB ADD SWAP1 KECCAK256 CALLER PUSH12 0xFFFFFFFFFFFFFFFFFFFFFFFF PUSH1 0xA0 SHL DUP3 SLOAD AND OR SWAP1 SSTORE CALLER PUSH1 0x0 MSTORE PUSH1 0x9 PUSH1 0x20 MSTORE PUSH1 0x40 PUSH1 0x0 KECCAK256 PUSH8 0xFFFFFFFFFFFFFFFF DUP3 GT PUSH2 0xE95 JUMPI PUSH2 0xD4C DUP2 SLOAD PUSH2 0x1772 JUMP JUMPDEST PUSH1 0x1F DUP2 GT PUSH2 0xE4D JUMPI JUMPDEST POP PUSH1 0x0 PUSH1 0x1F DUP4 GT PUSH1 0x1 EQ PUSH2 0xDC5 JUMPI SWAP2 PUSH2 0xDB5 SWAP2 DUP2 PUSH32 0xE8CA9FF7362B2885AD0E2B48628EA1734BF0E9FFAA84267274CFD05AB4897D54 SWAP5 PUSH1 0x0 SWAP2 PUSH2 0xDBA JUMPI JUMPDEST POP DUP3 PUSH1 0x1 SHL SWAP1 PUSH1 0x0 NOT DUP5 PUSH1 0x3 SHL SHR NOT AND OR SWAP1 SSTORE JUMPDEST PUSH1 0x40 MLOAD SWAP2 DUP3 SWAP2 CALLER SWAP6 DUP4 PUSH2 0x191D JUMP JUMPDEST SUB SWAP1 LOG2 STOP JUMPDEST SWAP1 POP DUP6 ADD CALLDATALOAD DUP7 PUSH2 0xD93 JUMP JUMPDEST DUP2 DUP2 MSTORE PUSH1 0x20 DUP2 KECCAK256 SWAP1 PUSH1 0x1F NOT DUP5 AND DUP2 JUMPDEST DUP2 DUP2 LT PUSH2 0xE35 JUMPI POP SWAP2 PUSH2 0xDB5 SWAP4 SWAP2 DUP6 PUSH32 0xE8CA9FF7362B2885AD0E2B48628EA1734BF0E9FFAA84267274CFD05AB4897D54 SWAP7 SWAP5 LT PUSH2 0xE1B JUMPI JUMPDEST POP POP PUSH1 0x1 DUP3 DUP2 SHL ADD SWAP1 SSTORE PUSH2 0xDA7 JUMP JUMPDEST DUP7 ADD CALLDATALOAD PUSH1 0x0 NOT PUSH1 0x3 DUP6 SWAP1 SHL PUSH1 0xF8 AND SHR NOT AND SWAP1 SSTORE DUP6 DUP1 PUSH2 0xE0C JUMP JUMPDEST SWAP2 SWAP3 PUSH1 0x20 PUSH1 0x1 DUP2 SWAP3 DUP7 DUP11 ADD CALLDATALOAD DUP2 SSTORE ADD SWAP5 ADD SWAP3 ADD PUSH2 0xDD4 JUMP JUMPDEST DUP2 PUSH1 0x0 MSTORE PUSH1 0x20 PUSH1 0x0 KECCAK256 PUSH1 0x1F DUP5 ADD PUSH1 0x5 SHR DUP2 ADD SWAP2 PUSH1 0x20 DUP6 LT PUSH2 0xE8B JUMPI JUMPDEST PUSH1 0x1F ADD PUSH1 0x5 SHR ADD SWAP1 JUMPDEST DUP2 DUP2 LT PUSH2 0xE7F JUMPI POP PUSH2 0xD55 JUMP JUMPDEST PUSH1 0x0 DUP2 SSTORE PUSH1 0x1 ADD PUSH2 0xE72 JUMP JUMPDEST SWAP1 SWAP2 POP DUP2 SWAP1 PUSH2 0xE69 JUMP JUMPDEST PUSH4 0x4E487B71 PUSH1 0xE0 SHL PUSH1 0x0 MSTORE PUSH1 0x41 PUSH1 0x4 MSTORE PUSH1 0x24 PUSH1 0x0 REVERT JUMPDEST PUSH4 0xF8F4728D PUSH1 0xE0 SHL PUSH1 0x0 MSTORE PUSH1 0x4 PUSH1 0x0 REVERT JUMPDEST SWAP1 POP CALLER EQ ISZERO DUP4 PUSH2 0xCD9 JUMP JUMPDEST PUSH4 0xE55B4629 PUSH1 0xE0 SHL PUSH1 0x0 MSTORE PUSH1 0x4 PUSH1 0x0 REVERT JUMPDEST PUSH4 0x2E22FD3 PUSH1 0xE1 SHL PUSH1 0x0 MSTORE PUSH1 0x4 PUSH1 0x0 REVERT JUMPDEST CALLVALUE PUSH2 0x1B3 JUMPI PUSH1 0x20 CALLDATASIZE PUSH1 0x3 NOT ADD SLT PUSH2 0x1B3 JUMPI PUSH1 0x1 PUSH1 0x1 PUSH1 0xA0 SHL SUB PUSH2 0xF0A PUSH2 0x1628 JUMP JUMPDEST AND PUSH1 0x0 MSTORE PUSH1 0x6 PUSH1 0x20 MSTORE PUSH1 0x20 PUSH1 0xFF PUSH1 0x40 PUSH1 0x0 KECCAK256 SLOAD AND PUSH1 0x40 MLOAD SWAP1 ISZERO ISZERO DUP2 MSTORE RETURN JUMPDEST CALLVALUE PUSH2 0x1B3 JUMPI PUSH1 0x20 CALLDATASIZE PUSH1 0x3 NOT ADD SLT PUSH2 0x1B3 JUMPI PUSH1 0x4 CALLDATALOAD DUP1 ISZERO PUSH2 0xF48 DUP2 ISZERO PUSH2 0x19ED JUMP JUMPDEST CALLER PUSH1 0x0 MSTORE PUSH1 0x4 PUSH1 0x20 MSTORE DUP2 PUSH1 0x40 PUSH1 0x0 KECCAK256 SLOAD LT PUSH2 0x10A3 JUMPI PUSH1 0x64 DUP3 MUL SWAP1 DUP3 DUP3 DIV PUSH1 0x64 EQ OR ISZERO PUSH2 0xBB2 JUMPI PUSH1 0x4B SWAP1 DIV PUSH7 0x2386F26FC10000 DUP2 MUL SWAP1 DUP1 DUP3 DIV PUSH7 0x2386F26FC10000 EQ SWAP1 ISZERO OR ISZERO PUSH2 0xBB2 JUMPI DUP1 SELFBALANCE LT PUSH2 0x105E JUMPI CALLER PUSH1 0x0 MSTORE PUSH1 0x4 PUSH1 0x20 MSTORE PUSH1 0x40 PUSH1 0x0 KECCAK256 PUSH2 0xFB1 DUP4 DUP3 SLOAD PUSH2 0x1952 JUMP JUMPDEST SWAP1 SSTORE CALLER PUSH1 0x0 MSTORE PUSH1 0x3 PUSH1 0x20 MSTORE PUSH1 0x40 PUSH1 0x0 KECCAK256 PUSH2 0xFCC DUP4 DUP3 SLOAD PUSH2 0x1952 JUMP JUMPDEST SWAP1 SSTORE PUSH2 0xFDA DUP3 PUSH1 0x2 SLOAD PUSH2 0x1952 JUMP JUMPDEST PUSH1 0x2 SSTORE PUSH1 0x0 DUP1 DUP1 DUP1 DUP5 CALLER GAS CALL PUSH2 0xFEE PUSH2 0x19BD JUMP JUMPDEST POP ISZERO PUSH2 0x1027 JUMPI PUSH1 0x40 MLOAD SWAP2 DUP3 MSTORE PUSH1 0x20 DUP3 ADD MSTORE PUSH32 0x89212FF08F4E1A2D39A5E3A0342A6A0F0B203EF6C18F2C4276FA6EC13FEE57F5 PUSH1 0x40 CALLER SWAP3 LOG2 STOP JUMPDEST PUSH1 0x40 MLOAD PUSH3 0x461BCD PUSH1 0xE5 SHL DUP2 MSTORE PUSH1 0x20 PUSH1 0x4 DUP3 ADD MSTORE PUSH1 0xF PUSH1 0x24 DUP3 ADD MSTORE PUSH15 0x151C985B9CD9995C8819985A5B1959 PUSH1 0x8A SHL PUSH1 0x44 DUP3 ADD MSTORE PUSH1 0x64 SWAP1 REVERT JUMPDEST PUSH1 0x40 MLOAD PUSH3 0x461BCD PUSH1 0xE5 SHL DUP2 MSTORE PUSH1 0x20 PUSH1 0x4 DUP3 ADD MSTORE PUSH1 0x1D PUSH1 0x24 DUP3 ADD MSTORE PUSH32 0x496E73756666696369656E7420636F6E74726163742062616C616E6365000000 PUSH1 0x44 DUP3 ADD MSTORE PUSH1 0x64 SWAP1 REVERT JUMPDEST PUSH1 0x40 MLOAD PUSH3 0x461BCD PUSH1 0xE5 SHL DUP2 MSTORE PUSH1 0x20 PUSH1 0x4 DUP3 ADD MSTORE PUSH1 0x1C PUSH1 0x24 DUP3 ADD MSTORE PUSH32 0x496E73756666696369656E7420726566657272616C20706F696E747300000000 PUSH1 0x44 DUP3 ADD MSTORE PUSH1 0x64 SWAP1 REVERT JUMPDEST CALLVALUE PUSH2 0x1B3 JUMPI PUSH1 0x0 CALLDATASIZE PUSH1 0x3 NOT ADD SLT PUSH2 0x1B3 JUMPI PUSH2 0x1101 PUSH2 0x1D15 JUMP JUMPDEST SELFBALANCE DUP1 ISZERO PUSH2 0x1186 JUMPI PUSH1 0x0 DUP1 DUP1 DUP1 DUP5 CALLER GAS CALL PUSH2 0x1119 PUSH2 0x19BD JUMP JUMPDEST POP ISZERO PUSH2 0x114D JUMPI PUSH1 0x40 MLOAD SWAP1 DUP2 MSTORE PUSH32 0x7084F5476618D8E60B11EF0D7D3F06914655ADB8793E28FF7F018D4C76D505D5 PUSH1 0x20 CALLER SWAP3 LOG2 STOP JUMPDEST PUSH1 0x40 MLOAD PUSH3 0x461BCD PUSH1 0xE5 SHL DUP2 MSTORE PUSH1 0x20 PUSH1 0x4 DUP3 ADD MSTORE PUSH1 0x11 PUSH1 0x24 DUP3 ADD MSTORE PUSH17 0x15DA5D1A191C985DD85B0819985A5B1959 PUSH1 0x7A SHL PUSH1 0x44 DUP3 ADD MSTORE PUSH1 0x64 SWAP1 REVERT JUMPDEST PUSH1 0x40 MLOAD PUSH3 0x461BCD PUSH1 0xE5 SHL DUP2 MSTORE PUSH1 0x20 PUSH1 0x4 DUP3 ADD MSTORE PUSH1 0x13 PUSH1 0x24 DUP3 ADD MSTORE PUSH19 0x4E6F7468696E6720746F207769746864726177 PUSH1 0x68 SHL PUSH1 0x44 DUP3 ADD MSTORE PUSH1 0x64 SWAP1 REVERT JUMPDEST CALLVALUE PUSH2 0x1B3 JUMPI PUSH1 0x20 CALLDATASIZE PUSH1 0x3 NOT ADD SLT PUSH2 0x1B3 JUMPI PUSH1 0x1 PUSH1 0x1 PUSH1 0xA0 SHL SUB PUSH2 0x11E2 PUSH2 0x1628 JUMP JUMPDEST AND PUSH1 0x0 MSTORE PUSH1 0x3 PUSH1 0x20 MSTORE PUSH1 0x20 PUSH1 0x40 PUSH1 0x0 KECCAK256 SLOAD PUSH1 0x40 MLOAD SWAP1 DUP2 MSTORE RETURN JUMPDEST CALLVALUE PUSH2 0x1B3 JUMPI PUSH1 0x40 CALLDATASIZE PUSH1 0x3 NOT ADD SLT PUSH2 0x1B3 JUMPI PUSH1 0x4 CALLDATALOAD PUSH1 0x24 CALLDATALOAD PUSH1 0x5 SLOAD SWAP1 DUP2 DUP4 LT ISZERO PUSH2 0x134E JUMPI DUP1 ISZERO ISZERO DUP1 PUSH2 0x1342 JUMPI JUMPDEST ISZERO PUSH2 0x130E JUMPI PUSH2 0x1248 SWAP2 PUSH2 0x123B DUP5 SWAP3 DUP4 PUSH2 0x1945 JUMP JUMPDEST DUP2 DUP1 DUP3 LT SWAP2 XOR MUL XOR PUSH2 0x1952 JUMP JUMPDEST SWAP1 PUSH2 0x1252 DUP3 PUSH2 0x1977 JUMP JUMPDEST SWAP1 PUSH2 0x125C DUP4 PUSH2 0x1977 JUMP JUMPDEST SWAP3 PUSH2 0x1266 DUP2 PUSH2 0x1977 JUMP JUMPDEST SWAP2 PUSH1 0x0 JUMPDEST DUP3 DUP2 LT PUSH2 0x1284 JUMPI POP POP POP PUSH2 0x534 SWAP1 PUSH1 0x40 MLOAD SWAP4 DUP5 SWAP4 DUP5 PUSH2 0x16A0 JUMP JUMPDEST DUP1 PUSH2 0x1299 PUSH2 0x1294 PUSH1 0x1 SWAP4 DUP6 PUSH2 0x1945 JUMP JUMPDEST PUSH2 0x1741 JUMP JUMPDEST DUP4 DUP1 PUSH1 0xA0 SHL SUB SWAP2 SLOAD SWAP1 PUSH1 0x3 SHL SHR AND PUSH2 0x12B1 DUP3 DUP9 PUSH2 0x19A9 JUMP JUMPDEST MSTORE DUP2 DUP1 PUSH1 0xA0 SHL SUB PUSH2 0x12C2 DUP3 DUP9 PUSH2 0x19A9 JUMP JUMPDEST MLOAD AND PUSH1 0x0 MSTORE PUSH1 0x3 PUSH1 0x20 MSTORE PUSH1 0x40 PUSH1 0x0 KECCAK256 SLOAD PUSH2 0x12DC DUP3 DUP10 PUSH2 0x19A9 JUMP JUMPDEST MSTORE DUP2 DUP1 PUSH1 0xA0 SHL SUB PUSH2 0x12ED DUP3 DUP9 PUSH2 0x19A9 JUMP JUMPDEST MLOAD AND PUSH1 0x0 MSTORE PUSH1 0x4 PUSH1 0x20 MSTORE PUSH1 0x40 PUSH1 0x0 KECCAK256 SLOAD PUSH2 0x1307 DUP3 DUP8 PUSH2 0x19A9 JUMP JUMPDEST MSTORE ADD PUSH2 0x126A JUMP JUMPDEST PUSH1 0x40 MLOAD PUSH3 0x461BCD PUSH1 0xE5 SHL DUP2 MSTORE PUSH1 0x20 PUSH1 0x4 DUP3 ADD MSTORE PUSH1 0xC PUSH1 0x24 DUP3 ADD MSTORE PUSH12 0x496E76616C69642073697A65 PUSH1 0xA0 SHL PUSH1 0x44 DUP3 ADD MSTORE PUSH1 0x64 SWAP1 REVERT JUMPDEST POP PUSH2 0x3E8 DUP2 GT ISZERO PUSH2 0x1227 JUMP JUMPDEST PUSH1 0x40 MLOAD PUSH3 0x461BCD PUSH1 0xE5 SHL DUP2 MSTORE PUSH1 0x20 PUSH1 0x4 DUP3 ADD MSTORE PUSH1 0xD PUSH1 0x24 DUP3 ADD MSTORE PUSH13 0x125B9D985B1A59081CDD185C9D PUSH1 0x9A SHL PUSH1 0x44 DUP3 ADD MSTORE PUSH1 0x64 SWAP1 REVERT JUMPDEST PUSH1 0x40 CALLDATASIZE PUSH1 0x3 NOT ADD SLT PUSH2 0x1B3 JUMPI PUSH2 0x1397 PUSH2 0x1628 JUMP JUMPDEST PUSH1 0x24 CALLDATALOAD PUSH8 0xFFFFFFFFFFFFFFFF DUP2 GT PUSH2 0x1B3 JUMPI PUSH2 0x13B7 SWAP1 CALLDATASIZE SWAP1 PUSH1 0x4 ADD PUSH2 0x163E JUMP JUMPDEST SWAP2 SWAP1 PUSH1 0x1 PUSH1 0x1 PUSH1 0xA0 SHL SUB DUP3 AND PUSH2 0x13CE DUP2 ISZERO ISZERO PUSH2 0x18DD JUMP JUMPDEST PUSH1 0x40 MLOAD DUP5 DUP4 DUP3 CALLDATACOPY PUSH1 0x8 DUP2 DUP7 ADD SWAP1 DUP2 MSTORE DUP2 SWAP1 SUB PUSH1 0x20 ADD SWAP1 KECCAK256 SLOAD PUSH1 0x1 PUSH1 0x1 PUSH1 0xA0 SHL SUB AND ISZERO PUSH2 0x15B1 JUMPI DUP1 PUSH1 0x0 MSTORE PUSH1 0xA PUSH1 0x20 MSTORE PUSH2 0x140B PUSH1 0x40 PUSH1 0x0 KECCAK256 SLOAD PUSH2 0x1772 JUMP JUMPDEST ISZERO PUSH2 0x141A JUMPI JUMPDEST PUSH2 0x4CE DUP4 PUSH2 0x1AE1 JUMP JUMPDEST DUP1 PUSH1 0x0 MSTORE PUSH1 0xA PUSH1 0x20 MSTORE PUSH1 0x40 PUSH1 0x0 KECCAK256 PUSH8 0xFFFFFFFFFFFFFFFF DUP6 GT PUSH2 0xE95 JUMPI PUSH2 0x1441 DUP2 SLOAD PUSH2 0x1772 JUMP JUMPDEST PUSH1 0x1F DUP2 GT PUSH2 0x1569 JUMPI JUMPDEST POP PUSH1 0x0 PUSH1 0x1F DUP7 GT PUSH1 0x1 EQ PUSH2 0x14E1 JUMPI SWAP5 PUSH32 0x7F4295D529CB1FAFD5EEE3E47F17F636E81A66D5BB99A18711F2B46E3EC58151 SWAP2 DUP2 PUSH2 0x4CE SWAP8 PUSH1 0x0 SWAP2 PUSH2 0x14D6 JUMPI JUMPDEST POP DUP3 PUSH1 0x1 SHL SWAP1 PUSH1 0x0 NOT DUP5 PUSH1 0x3 SHL SHR NOT AND OR SWAP1 SSTORE JUMPDEST PUSH1 0x40 MLOAD DUP2 DUP6 DUP3 CALLDATACOPY DUP2 DUP2 ADD SWAP1 PUSH1 0x8 DUP3 MSTORE PUSH1 0x20 DUP2 PUSH1 0x1 DUP1 PUSH1 0xA0 SHL SUB SWAP4 SUB ADD SWAP1 KECCAK256 SLOAD AND SWAP4 PUSH2 0x14CC PUSH1 0x40 MLOAD SWAP3 DUP4 SWAP3 DUP4 PUSH2 0x191D JUMP JUMPDEST SUB SWAP1 LOG3 DUP3 DUP1 PUSH2 0x1411 JUMP JUMPDEST SWAP1 POP DUP6 ADD CALLDATALOAD DUP9 PUSH2 0x1488 JUMP JUMPDEST DUP2 DUP2 MSTORE PUSH1 0x20 DUP2 KECCAK256 SWAP1 PUSH1 0x1F NOT DUP8 AND DUP2 JUMPDEST DUP2 DUP2 LT PUSH2 0x1551 JUMPI POP SWAP2 PUSH32 0x7F4295D529CB1FAFD5EEE3E47F17F636E81A66D5BB99A18711F2B46E3EC58151 SWAP4 SWAP2 DUP9 PUSH2 0x4CE SWAP10 SWAP5 LT PUSH2 0x1537 JUMPI JUMPDEST POP POP PUSH1 0x1 DUP3 DUP2 SHL ADD SWAP1 SSTORE PUSH2 0x149C JUMP JUMPDEST DUP7 ADD CALLDATALOAD PUSH1 0x0 NOT PUSH1 0x3 DUP6 SWAP1 SHL PUSH1 0xF8 AND SHR NOT AND SWAP1 SSTORE DUP8 DUP1 PUSH2 0x1528 JUMP JUMPDEST SWAP2 SWAP3 PUSH1 0x20 PUSH1 0x1 DUP2 SWAP3 DUP7 DUP11 ADD CALLDATALOAD DUP2 SSTORE ADD SWAP5 ADD SWAP3 ADD PUSH2 0x14F0 JUMP JUMPDEST DUP2 PUSH1 0x0 MSTORE PUSH1 0x20 PUSH1 0x0 KECCAK256 PUSH1 0x1F DUP8 ADD PUSH1 0x5 SHR DUP2 ADD SWAP2 PUSH1 0x20 DUP9 LT PUSH2 0x15A7 JUMPI JUMPDEST PUSH1 0x1F ADD PUSH1 0x5 SHR ADD SWAP1 JUMPDEST DUP2 DUP2 LT PUSH2 0x159B JUMPI POP PUSH2 0x144A JUMP JUMPDEST PUSH1 0x0 DUP2 SSTORE PUSH1 0x1 ADD PUSH2 0x158E JUMP JUMPDEST SWAP1 SWAP2 POP DUP2 SWAP1 PUSH2 0x1585 JUMP JUMPDEST PUSH1 0x40 MLOAD PUSH3 0x461BCD PUSH1 0xE5 SHL DUP2 MSTORE PUSH1 0x20 PUSH1 0x4 DUP3 ADD MSTORE PUSH1 0x15 PUSH1 0x24 DUP3 ADD MSTORE PUSH21 0x496E76616C696420726566657272616C20636F6465 PUSH1 0x58 SHL PUSH1 0x44 DUP3 ADD MSTORE PUSH1 0x64 SWAP1 REVERT JUMPDEST CALLVALUE PUSH2 0x1B3 JUMPI PUSH1 0x0 CALLDATASIZE PUSH1 0x3 NOT ADD SLT PUSH2 0x1B3 JUMPI PUSH1 0x20 PUSH1 0x40 MLOAD PUSH4 0x2FAF080 DUP2 MSTORE RETURN JUMPDEST CALLVALUE PUSH2 0x1B3 JUMPI PUSH1 0x0 CALLDATASIZE PUSH1 0x3 NOT ADD SLT PUSH2 0x1B3 JUMPI PUSH1 0x20 SWAP1 PUSH1 0x1 SLOAD DUP2 MSTORE RETURN JUMPDEST PUSH1 0x4 CALLDATALOAD SWAP1 PUSH1 0x1 PUSH1 0x1 PUSH1 0xA0 SHL SUB DUP3 AND DUP3 SUB PUSH2 0x1B3 JUMPI JUMP JUMPDEST SWAP2 DUP2 PUSH1 0x1F DUP5 ADD SLT ISZERO PUSH2 0x1B3 JUMPI DUP3 CALLDATALOAD SWAP2 PUSH8 0xFFFFFFFFFFFFFFFF DUP4 GT PUSH2 0x1B3 JUMPI PUSH1 0x20 DUP4 DUP2 DUP7 ADD SWAP6 ADD ADD GT PUSH2 0x1B3 JUMPI JUMP JUMPDEST SWAP1 PUSH1 0x20 DUP1 DUP4 MLOAD SWAP3 DUP4 DUP2 MSTORE ADD SWAP3 ADD SWAP1 PUSH1 0x0 JUMPDEST DUP2 DUP2 LT PUSH2 0x168A JUMPI POP POP POP SWAP1 JUMP JUMPDEST DUP3 MLOAD DUP5 MSTORE PUSH1 0x20 SWAP4 DUP5 ADD SWAP4 SWAP1 SWAP3 ADD SWAP2 PUSH1 0x1 ADD PUSH2 0x167D JUMP JUMPDEST SWAP2 SWAP4 SWAP3 SWAP1 SWAP4 PUSH1 0x60 DUP4 ADD PUSH1 0x60 DUP5 MSTORE DUP6 MLOAD DUP1 SWAP2 MSTORE PUSH1 0x20 PUSH1 0x80 DUP6 ADD SWAP7 ADD SWAP1 PUSH1 0x0 JUMPDEST DUP2 DUP2 LT PUSH2 0x16EF JUMPI POP POP POP DUP5 PUSH2 0x16DE SWAP2 DUP5 PUSH2 0x16EC SWAP7 SWAP8 SUB PUSH1 0x20 DUP7 ADD MSTORE PUSH2 0x166C JUMP JUMPDEST SWAP2 PUSH1 0x40 DUP2 DUP5 SUB SWAP2 ADD MSTORE PUSH2 0x166C JUMP JUMPDEST SWAP1 JUMP JUMPDEST DUP3 MLOAD PUSH1 0x1 PUSH1 0x1 PUSH1 0xA0 SHL SUB AND DUP9 MSTORE PUSH1 0x20 SWAP8 DUP9 ADD SWAP8 SWAP1 SWAP3 ADD SWAP2 PUSH1 0x1 ADD PUSH2 0x16BE JUMP JUMPDEST PUSH1 0x60 SWAP1 PUSH1 0x3 NOT ADD SLT PUSH2 0x1B3 JUMPI PUSH1 0x4 CALLDATALOAD PUSH1 0x1 PUSH1 0x1 PUSH1 0xA0 SHL SUB DUP2 AND DUP2 SUB PUSH2 0x1B3 JUMPI SWAP1 PUSH1 0x24 CALLDATALOAD SWAP1 PUSH1 0x44 CALLDATALOAD DUP1 ISZERO ISZERO DUP2 SUB PUSH2 0x1B3 JUMPI SWAP1 JUMP JUMPDEST PUSH1 0x5 SLOAD DUP2 LT ISZERO PUSH2 0x175C JUMPI PUSH1 0x5 PUSH1 0x0 MSTORE PUSH1 0x20 PUSH1 0x0 KECCAK256 ADD SWAP1 PUSH1 0x0 SWAP1 JUMP JUMPDEST PUSH4 0x4E487B71 PUSH1 0xE0 SHL PUSH1 0x0 MSTORE PUSH1 0x32 PUSH1 0x4 MSTORE PUSH1 0x24 PUSH1 0x0 REVERT JUMPDEST SWAP1 PUSH1 0x1 DUP3 DUP2 SHR SWAP3 AND DUP1 ISZERO PUSH2 0x17A2 JUMPI JUMPDEST PUSH1 0x20 DUP4 LT EQ PUSH2 0x178C JUMPI JUMP JUMPDEST PUSH4 0x4E487B71 PUSH1 0xE0 SHL PUSH1 0x0 MSTORE PUSH1 0x22 PUSH1 0x4 MSTORE PUSH1 0x24 PUSH1 0x0 REVERT JUMPDEST SWAP2 PUSH1 0x7F AND SWAP2 PUSH2 0x1781 JUMP JUMPDEST SWAP1 PUSH1 0x1F DUP1 NOT SWAP2 ADD AND DUP2 ADD SWAP1 DUP2 LT PUSH8 0xFFFFFFFFFFFFFFFF DUP3 GT OR PUSH2 0xE95 JUMPI PUSH1 0x40 MSTORE JUMP JUMPDEST SWAP1 PUSH1 0x40 MLOAD SWAP2 DUP3 PUSH1 0x0 DUP3 SLOAD SWAP3 PUSH2 0x17E2 DUP5 PUSH2 0x1772 JUMP JUMPDEST DUP1 DUP5 MSTORE SWAP4 PUSH1 0x1 DUP2 AND SWAP1 DUP2 ISZERO PUSH2 0x1850 JUMPI POP PUSH1 0x1 EQ PUSH2 0x1809 JUMPI JUMPDEST POP PUSH2 0x1807 SWAP3 POP SUB DUP4 PUSH2 0x17AC JUMP JUMPDEST JUMP JUMPDEST SWAP1 POP PUSH1 0x0 SWAP3 SWAP2 SWAP3 MSTORE PUSH1 0x20 PUSH1 0x0 KECCAK256 SWAP1 PUSH1 0x0 SWAP2 JUMPDEST DUP2 DUP4 LT PUSH2 0x1834 JUMPI POP POP SWAP1 PUSH1 0x20 PUSH2 0x1807 SWAP3 DUP3 ADD ADD CODESIZE PUSH2 0x17FA JUMP JUMPDEST PUSH1 0x20 SWAP2 SWAP4 POP DUP1 PUSH1 0x1 SWAP2 SLOAD DUP4 DUP6 DUP10 ADD ADD MSTORE ADD SWAP2 ADD SWAP1 SWAP2 DUP5 SWAP3 PUSH2 0x181B JUMP JUMPDEST SWAP1 POP PUSH1 0x20 SWAP3 POP PUSH2 0x1807 SWAP5 SWAP2 POP PUSH1 0xFF NOT AND DUP3 DUP5 ADD MSTORE ISZERO ISZERO PUSH1 0x5 SHL DUP3 ADD ADD CODESIZE PUSH2 0x17FA JUMP JUMPDEST PUSH1 0x0 JUMPDEST DUP4 DUP2 LT PUSH2 0x1885 JUMPI POP POP PUSH1 0x0 SWAP2 ADD MSTORE JUMP JUMPDEST DUP2 DUP2 ADD MLOAD DUP4 DUP3 ADD MSTORE PUSH1 0x20 ADD PUSH2 0x1875 JUMP JUMPDEST PUSH1 0x40 SWAP2 PUSH1 0x20 DUP3 MSTORE PUSH2 0x18B5 DUP2 MLOAD DUP1 SWAP3 DUP2 PUSH1 0x20 DUP7 ADD MSTORE PUSH1 0x20 DUP7 DUP7 ADD SWAP2 ADD PUSH2 0x1872 JUMP JUMPDEST PUSH1 0x1F ADD PUSH1 0x1F NOT AND ADD ADD SWAP1 JUMP JUMPDEST PUSH8 0xFFFFFFFFFFFFFFFF DUP2 GT PUSH2 0xE95 JUMPI PUSH1 0x1F ADD PUSH1 0x1F NOT AND PUSH1 0x20 ADD SWAP1 JUMP JUMPDEST ISZERO PUSH2 0x18E4 JUMPI JUMP JUMPDEST PUSH1 0x40 MLOAD PUSH3 0x461BCD PUSH1 0xE5 SHL DUP2 MSTORE PUSH1 0x20 PUSH1 0x4 DUP3 ADD MSTORE PUSH1 0x11 PUSH1 0x24 DUP3 ADD MSTORE PUSH17 0x125B9D985B1A59081C9958DA5C1A595B9D PUSH1 0x7A SHL PUSH1 0x44 DUP3 ADD MSTORE PUSH1 0x64 SWAP1 REVERT JUMPDEST SWAP1 SWAP2 DUP1 PUSH1 0x40 SWAP4 PUSH1 0x20 DUP5 MSTORE DUP2 PUSH1 0x20 DUP6 ADD MSTORE DUP5 DUP5 ADD CALLDATACOPY PUSH1 0x0 DUP3 DUP3 ADD DUP5 ADD MSTORE PUSH1 0x1F ADD PUSH1 0x1F NOT AND ADD ADD SWAP1 JUMP JUMPDEST SWAP2 SWAP1 DUP3 ADD DUP1 SWAP3 GT PUSH2 0xBB2 JUMPI JUMP JUMPDEST SWAP2 SWAP1 DUP3 SUB SWAP2 DUP3 GT PUSH2 0xBB2 JUMPI JUMP JUMPDEST PUSH8 0xFFFFFFFFFFFFFFFF DUP2 GT PUSH2 0xE95 JUMPI PUSH1 0x5 SHL PUSH1 0x20 ADD SWAP1 JUMP JUMPDEST SWAP1 PUSH2 0x1981 DUP3 PUSH2 0x195F JUMP JUMPDEST PUSH2 0x198E PUSH1 0x40 MLOAD SWAP2 DUP3 PUSH2 0x17AC JUMP JUMPDEST DUP3 DUP2 MSTORE DUP1 SWAP3 PUSH2 0x199F PUSH1 0x1F NOT SWAP2 PUSH2 0x195F JUMP JUMPDEST ADD SWAP1 PUSH1 0x20 CALLDATASIZE SWAP2 ADD CALLDATACOPY JUMP JUMPDEST DUP1 MLOAD DUP3 LT ISZERO PUSH2 0x175C JUMPI PUSH1 0x20 SWAP2 PUSH1 0x5 SHL ADD ADD SWAP1 JUMP JUMPDEST RETURNDATASIZE ISZERO PUSH2 0x19E8 JUMPI RETURNDATASIZE SWAP1 PUSH2 0x19CE DUP3 PUSH2 0x18C1 JUMP JUMPDEST SWAP2 PUSH2 0x19DC PUSH1 0x40 MLOAD SWAP4 DUP5 PUSH2 0x17AC JUMP JUMPDEST DUP3 MSTORE RETURNDATASIZE PUSH1 0x0 PUSH1 0x20 DUP5 ADD RETURNDATACOPY JUMP JUMPDEST PUSH1 0x60 SWAP1 JUMP JUMPDEST ISZERO PUSH2 0x19F4 JUMPI JUMP JUMPDEST PUSH1 0x40 MLOAD PUSH3 0x461BCD PUSH1 0xE5 SHL DUP2 MSTORE PUSH1 0x20 PUSH1 0x4 DUP3 ADD MSTORE PUSH1 0x1D PUSH1 0x24 DUP3 ADD MSTORE PUSH32 0x416D6F756E74206D7573742062652067726561746572207468616E2030000000 PUSH1 0x44 DUP3 ADD MSTORE PUSH1 0x64 SWAP1 REVERT JUMPDEST PUSH1 0x5 SLOAD PUSH9 0x10000000000000000 DUP2 LT ISZERO PUSH2 0xE95 JUMPI PUSH1 0x1 DUP2 ADD PUSH1 0x5 SSTORE PUSH1 0x0 PUSH1 0x5 SLOAD DUP3 LT ISZERO PUSH2 0x1AA5 JUMPI PUSH1 0x5 SWAP1 MSTORE PUSH32 0x36B6384B5ECA791C62761152D0C79BB0604C104A5FB6F4EB0703F3154BB3DB0 ADD DUP1 SLOAD PUSH1 0x1 PUSH1 0x1 PUSH1 0xA0 SHL SUB NOT AND PUSH1 0x1 PUSH1 0x1 PUSH1 0xA0 SHL SUB SWAP1 SWAP3 AND SWAP2 SWAP1 SWAP2 OR SWAP1 SSTORE JUMP JUMPDEST PUSH4 0x4E487B71 PUSH1 0xE0 SHL DUP2 MSTORE PUSH1 0x32 PUSH1 0x4 MSTORE PUSH1 0x24 SWAP1 REVERT JUMPDEST PUSH1 0x2 SLOAD PUSH4 0x2FAF080 DUP2 LT PUSH2 0x1ACD JUMPI POP PUSH1 0x0 SWAP1 JUMP JUMPDEST PUSH4 0x2FAF080 SUB PUSH4 0x2FAF080 DUP2 GT PUSH2 0xBB2 JUMPI SWAP1 JUMP JUMPDEST PUSH8 0xDE0B6B3A7640000 CALLVALUE LT PUSH2 0x1CF8 JUMPI PUSH8 0xDE0B6B3A7640000 CALLVALUE DIV PUSH1 0x32 DUP2 MUL SWAP1 DUP1 DUP3 DIV PUSH1 0x32 EQ SWAP1 ISZERO OR ISZERO PUSH2 0xBB2 JUMPI PUSH8 0xDE0B6B3A7640000 CALLVALUE MOD SWAP1 PUSH1 0x32 DUP3 MUL SWAP2 DUP1 DUP4 DIV PUSH1 0x32 EQ SWAP1 ISZERO OR ISZERO PUSH2 0xBB2 JUMPI PUSH8 0xDE0B6B3A7640000 PUSH2 0x1B41 SWAP3 DIV SWAP1 PUSH2 0x1945 JUMP JUMPDEST SWAP1 DUP2 PUSH1 0x1 DUP1 PUSH1 0xA0 SHL SUB DUP3 AND SWAP3 DUP4 PUSH1 0x0 MSTORE PUSH1 0xA PUSH1 0x20 MSTORE PUSH2 0x1B63 PUSH1 0x40 PUSH1 0x0 KECCAK256 PUSH2 0x17CE JUMP JUMPDEST DUP1 MLOAD ISZERO PUSH2 0x1CB4 JUMPI PUSH1 0x1 SLOAD DUP1 DUP5 MUL SWAP1 DUP5 DUP3 DIV EQ DUP5 ISZERO OR ISZERO PUSH2 0xBB2 JUMPI PUSH2 0x2710 PUSH2 0x1B8C SWAP2 DIV DUP1 SWAP5 PUSH2 0x1945 JUMP JUMPDEST PUSH4 0x2FAF080 PUSH2 0x1B9D DUP3 PUSH1 0x2 SLOAD PUSH2 0x1945 JUMP JUMPDEST GT PUSH2 0x64F JUMPI PUSH32 0x900825D4808E50002C1A3614C809EB06D2D7142338F0DEC06ED9A4057C8A8C99 SWAP5 PUSH1 0x20 SWAP5 PUSH2 0x1C3C SWAP4 DUP7 PUSH2 0x1BDF PUSH1 0x40 MLOAD SWAP3 DUP4 DUP2 MLOAD SWAP4 DUP5 SWAP3 ADD PUSH2 0x1872 JUMP JUMPDEST PUSH1 0x8 SWAP1 DUP3 ADD SWAP1 DUP2 MSTORE DUP2 SWAP1 SUB DUP8 ADD SWAP1 KECCAK256 SLOAD PUSH1 0x1 PUSH1 0x1 PUSH1 0xA0 SHL SUB AND SWAP1 DUP2 PUSH2 0x1C6F JUMPI JUMPDEST POP POP JUMPDEST DUP7 PUSH1 0x0 MSTORE PUSH1 0x3 DUP6 MSTORE PUSH1 0x40 PUSH1 0x0 KECCAK256 PUSH2 0x1C1A DUP6 DUP3 SLOAD PUSH2 0x1945 JUMP JUMPDEST SWAP1 SSTORE DUP7 PUSH1 0x0 MSTORE PUSH1 0x6 DUP6 MSTORE PUSH1 0xFF PUSH1 0x40 PUSH1 0x0 KECCAK256 SLOAD AND ISZERO PUSH2 0x1C48 JUMPI JUMPDEST POP PUSH1 0x2 SLOAD PUSH2 0x1945 JUMP JUMPDEST PUSH1 0x2 SSTORE PUSH1 0x40 MLOAD SWAP1 DUP2 MSTORE LOG2 JUMP JUMPDEST PUSH2 0x1C51 SWAP1 PUSH2 0x1A39 JUMP JUMPDEST DUP6 PUSH1 0x0 MSTORE PUSH1 0x6 DUP5 MSTORE PUSH1 0x40 PUSH1 0x0 KECCAK256 PUSH1 0x1 PUSH1 0xFF NOT DUP3 SLOAD AND OR SWAP1 SSTORE CODESIZE PUSH2 0x1C33 JUMP JUMPDEST DUP7 DUP9 SWAP2 DUP4 PUSH1 0x0 MSTORE PUSH1 0x3 DUP3 MSTORE PUSH1 0x40 PUSH1 0x0 KECCAK256 PUSH2 0x1C8A DUP3 DUP3 SLOAD PUSH2 0x1945 JUMP JUMPDEST SWAP1 SSTORE DUP4 PUSH1 0x0 MSTORE PUSH1 0x4 DUP3 MSTORE PUSH1 0x40 PUSH1 0x0 KECCAK256 PUSH2 0x1CA4 DUP3 DUP3 SLOAD PUSH2 0x1945 JUMP JUMPDEST SWAP1 SSTORE PUSH1 0x40 MLOAD SWAP1 DUP2 MSTORE LOG2 CODESIZE DUP1 PUSH2 0x1BFF JUMP JUMPDEST POP PUSH4 0x2FAF080 PUSH2 0x1CC6 DUP4 PUSH1 0x2 SLOAD PUSH2 0x1945 JUMP JUMPDEST GT PUSH2 0x64F JUMPI PUSH2 0x1C3C PUSH1 0x20 SWAP3 PUSH32 0x900825D4808E50002C1A3614C809EB06D2D7142338F0DEC06ED9A4057C8A8C99 SWAP5 PUSH2 0x1C02 JUMP JUMPDEST PUSH4 0x82AD3905 PUSH1 0xE0 SHL PUSH1 0x0 MSTORE PUSH8 0xDE0B6B3A7640000 PUSH1 0x4 MSTORE PUSH1 0x24 PUSH1 0x0 REVERT JUMPDEST PUSH1 0x0 SLOAD PUSH1 0x1 PUSH1 0x1 PUSH1 0xA0 SHL SUB AND CALLER SUB PUSH2 0x1D29 JUMPI JUMP JUMPDEST PUSH4 0x118CDAA7 PUSH1 0xE0 SHL PUSH1 0x0 MSTORE CALLER PUSH1 0x4 MSTORE PUSH1 0x24 PUSH1 0x0 REVERT JUMPDEST DUP2 DUP2 SUB SWAP3 SWAP2 PUSH1 0x0 SGT DUP1 ISZERO DUP3 DUP6 SGT AND SWAP2 DUP5 SLT AND OR PUSH2 0xBB2 JUMPI JUMP JUMPDEST SWAP2 SWAP1 SWAP2 PUSH1 0x0 DUP4 DUP3 ADD SWAP4 DUP5 SLT SWAP2 SLT SWAP1 DUP1 ISZERO DUP3 AND SWAP2 ISZERO AND OR PUSH2 0xBB2 JUMPI JUMP JUMPDEST PUSH1 0x1 PUSH1 0x1 PUSH1 0xFF SHL SUB DUP2 EQ PUSH2 0xBB2 JUMPI PUSH1 0x1 ADD SWAP1 JUMP JUMPDEST PUSH1 0x1 PUSH1 0xFF SHL DUP2 EQ PUSH2 0xBB2 JUMPI PUSH1 0x0 NOT ADD SWAP1 JUMP JUMPDEST SWAP4 SWAP3 SWAP2 SWAP1 DUP4 DUP4 SLT ISZERO PUSH2 0x1DEC JUMPI PUSH2 0x1DCB PUSH2 0x1DC5 PUSH2 0x1DBF PUSH2 0x1DB8 DUP7 DUP9 PUSH2 0x1D3E JUMP JUMPDEST PUSH1 0x2 SWAP1 SDIV SWAP1 JUMP JUMPDEST DUP6 PUSH2 0x1D57 JUMP JUMPDEST DUP3 PUSH2 0x19A9 JUMP JUMPDEST MLOAD DUP4 SWAP1 DUP6 SWAP1 JUMPDEST DUP2 DUP7 SGT ISZERO PUSH2 0x1E19 JUMPI POP DUP1 DUP3 SLT PUSH2 0x1E06 JUMPI JUMPDEST POP POP DUP4 DUP4 SLT PUSH2 0x1DF3 JUMPI JUMPDEST POP POP POP POP POP JUMP JUMPDEST PUSH2 0x1DFC SWAP5 PUSH2 0x1D99 JUMP JUMPDEST CODESIZE DUP1 DUP1 DUP1 DUP1 PUSH2 0x1DEC JUMP JUMPDEST PUSH2 0x1E12 SWAP2 DUP5 DUP5 DUP10 PUSH2 0x1D99 JUMP JUMPDEST CODESIZE DUP1 PUSH2 0x1DE2 JUMP JUMPDEST SWAP7 SWAP5 SWAP8 SWAP2 SWAP3 SWAP8 SWAP6 SWAP1 SWAP6 JUMPDEST DUP8 PUSH2 0x1E2E DUP3 DUP12 PUSH2 0x19A9 JUMP JUMPDEST MLOAD GT ISZERO PUSH2 0x1E43 JUMPI PUSH2 0x1E3E SWAP1 PUSH2 0x1D73 JUMP JUMPDEST PUSH2 0x1E23 JUMP JUMPDEST SWAP5 SWAP6 JUMPDEST DUP8 PUSH2 0x1E51 DUP3 DUP12 PUSH2 0x19A9 JUMP JUMPDEST MLOAD LT ISZERO PUSH2 0x1E66 JUMPI PUSH2 0x1E61 SWAP1 PUSH2 0x1D87 JUMP JUMPDEST PUSH2 0x1E46 JUMP JUMPDEST SWAP1 SWAP6 SWAP7 SWAP8 SWAP3 SWAP2 SWAP8 DUP2 DUP7 SGT PUSH2 0x1DD1 JUMPI SWAP1 SWAP5 PUSH2 0x1F2B PUSH2 0x1F31 SWAP2 PUSH2 0x1ECE PUSH2 0x1E9A PUSH2 0x1E8D DUP11 DUP14 PUSH2 0x19A9 JUMP JUMPDEST MLOAD PUSH1 0x1 PUSH1 0x1 PUSH1 0xA0 SHL SUB AND SWAP1 JUMP JUMPDEST PUSH2 0x1EC4 DUP13 PUSH2 0x1EB5 DUP13 PUSH2 0x1EAF PUSH2 0x1E8D DUP9 DUP6 PUSH2 0x19A9 JUMP JUMPDEST SWAP3 PUSH2 0x19A9 JUMP JUMPDEST PUSH1 0x1 PUSH1 0x1 PUSH1 0xA0 SHL SUB SWAP1 SWAP2 AND SWAP1 MSTORE JUMP JUMPDEST PUSH2 0x1EB5 DUP4 DUP14 PUSH2 0x19A9 JUMP JUMPDEST PUSH2 0x1ED8 DUP9 DUP8 PUSH2 0x19A9 JUMP JUMPDEST MLOAD PUSH2 0x1EE3 DUP3 DUP9 PUSH2 0x19A9 JUMP JUMPDEST MLOAD PUSH2 0x1EEE DUP11 DUP10 PUSH2 0x19A9 JUMP JUMPDEST MSTORE PUSH2 0x1EF9 DUP3 DUP9 PUSH2 0x19A9 JUMP JUMPDEST MSTORE PUSH2 0x1F04 DUP9 DUP9 PUSH2 0x19A9 JUMP JUMPDEST MLOAD PUSH2 0x1F0F DUP3 DUP10 PUSH2 0x19A9 JUMP JUMPDEST MLOAD PUSH2 0x1F1A DUP11 DUP11 PUSH2 0x19A9 JUMP JUMPDEST MSTORE PUSH2 0x1F25 DUP3 DUP10 PUSH2 0x19A9 JUMP JUMPDEST MSTORE PUSH2 0x1D73 JUMP JUMPDEST SWAP6 PUSH2 0x1D87 JUMP JUMPDEST SWAP1 PUSH2 0x1DD1 JUMP INVALID LOG2 PUSH5 0x6970667358 0x22 SLT KECCAK256 0xBF 0xE3 SWAP14 PUSH4 0xF9B3891F 0xBB PUSH27 0xF2C3DEBE8A3283B6C3686989A54B6A271AB5305F23A564736F6C63 NUMBER STOP ADDMOD SHR STOP CALLER "},"methodIdentifiers":{"MAX_POINTS()":"25f87d23","MIN_DEPOSIT()":"e1e158a5","POINTS_PER_S()":"65dbcd43","POINTS_PER_S_CASHOUT()":"81a3b8ea","addressList(uint256)":"b810fb43","addressToReferralCode(address)":"b868e7a1","assignPoints(address,uint256,bool)":"97cbbf24","authorizedContracts(address)":"d5b9221b","awardPointsForPayout(address,uint256,bool)":"bd867242","cashOutReferralPoints(uint256)":"4347f23b","deposit()":"d0e30db0","depositFor(address)":"aa67c919","depositFor(address,string)":"2e8d97b7","depositForCashouts()":"a1283a68","getAddressCount()":"cdbb02af","getAddressesPaginated(uint256,uint256)":"350a8f6c","getLeaderboard()":"6d763a6e","getPoints(address)":"ee204abb","getRemainingPoints()":"f5ee80e1","hasPoints(address)":"5035070b","owner()":"8da5cb5b","points(address)":"358b8166","referralBonusBps()":"195ad3d5","referralCodeToAddress(string)":"d6f92372","referralPoints(address)":"eb72d4f1","registerMe()":"9a198d61","registerReferralCode(string)":"59fb7752","renounceOwnership()":"715018a6","setContractAuthorization(address,bool)":"f60ccc86","setReferralBonus(uint256)":"9a037aa0","totalPointsIssued()":"fd1c8811","transferOwnership(address)":"f2fde38b","usedReferralCode(address)":"ca7eeb57","withdraw()":"3ccfd60b"}}}}}