{"contracts/casino/climb.sol":{"Climb":{"abi":[{"inputs":[{"internalType":"address","name":"entropyAddress","type":"address"},{"internalType":"address","name":"pointsAddress","type":"address"}],"stateMutability":"nonpayable","type":"constructor"},{"inputs":[{"internalType":"address","name":"owner","type":"address"}],"name":"OwnableInvalidOwner","type":"error"},{"inputs":[{"internalType":"address","name":"account","type":"address"}],"name":"OwnableUnauthorizedAccount","type":"error"},{"inputs":[],"name":"ReentrancyGuardReentrantCall","type":"error"},{"anonymous":false,"inputs":[{"indexed":true,"internalType":"address","name":"player","type":"address"},{"indexed":true,"internalType":"uint256","name":"gameId","type":"uint256"},{"indexed":false,"internalType":"uint8","name":"startLevel","type":"uint8"},{"indexed":false,"internalType":"uint8","name":"finalLevel","type":"uint8"},{"indexed":false,"internalType":"uint8","name":"targetLevel","type":"uint8"},{"indexed":false,"internalType":"bool","name":"reachedTarget","type":"bool"}],"name":"AutoClimbCompleted","type":"event"},{"anonymous":false,"inputs":[{"indexed":true,"internalType":"address","name":"player","type":"address"},{"indexed":true,"internalType":"uint256","name":"gameId","type":"uint256"},{"indexed":false,"internalType":"uint8","name":"fromLevel","type":"uint8"},{"indexed":false,"internalType":"uint8","name":"newLevel","type":"uint8"},{"indexed":false,"internalType":"bool","name":"success","type":"bool"},{"indexed":false,"internalType":"bool","name":"gameEnded","type":"bool"},{"indexed":false,"internalType":"uint256","name":"randomNumber","type":"uint256"}],"name":"ClimbResult","type":"event"},{"anonymous":false,"inputs":[{"indexed":true,"internalType":"address","name":"player","type":"address"},{"indexed":true,"internalType":"uint256","name":"gameId","type":"uint256"},{"indexed":false,"internalType":"uint64","name":"sequenceNumber","type":"uint64"},{"indexed":false,"internalType":"uint256","name":"randomNumber","type":"uint256"}],"name":"EntropyReceived","type":"event"},{"anonymous":false,"inputs":[{"indexed":true,"internalType":"address","name":"depositor","type":"address"},{"indexed":false,"internalType":"uint256","name":"amount","type":"uint256"}],"name":"FundsDeposited","type":"event"},{"anonymous":false,"inputs":[{"components":[{"internalType":"address","name":"player","type":"address"},{"internalType":"uint256","name":"gameId","type":"uint256"},{"internalType":"uint8","name":"finalLevel","type":"uint8"},{"internalType":"bool","name":"success","type":"bool"},{"internalType":"uint32","name":"finalMultiplier","type":"uint32"},{"internalType":"uint256","name":"payout","type":"uint256"},{"internalType":"string","name":"endReason","type":"string"},{"internalType":"bool","name":"paidInPoints","type":"bool"}],"indexed":false,"internalType":"struct Climb.GameEndData","name":"data","type":"tuple"}],"name":"GameEnded","type":"event"},{"anonymous":false,"inputs":[{"components":[{"internalType":"address","name":"player","type":"address"},{"internalType":"uint256","name":"gameId","type":"uint256"},{"internalType":"uint256","name":"timestamp","type":"uint256"},{"internalType":"uint256","name":"depositAmount","type":"uint256"}],"indexed":false,"internalType":"struct Climb.GameStartData","name":"data","type":"tuple"}],"name":"GameStarted","type":"event"},{"anonymous":false,"inputs":[{"indexed":false,"internalType":"uint256","name":"oldMaxDeposit","type":"uint256"},{"indexed":false,"internalType":"uint256","name":"newMaxDeposit","type":"uint256"}],"name":"MaxDepositChanged","type":"event"},{"anonymous":false,"inputs":[{"indexed":true,"internalType":"address","name":"previousOwner","type":"address"},{"indexed":true,"internalType":"address","name":"newOwner","type":"address"}],"name":"OwnershipTransferred","type":"event"},{"anonymous":false,"inputs":[{"indexed":true,"internalType":"address","name":"player","type":"address"},{"indexed":true,"internalType":"uint256","name":"gameId","type":"uint256"},{"indexed":false,"internalType":"uint8","name":"level","type":"uint8"},{"indexed":false,"internalType":"uint32","name":"multiplierValue","type":"uint32"},{"indexed":false,"internalType":"uint256","name":"payout","type":"uint256"},{"indexed":false,"internalType":"bool","name":"paidInPoints","type":"bool"}],"name":"PlayerCashedOut","type":"event"},{"anonymous":false,"inputs":[{"indexed":true,"internalType":"address","name":"oldContract","type":"address"},{"indexed":true,"internalType":"address","name":"newContract","type":"address"}],"name":"PointsContractUpdated","type":"event"},{"anonymous":false,"inputs":[{"indexed":false,"internalType":"bool","name":"oldValue","type":"bool"},{"indexed":false,"internalType":"bool","name":"newValue","type":"bool"}],"name":"PointsWithdrawableChanged","type":"event"},{"anonymous":false,"inputs":[{"components":[{"internalType":"address","name":"player","type":"address"},{"internalType":"uint256","name":"gameId","type":"uint256"},{"internalType":"uint8","name":"level","type":"uint8"},{"internalType":"uint64","name":"sequenceNumber","type":"uint64"}],"indexed":false,"internalType":"struct Climb.RequestData","name":"data","type":"tuple"},{"indexed":false,"internalType":"bool","name":"isCashout","type":"bool"}],"name":"RequestAttempted","type":"event"},{"inputs":[],"name":"MAX_LEVEL","outputs":[{"internalType":"uint8","name":"","type":"uint8"}],"stateMutability":"view","type":"function"},{"inputs":[],"name":"MIN_CASHOUT_LEVEL","outputs":[{"internalType":"uint8","name":"","type":"uint8"}],"stateMutability":"view","type":"function"},{"inputs":[],"name":"MIN_DEPOSIT","outputs":[{"internalType":"uint256","name":"","type":"uint256"}],"stateMutability":"view","type":"function"},{"inputs":[],"name":"MULTIPLIER_PRECISION","outputs":[{"internalType":"uint32","name":"","type":"uint32"}],"stateMutability":"view","type":"function"},{"inputs":[],"name":"ODDS_PRECISION","outputs":[{"internalType":"uint16","name":"","type":"uint16"}],"stateMutability":"view","type":"function"},{"inputs":[{"internalType":"uint64","name":"sequence","type":"uint64"},{"internalType":"address","name":"provider","type":"address"},{"internalType":"bytes32","name":"randomNumber","type":"bytes32"}],"name":"_entropyCallback","outputs":[],"stateMutability":"nonpayable","type":"function"},{"inputs":[{"internalType":"uint8","name":"targetLevel","type":"uint8"}],"name":"autoClimb","outputs":[{"internalType":"uint64","name":"","type":"uint64"}],"stateMutability":"payable","type":"function"},{"inputs":[{"internalType":"address","name":"player","type":"address"},{"internalType":"uint8","name":"targetLevel","type":"uint8"}],"name":"canPlayerAutoClimb","outputs":[{"internalType":"bool","name":"","type":"bool"}],"stateMutability":"view","type":"function"},{"inputs":[{"internalType":"address","name":"player","type":"address"}],"name":"canPlayerCashOut","outputs":[{"internalType":"bool","name":"","type":"bool"}],"stateMutability":"view","type":"function"},{"inputs":[{"internalType":"address","name":"player","type":"address"}],"name":"canPlayerClimb","outputs":[{"internalType":"bool","name":"","type":"bool"}],"stateMutability":"view","type":"function"},{"inputs":[],"name":"cashOut","outputs":[],"stateMutability":"payable","type":"function"},{"inputs":[],"name":"climb","outputs":[{"internalType":"uint64","name":"","type":"uint64"}],"stateMutability":"payable","type":"function"},{"inputs":[{"internalType":"uint256","name":"","type":"uint256"}],"name":"completedGames","outputs":[{"internalType":"uint256","name":"gameId","type":"uint256"},{"internalType":"address","name":"player","type":"address"},{"internalType":"uint8","name":"finalLevel","type":"uint8"},{"internalType":"bool","name":"success","type":"bool"},{"internalType":"uint32","name":"finalMultiplier","type":"uint32"},{"internalType":"uint256","name":"depositAmount","type":"uint256"},{"internalType":"uint256","name":"payout","type":"uint256"},{"internalType":"uint256","name":"startTime","type":"uint256"},{"internalType":"uint256","name":"endTime","type":"uint256"},{"internalType":"string","name":"endReason","type":"string"},{"internalType":"bool","name":"paidInPoints","type":"bool"}],"stateMutability":"view","type":"function"},{"inputs":[],"name":"depositFunds","outputs":[],"stateMutability":"payable","type":"function"},{"inputs":[],"name":"getAllLevelInfo","outputs":[{"internalType":"uint16[11]","name":"allOdds","type":"uint16[11]"},{"internalType":"uint32[11]","name":"allSonicMultipliers","type":"uint32[11]"},{"internalType":"uint32[11]","name":"allPointMultipliers","type":"uint32[11]"},{"internalType":"uint8","name":"minCashoutLevel","type":"uint8"},{"internalType":"uint8","name":"maxLevel","type":"uint8"}],"stateMutability":"view","type":"function"},{"inputs":[],"name":"getAllMultipliers","outputs":[{"internalType":"uint32[11]","name":"","type":"uint32[11]"}],"stateMutability":"view","type":"function"},{"inputs":[],"name":"getAllOdds","outputs":[{"internalType":"uint16[11]","name":"","type":"uint16[11]"}],"stateMutability":"view","type":"function"},{"inputs":[],"name":"getAllPointMultipliers","outputs":[{"internalType":"uint32[11]","name":"","type":"uint32[11]"}],"stateMutability":"view","type":"function"},{"inputs":[{"internalType":"address","name":"player","type":"address"},{"internalType":"uint8","name":"targetLevel","type":"uint8"}],"name":"getAutoClimbPathDetails","outputs":[{"internalType":"uint8[]","name":"levels","type":"uint8[]"},{"internalType":"uint16[]","name":"levelOdds","type":"uint16[]"},{"internalType":"uint32[]","name":"sonicMultipliers","type":"uint32[]"},{"internalType":"uint32[]","name":"pointMultipliers_","type":"uint32[]"},{"internalType":"uint256","name":"overallSuccessProbability","type":"uint256"}],"stateMutability":"view","type":"function"},{"inputs":[{"internalType":"address","name":"player","type":"address"},{"internalType":"uint8","name":"targetLevel","type":"uint8"}],"name":"getAutoClimbSuccessProbability","outputs":[{"internalType":"uint256","name":"","type":"uint256"}],"stateMutability":"view","type":"function"},{"inputs":[{"internalType":"address","name":"player","type":"address"}],"name":"getClimbOdds","outputs":[{"internalType":"uint16","name":"","type":"uint16"}],"stateMutability":"view","type":"function"},{"inputs":[{"internalType":"uint256","name":"gameId","type":"uint256"}],"name":"getCompletedGame","outputs":[{"components":[{"internalType":"uint256","name":"gameId","type":"uint256"},{"internalType":"address","name":"player","type":"address"},{"internalType":"uint8","name":"finalLevel","type":"uint8"},{"internalType":"bool","name":"success","type":"bool"},{"internalType":"uint32","name":"finalMultiplier","type":"uint32"},{"internalType":"uint256","name":"depositAmount","type":"uint256"},{"internalType":"uint256","name":"payout","type":"uint256"},{"internalType":"uint256","name":"startTime","type":"uint256"},{"internalType":"uint256","name":"endTime","type":"uint256"},{"internalType":"string","name":"endReason","type":"string"},{"internalType":"bool","name":"paidInPoints","type":"bool"}],"internalType":"struct Climb.CompletedGame","name":"","type":"tuple"}],"stateMutability":"view","type":"function"},{"inputs":[],"name":"getContractBalance","outputs":[{"internalType":"uint256","name":"","type":"uint256"}],"stateMutability":"view","type":"function"},{"inputs":[{"internalType":"uint8","name":"level","type":"uint8"}],"name":"getLevelInfo","outputs":[{"internalType":"uint16","name":"oddsToReach","type":"uint16"},{"internalType":"uint32","name":"sonicMultiplier","type":"uint32"},{"internalType":"uint32","name":"pointMultiplier_","type":"uint32"},{"internalType":"bool","name":"canCashOut","type":"bool"}],"stateMutability":"view","type":"function"},{"inputs":[{"internalType":"uint8","name":"level","type":"uint8"}],"name":"getMultiplier","outputs":[{"internalType":"uint32","name":"","type":"uint32"}],"stateMutability":"view","type":"function"},{"inputs":[{"internalType":"uint8","name":"level","type":"uint8"}],"name":"getOdds","outputs":[{"internalType":"uint16","name":"","type":"uint16"}],"stateMutability":"view","type":"function"},{"inputs":[{"internalType":"address","name":"player","type":"address"}],"name":"getPlayerGame","outputs":[{"components":[{"internalType":"uint8","name":"currentLevel","type":"uint8"},{"internalType":"bool","name":"isActive","type":"bool"},{"internalType":"uint64","name":"pendingSequence","type":"uint64"},{"internalType":"enum Climb.RequestType","name":"pendingType","type":"uint8"},{"internalType":"uint256","name":"startTime","type":"uint256"},{"internalType":"uint256","name":"depositAmount","type":"uint256"},{"internalType":"uint256","name":"gameId","type":"uint256"},{"internalType":"uint8","name":"targetLevel","type":"uint8"}],"internalType":"struct Climb.GameState","name":"","type":"tuple"}],"stateMutability":"view","type":"function"},{"inputs":[{"internalType":"address","name":"player","type":"address"}],"name":"getPlayerGameCount","outputs":[{"internalType":"uint256","name":"","type":"uint256"}],"stateMutability":"view","type":"function"},{"inputs":[{"internalType":"address","name":"player","type":"address"}],"name":"getPlayerGameHistory","outputs":[{"internalType":"uint256[]","name":"","type":"uint256[]"}],"stateMutability":"view","type":"function"},{"inputs":[{"internalType":"address","name":"player","type":"address"},{"internalType":"uint256","name":"offset","type":"uint256"},{"internalType":"uint256","name":"limit","type":"uint256"}],"name":"getPlayerGameHistoryPaginated","outputs":[{"components":[{"internalType":"uint256","name":"gameId","type":"uint256"},{"internalType":"address","name":"player","type":"address"},{"internalType":"uint8","name":"finalLevel","type":"uint8"},{"internalType":"bool","name":"success","type":"bool"},{"internalType":"uint32","name":"finalMultiplier","type":"uint32"},{"internalType":"uint256","name":"depositAmount","type":"uint256"},{"internalType":"uint256","name":"payout","type":"uint256"},{"internalType":"uint256","name":"startTime","type":"uint256"},{"internalType":"uint256","name":"endTime","type":"uint256"},{"internalType":"string","name":"endReason","type":"string"},{"internalType":"bool","name":"paidInPoints","type":"bool"}],"internalType":"struct Climb.CompletedGame[]","name":"","type":"tuple[]"}],"stateMutability":"view","type":"function"},{"inputs":[{"internalType":"address","name":"player","type":"address"}],"name":"getPlayerStats","outputs":[{"internalType":"uint256","name":"totalGames","type":"uint256"},{"internalType":"uint256","name":"totalWins","type":"uint256"},{"internalType":"uint256","name":"totalBusts","type":"uint256"},{"internalType":"uint256","name":"totalDeposited","type":"uint256"},{"internalType":"uint256","name":"netProfit","type":"uint256"},{"internalType":"uint256","name":"totalAliceWon","type":"uint256"},{"internalType":"uint256","name":"totalSonicWon","type":"uint256"},{"internalType":"uint8","name":"highestLevelReached","type":"uint8"}],"stateMutability":"view","type":"function"},{"inputs":[{"internalType":"uint8","name":"level","type":"uint8"}],"name":"getPointMultiplier","outputs":[{"internalType":"uint32","name":"","type":"uint32"}],"stateMutability":"view","type":"function"},{"inputs":[{"internalType":"address","name":"player","type":"address"},{"internalType":"uint8","name":"level","type":"uint8"},{"internalType":"bool","name":"isPoints","type":"bool"}],"name":"getPotentialPayout","outputs":[{"internalType":"uint256","name":"","type":"uint256"}],"stateMutability":"view","type":"function"},{"inputs":[{"internalType":"uint8","name":"currentLevel","type":"uint8"}],"name":"getSuccessThreshold","outputs":[{"internalType":"uint256","name":"","type":"uint256"}],"stateMutability":"view","type":"function"},{"inputs":[{"internalType":"uint256","name":"randomNumber","type":"uint256"},{"internalType":"uint8","name":"currentLevel","type":"uint8"}],"name":"isClimbSuccessful","outputs":[{"internalType":"bool","name":"","type":"bool"}],"stateMutability":"view","type":"function"},{"inputs":[{"internalType":"uint256","name":"randomNumber","type":"uint256"}],"name":"isPointsPayout","outputs":[{"internalType":"bool","name":"","type":"bool"}],"stateMutability":"pure","type":"function"},{"inputs":[],"name":"maxDeposit","outputs":[{"internalType":"uint256","name":"","type":"uint256"}],"stateMutability":"view","type":"function"},{"inputs":[{"internalType":"uint256","name":"","type":"uint256"}],"name":"multiplier","outputs":[{"internalType":"uint32","name":"","type":"uint32"}],"stateMutability":"view","type":"function"},{"inputs":[{"internalType":"uint256","name":"","type":"uint256"}],"name":"odds","outputs":[{"internalType":"uint16","name":"","type":"uint16"}],"stateMutability":"view","type":"function"},{"inputs":[],"name":"owner","outputs":[{"internalType":"address","name":"","type":"address"}],"stateMutability":"view","type":"function"},{"inputs":[{"internalType":"address","name":"","type":"address"},{"internalType":"uint256","name":"","type":"uint256"}],"name":"playerGameHistory","outputs":[{"internalType":"uint256","name":"","type":"uint256"}],"stateMutability":"view","type":"function"},{"inputs":[{"internalType":"address","name":"","type":"address"}],"name":"playerGames","outputs":[{"internalType":"uint8","name":"currentLevel","type":"uint8"},{"internalType":"bool","name":"isActive","type":"bool"},{"internalType":"uint64","name":"pendingSequence","type":"uint64"},{"internalType":"enum Climb.RequestType","name":"pendingType","type":"uint8"},{"internalType":"uint256","name":"startTime","type":"uint256"},{"internalType":"uint256","name":"depositAmount","type":"uint256"},{"internalType":"uint256","name":"gameId","type":"uint256"},{"internalType":"uint8","name":"targetLevel","type":"uint8"}],"stateMutability":"view","type":"function"},{"inputs":[{"internalType":"uint256","name":"","type":"uint256"}],"name":"pointMultiplier","outputs":[{"internalType":"uint32","name":"","type":"uint32"}],"stateMutability":"view","type":"function"},{"inputs":[],"name":"pointsAreWithdrawable","outputs":[{"internalType":"bool","name":"","type":"bool"}],"stateMutability":"view","type":"function"},{"inputs":[],"name":"pointsContract","outputs":[{"internalType":"contract IPoints","name":"","type":"address"}],"stateMutability":"view","type":"function"},{"inputs":[],"name":"renounceOwnership","outputs":[],"stateMutability":"nonpayable","type":"function"},{"inputs":[{"internalType":"uint256","name":"newMaxDeposit","type":"uint256"}],"name":"setMaxDeposit","outputs":[],"stateMutability":"nonpayable","type":"function"},{"inputs":[{"internalType":"address","name":"newPointsContract","type":"address"}],"name":"setPointsContract","outputs":[],"stateMutability":"nonpayable","type":"function"},{"inputs":[{"internalType":"bool","name":"withdrawable","type":"bool"}],"name":"setPointsWithdrawable","outputs":[],"stateMutability":"nonpayable","type":"function"},{"inputs":[],"name":"startGame","outputs":[],"stateMutability":"payable","type":"function"},{"inputs":[],"name":"totalGamesPlayed","outputs":[{"internalType":"uint256","name":"","type":"uint256"}],"stateMutability":"view","type":"function"},{"inputs":[{"internalType":"address","name":"newOwner","type":"address"}],"name":"transferOwnership","outputs":[],"stateMutability":"nonpayable","type":"function"},{"inputs":[{"internalType":"uint256","name":"amount","type":"uint256"}],"name":"withdraw","outputs":[],"stateMutability":"nonpayable","type":"function"},{"stateMutability":"payable","type":"receive"}],"evm":{"bytecode":{"linkReferences":{},"object":"6080346101c057601f6146be38819003918201601f19168301916001600160401b038311848410176101c55780849260409485528339810103126101c057610052602061004b836101db565b92016101db565b90600160005533156101aa5760018054336001600160a01b0319821681179092556001600160a01b03167f8be0079c531659141344cd1fd0a4f28419497f9722a3daafe3b4186f6b6457e0600080a3670de0b6b3a7640000600255600380546001600160a81b03191660089290921b610100600160a81b0316919091179055600480546001600160a01b0319166001600160a01b03929092169190911790556000600b55600c8054750790097412ed0f2812f616c619531c831be622cd03e86001600160b01b03199091161790557d09c4000003e8000001f40000012c000000c8000000960000006e00000064600d55600e80546a0186a000004e20000013886001600160601b0319918216179091557d04e2000001f4000000fa0000006400000032000000230000001400000000600f556010805469c35000002710000009c492169190911790556040516144ce90816101f08239f35b631e4fbdf760e01b600052600060045260246000fd5b600080fd5b634e487b7160e01b600052604160045260246000fd5b51906001600160a01b03821682036101c05756fe60a06040526004361015610047575b361561001957600080fd5b6040513481527f543ba50a5eec5e6178218e364b1d0f396157b3c8fa278522c2cb7fd99407d47460203392a2005b60003560e01c806305e30f5114612b0b5780630b072b8d14612ad35780631408f686146128295780631d334884146127425780631df195a51461263757806324448c631461261557806326c1f13e146125f95780632a39298e146124085780632b4f8a1f146123df5780632c5f9947146123b25780632e1a7d4d146122f35780632f912e2e146122c257806339ab2404146122785780633cddb89a1461218f57806340056505146120ee57806346156ea0146120c35780634c629da41461209d5780634d30372d14611fd25780634e1523dc14611f185780634fd66eae14611d7a57806352a5f1f814611c8d5780635c49212914611c6f5780635de7047614611b165780636083e59a14611af85780636805267e14611a8b5780636bc98ba314611a6e5780636e37da1b146119e95780636f9fb98a146119cd578063715018a614611970578063793cd71e146115bc5780638da5cb5b1461159357806390ad2a2014611477578063931287351461141e57806395754abb14611365578063a49062d414611349578063a5432fee14611098578063b309483a1461107c578063ba24d2e314611044578063bb371fdd14610f2e578063c3e7167014610e4d578063c92329c214610a1e578063ce00348f146108e9578063d076d5a0146108bc578063d65ab5f2146105d1578063d82c4cc314610584578063dd81378814610561578063e1e158a51461053e578063e2c41dbc146104b9578063e4ab043d14610489578063eeebba291461044f578063efedf50b1461035c578063f25764b5146103225763f2fde38b0361000e573461031d57602036600319011261031d576102ac612ba0565b6102b461356a565b6001600160a01b0316801561030757600180546001600160a01b0319811683179091556001600160a01b03167f8be0079c531659141344cd1fd0a4f28419497f9722a3daafe3b4186f6b6457e0600080a3005b631e4fbdf760e01b600052600060045260246000fd5b600080fd5b3461031d57602036600319011261031d576001600160a01b03610343612ba0565b1660005260076020526020604060002054604051908152f35b3461031d57600036600319011261031d576101608060405161037e8282612da8565b36903760405180600d60005b600b60078201106103ce575063ffffffff604091548181168452818160201c166020850152821c169101526103bf8282612da8565b6103cc6040518092612e99565bf35b90916001610100600892855463ffffffff8116825263ffffffff8160201c16602083015263ffffffff8160401c16604083015263ffffffff8160601c16606083015263ffffffff8160801c16608083015263ffffffff8160a01c1660a083015263ffffffff8160c01c1660c083015260e01c60e0820152019301910161038a565b3461031d57600036600319011261031d57610160806040516104718282612da8565b36903761047c61334b565b6103cc6040518092612e6d565b3461031d57604036600319011261031d5760206104ac6104a7612b90565b6132b8565b6004351115604051908152f35b600036600319011261031d576104cd61356a565b3415610501576040513481527f543ba50a5eec5e6178218e364b1d0f396157b3c8fa278522c2cb7fd99407d47460203392a2005b60405162461bcd60e51b815260206004820152601560248201527409aeae6e840c8cae0dee6d2e840e6dedaca408aa89605b1b6044820152606490fd5b3461031d57600036600319011261031d576020604051670de0b6b3a76400008152f35b3461031d57600036600319011261031d57602060ff600354166040519015158152f35b3461031d57602036600319011261031d5761059d6130c3565b5060043560005260066020526105cd6105b96040600020613116565b604051918291602083526020830190612c47565b0390f35b600036600319011261031d576105e5613ea9565b670de0b6b3a7640000341061087f57600254341161083a5733600052600560205260ff60406000205460081c166107f55733600052600560205260ff60406000205460501c16600481101561078b576107a157610643600b5461333c565b80600b556040519061065482612d3f565b60008083526001602080850191825260408086018481526060870185815242608089019081523460a08a0190815260c08a0198895260e08a01888152338952600590965293909620975188549551925169ffffffffffffffffffff1990961660ff919091161791151560081b61ff00169190911760109490941b69ffffffffffffffff00001693909317865593915191600483101561078b5760ff946004946106fe879589613546565b51600188015551600287015551600386015551169201911660ff198254161790557fdec0d6e2ae1ceb47a21ddb69901b8248210103e53a06facfdc33f46cd01756826080600b5460405161075181612d71565b3381526020810191825260606040820191428352019034825260405192338452516020840152516040830152516060820152a16001600055005b634e487b7160e01b600052602160045260246000fd5b60405162461bcd60e51b815260206004820152602660248201527f50656e64696e672072657175657374206d757374206265207265736f6c76656460448201526508199a5c9cdd60d21b6064820152608490fd5b60405162461bcd60e51b815260206004820152601860248201527f47616d6520616c726561647920696e2070726f677265737300000000000000006044820152606490fd5b60405162461bcd60e51b815260206004820152601760248201527f4465706f7369742065786365656473206d6178696d756d0000000000000000006044820152606490fd5b60405162461bcd60e51b81526020600482015260156024820152744465706f7369742062656c6f77206d696e696d756d60581b6044820152606490fd5b3461031d57600036600319011261031d57610160806040516108de8282612da8565b3690376103bf6133d5565b3461031d57602036600319011261031d57610902612ba0565b600060e060405161091281612d3f565b8281528260208201528260408201528260608201528260808201528260a08201528260c0820152015260018060a01b03166000526005602052610100604060002060ff6040519161096283612d3f565b80549082821684526020840191838160081c161515835260408501906001600160401b038160101c1682526109a085606088019260501c1682612f1b565b610a03600184015491608088019283526001600160401b0360028601549460a08a0195865288600460038901549860c08d01998a520154169760e08b01988952896040519b51168b5251151560208b015251166040890152516060880190612cdd565b5160808601525160a08501525160c0840152511660e0820152f35b602036600319011261031d57610a32612b80565b610a3a613ea9565b336000526005602052610a5760ff60406000205460081c16612f27565b33600052600560205260ff60406000205460501c16600481101561078b57610a7f9015613497565b336000526005602052604060002090610aa160ff808454169216918211612f64565b610aae600a821115612fc7565b600482019060ff19825416179055600090610acd8260ff83541661306e565b600019430190438211610e39576040519060208201924284524460408401523360601b606084015240607483015260ff60f81b9060f81b16609482015260758152610b19609582612da8565b5190206003546040516320bba64360e21b815260089190911c6001600160a01b031691602082600481865afa918215610e2e578592610de6575b50604051631711922960e31b81526001600160a01b039092166004830181905291602081602481875afa8015610ddb578690610d8e575b6001600160801b03915016803410610d3d5760209260449160405195869485936319cb825f60e01b8552600485015260248401525af1908115610d32578391610cea575b825469ffffffffffffffff00001916601083901b69ffffffffffffffff0000161783556020847fcb9f534d41d12f39394586d6a7bbae75471bd457e6bd88546f4d5ae46e05754e610cda8686610c25600383613546565b6001600160401b031680855260088652604080862080546001600160a01b031916331790558186526009875294859020805460ff191690556003820154915494519094909160ff9190911690610c7a83612d71565b3383528683015260408201528360608201526040519182918281516001600160a01b031681526020808301519082015260408083015160ff16908201526060918201516001600160401b0316918101919091526000608082015260a00190565b0390a16001600055604051908152f35b90506020813d602011610d2a575b81610d0560209383612da8565b81010312610d2657516001600160401b0381168103610d2657610cda610bce565b8280fd5b3d9150610cf8565b6040513d85823e3d90fd5b60405162461bcd60e51b8152602060048201526024808201527f496e73756666696369656e742066656520666f7220656e74726f7079207265716044820152631d595cdd60e21b6064820152608490fd5b506020813d602011610dd3575b81610da860209383612da8565b81010312610dcf57516001600160801b0381168103610dcf576001600160801b0390610b8a565b8580fd5b3d9150610d9b565b6040513d88823e3d90fd5b9091506020813d602011610e26575b81610e0260209383612da8565b81010312610e2257516001600160a01b0381168103610e22579085610b53565b8480fd5b3d9150610df5565b6040513d87823e3d90fd5b634e487b7160e01b84526011600452602484fd5b3461031d57602036600319011261031d576001600160a01b03610e6e612ba0565b166000526005602052602061ffff610f1e610f1960ff6040600020610f0360405191610e9983612d3f565b8360048254928284168652610ed5838c880195818160081c16151587526001600160401b038160101c1660408a015260501c1660608801612f1b565b60018101546080870152600281015460a0870152600381015460c087015201541660e0840152511515612f27565b610f12600a83835116106134fa565b511661305c565b612cea565b90549060031b1c16604051908152f35b3461031d57602036600319011261031d57600435610f4a61356a565b670de0b6b3a76400008110610feb578015610f985760407f04f57e88d155dd8095ed0d01a2787f469eb9ba59cd7d06ba45d88365be7ec93691600254908060025582519182526020820152a1005b60405162461bcd60e51b815260206004820152602560248201527f4d6178206465706f736974206d7573742062652067726561746572207468616e604482015264207a65726f60d81b6064820152608490fd5b60405162461bcd60e51b815260206004820152602b60248201527f4d6178206465706f7369742063616e6e6f742062652062656c6f77206d696e6960448201526a1b5d5b4819195c1bdcda5d60aa1b6064820152608490fd5b3461031d57602036600319011261031d57602063ffffffff610f1e611067612b80565b611077600a60ff83161115612edf565b612b65565b3461031d57600036600319011261031d57602060405160648152f35b600036600319011261031d576110ac613ea9565b3360005260056020526110c960ff60406000205460081c16612f27565b33600052600560205260ff60406000205460501c16600481101561078b576110f19015613497565b336000526005602052604060002061110f600a60ff835416106134fa565b6000906111208260ff83541661306e565b600019430190438211610e39576040519060208201924284524460408401523360601b606084015240607483015260ff60f81b9060f81b1660948201526075815261116c609582612da8565b5190206003546040516320bba64360e21b815260089190911c6001600160a01b031691602082600481865afa918215610e2e578592611305575b50604051631711922960e31b81526001600160a01b039092166004830181905291602081602481875afa8015610ddb5786906112bc575b6001600160801b03915016803410610d3d5760209260449160405195869485936319cb825f60e01b8552600485015260248401525af1908115610d32578391611278575b825469ffffffffffffffff00001916601083901b69ffffffffffffffff0000161783556020847fcb9f534d41d12f39394586d6a7bbae75471bd457e6bd88546f4d5ae46e05754e610cda8686610c25600183613546565b90506020813d6020116112b4575b8161129360209383612da8565b81010312610d2657516001600160401b0381168103610d2657610cda611221565b3d9150611286565b506020813d6020116112fd575b816112d660209383612da8565b81010312610dcf57516001600160801b0381168103610dcf576001600160801b03906111dd565b3d91506112c9565b9091506020813d602011611341575b8161132160209383612da8565b81010312610e2257516001600160a01b0381168103610e225790856111a6565b3d9150611314565b3461031d57600036600319011261031d576020604051600a8152f35b3461031d57602036600319011261031d5761137e612ba0565b61138661356a565b6001600160a01b031680156113d957600480546001600160a01b0319811683179091556001600160a01b03167f7b5eabeb4ab16a2ad7e5311f64b056ae65cae15ff946519963a642fffdaad14a600080a3005b60405162461bcd60e51b815260206004820152601f60248201527f496e76616c696420706f696e747320636f6e74726163742061646472657373006044820152606490fd5b3461031d57604036600319011261031d57611437612ba0565b6001600160a01b031660009081526007602052604090208054602435919082101561031d5760209161146891612ec7565b90549060031b1c604051908152f35b3461031d57604036600319011261031d57611490612ba0565b611498612b90565b9060018060a01b0316600052600560205260406000206114fc604051916114be83612d3f565b60ff60048254928284168652610ed5836020880195818160081c16151587526001600160401b038160101c1660408a015260501c1660608801612f1b565b61150f60ff808351169316928311612f64565b61151c600a831115612fc7565b61152c60ff61271092511661305c565b915b8060ff8416111561154457602082604051908152f35b9061271061156860ff9261ffff61155a87612cea565b90549060031b1c1690613096565b04921660ff811461157d57600101919061152e565b634e487b7160e01b600052601160045260246000fd5b3461031d57600036600319011261031d576001546040516001600160a01b039091168152602090f35b600036600319011261031d576115d0613ea9565b3360005260056020526115ed60ff60406000205460081c16612f27565b33600052600560205260ff60406000205460501c16600481101561078b576116159015613497565b336000526005602052604060002060ff81541660018110159081611964575b501561191f5760009061164c606460ff83541661306e565b600019430190438211610e39576040519060208201924284524460408401523360601b606084015240607483015260ff60f81b9060f81b16609482015260758152611698609582612da8565b5190206003546040516320bba64360e21b815260089190911c6001600160a01b031691602082600481865afa918215610e2e5785926118db575b50604051631711922960e31b81526001600160a01b039092166004830181905291602081602481875afa8015610ddb578690611892575b6001600160801b03915016803410610d3d5760209260449160405195869485936319cb825f60e01b8552600485015260248401525af1908115610d32578391611849575b825469ffffffffffffffff00001916601083901b69ffffffffffffffff0000161783557fcb9f534d41d12f39394586d6a7bbae75471bd457e6bd88546f4d5ae46e05754e60a0846001600160401b0387866117a9600285613546565b6040838216928381526008602052818120600180891b0333166001600160601b03891b825416179055838152600960205220600160ff198254161790555060ff806003850154945416604051946117ff86612d71565b33865260208601908152604086019182526060860193845260405195600180891b039051168652516020860152511660408401525116606082015260016080820152a16001600055005b90506020813d60201161188a575b8161186460209383612da8565b81010312610d2657516001600160401b0381168103610d26576001600160401b0361174d565b3d9150611857565b506020813d6020116118d3575b816118ac60209383612da8565b81010312610dcf57516001600160801b0381168103610dcf576001600160801b0390611709565b3d915061189f565b9091506020813d602011611917575b816118f760209383612da8565b81010312610e2257516001600160a01b0381168103610e225790856116d2565b3d91506118ea565b60405162461bcd60e51b815260206004820152601a60248201527f43616e6e6f742063617368206f7574206174206c6576656c20300000000000006044820152606490fd5b600a9150111582611634565b3461031d57600036600319011261031d5761198961356a565b600180546001600160a01b031981169091556000906001600160a01b03167f8be0079c531659141344cd1fd0a4f28419497f9722a3daafe3b4186f6b6457e08280a3005b3461031d57600036600319011261031d57602047604051908152f35b3461031d57602036600319011261031d576080611a04612b80565b600160ff8216611a17600a821115612edf565b61ffff611a2384612cea565b90549060031b1c169263ffffffff611a4c81611a3e84612b34565b90549060031b1c1692612b65565b90549060031b1c16906040519485526020850152604084015210156060820152f35b3461031d57600036600319011261031d5760206040516127108152f35b3461031d57602036600319011261031d5760043580151580910361031d5760407fc9231ba029c34ac08ff14e68398a3c3c01f81a4184650e7a74e4af659165a20491611ad561356a565b6003549060ff811660ff1983161760035560ff83519216151582526020820152a1005b3461031d57600036600319011261031d576020600254604051908152f35b3461031d57600036600319011261031d5761016080604051611b388282612da8565b36903780604051611b498282612da8565b36903780604051611b5a8282612da8565b369037611b6561334b565b6040519182600d9360005b600b6007820110611bec5750611bda9291611bcf91604063ffffffff61046098548181168452818160201c166020850152821c16910152611bb18382612da8565b611bb96133d5565b92611bc76040518097612e6d565b850190612e99565b6102c0830190612e99565b6001610420820152600a610440820152f35b906001610100600892885463ffffffff8116825263ffffffff8160201c16602083015263ffffffff8160401c16604083015263ffffffff8160601c16606083015263ffffffff8160801c16608083015263ffffffff8160a01c1660a083015263ffffffff8160c01c1660c083015260e01c60e08201520196019101949094611b70565b3461031d57600036600319011261031d576020600b54604051908152f35b3461031d57606036600319011261031d576004356001600160401b038116810361031d57611cb9612bb6565b5060035460081c6001600160a01b03168015611d35573303611ce457611ce29060443590613647565b005b60405162461bcd60e51b815260206004820152602360248201527f4f6e6c7920456e74726f70792063616e2063616c6c20746869732066756e637460448201526234b7b760e91b6064820152608490fd5b60405162461bcd60e51b815260206004820152601760248201527f456e74726f70792061646472657373206e6f74207365740000000000000000006044820152606490fd5b3461031d57602036600319011261031d57611d93612ba0565b60009060009081828390849360018060a01b031685526007602052604085209460405195866020825491828152019183526020832090835b818110611f025750505086611de1910387612da8565b855195815b8151811015611eac57611df98183613082565b516000526006602052611e1e611e126040600020613116565b9660a0880151906130a9565b606087015190999015611e9657611e349061333c565b61014087015190949015611e7b576040611e5560ff9260c08a0151906130a9565b975b01511660ff88168111611e72575b5060010197949297611de6565b96506001611e65565b95946040611e9060ff9260c0890151906130a9565b96611e57565b9395926040611ea660ff9261333c565b94611e57565b50509560ff94936101009781851015600014611efa57611ecc82866130b6565b925b604051988952602089015260408801526060870152608086015260a085015260c08401521660e0820152f35b600092611ece565b8254845260209093019260019283019201611dcb565b3461031d57602036600319011261031d576001600160a01b03611f39612ba0565b16600052600760205260406000206040518060208354918281520190819360005260206000209060005b818110611fbc5750505081611f79910382612da8565b6040519182916020830190602084525180915260408301919060005b818110611fa3575050500390f35b8251845285945060209384019390920191600101611f95565b8254845260209093019260019283019201611f63565b3461031d57602036600319011261031d576004356000526006602052604060002080546001820154916120906002820154916003810154600482015460058301549160ff600761202460068701612dc9565b950154169563ffffffff604051998a998a5260018060a01b03811660208b015260ff8160a01c1660408b015260ff8160a81c16151560608b015260b01c16608089015260a088015260c087015260e0860152610100850152610160610120850152610160840190612c06565b9015156101408301520390f35b3461031d57602036600319011261031d5760206120bb6104a7612b80565b604051908152f35b3461031d57602036600319011261031d57600435600b81101561031d5761ffff610f1e602092612cea565b3461031d57602036600319011261031d576001600160a01b0361210f612ba0565b1660005260056020526101006040600020805490600181015490600281015460ff6004600384015493015416926121796040519560ff8116875260ff8160081c16151560208801526001600160401b038160101c16604088015260ff606088019160501c16612cdd565b608085015260a084015260c083015260e0820152f35b3461031d57602036600319011261031d576001600160a01b036121b0612ba0565b1660005260056020526040600020604051906121cb82612d3f565b80549060ff8216835260ff60046020850192828560081c16151584526001600160401b038560101c16604087015261220c83606088019660501c1686612f1b565b60018101546080870152600281015460a0870152600381015460c087015201541660e08401525115159081612262575b5060209181612251575b506040519015158152f35b6001915060ff905116101582612246565b90505190600482101561078b579015602061223c565b3461031d57606036600319011261031d57612291612ba0565b612299612b90565b90604435801515810361031d57826120bb926122bd600a60ff602097161115612edf565b6131ed565b3461031d57602036600319011261031d57602061ffff610f1e6122e3612b80565b610f19600a60ff83161115612edf565b3461031d57602036600319011261031d5760043561230f61356a565b804710612376576001546000918291829182916001600160a01b03165af16123356131ae565b501561233d57005b60405162461bcd60e51b815260206004820152601160248201527015da5d1a191c985dd85b0819985a5b1959607a1b6044820152606490fd5b60405162461bcd60e51b8152602060048201526014602482015273496e73756666696369656e742062616c616e636560601b6044820152606490fd5b3461031d57602036600319011261031d57600435600b81101561031d5763ffffffff610f1e602092612b65565b3461031d57600036600319011261031d576004546040516001600160a01b039091168152602090f35b3461031d57606036600319011261031d57612421612ba0565b6024359060018060a01b031660005260076020526040600020906040518083602082955493848152019060005260206000209260005b8181106125e057505061246c92500383612da8565b81518110156125a457612481604435826130a9565b90825180831161259c575b5061249781836130b6565b926124a184613013565b936124af6040519586612da8565b8085526124be601f1991613013565b0160005b818110612585575050815b83811061253c57846040518091602082016020835281518091526040830190602060408260051b8601019301916000905b82821061250d57505050500390f35b9193600191939550602061252c8192603f198a82030186528851612c47565b96019201920185949391926124fe565b8061254960019284613082565b51600052600660205261257e604060002061256d61256787856130b6565b91613116565b612577828a613082565b5287613082565b50016124cd565b6020906125906130c3565b828289010152016124c2565b91508361248c565b60405162461bcd60e51b81526020600482015260146024820152734f6666736574206f7574206f6620626f756e647360601b6044820152606490fd5b8454835260019485019487945060209093019201612457565b3461031d57600036600319011261031d57602060405160018152f35b3461031d57602036600319011261031d57602060016004351615604051908152f35b3461031d57604036600319011261031d57612650612ba0565b612658612b90565b9060018060a01b031660005260056020526040600020906040519061267c82612d3f565b82549260ff8416835260ff60046020850192828760081c16151584526001600160401b038760101c1660408701526126bd83606088019860501c1688612f1b565b60018101546080870152600281015460a0870152600381015460c087015201541660e0840152511515918261272a575b6020935082612717575b508161270857506040519015158152f35b600a915060ff16111582612246565b60ff919250511660ff82161190836126f7565b9150915191600483101561078b5760209215916126ed565b3461031d57602036600319011261031d576001600160a01b03612763612ba0565b16600052600560205260406000206040519061277e82612d3f565b80549060ff8216835260ff60046020850192828560081c16151584526001600160401b038560101c1660408701526127bf83606088019660501c1686612f1b565b60018101546080870152600281015460a0870152600381015460c087015201541660e08401525115159081612813575b506020918161280357506040519015158152f35b600a915060ff9051161082612246565b90505190600482101561078b57901560206127ef565b3461031d57604036600319011261031d57612842612ba0565b61284a612b90565b9060018060a01b031660005260056020526040600020906128dd6040519261287184612d3f565b60ff600482549282841687526128af836020890195818160081c16151587526001600160401b038160101c1660408b015260501c1660608901612f1b565b60018101546080880152600281015460a0880152600381015460c088015201541660e0850152511515612f27565b6128f060ff808451169216918211612f64565b6128fd600a821115612fc7565b60ff825116900360ff811161157d5760ff169061291982613013565b916129276040519384612da8565b80835261293381613013565b602084019290601f190136843761294982613013565b916129576040519384612da8565b80835261296381613013565b602084019390601f19013685376129798261302a565b906129838361302a565b93612710956000965b60ff881686811015612a2757612710612a1d60ff9361ffff61155a8f8d8f888e8e6129d48f9c6129ce8f9660019f612a17986129c991511661305c565b61306e565b97613082565b8d871690526129f583896129e789612cea565b90549060031b1c1692613082565b52612a088263ffffffff6129e788612b34565b5263ffffffff6129e785612b65565b52612cea565b049801169661298c565b50899087868b876040519560a087019060a088525180915260c08701929060005b818110612aba5750505060209086830382880152519182815201959060005b818110612aa05750505090612a8885612a9693868098036040880152612bcc565b908482036060860152612bcc565b9060808301520390f35b825161ffff16885260209788019790920191600101612a67565b825160ff16855260209485019490920191600101612a48565b3461031d57602036600319011261031d57602063ffffffff610f1e612af6612b80565b612b06600a60ff83161115612edf565b612b34565b3461031d57602036600319011261031d57600435600b81101561031d5763ffffffff610f1e6020925b90600b821015612b4f57601c8260031c600d019260021b1690565b634e487b7160e01b600052603260045260246000fd5b90600b821015612b4f57601c8260031c600f019260021b1690565b6004359060ff8216820361031d57565b6024359060ff8216820361031d57565b600435906001600160a01b038216820361031d57565b602435906001600160a01b038216820361031d57565b906020808351928381520192019060005b818110612bea5750505090565b825163ffffffff16845260209384019390920191600101612bdd565b919082519283825260005b848110612c32575050826000602080949584010152601f8019910116010190565b80602080928401015182828601015201612c11565b908151815260018060a01b03602083015116602082015260ff604083015116604082015260608201511515606082015263ffffffff608083015116608082015260a082015160a082015260c082015160c082015260e082015160e082015261010082015161010082015261014080612cd2610120850151610160610120860152610160850190612c06565b930151151591015290565b90600482101561078b5752565b90600b821015612b4f57601e8260041c600c019260011b1690565b90600182811c92168015612d35575b6020831014612d1f57565b634e487b7160e01b600052602260045260246000fd5b91607f1691612d14565b61010081019081106001600160401b03821117612d5b57604052565b634e487b7160e01b600052604160045260246000fd5b608081019081106001600160401b03821117612d5b57604052565b61016081019081106001600160401b03821117612d5b57604052565b90601f801991011681019081106001600160401b03821117612d5b57604052565b9060405191826000825492612ddd84612d05565b8084529360018116908115612e4b5750600114612e04575b50612e0292500383612da8565b565b90506000929192526020600020906000915b818310612e2f575050906020612e029282010138612df5565b6020919350806001915483858901015201910190918492612e16565b905060209250612e0294915060ff191682840152151560051b82010138612df5565b906000905b600b8210612e7f57505050565b60208060019261ffff865116815201930191019091612e72565b906000905b600b8210612eab57505050565b60208060019263ffffffff865116815201930191019091612e9e565b8054821015612b4f5760005260206000200190600090565b15612ee657565b60405162461bcd60e51b815260206004820152600d60248201526c125b9d985b1a59081b195d995b609a1b6044820152606490fd5b600482101561078b5752565b15612f2e57565b60405162461bcd60e51b815260206004820152600e60248201526d4e6f206163746976652067616d6560901b6044820152606490fd5b15612f6b57565b60405162461bcd60e51b815260206004820152602e60248201527f546172676574206c6576656c206d75737420626520686967686572207468616e60448201526d0818dd5c9c995b9d081b195d995b60921b6064820152608490fd5b15612fce57565b60405162461bcd60e51b815260206004820152601c60248201527f546172676574206c6576656c2065786365656473206d6178696d756d000000006044820152606490fd5b6001600160401b038111612d5b5760051b60200190565b9061303482613013565b6130416040519182612da8565b8281528092613052601f1991613013565b0190602036910137565b60ff60019116019060ff821161157d57565b9060ff8091169116019060ff821161157d57565b8051821015612b4f5760209160051b010190565b8181029291811591840414171561157d57565b9190820180921161157d57565b9190820391821161157d57565b604051906130d082612d8c565b6000610140838281528260208201528260408201528260608201528260808201528260a08201528260c08201528260e08201528261010082015260606101208201520152565b9060405161312381612d8c565b61014060ff600783958054855263ffffffff600182015460018060a01b0381166020880152848160a01c166040880152848160a81c161515606088015260b01c166080860152600281015460a0860152600381015460c0860152600481015460e0860152600581015461010086015261319e60068201612dc9565b6101208601520154161515910152565b3d156131e8573d906001600160401b038211612d5b57604051916131dc601f8201601f191660200184612da8565b82523d6000602084013e565b606090565b60018060a01b0316600052600560205260406000209161328360405161321281612d3f565b84549060ff8216815261324e60ff6020830193818160081c16151585526001600160401b038160101c16604085015260501c1660608301612f1b565b6001860154608082015260e060ff600460028901549860a08501998a52600381015460c0860152015416910152511515612f27565b1561329e5763ffffffff61155a61329b935192612b65565b90565b6132b49063ffffffff61155a6064945192612b34565b0490565b600a60ff821610156132f7576132d3610f1961ffff9261305c565b90549060031b1c168060000390808204600019149015171561157d57612710900490565b60405162461bcd60e51b815260206004820152601a60248201527f496e76616c6964206c6576656c20666f7220636c696d62696e670000000000006044820152606490fd5b600019811461157d5760010190565b6040519061ffff600c548181168452818160101c166020850152818160201c166040850152818160301c166060850152818160401c166080850152818160501c1660a0850152818160601c1660c0850152818160701c1660e0850152818160801c16610100850152818160901c1661012085015260a01c16610140830152612e0261016083612da8565b6040519081600f60005b600b6007820110613416575063ffffffff604091548181168452818160201c166020850152821c16910152612e0261016083612da8565b90916001610100600892855463ffffffff8116825263ffffffff8160201c16602083015263ffffffff8160401c16604083015263ffffffff8160601c16606083015263ffffffff8160801c16608083015263ffffffff8160a01c1660a083015263ffffffff8160c01c1660c083015260e01c60e082015201930191016133df565b1561349e57565b60405162461bcd60e51b815260206004820152602e60248201527f43616e6e6f7420706572666f726d20616374696f6e207768696c65207265717560448201526d6573742069732070656e64696e6760901b6064820152608490fd5b1561350157565b60405162461bcd60e51b815260206004820152601860248201527f416c7265616479206174206d6178696d756d206c6576656c00000000000000006044820152606490fd5b90600481101561078b57815460ff60501b191660509190911b60ff60501b16179055565b6001546001600160a01b0316330361357e57565b63118cdaa760e01b6000523360045260246000fd5b604051906135a2604083612da8565b600782526618d85cda13dd5d60ca1b6020830152565b6020815260018060a01b0382511660208201526020820151604082015260ff604083015116606082015260608201511515608082015263ffffffff60808301511660a082015260a082015160c082015261010060e0612cd260c08501518383860152610120850190612c06565b60405190613634604083612da8565b6004825263189d5cdd60e21b6020830152565b6001600160401b0390600060805216908160805152600860205260018060a01b0360406080512054168015613ea4578060805152600560205260406080512091825460ff8160501c166004811015613e7f5715613e9d576001600160401b03859160101c1603613e97578360805152600a602052806040608051205560038301918254817f9589b5f0bf764facea74ada2a8fdd7059ee6feded44578c4e40b7db9bb5a8ad260408051898152866020820152a360ff845460501c166004811015613e7f5784906001810361392d5750919091549260ff841690600a8210613779575b50505050505b6080805182546affffffffffffffffff0000191690925590829052600860209081528151604080822080546001600160a01b0319169055939052600990525120805460ff19169055565b6137828261305c565b61ffff61378e82612cea565b905460039190911b1c166127108506109586156137fa57509260a0929160ff600080516020614479833981519152951660ff198954161788555b549560ff8854166040519360805150845260208401528060408401521560608301526080820152a33880808080613729565b61ff00191687555060045460035460ff16906001600160a01b0316803b1561391a5760405191635ec3392160e11b8352866004840152600a6024840152151560448301528160648160805193608051905af18015613920576138fd575b50906000805160206144798339815191529260a09261387e613877613625565b8488614183565b7f08575c54594a7c9bca9c3b4f3c0c0140d23249091d17179ef1d9b734af81f7366138f58254604051906138b182612d3f565b898252602082015285604082015260805160608201526080516080820152600a878201526138dd613625565b60c0820152600160e0820152604051918291826135b8565b0390a16137c8565b60805191929161390c91612da8565b60805161391a579038613857565b60805180fd5b6040513d608051823e3d90fd5b60028103613e5a57505460ff1691600116158015613ddd5763ffffffff61395384612b65565b90549060031b1c1661397381670de0b6b3a7640000600289015404613096565b60045460035491929160ff16906001600160a01b0316803b1561391a5760405191635ec3392160e11b8352866004840152846024840152151560448301528160648160805193608051905af1801561392057613dcb575b505b61ff001987541687558554846040519287845263ffffffff169283602082015284604082015285606082015260807f6eff5bf191a1c31ad478bf2982a4bbd28c955660db851d62f724d11746cd77d391a3613a25613593565b94846080515260056020526080516040902095604051613a4481612d3f565b875460ff811682528060081c60ff16151560208301528060101c6001600160401b0316604083015260501c60ff166060820190613a8091612f1b565b6001880154918260808301528660028a0154938460a085015260038b01549360c081019b858d526004015460ff169060e0015260405193613ac085612d8c565b84528a60208501958b875260408601968888526060870160018152608088018b815260a0890193845260c08901948d865260e08a019687526101008a01974289526101208b01998a526101408b015251608051526006602052608051604090209989518b5560018b0193600160a01b6001900390600160a01b60019003905116166001600160601b0360a01b855416178455519183549060ff60a81b9051151560a81b169163ffffffff60b01b905160b01b169260ff60a01b9060a01b169065ffffffffffff60a01b191617171790555160028701555160038601555160048501555160058401556006830190518051906001600160401b038211613ce857613bc98354612d05565b601f8111613d80575b506020906001601f841114613d0b57928261014093613c2597969360079660805192613d00575b50508160011b916000199060031b1c19161790555b0151151591019060ff801983541691151516179055565b846080515260076020526040608051209551968654600160401b811015613ce8577f08575c54594a7c9bca9c3b4f3c0c0140d23249091d17179ef1d9b734af81f73698613c7e82613ce09a6001613c9795018155612ec7565b90919082549060031b91821b91600019901b1916179055565b5460405195613ca587612d3f565b86526020860152604085015260016060850152608084015260a0830152613cca613593565b60c083015260e0820152604051918291826135b8565b0390a161372f565b634e487b7160e01b6080515260416004526024608051fd5b015190503880613bf9565b90601f1983169184608051528160805120926080515b818110613d68575093613c2597969360079693600193836101409810613d4f575b505050811b019055613c0e565b015160001960f88460031b161c19169055388080613d42565b92936020600181928786015181550195019301613d21565b8360805152602060805120601f840160051c81019160208510613dc1575b601f0160051c01905b818110613db45750613bd2565b6080518155600101613da7565b9091508190613d9e565b608051613dd791612da8565b386139ca565b63ffffffff613deb84612b34565b90549060031b1c166064613e03826002890154613096565b608051919004919080808085885af1613e1a6131ae565b506139cc5760405162461bcd60e51b8152602060048201526013602482015272115512081d1c985b9cd9995c8819985a5b1959606a1b6044820152606490fd5b91935090600314613e6e575b50505061372f565b613e7792613ecb565b388082613e66565b634e487b7160e01b6080515260216004526024608051fd5b50505050565b5050505050565b505050565b600260005414613eba576002600055565b633ee5aeb560e01b60005260046000fd5b9160ff82541660ff6004840154169181935b60ff8516928484101561412f576003820194855495604051602081019086825260ff60f81b8a60f81b16604082015260018060a01b038b16986001600160601b03198c60601b166041830152605582015260558152613f3d607582612da8565b51902093613f4a8961305c565b9561ffff613f5788612cea565b905460039190911b1c166127108706106140d85750805461ff00191690556004546003546001600160a01b03909116919060ff16823b1561031d5760009060648a836040519687948593635ec3392160e11b85526004850152600a6024850152151560448401525af180156140cc577f08575c54594a7c9bca9c3b4f3c0c0140d23249091d17179ef1d9b734af81f7369a6140b69a898b7fb16ff2dfc59b3b5c2d6bacc50c8747a643e22d47cbeb5405e043ecd5cefc41d56080829a6000805160206144798339815191529a60a09a614059996140bb575b508954956040519283526020830152604082015260006060820152a3614053613625565b91614183565b5494859460ff6040519289845216602083015260006040830152600160608301526080820152a36040519261408d84612d3f565b8352602083015260408201526000606082015260006080820152600a60a08201526138dd613625565b0390a1565b60006140c691612da8565b3861402f565b6040513d6000823e3d90fd5b9790959160a06001959860ff97886000805160206144798339815191529481989e98881682198d5416178c555496604051938452166020830152876040830152600060608301526080820152a30116939290613edd565b9450608092507fb16ff2dfc59b3b5c2d6bacc50c8747a643e22d47cbeb5405e043ecd5cefc41d593959150600301549460405194855280602086015260408501526001606085015260018060a01b031692a3565b6001600160a01b03166000818152600560205260409081902090519093919290916141ad83612d3f565b6141e560ff86548181168652818160081c16151560208701526001600160401b038160101c16604087015260501c1660608501612f1b565b60018501548060808501526002860154908160a086015260038701549460e060ff600460c084019a898c520154169101526040519461422386612d8c565b8552602085019186835260ff604087019516855260608601906000825260808701936000855260a0880191825260c0880192600a845260e089019485526101008901954287526101208a019788526101408a019860018a528c51600052600660205260406000209a518b5560018b019360018060a01b039060018060a01b03905116166001600160601b0360a01b855416178455519183549060ff60a81b9051151560a81b169163ffffffff60b01b905160b01b169260ff60a01b9060a01b169065ffffffffffff60a01b191617171790555160028701555160038601555160048501555160058401556006830190518051906001600160401b038211612d5b5761432e8354612d05565b601f8111614430575b50602090601f83116001146143c1579180600794926143859796946000926143b6575b50508160011b916000199060031b1c19161790555b51151591019060ff801983541691151516179055565b600052600760205260406000209051815491600160401b831015612d5b5782613c7e916001612e0295018155612ec7565b01519050388061435a565b90601f1983169184600052816000209260005b818110614418575092600192859261438599989660079896106143ff575b505050811b01905561436f565b015160001960f88460031b161c191690553880806143f2565b929360206001819287860151815501950193016143d4565b836000526020600020601f840160051c8101916020851061446e575b601f0160051c01905b8181106144625750614337565b60008155600101614455565b909150819061444c56fefb58f29e16c938d85340fdc0faf5e70107133e3f268ab9b6215233227a077c12a26469706673582212208c365a17a66a16fcd5ed952f44bfa8557305eb8f1778b947d82892be5d973d5d64736f6c634300081c0033","opcodes":"PUSH1 0x80 CALLVALUE PUSH2 0x1C0 JUMPI PUSH1 0x1F PUSH2 0x46BE CODESIZE DUP2 SWAP1 SUB SWAP2 DUP3 ADD PUSH1 0x1F NOT AND DUP4 ADD SWAP2 PUSH1 0x1 PUSH1 0x1 PUSH1 0x40 SHL SUB DUP4 GT DUP5 DUP5 LT OR PUSH2 0x1C5 JUMPI DUP1 DUP5 SWAP3 PUSH1 0x40 SWAP5 DUP6 MSTORE DUP4 CODECOPY DUP2 ADD SUB SLT PUSH2 0x1C0 JUMPI PUSH2 0x52 PUSH1 0x20 PUSH2 0x4B DUP4 PUSH2 0x1DB JUMP JUMPDEST SWAP3 ADD PUSH2 0x1DB JUMP JUMPDEST SWAP1 PUSH1 0x1 PUSH1 0x0 SSTORE CALLER ISZERO PUSH2 0x1AA JUMPI PUSH1 0x1 DUP1 SLOAD CALLER PUSH1 0x1 PUSH1 0x1 PUSH1 0xA0 SHL SUB NOT DUP3 AND DUP2 OR SWAP1 SWAP3 SSTORE PUSH1 0x1 PUSH1 0x1 PUSH1 0xA0 SHL SUB AND PUSH32 0x8BE0079C531659141344CD1FD0A4F28419497F9722A3DAAFE3B4186F6B6457E0 PUSH1 0x0 DUP1 LOG3 PUSH8 0xDE0B6B3A7640000 PUSH1 0x2 SSTORE PUSH1 0x3 DUP1 SLOAD PUSH1 0x1 PUSH1 0x1 PUSH1 0xA8 SHL SUB NOT AND PUSH1 0x8 SWAP3 SWAP1 SWAP3 SHL PUSH2 0x100 PUSH1 0x1 PUSH1 0xA8 SHL SUB AND SWAP2 SWAP1 SWAP2 OR SWAP1 SSTORE PUSH1 0x4 DUP1 SLOAD PUSH1 0x1 PUSH1 0x1 PUSH1 0xA0 SHL SUB NOT AND PUSH1 0x1 PUSH1 0x1 PUSH1 0xA0 SHL SUB SWAP3 SWAP1 SWAP3 AND SWAP2 SWAP1 SWAP2 OR SWAP1 SSTORE PUSH1 0x0 PUSH1 0xB SSTORE PUSH1 0xC DUP1 SLOAD PUSH22 0x790097412ED0F2812F616C619531C831BE622CD03E8 PUSH1 0x1 PUSH1 0x1 PUSH1 0xB0 SHL SUB NOT SWAP1 SWAP2 AND OR SWAP1 SSTORE PUSH30 0x9C4000003E8000001F40000012C000000C8000000960000006E00000064 PUSH1 0xD SSTORE PUSH1 0xE DUP1 SLOAD PUSH11 0x186A000004E2000001388 PUSH1 0x1 PUSH1 0x1 PUSH1 0x60 SHL SUB NOT SWAP2 DUP3 AND OR SWAP1 SWAP2 SSTORE PUSH30 0x4E2000001F4000000FA0000006400000032000000230000001400000000 PUSH1 0xF SSTORE PUSH1 0x10 DUP1 SLOAD PUSH10 0xC35000002710000009C4 SWAP3 AND SWAP2 SWAP1 SWAP2 OR SWAP1 SSTORE PUSH1 0x40 MLOAD PUSH2 0x44CE SWAP1 DUP2 PUSH2 0x1F0 DUP3 CODECOPY RETURN JUMPDEST PUSH4 0x1E4FBDF7 PUSH1 0xE0 SHL PUSH1 0x0 MSTORE PUSH1 0x0 PUSH1 0x4 MSTORE PUSH1 0x24 PUSH1 0x0 REVERT JUMPDEST PUSH1 0x0 DUP1 REVERT JUMPDEST PUSH4 0x4E487B71 PUSH1 0xE0 SHL PUSH1 0x0 MSTORE PUSH1 0x41 PUSH1 0x4 MSTORE PUSH1 0x24 PUSH1 0x0 REVERT JUMPDEST MLOAD SWAP1 PUSH1 0x1 PUSH1 0x1 PUSH1 0xA0 SHL SUB DUP3 AND DUP3 SUB PUSH2 0x1C0 JUMPI JUMP INVALID PUSH1 0xA0 PUSH1 0x40 MSTORE PUSH1 0x4 CALLDATASIZE LT ISZERO PUSH2 0x47 JUMPI JUMPDEST CALLDATASIZE ISZERO PUSH2 0x19 JUMPI PUSH1 0x0 DUP1 REVERT JUMPDEST PUSH1 0x40 MLOAD CALLVALUE DUP2 MSTORE PUSH32 0x543BA50A5EEC5E6178218E364B1D0F396157B3C8FA278522C2CB7FD99407D474 PUSH1 0x20 CALLER SWAP3 LOG2 STOP JUMPDEST PUSH1 0x0 CALLDATALOAD PUSH1 0xE0 SHR DUP1 PUSH4 0x5E30F51 EQ PUSH2 0x2B0B JUMPI DUP1 PUSH4 0xB072B8D EQ PUSH2 0x2AD3 JUMPI DUP1 PUSH4 0x1408F686 EQ PUSH2 0x2829 JUMPI DUP1 PUSH4 0x1D334884 EQ PUSH2 0x2742 JUMPI DUP1 PUSH4 0x1DF195A5 EQ PUSH2 0x2637 JUMPI DUP1 PUSH4 0x24448C63 EQ PUSH2 0x2615 JUMPI DUP1 PUSH4 0x26C1F13E EQ PUSH2 0x25F9 JUMPI DUP1 PUSH4 0x2A39298E EQ PUSH2 0x2408 JUMPI DUP1 PUSH4 0x2B4F8A1F EQ PUSH2 0x23DF JUMPI DUP1 PUSH4 0x2C5F9947 EQ PUSH2 0x23B2 JUMPI DUP1 PUSH4 0x2E1A7D4D EQ PUSH2 0x22F3 JUMPI DUP1 PUSH4 0x2F912E2E EQ PUSH2 0x22C2 JUMPI DUP1 PUSH4 0x39AB2404 EQ PUSH2 0x2278 JUMPI DUP1 PUSH4 0x3CDDB89A EQ PUSH2 0x218F JUMPI DUP1 PUSH4 0x40056505 EQ PUSH2 0x20EE JUMPI DUP1 PUSH4 0x46156EA0 EQ PUSH2 0x20C3 JUMPI DUP1 PUSH4 0x4C629DA4 EQ PUSH2 0x209D JUMPI DUP1 PUSH4 0x4D30372D EQ PUSH2 0x1FD2 JUMPI DUP1 PUSH4 0x4E1523DC EQ PUSH2 0x1F18 JUMPI DUP1 PUSH4 0x4FD66EAE EQ PUSH2 0x1D7A JUMPI DUP1 PUSH4 0x52A5F1F8 EQ PUSH2 0x1C8D JUMPI DUP1 PUSH4 0x5C492129 EQ PUSH2 0x1C6F JUMPI DUP1 PUSH4 0x5DE70476 EQ PUSH2 0x1B16 JUMPI DUP1 PUSH4 0x6083E59A EQ PUSH2 0x1AF8 JUMPI DUP1 PUSH4 0x6805267E EQ PUSH2 0x1A8B JUMPI DUP1 PUSH4 0x6BC98BA3 EQ PUSH2 0x1A6E JUMPI DUP1 PUSH4 0x6E37DA1B EQ PUSH2 0x19E9 JUMPI DUP1 PUSH4 0x6F9FB98A EQ PUSH2 0x19CD JUMPI DUP1 PUSH4 0x715018A6 EQ PUSH2 0x1970 JUMPI DUP1 PUSH4 0x793CD71E EQ PUSH2 0x15BC JUMPI DUP1 PUSH4 0x8DA5CB5B EQ PUSH2 0x1593 JUMPI DUP1 PUSH4 0x90AD2A20 EQ PUSH2 0x1477 JUMPI DUP1 PUSH4 0x93128735 EQ PUSH2 0x141E JUMPI DUP1 PUSH4 0x95754ABB EQ PUSH2 0x1365 JUMPI DUP1 PUSH4 0xA49062D4 EQ PUSH2 0x1349 JUMPI DUP1 PUSH4 0xA5432FEE EQ PUSH2 0x1098 JUMPI DUP1 PUSH4 0xB309483A EQ PUSH2 0x107C JUMPI DUP1 PUSH4 0xBA24D2E3 EQ PUSH2 0x1044 JUMPI DUP1 PUSH4 0xBB371FDD EQ PUSH2 0xF2E JUMPI DUP1 PUSH4 0xC3E71670 EQ PUSH2 0xE4D JUMPI DUP1 PUSH4 0xC92329C2 EQ PUSH2 0xA1E JUMPI DUP1 PUSH4 0xCE00348F EQ PUSH2 0x8E9 JUMPI DUP1 PUSH4 0xD076D5A0 EQ PUSH2 0x8BC JUMPI DUP1 PUSH4 0xD65AB5F2 EQ PUSH2 0x5D1 JUMPI DUP1 PUSH4 0xD82C4CC3 EQ PUSH2 0x584 JUMPI DUP1 PUSH4 0xDD813788 EQ PUSH2 0x561 JUMPI DUP1 PUSH4 0xE1E158A5 EQ PUSH2 0x53E JUMPI DUP1 PUSH4 0xE2C41DBC EQ PUSH2 0x4B9 JUMPI DUP1 PUSH4 0xE4AB043D EQ PUSH2 0x489 JUMPI DUP1 PUSH4 0xEEEBBA29 EQ PUSH2 0x44F JUMPI DUP1 PUSH4 0xEFEDF50B EQ PUSH2 0x35C JUMPI DUP1 PUSH4 0xF25764B5 EQ PUSH2 0x322 JUMPI PUSH4 0xF2FDE38B SUB PUSH2 0xE JUMPI CALLVALUE PUSH2 0x31D JUMPI PUSH1 0x20 CALLDATASIZE PUSH1 0x3 NOT ADD SLT PUSH2 0x31D JUMPI PUSH2 0x2AC PUSH2 0x2BA0 JUMP JUMPDEST PUSH2 0x2B4 PUSH2 0x356A JUMP JUMPDEST PUSH1 0x1 PUSH1 0x1 PUSH1 0xA0 SHL SUB AND DUP1 ISZERO PUSH2 0x307 JUMPI PUSH1 0x1 DUP1 SLOAD PUSH1 0x1 PUSH1 0x1 PUSH1 0xA0 SHL SUB NOT DUP2 AND DUP4 OR SWAP1 SWAP2 SSTORE PUSH1 0x1 PUSH1 0x1 PUSH1 0xA0 SHL SUB AND PUSH32 0x8BE0079C531659141344CD1FD0A4F28419497F9722A3DAAFE3B4186F6B6457E0 PUSH1 0x0 DUP1 LOG3 STOP JUMPDEST PUSH4 0x1E4FBDF7 PUSH1 0xE0 SHL PUSH1 0x0 MSTORE PUSH1 0x0 PUSH1 0x4 MSTORE PUSH1 0x24 PUSH1 0x0 REVERT JUMPDEST PUSH1 0x0 DUP1 REVERT JUMPDEST CALLVALUE PUSH2 0x31D JUMPI PUSH1 0x20 CALLDATASIZE PUSH1 0x3 NOT ADD SLT PUSH2 0x31D JUMPI PUSH1 0x1 PUSH1 0x1 PUSH1 0xA0 SHL SUB PUSH2 0x343 PUSH2 0x2BA0 JUMP JUMPDEST AND PUSH1 0x0 MSTORE PUSH1 0x7 PUSH1 0x20 MSTORE PUSH1 0x20 PUSH1 0x40 PUSH1 0x0 KECCAK256 SLOAD PUSH1 0x40 MLOAD SWAP1 DUP2 MSTORE RETURN JUMPDEST CALLVALUE PUSH2 0x31D JUMPI PUSH1 0x0 CALLDATASIZE PUSH1 0x3 NOT ADD SLT PUSH2 0x31D JUMPI PUSH2 0x160 DUP1 PUSH1 0x40 MLOAD PUSH2 0x37E DUP3 DUP3 PUSH2 0x2DA8 JUMP JUMPDEST CALLDATASIZE SWAP1 CALLDATACOPY PUSH1 0x40 MLOAD DUP1 PUSH1 0xD PUSH1 0x0 JUMPDEST PUSH1 0xB PUSH1 0x7 DUP3 ADD LT PUSH2 0x3CE JUMPI POP PUSH4 0xFFFFFFFF PUSH1 0x40 SWAP2 SLOAD DUP2 DUP2 AND DUP5 MSTORE DUP2 DUP2 PUSH1 0x20 SHR AND PUSH1 0x20 DUP6 ADD MSTORE DUP3 SHR AND SWAP2 ADD MSTORE PUSH2 0x3BF DUP3 DUP3 PUSH2 0x2DA8 JUMP JUMPDEST PUSH2 0x3CC PUSH1 0x40 MLOAD DUP1 SWAP3 PUSH2 0x2E99 JUMP JUMPDEST RETURN JUMPDEST SWAP1 SWAP2 PUSH1 0x1 PUSH2 0x100 PUSH1 0x8 SWAP3 DUP6 SLOAD PUSH4 0xFFFFFFFF DUP2 AND DUP3 MSTORE PUSH4 0xFFFFFFFF DUP2 PUSH1 0x20 SHR AND PUSH1 0x20 DUP4 ADD MSTORE PUSH4 0xFFFFFFFF DUP2 PUSH1 0x40 SHR AND PUSH1 0x40 DUP4 ADD MSTORE PUSH4 0xFFFFFFFF DUP2 PUSH1 0x60 SHR AND PUSH1 0x60 DUP4 ADD MSTORE PUSH4 0xFFFFFFFF DUP2 PUSH1 0x80 SHR AND PUSH1 0x80 DUP4 ADD MSTORE PUSH4 0xFFFFFFFF DUP2 PUSH1 0xA0 SHR AND PUSH1 0xA0 DUP4 ADD MSTORE PUSH4 0xFFFFFFFF DUP2 PUSH1 0xC0 SHR AND PUSH1 0xC0 DUP4 ADD MSTORE PUSH1 0xE0 SHR PUSH1 0xE0 DUP3 ADD MSTORE ADD SWAP4 ADD SWAP2 ADD PUSH2 0x38A JUMP JUMPDEST CALLVALUE PUSH2 0x31D JUMPI PUSH1 0x0 CALLDATASIZE PUSH1 0x3 NOT ADD SLT PUSH2 0x31D JUMPI PUSH2 0x160 DUP1 PUSH1 0x40 MLOAD PUSH2 0x471 DUP3 DUP3 PUSH2 0x2DA8 JUMP JUMPDEST CALLDATASIZE SWAP1 CALLDATACOPY PUSH2 0x47C PUSH2 0x334B JUMP JUMPDEST PUSH2 0x3CC PUSH1 0x40 MLOAD DUP1 SWAP3 PUSH2 0x2E6D JUMP JUMPDEST CALLVALUE PUSH2 0x31D JUMPI PUSH1 0x40 CALLDATASIZE PUSH1 0x3 NOT ADD SLT PUSH2 0x31D JUMPI PUSH1 0x20 PUSH2 0x4AC PUSH2 0x4A7 PUSH2 0x2B90 JUMP JUMPDEST PUSH2 0x32B8 JUMP JUMPDEST PUSH1 0x4 CALLDATALOAD GT ISZERO PUSH1 0x40 MLOAD SWAP1 DUP2 MSTORE RETURN JUMPDEST PUSH1 0x0 CALLDATASIZE PUSH1 0x3 NOT ADD SLT PUSH2 0x31D JUMPI PUSH2 0x4CD PUSH2 0x356A JUMP JUMPDEST CALLVALUE ISZERO PUSH2 0x501 JUMPI PUSH1 0x40 MLOAD CALLVALUE DUP2 MSTORE PUSH32 0x543BA50A5EEC5E6178218E364B1D0F396157B3C8FA278522C2CB7FD99407D474 PUSH1 0x20 CALLER SWAP3 LOG2 STOP JUMPDEST PUSH1 0x40 MLOAD PUSH3 0x461BCD PUSH1 0xE5 SHL DUP2 MSTORE PUSH1 0x20 PUSH1 0x4 DUP3 ADD MSTORE PUSH1 0x15 PUSH1 0x24 DUP3 ADD MSTORE PUSH21 0x9AEAE6E840C8CAE0DEE6D2E840E6DEDACA408AA89 PUSH1 0x5B SHL PUSH1 0x44 DUP3 ADD MSTORE PUSH1 0x64 SWAP1 REVERT JUMPDEST CALLVALUE PUSH2 0x31D JUMPI PUSH1 0x0 CALLDATASIZE PUSH1 0x3 NOT ADD SLT PUSH2 0x31D JUMPI PUSH1 0x20 PUSH1 0x40 MLOAD PUSH8 0xDE0B6B3A7640000 DUP2 MSTORE RETURN JUMPDEST CALLVALUE PUSH2 0x31D JUMPI PUSH1 0x0 CALLDATASIZE PUSH1 0x3 NOT ADD SLT PUSH2 0x31D JUMPI PUSH1 0x20 PUSH1 0xFF PUSH1 0x3 SLOAD AND PUSH1 0x40 MLOAD SWAP1 ISZERO ISZERO DUP2 MSTORE RETURN JUMPDEST CALLVALUE PUSH2 0x31D JUMPI PUSH1 0x20 CALLDATASIZE PUSH1 0x3 NOT ADD SLT PUSH2 0x31D JUMPI PUSH2 0x59D PUSH2 0x30C3 JUMP JUMPDEST POP PUSH1 0x4 CALLDATALOAD PUSH1 0x0 MSTORE PUSH1 0x6 PUSH1 0x20 MSTORE PUSH2 0x5CD PUSH2 0x5B9 PUSH1 0x40 PUSH1 0x0 KECCAK256 PUSH2 0x3116 JUMP JUMPDEST PUSH1 0x40 MLOAD SWAP2 DUP3 SWAP2 PUSH1 0x20 DUP4 MSTORE PUSH1 0x20 DUP4 ADD SWAP1 PUSH2 0x2C47 JUMP JUMPDEST SUB SWAP1 RETURN JUMPDEST PUSH1 0x0 CALLDATASIZE PUSH1 0x3 NOT ADD SLT PUSH2 0x31D JUMPI PUSH2 0x5E5 PUSH2 0x3EA9 JUMP JUMPDEST PUSH8 0xDE0B6B3A7640000 CALLVALUE LT PUSH2 0x87F JUMPI PUSH1 0x2 SLOAD CALLVALUE GT PUSH2 0x83A JUMPI CALLER PUSH1 0x0 MSTORE PUSH1 0x5 PUSH1 0x20 MSTORE PUSH1 0xFF PUSH1 0x40 PUSH1 0x0 KECCAK256 SLOAD PUSH1 0x8 SHR AND PUSH2 0x7F5 JUMPI CALLER PUSH1 0x0 MSTORE PUSH1 0x5 PUSH1 0x20 MSTORE PUSH1 0xFF PUSH1 0x40 PUSH1 0x0 KECCAK256 SLOAD PUSH1 0x50 SHR AND PUSH1 0x4 DUP2 LT ISZERO PUSH2 0x78B JUMPI PUSH2 0x7A1 JUMPI PUSH2 0x643 PUSH1 0xB SLOAD PUSH2 0x333C JUMP JUMPDEST DUP1 PUSH1 0xB SSTORE PUSH1 0x40 MLOAD SWAP1 PUSH2 0x654 DUP3 PUSH2 0x2D3F JUMP JUMPDEST PUSH1 0x0 DUP1 DUP4 MSTORE PUSH1 0x1 PUSH1 0x20 DUP1 DUP6 ADD SWAP2 DUP3 MSTORE PUSH1 0x40 DUP1 DUP7 ADD DUP5 DUP2 MSTORE PUSH1 0x60 DUP8 ADD DUP6 DUP2 MSTORE TIMESTAMP PUSH1 0x80 DUP10 ADD SWAP1 DUP2 MSTORE CALLVALUE PUSH1 0xA0 DUP11 ADD SWAP1 DUP2 MSTORE PUSH1 0xC0 DUP11 ADD SWAP9 DUP10 MSTORE PUSH1 0xE0 DUP11 ADD DUP9 DUP2 MSTORE CALLER DUP10 MSTORE PUSH1 0x5 SWAP1 SWAP7 MSTORE SWAP4 SWAP1 SWAP7 KECCAK256 SWAP8 MLOAD DUP9 SLOAD SWAP6 MLOAD SWAP3 MLOAD PUSH10 0xFFFFFFFFFFFFFFFFFFFF NOT SWAP1 SWAP7 AND PUSH1 0xFF SWAP2 SWAP1 SWAP2 AND OR SWAP2 ISZERO ISZERO PUSH1 0x8 SHL PUSH2 0xFF00 AND SWAP2 SWAP1 SWAP2 OR PUSH1 0x10 SWAP5 SWAP1 SWAP5 SHL PUSH10 0xFFFFFFFFFFFFFFFF0000 AND SWAP4 SWAP1 SWAP4 OR DUP7 SSTORE SWAP4 SWAP2 MLOAD SWAP2 PUSH1 0x4 DUP4 LT ISZERO PUSH2 0x78B JUMPI PUSH1 0xFF SWAP5 PUSH1 0x4 SWAP5 PUSH2 0x6FE DUP8 SWAP6 DUP10 PUSH2 0x3546 JUMP JUMPDEST MLOAD PUSH1 0x1 DUP9 ADD SSTORE MLOAD PUSH1 0x2 DUP8 ADD SSTORE MLOAD PUSH1 0x3 DUP7 ADD SSTORE MLOAD AND SWAP3 ADD SWAP2 AND PUSH1 0xFF NOT DUP3 SLOAD AND OR SWAP1 SSTORE PUSH32 0xDEC0D6E2AE1CEB47A21DDB69901B8248210103E53A06FACFDC33F46CD0175682 PUSH1 0x80 PUSH1 0xB SLOAD PUSH1 0x40 MLOAD PUSH2 0x751 DUP2 PUSH2 0x2D71 JUMP JUMPDEST CALLER DUP2 MSTORE PUSH1 0x20 DUP2 ADD SWAP2 DUP3 MSTORE PUSH1 0x60 PUSH1 0x40 DUP3 ADD SWAP2 TIMESTAMP DUP4 MSTORE ADD SWAP1 CALLVALUE DUP3 MSTORE PUSH1 0x40 MLOAD SWAP3 CALLER DUP5 MSTORE MLOAD PUSH1 0x20 DUP5 ADD MSTORE MLOAD PUSH1 0x40 DUP4 ADD MSTORE MLOAD PUSH1 0x60 DUP3 ADD MSTORE LOG1 PUSH1 0x1 PUSH1 0x0 SSTORE STOP JUMPDEST PUSH4 0x4E487B71 PUSH1 0xE0 SHL PUSH1 0x0 MSTORE PUSH1 0x21 PUSH1 0x4 MSTORE PUSH1 0x24 PUSH1 0x0 REVERT JUMPDEST PUSH1 0x40 MLOAD PUSH3 0x461BCD PUSH1 0xE5 SHL DUP2 MSTORE PUSH1 0x20 PUSH1 0x4 DUP3 ADD MSTORE PUSH1 0x26 PUSH1 0x24 DUP3 ADD MSTORE PUSH32 0x50656E64696E672072657175657374206D757374206265207265736F6C766564 PUSH1 0x44 DUP3 ADD MSTORE PUSH6 0x8199A5C9CDD PUSH1 0xD2 SHL PUSH1 0x64 DUP3 ADD MSTORE PUSH1 0x84 SWAP1 REVERT JUMPDEST PUSH1 0x40 MLOAD PUSH3 0x461BCD PUSH1 0xE5 SHL DUP2 MSTORE PUSH1 0x20 PUSH1 0x4 DUP3 ADD MSTORE PUSH1 0x18 PUSH1 0x24 DUP3 ADD MSTORE PUSH32 0x47616D6520616C726561647920696E2070726F67726573730000000000000000 PUSH1 0x44 DUP3 ADD MSTORE PUSH1 0x64 SWAP1 REVERT JUMPDEST PUSH1 0x40 MLOAD PUSH3 0x461BCD PUSH1 0xE5 SHL DUP2 MSTORE PUSH1 0x20 PUSH1 0x4 DUP3 ADD MSTORE PUSH1 0x17 PUSH1 0x24 DUP3 ADD MSTORE PUSH32 0x4465706F7369742065786365656473206D6178696D756D000000000000000000 PUSH1 0x44 DUP3 ADD MSTORE PUSH1 0x64 SWAP1 REVERT JUMPDEST PUSH1 0x40 MLOAD PUSH3 0x461BCD PUSH1 0xE5 SHL DUP2 MSTORE PUSH1 0x20 PUSH1 0x4 DUP3 ADD MSTORE PUSH1 0x15 PUSH1 0x24 DUP3 ADD MSTORE PUSH21 0x4465706F7369742062656C6F77206D696E696D756D PUSH1 0x58 SHL PUSH1 0x44 DUP3 ADD MSTORE PUSH1 0x64 SWAP1 REVERT JUMPDEST CALLVALUE PUSH2 0x31D JUMPI PUSH1 0x0 CALLDATASIZE PUSH1 0x3 NOT ADD SLT PUSH2 0x31D JUMPI PUSH2 0x160 DUP1 PUSH1 0x40 MLOAD PUSH2 0x8DE DUP3 DUP3 PUSH2 0x2DA8 JUMP JUMPDEST CALLDATASIZE SWAP1 CALLDATACOPY PUSH2 0x3BF PUSH2 0x33D5 JUMP JUMPDEST CALLVALUE PUSH2 0x31D JUMPI PUSH1 0x20 CALLDATASIZE PUSH1 0x3 NOT ADD SLT PUSH2 0x31D JUMPI PUSH2 0x902 PUSH2 0x2BA0 JUMP JUMPDEST PUSH1 0x0 PUSH1 0xE0 PUSH1 0x40 MLOAD PUSH2 0x912 DUP2 PUSH2 0x2D3F JUMP JUMPDEST DUP3 DUP2 MSTORE DUP3 PUSH1 0x20 DUP3 ADD MSTORE DUP3 PUSH1 0x40 DUP3 ADD MSTORE DUP3 PUSH1 0x60 DUP3 ADD MSTORE DUP3 PUSH1 0x80 DUP3 ADD MSTORE DUP3 PUSH1 0xA0 DUP3 ADD MSTORE DUP3 PUSH1 0xC0 DUP3 ADD MSTORE ADD MSTORE PUSH1 0x1 DUP1 PUSH1 0xA0 SHL SUB AND PUSH1 0x0 MSTORE PUSH1 0x5 PUSH1 0x20 MSTORE PUSH2 0x100 PUSH1 0x40 PUSH1 0x0 KECCAK256 PUSH1 0xFF PUSH1 0x40 MLOAD SWAP2 PUSH2 0x962 DUP4 PUSH2 0x2D3F JUMP JUMPDEST DUP1 SLOAD SWAP1 DUP3 DUP3 AND DUP5 MSTORE PUSH1 0x20 DUP5 ADD SWAP2 DUP4 DUP2 PUSH1 0x8 SHR AND ISZERO ISZERO DUP4 MSTORE PUSH1 0x40 DUP6 ADD SWAP1 PUSH1 0x1 PUSH1 0x1 PUSH1 0x40 SHL SUB DUP2 PUSH1 0x10 SHR AND DUP3 MSTORE PUSH2 0x9A0 DUP6 PUSH1 0x60 DUP9 ADD SWAP3 PUSH1 0x50 SHR AND DUP3 PUSH2 0x2F1B JUMP JUMPDEST PUSH2 0xA03 PUSH1 0x1 DUP5 ADD SLOAD SWAP2 PUSH1 0x80 DUP9 ADD SWAP3 DUP4 MSTORE PUSH1 0x1 PUSH1 0x1 PUSH1 0x40 SHL SUB PUSH1 0x2 DUP7 ADD SLOAD SWAP5 PUSH1 0xA0 DUP11 ADD SWAP6 DUP7 MSTORE DUP9 PUSH1 0x4 PUSH1 0x3 DUP10 ADD SLOAD SWAP9 PUSH1 0xC0 DUP14 ADD SWAP10 DUP11 MSTORE ADD SLOAD AND SWAP8 PUSH1 0xE0 DUP12 ADD SWAP9 DUP10 MSTORE DUP10 PUSH1 0x40 MLOAD SWAP12 MLOAD AND DUP12 MSTORE MLOAD ISZERO ISZERO PUSH1 0x20 DUP12 ADD MSTORE MLOAD AND PUSH1 0x40 DUP10 ADD MSTORE MLOAD PUSH1 0x60 DUP9 ADD SWAP1 PUSH2 0x2CDD JUMP JUMPDEST MLOAD PUSH1 0x80 DUP7 ADD MSTORE MLOAD PUSH1 0xA0 DUP6 ADD MSTORE MLOAD PUSH1 0xC0 DUP5 ADD MSTORE MLOAD AND PUSH1 0xE0 DUP3 ADD MSTORE RETURN JUMPDEST PUSH1 0x20 CALLDATASIZE PUSH1 0x3 NOT ADD SLT PUSH2 0x31D JUMPI PUSH2 0xA32 PUSH2 0x2B80 JUMP JUMPDEST PUSH2 0xA3A PUSH2 0x3EA9 JUMP JUMPDEST CALLER PUSH1 0x0 MSTORE PUSH1 0x5 PUSH1 0x20 MSTORE PUSH2 0xA57 PUSH1 0xFF PUSH1 0x40 PUSH1 0x0 KECCAK256 SLOAD PUSH1 0x8 SHR AND PUSH2 0x2F27 JUMP JUMPDEST CALLER PUSH1 0x0 MSTORE PUSH1 0x5 PUSH1 0x20 MSTORE PUSH1 0xFF PUSH1 0x40 PUSH1 0x0 KECCAK256 SLOAD PUSH1 0x50 SHR AND PUSH1 0x4 DUP2 LT ISZERO PUSH2 0x78B JUMPI PUSH2 0xA7F SWAP1 ISZERO PUSH2 0x3497 JUMP JUMPDEST CALLER PUSH1 0x0 MSTORE PUSH1 0x5 PUSH1 0x20 MSTORE PUSH1 0x40 PUSH1 0x0 KECCAK256 SWAP1 PUSH2 0xAA1 PUSH1 0xFF DUP1 DUP5 SLOAD AND SWAP3 AND SWAP2 DUP3 GT PUSH2 0x2F64 JUMP JUMPDEST PUSH2 0xAAE PUSH1 0xA DUP3 GT ISZERO PUSH2 0x2FC7 JUMP JUMPDEST PUSH1 0x4 DUP3 ADD SWAP1 PUSH1 0xFF NOT DUP3 SLOAD AND OR SWAP1 SSTORE PUSH1 0x0 SWAP1 PUSH2 0xACD DUP3 PUSH1 0xFF DUP4 SLOAD AND PUSH2 0x306E JUMP JUMPDEST PUSH1 0x0 NOT NUMBER ADD SWAP1 NUMBER DUP3 GT PUSH2 0xE39 JUMPI PUSH1 0x40 MLOAD SWAP1 PUSH1 0x20 DUP3 ADD SWAP3 TIMESTAMP DUP5 MSTORE PREVRANDAO PUSH1 0x40 DUP5 ADD MSTORE CALLER PUSH1 0x60 SHL PUSH1 0x60 DUP5 ADD MSTORE BLOCKHASH PUSH1 0x74 DUP4 ADD MSTORE PUSH1 0xFF PUSH1 0xF8 SHL SWAP1 PUSH1 0xF8 SHL AND PUSH1 0x94 DUP3 ADD MSTORE PUSH1 0x75 DUP2 MSTORE PUSH2 0xB19 PUSH1 0x95 DUP3 PUSH2 0x2DA8 JUMP JUMPDEST MLOAD SWAP1 KECCAK256 PUSH1 0x3 SLOAD PUSH1 0x40 MLOAD PUSH4 0x20BBA643 PUSH1 0xE2 SHL DUP2 MSTORE PUSH1 0x8 SWAP2 SWAP1 SWAP2 SHR PUSH1 0x1 PUSH1 0x1 PUSH1 0xA0 SHL SUB AND SWAP2 PUSH1 0x20 DUP3 PUSH1 0x4 DUP2 DUP7 GAS STATICCALL SWAP2 DUP3 ISZERO PUSH2 0xE2E JUMPI DUP6 SWAP3 PUSH2 0xDE6 JUMPI JUMPDEST POP PUSH1 0x40 MLOAD PUSH4 0x17119229 PUSH1 0xE3 SHL DUP2 MSTORE PUSH1 0x1 PUSH1 0x1 PUSH1 0xA0 SHL SUB SWAP1 SWAP3 AND PUSH1 0x4 DUP4 ADD DUP2 SWAP1 MSTORE SWAP2 PUSH1 0x20 DUP2 PUSH1 0x24 DUP2 DUP8 GAS STATICCALL DUP1 ISZERO PUSH2 0xDDB JUMPI DUP7 SWAP1 PUSH2 0xD8E JUMPI JUMPDEST PUSH1 0x1 PUSH1 0x1 PUSH1 0x80 SHL SUB SWAP2 POP AND DUP1 CALLVALUE LT PUSH2 0xD3D JUMPI PUSH1 0x20 SWAP3 PUSH1 0x44 SWAP2 PUSH1 0x40 MLOAD SWAP6 DUP7 SWAP5 DUP6 SWAP4 PUSH4 0x19CB825F PUSH1 0xE0 SHL DUP6 MSTORE PUSH1 0x4 DUP6 ADD MSTORE PUSH1 0x24 DUP5 ADD MSTORE GAS CALL SWAP1 DUP2 ISZERO PUSH2 0xD32 JUMPI DUP4 SWAP2 PUSH2 0xCEA JUMPI JUMPDEST DUP3 SLOAD PUSH10 0xFFFFFFFFFFFFFFFF0000 NOT AND PUSH1 0x10 DUP4 SWAP1 SHL PUSH10 0xFFFFFFFFFFFFFFFF0000 AND OR DUP4 SSTORE PUSH1 0x20 DUP5 PUSH32 0xCB9F534D41D12F39394586D6A7BBAE75471BD457E6BD88546F4D5AE46E05754E PUSH2 0xCDA DUP7 DUP7 PUSH2 0xC25 PUSH1 0x3 DUP4 PUSH2 0x3546 JUMP JUMPDEST PUSH1 0x1 PUSH1 0x1 PUSH1 0x40 SHL SUB AND DUP1 DUP6 MSTORE PUSH1 0x8 DUP7 MSTORE PUSH1 0x40 DUP1 DUP7 KECCAK256 DUP1 SLOAD PUSH1 0x1 PUSH1 0x1 PUSH1 0xA0 SHL SUB NOT AND CALLER OR SWAP1 SSTORE DUP2 DUP7 MSTORE PUSH1 0x9 DUP8 MSTORE SWAP5 DUP6 SWAP1 KECCAK256 DUP1 SLOAD PUSH1 0xFF NOT AND SWAP1 SSTORE PUSH1 0x3 DUP3 ADD SLOAD SWAP2 SLOAD SWAP5 MLOAD SWAP1 SWAP5 SWAP1 SWAP2 PUSH1 0xFF SWAP2 SWAP1 SWAP2 AND SWAP1 PUSH2 0xC7A DUP4 PUSH2 0x2D71 JUMP JUMPDEST CALLER DUP4 MSTORE DUP7 DUP4 ADD MSTORE PUSH1 0x40 DUP3 ADD MSTORE DUP4 PUSH1 0x60 DUP3 ADD MSTORE PUSH1 0x40 MLOAD SWAP2 DUP3 SWAP2 DUP3 DUP2 MLOAD PUSH1 0x1 PUSH1 0x1 PUSH1 0xA0 SHL SUB AND DUP2 MSTORE PUSH1 0x20 DUP1 DUP4 ADD MLOAD SWAP1 DUP3 ADD MSTORE PUSH1 0x40 DUP1 DUP4 ADD MLOAD PUSH1 0xFF AND SWAP1 DUP3 ADD MSTORE PUSH1 0x60 SWAP2 DUP3 ADD MLOAD PUSH1 0x1 PUSH1 0x1 PUSH1 0x40 SHL SUB AND SWAP2 DUP2 ADD SWAP2 SWAP1 SWAP2 MSTORE PUSH1 0x0 PUSH1 0x80 DUP3 ADD MSTORE PUSH1 0xA0 ADD SWAP1 JUMP JUMPDEST SUB SWAP1 LOG1 PUSH1 0x1 PUSH1 0x0 SSTORE PUSH1 0x40 MLOAD SWAP1 DUP2 MSTORE RETURN JUMPDEST SWAP1 POP PUSH1 0x20 DUP2 RETURNDATASIZE PUSH1 0x20 GT PUSH2 0xD2A JUMPI JUMPDEST DUP2 PUSH2 0xD05 PUSH1 0x20 SWAP4 DUP4 PUSH2 0x2DA8 JUMP JUMPDEST DUP2 ADD SUB SLT PUSH2 0xD26 JUMPI MLOAD PUSH1 0x1 PUSH1 0x1 PUSH1 0x40 SHL SUB DUP2 AND DUP2 SUB PUSH2 0xD26 JUMPI PUSH2 0xCDA PUSH2 0xBCE JUMP JUMPDEST DUP3 DUP1 REVERT JUMPDEST RETURNDATASIZE SWAP2 POP PUSH2 0xCF8 JUMP JUMPDEST PUSH1 0x40 MLOAD RETURNDATASIZE DUP6 DUP3 RETURNDATACOPY RETURNDATASIZE SWAP1 REVERT JUMPDEST PUSH1 0x40 MLOAD PUSH3 0x461BCD PUSH1 0xE5 SHL DUP2 MSTORE PUSH1 0x20 PUSH1 0x4 DUP3 ADD MSTORE PUSH1 0x24 DUP1 DUP3 ADD MSTORE PUSH32 0x496E73756666696369656E742066656520666F7220656E74726F707920726571 PUSH1 0x44 DUP3 ADD MSTORE PUSH4 0x1D595CDD PUSH1 0xE2 SHL PUSH1 0x64 DUP3 ADD MSTORE PUSH1 0x84 SWAP1 REVERT JUMPDEST POP PUSH1 0x20 DUP2 RETURNDATASIZE PUSH1 0x20 GT PUSH2 0xDD3 JUMPI JUMPDEST DUP2 PUSH2 0xDA8 PUSH1 0x20 SWAP4 DUP4 PUSH2 0x2DA8 JUMP JUMPDEST DUP2 ADD SUB SLT PUSH2 0xDCF JUMPI MLOAD PUSH1 0x1 PUSH1 0x1 PUSH1 0x80 SHL SUB DUP2 AND DUP2 SUB PUSH2 0xDCF JUMPI PUSH1 0x1 PUSH1 0x1 PUSH1 0x80 SHL SUB SWAP1 PUSH2 0xB8A JUMP JUMPDEST DUP6 DUP1 REVERT JUMPDEST RETURNDATASIZE SWAP2 POP PUSH2 0xD9B JUMP JUMPDEST PUSH1 0x40 MLOAD RETURNDATASIZE DUP9 DUP3 RETURNDATACOPY RETURNDATASIZE SWAP1 REVERT JUMPDEST SWAP1 SWAP2 POP PUSH1 0x20 DUP2 RETURNDATASIZE PUSH1 0x20 GT PUSH2 0xE26 JUMPI JUMPDEST DUP2 PUSH2 0xE02 PUSH1 0x20 SWAP4 DUP4 PUSH2 0x2DA8 JUMP JUMPDEST DUP2 ADD SUB SLT PUSH2 0xE22 JUMPI MLOAD PUSH1 0x1 PUSH1 0x1 PUSH1 0xA0 SHL SUB DUP2 AND DUP2 SUB PUSH2 0xE22 JUMPI SWAP1 DUP6 PUSH2 0xB53 JUMP JUMPDEST DUP5 DUP1 REVERT JUMPDEST RETURNDATASIZE SWAP2 POP PUSH2 0xDF5 JUMP JUMPDEST PUSH1 0x40 MLOAD RETURNDATASIZE DUP8 DUP3 RETURNDATACOPY RETURNDATASIZE SWAP1 REVERT JUMPDEST PUSH4 0x4E487B71 PUSH1 0xE0 SHL DUP5 MSTORE PUSH1 0x11 PUSH1 0x4 MSTORE PUSH1 0x24 DUP5 REVERT JUMPDEST CALLVALUE PUSH2 0x31D JUMPI PUSH1 0x20 CALLDATASIZE PUSH1 0x3 NOT ADD SLT PUSH2 0x31D JUMPI PUSH1 0x1 PUSH1 0x1 PUSH1 0xA0 SHL SUB PUSH2 0xE6E PUSH2 0x2BA0 JUMP JUMPDEST AND PUSH1 0x0 MSTORE PUSH1 0x5 PUSH1 0x20 MSTORE PUSH1 0x20 PUSH2 0xFFFF PUSH2 0xF1E PUSH2 0xF19 PUSH1 0xFF PUSH1 0x40 PUSH1 0x0 KECCAK256 PUSH2 0xF03 PUSH1 0x40 MLOAD SWAP2 PUSH2 0xE99 DUP4 PUSH2 0x2D3F JUMP JUMPDEST DUP4 PUSH1 0x4 DUP3 SLOAD SWAP3 DUP3 DUP5 AND DUP7 MSTORE PUSH2 0xED5 DUP4 DUP13 DUP9 ADD SWAP6 DUP2 DUP2 PUSH1 0x8 SHR AND ISZERO ISZERO DUP8 MSTORE PUSH1 0x1 PUSH1 0x1 PUSH1 0x40 SHL SUB DUP2 PUSH1 0x10 SHR AND PUSH1 0x40 DUP11 ADD MSTORE PUSH1 0x50 SHR AND PUSH1 0x60 DUP9 ADD PUSH2 0x2F1B JUMP JUMPDEST PUSH1 0x1 DUP2 ADD SLOAD PUSH1 0x80 DUP8 ADD MSTORE PUSH1 0x2 DUP2 ADD SLOAD PUSH1 0xA0 DUP8 ADD MSTORE PUSH1 0x3 DUP2 ADD SLOAD PUSH1 0xC0 DUP8 ADD MSTORE ADD SLOAD AND PUSH1 0xE0 DUP5 ADD MSTORE MLOAD ISZERO ISZERO PUSH2 0x2F27 JUMP JUMPDEST PUSH2 0xF12 PUSH1 0xA DUP4 DUP4 MLOAD AND LT PUSH2 0x34FA JUMP JUMPDEST MLOAD AND PUSH2 0x305C JUMP JUMPDEST PUSH2 0x2CEA JUMP JUMPDEST SWAP1 SLOAD SWAP1 PUSH1 0x3 SHL SHR AND PUSH1 0x40 MLOAD SWAP1 DUP2 MSTORE RETURN JUMPDEST CALLVALUE PUSH2 0x31D JUMPI PUSH1 0x20 CALLDATASIZE PUSH1 0x3 NOT ADD SLT PUSH2 0x31D JUMPI PUSH1 0x4 CALLDATALOAD PUSH2 0xF4A PUSH2 0x356A JUMP JUMPDEST PUSH8 0xDE0B6B3A7640000 DUP2 LT PUSH2 0xFEB JUMPI DUP1 ISZERO PUSH2 0xF98 JUMPI PUSH1 0x40 PUSH32 0x4F57E88D155DD8095ED0D01A2787F469EB9BA59CD7D06BA45D88365BE7EC936 SWAP2 PUSH1 0x2 SLOAD SWAP1 DUP1 PUSH1 0x2 SSTORE DUP3 MLOAD SWAP2 DUP3 MSTORE PUSH1 0x20 DUP3 ADD MSTORE LOG1 STOP JUMPDEST PUSH1 0x40 MLOAD PUSH3 0x461BCD PUSH1 0xE5 SHL DUP2 MSTORE PUSH1 0x20 PUSH1 0x4 DUP3 ADD MSTORE PUSH1 0x25 PUSH1 0x24 DUP3 ADD MSTORE PUSH32 0x4D6178206465706F736974206D7573742062652067726561746572207468616E PUSH1 0x44 DUP3 ADD MSTORE PUSH5 0x207A65726F PUSH1 0xD8 SHL PUSH1 0x64 DUP3 ADD MSTORE PUSH1 0x84 SWAP1 REVERT JUMPDEST PUSH1 0x40 MLOAD PUSH3 0x461BCD PUSH1 0xE5 SHL DUP2 MSTORE PUSH1 0x20 PUSH1 0x4 DUP3 ADD MSTORE PUSH1 0x2B PUSH1 0x24 DUP3 ADD MSTORE PUSH32 0x4D6178206465706F7369742063616E6E6F742062652062656C6F77206D696E69 PUSH1 0x44 DUP3 ADD MSTORE PUSH11 0x1B5D5B4819195C1BDCDA5D PUSH1 0xAA SHL PUSH1 0x64 DUP3 ADD MSTORE PUSH1 0x84 SWAP1 REVERT JUMPDEST CALLVALUE PUSH2 0x31D JUMPI PUSH1 0x20 CALLDATASIZE PUSH1 0x3 NOT ADD SLT PUSH2 0x31D JUMPI PUSH1 0x20 PUSH4 0xFFFFFFFF PUSH2 0xF1E PUSH2 0x1067 PUSH2 0x2B80 JUMP JUMPDEST PUSH2 0x1077 PUSH1 0xA PUSH1 0xFF DUP4 AND GT ISZERO PUSH2 0x2EDF JUMP JUMPDEST PUSH2 0x2B65 JUMP JUMPDEST CALLVALUE PUSH2 0x31D JUMPI PUSH1 0x0 CALLDATASIZE PUSH1 0x3 NOT ADD SLT PUSH2 0x31D JUMPI PUSH1 0x20 PUSH1 0x40 MLOAD PUSH1 0x64 DUP2 MSTORE RETURN JUMPDEST PUSH1 0x0 CALLDATASIZE PUSH1 0x3 NOT ADD SLT PUSH2 0x31D JUMPI PUSH2 0x10AC PUSH2 0x3EA9 JUMP JUMPDEST CALLER PUSH1 0x0 MSTORE PUSH1 0x5 PUSH1 0x20 MSTORE PUSH2 0x10C9 PUSH1 0xFF PUSH1 0x40 PUSH1 0x0 KECCAK256 SLOAD PUSH1 0x8 SHR AND PUSH2 0x2F27 JUMP JUMPDEST CALLER PUSH1 0x0 MSTORE PUSH1 0x5 PUSH1 0x20 MSTORE PUSH1 0xFF PUSH1 0x40 PUSH1 0x0 KECCAK256 SLOAD PUSH1 0x50 SHR AND PUSH1 0x4 DUP2 LT ISZERO PUSH2 0x78B JUMPI PUSH2 0x10F1 SWAP1 ISZERO PUSH2 0x3497 JUMP JUMPDEST CALLER PUSH1 0x0 MSTORE PUSH1 0x5 PUSH1 0x20 MSTORE PUSH1 0x40 PUSH1 0x0 KECCAK256 PUSH2 0x110F PUSH1 0xA PUSH1 0xFF DUP4 SLOAD AND LT PUSH2 0x34FA JUMP JUMPDEST PUSH1 0x0 SWAP1 PUSH2 0x1120 DUP3 PUSH1 0xFF DUP4 SLOAD AND PUSH2 0x306E JUMP JUMPDEST PUSH1 0x0 NOT NUMBER ADD SWAP1 NUMBER DUP3 GT PUSH2 0xE39 JUMPI PUSH1 0x40 MLOAD SWAP1 PUSH1 0x20 DUP3 ADD SWAP3 TIMESTAMP DUP5 MSTORE PREVRANDAO PUSH1 0x40 DUP5 ADD MSTORE CALLER PUSH1 0x60 SHL PUSH1 0x60 DUP5 ADD MSTORE BLOCKHASH PUSH1 0x74 DUP4 ADD MSTORE PUSH1 0xFF PUSH1 0xF8 SHL SWAP1 PUSH1 0xF8 SHL AND PUSH1 0x94 DUP3 ADD MSTORE PUSH1 0x75 DUP2 MSTORE PUSH2 0x116C PUSH1 0x95 DUP3 PUSH2 0x2DA8 JUMP JUMPDEST MLOAD SWAP1 KECCAK256 PUSH1 0x3 SLOAD PUSH1 0x40 MLOAD PUSH4 0x20BBA643 PUSH1 0xE2 SHL DUP2 MSTORE PUSH1 0x8 SWAP2 SWAP1 SWAP2 SHR PUSH1 0x1 PUSH1 0x1 PUSH1 0xA0 SHL SUB AND SWAP2 PUSH1 0x20 DUP3 PUSH1 0x4 DUP2 DUP7 GAS STATICCALL SWAP2 DUP3 ISZERO PUSH2 0xE2E JUMPI DUP6 SWAP3 PUSH2 0x1305 JUMPI JUMPDEST POP PUSH1 0x40 MLOAD PUSH4 0x17119229 PUSH1 0xE3 SHL DUP2 MSTORE PUSH1 0x1 PUSH1 0x1 PUSH1 0xA0 SHL SUB SWAP1 SWAP3 AND PUSH1 0x4 DUP4 ADD DUP2 SWAP1 MSTORE SWAP2 PUSH1 0x20 DUP2 PUSH1 0x24 DUP2 DUP8 GAS STATICCALL DUP1 ISZERO PUSH2 0xDDB JUMPI DUP7 SWAP1 PUSH2 0x12BC JUMPI JUMPDEST PUSH1 0x1 PUSH1 0x1 PUSH1 0x80 SHL SUB SWAP2 POP AND DUP1 CALLVALUE LT PUSH2 0xD3D JUMPI PUSH1 0x20 SWAP3 PUSH1 0x44 SWAP2 PUSH1 0x40 MLOAD SWAP6 DUP7 SWAP5 DUP6 SWAP4 PUSH4 0x19CB825F PUSH1 0xE0 SHL DUP6 MSTORE PUSH1 0x4 DUP6 ADD MSTORE PUSH1 0x24 DUP5 ADD MSTORE GAS CALL SWAP1 DUP2 ISZERO PUSH2 0xD32 JUMPI DUP4 SWAP2 PUSH2 0x1278 JUMPI JUMPDEST DUP3 SLOAD PUSH10 0xFFFFFFFFFFFFFFFF0000 NOT AND PUSH1 0x10 DUP4 SWAP1 SHL PUSH10 0xFFFFFFFFFFFFFFFF0000 AND OR DUP4 SSTORE PUSH1 0x20 DUP5 PUSH32 0xCB9F534D41D12F39394586D6A7BBAE75471BD457E6BD88546F4D5AE46E05754E PUSH2 0xCDA DUP7 DUP7 PUSH2 0xC25 PUSH1 0x1 DUP4 PUSH2 0x3546 JUMP JUMPDEST SWAP1 POP PUSH1 0x20 DUP2 RETURNDATASIZE PUSH1 0x20 GT PUSH2 0x12B4 JUMPI JUMPDEST DUP2 PUSH2 0x1293 PUSH1 0x20 SWAP4 DUP4 PUSH2 0x2DA8 JUMP JUMPDEST DUP2 ADD SUB SLT PUSH2 0xD26 JUMPI MLOAD PUSH1 0x1 PUSH1 0x1 PUSH1 0x40 SHL SUB DUP2 AND DUP2 SUB PUSH2 0xD26 JUMPI PUSH2 0xCDA PUSH2 0x1221 JUMP JUMPDEST RETURNDATASIZE SWAP2 POP PUSH2 0x1286 JUMP JUMPDEST POP PUSH1 0x20 DUP2 RETURNDATASIZE PUSH1 0x20 GT PUSH2 0x12FD JUMPI JUMPDEST DUP2 PUSH2 0x12D6 PUSH1 0x20 SWAP4 DUP4 PUSH2 0x2DA8 JUMP JUMPDEST DUP2 ADD SUB SLT PUSH2 0xDCF JUMPI MLOAD PUSH1 0x1 PUSH1 0x1 PUSH1 0x80 SHL SUB DUP2 AND DUP2 SUB PUSH2 0xDCF JUMPI PUSH1 0x1 PUSH1 0x1 PUSH1 0x80 SHL SUB SWAP1 PUSH2 0x11DD JUMP JUMPDEST RETURNDATASIZE SWAP2 POP PUSH2 0x12C9 JUMP JUMPDEST SWAP1 SWAP2 POP PUSH1 0x20 DUP2 RETURNDATASIZE PUSH1 0x20 GT PUSH2 0x1341 JUMPI JUMPDEST DUP2 PUSH2 0x1321 PUSH1 0x20 SWAP4 DUP4 PUSH2 0x2DA8 JUMP JUMPDEST DUP2 ADD SUB SLT PUSH2 0xE22 JUMPI MLOAD PUSH1 0x1 PUSH1 0x1 PUSH1 0xA0 SHL SUB DUP2 AND DUP2 SUB PUSH2 0xE22 JUMPI SWAP1 DUP6 PUSH2 0x11A6 JUMP JUMPDEST RETURNDATASIZE SWAP2 POP PUSH2 0x1314 JUMP JUMPDEST CALLVALUE PUSH2 0x31D JUMPI PUSH1 0x0 CALLDATASIZE PUSH1 0x3 NOT ADD SLT PUSH2 0x31D JUMPI PUSH1 0x20 PUSH1 0x40 MLOAD PUSH1 0xA DUP2 MSTORE RETURN JUMPDEST CALLVALUE PUSH2 0x31D JUMPI PUSH1 0x20 CALLDATASIZE PUSH1 0x3 NOT ADD SLT PUSH2 0x31D JUMPI PUSH2 0x137E PUSH2 0x2BA0 JUMP JUMPDEST PUSH2 0x1386 PUSH2 0x356A JUMP JUMPDEST PUSH1 0x1 PUSH1 0x1 PUSH1 0xA0 SHL SUB AND DUP1 ISZERO PUSH2 0x13D9 JUMPI PUSH1 0x4 DUP1 SLOAD PUSH1 0x1 PUSH1 0x1 PUSH1 0xA0 SHL SUB NOT DUP2 AND DUP4 OR SWAP1 SWAP2 SSTORE PUSH1 0x1 PUSH1 0x1 PUSH1 0xA0 SHL SUB AND PUSH32 0x7B5EABEB4AB16A2AD7E5311F64B056AE65CAE15FF946519963A642FFFDAAD14A PUSH1 0x0 DUP1 LOG3 STOP JUMPDEST PUSH1 0x40 MLOAD PUSH3 0x461BCD PUSH1 0xE5 SHL DUP2 MSTORE PUSH1 0x20 PUSH1 0x4 DUP3 ADD MSTORE PUSH1 0x1F PUSH1 0x24 DUP3 ADD MSTORE PUSH32 0x496E76616C696420706F696E747320636F6E7472616374206164647265737300 PUSH1 0x44 DUP3 ADD MSTORE PUSH1 0x64 SWAP1 REVERT JUMPDEST CALLVALUE PUSH2 0x31D JUMPI PUSH1 0x40 CALLDATASIZE PUSH1 0x3 NOT ADD SLT PUSH2 0x31D JUMPI PUSH2 0x1437 PUSH2 0x2BA0 JUMP JUMPDEST PUSH1 0x1 PUSH1 0x1 PUSH1 0xA0 SHL SUB AND PUSH1 0x0 SWAP1 DUP2 MSTORE PUSH1 0x7 PUSH1 0x20 MSTORE PUSH1 0x40 SWAP1 KECCAK256 DUP1 SLOAD PUSH1 0x24 CALLDATALOAD SWAP2 SWAP1 DUP3 LT ISZERO PUSH2 0x31D JUMPI PUSH1 0x20 SWAP2 PUSH2 0x1468 SWAP2 PUSH2 0x2EC7 JUMP JUMPDEST SWAP1 SLOAD SWAP1 PUSH1 0x3 SHL SHR PUSH1 0x40 MLOAD SWAP1 DUP2 MSTORE RETURN JUMPDEST CALLVALUE PUSH2 0x31D JUMPI PUSH1 0x40 CALLDATASIZE PUSH1 0x3 NOT ADD SLT PUSH2 0x31D JUMPI PUSH2 0x1490 PUSH2 0x2BA0 JUMP JUMPDEST PUSH2 0x1498 PUSH2 0x2B90 JUMP JUMPDEST SWAP1 PUSH1 0x1 DUP1 PUSH1 0xA0 SHL SUB AND PUSH1 0x0 MSTORE PUSH1 0x5 PUSH1 0x20 MSTORE PUSH1 0x40 PUSH1 0x0 KECCAK256 PUSH2 0x14FC PUSH1 0x40 MLOAD SWAP2 PUSH2 0x14BE DUP4 PUSH2 0x2D3F JUMP JUMPDEST PUSH1 0xFF PUSH1 0x4 DUP3 SLOAD SWAP3 DUP3 DUP5 AND DUP7 MSTORE PUSH2 0xED5 DUP4 PUSH1 0x20 DUP9 ADD SWAP6 DUP2 DUP2 PUSH1 0x8 SHR AND ISZERO ISZERO DUP8 MSTORE PUSH1 0x1 PUSH1 0x1 PUSH1 0x40 SHL SUB DUP2 PUSH1 0x10 SHR AND PUSH1 0x40 DUP11 ADD MSTORE PUSH1 0x50 SHR AND PUSH1 0x60 DUP9 ADD PUSH2 0x2F1B JUMP JUMPDEST PUSH2 0x150F PUSH1 0xFF DUP1 DUP4 MLOAD AND SWAP4 AND SWAP3 DUP4 GT PUSH2 0x2F64 JUMP JUMPDEST PUSH2 0x151C PUSH1 0xA DUP4 GT ISZERO PUSH2 0x2FC7 JUMP JUMPDEST PUSH2 0x152C PUSH1 0xFF PUSH2 0x2710 SWAP3 MLOAD AND PUSH2 0x305C JUMP JUMPDEST SWAP2 JUMPDEST DUP1 PUSH1 0xFF DUP5 AND GT ISZERO PUSH2 0x1544 JUMPI PUSH1 0x20 DUP3 PUSH1 0x40 MLOAD SWAP1 DUP2 MSTORE RETURN JUMPDEST SWAP1 PUSH2 0x2710 PUSH2 0x1568 PUSH1 0xFF SWAP3 PUSH2 0xFFFF PUSH2 0x155A DUP8 PUSH2 0x2CEA JUMP JUMPDEST SWAP1 SLOAD SWAP1 PUSH1 0x3 SHL SHR AND SWAP1 PUSH2 0x3096 JUMP JUMPDEST DIV SWAP3 AND PUSH1 0xFF DUP2 EQ PUSH2 0x157D JUMPI PUSH1 0x1 ADD SWAP2 SWAP1 PUSH2 0x152E JUMP JUMPDEST PUSH4 0x4E487B71 PUSH1 0xE0 SHL PUSH1 0x0 MSTORE PUSH1 0x11 PUSH1 0x4 MSTORE PUSH1 0x24 PUSH1 0x0 REVERT JUMPDEST CALLVALUE PUSH2 0x31D JUMPI PUSH1 0x0 CALLDATASIZE PUSH1 0x3 NOT ADD SLT PUSH2 0x31D JUMPI PUSH1 0x1 SLOAD PUSH1 0x40 MLOAD PUSH1 0x1 PUSH1 0x1 PUSH1 0xA0 SHL SUB SWAP1 SWAP2 AND DUP2 MSTORE PUSH1 0x20 SWAP1 RETURN JUMPDEST PUSH1 0x0 CALLDATASIZE PUSH1 0x3 NOT ADD SLT PUSH2 0x31D JUMPI PUSH2 0x15D0 PUSH2 0x3EA9 JUMP JUMPDEST CALLER PUSH1 0x0 MSTORE PUSH1 0x5 PUSH1 0x20 MSTORE PUSH2 0x15ED PUSH1 0xFF PUSH1 0x40 PUSH1 0x0 KECCAK256 SLOAD PUSH1 0x8 SHR AND PUSH2 0x2F27 JUMP JUMPDEST CALLER PUSH1 0x0 MSTORE PUSH1 0x5 PUSH1 0x20 MSTORE PUSH1 0xFF PUSH1 0x40 PUSH1 0x0 KECCAK256 SLOAD PUSH1 0x50 SHR AND PUSH1 0x4 DUP2 LT ISZERO PUSH2 0x78B JUMPI PUSH2 0x1615 SWAP1 ISZERO PUSH2 0x3497 JUMP JUMPDEST CALLER PUSH1 0x0 MSTORE PUSH1 0x5 PUSH1 0x20 MSTORE PUSH1 0x40 PUSH1 0x0 KECCAK256 PUSH1 0xFF DUP2 SLOAD AND PUSH1 0x1 DUP2 LT ISZERO SWAP1 DUP2 PUSH2 0x1964 JUMPI JUMPDEST POP ISZERO PUSH2 0x191F JUMPI PUSH1 0x0 SWAP1 PUSH2 0x164C PUSH1 0x64 PUSH1 0xFF DUP4 SLOAD AND PUSH2 0x306E JUMP JUMPDEST PUSH1 0x0 NOT NUMBER ADD SWAP1 NUMBER DUP3 GT PUSH2 0xE39 JUMPI PUSH1 0x40 MLOAD SWAP1 PUSH1 0x20 DUP3 ADD SWAP3 TIMESTAMP DUP5 MSTORE PREVRANDAO PUSH1 0x40 DUP5 ADD MSTORE CALLER PUSH1 0x60 SHL PUSH1 0x60 DUP5 ADD MSTORE BLOCKHASH PUSH1 0x74 DUP4 ADD MSTORE PUSH1 0xFF PUSH1 0xF8 SHL SWAP1 PUSH1 0xF8 SHL AND PUSH1 0x94 DUP3 ADD MSTORE PUSH1 0x75 DUP2 MSTORE PUSH2 0x1698 PUSH1 0x95 DUP3 PUSH2 0x2DA8 JUMP JUMPDEST MLOAD SWAP1 KECCAK256 PUSH1 0x3 SLOAD PUSH1 0x40 MLOAD PUSH4 0x20BBA643 PUSH1 0xE2 SHL DUP2 MSTORE PUSH1 0x8 SWAP2 SWAP1 SWAP2 SHR PUSH1 0x1 PUSH1 0x1 PUSH1 0xA0 SHL SUB AND SWAP2 PUSH1 0x20 DUP3 PUSH1 0x4 DUP2 DUP7 GAS STATICCALL SWAP2 DUP3 ISZERO PUSH2 0xE2E JUMPI DUP6 SWAP3 PUSH2 0x18DB JUMPI JUMPDEST POP PUSH1 0x40 MLOAD PUSH4 0x17119229 PUSH1 0xE3 SHL DUP2 MSTORE PUSH1 0x1 PUSH1 0x1 PUSH1 0xA0 SHL SUB SWAP1 SWAP3 AND PUSH1 0x4 DUP4 ADD DUP2 SWAP1 MSTORE SWAP2 PUSH1 0x20 DUP2 PUSH1 0x24 DUP2 DUP8 GAS STATICCALL DUP1 ISZERO PUSH2 0xDDB JUMPI DUP7 SWAP1 PUSH2 0x1892 JUMPI JUMPDEST PUSH1 0x1 PUSH1 0x1 PUSH1 0x80 SHL SUB SWAP2 POP AND DUP1 CALLVALUE LT PUSH2 0xD3D JUMPI PUSH1 0x20 SWAP3 PUSH1 0x44 SWAP2 PUSH1 0x40 MLOAD SWAP6 DUP7 SWAP5 DUP6 SWAP4 PUSH4 0x19CB825F PUSH1 0xE0 SHL DUP6 MSTORE PUSH1 0x4 DUP6 ADD MSTORE PUSH1 0x24 DUP5 ADD MSTORE GAS CALL SWAP1 DUP2 ISZERO PUSH2 0xD32 JUMPI DUP4 SWAP2 PUSH2 0x1849 JUMPI JUMPDEST DUP3 SLOAD PUSH10 0xFFFFFFFFFFFFFFFF0000 NOT AND PUSH1 0x10 DUP4 SWAP1 SHL PUSH10 0xFFFFFFFFFFFFFFFF0000 AND OR DUP4 SSTORE PUSH32 0xCB9F534D41D12F39394586D6A7BBAE75471BD457E6BD88546F4D5AE46E05754E PUSH1 0xA0 DUP5 PUSH1 0x1 PUSH1 0x1 PUSH1 0x40 SHL SUB DUP8 DUP7 PUSH2 0x17A9 PUSH1 0x2 DUP6 PUSH2 0x3546 JUMP JUMPDEST PUSH1 0x40 DUP4 DUP3 AND SWAP3 DUP4 DUP2 MSTORE PUSH1 0x8 PUSH1 0x20 MSTORE DUP2 DUP2 KECCAK256 PUSH1 0x1 DUP1 DUP10 SHL SUB CALLER AND PUSH1 0x1 PUSH1 0x1 PUSH1 0x60 SHL SUB DUP10 SHL DUP3 SLOAD AND OR SWAP1 SSTORE DUP4 DUP2 MSTORE PUSH1 0x9 PUSH1 0x20 MSTORE KECCAK256 PUSH1 0x1 PUSH1 0xFF NOT DUP3 SLOAD AND OR SWAP1 SSTORE POP PUSH1 0xFF DUP1 PUSH1 0x3 DUP6 ADD SLOAD SWAP5 SLOAD AND PUSH1 0x40 MLOAD SWAP5 PUSH2 0x17FF DUP7 PUSH2 0x2D71 JUMP JUMPDEST CALLER DUP7 MSTORE PUSH1 0x20 DUP7 ADD SWAP1 DUP2 MSTORE PUSH1 0x40 DUP7 ADD SWAP2 DUP3 MSTORE PUSH1 0x60 DUP7 ADD SWAP4 DUP5 MSTORE PUSH1 0x40 MLOAD SWAP6 PUSH1 0x1 DUP1 DUP10 SHL SUB SWAP1 MLOAD AND DUP7 MSTORE MLOAD PUSH1 0x20 DUP7 ADD MSTORE MLOAD AND PUSH1 0x40 DUP5 ADD MSTORE MLOAD AND PUSH1 0x60 DUP3 ADD MSTORE PUSH1 0x1 PUSH1 0x80 DUP3 ADD MSTORE LOG1 PUSH1 0x1 PUSH1 0x0 SSTORE STOP JUMPDEST SWAP1 POP PUSH1 0x20 DUP2 RETURNDATASIZE PUSH1 0x20 GT PUSH2 0x188A JUMPI JUMPDEST DUP2 PUSH2 0x1864 PUSH1 0x20 SWAP4 DUP4 PUSH2 0x2DA8 JUMP JUMPDEST DUP2 ADD SUB SLT PUSH2 0xD26 JUMPI MLOAD PUSH1 0x1 PUSH1 0x1 PUSH1 0x40 SHL SUB DUP2 AND DUP2 SUB PUSH2 0xD26 JUMPI PUSH1 0x1 PUSH1 0x1 PUSH1 0x40 SHL SUB PUSH2 0x174D JUMP JUMPDEST RETURNDATASIZE SWAP2 POP PUSH2 0x1857 JUMP JUMPDEST POP PUSH1 0x20 DUP2 RETURNDATASIZE PUSH1 0x20 GT PUSH2 0x18D3 JUMPI JUMPDEST DUP2 PUSH2 0x18AC PUSH1 0x20 SWAP4 DUP4 PUSH2 0x2DA8 JUMP JUMPDEST DUP2 ADD SUB SLT PUSH2 0xDCF JUMPI MLOAD PUSH1 0x1 PUSH1 0x1 PUSH1 0x80 SHL SUB DUP2 AND DUP2 SUB PUSH2 0xDCF JUMPI PUSH1 0x1 PUSH1 0x1 PUSH1 0x80 SHL SUB SWAP1 PUSH2 0x1709 JUMP JUMPDEST RETURNDATASIZE SWAP2 POP PUSH2 0x189F JUMP JUMPDEST SWAP1 SWAP2 POP PUSH1 0x20 DUP2 RETURNDATASIZE PUSH1 0x20 GT PUSH2 0x1917 JUMPI JUMPDEST DUP2 PUSH2 0x18F7 PUSH1 0x20 SWAP4 DUP4 PUSH2 0x2DA8 JUMP JUMPDEST DUP2 ADD SUB SLT PUSH2 0xE22 JUMPI MLOAD PUSH1 0x1 PUSH1 0x1 PUSH1 0xA0 SHL SUB DUP2 AND DUP2 SUB PUSH2 0xE22 JUMPI SWAP1 DUP6 PUSH2 0x16D2 JUMP JUMPDEST RETURNDATASIZE SWAP2 POP PUSH2 0x18EA JUMP JUMPDEST PUSH1 0x40 MLOAD PUSH3 0x461BCD PUSH1 0xE5 SHL DUP2 MSTORE PUSH1 0x20 PUSH1 0x4 DUP3 ADD MSTORE PUSH1 0x1A PUSH1 0x24 DUP3 ADD MSTORE PUSH32 0x43616E6E6F742063617368206F7574206174206C6576656C2030000000000000 PUSH1 0x44 DUP3 ADD MSTORE PUSH1 0x64 SWAP1 REVERT JUMPDEST PUSH1 0xA SWAP2 POP GT ISZERO DUP3 PUSH2 0x1634 JUMP JUMPDEST CALLVALUE PUSH2 0x31D JUMPI PUSH1 0x0 CALLDATASIZE PUSH1 0x3 NOT ADD SLT PUSH2 0x31D JUMPI PUSH2 0x1989 PUSH2 0x356A JUMP JUMPDEST PUSH1 0x1 DUP1 SLOAD PUSH1 0x1 PUSH1 0x1 PUSH1 0xA0 SHL SUB NOT DUP2 AND SWAP1 SWAP2 SSTORE PUSH1 0x0 SWAP1 PUSH1 0x1 PUSH1 0x1 PUSH1 0xA0 SHL SUB AND PUSH32 0x8BE0079C531659141344CD1FD0A4F28419497F9722A3DAAFE3B4186F6B6457E0 DUP3 DUP1 LOG3 STOP JUMPDEST CALLVALUE PUSH2 0x31D JUMPI PUSH1 0x0 CALLDATASIZE PUSH1 0x3 NOT ADD SLT PUSH2 0x31D JUMPI PUSH1 0x20 SELFBALANCE PUSH1 0x40 MLOAD SWAP1 DUP2 MSTORE RETURN JUMPDEST CALLVALUE PUSH2 0x31D JUMPI PUSH1 0x20 CALLDATASIZE PUSH1 0x3 NOT ADD SLT PUSH2 0x31D JUMPI PUSH1 0x80 PUSH2 0x1A04 PUSH2 0x2B80 JUMP JUMPDEST PUSH1 0x1 PUSH1 0xFF DUP3 AND PUSH2 0x1A17 PUSH1 0xA DUP3 GT ISZERO PUSH2 0x2EDF JUMP JUMPDEST PUSH2 0xFFFF PUSH2 0x1A23 DUP5 PUSH2 0x2CEA JUMP JUMPDEST SWAP1 SLOAD SWAP1 PUSH1 0x3 SHL SHR AND SWAP3 PUSH4 0xFFFFFFFF PUSH2 0x1A4C DUP2 PUSH2 0x1A3E DUP5 PUSH2 0x2B34 JUMP JUMPDEST SWAP1 SLOAD SWAP1 PUSH1 0x3 SHL SHR AND SWAP3 PUSH2 0x2B65 JUMP JUMPDEST SWAP1 SLOAD SWAP1 PUSH1 0x3 SHL SHR AND SWAP1 PUSH1 0x40 MLOAD SWAP5 DUP6 MSTORE PUSH1 0x20 DUP6 ADD MSTORE PUSH1 0x40 DUP5 ADD MSTORE LT ISZERO PUSH1 0x60 DUP3 ADD MSTORE RETURN JUMPDEST CALLVALUE PUSH2 0x31D JUMPI PUSH1 0x0 CALLDATASIZE PUSH1 0x3 NOT ADD SLT PUSH2 0x31D JUMPI PUSH1 0x20 PUSH1 0x40 MLOAD PUSH2 0x2710 DUP2 MSTORE RETURN JUMPDEST CALLVALUE PUSH2 0x31D JUMPI PUSH1 0x20 CALLDATASIZE PUSH1 0x3 NOT ADD SLT PUSH2 0x31D JUMPI PUSH1 0x4 CALLDATALOAD DUP1 ISZERO ISZERO DUP1 SWAP2 SUB PUSH2 0x31D JUMPI PUSH1 0x40 PUSH32 0xC9231BA029C34AC08FF14E68398A3C3C01F81A4184650E7A74E4AF659165A204 SWAP2 PUSH2 0x1AD5 PUSH2 0x356A JUMP JUMPDEST PUSH1 0x3 SLOAD SWAP1 PUSH1 0xFF DUP2 AND PUSH1 0xFF NOT DUP4 AND OR PUSH1 0x3 SSTORE PUSH1 0xFF DUP4 MLOAD SWAP3 AND ISZERO ISZERO DUP3 MSTORE PUSH1 0x20 DUP3 ADD MSTORE LOG1 STOP JUMPDEST CALLVALUE PUSH2 0x31D JUMPI PUSH1 0x0 CALLDATASIZE PUSH1 0x3 NOT ADD SLT PUSH2 0x31D JUMPI PUSH1 0x20 PUSH1 0x2 SLOAD PUSH1 0x40 MLOAD SWAP1 DUP2 MSTORE RETURN JUMPDEST CALLVALUE PUSH2 0x31D JUMPI PUSH1 0x0 CALLDATASIZE PUSH1 0x3 NOT ADD SLT PUSH2 0x31D JUMPI PUSH2 0x160 DUP1 PUSH1 0x40 MLOAD PUSH2 0x1B38 DUP3 DUP3 PUSH2 0x2DA8 JUMP JUMPDEST CALLDATASIZE SWAP1 CALLDATACOPY DUP1 PUSH1 0x40 MLOAD PUSH2 0x1B49 DUP3 DUP3 PUSH2 0x2DA8 JUMP JUMPDEST CALLDATASIZE SWAP1 CALLDATACOPY DUP1 PUSH1 0x40 MLOAD PUSH2 0x1B5A DUP3 DUP3 PUSH2 0x2DA8 JUMP JUMPDEST CALLDATASIZE SWAP1 CALLDATACOPY PUSH2 0x1B65 PUSH2 0x334B JUMP JUMPDEST PUSH1 0x40 MLOAD SWAP2 DUP3 PUSH1 0xD SWAP4 PUSH1 0x0 JUMPDEST PUSH1 0xB PUSH1 0x7 DUP3 ADD LT PUSH2 0x1BEC JUMPI POP PUSH2 0x1BDA SWAP3 SWAP2 PUSH2 0x1BCF SWAP2 PUSH1 0x40 PUSH4 0xFFFFFFFF PUSH2 0x460 SWAP9 SLOAD DUP2 DUP2 AND DUP5 MSTORE DUP2 DUP2 PUSH1 0x20 SHR AND PUSH1 0x20 DUP6 ADD MSTORE DUP3 SHR AND SWAP2 ADD MSTORE PUSH2 0x1BB1 DUP4 DUP3 PUSH2 0x2DA8 JUMP JUMPDEST PUSH2 0x1BB9 PUSH2 0x33D5 JUMP JUMPDEST SWAP3 PUSH2 0x1BC7 PUSH1 0x40 MLOAD DUP1 SWAP8 PUSH2 0x2E6D JUMP JUMPDEST DUP6 ADD SWAP1 PUSH2 0x2E99 JUMP JUMPDEST PUSH2 0x2C0 DUP4 ADD SWAP1 PUSH2 0x2E99 JUMP JUMPDEST PUSH1 0x1 PUSH2 0x420 DUP3 ADD MSTORE PUSH1 0xA PUSH2 0x440 DUP3 ADD MSTORE RETURN JUMPDEST SWAP1 PUSH1 0x1 PUSH2 0x100 PUSH1 0x8 SWAP3 DUP9 SLOAD PUSH4 0xFFFFFFFF DUP2 AND DUP3 MSTORE PUSH4 0xFFFFFFFF DUP2 PUSH1 0x20 SHR AND PUSH1 0x20 DUP4 ADD MSTORE PUSH4 0xFFFFFFFF DUP2 PUSH1 0x40 SHR AND PUSH1 0x40 DUP4 ADD MSTORE PUSH4 0xFFFFFFFF DUP2 PUSH1 0x60 SHR AND PUSH1 0x60 DUP4 ADD MSTORE PUSH4 0xFFFFFFFF DUP2 PUSH1 0x80 SHR AND PUSH1 0x80 DUP4 ADD MSTORE PUSH4 0xFFFFFFFF DUP2 PUSH1 0xA0 SHR AND PUSH1 0xA0 DUP4 ADD MSTORE PUSH4 0xFFFFFFFF DUP2 PUSH1 0xC0 SHR AND PUSH1 0xC0 DUP4 ADD MSTORE PUSH1 0xE0 SHR PUSH1 0xE0 DUP3 ADD MSTORE ADD SWAP7 ADD SWAP2 ADD SWAP5 SWAP1 SWAP5 PUSH2 0x1B70 JUMP JUMPDEST CALLVALUE PUSH2 0x31D JUMPI PUSH1 0x0 CALLDATASIZE PUSH1 0x3 NOT ADD SLT PUSH2 0x31D JUMPI PUSH1 0x20 PUSH1 0xB SLOAD PUSH1 0x40 MLOAD SWAP1 DUP2 MSTORE RETURN JUMPDEST CALLVALUE PUSH2 0x31D JUMPI PUSH1 0x60 CALLDATASIZE PUSH1 0x3 NOT ADD SLT PUSH2 0x31D JUMPI PUSH1 0x4 CALLDATALOAD PUSH1 0x1 PUSH1 0x1 PUSH1 0x40 SHL SUB DUP2 AND DUP2 SUB PUSH2 0x31D JUMPI PUSH2 0x1CB9 PUSH2 0x2BB6 JUMP JUMPDEST POP PUSH1 0x3 SLOAD PUSH1 0x8 SHR PUSH1 0x1 PUSH1 0x1 PUSH1 0xA0 SHL SUB AND DUP1 ISZERO PUSH2 0x1D35 JUMPI CALLER SUB PUSH2 0x1CE4 JUMPI PUSH2 0x1CE2 SWAP1 PUSH1 0x44 CALLDATALOAD SWAP1 PUSH2 0x3647 JUMP JUMPDEST STOP JUMPDEST PUSH1 0x40 MLOAD PUSH3 0x461BCD PUSH1 0xE5 SHL DUP2 MSTORE PUSH1 0x20 PUSH1 0x4 DUP3 ADD MSTORE PUSH1 0x23 PUSH1 0x24 DUP3 ADD MSTORE PUSH32 0x4F6E6C7920456E74726F70792063616E2063616C6C20746869732066756E6374 PUSH1 0x44 DUP3 ADD MSTORE PUSH3 0x34B7B7 PUSH1 0xE9 SHL PUSH1 0x64 DUP3 ADD MSTORE PUSH1 0x84 SWAP1 REVERT JUMPDEST PUSH1 0x40 MLOAD PUSH3 0x461BCD PUSH1 0xE5 SHL DUP2 MSTORE PUSH1 0x20 PUSH1 0x4 DUP3 ADD MSTORE PUSH1 0x17 PUSH1 0x24 DUP3 ADD MSTORE PUSH32 0x456E74726F70792061646472657373206E6F7420736574000000000000000000 PUSH1 0x44 DUP3 ADD MSTORE PUSH1 0x64 SWAP1 REVERT JUMPDEST CALLVALUE PUSH2 0x31D JUMPI PUSH1 0x20 CALLDATASIZE PUSH1 0x3 NOT ADD SLT PUSH2 0x31D JUMPI PUSH2 0x1D93 PUSH2 0x2BA0 JUMP JUMPDEST PUSH1 0x0 SWAP1 PUSH1 0x0 SWAP1 DUP2 DUP3 DUP4 SWAP1 DUP5 SWAP4 PUSH1 0x1 DUP1 PUSH1 0xA0 SHL SUB AND DUP6 MSTORE PUSH1 0x7 PUSH1 0x20 MSTORE PUSH1 0x40 DUP6 KECCAK256 SWAP5 PUSH1 0x40 MLOAD SWAP6 DUP7 PUSH1 0x20 DUP3 SLOAD SWAP2 DUP3 DUP2 MSTORE ADD SWAP2 DUP4 MSTORE PUSH1 0x20 DUP4 KECCAK256 SWAP1 DUP4 JUMPDEST DUP2 DUP2 LT PUSH2 0x1F02 JUMPI POP POP POP DUP7 PUSH2 0x1DE1 SWAP2 SUB DUP8 PUSH2 0x2DA8 JUMP JUMPDEST DUP6 MLOAD SWAP6 DUP2 JUMPDEST DUP2 MLOAD DUP2 LT ISZERO PUSH2 0x1EAC JUMPI PUSH2 0x1DF9 DUP2 DUP4 PUSH2 0x3082 JUMP JUMPDEST MLOAD PUSH1 0x0 MSTORE PUSH1 0x6 PUSH1 0x20 MSTORE PUSH2 0x1E1E PUSH2 0x1E12 PUSH1 0x40 PUSH1 0x0 KECCAK256 PUSH2 0x3116 JUMP JUMPDEST SWAP7 PUSH1 0xA0 DUP9 ADD MLOAD SWAP1 PUSH2 0x30A9 JUMP JUMPDEST PUSH1 0x60 DUP8 ADD MLOAD SWAP1 SWAP10 SWAP1 ISZERO PUSH2 0x1E96 JUMPI PUSH2 0x1E34 SWAP1 PUSH2 0x333C JUMP JUMPDEST PUSH2 0x140 DUP8 ADD MLOAD SWAP1 SWAP5 SWAP1 ISZERO PUSH2 0x1E7B JUMPI PUSH1 0x40 PUSH2 0x1E55 PUSH1 0xFF SWAP3 PUSH1 0xC0 DUP11 ADD MLOAD SWAP1 PUSH2 0x30A9 JUMP JUMPDEST SWAP8 JUMPDEST ADD MLOAD AND PUSH1 0xFF DUP9 AND DUP2 GT PUSH2 0x1E72 JUMPI JUMPDEST POP PUSH1 0x1 ADD SWAP8 SWAP5 SWAP3 SWAP8 PUSH2 0x1DE6 JUMP JUMPDEST SWAP7 POP PUSH1 0x1 PUSH2 0x1E65 JUMP JUMPDEST SWAP6 SWAP5 PUSH1 0x40 PUSH2 0x1E90 PUSH1 0xFF SWAP3 PUSH1 0xC0 DUP10 ADD MLOAD SWAP1 PUSH2 0x30A9 JUMP JUMPDEST SWAP7 PUSH2 0x1E57 JUMP JUMPDEST SWAP4 SWAP6 SWAP3 PUSH1 0x40 PUSH2 0x1EA6 PUSH1 0xFF SWAP3 PUSH2 0x333C JUMP JUMPDEST SWAP5 PUSH2 0x1E57 JUMP JUMPDEST POP POP SWAP6 PUSH1 0xFF SWAP5 SWAP4 PUSH2 0x100 SWAP8 DUP2 DUP6 LT ISZERO PUSH1 0x0 EQ PUSH2 0x1EFA JUMPI PUSH2 0x1ECC DUP3 DUP7 PUSH2 0x30B6 JUMP JUMPDEST SWAP3 JUMPDEST PUSH1 0x40 MLOAD SWAP9 DUP10 MSTORE PUSH1 0x20 DUP10 ADD MSTORE PUSH1 0x40 DUP9 ADD MSTORE PUSH1 0x60 DUP8 ADD MSTORE PUSH1 0x80 DUP7 ADD MSTORE PUSH1 0xA0 DUP6 ADD MSTORE PUSH1 0xC0 DUP5 ADD MSTORE AND PUSH1 0xE0 DUP3 ADD MSTORE RETURN JUMPDEST PUSH1 0x0 SWAP3 PUSH2 0x1ECE JUMP JUMPDEST DUP3 SLOAD DUP5 MSTORE PUSH1 0x20 SWAP1 SWAP4 ADD SWAP3 PUSH1 0x1 SWAP3 DUP4 ADD SWAP3 ADD PUSH2 0x1DCB JUMP JUMPDEST CALLVALUE PUSH2 0x31D JUMPI PUSH1 0x20 CALLDATASIZE PUSH1 0x3 NOT ADD SLT PUSH2 0x31D JUMPI PUSH1 0x1 PUSH1 0x1 PUSH1 0xA0 SHL SUB PUSH2 0x1F39 PUSH2 0x2BA0 JUMP JUMPDEST AND PUSH1 0x0 MSTORE PUSH1 0x7 PUSH1 0x20 MSTORE PUSH1 0x40 PUSH1 0x0 KECCAK256 PUSH1 0x40 MLOAD DUP1 PUSH1 0x20 DUP4 SLOAD SWAP2 DUP3 DUP2 MSTORE ADD SWAP1 DUP2 SWAP4 PUSH1 0x0 MSTORE PUSH1 0x20 PUSH1 0x0 KECCAK256 SWAP1 PUSH1 0x0 JUMPDEST DUP2 DUP2 LT PUSH2 0x1FBC JUMPI POP POP POP DUP2 PUSH2 0x1F79 SWAP2 SUB DUP3 PUSH2 0x2DA8 JUMP JUMPDEST PUSH1 0x40 MLOAD SWAP2 DUP3 SWAP2 PUSH1 0x20 DUP4 ADD SWAP1 PUSH1 0x20 DUP5 MSTORE MLOAD DUP1 SWAP2 MSTORE PUSH1 0x40 DUP4 ADD SWAP2 SWAP1 PUSH1 0x0 JUMPDEST DUP2 DUP2 LT PUSH2 0x1FA3 JUMPI POP POP POP SUB SWAP1 RETURN JUMPDEST DUP3 MLOAD DUP5 MSTORE DUP6 SWAP5 POP PUSH1 0x20 SWAP4 DUP5 ADD SWAP4 SWAP1 SWAP3 ADD SWAP2 PUSH1 0x1 ADD PUSH2 0x1F95 JUMP JUMPDEST DUP3 SLOAD DUP5 MSTORE PUSH1 0x20 SWAP1 SWAP4 ADD SWAP3 PUSH1 0x1 SWAP3 DUP4 ADD SWAP3 ADD PUSH2 0x1F63 JUMP JUMPDEST CALLVALUE PUSH2 0x31D JUMPI PUSH1 0x20 CALLDATASIZE PUSH1 0x3 NOT ADD SLT PUSH2 0x31D JUMPI PUSH1 0x4 CALLDATALOAD PUSH1 0x0 MSTORE PUSH1 0x6 PUSH1 0x20 MSTORE PUSH1 0x40 PUSH1 0x0 KECCAK256 DUP1 SLOAD PUSH1 0x1 DUP3 ADD SLOAD SWAP2 PUSH2 0x2090 PUSH1 0x2 DUP3 ADD SLOAD SWAP2 PUSH1 0x3 DUP2 ADD SLOAD PUSH1 0x4 DUP3 ADD SLOAD PUSH1 0x5 DUP4 ADD SLOAD SWAP2 PUSH1 0xFF PUSH1 0x7 PUSH2 0x2024 PUSH1 0x6 DUP8 ADD PUSH2 0x2DC9 JUMP JUMPDEST SWAP6 ADD SLOAD AND SWAP6 PUSH4 0xFFFFFFFF PUSH1 0x40 MLOAD SWAP10 DUP11 SWAP10 DUP11 MSTORE PUSH1 0x1 DUP1 PUSH1 0xA0 SHL SUB DUP2 AND PUSH1 0x20 DUP12 ADD MSTORE PUSH1 0xFF DUP2 PUSH1 0xA0 SHR AND PUSH1 0x40 DUP12 ADD MSTORE PUSH1 0xFF DUP2 PUSH1 0xA8 SHR AND ISZERO ISZERO PUSH1 0x60 DUP12 ADD MSTORE PUSH1 0xB0 SHR AND PUSH1 0x80 DUP10 ADD MSTORE PUSH1 0xA0 DUP9 ADD MSTORE PUSH1 0xC0 DUP8 ADD MSTORE PUSH1 0xE0 DUP7 ADD MSTORE PUSH2 0x100 DUP6 ADD MSTORE PUSH2 0x160 PUSH2 0x120 DUP6 ADD MSTORE PUSH2 0x160 DUP5 ADD SWAP1 PUSH2 0x2C06 JUMP JUMPDEST SWAP1 ISZERO ISZERO PUSH2 0x140 DUP4 ADD MSTORE SUB SWAP1 RETURN JUMPDEST CALLVALUE PUSH2 0x31D JUMPI PUSH1 0x20 CALLDATASIZE PUSH1 0x3 NOT ADD SLT PUSH2 0x31D JUMPI PUSH1 0x20 PUSH2 0x20BB PUSH2 0x4A7 PUSH2 0x2B80 JUMP JUMPDEST PUSH1 0x40 MLOAD SWAP1 DUP2 MSTORE RETURN JUMPDEST CALLVALUE PUSH2 0x31D JUMPI PUSH1 0x20 CALLDATASIZE PUSH1 0x3 NOT ADD SLT PUSH2 0x31D JUMPI PUSH1 0x4 CALLDATALOAD PUSH1 0xB DUP2 LT ISZERO PUSH2 0x31D JUMPI PUSH2 0xFFFF PUSH2 0xF1E PUSH1 0x20 SWAP3 PUSH2 0x2CEA JUMP JUMPDEST CALLVALUE PUSH2 0x31D JUMPI PUSH1 0x20 CALLDATASIZE PUSH1 0x3 NOT ADD SLT PUSH2 0x31D JUMPI PUSH1 0x1 PUSH1 0x1 PUSH1 0xA0 SHL SUB PUSH2 0x210F PUSH2 0x2BA0 JUMP JUMPDEST AND PUSH1 0x0 MSTORE PUSH1 0x5 PUSH1 0x20 MSTORE PUSH2 0x100 PUSH1 0x40 PUSH1 0x0 KECCAK256 DUP1 SLOAD SWAP1 PUSH1 0x1 DUP2 ADD SLOAD SWAP1 PUSH1 0x2 DUP2 ADD SLOAD PUSH1 0xFF PUSH1 0x4 PUSH1 0x3 DUP5 ADD SLOAD SWAP4 ADD SLOAD AND SWAP3 PUSH2 0x2179 PUSH1 0x40 MLOAD SWAP6 PUSH1 0xFF DUP2 AND DUP8 MSTORE PUSH1 0xFF DUP2 PUSH1 0x8 SHR AND ISZERO ISZERO PUSH1 0x20 DUP9 ADD MSTORE PUSH1 0x1 PUSH1 0x1 PUSH1 0x40 SHL SUB DUP2 PUSH1 0x10 SHR AND PUSH1 0x40 DUP9 ADD MSTORE PUSH1 0xFF PUSH1 0x60 DUP9 ADD SWAP2 PUSH1 0x50 SHR AND PUSH2 0x2CDD JUMP JUMPDEST PUSH1 0x80 DUP6 ADD MSTORE PUSH1 0xA0 DUP5 ADD MSTORE PUSH1 0xC0 DUP4 ADD MSTORE PUSH1 0xE0 DUP3 ADD MSTORE RETURN JUMPDEST CALLVALUE PUSH2 0x31D JUMPI PUSH1 0x20 CALLDATASIZE PUSH1 0x3 NOT ADD SLT PUSH2 0x31D JUMPI PUSH1 0x1 PUSH1 0x1 PUSH1 0xA0 SHL SUB PUSH2 0x21B0 PUSH2 0x2BA0 JUMP JUMPDEST AND PUSH1 0x0 MSTORE PUSH1 0x5 PUSH1 0x20 MSTORE PUSH1 0x40 PUSH1 0x0 KECCAK256 PUSH1 0x40 MLOAD SWAP1 PUSH2 0x21CB DUP3 PUSH2 0x2D3F JUMP JUMPDEST DUP1 SLOAD SWAP1 PUSH1 0xFF DUP3 AND DUP4 MSTORE PUSH1 0xFF PUSH1 0x4 PUSH1 0x20 DUP6 ADD SWAP3 DUP3 DUP6 PUSH1 0x8 SHR AND ISZERO ISZERO DUP5 MSTORE PUSH1 0x1 PUSH1 0x1 PUSH1 0x40 SHL SUB DUP6 PUSH1 0x10 SHR AND PUSH1 0x40 DUP8 ADD MSTORE PUSH2 0x220C DUP4 PUSH1 0x60 DUP9 ADD SWAP7 PUSH1 0x50 SHR AND DUP7 PUSH2 0x2F1B JUMP JUMPDEST PUSH1 0x1 DUP2 ADD SLOAD PUSH1 0x80 DUP8 ADD MSTORE PUSH1 0x2 DUP2 ADD SLOAD PUSH1 0xA0 DUP8 ADD MSTORE PUSH1 0x3 DUP2 ADD SLOAD PUSH1 0xC0 DUP8 ADD MSTORE ADD SLOAD AND PUSH1 0xE0 DUP5 ADD MSTORE MLOAD ISZERO ISZERO SWAP1 DUP2 PUSH2 0x2262 JUMPI JUMPDEST POP PUSH1 0x20 SWAP2 DUP2 PUSH2 0x2251 JUMPI JUMPDEST POP PUSH1 0x40 MLOAD SWAP1 ISZERO ISZERO DUP2 MSTORE RETURN JUMPDEST PUSH1 0x1 SWAP2 POP PUSH1 0xFF SWAP1 MLOAD AND LT ISZERO DUP3 PUSH2 0x2246 JUMP JUMPDEST SWAP1 POP MLOAD SWAP1 PUSH1 0x4 DUP3 LT ISZERO PUSH2 0x78B JUMPI SWAP1 ISZERO PUSH1 0x20 PUSH2 0x223C JUMP JUMPDEST CALLVALUE PUSH2 0x31D JUMPI PUSH1 0x60 CALLDATASIZE PUSH1 0x3 NOT ADD SLT PUSH2 0x31D JUMPI PUSH2 0x2291 PUSH2 0x2BA0 JUMP JUMPDEST PUSH2 0x2299 PUSH2 0x2B90 JUMP JUMPDEST SWAP1 PUSH1 0x44 CALLDATALOAD DUP1 ISZERO ISZERO DUP2 SUB PUSH2 0x31D JUMPI DUP3 PUSH2 0x20BB SWAP3 PUSH2 0x22BD PUSH1 0xA PUSH1 0xFF PUSH1 0x20 SWAP8 AND GT ISZERO PUSH2 0x2EDF JUMP JUMPDEST PUSH2 0x31ED JUMP JUMPDEST CALLVALUE PUSH2 0x31D JUMPI PUSH1 0x20 CALLDATASIZE PUSH1 0x3 NOT ADD SLT PUSH2 0x31D JUMPI PUSH1 0x20 PUSH2 0xFFFF PUSH2 0xF1E PUSH2 0x22E3 PUSH2 0x2B80 JUMP JUMPDEST PUSH2 0xF19 PUSH1 0xA PUSH1 0xFF DUP4 AND GT ISZERO PUSH2 0x2EDF JUMP JUMPDEST CALLVALUE PUSH2 0x31D JUMPI PUSH1 0x20 CALLDATASIZE PUSH1 0x3 NOT ADD SLT PUSH2 0x31D JUMPI PUSH1 0x4 CALLDATALOAD PUSH2 0x230F PUSH2 0x356A JUMP JUMPDEST DUP1 SELFBALANCE LT PUSH2 0x2376 JUMPI PUSH1 0x1 SLOAD PUSH1 0x0 SWAP2 DUP3 SWAP2 DUP3 SWAP2 DUP3 SWAP2 PUSH1 0x1 PUSH1 0x1 PUSH1 0xA0 SHL SUB AND GAS CALL PUSH2 0x2335 PUSH2 0x31AE JUMP JUMPDEST POP ISZERO PUSH2 0x233D JUMPI STOP JUMPDEST PUSH1 0x40 MLOAD PUSH3 0x461BCD PUSH1 0xE5 SHL DUP2 MSTORE PUSH1 0x20 PUSH1 0x4 DUP3 ADD MSTORE PUSH1 0x11 PUSH1 0x24 DUP3 ADD MSTORE PUSH17 0x15DA5D1A191C985DD85B0819985A5B1959 PUSH1 0x7A SHL PUSH1 0x44 DUP3 ADD MSTORE PUSH1 0x64 SWAP1 REVERT JUMPDEST PUSH1 0x40 MLOAD PUSH3 0x461BCD PUSH1 0xE5 SHL DUP2 MSTORE PUSH1 0x20 PUSH1 0x4 DUP3 ADD MSTORE PUSH1 0x14 PUSH1 0x24 DUP3 ADD MSTORE PUSH20 0x496E73756666696369656E742062616C616E6365 PUSH1 0x60 SHL PUSH1 0x44 DUP3 ADD MSTORE PUSH1 0x64 SWAP1 REVERT JUMPDEST CALLVALUE PUSH2 0x31D JUMPI PUSH1 0x20 CALLDATASIZE PUSH1 0x3 NOT ADD SLT PUSH2 0x31D JUMPI PUSH1 0x4 CALLDATALOAD PUSH1 0xB DUP2 LT ISZERO PUSH2 0x31D JUMPI PUSH4 0xFFFFFFFF PUSH2 0xF1E PUSH1 0x20 SWAP3 PUSH2 0x2B65 JUMP JUMPDEST CALLVALUE PUSH2 0x31D JUMPI PUSH1 0x0 CALLDATASIZE PUSH1 0x3 NOT ADD SLT PUSH2 0x31D JUMPI PUSH1 0x4 SLOAD PUSH1 0x40 MLOAD PUSH1 0x1 PUSH1 0x1 PUSH1 0xA0 SHL SUB SWAP1 SWAP2 AND DUP2 MSTORE PUSH1 0x20 SWAP1 RETURN JUMPDEST CALLVALUE PUSH2 0x31D JUMPI PUSH1 0x60 CALLDATASIZE PUSH1 0x3 NOT ADD SLT PUSH2 0x31D JUMPI PUSH2 0x2421 PUSH2 0x2BA0 JUMP JUMPDEST PUSH1 0x24 CALLDATALOAD SWAP1 PUSH1 0x1 DUP1 PUSH1 0xA0 SHL SUB AND PUSH1 0x0 MSTORE PUSH1 0x7 PUSH1 0x20 MSTORE PUSH1 0x40 PUSH1 0x0 KECCAK256 SWAP1 PUSH1 0x40 MLOAD DUP1 DUP4 PUSH1 0x20 DUP3 SWAP6 SLOAD SWAP4 DUP5 DUP2 MSTORE ADD SWAP1 PUSH1 0x0 MSTORE PUSH1 0x20 PUSH1 0x0 KECCAK256 SWAP3 PUSH1 0x0 JUMPDEST DUP2 DUP2 LT PUSH2 0x25E0 JUMPI POP POP PUSH2 0x246C SWAP3 POP SUB DUP4 PUSH2 0x2DA8 JUMP JUMPDEST DUP2 MLOAD DUP2 LT ISZERO PUSH2 0x25A4 JUMPI PUSH2 0x2481 PUSH1 0x44 CALLDATALOAD DUP3 PUSH2 0x30A9 JUMP JUMPDEST SWAP1 DUP3 MLOAD DUP1 DUP4 GT PUSH2 0x259C JUMPI JUMPDEST POP PUSH2 0x2497 DUP2 DUP4 PUSH2 0x30B6 JUMP JUMPDEST SWAP3 PUSH2 0x24A1 DUP5 PUSH2 0x3013 JUMP JUMPDEST SWAP4 PUSH2 0x24AF PUSH1 0x40 MLOAD SWAP6 DUP7 PUSH2 0x2DA8 JUMP JUMPDEST DUP1 DUP6 MSTORE PUSH2 0x24BE PUSH1 0x1F NOT SWAP2 PUSH2 0x3013 JUMP JUMPDEST ADD PUSH1 0x0 JUMPDEST DUP2 DUP2 LT PUSH2 0x2585 JUMPI POP POP DUP2 JUMPDEST DUP4 DUP2 LT PUSH2 0x253C JUMPI DUP5 PUSH1 0x40 MLOAD DUP1 SWAP2 PUSH1 0x20 DUP3 ADD PUSH1 0x20 DUP4 MSTORE DUP2 MLOAD DUP1 SWAP2 MSTORE PUSH1 0x40 DUP4 ADD SWAP1 PUSH1 0x20 PUSH1 0x40 DUP3 PUSH1 0x5 SHL DUP7 ADD ADD SWAP4 ADD SWAP2 PUSH1 0x0 SWAP1 JUMPDEST DUP3 DUP3 LT PUSH2 0x250D JUMPI POP POP POP POP SUB SWAP1 RETURN JUMPDEST SWAP2 SWAP4 PUSH1 0x1 SWAP2 SWAP4 SWAP6 POP PUSH1 0x20 PUSH2 0x252C DUP2 SWAP3 PUSH1 0x3F NOT DUP11 DUP3 SUB ADD DUP7 MSTORE DUP9 MLOAD PUSH2 0x2C47 JUMP JUMPDEST SWAP7 ADD SWAP3 ADD SWAP3 ADD DUP6 SWAP5 SWAP4 SWAP2 SWAP3 PUSH2 0x24FE JUMP JUMPDEST DUP1 PUSH2 0x2549 PUSH1 0x1 SWAP3 DUP5 PUSH2 0x3082 JUMP JUMPDEST MLOAD PUSH1 0x0 MSTORE PUSH1 0x6 PUSH1 0x20 MSTORE PUSH2 0x257E PUSH1 0x40 PUSH1 0x0 KECCAK256 PUSH2 0x256D PUSH2 0x2567 DUP8 DUP6 PUSH2 0x30B6 JUMP JUMPDEST SWAP2 PUSH2 0x3116 JUMP JUMPDEST PUSH2 0x2577 DUP3 DUP11 PUSH2 0x3082 JUMP JUMPDEST MSTORE DUP8 PUSH2 0x3082 JUMP JUMPDEST POP ADD PUSH2 0x24CD JUMP JUMPDEST PUSH1 0x20 SWAP1 PUSH2 0x2590 PUSH2 0x30C3 JUMP JUMPDEST DUP3 DUP3 DUP10 ADD ADD MSTORE ADD PUSH2 0x24C2 JUMP JUMPDEST SWAP2 POP DUP4 PUSH2 0x248C JUMP JUMPDEST PUSH1 0x40 MLOAD PUSH3 0x461BCD PUSH1 0xE5 SHL DUP2 MSTORE PUSH1 0x20 PUSH1 0x4 DUP3 ADD MSTORE PUSH1 0x14 PUSH1 0x24 DUP3 ADD MSTORE PUSH20 0x4F6666736574206F7574206F6620626F756E6473 PUSH1 0x60 SHL PUSH1 0x44 DUP3 ADD MSTORE PUSH1 0x64 SWAP1 REVERT JUMPDEST DUP5 SLOAD DUP4 MSTORE PUSH1 0x1 SWAP5 DUP6 ADD SWAP5 DUP8 SWAP5 POP PUSH1 0x20 SWAP1 SWAP4 ADD SWAP3 ADD PUSH2 0x2457 JUMP JUMPDEST CALLVALUE PUSH2 0x31D JUMPI PUSH1 0x0 CALLDATASIZE PUSH1 0x3 NOT ADD SLT PUSH2 0x31D JUMPI PUSH1 0x20 PUSH1 0x40 MLOAD PUSH1 0x1 DUP2 MSTORE RETURN JUMPDEST CALLVALUE PUSH2 0x31D JUMPI PUSH1 0x20 CALLDATASIZE PUSH1 0x3 NOT ADD SLT PUSH2 0x31D JUMPI PUSH1 0x20 PUSH1 0x1 PUSH1 0x4 CALLDATALOAD AND ISZERO PUSH1 0x40 MLOAD SWAP1 DUP2 MSTORE RETURN JUMPDEST CALLVALUE PUSH2 0x31D JUMPI PUSH1 0x40 CALLDATASIZE PUSH1 0x3 NOT ADD SLT PUSH2 0x31D JUMPI PUSH2 0x2650 PUSH2 0x2BA0 JUMP JUMPDEST PUSH2 0x2658 PUSH2 0x2B90 JUMP JUMPDEST SWAP1 PUSH1 0x1 DUP1 PUSH1 0xA0 SHL SUB AND PUSH1 0x0 MSTORE PUSH1 0x5 PUSH1 0x20 MSTORE PUSH1 0x40 PUSH1 0x0 KECCAK256 SWAP1 PUSH1 0x40 MLOAD SWAP1 PUSH2 0x267C DUP3 PUSH2 0x2D3F JUMP JUMPDEST DUP3 SLOAD SWAP3 PUSH1 0xFF DUP5 AND DUP4 MSTORE PUSH1 0xFF PUSH1 0x4 PUSH1 0x20 DUP6 ADD SWAP3 DUP3 DUP8 PUSH1 0x8 SHR AND ISZERO ISZERO DUP5 MSTORE PUSH1 0x1 PUSH1 0x1 PUSH1 0x40 SHL SUB DUP8 PUSH1 0x10 SHR AND PUSH1 0x40 DUP8 ADD MSTORE PUSH2 0x26BD DUP4 PUSH1 0x60 DUP9 ADD SWAP9 PUSH1 0x50 SHR AND DUP9 PUSH2 0x2F1B JUMP JUMPDEST PUSH1 0x1 DUP2 ADD SLOAD PUSH1 0x80 DUP8 ADD MSTORE PUSH1 0x2 DUP2 ADD SLOAD PUSH1 0xA0 DUP8 ADD MSTORE PUSH1 0x3 DUP2 ADD SLOAD PUSH1 0xC0 DUP8 ADD MSTORE ADD SLOAD AND PUSH1 0xE0 DUP5 ADD MSTORE MLOAD ISZERO ISZERO SWAP2 DUP3 PUSH2 0x272A JUMPI JUMPDEST PUSH1 0x20 SWAP4 POP DUP3 PUSH2 0x2717 JUMPI JUMPDEST POP DUP2 PUSH2 0x2708 JUMPI POP PUSH1 0x40 MLOAD SWAP1 ISZERO ISZERO DUP2 MSTORE RETURN JUMPDEST PUSH1 0xA SWAP2 POP PUSH1 0xFF AND GT ISZERO DUP3 PUSH2 0x2246 JUMP JUMPDEST PUSH1 0xFF SWAP2 SWAP3 POP MLOAD AND PUSH1 0xFF DUP3 AND GT SWAP1 DUP4 PUSH2 0x26F7 JUMP JUMPDEST SWAP2 POP SWAP2 MLOAD SWAP2 PUSH1 0x4 DUP4 LT ISZERO PUSH2 0x78B JUMPI PUSH1 0x20 SWAP3 ISZERO SWAP2 PUSH2 0x26ED JUMP JUMPDEST CALLVALUE PUSH2 0x31D JUMPI PUSH1 0x20 CALLDATASIZE PUSH1 0x3 NOT ADD SLT PUSH2 0x31D JUMPI PUSH1 0x1 PUSH1 0x1 PUSH1 0xA0 SHL SUB PUSH2 0x2763 PUSH2 0x2BA0 JUMP JUMPDEST AND PUSH1 0x0 MSTORE PUSH1 0x5 PUSH1 0x20 MSTORE PUSH1 0x40 PUSH1 0x0 KECCAK256 PUSH1 0x40 MLOAD SWAP1 PUSH2 0x277E DUP3 PUSH2 0x2D3F JUMP JUMPDEST DUP1 SLOAD SWAP1 PUSH1 0xFF DUP3 AND DUP4 MSTORE PUSH1 0xFF PUSH1 0x4 PUSH1 0x20 DUP6 ADD SWAP3 DUP3 DUP6 PUSH1 0x8 SHR AND ISZERO ISZERO DUP5 MSTORE PUSH1 0x1 PUSH1 0x1 PUSH1 0x40 SHL SUB DUP6 PUSH1 0x10 SHR AND PUSH1 0x40 DUP8 ADD MSTORE PUSH2 0x27BF DUP4 PUSH1 0x60 DUP9 ADD SWAP7 PUSH1 0x50 SHR AND DUP7 PUSH2 0x2F1B JUMP JUMPDEST PUSH1 0x1 DUP2 ADD SLOAD PUSH1 0x80 DUP8 ADD MSTORE PUSH1 0x2 DUP2 ADD SLOAD PUSH1 0xA0 DUP8 ADD MSTORE PUSH1 0x3 DUP2 ADD SLOAD PUSH1 0xC0 DUP8 ADD MSTORE ADD SLOAD AND PUSH1 0xE0 DUP5 ADD MSTORE MLOAD ISZERO ISZERO SWAP1 DUP2 PUSH2 0x2813 JUMPI JUMPDEST POP PUSH1 0x20 SWAP2 DUP2 PUSH2 0x2803 JUMPI POP PUSH1 0x40 MLOAD SWAP1 ISZERO ISZERO DUP2 MSTORE RETURN JUMPDEST PUSH1 0xA SWAP2 POP PUSH1 0xFF SWAP1 MLOAD AND LT DUP3 PUSH2 0x2246 JUMP JUMPDEST SWAP1 POP MLOAD SWAP1 PUSH1 0x4 DUP3 LT ISZERO PUSH2 0x78B JUMPI SWAP1 ISZERO PUSH1 0x20 PUSH2 0x27EF JUMP JUMPDEST CALLVALUE PUSH2 0x31D JUMPI PUSH1 0x40 CALLDATASIZE PUSH1 0x3 NOT ADD SLT PUSH2 0x31D JUMPI PUSH2 0x2842 PUSH2 0x2BA0 JUMP JUMPDEST PUSH2 0x284A PUSH2 0x2B90 JUMP JUMPDEST SWAP1 PUSH1 0x1 DUP1 PUSH1 0xA0 SHL SUB AND PUSH1 0x0 MSTORE PUSH1 0x5 PUSH1 0x20 MSTORE PUSH1 0x40 PUSH1 0x0 KECCAK256 SWAP1 PUSH2 0x28DD PUSH1 0x40 MLOAD SWAP3 PUSH2 0x2871 DUP5 PUSH2 0x2D3F JUMP JUMPDEST PUSH1 0xFF PUSH1 0x4 DUP3 SLOAD SWAP3 DUP3 DUP5 AND DUP8 MSTORE PUSH2 0x28AF DUP4 PUSH1 0x20 DUP10 ADD SWAP6 DUP2 DUP2 PUSH1 0x8 SHR AND ISZERO ISZERO DUP8 MSTORE PUSH1 0x1 PUSH1 0x1 PUSH1 0x40 SHL SUB DUP2 PUSH1 0x10 SHR AND PUSH1 0x40 DUP12 ADD MSTORE PUSH1 0x50 SHR AND PUSH1 0x60 DUP10 ADD PUSH2 0x2F1B JUMP JUMPDEST PUSH1 0x1 DUP2 ADD SLOAD PUSH1 0x80 DUP9 ADD MSTORE PUSH1 0x2 DUP2 ADD SLOAD PUSH1 0xA0 DUP9 ADD MSTORE PUSH1 0x3 DUP2 ADD SLOAD PUSH1 0xC0 DUP9 ADD MSTORE ADD SLOAD AND PUSH1 0xE0 DUP6 ADD MSTORE MLOAD ISZERO ISZERO PUSH2 0x2F27 JUMP JUMPDEST PUSH2 0x28F0 PUSH1 0xFF DUP1 DUP5 MLOAD AND SWAP3 AND SWAP2 DUP3 GT PUSH2 0x2F64 JUMP JUMPDEST PUSH2 0x28FD PUSH1 0xA DUP3 GT ISZERO PUSH2 0x2FC7 JUMP JUMPDEST PUSH1 0xFF DUP3 MLOAD AND SWAP1 SUB PUSH1 0xFF DUP2 GT PUSH2 0x157D JUMPI PUSH1 0xFF AND SWAP1 PUSH2 0x2919 DUP3 PUSH2 0x3013 JUMP JUMPDEST SWAP2 PUSH2 0x2927 PUSH1 0x40 MLOAD SWAP4 DUP5 PUSH2 0x2DA8 JUMP JUMPDEST DUP1 DUP4 MSTORE PUSH2 0x2933 DUP2 PUSH2 0x3013 JUMP JUMPDEST PUSH1 0x20 DUP5 ADD SWAP3 SWAP1 PUSH1 0x1F NOT ADD CALLDATASIZE DUP5 CALLDATACOPY PUSH2 0x2949 DUP3 PUSH2 0x3013 JUMP JUMPDEST SWAP2 PUSH2 0x2957 PUSH1 0x40 MLOAD SWAP4 DUP5 PUSH2 0x2DA8 JUMP JUMPDEST DUP1 DUP4 MSTORE PUSH2 0x2963 DUP2 PUSH2 0x3013 JUMP JUMPDEST PUSH1 0x20 DUP5 ADD SWAP4 SWAP1 PUSH1 0x1F NOT ADD CALLDATASIZE DUP6 CALLDATACOPY PUSH2 0x2979 DUP3 PUSH2 0x302A JUMP JUMPDEST SWAP1 PUSH2 0x2983 DUP4 PUSH2 0x302A JUMP JUMPDEST SWAP4 PUSH2 0x2710 SWAP6 PUSH1 0x0 SWAP7 JUMPDEST PUSH1 0xFF DUP9 AND DUP7 DUP2 LT ISZERO PUSH2 0x2A27 JUMPI PUSH2 0x2710 PUSH2 0x2A1D PUSH1 0xFF SWAP4 PUSH2 0xFFFF PUSH2 0x155A DUP16 DUP14 DUP16 DUP9 DUP15 DUP15 PUSH2 0x29D4 DUP16 SWAP13 PUSH2 0x29CE DUP16 SWAP7 PUSH1 0x1 SWAP16 PUSH2 0x2A17 SWAP9 PUSH2 0x29C9 SWAP2 MLOAD AND PUSH2 0x305C JUMP JUMPDEST PUSH2 0x306E JUMP JUMPDEST SWAP8 PUSH2 0x3082 JUMP JUMPDEST DUP14 DUP8 AND SWAP1 MSTORE PUSH2 0x29F5 DUP4 DUP10 PUSH2 0x29E7 DUP10 PUSH2 0x2CEA JUMP JUMPDEST SWAP1 SLOAD SWAP1 PUSH1 0x3 SHL SHR AND SWAP3 PUSH2 0x3082 JUMP JUMPDEST MSTORE PUSH2 0x2A08 DUP3 PUSH4 0xFFFFFFFF PUSH2 0x29E7 DUP9 PUSH2 0x2B34 JUMP JUMPDEST MSTORE PUSH4 0xFFFFFFFF PUSH2 0x29E7 DUP6 PUSH2 0x2B65 JUMP JUMPDEST MSTORE PUSH2 0x2CEA JUMP JUMPDEST DIV SWAP9 ADD AND SWAP7 PUSH2 0x298C JUMP JUMPDEST POP DUP10 SWAP1 DUP8 DUP7 DUP12 DUP8 PUSH1 0x40 MLOAD SWAP6 PUSH1 0xA0 DUP8 ADD SWAP1 PUSH1 0xA0 DUP9 MSTORE MLOAD DUP1 SWAP2 MSTORE PUSH1 0xC0 DUP8 ADD SWAP3 SWAP1 PUSH1 0x0 JUMPDEST DUP2 DUP2 LT PUSH2 0x2ABA JUMPI POP POP POP PUSH1 0x20 SWAP1 DUP7 DUP4 SUB DUP3 DUP9 ADD MSTORE MLOAD SWAP2 DUP3 DUP2 MSTORE ADD SWAP6 SWAP1 PUSH1 0x0 JUMPDEST DUP2 DUP2 LT PUSH2 0x2AA0 JUMPI POP POP POP SWAP1 PUSH2 0x2A88 DUP6 PUSH2 0x2A96 SWAP4 DUP7 DUP1 SWAP9 SUB PUSH1 0x40 DUP9 ADD MSTORE PUSH2 0x2BCC JUMP JUMPDEST SWAP1 DUP5 DUP3 SUB PUSH1 0x60 DUP7 ADD MSTORE PUSH2 0x2BCC JUMP JUMPDEST SWAP1 PUSH1 0x80 DUP4 ADD MSTORE SUB SWAP1 RETURN JUMPDEST DUP3 MLOAD PUSH2 0xFFFF AND DUP9 MSTORE PUSH1 0x20 SWAP8 DUP9 ADD SWAP8 SWAP1 SWAP3 ADD SWAP2 PUSH1 0x1 ADD PUSH2 0x2A67 JUMP JUMPDEST DUP3 MLOAD PUSH1 0xFF AND DUP6 MSTORE PUSH1 0x20 SWAP5 DUP6 ADD SWAP5 SWAP1 SWAP3 ADD SWAP2 PUSH1 0x1 ADD PUSH2 0x2A48 JUMP JUMPDEST CALLVALUE PUSH2 0x31D JUMPI PUSH1 0x20 CALLDATASIZE PUSH1 0x3 NOT ADD SLT PUSH2 0x31D JUMPI PUSH1 0x20 PUSH4 0xFFFFFFFF PUSH2 0xF1E PUSH2 0x2AF6 PUSH2 0x2B80 JUMP JUMPDEST PUSH2 0x2B06 PUSH1 0xA PUSH1 0xFF DUP4 AND GT ISZERO PUSH2 0x2EDF JUMP JUMPDEST PUSH2 0x2B34 JUMP JUMPDEST CALLVALUE PUSH2 0x31D JUMPI PUSH1 0x20 CALLDATASIZE PUSH1 0x3 NOT ADD SLT PUSH2 0x31D JUMPI PUSH1 0x4 CALLDATALOAD PUSH1 0xB DUP2 LT ISZERO PUSH2 0x31D JUMPI PUSH4 0xFFFFFFFF PUSH2 0xF1E PUSH1 0x20 SWAP3 JUMPDEST SWAP1 PUSH1 0xB DUP3 LT ISZERO PUSH2 0x2B4F JUMPI PUSH1 0x1C DUP3 PUSH1 0x3 SHR PUSH1 0xD ADD SWAP3 PUSH1 0x2 SHL AND SWAP1 JUMP JUMPDEST PUSH4 0x4E487B71 PUSH1 0xE0 SHL PUSH1 0x0 MSTORE PUSH1 0x32 PUSH1 0x4 MSTORE PUSH1 0x24 PUSH1 0x0 REVERT JUMPDEST SWAP1 PUSH1 0xB DUP3 LT ISZERO PUSH2 0x2B4F JUMPI PUSH1 0x1C DUP3 PUSH1 0x3 SHR PUSH1 0xF ADD SWAP3 PUSH1 0x2 SHL AND SWAP1 JUMP JUMPDEST PUSH1 0x4 CALLDATALOAD SWAP1 PUSH1 0xFF DUP3 AND DUP3 SUB PUSH2 0x31D JUMPI JUMP JUMPDEST PUSH1 0x24 CALLDATALOAD SWAP1 PUSH1 0xFF DUP3 AND DUP3 SUB PUSH2 0x31D JUMPI JUMP JUMPDEST PUSH1 0x4 CALLDATALOAD SWAP1 PUSH1 0x1 PUSH1 0x1 PUSH1 0xA0 SHL SUB DUP3 AND DUP3 SUB PUSH2 0x31D JUMPI JUMP JUMPDEST PUSH1 0x24 CALLDATALOAD SWAP1 PUSH1 0x1 PUSH1 0x1 PUSH1 0xA0 SHL SUB DUP3 AND DUP3 SUB PUSH2 0x31D JUMPI JUMP JUMPDEST SWAP1 PUSH1 0x20 DUP1 DUP4 MLOAD SWAP3 DUP4 DUP2 MSTORE ADD SWAP3 ADD SWAP1 PUSH1 0x0 JUMPDEST DUP2 DUP2 LT PUSH2 0x2BEA JUMPI POP POP POP SWAP1 JUMP JUMPDEST DUP3 MLOAD PUSH4 0xFFFFFFFF AND DUP5 MSTORE PUSH1 0x20 SWAP4 DUP5 ADD SWAP4 SWAP1 SWAP3 ADD SWAP2 PUSH1 0x1 ADD PUSH2 0x2BDD JUMP JUMPDEST SWAP2 SWAP1 DUP3 MLOAD SWAP3 DUP4 DUP3 MSTORE PUSH1 0x0 JUMPDEST DUP5 DUP2 LT PUSH2 0x2C32 JUMPI POP POP DUP3 PUSH1 0x0 PUSH1 0x20 DUP1 SWAP5 SWAP6 DUP5 ADD ADD MSTORE PUSH1 0x1F DUP1 NOT SWAP2 ADD AND ADD ADD SWAP1 JUMP JUMPDEST DUP1 PUSH1 0x20 DUP1 SWAP3 DUP5 ADD ADD MLOAD DUP3 DUP3 DUP7 ADD ADD MSTORE ADD PUSH2 0x2C11 JUMP JUMPDEST SWAP1 DUP2 MLOAD DUP2 MSTORE PUSH1 0x1 DUP1 PUSH1 0xA0 SHL SUB PUSH1 0x20 DUP4 ADD MLOAD AND PUSH1 0x20 DUP3 ADD MSTORE PUSH1 0xFF PUSH1 0x40 DUP4 ADD MLOAD AND PUSH1 0x40 DUP3 ADD MSTORE PUSH1 0x60 DUP3 ADD MLOAD ISZERO ISZERO PUSH1 0x60 DUP3 ADD MSTORE PUSH4 0xFFFFFFFF PUSH1 0x80 DUP4 ADD MLOAD AND PUSH1 0x80 DUP3 ADD MSTORE PUSH1 0xA0 DUP3 ADD MLOAD PUSH1 0xA0 DUP3 ADD MSTORE PUSH1 0xC0 DUP3 ADD MLOAD PUSH1 0xC0 DUP3 ADD MSTORE PUSH1 0xE0 DUP3 ADD MLOAD PUSH1 0xE0 DUP3 ADD MSTORE PUSH2 0x100 DUP3 ADD MLOAD PUSH2 0x100 DUP3 ADD MSTORE PUSH2 0x140 DUP1 PUSH2 0x2CD2 PUSH2 0x120 DUP6 ADD MLOAD PUSH2 0x160 PUSH2 0x120 DUP7 ADD MSTORE PUSH2 0x160 DUP6 ADD SWAP1 PUSH2 0x2C06 JUMP JUMPDEST SWAP4 ADD MLOAD ISZERO ISZERO SWAP2 ADD MSTORE SWAP1 JUMP JUMPDEST SWAP1 PUSH1 0x4 DUP3 LT ISZERO PUSH2 0x78B JUMPI MSTORE JUMP JUMPDEST SWAP1 PUSH1 0xB DUP3 LT ISZERO PUSH2 0x2B4F JUMPI PUSH1 0x1E DUP3 PUSH1 0x4 SHR PUSH1 0xC ADD SWAP3 PUSH1 0x1 SHL AND SWAP1 JUMP JUMPDEST SWAP1 PUSH1 0x1 DUP3 DUP2 SHR SWAP3 AND DUP1 ISZERO PUSH2 0x2D35 JUMPI JUMPDEST PUSH1 0x20 DUP4 LT EQ PUSH2 0x2D1F JUMPI JUMP JUMPDEST PUSH4 0x4E487B71 PUSH1 0xE0 SHL PUSH1 0x0 MSTORE PUSH1 0x22 PUSH1 0x4 MSTORE PUSH1 0x24 PUSH1 0x0 REVERT JUMPDEST SWAP2 PUSH1 0x7F AND SWAP2 PUSH2 0x2D14 JUMP JUMPDEST PUSH2 0x100 DUP2 ADD SWAP1 DUP2 LT PUSH1 0x1 PUSH1 0x1 PUSH1 0x40 SHL SUB DUP3 GT OR PUSH2 0x2D5B JUMPI PUSH1 0x40 MSTORE JUMP JUMPDEST PUSH4 0x4E487B71 PUSH1 0xE0 SHL PUSH1 0x0 MSTORE PUSH1 0x41 PUSH1 0x4 MSTORE PUSH1 0x24 PUSH1 0x0 REVERT JUMPDEST PUSH1 0x80 DUP2 ADD SWAP1 DUP2 LT PUSH1 0x1 PUSH1 0x1 PUSH1 0x40 SHL SUB DUP3 GT OR PUSH2 0x2D5B JUMPI PUSH1 0x40 MSTORE JUMP JUMPDEST PUSH2 0x160 DUP2 ADD SWAP1 DUP2 LT PUSH1 0x1 PUSH1 0x1 PUSH1 0x40 SHL SUB DUP3 GT OR PUSH2 0x2D5B JUMPI PUSH1 0x40 MSTORE JUMP JUMPDEST SWAP1 PUSH1 0x1F DUP1 NOT SWAP2 ADD AND DUP2 ADD SWAP1 DUP2 LT PUSH1 0x1 PUSH1 0x1 PUSH1 0x40 SHL SUB DUP3 GT OR PUSH2 0x2D5B JUMPI PUSH1 0x40 MSTORE JUMP JUMPDEST SWAP1 PUSH1 0x40 MLOAD SWAP2 DUP3 PUSH1 0x0 DUP3 SLOAD SWAP3 PUSH2 0x2DDD DUP5 PUSH2 0x2D05 JUMP JUMPDEST DUP1 DUP5 MSTORE SWAP4 PUSH1 0x1 DUP2 AND SWAP1 DUP2 ISZERO PUSH2 0x2E4B JUMPI POP PUSH1 0x1 EQ PUSH2 0x2E04 JUMPI JUMPDEST POP PUSH2 0x2E02 SWAP3 POP SUB DUP4 PUSH2 0x2DA8 JUMP JUMPDEST JUMP JUMPDEST SWAP1 POP PUSH1 0x0 SWAP3 SWAP2 SWAP3 MSTORE PUSH1 0x20 PUSH1 0x0 KECCAK256 SWAP1 PUSH1 0x0 SWAP2 JUMPDEST DUP2 DUP4 LT PUSH2 0x2E2F JUMPI POP POP SWAP1 PUSH1 0x20 PUSH2 0x2E02 SWAP3 DUP3 ADD ADD CODESIZE PUSH2 0x2DF5 JUMP JUMPDEST PUSH1 0x20 SWAP2 SWAP4 POP DUP1 PUSH1 0x1 SWAP2 SLOAD DUP4 DUP6 DUP10 ADD ADD MSTORE ADD SWAP2 ADD SWAP1 SWAP2 DUP5 SWAP3 PUSH2 0x2E16 JUMP JUMPDEST SWAP1 POP PUSH1 0x20 SWAP3 POP PUSH2 0x2E02 SWAP5 SWAP2 POP PUSH1 0xFF NOT AND DUP3 DUP5 ADD MSTORE ISZERO ISZERO PUSH1 0x5 SHL DUP3 ADD ADD CODESIZE PUSH2 0x2DF5 JUMP JUMPDEST SWAP1 PUSH1 0x0 SWAP1 JUMPDEST PUSH1 0xB DUP3 LT PUSH2 0x2E7F JUMPI POP POP POP JUMP JUMPDEST PUSH1 0x20 DUP1 PUSH1 0x1 SWAP3 PUSH2 0xFFFF DUP7 MLOAD AND DUP2 MSTORE ADD SWAP4 ADD SWAP2 ADD SWAP1 SWAP2 PUSH2 0x2E72 JUMP JUMPDEST SWAP1 PUSH1 0x0 SWAP1 JUMPDEST PUSH1 0xB DUP3 LT PUSH2 0x2EAB JUMPI POP POP POP JUMP JUMPDEST PUSH1 0x20 DUP1 PUSH1 0x1 SWAP3 PUSH4 0xFFFFFFFF DUP7 MLOAD AND DUP2 MSTORE ADD SWAP4 ADD SWAP2 ADD SWAP1 SWAP2 PUSH2 0x2E9E JUMP JUMPDEST DUP1 SLOAD DUP3 LT ISZERO PUSH2 0x2B4F JUMPI PUSH1 0x0 MSTORE PUSH1 0x20 PUSH1 0x0 KECCAK256 ADD SWAP1 PUSH1 0x0 SWAP1 JUMP JUMPDEST ISZERO PUSH2 0x2EE6 JUMPI JUMP JUMPDEST PUSH1 0x40 MLOAD PUSH3 0x461BCD PUSH1 0xE5 SHL DUP2 MSTORE PUSH1 0x20 PUSH1 0x4 DUP3 ADD MSTORE PUSH1 0xD PUSH1 0x24 DUP3 ADD MSTORE PUSH13 0x125B9D985B1A59081B195D995B PUSH1 0x9A SHL PUSH1 0x44 DUP3 ADD MSTORE PUSH1 0x64 SWAP1 REVERT JUMPDEST PUSH1 0x4 DUP3 LT ISZERO PUSH2 0x78B JUMPI MSTORE JUMP JUMPDEST ISZERO PUSH2 0x2F2E JUMPI JUMP JUMPDEST PUSH1 0x40 MLOAD PUSH3 0x461BCD PUSH1 0xE5 SHL DUP2 MSTORE PUSH1 0x20 PUSH1 0x4 DUP3 ADD MSTORE PUSH1 0xE PUSH1 0x24 DUP3 ADD MSTORE PUSH14 0x4E6F206163746976652067616D65 PUSH1 0x90 SHL PUSH1 0x44 DUP3 ADD MSTORE PUSH1 0x64 SWAP1 REVERT JUMPDEST ISZERO PUSH2 0x2F6B JUMPI JUMP JUMPDEST PUSH1 0x40 MLOAD PUSH3 0x461BCD PUSH1 0xE5 SHL DUP2 MSTORE PUSH1 0x20 PUSH1 0x4 DUP3 ADD MSTORE PUSH1 0x2E PUSH1 0x24 DUP3 ADD MSTORE PUSH32 0x546172676574206C6576656C206D75737420626520686967686572207468616E PUSH1 0x44 DUP3 ADD MSTORE PUSH14 0x818DD5C9C995B9D081B195D995B PUSH1 0x92 SHL PUSH1 0x64 DUP3 ADD MSTORE PUSH1 0x84 SWAP1 REVERT JUMPDEST ISZERO PUSH2 0x2FCE JUMPI JUMP JUMPDEST PUSH1 0x40 MLOAD PUSH3 0x461BCD PUSH1 0xE5 SHL DUP2 MSTORE PUSH1 0x20 PUSH1 0x4 DUP3 ADD MSTORE PUSH1 0x1C PUSH1 0x24 DUP3 ADD MSTORE PUSH32 0x546172676574206C6576656C2065786365656473206D6178696D756D00000000 PUSH1 0x44 DUP3 ADD MSTORE PUSH1 0x64 SWAP1 REVERT JUMPDEST PUSH1 0x1 PUSH1 0x1 PUSH1 0x40 SHL SUB DUP2 GT PUSH2 0x2D5B JUMPI PUSH1 0x5 SHL PUSH1 0x20 ADD SWAP1 JUMP JUMPDEST SWAP1 PUSH2 0x3034 DUP3 PUSH2 0x3013 JUMP JUMPDEST PUSH2 0x3041 PUSH1 0x40 MLOAD SWAP2 DUP3 PUSH2 0x2DA8 JUMP JUMPDEST DUP3 DUP2 MSTORE DUP1 SWAP3 PUSH2 0x3052 PUSH1 0x1F NOT SWAP2 PUSH2 0x3013 JUMP JUMPDEST ADD SWAP1 PUSH1 0x20 CALLDATASIZE SWAP2 ADD CALLDATACOPY JUMP JUMPDEST PUSH1 0xFF PUSH1 0x1 SWAP2 AND ADD SWAP1 PUSH1 0xFF DUP3 GT PUSH2 0x157D JUMPI JUMP JUMPDEST SWAP1 PUSH1 0xFF DUP1 SWAP2 AND SWAP2 AND ADD SWAP1 PUSH1 0xFF DUP3 GT PUSH2 0x157D JUMPI JUMP JUMPDEST DUP1 MLOAD DUP3 LT ISZERO PUSH2 0x2B4F JUMPI PUSH1 0x20 SWAP2 PUSH1 0x5 SHL ADD ADD SWAP1 JUMP JUMPDEST DUP2 DUP2 MUL SWAP3 SWAP2 DUP2 ISZERO SWAP2 DUP5 DIV EQ OR ISZERO PUSH2 0x157D JUMPI JUMP JUMPDEST SWAP2 SWAP1 DUP3 ADD DUP1 SWAP3 GT PUSH2 0x157D JUMPI JUMP JUMPDEST SWAP2 SWAP1 DUP3 SUB SWAP2 DUP3 GT PUSH2 0x157D JUMPI JUMP JUMPDEST PUSH1 0x40 MLOAD SWAP1 PUSH2 0x30D0 DUP3 PUSH2 0x2D8C JUMP JUMPDEST PUSH1 0x0 PUSH2 0x140 DUP4 DUP3 DUP2 MSTORE DUP3 PUSH1 0x20 DUP3 ADD MSTORE DUP3 PUSH1 0x40 DUP3 ADD MSTORE DUP3 PUSH1 0x60 DUP3 ADD MSTORE DUP3 PUSH1 0x80 DUP3 ADD MSTORE DUP3 PUSH1 0xA0 DUP3 ADD MSTORE DUP3 PUSH1 0xC0 DUP3 ADD MSTORE DUP3 PUSH1 0xE0 DUP3 ADD MSTORE DUP3 PUSH2 0x100 DUP3 ADD MSTORE PUSH1 0x60 PUSH2 0x120 DUP3 ADD MSTORE ADD MSTORE JUMP JUMPDEST SWAP1 PUSH1 0x40 MLOAD PUSH2 0x3123 DUP2 PUSH2 0x2D8C JUMP JUMPDEST PUSH2 0x140 PUSH1 0xFF PUSH1 0x7 DUP4 SWAP6 DUP1 SLOAD DUP6 MSTORE PUSH4 0xFFFFFFFF PUSH1 0x1 DUP3 ADD SLOAD PUSH1 0x1 DUP1 PUSH1 0xA0 SHL SUB DUP2 AND PUSH1 0x20 DUP9 ADD MSTORE DUP5 DUP2 PUSH1 0xA0 SHR AND PUSH1 0x40 DUP9 ADD MSTORE DUP5 DUP2 PUSH1 0xA8 SHR AND ISZERO ISZERO PUSH1 0x60 DUP9 ADD MSTORE PUSH1 0xB0 SHR AND PUSH1 0x80 DUP7 ADD MSTORE PUSH1 0x2 DUP2 ADD SLOAD PUSH1 0xA0 DUP7 ADD MSTORE PUSH1 0x3 DUP2 ADD SLOAD PUSH1 0xC0 DUP7 ADD MSTORE PUSH1 0x4 DUP2 ADD SLOAD PUSH1 0xE0 DUP7 ADD MSTORE PUSH1 0x5 DUP2 ADD SLOAD PUSH2 0x100 DUP7 ADD MSTORE PUSH2 0x319E PUSH1 0x6 DUP3 ADD PUSH2 0x2DC9 JUMP JUMPDEST PUSH2 0x120 DUP7 ADD MSTORE ADD SLOAD AND ISZERO ISZERO SWAP2 ADD MSTORE JUMP JUMPDEST RETURNDATASIZE ISZERO PUSH2 0x31E8 JUMPI RETURNDATASIZE SWAP1 PUSH1 0x1 PUSH1 0x1 PUSH1 0x40 SHL SUB DUP3 GT PUSH2 0x2D5B JUMPI PUSH1 0x40 MLOAD SWAP2 PUSH2 0x31DC PUSH1 0x1F DUP3 ADD PUSH1 0x1F NOT AND PUSH1 0x20 ADD DUP5 PUSH2 0x2DA8 JUMP JUMPDEST DUP3 MSTORE RETURNDATASIZE PUSH1 0x0 PUSH1 0x20 DUP5 ADD RETURNDATACOPY JUMP JUMPDEST PUSH1 0x60 SWAP1 JUMP JUMPDEST PUSH1 0x1 DUP1 PUSH1 0xA0 SHL SUB AND PUSH1 0x0 MSTORE PUSH1 0x5 PUSH1 0x20 MSTORE PUSH1 0x40 PUSH1 0x0 KECCAK256 SWAP2 PUSH2 0x3283 PUSH1 0x40 MLOAD PUSH2 0x3212 DUP2 PUSH2 0x2D3F JUMP JUMPDEST DUP5 SLOAD SWAP1 PUSH1 0xFF DUP3 AND DUP2 MSTORE PUSH2 0x324E PUSH1 0xFF PUSH1 0x20 DUP4 ADD SWAP4 DUP2 DUP2 PUSH1 0x8 SHR AND ISZERO ISZERO DUP6 MSTORE PUSH1 0x1 PUSH1 0x1 PUSH1 0x40 SHL SUB DUP2 PUSH1 0x10 SHR AND PUSH1 0x40 DUP6 ADD MSTORE PUSH1 0x50 SHR AND PUSH1 0x60 DUP4 ADD PUSH2 0x2F1B JUMP JUMPDEST PUSH1 0x1 DUP7 ADD SLOAD PUSH1 0x80 DUP3 ADD MSTORE PUSH1 0xE0 PUSH1 0xFF PUSH1 0x4 PUSH1 0x2 DUP10 ADD SLOAD SWAP9 PUSH1 0xA0 DUP6 ADD SWAP10 DUP11 MSTORE PUSH1 0x3 DUP2 ADD SLOAD PUSH1 0xC0 DUP7 ADD MSTORE ADD SLOAD AND SWAP2 ADD MSTORE MLOAD ISZERO ISZERO PUSH2 0x2F27 JUMP JUMPDEST ISZERO PUSH2 0x329E JUMPI PUSH4 0xFFFFFFFF PUSH2 0x155A PUSH2 0x329B SWAP4 MLOAD SWAP3 PUSH2 0x2B65 JUMP JUMPDEST SWAP1 JUMP JUMPDEST PUSH2 0x32B4 SWAP1 PUSH4 0xFFFFFFFF PUSH2 0x155A PUSH1 0x64 SWAP5 MLOAD SWAP3 PUSH2 0x2B34 JUMP JUMPDEST DIV SWAP1 JUMP JUMPDEST PUSH1 0xA PUSH1 0xFF DUP3 AND LT ISZERO PUSH2 0x32F7 JUMPI PUSH2 0x32D3 PUSH2 0xF19 PUSH2 0xFFFF SWAP3 PUSH2 0x305C JUMP JUMPDEST SWAP1 SLOAD SWAP1 PUSH1 0x3 SHL SHR AND DUP1 PUSH1 0x0 SUB SWAP1 DUP1 DUP3 DIV PUSH1 0x0 NOT EQ SWAP1 ISZERO OR ISZERO PUSH2 0x157D JUMPI PUSH2 0x2710 SWAP1 DIV SWAP1 JUMP JUMPDEST PUSH1 0x40 MLOAD PUSH3 0x461BCD PUSH1 0xE5 SHL DUP2 MSTORE PUSH1 0x20 PUSH1 0x4 DUP3 ADD MSTORE PUSH1 0x1A PUSH1 0x24 DUP3 ADD MSTORE PUSH32 0x496E76616C6964206C6576656C20666F7220636C696D62696E67000000000000 PUSH1 0x44 DUP3 ADD MSTORE PUSH1 0x64 SWAP1 REVERT JUMPDEST PUSH1 0x0 NOT DUP2 EQ PUSH2 0x157D JUMPI PUSH1 0x1 ADD SWAP1 JUMP JUMPDEST PUSH1 0x40 MLOAD SWAP1 PUSH2 0xFFFF PUSH1 0xC SLOAD DUP2 DUP2 AND DUP5 MSTORE DUP2 DUP2 PUSH1 0x10 SHR AND PUSH1 0x20 DUP6 ADD MSTORE DUP2 DUP2 PUSH1 0x20 SHR AND PUSH1 0x40 DUP6 ADD MSTORE DUP2 DUP2 PUSH1 0x30 SHR AND PUSH1 0x60 DUP6 ADD MSTORE DUP2 DUP2 PUSH1 0x40 SHR AND PUSH1 0x80 DUP6 ADD MSTORE DUP2 DUP2 PUSH1 0x50 SHR AND PUSH1 0xA0 DUP6 ADD MSTORE DUP2 DUP2 PUSH1 0x60 SHR AND PUSH1 0xC0 DUP6 ADD MSTORE DUP2 DUP2 PUSH1 0x70 SHR AND PUSH1 0xE0 DUP6 ADD MSTORE DUP2 DUP2 PUSH1 0x80 SHR AND PUSH2 0x100 DUP6 ADD MSTORE DUP2 DUP2 PUSH1 0x90 SHR AND PUSH2 0x120 DUP6 ADD MSTORE PUSH1 0xA0 SHR AND PUSH2 0x140 DUP4 ADD MSTORE PUSH2 0x2E02 PUSH2 0x160 DUP4 PUSH2 0x2DA8 JUMP JUMPDEST PUSH1 0x40 MLOAD SWAP1 DUP2 PUSH1 0xF PUSH1 0x0 JUMPDEST PUSH1 0xB PUSH1 0x7 DUP3 ADD LT PUSH2 0x3416 JUMPI POP PUSH4 0xFFFFFFFF PUSH1 0x40 SWAP2 SLOAD DUP2 DUP2 AND DUP5 MSTORE DUP2 DUP2 PUSH1 0x20 SHR AND PUSH1 0x20 DUP6 ADD MSTORE DUP3 SHR AND SWAP2 ADD MSTORE PUSH2 0x2E02 PUSH2 0x160 DUP4 PUSH2 0x2DA8 JUMP JUMPDEST SWAP1 SWAP2 PUSH1 0x1 PUSH2 0x100 PUSH1 0x8 SWAP3 DUP6 SLOAD PUSH4 0xFFFFFFFF DUP2 AND DUP3 MSTORE PUSH4 0xFFFFFFFF DUP2 PUSH1 0x20 SHR AND PUSH1 0x20 DUP4 ADD MSTORE PUSH4 0xFFFFFFFF DUP2 PUSH1 0x40 SHR AND PUSH1 0x40 DUP4 ADD MSTORE PUSH4 0xFFFFFFFF DUP2 PUSH1 0x60 SHR AND PUSH1 0x60 DUP4 ADD MSTORE PUSH4 0xFFFFFFFF DUP2 PUSH1 0x80 SHR AND PUSH1 0x80 DUP4 ADD MSTORE PUSH4 0xFFFFFFFF DUP2 PUSH1 0xA0 SHR AND PUSH1 0xA0 DUP4 ADD MSTORE PUSH4 0xFFFFFFFF DUP2 PUSH1 0xC0 SHR AND PUSH1 0xC0 DUP4 ADD MSTORE PUSH1 0xE0 SHR PUSH1 0xE0 DUP3 ADD MSTORE ADD SWAP4 ADD SWAP2 ADD PUSH2 0x33DF JUMP JUMPDEST ISZERO PUSH2 0x349E JUMPI JUMP JUMPDEST PUSH1 0x40 MLOAD PUSH3 0x461BCD PUSH1 0xE5 SHL DUP2 MSTORE PUSH1 0x20 PUSH1 0x4 DUP3 ADD MSTORE PUSH1 0x2E PUSH1 0x24 DUP3 ADD MSTORE PUSH32 0x43616E6E6F7420706572666F726D20616374696F6E207768696C652072657175 PUSH1 0x44 DUP3 ADD MSTORE PUSH14 0x6573742069732070656E64696E67 PUSH1 0x90 SHL PUSH1 0x64 DUP3 ADD MSTORE PUSH1 0x84 SWAP1 REVERT JUMPDEST ISZERO PUSH2 0x3501 JUMPI JUMP JUMPDEST PUSH1 0x40 MLOAD PUSH3 0x461BCD PUSH1 0xE5 SHL DUP2 MSTORE PUSH1 0x20 PUSH1 0x4 DUP3 ADD MSTORE PUSH1 0x18 PUSH1 0x24 DUP3 ADD MSTORE PUSH32 0x416C7265616479206174206D6178696D756D206C6576656C0000000000000000 PUSH1 0x44 DUP3 ADD MSTORE PUSH1 0x64 SWAP1 REVERT JUMPDEST SWAP1 PUSH1 0x4 DUP2 LT ISZERO PUSH2 0x78B JUMPI DUP2 SLOAD PUSH1 0xFF PUSH1 0x50 SHL NOT AND PUSH1 0x50 SWAP2 SWAP1 SWAP2 SHL PUSH1 0xFF PUSH1 0x50 SHL AND OR SWAP1 SSTORE JUMP JUMPDEST PUSH1 0x1 SLOAD PUSH1 0x1 PUSH1 0x1 PUSH1 0xA0 SHL SUB AND CALLER SUB PUSH2 0x357E JUMPI JUMP JUMPDEST PUSH4 0x118CDAA7 PUSH1 0xE0 SHL PUSH1 0x0 MSTORE CALLER PUSH1 0x4 MSTORE PUSH1 0x24 PUSH1 0x0 REVERT JUMPDEST PUSH1 0x40 MLOAD SWAP1 PUSH2 0x35A2 PUSH1 0x40 DUP4 PUSH2 0x2DA8 JUMP JUMPDEST PUSH1 0x7 DUP3 MSTORE PUSH7 0x18D85CDA13DD5D PUSH1 0xCA SHL PUSH1 0x20 DUP4 ADD MSTORE JUMP JUMPDEST PUSH1 0x20 DUP2 MSTORE PUSH1 0x1 DUP1 PUSH1 0xA0 SHL SUB DUP3 MLOAD AND PUSH1 0x20 DUP3 ADD MSTORE PUSH1 0x20 DUP3 ADD MLOAD PUSH1 0x40 DUP3 ADD MSTORE PUSH1 0xFF PUSH1 0x40 DUP4 ADD MLOAD AND PUSH1 0x60 DUP3 ADD MSTORE PUSH1 0x60 DUP3 ADD MLOAD ISZERO ISZERO PUSH1 0x80 DUP3 ADD MSTORE PUSH4 0xFFFFFFFF PUSH1 0x80 DUP4 ADD MLOAD AND PUSH1 0xA0 DUP3 ADD MSTORE PUSH1 0xA0 DUP3 ADD MLOAD PUSH1 0xC0 DUP3 ADD MSTORE PUSH2 0x100 PUSH1 0xE0 PUSH2 0x2CD2 PUSH1 0xC0 DUP6 ADD MLOAD DUP4 DUP4 DUP7 ADD MSTORE PUSH2 0x120 DUP6 ADD SWAP1 PUSH2 0x2C06 JUMP JUMPDEST PUSH1 0x40 MLOAD SWAP1 PUSH2 0x3634 PUSH1 0x40 DUP4 PUSH2 0x2DA8 JUMP JUMPDEST PUSH1 0x4 DUP3 MSTORE PUSH4 0x189D5CDD PUSH1 0xE2 SHL PUSH1 0x20 DUP4 ADD MSTORE JUMP JUMPDEST PUSH1 0x1 PUSH1 0x1 PUSH1 0x40 SHL SUB SWAP1 PUSH1 0x0 PUSH1 0x80 MSTORE AND SWAP1 DUP2 PUSH1 0x80 MLOAD MSTORE PUSH1 0x8 PUSH1 0x20 MSTORE PUSH1 0x1 DUP1 PUSH1 0xA0 SHL SUB PUSH1 0x40 PUSH1 0x80 MLOAD KECCAK256 SLOAD AND DUP1 ISZERO PUSH2 0x3EA4 JUMPI DUP1 PUSH1 0x80 MLOAD MSTORE PUSH1 0x5 PUSH1 0x20 MSTORE PUSH1 0x40 PUSH1 0x80 MLOAD KECCAK256 SWAP2 DUP3 SLOAD PUSH1 0xFF DUP2 PUSH1 0x50 SHR AND PUSH1 0x4 DUP2 LT ISZERO PUSH2 0x3E7F JUMPI ISZERO PUSH2 0x3E9D JUMPI PUSH1 0x1 PUSH1 0x1 PUSH1 0x40 SHL SUB DUP6 SWAP2 PUSH1 0x10 SHR AND SUB PUSH2 0x3E97 JUMPI DUP4 PUSH1 0x80 MLOAD MSTORE PUSH1 0xA PUSH1 0x20 MSTORE DUP1 PUSH1 0x40 PUSH1 0x80 MLOAD KECCAK256 SSTORE PUSH1 0x3 DUP4 ADD SWAP2 DUP3 SLOAD DUP2 PUSH32 0x9589B5F0BF764FACEA74ADA2A8FDD7059EE6FEDED44578C4E40B7DB9BB5A8AD2 PUSH1 0x40 DUP1 MLOAD DUP10 DUP2 MSTORE DUP7 PUSH1 0x20 DUP3 ADD MSTORE LOG3 PUSH1 0xFF DUP5 SLOAD PUSH1 0x50 SHR AND PUSH1 0x4 DUP2 LT ISZERO PUSH2 0x3E7F JUMPI DUP5 SWAP1 PUSH1 0x1 DUP2 SUB PUSH2 0x392D JUMPI POP SWAP2 SWAP1 SWAP2 SLOAD SWAP3 PUSH1 0xFF DUP5 AND SWAP1 PUSH1 0xA DUP3 LT PUSH2 0x3779 JUMPI JUMPDEST POP POP POP POP POP JUMPDEST PUSH1 0x80 DUP1 MLOAD DUP3 SLOAD PUSH11 0xFFFFFFFFFFFFFFFFFF0000 NOT AND SWAP1 SWAP3 SSTORE SWAP1 DUP3 SWAP1 MSTORE PUSH1 0x8 PUSH1 0x20 SWAP1 DUP2 MSTORE DUP2 MLOAD PUSH1 0x40 DUP1 DUP3 KECCAK256 DUP1 SLOAD PUSH1 0x1 PUSH1 0x1 PUSH1 0xA0 SHL SUB NOT AND SWAP1 SSTORE SWAP4 SWAP1 MSTORE PUSH1 0x9 SWAP1 MSTORE MLOAD KECCAK256 DUP1 SLOAD PUSH1 0xFF NOT AND SWAP1 SSTORE JUMP JUMPDEST PUSH2 0x3782 DUP3 PUSH2 0x305C JUMP JUMPDEST PUSH2 0xFFFF PUSH2 0x378E DUP3 PUSH2 0x2CEA JUMP JUMPDEST SWAP1 SLOAD PUSH1 0x3 SWAP2 SWAP1 SWAP2 SHL SHR AND PUSH2 0x2710 DUP6 MOD LT SWAP6 DUP7 ISZERO PUSH2 0x37FA JUMPI POP SWAP3 PUSH1 0xA0 SWAP3 SWAP2 PUSH1 0xFF PUSH1 0x0 DUP1 MLOAD PUSH1 0x20 PUSH2 0x4479 DUP4 CODECOPY DUP2 MLOAD SWAP2 MSTORE SWAP6 AND PUSH1 0xFF NOT DUP10 SLOAD AND OR DUP9 SSTORE JUMPDEST SLOAD SWAP6 PUSH1 0xFF DUP9 SLOAD AND PUSH1 0x40 MLOAD SWAP4 PUSH1 0x80 MLOAD POP DUP5 MSTORE PUSH1 0x20 DUP5 ADD MSTORE DUP1 PUSH1 0x40 DUP5 ADD MSTORE ISZERO PUSH1 0x60 DUP4 ADD MSTORE PUSH1 0x80 DUP3 ADD MSTORE LOG3 CODESIZE DUP1 DUP1 DUP1 DUP1 PUSH2 0x3729 JUMP JUMPDEST PUSH2 0xFF00 NOT AND DUP8 SSTORE POP PUSH1 0x4 SLOAD PUSH1 0x3 SLOAD PUSH1 0xFF AND SWAP1 PUSH1 0x1 PUSH1 0x1 PUSH1 0xA0 SHL SUB AND DUP1 EXTCODESIZE ISZERO PUSH2 0x391A JUMPI PUSH1 0x40 MLOAD SWAP2 PUSH4 0x5EC33921 PUSH1 0xE1 SHL DUP4 MSTORE DUP7 PUSH1 0x4 DUP5 ADD MSTORE PUSH1 0xA PUSH1 0x24 DUP5 ADD MSTORE ISZERO ISZERO PUSH1 0x44 DUP4 ADD MSTORE DUP2 PUSH1 0x64 DUP2 PUSH1 0x80 MLOAD SWAP4 PUSH1 0x80 MLOAD SWAP1 GAS CALL DUP1 ISZERO PUSH2 0x3920 JUMPI PUSH2 0x38FD JUMPI JUMPDEST POP SWAP1 PUSH1 0x0 DUP1 MLOAD PUSH1 0x20 PUSH2 0x4479 DUP4 CODECOPY DUP2 MLOAD SWAP2 MSTORE SWAP3 PUSH1 0xA0 SWAP3 PUSH2 0x387E PUSH2 0x3877 PUSH2 0x3625 JUMP JUMPDEST DUP5 DUP9 PUSH2 0x4183 JUMP JUMPDEST PUSH32 0x8575C54594A7C9BCA9C3B4F3C0C0140D23249091D17179EF1D9B734AF81F736 PUSH2 0x38F5 DUP3 SLOAD PUSH1 0x40 MLOAD SWAP1 PUSH2 0x38B1 DUP3 PUSH2 0x2D3F JUMP JUMPDEST DUP10 DUP3 MSTORE PUSH1 0x20 DUP3 ADD MSTORE DUP6 PUSH1 0x40 DUP3 ADD MSTORE PUSH1 0x80 MLOAD PUSH1 0x60 DUP3 ADD MSTORE PUSH1 0x80 MLOAD PUSH1 0x80 DUP3 ADD MSTORE PUSH1 0xA DUP8 DUP3 ADD MSTORE PUSH2 0x38DD PUSH2 0x3625 JUMP JUMPDEST PUSH1 0xC0 DUP3 ADD MSTORE PUSH1 0x1 PUSH1 0xE0 DUP3 ADD MSTORE PUSH1 0x40 MLOAD SWAP2 DUP3 SWAP2 DUP3 PUSH2 0x35B8 JUMP JUMPDEST SUB SWAP1 LOG1 PUSH2 0x37C8 JUMP JUMPDEST PUSH1 0x80 MLOAD SWAP2 SWAP3 SWAP2 PUSH2 0x390C SWAP2 PUSH2 0x2DA8 JUMP JUMPDEST PUSH1 0x80 MLOAD PUSH2 0x391A JUMPI SWAP1 CODESIZE PUSH2 0x3857 JUMP JUMPDEST PUSH1 0x80 MLOAD DUP1 REVERT JUMPDEST PUSH1 0x40 MLOAD RETURNDATASIZE PUSH1 0x80 MLOAD DUP3 RETURNDATACOPY RETURNDATASIZE SWAP1 REVERT JUMPDEST PUSH1 0x2 DUP2 SUB PUSH2 0x3E5A JUMPI POP SLOAD PUSH1 0xFF AND SWAP2 PUSH1 0x1 AND ISZERO DUP1 ISZERO PUSH2 0x3DDD JUMPI PUSH4 0xFFFFFFFF PUSH2 0x3953 DUP5 PUSH2 0x2B65 JUMP JUMPDEST SWAP1 SLOAD SWAP1 PUSH1 0x3 SHL SHR AND PUSH2 0x3973 DUP2 PUSH8 0xDE0B6B3A7640000 PUSH1 0x2 DUP10 ADD SLOAD DIV PUSH2 0x3096 JUMP JUMPDEST PUSH1 0x4 SLOAD PUSH1 0x3 SLOAD SWAP2 SWAP3 SWAP2 PUSH1 0xFF AND SWAP1 PUSH1 0x1 PUSH1 0x1 PUSH1 0xA0 SHL SUB AND DUP1 EXTCODESIZE ISZERO PUSH2 0x391A JUMPI PUSH1 0x40 MLOAD SWAP2 PUSH4 0x5EC33921 PUSH1 0xE1 SHL DUP4 MSTORE DUP7 PUSH1 0x4 DUP5 ADD MSTORE DUP5 PUSH1 0x24 DUP5 ADD MSTORE ISZERO ISZERO PUSH1 0x44 DUP4 ADD MSTORE DUP2 PUSH1 0x64 DUP2 PUSH1 0x80 MLOAD SWAP4 PUSH1 0x80 MLOAD SWAP1 GAS CALL DUP1 ISZERO PUSH2 0x3920 JUMPI PUSH2 0x3DCB JUMPI JUMPDEST POP JUMPDEST PUSH2 0xFF00 NOT DUP8 SLOAD AND DUP8 SSTORE DUP6 SLOAD DUP5 PUSH1 0x40 MLOAD SWAP3 DUP8 DUP5 MSTORE PUSH4 0xFFFFFFFF AND SWAP3 DUP4 PUSH1 0x20 DUP3 ADD MSTORE DUP5 PUSH1 0x40 DUP3 ADD MSTORE DUP6 PUSH1 0x60 DUP3 ADD MSTORE PUSH1 0x80 PUSH32 0x6EFF5BF191A1C31AD478BF2982A4BBD28C955660DB851D62F724D11746CD77D3 SWAP2 LOG3 PUSH2 0x3A25 PUSH2 0x3593 JUMP JUMPDEST SWAP5 DUP5 PUSH1 0x80 MLOAD MSTORE PUSH1 0x5 PUSH1 0x20 MSTORE PUSH1 0x80 MLOAD PUSH1 0x40 SWAP1 KECCAK256 SWAP6 PUSH1 0x40 MLOAD PUSH2 0x3A44 DUP2 PUSH2 0x2D3F JUMP JUMPDEST DUP8 SLOAD PUSH1 0xFF DUP2 AND DUP3 MSTORE DUP1 PUSH1 0x8 SHR PUSH1 0xFF AND ISZERO ISZERO PUSH1 0x20 DUP4 ADD MSTORE DUP1 PUSH1 0x10 SHR PUSH1 0x1 PUSH1 0x1 PUSH1 0x40 SHL SUB AND PUSH1 0x40 DUP4 ADD MSTORE PUSH1 0x50 SHR PUSH1 0xFF AND PUSH1 0x60 DUP3 ADD SWAP1 PUSH2 0x3A80 SWAP2 PUSH2 0x2F1B JUMP JUMPDEST PUSH1 0x1 DUP9 ADD SLOAD SWAP2 DUP3 PUSH1 0x80 DUP4 ADD MSTORE DUP7 PUSH1 0x2 DUP11 ADD SLOAD SWAP4 DUP5 PUSH1 0xA0 DUP6 ADD MSTORE PUSH1 0x3 DUP12 ADD SLOAD SWAP4 PUSH1 0xC0 DUP2 ADD SWAP12 DUP6 DUP14 MSTORE PUSH1 0x4 ADD SLOAD PUSH1 0xFF AND SWAP1 PUSH1 0xE0 ADD MSTORE PUSH1 0x40 MLOAD SWAP4 PUSH2 0x3AC0 DUP6 PUSH2 0x2D8C JUMP JUMPDEST DUP5 MSTORE DUP11 PUSH1 0x20 DUP6 ADD SWAP6 DUP12 DUP8 MSTORE PUSH1 0x40 DUP7 ADD SWAP7 DUP9 DUP9 MSTORE PUSH1 0x60 DUP8 ADD PUSH1 0x1 DUP2 MSTORE PUSH1 0x80 DUP9 ADD DUP12 DUP2 MSTORE PUSH1 0xA0 DUP10 ADD SWAP4 DUP5 MSTORE PUSH1 0xC0 DUP10 ADD SWAP5 DUP14 DUP7 MSTORE PUSH1 0xE0 DUP11 ADD SWAP7 DUP8 MSTORE PUSH2 0x100 DUP11 ADD SWAP8 TIMESTAMP DUP10 MSTORE PUSH2 0x120 DUP12 ADD SWAP10 DUP11 MSTORE PUSH2 0x140 DUP12 ADD MSTORE MLOAD PUSH1 0x80 MLOAD MSTORE PUSH1 0x6 PUSH1 0x20 MSTORE PUSH1 0x80 MLOAD PUSH1 0x40 SWAP1 KECCAK256 SWAP10 DUP10 MLOAD DUP12 SSTORE PUSH1 0x1 DUP12 ADD SWAP4 PUSH1 0x1 PUSH1 0xA0 SHL PUSH1 0x1 SWAP1 SUB SWAP1 PUSH1 0x1 PUSH1 0xA0 SHL PUSH1 0x1 SWAP1 SUB SWAP1 MLOAD AND AND PUSH1 0x1 PUSH1 0x1 PUSH1 0x60 SHL SUB PUSH1 0xA0 SHL DUP6 SLOAD AND OR DUP5 SSTORE MLOAD SWAP2 DUP4 SLOAD SWAP1 PUSH1 0xFF PUSH1 0xA8 SHL SWAP1 MLOAD ISZERO ISZERO PUSH1 0xA8 SHL AND SWAP2 PUSH4 0xFFFFFFFF PUSH1 0xB0 SHL SWAP1 MLOAD PUSH1 0xB0 SHL AND SWAP3 PUSH1 0xFF PUSH1 0xA0 SHL SWAP1 PUSH1 0xA0 SHL AND SWAP1 PUSH6 0xFFFFFFFFFFFF PUSH1 0xA0 SHL NOT AND OR OR OR SWAP1 SSTORE MLOAD PUSH1 0x2 DUP8 ADD SSTORE MLOAD PUSH1 0x3 DUP7 ADD SSTORE MLOAD PUSH1 0x4 DUP6 ADD SSTORE MLOAD PUSH1 0x5 DUP5 ADD SSTORE PUSH1 0x6 DUP4 ADD SWAP1 MLOAD DUP1 MLOAD SWAP1 PUSH1 0x1 PUSH1 0x1 PUSH1 0x40 SHL SUB DUP3 GT PUSH2 0x3CE8 JUMPI PUSH2 0x3BC9 DUP4 SLOAD PUSH2 0x2D05 JUMP JUMPDEST PUSH1 0x1F DUP2 GT PUSH2 0x3D80 JUMPI JUMPDEST POP PUSH1 0x20 SWAP1 PUSH1 0x1 PUSH1 0x1F DUP5 GT EQ PUSH2 0x3D0B JUMPI SWAP3 DUP3 PUSH2 0x140 SWAP4 PUSH2 0x3C25 SWAP8 SWAP7 SWAP4 PUSH1 0x7 SWAP7 PUSH1 0x80 MLOAD SWAP3 PUSH2 0x3D00 JUMPI JUMPDEST POP POP DUP2 PUSH1 0x1 SHL SWAP2 PUSH1 0x0 NOT SWAP1 PUSH1 0x3 SHL SHR NOT AND OR SWAP1 SSTORE JUMPDEST ADD MLOAD ISZERO ISZERO SWAP2 ADD SWAP1 PUSH1 0xFF DUP1 NOT DUP4 SLOAD AND SWAP2 ISZERO ISZERO AND OR SWAP1 SSTORE JUMP JUMPDEST DUP5 PUSH1 0x80 MLOAD MSTORE PUSH1 0x7 PUSH1 0x20 MSTORE PUSH1 0x40 PUSH1 0x80 MLOAD KECCAK256 SWAP6 MLOAD SWAP7 DUP7 SLOAD PUSH1 0x1 PUSH1 0x40 SHL DUP2 LT ISZERO PUSH2 0x3CE8 JUMPI PUSH32 0x8575C54594A7C9BCA9C3B4F3C0C0140D23249091D17179EF1D9B734AF81F736 SWAP9 PUSH2 0x3C7E DUP3 PUSH2 0x3CE0 SWAP11 PUSH1 0x1 PUSH2 0x3C97 SWAP6 ADD DUP2 SSTORE PUSH2 0x2EC7 JUMP JUMPDEST SWAP1 SWAP2 SWAP1 DUP3 SLOAD SWAP1 PUSH1 0x3 SHL SWAP2 DUP3 SHL SWAP2 PUSH1 0x0 NOT SWAP1 SHL NOT AND OR SWAP1 SSTORE JUMP JUMPDEST SLOAD PUSH1 0x40 MLOAD SWAP6 PUSH2 0x3CA5 DUP8 PUSH2 0x2D3F JUMP JUMPDEST DUP7 MSTORE PUSH1 0x20 DUP7 ADD MSTORE PUSH1 0x40 DUP6 ADD MSTORE PUSH1 0x1 PUSH1 0x60 DUP6 ADD MSTORE PUSH1 0x80 DUP5 ADD MSTORE PUSH1 0xA0 DUP4 ADD MSTORE PUSH2 0x3CCA PUSH2 0x3593 JUMP JUMPDEST PUSH1 0xC0 DUP4 ADD MSTORE PUSH1 0xE0 DUP3 ADD MSTORE PUSH1 0x40 MLOAD SWAP2 DUP3 SWAP2 DUP3 PUSH2 0x35B8 JUMP JUMPDEST SUB SWAP1 LOG1 PUSH2 0x372F JUMP JUMPDEST PUSH4 0x4E487B71 PUSH1 0xE0 SHL PUSH1 0x80 MLOAD MSTORE PUSH1 0x41 PUSH1 0x4 MSTORE PUSH1 0x24 PUSH1 0x80 MLOAD REVERT JUMPDEST ADD MLOAD SWAP1 POP CODESIZE DUP1 PUSH2 0x3BF9 JUMP JUMPDEST SWAP1 PUSH1 0x1F NOT DUP4 AND SWAP2 DUP5 PUSH1 0x80 MLOAD MSTORE DUP2 PUSH1 0x80 MLOAD KECCAK256 SWAP3 PUSH1 0x80 MLOAD JUMPDEST DUP2 DUP2 LT PUSH2 0x3D68 JUMPI POP SWAP4 PUSH2 0x3C25 SWAP8 SWAP7 SWAP4 PUSH1 0x7 SWAP7 SWAP4 PUSH1 0x1 SWAP4 DUP4 PUSH2 0x140 SWAP9 LT PUSH2 0x3D4F JUMPI JUMPDEST POP POP POP DUP2 SHL ADD SWAP1 SSTORE PUSH2 0x3C0E JUMP JUMPDEST ADD MLOAD PUSH1 0x0 NOT PUSH1 0xF8 DUP5 PUSH1 0x3 SHL AND SHR NOT AND SWAP1 SSTORE CODESIZE DUP1 DUP1 PUSH2 0x3D42 JUMP JUMPDEST SWAP3 SWAP4 PUSH1 0x20 PUSH1 0x1 DUP2 SWAP3 DUP8 DUP7 ADD MLOAD DUP2 SSTORE ADD SWAP6 ADD SWAP4 ADD PUSH2 0x3D21 JUMP JUMPDEST DUP4 PUSH1 0x80 MLOAD MSTORE PUSH1 0x20 PUSH1 0x80 MLOAD KECCAK256 PUSH1 0x1F DUP5 ADD PUSH1 0x5 SHR DUP2 ADD SWAP2 PUSH1 0x20 DUP6 LT PUSH2 0x3DC1 JUMPI JUMPDEST PUSH1 0x1F ADD PUSH1 0x5 SHR ADD SWAP1 JUMPDEST DUP2 DUP2 LT PUSH2 0x3DB4 JUMPI POP PUSH2 0x3BD2 JUMP JUMPDEST PUSH1 0x80 MLOAD DUP2 SSTORE PUSH1 0x1 ADD PUSH2 0x3DA7 JUMP JUMPDEST SWAP1 SWAP2 POP DUP2 SWAP1 PUSH2 0x3D9E JUMP JUMPDEST PUSH1 0x80 MLOAD PUSH2 0x3DD7 SWAP2 PUSH2 0x2DA8 JUMP JUMPDEST CODESIZE PUSH2 0x39CA JUMP JUMPDEST PUSH4 0xFFFFFFFF PUSH2 0x3DEB DUP5 PUSH2 0x2B34 JUMP JUMPDEST SWAP1 SLOAD SWAP1 PUSH1 0x3 SHL SHR AND PUSH1 0x64 PUSH2 0x3E03 DUP3 PUSH1 0x2 DUP10 ADD SLOAD PUSH2 0x3096 JUMP JUMPDEST PUSH1 0x80 MLOAD SWAP2 SWAP1 DIV SWAP2 SWAP1 DUP1 DUP1 DUP1 DUP6 DUP9 GAS CALL PUSH2 0x3E1A PUSH2 0x31AE JUMP JUMPDEST POP PUSH2 0x39CC JUMPI PUSH1 0x40 MLOAD PUSH3 0x461BCD PUSH1 0xE5 SHL DUP2 MSTORE PUSH1 0x20 PUSH1 0x4 DUP3 ADD MSTORE PUSH1 0x13 PUSH1 0x24 DUP3 ADD MSTORE PUSH19 0x115512081D1C985B9CD9995C8819985A5B1959 PUSH1 0x6A SHL PUSH1 0x44 DUP3 ADD MSTORE PUSH1 0x64 SWAP1 REVERT JUMPDEST SWAP2 SWAP4 POP SWAP1 PUSH1 0x3 EQ PUSH2 0x3E6E JUMPI JUMPDEST POP POP POP PUSH2 0x372F JUMP JUMPDEST PUSH2 0x3E77 SWAP3 PUSH2 0x3ECB JUMP JUMPDEST CODESIZE DUP1 DUP3 PUSH2 0x3E66 JUMP JUMPDEST PUSH4 0x4E487B71 PUSH1 0xE0 SHL PUSH1 0x80 MLOAD MSTORE PUSH1 0x21 PUSH1 0x4 MSTORE PUSH1 0x24 PUSH1 0x80 MLOAD REVERT JUMPDEST POP POP POP POP JUMP JUMPDEST POP POP POP POP POP JUMP JUMPDEST POP POP POP JUMP JUMPDEST PUSH1 0x2 PUSH1 0x0 SLOAD EQ PUSH2 0x3EBA JUMPI PUSH1 0x2 PUSH1 0x0 SSTORE JUMP JUMPDEST PUSH4 0x3EE5AEB5 PUSH1 0xE0 SHL PUSH1 0x0 MSTORE PUSH1 0x4 PUSH1 0x0 REVERT JUMPDEST SWAP2 PUSH1 0xFF DUP3 SLOAD AND PUSH1 0xFF PUSH1 0x4 DUP5 ADD SLOAD AND SWAP2 DUP2 SWAP4 JUMPDEST PUSH1 0xFF DUP6 AND SWAP3 DUP5 DUP5 LT ISZERO PUSH2 0x412F JUMPI PUSH1 0x3 DUP3 ADD SWAP5 DUP6 SLOAD SWAP6 PUSH1 0x40 MLOAD PUSH1 0x20 DUP2 ADD SWAP1 DUP7 DUP3 MSTORE PUSH1 0xFF PUSH1 0xF8 SHL DUP11 PUSH1 0xF8 SHL AND PUSH1 0x40 DUP3 ADD MSTORE PUSH1 0x1 DUP1 PUSH1 0xA0 SHL SUB DUP12 AND SWAP9 PUSH1 0x1 PUSH1 0x1 PUSH1 0x60 SHL SUB NOT DUP13 PUSH1 0x60 SHL AND PUSH1 0x41 DUP4 ADD MSTORE PUSH1 0x55 DUP3 ADD MSTORE PUSH1 0x55 DUP2 MSTORE PUSH2 0x3F3D PUSH1 0x75 DUP3 PUSH2 0x2DA8 JUMP JUMPDEST MLOAD SWAP1 KECCAK256 SWAP4 PUSH2 0x3F4A DUP10 PUSH2 0x305C JUMP JUMPDEST SWAP6 PUSH2 0xFFFF PUSH2 0x3F57 DUP9 PUSH2 0x2CEA JUMP JUMPDEST SWAP1 SLOAD PUSH1 0x3 SWAP2 SWAP1 SWAP2 SHL SHR AND PUSH2 0x2710 DUP8 MOD LT PUSH2 0x40D8 JUMPI POP DUP1 SLOAD PUSH2 0xFF00 NOT AND SWAP1 SSTORE PUSH1 0x4 SLOAD PUSH1 0x3 SLOAD PUSH1 0x1 PUSH1 0x1 PUSH1 0xA0 SHL SUB SWAP1 SWAP2 AND SWAP2 SWAP1 PUSH1 0xFF AND DUP3 EXTCODESIZE ISZERO PUSH2 0x31D JUMPI PUSH1 0x0 SWAP1 PUSH1 0x64 DUP11 DUP4 PUSH1 0x40 MLOAD SWAP7 DUP8 SWAP5 DUP6 SWAP4 PUSH4 0x5EC33921 PUSH1 0xE1 SHL DUP6 MSTORE PUSH1 0x4 DUP6 ADD MSTORE PUSH1 0xA PUSH1 0x24 DUP6 ADD MSTORE ISZERO ISZERO PUSH1 0x44 DUP5 ADD MSTORE GAS CALL DUP1 ISZERO PUSH2 0x40CC JUMPI PUSH32 0x8575C54594A7C9BCA9C3B4F3C0C0140D23249091D17179EF1D9B734AF81F736 SWAP11 PUSH2 0x40B6 SWAP11 DUP10 DUP12 PUSH32 0xB16FF2DFC59B3B5C2D6BACC50C8747A643E22D47CBEB5405E043ECD5CEFC41D5 PUSH1 0x80 DUP3 SWAP11 PUSH1 0x0 DUP1 MLOAD PUSH1 0x20 PUSH2 0x4479 DUP4 CODECOPY DUP2 MLOAD SWAP2 MSTORE SWAP11 PUSH1 0xA0 SWAP11 PUSH2 0x4059 SWAP10 PUSH2 0x40BB JUMPI JUMPDEST POP DUP10 SLOAD SWAP6 PUSH1 0x40 MLOAD SWAP3 DUP4 MSTORE PUSH1 0x20 DUP4 ADD MSTORE PUSH1 0x40 DUP3 ADD MSTORE PUSH1 0x0 PUSH1 0x60 DUP3 ADD MSTORE LOG3 PUSH2 0x4053 PUSH2 0x3625 JUMP JUMPDEST SWAP2 PUSH2 0x4183 JUMP JUMPDEST SLOAD SWAP5 DUP6 SWAP5 PUSH1 0xFF PUSH1 0x40 MLOAD SWAP3 DUP10 DUP5 MSTORE AND PUSH1 0x20 DUP4 ADD MSTORE PUSH1 0x0 PUSH1 0x40 DUP4 ADD MSTORE PUSH1 0x1 PUSH1 0x60 DUP4 ADD MSTORE PUSH1 0x80 DUP3 ADD MSTORE LOG3 PUSH1 0x40 MLOAD SWAP3 PUSH2 0x408D DUP5 PUSH2 0x2D3F JUMP JUMPDEST DUP4 MSTORE PUSH1 0x20 DUP4 ADD MSTORE PUSH1 0x40 DUP3 ADD MSTORE PUSH1 0x0 PUSH1 0x60 DUP3 ADD MSTORE PUSH1 0x0 PUSH1 0x80 DUP3 ADD MSTORE PUSH1 0xA PUSH1 0xA0 DUP3 ADD MSTORE PUSH2 0x38DD PUSH2 0x3625 JUMP JUMPDEST SUB SWAP1 LOG1 JUMP JUMPDEST PUSH1 0x0 PUSH2 0x40C6 SWAP2 PUSH2 0x2DA8 JUMP JUMPDEST CODESIZE PUSH2 0x402F JUMP JUMPDEST PUSH1 0x40 MLOAD RETURNDATASIZE PUSH1 0x0 DUP3 RETURNDATACOPY RETURNDATASIZE SWAP1 REVERT JUMPDEST SWAP8 SWAP1 SWAP6 SWAP2 PUSH1 0xA0 PUSH1 0x1 SWAP6 SWAP9 PUSH1 0xFF SWAP8 DUP9 PUSH1 0x0 DUP1 MLOAD PUSH1 0x20 PUSH2 0x4479 DUP4 CODECOPY DUP2 MLOAD SWAP2 MSTORE SWAP5 DUP2 SWAP9 SWAP15 SWAP9 DUP9 AND DUP3 NOT DUP14 SLOAD AND OR DUP13 SSTORE SLOAD SWAP7 PUSH1 0x40 MLOAD SWAP4 DUP5 MSTORE AND PUSH1 0x20 DUP4 ADD MSTORE DUP8 PUSH1 0x40 DUP4 ADD MSTORE PUSH1 0x0 PUSH1 0x60 DUP4 ADD MSTORE PUSH1 0x80 DUP3 ADD MSTORE LOG3 ADD AND SWAP4 SWAP3 SWAP1 PUSH2 0x3EDD JUMP JUMPDEST SWAP5 POP PUSH1 0x80 SWAP3 POP PUSH32 0xB16FF2DFC59B3B5C2D6BACC50C8747A643E22D47CBEB5405E043ECD5CEFC41D5 SWAP4 SWAP6 SWAP2 POP PUSH1 0x3 ADD SLOAD SWAP5 PUSH1 0x40 MLOAD SWAP5 DUP6 MSTORE DUP1 PUSH1 0x20 DUP7 ADD MSTORE PUSH1 0x40 DUP6 ADD MSTORE PUSH1 0x1 PUSH1 0x60 DUP6 ADD MSTORE PUSH1 0x1 DUP1 PUSH1 0xA0 SHL SUB AND SWAP3 LOG3 JUMP JUMPDEST PUSH1 0x1 PUSH1 0x1 PUSH1 0xA0 SHL SUB AND PUSH1 0x0 DUP2 DUP2 MSTORE PUSH1 0x5 PUSH1 0x20 MSTORE PUSH1 0x40 SWAP1 DUP2 SWAP1 KECCAK256 SWAP1 MLOAD SWAP1 SWAP4 SWAP2 SWAP3 SWAP1 SWAP2 PUSH2 0x41AD DUP4 PUSH2 0x2D3F JUMP JUMPDEST PUSH2 0x41E5 PUSH1 0xFF DUP7 SLOAD DUP2 DUP2 AND DUP7 MSTORE DUP2 DUP2 PUSH1 0x8 SHR AND ISZERO ISZERO PUSH1 0x20 DUP8 ADD MSTORE PUSH1 0x1 PUSH1 0x1 PUSH1 0x40 SHL SUB DUP2 PUSH1 0x10 SHR AND PUSH1 0x40 DUP8 ADD MSTORE PUSH1 0x50 SHR AND PUSH1 0x60 DUP6 ADD PUSH2 0x2F1B JUMP JUMPDEST PUSH1 0x1 DUP6 ADD SLOAD DUP1 PUSH1 0x80 DUP6 ADD MSTORE PUSH1 0x2 DUP7 ADD SLOAD SWAP1 DUP2 PUSH1 0xA0 DUP7 ADD MSTORE PUSH1 0x3 DUP8 ADD SLOAD SWAP5 PUSH1 0xE0 PUSH1 0xFF PUSH1 0x4 PUSH1 0xC0 DUP5 ADD SWAP11 DUP10 DUP13 MSTORE ADD SLOAD AND SWAP2 ADD MSTORE PUSH1 0x40 MLOAD SWAP5 PUSH2 0x4223 DUP7 PUSH2 0x2D8C JUMP JUMPDEST DUP6 MSTORE PUSH1 0x20 DUP6 ADD SWAP2 DUP7 DUP4 MSTORE PUSH1 0xFF PUSH1 0x40 DUP8 ADD SWAP6 AND DUP6 MSTORE PUSH1 0x60 DUP7 ADD SWAP1 PUSH1 0x0 DUP3 MSTORE PUSH1 0x80 DUP8 ADD SWAP4 PUSH1 0x0 DUP6 MSTORE PUSH1 0xA0 DUP9 ADD SWAP2 DUP3 MSTORE PUSH1 0xC0 DUP9 ADD SWAP3 PUSH1 0xA DUP5 MSTORE PUSH1 0xE0 DUP10 ADD SWAP5 DUP6 MSTORE PUSH2 0x100 DUP10 ADD SWAP6 TIMESTAMP DUP8 MSTORE PUSH2 0x120 DUP11 ADD SWAP8 DUP9 MSTORE PUSH2 0x140 DUP11 ADD SWAP9 PUSH1 0x1 DUP11 MSTORE DUP13 MLOAD PUSH1 0x0 MSTORE PUSH1 0x6 PUSH1 0x20 MSTORE PUSH1 0x40 PUSH1 0x0 KECCAK256 SWAP11 MLOAD DUP12 SSTORE PUSH1 0x1 DUP12 ADD SWAP4 PUSH1 0x1 DUP1 PUSH1 0xA0 SHL SUB SWAP1 PUSH1 0x1 DUP1 PUSH1 0xA0 SHL SUB SWAP1 MLOAD AND AND PUSH1 0x1 PUSH1 0x1 PUSH1 0x60 SHL SUB PUSH1 0xA0 SHL DUP6 SLOAD AND OR DUP5 SSTORE MLOAD SWAP2 DUP4 SLOAD SWAP1 PUSH1 0xFF PUSH1 0xA8 SHL SWAP1 MLOAD ISZERO ISZERO PUSH1 0xA8 SHL AND SWAP2 PUSH4 0xFFFFFFFF PUSH1 0xB0 SHL SWAP1 MLOAD PUSH1 0xB0 SHL AND SWAP3 PUSH1 0xFF PUSH1 0xA0 SHL SWAP1 PUSH1 0xA0 SHL AND SWAP1 PUSH6 0xFFFFFFFFFFFF PUSH1 0xA0 SHL NOT AND OR OR OR SWAP1 SSTORE MLOAD PUSH1 0x2 DUP8 ADD SSTORE MLOAD PUSH1 0x3 DUP7 ADD SSTORE MLOAD PUSH1 0x4 DUP6 ADD SSTORE MLOAD PUSH1 0x5 DUP5 ADD SSTORE PUSH1 0x6 DUP4 ADD SWAP1 MLOAD DUP1 MLOAD SWAP1 PUSH1 0x1 PUSH1 0x1 PUSH1 0x40 SHL SUB DUP3 GT PUSH2 0x2D5B JUMPI PUSH2 0x432E DUP4 SLOAD PUSH2 0x2D05 JUMP JUMPDEST PUSH1 0x1F DUP2 GT PUSH2 0x4430 JUMPI JUMPDEST POP PUSH1 0x20 SWAP1 PUSH1 0x1F DUP4 GT PUSH1 0x1 EQ PUSH2 0x43C1 JUMPI SWAP2 DUP1 PUSH1 0x7 SWAP5 SWAP3 PUSH2 0x4385 SWAP8 SWAP7 SWAP5 PUSH1 0x0 SWAP3 PUSH2 0x43B6 JUMPI JUMPDEST POP POP DUP2 PUSH1 0x1 SHL SWAP2 PUSH1 0x0 NOT SWAP1 PUSH1 0x3 SHL SHR NOT AND OR SWAP1 SSTORE JUMPDEST MLOAD ISZERO ISZERO SWAP2 ADD SWAP1 PUSH1 0xFF DUP1 NOT DUP4 SLOAD AND SWAP2 ISZERO ISZERO AND OR SWAP1 SSTORE JUMP JUMPDEST PUSH1 0x0 MSTORE PUSH1 0x7 PUSH1 0x20 MSTORE PUSH1 0x40 PUSH1 0x0 KECCAK256 SWAP1 MLOAD DUP2 SLOAD SWAP2 PUSH1 0x1 PUSH1 0x40 SHL DUP4 LT ISZERO PUSH2 0x2D5B JUMPI DUP3 PUSH2 0x3C7E SWAP2 PUSH1 0x1 PUSH2 0x2E02 SWAP6 ADD DUP2 SSTORE PUSH2 0x2EC7 JUMP JUMPDEST ADD MLOAD SWAP1 POP CODESIZE DUP1 PUSH2 0x435A JUMP JUMPDEST SWAP1 PUSH1 0x1F NOT DUP4 AND SWAP2 DUP5 PUSH1 0x0 MSTORE DUP2 PUSH1 0x0 KECCAK256 SWAP3 PUSH1 0x0 JUMPDEST DUP2 DUP2 LT PUSH2 0x4418 JUMPI POP SWAP3 PUSH1 0x1 SWAP3 DUP6 SWAP3 PUSH2 0x4385 SWAP10 SWAP9 SWAP7 PUSH1 0x7 SWAP9 SWAP7 LT PUSH2 0x43FF JUMPI JUMPDEST POP POP POP DUP2 SHL ADD SWAP1 SSTORE PUSH2 0x436F JUMP JUMPDEST ADD MLOAD PUSH1 0x0 NOT PUSH1 0xF8 DUP5 PUSH1 0x3 SHL AND SHR NOT AND SWAP1 SSTORE CODESIZE DUP1 DUP1 PUSH2 0x43F2 JUMP JUMPDEST SWAP3 SWAP4 PUSH1 0x20 PUSH1 0x1 DUP2 SWAP3 DUP8 DUP7 ADD MLOAD DUP2 SSTORE ADD SWAP6 ADD SWAP4 ADD PUSH2 0x43D4 JUMP JUMPDEST DUP4 PUSH1 0x0 MSTORE PUSH1 0x20 PUSH1 0x0 KECCAK256 PUSH1 0x1F DUP5 ADD PUSH1 0x5 SHR DUP2 ADD SWAP2 PUSH1 0x20 DUP6 LT PUSH2 0x446E JUMPI JUMPDEST PUSH1 0x1F ADD PUSH1 0x5 SHR ADD SWAP1 JUMPDEST DUP2 DUP2 LT PUSH2 0x4462 JUMPI POP PUSH2 0x4337 JUMP JUMPDEST PUSH1 0x0 DUP2 SSTORE PUSH1 0x1 ADD PUSH2 0x4455 JUMP JUMPDEST SWAP1 SWAP2 POP DUP2 SWAP1 PUSH2 0x444C JUMP INVALID 0xFB PC CALLCODE SWAP15 AND 0xC9 CODESIZE 0xD8 MSTORE8 BLOCKHASH REVERT 0xC0 STATICCALL CREATE2 0xE7 ADD SMOD SGT RETURNDATACOPY EXTCODEHASH 0x26 DUP11 0xB9 0xB6 0x21 MSTORE CALLER 0x22 PUSH27 0x77C12A26469706673582212208C365A17A66A16FCD5ED952F44BF 0xA8 SSTORE PUSH20 0x5EB8F1778B947D82892BE5D973D5D64736F6C63 NUMBER STOP ADDMOD SHR STOP CALLER "},"methodIdentifiers":{"MAX_LEVEL()":"a49062d4","MIN_CASHOUT_LEVEL()":"26c1f13e","MIN_DEPOSIT()":"e1e158a5","MULTIPLIER_PRECISION()":"b309483a","ODDS_PRECISION()":"6bc98ba3","_entropyCallback(uint64,address,bytes32)":"52a5f1f8","autoClimb(uint8)":"c92329c2","canPlayerAutoClimb(address,uint8)":"1df195a5","canPlayerCashOut(address)":"3cddb89a","canPlayerClimb(address)":"1d334884","cashOut()":"793cd71e","climb()":"a5432fee","completedGames(uint256)":"4d30372d","depositFunds()":"e2c41dbc","getAllLevelInfo()":"5de70476","getAllMultipliers()":"efedf50b","getAllOdds()":"eeebba29","getAllPointMultipliers()":"d076d5a0","getAutoClimbPathDetails(address,uint8)":"1408f686","getAutoClimbSuccessProbability(address,uint8)":"90ad2a20","getClimbOdds(address)":"c3e71670","getCompletedGame(uint256)":"d82c4cc3","getContractBalance()":"6f9fb98a","getLevelInfo(uint8)":"6e37da1b","getMultiplier(uint8)":"0b072b8d","getOdds(uint8)":"2f912e2e","getPlayerGame(address)":"ce00348f","getPlayerGameCount(address)":"f25764b5","getPlayerGameHistory(address)":"4e1523dc","getPlayerGameHistoryPaginated(address,uint256,uint256)":"2a39298e","getPlayerStats(address)":"4fd66eae","getPointMultiplier(uint8)":"ba24d2e3","getPotentialPayout(address,uint8,bool)":"39ab2404","getSuccessThreshold(uint8)":"4c629da4","isClimbSuccessful(uint256,uint8)":"e4ab043d","isPointsPayout(uint256)":"24448c63","maxDeposit()":"6083e59a","multiplier(uint256)":"05e30f51","odds(uint256)":"46156ea0","owner()":"8da5cb5b","playerGameHistory(address,uint256)":"93128735","playerGames(address)":"40056505","pointMultiplier(uint256)":"2c5f9947","pointsAreWithdrawable()":"dd813788","pointsContract()":"2b4f8a1f","renounceOwnership()":"715018a6","setMaxDeposit(uint256)":"bb371fdd","setPointsContract(address)":"95754abb","setPointsWithdrawable(bool)":"6805267e","startGame()":"d65ab5f2","totalGamesPlayed()":"5c492129","transferOwnership(address)":"f2fde38b","withdraw(uint256)":"2e1a7d4d"}}}}}