{"contracts/TowerClimb.sol":{"TowerClimb":{"abi":[{"inputs":[],"stateMutability":"nonpayable","type":"constructor"},{"inputs":[{"internalType":"address","name":"owner","type":"address"}],"name":"OwnableInvalidOwner","type":"error"},{"inputs":[{"internalType":"address","name":"account","type":"address"}],"name":"OwnableUnauthorizedAccount","type":"error"},{"inputs":[],"name":"ReentrancyGuardReentrantCall","type":"error"},{"anonymous":false,"inputs":[{"indexed":false,"internalType":"address[]","name":"winners","type":"address[]"}],"name":"GameEnded","type":"event"},{"anonymous":false,"inputs":[{"indexed":false,"internalType":"address[]","name":"players","type":"address[]"}],"name":"GameInitialized","type":"event"},{"anonymous":false,"inputs":[],"name":"GameReset","type":"event"},{"anonymous":false,"inputs":[],"name":"GameStarted","type":"event"},{"anonymous":false,"inputs":[{"indexed":true,"internalType":"address","name":"player","type":"address"},{"indexed":false,"internalType":"uint8","name":"move","type":"uint8"}],"name":"MoveSubmitted","type":"event"},{"anonymous":false,"inputs":[{"indexed":true,"internalType":"address","name":"previousOwner","type":"address"},{"indexed":true,"internalType":"address","name":"newOwner","type":"address"}],"name":"OwnershipTransferred","type":"event"},{"anonymous":false,"inputs":[{"indexed":true,"internalType":"address","name":"player","type":"address"}],"name":"PlayerEliminated","type":"event"},{"anonymous":false,"inputs":[{"indexed":true,"internalType":"address","name":"player","type":"address"}],"name":"PlayerWon","type":"event"},{"anonymous":false,"inputs":[{"indexed":false,"internalType":"uint256","name":"roundNumber","type":"uint256"}],"name":"RoundStarted","type":"event"},{"inputs":[],"name":"capPerFloor","outputs":[{"internalType":"uint256","name":"","type":"uint256"}],"stateMutability":"view","type":"function"},{"inputs":[{"internalType":"address","name":"","type":"address"}],"name":"currentLevel","outputs":[{"internalType":"uint8","name":"","type":"uint8"}],"stateMutability":"view","type":"function"},{"inputs":[],"name":"currentRound","outputs":[{"internalType":"uint256","name":"","type":"uint256"}],"stateMutability":"view","type":"function"},{"inputs":[],"name":"endRound","outputs":[],"stateMutability":"nonpayable","type":"function"},{"inputs":[],"name":"gameStart","outputs":[],"stateMutability":"nonpayable","type":"function"},{"inputs":[],"name":"gameState","outputs":[{"internalType":"enum TowerClimb.GameState","name":"","type":"uint8"}],"stateMutability":"view","type":"function"},{"inputs":[],"name":"getActivePlayers","outputs":[{"internalType":"address[]","name":"","type":"address[]"}],"stateMutability":"view","type":"function"},{"inputs":[{"internalType":"address","name":"player","type":"address"}],"name":"getCurrentLevel","outputs":[{"internalType":"uint8","name":"","type":"uint8"}],"stateMutability":"view","type":"function"},{"inputs":[],"name":"getWinners","outputs":[{"internalType":"address[]","name":"","type":"address[]"}],"stateMutability":"view","type":"function"},{"inputs":[{"internalType":"address[]","name":"_players","type":"address[]"}],"name":"initializeGame","outputs":[],"stateMutability":"nonpayable","type":"function"},{"inputs":[{"internalType":"address","name":"","type":"address"}],"name":"isActive","outputs":[{"internalType":"bool","name":"","type":"bool"}],"stateMutability":"view","type":"function"},{"inputs":[],"name":"owner","outputs":[{"internalType":"address","name":"","type":"address"}],"stateMutability":"view","type":"function"},{"inputs":[{"internalType":"uint256","name":"","type":"uint256"}],"name":"players","outputs":[{"internalType":"address","name":"","type":"address"}],"stateMutability":"view","type":"function"},{"inputs":[],"name":"renounceOwnership","outputs":[],"stateMutability":"nonpayable","type":"function"},{"inputs":[],"name":"resetGame","outputs":[],"stateMutability":"nonpayable","type":"function"},{"inputs":[],"name":"startRound","outputs":[],"stateMutability":"nonpayable","type":"function"},{"inputs":[],"name":"submissionDeadline","outputs":[{"internalType":"uint256","name":"","type":"uint256"}],"stateMutability":"view","type":"function"},{"inputs":[{"internalType":"uint8","name":"move","type":"uint8"}],"name":"submitMove","outputs":[],"stateMutability":"nonpayable","type":"function"},{"inputs":[{"internalType":"address","name":"","type":"address"}],"name":"submittedMove","outputs":[{"internalType":"uint8","name":"","type":"uint8"}],"stateMutability":"view","type":"function"},{"inputs":[],"name":"targetWinners","outputs":[{"internalType":"uint256","name":"","type":"uint256"}],"stateMutability":"view","type":"function"},{"inputs":[{"internalType":"address","name":"newOwner","type":"address"}],"name":"transferOwnership","outputs":[],"stateMutability":"nonpayable","type":"function"},{"inputs":[{"internalType":"uint256","name":"","type":"uint256"}],"name":"winners","outputs":[{"internalType":"address","name":"","type":"address"}],"stateMutability":"view","type":"function"}],"evm":{"bytecode":{"linkReferences":{},"object":"6080604052348015600f57600080fd5b503380603557604051631e4fbdf760e01b81526000600482015260240160405180910390fd5b603c81604f565b50600180556007805460ff19169055609f565b600080546001600160a01b038381166001600160a01b0319831681178455604051919092169283917f8be0079c531659141344cd1fd0a4f28419497f9722a3daafe3b4186f6b6457e09190a35050565b6116ea806100ae6000396000f3fe608060405234801561001057600080fd5b50600436106101425760003560e01c80639f8a13d7116100b8578063d90870251161007c578063d9087025146102a4578063df15c37e146102d0578063e1ff3b33146102d8578063f2fde38b146102eb578063f71d96cb146102fe578063f9c551151461031157600080fd5b80639f8a13d714610219578063a2fb11751461024c578063bb4722191461025f578063cce3775314610267578063d1f9c24d1461028a57600080fd5b8063626b6efa1161010a578063626b6efa14610193578063691a037a146101a6578063715018a6146101db578063749aa2d9146101e35780638a19c8bc146101eb5780638da5cb5b146101f457600080fd5b80631dda5c3c146101475780633218b99d146101635780633c4f5a661461016d5780634315214f1461018257806355e3f0861461018b575b600080fd5b610150600a5481565b6040519081526020015b60405180910390f35b61016b61031a565b005b6101756103b5565b60405161015a91906113d1565b61015060095481565b61016b610533565b61016b6101a136600461144f565b6105fa565b6101c96101b436600461151f565b60036020526000908152604090205460ff1681565b60405160ff909116815260200161015a565b61016b610894565b61016b6108a8565b61015060065481565b6000546001600160a01b03165b6040516001600160a01b03909116815260200161015a565b61023c61022736600461151f565b60046020526000908152604090205460ff1681565b604051901515815260200161015a565b61020161025a366004611541565b610923565b61016b61094d565b6101c961027536600461151f565b60056020526000908152604090205460ff1681565b6007546102979060ff1681565b60405161015a9190611570565b6101c96102b236600461151f565b6001600160a01b031660009081526003602052604090205460ff1690565b610175610a2e565b61016b6102e6366004611598565b610aeb565b61016b6102f936600461151f565b610c52565b61020161030c366004611541565b610c8d565b61015060085481565b610322610c9d565b600160075460ff16600581111561033b5761033b61155a565b1461037d5760405162461bcd60e51b815260206004820152600d60248201526c496e76616c696420737461746560981b60448201526064015b60405180910390fd5b6007805460ff191660021790556040517f762f260439bb4be3ef6e4dc2786e2e7bd187d3d80b79057d7a424fe98563e33590600090a1565b60606000805b60025481101561041f5760046000600283815481106103dc576103dc6115bb565b60009182526020808320909101546001600160a01b0316835282019290925260400190205460ff16156104175781610413816115e7565b9250505b6001016103bb565b5060008167ffffffffffffffff81111561043b5761043b61141d565b604051908082528060200260200182016040528015610464578160200160208202803683370190505b5090506000805b60025481101561052a57600460006002838154811061048c5761048c6115bb565b60009182526020808320909101546001600160a01b0316835282019290925260400190205460ff161561052257600281815481106104cc576104cc6115bb565b9060005260206000200160009054906101000a90046001600160a01b03168383815181106104fc576104fc6115bb565b6001600160a01b03909216602092830291909101909101528161051e816115e7565b9250505b60010161046b565b50909392505050565b61053b610c9d565b600260075460ff1660058111156105545761055461155a565b146105915760405162461bcd60e51b815260206004820152600d60248201526c496e76616c696420737461746560981b6044820152606401610374565b600680549060006105a1836115e7565b909155506105b29050426078611600565b6008556007805460ff191660031790556006546040519081527f33a701182892fd888ed152ca2ac23771a32e814469b7cd255965471e1af3a6599060200160405180910390a1565b610602610c9d565b600060075460ff16600581111561061b5761061b61155a565b1461065e5760405162461bcd60e51b8152602060048201526013602482015272105b1c9958591e481a5b9a5d1a585b1a5e9959606a1b6044820152606401610374565b600a81511015801561067b575060028151610679919061162f565b155b6106c75760405162461bcd60e51b815260206004820152601960248201527f496e76616c6964206e756d626572206f6620706c6179657273000000000000006044820152606401610374565b80516106d4600282611643565b600a5560026106e4600583611643565b6106ee9190611643565b60095560005b81811015610836576000838281518110610710576107106115bb565b6020026020010151905061072c6000546001600160a01b031690565b6001600160a01b0316816001600160a01b03160361078c5760405162461bcd60e51b815260206004820152601860248201527f4f776e65722063616e6e6f74206265206120706c6179657200000000000000006044820152606401610374565b6001600160a01b03811660009081526004602052604090205460ff16156107e85760405162461bcd60e51b815260206004820152601060248201526f223ab83634b1b0ba3290383630bcb2b960811b6044820152606401610374565b6001600160a01b03166000908152600460209081526040808320805460ff1990811660019081179092556003845282852080548216905560059093529220805490911660ff179055016106f4565b50815161084a90600290602085019061131a565b506007805460ff191660011790556040517f6eacfb5c564550062d63db1e6b776e148fdab72b3bfc3cecf9f9f382b875472b906108889084906113d1565b60405180910390a15050565b61089c610c9d565b6108a66000610cca565b565b6108b0610c9d565b600360075460ff1660058111156108c9576108c961155a565b1480156108d857506008544210155b61091b5760405162461bcd60e51b815260206004820152601460248201527310d85b9b9bdd08195b99081c9bdd5b99081e595d60621b6044820152606401610374565b6108a6610d1a565b600b818154811061093357600080fd5b6000918252602090912001546001600160a01b0316905081565b610955610c9d565b60005b6002548110156109cc57600060028281548110610977576109776115bb565b60009182526020808320909101546001600160a01b03168252600381526040808320805460ff19908116909155600483528184208054821690556005909252909120805490911660ff17905550600101610958565b506109d96002600061137f565b6109e5600b600061137f565b600060068190556007805460ff1916905560088190556009819055600a8190556040517fc6976b6410888b44c765590c8368eb4a60e0431d4ad683c8a53ea85a8479f22e9190a1565b6060600560075460ff166005811115610a4957610a4961155a565b14610a8b5760405162461bcd60e51b815260206004820152601260248201527111d85b59481b9bdd08195b991959081e595d60721b6044820152606401610374565b600b805480602002602001604051908101604052809291908181526020018280548015610ae157602002820191906000526020600020905b81546001600160a01b03168152600190910190602001808311610ac3575b5050505050905090565b610af36112f0565b600360075460ff166005811115610b0c57610b0c61155a565b148015610b1a575060085442105b610b5a5760405162461bcd60e51b815260206004820152601160248201527043616e6e6f74207375626d6974206e6f7760781b6044820152606401610374565b3360009081526004602052604090205460ff16610bb05760405162461bcd60e51b81526020600482015260146024820152732737ba1030b71030b1ba34bb3290383630bcb2b960611b6044820152606401610374565b60058160ff161115610bf35760405162461bcd60e51b815260206004820152600c60248201526b496e76616c6964206d6f766560a01b6044820152606401610374565b33600081815260056020908152604091829020805460ff191660ff861690811790915591519182527f188e951d9711134151ca8bed640c2d451f586e1e8e1eb16f90539d7e33ce9b7b910160405180910390a2610c4f60018055565b50565b610c5a610c9d565b6001600160a01b038116610c8457604051631e4fbdf760e01b815260006004820152602401610374565b610c4f81610cca565b6002818154811061093357600080fd5b6000546001600160a01b031633146108a65760405163118cdaa760e01b8152336004820152602401610374565b600080546001600160a01b038381166001600160a01b0319831681178455604051919092169283917f8be0079c531659141344cd1fd0a4f28419497f9722a3daafe3b4186f6b6457e09190a35050565b6007805460ff1916600417905560005b600254811015610e6e57600060028281548110610d4957610d496115bb565b60009182526020808320909101546001600160a01b0316808352600490915260409091205490915060ff1615610e65576001600160a01b03811660009081526005602052604081205460ff9081169003610da4576000610dc1565b6001600160a01b03821660009081526005602052604090205460ff165b6001600160a01b03831660009081526003602052604081205491925090610dec90839060ff16611657565b905060328160ff161115610dfe575060325b6001600160a01b0383166000908152600360205260409020805460ff191660ff8316908117909155603203610e62576040516001600160a01b038416907f970f935ee01502df35da11db45c29bdd97d8f41d5a0640c1dc3bd96c67f9798790600090a25b50505b50600101610d2a565b50610e7761139d565b6000805b600254811015610f5257600060028281548110610e9a57610e9a6115bb565b60009182526020808320909101546001600160a01b0316808352600490915260409091205490915060ff1615610f49576001600160a01b03811660009081526003602052604090205460ff166032819003610f015783610ef9816115e7565b945050610f47565b60018160ff1610158015610f19575060318160ff1611155b15610f4757848160ff1660328110610f3357610f336115bb565b60200201805190610f43826115e7565b9052505b505b50600101610e7b565b5060015b6031811161105a57600954838260328110610f7357610f736115bb565b602002015111156110485760005b60025481101561104657600060028281548110610fa057610fa06115bb565b60009182526020808320909101546001600160a01b0316808352600390915260409091205490915060ff1683148015610ff157506001600160a01b03811660009081526004602052604090205460ff165b1561103d576001600160a01b038116600081815260046020526040808220805460ff19169055517f9ab74d043ba19fd15c3afcaf30decddeff525822b002d45e80c80ac800d41a299190a25b50600101610f81565b505b80611052816115e7565b915050610f56565b506000805b6002548110156110c3576004600060028381548110611080576110806115bb565b60009182526020808320909101546001600160a01b0316835282019290925260400190205460ff16156110bb57816110b7816115e7565b9250505b60010161105f565b50600a5482106111c55760005b6002548110156111795760036000600283815481106110f1576110f16115bb565b60009182526020808320909101546001600160a01b0316835282019290925260400190205460ff1660320361117157600b60028281548110611135576111356115bb565b60009182526020808320909101548354600181018555938352912090910180546001600160a01b0319166001600160a01b039092169190911790555b6001016110d0565b506007805460ff191660051790556040517f79316fa24603d03bcfa9afb308d47aaa8a9b3448543623891e91aca882fb5c75906111b890600b90611670565b60405180910390a1505050565b600a5481116112785760005b6002548110156111795760046000600283815481106111f2576111f26115bb565b60009182526020808320909101546001600160a01b0316835282019290925260400190205460ff161561127057600b60028281548110611234576112346115bb565b60009182526020808320909101548354600181018555938352912090910180546001600160a01b0319166001600160a01b039092169190911790555b6001016111d1565b60005b6002548110156112dd5760ff600560006002848154811061129e5761129e6115bb565b6000918252602080832091909101546001600160a01b031683528201929092526040019020805460ff191660ff9290921691909117905560010161127b565b50506007805460ff191660021790555050565b60026001540361131357604051633ee5aeb560e01b815260040160405180910390fd5b6002600155565b82805482825590600052602060002090810192821561136f579160200282015b8281111561136f57825182546001600160a01b0319166001600160a01b0390911617825560209092019160019091019061133a565b5061137b9291506113bc565b5090565b5080546000825590600052602060002090810190610c4f91906113bc565b6040518061064001604052806032906020820280368337509192915050565b5b8082111561137b57600081556001016113bd565b602080825282518282018190526000918401906040840190835b818110156114125783516001600160a01b03168352602093840193909201916001016113eb565b509095945050505050565b634e487b7160e01b600052604160045260246000fd5b80356001600160a01b038116811461144a57600080fd5b919050565b60006020828403121561146157600080fd5b813567ffffffffffffffff81111561147857600080fd5b8201601f8101841361148957600080fd5b803567ffffffffffffffff8111156114a3576114a361141d565b8060051b604051601f19603f830116810181811067ffffffffffffffff821117156114d0576114d061141d565b6040529182526020818401810192908101878411156114ee57600080fd5b6020850194505b838510156115145761150685611433565b8152602094850194016114f5565b509695505050505050565b60006020828403121561153157600080fd5b61153a82611433565b9392505050565b60006020828403121561155357600080fd5b5035919050565b634e487b7160e01b600052602160045260246000fd5b602081016006831061159257634e487b7160e01b600052602160045260246000fd5b91905290565b6000602082840312156115aa57600080fd5b813560ff8116811461153a57600080fd5b634e487b7160e01b600052603260045260246000fd5b634e487b7160e01b600052601160045260246000fd5b6000600182016115f9576115f96115d1565b5060010190565b80820180821115611613576116136115d1565b92915050565b634e487b7160e01b600052601260045260246000fd5b60008261163e5761163e611619565b500690565b60008261165257611652611619565b500490565b60ff8181168382160190811115611613576116136115d1565b602080825282548282018190526000848152918220906040840190835b818110156114125783546001600160a01b031683526001938401936020909301920161168d56fea26469706673582212203dbc8ed654e64c4c78a8a199dd3439e06219257796e9048e413d577fefbfff5c64736f6c634300081c0033","opcodes":"PUSH1 0x80 PUSH1 0x40 MSTORE CALLVALUE DUP1 ISZERO PUSH1 0xF JUMPI PUSH1 0x0 DUP1 REVERT JUMPDEST POP CALLER DUP1 PUSH1 0x35 JUMPI PUSH1 0x40 MLOAD PUSH4 0x1E4FBDF7 PUSH1 0xE0 SHL DUP2 MSTORE PUSH1 0x0 PUSH1 0x4 DUP3 ADD MSTORE PUSH1 0x24 ADD PUSH1 0x40 MLOAD DUP1 SWAP2 SUB SWAP1 REVERT JUMPDEST PUSH1 0x3C DUP2 PUSH1 0x4F JUMP JUMPDEST POP PUSH1 0x1 DUP1 SSTORE PUSH1 0x7 DUP1 SLOAD PUSH1 0xFF NOT AND SWAP1 SSTORE PUSH1 0x9F JUMP JUMPDEST PUSH1 0x0 DUP1 SLOAD PUSH1 0x1 PUSH1 0x1 PUSH1 0xA0 SHL SUB DUP4 DUP2 AND PUSH1 0x1 PUSH1 0x1 PUSH1 0xA0 SHL SUB NOT DUP4 AND DUP2 OR DUP5 SSTORE PUSH1 0x40 MLOAD SWAP2 SWAP1 SWAP3 AND SWAP3 DUP4 SWAP2 PUSH32 0x8BE0079C531659141344CD1FD0A4F28419497F9722A3DAAFE3B4186F6B6457E0 SWAP2 SWAP1 LOG3 POP POP JUMP JUMPDEST PUSH2 0x16EA DUP1 PUSH2 0xAE PUSH1 0x0 CODECOPY PUSH1 0x0 RETURN INVALID PUSH1 0x80 PUSH1 0x40 MSTORE CALLVALUE DUP1 ISZERO PUSH2 0x10 JUMPI PUSH1 0x0 DUP1 REVERT JUMPDEST POP PUSH1 0x4 CALLDATASIZE LT PUSH2 0x142 JUMPI PUSH1 0x0 CALLDATALOAD PUSH1 0xE0 SHR DUP1 PUSH4 0x9F8A13D7 GT PUSH2 0xB8 JUMPI DUP1 PUSH4 0xD9087025 GT PUSH2 0x7C JUMPI DUP1 PUSH4 0xD9087025 EQ PUSH2 0x2A4 JUMPI DUP1 PUSH4 0xDF15C37E EQ PUSH2 0x2D0 JUMPI DUP1 PUSH4 0xE1FF3B33 EQ PUSH2 0x2D8 JUMPI DUP1 PUSH4 0xF2FDE38B EQ PUSH2 0x2EB JUMPI DUP1 PUSH4 0xF71D96CB EQ PUSH2 0x2FE JUMPI DUP1 PUSH4 0xF9C55115 EQ PUSH2 0x311 JUMPI PUSH1 0x0 DUP1 REVERT JUMPDEST DUP1 PUSH4 0x9F8A13D7 EQ PUSH2 0x219 JUMPI DUP1 PUSH4 0xA2FB1175 EQ PUSH2 0x24C JUMPI DUP1 PUSH4 0xBB472219 EQ PUSH2 0x25F JUMPI DUP1 PUSH4 0xCCE37753 EQ PUSH2 0x267 JUMPI DUP1 PUSH4 0xD1F9C24D EQ PUSH2 0x28A JUMPI PUSH1 0x0 DUP1 REVERT JUMPDEST DUP1 PUSH4 0x626B6EFA GT PUSH2 0x10A JUMPI DUP1 PUSH4 0x626B6EFA EQ PUSH2 0x193 JUMPI DUP1 PUSH4 0x691A037A EQ PUSH2 0x1A6 JUMPI DUP1 PUSH4 0x715018A6 EQ PUSH2 0x1DB JUMPI DUP1 PUSH4 0x749AA2D9 EQ PUSH2 0x1E3 JUMPI DUP1 PUSH4 0x8A19C8BC EQ PUSH2 0x1EB JUMPI DUP1 PUSH4 0x8DA5CB5B EQ PUSH2 0x1F4 JUMPI PUSH1 0x0 DUP1 REVERT JUMPDEST DUP1 PUSH4 0x1DDA5C3C EQ PUSH2 0x147 JUMPI DUP1 PUSH4 0x3218B99D EQ PUSH2 0x163 JUMPI DUP1 PUSH4 0x3C4F5A66 EQ PUSH2 0x16D JUMPI DUP1 PUSH4 0x4315214F EQ PUSH2 0x182 JUMPI DUP1 PUSH4 0x55E3F086 EQ PUSH2 0x18B JUMPI JUMPDEST PUSH1 0x0 DUP1 REVERT JUMPDEST PUSH2 0x150 PUSH1 0xA SLOAD DUP2 JUMP JUMPDEST PUSH1 0x40 MLOAD SWAP1 DUP2 MSTORE PUSH1 0x20 ADD JUMPDEST PUSH1 0x40 MLOAD DUP1 SWAP2 SUB SWAP1 RETURN JUMPDEST PUSH2 0x16B PUSH2 0x31A JUMP JUMPDEST STOP JUMPDEST PUSH2 0x175 PUSH2 0x3B5 JUMP JUMPDEST PUSH1 0x40 MLOAD PUSH2 0x15A SWAP2 SWAP1 PUSH2 0x13D1 JUMP JUMPDEST PUSH2 0x150 PUSH1 0x9 SLOAD DUP2 JUMP JUMPDEST PUSH2 0x16B PUSH2 0x533 JUMP JUMPDEST PUSH2 0x16B PUSH2 0x1A1 CALLDATASIZE PUSH1 0x4 PUSH2 0x144F JUMP JUMPDEST PUSH2 0x5FA JUMP JUMPDEST PUSH2 0x1C9 PUSH2 0x1B4 CALLDATASIZE PUSH1 0x4 PUSH2 0x151F JUMP JUMPDEST PUSH1 0x3 PUSH1 0x20 MSTORE PUSH1 0x0 SWAP1 DUP2 MSTORE PUSH1 0x40 SWAP1 KECCAK256 SLOAD PUSH1 0xFF AND DUP2 JUMP JUMPDEST PUSH1 0x40 MLOAD PUSH1 0xFF SWAP1 SWAP2 AND DUP2 MSTORE PUSH1 0x20 ADD PUSH2 0x15A JUMP JUMPDEST PUSH2 0x16B PUSH2 0x894 JUMP JUMPDEST PUSH2 0x16B PUSH2 0x8A8 JUMP JUMPDEST PUSH2 0x150 PUSH1 0x6 SLOAD DUP2 JUMP JUMPDEST PUSH1 0x0 SLOAD PUSH1 0x1 PUSH1 0x1 PUSH1 0xA0 SHL SUB AND JUMPDEST PUSH1 0x40 MLOAD PUSH1 0x1 PUSH1 0x1 PUSH1 0xA0 SHL SUB SWAP1 SWAP2 AND DUP2 MSTORE PUSH1 0x20 ADD PUSH2 0x15A JUMP JUMPDEST PUSH2 0x23C PUSH2 0x227 CALLDATASIZE PUSH1 0x4 PUSH2 0x151F JUMP JUMPDEST PUSH1 0x4 PUSH1 0x20 MSTORE PUSH1 0x0 SWAP1 DUP2 MSTORE PUSH1 0x40 SWAP1 KECCAK256 SLOAD PUSH1 0xFF AND DUP2 JUMP JUMPDEST PUSH1 0x40 MLOAD SWAP1 ISZERO ISZERO DUP2 MSTORE PUSH1 0x20 ADD PUSH2 0x15A JUMP JUMPDEST PUSH2 0x201 PUSH2 0x25A CALLDATASIZE PUSH1 0x4 PUSH2 0x1541 JUMP JUMPDEST PUSH2 0x923 JUMP JUMPDEST PUSH2 0x16B PUSH2 0x94D JUMP JUMPDEST PUSH2 0x1C9 PUSH2 0x275 CALLDATASIZE PUSH1 0x4 PUSH2 0x151F JUMP JUMPDEST PUSH1 0x5 PUSH1 0x20 MSTORE PUSH1 0x0 SWAP1 DUP2 MSTORE PUSH1 0x40 SWAP1 KECCAK256 SLOAD PUSH1 0xFF AND DUP2 JUMP JUMPDEST PUSH1 0x7 SLOAD PUSH2 0x297 SWAP1 PUSH1 0xFF AND DUP2 JUMP JUMPDEST PUSH1 0x40 MLOAD PUSH2 0x15A SWAP2 SWAP1 PUSH2 0x1570 JUMP JUMPDEST PUSH2 0x1C9 PUSH2 0x2B2 CALLDATASIZE PUSH1 0x4 PUSH2 0x151F JUMP JUMPDEST PUSH1 0x1 PUSH1 0x1 PUSH1 0xA0 SHL SUB AND PUSH1 0x0 SWAP1 DUP2 MSTORE PUSH1 0x3 PUSH1 0x20 MSTORE PUSH1 0x40 SWAP1 KECCAK256 SLOAD PUSH1 0xFF AND SWAP1 JUMP JUMPDEST PUSH2 0x175 PUSH2 0xA2E JUMP JUMPDEST PUSH2 0x16B PUSH2 0x2E6 CALLDATASIZE PUSH1 0x4 PUSH2 0x1598 JUMP JUMPDEST PUSH2 0xAEB JUMP JUMPDEST PUSH2 0x16B PUSH2 0x2F9 CALLDATASIZE PUSH1 0x4 PUSH2 0x151F JUMP JUMPDEST PUSH2 0xC52 JUMP JUMPDEST PUSH2 0x201 PUSH2 0x30C CALLDATASIZE PUSH1 0x4 PUSH2 0x1541 JUMP JUMPDEST PUSH2 0xC8D JUMP JUMPDEST PUSH2 0x150 PUSH1 0x8 SLOAD DUP2 JUMP JUMPDEST PUSH2 0x322 PUSH2 0xC9D JUMP JUMPDEST PUSH1 0x1 PUSH1 0x7 SLOAD PUSH1 0xFF AND PUSH1 0x5 DUP2 GT ISZERO PUSH2 0x33B JUMPI PUSH2 0x33B PUSH2 0x155A JUMP JUMPDEST EQ PUSH2 0x37D JUMPI PUSH1 0x40 MLOAD PUSH3 0x461BCD PUSH1 0xE5 SHL DUP2 MSTORE PUSH1 0x20 PUSH1 0x4 DUP3 ADD MSTORE PUSH1 0xD PUSH1 0x24 DUP3 ADD MSTORE PUSH13 0x496E76616C6964207374617465 PUSH1 0x98 SHL PUSH1 0x44 DUP3 ADD MSTORE PUSH1 0x64 ADD JUMPDEST PUSH1 0x40 MLOAD DUP1 SWAP2 SUB SWAP1 REVERT JUMPDEST PUSH1 0x7 DUP1 SLOAD PUSH1 0xFF NOT AND PUSH1 0x2 OR SWAP1 SSTORE PUSH1 0x40 MLOAD PUSH32 0x762F260439BB4BE3EF6E4DC2786E2E7BD187D3D80B79057D7A424FE98563E335 SWAP1 PUSH1 0x0 SWAP1 LOG1 JUMP JUMPDEST PUSH1 0x60 PUSH1 0x0 DUP1 JUMPDEST PUSH1 0x2 SLOAD DUP2 LT ISZERO PUSH2 0x41F JUMPI PUSH1 0x4 PUSH1 0x0 PUSH1 0x2 DUP4 DUP2 SLOAD DUP2 LT PUSH2 0x3DC JUMPI PUSH2 0x3DC PUSH2 0x15BB JUMP JUMPDEST PUSH1 0x0 SWAP2 DUP3 MSTORE PUSH1 0x20 DUP1 DUP4 KECCAK256 SWAP1 SWAP2 ADD SLOAD PUSH1 0x1 PUSH1 0x1 PUSH1 0xA0 SHL SUB AND DUP4 MSTORE DUP3 ADD SWAP3 SWAP1 SWAP3 MSTORE PUSH1 0x40 ADD SWAP1 KECCAK256 SLOAD PUSH1 0xFF AND ISZERO PUSH2 0x417 JUMPI DUP2 PUSH2 0x413 DUP2 PUSH2 0x15E7 JUMP JUMPDEST SWAP3 POP POP JUMPDEST PUSH1 0x1 ADD PUSH2 0x3BB JUMP JUMPDEST POP PUSH1 0x0 DUP2 PUSH8 0xFFFFFFFFFFFFFFFF DUP2 GT ISZERO PUSH2 0x43B JUMPI PUSH2 0x43B PUSH2 0x141D JUMP JUMPDEST PUSH1 0x40 MLOAD SWAP1 DUP1 DUP3 MSTORE DUP1 PUSH1 0x20 MUL PUSH1 0x20 ADD DUP3 ADD PUSH1 0x40 MSTORE DUP1 ISZERO PUSH2 0x464 JUMPI DUP2 PUSH1 0x20 ADD PUSH1 0x20 DUP3 MUL DUP1 CALLDATASIZE DUP4 CALLDATACOPY ADD SWAP1 POP JUMPDEST POP SWAP1 POP PUSH1 0x0 DUP1 JUMPDEST PUSH1 0x2 SLOAD DUP2 LT ISZERO PUSH2 0x52A JUMPI PUSH1 0x4 PUSH1 0x0 PUSH1 0x2 DUP4 DUP2 SLOAD DUP2 LT PUSH2 0x48C JUMPI PUSH2 0x48C PUSH2 0x15BB JUMP JUMPDEST PUSH1 0x0 SWAP2 DUP3 MSTORE PUSH1 0x20 DUP1 DUP4 KECCAK256 SWAP1 SWAP2 ADD SLOAD PUSH1 0x1 PUSH1 0x1 PUSH1 0xA0 SHL SUB AND DUP4 MSTORE DUP3 ADD SWAP3 SWAP1 SWAP3 MSTORE PUSH1 0x40 ADD SWAP1 KECCAK256 SLOAD PUSH1 0xFF AND ISZERO PUSH2 0x522 JUMPI PUSH1 0x2 DUP2 DUP2 SLOAD DUP2 LT PUSH2 0x4CC JUMPI PUSH2 0x4CC PUSH2 0x15BB JUMP JUMPDEST SWAP1 PUSH1 0x0 MSTORE PUSH1 0x20 PUSH1 0x0 KECCAK256 ADD PUSH1 0x0 SWAP1 SLOAD SWAP1 PUSH2 0x100 EXP SWAP1 DIV PUSH1 0x1 PUSH1 0x1 PUSH1 0xA0 SHL SUB AND DUP4 DUP4 DUP2 MLOAD DUP2 LT PUSH2 0x4FC JUMPI PUSH2 0x4FC PUSH2 0x15BB JUMP JUMPDEST PUSH1 0x1 PUSH1 0x1 PUSH1 0xA0 SHL SUB SWAP1 SWAP3 AND PUSH1 0x20 SWAP3 DUP4 MUL SWAP2 SWAP1 SWAP2 ADD SWAP1 SWAP2 ADD MSTORE DUP2 PUSH2 0x51E DUP2 PUSH2 0x15E7 JUMP JUMPDEST SWAP3 POP POP JUMPDEST PUSH1 0x1 ADD PUSH2 0x46B JUMP JUMPDEST POP SWAP1 SWAP4 SWAP3 POP POP POP JUMP JUMPDEST PUSH2 0x53B PUSH2 0xC9D JUMP JUMPDEST PUSH1 0x2 PUSH1 0x7 SLOAD PUSH1 0xFF AND PUSH1 0x5 DUP2 GT ISZERO PUSH2 0x554 JUMPI PUSH2 0x554 PUSH2 0x155A JUMP JUMPDEST EQ PUSH2 0x591 JUMPI PUSH1 0x40 MLOAD PUSH3 0x461BCD PUSH1 0xE5 SHL DUP2 MSTORE PUSH1 0x20 PUSH1 0x4 DUP3 ADD MSTORE PUSH1 0xD PUSH1 0x24 DUP3 ADD MSTORE PUSH13 0x496E76616C6964207374617465 PUSH1 0x98 SHL PUSH1 0x44 DUP3 ADD MSTORE PUSH1 0x64 ADD PUSH2 0x374 JUMP JUMPDEST PUSH1 0x6 DUP1 SLOAD SWAP1 PUSH1 0x0 PUSH2 0x5A1 DUP4 PUSH2 0x15E7 JUMP JUMPDEST SWAP1 SWAP2 SSTORE POP PUSH2 0x5B2 SWAP1 POP TIMESTAMP PUSH1 0x78 PUSH2 0x1600 JUMP JUMPDEST PUSH1 0x8 SSTORE PUSH1 0x7 DUP1 SLOAD PUSH1 0xFF NOT AND PUSH1 0x3 OR SWAP1 SSTORE PUSH1 0x6 SLOAD PUSH1 0x40 MLOAD SWAP1 DUP2 MSTORE PUSH32 0x33A701182892FD888ED152CA2AC23771A32E814469B7CD255965471E1AF3A659 SWAP1 PUSH1 0x20 ADD PUSH1 0x40 MLOAD DUP1 SWAP2 SUB SWAP1 LOG1 JUMP JUMPDEST PUSH2 0x602 PUSH2 0xC9D JUMP JUMPDEST PUSH1 0x0 PUSH1 0x7 SLOAD PUSH1 0xFF AND PUSH1 0x5 DUP2 GT ISZERO PUSH2 0x61B JUMPI PUSH2 0x61B PUSH2 0x155A JUMP JUMPDEST EQ PUSH2 0x65E JUMPI PUSH1 0x40 MLOAD PUSH3 0x461BCD PUSH1 0xE5 SHL DUP2 MSTORE PUSH1 0x20 PUSH1 0x4 DUP3 ADD MSTORE PUSH1 0x13 PUSH1 0x24 DUP3 ADD MSTORE PUSH19 0x105B1C9958591E481A5B9A5D1A585B1A5E9959 PUSH1 0x6A SHL PUSH1 0x44 DUP3 ADD MSTORE PUSH1 0x64 ADD PUSH2 0x374 JUMP JUMPDEST PUSH1 0xA DUP2 MLOAD LT ISZERO DUP1 ISZERO PUSH2 0x67B JUMPI POP PUSH1 0x2 DUP2 MLOAD PUSH2 0x679 SWAP2 SWAP1 PUSH2 0x162F JUMP JUMPDEST ISZERO JUMPDEST PUSH2 0x6C7 JUMPI PUSH1 0x40 MLOAD PUSH3 0x461BCD PUSH1 0xE5 SHL DUP2 MSTORE PUSH1 0x20 PUSH1 0x4 DUP3 ADD MSTORE PUSH1 0x19 PUSH1 0x24 DUP3 ADD MSTORE PUSH32 0x496E76616C6964206E756D626572206F6620706C617965727300000000000000 PUSH1 0x44 DUP3 ADD MSTORE PUSH1 0x64 ADD PUSH2 0x374 JUMP JUMPDEST DUP1 MLOAD PUSH2 0x6D4 PUSH1 0x2 DUP3 PUSH2 0x1643 JUMP JUMPDEST PUSH1 0xA SSTORE PUSH1 0x2 PUSH2 0x6E4 PUSH1 0x5 DUP4 PUSH2 0x1643 JUMP JUMPDEST PUSH2 0x6EE SWAP2 SWAP1 PUSH2 0x1643 JUMP JUMPDEST PUSH1 0x9 SSTORE PUSH1 0x0 JUMPDEST DUP2 DUP2 LT ISZERO PUSH2 0x836 JUMPI PUSH1 0x0 DUP4 DUP3 DUP2 MLOAD DUP2 LT PUSH2 0x710 JUMPI PUSH2 0x710 PUSH2 0x15BB JUMP JUMPDEST PUSH1 0x20 MUL PUSH1 0x20 ADD ADD MLOAD SWAP1 POP PUSH2 0x72C PUSH1 0x0 SLOAD PUSH1 0x1 PUSH1 0x1 PUSH1 0xA0 SHL SUB AND SWAP1 JUMP JUMPDEST PUSH1 0x1 PUSH1 0x1 PUSH1 0xA0 SHL SUB AND DUP2 PUSH1 0x1 PUSH1 0x1 PUSH1 0xA0 SHL SUB AND SUB PUSH2 0x78C JUMPI PUSH1 0x40 MLOAD PUSH3 0x461BCD PUSH1 0xE5 SHL DUP2 MSTORE PUSH1 0x20 PUSH1 0x4 DUP3 ADD MSTORE PUSH1 0x18 PUSH1 0x24 DUP3 ADD MSTORE PUSH32 0x4F776E65722063616E6E6F74206265206120706C617965720000000000000000 PUSH1 0x44 DUP3 ADD MSTORE PUSH1 0x64 ADD PUSH2 0x374 JUMP JUMPDEST PUSH1 0x1 PUSH1 0x1 PUSH1 0xA0 SHL SUB DUP2 AND PUSH1 0x0 SWAP1 DUP2 MSTORE PUSH1 0x4 PUSH1 0x20 MSTORE PUSH1 0x40 SWAP1 KECCAK256 SLOAD PUSH1 0xFF AND ISZERO PUSH2 0x7E8 JUMPI PUSH1 0x40 MLOAD PUSH3 0x461BCD PUSH1 0xE5 SHL DUP2 MSTORE PUSH1 0x20 PUSH1 0x4 DUP3 ADD MSTORE PUSH1 0x10 PUSH1 0x24 DUP3 ADD MSTORE PUSH16 0x223AB83634B1B0BA3290383630BCB2B9 PUSH1 0x81 SHL PUSH1 0x44 DUP3 ADD MSTORE PUSH1 0x64 ADD PUSH2 0x374 JUMP JUMPDEST PUSH1 0x1 PUSH1 0x1 PUSH1 0xA0 SHL SUB AND PUSH1 0x0 SWAP1 DUP2 MSTORE PUSH1 0x4 PUSH1 0x20 SWAP1 DUP2 MSTORE PUSH1 0x40 DUP1 DUP4 KECCAK256 DUP1 SLOAD PUSH1 0xFF NOT SWAP1 DUP2 AND PUSH1 0x1 SWAP1 DUP2 OR SWAP1 SWAP3 SSTORE PUSH1 0x3 DUP5 MSTORE DUP3 DUP6 KECCAK256 DUP1 SLOAD DUP3 AND SWAP1 SSTORE PUSH1 0x5 SWAP1 SWAP4 MSTORE SWAP3 KECCAK256 DUP1 SLOAD SWAP1 SWAP2 AND PUSH1 0xFF OR SWAP1 SSTORE ADD PUSH2 0x6F4 JUMP JUMPDEST POP DUP2 MLOAD PUSH2 0x84A SWAP1 PUSH1 0x2 SWAP1 PUSH1 0x20 DUP6 ADD SWAP1 PUSH2 0x131A JUMP JUMPDEST POP PUSH1 0x7 DUP1 SLOAD PUSH1 0xFF NOT AND PUSH1 0x1 OR SWAP1 SSTORE PUSH1 0x40 MLOAD PUSH32 0x6EACFB5C564550062D63DB1E6B776E148FDAB72B3BFC3CECF9F9F382B875472B SWAP1 PUSH2 0x888 SWAP1 DUP5 SWAP1 PUSH2 0x13D1 JUMP JUMPDEST PUSH1 0x40 MLOAD DUP1 SWAP2 SUB SWAP1 LOG1 POP POP JUMP JUMPDEST PUSH2 0x89C PUSH2 0xC9D JUMP JUMPDEST PUSH2 0x8A6 PUSH1 0x0 PUSH2 0xCCA JUMP JUMPDEST JUMP JUMPDEST PUSH2 0x8B0 PUSH2 0xC9D JUMP JUMPDEST PUSH1 0x3 PUSH1 0x7 SLOAD PUSH1 0xFF AND PUSH1 0x5 DUP2 GT ISZERO PUSH2 0x8C9 JUMPI PUSH2 0x8C9 PUSH2 0x155A JUMP JUMPDEST EQ DUP1 ISZERO PUSH2 0x8D8 JUMPI POP PUSH1 0x8 SLOAD TIMESTAMP LT ISZERO JUMPDEST PUSH2 0x91B JUMPI PUSH1 0x40 MLOAD PUSH3 0x461BCD PUSH1 0xE5 SHL DUP2 MSTORE PUSH1 0x20 PUSH1 0x4 DUP3 ADD MSTORE PUSH1 0x14 PUSH1 0x24 DUP3 ADD MSTORE PUSH20 0x10D85B9B9BDD08195B99081C9BDD5B99081E595D PUSH1 0x62 SHL PUSH1 0x44 DUP3 ADD MSTORE PUSH1 0x64 ADD PUSH2 0x374 JUMP JUMPDEST PUSH2 0x8A6 PUSH2 0xD1A JUMP JUMPDEST PUSH1 0xB DUP2 DUP2 SLOAD DUP2 LT PUSH2 0x933 JUMPI PUSH1 0x0 DUP1 REVERT JUMPDEST PUSH1 0x0 SWAP2 DUP3 MSTORE PUSH1 0x20 SWAP1 SWAP2 KECCAK256 ADD SLOAD PUSH1 0x1 PUSH1 0x1 PUSH1 0xA0 SHL SUB AND SWAP1 POP DUP2 JUMP JUMPDEST PUSH2 0x955 PUSH2 0xC9D JUMP JUMPDEST PUSH1 0x0 JUMPDEST PUSH1 0x2 SLOAD DUP2 LT ISZERO PUSH2 0x9CC JUMPI PUSH1 0x0 PUSH1 0x2 DUP3 DUP2 SLOAD DUP2 LT PUSH2 0x977 JUMPI PUSH2 0x977 PUSH2 0x15BB JUMP JUMPDEST PUSH1 0x0 SWAP2 DUP3 MSTORE PUSH1 0x20 DUP1 DUP4 KECCAK256 SWAP1 SWAP2 ADD SLOAD PUSH1 0x1 PUSH1 0x1 PUSH1 0xA0 SHL SUB AND DUP3 MSTORE PUSH1 0x3 DUP2 MSTORE PUSH1 0x40 DUP1 DUP4 KECCAK256 DUP1 SLOAD PUSH1 0xFF NOT SWAP1 DUP2 AND SWAP1 SWAP2 SSTORE PUSH1 0x4 DUP4 MSTORE DUP2 DUP5 KECCAK256 DUP1 SLOAD DUP3 AND SWAP1 SSTORE PUSH1 0x5 SWAP1 SWAP3 MSTORE SWAP1 SWAP2 KECCAK256 DUP1 SLOAD SWAP1 SWAP2 AND PUSH1 0xFF OR SWAP1 SSTORE POP PUSH1 0x1 ADD PUSH2 0x958 JUMP JUMPDEST POP PUSH2 0x9D9 PUSH1 0x2 PUSH1 0x0 PUSH2 0x137F JUMP JUMPDEST PUSH2 0x9E5 PUSH1 0xB PUSH1 0x0 PUSH2 0x137F JUMP JUMPDEST PUSH1 0x0 PUSH1 0x6 DUP2 SWAP1 SSTORE PUSH1 0x7 DUP1 SLOAD PUSH1 0xFF NOT AND SWAP1 SSTORE PUSH1 0x8 DUP2 SWAP1 SSTORE PUSH1 0x9 DUP2 SWAP1 SSTORE PUSH1 0xA DUP2 SWAP1 SSTORE PUSH1 0x40 MLOAD PUSH32 0xC6976B6410888B44C765590C8368EB4A60E0431D4AD683C8A53EA85A8479F22E SWAP2 SWAP1 LOG1 JUMP JUMPDEST PUSH1 0x60 PUSH1 0x5 PUSH1 0x7 SLOAD PUSH1 0xFF AND PUSH1 0x5 DUP2 GT ISZERO PUSH2 0xA49 JUMPI PUSH2 0xA49 PUSH2 0x155A JUMP JUMPDEST EQ PUSH2 0xA8B JUMPI PUSH1 0x40 MLOAD PUSH3 0x461BCD PUSH1 0xE5 SHL DUP2 MSTORE PUSH1 0x20 PUSH1 0x4 DUP3 ADD MSTORE PUSH1 0x12 PUSH1 0x24 DUP3 ADD MSTORE PUSH18 0x11D85B59481B9BDD08195B991959081E595D PUSH1 0x72 SHL PUSH1 0x44 DUP3 ADD MSTORE PUSH1 0x64 ADD PUSH2 0x374 JUMP JUMPDEST PUSH1 0xB DUP1 SLOAD DUP1 PUSH1 0x20 MUL PUSH1 0x20 ADD PUSH1 0x40 MLOAD SWAP1 DUP2 ADD PUSH1 0x40 MSTORE DUP1 SWAP3 SWAP2 SWAP1 DUP2 DUP2 MSTORE PUSH1 0x20 ADD DUP3 DUP1 SLOAD DUP1 ISZERO PUSH2 0xAE1 JUMPI PUSH1 0x20 MUL DUP3 ADD SWAP2 SWAP1 PUSH1 0x0 MSTORE PUSH1 0x20 PUSH1 0x0 KECCAK256 SWAP1 JUMPDEST DUP2 SLOAD PUSH1 0x1 PUSH1 0x1 PUSH1 0xA0 SHL SUB AND DUP2 MSTORE PUSH1 0x1 SWAP1 SWAP2 ADD SWAP1 PUSH1 0x20 ADD DUP1 DUP4 GT PUSH2 0xAC3 JUMPI JUMPDEST POP POP POP POP POP SWAP1 POP SWAP1 JUMP JUMPDEST PUSH2 0xAF3 PUSH2 0x12F0 JUMP JUMPDEST PUSH1 0x3 PUSH1 0x7 SLOAD PUSH1 0xFF AND PUSH1 0x5 DUP2 GT ISZERO PUSH2 0xB0C JUMPI PUSH2 0xB0C PUSH2 0x155A JUMP JUMPDEST EQ DUP1 ISZERO PUSH2 0xB1A JUMPI POP PUSH1 0x8 SLOAD TIMESTAMP LT JUMPDEST PUSH2 0xB5A JUMPI PUSH1 0x40 MLOAD PUSH3 0x461BCD PUSH1 0xE5 SHL DUP2 MSTORE PUSH1 0x20 PUSH1 0x4 DUP3 ADD MSTORE PUSH1 0x11 PUSH1 0x24 DUP3 ADD MSTORE PUSH17 0x43616E6E6F74207375626D6974206E6F77 PUSH1 0x78 SHL PUSH1 0x44 DUP3 ADD MSTORE PUSH1 0x64 ADD PUSH2 0x374 JUMP JUMPDEST CALLER PUSH1 0x0 SWAP1 DUP2 MSTORE PUSH1 0x4 PUSH1 0x20 MSTORE PUSH1 0x40 SWAP1 KECCAK256 SLOAD PUSH1 0xFF AND PUSH2 0xBB0 JUMPI PUSH1 0x40 MLOAD PUSH3 0x461BCD PUSH1 0xE5 SHL DUP2 MSTORE PUSH1 0x20 PUSH1 0x4 DUP3 ADD MSTORE PUSH1 0x14 PUSH1 0x24 DUP3 ADD MSTORE PUSH20 0x2737BA1030B71030B1BA34BB3290383630BCB2B9 PUSH1 0x61 SHL PUSH1 0x44 DUP3 ADD MSTORE PUSH1 0x64 ADD PUSH2 0x374 JUMP JUMPDEST PUSH1 0x5 DUP2 PUSH1 0xFF AND GT ISZERO PUSH2 0xBF3 JUMPI PUSH1 0x40 MLOAD PUSH3 0x461BCD PUSH1 0xE5 SHL DUP2 MSTORE PUSH1 0x20 PUSH1 0x4 DUP3 ADD MSTORE PUSH1 0xC PUSH1 0x24 DUP3 ADD MSTORE PUSH12 0x496E76616C6964206D6F7665 PUSH1 0xA0 SHL PUSH1 0x44 DUP3 ADD MSTORE PUSH1 0x64 ADD PUSH2 0x374 JUMP JUMPDEST CALLER PUSH1 0x0 DUP2 DUP2 MSTORE PUSH1 0x5 PUSH1 0x20 SWAP1 DUP2 MSTORE PUSH1 0x40 SWAP2 DUP3 SWAP1 KECCAK256 DUP1 SLOAD PUSH1 0xFF NOT AND PUSH1 0xFF DUP7 AND SWAP1 DUP2 OR SWAP1 SWAP2 SSTORE SWAP2 MLOAD SWAP2 DUP3 MSTORE PUSH32 0x188E951D9711134151CA8BED640C2D451F586E1E8E1EB16F90539D7E33CE9B7B SWAP2 ADD PUSH1 0x40 MLOAD DUP1 SWAP2 SUB SWAP1 LOG2 PUSH2 0xC4F PUSH1 0x1 DUP1 SSTORE JUMP JUMPDEST POP JUMP JUMPDEST PUSH2 0xC5A PUSH2 0xC9D JUMP JUMPDEST PUSH1 0x1 PUSH1 0x1 PUSH1 0xA0 SHL SUB DUP2 AND PUSH2 0xC84 JUMPI PUSH1 0x40 MLOAD PUSH4 0x1E4FBDF7 PUSH1 0xE0 SHL DUP2 MSTORE PUSH1 0x0 PUSH1 0x4 DUP3 ADD MSTORE PUSH1 0x24 ADD PUSH2 0x374 JUMP JUMPDEST PUSH2 0xC4F DUP2 PUSH2 0xCCA JUMP JUMPDEST PUSH1 0x2 DUP2 DUP2 SLOAD DUP2 LT PUSH2 0x933 JUMPI PUSH1 0x0 DUP1 REVERT JUMPDEST PUSH1 0x0 SLOAD PUSH1 0x1 PUSH1 0x1 PUSH1 0xA0 SHL SUB AND CALLER EQ PUSH2 0x8A6 JUMPI PUSH1 0x40 MLOAD PUSH4 0x118CDAA7 PUSH1 0xE0 SHL DUP2 MSTORE CALLER PUSH1 0x4 DUP3 ADD MSTORE PUSH1 0x24 ADD PUSH2 0x374 JUMP JUMPDEST PUSH1 0x0 DUP1 SLOAD PUSH1 0x1 PUSH1 0x1 PUSH1 0xA0 SHL SUB DUP4 DUP2 AND PUSH1 0x1 PUSH1 0x1 PUSH1 0xA0 SHL SUB NOT DUP4 AND DUP2 OR DUP5 SSTORE PUSH1 0x40 MLOAD SWAP2 SWAP1 SWAP3 AND SWAP3 DUP4 SWAP2 PUSH32 0x8BE0079C531659141344CD1FD0A4F28419497F9722A3DAAFE3B4186F6B6457E0 SWAP2 SWAP1 LOG3 POP POP JUMP JUMPDEST PUSH1 0x7 DUP1 SLOAD PUSH1 0xFF NOT AND PUSH1 0x4 OR SWAP1 SSTORE PUSH1 0x0 JUMPDEST PUSH1 0x2 SLOAD DUP2 LT ISZERO PUSH2 0xE6E JUMPI PUSH1 0x0 PUSH1 0x2 DUP3 DUP2 SLOAD DUP2 LT PUSH2 0xD49 JUMPI PUSH2 0xD49 PUSH2 0x15BB JUMP JUMPDEST PUSH1 0x0 SWAP2 DUP3 MSTORE PUSH1 0x20 DUP1 DUP4 KECCAK256 SWAP1 SWAP2 ADD SLOAD PUSH1 0x1 PUSH1 0x1 PUSH1 0xA0 SHL SUB AND DUP1 DUP4 MSTORE PUSH1 0x4 SWAP1 SWAP2 MSTORE PUSH1 0x40 SWAP1 SWAP2 KECCAK256 SLOAD SWAP1 SWAP2 POP PUSH1 0xFF AND ISZERO PUSH2 0xE65 JUMPI PUSH1 0x1 PUSH1 0x1 PUSH1 0xA0 SHL SUB DUP2 AND PUSH1 0x0 SWAP1 DUP2 MSTORE PUSH1 0x5 PUSH1 0x20 MSTORE PUSH1 0x40 DUP2 KECCAK256 SLOAD PUSH1 0xFF SWAP1 DUP2 AND SWAP1 SUB PUSH2 0xDA4 JUMPI PUSH1 0x0 PUSH2 0xDC1 JUMP JUMPDEST PUSH1 0x1 PUSH1 0x1 PUSH1 0xA0 SHL SUB DUP3 AND PUSH1 0x0 SWAP1 DUP2 MSTORE PUSH1 0x5 PUSH1 0x20 MSTORE PUSH1 0x40 SWAP1 KECCAK256 SLOAD PUSH1 0xFF AND JUMPDEST PUSH1 0x1 PUSH1 0x1 PUSH1 0xA0 SHL SUB DUP4 AND PUSH1 0x0 SWAP1 DUP2 MSTORE PUSH1 0x3 PUSH1 0x20 MSTORE PUSH1 0x40 DUP2 KECCAK256 SLOAD SWAP2 SWAP3 POP SWAP1 PUSH2 0xDEC SWAP1 DUP4 SWAP1 PUSH1 0xFF AND PUSH2 0x1657 JUMP JUMPDEST SWAP1 POP PUSH1 0x32 DUP2 PUSH1 0xFF AND GT ISZERO PUSH2 0xDFE JUMPI POP PUSH1 0x32 JUMPDEST PUSH1 0x1 PUSH1 0x1 PUSH1 0xA0 SHL SUB DUP4 AND PUSH1 0x0 SWAP1 DUP2 MSTORE PUSH1 0x3 PUSH1 0x20 MSTORE PUSH1 0x40 SWAP1 KECCAK256 DUP1 SLOAD PUSH1 0xFF NOT AND PUSH1 0xFF DUP4 AND SWAP1 DUP2 OR SWAP1 SWAP2 SSTORE PUSH1 0x32 SUB PUSH2 0xE62 JUMPI PUSH1 0x40 MLOAD PUSH1 0x1 PUSH1 0x1 PUSH1 0xA0 SHL SUB DUP5 AND SWAP1 PUSH32 0x970F935EE01502DF35DA11DB45C29BDD97D8F41D5A0640C1DC3BD96C67F97987 SWAP1 PUSH1 0x0 SWAP1 LOG2 JUMPDEST POP POP JUMPDEST POP PUSH1 0x1 ADD PUSH2 0xD2A JUMP JUMPDEST POP PUSH2 0xE77 PUSH2 0x139D JUMP JUMPDEST PUSH1 0x0 DUP1 JUMPDEST PUSH1 0x2 SLOAD DUP2 LT ISZERO PUSH2 0xF52 JUMPI PUSH1 0x0 PUSH1 0x2 DUP3 DUP2 SLOAD DUP2 LT PUSH2 0xE9A JUMPI PUSH2 0xE9A PUSH2 0x15BB JUMP JUMPDEST PUSH1 0x0 SWAP2 DUP3 MSTORE PUSH1 0x20 DUP1 DUP4 KECCAK256 SWAP1 SWAP2 ADD SLOAD PUSH1 0x1 PUSH1 0x1 PUSH1 0xA0 SHL SUB AND DUP1 DUP4 MSTORE PUSH1 0x4 SWAP1 SWAP2 MSTORE PUSH1 0x40 SWAP1 SWAP2 KECCAK256 SLOAD SWAP1 SWAP2 POP PUSH1 0xFF AND ISZERO PUSH2 0xF49 JUMPI PUSH1 0x1 PUSH1 0x1 PUSH1 0xA0 SHL SUB DUP2 AND PUSH1 0x0 SWAP1 DUP2 MSTORE PUSH1 0x3 PUSH1 0x20 MSTORE PUSH1 0x40 SWAP1 KECCAK256 SLOAD PUSH1 0xFF AND PUSH1 0x32 DUP2 SWAP1 SUB PUSH2 0xF01 JUMPI DUP4 PUSH2 0xEF9 DUP2 PUSH2 0x15E7 JUMP JUMPDEST SWAP5 POP POP PUSH2 0xF47 JUMP JUMPDEST PUSH1 0x1 DUP2 PUSH1 0xFF AND LT ISZERO DUP1 ISZERO PUSH2 0xF19 JUMPI POP PUSH1 0x31 DUP2 PUSH1 0xFF AND GT ISZERO JUMPDEST ISZERO PUSH2 0xF47 JUMPI DUP5 DUP2 PUSH1 0xFF AND PUSH1 0x32 DUP2 LT PUSH2 0xF33 JUMPI PUSH2 0xF33 PUSH2 0x15BB JUMP JUMPDEST PUSH1 0x20 MUL ADD DUP1 MLOAD SWAP1 PUSH2 0xF43 DUP3 PUSH2 0x15E7 JUMP JUMPDEST SWAP1 MSTORE POP JUMPDEST POP JUMPDEST POP PUSH1 0x1 ADD PUSH2 0xE7B JUMP JUMPDEST POP PUSH1 0x1 JUMPDEST PUSH1 0x31 DUP2 GT PUSH2 0x105A JUMPI PUSH1 0x9 SLOAD DUP4 DUP3 PUSH1 0x32 DUP2 LT PUSH2 0xF73 JUMPI PUSH2 0xF73 PUSH2 0x15BB JUMP JUMPDEST PUSH1 0x20 MUL ADD MLOAD GT ISZERO PUSH2 0x1048 JUMPI PUSH1 0x0 JUMPDEST PUSH1 0x2 SLOAD DUP2 LT ISZERO PUSH2 0x1046 JUMPI PUSH1 0x0 PUSH1 0x2 DUP3 DUP2 SLOAD DUP2 LT PUSH2 0xFA0 JUMPI PUSH2 0xFA0 PUSH2 0x15BB JUMP JUMPDEST PUSH1 0x0 SWAP2 DUP3 MSTORE PUSH1 0x20 DUP1 DUP4 KECCAK256 SWAP1 SWAP2 ADD SLOAD PUSH1 0x1 PUSH1 0x1 PUSH1 0xA0 SHL SUB AND DUP1 DUP4 MSTORE PUSH1 0x3 SWAP1 SWAP2 MSTORE PUSH1 0x40 SWAP1 SWAP2 KECCAK256 SLOAD SWAP1 SWAP2 POP PUSH1 0xFF AND DUP4 EQ DUP1 ISZERO PUSH2 0xFF1 JUMPI POP PUSH1 0x1 PUSH1 0x1 PUSH1 0xA0 SHL SUB DUP2 AND PUSH1 0x0 SWAP1 DUP2 MSTORE PUSH1 0x4 PUSH1 0x20 MSTORE PUSH1 0x40 SWAP1 KECCAK256 SLOAD PUSH1 0xFF AND JUMPDEST ISZERO PUSH2 0x103D JUMPI PUSH1 0x1 PUSH1 0x1 PUSH1 0xA0 SHL SUB DUP2 AND PUSH1 0x0 DUP2 DUP2 MSTORE PUSH1 0x4 PUSH1 0x20 MSTORE PUSH1 0x40 DUP1 DUP3 KECCAK256 DUP1 SLOAD PUSH1 0xFF NOT AND SWAP1 SSTORE MLOAD PUSH32 0x9AB74D043BA19FD15C3AFCAF30DECDDEFF525822B002D45E80C80AC800D41A29 SWAP2 SWAP1 LOG2 JUMPDEST POP PUSH1 0x1 ADD PUSH2 0xF81 JUMP JUMPDEST POP JUMPDEST DUP1 PUSH2 0x1052 DUP2 PUSH2 0x15E7 JUMP JUMPDEST SWAP2 POP POP PUSH2 0xF56 JUMP JUMPDEST POP PUSH1 0x0 DUP1 JUMPDEST PUSH1 0x2 SLOAD DUP2 LT ISZERO PUSH2 0x10C3 JUMPI PUSH1 0x4 PUSH1 0x0 PUSH1 0x2 DUP4 DUP2 SLOAD DUP2 LT PUSH2 0x1080 JUMPI PUSH2 0x1080 PUSH2 0x15BB JUMP JUMPDEST PUSH1 0x0 SWAP2 DUP3 MSTORE PUSH1 0x20 DUP1 DUP4 KECCAK256 SWAP1 SWAP2 ADD SLOAD PUSH1 0x1 PUSH1 0x1 PUSH1 0xA0 SHL SUB AND DUP4 MSTORE DUP3 ADD SWAP3 SWAP1 SWAP3 MSTORE PUSH1 0x40 ADD SWAP1 KECCAK256 SLOAD PUSH1 0xFF AND ISZERO PUSH2 0x10BB JUMPI DUP2 PUSH2 0x10B7 DUP2 PUSH2 0x15E7 JUMP JUMPDEST SWAP3 POP POP JUMPDEST PUSH1 0x1 ADD PUSH2 0x105F JUMP JUMPDEST POP PUSH1 0xA SLOAD DUP3 LT PUSH2 0x11C5 JUMPI PUSH1 0x0 JUMPDEST PUSH1 0x2 SLOAD DUP2 LT ISZERO PUSH2 0x1179 JUMPI PUSH1 0x3 PUSH1 0x0 PUSH1 0x2 DUP4 DUP2 SLOAD DUP2 LT PUSH2 0x10F1 JUMPI PUSH2 0x10F1 PUSH2 0x15BB JUMP JUMPDEST PUSH1 0x0 SWAP2 DUP3 MSTORE PUSH1 0x20 DUP1 DUP4 KECCAK256 SWAP1 SWAP2 ADD SLOAD PUSH1 0x1 PUSH1 0x1 PUSH1 0xA0 SHL SUB AND DUP4 MSTORE DUP3 ADD SWAP3 SWAP1 SWAP3 MSTORE PUSH1 0x40 ADD SWAP1 KECCAK256 SLOAD PUSH1 0xFF AND PUSH1 0x32 SUB PUSH2 0x1171 JUMPI PUSH1 0xB PUSH1 0x2 DUP3 DUP2 SLOAD DUP2 LT PUSH2 0x1135 JUMPI PUSH2 0x1135 PUSH2 0x15BB JUMP JUMPDEST PUSH1 0x0 SWAP2 DUP3 MSTORE PUSH1 0x20 DUP1 DUP4 KECCAK256 SWAP1 SWAP2 ADD SLOAD DUP4 SLOAD PUSH1 0x1 DUP2 ADD DUP6 SSTORE SWAP4 DUP4 MSTORE SWAP2 KECCAK256 SWAP1 SWAP2 ADD DUP1 SLOAD PUSH1 0x1 PUSH1 0x1 PUSH1 0xA0 SHL SUB NOT AND PUSH1 0x1 PUSH1 0x1 PUSH1 0xA0 SHL SUB SWAP1 SWAP3 AND SWAP2 SWAP1 SWAP2 OR SWAP1 SSTORE JUMPDEST PUSH1 0x1 ADD PUSH2 0x10D0 JUMP JUMPDEST POP PUSH1 0x7 DUP1 SLOAD PUSH1 0xFF NOT AND PUSH1 0x5 OR SWAP1 SSTORE PUSH1 0x40 MLOAD PUSH32 0x79316FA24603D03BCFA9AFB308D47AAA8A9B3448543623891E91ACA882FB5C75 SWAP1 PUSH2 0x11B8 SWAP1 PUSH1 0xB SWAP1 PUSH2 0x1670 JUMP JUMPDEST PUSH1 0x40 MLOAD DUP1 SWAP2 SUB SWAP1 LOG1 POP POP POP JUMP JUMPDEST PUSH1 0xA SLOAD DUP2 GT PUSH2 0x1278 JUMPI PUSH1 0x0 JUMPDEST PUSH1 0x2 SLOAD DUP2 LT ISZERO PUSH2 0x1179 JUMPI PUSH1 0x4 PUSH1 0x0 PUSH1 0x2 DUP4 DUP2 SLOAD DUP2 LT PUSH2 0x11F2 JUMPI PUSH2 0x11F2 PUSH2 0x15BB JUMP JUMPDEST PUSH1 0x0 SWAP2 DUP3 MSTORE PUSH1 0x20 DUP1 DUP4 KECCAK256 SWAP1 SWAP2 ADD SLOAD PUSH1 0x1 PUSH1 0x1 PUSH1 0xA0 SHL SUB AND DUP4 MSTORE DUP3 ADD SWAP3 SWAP1 SWAP3 MSTORE PUSH1 0x40 ADD SWAP1 KECCAK256 SLOAD PUSH1 0xFF AND ISZERO PUSH2 0x1270 JUMPI PUSH1 0xB PUSH1 0x2 DUP3 DUP2 SLOAD DUP2 LT PUSH2 0x1234 JUMPI PUSH2 0x1234 PUSH2 0x15BB JUMP JUMPDEST PUSH1 0x0 SWAP2 DUP3 MSTORE PUSH1 0x20 DUP1 DUP4 KECCAK256 SWAP1 SWAP2 ADD SLOAD DUP4 SLOAD PUSH1 0x1 DUP2 ADD DUP6 SSTORE SWAP4 DUP4 MSTORE SWAP2 KECCAK256 SWAP1 SWAP2 ADD DUP1 SLOAD PUSH1 0x1 PUSH1 0x1 PUSH1 0xA0 SHL SUB NOT AND PUSH1 0x1 PUSH1 0x1 PUSH1 0xA0 SHL SUB SWAP1 SWAP3 AND SWAP2 SWAP1 SWAP2 OR SWAP1 SSTORE JUMPDEST PUSH1 0x1 ADD PUSH2 0x11D1 JUMP JUMPDEST PUSH1 0x0 JUMPDEST PUSH1 0x2 SLOAD DUP2 LT ISZERO PUSH2 0x12DD JUMPI PUSH1 0xFF PUSH1 0x5 PUSH1 0x0 PUSH1 0x2 DUP5 DUP2 SLOAD DUP2 LT PUSH2 0x129E JUMPI PUSH2 0x129E PUSH2 0x15BB JUMP JUMPDEST PUSH1 0x0 SWAP2 DUP3 MSTORE PUSH1 0x20 DUP1 DUP4 KECCAK256 SWAP2 SWAP1 SWAP2 ADD SLOAD PUSH1 0x1 PUSH1 0x1 PUSH1 0xA0 SHL SUB AND DUP4 MSTORE DUP3 ADD SWAP3 SWAP1 SWAP3 MSTORE PUSH1 0x40 ADD SWAP1 KECCAK256 DUP1 SLOAD PUSH1 0xFF NOT AND PUSH1 0xFF SWAP3 SWAP1 SWAP3 AND SWAP2 SWAP1 SWAP2 OR SWAP1 SSTORE PUSH1 0x1 ADD PUSH2 0x127B JUMP JUMPDEST POP POP PUSH1 0x7 DUP1 SLOAD PUSH1 0xFF NOT AND PUSH1 0x2 OR SWAP1 SSTORE POP POP JUMP JUMPDEST PUSH1 0x2 PUSH1 0x1 SLOAD SUB PUSH2 0x1313 JUMPI PUSH1 0x40 MLOAD PUSH4 0x3EE5AEB5 PUSH1 0xE0 SHL DUP2 MSTORE PUSH1 0x4 ADD PUSH1 0x40 MLOAD DUP1 SWAP2 SUB SWAP1 REVERT JUMPDEST PUSH1 0x2 PUSH1 0x1 SSTORE JUMP JUMPDEST DUP3 DUP1 SLOAD DUP3 DUP3 SSTORE SWAP1 PUSH1 0x0 MSTORE PUSH1 0x20 PUSH1 0x0 KECCAK256 SWAP1 DUP2 ADD SWAP3 DUP3 ISZERO PUSH2 0x136F JUMPI SWAP2 PUSH1 0x20 MUL DUP3 ADD JUMPDEST DUP3 DUP2 GT ISZERO PUSH2 0x136F JUMPI DUP3 MLOAD DUP3 SLOAD PUSH1 0x1 PUSH1 0x1 PUSH1 0xA0 SHL SUB NOT AND PUSH1 0x1 PUSH1 0x1 PUSH1 0xA0 SHL SUB SWAP1 SWAP2 AND OR DUP3 SSTORE PUSH1 0x20 SWAP1 SWAP3 ADD SWAP2 PUSH1 0x1 SWAP1 SWAP2 ADD SWAP1 PUSH2 0x133A JUMP JUMPDEST POP PUSH2 0x137B SWAP3 SWAP2 POP PUSH2 0x13BC JUMP JUMPDEST POP SWAP1 JUMP JUMPDEST POP DUP1 SLOAD PUSH1 0x0 DUP3 SSTORE SWAP1 PUSH1 0x0 MSTORE PUSH1 0x20 PUSH1 0x0 KECCAK256 SWAP1 DUP2 ADD SWAP1 PUSH2 0xC4F SWAP2 SWAP1 PUSH2 0x13BC JUMP JUMPDEST PUSH1 0x40 MLOAD DUP1 PUSH2 0x640 ADD PUSH1 0x40 MSTORE DUP1 PUSH1 0x32 SWAP1 PUSH1 0x20 DUP3 MUL DUP1 CALLDATASIZE DUP4 CALLDATACOPY POP SWAP2 SWAP3 SWAP2 POP POP JUMP JUMPDEST JUMPDEST DUP1 DUP3 GT ISZERO PUSH2 0x137B JUMPI PUSH1 0x0 DUP2 SSTORE PUSH1 0x1 ADD PUSH2 0x13BD JUMP JUMPDEST PUSH1 0x20 DUP1 DUP3 MSTORE DUP3 MLOAD DUP3 DUP3 ADD DUP2 SWAP1 MSTORE PUSH1 0x0 SWAP2 DUP5 ADD SWAP1 PUSH1 0x40 DUP5 ADD SWAP1 DUP4 JUMPDEST DUP2 DUP2 LT ISZERO PUSH2 0x1412 JUMPI DUP4 MLOAD PUSH1 0x1 PUSH1 0x1 PUSH1 0xA0 SHL SUB AND DUP4 MSTORE PUSH1 0x20 SWAP4 DUP5 ADD SWAP4 SWAP1 SWAP3 ADD SWAP2 PUSH1 0x1 ADD PUSH2 0x13EB JUMP JUMPDEST POP SWAP1 SWAP6 SWAP5 POP POP POP POP POP JUMP JUMPDEST PUSH4 0x4E487B71 PUSH1 0xE0 SHL PUSH1 0x0 MSTORE PUSH1 0x41 PUSH1 0x4 MSTORE PUSH1 0x24 PUSH1 0x0 REVERT JUMPDEST DUP1 CALLDATALOAD PUSH1 0x1 PUSH1 0x1 PUSH1 0xA0 SHL SUB DUP2 AND DUP2 EQ PUSH2 0x144A JUMPI PUSH1 0x0 DUP1 REVERT JUMPDEST SWAP2 SWAP1 POP JUMP JUMPDEST PUSH1 0x0 PUSH1 0x20 DUP3 DUP5 SUB SLT ISZERO PUSH2 0x1461 JUMPI PUSH1 0x0 DUP1 REVERT JUMPDEST DUP2 CALLDATALOAD PUSH8 0xFFFFFFFFFFFFFFFF DUP2 GT ISZERO PUSH2 0x1478 JUMPI PUSH1 0x0 DUP1 REVERT JUMPDEST DUP3 ADD PUSH1 0x1F DUP2 ADD DUP5 SGT PUSH2 0x1489 JUMPI PUSH1 0x0 DUP1 REVERT JUMPDEST DUP1 CALLDATALOAD PUSH8 0xFFFFFFFFFFFFFFFF DUP2 GT ISZERO PUSH2 0x14A3 JUMPI PUSH2 0x14A3 PUSH2 0x141D JUMP JUMPDEST DUP1 PUSH1 0x5 SHL PUSH1 0x40 MLOAD PUSH1 0x1F NOT PUSH1 0x3F DUP4 ADD AND DUP2 ADD DUP2 DUP2 LT PUSH8 0xFFFFFFFFFFFFFFFF DUP3 GT OR ISZERO PUSH2 0x14D0 JUMPI PUSH2 0x14D0 PUSH2 0x141D JUMP JUMPDEST PUSH1 0x40 MSTORE SWAP2 DUP3 MSTORE PUSH1 0x20 DUP2 DUP5 ADD DUP2 ADD SWAP3 SWAP1 DUP2 ADD DUP8 DUP5 GT ISZERO PUSH2 0x14EE JUMPI PUSH1 0x0 DUP1 REVERT JUMPDEST PUSH1 0x20 DUP6 ADD SWAP5 POP JUMPDEST DUP4 DUP6 LT ISZERO PUSH2 0x1514 JUMPI PUSH2 0x1506 DUP6 PUSH2 0x1433 JUMP JUMPDEST DUP2 MSTORE PUSH1 0x20 SWAP5 DUP6 ADD SWAP5 ADD PUSH2 0x14F5 JUMP JUMPDEST POP SWAP7 SWAP6 POP POP POP POP POP POP JUMP JUMPDEST PUSH1 0x0 PUSH1 0x20 DUP3 DUP5 SUB SLT ISZERO PUSH2 0x1531 JUMPI PUSH1 0x0 DUP1 REVERT JUMPDEST PUSH2 0x153A DUP3 PUSH2 0x1433 JUMP JUMPDEST SWAP4 SWAP3 POP POP POP JUMP JUMPDEST PUSH1 0x0 PUSH1 0x20 DUP3 DUP5 SUB SLT ISZERO PUSH2 0x1553 JUMPI PUSH1 0x0 DUP1 REVERT JUMPDEST POP CALLDATALOAD SWAP2 SWAP1 POP JUMP JUMPDEST PUSH4 0x4E487B71 PUSH1 0xE0 SHL PUSH1 0x0 MSTORE PUSH1 0x21 PUSH1 0x4 MSTORE PUSH1 0x24 PUSH1 0x0 REVERT JUMPDEST PUSH1 0x20 DUP2 ADD PUSH1 0x6 DUP4 LT PUSH2 0x1592 JUMPI PUSH4 0x4E487B71 PUSH1 0xE0 SHL PUSH1 0x0 MSTORE PUSH1 0x21 PUSH1 0x4 MSTORE PUSH1 0x24 PUSH1 0x0 REVERT JUMPDEST SWAP2 SWAP1 MSTORE SWAP1 JUMP JUMPDEST PUSH1 0x0 PUSH1 0x20 DUP3 DUP5 SUB SLT ISZERO PUSH2 0x15AA JUMPI PUSH1 0x0 DUP1 REVERT JUMPDEST DUP2 CALLDATALOAD PUSH1 0xFF DUP2 AND DUP2 EQ PUSH2 0x153A JUMPI PUSH1 0x0 DUP1 REVERT JUMPDEST PUSH4 0x4E487B71 PUSH1 0xE0 SHL PUSH1 0x0 MSTORE PUSH1 0x32 PUSH1 0x4 MSTORE PUSH1 0x24 PUSH1 0x0 REVERT JUMPDEST PUSH4 0x4E487B71 PUSH1 0xE0 SHL PUSH1 0x0 MSTORE PUSH1 0x11 PUSH1 0x4 MSTORE PUSH1 0x24 PUSH1 0x0 REVERT JUMPDEST PUSH1 0x0 PUSH1 0x1 DUP3 ADD PUSH2 0x15F9 JUMPI PUSH2 0x15F9 PUSH2 0x15D1 JUMP JUMPDEST POP PUSH1 0x1 ADD SWAP1 JUMP JUMPDEST DUP1 DUP3 ADD DUP1 DUP3 GT ISZERO PUSH2 0x1613 JUMPI PUSH2 0x1613 PUSH2 0x15D1 JUMP JUMPDEST SWAP3 SWAP2 POP POP JUMP JUMPDEST PUSH4 0x4E487B71 PUSH1 0xE0 SHL PUSH1 0x0 MSTORE PUSH1 0x12 PUSH1 0x4 MSTORE PUSH1 0x24 PUSH1 0x0 REVERT JUMPDEST PUSH1 0x0 DUP3 PUSH2 0x163E JUMPI PUSH2 0x163E PUSH2 0x1619 JUMP JUMPDEST POP MOD SWAP1 JUMP JUMPDEST PUSH1 0x0 DUP3 PUSH2 0x1652 JUMPI PUSH2 0x1652 PUSH2 0x1619 JUMP JUMPDEST POP DIV SWAP1 JUMP JUMPDEST PUSH1 0xFF DUP2 DUP2 AND DUP4 DUP3 AND ADD SWAP1 DUP2 GT ISZERO PUSH2 0x1613 JUMPI PUSH2 0x1613 PUSH2 0x15D1 JUMP JUMPDEST PUSH1 0x20 DUP1 DUP3 MSTORE DUP3 SLOAD DUP3 DUP3 ADD DUP2 SWAP1 MSTORE PUSH1 0x0 DUP5 DUP2 MSTORE SWAP2 DUP3 KECCAK256 SWAP1 PUSH1 0x40 DUP5 ADD SWAP1 DUP4 JUMPDEST DUP2 DUP2 LT ISZERO PUSH2 0x1412 JUMPI DUP4 SLOAD PUSH1 0x1 PUSH1 0x1 PUSH1 0xA0 SHL SUB AND DUP4 MSTORE PUSH1 0x1 SWAP4 DUP5 ADD SWAP4 PUSH1 0x20 SWAP1 SWAP4 ADD SWAP3 ADD PUSH2 0x168D JUMP INVALID LOG2 PUSH5 0x6970667358 0x22 SLT KECCAK256 RETURNDATASIZE 0xBC DUP15 0xD6 SLOAD 0xE6 0x4C 0x4C PUSH25 0xA8A199DD3439E06219257796E9048E413D577FEFBFFF5C6473 PUSH16 0x6C634300081C00330000000000000000 "},"methodIdentifiers":{"capPerFloor()":"4315214f","currentLevel(address)":"691a037a","currentRound()":"8a19c8bc","endRound()":"749aa2d9","gameStart()":"3218b99d","gameState()":"d1f9c24d","getActivePlayers()":"3c4f5a66","getCurrentLevel(address)":"d9087025","getWinners()":"df15c37e","initializeGame(address[])":"626b6efa","isActive(address)":"9f8a13d7","owner()":"8da5cb5b","players(uint256)":"f71d96cb","renounceOwnership()":"715018a6","resetGame()":"bb472219","startRound()":"55e3f086","submissionDeadline()":"f9c55115","submitMove(uint8)":"e1ff3b33","submittedMove(address)":"cce37753","targetWinners()":"1dda5c3c","transferOwnership(address)":"f2fde38b","winners(uint256)":"a2fb1175"}}}}}