{"contracts/ValhallaOrHel.sol":{"ValhallaOrHel":{"abi":[{"inputs":[],"stateMutability":"nonpayable","type":"constructor"},{"inputs":[{"internalType":"address","name":"owner","type":"address"}],"name":"OwnableInvalidOwner","type":"error"},{"inputs":[{"internalType":"address","name":"account","type":"address"}],"name":"OwnableUnauthorizedAccount","type":"error"},{"inputs":[],"name":"ReentrancyGuardReentrantCall","type":"error"},{"anonymous":false,"inputs":[{"indexed":true,"internalType":"uint256","name":"currentRound","type":"uint256"}],"name":"AllRoundsCompleted","type":"event"},{"anonymous":false,"inputs":[{"indexed":true,"internalType":"uint256","name":"currentRound","type":"uint256"}],"name":"AllRoundsStarted","type":"event"},{"anonymous":false,"inputs":[{"indexed":true,"internalType":"address","name":"player","type":"address"},{"indexed":false,"internalType":"bool","name":"result","type":"bool"}],"name":"DoorOpened","type":"event"},{"anonymous":false,"inputs":[{"indexed":true,"internalType":"uint256","name":"instanceId","type":"uint256"},{"indexed":false,"internalType":"address[]","name":"players","type":"address[]"}],"name":"GameInitialized","type":"event"},{"anonymous":false,"inputs":[{"indexed":true,"internalType":"address","name":"previousOwner","type":"address"},{"indexed":true,"internalType":"address","name":"newOwner","type":"address"}],"name":"OwnershipTransferred","type":"event"},{"anonymous":false,"inputs":[{"indexed":true,"internalType":"address","name":"player","type":"address"},{"indexed":true,"internalType":"uint256","name":"instanceId","type":"uint256"}],"name":"PlayerEliminated","type":"event"},{"anonymous":false,"inputs":[{"indexed":true,"internalType":"uint256","name":"instanceId","type":"uint256"},{"indexed":false,"internalType":"uint256","name":"roundNumber","type":"uint256"}],"name":"RoundCompleted","type":"event"},{"anonymous":false,"inputs":[{"indexed":true,"internalType":"uint256","name":"instanceId","type":"uint256"},{"indexed":false,"internalType":"uint256","name":"roundNumber","type":"uint256"}],"name":"RoundStarted","type":"event"},{"inputs":[],"name":"ROUND_DURATION","outputs":[{"internalType":"uint256","name":"","type":"uint256"}],"stateMutability":"view","type":"function"},{"inputs":[],"name":"endRound","outputs":[],"stateMutability":"nonpayable","type":"function"},{"inputs":[{"internalType":"uint256","name":"","type":"uint256"}],"name":"gameInstances","outputs":[{"internalType":"uint256","name":"currentRound","type":"uint256"},{"internalType":"enum ValhallaOrHel.RoundStatus","name":"status","type":"uint8"},{"internalType":"uint256","name":"roundStartTime","type":"uint256"}],"stateMutability":"view","type":"function"},{"inputs":[],"name":"getInstanceCount","outputs":[{"internalType":"uint256","name":"","type":"uint256"}],"stateMutability":"view","type":"function"},{"inputs":[{"internalType":"uint256","name":"instanceId","type":"uint256"}],"name":"getInstancePlayers","outputs":[{"internalType":"address[]","name":"","type":"address[]"}],"stateMutability":"view","type":"function"},{"inputs":[{"internalType":"address","name":"player","type":"address"}],"name":"getPlayerInstance","outputs":[{"internalType":"uint256","name":"","type":"uint256"}],"stateMutability":"view","type":"function"},{"inputs":[{"internalType":"uint256","name":"instanceId","type":"uint256"}],"name":"getRoundTimeRemaining","outputs":[{"internalType":"uint256","name":"","type":"uint256"}],"stateMutability":"view","type":"function"},{"inputs":[],"name":"openDoor","outputs":[{"internalType":"bool","name":"","type":"bool"}],"stateMutability":"nonpayable","type":"function"},{"inputs":[],"name":"owner","outputs":[{"internalType":"address","name":"","type":"address"}],"stateMutability":"view","type":"function"},{"inputs":[{"internalType":"address","name":"","type":"address"}],"name":"playerToInstance","outputs":[{"internalType":"uint256","name":"","type":"uint256"}],"stateMutability":"view","type":"function"},{"inputs":[],"name":"renounceOwnership","outputs":[],"stateMutability":"nonpayable","type":"function"},{"inputs":[{"internalType":"address[]","name":"players","type":"address[]"}],"name":"setupGame","outputs":[],"stateMutability":"nonpayable","type":"function"},{"inputs":[],"name":"startRound","outputs":[],"stateMutability":"nonpayable","type":"function"},{"inputs":[{"internalType":"address","name":"newOwner","type":"address"}],"name":"transferOwnership","outputs":[],"stateMutability":"nonpayable","type":"function"}],"evm":{"bytecode":{"linkReferences":{},"object":"6080604052348015600f57600080fd5b503380603557604051631e4fbdf760e01b81526000600482015260240160405180910390fd5b603c816045565b50600180556095565b600080546001600160a01b038381166001600160a01b0319831681178455604051919092169283917f8be0079c531659141344cd1fd0a4f28419497f9722a3daafe3b4186f6b6457e09190a35050565b611293806100a46000396000f3fe608060405234801561001057600080fd5b50600436106100ea5760003560e01c80638bf678801161008c578063bf834fbe11610066578063bf834fbe146101c3578063d366de47146101d6578063db0e127a146101f8578063f2fde38b1461021057600080fd5b80638bf67880146101805780638da5cb5b146101a0578063ae34325c146101bb57600080fd5b80636641ea08116100c85780636641ea0814610148578063709af83414610150578063715018a614610170578063749aa2d91461017857600080fd5b806309875e9d146100ef57806355e3f0861461010457806356933a881461010c575b600080fd5b6101026100fd366004611002565b610223565b005b6101026104b4565b61013561011a366004611079565b6001600160a01b031660009081526003602052604090205490565b6040519081526020015b60405180910390f35b610135607881565b61016361015e3660046110a9565b61063e565b60405161013f91906110c2565b6101026106bd565b6101026106d1565b61013561018e366004611079565b60036020526000908152604090205481565b6000546040516001600160a01b03909116815260200161013f565b600254610135565b6101356101d13660046110a9565b6108d8565b6101e96101e43660046110a9565b6109ba565b60405161013f93929190611124565b6102006109f6565b604051901515815260200161013f565b61010261021e366004611079565b610c46565b61022b610c84565b60648110156102815760405162461bcd60e51b815260206004820152601c60248201527f4d696e696d756d2031303020706c61796572732072657175697265640000000060448201526064015b60405180910390fd5b600061028e601483611186565b905060005b8181101561035b576040805160006080820181815260a083018452825260208083018290529282018190526060820181905260028054600181018255915281518051929360049092027f405787fa12a823e0f2b7631cc41b3ba8828b3321ca811111fa75cd3aa3bb5ace019261030c9284920190610f88565b506020820151816001015560408201518160020160006101000a81548160ff021916908360028111156103415761034161110e565b021790555060609190910151600390910155600101610293565b5060005b8281101561043f576000610373838361119a565b905060028181548110610388576103886111ae565b90600052602060002090600402016000018585848181106103ab576103ab6111ae565b90506020020160208101906103c09190611079565b81546001810183556000928352602083200180546001600160a01b0319166001600160a01b03929092169190911790558190600390878786818110610407576104076111ae565b905060200201602081019061041c9190611079565b6001600160a01b031681526020810191909152604001600020555060010161035f565b5060005b818110156104ae57807f02ef23cd2d69f7da33acc5b770fb213ca27de04fbe50e50ddbad3ec6235a42f560028381548110610480576104806111ae565b906000526020600020906004020160000160405161049e91906111c4565b60405180910390a2600101610443565b50505050565b6104bc610c84565b600254806105065760405162461bcd60e51b8152602060048201526017602482015276139bc819d85b59481a5b9cdd185b98d95cc8195e1a5cdd604a1b6044820152606401610278565b60005b818110156105eb57600060028281548110610526576105266111ae565b600091825260208220600490910201915060028083015460ff16908111156105505761055061110e565b146105925760405162461bcd60e51b8152602060048201526012602482015271496e7374616e6365206e6f7420726561647960701b6044820152606401610278565b60028101805460ff1916600190811790915542600383015581015460405190815282907f278844837bcf8364a705384bf3a2812901f54155bae86dea81dd52aa5b9ec0e39060200160405180910390a250600101610509565b506002600081548110610600576106006111ae565b6000918252602082206001600490920201015460405190917fa0ef6ded0df12527377599776fe240c14fc2276a60bab59aafd606c54a7576dc91a250565b606060028281548110610653576106536111ae565b600091825260209182902060049091020180546040805182850281018501909152818152928301828280156106b157602002820191906000526020600020905b81546001600160a01b03168152600190910190602001808311610693575b50505050509050919050565b6106c5610c84565b6106cf6000610cb1565b565b6106d9610c84565b600254806107235760405162461bcd60e51b8152602060048201526017602482015276139bc819d85b59481a5b9cdd185b98d95cc8195e1a5cdd604a1b6044820152606401610278565b60005b8181101561088557600060028281548110610743576107436111ae565b600091825260209091206004909102019050600160028083015460ff16908111156107705761077061110e565b146107b85760405162461bcd60e51b8152602060048201526018602482015277496e7374616e6365206e6f7420696e2070726f677265737360401b6044820152606401610278565b607881600301546107c99190611208565b4210156108185760405162461bcd60e51b815260206004820181905260248201527f526f756e64206475726174696f6e206e6f742079657420636f6d706c657465646044820152606401610278565b60018101805490600061082a8361121b565b909155505060028101805460ff1916905560006003820155600181015460405190815282907f867bc48474afbd71c32542f493801861b7fa916f53f0e706e1bb8a3f47709c289060200160405180910390a250600101610726565b50600260008154811061089a5761089a6111ae565b6000918252602082206001600490920201015460405190917f9303d9950564a57315be76c6383bd4217638241e1c4c2f22af9b58969d23f67491a250565b60025460009082106109225760405162461bcd60e51b8152602060048201526013602482015272125b9d985b1a59081a5b9cdd185b98d9481251606a1b6044820152606401610278565b600060028381548110610937576109376111ae565b600091825260209091206004909102019050600160028083015460ff16908111156109645761096461110e565b14158061097357506003810154155b156109815750600092915050565b60008160030154426109939190611234565b9050607881106109a7575060009392505050565b6109b2816078611234565b949350505050565b600281815481106109ca57600080fd5b600091825260209091206004909102016001810154600282015460039092015490925060ff9091169083565b6000610a00610d01565b336000908152600360205260409020546002548110610a615760405162461bcd60e51b815260206004820152601e60248201527f43616c6c6572206973206e6f7420616e2061637469766520706c6179657200006044820152606401610278565b600060028281548110610a7657610a766111ae565b600091825260209091206004909102019050600160028083015460ff1690811115610aa357610aa361110e565b14610aeb5760405162461bcd60e51b8152602060048201526018602482015277496e7374616e6365206e6f7420696e2070726f677265737360401b6044820152606401610278565b60788160030154610afc9190611208565b4210610b435760405162461bcd60e51b8152602060048201526016602482015275149bdd5b99081d1a5b59481a185cc8195e1c1a5c995960521b6044820152606401610278565b610b4d8133610d2b565b610b995760405162461bcd60e51b815260206004820152601e60248201527f43616c6c6572206973206e6f7420696e207468697320696e7374616e636500006044820152606401610278565b6000610ba433610d8f565b905080610bb557610bb53384610df9565b6002828101805460ff19169091179055600182015460405190815283907f867bc48474afbd71c32542f493801861b7fa916f53f0e706e1bb8a3f47709c289060200160405180910390a2604051811515815233907fba0c43c609171434a266c778f32d26863b40332dceaaae6207e97193a8939bc79060200160405180910390a292505050610c4360018055565b90565b610c4e610c84565b6001600160a01b038116610c7857604051631e4fbdf760e01b815260006004820152602401610278565b610c8181610cb1565b50565b6000546001600160a01b031633146106cf5760405163118cdaa760e01b8152336004820152602401610278565b600080546001600160a01b038381166001600160a01b0319831681178455604051919092169283917f8be0079c531659141344cd1fd0a4f28419497f9722a3daafe3b4186f6b6457e09190a35050565b600260015403610d2457604051633ee5aeb560e01b815260040160405180910390fd5b6002600155565b6000805b8354811015610d8357826001600160a01b0316846000018281548110610d5757610d576111ae565b6000918252602090912001546001600160a01b031603610d7b576001915050610d89565b600101610d2f565b50600090505b92915050565b6000806002424485604051602001610dcc93929190928352602083019190915260601b6bffffffffffffffffffffffff1916604082015260540190565b6040516020818303038152906040528051906020012060001c610def919061119a565b6001149392505050565b600060028281548110610e0e57610e0e6111ae565b9060005260206000209060040201905060005b8154811015610f1857836001600160a01b0316826000018281548110610e4957610e496111ae565b6000918252602090912001546001600160a01b031603610f105781548290610e7390600190611234565b81548110610e8357610e836111ae565b60009182526020909120015482546001600160a01b0390911690839083908110610eaf57610eaf6111ae565b600091825260209091200180546001600160a01b0319166001600160a01b03929092169190911790558154829080610ee957610ee9611247565b600082815260209020810160001990810180546001600160a01b0319169055019055610f18565b600101610e21565b506001600160a01b038316600090815260036020526040812081905581549003610f4d576002818101805460ff191690911790555b60405182906001600160a01b038516907f6d23a3ab6e6c4048b5879c5716bb756108e4e5d37158a83ea36761c83627da5790600090a3505050565b828054828255906000526020600020908101928215610fdd579160200282015b82811115610fdd57825182546001600160a01b0319166001600160a01b03909116178255602090920191600190910190610fa8565b50610fe9929150610fed565b5090565b5b80821115610fe95760008155600101610fee565b6000806020838503121561101557600080fd5b823567ffffffffffffffff81111561102c57600080fd5b8301601f8101851361103d57600080fd5b803567ffffffffffffffff81111561105457600080fd5b8560208260051b840101111561106957600080fd5b6020919091019590945092505050565b60006020828403121561108b57600080fd5b81356001600160a01b03811681146110a257600080fd5b9392505050565b6000602082840312156110bb57600080fd5b5035919050565b602080825282518282018190526000918401906040840190835b818110156111035783516001600160a01b03168352602093840193909201916001016110dc565b509095945050505050565b634e487b7160e01b600052602160045260246000fd5b838152606081016003841061114957634e487b7160e01b600052602160045260246000fd5b602082019390935260400152919050565b634e487b7160e01b600052601260045260246000fd5b634e487b7160e01b600052601160045260246000fd5b6000826111955761119561115a565b500490565b6000826111a9576111a961115a565b500690565b634e487b7160e01b600052603260045260246000fd5b602080825282548282018190526000848152918220906040840190835b818110156111035783546001600160a01b03168352600193840193602090930192016111e1565b80820180821115610d8957610d89611170565b60006001820161122d5761122d611170565b5060010190565b81810381811115610d8957610d89611170565b634e487b7160e01b600052603160045260246000fdfea2646970667358221220f10b02c11898c792f5ea7bdc8c339c304c379cb7a0c1e5f103491d437d66573064736f6c634300081c0033","opcodes":"PUSH1 0x80 PUSH1 0x40 MSTORE CALLVALUE DUP1 ISZERO PUSH1 0xF JUMPI PUSH1 0x0 DUP1 REVERT JUMPDEST POP CALLER DUP1 PUSH1 0x35 JUMPI PUSH1 0x40 MLOAD PUSH4 0x1E4FBDF7 PUSH1 0xE0 SHL DUP2 MSTORE PUSH1 0x0 PUSH1 0x4 DUP3 ADD MSTORE PUSH1 0x24 ADD PUSH1 0x40 MLOAD DUP1 SWAP2 SUB SWAP1 REVERT JUMPDEST PUSH1 0x3C DUP2 PUSH1 0x45 JUMP JUMPDEST POP PUSH1 0x1 DUP1 SSTORE PUSH1 0x95 JUMP JUMPDEST PUSH1 0x0 DUP1 SLOAD PUSH1 0x1 PUSH1 0x1 PUSH1 0xA0 SHL SUB DUP4 DUP2 AND PUSH1 0x1 PUSH1 0x1 PUSH1 0xA0 SHL SUB NOT DUP4 AND DUP2 OR DUP5 SSTORE PUSH1 0x40 MLOAD SWAP2 SWAP1 SWAP3 AND SWAP3 DUP4 SWAP2 PUSH32 0x8BE0079C531659141344CD1FD0A4F28419497F9722A3DAAFE3B4186F6B6457E0 SWAP2 SWAP1 LOG3 POP POP JUMP JUMPDEST PUSH2 0x1293 DUP1 PUSH2 0xA4 PUSH1 0x0 CODECOPY PUSH1 0x0 RETURN INVALID PUSH1 0x80 PUSH1 0x40 MSTORE CALLVALUE DUP1 ISZERO PUSH2 0x10 JUMPI PUSH1 0x0 DUP1 REVERT JUMPDEST POP PUSH1 0x4 CALLDATASIZE LT PUSH2 0xEA JUMPI PUSH1 0x0 CALLDATALOAD PUSH1 0xE0 SHR DUP1 PUSH4 0x8BF67880 GT PUSH2 0x8C JUMPI DUP1 PUSH4 0xBF834FBE GT PUSH2 0x66 JUMPI DUP1 PUSH4 0xBF834FBE EQ PUSH2 0x1C3 JUMPI DUP1 PUSH4 0xD366DE47 EQ PUSH2 0x1D6 JUMPI DUP1 PUSH4 0xDB0E127A EQ PUSH2 0x1F8 JUMPI DUP1 PUSH4 0xF2FDE38B EQ PUSH2 0x210 JUMPI PUSH1 0x0 DUP1 REVERT JUMPDEST DUP1 PUSH4 0x8BF67880 EQ PUSH2 0x180 JUMPI DUP1 PUSH4 0x8DA5CB5B EQ PUSH2 0x1A0 JUMPI DUP1 PUSH4 0xAE34325C EQ PUSH2 0x1BB JUMPI PUSH1 0x0 DUP1 REVERT JUMPDEST DUP1 PUSH4 0x6641EA08 GT PUSH2 0xC8 JUMPI DUP1 PUSH4 0x6641EA08 EQ PUSH2 0x148 JUMPI DUP1 PUSH4 0x709AF834 EQ PUSH2 0x150 JUMPI DUP1 PUSH4 0x715018A6 EQ PUSH2 0x170 JUMPI DUP1 PUSH4 0x749AA2D9 EQ PUSH2 0x178 JUMPI PUSH1 0x0 DUP1 REVERT JUMPDEST DUP1 PUSH4 0x9875E9D EQ PUSH2 0xEF JUMPI DUP1 PUSH4 0x55E3F086 EQ PUSH2 0x104 JUMPI DUP1 PUSH4 0x56933A88 EQ PUSH2 0x10C JUMPI JUMPDEST PUSH1 0x0 DUP1 REVERT JUMPDEST PUSH2 0x102 PUSH2 0xFD CALLDATASIZE PUSH1 0x4 PUSH2 0x1002 JUMP JUMPDEST PUSH2 0x223 JUMP JUMPDEST STOP JUMPDEST PUSH2 0x102 PUSH2 0x4B4 JUMP JUMPDEST PUSH2 0x135 PUSH2 0x11A CALLDATASIZE PUSH1 0x4 PUSH2 0x1079 JUMP JUMPDEST PUSH1 0x1 PUSH1 0x1 PUSH1 0xA0 SHL SUB AND PUSH1 0x0 SWAP1 DUP2 MSTORE PUSH1 0x3 PUSH1 0x20 MSTORE PUSH1 0x40 SWAP1 KECCAK256 SLOAD SWAP1 JUMP JUMPDEST PUSH1 0x40 MLOAD SWAP1 DUP2 MSTORE PUSH1 0x20 ADD JUMPDEST PUSH1 0x40 MLOAD DUP1 SWAP2 SUB SWAP1 RETURN JUMPDEST PUSH2 0x135 PUSH1 0x78 DUP2 JUMP JUMPDEST PUSH2 0x163 PUSH2 0x15E CALLDATASIZE PUSH1 0x4 PUSH2 0x10A9 JUMP JUMPDEST PUSH2 0x63E JUMP JUMPDEST PUSH1 0x40 MLOAD PUSH2 0x13F SWAP2 SWAP1 PUSH2 0x10C2 JUMP JUMPDEST PUSH2 0x102 PUSH2 0x6BD JUMP JUMPDEST PUSH2 0x102 PUSH2 0x6D1 JUMP JUMPDEST PUSH2 0x135 PUSH2 0x18E CALLDATASIZE PUSH1 0x4 PUSH2 0x1079 JUMP JUMPDEST PUSH1 0x3 PUSH1 0x20 MSTORE PUSH1 0x0 SWAP1 DUP2 MSTORE PUSH1 0x40 SWAP1 KECCAK256 SLOAD DUP2 JUMP JUMPDEST PUSH1 0x0 SLOAD PUSH1 0x40 MLOAD PUSH1 0x1 PUSH1 0x1 PUSH1 0xA0 SHL SUB SWAP1 SWAP2 AND DUP2 MSTORE PUSH1 0x20 ADD PUSH2 0x13F JUMP JUMPDEST PUSH1 0x2 SLOAD PUSH2 0x135 JUMP JUMPDEST PUSH2 0x135 PUSH2 0x1D1 CALLDATASIZE PUSH1 0x4 PUSH2 0x10A9 JUMP JUMPDEST PUSH2 0x8D8 JUMP JUMPDEST PUSH2 0x1E9 PUSH2 0x1E4 CALLDATASIZE PUSH1 0x4 PUSH2 0x10A9 JUMP JUMPDEST PUSH2 0x9BA JUMP JUMPDEST PUSH1 0x40 MLOAD PUSH2 0x13F SWAP4 SWAP3 SWAP2 SWAP1 PUSH2 0x1124 JUMP JUMPDEST PUSH2 0x200 PUSH2 0x9F6 JUMP JUMPDEST PUSH1 0x40 MLOAD SWAP1 ISZERO ISZERO DUP2 MSTORE PUSH1 0x20 ADD PUSH2 0x13F JUMP JUMPDEST PUSH2 0x102 PUSH2 0x21E CALLDATASIZE PUSH1 0x4 PUSH2 0x1079 JUMP JUMPDEST PUSH2 0xC46 JUMP JUMPDEST PUSH2 0x22B PUSH2 0xC84 JUMP JUMPDEST PUSH1 0x64 DUP2 LT ISZERO PUSH2 0x281 JUMPI PUSH1 0x40 MLOAD PUSH3 0x461BCD PUSH1 0xE5 SHL DUP2 MSTORE PUSH1 0x20 PUSH1 0x4 DUP3 ADD MSTORE PUSH1 0x1C PUSH1 0x24 DUP3 ADD MSTORE PUSH32 0x4D696E696D756D2031303020706C617965727320726571756972656400000000 PUSH1 0x44 DUP3 ADD MSTORE PUSH1 0x64 ADD JUMPDEST PUSH1 0x40 MLOAD DUP1 SWAP2 SUB SWAP1 REVERT JUMPDEST PUSH1 0x0 PUSH2 0x28E PUSH1 0x14 DUP4 PUSH2 0x1186 JUMP JUMPDEST SWAP1 POP PUSH1 0x0 JUMPDEST DUP2 DUP2 LT ISZERO PUSH2 0x35B JUMPI PUSH1 0x40 DUP1 MLOAD PUSH1 0x0 PUSH1 0x80 DUP3 ADD DUP2 DUP2 MSTORE PUSH1 0xA0 DUP4 ADD DUP5 MSTORE DUP3 MSTORE PUSH1 0x20 DUP1 DUP4 ADD DUP3 SWAP1 MSTORE SWAP3 DUP3 ADD DUP2 SWAP1 MSTORE PUSH1 0x60 DUP3 ADD DUP2 SWAP1 MSTORE PUSH1 0x2 DUP1 SLOAD PUSH1 0x1 DUP2 ADD DUP3 SSTORE SWAP2 MSTORE DUP2 MLOAD DUP1 MLOAD SWAP3 SWAP4 PUSH1 0x4 SWAP1 SWAP3 MUL PUSH32 0x405787FA12A823E0F2B7631CC41B3BA8828B3321CA811111FA75CD3AA3BB5ACE ADD SWAP3 PUSH2 0x30C SWAP3 DUP5 SWAP3 ADD SWAP1 PUSH2 0xF88 JUMP JUMPDEST POP PUSH1 0x20 DUP3 ADD MLOAD DUP2 PUSH1 0x1 ADD SSTORE PUSH1 0x40 DUP3 ADD MLOAD DUP2 PUSH1 0x2 ADD PUSH1 0x0 PUSH2 0x100 EXP DUP2 SLOAD DUP2 PUSH1 0xFF MUL NOT AND SWAP1 DUP4 PUSH1 0x2 DUP2 GT ISZERO PUSH2 0x341 JUMPI PUSH2 0x341 PUSH2 0x110E JUMP JUMPDEST MUL OR SWAP1 SSTORE POP PUSH1 0x60 SWAP2 SWAP1 SWAP2 ADD MLOAD PUSH1 0x3 SWAP1 SWAP2 ADD SSTORE PUSH1 0x1 ADD PUSH2 0x293 JUMP JUMPDEST POP PUSH1 0x0 JUMPDEST DUP3 DUP2 LT ISZERO PUSH2 0x43F JUMPI PUSH1 0x0 PUSH2 0x373 DUP4 DUP4 PUSH2 0x119A JUMP JUMPDEST SWAP1 POP PUSH1 0x2 DUP2 DUP2 SLOAD DUP2 LT PUSH2 0x388 JUMPI PUSH2 0x388 PUSH2 0x11AE JUMP JUMPDEST SWAP1 PUSH1 0x0 MSTORE PUSH1 0x20 PUSH1 0x0 KECCAK256 SWAP1 PUSH1 0x4 MUL ADD PUSH1 0x0 ADD DUP6 DUP6 DUP5 DUP2 DUP2 LT PUSH2 0x3AB JUMPI PUSH2 0x3AB PUSH2 0x11AE JUMP JUMPDEST SWAP1 POP PUSH1 0x20 MUL ADD PUSH1 0x20 DUP2 ADD SWAP1 PUSH2 0x3C0 SWAP2 SWAP1 PUSH2 0x1079 JUMP JUMPDEST DUP2 SLOAD PUSH1 0x1 DUP2 ADD DUP4 SSTORE PUSH1 0x0 SWAP3 DUP4 MSTORE PUSH1 0x20 DUP4 KECCAK256 ADD DUP1 SLOAD PUSH1 0x1 PUSH1 0x1 PUSH1 0xA0 SHL SUB NOT AND PUSH1 0x1 PUSH1 0x1 PUSH1 0xA0 SHL SUB SWAP3 SWAP1 SWAP3 AND SWAP2 SWAP1 SWAP2 OR SWAP1 SSTORE DUP2 SWAP1 PUSH1 0x3 SWAP1 DUP8 DUP8 DUP7 DUP2 DUP2 LT PUSH2 0x407 JUMPI PUSH2 0x407 PUSH2 0x11AE JUMP JUMPDEST SWAP1 POP PUSH1 0x20 MUL ADD PUSH1 0x20 DUP2 ADD SWAP1 PUSH2 0x41C SWAP2 SWAP1 PUSH2 0x1079 JUMP JUMPDEST PUSH1 0x1 PUSH1 0x1 PUSH1 0xA0 SHL SUB AND DUP2 MSTORE PUSH1 0x20 DUP2 ADD SWAP2 SWAP1 SWAP2 MSTORE PUSH1 0x40 ADD PUSH1 0x0 KECCAK256 SSTORE POP PUSH1 0x1 ADD PUSH2 0x35F JUMP JUMPDEST POP PUSH1 0x0 JUMPDEST DUP2 DUP2 LT ISZERO PUSH2 0x4AE JUMPI DUP1 PUSH32 0x2EF23CD2D69F7DA33ACC5B770FB213CA27DE04FBE50E50DDBAD3EC6235A42F5 PUSH1 0x2 DUP4 DUP2 SLOAD DUP2 LT PUSH2 0x480 JUMPI PUSH2 0x480 PUSH2 0x11AE JUMP JUMPDEST SWAP1 PUSH1 0x0 MSTORE PUSH1 0x20 PUSH1 0x0 KECCAK256 SWAP1 PUSH1 0x4 MUL ADD PUSH1 0x0 ADD PUSH1 0x40 MLOAD PUSH2 0x49E SWAP2 SWAP1 PUSH2 0x11C4 JUMP JUMPDEST PUSH1 0x40 MLOAD DUP1 SWAP2 SUB SWAP1 LOG2 PUSH1 0x1 ADD PUSH2 0x443 JUMP JUMPDEST POP POP POP POP JUMP JUMPDEST PUSH2 0x4BC PUSH2 0xC84 JUMP JUMPDEST PUSH1 0x2 SLOAD DUP1 PUSH2 0x506 JUMPI PUSH1 0x40 MLOAD PUSH3 0x461BCD PUSH1 0xE5 SHL DUP2 MSTORE PUSH1 0x20 PUSH1 0x4 DUP3 ADD MSTORE PUSH1 0x17 PUSH1 0x24 DUP3 ADD MSTORE PUSH23 0x139BC819D85B59481A5B9CDD185B98D95CC8195E1A5CDD PUSH1 0x4A SHL PUSH1 0x44 DUP3 ADD MSTORE PUSH1 0x64 ADD PUSH2 0x278 JUMP JUMPDEST PUSH1 0x0 JUMPDEST DUP2 DUP2 LT ISZERO PUSH2 0x5EB JUMPI PUSH1 0x0 PUSH1 0x2 DUP3 DUP2 SLOAD DUP2 LT PUSH2 0x526 JUMPI PUSH2 0x526 PUSH2 0x11AE JUMP JUMPDEST PUSH1 0x0 SWAP2 DUP3 MSTORE PUSH1 0x20 DUP3 KECCAK256 PUSH1 0x4 SWAP1 SWAP2 MUL ADD SWAP2 POP PUSH1 0x2 DUP1 DUP4 ADD SLOAD PUSH1 0xFF AND SWAP1 DUP2 GT ISZERO PUSH2 0x550 JUMPI PUSH2 0x550 PUSH2 0x110E JUMP JUMPDEST EQ PUSH2 0x592 JUMPI PUSH1 0x40 MLOAD PUSH3 0x461BCD PUSH1 0xE5 SHL DUP2 MSTORE PUSH1 0x20 PUSH1 0x4 DUP3 ADD MSTORE PUSH1 0x12 PUSH1 0x24 DUP3 ADD MSTORE PUSH18 0x496E7374616E6365206E6F74207265616479 PUSH1 0x70 SHL PUSH1 0x44 DUP3 ADD MSTORE PUSH1 0x64 ADD PUSH2 0x278 JUMP JUMPDEST PUSH1 0x2 DUP2 ADD DUP1 SLOAD PUSH1 0xFF NOT AND PUSH1 0x1 SWAP1 DUP2 OR SWAP1 SWAP2 SSTORE TIMESTAMP PUSH1 0x3 DUP4 ADD SSTORE DUP2 ADD SLOAD PUSH1 0x40 MLOAD SWAP1 DUP2 MSTORE DUP3 SWAP1 PUSH32 0x278844837BCF8364A705384BF3A2812901F54155BAE86DEA81DD52AA5B9EC0E3 SWAP1 PUSH1 0x20 ADD PUSH1 0x40 MLOAD DUP1 SWAP2 SUB SWAP1 LOG2 POP PUSH1 0x1 ADD PUSH2 0x509 JUMP JUMPDEST POP PUSH1 0x2 PUSH1 0x0 DUP2 SLOAD DUP2 LT PUSH2 0x600 JUMPI PUSH2 0x600 PUSH2 0x11AE JUMP JUMPDEST PUSH1 0x0 SWAP2 DUP3 MSTORE PUSH1 0x20 DUP3 KECCAK256 PUSH1 0x1 PUSH1 0x4 SWAP1 SWAP3 MUL ADD ADD SLOAD PUSH1 0x40 MLOAD SWAP1 SWAP2 PUSH32 0xA0EF6DED0DF12527377599776FE240C14FC2276A60BAB59AAFD606C54A7576DC SWAP2 LOG2 POP JUMP JUMPDEST PUSH1 0x60 PUSH1 0x2 DUP3 DUP2 SLOAD DUP2 LT PUSH2 0x653 JUMPI PUSH2 0x653 PUSH2 0x11AE JUMP JUMPDEST PUSH1 0x0 SWAP2 DUP3 MSTORE PUSH1 0x20 SWAP2 DUP3 SWAP1 KECCAK256 PUSH1 0x4 SWAP1 SWAP2 MUL ADD DUP1 SLOAD PUSH1 0x40 DUP1 MLOAD DUP3 DUP6 MUL DUP2 ADD DUP6 ADD SWAP1 SWAP2 MSTORE DUP2 DUP2 MSTORE SWAP3 DUP4 ADD DUP3 DUP3 DUP1 ISZERO PUSH2 0x6B1 JUMPI PUSH1 0x20 MUL DUP3 ADD SWAP2 SWAP1 PUSH1 0x0 MSTORE PUSH1 0x20 PUSH1 0x0 KECCAK256 SWAP1 JUMPDEST DUP2 SLOAD PUSH1 0x1 PUSH1 0x1 PUSH1 0xA0 SHL SUB AND DUP2 MSTORE PUSH1 0x1 SWAP1 SWAP2 ADD SWAP1 PUSH1 0x20 ADD DUP1 DUP4 GT PUSH2 0x693 JUMPI JUMPDEST POP POP POP POP POP SWAP1 POP SWAP2 SWAP1 POP JUMP JUMPDEST PUSH2 0x6C5 PUSH2 0xC84 JUMP JUMPDEST PUSH2 0x6CF PUSH1 0x0 PUSH2 0xCB1 JUMP JUMPDEST JUMP JUMPDEST PUSH2 0x6D9 PUSH2 0xC84 JUMP JUMPDEST PUSH1 0x2 SLOAD DUP1 PUSH2 0x723 JUMPI PUSH1 0x40 MLOAD PUSH3 0x461BCD PUSH1 0xE5 SHL DUP2 MSTORE PUSH1 0x20 PUSH1 0x4 DUP3 ADD MSTORE PUSH1 0x17 PUSH1 0x24 DUP3 ADD MSTORE PUSH23 0x139BC819D85B59481A5B9CDD185B98D95CC8195E1A5CDD PUSH1 0x4A SHL PUSH1 0x44 DUP3 ADD MSTORE PUSH1 0x64 ADD PUSH2 0x278 JUMP JUMPDEST PUSH1 0x0 JUMPDEST DUP2 DUP2 LT ISZERO PUSH2 0x885 JUMPI PUSH1 0x0 PUSH1 0x2 DUP3 DUP2 SLOAD DUP2 LT PUSH2 0x743 JUMPI PUSH2 0x743 PUSH2 0x11AE JUMP JUMPDEST PUSH1 0x0 SWAP2 DUP3 MSTORE PUSH1 0x20 SWAP1 SWAP2 KECCAK256 PUSH1 0x4 SWAP1 SWAP2 MUL ADD SWAP1 POP PUSH1 0x1 PUSH1 0x2 DUP1 DUP4 ADD SLOAD PUSH1 0xFF AND SWAP1 DUP2 GT ISZERO PUSH2 0x770 JUMPI PUSH2 0x770 PUSH2 0x110E JUMP JUMPDEST EQ PUSH2 0x7B8 JUMPI PUSH1 0x40 MLOAD PUSH3 0x461BCD PUSH1 0xE5 SHL DUP2 MSTORE PUSH1 0x20 PUSH1 0x4 DUP3 ADD MSTORE PUSH1 0x18 PUSH1 0x24 DUP3 ADD MSTORE PUSH24 0x496E7374616E6365206E6F7420696E2070726F6772657373 PUSH1 0x40 SHL PUSH1 0x44 DUP3 ADD MSTORE PUSH1 0x64 ADD PUSH2 0x278 JUMP JUMPDEST PUSH1 0x78 DUP2 PUSH1 0x3 ADD SLOAD PUSH2 0x7C9 SWAP2 SWAP1 PUSH2 0x1208 JUMP JUMPDEST TIMESTAMP LT ISZERO PUSH2 0x818 JUMPI PUSH1 0x40 MLOAD PUSH3 0x461BCD PUSH1 0xE5 SHL DUP2 MSTORE PUSH1 0x20 PUSH1 0x4 DUP3 ADD DUP2 SWAP1 MSTORE PUSH1 0x24 DUP3 ADD MSTORE PUSH32 0x526F756E64206475726174696F6E206E6F742079657420636F6D706C65746564 PUSH1 0x44 DUP3 ADD MSTORE PUSH1 0x64 ADD PUSH2 0x278 JUMP JUMPDEST PUSH1 0x1 DUP2 ADD DUP1 SLOAD SWAP1 PUSH1 0x0 PUSH2 0x82A DUP4 PUSH2 0x121B JUMP JUMPDEST SWAP1 SWAP2 SSTORE POP POP PUSH1 0x2 DUP2 ADD DUP1 SLOAD PUSH1 0xFF NOT AND SWAP1 SSTORE PUSH1 0x0 PUSH1 0x3 DUP3 ADD SSTORE PUSH1 0x1 DUP2 ADD SLOAD PUSH1 0x40 MLOAD SWAP1 DUP2 MSTORE DUP3 SWAP1 PUSH32 0x867BC48474AFBD71C32542F493801861B7FA916F53F0E706E1BB8A3F47709C28 SWAP1 PUSH1 0x20 ADD PUSH1 0x40 MLOAD DUP1 SWAP2 SUB SWAP1 LOG2 POP PUSH1 0x1 ADD PUSH2 0x726 JUMP JUMPDEST POP PUSH1 0x2 PUSH1 0x0 DUP2 SLOAD DUP2 LT PUSH2 0x89A JUMPI PUSH2 0x89A PUSH2 0x11AE JUMP JUMPDEST PUSH1 0x0 SWAP2 DUP3 MSTORE PUSH1 0x20 DUP3 KECCAK256 PUSH1 0x1 PUSH1 0x4 SWAP1 SWAP3 MUL ADD ADD SLOAD PUSH1 0x40 MLOAD SWAP1 SWAP2 PUSH32 0x9303D9950564A57315BE76C6383BD4217638241E1C4C2F22AF9B58969D23F674 SWAP2 LOG2 POP JUMP JUMPDEST PUSH1 0x2 SLOAD PUSH1 0x0 SWAP1 DUP3 LT PUSH2 0x922 JUMPI PUSH1 0x40 MLOAD PUSH3 0x461BCD PUSH1 0xE5 SHL DUP2 MSTORE PUSH1 0x20 PUSH1 0x4 DUP3 ADD MSTORE PUSH1 0x13 PUSH1 0x24 DUP3 ADD MSTORE PUSH19 0x125B9D985B1A59081A5B9CDD185B98D9481251 PUSH1 0x6A SHL PUSH1 0x44 DUP3 ADD MSTORE PUSH1 0x64 ADD PUSH2 0x278 JUMP JUMPDEST PUSH1 0x0 PUSH1 0x2 DUP4 DUP2 SLOAD DUP2 LT PUSH2 0x937 JUMPI PUSH2 0x937 PUSH2 0x11AE JUMP JUMPDEST PUSH1 0x0 SWAP2 DUP3 MSTORE PUSH1 0x20 SWAP1 SWAP2 KECCAK256 PUSH1 0x4 SWAP1 SWAP2 MUL ADD SWAP1 POP PUSH1 0x1 PUSH1 0x2 DUP1 DUP4 ADD SLOAD PUSH1 0xFF AND SWAP1 DUP2 GT ISZERO PUSH2 0x964 JUMPI PUSH2 0x964 PUSH2 0x110E JUMP JUMPDEST EQ ISZERO DUP1 PUSH2 0x973 JUMPI POP PUSH1 0x3 DUP2 ADD SLOAD ISZERO JUMPDEST ISZERO PUSH2 0x981 JUMPI POP PUSH1 0x0 SWAP3 SWAP2 POP POP JUMP JUMPDEST PUSH1 0x0 DUP2 PUSH1 0x3 ADD SLOAD TIMESTAMP PUSH2 0x993 SWAP2 SWAP1 PUSH2 0x1234 JUMP JUMPDEST SWAP1 POP PUSH1 0x78 DUP2 LT PUSH2 0x9A7 JUMPI POP PUSH1 0x0 SWAP4 SWAP3 POP POP POP JUMP JUMPDEST PUSH2 0x9B2 DUP2 PUSH1 0x78 PUSH2 0x1234 JUMP JUMPDEST SWAP5 SWAP4 POP POP POP POP JUMP JUMPDEST PUSH1 0x2 DUP2 DUP2 SLOAD DUP2 LT PUSH2 0x9CA JUMPI PUSH1 0x0 DUP1 REVERT JUMPDEST PUSH1 0x0 SWAP2 DUP3 MSTORE PUSH1 0x20 SWAP1 SWAP2 KECCAK256 PUSH1 0x4 SWAP1 SWAP2 MUL ADD PUSH1 0x1 DUP2 ADD SLOAD PUSH1 0x2 DUP3 ADD SLOAD PUSH1 0x3 SWAP1 SWAP3 ADD SLOAD SWAP1 SWAP3 POP PUSH1 0xFF SWAP1 SWAP2 AND SWAP1 DUP4 JUMP JUMPDEST PUSH1 0x0 PUSH2 0xA00 PUSH2 0xD01 JUMP JUMPDEST CALLER PUSH1 0x0 SWAP1 DUP2 MSTORE PUSH1 0x3 PUSH1 0x20 MSTORE PUSH1 0x40 SWAP1 KECCAK256 SLOAD PUSH1 0x2 SLOAD DUP2 LT PUSH2 0xA61 JUMPI PUSH1 0x40 MLOAD PUSH3 0x461BCD PUSH1 0xE5 SHL DUP2 MSTORE PUSH1 0x20 PUSH1 0x4 DUP3 ADD MSTORE PUSH1 0x1E PUSH1 0x24 DUP3 ADD MSTORE PUSH32 0x43616C6C6572206973206E6F7420616E2061637469766520706C617965720000 PUSH1 0x44 DUP3 ADD MSTORE PUSH1 0x64 ADD PUSH2 0x278 JUMP JUMPDEST PUSH1 0x0 PUSH1 0x2 DUP3 DUP2 SLOAD DUP2 LT PUSH2 0xA76 JUMPI PUSH2 0xA76 PUSH2 0x11AE JUMP JUMPDEST PUSH1 0x0 SWAP2 DUP3 MSTORE PUSH1 0x20 SWAP1 SWAP2 KECCAK256 PUSH1 0x4 SWAP1 SWAP2 MUL ADD SWAP1 POP PUSH1 0x1 PUSH1 0x2 DUP1 DUP4 ADD SLOAD PUSH1 0xFF AND SWAP1 DUP2 GT ISZERO PUSH2 0xAA3 JUMPI PUSH2 0xAA3 PUSH2 0x110E JUMP JUMPDEST EQ PUSH2 0xAEB JUMPI PUSH1 0x40 MLOAD PUSH3 0x461BCD PUSH1 0xE5 SHL DUP2 MSTORE PUSH1 0x20 PUSH1 0x4 DUP3 ADD MSTORE PUSH1 0x18 PUSH1 0x24 DUP3 ADD MSTORE PUSH24 0x496E7374616E6365206E6F7420696E2070726F6772657373 PUSH1 0x40 SHL PUSH1 0x44 DUP3 ADD MSTORE PUSH1 0x64 ADD PUSH2 0x278 JUMP JUMPDEST PUSH1 0x78 DUP2 PUSH1 0x3 ADD SLOAD PUSH2 0xAFC SWAP2 SWAP1 PUSH2 0x1208 JUMP JUMPDEST TIMESTAMP LT PUSH2 0xB43 JUMPI PUSH1 0x40 MLOAD PUSH3 0x461BCD PUSH1 0xE5 SHL DUP2 MSTORE PUSH1 0x20 PUSH1 0x4 DUP3 ADD MSTORE PUSH1 0x16 PUSH1 0x24 DUP3 ADD MSTORE PUSH22 0x149BDD5B99081D1A5B59481A185CC8195E1C1A5C9959 PUSH1 0x52 SHL PUSH1 0x44 DUP3 ADD MSTORE PUSH1 0x64 ADD PUSH2 0x278 JUMP JUMPDEST PUSH2 0xB4D DUP2 CALLER PUSH2 0xD2B JUMP JUMPDEST PUSH2 0xB99 JUMPI PUSH1 0x40 MLOAD PUSH3 0x461BCD PUSH1 0xE5 SHL DUP2 MSTORE PUSH1 0x20 PUSH1 0x4 DUP3 ADD MSTORE PUSH1 0x1E PUSH1 0x24 DUP3 ADD MSTORE PUSH32 0x43616C6C6572206973206E6F7420696E207468697320696E7374616E63650000 PUSH1 0x44 DUP3 ADD MSTORE PUSH1 0x64 ADD PUSH2 0x278 JUMP JUMPDEST PUSH1 0x0 PUSH2 0xBA4 CALLER PUSH2 0xD8F JUMP JUMPDEST SWAP1 POP DUP1 PUSH2 0xBB5 JUMPI PUSH2 0xBB5 CALLER DUP5 PUSH2 0xDF9 JUMP JUMPDEST PUSH1 0x2 DUP3 DUP2 ADD DUP1 SLOAD PUSH1 0xFF NOT AND SWAP1 SWAP2 OR SWAP1 SSTORE PUSH1 0x1 DUP3 ADD SLOAD PUSH1 0x40 MLOAD SWAP1 DUP2 MSTORE DUP4 SWAP1 PUSH32 0x867BC48474AFBD71C32542F493801861B7FA916F53F0E706E1BB8A3F47709C28 SWAP1 PUSH1 0x20 ADD PUSH1 0x40 MLOAD DUP1 SWAP2 SUB SWAP1 LOG2 PUSH1 0x40 MLOAD DUP2 ISZERO ISZERO DUP2 MSTORE CALLER SWAP1 PUSH32 0xBA0C43C609171434A266C778F32D26863B40332DCEAAAE6207E97193A8939BC7 SWAP1 PUSH1 0x20 ADD PUSH1 0x40 MLOAD DUP1 SWAP2 SUB SWAP1 LOG2 SWAP3 POP POP POP PUSH2 0xC43 PUSH1 0x1 DUP1 SSTORE JUMP JUMPDEST SWAP1 JUMP JUMPDEST PUSH2 0xC4E PUSH2 0xC84 JUMP JUMPDEST PUSH1 0x1 PUSH1 0x1 PUSH1 0xA0 SHL SUB DUP2 AND PUSH2 0xC78 JUMPI PUSH1 0x40 MLOAD PUSH4 0x1E4FBDF7 PUSH1 0xE0 SHL DUP2 MSTORE PUSH1 0x0 PUSH1 0x4 DUP3 ADD MSTORE PUSH1 0x24 ADD PUSH2 0x278 JUMP JUMPDEST PUSH2 0xC81 DUP2 PUSH2 0xCB1 JUMP JUMPDEST POP JUMP JUMPDEST PUSH1 0x0 SLOAD PUSH1 0x1 PUSH1 0x1 PUSH1 0xA0 SHL SUB AND CALLER EQ PUSH2 0x6CF JUMPI PUSH1 0x40 MLOAD PUSH4 0x118CDAA7 PUSH1 0xE0 SHL DUP2 MSTORE CALLER PUSH1 0x4 DUP3 ADD MSTORE PUSH1 0x24 ADD PUSH2 0x278 JUMP JUMPDEST PUSH1 0x0 DUP1 SLOAD PUSH1 0x1 PUSH1 0x1 PUSH1 0xA0 SHL SUB DUP4 DUP2 AND PUSH1 0x1 PUSH1 0x1 PUSH1 0xA0 SHL SUB NOT DUP4 AND DUP2 OR DUP5 SSTORE PUSH1 0x40 MLOAD SWAP2 SWAP1 SWAP3 AND SWAP3 DUP4 SWAP2 PUSH32 0x8BE0079C531659141344CD1FD0A4F28419497F9722A3DAAFE3B4186F6B6457E0 SWAP2 SWAP1 LOG3 POP POP JUMP JUMPDEST PUSH1 0x2 PUSH1 0x1 SLOAD SUB PUSH2 0xD24 JUMPI PUSH1 0x40 MLOAD PUSH4 0x3EE5AEB5 PUSH1 0xE0 SHL DUP2 MSTORE PUSH1 0x4 ADD PUSH1 0x40 MLOAD DUP1 SWAP2 SUB SWAP1 REVERT JUMPDEST PUSH1 0x2 PUSH1 0x1 SSTORE JUMP JUMPDEST PUSH1 0x0 DUP1 JUMPDEST DUP4 SLOAD DUP2 LT ISZERO PUSH2 0xD83 JUMPI DUP3 PUSH1 0x1 PUSH1 0x1 PUSH1 0xA0 SHL SUB AND DUP5 PUSH1 0x0 ADD DUP3 DUP2 SLOAD DUP2 LT PUSH2 0xD57 JUMPI PUSH2 0xD57 PUSH2 0x11AE JUMP JUMPDEST PUSH1 0x0 SWAP2 DUP3 MSTORE PUSH1 0x20 SWAP1 SWAP2 KECCAK256 ADD SLOAD PUSH1 0x1 PUSH1 0x1 PUSH1 0xA0 SHL SUB AND SUB PUSH2 0xD7B JUMPI PUSH1 0x1 SWAP2 POP POP PUSH2 0xD89 JUMP JUMPDEST PUSH1 0x1 ADD PUSH2 0xD2F JUMP JUMPDEST POP PUSH1 0x0 SWAP1 POP JUMPDEST SWAP3 SWAP2 POP POP JUMP JUMPDEST PUSH1 0x0 DUP1 PUSH1 0x2 TIMESTAMP PREVRANDAO DUP6 PUSH1 0x40 MLOAD PUSH1 0x20 ADD PUSH2 0xDCC SWAP4 SWAP3 SWAP2 SWAP1 SWAP3 DUP4 MSTORE PUSH1 0x20 DUP4 ADD SWAP2 SWAP1 SWAP2 MSTORE PUSH1 0x60 SHL PUSH12 0xFFFFFFFFFFFFFFFFFFFFFFFF NOT AND PUSH1 0x40 DUP3 ADD MSTORE PUSH1 0x54 ADD SWAP1 JUMP JUMPDEST PUSH1 0x40 MLOAD PUSH1 0x20 DUP2 DUP4 SUB SUB DUP2 MSTORE SWAP1 PUSH1 0x40 MSTORE DUP1 MLOAD SWAP1 PUSH1 0x20 ADD KECCAK256 PUSH1 0x0 SHR PUSH2 0xDEF SWAP2 SWAP1 PUSH2 0x119A JUMP JUMPDEST PUSH1 0x1 EQ SWAP4 SWAP3 POP POP POP JUMP JUMPDEST PUSH1 0x0 PUSH1 0x2 DUP3 DUP2 SLOAD DUP2 LT PUSH2 0xE0E JUMPI PUSH2 0xE0E PUSH2 0x11AE JUMP JUMPDEST SWAP1 PUSH1 0x0 MSTORE PUSH1 0x20 PUSH1 0x0 KECCAK256 SWAP1 PUSH1 0x4 MUL ADD SWAP1 POP PUSH1 0x0 JUMPDEST DUP2 SLOAD DUP2 LT ISZERO PUSH2 0xF18 JUMPI DUP4 PUSH1 0x1 PUSH1 0x1 PUSH1 0xA0 SHL SUB AND DUP3 PUSH1 0x0 ADD DUP3 DUP2 SLOAD DUP2 LT PUSH2 0xE49 JUMPI PUSH2 0xE49 PUSH2 0x11AE JUMP JUMPDEST PUSH1 0x0 SWAP2 DUP3 MSTORE PUSH1 0x20 SWAP1 SWAP2 KECCAK256 ADD SLOAD PUSH1 0x1 PUSH1 0x1 PUSH1 0xA0 SHL SUB AND SUB PUSH2 0xF10 JUMPI DUP2 SLOAD DUP3 SWAP1 PUSH2 0xE73 SWAP1 PUSH1 0x1 SWAP1 PUSH2 0x1234 JUMP JUMPDEST DUP2 SLOAD DUP2 LT PUSH2 0xE83 JUMPI PUSH2 0xE83 PUSH2 0x11AE JUMP JUMPDEST PUSH1 0x0 SWAP2 DUP3 MSTORE PUSH1 0x20 SWAP1 SWAP2 KECCAK256 ADD SLOAD DUP3 SLOAD PUSH1 0x1 PUSH1 0x1 PUSH1 0xA0 SHL SUB SWAP1 SWAP2 AND SWAP1 DUP4 SWAP1 DUP4 SWAP1 DUP2 LT PUSH2 0xEAF JUMPI PUSH2 0xEAF PUSH2 0x11AE JUMP JUMPDEST PUSH1 0x0 SWAP2 DUP3 MSTORE PUSH1 0x20 SWAP1 SWAP2 KECCAK256 ADD DUP1 SLOAD PUSH1 0x1 PUSH1 0x1 PUSH1 0xA0 SHL SUB NOT AND PUSH1 0x1 PUSH1 0x1 PUSH1 0xA0 SHL SUB SWAP3 SWAP1 SWAP3 AND SWAP2 SWAP1 SWAP2 OR SWAP1 SSTORE DUP2 SLOAD DUP3 SWAP1 DUP1 PUSH2 0xEE9 JUMPI PUSH2 0xEE9 PUSH2 0x1247 JUMP JUMPDEST PUSH1 0x0 DUP3 DUP2 MSTORE PUSH1 0x20 SWAP1 KECCAK256 DUP2 ADD PUSH1 0x0 NOT SWAP1 DUP2 ADD DUP1 SLOAD PUSH1 0x1 PUSH1 0x1 PUSH1 0xA0 SHL SUB NOT AND SWAP1 SSTORE ADD SWAP1 SSTORE PUSH2 0xF18 JUMP JUMPDEST PUSH1 0x1 ADD PUSH2 0xE21 JUMP JUMPDEST POP PUSH1 0x1 PUSH1 0x1 PUSH1 0xA0 SHL SUB DUP4 AND PUSH1 0x0 SWAP1 DUP2 MSTORE PUSH1 0x3 PUSH1 0x20 MSTORE PUSH1 0x40 DUP2 KECCAK256 DUP2 SWAP1 SSTORE DUP2 SLOAD SWAP1 SUB PUSH2 0xF4D JUMPI PUSH1 0x2 DUP2 DUP2 ADD DUP1 SLOAD PUSH1 0xFF NOT AND SWAP1 SWAP2 OR SWAP1 SSTORE JUMPDEST PUSH1 0x40 MLOAD DUP3 SWAP1 PUSH1 0x1 PUSH1 0x1 PUSH1 0xA0 SHL SUB DUP6 AND SWAP1 PUSH32 0x6D23A3AB6E6C4048B5879C5716BB756108E4E5D37158A83EA36761C83627DA57 SWAP1 PUSH1 0x0 SWAP1 LOG3 POP POP POP JUMP JUMPDEST DUP3 DUP1 SLOAD DUP3 DUP3 SSTORE SWAP1 PUSH1 0x0 MSTORE PUSH1 0x20 PUSH1 0x0 KECCAK256 SWAP1 DUP2 ADD SWAP3 DUP3 ISZERO PUSH2 0xFDD JUMPI SWAP2 PUSH1 0x20 MUL DUP3 ADD JUMPDEST DUP3 DUP2 GT ISZERO PUSH2 0xFDD JUMPI DUP3 MLOAD DUP3 SLOAD PUSH1 0x1 PUSH1 0x1 PUSH1 0xA0 SHL SUB NOT AND PUSH1 0x1 PUSH1 0x1 PUSH1 0xA0 SHL SUB SWAP1 SWAP2 AND OR DUP3 SSTORE PUSH1 0x20 SWAP1 SWAP3 ADD SWAP2 PUSH1 0x1 SWAP1 SWAP2 ADD SWAP1 PUSH2 0xFA8 JUMP JUMPDEST POP PUSH2 0xFE9 SWAP3 SWAP2 POP PUSH2 0xFED JUMP JUMPDEST POP SWAP1 JUMP JUMPDEST JUMPDEST DUP1 DUP3 GT ISZERO PUSH2 0xFE9 JUMPI PUSH1 0x0 DUP2 SSTORE PUSH1 0x1 ADD PUSH2 0xFEE JUMP JUMPDEST PUSH1 0x0 DUP1 PUSH1 0x20 DUP4 DUP6 SUB SLT ISZERO PUSH2 0x1015 JUMPI PUSH1 0x0 DUP1 REVERT JUMPDEST DUP3 CALLDATALOAD PUSH8 0xFFFFFFFFFFFFFFFF DUP2 GT ISZERO PUSH2 0x102C JUMPI PUSH1 0x0 DUP1 REVERT JUMPDEST DUP4 ADD PUSH1 0x1F DUP2 ADD DUP6 SGT PUSH2 0x103D JUMPI PUSH1 0x0 DUP1 REVERT JUMPDEST DUP1 CALLDATALOAD PUSH8 0xFFFFFFFFFFFFFFFF DUP2 GT ISZERO PUSH2 0x1054 JUMPI PUSH1 0x0 DUP1 REVERT JUMPDEST DUP6 PUSH1 0x20 DUP3 PUSH1 0x5 SHL DUP5 ADD ADD GT ISZERO PUSH2 0x1069 JUMPI PUSH1 0x0 DUP1 REVERT JUMPDEST PUSH1 0x20 SWAP2 SWAP1 SWAP2 ADD SWAP6 SWAP1 SWAP5 POP SWAP3 POP POP POP JUMP JUMPDEST PUSH1 0x0 PUSH1 0x20 DUP3 DUP5 SUB SLT ISZERO PUSH2 0x108B JUMPI PUSH1 0x0 DUP1 REVERT JUMPDEST DUP2 CALLDATALOAD PUSH1 0x1 PUSH1 0x1 PUSH1 0xA0 SHL SUB DUP2 AND DUP2 EQ PUSH2 0x10A2 JUMPI PUSH1 0x0 DUP1 REVERT JUMPDEST SWAP4 SWAP3 POP POP POP JUMP JUMPDEST PUSH1 0x0 PUSH1 0x20 DUP3 DUP5 SUB SLT ISZERO PUSH2 0x10BB JUMPI PUSH1 0x0 DUP1 REVERT JUMPDEST POP CALLDATALOAD SWAP2 SWAP1 POP JUMP JUMPDEST PUSH1 0x20 DUP1 DUP3 MSTORE DUP3 MLOAD DUP3 DUP3 ADD DUP2 SWAP1 MSTORE PUSH1 0x0 SWAP2 DUP5 ADD SWAP1 PUSH1 0x40 DUP5 ADD SWAP1 DUP4 JUMPDEST DUP2 DUP2 LT ISZERO PUSH2 0x1103 JUMPI DUP4 MLOAD PUSH1 0x1 PUSH1 0x1 PUSH1 0xA0 SHL SUB AND DUP4 MSTORE PUSH1 0x20 SWAP4 DUP5 ADD SWAP4 SWAP1 SWAP3 ADD SWAP2 PUSH1 0x1 ADD PUSH2 0x10DC JUMP JUMPDEST POP SWAP1 SWAP6 SWAP5 POP POP POP POP POP JUMP JUMPDEST PUSH4 0x4E487B71 PUSH1 0xE0 SHL PUSH1 0x0 MSTORE PUSH1 0x21 PUSH1 0x4 MSTORE PUSH1 0x24 PUSH1 0x0 REVERT JUMPDEST DUP4 DUP2 MSTORE PUSH1 0x60 DUP2 ADD PUSH1 0x3 DUP5 LT PUSH2 0x1149 JUMPI PUSH4 0x4E487B71 PUSH1 0xE0 SHL PUSH1 0x0 MSTORE PUSH1 0x21 PUSH1 0x4 MSTORE PUSH1 0x24 PUSH1 0x0 REVERT JUMPDEST PUSH1 0x20 DUP3 ADD SWAP4 SWAP1 SWAP4 MSTORE PUSH1 0x40 ADD MSTORE SWAP2 SWAP1 POP JUMP JUMPDEST PUSH4 0x4E487B71 PUSH1 0xE0 SHL PUSH1 0x0 MSTORE PUSH1 0x12 PUSH1 0x4 MSTORE PUSH1 0x24 PUSH1 0x0 REVERT JUMPDEST PUSH4 0x4E487B71 PUSH1 0xE0 SHL PUSH1 0x0 MSTORE PUSH1 0x11 PUSH1 0x4 MSTORE PUSH1 0x24 PUSH1 0x0 REVERT JUMPDEST PUSH1 0x0 DUP3 PUSH2 0x1195 JUMPI PUSH2 0x1195 PUSH2 0x115A JUMP JUMPDEST POP DIV SWAP1 JUMP JUMPDEST PUSH1 0x0 DUP3 PUSH2 0x11A9 JUMPI PUSH2 0x11A9 PUSH2 0x115A JUMP JUMPDEST POP MOD SWAP1 JUMP JUMPDEST PUSH4 0x4E487B71 PUSH1 0xE0 SHL PUSH1 0x0 MSTORE PUSH1 0x32 PUSH1 0x4 MSTORE PUSH1 0x24 PUSH1 0x0 REVERT JUMPDEST PUSH1 0x20 DUP1 DUP3 MSTORE DUP3 SLOAD DUP3 DUP3 ADD DUP2 SWAP1 MSTORE PUSH1 0x0 DUP5 DUP2 MSTORE SWAP2 DUP3 KECCAK256 SWAP1 PUSH1 0x40 DUP5 ADD SWAP1 DUP4 JUMPDEST DUP2 DUP2 LT ISZERO PUSH2 0x1103 JUMPI DUP4 SLOAD PUSH1 0x1 PUSH1 0x1 PUSH1 0xA0 SHL SUB AND DUP4 MSTORE PUSH1 0x1 SWAP4 DUP5 ADD SWAP4 PUSH1 0x20 SWAP1 SWAP4 ADD SWAP3 ADD PUSH2 0x11E1 JUMP JUMPDEST DUP1 DUP3 ADD DUP1 DUP3 GT ISZERO PUSH2 0xD89 JUMPI PUSH2 0xD89 PUSH2 0x1170 JUMP JUMPDEST PUSH1 0x0 PUSH1 0x1 DUP3 ADD PUSH2 0x122D JUMPI PUSH2 0x122D PUSH2 0x1170 JUMP JUMPDEST POP PUSH1 0x1 ADD SWAP1 JUMP JUMPDEST DUP2 DUP2 SUB DUP2 DUP2 GT ISZERO PUSH2 0xD89 JUMPI PUSH2 0xD89 PUSH2 0x1170 JUMP JUMPDEST PUSH4 0x4E487B71 PUSH1 0xE0 SHL PUSH1 0x0 MSTORE PUSH1 0x31 PUSH1 0x4 MSTORE PUSH1 0x24 PUSH1 0x0 REVERT INVALID LOG2 PUSH5 0x6970667358 0x22 SLT KECCAK256 CALL SIGNEXTEND MUL 0xC1 XOR SWAP9 0xC7 SWAP3 CREATE2 0xEA PUSH28 0xDC8C339C304C379CB7A0C1E5F103491D437D66573064736F6C634300 ADDMOD SHR STOP CALLER "},"methodIdentifiers":{"ROUND_DURATION()":"6641ea08","endRound()":"749aa2d9","gameInstances(uint256)":"d366de47","getInstanceCount()":"ae34325c","getInstancePlayers(uint256)":"709af834","getPlayerInstance(address)":"56933a88","getRoundTimeRemaining(uint256)":"bf834fbe","openDoor()":"db0e127a","owner()":"8da5cb5b","playerToInstance(address)":"8bf67880","renounceOwnership()":"715018a6","setupGame(address[])":"09875e9d","startRound()":"55e3f086","transferOwnership(address)":"f2fde38b"}}}}}