{"contracts/Points.sol":{"Points":{"abi":[{"inputs":[],"stateMutability":"nonpayable","type":"constructor"},{"inputs":[{"internalType":"uint256","name":"min","type":"uint256"}],"name":"InvalidDeposit","type":"error"},{"inputs":[],"name":"InvalidReferralCode","type":"error"},{"inputs":[{"internalType":"address","name":"owner","type":"address"}],"name":"OwnableInvalidOwner","type":"error"},{"inputs":[{"internalType":"address","name":"account","type":"address"}],"name":"OwnableUnauthorizedAccount","type":"error"},{"inputs":[{"internalType":"uint256","name":"remaining","type":"uint256"}],"name":"PointsCapReached","type":"error"},{"inputs":[],"name":"ReferralCodeTaken","type":"error"},{"inputs":[],"name":"ReferralCodeTooLong","type":"error"},{"anonymous":false,"inputs":[{"indexed":true,"internalType":"address","name":"depositor","type":"address"},{"indexed":false,"internalType":"uint256","name":"amount","type":"uint256"}],"name":"CashoutDepositReceived","type":"event"},{"anonymous":false,"inputs":[{"indexed":true,"internalType":"address","name":"contractAddress","type":"address"},{"indexed":false,"internalType":"bool","name":"authorized","type":"bool"}],"name":"ContractAuthorizationChanged","type":"event"},{"anonymous":false,"inputs":[{"indexed":true,"internalType":"address","name":"previousOwner","type":"address"},{"indexed":true,"internalType":"address","name":"newOwner","type":"address"}],"name":"OwnershipTransferred","type":"event"},{"anonymous":false,"inputs":[{"indexed":true,"internalType":"address","name":"recipient","type":"address"},{"indexed":false,"internalType":"uint256","name":"amount","type":"uint256"}],"name":"PointsAwarded","type":"event"},{"anonymous":false,"inputs":[{"indexed":true,"internalType":"address","name":"recipient","type":"address"},{"indexed":false,"internalType":"uint256","name":"amount","type":"uint256"},{"indexed":true,"internalType":"address","name":"authorizedContract","type":"address"}],"name":"PointsAwardedByContract","type":"event"},{"anonymous":false,"inputs":[{"indexed":true,"internalType":"address","name":"user","type":"address"},{"indexed":false,"internalType":"string","name":"code","type":"string"}],"name":"ReferralCodeRegistered","type":"event"},{"anonymous":false,"inputs":[{"indexed":true,"internalType":"address","name":"user","type":"address"},{"indexed":false,"internalType":"uint256","name":"points","type":"uint256"},{"indexed":false,"internalType":"uint256","name":"ethAmount","type":"uint256"}],"name":"ReferralPointsCashedOut","type":"event"},{"anonymous":false,"inputs":[{"indexed":true,"internalType":"address","name":"user","type":"address"},{"indexed":false,"internalType":"string","name":"code","type":"string"},{"indexed":true,"internalType":"address","name":"referrer","type":"address"}],"name":"ReferralUsed","type":"event"},{"anonymous":false,"inputs":[{"indexed":true,"internalType":"address","name":"owner","type":"address"},{"indexed":false,"internalType":"uint256","name":"amount","type":"uint256"}],"name":"Withdrawn","type":"event"},{"inputs":[],"name":"MAX_POINTS","outputs":[{"internalType":"uint256","name":"","type":"uint256"}],"stateMutability":"view","type":"function"},{"inputs":[],"name":"MIN_DEPOSIT","outputs":[{"internalType":"uint256","name":"","type":"uint256"}],"stateMutability":"view","type":"function"},{"inputs":[],"name":"POINTS_PER_S","outputs":[{"internalType":"uint256","name":"","type":"uint256"}],"stateMutability":"view","type":"function"},{"inputs":[],"name":"POINTS_PER_S_CASHOUT","outputs":[{"internalType":"uint256","name":"","type":"uint256"}],"stateMutability":"view","type":"function"},{"inputs":[{"internalType":"uint256","name":"","type":"uint256"}],"name":"addressList","outputs":[{"internalType":"address","name":"","type":"address"}],"stateMutability":"view","type":"function"},{"inputs":[{"internalType":"address","name":"","type":"address"}],"name":"addressToReferralCode","outputs":[{"internalType":"string","name":"","type":"string"}],"stateMutability":"view","type":"function"},{"inputs":[{"internalType":"address","name":"recipient","type":"address"},{"internalType":"uint256","name":"amount","type":"uint256"},{"internalType":"bool","name":"isReferralPoints","type":"bool"}],"name":"assignPoints","outputs":[],"stateMutability":"nonpayable","type":"function"},{"inputs":[{"internalType":"address","name":"","type":"address"}],"name":"authorizedContracts","outputs":[{"internalType":"bool","name":"","type":"bool"}],"stateMutability":"view","type":"function"},{"inputs":[{"internalType":"address","name":"recipient","type":"address"},{"internalType":"uint256","name":"pointsAmount","type":"uint256"},{"internalType":"bool","name":"isWithdrawable","type":"bool"}],"name":"awardPointsForPayout","outputs":[],"stateMutability":"nonpayable","type":"function"},{"inputs":[{"internalType":"uint256","name":"amount","type":"uint256"}],"name":"cashOutReferralPoints","outputs":[],"stateMutability":"nonpayable","type":"function"},{"inputs":[],"name":"deposit","outputs":[],"stateMutability":"payable","type":"function"},{"inputs":[{"internalType":"address","name":"recipient","type":"address"},{"internalType":"string","name":"referralCode","type":"string"}],"name":"depositFor","outputs":[],"stateMutability":"payable","type":"function"},{"inputs":[{"internalType":"address","name":"recipient","type":"address"}],"name":"depositFor","outputs":[],"stateMutability":"payable","type":"function"},{"inputs":[],"name":"depositForCashouts","outputs":[],"stateMutability":"payable","type":"function"},{"inputs":[],"name":"getAddressCount","outputs":[{"internalType":"uint256","name":"","type":"uint256"}],"stateMutability":"view","type":"function"},{"inputs":[{"internalType":"uint256","name":"start","type":"uint256"},{"internalType":"uint256","name":"size","type":"uint256"}],"name":"getAddressesPaginated","outputs":[{"internalType":"address[]","name":"addresses","type":"address[]"},{"internalType":"uint256[]","name":"balances","type":"uint256[]"},{"internalType":"uint256[]","name":"withdrawableBalances","type":"uint256[]"}],"stateMutability":"view","type":"function"},{"inputs":[],"name":"getLeaderboard","outputs":[{"internalType":"address[]","name":"topAddresses","type":"address[]"},{"internalType":"uint256[]","name":"topBalances","type":"uint256[]"},{"internalType":"uint256[]","name":"withdrawableBalances","type":"uint256[]"}],"stateMutability":"view","type":"function"},{"inputs":[{"internalType":"address","name":"account","type":"address"}],"name":"getPoints","outputs":[{"internalType":"uint256","name":"total","type":"uint256"},{"internalType":"uint256","name":"withdrawable","type":"uint256"}],"stateMutability":"view","type":"function"},{"inputs":[],"name":"getRemainingPoints","outputs":[{"internalType":"uint256","name":"","type":"uint256"}],"stateMutability":"view","type":"function"},{"inputs":[{"internalType":"address","name":"","type":"address"}],"name":"hasPoints","outputs":[{"internalType":"bool","name":"","type":"bool"}],"stateMutability":"view","type":"function"},{"inputs":[{"internalType":"address","name":"user","type":"address"},{"internalType":"string","name":"code","type":"string"}],"name":"migrateReferralCode","outputs":[],"stateMutability":"nonpayable","type":"function"},{"inputs":[{"internalType":"address","name":"user","type":"address"},{"internalType":"string","name":"referralCode","type":"string"}],"name":"migrateUsedReferralCode","outputs":[],"stateMutability":"nonpayable","type":"function"},{"inputs":[],"name":"owner","outputs":[{"internalType":"address","name":"","type":"address"}],"stateMutability":"view","type":"function"},{"inputs":[{"internalType":"address","name":"","type":"address"}],"name":"points","outputs":[{"internalType":"uint256","name":"","type":"uint256"}],"stateMutability":"view","type":"function"},{"inputs":[],"name":"referralBonusBps","outputs":[{"internalType":"uint256","name":"","type":"uint256"}],"stateMutability":"view","type":"function"},{"inputs":[{"internalType":"string","name":"","type":"string"}],"name":"referralCodeToAddress","outputs":[{"internalType":"address","name":"","type":"address"}],"stateMutability":"view","type":"function"},{"inputs":[{"internalType":"address","name":"","type":"address"}],"name":"referralPoints","outputs":[{"internalType":"uint256","name":"","type":"uint256"}],"stateMutability":"view","type":"function"},{"inputs":[],"name":"registerMe","outputs":[],"stateMutability":"nonpayable","type":"function"},{"inputs":[{"internalType":"string","name":"code","type":"string"}],"name":"registerReferralCode","outputs":[],"stateMutability":"nonpayable","type":"function"},{"inputs":[],"name":"renounceOwnership","outputs":[],"stateMutability":"nonpayable","type":"function"},{"inputs":[{"internalType":"address","name":"contractAddress","type":"address"},{"internalType":"bool","name":"authorized","type":"bool"}],"name":"setContractAuthorization","outputs":[],"stateMutability":"nonpayable","type":"function"},{"inputs":[{"internalType":"uint256","name":"newBonusBps","type":"uint256"}],"name":"setReferralBonus","outputs":[],"stateMutability":"nonpayable","type":"function"},{"inputs":[],"name":"totalPointsIssued","outputs":[{"internalType":"uint256","name":"","type":"uint256"}],"stateMutability":"view","type":"function"},{"inputs":[{"internalType":"address","name":"newOwner","type":"address"}],"name":"transferOwnership","outputs":[],"stateMutability":"nonpayable","type":"function"},{"inputs":[{"internalType":"address","name":"","type":"address"}],"name":"usedReferralCode","outputs":[{"internalType":"string","name":"","type":"string"}],"stateMutability":"view","type":"function"},{"inputs":[],"name":"withdraw","outputs":[],"stateMutability":"nonpayable","type":"function"}],"evm":{"bytecode":{"linkReferences":{},"object":"60808060405234607b57331560655760008054336001600160a01b0319821681178355916001600160a01b03909116907f8be0079c531659141344cd1fd0a4f28419497f9722a3daafe3b4186f6b6457e09080a361138860015561240890816100818239f35b631e4fbdf760e01b600052600060045260246000fd5b600080fdfe608080604052600436101561001357600080fd5b60003560e01c908163195ad3d51461199d5750806325f87d231461197e5780632e8d97b71461179a578063350a8f6c14611612578063358b8166146115d85780633ccfd60b146114ff5780634347f23b1461133f5780635035070b1461130057806359fb7752146110f557806365dbcd43146110d95780636d763a6e14610fb6578063715018a614610f5d57806381a3b8ea14610f415780638da5cb5b14610f18578063935ecb6b14610ca957806397cbbf2414610b5a5780639a037aa014610aeb5780639a198d6114610a40578063a1283a68146109c3578063aa67c91914610993578063b810fb4314610951578063b868e7a114610917578063bd8672421461074f578063ca7eeb5714610705578063cdbb02af146106e7578063d0e30db0146106d0578063d5b9221b14610691578063d6f92372146105ef578063e1e158a5146105cc578063eb72d4f114610592578063ee204abb14610546578063f2fde38b146104bd578063f4f02a4d146102bc578063f5ee80e114610299578063f60ccc86146101ce5763fd1c8811146101ab57600080fd5b346101c95760003660031901126101c9576020600254604051908152f35b600080fd5b346101c95760403660031901126101c9576101e76119b8565b602435908115158092036101c9576101fd612170565b6001600160a01b03169081156102545760207ffb9ba5f99f5c43d50c89b686bbeaaff49442447b445c123ce00589f4c2fae184918360005260078252604060002060ff1981541660ff8316179055604051908152a2005b60405162461bcd60e51b815260206004820152601860248201527f496e76616c696420636f6e7472616374206164647265737300000000000000006044820152606490fd5b346101c95760003660031901126101c95760206102b4611f14565b604051908152f35b346101c9576102ca366119fc565b90916102d4612170565b6001600160a01b03166102e8811515611e51565b6102f3821515611cf1565b6040518284823760088184019081528190036020019020546001600160a01b03169182156104785781600052600a60205260406000209367ffffffffffffffff8211610462576103438554611b46565b601f811161041a575b50600094601f83116001146103a957826000805160206123b383398151915294959660009161039e575b508360011b906000198560031b1c19161790555b61039960405192839283611d35565b0390a3005b905082013587610376565b80865260208620601f19841696805b8881106104025750846000805160206123b3833981519152969798106103e8575b5050600183811b01905561038a565b830135600019600386901b60f8161c1916905586806103d9565b909160206001819285880135815501930191016103b8565b856000526020600020601f840160051c81019160208510610458575b601f0160051c01905b81811061044c575061034c565b6000815560010161043f565b9091508190610436565b634e487b7160e01b600052604160045260246000fd5b60405162461bcd60e51b815260206004820152601c60248201527f526566657272616c20636f646520646f6573206e6f74206578697374000000006044820152606490fd5b346101c95760203660031901126101c9576104d66119b8565b6104de612170565b6001600160a01b0316801561053057600080546001600160a01b03198116831782556001600160a01b0316907f8be0079c531659141344cd1fd0a4f28419497f9722a3daafe3b4186f6b6457e09080a3005b631e4fbdf760e01b600052600060045260246000fd5b346101c95760203660031901126101c95760406001600160a01b036105696119b8565b168060005260036020528160002054906000526004602052816000205482519182526020820152f35b346101c95760203660031901126101c9576001600160a01b036105b36119b8565b1660005260046020526020604060002054604051908152f35b346101c95760003660031901126101c9576020604051670de0b6b3a76400008152f35b346101c95760203660031901126101c95760043567ffffffffffffffff81116101c957366023820112156101c957806004013561062b81611c95565b6106386040519182611b80565b818152602081019136602482860101116101c957602081600092602483970186378301015261066f60405192839251928391611c46565b600890820190815281900382019020546040516001600160a01b039091168152f35b346101c95760203660031901126101c9576001600160a01b036106b26119b8565b166000526007602052602060ff604060002054166040519015158152f35b60003660031901126101c9576106e533611f3c565b005b346101c95760003660031901126101c9576020600554604051908152f35b346101c95760203660031901126101c9576001600160a01b036107266119b8565b16600052600a60205261074b61073f6040600020611ba2565b60405191829182611c69565b0390f35b346101c95761075d36611ae2565b909133600052600760205260ff60406000205416156108d2576001600160a01b0381169161078c831515611cb1565b8315610881576302faf0806107a385600254611d5d565b116108665782600052600360205260406000206107c1858254611d5d565b9055610846575b81600052600660205260ff604060002054161561081e575b506107ed82600254611d5d565b6002556040519182527f42032642f062f0971fa1a8e87754f6bd29ad5bc0af71930001c124884b9883df60203393a3005b61082790611e94565b8060005260066020526040600020600160ff19825416179055826107e0565b816000526004602052604060002061085f848254611d5d565b90556107c8565b61086e611f14565b625ef85b60e21b60005260045260246000fd5b60405162461bcd60e51b8152602060048201526024808201527f506f696e747320616d6f756e74206d75737420626520677265617465722074686044820152630616e20360e41b6064820152608490fd5b60405162461bcd60e51b815260206004820152601760248201527f4e6f7420617574686f72697a656420636f6e74726163740000000000000000006044820152606490fd5b346101c95760203660031901126101c9576001600160a01b036109386119b8565b16600052600960205261074b61073f6040600020611ba2565b346101c95760203660031901126101c9576004356005548110156101c95761097a602091611b15565b905460405160039290921b1c6001600160a01b03168152f35b60203660031901126101c9576106e56109aa6119b8565b6109be6001600160a01b0382161515611cb1565b611f3c565b60003660031901126101c9573415610a03576040513481527f49e370eb35b99fad82eba177be2c53102fb12acbada7d0de117099f6cb9efc1560203392a2005b60405162461bcd60e51b815260206004820152601560248201527409aeae6e840c8cae0dee6d2e840e6dedaca408aa89605b1b6044820152606490fd5b346101c95760003660031901126101c95760008060405160208101906307983f4560e21b82526097602482015260248152610a7c604482611b80565b51908273dc2b0d2dd2b7759d97d50db4eabdc369731108305af1610a9e611dd5565b5015610aa657005b60405162461bcd60e51b815260206004820152601860248201527f4665654d20726567697374726174696f6e206661696c656400000000000000006044820152606490fd5b346101c95760203660031901126101c957600435610b07612170565b6127108111610b1557600155005b60405162461bcd60e51b815260206004820152601860248201527f426f6e75732063616e6e6f7420657863656564203130302500000000000000006044820152606490fd5b346101c957610b6836611ae2565b610b73929192612170565b6001600160a01b03821692610b89841515611cb1565b610b94811515611e05565b6302faf080610ba582600254611d5d565b11610c64577f900825d4808e50002c1a3614c809eb06d2d7142338f0dec06ed9a4057c8a8c999260209285600052600384526040600020610be7848254611d5d565b9055610c45575b846000526006835260ff6040600020541615610c1e575b50610c1281600254611d5d565b600255604051908152a2005b610c2790611e94565b83600052600682526040600020600160ff1982541617905584610c05565b84600052600483526040600020610c5d838254611d5d565b9055610bee565b60405162461bcd60e51b815260206004820152601760248201527f576f756c642065786365656420706f696e7473206361700000000000000000006044820152606490fd5b346101c957610cb7366119fc565b9091610cc1612170565b6001600160a01b031690610cd6821515611e51565b60148111610f07578015610ef6576040518184823760088183019081528190036020019020546001600160a01b031680151590839082610eeb575b5050610eda57816000526009602052610d2d6040600020611ba2565b805180610ea3575b5050604051818482376020818381016008815203019020826001600160601b0360a01b82541617905581600052600960205260406000209267ffffffffffffffff821161046257610d868454611b46565b601f8111610e5b575b50600093601f8311600114610deb57826000805160206123938339815191529495600091610de0575b508360011b906000198560031b1c19161790555b610ddb60405192839283611d35565b0390a2005b905082013586610db8565b80855260208520601f19841695805b878110610e43575084600080516020612393833981519152969710610e29575b5050600183811b019055610dcc565b830135600019600386901b60f8161c191690558580610e1a565b90916020600181928588013581550193019101610dfa565b846000526020600020601f840160051c81019160208510610e99575b601f0160051c01905b818110610e8d5750610d8f565b60008155600101610e80565b9091508190610e77565b60209181610eb984936040518096819501611c46565b810160088152030190206001600160601b0360a01b81541690558380610d35565b63f8f4728d60e01b60005260046000fd5b141590508285610d11565b63e55b462960e01b60005260046000fd5b6302e22fd360e11b60005260046000fd5b346101c95760003660031901126101c9576000546040516001600160a01b039091168152602090f35b346101c95760003660031901126101c9576020604051604b8152f35b346101c95760003660031901126101c957610f76612170565b600080546001600160a01b0319811682556001600160a01b03167f8be0079c531659141344cd1fd0a4f28419497f9722a3daafe3b4186f6b6457e08280a3005b346101c95760003660031901126101c9576005546064808210911802606418610fde81611d8f565b610fe782611d8f565b91610ff181611d8f565b60005b82811061104e575060018211611016575b61074b915060405193849384611a74565b60001982019182116110385761103361074b9260008387876121f4565b611005565b634e487b7160e01b600052601160045260246000fd5b8061105a600192611b15565b9054838060a01b039160031b1c166110728287611dc1565b52604061107e82611b15565b9054848060a01b039160031b1c166000908152600360205220546110a28288611dc1565b5260406110ae82611b15565b9054848060a01b039160031b1c166000908152600460205220546110d28285611dc1565b5201610ff4565b346101c95760003660031901126101c957602060405160328152f35b346101c95760203660031901126101c95760043567ffffffffffffffff81116101c9576111269036906004016119ce565b60148111610f07578015610ef6576040518183823760088183019081528190036020019020546001600160a01b031680151590816112f5575b50610eda5733600052600960205261117b604060002054611b46565b610eda5760405181838237602081838101600881520301902060018060a01b0333166001600160601b0360a01b825416179055336000526009602052604060002067ffffffffffffffff8211610462576111d58154611b46565b601f81116112ad575b506000601f83116001146112375791610ddb91816000805160206123938339815191529460009161122c575b508260011b906000198460031b1c19161790555b604051918291339583611d35565b90508501358661120a565b8181526020812090601f198416815b818110611295575091610ddb93918560008051602061239383398151915296941061127b575b5050600182811b01905561121e565b860135600019600385901b60f8161c19169055858061126c565b9192602060018192868a013581550194019201611246565b816000526020600020601f840160051c810191602085106112eb575b601f0160051c01905b8181106112df57506111de565b600081556001016112d2565b90915081906112c9565b90503314158361115f565b346101c95760203660031901126101c9576001600160a01b036113216119b8565b166000526006602052602060ff604060002054166040519015158152f35b346101c95760203660031901126101c957600435801561135f8115611e05565b33600052600460205281604060002054106114ba576064820290828204606414171561103857604b9004662386f26fc10000810290808204662386f26fc100001490151715611038578047106114755733600052600460205260406000206113c8838254611d6a565b905533600052600360205260406000206113e3838254611d6a565b90556113f182600254611d6a565b600255600080808084335af1611405611dd5565b501561143e5760405191825260208201527f89212ff08f4e1a2d39a5e3a0342a6a0f0b203ef6c18f2c4276fa6ec13fee57f560403392a2005b60405162461bcd60e51b815260206004820152600f60248201526e151c985b9cd9995c8819985a5b1959608a1b6044820152606490fd5b60405162461bcd60e51b815260206004820152601d60248201527f496e73756666696369656e7420636f6e74726163742062616c616e63650000006044820152606490fd5b60405162461bcd60e51b815260206004820152601c60248201527f496e73756666696369656e7420726566657272616c20706f696e7473000000006044820152606490fd5b346101c95760003660031901126101c957611518612170565b47801561159d57600080808084335af1611530611dd5565b5015611564576040519081527f7084f5476618d8e60b11ef0d7d3f06914655adb8793e28ff7f018d4c76d505d560203392a2005b60405162461bcd60e51b815260206004820152601160248201527015da5d1a191c985dd85b0819985a5b1959607a1b6044820152606490fd5b60405162461bcd60e51b81526020600482015260136024820152724e6f7468696e6720746f20776974686472617760681b6044820152606490fd5b346101c95760203660031901126101c9576001600160a01b036115f96119b8565b1660005260036020526020604060002054604051908152f35b346101c95760403660031901126101c95760043560243560055490818310156117655780151580611759575b156117255761165f91611652849283611d5d565b8180821091180218611d6a565b9061166982611d8f565b9061167383611d8f565b9261167d81611d8f565b9160005b82811061169b5750505061074b9060405193849384611a74565b806116b06116ab60019385611d5d565b611b15565b838060a01b0391549060031b1c166116c88288611dc1565b52818060a01b036116d98288611dc1565b511660005260036020526040600020546116f38289611dc1565b52818060a01b036117048288611dc1565b5116600052600460205260406000205461171e8287611dc1565b5201611681565b60405162461bcd60e51b815260206004820152600c60248201526b496e76616c69642073697a6560a01b6044820152606490fd5b506103e881111561163e565b60405162461bcd60e51b815260206004820152600d60248201526c125b9d985b1a59081cdd185c9d609a1b6044820152606490fd5b6117a3366119fc565b91906001600160a01b0382166117ba811515611cb1565b6117e56040518584823760088187019081528190036020019020546001600160a01b03161515611cf1565b80600052600a6020526117fc604060002054611b46565b1561180b575b6106e583611f3c565b80600052600a602052604060002067ffffffffffffffff8511610462576118328154611b46565b601f8111611936575b506000601f86116001146118c057946000805160206123b383398151915291816106e5976000916118b5575b508260011b906000198460031b1c19161790555b60405181858237818101906008825260208160018060a01b0393030190205416936118ab60405192839283611d35565b0390a38280611802565b905085013588611867565b8181526020812090601f198716815b81811061191e5750916000805160206123b38339815191529391886106e5999410611904575b5050600182811b01905561187b565b860135600019600385901b60f8161c1916905587806118f5565b9192602060018192868a0135815501940192016118cf565b816000526020600020601f870160051c81019160208810611974575b601f0160051c01905b818110611968575061183b565b6000815560010161195b565b9091508190611952565b346101c95760003660031901126101c95760206040516302faf0808152f35b346101c95760003660031901126101c9576020906001548152f35b600435906001600160a01b03821682036101c957565b9181601f840112156101c95782359167ffffffffffffffff83116101c957602083818601950101116101c957565b9060406003198301126101c9576004356001600160a01b03811681036101c957916024359067ffffffffffffffff82116101c957611a3c916004016119ce565b9091565b906020808351928381520192019060005b818110611a5e5750505090565b8251845260209384019390920191600101611a51565b91939290936060830160608452855180915260206080850196019060005b818110611ac35750505084611ab29184611ac09697036020860152611a40565b916040818403910152611a40565b90565b82516001600160a01b0316885260209788019790920191600101611a92565b60609060031901126101c9576004356001600160a01b03811681036101c957906024359060443580151581036101c95790565b600554811015611b3057600560005260206000200190600090565b634e487b7160e01b600052603260045260246000fd5b90600182811c92168015611b76575b6020831014611b6057565b634e487b7160e01b600052602260045260246000fd5b91607f1691611b55565b90601f8019910116810190811067ffffffffffffffff82111761046257604052565b9060405191826000825492611bb684611b46565b8084529360018116908115611c245750600114611bdd575b50611bdb92500383611b80565b565b90506000929192526020600020906000915b818310611c08575050906020611bdb9282010138611bce565b6020919350806001915483858901015201910190918492611bef565b905060209250611bdb94915060ff191682840152151560051b82010138611bce565b60005b838110611c595750506000910152565b8181015183820152602001611c49565b60409160208252611c898151809281602086015260208686019101611c46565b601f01601f1916010190565b67ffffffffffffffff811161046257601f01601f191660200190565b15611cb857565b60405162461bcd60e51b8152602060048201526011602482015270125b9d985b1a59081c9958da5c1a595b9d607a1b6044820152606490fd5b15611cf857565b60405162461bcd60e51b8152602060048201526015602482015274496e76616c696420726566657272616c20636f646560581b6044820152606490fd5b90918060409360208452816020850152848401376000828201840152601f01601f1916010190565b9190820180921161103857565b9190820391821161103857565b67ffffffffffffffff81116104625760051b60200190565b90611d9982611d77565b611da66040519182611b80565b8281528092611db7601f1991611d77565b0190602036910137565b8051821015611b305760209160051b010190565b3d15611e00573d90611de682611c95565b91611df46040519384611b80565b82523d6000602084013e565b606090565b15611e0c57565b60405162461bcd60e51b815260206004820152601d60248201527f416d6f756e74206d7573742062652067726561746572207468616e20300000006044820152606490fd5b15611e5857565b60405162461bcd60e51b8152602060048201526014602482015273496e76616c69642075736572206164647265737360601b6044820152606490fd5b6005546801000000000000000081101561046257600181016005556000600554821015611f0057600590527f036b6384b5eca791c62761152d0c79bb0604c104a5fb6f4eb0703f3154bb3db00180546001600160a01b0319166001600160a01b03909216919091179055565b634e487b7160e01b81526032600452602490fd5b6002546302faf0808110611f285750600090565b6302faf080036302faf08081116110385790565b670de0b6b3a7640000341061215357670de0b6b3a7640000340460328102908082046032149015171561103857670de0b6b3a764000034069060328202918083046032149015171561103857670de0b6b3a7640000611f9c920490611d5d565b908160018060a01b0382169283600052600a602052611fbe6040600020611ba2565b80511561210f5760015480840290848204148415171561103857612710611fe791048094611d5d565b6302faf080611ff882600254611d5d565b11610866577f900825d4808e50002c1a3614c809eb06d2d7142338f0dec06ed9a4057c8a8c9994602094612097938661203a6040519283815193849201611c46565b600890820190815281900387019020546001600160a01b031690816120ca575b50505b86600052600385526040600020612075858254611d5d565b9055866000526006855260ff60406000205416156120a3575b50600254611d5d565b600255604051908152a2565b6120ac90611e94565b85600052600684526040600020600160ff198254161790553861208e565b868891836000526003825260406000206120e5828254611d5d565b9055836000526004825260406000206120ff828254611d5d565b9055604051908152a2388061205a565b506302faf08061212183600254611d5d565b11610866576120976020927f900825d4808e50002c1a3614c809eb06d2d7142338f0dec06ed9a4057c8a8c999461205d565b6382ad390560e01b600052670de0b6b3a764000060045260246000fd5b6000546001600160a01b0316330361218457565b63118cdaa760e01b6000523360045260246000fd5b8181039291600013801582851316918412161761103857565b9190916000838201938412911290801582169115161761103857565b6001600160ff1b0381146110385760010190565b600160ff1b8114611038576000190190565b93929190838312156122475761222661222061221a6122138688612199565b6002900590565b856121b2565b82611dc1565b51839085905b818613156122745750808212612261575b505083831261224e575b5050505050565b612257946121f4565b3880808080612247565b61226d918484896121f4565b388061223d565b9694979192979590955b87612289828b611dc1565b51111561229e57612299906121ce565b61227e565b94955b876122ac828b611dc1565b5110156122c1576122bc906121e2565b6122a1565b9095969792919781861361222c57909461238661238c916123296122f56122e88a8d611dc1565b516001600160a01b031690565b61231f8c6123108c61230a6122e88885611dc1565b92611dc1565b6001600160a01b039091169052565b612310838d611dc1565b6123338887611dc1565b5161233e8288611dc1565b516123498a89611dc1565b526123548288611dc1565b5261235f8888611dc1565b5161236a8289611dc1565b516123758a8a611dc1565b526123808289611dc1565b526121ce565b956121e2565b9061222c56fee8ca9ff7362b2885ad0e2b48628ea1734bf0e9ffaa84267274cfd05ab4897d547f4295d529cb1fafd5eee3e47f17f636e81a66d5bb99a18711f2b46e3ec58151a2646970667358221220ac542d9bdcf7e9b773d97909a831d91e90f417f06a8c5a2a5722dd2e5acbfdb964736f6c634300081c0033","opcodes":"PUSH1 0x80 DUP1 PUSH1 0x40 MSTORE CALLVALUE PUSH1 0x7B JUMPI CALLER ISZERO PUSH1 0x65 JUMPI PUSH1 0x0 DUP1 SLOAD CALLER PUSH1 0x1 PUSH1 0x1 PUSH1 0xA0 SHL SUB NOT DUP3 AND DUP2 OR DUP4 SSTORE SWAP2 PUSH1 0x1 PUSH1 0x1 PUSH1 0xA0 SHL SUB SWAP1 SWAP2 AND SWAP1 PUSH32 0x8BE0079C531659141344CD1FD0A4F28419497F9722A3DAAFE3B4186F6B6457E0 SWAP1 DUP1 LOG3 PUSH2 0x1388 PUSH1 0x1 SSTORE PUSH2 0x2408 SWAP1 DUP2 PUSH2 0x81 DUP3 CODECOPY RETURN JUMPDEST PUSH4 0x1E4FBDF7 PUSH1 0xE0 SHL PUSH1 0x0 MSTORE PUSH1 0x0 PUSH1 0x4 MSTORE PUSH1 0x24 PUSH1 0x0 REVERT JUMPDEST PUSH1 0x0 DUP1 REVERT INVALID PUSH1 0x80 DUP1 PUSH1 0x40 MSTORE PUSH1 0x4 CALLDATASIZE LT ISZERO PUSH2 0x13 JUMPI PUSH1 0x0 DUP1 REVERT JUMPDEST PUSH1 0x0 CALLDATALOAD PUSH1 0xE0 SHR SWAP1 DUP2 PUSH4 0x195AD3D5 EQ PUSH2 0x199D JUMPI POP DUP1 PUSH4 0x25F87D23 EQ PUSH2 0x197E JUMPI DUP1 PUSH4 0x2E8D97B7 EQ PUSH2 0x179A JUMPI DUP1 PUSH4 0x350A8F6C EQ PUSH2 0x1612 JUMPI DUP1 PUSH4 0x358B8166 EQ PUSH2 0x15D8 JUMPI DUP1 PUSH4 0x3CCFD60B EQ PUSH2 0x14FF JUMPI DUP1 PUSH4 0x4347F23B EQ PUSH2 0x133F JUMPI DUP1 PUSH4 0x5035070B EQ PUSH2 0x1300 JUMPI DUP1 PUSH4 0x59FB7752 EQ PUSH2 0x10F5 JUMPI DUP1 PUSH4 0x65DBCD43 EQ PUSH2 0x10D9 JUMPI DUP1 PUSH4 0x6D763A6E EQ PUSH2 0xFB6 JUMPI DUP1 PUSH4 0x715018A6 EQ PUSH2 0xF5D JUMPI DUP1 PUSH4 0x81A3B8EA EQ PUSH2 0xF41 JUMPI DUP1 PUSH4 0x8DA5CB5B EQ PUSH2 0xF18 JUMPI DUP1 PUSH4 0x935ECB6B EQ PUSH2 0xCA9 JUMPI DUP1 PUSH4 0x97CBBF24 EQ PUSH2 0xB5A JUMPI DUP1 PUSH4 0x9A037AA0 EQ PUSH2 0xAEB JUMPI DUP1 PUSH4 0x9A198D61 EQ PUSH2 0xA40 JUMPI DUP1 PUSH4 0xA1283A68 EQ PUSH2 0x9C3 JUMPI DUP1 PUSH4 0xAA67C919 EQ PUSH2 0x993 JUMPI DUP1 PUSH4 0xB810FB43 EQ PUSH2 0x951 JUMPI DUP1 PUSH4 0xB868E7A1 EQ PUSH2 0x917 JUMPI DUP1 PUSH4 0xBD867242 EQ PUSH2 0x74F JUMPI DUP1 PUSH4 0xCA7EEB57 EQ PUSH2 0x705 JUMPI DUP1 PUSH4 0xCDBB02AF EQ PUSH2 0x6E7 JUMPI DUP1 PUSH4 0xD0E30DB0 EQ PUSH2 0x6D0 JUMPI DUP1 PUSH4 0xD5B9221B EQ PUSH2 0x691 JUMPI DUP1 PUSH4 0xD6F92372 EQ PUSH2 0x5EF JUMPI DUP1 PUSH4 0xE1E158A5 EQ PUSH2 0x5CC JUMPI DUP1 PUSH4 0xEB72D4F1 EQ PUSH2 0x592 JUMPI DUP1 PUSH4 0xEE204ABB EQ PUSH2 0x546 JUMPI DUP1 PUSH4 0xF2FDE38B EQ PUSH2 0x4BD JUMPI DUP1 PUSH4 0xF4F02A4D EQ PUSH2 0x2BC JUMPI DUP1 PUSH4 0xF5EE80E1 EQ PUSH2 0x299 JUMPI DUP1 PUSH4 0xF60CCC86 EQ PUSH2 0x1CE JUMPI PUSH4 0xFD1C8811 EQ PUSH2 0x1AB JUMPI PUSH1 0x0 DUP1 REVERT JUMPDEST CALLVALUE PUSH2 0x1C9 JUMPI PUSH1 0x0 CALLDATASIZE PUSH1 0x3 NOT ADD SLT PUSH2 0x1C9 JUMPI PUSH1 0x20 PUSH1 0x2 SLOAD PUSH1 0x40 MLOAD SWAP1 DUP2 MSTORE RETURN JUMPDEST PUSH1 0x0 DUP1 REVERT JUMPDEST CALLVALUE PUSH2 0x1C9 JUMPI PUSH1 0x40 CALLDATASIZE PUSH1 0x3 NOT ADD SLT PUSH2 0x1C9 JUMPI PUSH2 0x1E7 PUSH2 0x19B8 JUMP JUMPDEST PUSH1 0x24 CALLDATALOAD SWAP1 DUP2 ISZERO ISZERO DUP1 SWAP3 SUB PUSH2 0x1C9 JUMPI PUSH2 0x1FD PUSH2 0x2170 JUMP JUMPDEST PUSH1 0x1 PUSH1 0x1 PUSH1 0xA0 SHL SUB AND SWAP1 DUP2 ISZERO PUSH2 0x254 JUMPI PUSH1 0x20 PUSH32 0xFB9BA5F99F5C43D50C89B686BBEAAFF49442447B445C123CE00589F4C2FAE184 SWAP2 DUP4 PUSH1 0x0 MSTORE PUSH1 0x7 DUP3 MSTORE PUSH1 0x40 PUSH1 0x0 KECCAK256 PUSH1 0xFF NOT DUP2 SLOAD AND PUSH1 0xFF DUP4 AND OR SWAP1 SSTORE PUSH1 0x40 MLOAD SWAP1 DUP2 MSTORE LOG2 STOP JUMPDEST PUSH1 0x40 MLOAD PUSH3 0x461BCD PUSH1 0xE5 SHL DUP2 MSTORE PUSH1 0x20 PUSH1 0x4 DUP3 ADD MSTORE PUSH1 0x18 PUSH1 0x24 DUP3 ADD MSTORE PUSH32 0x496E76616C696420636F6E747261637420616464726573730000000000000000 PUSH1 0x44 DUP3 ADD MSTORE PUSH1 0x64 SWAP1 REVERT JUMPDEST CALLVALUE PUSH2 0x1C9 JUMPI PUSH1 0x0 CALLDATASIZE PUSH1 0x3 NOT ADD SLT PUSH2 0x1C9 JUMPI PUSH1 0x20 PUSH2 0x2B4 PUSH2 0x1F14 JUMP JUMPDEST PUSH1 0x40 MLOAD SWAP1 DUP2 MSTORE RETURN JUMPDEST CALLVALUE PUSH2 0x1C9 JUMPI PUSH2 0x2CA CALLDATASIZE PUSH2 0x19FC JUMP JUMPDEST SWAP1 SWAP2 PUSH2 0x2D4 PUSH2 0x2170 JUMP JUMPDEST PUSH1 0x1 PUSH1 0x1 PUSH1 0xA0 SHL SUB AND PUSH2 0x2E8 DUP2 ISZERO ISZERO PUSH2 0x1E51 JUMP JUMPDEST PUSH2 0x2F3 DUP3 ISZERO ISZERO PUSH2 0x1CF1 JUMP JUMPDEST PUSH1 0x40 MLOAD DUP3 DUP5 DUP3 CALLDATACOPY PUSH1 0x8 DUP2 DUP5 ADD SWAP1 DUP2 MSTORE DUP2 SWAP1 SUB PUSH1 0x20 ADD SWAP1 KECCAK256 SLOAD PUSH1 0x1 PUSH1 0x1 PUSH1 0xA0 SHL SUB AND SWAP2 DUP3 ISZERO PUSH2 0x478 JUMPI DUP2 PUSH1 0x0 MSTORE PUSH1 0xA PUSH1 0x20 MSTORE PUSH1 0x40 PUSH1 0x0 KECCAK256 SWAP4 PUSH8 0xFFFFFFFFFFFFFFFF DUP3 GT PUSH2 0x462 JUMPI PUSH2 0x343 DUP6 SLOAD PUSH2 0x1B46 JUMP JUMPDEST PUSH1 0x1F DUP2 GT PUSH2 0x41A JUMPI JUMPDEST POP PUSH1 0x0 SWAP5 PUSH1 0x1F DUP4 GT PUSH1 0x1 EQ PUSH2 0x3A9 JUMPI DUP3 PUSH1 0x0 DUP1 MLOAD PUSH1 0x20 PUSH2 0x23B3 DUP4 CODECOPY DUP2 MLOAD SWAP2 MSTORE SWAP5 SWAP6 SWAP7 PUSH1 0x0 SWAP2 PUSH2 0x39E JUMPI JUMPDEST POP DUP4 PUSH1 0x1 SHL SWAP1 PUSH1 0x0 NOT DUP6 PUSH1 0x3 SHL SHR NOT AND OR SWAP1 SSTORE JUMPDEST PUSH2 0x399 PUSH1 0x40 MLOAD SWAP3 DUP4 SWAP3 DUP4 PUSH2 0x1D35 JUMP JUMPDEST SUB SWAP1 LOG3 STOP JUMPDEST SWAP1 POP DUP3 ADD CALLDATALOAD DUP8 PUSH2 0x376 JUMP JUMPDEST DUP1 DUP7 MSTORE PUSH1 0x20 DUP7 KECCAK256 PUSH1 0x1F NOT DUP5 AND SWAP7 DUP1 JUMPDEST DUP9 DUP2 LT PUSH2 0x402 JUMPI POP DUP5 PUSH1 0x0 DUP1 MLOAD PUSH1 0x20 PUSH2 0x23B3 DUP4 CODECOPY DUP2 MLOAD SWAP2 MSTORE SWAP7 SWAP8 SWAP9 LT PUSH2 0x3E8 JUMPI JUMPDEST POP POP PUSH1 0x1 DUP4 DUP2 SHL ADD SWAP1 SSTORE PUSH2 0x38A JUMP JUMPDEST DUP4 ADD CALLDATALOAD PUSH1 0x0 NOT PUSH1 0x3 DUP7 SWAP1 SHL PUSH1 0xF8 AND SHR NOT AND SWAP1 SSTORE DUP7 DUP1 PUSH2 0x3D9 JUMP JUMPDEST SWAP1 SWAP2 PUSH1 0x20 PUSH1 0x1 DUP2 SWAP3 DUP6 DUP9 ADD CALLDATALOAD DUP2 SSTORE ADD SWAP4 ADD SWAP2 ADD PUSH2 0x3B8 JUMP JUMPDEST DUP6 PUSH1 0x0 MSTORE PUSH1 0x20 PUSH1 0x0 KECCAK256 PUSH1 0x1F DUP5 ADD PUSH1 0x5 SHR DUP2 ADD SWAP2 PUSH1 0x20 DUP6 LT PUSH2 0x458 JUMPI JUMPDEST PUSH1 0x1F ADD PUSH1 0x5 SHR ADD SWAP1 JUMPDEST DUP2 DUP2 LT PUSH2 0x44C JUMPI POP PUSH2 0x34C JUMP JUMPDEST PUSH1 0x0 DUP2 SSTORE PUSH1 0x1 ADD PUSH2 0x43F JUMP JUMPDEST SWAP1 SWAP2 POP DUP2 SWAP1 PUSH2 0x436 JUMP JUMPDEST PUSH4 0x4E487B71 PUSH1 0xE0 SHL PUSH1 0x0 MSTORE PUSH1 0x41 PUSH1 0x4 MSTORE PUSH1 0x24 PUSH1 0x0 REVERT JUMPDEST PUSH1 0x40 MLOAD PUSH3 0x461BCD PUSH1 0xE5 SHL DUP2 MSTORE PUSH1 0x20 PUSH1 0x4 DUP3 ADD MSTORE PUSH1 0x1C PUSH1 0x24 DUP3 ADD MSTORE PUSH32 0x526566657272616C20636F646520646F6573206E6F7420657869737400000000 PUSH1 0x44 DUP3 ADD MSTORE PUSH1 0x64 SWAP1 REVERT JUMPDEST CALLVALUE PUSH2 0x1C9 JUMPI PUSH1 0x20 CALLDATASIZE PUSH1 0x3 NOT ADD SLT PUSH2 0x1C9 JUMPI PUSH2 0x4D6 PUSH2 0x19B8 JUMP JUMPDEST PUSH2 0x4DE PUSH2 0x2170 JUMP JUMPDEST PUSH1 0x1 PUSH1 0x1 PUSH1 0xA0 SHL SUB AND DUP1 ISZERO PUSH2 0x530 JUMPI PUSH1 0x0 DUP1 SLOAD PUSH1 0x1 PUSH1 0x1 PUSH1 0xA0 SHL SUB NOT DUP2 AND DUP4 OR DUP3 SSTORE PUSH1 0x1 PUSH1 0x1 PUSH1 0xA0 SHL SUB AND SWAP1 PUSH32 0x8BE0079C531659141344CD1FD0A4F28419497F9722A3DAAFE3B4186F6B6457E0 SWAP1 DUP1 LOG3 STOP JUMPDEST PUSH4 0x1E4FBDF7 PUSH1 0xE0 SHL PUSH1 0x0 MSTORE PUSH1 0x0 PUSH1 0x4 MSTORE PUSH1 0x24 PUSH1 0x0 REVERT JUMPDEST CALLVALUE PUSH2 0x1C9 JUMPI PUSH1 0x20 CALLDATASIZE PUSH1 0x3 NOT ADD SLT PUSH2 0x1C9 JUMPI PUSH1 0x40 PUSH1 0x1 PUSH1 0x1 PUSH1 0xA0 SHL SUB PUSH2 0x569 PUSH2 0x19B8 JUMP JUMPDEST AND DUP1 PUSH1 0x0 MSTORE PUSH1 0x3 PUSH1 0x20 MSTORE DUP2 PUSH1 0x0 KECCAK256 SLOAD SWAP1 PUSH1 0x0 MSTORE PUSH1 0x4 PUSH1 0x20 MSTORE DUP2 PUSH1 0x0 KECCAK256 SLOAD DUP3 MLOAD SWAP2 DUP3 MSTORE PUSH1 0x20 DUP3 ADD MSTORE RETURN JUMPDEST CALLVALUE PUSH2 0x1C9 JUMPI PUSH1 0x20 CALLDATASIZE PUSH1 0x3 NOT ADD SLT PUSH2 0x1C9 JUMPI PUSH1 0x1 PUSH1 0x1 PUSH1 0xA0 SHL SUB PUSH2 0x5B3 PUSH2 0x19B8 JUMP JUMPDEST AND PUSH1 0x0 MSTORE PUSH1 0x4 PUSH1 0x20 MSTORE PUSH1 0x20 PUSH1 0x40 PUSH1 0x0 KECCAK256 SLOAD PUSH1 0x40 MLOAD SWAP1 DUP2 MSTORE RETURN JUMPDEST CALLVALUE PUSH2 0x1C9 JUMPI PUSH1 0x0 CALLDATASIZE PUSH1 0x3 NOT ADD SLT PUSH2 0x1C9 JUMPI PUSH1 0x20 PUSH1 0x40 MLOAD PUSH8 0xDE0B6B3A7640000 DUP2 MSTORE RETURN JUMPDEST CALLVALUE PUSH2 0x1C9 JUMPI PUSH1 0x20 CALLDATASIZE PUSH1 0x3 NOT ADD SLT PUSH2 0x1C9 JUMPI PUSH1 0x4 CALLDATALOAD PUSH8 0xFFFFFFFFFFFFFFFF DUP2 GT PUSH2 0x1C9 JUMPI CALLDATASIZE PUSH1 0x23 DUP3 ADD SLT ISZERO PUSH2 0x1C9 JUMPI DUP1 PUSH1 0x4 ADD CALLDATALOAD PUSH2 0x62B DUP2 PUSH2 0x1C95 JUMP JUMPDEST PUSH2 0x638 PUSH1 0x40 MLOAD SWAP2 DUP3 PUSH2 0x1B80 JUMP JUMPDEST DUP2 DUP2 MSTORE PUSH1 0x20 DUP2 ADD SWAP2 CALLDATASIZE PUSH1 0x24 DUP3 DUP7 ADD ADD GT PUSH2 0x1C9 JUMPI PUSH1 0x20 DUP2 PUSH1 0x0 SWAP3 PUSH1 0x24 DUP4 SWAP8 ADD DUP7 CALLDATACOPY DUP4 ADD ADD MSTORE PUSH2 0x66F PUSH1 0x40 MLOAD SWAP3 DUP4 SWAP3 MLOAD SWAP3 DUP4 SWAP2 PUSH2 0x1C46 JUMP JUMPDEST PUSH1 0x8 SWAP1 DUP3 ADD SWAP1 DUP2 MSTORE DUP2 SWAP1 SUB DUP3 ADD SWAP1 KECCAK256 SLOAD PUSH1 0x40 MLOAD PUSH1 0x1 PUSH1 0x1 PUSH1 0xA0 SHL SUB SWAP1 SWAP2 AND DUP2 MSTORE RETURN JUMPDEST CALLVALUE PUSH2 0x1C9 JUMPI PUSH1 0x20 CALLDATASIZE PUSH1 0x3 NOT ADD SLT PUSH2 0x1C9 JUMPI PUSH1 0x1 PUSH1 0x1 PUSH1 0xA0 SHL SUB PUSH2 0x6B2 PUSH2 0x19B8 JUMP JUMPDEST AND PUSH1 0x0 MSTORE PUSH1 0x7 PUSH1 0x20 MSTORE PUSH1 0x20 PUSH1 0xFF PUSH1 0x40 PUSH1 0x0 KECCAK256 SLOAD AND PUSH1 0x40 MLOAD SWAP1 ISZERO ISZERO DUP2 MSTORE RETURN JUMPDEST PUSH1 0x0 CALLDATASIZE PUSH1 0x3 NOT ADD SLT PUSH2 0x1C9 JUMPI PUSH2 0x6E5 CALLER PUSH2 0x1F3C JUMP JUMPDEST STOP JUMPDEST CALLVALUE PUSH2 0x1C9 JUMPI PUSH1 0x0 CALLDATASIZE PUSH1 0x3 NOT ADD SLT PUSH2 0x1C9 JUMPI PUSH1 0x20 PUSH1 0x5 SLOAD PUSH1 0x40 MLOAD SWAP1 DUP2 MSTORE RETURN JUMPDEST CALLVALUE PUSH2 0x1C9 JUMPI PUSH1 0x20 CALLDATASIZE PUSH1 0x3 NOT ADD SLT PUSH2 0x1C9 JUMPI PUSH1 0x1 PUSH1 0x1 PUSH1 0xA0 SHL SUB PUSH2 0x726 PUSH2 0x19B8 JUMP JUMPDEST AND PUSH1 0x0 MSTORE PUSH1 0xA PUSH1 0x20 MSTORE PUSH2 0x74B PUSH2 0x73F PUSH1 0x40 PUSH1 0x0 KECCAK256 PUSH2 0x1BA2 JUMP JUMPDEST PUSH1 0x40 MLOAD SWAP2 DUP3 SWAP2 DUP3 PUSH2 0x1C69 JUMP JUMPDEST SUB SWAP1 RETURN JUMPDEST CALLVALUE PUSH2 0x1C9 JUMPI PUSH2 0x75D CALLDATASIZE PUSH2 0x1AE2 JUMP JUMPDEST SWAP1 SWAP2 CALLER PUSH1 0x0 MSTORE PUSH1 0x7 PUSH1 0x20 MSTORE PUSH1 0xFF PUSH1 0x40 PUSH1 0x0 KECCAK256 SLOAD AND ISZERO PUSH2 0x8D2 JUMPI PUSH1 0x1 PUSH1 0x1 PUSH1 0xA0 SHL SUB DUP2 AND SWAP2 PUSH2 0x78C DUP4 ISZERO ISZERO PUSH2 0x1CB1 JUMP JUMPDEST DUP4 ISZERO PUSH2 0x881 JUMPI PUSH4 0x2FAF080 PUSH2 0x7A3 DUP6 PUSH1 0x2 SLOAD PUSH2 0x1D5D JUMP JUMPDEST GT PUSH2 0x866 JUMPI DUP3 PUSH1 0x0 MSTORE PUSH1 0x3 PUSH1 0x20 MSTORE PUSH1 0x40 PUSH1 0x0 KECCAK256 PUSH2 0x7C1 DUP6 DUP3 SLOAD PUSH2 0x1D5D JUMP JUMPDEST SWAP1 SSTORE PUSH2 0x846 JUMPI JUMPDEST DUP2 PUSH1 0x0 MSTORE PUSH1 0x6 PUSH1 0x20 MSTORE PUSH1 0xFF PUSH1 0x40 PUSH1 0x0 KECCAK256 SLOAD AND ISZERO PUSH2 0x81E JUMPI JUMPDEST POP PUSH2 0x7ED DUP3 PUSH1 0x2 SLOAD PUSH2 0x1D5D JUMP JUMPDEST PUSH1 0x2 SSTORE PUSH1 0x40 MLOAD SWAP2 DUP3 MSTORE PUSH32 0x42032642F062F0971FA1A8E87754F6BD29AD5BC0AF71930001C124884B9883DF PUSH1 0x20 CALLER SWAP4 LOG3 STOP JUMPDEST PUSH2 0x827 SWAP1 PUSH2 0x1E94 JUMP JUMPDEST DUP1 PUSH1 0x0 MSTORE PUSH1 0x6 PUSH1 0x20 MSTORE PUSH1 0x40 PUSH1 0x0 KECCAK256 PUSH1 0x1 PUSH1 0xFF NOT DUP3 SLOAD AND OR SWAP1 SSTORE DUP3 PUSH2 0x7E0 JUMP JUMPDEST DUP2 PUSH1 0x0 MSTORE PUSH1 0x4 PUSH1 0x20 MSTORE PUSH1 0x40 PUSH1 0x0 KECCAK256 PUSH2 0x85F DUP5 DUP3 SLOAD PUSH2 0x1D5D JUMP JUMPDEST SWAP1 SSTORE PUSH2 0x7C8 JUMP JUMPDEST PUSH2 0x86E PUSH2 0x1F14 JUMP JUMPDEST PUSH3 0x5EF85B PUSH1 0xE2 SHL PUSH1 0x0 MSTORE PUSH1 0x4 MSTORE PUSH1 0x24 PUSH1 0x0 REVERT JUMPDEST PUSH1 0x40 MLOAD PUSH3 0x461BCD PUSH1 0xE5 SHL DUP2 MSTORE PUSH1 0x20 PUSH1 0x4 DUP3 ADD MSTORE PUSH1 0x24 DUP1 DUP3 ADD MSTORE PUSH32 0x506F696E747320616D6F756E74206D7573742062652067726561746572207468 PUSH1 0x44 DUP3 ADD MSTORE PUSH4 0x616E203 PUSH1 0xE4 SHL PUSH1 0x64 DUP3 ADD MSTORE PUSH1 0x84 SWAP1 REVERT JUMPDEST PUSH1 0x40 MLOAD PUSH3 0x461BCD PUSH1 0xE5 SHL DUP2 MSTORE PUSH1 0x20 PUSH1 0x4 DUP3 ADD MSTORE PUSH1 0x17 PUSH1 0x24 DUP3 ADD MSTORE PUSH32 0x4E6F7420617574686F72697A656420636F6E7472616374000000000000000000 PUSH1 0x44 DUP3 ADD MSTORE PUSH1 0x64 SWAP1 REVERT JUMPDEST CALLVALUE PUSH2 0x1C9 JUMPI PUSH1 0x20 CALLDATASIZE PUSH1 0x3 NOT ADD SLT PUSH2 0x1C9 JUMPI PUSH1 0x1 PUSH1 0x1 PUSH1 0xA0 SHL SUB PUSH2 0x938 PUSH2 0x19B8 JUMP JUMPDEST AND PUSH1 0x0 MSTORE PUSH1 0x9 PUSH1 0x20 MSTORE PUSH2 0x74B PUSH2 0x73F PUSH1 0x40 PUSH1 0x0 KECCAK256 PUSH2 0x1BA2 JUMP JUMPDEST CALLVALUE PUSH2 0x1C9 JUMPI PUSH1 0x20 CALLDATASIZE PUSH1 0x3 NOT ADD SLT PUSH2 0x1C9 JUMPI PUSH1 0x4 CALLDATALOAD PUSH1 0x5 SLOAD DUP2 LT ISZERO PUSH2 0x1C9 JUMPI PUSH2 0x97A PUSH1 0x20 SWAP2 PUSH2 0x1B15 JUMP JUMPDEST SWAP1 SLOAD PUSH1 0x40 MLOAD PUSH1 0x3 SWAP3 SWAP1 SWAP3 SHL SHR PUSH1 0x1 PUSH1 0x1 PUSH1 0xA0 SHL SUB AND DUP2 MSTORE RETURN JUMPDEST PUSH1 0x20 CALLDATASIZE PUSH1 0x3 NOT ADD SLT PUSH2 0x1C9 JUMPI PUSH2 0x6E5 PUSH2 0x9AA PUSH2 0x19B8 JUMP JUMPDEST PUSH2 0x9BE PUSH1 0x1 PUSH1 0x1 PUSH1 0xA0 SHL SUB DUP3 AND ISZERO ISZERO PUSH2 0x1CB1 JUMP JUMPDEST PUSH2 0x1F3C JUMP JUMPDEST PUSH1 0x0 CALLDATASIZE PUSH1 0x3 NOT ADD SLT PUSH2 0x1C9 JUMPI CALLVALUE ISZERO PUSH2 0xA03 JUMPI PUSH1 0x40 MLOAD CALLVALUE DUP2 MSTORE PUSH32 0x49E370EB35B99FAD82EBA177BE2C53102FB12ACBADA7D0DE117099F6CB9EFC15 PUSH1 0x20 CALLER SWAP3 LOG2 STOP JUMPDEST PUSH1 0x40 MLOAD PUSH3 0x461BCD PUSH1 0xE5 SHL DUP2 MSTORE PUSH1 0x20 PUSH1 0x4 DUP3 ADD MSTORE PUSH1 0x15 PUSH1 0x24 DUP3 ADD MSTORE PUSH21 0x9AEAE6E840C8CAE0DEE6D2E840E6DEDACA408AA89 PUSH1 0x5B SHL PUSH1 0x44 DUP3 ADD MSTORE PUSH1 0x64 SWAP1 REVERT JUMPDEST CALLVALUE PUSH2 0x1C9 JUMPI PUSH1 0x0 CALLDATASIZE PUSH1 0x3 NOT ADD SLT PUSH2 0x1C9 JUMPI PUSH1 0x0 DUP1 PUSH1 0x40 MLOAD PUSH1 0x20 DUP2 ADD SWAP1 PUSH4 0x7983F45 PUSH1 0xE2 SHL DUP3 MSTORE PUSH1 0x97 PUSH1 0x24 DUP3 ADD MSTORE PUSH1 0x24 DUP2 MSTORE PUSH2 0xA7C PUSH1 0x44 DUP3 PUSH2 0x1B80 JUMP JUMPDEST MLOAD SWAP1 DUP3 PUSH20 0xDC2B0D2DD2B7759D97D50DB4EABDC36973110830 GAS CALL PUSH2 0xA9E PUSH2 0x1DD5 JUMP JUMPDEST POP ISZERO PUSH2 0xAA6 JUMPI STOP JUMPDEST PUSH1 0x40 MLOAD PUSH3 0x461BCD PUSH1 0xE5 SHL DUP2 MSTORE PUSH1 0x20 PUSH1 0x4 DUP3 ADD MSTORE PUSH1 0x18 PUSH1 0x24 DUP3 ADD MSTORE PUSH32 0x4665654D20726567697374726174696F6E206661696C65640000000000000000 PUSH1 0x44 DUP3 ADD MSTORE PUSH1 0x64 SWAP1 REVERT JUMPDEST CALLVALUE PUSH2 0x1C9 JUMPI PUSH1 0x20 CALLDATASIZE PUSH1 0x3 NOT ADD SLT PUSH2 0x1C9 JUMPI PUSH1 0x4 CALLDATALOAD PUSH2 0xB07 PUSH2 0x2170 JUMP JUMPDEST PUSH2 0x2710 DUP2 GT PUSH2 0xB15 JUMPI PUSH1 0x1 SSTORE STOP JUMPDEST PUSH1 0x40 MLOAD PUSH3 0x461BCD PUSH1 0xE5 SHL DUP2 MSTORE PUSH1 0x20 PUSH1 0x4 DUP3 ADD MSTORE PUSH1 0x18 PUSH1 0x24 DUP3 ADD MSTORE PUSH32 0x426F6E75732063616E6E6F742065786365656420313030250000000000000000 PUSH1 0x44 DUP3 ADD MSTORE PUSH1 0x64 SWAP1 REVERT JUMPDEST CALLVALUE PUSH2 0x1C9 JUMPI PUSH2 0xB68 CALLDATASIZE PUSH2 0x1AE2 JUMP JUMPDEST PUSH2 0xB73 SWAP3 SWAP2 SWAP3 PUSH2 0x2170 JUMP JUMPDEST PUSH1 0x1 PUSH1 0x1 PUSH1 0xA0 SHL SUB DUP3 AND SWAP3 PUSH2 0xB89 DUP5 ISZERO ISZERO PUSH2 0x1CB1 JUMP JUMPDEST PUSH2 0xB94 DUP2 ISZERO ISZERO PUSH2 0x1E05 JUMP JUMPDEST PUSH4 0x2FAF080 PUSH2 0xBA5 DUP3 PUSH1 0x2 SLOAD PUSH2 0x1D5D JUMP JUMPDEST GT PUSH2 0xC64 JUMPI PUSH32 0x900825D4808E50002C1A3614C809EB06D2D7142338F0DEC06ED9A4057C8A8C99 SWAP3 PUSH1 0x20 SWAP3 DUP6 PUSH1 0x0 MSTORE PUSH1 0x3 DUP5 MSTORE PUSH1 0x40 PUSH1 0x0 KECCAK256 PUSH2 0xBE7 DUP5 DUP3 SLOAD PUSH2 0x1D5D JUMP JUMPDEST SWAP1 SSTORE PUSH2 0xC45 JUMPI JUMPDEST DUP5 PUSH1 0x0 MSTORE PUSH1 0x6 DUP4 MSTORE PUSH1 0xFF PUSH1 0x40 PUSH1 0x0 KECCAK256 SLOAD AND ISZERO PUSH2 0xC1E JUMPI JUMPDEST POP PUSH2 0xC12 DUP2 PUSH1 0x2 SLOAD PUSH2 0x1D5D JUMP JUMPDEST PUSH1 0x2 SSTORE PUSH1 0x40 MLOAD SWAP1 DUP2 MSTORE LOG2 STOP JUMPDEST PUSH2 0xC27 SWAP1 PUSH2 0x1E94 JUMP JUMPDEST DUP4 PUSH1 0x0 MSTORE PUSH1 0x6 DUP3 MSTORE PUSH1 0x40 PUSH1 0x0 KECCAK256 PUSH1 0x1 PUSH1 0xFF NOT DUP3 SLOAD AND OR SWAP1 SSTORE DUP5 PUSH2 0xC05 JUMP JUMPDEST DUP5 PUSH1 0x0 MSTORE PUSH1 0x4 DUP4 MSTORE PUSH1 0x40 PUSH1 0x0 KECCAK256 PUSH2 0xC5D DUP4 DUP3 SLOAD PUSH2 0x1D5D JUMP JUMPDEST SWAP1 SSTORE PUSH2 0xBEE JUMP JUMPDEST PUSH1 0x40 MLOAD PUSH3 0x461BCD PUSH1 0xE5 SHL DUP2 MSTORE PUSH1 0x20 PUSH1 0x4 DUP3 ADD MSTORE PUSH1 0x17 PUSH1 0x24 DUP3 ADD MSTORE PUSH32 0x576F756C642065786365656420706F696E747320636170000000000000000000 PUSH1 0x44 DUP3 ADD MSTORE PUSH1 0x64 SWAP1 REVERT JUMPDEST CALLVALUE PUSH2 0x1C9 JUMPI PUSH2 0xCB7 CALLDATASIZE PUSH2 0x19FC JUMP JUMPDEST SWAP1 SWAP2 PUSH2 0xCC1 PUSH2 0x2170 JUMP JUMPDEST PUSH1 0x1 PUSH1 0x1 PUSH1 0xA0 SHL SUB AND SWAP1 PUSH2 0xCD6 DUP3 ISZERO ISZERO PUSH2 0x1E51 JUMP JUMPDEST PUSH1 0x14 DUP2 GT PUSH2 0xF07 JUMPI DUP1 ISZERO PUSH2 0xEF6 JUMPI PUSH1 0x40 MLOAD DUP2 DUP5 DUP3 CALLDATACOPY PUSH1 0x8 DUP2 DUP4 ADD SWAP1 DUP2 MSTORE DUP2 SWAP1 SUB PUSH1 0x20 ADD SWAP1 KECCAK256 SLOAD PUSH1 0x1 PUSH1 0x1 PUSH1 0xA0 SHL SUB AND DUP1 ISZERO ISZERO SWAP1 DUP4 SWAP1 DUP3 PUSH2 0xEEB JUMPI JUMPDEST POP POP PUSH2 0xEDA JUMPI DUP2 PUSH1 0x0 MSTORE PUSH1 0x9 PUSH1 0x20 MSTORE PUSH2 0xD2D PUSH1 0x40 PUSH1 0x0 KECCAK256 PUSH2 0x1BA2 JUMP JUMPDEST DUP1 MLOAD DUP1 PUSH2 0xEA3 JUMPI JUMPDEST POP POP PUSH1 0x40 MLOAD DUP2 DUP5 DUP3 CALLDATACOPY PUSH1 0x20 DUP2 DUP4 DUP2 ADD PUSH1 0x8 DUP2 MSTORE SUB ADD SWAP1 KECCAK256 DUP3 PUSH1 0x1 PUSH1 0x1 PUSH1 0x60 SHL SUB PUSH1 0xA0 SHL DUP3 SLOAD AND OR SWAP1 SSTORE DUP2 PUSH1 0x0 MSTORE PUSH1 0x9 PUSH1 0x20 MSTORE PUSH1 0x40 PUSH1 0x0 KECCAK256 SWAP3 PUSH8 0xFFFFFFFFFFFFFFFF DUP3 GT PUSH2 0x462 JUMPI PUSH2 0xD86 DUP5 SLOAD PUSH2 0x1B46 JUMP JUMPDEST PUSH1 0x1F DUP2 GT PUSH2 0xE5B JUMPI JUMPDEST POP PUSH1 0x0 SWAP4 PUSH1 0x1F DUP4 GT PUSH1 0x1 EQ PUSH2 0xDEB JUMPI DUP3 PUSH1 0x0 DUP1 MLOAD PUSH1 0x20 PUSH2 0x2393 DUP4 CODECOPY DUP2 MLOAD SWAP2 MSTORE SWAP5 SWAP6 PUSH1 0x0 SWAP2 PUSH2 0xDE0 JUMPI JUMPDEST POP DUP4 PUSH1 0x1 SHL SWAP1 PUSH1 0x0 NOT DUP6 PUSH1 0x3 SHL SHR NOT AND OR SWAP1 SSTORE JUMPDEST PUSH2 0xDDB PUSH1 0x40 MLOAD SWAP3 DUP4 SWAP3 DUP4 PUSH2 0x1D35 JUMP JUMPDEST SUB SWAP1 LOG2 STOP JUMPDEST SWAP1 POP DUP3 ADD CALLDATALOAD DUP7 PUSH2 0xDB8 JUMP JUMPDEST DUP1 DUP6 MSTORE PUSH1 0x20 DUP6 KECCAK256 PUSH1 0x1F NOT DUP5 AND SWAP6 DUP1 JUMPDEST DUP8 DUP2 LT PUSH2 0xE43 JUMPI POP DUP5 PUSH1 0x0 DUP1 MLOAD PUSH1 0x20 PUSH2 0x2393 DUP4 CODECOPY DUP2 MLOAD SWAP2 MSTORE SWAP7 SWAP8 LT PUSH2 0xE29 JUMPI JUMPDEST POP POP PUSH1 0x1 DUP4 DUP2 SHL ADD SWAP1 SSTORE PUSH2 0xDCC JUMP JUMPDEST DUP4 ADD CALLDATALOAD PUSH1 0x0 NOT PUSH1 0x3 DUP7 SWAP1 SHL PUSH1 0xF8 AND SHR NOT AND SWAP1 SSTORE DUP6 DUP1 PUSH2 0xE1A JUMP JUMPDEST SWAP1 SWAP2 PUSH1 0x20 PUSH1 0x1 DUP2 SWAP3 DUP6 DUP9 ADD CALLDATALOAD DUP2 SSTORE ADD SWAP4 ADD SWAP2 ADD PUSH2 0xDFA JUMP JUMPDEST DUP5 PUSH1 0x0 MSTORE PUSH1 0x20 PUSH1 0x0 KECCAK256 PUSH1 0x1F DUP5 ADD PUSH1 0x5 SHR DUP2 ADD SWAP2 PUSH1 0x20 DUP6 LT PUSH2 0xE99 JUMPI JUMPDEST PUSH1 0x1F ADD PUSH1 0x5 SHR ADD SWAP1 JUMPDEST DUP2 DUP2 LT PUSH2 0xE8D JUMPI POP PUSH2 0xD8F JUMP JUMPDEST PUSH1 0x0 DUP2 SSTORE PUSH1 0x1 ADD PUSH2 0xE80 JUMP JUMPDEST SWAP1 SWAP2 POP DUP2 SWAP1 PUSH2 0xE77 JUMP JUMPDEST PUSH1 0x20 SWAP2 DUP2 PUSH2 0xEB9 DUP5 SWAP4 PUSH1 0x40 MLOAD DUP1 SWAP7 DUP2 SWAP6 ADD PUSH2 0x1C46 JUMP JUMPDEST DUP2 ADD PUSH1 0x8 DUP2 MSTORE SUB ADD SWAP1 KECCAK256 PUSH1 0x1 PUSH1 0x1 PUSH1 0x60 SHL SUB PUSH1 0xA0 SHL DUP2 SLOAD AND SWAP1 SSTORE DUP4 DUP1 PUSH2 0xD35 JUMP JUMPDEST PUSH4 0xF8F4728D PUSH1 0xE0 SHL PUSH1 0x0 MSTORE PUSH1 0x4 PUSH1 0x0 REVERT JUMPDEST EQ ISZERO SWAP1 POP DUP3 DUP6 PUSH2 0xD11 JUMP JUMPDEST PUSH4 0xE55B4629 PUSH1 0xE0 SHL PUSH1 0x0 MSTORE PUSH1 0x4 PUSH1 0x0 REVERT JUMPDEST PUSH4 0x2E22FD3 PUSH1 0xE1 SHL PUSH1 0x0 MSTORE PUSH1 0x4 PUSH1 0x0 REVERT JUMPDEST CALLVALUE PUSH2 0x1C9 JUMPI PUSH1 0x0 CALLDATASIZE PUSH1 0x3 NOT ADD SLT PUSH2 0x1C9 JUMPI PUSH1 0x0 SLOAD PUSH1 0x40 MLOAD PUSH1 0x1 PUSH1 0x1 PUSH1 0xA0 SHL SUB SWAP1 SWAP2 AND DUP2 MSTORE PUSH1 0x20 SWAP1 RETURN JUMPDEST CALLVALUE PUSH2 0x1C9 JUMPI PUSH1 0x0 CALLDATASIZE PUSH1 0x3 NOT ADD SLT PUSH2 0x1C9 JUMPI PUSH1 0x20 PUSH1 0x40 MLOAD PUSH1 0x4B DUP2 MSTORE RETURN JUMPDEST CALLVALUE PUSH2 0x1C9 JUMPI PUSH1 0x0 CALLDATASIZE PUSH1 0x3 NOT ADD SLT PUSH2 0x1C9 JUMPI PUSH2 0xF76 PUSH2 0x2170 JUMP JUMPDEST PUSH1 0x0 DUP1 SLOAD PUSH1 0x1 PUSH1 0x1 PUSH1 0xA0 SHL SUB NOT DUP2 AND DUP3 SSTORE PUSH1 0x1 PUSH1 0x1 PUSH1 0xA0 SHL SUB AND PUSH32 0x8BE0079C531659141344CD1FD0A4F28419497F9722A3DAAFE3B4186F6B6457E0 DUP3 DUP1 LOG3 STOP JUMPDEST CALLVALUE PUSH2 0x1C9 JUMPI PUSH1 0x0 CALLDATASIZE PUSH1 0x3 NOT ADD SLT PUSH2 0x1C9 JUMPI PUSH1 0x5 SLOAD PUSH1 0x64 DUP1 DUP3 LT SWAP2 XOR MUL PUSH1 0x64 XOR PUSH2 0xFDE DUP2 PUSH2 0x1D8F JUMP JUMPDEST PUSH2 0xFE7 DUP3 PUSH2 0x1D8F JUMP JUMPDEST SWAP2 PUSH2 0xFF1 DUP2 PUSH2 0x1D8F JUMP JUMPDEST PUSH1 0x0 JUMPDEST DUP3 DUP2 LT PUSH2 0x104E JUMPI POP PUSH1 0x1 DUP3 GT PUSH2 0x1016 JUMPI JUMPDEST PUSH2 0x74B SWAP2 POP PUSH1 0x40 MLOAD SWAP4 DUP5 SWAP4 DUP5 PUSH2 0x1A74 JUMP JUMPDEST PUSH1 0x0 NOT DUP3 ADD SWAP2 DUP3 GT PUSH2 0x1038 JUMPI PUSH2 0x1033 PUSH2 0x74B SWAP3 PUSH1 0x0 DUP4 DUP8 DUP8 PUSH2 0x21F4 JUMP JUMPDEST PUSH2 0x1005 JUMP JUMPDEST PUSH4 0x4E487B71 PUSH1 0xE0 SHL PUSH1 0x0 MSTORE PUSH1 0x11 PUSH1 0x4 MSTORE PUSH1 0x24 PUSH1 0x0 REVERT JUMPDEST DUP1 PUSH2 0x105A PUSH1 0x1 SWAP3 PUSH2 0x1B15 JUMP JUMPDEST SWAP1 SLOAD DUP4 DUP1 PUSH1 0xA0 SHL SUB SWAP2 PUSH1 0x3 SHL SHR AND PUSH2 0x1072 DUP3 DUP8 PUSH2 0x1DC1 JUMP JUMPDEST MSTORE PUSH1 0x40 PUSH2 0x107E DUP3 PUSH2 0x1B15 JUMP JUMPDEST SWAP1 SLOAD DUP5 DUP1 PUSH1 0xA0 SHL SUB SWAP2 PUSH1 0x3 SHL SHR AND PUSH1 0x0 SWAP1 DUP2 MSTORE PUSH1 0x3 PUSH1 0x20 MSTORE KECCAK256 SLOAD PUSH2 0x10A2 DUP3 DUP9 PUSH2 0x1DC1 JUMP JUMPDEST MSTORE PUSH1 0x40 PUSH2 0x10AE DUP3 PUSH2 0x1B15 JUMP JUMPDEST SWAP1 SLOAD DUP5 DUP1 PUSH1 0xA0 SHL SUB SWAP2 PUSH1 0x3 SHL SHR AND PUSH1 0x0 SWAP1 DUP2 MSTORE PUSH1 0x4 PUSH1 0x20 MSTORE KECCAK256 SLOAD PUSH2 0x10D2 DUP3 DUP6 PUSH2 0x1DC1 JUMP JUMPDEST MSTORE ADD PUSH2 0xFF4 JUMP JUMPDEST CALLVALUE PUSH2 0x1C9 JUMPI PUSH1 0x0 CALLDATASIZE PUSH1 0x3 NOT ADD SLT PUSH2 0x1C9 JUMPI PUSH1 0x20 PUSH1 0x40 MLOAD PUSH1 0x32 DUP2 MSTORE RETURN JUMPDEST CALLVALUE PUSH2 0x1C9 JUMPI PUSH1 0x20 CALLDATASIZE PUSH1 0x3 NOT ADD SLT PUSH2 0x1C9 JUMPI PUSH1 0x4 CALLDATALOAD PUSH8 0xFFFFFFFFFFFFFFFF DUP2 GT PUSH2 0x1C9 JUMPI PUSH2 0x1126 SWAP1 CALLDATASIZE SWAP1 PUSH1 0x4 ADD PUSH2 0x19CE JUMP JUMPDEST PUSH1 0x14 DUP2 GT PUSH2 0xF07 JUMPI DUP1 ISZERO PUSH2 0xEF6 JUMPI PUSH1 0x40 MLOAD DUP2 DUP4 DUP3 CALLDATACOPY PUSH1 0x8 DUP2 DUP4 ADD SWAP1 DUP2 MSTORE DUP2 SWAP1 SUB PUSH1 0x20 ADD SWAP1 KECCAK256 SLOAD PUSH1 0x1 PUSH1 0x1 PUSH1 0xA0 SHL SUB AND DUP1 ISZERO ISZERO SWAP1 DUP2 PUSH2 0x12F5 JUMPI JUMPDEST POP PUSH2 0xEDA JUMPI CALLER PUSH1 0x0 MSTORE PUSH1 0x9 PUSH1 0x20 MSTORE PUSH2 0x117B PUSH1 0x40 PUSH1 0x0 KECCAK256 SLOAD PUSH2 0x1B46 JUMP JUMPDEST PUSH2 0xEDA JUMPI PUSH1 0x40 MLOAD DUP2 DUP4 DUP3 CALLDATACOPY PUSH1 0x20 DUP2 DUP4 DUP2 ADD PUSH1 0x8 DUP2 MSTORE SUB ADD SWAP1 KECCAK256 PUSH1 0x1 DUP1 PUSH1 0xA0 SHL SUB CALLER AND PUSH1 0x1 PUSH1 0x1 PUSH1 0x60 SHL SUB PUSH1 0xA0 SHL DUP3 SLOAD AND OR SWAP1 SSTORE CALLER PUSH1 0x0 MSTORE PUSH1 0x9 PUSH1 0x20 MSTORE PUSH1 0x40 PUSH1 0x0 KECCAK256 PUSH8 0xFFFFFFFFFFFFFFFF DUP3 GT PUSH2 0x462 JUMPI PUSH2 0x11D5 DUP2 SLOAD PUSH2 0x1B46 JUMP JUMPDEST PUSH1 0x1F DUP2 GT PUSH2 0x12AD JUMPI JUMPDEST POP PUSH1 0x0 PUSH1 0x1F DUP4 GT PUSH1 0x1 EQ PUSH2 0x1237 JUMPI SWAP2 PUSH2 0xDDB SWAP2 DUP2 PUSH1 0x0 DUP1 MLOAD PUSH1 0x20 PUSH2 0x2393 DUP4 CODECOPY DUP2 MLOAD SWAP2 MSTORE SWAP5 PUSH1 0x0 SWAP2 PUSH2 0x122C JUMPI JUMPDEST POP DUP3 PUSH1 0x1 SHL SWAP1 PUSH1 0x0 NOT DUP5 PUSH1 0x3 SHL SHR NOT AND OR SWAP1 SSTORE JUMPDEST PUSH1 0x40 MLOAD SWAP2 DUP3 SWAP2 CALLER SWAP6 DUP4 PUSH2 0x1D35 JUMP JUMPDEST SWAP1 POP DUP6 ADD CALLDATALOAD DUP7 PUSH2 0x120A JUMP JUMPDEST DUP2 DUP2 MSTORE PUSH1 0x20 DUP2 KECCAK256 SWAP1 PUSH1 0x1F NOT DUP5 AND DUP2 JUMPDEST DUP2 DUP2 LT PUSH2 0x1295 JUMPI POP SWAP2 PUSH2 0xDDB SWAP4 SWAP2 DUP6 PUSH1 0x0 DUP1 MLOAD PUSH1 0x20 PUSH2 0x2393 DUP4 CODECOPY DUP2 MLOAD SWAP2 MSTORE SWAP7 SWAP5 LT PUSH2 0x127B JUMPI JUMPDEST POP POP PUSH1 0x1 DUP3 DUP2 SHL ADD SWAP1 SSTORE PUSH2 0x121E JUMP JUMPDEST DUP7 ADD CALLDATALOAD PUSH1 0x0 NOT PUSH1 0x3 DUP6 SWAP1 SHL PUSH1 0xF8 AND SHR NOT AND SWAP1 SSTORE DUP6 DUP1 PUSH2 0x126C JUMP JUMPDEST SWAP2 SWAP3 PUSH1 0x20 PUSH1 0x1 DUP2 SWAP3 DUP7 DUP11 ADD CALLDATALOAD DUP2 SSTORE ADD SWAP5 ADD SWAP3 ADD PUSH2 0x1246 JUMP JUMPDEST DUP2 PUSH1 0x0 MSTORE PUSH1 0x20 PUSH1 0x0 KECCAK256 PUSH1 0x1F DUP5 ADD PUSH1 0x5 SHR DUP2 ADD SWAP2 PUSH1 0x20 DUP6 LT PUSH2 0x12EB JUMPI JUMPDEST PUSH1 0x1F ADD PUSH1 0x5 SHR ADD SWAP1 JUMPDEST DUP2 DUP2 LT PUSH2 0x12DF JUMPI POP PUSH2 0x11DE JUMP JUMPDEST PUSH1 0x0 DUP2 SSTORE PUSH1 0x1 ADD PUSH2 0x12D2 JUMP JUMPDEST SWAP1 SWAP2 POP DUP2 SWAP1 PUSH2 0x12C9 JUMP JUMPDEST SWAP1 POP CALLER EQ ISZERO DUP4 PUSH2 0x115F JUMP JUMPDEST CALLVALUE PUSH2 0x1C9 JUMPI PUSH1 0x20 CALLDATASIZE PUSH1 0x3 NOT ADD SLT PUSH2 0x1C9 JUMPI PUSH1 0x1 PUSH1 0x1 PUSH1 0xA0 SHL SUB PUSH2 0x1321 PUSH2 0x19B8 JUMP JUMPDEST AND PUSH1 0x0 MSTORE PUSH1 0x6 PUSH1 0x20 MSTORE PUSH1 0x20 PUSH1 0xFF PUSH1 0x40 PUSH1 0x0 KECCAK256 SLOAD AND PUSH1 0x40 MLOAD SWAP1 ISZERO ISZERO DUP2 MSTORE RETURN JUMPDEST CALLVALUE PUSH2 0x1C9 JUMPI PUSH1 0x20 CALLDATASIZE PUSH1 0x3 NOT ADD SLT PUSH2 0x1C9 JUMPI PUSH1 0x4 CALLDATALOAD DUP1 ISZERO PUSH2 0x135F DUP2 ISZERO PUSH2 0x1E05 JUMP JUMPDEST CALLER PUSH1 0x0 MSTORE PUSH1 0x4 PUSH1 0x20 MSTORE DUP2 PUSH1 0x40 PUSH1 0x0 KECCAK256 SLOAD LT PUSH2 0x14BA JUMPI PUSH1 0x64 DUP3 MUL SWAP1 DUP3 DUP3 DIV PUSH1 0x64 EQ OR ISZERO PUSH2 0x1038 JUMPI PUSH1 0x4B SWAP1 DIV PUSH7 0x2386F26FC10000 DUP2 MUL SWAP1 DUP1 DUP3 DIV PUSH7 0x2386F26FC10000 EQ SWAP1 ISZERO OR ISZERO PUSH2 0x1038 JUMPI DUP1 SELFBALANCE LT PUSH2 0x1475 JUMPI CALLER PUSH1 0x0 MSTORE PUSH1 0x4 PUSH1 0x20 MSTORE PUSH1 0x40 PUSH1 0x0 KECCAK256 PUSH2 0x13C8 DUP4 DUP3 SLOAD PUSH2 0x1D6A JUMP JUMPDEST SWAP1 SSTORE CALLER PUSH1 0x0 MSTORE PUSH1 0x3 PUSH1 0x20 MSTORE PUSH1 0x40 PUSH1 0x0 KECCAK256 PUSH2 0x13E3 DUP4 DUP3 SLOAD PUSH2 0x1D6A JUMP JUMPDEST SWAP1 SSTORE PUSH2 0x13F1 DUP3 PUSH1 0x2 SLOAD PUSH2 0x1D6A JUMP JUMPDEST PUSH1 0x2 SSTORE PUSH1 0x0 DUP1 DUP1 DUP1 DUP5 CALLER GAS CALL PUSH2 0x1405 PUSH2 0x1DD5 JUMP JUMPDEST POP ISZERO PUSH2 0x143E JUMPI PUSH1 0x40 MLOAD SWAP2 DUP3 MSTORE PUSH1 0x20 DUP3 ADD MSTORE PUSH32 0x89212FF08F4E1A2D39A5E3A0342A6A0F0B203EF6C18F2C4276FA6EC13FEE57F5 PUSH1 0x40 CALLER SWAP3 LOG2 STOP JUMPDEST PUSH1 0x40 MLOAD PUSH3 0x461BCD PUSH1 0xE5 SHL DUP2 MSTORE PUSH1 0x20 PUSH1 0x4 DUP3 ADD MSTORE PUSH1 0xF PUSH1 0x24 DUP3 ADD MSTORE PUSH15 0x151C985B9CD9995C8819985A5B1959 PUSH1 0x8A SHL PUSH1 0x44 DUP3 ADD MSTORE PUSH1 0x64 SWAP1 REVERT JUMPDEST PUSH1 0x40 MLOAD PUSH3 0x461BCD PUSH1 0xE5 SHL DUP2 MSTORE PUSH1 0x20 PUSH1 0x4 DUP3 ADD MSTORE PUSH1 0x1D PUSH1 0x24 DUP3 ADD MSTORE PUSH32 0x496E73756666696369656E7420636F6E74726163742062616C616E6365000000 PUSH1 0x44 DUP3 ADD MSTORE PUSH1 0x64 SWAP1 REVERT JUMPDEST PUSH1 0x40 MLOAD PUSH3 0x461BCD PUSH1 0xE5 SHL DUP2 MSTORE PUSH1 0x20 PUSH1 0x4 DUP3 ADD MSTORE PUSH1 0x1C PUSH1 0x24 DUP3 ADD MSTORE PUSH32 0x496E73756666696369656E7420726566657272616C20706F696E747300000000 PUSH1 0x44 DUP3 ADD MSTORE PUSH1 0x64 SWAP1 REVERT JUMPDEST CALLVALUE PUSH2 0x1C9 JUMPI PUSH1 0x0 CALLDATASIZE PUSH1 0x3 NOT ADD SLT PUSH2 0x1C9 JUMPI PUSH2 0x1518 PUSH2 0x2170 JUMP JUMPDEST SELFBALANCE DUP1 ISZERO PUSH2 0x159D JUMPI PUSH1 0x0 DUP1 DUP1 DUP1 DUP5 CALLER GAS CALL PUSH2 0x1530 PUSH2 0x1DD5 JUMP JUMPDEST POP ISZERO PUSH2 0x1564 JUMPI PUSH1 0x40 MLOAD SWAP1 DUP2 MSTORE PUSH32 0x7084F5476618D8E60B11EF0D7D3F06914655ADB8793E28FF7F018D4C76D505D5 PUSH1 0x20 CALLER SWAP3 LOG2 STOP JUMPDEST PUSH1 0x40 MLOAD PUSH3 0x461BCD PUSH1 0xE5 SHL DUP2 MSTORE PUSH1 0x20 PUSH1 0x4 DUP3 ADD MSTORE PUSH1 0x11 PUSH1 0x24 DUP3 ADD MSTORE PUSH17 0x15DA5D1A191C985DD85B0819985A5B1959 PUSH1 0x7A SHL PUSH1 0x44 DUP3 ADD MSTORE PUSH1 0x64 SWAP1 REVERT JUMPDEST PUSH1 0x40 MLOAD PUSH3 0x461BCD PUSH1 0xE5 SHL DUP2 MSTORE PUSH1 0x20 PUSH1 0x4 DUP3 ADD MSTORE PUSH1 0x13 PUSH1 0x24 DUP3 ADD MSTORE PUSH19 0x4E6F7468696E6720746F207769746864726177 PUSH1 0x68 SHL PUSH1 0x44 DUP3 ADD MSTORE PUSH1 0x64 SWAP1 REVERT JUMPDEST CALLVALUE PUSH2 0x1C9 JUMPI PUSH1 0x20 CALLDATASIZE PUSH1 0x3 NOT ADD SLT PUSH2 0x1C9 JUMPI PUSH1 0x1 PUSH1 0x1 PUSH1 0xA0 SHL SUB PUSH2 0x15F9 PUSH2 0x19B8 JUMP JUMPDEST AND PUSH1 0x0 MSTORE PUSH1 0x3 PUSH1 0x20 MSTORE PUSH1 0x20 PUSH1 0x40 PUSH1 0x0 KECCAK256 SLOAD PUSH1 0x40 MLOAD SWAP1 DUP2 MSTORE RETURN JUMPDEST CALLVALUE PUSH2 0x1C9 JUMPI PUSH1 0x40 CALLDATASIZE PUSH1 0x3 NOT ADD SLT PUSH2 0x1C9 JUMPI PUSH1 0x4 CALLDATALOAD PUSH1 0x24 CALLDATALOAD PUSH1 0x5 SLOAD SWAP1 DUP2 DUP4 LT ISZERO PUSH2 0x1765 JUMPI DUP1 ISZERO ISZERO DUP1 PUSH2 0x1759 JUMPI JUMPDEST ISZERO PUSH2 0x1725 JUMPI PUSH2 0x165F SWAP2 PUSH2 0x1652 DUP5 SWAP3 DUP4 PUSH2 0x1D5D JUMP JUMPDEST DUP2 DUP1 DUP3 LT SWAP2 XOR MUL XOR PUSH2 0x1D6A JUMP JUMPDEST SWAP1 PUSH2 0x1669 DUP3 PUSH2 0x1D8F JUMP JUMPDEST SWAP1 PUSH2 0x1673 DUP4 PUSH2 0x1D8F JUMP JUMPDEST SWAP3 PUSH2 0x167D DUP2 PUSH2 0x1D8F JUMP JUMPDEST SWAP2 PUSH1 0x0 JUMPDEST DUP3 DUP2 LT PUSH2 0x169B JUMPI POP POP POP PUSH2 0x74B SWAP1 PUSH1 0x40 MLOAD SWAP4 DUP5 SWAP4 DUP5 PUSH2 0x1A74 JUMP JUMPDEST DUP1 PUSH2 0x16B0 PUSH2 0x16AB PUSH1 0x1 SWAP4 DUP6 PUSH2 0x1D5D JUMP JUMPDEST PUSH2 0x1B15 JUMP JUMPDEST DUP4 DUP1 PUSH1 0xA0 SHL SUB SWAP2 SLOAD SWAP1 PUSH1 0x3 SHL SHR AND PUSH2 0x16C8 DUP3 DUP9 PUSH2 0x1DC1 JUMP JUMPDEST MSTORE DUP2 DUP1 PUSH1 0xA0 SHL SUB PUSH2 0x16D9 DUP3 DUP9 PUSH2 0x1DC1 JUMP JUMPDEST MLOAD AND PUSH1 0x0 MSTORE PUSH1 0x3 PUSH1 0x20 MSTORE PUSH1 0x40 PUSH1 0x0 KECCAK256 SLOAD PUSH2 0x16F3 DUP3 DUP10 PUSH2 0x1DC1 JUMP JUMPDEST MSTORE DUP2 DUP1 PUSH1 0xA0 SHL SUB PUSH2 0x1704 DUP3 DUP9 PUSH2 0x1DC1 JUMP JUMPDEST MLOAD AND PUSH1 0x0 MSTORE PUSH1 0x4 PUSH1 0x20 MSTORE PUSH1 0x40 PUSH1 0x0 KECCAK256 SLOAD PUSH2 0x171E DUP3 DUP8 PUSH2 0x1DC1 JUMP JUMPDEST MSTORE ADD PUSH2 0x1681 JUMP JUMPDEST PUSH1 0x40 MLOAD PUSH3 0x461BCD PUSH1 0xE5 SHL DUP2 MSTORE PUSH1 0x20 PUSH1 0x4 DUP3 ADD MSTORE PUSH1 0xC PUSH1 0x24 DUP3 ADD MSTORE PUSH12 0x496E76616C69642073697A65 PUSH1 0xA0 SHL PUSH1 0x44 DUP3 ADD MSTORE PUSH1 0x64 SWAP1 REVERT JUMPDEST POP PUSH2 0x3E8 DUP2 GT ISZERO PUSH2 0x163E JUMP JUMPDEST PUSH1 0x40 MLOAD PUSH3 0x461BCD PUSH1 0xE5 SHL DUP2 MSTORE PUSH1 0x20 PUSH1 0x4 DUP3 ADD MSTORE PUSH1 0xD PUSH1 0x24 DUP3 ADD MSTORE PUSH13 0x125B9D985B1A59081CDD185C9D PUSH1 0x9A SHL PUSH1 0x44 DUP3 ADD MSTORE PUSH1 0x64 SWAP1 REVERT JUMPDEST PUSH2 0x17A3 CALLDATASIZE PUSH2 0x19FC JUMP JUMPDEST SWAP2 SWAP1 PUSH1 0x1 PUSH1 0x1 PUSH1 0xA0 SHL SUB DUP3 AND PUSH2 0x17BA DUP2 ISZERO ISZERO PUSH2 0x1CB1 JUMP JUMPDEST PUSH2 0x17E5 PUSH1 0x40 MLOAD DUP6 DUP5 DUP3 CALLDATACOPY PUSH1 0x8 DUP2 DUP8 ADD SWAP1 DUP2 MSTORE DUP2 SWAP1 SUB PUSH1 0x20 ADD SWAP1 KECCAK256 SLOAD PUSH1 0x1 PUSH1 0x1 PUSH1 0xA0 SHL SUB AND ISZERO ISZERO PUSH2 0x1CF1 JUMP JUMPDEST DUP1 PUSH1 0x0 MSTORE PUSH1 0xA PUSH1 0x20 MSTORE PUSH2 0x17FC PUSH1 0x40 PUSH1 0x0 KECCAK256 SLOAD PUSH2 0x1B46 JUMP JUMPDEST ISZERO PUSH2 0x180B JUMPI JUMPDEST PUSH2 0x6E5 DUP4 PUSH2 0x1F3C JUMP JUMPDEST DUP1 PUSH1 0x0 MSTORE PUSH1 0xA PUSH1 0x20 MSTORE PUSH1 0x40 PUSH1 0x0 KECCAK256 PUSH8 0xFFFFFFFFFFFFFFFF DUP6 GT PUSH2 0x462 JUMPI PUSH2 0x1832 DUP2 SLOAD PUSH2 0x1B46 JUMP JUMPDEST PUSH1 0x1F DUP2 GT PUSH2 0x1936 JUMPI JUMPDEST POP PUSH1 0x0 PUSH1 0x1F DUP7 GT PUSH1 0x1 EQ PUSH2 0x18C0 JUMPI SWAP5 PUSH1 0x0 DUP1 MLOAD PUSH1 0x20 PUSH2 0x23B3 DUP4 CODECOPY DUP2 MLOAD SWAP2 MSTORE SWAP2 DUP2 PUSH2 0x6E5 SWAP8 PUSH1 0x0 SWAP2 PUSH2 0x18B5 JUMPI JUMPDEST POP DUP3 PUSH1 0x1 SHL SWAP1 PUSH1 0x0 NOT DUP5 PUSH1 0x3 SHL SHR NOT AND OR SWAP1 SSTORE JUMPDEST PUSH1 0x40 MLOAD DUP2 DUP6 DUP3 CALLDATACOPY DUP2 DUP2 ADD SWAP1 PUSH1 0x8 DUP3 MSTORE PUSH1 0x20 DUP2 PUSH1 0x1 DUP1 PUSH1 0xA0 SHL SUB SWAP4 SUB ADD SWAP1 KECCAK256 SLOAD AND SWAP4 PUSH2 0x18AB PUSH1 0x40 MLOAD SWAP3 DUP4 SWAP3 DUP4 PUSH2 0x1D35 JUMP JUMPDEST SUB SWAP1 LOG3 DUP3 DUP1 PUSH2 0x1802 JUMP JUMPDEST SWAP1 POP DUP6 ADD CALLDATALOAD DUP9 PUSH2 0x1867 JUMP JUMPDEST DUP2 DUP2 MSTORE PUSH1 0x20 DUP2 KECCAK256 SWAP1 PUSH1 0x1F NOT DUP8 AND DUP2 JUMPDEST DUP2 DUP2 LT PUSH2 0x191E JUMPI POP SWAP2 PUSH1 0x0 DUP1 MLOAD PUSH1 0x20 PUSH2 0x23B3 DUP4 CODECOPY DUP2 MLOAD SWAP2 MSTORE SWAP4 SWAP2 DUP9 PUSH2 0x6E5 SWAP10 SWAP5 LT PUSH2 0x1904 JUMPI JUMPDEST POP POP PUSH1 0x1 DUP3 DUP2 SHL ADD SWAP1 SSTORE PUSH2 0x187B JUMP JUMPDEST DUP7 ADD CALLDATALOAD PUSH1 0x0 NOT PUSH1 0x3 DUP6 SWAP1 SHL PUSH1 0xF8 AND SHR NOT AND SWAP1 SSTORE DUP8 DUP1 PUSH2 0x18F5 JUMP JUMPDEST SWAP2 SWAP3 PUSH1 0x20 PUSH1 0x1 DUP2 SWAP3 DUP7 DUP11 ADD CALLDATALOAD DUP2 SSTORE ADD SWAP5 ADD SWAP3 ADD PUSH2 0x18CF JUMP JUMPDEST DUP2 PUSH1 0x0 MSTORE PUSH1 0x20 PUSH1 0x0 KECCAK256 PUSH1 0x1F DUP8 ADD PUSH1 0x5 SHR DUP2 ADD SWAP2 PUSH1 0x20 DUP9 LT PUSH2 0x1974 JUMPI JUMPDEST PUSH1 0x1F ADD PUSH1 0x5 SHR ADD SWAP1 JUMPDEST DUP2 DUP2 LT PUSH2 0x1968 JUMPI POP PUSH2 0x183B JUMP JUMPDEST PUSH1 0x0 DUP2 SSTORE PUSH1 0x1 ADD PUSH2 0x195B JUMP JUMPDEST SWAP1 SWAP2 POP DUP2 SWAP1 PUSH2 0x1952 JUMP JUMPDEST CALLVALUE PUSH2 0x1C9 JUMPI PUSH1 0x0 CALLDATASIZE PUSH1 0x3 NOT ADD SLT PUSH2 0x1C9 JUMPI PUSH1 0x20 PUSH1 0x40 MLOAD PUSH4 0x2FAF080 DUP2 MSTORE RETURN JUMPDEST CALLVALUE PUSH2 0x1C9 JUMPI PUSH1 0x0 CALLDATASIZE PUSH1 0x3 NOT ADD SLT PUSH2 0x1C9 JUMPI PUSH1 0x20 SWAP1 PUSH1 0x1 SLOAD DUP2 MSTORE RETURN JUMPDEST PUSH1 0x4 CALLDATALOAD SWAP1 PUSH1 0x1 PUSH1 0x1 PUSH1 0xA0 SHL SUB DUP3 AND DUP3 SUB PUSH2 0x1C9 JUMPI JUMP JUMPDEST SWAP2 DUP2 PUSH1 0x1F DUP5 ADD SLT ISZERO PUSH2 0x1C9 JUMPI DUP3 CALLDATALOAD SWAP2 PUSH8 0xFFFFFFFFFFFFFFFF DUP4 GT PUSH2 0x1C9 JUMPI PUSH1 0x20 DUP4 DUP2 DUP7 ADD SWAP6 ADD ADD GT PUSH2 0x1C9 JUMPI JUMP JUMPDEST SWAP1 PUSH1 0x40 PUSH1 0x3 NOT DUP4 ADD SLT PUSH2 0x1C9 JUMPI PUSH1 0x4 CALLDATALOAD PUSH1 0x1 PUSH1 0x1 PUSH1 0xA0 SHL SUB DUP2 AND DUP2 SUB PUSH2 0x1C9 JUMPI SWAP2 PUSH1 0x24 CALLDATALOAD SWAP1 PUSH8 0xFFFFFFFFFFFFFFFF DUP3 GT PUSH2 0x1C9 JUMPI PUSH2 0x1A3C SWAP2 PUSH1 0x4 ADD PUSH2 0x19CE JUMP JUMPDEST SWAP1 SWAP2 JUMP JUMPDEST SWAP1 PUSH1 0x20 DUP1 DUP4 MLOAD SWAP3 DUP4 DUP2 MSTORE ADD SWAP3 ADD SWAP1 PUSH1 0x0 JUMPDEST DUP2 DUP2 LT PUSH2 0x1A5E JUMPI POP POP POP SWAP1 JUMP JUMPDEST DUP3 MLOAD DUP5 MSTORE PUSH1 0x20 SWAP4 DUP5 ADD SWAP4 SWAP1 SWAP3 ADD SWAP2 PUSH1 0x1 ADD PUSH2 0x1A51 JUMP JUMPDEST SWAP2 SWAP4 SWAP3 SWAP1 SWAP4 PUSH1 0x60 DUP4 ADD PUSH1 0x60 DUP5 MSTORE DUP6 MLOAD DUP1 SWAP2 MSTORE PUSH1 0x20 PUSH1 0x80 DUP6 ADD SWAP7 ADD SWAP1 PUSH1 0x0 JUMPDEST DUP2 DUP2 LT PUSH2 0x1AC3 JUMPI POP POP POP DUP5 PUSH2 0x1AB2 SWAP2 DUP5 PUSH2 0x1AC0 SWAP7 SWAP8 SUB PUSH1 0x20 DUP7 ADD MSTORE PUSH2 0x1A40 JUMP JUMPDEST SWAP2 PUSH1 0x40 DUP2 DUP5 SUB SWAP2 ADD MSTORE PUSH2 0x1A40 JUMP JUMPDEST SWAP1 JUMP JUMPDEST DUP3 MLOAD PUSH1 0x1 PUSH1 0x1 PUSH1 0xA0 SHL SUB AND DUP9 MSTORE PUSH1 0x20 SWAP8 DUP9 ADD SWAP8 SWAP1 SWAP3 ADD SWAP2 PUSH1 0x1 ADD PUSH2 0x1A92 JUMP JUMPDEST PUSH1 0x60 SWAP1 PUSH1 0x3 NOT ADD SLT PUSH2 0x1C9 JUMPI PUSH1 0x4 CALLDATALOAD PUSH1 0x1 PUSH1 0x1 PUSH1 0xA0 SHL SUB DUP2 AND DUP2 SUB PUSH2 0x1C9 JUMPI SWAP1 PUSH1 0x24 CALLDATALOAD SWAP1 PUSH1 0x44 CALLDATALOAD DUP1 ISZERO ISZERO DUP2 SUB PUSH2 0x1C9 JUMPI SWAP1 JUMP JUMPDEST PUSH1 0x5 SLOAD DUP2 LT ISZERO PUSH2 0x1B30 JUMPI PUSH1 0x5 PUSH1 0x0 MSTORE PUSH1 0x20 PUSH1 0x0 KECCAK256 ADD SWAP1 PUSH1 0x0 SWAP1 JUMP JUMPDEST PUSH4 0x4E487B71 PUSH1 0xE0 SHL PUSH1 0x0 MSTORE PUSH1 0x32 PUSH1 0x4 MSTORE PUSH1 0x24 PUSH1 0x0 REVERT JUMPDEST SWAP1 PUSH1 0x1 DUP3 DUP2 SHR SWAP3 AND DUP1 ISZERO PUSH2 0x1B76 JUMPI JUMPDEST PUSH1 0x20 DUP4 LT EQ PUSH2 0x1B60 JUMPI JUMP JUMPDEST PUSH4 0x4E487B71 PUSH1 0xE0 SHL PUSH1 0x0 MSTORE PUSH1 0x22 PUSH1 0x4 MSTORE PUSH1 0x24 PUSH1 0x0 REVERT JUMPDEST SWAP2 PUSH1 0x7F AND SWAP2 PUSH2 0x1B55 JUMP JUMPDEST SWAP1 PUSH1 0x1F DUP1 NOT SWAP2 ADD AND DUP2 ADD SWAP1 DUP2 LT PUSH8 0xFFFFFFFFFFFFFFFF DUP3 GT OR PUSH2 0x462 JUMPI PUSH1 0x40 MSTORE JUMP JUMPDEST SWAP1 PUSH1 0x40 MLOAD SWAP2 DUP3 PUSH1 0x0 DUP3 SLOAD SWAP3 PUSH2 0x1BB6 DUP5 PUSH2 0x1B46 JUMP JUMPDEST DUP1 DUP5 MSTORE SWAP4 PUSH1 0x1 DUP2 AND SWAP1 DUP2 ISZERO PUSH2 0x1C24 JUMPI POP PUSH1 0x1 EQ PUSH2 0x1BDD JUMPI JUMPDEST POP PUSH2 0x1BDB SWAP3 POP SUB DUP4 PUSH2 0x1B80 JUMP JUMPDEST JUMP JUMPDEST SWAP1 POP PUSH1 0x0 SWAP3 SWAP2 SWAP3 MSTORE PUSH1 0x20 PUSH1 0x0 KECCAK256 SWAP1 PUSH1 0x0 SWAP2 JUMPDEST DUP2 DUP4 LT PUSH2 0x1C08 JUMPI POP POP SWAP1 PUSH1 0x20 PUSH2 0x1BDB SWAP3 DUP3 ADD ADD CODESIZE PUSH2 0x1BCE JUMP JUMPDEST PUSH1 0x20 SWAP2 SWAP4 POP DUP1 PUSH1 0x1 SWAP2 SLOAD DUP4 DUP6 DUP10 ADD ADD MSTORE ADD SWAP2 ADD SWAP1 SWAP2 DUP5 SWAP3 PUSH2 0x1BEF JUMP JUMPDEST SWAP1 POP PUSH1 0x20 SWAP3 POP PUSH2 0x1BDB SWAP5 SWAP2 POP PUSH1 0xFF NOT AND DUP3 DUP5 ADD MSTORE ISZERO ISZERO PUSH1 0x5 SHL DUP3 ADD ADD CODESIZE PUSH2 0x1BCE JUMP JUMPDEST PUSH1 0x0 JUMPDEST DUP4 DUP2 LT PUSH2 0x1C59 JUMPI POP POP PUSH1 0x0 SWAP2 ADD MSTORE JUMP JUMPDEST DUP2 DUP2 ADD MLOAD DUP4 DUP3 ADD MSTORE PUSH1 0x20 ADD PUSH2 0x1C49 JUMP JUMPDEST PUSH1 0x40 SWAP2 PUSH1 0x20 DUP3 MSTORE PUSH2 0x1C89 DUP2 MLOAD DUP1 SWAP3 DUP2 PUSH1 0x20 DUP7 ADD MSTORE PUSH1 0x20 DUP7 DUP7 ADD SWAP2 ADD PUSH2 0x1C46 JUMP JUMPDEST PUSH1 0x1F ADD PUSH1 0x1F NOT AND ADD ADD SWAP1 JUMP JUMPDEST PUSH8 0xFFFFFFFFFFFFFFFF DUP2 GT PUSH2 0x462 JUMPI PUSH1 0x1F ADD PUSH1 0x1F NOT AND PUSH1 0x20 ADD SWAP1 JUMP JUMPDEST ISZERO PUSH2 0x1CB8 JUMPI JUMP JUMPDEST PUSH1 0x40 MLOAD PUSH3 0x461BCD PUSH1 0xE5 SHL DUP2 MSTORE PUSH1 0x20 PUSH1 0x4 DUP3 ADD MSTORE PUSH1 0x11 PUSH1 0x24 DUP3 ADD MSTORE PUSH17 0x125B9D985B1A59081C9958DA5C1A595B9D PUSH1 0x7A SHL PUSH1 0x44 DUP3 ADD MSTORE PUSH1 0x64 SWAP1 REVERT JUMPDEST ISZERO PUSH2 0x1CF8 JUMPI JUMP JUMPDEST PUSH1 0x40 MLOAD PUSH3 0x461BCD PUSH1 0xE5 SHL DUP2 MSTORE PUSH1 0x20 PUSH1 0x4 DUP3 ADD MSTORE PUSH1 0x15 PUSH1 0x24 DUP3 ADD MSTORE PUSH21 0x496E76616C696420726566657272616C20636F6465 PUSH1 0x58 SHL PUSH1 0x44 DUP3 ADD MSTORE PUSH1 0x64 SWAP1 REVERT JUMPDEST SWAP1 SWAP2 DUP1 PUSH1 0x40 SWAP4 PUSH1 0x20 DUP5 MSTORE DUP2 PUSH1 0x20 DUP6 ADD MSTORE DUP5 DUP5 ADD CALLDATACOPY PUSH1 0x0 DUP3 DUP3 ADD DUP5 ADD MSTORE PUSH1 0x1F ADD PUSH1 0x1F NOT AND ADD ADD SWAP1 JUMP JUMPDEST SWAP2 SWAP1 DUP3 ADD DUP1 SWAP3 GT PUSH2 0x1038 JUMPI JUMP JUMPDEST SWAP2 SWAP1 DUP3 SUB SWAP2 DUP3 GT PUSH2 0x1038 JUMPI JUMP JUMPDEST PUSH8 0xFFFFFFFFFFFFFFFF DUP2 GT PUSH2 0x462 JUMPI PUSH1 0x5 SHL PUSH1 0x20 ADD SWAP1 JUMP JUMPDEST SWAP1 PUSH2 0x1D99 DUP3 PUSH2 0x1D77 JUMP JUMPDEST PUSH2 0x1DA6 PUSH1 0x40 MLOAD SWAP2 DUP3 PUSH2 0x1B80 JUMP JUMPDEST DUP3 DUP2 MSTORE DUP1 SWAP3 PUSH2 0x1DB7 PUSH1 0x1F NOT SWAP2 PUSH2 0x1D77 JUMP JUMPDEST ADD SWAP1 PUSH1 0x20 CALLDATASIZE SWAP2 ADD CALLDATACOPY JUMP JUMPDEST DUP1 MLOAD DUP3 LT ISZERO PUSH2 0x1B30 JUMPI PUSH1 0x20 SWAP2 PUSH1 0x5 SHL ADD ADD SWAP1 JUMP JUMPDEST RETURNDATASIZE ISZERO PUSH2 0x1E00 JUMPI RETURNDATASIZE SWAP1 PUSH2 0x1DE6 DUP3 PUSH2 0x1C95 JUMP JUMPDEST SWAP2 PUSH2 0x1DF4 PUSH1 0x40 MLOAD SWAP4 DUP5 PUSH2 0x1B80 JUMP JUMPDEST DUP3 MSTORE RETURNDATASIZE PUSH1 0x0 PUSH1 0x20 DUP5 ADD RETURNDATACOPY JUMP JUMPDEST PUSH1 0x60 SWAP1 JUMP JUMPDEST ISZERO PUSH2 0x1E0C JUMPI JUMP JUMPDEST PUSH1 0x40 MLOAD PUSH3 0x461BCD PUSH1 0xE5 SHL DUP2 MSTORE PUSH1 0x20 PUSH1 0x4 DUP3 ADD MSTORE PUSH1 0x1D PUSH1 0x24 DUP3 ADD MSTORE PUSH32 0x416D6F756E74206D7573742062652067726561746572207468616E2030000000 PUSH1 0x44 DUP3 ADD MSTORE PUSH1 0x64 SWAP1 REVERT JUMPDEST ISZERO PUSH2 0x1E58 JUMPI JUMP JUMPDEST PUSH1 0x40 MLOAD PUSH3 0x461BCD PUSH1 0xE5 SHL DUP2 MSTORE PUSH1 0x20 PUSH1 0x4 DUP3 ADD MSTORE PUSH1 0x14 PUSH1 0x24 DUP3 ADD MSTORE PUSH20 0x496E76616C696420757365722061646472657373 PUSH1 0x60 SHL PUSH1 0x44 DUP3 ADD MSTORE PUSH1 0x64 SWAP1 REVERT JUMPDEST PUSH1 0x5 SLOAD PUSH9 0x10000000000000000 DUP2 LT ISZERO PUSH2 0x462 JUMPI PUSH1 0x1 DUP2 ADD PUSH1 0x5 SSTORE PUSH1 0x0 PUSH1 0x5 SLOAD DUP3 LT ISZERO PUSH2 0x1F00 JUMPI PUSH1 0x5 SWAP1 MSTORE PUSH32 0x36B6384B5ECA791C62761152D0C79BB0604C104A5FB6F4EB0703F3154BB3DB0 ADD DUP1 SLOAD PUSH1 0x1 PUSH1 0x1 PUSH1 0xA0 SHL SUB NOT AND PUSH1 0x1 PUSH1 0x1 PUSH1 0xA0 SHL SUB SWAP1 SWAP3 AND SWAP2 SWAP1 SWAP2 OR SWAP1 SSTORE JUMP JUMPDEST PUSH4 0x4E487B71 PUSH1 0xE0 SHL DUP2 MSTORE PUSH1 0x32 PUSH1 0x4 MSTORE PUSH1 0x24 SWAP1 REVERT JUMPDEST PUSH1 0x2 SLOAD PUSH4 0x2FAF080 DUP2 LT PUSH2 0x1F28 JUMPI POP PUSH1 0x0 SWAP1 JUMP JUMPDEST PUSH4 0x2FAF080 SUB PUSH4 0x2FAF080 DUP2 GT PUSH2 0x1038 JUMPI SWAP1 JUMP JUMPDEST PUSH8 0xDE0B6B3A7640000 CALLVALUE LT PUSH2 0x2153 JUMPI PUSH8 0xDE0B6B3A7640000 CALLVALUE DIV PUSH1 0x32 DUP2 MUL SWAP1 DUP1 DUP3 DIV PUSH1 0x32 EQ SWAP1 ISZERO OR ISZERO PUSH2 0x1038 JUMPI PUSH8 0xDE0B6B3A7640000 CALLVALUE MOD SWAP1 PUSH1 0x32 DUP3 MUL SWAP2 DUP1 DUP4 DIV PUSH1 0x32 EQ SWAP1 ISZERO OR ISZERO PUSH2 0x1038 JUMPI PUSH8 0xDE0B6B3A7640000 PUSH2 0x1F9C SWAP3 DIV SWAP1 PUSH2 0x1D5D JUMP JUMPDEST SWAP1 DUP2 PUSH1 0x1 DUP1 PUSH1 0xA0 SHL SUB DUP3 AND SWAP3 DUP4 PUSH1 0x0 MSTORE PUSH1 0xA PUSH1 0x20 MSTORE PUSH2 0x1FBE PUSH1 0x40 PUSH1 0x0 KECCAK256 PUSH2 0x1BA2 JUMP JUMPDEST DUP1 MLOAD ISZERO PUSH2 0x210F JUMPI PUSH1 0x1 SLOAD DUP1 DUP5 MUL SWAP1 DUP5 DUP3 DIV EQ DUP5 ISZERO OR ISZERO PUSH2 0x1038 JUMPI PUSH2 0x2710 PUSH2 0x1FE7 SWAP2 DIV DUP1 SWAP5 PUSH2 0x1D5D JUMP JUMPDEST PUSH4 0x2FAF080 PUSH2 0x1FF8 DUP3 PUSH1 0x2 SLOAD PUSH2 0x1D5D JUMP JUMPDEST GT PUSH2 0x866 JUMPI PUSH32 0x900825D4808E50002C1A3614C809EB06D2D7142338F0DEC06ED9A4057C8A8C99 SWAP5 PUSH1 0x20 SWAP5 PUSH2 0x2097 SWAP4 DUP7 PUSH2 0x203A PUSH1 0x40 MLOAD SWAP3 DUP4 DUP2 MLOAD SWAP4 DUP5 SWAP3 ADD PUSH2 0x1C46 JUMP JUMPDEST PUSH1 0x8 SWAP1 DUP3 ADD SWAP1 DUP2 MSTORE DUP2 SWAP1 SUB DUP8 ADD SWAP1 KECCAK256 SLOAD PUSH1 0x1 PUSH1 0x1 PUSH1 0xA0 SHL SUB AND SWAP1 DUP2 PUSH2 0x20CA JUMPI JUMPDEST POP POP JUMPDEST DUP7 PUSH1 0x0 MSTORE PUSH1 0x3 DUP6 MSTORE PUSH1 0x40 PUSH1 0x0 KECCAK256 PUSH2 0x2075 DUP6 DUP3 SLOAD PUSH2 0x1D5D JUMP JUMPDEST SWAP1 SSTORE DUP7 PUSH1 0x0 MSTORE PUSH1 0x6 DUP6 MSTORE PUSH1 0xFF PUSH1 0x40 PUSH1 0x0 KECCAK256 SLOAD AND ISZERO PUSH2 0x20A3 JUMPI JUMPDEST POP PUSH1 0x2 SLOAD PUSH2 0x1D5D JUMP JUMPDEST PUSH1 0x2 SSTORE PUSH1 0x40 MLOAD SWAP1 DUP2 MSTORE LOG2 JUMP JUMPDEST PUSH2 0x20AC SWAP1 PUSH2 0x1E94 JUMP JUMPDEST DUP6 PUSH1 0x0 MSTORE PUSH1 0x6 DUP5 MSTORE PUSH1 0x40 PUSH1 0x0 KECCAK256 PUSH1 0x1 PUSH1 0xFF NOT DUP3 SLOAD AND OR SWAP1 SSTORE CODESIZE PUSH2 0x208E JUMP JUMPDEST DUP7 DUP9 SWAP2 DUP4 PUSH1 0x0 MSTORE PUSH1 0x3 DUP3 MSTORE PUSH1 0x40 PUSH1 0x0 KECCAK256 PUSH2 0x20E5 DUP3 DUP3 SLOAD PUSH2 0x1D5D JUMP JUMPDEST SWAP1 SSTORE DUP4 PUSH1 0x0 MSTORE PUSH1 0x4 DUP3 MSTORE PUSH1 0x40 PUSH1 0x0 KECCAK256 PUSH2 0x20FF DUP3 DUP3 SLOAD PUSH2 0x1D5D JUMP JUMPDEST SWAP1 SSTORE PUSH1 0x40 MLOAD SWAP1 DUP2 MSTORE LOG2 CODESIZE DUP1 PUSH2 0x205A JUMP JUMPDEST POP PUSH4 0x2FAF080 PUSH2 0x2121 DUP4 PUSH1 0x2 SLOAD PUSH2 0x1D5D JUMP JUMPDEST GT PUSH2 0x866 JUMPI PUSH2 0x2097 PUSH1 0x20 SWAP3 PUSH32 0x900825D4808E50002C1A3614C809EB06D2D7142338F0DEC06ED9A4057C8A8C99 SWAP5 PUSH2 0x205D JUMP JUMPDEST PUSH4 0x82AD3905 PUSH1 0xE0 SHL PUSH1 0x0 MSTORE PUSH8 0xDE0B6B3A7640000 PUSH1 0x4 MSTORE PUSH1 0x24 PUSH1 0x0 REVERT JUMPDEST PUSH1 0x0 SLOAD PUSH1 0x1 PUSH1 0x1 PUSH1 0xA0 SHL SUB AND CALLER SUB PUSH2 0x2184 JUMPI JUMP JUMPDEST PUSH4 0x118CDAA7 PUSH1 0xE0 SHL PUSH1 0x0 MSTORE CALLER PUSH1 0x4 MSTORE PUSH1 0x24 PUSH1 0x0 REVERT JUMPDEST DUP2 DUP2 SUB SWAP3 SWAP2 PUSH1 0x0 SGT DUP1 ISZERO DUP3 DUP6 SGT AND SWAP2 DUP5 SLT AND OR PUSH2 0x1038 JUMPI JUMP JUMPDEST SWAP2 SWAP1 SWAP2 PUSH1 0x0 DUP4 DUP3 ADD SWAP4 DUP5 SLT SWAP2 SLT SWAP1 DUP1 ISZERO DUP3 AND SWAP2 ISZERO AND OR PUSH2 0x1038 JUMPI JUMP JUMPDEST PUSH1 0x1 PUSH1 0x1 PUSH1 0xFF SHL SUB DUP2 EQ PUSH2 0x1038 JUMPI PUSH1 0x1 ADD SWAP1 JUMP JUMPDEST PUSH1 0x1 PUSH1 0xFF SHL DUP2 EQ PUSH2 0x1038 JUMPI PUSH1 0x0 NOT ADD SWAP1 JUMP JUMPDEST SWAP4 SWAP3 SWAP2 SWAP1 DUP4 DUP4 SLT ISZERO PUSH2 0x2247 JUMPI PUSH2 0x2226 PUSH2 0x2220 PUSH2 0x221A PUSH2 0x2213 DUP7 DUP9 PUSH2 0x2199 JUMP JUMPDEST PUSH1 0x2 SWAP1 SDIV SWAP1 JUMP JUMPDEST DUP6 PUSH2 0x21B2 JUMP JUMPDEST DUP3 PUSH2 0x1DC1 JUMP JUMPDEST MLOAD DUP4 SWAP1 DUP6 SWAP1 JUMPDEST DUP2 DUP7 SGT ISZERO PUSH2 0x2274 JUMPI POP DUP1 DUP3 SLT PUSH2 0x2261 JUMPI JUMPDEST POP POP DUP4 DUP4 SLT PUSH2 0x224E JUMPI JUMPDEST POP POP POP POP POP JUMP JUMPDEST PUSH2 0x2257 SWAP5 PUSH2 0x21F4 JUMP JUMPDEST CODESIZE DUP1 DUP1 DUP1 DUP1 PUSH2 0x2247 JUMP JUMPDEST PUSH2 0x226D SWAP2 DUP5 DUP5 DUP10 PUSH2 0x21F4 JUMP JUMPDEST CODESIZE DUP1 PUSH2 0x223D JUMP JUMPDEST SWAP7 SWAP5 SWAP8 SWAP2 SWAP3 SWAP8 SWAP6 SWAP1 SWAP6 JUMPDEST DUP8 PUSH2 0x2289 DUP3 DUP12 PUSH2 0x1DC1 JUMP JUMPDEST MLOAD GT ISZERO PUSH2 0x229E JUMPI PUSH2 0x2299 SWAP1 PUSH2 0x21CE JUMP JUMPDEST PUSH2 0x227E JUMP JUMPDEST SWAP5 SWAP6 JUMPDEST DUP8 PUSH2 0x22AC DUP3 DUP12 PUSH2 0x1DC1 JUMP JUMPDEST MLOAD LT ISZERO PUSH2 0x22C1 JUMPI PUSH2 0x22BC SWAP1 PUSH2 0x21E2 JUMP JUMPDEST PUSH2 0x22A1 JUMP JUMPDEST SWAP1 SWAP6 SWAP7 SWAP8 SWAP3 SWAP2 SWAP8 DUP2 DUP7 SGT PUSH2 0x222C JUMPI SWAP1 SWAP5 PUSH2 0x2386 PUSH2 0x238C SWAP2 PUSH2 0x2329 PUSH2 0x22F5 PUSH2 0x22E8 DUP11 DUP14 PUSH2 0x1DC1 JUMP JUMPDEST MLOAD PUSH1 0x1 PUSH1 0x1 PUSH1 0xA0 SHL SUB AND SWAP1 JUMP JUMPDEST PUSH2 0x231F DUP13 PUSH2 0x2310 DUP13 PUSH2 0x230A PUSH2 0x22E8 DUP9 DUP6 PUSH2 0x1DC1 JUMP JUMPDEST SWAP3 PUSH2 0x1DC1 JUMP JUMPDEST PUSH1 0x1 PUSH1 0x1 PUSH1 0xA0 SHL SUB SWAP1 SWAP2 AND SWAP1 MSTORE JUMP JUMPDEST PUSH2 0x2310 DUP4 DUP14 PUSH2 0x1DC1 JUMP JUMPDEST PUSH2 0x2333 DUP9 DUP8 PUSH2 0x1DC1 JUMP JUMPDEST MLOAD PUSH2 0x233E DUP3 DUP9 PUSH2 0x1DC1 JUMP JUMPDEST MLOAD PUSH2 0x2349 DUP11 DUP10 PUSH2 0x1DC1 JUMP JUMPDEST MSTORE PUSH2 0x2354 DUP3 DUP9 PUSH2 0x1DC1 JUMP JUMPDEST MSTORE PUSH2 0x235F DUP9 DUP9 PUSH2 0x1DC1 JUMP JUMPDEST MLOAD PUSH2 0x236A DUP3 DUP10 PUSH2 0x1DC1 JUMP JUMPDEST MLOAD PUSH2 0x2375 DUP11 DUP11 PUSH2 0x1DC1 JUMP JUMPDEST MSTORE PUSH2 0x2380 DUP3 DUP10 PUSH2 0x1DC1 JUMP JUMPDEST MSTORE PUSH2 0x21CE JUMP JUMPDEST SWAP6 PUSH2 0x21E2 JUMP JUMPDEST SWAP1 PUSH2 0x222C JUMP INVALID 0xE8 0xCA SWAP16 0xF7 CALLDATASIZE 0x2B 0x28 DUP6 0xAD 0xE 0x2B BASEFEE PUSH3 0x8EA173 0x4B CREATE 0xE9 SELFDESTRUCT 0xAA DUP5 0x26 PUSH19 0x74CFD05AB4897D547F4295D529CB1FAFD5EEE3 0xE4 PUSH32 0x17F636E81A66D5BB99A18711F2B46E3EC58151A2646970667358221220AC542D SWAP12 0xDC 0xF7 0xE9 0xB7 PUSH20 0xD97909A831D91E90F417F06A8C5A2A5722DD2E5A 0xCB REVERT 0xB9 PUSH5 0x736F6C6343 STOP ADDMOD SHR STOP CALLER "},"methodIdentifiers":{"MAX_POINTS()":"25f87d23","MIN_DEPOSIT()":"e1e158a5","POINTS_PER_S()":"65dbcd43","POINTS_PER_S_CASHOUT()":"81a3b8ea","addressList(uint256)":"b810fb43","addressToReferralCode(address)":"b868e7a1","assignPoints(address,uint256,bool)":"97cbbf24","authorizedContracts(address)":"d5b9221b","awardPointsForPayout(address,uint256,bool)":"bd867242","cashOutReferralPoints(uint256)":"4347f23b","deposit()":"d0e30db0","depositFor(address)":"aa67c919","depositFor(address,string)":"2e8d97b7","depositForCashouts()":"a1283a68","getAddressCount()":"cdbb02af","getAddressesPaginated(uint256,uint256)":"350a8f6c","getLeaderboard()":"6d763a6e","getPoints(address)":"ee204abb","getRemainingPoints()":"f5ee80e1","hasPoints(address)":"5035070b","migrateReferralCode(address,string)":"935ecb6b","migrateUsedReferralCode(address,string)":"f4f02a4d","owner()":"8da5cb5b","points(address)":"358b8166","referralBonusBps()":"195ad3d5","referralCodeToAddress(string)":"d6f92372","referralPoints(address)":"eb72d4f1","registerMe()":"9a198d61","registerReferralCode(string)":"59fb7752","renounceOwnership()":"715018a6","setContractAuthorization(address,bool)":"f60ccc86","setReferralBonus(uint256)":"9a037aa0","totalPointsIssued()":"fd1c8811","transferOwnership(address)":"f2fde38b","usedReferralCode(address)":"ca7eeb57","withdraw()":"3ccfd60b"}}}}}