{
  "_format": "hh-sol-artifact-1",
  "contractName": "Equilibrium",
  "sourceName": "contracts/games/Equilibrium.sol",
  "abi": [
    {
      "inputs": [],
      "stateMutability": "nonpayable",
      "type": "constructor"
    },
    {
      "inputs": [
        {
          "internalType": "address",
          "name": "owner",
          "type": "address"
        }
      ],
      "name": "OwnableInvalidOwner",
      "type": "error"
    },
    {
      "inputs": [
        {
          "internalType": "address",
          "name": "account",
          "type": "address"
        }
      ],
      "name": "OwnableUnauthorizedAccount",
      "type": "error"
    },
    {
      "anonymous": false,
      "inputs": [
        {
          "indexed": true,
          "internalType": "uint256",
          "name": "gameId",
          "type": "uint256"
        },
        {
          "indexed": false,
          "internalType": "address[]",
          "name": "winners",
          "type": "address[]"
        }
      ],
      "name": "GameCompleted",
      "type": "event"
    },
    {
      "anonymous": false,
      "inputs": [
        {
          "indexed": false,
          "internalType": "address[]",
          "name": "players",
          "type": "address[]"
        },
        {
          "indexed": false,
          "internalType": "uint256[]",
          "name": "playerNumbers",
          "type": "uint256[]"
        }
      ],
      "name": "GameInitialized",
      "type": "event"
    },
    {
      "anonymous": false,
      "inputs": [
        {
          "indexed": false,
          "internalType": "address",
          "name": "newGameMaster",
          "type": "address"
        }
      ],
      "name": "GameMasterChanged",
      "type": "event"
    },
    {
      "anonymous": false,
      "inputs": [
        {
          "indexed": true,
          "internalType": "uint256",
          "name": "gameId",
          "type": "uint256"
        },
        {
          "indexed": false,
          "internalType": "uint256",
          "name": "endTime",
          "type": "uint256"
        }
      ],
      "name": "GameStarted",
      "type": "event"
    },
    {
      "anonymous": false,
      "inputs": [
        {
          "indexed": true,
          "internalType": "address",
          "name": "previousOwner",
          "type": "address"
        },
        {
          "indexed": true,
          "internalType": "address",
          "name": "newOwner",
          "type": "address"
        }
      ],
      "name": "OwnershipTransferred",
      "type": "event"
    },
    {
      "anonymous": false,
      "inputs": [
        {
          "indexed": true,
          "internalType": "uint256",
          "name": "gameId",
          "type": "uint256"
        },
        {
          "indexed": true,
          "internalType": "address",
          "name": "player",
          "type": "address"
        },
        {
          "indexed": false,
          "internalType": "uint256",
          "name": "playerNumber",
          "type": "uint256"
        }
      ],
      "name": "PlayerEliminated",
      "type": "event"
    },
    {
      "anonymous": false,
      "inputs": [
        {
          "indexed": true,
          "internalType": "uint256",
          "name": "gameId",
          "type": "uint256"
        },
        {
          "indexed": true,
          "internalType": "address",
          "name": "player",
          "type": "address"
        },
        {
          "indexed": false,
          "internalType": "uint8",
          "name": "fromTeam",
          "type": "uint8"
        },
        {
          "indexed": false,
          "internalType": "uint8",
          "name": "toTeam",
          "type": "uint8"
        }
      ],
      "name": "PlayerSwitchedTeam",
      "type": "event"
    },
    {
      "anonymous": false,
      "inputs": [
        {
          "indexed": true,
          "internalType": "uint256",
          "name": "gameId",
          "type": "uint256"
        },
        {
          "indexed": false,
          "internalType": "uint8",
          "name": "team",
          "type": "uint8"
        },
        {
          "indexed": false,
          "internalType": "uint256",
          "name": "teamSize",
          "type": "uint256"
        }
      ],
      "name": "TeamEliminated",
      "type": "event"
    },
    {
      "inputs": [],
      "name": "endExpiredGames",
      "outputs": [],
      "stateMutability": "nonpayable",
      "type": "function"
    },
    {
      "inputs": [],
      "name": "endGame",
      "outputs": [
        {
          "internalType": "address[]",
          "name": "",
          "type": "address[]"
        }
      ],
      "stateMutability": "nonpayable",
      "type": "function"
    },
    {
      "inputs": [],
      "name": "gameIdCounter",
      "outputs": [
        {
          "internalType": "uint256",
          "name": "",
          "type": "uint256"
        }
      ],
      "stateMutability": "view",
      "type": "function"
    },
    {
      "inputs": [],
      "name": "gameMaster",
      "outputs": [
        {
          "internalType": "address",
          "name": "",
          "type": "address"
        }
      ],
      "stateMutability": "view",
      "type": "function"
    },
    {
      "inputs": [],
      "name": "getActivePlayers",
      "outputs": [
        {
          "internalType": "address[]",
          "name": "",
          "type": "address[]"
        }
      ],
      "stateMutability": "view",
      "type": "function"
    },
    {
      "inputs": [
        {
          "internalType": "uint256",
          "name": "gameId",
          "type": "uint256"
        }
      ],
      "name": "getGameInfo",
      "outputs": [
        {
          "components": [
            {
              "internalType": "enum GameState",
              "name": "state",
              "type": "uint8"
            },
            {
              "internalType": "uint256",
              "name": "currentRound",
              "type": "uint256"
            },
            {
              "internalType": "uint256",
              "name": "roundEndTime",
              "type": "uint256"
            },
            {
              "internalType": "uint256",
              "name": "gameStartTime",
              "type": "uint256"
            },
            {
              "internalType": "uint256",
              "name": "gameEndTime",
              "type": "uint256"
            }
          ],
          "internalType": "struct IGame.GameInfo",
          "name": "",
          "type": "tuple"
        }
      ],
      "stateMutability": "view",
      "type": "function"
    },
    {
      "inputs": [],
      "name": "getGameName",
      "outputs": [
        {
          "internalType": "string",
          "name": "",
          "type": "string"
        }
      ],
      "stateMutability": "pure",
      "type": "function"
    },
    {
      "inputs": [
        {
          "internalType": "uint256",
          "name": "gameId",
          "type": "uint256"
        }
      ],
      "name": "getGameState",
      "outputs": [
        {
          "internalType": "enum GameState",
          "name": "",
          "type": "uint8"
        }
      ],
      "stateMutability": "view",
      "type": "function"
    },
    {
      "inputs": [],
      "name": "getGames",
      "outputs": [
        {
          "components": [
            {
              "internalType": "uint256",
              "name": "gameId",
              "type": "uint256"
            },
            {
              "internalType": "enum GameState",
              "name": "state",
              "type": "uint8"
            },
            {
              "internalType": "uint256",
              "name": "currentRound",
              "type": "uint256"
            },
            {
              "internalType": "uint256",
              "name": "activePlayerCount",
              "type": "uint256"
            }
          ],
          "internalType": "struct GameInstanceInfo[]",
          "name": "gamesInfo",
          "type": "tuple[]"
        }
      ],
      "stateMutability": "view",
      "type": "function"
    },
    {
      "inputs": [
        {
          "internalType": "address",
          "name": "player",
          "type": "address"
        }
      ],
      "name": "getPlayerGameId",
      "outputs": [
        {
          "internalType": "uint256",
          "name": "",
          "type": "uint256"
        }
      ],
      "stateMutability": "view",
      "type": "function"
    },
    {
      "inputs": [
        {
          "internalType": "uint256",
          "name": "gameId",
          "type": "uint256"
        }
      ],
      "name": "getPlayerInfo",
      "outputs": [
        {
          "components": [
            {
              "internalType": "address",
              "name": "playerAddress",
              "type": "address"
            },
            {
              "internalType": "uint256",
              "name": "playerNumber",
              "type": "uint256"
            },
            {
              "internalType": "uint8",
              "name": "team",
              "type": "uint8"
            },
            {
              "internalType": "bool",
              "name": "isActive",
              "type": "bool"
            }
          ],
          "internalType": "struct Equilibrium.EquilibriumPlayerInfo[]",
          "name": "",
          "type": "tuple[]"
        }
      ],
      "stateMutability": "view",
      "type": "function"
    },
    {
      "inputs": [
        {
          "internalType": "uint256",
          "name": "gameId",
          "type": "uint256"
        },
        {
          "internalType": "address",
          "name": "player",
          "type": "address"
        }
      ],
      "name": "getPlayerNumber",
      "outputs": [
        {
          "internalType": "uint256",
          "name": "",
          "type": "uint256"
        }
      ],
      "stateMutability": "view",
      "type": "function"
    },
    {
      "inputs": [
        {
          "internalType": "uint256",
          "name": "gameId",
          "type": "uint256"
        },
        {
          "internalType": "address",
          "name": "player",
          "type": "address"
        }
      ],
      "name": "getPlayerTeam",
      "outputs": [
        {
          "internalType": "uint8",
          "name": "",
          "type": "uint8"
        }
      ],
      "stateMutability": "view",
      "type": "function"
    },
    {
      "inputs": [],
      "name": "getPlayers",
      "outputs": [
        {
          "internalType": "address[]",
          "name": "",
          "type": "address[]"
        }
      ],
      "stateMutability": "view",
      "type": "function"
    },
    {
      "inputs": [
        {
          "internalType": "uint256",
          "name": "gameId",
          "type": "uint256"
        },
        {
          "internalType": "uint8",
          "name": "team",
          "type": "uint8"
        }
      ],
      "name": "getTeamSize",
      "outputs": [
        {
          "internalType": "uint256",
          "name": "",
          "type": "uint256"
        }
      ],
      "stateMutability": "view",
      "type": "function"
    },
    {
      "inputs": [
        {
          "internalType": "address[]",
          "name": "_players",
          "type": "address[]"
        },
        {
          "internalType": "uint256[]",
          "name": "_playerNumbers",
          "type": "uint256[]"
        }
      ],
      "name": "initialize",
      "outputs": [],
      "stateMutability": "nonpayable",
      "type": "function"
    },
    {
      "inputs": [
        {
          "internalType": "address",
          "name": "",
          "type": "address"
        }
      ],
      "name": "isPlayerInGame",
      "outputs": [
        {
          "internalType": "bool",
          "name": "",
          "type": "bool"
        }
      ],
      "stateMutability": "view",
      "type": "function"
    },
    {
      "inputs": [],
      "name": "owner",
      "outputs": [
        {
          "internalType": "address",
          "name": "",
          "type": "address"
        }
      ],
      "stateMutability": "view",
      "type": "function"
    },
    {
      "inputs": [
        {
          "internalType": "address",
          "name": "",
          "type": "address"
        }
      ],
      "name": "playerGameId",
      "outputs": [
        {
          "internalType": "uint256",
          "name": "",
          "type": "uint256"
        }
      ],
      "stateMutability": "view",
      "type": "function"
    },
    {
      "inputs": [],
      "name": "registerMe",
      "outputs": [],
      "stateMutability": "nonpayable",
      "type": "function"
    },
    {
      "inputs": [],
      "name": "renounceOwnership",
      "outputs": [],
      "stateMutability": "nonpayable",
      "type": "function"
    },
    {
      "inputs": [
        {
          "internalType": "address",
          "name": "_newGameMaster",
          "type": "address"
        }
      ],
      "name": "setGameMaster",
      "outputs": [],
      "stateMutability": "nonpayable",
      "type": "function"
    },
    {
      "inputs": [],
      "name": "startGames",
      "outputs": [
        {
          "internalType": "bool",
          "name": "",
          "type": "bool"
        }
      ],
      "stateMutability": "nonpayable",
      "type": "function"
    },
    {
      "inputs": [
        {
          "internalType": "uint8",
          "name": "team",
          "type": "uint8"
        }
      ],
      "name": "switchTeam",
      "outputs": [],
      "stateMutability": "nonpayable",
      "type": "function"
    },
    {
      "inputs": [
        {
          "internalType": "address",
          "name": "newOwner",
          "type": "address"
        }
      ],
      "name": "transferOwnership",
      "outputs": [],
      "stateMutability": "nonpayable",
      "type": "function"
    }
  ],
  "bytecode": "0x60808060405234608757331560715760008054336001600160a01b0319821681178355916001600160a01b03909116907f8be0079c531659141344cd1fd0a4f28419497f9722a3daafe3b4186f6b6457e09080a3600180546001600160a01b03191633179055611c23908161008d8239f35b631e4fbdf760e01b600052600060045260246000fd5b600080fdfe608080604052600436101561001357600080fd5b60003560e01c9081631bb412d6146112815750806325b05c8814610c675780632f07ba58146110725780633532804d14610fd75780633c4f5a6614610f9e5780634294b98414610f0057806347e1d55014610e26578063574a5b2014610de757806365c7e4e514610d735780636cbc2ded14610cfa578063715018a614610ca1578063773b549d14610c675780637fbbe46f146108935780638b5b9ccc146108435780638da5cb5b1461081a5780639a198d6114610724578063bbda33d9146106a2578063bdf84ae714610679578063c04c594714610519578063c2e949271461045e578063d0f3a21e146103ee578063e81de9f5146103b4578063ea17532e14610214578063f2fde38b1461018b5763ffde0c741461013257600080fd5b34610186576020366003190112610186576004358015158061017a575b610158906113a7565b6000526003602052602060ff60406000205416610178604051809261130b565bf35b5060025481111561014f565b600080fd5b34610186576020366003190112610186576101a461129c565b6101ac611bc4565b6001600160a01b031680156101fe57600080546001600160a01b03198116831782556001600160a01b0316907f8be0079c531659141344cd1fd0a4f28419497f9722a3daafe3b4186f6b6457e09080a3005b631e4fbdf760e01b600052600060045260246000fd5b3461018657602036600319011261018657600435801515806103a8575b61023a906113a7565b6000526003602052604060002060048101805490610257826115a7565b9261026560405194856114a1565b828452601f19610274846115a7565b0160005b818110610391575050600060068201926008600984019301915b85811061030c578660405180916020820160208352815180915260206040840192019060005b8181106102c6575050500390f35b919350916020608060019260608751858060a01b038151168352848101518584015260ff60408201511660408401520151151560608201520194019101918493926102b8565b8061031960019284611541565b905460a084901b84900360039290921b1c16600081815260208881526040808320548983528184205492899052928190205490519360ff91821693919092169161036285611485565b8452602084015260408301521515606082015261037f828a6115e4565b5261038a81896115e4565b5001610292565b60209061039c6115bf565b82828901015201610278565b50600254811115610231565b34610186576000366003190112610186576103da60018060a01b036001541633146114cf565b60206103e46115f8565b6040519015158152f35b3461018657600036600319011261018657600254806000526003602052604060002060ff815416600581101561044857600214908161043a575b5061042f57005b61043890611698565b005b600391500154421182610428565b634e487b7160e01b600052602160045260246000fd5b346101865760203660031901126101865761047761129c565b61047f611bc4565b6001600160a01b031680156104d4576020817f63860f6674590a6969c4fe1dc738a9c8f955407c09e6c67a6bdb818f4c35cd8a926bffffffffffffffffffffffff60a01b6001541617600155604051908152a1005b60405162461bcd60e51b815260206004820152601a60248201527f496e76616c69642047616d654d617374657220616464726573730000000000006044820152606490fd5b3461018657600036600319011261018657600254610536816115a7565b9061054460405192836114a1565b808252601f19610553826115a7565b0160005b81811061066257505060015b818111156105da578260405180916020820160208352815180915260206040840192019060005b818110610598575050500390f35b919350916020608060019260608751805183526105bb858201518685019061130b565b604081015160408401520151606082015201940191019184939261058a565b806000526003602052604060002090600760ff83541692015461060f6040519361060385611485565b838552602085016114c3565b60016040840152606083015260001981019181831161064c57826106419161063a61064795886115e4565b52856115e4565b50611398565b610563565b634e487b7160e01b600052601160045260246000fd5b60209061066d6115bf565b82828701015201610557565b34610186576000366003190112610186576001546040516001600160a01b039091168152602090f35b346101865760003660031901126101865760408051906106c281836114a1565b600b82526a457175696c69627269756d60a81b6020830152805180926020825280519081602084015260005b82811061070d5750506000828201840152601f01601f19168101030190f35b6020828201810151878301870152869450016106ee565b346101865760003660031901126101865760008060405160208101906307983f4560e21b825260976024820152602481526107606044826114a1565b51908273dc2b0d2dd2b7759d97d50db4eabdc369731108305af13d15610815573d67ffffffffffffffff81116107ff57604051906107a8601f8201601f1916602001836114a1565b8152600060203d92013e5b156107ba57005b60405162461bcd60e51b815260206004820152601860248201527f4665654d20726567697374726174696f6e206661696c656400000000000000006044820152606490fd5b634e487b7160e01b600052604160045260246000fd5b6107b3565b34610186576000366003190112610186576000546040516001600160a01b039091168152602090f35b3461018657600036600319011261018657600254600052600360205261088f61087c610883600460406000200160405192838092611426565b03826114a1565b604051918291826112c8565b0390f35b346101865760403660031901126101865760043567ffffffffffffffff8111610186576108c4903690600401611318565b9060243567ffffffffffffffff8111610186576108e5903690600401611318565b90926108fc60018060a01b036001541633146114cf565b8015610c2c57818103610be75760028110610ba25761091c600254611398565b9283600255836000526003602052604060002093600160ff1986541617855542600186015560009460048101956007820191600a8101926006820160058301976009600885019401945b8181106109d6578c8c8c61098560405192604084526040840190611426565b8281036020840152818152906001600160fb1b038111610186577fb66ba8feaec509998ef3217bc97fbf1a0f906b89fac25a4ace8ddff059a41f1293602092849260051b80928583013701030190a1005b6109e181838b61151b565b35906001600160a01b038216808303610186578015610b64578b8f8f908f9184600052600560205260ff60406000205416610acc575b92610a35868894604094610a3060019b610a5c99611559565b61151b565b358260008781528b6020522055600090858252602052208560ff1982541617905587611559565b6040600082815288602052208360ff1982541617905560406000828152896020522060ff19815416905560008052886020526040600020610a9d8154611398565b905580600052600460205289604060002055600052600560205260406000208260ff1982541617905501610966565b505050508060005260046020526040600020548015908115610b3f575b5015610afa578b8f8f908f91610a17565b60405162461bcd60e51b815260206004820152601d60248201527f506c6179657220616c726561647920696e206163746976652067616d650000006044820152606490fd5b9050600052600360205260ff6040600020541660058110156104485760041438610ae9565b60405162461bcd60e51b8152602060048201526016602482015275496e76616c696420706c61796572206164647265737360501b6044820152606490fd5b60405162461bcd60e51b815260206004820152601760248201527f4e656564206174206c65617374203220706c61796572730000000000000000006044820152606490fd5b60405162461bcd60e51b815260206004820152601860248201527f4172726179206c656e67746873206d757374206d6174636800000000000000006044820152606490fd5b60405162461bcd60e51b8152602060048201526013602482015272139bc81c1b185e595c9cc81c1c9bdd9a591959606a1b6044820152606490fd5b34610186576020366003190112610186576001600160a01b03610c8861129c565b1660005260046020526020604060002054604051908152f35b3461018657600036600319011261018657610cba611bc4565b600080546001600160a01b0319811682556001600160a01b03167f8be0079c531659141344cd1fd0a4f28419497f9722a3daafe3b4186f6b6457e08280a3005b3461018657600036600319011261018657610d2060018060a01b036001541633146114cf565b60025480600052600360205260406000209060ff82541660058110156104485761088f9260079260026108839314610d64575b5061087c6040518094819301611426565b610d6d90611698565b84610d53565b34610186576040366003190112610186576004356024359060ff82168092036101865780151580610ddb575b610da8906113a7565b610db460048310611349565b6000526003602052600a604060002001906000526020526020604060002054604051908152f35b50600254811115610d9f565b34610186576020366003190112610186576001600160a01b03610e0861129c565b166000526005602052602060ff604060002054166040519015158152f35b346101865760203660031901126101865760043560006080604051610e4a81611469565b828152826020820152826040820152826060820152015280151580610ef4575b610e73906113a7565b600052600360205260a0604060002060ff815416906003810154906002600182015491015491610eaf60405194610ea986611469565b856114c3565b6020840160018152604085019182526060850192835260808501938452610eda60405180965161130b565b516020850152516040840152516060830152516080820152f35b50600254811115610e6a565b3461018657604036600319011261018657600435610f1c6112b2565b9080151580610f92575b610f2f906113a7565b806000526003602052600560406000200160018060a01b038316600052602052610f6060ff604060002054166113e5565b600052600360205260096040600020019060018060a01b0316600052602052602060ff60406000205416604051908152f35b50600254811115610f26565b3461018657600036600319011261018657600254600052600360205261088f61087c610883600760406000200160405192838092611426565b3461018657604036600319011261018657600435610ff36112b2565b9080151580611066575b611006906113a7565b806000526003602052600560406000200160018060a01b03831660005260205261103760ff604060002054166113e5565b600052600360205260066040600020019060018060a01b03166000526020526020604060002054604051908152f35b50600254811115610ffd565b346101865760203660031901126101865760043560ff81168091036101865733600052600560205260ff6040600020541615611243576110b460048210611349565b33600052600460205260406000205480600052600360205260406000209160ff83541660058110156104485760020361120c57600383015442116111d65733600090815260098401602081905260409091205460ff169382851461119a57600a0160ff851660005280602052604060002061112f815461138b565b90558260005260205260406000206111478154611398565b905560018060a01b03331660005260205260406000208160ff1982541617905560405192835260208301527fe6e5fc6e2975ffc9ef7e3c2c7e29d0d370446c8daa529eef4b6ff1cd2da1f19360403393a3005b60405162461bcd60e51b8152602060048201526014602482015273416c7265616479206f6e2074686973207465616d60601b6044820152606490fd5b60405162461bcd60e51b815260206004820152600e60248201526d11d85b59481a185cc8195b99195960921b6044820152606490fd5b60405162461bcd60e51b815260206004820152600f60248201526e47616d65206e6f742061637469766560881b6044820152606490fd5b60405162461bcd60e51b8152602060048201526016602482015275506c61796572206e6f7420696e20616e792067616d6560501b6044820152606490fd5b34610186576000366003190112610186576020906002548152f35b600435906001600160a01b038216820361018657565b602435906001600160a01b038216820361018657565b602060408183019282815284518094520192019060005b8181106112ec5750505090565b82516001600160a01b03168452602093840193909201916001016112df565b9060058210156104485752565b9181601f840112156101865782359167ffffffffffffffff8311610186576020808501948460051b01011161018657565b1561135057565b60405162461bcd60e51b815260206004820152601360248201527224b73b30b634b2103a32b0b690373ab6b132b960691b6044820152606490fd5b801561064c576000190190565b600019811461064c5760010190565b156113ae57565b60405162461bcd60e51b815260206004820152600f60248201526e125b9d985b1a590819d85b59481251608a1b6044820152606490fd5b156113ec57565b60405162461bcd60e51b8152602060048201526012602482015271506c61796572206e6f7420696e2067616d6560701b6044820152606490fd5b906020825491828152019160005260206000209060005b81811061144a5750505090565b82546001600160a01b031684526020909301926001928301920161143d565b60a0810190811067ffffffffffffffff8211176107ff57604052565b6080810190811067ffffffffffffffff8211176107ff57604052565b90601f8019910116810190811067ffffffffffffffff8211176107ff57604052565b60058210156104485752565b156114d657565b60405162461bcd60e51b815260206004820152601860248201527f4f6e6c792047616d654d61737465722063616e2063616c6c00000000000000006044820152606490fd5b919081101561152b5760051b0190565b634e487b7160e01b600052603260045260246000fd5b805482101561152b5760005260206000200190600090565b90815491680100000000000000008310156107ff57826115819160016115a595018155611541565b81546001600160a01b0393841660039290921b91821b9390911b1916919091179055565b565b67ffffffffffffffff81116107ff5760051b60200190565b604051906115cc82611485565b60006060838281528260208201528260408201520152565b805182101561152b5760209160051b010190565b6002546000526003602052604060002060ff8154166005811015610448576001148061167a575b6116295750600090565b600260ff1982541617815561025842019081421161064c576003829101557fa2dfaa3573b86004ec9d4d4abe5068d942579c59da4da8cd0d9e45e71a393bc1602060025492604051908152a2600190565b506007810154151561161f565b60ff1660ff811461064c5760010190565b6000818152600360205260408120600a81019390825b600460ff821610611b855750604051926116c960a0856114a1565b600484526080366020860137600092835b60ff8116600481101561172a5783604060008381528b60205220541461170a575b5061170590611687565b6116da565b856117239161171d61170594988a6115e4565b52611398565b94906116fb565b5050955092909160048114611b345760405160208101904282524460408201528660608201526060815261175f6080826114a1565b519020918115611b1e5760ff6117799281940616906115e4565b51166007820192835461178b816115a7565b61179860405191826114a1565b818152601f196117a7836115a7565b0136602083013760009160098601835b828110611ac457505050906000905b8082106118515750505091847fe41d6b13e5cba3ff95cceafbe365ee1bc0e88b7b44d6dfc4c99ebe6c8024c41960407fa7690f576eaef889ef9ef29d1eaee6c0e3b073108b66bb8009ec8af6428bb345969461184c9682519182526020820152a2600460ff19825416178155600242910155604051918291602083526020830190611426565b0390a2565b92979196909593949093906001600160a01b0361186e888a6115e4565b51169585600052600360205260406000209960088b0160ff6040600060018060a01b038c1681528360205220541615611a8b57604090818d600a60ff9a9e9a838e60009060018060a01b03168152600985016020522054169160ff60009316835201602052206118de815461138b565b905560009060018060a01b038b1682526020522060ff198154169055876000526005602052604060002060ff1981541690558760005260046020526000604081205560009960078c019a5b8b5480821015611a78578a61193e838f611541565b905460039190911b1c6001600160a01b03161461195e5750600101611929565b9060009d959a9398969b94999c92979d19820191821161064c576115816119886119a19385611541565b905460039190911b1c6001600160a01b03169184611541565b80548015611a625760001901906119b88282611541565b81549060018060a01b039060031b1b19169055555b6001546001600160a01b031692833b15610186577f51479c93d7646904d2282e9e79cddf11999ac774b7fd0289e2f59cb4ad0f086a602060408d936000806001996024855180948193633ef6cf1d60e21b83528c60048401525af1611a51575b506006600091898060a01b03881683520183522054604051908152a30190916117c6565b6000611a5c916114a1565b38611a2d565b634e487b7160e01b600052603160045260246000fd5b5050949a929790959398919699506119cd565b60405162461bcd60e51b8152602060048201526011602482015270506c61796572206e6f742061637469766560781b6044820152606490fd5b80611ad16001928b611541565b838060a01b0391549060031b1c168860ff60406000868060a01b03851681528760205220541614611b04575b50016117b7565b611b17611b1088611398565b97876115e4565b5238611afd565b634e487b7160e01b600052601260045260246000fd5b50507fa7690f576eaef889ef9ef29d1eaee6c0e3b073108b66bb8009ec8af6428bb345915061184c90600460ff19825416178155426002820155604051918291602083526007602084019101611426565b836040600060ff8416815288602052205411611baa575b611ba590611687565b6116ae565b60ff81166000908152602087905260409020549350611b9c565b6000546001600160a01b03163303611bd857565b63118cdaa760e01b6000523360045260246000fdfea26469706673582212207b2266389ac1d6a17918033ef72c7f5884b6824fbe1ad6a2634351efcd5c050364736f6c634300081c0033",
  "linkReferences": {},
  "deployedLinkReferences": {}
}