{
  "_format": "hh-sol-artifact-1",
  "contractName": "Threes",
  "sourceName": "contracts/games/Threes.sol",
  "abi": [
    {
      "inputs": [],
      "stateMutability": "nonpayable",
      "type": "constructor"
    },
    {
      "inputs": [
        {
          "internalType": "address",
          "name": "owner",
          "type": "address"
        }
      ],
      "name": "OwnableInvalidOwner",
      "type": "error"
    },
    {
      "inputs": [
        {
          "internalType": "address",
          "name": "account",
          "type": "address"
        }
      ],
      "name": "OwnableUnauthorizedAccount",
      "type": "error"
    },
    {
      "anonymous": false,
      "inputs": [
        {
          "indexed": true,
          "internalType": "uint256",
          "name": "gameId",
          "type": "uint256"
        },
        {
          "indexed": false,
          "internalType": "address[]",
          "name": "winners",
          "type": "address[]"
        }
      ],
      "name": "GameCompleted",
      "type": "event"
    },
    {
      "anonymous": false,
      "inputs": [
        {
          "indexed": false,
          "internalType": "address[]",
          "name": "players",
          "type": "address[]"
        },
        {
          "indexed": false,
          "internalType": "uint256[]",
          "name": "playerNumbers",
          "type": "uint256[]"
        }
      ],
      "name": "GameInitialized",
      "type": "event"
    },
    {
      "anonymous": false,
      "inputs": [
        {
          "indexed": false,
          "internalType": "address",
          "name": "newGameMaster",
          "type": "address"
        }
      ],
      "name": "GameMasterChanged",
      "type": "event"
    },
    {
      "anonymous": false,
      "inputs": [
        {
          "indexed": true,
          "internalType": "address",
          "name": "previousOwner",
          "type": "address"
        },
        {
          "indexed": true,
          "internalType": "address",
          "name": "newOwner",
          "type": "address"
        }
      ],
      "name": "OwnershipTransferred",
      "type": "event"
    },
    {
      "anonymous": false,
      "inputs": [
        {
          "indexed": true,
          "internalType": "uint256",
          "name": "gameId",
          "type": "uint256"
        },
        {
          "indexed": true,
          "internalType": "address",
          "name": "player",
          "type": "address"
        }
      ],
      "name": "PlayerCommitted",
      "type": "event"
    },
    {
      "anonymous": false,
      "inputs": [
        {
          "indexed": true,
          "internalType": "uint256",
          "name": "gameId",
          "type": "uint256"
        },
        {
          "indexed": true,
          "internalType": "address",
          "name": "player",
          "type": "address"
        },
        {
          "indexed": false,
          "internalType": "uint256",
          "name": "playerNumber",
          "type": "uint256"
        }
      ],
      "name": "PlayerEliminated",
      "type": "event"
    },
    {
      "anonymous": false,
      "inputs": [
        {
          "indexed": true,
          "internalType": "uint256",
          "name": "gameId",
          "type": "uint256"
        },
        {
          "indexed": true,
          "internalType": "address",
          "name": "player",
          "type": "address"
        },
        {
          "indexed": false,
          "internalType": "uint256",
          "name": "choice",
          "type": "uint256"
        }
      ],
      "name": "PlayerRevealed",
      "type": "event"
    },
    {
      "anonymous": false,
      "inputs": [
        {
          "indexed": true,
          "internalType": "uint256",
          "name": "gameId",
          "type": "uint256"
        },
        {
          "indexed": false,
          "internalType": "uint256",
          "name": "roundNumber",
          "type": "uint256"
        },
        {
          "indexed": false,
          "internalType": "uint256",
          "name": "phase",
          "type": "uint256"
        },
        {
          "indexed": false,
          "internalType": "uint256",
          "name": "endTime",
          "type": "uint256"
        }
      ],
      "name": "RoundStarted",
      "type": "event"
    },
    {
      "inputs": [
        {
          "internalType": "bytes32",
          "name": "commitment",
          "type": "bytes32"
        }
      ],
      "name": "commitChoice",
      "outputs": [],
      "stateMutability": "nonpayable",
      "type": "function"
    },
    {
      "inputs": [],
      "name": "endExpiredGames",
      "outputs": [],
      "stateMutability": "nonpayable",
      "type": "function"
    },
    {
      "inputs": [],
      "name": "endGame",
      "outputs": [
        {
          "internalType": "address[]",
          "name": "",
          "type": "address[]"
        }
      ],
      "stateMutability": "nonpayable",
      "type": "function"
    },
    {
      "inputs": [],
      "name": "gameIdCounter",
      "outputs": [
        {
          "internalType": "uint256",
          "name": "",
          "type": "uint256"
        }
      ],
      "stateMutability": "view",
      "type": "function"
    },
    {
      "inputs": [],
      "name": "gameMaster",
      "outputs": [
        {
          "internalType": "address",
          "name": "",
          "type": "address"
        }
      ],
      "stateMutability": "view",
      "type": "function"
    },
    {
      "inputs": [],
      "name": "getActivePlayers",
      "outputs": [
        {
          "internalType": "address[]",
          "name": "",
          "type": "address[]"
        }
      ],
      "stateMutability": "view",
      "type": "function"
    },
    {
      "inputs": [
        {
          "internalType": "uint256",
          "name": "gameId",
          "type": "uint256"
        }
      ],
      "name": "getCurrentPhase",
      "outputs": [
        {
          "internalType": "uint256",
          "name": "",
          "type": "uint256"
        }
      ],
      "stateMutability": "view",
      "type": "function"
    },
    {
      "inputs": [
        {
          "internalType": "uint256",
          "name": "gameId",
          "type": "uint256"
        }
      ],
      "name": "getCurrentRound",
      "outputs": [
        {
          "internalType": "uint256",
          "name": "",
          "type": "uint256"
        }
      ],
      "stateMutability": "view",
      "type": "function"
    },
    {
      "inputs": [
        {
          "internalType": "uint256",
          "name": "gameId",
          "type": "uint256"
        }
      ],
      "name": "getGameInfo",
      "outputs": [
        {
          "components": [
            {
              "internalType": "enum GameState",
              "name": "state",
              "type": "uint8"
            },
            {
              "internalType": "uint256",
              "name": "currentRound",
              "type": "uint256"
            },
            {
              "internalType": "uint256",
              "name": "roundEndTime",
              "type": "uint256"
            },
            {
              "internalType": "uint256",
              "name": "gameStartTime",
              "type": "uint256"
            },
            {
              "internalType": "uint256",
              "name": "gameEndTime",
              "type": "uint256"
            }
          ],
          "internalType": "struct IGame.GameInfo",
          "name": "",
          "type": "tuple"
        }
      ],
      "stateMutability": "view",
      "type": "function"
    },
    {
      "inputs": [],
      "name": "getGameName",
      "outputs": [
        {
          "internalType": "string",
          "name": "",
          "type": "string"
        }
      ],
      "stateMutability": "pure",
      "type": "function"
    },
    {
      "inputs": [
        {
          "internalType": "uint256",
          "name": "gameId",
          "type": "uint256"
        }
      ],
      "name": "getGameState",
      "outputs": [
        {
          "internalType": "enum GameState",
          "name": "",
          "type": "uint8"
        }
      ],
      "stateMutability": "view",
      "type": "function"
    },
    {
      "inputs": [],
      "name": "getGames",
      "outputs": [
        {
          "components": [
            {
              "internalType": "uint256",
              "name": "gameId",
              "type": "uint256"
            },
            {
              "internalType": "enum GameState",
              "name": "state",
              "type": "uint8"
            },
            {
              "internalType": "uint256",
              "name": "currentRound",
              "type": "uint256"
            },
            {
              "internalType": "uint256",
              "name": "activePlayerCount",
              "type": "uint256"
            }
          ],
          "internalType": "struct GameInstanceInfo[]",
          "name": "gamesInfo",
          "type": "tuple[]"
        }
      ],
      "stateMutability": "view",
      "type": "function"
    },
    {
      "inputs": [
        {
          "internalType": "address",
          "name": "player",
          "type": "address"
        }
      ],
      "name": "getPlayerGameId",
      "outputs": [
        {
          "internalType": "uint256",
          "name": "",
          "type": "uint256"
        }
      ],
      "stateMutability": "view",
      "type": "function"
    },
    {
      "inputs": [
        {
          "internalType": "uint256",
          "name": "gameId",
          "type": "uint256"
        }
      ],
      "name": "getPlayerInfo",
      "outputs": [
        {
          "components": [
            {
              "internalType": "address",
              "name": "playerAddress",
              "type": "address"
            },
            {
              "internalType": "uint256",
              "name": "playerNumber",
              "type": "uint256"
            },
            {
              "internalType": "bool",
              "name": "hasCommitted",
              "type": "bool"
            },
            {
              "internalType": "bool",
              "name": "hasRevealed",
              "type": "bool"
            },
            {
              "internalType": "bool",
              "name": "isActive",
              "type": "bool"
            }
          ],
          "internalType": "struct Threes.ThreesPlayerInfo[]",
          "name": "",
          "type": "tuple[]"
        }
      ],
      "stateMutability": "view",
      "type": "function"
    },
    {
      "inputs": [
        {
          "internalType": "uint256",
          "name": "gameId",
          "type": "uint256"
        },
        {
          "internalType": "address",
          "name": "player",
          "type": "address"
        }
      ],
      "name": "getPlayerNumber",
      "outputs": [
        {
          "internalType": "uint256",
          "name": "",
          "type": "uint256"
        }
      ],
      "stateMutability": "view",
      "type": "function"
    },
    {
      "inputs": [],
      "name": "getPlayers",
      "outputs": [
        {
          "internalType": "address[]",
          "name": "",
          "type": "address[]"
        }
      ],
      "stateMutability": "view",
      "type": "function"
    },
    {
      "inputs": [
        {
          "internalType": "uint256",
          "name": "gameId",
          "type": "uint256"
        }
      ],
      "name": "getRoundEndTime",
      "outputs": [
        {
          "internalType": "uint256",
          "name": "",
          "type": "uint256"
        }
      ],
      "stateMutability": "view",
      "type": "function"
    },
    {
      "inputs": [
        {
          "internalType": "uint256",
          "name": "gameId",
          "type": "uint256"
        },
        {
          "internalType": "address",
          "name": "player",
          "type": "address"
        }
      ],
      "name": "hasPlayerCommitted",
      "outputs": [
        {
          "internalType": "bool",
          "name": "",
          "type": "bool"
        }
      ],
      "stateMutability": "view",
      "type": "function"
    },
    {
      "inputs": [
        {
          "internalType": "uint256",
          "name": "gameId",
          "type": "uint256"
        },
        {
          "internalType": "address",
          "name": "player",
          "type": "address"
        }
      ],
      "name": "hasPlayerRevealed",
      "outputs": [
        {
          "internalType": "bool",
          "name": "",
          "type": "bool"
        }
      ],
      "stateMutability": "view",
      "type": "function"
    },
    {
      "inputs": [
        {
          "internalType": "address[]",
          "name": "_players",
          "type": "address[]"
        },
        {
          "internalType": "uint256[]",
          "name": "_playerNumbers",
          "type": "uint256[]"
        }
      ],
      "name": "initialize",
      "outputs": [],
      "stateMutability": "nonpayable",
      "type": "function"
    },
    {
      "inputs": [
        {
          "internalType": "address",
          "name": "",
          "type": "address"
        }
      ],
      "name": "isPlayerInGame",
      "outputs": [
        {
          "internalType": "bool",
          "name": "",
          "type": "bool"
        }
      ],
      "stateMutability": "view",
      "type": "function"
    },
    {
      "inputs": [],
      "name": "owner",
      "outputs": [
        {
          "internalType": "address",
          "name": "",
          "type": "address"
        }
      ],
      "stateMutability": "view",
      "type": "function"
    },
    {
      "inputs": [
        {
          "internalType": "address",
          "name": "",
          "type": "address"
        }
      ],
      "name": "playerGameId",
      "outputs": [
        {
          "internalType": "uint256",
          "name": "",
          "type": "uint256"
        }
      ],
      "stateMutability": "view",
      "type": "function"
    },
    {
      "inputs": [],
      "name": "registerMe",
      "outputs": [],
      "stateMutability": "nonpayable",
      "type": "function"
    },
    {
      "inputs": [],
      "name": "renounceOwnership",
      "outputs": [],
      "stateMutability": "nonpayable",
      "type": "function"
    },
    {
      "inputs": [
        {
          "internalType": "uint256",
          "name": "choice",
          "type": "uint256"
        },
        {
          "internalType": "bytes32",
          "name": "salt",
          "type": "bytes32"
        }
      ],
      "name": "revealChoice",
      "outputs": [],
      "stateMutability": "nonpayable",
      "type": "function"
    },
    {
      "inputs": [
        {
          "internalType": "address",
          "name": "_newGameMaster",
          "type": "address"
        }
      ],
      "name": "setGameMaster",
      "outputs": [],
      "stateMutability": "nonpayable",
      "type": "function"
    },
    {
      "inputs": [],
      "name": "startGames",
      "outputs": [
        {
          "internalType": "bool",
          "name": "",
          "type": "bool"
        }
      ],
      "stateMutability": "nonpayable",
      "type": "function"
    },
    {
      "inputs": [
        {
          "internalType": "address",
          "name": "newOwner",
          "type": "address"
        }
      ],
      "name": "transferOwnership",
      "outputs": [],
      "stateMutability": "nonpayable",
      "type": "function"
    }
  ],
  "bytecode": "0x60808060405234608757331560715760008054336001600160a01b0319821681178355916001600160a01b03909116907f8be0079c531659141344cd1fd0a4f28419497f9722a3daafe3b4186f6b6457e09080a3600180546001600160a01b0319163317905561257d908161008d8239f35b631e4fbdf760e01b600052600060045260246000fd5b600080fdfe6080604052600436101561001257600080fd5b60003560e01c806312b19a1314611655578063148b02c5146116085780631bb412d6146115ea57806325b05c88146111c65780633532804d146115185780633c4f5a661461143b57806347e1d5501461137b578063572e85ec1461132e578063574a5b20146112ef5780636cbc2ded14611259578063715018a614611200578063773b549d146111c65780637fbbe46f14610d9157806384cd7d3314610d225780638b5b9ccc14610c2d5780638c10bb9614610c0e5780638da5cb5b14610be55780639a198d6114610aef578063bbda33d914610a72578063bdf84ae714610a49578063c04c5947146108e4578063c2e9492714610829578063d0f3a21e14610762578063d216b62b146106f3578063e05b10c014610523578063e81de9f514610400578063ea17532e1461023d578063f2fde38b146101b45763ffde0c741461015b57600080fd5b346101af5760203660031901126101af57600435801515806101a3575b6101819061174f565b6000526003602052602060ff604060002054166101a16040518092611711565bf35b50600254811115610178565b600080fd5b346101af5760203660031901126101af576101cd6116a2565b6101d561211a565b6001600160a01b0316801561022757600080546001600160a01b03198116831782556001600160a01b0316907f8be0079c531659141344cd1fd0a4f28419497f9722a3daafe3b4186f6b6457e09080a3005b631e4fbdf760e01b600052600060045260246000fd5b346101af5760203660031901126101af57600435801515806103f4575b6102639061174f565b60005260036020526040600020600681019081549061028182611803565b9261028f60405194856117e1565b828452601f1961029e84611803565b0160005b8181106103dd57505060006008830192600d810192600a600e83019201925b868110610345578760405180916020820160208352815180915260206040840192019060005b8181106102f5575050500390f35b91935091602060a0600192608087518580851b03815116835284810151858401526040810151151560408401526060810151151560608401520151151560808201520194019101918493926102e7565b806103526001928461194d565b905460039190911b1c60a083901b83900316600081815260208981526040808320548a83528184205489845282852054938b9052938290205491519460ff9283169493831693909216916103a5866117a9565b855260208501521515604084015215156060830152151560808201526103cb828b611890565b526103d6818a611890565b50016102c1565b6020906103e86118ba565b828289010152016102a2565b5060025481111561025a565b346101af5760003660031901126101af5761042660018060a01b036001541633146118f1565b6001805b60025481116105165780600052600360205260406000209060ff825416600581101561050057600114806104f3575b156104e557600260ff198354161782556001808301556001600283015560784201918242116104cf577ffd9d17e5565deea3d25918d95fc398673b9445ef0a96d12eaf3ab2b198756c656060846104ca956003869501556040519060018252600160208301526040820152a261178d565b61042a565b634e487b7160e01b600052601160045260246000fd5b9150506104ca60009161178d565b5060098201541515610459565b634e487b7160e01b600052602160045260246000fd5b6020826040519015158152f35b346101af5760203660031901126101af5733600052600560205261054e60ff604060002054166119b3565b336000526004602052604060002054806000526003602052604060002060ff815416600581101561050057600261058591146119f8565b60028101906105976001835414611d67565b6003810191825442116106b857336000908152600d8301602081905260409091205460ff1661067f57336000908152600b840160209081526040808320600435905592905220805460ff19166001179055600f820180549091906105fa9061178d565b8092556040519133867f2e6ed0cae7a81e1893017dfafd5fbaf8594adcc50ff27b5f8eb70e0e90acf315600080a360098401541461063457005b60029055607842018042116104cf576001606093827ffd9d17e5565deea3d25918d95fc398673b9445ef0a96d12eaf3ab2b198756c65965501548252600260208301526040820152a2005b60405162461bcd60e51b8152602060048201526011602482015270105b1c9958591e4818dbdb5b5a5d1d1959607a1b6044820152606490fd5b60405162461bcd60e51b815260206004820152601360248201527210dbdb5b5a5d081c195c9a5bd908195b991959606a1b6044820152606490fd5b346101af5760403660031901126101af5760043561070f6116b8565b9080151580610756575b6107229061174f565b6000526003602052600e6040600020019060018060a01b0316600052602052602060ff604060002054166040519015158152f35b50600254811115610719565b346101af5760003660031901126101af5761078860018060a01b036001541633146118f1565b60015b60025481116108275780600052600360205260406000209060ff8254169160058310156105005760026107c493146107c9575b5061178d565b61078b565b6002810154600181148061081a575b156107ee5750506107e881612143565b826107be565b600214908161080c575b50156107e85761080781611dba565b6107e8565b6003915001544211836107f8565b50600382015442116107d8565b005b346101af5760203660031901126101af576108426116a2565b61084a61211a565b6001600160a01b0316801561089f576020817f63860f6674590a6969c4fe1dc738a9c8f955407c09e6c67a6bdb818f4c35cd8a926bffffffffffffffffffffffff60a01b6001541617600155604051908152a1005b60405162461bcd60e51b815260206004820152601a60248201527f496e76616c69642047616d654d617374657220616464726573730000000000006044820152606490fd5b346101af5760003660031901126101af5760025461090181611803565b9061090f60405192836117e1565b808252601f1961091e82611803565b0160005b818110610a1657505060015b818111156109a5578260405180916020820160208352815180915260206040840192019060005b818110610963575050500390f35b919350916020608060019260608751805183526109868582015186850190611711565b6040810151604084015201516060820152019401910191849392610955565b80600052600360205260406000209060ff8254169160096001820154910154906109e1604051946109d5866117c5565b848652602086016118e5565b604084015260608301526000198101918183116104cf57826107be91610a0a610a119588611890565b5285611890565b61092e565b602090604051610a25816117c5565b60008152600083820152600060408201526000606082015282828701015201610922565b346101af5760003660031901126101af576001546040516001600160a01b039091168152602090f35b346101af5760003660031901126101af576040805190610a9281836117e1565b600682526554687265657360d01b6020830152805180926020825280519081602084015260005b828110610ad85750506000828201840152601f01601f19168101030190f35b602082820181015187830187015286945001610ab9565b346101af5760003660031901126101af5760008060405160208101906307983f4560e21b82526097602482015260248152610b2b6044826117e1565b51908273dc2b0d2dd2b7759d97d50db4eabdc369731108305af13d15610be0573d67ffffffffffffffff8111610bca5760405190610b73601f8201601f1916602001836117e1565b8152600060203d92013e5b15610b8557005b60405162461bcd60e51b815260206004820152601860248201527f4665654d20726567697374726174696f6e206661696c656400000000000000006044820152606490fd5b634e487b7160e01b600052604160045260246000fd5b610b7e565b346101af5760003660031901126101af576000546040516001600160a01b039091168152602090f35b346101af5760403660031901126101af57610827602435600435611a36565b346101af5760003660031901126101af57600254600160005b82821115610cf757610c58915061181b565b6000916001905b80821115610c795760405180610c7585826116ce565b0390f35b610ca090826000949394526003602052610ca760066040600020016040519384809261184d565b03836117e1565b60005b8251811015610ce4576001906001600160a01b03610cc88286611890565b5116610cdd610cd68961178d565b9887611890565b5201610caa565b509192610cf1915061178d565b90610c5f565b610d16610d1c918360005260036020526006604060002001549061179c565b9161178d565b90610c46565b346101af5760403660031901126101af57600435610d3e6116b8565b9080151580610d85575b610d519061174f565b6000526003602052600d6040600020019060018060a01b0316600052602052602060ff604060002054166040519015158152f35b50600254811115610d48565b346101af5760403660031901126101af5760043567ffffffffffffffff81116101af57610dc290369060040161171e565b9060243567ffffffffffffffff81116101af57610de390369060040161171e565b9092610dfa60018060a01b036001541633146118f1565b801561118b5781810361114657600381066110f5576003810492600583901b92906001600160fb1b03821190600090815b878110610e3457005b610e3f60025461178d565b90816002558160005260036020526040600020600160ff198254161781554260048201556000928b6006830194600984016008850192600a600787019601925b8d8b60038310610f4e575050505050505050506003825403610efb57610eb06040519260408452604084019061184d565b8281036020840152858782526101af578260206001948b848f8290857fb66ba8feaec509998ef3217bc97fbf1a0f906b89fac25a4ace8ddff059a41f1298013701030190a101610e2b565b60405162461bcd60e51b815260206004820152602560248201527f456163682067616d65206d75737420686176652065786163746c79203320706c604482015264617965727360d81b6064820152608490fd5b610f58918c61193d565b356001600160a01b0381169b908c81036101af578c156110b7578c8f8160005260056020528c60ff60406000205416611021575b610fd592610fae86869460019a610fa9610ff19a99604097611965565b61193d565b358260008381528d602052205560009081528c602052208660ff1982541617905586611965565b60408d600090815287602052208460ff1982541617905561178d565b9a80600052600460205286604060002055600052600560205260406000208260ff19825416179055018f90610e7f565b505060009291925260046020526040600020548015908115611092575b501561104d57908c8f8c610f8c565b60405162461bcd60e51b815260206004820152601d60248201527f506c6179657220616c726561647920696e206163746976652067616d650000006044820152606490fd5b9050600052600360205260ff604060002054166005811015610500576004143861103e565b60405162461bcd60e51b8152602060048201526016602482015275496e76616c696420706c61796572206164647265737360501b6044820152606490fd5b60405162461bcd60e51b815260206004820152602360248201527f506c6179657220636f756e74206d75737420626520646976697369626c65206260448201526279203360e81b6064820152608490fd5b60405162461bcd60e51b815260206004820152601860248201527f4172726179206c656e67746873206d757374206d6174636800000000000000006044820152606490fd5b60405162461bcd60e51b8152602060048201526013602482015272139bc81c1b185e595c9cc81c1c9bdd9a591959606a1b6044820152606490fd5b346101af5760203660031901126101af576001600160a01b036111e76116a2565b1660005260046020526020604060002054604051908152f35b346101af5760003660031901126101af5761121961211a565b600080546001600160a01b0319811682556001600160a01b03167f8be0079c531659141344cd1fd0a4f28419497f9722a3daafe3b4186f6b6457e08280a3005b346101af5760003660031901126101af5761127f60018060a01b036001541633146118f1565b604051602061128e81836117e1565b60008252600036813760015b60025481116112e157806000526003825260ff604060002054169060058210156105005760026112ce92146112d35761178d565b61129a565b6112dc81611dba565b61178d565b60405180610c7585826116ce565b346101af5760203660031901126101af576001600160a01b036113106116a2565b166000526005602052602060ff604060002054166040519015158152f35b346101af5760203660031901126101af576004358015158061136f575b6113549061174f565b60005260036020526020600260406000200154604051908152f35b5060025481111561134b565b346101af5760203660031901126101af576004356113976118ba565b508015158061142f575b6113aa9061174f565b600052600360205260a0604060002060ff81541690600181015490600381015460056004830154920154926113eb604051956113e5876117a9565b866118e5565b60208501908152604085019182526060850192835260808501938452611415604051809651611711565b516020850152516040840152516060830152516080820152f35b506002548111156113a1565b346101af5760003660031901126101af57600254600160005b828211156114f357611466915061181b565b6000916001905b808211156114835760405180610c7585826116ce565b610ca0908260009493945260036020526114aa60096040600020016040519384809261184d565b60005b82518110156114e0576001906001600160a01b036114cb8286611890565b51166114d9610cd68961178d565b52016114ad565b5091926114ed915061178d565b9061146d565b610d16611512918360005260036020526009604060002001549061179c565b90611454565b346101af5760403660031901126101af576004356115346116b8565b90801515806115de575b6115479061174f565b806000526003602052600760406000200160018060a01b03831660005260205260ff60406000205416156115a457600052600360205260086040600020019060018060a01b03166000526020526020604060002054604051908152f35b60405162461bcd60e51b8152602060048201526012602482015271506c61796572206e6f7420696e2067616d6560701b6044820152606490fd5b5060025481111561153e565b346101af5760003660031901126101af576020600254604051908152f35b346101af5760203660031901126101af5760043580151580611649575b61162e9061174f565b60005260036020526020600160406000200154604051908152f35b50600254811115611625565b346101af5760203660031901126101af5760043580151580611696575b61167b9061174f565b60005260036020526020600360406000200154604051908152f35b50600254811115611672565b600435906001600160a01b03821682036101af57565b602435906001600160a01b03821682036101af57565b602060408183019282815284518094520192019060005b8181106116f25750505090565b82516001600160a01b03168452602093840193909201916001016116e5565b9060058210156105005752565b9181601f840112156101af5782359167ffffffffffffffff83116101af576020808501948460051b0101116101af57565b1561175657565b60405162461bcd60e51b815260206004820152600f60248201526e125b9d985b1a590819d85b59481251608a1b6044820152606490fd5b60001981146104cf5760010190565b919082018092116104cf57565b60a0810190811067ffffffffffffffff821117610bca57604052565b6080810190811067ffffffffffffffff821117610bca57604052565b90601f8019910116810190811067ffffffffffffffff821117610bca57604052565b67ffffffffffffffff8111610bca5760051b60200190565b9061182582611803565b61183260405191826117e1565b8281528092611843601f1991611803565b0190602036910137565b906020825491828152019160005260206000209060005b8181106118715750505090565b82546001600160a01b0316845260209093019260019283019201611864565b80518210156118a45760209160051b010190565b634e487b7160e01b600052603260045260246000fd5b604051906118c7826117a9565b60006080838281528260208201528260408201528260608201520152565b60058210156105005752565b156118f857565b60405162461bcd60e51b815260206004820152601860248201527f4f6e6c792047616d654d61737465722063616e2063616c6c00000000000000006044820152606490fd5b91908110156118a45760051b0190565b80548210156118a45760005260206000200190600090565b9081549168010000000000000000831015610bca578261198d9160016119b19501815561194d565b81546001600160a01b0393841660039290921b91821b9390911b1916919091179055565b565b156119ba57565b60405162461bcd60e51b8152602060048201526016602482015275506c61796572206e6f7420696e20616e792067616d6560501b6044820152606490fd5b156119ff57565b60405162461bcd60e51b815260206004820152600f60248201526e47616d65206e6f742061637469766560881b6044820152606490fd5b90336000526005602052611a5160ff604060002054166119b3565b33600052600460205260406000205491826000526003602052604060002060ff8154166005811015610500576002611a8991146119f8565b336000908152600d8201602052604090205460ff1615611d2e57600e81019060018060a01b0333166000528160205260ff60406000205416611cf657600183101580611ceb575b15611cb55760028101600181541480611ca8575b611c82575b5460011901611c4757600381019384544211611c0c57604051602081019185835260408201523360601b606082015260548152611b276074826117e1565b519020336000908152600b8301602052604090205403611bd657336000908152600c82016020908152604080832086905593905291909120805460ff19166001179055601081018054909260099291611b7f9061178d565b809455604051908152857f0319fcec55b5300a4dcc6f96b2df475a149433dc721ba7d96c8fb14495b748ac60203393a3015414908115611bcb575b50611bc25750565b6119b190611dba565b905054421138611bba565b60405162461bcd60e51b815260206004820152600e60248201526d125b9d985b1a59081c995d99585b60921b6044820152606490fd5b60405162461bcd60e51b815260206004820152601360248201527214995d99585b081c195c9a5bd908195b991959606a1b6044820152606490fd5b60405162461bcd60e51b81526020600482015260136024820152724e6f7420696e2072657665616c20706861736560681b6044820152606490fd5b611c8b86612143565b60ff825416600581101561050057600403611ae957505050505050565b5060038201544211611ae4565b60405162461bcd60e51b815260206004820152600e60248201526d496e76616c69642063686f69636560901b6044820152606490fd5b506003831115611ad0565b60405162461bcd60e51b815260206004820152601060248201526f105b1c9958591e481c995d99585b195960821b6044820152606490fd5b60405162461bcd60e51b8152602060048201526011602482015270135d5cdd0818dbdb5b5a5d08199a5c9cdd607a1b6044820152606490fd5b15611d6e57565b60405162461bcd60e51b81526020600482015260136024820152724e6f7420696e20636f6d6d697420706861736560681b6044820152606490fd5b9060048110156118a45760051b0190565b806000526003602052604060002060098101908154611dd88161181b565b90600090600e8401825b8281106120ad5750505060005b81811061208f57505082549060038214611e56575b50507fa7690f576eaef889ef9ef29d1eaee6c0e3b073108b66bb8009ec8af6428bb34591611e5191600460ff1982541617815560054291015560405191829160208352602083019061184d565b0390a2565b604051916080611e6681856117e1565b60038452601f198101366020860137600c85019360005b60038110612051575060405191611e9481846117e1565b36833760005b6003811061201f5750506000936020820160028151148015612011575b8015612003575b15611f7f575060005b838110611f0957505050505b60005b828110611ee35750611e04565b600190611f036001600160a01b03611efb8386611890565b511688612336565b01611ed6565b806002611f416040611f1d6001958d61194d565b905460039190911b1c60a086901b8690031660009081526020879052205486611da9565b5114611f4e575b01611ec7565b611f58818a61194d565b838060a01b0391549060031b1c16611f79611f728961178d565b9888611890565b52611f48565b600391505114159081611ff3575b81611fe3575b50611f9f575b50611ed3565b825b818110611fae5750611f99565b80611fbb6001928861194d565b838060a01b0391549060031b1c16611fdc611fd58761178d565b9686611890565b5201611fa1565b6003915060600151141538611f93565b6040810151600314159150611f8d565b506002606084015114611ebe565b506002604084015114611eb7565b8061202c60019284611890565b5161204a61204361203d8388611da9565b5161178d565b9186611da9565b5201611e9a565b8060406120606001938b61194d565b905460039190911b1c60a084901b849003166000908152602089905220546120888285611890565b5201611e7d565b6001906120a76001600160a01b03611efb8387611890565b01611def565b8060ff60406120be6001948b61194d565b905460039190911b1c60a085901b8590031660009081526020869052205416156120e9575b01611de2565b6120f3818961194d565b838060a01b0391549060031b1c1661211461210d8761178d565b9688611890565b526120e3565b6000546001600160a01b0316330361212e57565b63118cdaa760e01b6000523360045260246000fd5b806000526003602052604060002060028101906121636001835414611d67565b60038101805442118015612325575b156122e057600f820154906009830193845480931461228c5750506121968161181b565b600091600d8401835b82811061221f5750505060005b828110612201575050507fa7690f576eaef889ef9ef29d1eaee6c0e3b073108b66bb8009ec8af6428bb34591611e5191600460ff1982541617815560054291015560405191829160208352602083019061184d565b6001906122196001600160a01b03611efb8386611890565b016121ac565b8060ff60406122306001948b61194d565b905460039190911b1c60a085901b85900316600090815260208690522054161561225b575b0161219f565b612265818961194d565b838060a01b0391549060031b1c1661228661227f8861178d565b9787611890565b52612255565b9093506002915055607842018042116104cf576001606092827ffd9d17e5565deea3d25918d95fc398673b9445ef0a96d12eaf3ab2b198756c659555015490604051918252600260208301526040820152a2565b60405162461bcd60e51b815260206004820152601b60248201527f43616e6e6f7420656e6420636f6d6d69742070686173652079657400000000006044820152606490fd5b50600f820154600983015414612172565b9060009180835260036020526040832091600a830160018060a01b03821685528060205260ff6040862054161561250e5760018060a01b03821685526020526040842060ff19815416905560018060a01b03169182845260056020526040842060ff19815416905582845260046020528360408120558360098201945b85548082101561250257856123c8838961194d565b905460039190911b1c6001600160a01b0316146123e857506001016123b3565b60009692939495961981019081116124ee579061198d61240b612424938561194d565b905460039190911b1c6001600160a01b0316918461194d565b805480156124da57600019019061243b828261194d565b81549060018060a01b039060031b1b19169055555b6001546001600160a01b0316803b156124d65790808060089493602460405180948193633ef6cf1d60e21b83528b60048401525af16124c6575b505083600052016020527f51479c93d7646904d2282e9e79cddf11999ac774b7fd0289e2f59cb4ad0f086a6020604060002054604051908152a3565b816124d0916117e1565b3861248a565b5080fd5b634e487b7160e01b83526031600452602483fd5b634e487b7160e01b84526011600452602484fd5b50509091929350612450565b60405162461bcd60e51b8152602060048201526011602482015270506c61796572206e6f742061637469766560781b6044820152606490fdfea2646970667358221220bd38b306b806d40f2e79ed818ef0f1e324bca659089f079eaabd4015820f3aa364736f6c634300081c0033",
  "linkReferences": {},
  "deployedLinkReferences": {}
}