{
  "_format": "hh-sol-artifact-1",
  "contractName": "Descend",
  "sourceName": "contracts/games/Descend.sol",
  "abi": [
    {
      "inputs": [],
      "stateMutability": "nonpayable",
      "type": "constructor"
    },
    {
      "inputs": [
        {
          "internalType": "address",
          "name": "owner",
          "type": "address"
        }
      ],
      "name": "OwnableInvalidOwner",
      "type": "error"
    },
    {
      "inputs": [
        {
          "internalType": "address",
          "name": "account",
          "type": "address"
        }
      ],
      "name": "OwnableUnauthorizedAccount",
      "type": "error"
    },
    {
      "anonymous": false,
      "inputs": [
        {
          "indexed": true,
          "internalType": "uint256",
          "name": "gameId",
          "type": "uint256"
        },
        {
          "indexed": false,
          "internalType": "address[]",
          "name": "winners",
          "type": "address[]"
        }
      ],
      "name": "GameCompleted",
      "type": "event"
    },
    {
      "anonymous": false,
      "inputs": [
        {
          "indexed": false,
          "internalType": "address[]",
          "name": "players",
          "type": "address[]"
        },
        {
          "indexed": false,
          "internalType": "uint256[]",
          "name": "playerNumbers",
          "type": "uint256[]"
        }
      ],
      "name": "GameInitialized",
      "type": "event"
    },
    {
      "anonymous": false,
      "inputs": [
        {
          "indexed": false,
          "internalType": "address",
          "name": "newGameMaster",
          "type": "address"
        }
      ],
      "name": "GameMasterChanged",
      "type": "event"
    },
    {
      "anonymous": false,
      "inputs": [
        {
          "indexed": true,
          "internalType": "uint256",
          "name": "gameId",
          "type": "uint256"
        },
        {
          "indexed": false,
          "internalType": "uint256",
          "name": "level",
          "type": "uint256"
        },
        {
          "indexed": false,
          "internalType": "uint256",
          "name": "playerCount",
          "type": "uint256"
        }
      ],
      "name": "LevelElimination",
      "type": "event"
    },
    {
      "anonymous": false,
      "inputs": [
        {
          "indexed": true,
          "internalType": "address",
          "name": "previousOwner",
          "type": "address"
        },
        {
          "indexed": true,
          "internalType": "address",
          "name": "newOwner",
          "type": "address"
        }
      ],
      "name": "OwnershipTransferred",
      "type": "event"
    },
    {
      "anonymous": false,
      "inputs": [
        {
          "indexed": true,
          "internalType": "uint256",
          "name": "gameId",
          "type": "uint256"
        },
        {
          "indexed": true,
          "internalType": "address",
          "name": "player",
          "type": "address"
        }
      ],
      "name": "PlayerCommitted",
      "type": "event"
    },
    {
      "anonymous": false,
      "inputs": [
        {
          "indexed": true,
          "internalType": "uint256",
          "name": "gameId",
          "type": "uint256"
        },
        {
          "indexed": true,
          "internalType": "address",
          "name": "player",
          "type": "address"
        },
        {
          "indexed": false,
          "internalType": "uint256",
          "name": "playerNumber",
          "type": "uint256"
        }
      ],
      "name": "PlayerEliminated",
      "type": "event"
    },
    {
      "anonymous": false,
      "inputs": [
        {
          "indexed": true,
          "internalType": "uint256",
          "name": "gameId",
          "type": "uint256"
        },
        {
          "indexed": true,
          "internalType": "address",
          "name": "player",
          "type": "address"
        },
        {
          "indexed": false,
          "internalType": "uint256",
          "name": "fromLevel",
          "type": "uint256"
        },
        {
          "indexed": false,
          "internalType": "uint256",
          "name": "toLevel",
          "type": "uint256"
        }
      ],
      "name": "PlayerMoved",
      "type": "event"
    },
    {
      "anonymous": false,
      "inputs": [
        {
          "indexed": true,
          "internalType": "uint256",
          "name": "gameId",
          "type": "uint256"
        },
        {
          "indexed": true,
          "internalType": "address",
          "name": "player",
          "type": "address"
        },
        {
          "indexed": false,
          "internalType": "uint256",
          "name": "move",
          "type": "uint256"
        }
      ],
      "name": "PlayerRevealed",
      "type": "event"
    },
    {
      "anonymous": false,
      "inputs": [
        {
          "indexed": true,
          "internalType": "uint256",
          "name": "gameId",
          "type": "uint256"
        },
        {
          "indexed": false,
          "internalType": "uint256",
          "name": "roundNumber",
          "type": "uint256"
        }
      ],
      "name": "RoundEnded",
      "type": "event"
    },
    {
      "anonymous": false,
      "inputs": [
        {
          "indexed": true,
          "internalType": "uint256",
          "name": "gameId",
          "type": "uint256"
        },
        {
          "indexed": false,
          "internalType": "uint256",
          "name": "roundNumber",
          "type": "uint256"
        },
        {
          "indexed": false,
          "internalType": "uint256",
          "name": "phase",
          "type": "uint256"
        },
        {
          "indexed": false,
          "internalType": "uint256",
          "name": "endTime",
          "type": "uint256"
        },
        {
          "indexed": false,
          "internalType": "uint256[]",
          "name": "levelPopulations",
          "type": "uint256[]"
        },
        {
          "indexed": false,
          "internalType": "uint256[]",
          "name": "levelCapacities",
          "type": "uint256[]"
        }
      ],
      "name": "RoundStarted",
      "type": "event"
    },
    {
      "inputs": [
        {
          "internalType": "bytes32",
          "name": "commitment",
          "type": "bytes32"
        }
      ],
      "name": "commitMove",
      "outputs": [],
      "stateMutability": "nonpayable",
      "type": "function"
    },
    {
      "inputs": [],
      "name": "endExpiredGames",
      "outputs": [],
      "stateMutability": "nonpayable",
      "type": "function"
    },
    {
      "inputs": [],
      "name": "endGame",
      "outputs": [
        {
          "internalType": "address[]",
          "name": "",
          "type": "address[]"
        }
      ],
      "stateMutability": "nonpayable",
      "type": "function"
    },
    {
      "inputs": [],
      "name": "gameIdCounter",
      "outputs": [
        {
          "internalType": "uint256",
          "name": "",
          "type": "uint256"
        }
      ],
      "stateMutability": "view",
      "type": "function"
    },
    {
      "inputs": [],
      "name": "gameMaster",
      "outputs": [
        {
          "internalType": "address",
          "name": "",
          "type": "address"
        }
      ],
      "stateMutability": "view",
      "type": "function"
    },
    {
      "inputs": [],
      "name": "getActivePlayers",
      "outputs": [
        {
          "internalType": "address[]",
          "name": "",
          "type": "address[]"
        }
      ],
      "stateMutability": "view",
      "type": "function"
    },
    {
      "inputs": [
        {
          "internalType": "uint256",
          "name": "gameId",
          "type": "uint256"
        }
      ],
      "name": "getCurrentPhase",
      "outputs": [
        {
          "internalType": "uint256",
          "name": "",
          "type": "uint256"
        }
      ],
      "stateMutability": "view",
      "type": "function"
    },
    {
      "inputs": [
        {
          "internalType": "uint256",
          "name": "gameId",
          "type": "uint256"
        }
      ],
      "name": "getGameInfo",
      "outputs": [
        {
          "components": [
            {
              "internalType": "enum GameState",
              "name": "state",
              "type": "uint8"
            },
            {
              "internalType": "uint256",
              "name": "currentRound",
              "type": "uint256"
            },
            {
              "internalType": "uint256",
              "name": "roundEndTime",
              "type": "uint256"
            },
            {
              "internalType": "uint256",
              "name": "gameStartTime",
              "type": "uint256"
            },
            {
              "internalType": "uint256",
              "name": "gameEndTime",
              "type": "uint256"
            }
          ],
          "internalType": "struct IGame.GameInfo",
          "name": "",
          "type": "tuple"
        }
      ],
      "stateMutability": "view",
      "type": "function"
    },
    {
      "inputs": [],
      "name": "getGameName",
      "outputs": [
        {
          "internalType": "string",
          "name": "",
          "type": "string"
        }
      ],
      "stateMutability": "pure",
      "type": "function"
    },
    {
      "inputs": [
        {
          "internalType": "uint256",
          "name": "gameId",
          "type": "uint256"
        }
      ],
      "name": "getGameState",
      "outputs": [
        {
          "internalType": "enum GameState",
          "name": "",
          "type": "uint8"
        }
      ],
      "stateMutability": "view",
      "type": "function"
    },
    {
      "inputs": [],
      "name": "getGames",
      "outputs": [
        {
          "components": [
            {
              "internalType": "uint256",
              "name": "gameId",
              "type": "uint256"
            },
            {
              "internalType": "enum GameState",
              "name": "state",
              "type": "uint8"
            },
            {
              "internalType": "uint256",
              "name": "currentRound",
              "type": "uint256"
            },
            {
              "internalType": "uint256",
              "name": "activePlayerCount",
              "type": "uint256"
            }
          ],
          "internalType": "struct GameInstanceInfo[]",
          "name": "gamesInfo",
          "type": "tuple[]"
        }
      ],
      "stateMutability": "view",
      "type": "function"
    },
    {
      "inputs": [
        {
          "internalType": "uint256",
          "name": "gameId",
          "type": "uint256"
        },
        {
          "internalType": "address",
          "name": "player",
          "type": "address"
        }
      ],
      "name": "getLastMove",
      "outputs": [
        {
          "internalType": "uint256",
          "name": "",
          "type": "uint256"
        }
      ],
      "stateMutability": "view",
      "type": "function"
    },
    {
      "inputs": [
        {
          "internalType": "uint256",
          "name": "gameId",
          "type": "uint256"
        }
      ],
      "name": "getLevelCapacities",
      "outputs": [
        {
          "internalType": "uint256[]",
          "name": "",
          "type": "uint256[]"
        }
      ],
      "stateMutability": "view",
      "type": "function"
    },
    {
      "inputs": [
        {
          "internalType": "uint256",
          "name": "gameId",
          "type": "uint256"
        },
        {
          "internalType": "uint256",
          "name": "level",
          "type": "uint256"
        }
      ],
      "name": "getLevelPopulation",
      "outputs": [
        {
          "internalType": "uint256",
          "name": "",
          "type": "uint256"
        }
      ],
      "stateMutability": "view",
      "type": "function"
    },
    {
      "inputs": [
        {
          "internalType": "uint256",
          "name": "gameId",
          "type": "uint256"
        }
      ],
      "name": "getLevelPopulations",
      "outputs": [
        {
          "internalType": "uint256[]",
          "name": "",
          "type": "uint256[]"
        }
      ],
      "stateMutability": "view",
      "type": "function"
    },
    {
      "inputs": [
        {
          "internalType": "address",
          "name": "player",
          "type": "address"
        }
      ],
      "name": "getPlayerGameId",
      "outputs": [
        {
          "internalType": "uint256",
          "name": "",
          "type": "uint256"
        }
      ],
      "stateMutability": "view",
      "type": "function"
    },
    {
      "inputs": [
        {
          "internalType": "uint256",
          "name": "gameId",
          "type": "uint256"
        }
      ],
      "name": "getPlayerInfo",
      "outputs": [
        {
          "components": [
            {
              "internalType": "address",
              "name": "playerAddress",
              "type": "address"
            },
            {
              "internalType": "uint256",
              "name": "playerNumber",
              "type": "uint256"
            },
            {
              "internalType": "uint256",
              "name": "level",
              "type": "uint256"
            },
            {
              "internalType": "uint256",
              "name": "lastMove",
              "type": "uint256"
            },
            {
              "internalType": "bool",
              "name": "hasCommitted",
              "type": "bool"
            },
            {
              "internalType": "bool",
              "name": "hasRevealed",
              "type": "bool"
            },
            {
              "internalType": "bool",
              "name": "isActive",
              "type": "bool"
            }
          ],
          "internalType": "struct Descend.DescendPlayerInfo[]",
          "name": "",
          "type": "tuple[]"
        }
      ],
      "stateMutability": "view",
      "type": "function"
    },
    {
      "inputs": [
        {
          "internalType": "uint256",
          "name": "gameId",
          "type": "uint256"
        },
        {
          "internalType": "address",
          "name": "player",
          "type": "address"
        }
      ],
      "name": "getPlayerLevel",
      "outputs": [
        {
          "internalType": "uint256",
          "name": "",
          "type": "uint256"
        }
      ],
      "stateMutability": "view",
      "type": "function"
    },
    {
      "inputs": [
        {
          "internalType": "uint256",
          "name": "gameId",
          "type": "uint256"
        },
        {
          "internalType": "address",
          "name": "player",
          "type": "address"
        }
      ],
      "name": "getPlayerNumber",
      "outputs": [
        {
          "internalType": "uint256",
          "name": "",
          "type": "uint256"
        }
      ],
      "stateMutability": "view",
      "type": "function"
    },
    {
      "inputs": [],
      "name": "getPlayers",
      "outputs": [
        {
          "internalType": "address[]",
          "name": "",
          "type": "address[]"
        }
      ],
      "stateMutability": "view",
      "type": "function"
    },
    {
      "inputs": [
        {
          "internalType": "uint256",
          "name": "gameId",
          "type": "uint256"
        }
      ],
      "name": "getRoundEndTime",
      "outputs": [
        {
          "internalType": "uint256",
          "name": "",
          "type": "uint256"
        }
      ],
      "stateMutability": "view",
      "type": "function"
    },
    {
      "inputs": [
        {
          "internalType": "uint256",
          "name": "gameId",
          "type": "uint256"
        }
      ],
      "name": "getWinners",
      "outputs": [
        {
          "internalType": "address[]",
          "name": "",
          "type": "address[]"
        }
      ],
      "stateMutability": "view",
      "type": "function"
    },
    {
      "inputs": [
        {
          "internalType": "uint256",
          "name": "gameId",
          "type": "uint256"
        },
        {
          "internalType": "address",
          "name": "player",
          "type": "address"
        }
      ],
      "name": "hasPlayerCommitted",
      "outputs": [
        {
          "internalType": "bool",
          "name": "",
          "type": "bool"
        }
      ],
      "stateMutability": "view",
      "type": "function"
    },
    {
      "inputs": [
        {
          "internalType": "uint256",
          "name": "gameId",
          "type": "uint256"
        },
        {
          "internalType": "address",
          "name": "player",
          "type": "address"
        }
      ],
      "name": "hasPlayerRevealed",
      "outputs": [
        {
          "internalType": "bool",
          "name": "",
          "type": "bool"
        }
      ],
      "stateMutability": "view",
      "type": "function"
    },
    {
      "inputs": [
        {
          "internalType": "address[]",
          "name": "_players",
          "type": "address[]"
        },
        {
          "internalType": "uint256[]",
          "name": "_playerNumbers",
          "type": "uint256[]"
        }
      ],
      "name": "initialize",
      "outputs": [],
      "stateMutability": "nonpayable",
      "type": "function"
    },
    {
      "inputs": [
        {
          "internalType": "address",
          "name": "",
          "type": "address"
        }
      ],
      "name": "isPlayerInGame",
      "outputs": [
        {
          "internalType": "bool",
          "name": "",
          "type": "bool"
        }
      ],
      "stateMutability": "view",
      "type": "function"
    },
    {
      "inputs": [],
      "name": "owner",
      "outputs": [
        {
          "internalType": "address",
          "name": "",
          "type": "address"
        }
      ],
      "stateMutability": "view",
      "type": "function"
    },
    {
      "inputs": [
        {
          "internalType": "address",
          "name": "",
          "type": "address"
        }
      ],
      "name": "playerGameId",
      "outputs": [
        {
          "internalType": "uint256",
          "name": "",
          "type": "uint256"
        }
      ],
      "stateMutability": "view",
      "type": "function"
    },
    {
      "inputs": [],
      "name": "registerMe",
      "outputs": [],
      "stateMutability": "nonpayable",
      "type": "function"
    },
    {
      "inputs": [],
      "name": "renounceOwnership",
      "outputs": [],
      "stateMutability": "nonpayable",
      "type": "function"
    },
    {
      "inputs": [
        {
          "internalType": "uint256",
          "name": "move",
          "type": "uint256"
        },
        {
          "internalType": "bytes32",
          "name": "salt",
          "type": "bytes32"
        }
      ],
      "name": "revealMove",
      "outputs": [],
      "stateMutability": "nonpayable",
      "type": "function"
    },
    {
      "inputs": [
        {
          "internalType": "address",
          "name": "_newGameMaster",
          "type": "address"
        }
      ],
      "name": "setGameMaster",
      "outputs": [],
      "stateMutability": "nonpayable",
      "type": "function"
    },
    {
      "inputs": [],
      "name": "startGames",
      "outputs": [
        {
          "internalType": "bool",
          "name": "",
          "type": "bool"
        }
      ],
      "stateMutability": "nonpayable",
      "type": "function"
    },
    {
      "inputs": [
        {
          "internalType": "address",
          "name": "newOwner",
          "type": "address"
        }
      ],
      "name": "transferOwnership",
      "outputs": [],
      "stateMutability": "nonpayable",
      "type": "function"
    }
  ],
  "bytecode": "0x60808060405234608757331560715760008054336001600160a01b0319821681178355916001600160a01b03909116907f8be0079c531659141344cd1fd0a4f28419497f9722a3daafe3b4186f6b6457e09080a3600180546001600160a01b03191633179055613499908161008d8239f35b631e4fbdf760e01b600052600060045260246000fd5b600080fdfe6080604052600436101561001257600080fd5b60003560e01c806312b19a13146119e45780631336e25c1461192157806318979f9e146118865780631bb412d61461186857806325b05c88146113805780633532804d146117cd57806336c86ede146117345780633c4f5a661461165757806347e1d55014611579578063572e85ec1461152c578063574a5b20146114ed5780636b1426a4146114a45780636cbc2ded14611413578063715018a6146113ba578063773b549d146113805780637d1ddd34146113615780637fbbe46f14610e4757806384cd7d3314610dd85780638b5b9ccc14610ce75780638da5cb5b14610cbe5780639a198d6114610bc8578063a9ea37b614610bac578063ab594a2114610b1a578063bbda33d914610a9c578063bdf84ae714610a73578063c04c59471461090e578063c2e9492714610853578063d0f3a21e146107a1578063d216b62b14610732578063d7bdf85f14610697578063e81de9f5146104f0578063ea17532e14610274578063f2fde38b146101eb5763ffde0c741461019257600080fd5b346101e65760203660031901126101e657600435801515806101da575b6101b890611b12565b6000526003602052602060ff604060002054166101d86040518092611ad4565bf35b506002548111156101af565b600080fd5b346101e65760203660031901126101e657610204611a7b565b61020c612bd4565b6001600160a01b0316801561025e57600080546001600160a01b03198116831782556001600160a01b0316907f8be0079c531659141344cd1fd0a4f28419497f9722a3daafe3b4186f6b6457e09080a3005b631e4fbdf760e01b600052600060045260246000fd5b346101e65760203660031901126101e657600435801515806104e4575b61029a90611b12565b60005260036020526040600020600881018054906102b782611bd3565b926102c56040519485611bb1565b828452601f196102d484611bd3565b0160005b818110610496575050600090600a810192600d820193600e8301906011840192600c601286019501955b88811061039b578960405180916020820160208352815180915260206040840192019060005b818110610336575050500390f35b91935091602060e060019260c08751858060a01b0381511683528481015185840152604081015160408401526060810151606084015260808101511515608084015260a0810151151560a08401520151151560c0820152019401910191849392610328565b806040898989898960ff86818181818f8f9060019f6103bd84939184926121ca565b60018060a01b0391549060031b1c169e8f9260009060018060a01b038516825260205220549d60009060018060a01b038416825260205220549860009160018060a01b031682526020522054976000908f808f9160a01b03168252602052205416966000908d8060a01b038c168252602052205416956000908b8060a01b038a168252602052205416946040519661045488611b95565b875260208701526040860152606085015215156080840152151560a0830152151560c0820152610484828d611c0e565b5261048f818c611c0e565b5001610302565b6020906040959395516104a881611b95565b60008152600083820152600060408201526000606082015260006080820152600060a0820152600060c0820152828289010152019391936102d8565b50600254811115610291565b346101e65760003660031901126101e65761051660018060a01b03600154163314611d66565b6001805b600254811161068a57806000526003602052604060002060ff81541660058110156106745760011480610667575b1561065957600260ff19825416178155600180820155607842019081421161064357816002820155610578611beb565b90610581611beb565b906013810160005b60158111156105e0575050928493926105d37f36c6d932cb9691bee381221cc5177bb28fd438ab828d9ed9ed7c3c546cb5d2b49360056105db989601549260405194859485612413565b0390a2611c63565b61051a565b8061061891600052826020526040600020546105fc8288611c0e565b528061061d5760088401546106118287611c0e565b525b611c63565b610589565b601581036106345760078401546106118287611c0e565b60068401546106118287611c0e565b634e487b7160e01b600052601160045260246000fd5b5090506105db600091611c63565b50600b8101541515610548565b634e487b7160e01b600052602160045260246000fd5b6020826040519015158152f35b346101e65760403660031901126101e6576004356106b3611a65565b9080151580610726575b6106c690611b12565b806000526003602052600960406000200160018060a01b0383166000526020526106f760ff60406000205416611c22565b6000526003602052600e6040600020019060018060a01b03166000526020526020604060002054604051908152f35b506002548111156106bd565b346101e65760403660031901126101e65760043561074e611a65565b9080151580610795575b61076190611b12565b600052600360205260126040600020019060018060a01b0316600052602052602060ff604060002054166040519015158152f35b50600254811115610758565b346101e65760003660031901126101e65760015b60025481116108515780600052600360205260406000209060ff8254169160058310156106745760026107ee93146107f3575b50611c63565b6107b5565b60018101546001811480610844575b1561081857505061081281612bfd565b826107e8565b6002149081610836575b50156108125761083181612f64565b610812565b600291500154421183610822565b5060028201544211610802565b005b346101e65760203660031901126101e65761086c611a7b565b610874612bd4565b6001600160a01b031680156108c9576020817f63860f6674590a6969c4fe1dc738a9c8f955407c09e6c67a6bdb818f4c35cd8a926bffffffffffffffffffffffff60a01b6001541617600155604051908152a1005b60405162461bcd60e51b815260206004820152601a60248201527f496e76616c69642047616d654d617374657220616464726573730000000000006044820152606490fd5b346101e65760003660031901126101e65760025461092b81611bd3565b906109396040519283611bb1565b808252601f1961094882611bd3565b0160005b818110610a4057505060015b818111156109cf578260405180916020820160208352815180915260206040840192019060005b81811061098d575050500390f35b919350916020608060019260608751805183526109b08582015186850190611ad4565b604081015160408401520151606082015201940191019184939261097f565b80600052600360205260406000209060ff82541691600b600582015491015490610a0b604051946109ff86611b79565b84865260208601611ce7565b6040840152606083015260001981019181831161064357826107e891610a34610a3b9588611c0e565b5285611c0e565b610958565b602090604051610a4f81611b79565b6000815260008382015260006040820152600060608201528282870101520161094c565b346101e65760003660031901126101e6576001546040516001600160a01b039091168152602090f35b346101e65760003660031901126101e6576040805190610abc8183611bb1565b600782526611195cd8d95b9960ca1b6020830152805180926020825280519081602084015260005b828110610b035750506000828201840152601f01601f19168101030190f35b602082820181015187830187015286945001610ae4565b346101e65760203660031901126101e65760043580151580610ba0575b610b4090611b12565b610b48611beb565b9060005b6015811115610b6f5760405160208082528190610b6b90820186611a31565b0390f35b610b9b908260005260036020526013604060002001816000526020526040600020546106118286611c0e565b610b4c565b50600254811115610b37565b346101e65760203660031901126101e657610851600435612270565b346101e65760003660031901126101e65760008060405160208101906307983f4560e21b82526097602482015260248152610c04604482611bb1565b51908273dc2b0d2dd2b7759d97d50db4eabdc369731108305af13d15610cb9573d67ffffffffffffffff8111610ca35760405190610c4c601f8201601f191660200183611bb1565b8152600060203d92013e5b15610c5e57005b60405162461bcd60e51b815260206004820152601860248201527f4665654d20726567697374726174696f6e206661696c656400000000000000006044820152606490fd5b634e487b7160e01b600052604160045260246000fd5b610c57565b346101e65760003660031901126101e6576000546040516001600160a01b039091168152602090f35b346101e65760003660031901126101e657600254600160005b82821115610dad57610d129150611c72565b6000916001905b80821115610d2f5760405180610b6b8582611a91565b610d5690826000949394526003602052610d5d600860406000200160405193848092611ca4565b0383611bb1565b60005b8251811015610d9a576001906001600160a01b03610d7e8286611c0e565b5116610d93610d8c89611c63565b9887611c0e565b5201610d60565b509192610da79150611c63565b90610d19565b610dcc610dd29183600052600360205260086040600020015490611b50565b91611c63565b90610d00565b346101e65760403660031901126101e657600435610df4611a65565b9080151580610e3b575b610e0790611b12565b600052600360205260116040600020019060018060a01b0316600052602052602060ff604060002054166040519015158152f35b50600254811115610dfe565b346101e65760403660031901126101e65760043567ffffffffffffffff81116101e657610e78903690600401611ae1565b60243567ffffffffffffffff81116101e657610e98903690600401611ae1565b610eb060018060a09594951b03600154163314611d66565b8115611326578082036112e1576002821061129c57603b82019283831161064357603a8301938411610643576000603b8504156112885750603b84048304936000958690875b603b84048110610f04578880f35b610f0f600254611c63565b9081600255818a52600360205260408a2091600160ff19845416178355600160058401554260038401558990603b87048a068310611261575b600a8204600685019080825515611257575b508160011c60078501908082551561124d575b50908b915b818310610ffa57505050610f8582613098565b610f9d60405192604084526008604085019101611ca4565b82810360208401528781526001600160fb1b038811610ff6578260206001947fb66ba8feaec509998ef3217bc97fbf1a0f906b89fac25a4ace8ddff059a41f12938b60051b8b848301378b60051b01030190a101610ef6565b8a80fd5b909195611008818c886121ba565b356001600160a01b0381168103611249576001600160a01b0381161561120b578d9060018060a01b038116825260056020528b8b8860ff604086205416611157575b9261106c8660409461114e979461106785600860019c9a016121e2565b6121ba565b35868060a01b0382168352600a8b0160205283832055858060a01b038116825260098a016020528282208660ff198254161790556110ad81600b8c016121e2565b60a086901b8690038116808352600c8b016020908152848420805460ff191689179055818452600d8c018152848420849055908352600e8b0181528383206006905582805260138b019052828220805461110690611c63565b905581805260148a0160205261111e818484206121e2565b60a086901b86900316808252600460209081528383208890559082526005905220805460ff191684179055611c63565b96019190610f72565b5050506001600160a01b038116909152600460205260408e20548015908f9082156111d3575b50501561118e578d908b8b8861104a565b60405162461bcd60e51b815260206004820152601d60248201527f506c6179657220616c726561647920696e206163746976652067616d650000006044820152606490fd5b81526003602052604090205460ff16905060058110156111f7576004148e3861117d565b634e487b7160e01b8f52602160045260248ffd5b60405162461bcd60e51b8152602060048201526016602482015275496e76616c696420706c61796572206164647265737360501b6044820152606490fd5b8d80fd5b600190558c610f6d565b600190558c610f5a565b905060018a01808b116112745790610f48565b634e487b7160e01b8c52601160045260248cfd5b634e487b7160e01b81526012600452602490fd5b60405162461bcd60e51b815260206004820152601760248201527f4e656564206174206c65617374203220706c61796572730000000000000000006044820152606490fd5b60405162461bcd60e51b815260206004820152601860248201527f4172726179206c656e67746873206d757374206d6174636800000000000000006044820152606490fd5b60405162461bcd60e51b8152602060048201526013602482015272139bc81c1b185e595c9cc81c1c9bdd9a591959606a1b6044820152606490fd5b346101e65760403660031901126101e657610851602435600435611e35565b346101e65760203660031901126101e6576001600160a01b036113a1611a7b565b1660005260046020526020604060002054604051908152f35b346101e65760003660031901126101e6576113d3612bd4565b600080546001600160a01b0319811682556001600160a01b03167f8be0079c531659141344cd1fd0a4f28419497f9722a3daafe3b4186f6b6457e08280a3005b346101e65760003660031901126101e65761143960018060a01b03600154163314611d66565b60405160206114488183611bb1565b60008252600036813760015b600254811161149657806000526003825260ff60406000205416906005821015610674576002611488921461148d57611c63565b611454565b61061381612494565b60405180610b6b8582611a91565b346101e65760203660031901126101e657610b6b6114d5600435801515806114e1575b6114d090611b12565b611cf3565b60405191829182611a91565b506002548111156114c7565b346101e65760203660031901126101e6576001600160a01b0361150e611a7b565b166000526005602052602060ff604060002054166040519015158152f35b346101e65760203660031901126101e6576004358015158061156d575b61155290611b12565b60005260036020526020600160406000200154604051908152f35b50600254811115611549565b346101e65760203660031901126101e6576004356000608060405161159d81611b5d565b82815282602082015282604082015282606082015201528015158061164b575b6115c690611b12565b600052600360205260a0604060002060ff81541690600581015490600281015460046003830154920154926116076040519561160187611b5d565b86611ce7565b60208501908152604085019182526060850192835260808501938452611631604051809651611ad4565b516020850152516040840152516060830152516080820152f35b506002548111156115bd565b346101e65760003660031901126101e657600254600160005b8282111561170f576116829150611c72565b6000916001905b8082111561169f5760405180610b6b8582611a91565b610d56908260009493945260036020526116c6600b60406000200160405193848092611ca4565b60005b82518110156116fc576001906001600160a01b036116e78286611c0e565b51166116f5610d8c89611c63565b52016116c9565b5091926117099150611c63565b90611689565b610dcc61172e91836000526003602052600b6040600020015490611b50565b90611670565b346101e65760403660031901126101e657602435600435801515806117c1575b61175d90611b12565b6015821161178c5760005260036020526013604060002001906000526020526020604060002054604051908152f35b60405162461bcd60e51b815260206004820152600d60248201526c125b9d985b1a59081b195d995b609a1b6044820152606490fd5b50600254811115611754565b346101e65760403660031901126101e6576004356117e9611a65565b908015158061185c575b6117fc90611b12565b806000526003602052600960406000200160018060a01b03831660005260205261182d60ff60406000205416611c22565b6000526003602052600a6040600020019060018060a01b03166000526020526020604060002054604051908152f35b506002548111156117f3565b346101e65760003660031901126101e6576020600254604051908152f35b346101e65760403660031901126101e6576004356118a2611a65565b9080151580611915575b6118b590611b12565b806000526003602052600960406000200160018060a01b0383166000526020526118e660ff60406000205416611c22565b6000526003602052600d6040600020019060018060a01b03166000526020526020604060002054604051908152f35b506002548111156118ac565b346101e65760203660031901126101e657600435801515806119d8575b61194790611b12565b6000526003602052604060002061195c611beb565b9060088101548251156119ad576020830152600681015460015b601581106119c357836007840154908051601510156119ad57610b6b916102c0820152604051918291602083526020830190611a31565b634e487b7160e01b600052603260045260246000fd5b80826119d160019387611c0e565b5201611976565b5060025481111561193e565b346101e65760203660031901126101e65760043580151580611a25575b611a0a90611b12565b60005260036020526020600260406000200154604051908152f35b50600254811115611a01565b906020808351928381520192019060005b818110611a4f5750505090565b8251845260209384019390920191600101611a42565b602435906001600160a01b03821682036101e657565b600435906001600160a01b03821682036101e657565b602060408183019282815284518094520192019060005b818110611ab55750505090565b82516001600160a01b0316845260209384019390920191600101611aa8565b9060058210156106745752565b9181601f840112156101e65782359167ffffffffffffffff83116101e6576020808501948460051b0101116101e657565b15611b1957565b60405162461bcd60e51b815260206004820152600f60248201526e125b9d985b1a590819d85b59481251608a1b6044820152606490fd5b9190820180921161064357565b60a0810190811067ffffffffffffffff821117610ca357604052565b6080810190811067ffffffffffffffff821117610ca357604052565b60e0810190811067ffffffffffffffff821117610ca357604052565b90601f8019910116810190811067ffffffffffffffff821117610ca357604052565b67ffffffffffffffff8111610ca35760051b60200190565b6040516102e09190611bfd8382611bb1565b6016815291601f1901366020840137565b80518210156119ad5760209160051b010190565b15611c2957565b60405162461bcd60e51b8152602060048201526012602482015271506c61796572206e6f7420696e2067616d6560701b6044820152606490fd5b60001981146106435760010190565b90611c7c82611bd3565b611c896040519182611bb1565b8281528092611c9a601f1991611bd3565b0190602036910137565b906020825491828152019160005260206000209060005b818110611cc85750505090565b82546001600160a01b0316845260209093019260019283019201611cbb565b60058210156106745752565b6000526003602052604060002060ff815416600581101561067457600414611d305750604051611d24602082611bb1565b60008152600036813790565b601881018054611d5292611d59929115611d5c57505b60405192838092611ca4565b0382611bb1565b90565b600b915001611d46565b15611d6d57565b60405162461bcd60e51b815260206004820152601860248201527f4f6e6c792047616d654d61737465722063616e2063616c6c00000000000000006044820152606490fd5b15611db957565b60405162461bcd60e51b8152602060048201526016602482015275506c61796572206e6f7420696e20616e792067616d6560501b6044820152606490fd5b15611dfe57565b60405162461bcd60e51b815260206004820152600f60248201526e47616d65206e6f742061637469766560881b6044820152606490fd5b90336000526005602052611e5060ff60406000205416611db2565b3360005260046020526040600020549182600052600360205260406000209060ff8254166005811015610674576002611e899114611df7565b336000908152600d830160208190526040909120546015146121b35733600090815260118401602052604090205460ff161561217a5733600090815260128401602081905260409091205460ff16612142576005831161210e5760018401600181541480612101575b6120da575b546001190161209f5760028401948554421161206457604051602081019185835260408201523360601b606082015260548152611f35607482611bb1565b519020336000908152600f860160205260409020540361202e573360009081526010850160209081526040808320869055928152828220805460ff1916600117905592909252902054601511612019575b336000908152600e83016020526040902054811461200b57604051908152837f0319fcec55b5300a4dcc6f96b2df475a149433dc721ba7d96c8fb14495b748ac60203393a360156017820154910154148015612001575b611fe5575050565b54421115611ff857611ff690612f64565b565b611ff690612494565b5080544211611fdd565b505050611ff6903390612ceb565b601782016120278154611c63565b9055611f86565b60405162461bcd60e51b815260206004820152600e60248201526d125b9d985b1a59081c995d99585b60921b6044820152606490fd5b60405162461bcd60e51b815260206004820152601360248201527214995d99585b081c195c9a5bd908195b991959606a1b6044820152606490fd5b60405162461bcd60e51b81526020600482015260136024820152724e6f7420696e2072657665616c20706861736560681b6044820152606490fd5b6120e387612bfd565b60ff855416600581101561067457600403611ef75750505050505050565b5060028501544211611ef2565b60405162461bcd60e51b815260206004820152600c60248201526b496e76616c6964206d6f766560a01b6044820152606490fd5b60405162461bcd60e51b815260206004820152601060248201526f105b1c9958591e481c995d99585b195960821b6044820152606490fd5b60405162461bcd60e51b8152602060048201526011602482015270135d5cdd0818dbdb5b5a5d08199a5c9cdd607a1b6044820152606490fd5b5050505050565b91908110156119ad5760051b0190565b80548210156119ad5760005260206000200190600090565b9081549168010000000000000000831015610ca3578261220a916001611ff6950181556121ca565b81546001600160a01b0393841660039290921b91821b9390911b1916919091179055565b1561223557565b60405162461bcd60e51b81526020600482015260136024820152724e6f7420696e20636f6d6d697420706861736560681b6044820152606490fd5b33600052600560205261228a60ff60406000205416611db2565b3360005260046020526040600020549081600052600360205260406000209060ff82541660058110156106745760026122c39114611df7565b600d82019060018060a01b0333166000528160205260156040600020541461240d576122f46001808501541461222e565b601183019060018060a01b0333166000528160205260ff604060002054166123d457600284015442116123b057336000908152600f85016020908152604080832093909355928352818120805460ff191660011790559290915290205460151161239b575b33827f2e6ed0cae7a81e1893017dfafd5fbaf8594adcc50ff27b5f8eb70e0e90acf315600080a360156016820154910154146123925750565b611ff6906131ed565b601681016123a98154611c63565b9055612359565b50505060ff906123bf83613102565b54166005811015610674576004036123925750565b60405162461bcd60e51b8152602060048201526011602482015270105b1c9958591e4818dbdb5b5a5d1d1959607a1b6044820152606490fd5b50505050565b92611d59949261243c92855260016020860152604085015260a0606085015260a0840190611a31565b916080818403910152611a31565b60406020820191602081528354809352019160005260206000209060005b8181106124755750505090565b82546001600160a01b0316845260209093019260019283019201612468565b908160005260036020526040600020600092600091600b810194855460128301945b818110612b60575b5050612b35575b60005b855481101561262d57806124de600192886121ca565b838060a01b0391549060031b1c1660ff60406000858060a01b03841681528860205220541661250f575b50016124c8565b847fb5ac3117b47d1355284f96ae97a243bdf1b9879eb07334364220e37d71fbdda46040806000878060a01b0386168152601089016020522054600d8801826000898060a01b03881681528260205220549161256b8184611b50565b9183888c60158611612624575b8792869492612586926132f7565b6000908c8060a01b038b16825260205220558160005260138a01602052836000206125b18154611c63565b90558160005260148a016020526125cb87856000206121e2565b8360008a8060a01b0389168152600e8c0160205220556015811480612613575b612601575b82519182526020820152a338612508565b61260e8660188b016121e2565b6125f0565b5061261e868a613382565b156125eb565b60159550612578565b50601381019491939092906014840160005b6015811115612abb575060015b60158111156129865750506005840194807f8868888cc18628a149bc88cc32a91976ab30e2cd9aececb0cfe184a73fe551f960208854604051908152a2600093600886019760118701955b895481101561274e57806126ad6001928c6121ca565b838060a01b0391549060031b1c1660ff60406000858060a01b03841681528b6020522054168015612731575b6126e5575b5001612697565b60a083901b83900316600090815260208981526040808320805460ff199081169091558a835281842080549091169055600f8c01825280832083905560108c01909152812055386126de565b5060ff60406000858060a01b03841681528a6020522054166126d9565b509350949350949095600060168501556000601785015561276e84613098565b612777846133d2565b156128a35750506015600052602052604060002054600782015411156127f5575b805460ff191660049081178255429082015560180180547fa7690f576eaef889ef9ef29d1eaee6c0e3b073108b66bb8009ec8af6428bb345926127e99291156127ee57505b6040519182918261244a565b0390a2565b90506127dd565b815461280081611c72565b600091600d8401835b82811061284b5750505060005b82811061282557505050612798565b6001906128456001600160a01b0361283d8386611c0e565b511688612ceb565b01612816565b80612858600192896121ca565b838060a01b0391549060031b1c16601560406000858060a01b038416815286602052205410612889575b5001612809565b61289c61289588611c63565b9787611c0e565b5238612882565b909291959493506128b48354611c63565b8355600260ff198354161782556001808301556078420192834211610643578360028401556128e1611beb565b926128ea611beb565b9260005b6015811115612932575050507f36c6d932cb9691bee381221cc5177bb28fd438ab828d9ed9ed7c3c546cb5d2b494959650906127e991549260405194859485612413565b8061296a916000528a60205260406000205461294e8289611c0e565b5260006015820361296f575060078401545b6106118288611c0e565b6128ee565b508061297c578254612960565b6006840154612960565b806000979597528760205260406000205460158214600014612ab15760078701545b811180612aa7575b6129c7575b506129bf90611c63565b95939561264c565b97919293956129ef9682600099939952846020526129f66040600020604051998a8092611ca4565b0389611bb1565b600c82019560005b8951811015612a615760019060ff60406001600160a01b03612a20848f611c0e565b5116600090858060a01b031681528b602052205416612a40575b016129fe565b612a5c8b612a5483858060a01b0392611c0e565b51168b612ceb565b612a3a565b509493996129bf93999298508791965060407fd1d2639f7f04024f3049861f7802effaaa3cb181ff4660b1828e7f293a69408b918151908582526020820152a2906129b5565b50601582106129b0565b60068701546129a8565b8060009795975287602052604060002054816000528260205260406000205403612af057612ae890611c63565b95939561263f565b60405162461bcd60e51b815260206004820152601960248201527f4c6576656c20706f70756c6174696f6e206d69736d61746368000000000000006044820152606490fd5b612b3e82612f64565b60ff8154166005811015610674576004036124c5579293505050600442910155565b612b6a81896121ca565b905460039190911b1c6001600160a01b031660008181526020889052604090205460ff16159081612baf575b50612ba3576001016124b6565b505050600138806124be565b6001600160a01b03166000908152600d86016020526040902054601511905038612b96565b6000546001600160a01b03163303612be857565b63118cdaa760e01b6000523360045260246000fd5b8060005260036020526040600020612c1a6001808301541461222e565b600281015442118015612c8a575b15612c4557601560168201549101541461239257611ff690613102565b60405162461bcd60e51b815260206004820152601b60248201527f43616e6e6f7420656e6420636f6d6d69742070686173652079657400000000006044820152606490fd5b506016810154601582015414612c28565b8015610643576000190190565b80548015612cd5576000190190612cbf82826121ca565b81549060018060a01b039060031b1b1916905555565b634e487b7160e01b600052603160045260246000fd5b9060009180835260036020526040832091600c830160018060a01b03821685528060205260ff60408620541615612f2b576001600160a01b0382168552600d84016020526040852054601590612d428185886132f7565b10612ec1575b60018060a01b03821685526020526040842060ff19815416905560018060a01b03169182845260056020526040842060ff198154169055828452600460205283604081205583600b8201945b855480821015612eb55785612da983896121ca565b905460039190911b1c6001600160a01b031614612dc95750600101612d94565b6000969293949596198101908111612ea157829161220a612df0612e0993612e0e966121ca565b905460039190911b1c6001600160a01b031691846121ca565b612ca8565b612e1782613098565b6001546001600160a01b0316803b15612e9d57908080600a9493602460405180948193633ef6cf1d60e21b83528b60048401525af1612e8d575b505083600052016020527f51479c93d7646904d2282e9e79cddf11999ac774b7fd0289e2f59cb4ad0f086a6020604060002054604051908152a3565b81612e9791611bb1565b38612e51565b5080fd5b634e487b7160e01b84526011600452602484fd5b50509091929350612e0e565b6001600160a01b038216855260118401602052604085205460ff16612f16575b6001600160a01b038216855260128401602052604085205460ff1615612d485760178401612f0f8154612c9b565b9055612d48565b60168401612f248154612c9b565b9055612ee1565b60405162461bcd60e51b8152602060048201526011602482015270506c61796572206e6f742061637469766560781b6044820152606490fd5b8060005260036020526040600020600b8101908154612f8281611c72565b60009160128401835b8281106130205750505060005b82811061300257505050612fab81613098565b6002825410612fb957505050565b805460ff1916600417815560180180547fa7690f576eaef889ef9ef29d1eaee6c0e3b073108b66bb8009ec8af6428bb345926127e99291156127ee57506040519182918261244a565b60019061301a6001600160a01b0361283d8386611c0e565b01612f98565b8061302d600192896121ca565b838060a01b0391549060031b1c1660ff60406000858060a01b0384168152866020522054161580613078575b613065575b5001612f8b565b61307161289588611c63565b523861305e565b50601560406000858060a01b0384168152600d8b01602052205410613059565b6000805b600b830180548210156130f95760406130b7836015936121ca565b905460039190911b1c6001600160a01b03166000908152600d86016020522054106130e5575b60010161309c565b906130f1600191611c63565b9190506130dd565b50509060150155565b8060005260036020526040600020600b810190815461312081611c72565b60009160118401835b8281106131755750505060005b8281106131575750505061314981613098565b600282541061279857505050565b60019061316f6001600160a01b0361283d8386611c0e565b01613136565b80613182600192896121ca565b838060a01b0391549060031b1c1660ff60406000858060a01b03841681528660205220541615806131cd575b6131ba575b5001613129565b6131c661289588611c63565b52386131b3565b50601560406000858060a01b0384168152600d8b016020522054106131ae565b9081600052600360205260406000209160026001840155603c42018042116106435780600285015561321d611beb565b613225611beb565b946013810160005b601581111561329b5750507f36c6d932cb9691bee381221cc5177bb28fd438ab828d9ed9ed7c3c546cb5d2b493949561328d60056127e993015493604051958695865260026020870152604086015260a0606086015260a0850190611a31565b908382036080850152611a31565b806132cc91600052826020526040600020546132b78287611c0e565b52806132d1576008840154610611828b611c0e565b61322d565b601581036132e8576007840154610611828b611c0e565b6006840154610611828b611c0e565b60149192806000526013820160205260406000206133158154612c9b565b905560005201602052604060002060005b81548082101561240d5761333a82846121ca565b905460039190911b1c6001600160a01b039081169085161461335f5750600101613326565b909250600019810190811161064357611ff69261220a612df0612e0993856121ca565b9060005b6018830180548210156133c9578161339d916121ca565b905460039190911b1c6001600160a01b03908116908316146133c157600101613386565b505050600190565b50505050600090565b600b810190815491600283108015613454575b6133c157601560005260138201602052604060002054600783015411156133c15760005b8381106134195750505050600190565b6015604061342783856121ca565b905460039190911b1c6001600160a01b03166000908152600d86016020522054036133c957600101613409565b506014600583015410156133e556fea26469706673582212207a45b1739a6525c611702ce9c20339177c9a1c8959c0b057fe4b369754dfdc5c64736f6c634300081c0033",
  "linkReferences": {},
  "deployedLinkReferences": {}
}