{
  "contracts/games/Doors.sol": {
    "Doors": {
      "abi": [
        {
          "inputs": [],
          "stateMutability": "nonpayable",
          "type": "constructor"
        },
        {
          "inputs": [
            {
              "internalType": "address",
              "name": "owner",
              "type": "address"
            }
          ],
          "name": "OwnableInvalidOwner",
          "type": "error"
        },
        {
          "inputs": [
            {
              "internalType": "address",
              "name": "account",
              "type": "address"
            }
          ],
          "name": "OwnableUnauthorizedAccount",
          "type": "error"
        },
        {
          "anonymous": false,
          "inputs": [
            {
              "indexed": true,
              "internalType": "uint256",
              "name": "gameId",
              "type": "uint256"
            },
            {
              "indexed": true,
              "internalType": "address",
              "name": "player",
              "type": "address"
            },
            {
              "indexed": false,
              "internalType": "bool",
              "name": "success",
              "type": "bool"
            }
          ],
          "name": "DoorOpened",
          "type": "event"
        },
        {
          "anonymous": false,
          "inputs": [
            {
              "indexed": true,
              "internalType": "uint256",
              "name": "gameId",
              "type": "uint256"
            },
            {
              "indexed": false,
              "internalType": "address[]",
              "name": "winners",
              "type": "address[]"
            }
          ],
          "name": "GameCompleted",
          "type": "event"
        },
        {
          "anonymous": false,
          "inputs": [
            {
              "indexed": false,
              "internalType": "address[]",
              "name": "players",
              "type": "address[]"
            },
            {
              "indexed": false,
              "internalType": "uint256[]",
              "name": "playerNumbers",
              "type": "uint256[]"
            }
          ],
          "name": "GameInitialized",
          "type": "event"
        },
        {
          "anonymous": false,
          "inputs": [
            {
              "indexed": false,
              "internalType": "address",
              "name": "newGameMaster",
              "type": "address"
            }
          ],
          "name": "GameMasterChanged",
          "type": "event"
        },
        {
          "anonymous": false,
          "inputs": [
            {
              "indexed": true,
              "internalType": "address",
              "name": "previousOwner",
              "type": "address"
            },
            {
              "indexed": true,
              "internalType": "address",
              "name": "newOwner",
              "type": "address"
            }
          ],
          "name": "OwnershipTransferred",
          "type": "event"
        },
        {
          "anonymous": false,
          "inputs": [
            {
              "indexed": true,
              "internalType": "uint256",
              "name": "gameId",
              "type": "uint256"
            },
            {
              "indexed": true,
              "internalType": "address",
              "name": "player",
              "type": "address"
            },
            {
              "indexed": false,
              "internalType": "uint256",
              "name": "playerNumber",
              "type": "uint256"
            }
          ],
          "name": "PlayerEliminated",
          "type": "event"
        },
        {
          "anonymous": false,
          "inputs": [
            {
              "indexed": true,
              "internalType": "uint256",
              "name": "gameId",
              "type": "uint256"
            },
            {
              "indexed": false,
              "internalType": "uint256",
              "name": "roundNumber",
              "type": "uint256"
            }
          ],
          "name": "RoundEnded",
          "type": "event"
        },
        {
          "anonymous": false,
          "inputs": [
            {
              "indexed": true,
              "internalType": "uint256",
              "name": "gameId",
              "type": "uint256"
            },
            {
              "indexed": false,
              "internalType": "uint256",
              "name": "roundNumber",
              "type": "uint256"
            },
            {
              "indexed": false,
              "internalType": "uint256",
              "name": "endTime",
              "type": "uint256"
            }
          ],
          "name": "RoundStarted",
          "type": "event"
        },
        {
          "inputs": [],
          "name": "endExpiredGames",
          "outputs": [],
          "stateMutability": "nonpayable",
          "type": "function"
        },
        {
          "inputs": [],
          "name": "endGame",
          "outputs": [
            {
              "internalType": "address[]",
              "name": "winners",
              "type": "address[]"
            }
          ],
          "stateMutability": "nonpayable",
          "type": "function"
        },
        {
          "inputs": [],
          "name": "gameIdCounter",
          "outputs": [
            {
              "internalType": "uint256",
              "name": "",
              "type": "uint256"
            }
          ],
          "stateMutability": "view",
          "type": "function"
        },
        {
          "inputs": [],
          "name": "gameMaster",
          "outputs": [
            {
              "internalType": "address",
              "name": "",
              "type": "address"
            }
          ],
          "stateMutability": "view",
          "type": "function"
        },
        {
          "inputs": [
            {
              "internalType": "uint256",
              "name": "gameId",
              "type": "uint256"
            }
          ],
          "name": "getActivePlayers",
          "outputs": [
            {
              "internalType": "address[]",
              "name": "",
              "type": "address[]"
            }
          ],
          "stateMutability": "view",
          "type": "function"
        },
        {
          "inputs": [],
          "name": "getActivePlayers",
          "outputs": [
            {
              "internalType": "address[]",
              "name": "",
              "type": "address[]"
            }
          ],
          "stateMutability": "view",
          "type": "function"
        },
        {
          "inputs": [
            {
              "internalType": "uint256",
              "name": "gameId",
              "type": "uint256"
            },
            {
              "internalType": "address",
              "name": "player",
              "type": "address"
            }
          ],
          "name": "getDoorsOpened",
          "outputs": [
            {
              "internalType": "uint256",
              "name": "",
              "type": "uint256"
            }
          ],
          "stateMutability": "view",
          "type": "function"
        },
        {
          "inputs": [
            {
              "internalType": "uint256",
              "name": "gameId",
              "type": "uint256"
            }
          ],
          "name": "getGameInfo",
          "outputs": [
            {
              "components": [
                {
                  "internalType": "enum IGame.GameState",
                  "name": "state",
                  "type": "uint8"
                },
                {
                  "internalType": "uint256",
                  "name": "currentRound",
                  "type": "uint256"
                },
                {
                  "internalType": "uint256",
                  "name": "roundEndTime",
                  "type": "uint256"
                }
              ],
              "internalType": "struct IGame.GameInfo",
              "name": "",
              "type": "tuple"
            }
          ],
          "stateMutability": "view",
          "type": "function"
        },
        {
          "inputs": [],
          "name": "getGameName",
          "outputs": [
            {
              "internalType": "string",
              "name": "",
              "type": "string"
            }
          ],
          "stateMutability": "pure",
          "type": "function"
        },
        {
          "inputs": [
            {
              "internalType": "uint256",
              "name": "gameId",
              "type": "uint256"
            }
          ],
          "name": "getGameState",
          "outputs": [
            {
              "internalType": "enum IGame.GameState",
              "name": "",
              "type": "uint8"
            }
          ],
          "stateMutability": "view",
          "type": "function"
        },
        {
          "inputs": [
            {
              "internalType": "address",
              "name": "player",
              "type": "address"
            }
          ],
          "name": "getPlayerGameId",
          "outputs": [
            {
              "internalType": "uint256",
              "name": "",
              "type": "uint256"
            }
          ],
          "stateMutability": "view",
          "type": "function"
        },
        {
          "inputs": [
            {
              "internalType": "uint256",
              "name": "gameId",
              "type": "uint256"
            }
          ],
          "name": "getPlayerInfo",
          "outputs": [
            {
              "components": [
                {
                  "internalType": "address",
                  "name": "playerAddress",
                  "type": "address"
                },
                {
                  "internalType": "uint256",
                  "name": "playerNumber",
                  "type": "uint256"
                },
                {
                  "internalType": "bool",
                  "name": "isActive",
                  "type": "bool"
                },
                {
                  "internalType": "uint256",
                  "name": "doorsOpened",
                  "type": "uint256"
                }
              ],
              "internalType": "struct Doors.PlayerInfo[]",
              "name": "",
              "type": "tuple[]"
            }
          ],
          "stateMutability": "view",
          "type": "function"
        },
        {
          "inputs": [
            {
              "internalType": "uint256",
              "name": "gameId",
              "type": "uint256"
            },
            {
              "internalType": "address",
              "name": "player",
              "type": "address"
            }
          ],
          "name": "getPlayerNumber",
          "outputs": [
            {
              "internalType": "uint256",
              "name": "",
              "type": "uint256"
            }
          ],
          "stateMutability": "view",
          "type": "function"
        },
        {
          "inputs": [
            {
              "internalType": "uint256",
              "name": "gameId",
              "type": "uint256"
            }
          ],
          "name": "getPlayers",
          "outputs": [
            {
              "internalType": "address[]",
              "name": "",
              "type": "address[]"
            }
          ],
          "stateMutability": "view",
          "type": "function"
        },
        {
          "inputs": [],
          "name": "getPlayers",
          "outputs": [
            {
              "internalType": "address[]",
              "name": "",
              "type": "address[]"
            }
          ],
          "stateMutability": "view",
          "type": "function"
        },
        {
          "inputs": [],
          "name": "getStats",
          "outputs": [
            {
              "components": [
                {
                  "internalType": "uint256",
                  "name": "activePlayerCount",
                  "type": "uint256"
                },
                {
                  "internalType": "uint256",
                  "name": "currentRound",
                  "type": "uint256"
                },
                {
                  "internalType": "enum IGame.GameState",
                  "name": "state",
                  "type": "uint8"
                }
              ],
              "internalType": "struct IGame.GameStats[]",
              "name": "instanceStats",
              "type": "tuple[]"
            },
            {
              "internalType": "uint256",
              "name": "totalPlayers",
              "type": "uint256"
            },
            {
              "internalType": "uint256",
              "name": "totalActivePlayers",
              "type": "uint256"
            },
            {
              "internalType": "uint256",
              "name": "totalEliminatedPlayers",
              "type": "uint256"
            },
            {
              "internalType": "uint256",
              "name": "activeGameCount",
              "type": "uint256"
            }
          ],
          "stateMutability": "view",
          "type": "function"
        },
        {
          "inputs": [
            {
              "internalType": "address[]",
              "name": "_players",
              "type": "address[]"
            },
            {
              "internalType": "uint256[]",
              "name": "_playerNumbers",
              "type": "uint256[]"
            }
          ],
          "name": "initialize",
          "outputs": [],
          "stateMutability": "nonpayable",
          "type": "function"
        },
        {
          "inputs": [
            {
              "internalType": "address",
              "name": "",
              "type": "address"
            }
          ],
          "name": "isPlayerInGame",
          "outputs": [
            {
              "internalType": "bool",
              "name": "",
              "type": "bool"
            }
          ],
          "stateMutability": "view",
          "type": "function"
        },
        {
          "inputs": [],
          "name": "openDoor",
          "outputs": [
            {
              "internalType": "bool",
              "name": "",
              "type": "bool"
            }
          ],
          "stateMutability": "nonpayable",
          "type": "function"
        },
        {
          "inputs": [],
          "name": "owner",
          "outputs": [
            {
              "internalType": "address",
              "name": "",
              "type": "address"
            }
          ],
          "stateMutability": "view",
          "type": "function"
        },
        {
          "inputs": [
            {
              "internalType": "address",
              "name": "",
              "type": "address"
            }
          ],
          "name": "playerGameId",
          "outputs": [
            {
              "internalType": "uint256",
              "name": "",
              "type": "uint256"
            }
          ],
          "stateMutability": "view",
          "type": "function"
        },
        {
          "inputs": [],
          "name": "renounceOwnership",
          "outputs": [],
          "stateMutability": "nonpayable",
          "type": "function"
        },
        {
          "inputs": [
            {
              "internalType": "address",
              "name": "_newGameMaster",
              "type": "address"
            }
          ],
          "name": "setGameMaster",
          "outputs": [],
          "stateMutability": "nonpayable",
          "type": "function"
        },
        {
          "inputs": [],
          "name": "startGames",
          "outputs": [
            {
              "internalType": "bool",
              "name": "",
              "type": "bool"
            }
          ],
          "stateMutability": "nonpayable",
          "type": "function"
        },
        {
          "inputs": [
            {
              "internalType": "address",
              "name": "newOwner",
              "type": "address"
            }
          ],
          "name": "transferOwnership",
          "outputs": [],
          "stateMutability": "nonpayable",
          "type": "function"
        }
      ],
      "evm": {
        "bytecode": {
          "linkReferences": {},
          "object": "6080604052348015600f57600080fd5b503380603557604051631e4fbdf760e01b81526000600482015260240160405180910390fd5b603c816053565b50600180546001600160a01b0319163317905560a3565b600080546001600160a01b038381166001600160a01b0319831681178455604051919092169283917f8be0079c531659141344cd1fd0a4f28419497f9722a3daafe3b4186f6b6457e09190a35050565b6122f6806100b26000396000f3fe608060405234801561001057600080fd5b50600436106101735760003560e01c80637fbbe46f116100de578063c59d484711610097578063e81de9f511610071578063e81de9f514610343578063ea17532e1461034b578063f2fde38b1461036b578063ffde0c741461037e57600080fd5b8063c59d48471461031a578063d0f3a21e14610333578063db0e127a1461033b57600080fd5b80637fbbe46f1461028d5780638b5b9ccc146102a05780638da5cb5b146102a8578063bbda33d9146102cd578063bdf84ae7146102f4578063c2e949271461030757600080fd5b8063460e204911610130578063460e20491461020257806347e1d55014610215578063574a5b20146102355780636cbc2ded14610268578063715018a614610270578063773b549d1461027a57600080fd5b80631bb412d6146101785780631e756ff91461019457806325b05c88146101a7578063342ed956146101c75780633532804d146101e75780633c4f5a66146101fa575b600080fd5b61018160025481565b6040519081526020015b60405180910390f35b6101816101a2366004611d97565b6103ae565b6101816101b5366004611dc3565b60046020526000908152604090205481565b6101da6101d5366004611dde565b6103db565b60405161018b9190611df7565b6101816101f5366004611d97565b61044a565b6101da610519565b6101da610210366004611dde565b61069c565b610228610223366004611dde565b610709565b60405161018b9190611e7b565b610258610243366004611dc3565b60056020526000908152604090205460ff1681565b604051901515815260200161018b565b6101da6107b2565b6102786107f4565b005b610181610288366004611dc3565b610808565b61027861029b366004611ef4565b61084c565b6101da610b87565b6000546001600160a01b03165b6040516001600160a01b03909116815260200161018b565b6040805180820182526005815264446f6f727360d81b6020820152905161018b9190611f65565b6001546102b5906001600160a01b031681565b610278610315366004611dc3565b610cff565b610322610db1565b60405161018b959493929190611fb3565b610278610f0c565b610258611064565b61025861138b565b61035e610359366004611dde565b6114e5565b60405161018b9190612039565b610278610379366004611dc3565b611652565b6103a161038c366004611dde565b60009081526003602052604090205460ff1690565b60405161018b919061209f565b60008281526003602090815260408083206001600160a01b03851684526008019091529020545b92915050565b60008181526003602090815260409182902060060180548351818402810184019094528084526060939283018282801561043e57602002820191906000526020600020905b81546001600160a01b03168152600190910190602001808311610420575b50505050509050919050565b6000808311801561045d57506002548311155b6104825760405162461bcd60e51b8152600401610479906120ad565b60405180910390fd5b60008381526003602090815260408083206001600160a01b038616845260040190915290205460ff166104ec5760405162461bcd60e51b8152602060048201526012602482015271506c61796572206e6f7420696e2067616d6560701b6044820152606401610479565b5060008281526003602090815260408083206001600160a01b038516845260050190915290205492915050565b6060600060015b60025481116105595760008181526003602052604090206006015461054590836120ec565b915080610551816120ff565b915050610520565b5060008167ffffffffffffffff81111561057557610575612118565b60405190808252806020026020018201604052801561059e578160200160208202803683370190505b509050600060015b60025481116106935760008181526003602090815260408083206006018054825181850281018501909352808352919290919083018282801561061257602002820191906000526020600020905b81546001600160a01b031681526001909101906020018083116105f4575b5050505050905060005b815181101561067e578181815181106106375761063761212e565b60200260200101518585815181106106515761065161212e565b6001600160a01b039092166020928302919091019091015283610673816120ff565b94505060010161061c565b5050808061068b906120ff565b9150506105a6565b50909392505050565b60008181526003602081815260409283902090910180548351818402810184019094528084526060939283018282801561043e576020028201919060005260206000209081546001600160a01b031681526001909101906020018083116104205750505050509050919050565b61072e6040805160608101909152806000815260200160008152602001600081525090565b60008211801561074057506002548211155b61075c5760405162461bcd60e51b8152600401610479906120ad565b600082815260036020526040808220815160608101909252805490929190819060ff16600481111561079057610790611e43565b8152600284015460208201526001909301546040909301929092525092915050565b6001546060906001600160a01b031633146107df5760405162461bcd60e51b815260040161047990612144565b6107e761168d565b6107ef61179b565b905090565b6107fc611918565b6108066000611945565b565b6001600160a01b03811660009081526005602052604081205460ff1661083057506000919050565b506001600160a01b031660009081526004602052604090205490565b6001546001600160a01b031633146108765760405162461bcd60e51b815260040161047990612144565b826108b95760405162461bcd60e51b8152602060048201526013602482015272139bc81c1b185e595c9cc81c1c9bdd9a591959606a1b6044820152606401610479565b8281146109085760405162461bcd60e51b815260206004820152601860248201527f4172726179206c656e67746873206d757374206d6174636800000000000000006044820152606401610479565b8260006014600161091982856120ec565b610923919061217b565b61092d91906121a4565b9050600061093b82846121a4565b9050600061094983856121b8565b90506000805b84811015610b7b576000600260008154610968906120ff565b91829055506000818152600360205260408120805460ff19166001178155600281019190915590915085858410156109a8576109a56001826120ec565b90505b60005b81811015610b315760008e8e888181106109c7576109c761212e565b90506020020160208101906109dc9190611dc3565b90506001600160a01b038116610a2d5760405162461bcd60e51b8152602060048201526016602482015275496e76616c696420706c61796572206164647265737360501b6044820152606401610479565b600384018054600181018255600091825260209091200180546001600160a01b0319166001600160a01b0383161790558c8c88818110610a6f57610a6f61212e565b6001600160a01b0384166000818152600589016020908152604080832094820296909601359093556004890183528481208054600160ff19918216811790925560068b01805480840182559084528584200180546001600160a01b0319168517905592825260078a01909352939093208054909316179091555086610af3816120ff565b6001600160a01b03909216600090815260046020908152604080832089905560059091529020805460ff1916600190811790915591975050016109ab565b507fb66ba8feaec509998ef3217bc97fbf1a0f906b89fac25a4ace8ddff059a41f12826003018c8c604051610b6893929190612216565b60405180910390a150505060010161094f565b50505050505050505050565b6060600060015b6002548111610bc85760008181526003602081905260409091200154610bb490836120ec565b915080610bc0816120ff565b915050610b8e565b5060008167ffffffffffffffff811115610be457610be4612118565b604051908082528060200260200182016040528015610c0d578160200160208202803683370190505b509050600060015b600254811161069357600081815260036020818152604080842090920180548351818402810184019094528084529091830182828015610c7e57602002820191906000526020600020905b81546001600160a01b03168152600190910190602001808311610c60575b5050505050905060005b8151811015610cea57818181518110610ca357610ca361212e565b6020026020010151858581518110610cbd57610cbd61212e565b6001600160a01b039092166020928302919091019091015283610cdf816120ff565b945050600101610c88565b50508080610cf7906120ff565b915050610c15565b610d07611918565b6001600160a01b038116610d5d5760405162461bcd60e51b815260206004820152601a60248201527f496e76616c69642047616d654d617374657220616464726573730000000000006044820152606401610479565b600180546001600160a01b0319166001600160a01b0383169081179091556040519081527f63860f6674590a6969c4fe1dc738a9c8f955407c09e6c67a6bdb818f4c35cd8a9060200160405180910390a150565b606060008060008060025467ffffffffffffffff811115610dd457610dd4612118565b604051908082528060200260200182016040528015610e0d57816020015b610dfa611d4a565b815260200190600190039081610df25790505b5094506000935083925082905060015b6002548111610ef8576000818152600360209081526040918290208251606081018452600682015481526002820154928101929092528054909282019060ff166004811115610e6e57610e6e611e43565b905287610e7c60018561217b565b81518110610e8c57610e8c61212e565b60209081029190910101526003810154610ea690876120ec565b6006820154909650610eb890866120ec565b94506004815460ff166004811115610ed257610ed2611e43565b14610ee55782610ee1816120ff565b9350505b5080610ef0816120ff565b915050610e1d565b50610f03838561217b565b91509091929394565b6001546001600160a01b03163314610f365760405162461bcd60e51b815260040161047990612144565b60015b60025481116110615760008181526003602052604090206002815460ff166004811115610f6857610f68611e43565b148015610f785750806001015442115b1561104e57600681015460005b81811015610fcf57600083600601600081548110610fa557610fa561212e565b6000918252602090912001546001600160a01b03169050610fc68582611995565b50600101610f85565b50815460ff191660041782556040805160008152602081019182905284916000805160206122a18339815191529161100691611df7565b60405180910390a2827f8868888cc18628a149bc88cc32a91976ab30e2cd9aececb0cfe184a73fe551f9836002015460405161104491815260200190565b60405180910390a2505b5080611059816120ff565b915050610f39565b50565b3360009081526005602052604081205460ff166110bc5760405162461bcd60e51b8152602060048201526016602482015275506c61796572206e6f7420696e20616e792067616d6560501b6044820152606401610479565b3360009081526004602090815260408083205480845260039092529091206002815460ff1660048111156110f2576110f2611e43565b146111315760405162461bcd60e51b815260206004820152600f60248201526e47616d65206e6f742061637469766560881b6044820152606401610479565b33600090815260078201602052604090205460ff166111895760405162461bcd60e51b81526020600482015260146024820152732737ba1030b71030b1ba34bb3290383630bcb2b960611b6044820152606401610479565b806001015442111561126e57600681015460005b818110156111e7576000836006016000815481106111bd576111bd61212e565b6000918252602090912001546001600160a01b031690506111de8582611995565b5060010161119d565b50815460ff191660041782556040805160008152602081019182905284916000805160206122a18339815191529161121e91611df7565b60405180910390a2827f8868888cc18628a149bc88cc32a91976ab30e2cd9aececb0cfe184a73fe551f9836002015460405161125c91815260200190565b60405180910390a26000935050505090565b336000908152600882016020526040812080549161128b836120ff565b909155506000905061129e60014361217b565b6002830154604080519240602084015242908301526bffffffffffffffffffffffff1933606090811b8216818501526074840192909252609483018690523090911b1660b482015260c80160408051601f198184030181529190528051602090910120905060006113106002836121b8565b60405190158082529150339085907f4fff61170b45e4c2809f07a4bb02837d17fcdc209a7cb683ff938c9aa374100d9060200160405180910390a38061136e5761135a8433611995565b61136384611b99565b600094505050505090565b61137784611b99565b61138084611c4c565b600194505050505090565b6001546000906001600160a01b031633146113b85760405162461bcd60e51b815260040161047990612144565b60016000815b60025481116114cd5760008181526003602052604090206004815460ff1660048111156113ed576113ed611e43565b036113f857506114bb565b82611402816120ff565b935060019050815460ff16600481111561141e5761141e611e43565b14801561142e5750600681015415155b801561143c57506002810154155b156114b45760016002828101829055825460ff191617825561145d90611d1c565b61146790426120ec565b60018201819055600282015460408051918252602082019290925283917fa359b664a68acd8839e42112eb50eff3408165e15074fde89ddb58a0db2e691d910160405180910390a26114b9565b600093505b505b806114c5816120ff565b9150506113be565b50806000036114df5760019250505090565b50905090565b60606000821180156114f957506002548211155b6115155760405162461bcd60e51b8152600401610479906120ad565b600082815260036020819052604082209081015490919067ffffffffffffffff81111561154457611544612118565b60405190808252806020026020018201604052801561159657816020015b6040805160808101825260008082526020808301829052928201819052606082015282526000199092019101816115625790505b50905060005b600383015481101561164a5760008360030182815481106115bf576115bf61212e565b6000918252602080832090910154604080516080810182526001600160a01b0390921680835280855260058901845281852054838501528085526007890184528185205460ff161515838301528085526008890190935290922054606083015284519092508490849081106116365761163661212e565b60209081029190910101525060010161159c565b509392505050565b61165a611918565b6001600160a01b03811661168457604051631e4fbdf760e01b815260006004820152602401610479565b61106181611945565b60015b60025481116110615760008181526003602052604090206002810154600a1115806116d057506004815460ff1660048111156116ce576116ce611e43565b145b6117345760405162461bcd60e51b815260206004820152602f60248201527f4e6f7420616c6c20696e7374616e636573206861766520636f6d706c6574656460448201526e206d6178696d756d20726f756e647360881b6064820152608401610479565b6004815460ff16600481111561174c5761174c611e43565b1461178857805460ff1916600417815560405182906000805160206122a18339815191529061177f906006850190612260565b60405180910390a25b5080611793816120ff565b915050611690565b6060600060015b60025481116117db576000818152600360205260409020600601546117c790836120ec565b9150806117d3816120ff565b9150506117a2565b508067ffffffffffffffff8111156117f5576117f5612118565b60405190808252806020026020018201604052801561181e578160200160208202803683370190505b509150600060015b60025481116119125760008181526003602090815260408083206006018054825181850281018501909352808352919290919083018282801561189257602002820191906000526020600020905b81546001600160a01b03168152600190910190602001808311611874575b5050505050905060005b81518110156118fd578181815181106118b7576118b761212e565b60200260200101518685806118cb906120ff565b9650815181106118dd576118dd61212e565b6001600160a01b039092166020928302919091019091015260010161189c565b5050808061190a906120ff565b915050611826565b50505090565b6000546001600160a01b031633146108065760405163118cdaa760e01b8152336004820152602401610479565b600080546001600160a01b038381166001600160a01b0319831681178455604051919092169283917f8be0079c531659141344cd1fd0a4f28419497f9722a3daafe3b4186f6b6457e09190a35050565b60008281526003602090815260408083206001600160a01b0385168452600781019092529091205460ff16611a005760405162461bcd60e51b8152602060048201526011602482015270506c61796572206e6f742061637469766560781b6044820152606401610479565b6001600160a01b03821660009081526007820160209081526040808320805460ff1990811690915560059092528220805490911690555b6006820154811015611b3c57826001600160a01b0316826006018281548110611a6257611a6261212e565b6000918252602090912001546001600160a01b031603611b3457600682018054611a8e9060019061217b565b81548110611a9e57611a9e61212e565b6000918252602090912001546006830180546001600160a01b039092169183908110611acc57611acc61212e565b9060005260206000200160006101000a8154816001600160a01b0302191690836001600160a01b0316021790555081600601805480611b0d57611b0d612273565b600082815260209020810160001990810180546001600160a01b0319169055019055611b3c565b600101611a37565b506001600160a01b03821660008181526005830160205260409081902054905185917f51479c93d7646904d2282e9e79cddf11999ac774b7fd0289e2f59cb4ad0f086a91611b8c91815260200190565b60405180910390a3505050565b6000818152600360208190526040909120805460ff191690911781556002810154600a111580611bce57506006810154600110155b15611c0a57805460ff1916600417815560405182906000805160206122a183398151915290611c01906006850190612260565b60405180910390a25b817f8868888cc18628a149bc88cc32a91976ab30e2cd9aececb0cfe184a73fe551f98260020154604051611c4091815260200190565b60405180910390a25050565b600081815260036020819052604090912090815460ff166004811115611c7457611c74611e43565b148015611c845750600681015415155b8015611c945750600a8160020154105b15611d1857600281018054906000611cab836120ff565b9091555050805460ff191660029081178255810154611cc990611d1c565b611cd390426120ec565b60018201819055600282015460408051918252602082019290925283917fa359b664a68acd8839e42112eb50eff3408165e15074fde89ddb58a0db2e691d9101611c40565b5050565b6000806006611d2c60018561217b565b611d369190612289565b9050611d4381607861217b565b9392505050565b6040518060600160405280600081526020016000815260200160006004811115611d7657611d76611e43565b905290565b80356001600160a01b0381168114611d9257600080fd5b919050565b60008060408385031215611daa57600080fd5b82359150611dba60208401611d7b565b90509250929050565b600060208284031215611dd557600080fd5b611d4382611d7b565b600060208284031215611df057600080fd5b5035919050565b602080825282518282018190526000918401906040840190835b81811015611e385783516001600160a01b0316835260209384019390920191600101611e11565b509095945050505050565b634e487b7160e01b600052602160045260246000fd5b60058110611e7757634e487b7160e01b600052602160045260246000fd5b9052565b6000606082019050611e8e828451611e59565b602083015160208301526040830151604083015292915050565b60008083601f840112611eba57600080fd5b50813567ffffffffffffffff811115611ed257600080fd5b6020830191508360208260051b8501011115611eed57600080fd5b9250929050565b60008060008060408587031215611f0a57600080fd5b843567ffffffffffffffff811115611f2157600080fd5b611f2d87828801611ea8565b909550935050602085013567ffffffffffffffff811115611f4d57600080fd5b611f5987828801611ea8565b95989497509550505050565b602081526000825180602084015260005b81811015611f935760208186018101516040868401015201611f76565b506000604082850101526040601f19601f83011684010191505092915050565b60a08082528651908201819052600090602088019060c0840190835b81811015612012578351805184526020810151602085015260408101519050611ffb6040850182611e59565b506020939093019260609290920191600101611fcf565b50506020840197909752505060408101939093526060830191909152608090910152919050565b602080825282518282018190526000918401906040840190835b81811015611e3857835180516001600160a01b03168452602080820151818601526040808301511515908601526060918201519185019190915290930192608090920191600101612053565b602081016103d58284611e59565b6020808252600f908201526e125b9d985b1a590819d85b59481251608a1b604082015260600190565b634e487b7160e01b600052601160045260246000fd5b808201808211156103d5576103d56120d6565b600060018201612111576121116120d6565b5060010190565b634e487b7160e01b600052604160045260246000fd5b634e487b7160e01b600052603260045260246000fd5b60208082526018908201527f4f6e6c792047616d654d61737465722063616e2063616c6c0000000000000000604082015260600190565b818103818111156103d5576103d56120d6565b634e487b7160e01b600052601260045260246000fd5b6000826121b3576121b361218e565b500490565b6000826121c7576121c761218e565b500690565b6000815480845260208401935082600052602060002060005b8281101561220c5781546001600160a01b03168652602090950194600191820191016121e5565b5093949350505050565b60408152600061222960408301866121cc565b82810360208401528381526001600160fb1b0384111561224857600080fd5b8360051b808660208401370160200195945050505050565b602081526000611d4360208301846121cc565b634e487b7160e01b600052603160045260246000fd5b80820281158282048414176103d5576103d56120d656fea7690f576eaef889ef9ef29d1eaee6c0e3b073108b66bb8009ec8af6428bb345a264697066735822122007a9aa07a05fb1c590c0b016a924f0139c1a924871223d56f2b6091a8e80a53b64736f6c634300081c0033",
          "opcodes": "PUSH1 0x80 PUSH1 0x40 MSTORE CALLVALUE DUP1 ISZERO PUSH1 0xF JUMPI PUSH1 0x0 DUP1 REVERT JUMPDEST POP CALLER DUP1 PUSH1 0x35 JUMPI PUSH1 0x40 MLOAD PUSH4 0x1E4FBDF7 PUSH1 0xE0 SHL DUP2 MSTORE PUSH1 0x0 PUSH1 0x4 DUP3 ADD MSTORE PUSH1 0x24 ADD PUSH1 0x40 MLOAD DUP1 SWAP2 SUB SWAP1 REVERT JUMPDEST PUSH1 0x3C DUP2 PUSH1 0x53 JUMP JUMPDEST POP PUSH1 0x1 DUP1 SLOAD PUSH1 0x1 PUSH1 0x1 PUSH1 0xA0 SHL SUB NOT AND CALLER OR SWAP1 SSTORE PUSH1 0xA3 JUMP JUMPDEST PUSH1 0x0 DUP1 SLOAD PUSH1 0x1 PUSH1 0x1 PUSH1 0xA0 SHL SUB DUP4 DUP2 AND PUSH1 0x1 PUSH1 0x1 PUSH1 0xA0 SHL SUB NOT DUP4 AND DUP2 OR DUP5 SSTORE PUSH1 0x40 MLOAD SWAP2 SWAP1 SWAP3 AND SWAP3 DUP4 SWAP2 PUSH32 0x8BE0079C531659141344CD1FD0A4F28419497F9722A3DAAFE3B4186F6B6457E0 SWAP2 SWAP1 LOG3 POP POP JUMP JUMPDEST PUSH2 0x22F6 DUP1 PUSH2 0xB2 PUSH1 0x0 CODECOPY PUSH1 0x0 RETURN INVALID PUSH1 0x80 PUSH1 0x40 MSTORE CALLVALUE DUP1 ISZERO PUSH2 0x10 JUMPI PUSH1 0x0 DUP1 REVERT JUMPDEST POP PUSH1 0x4 CALLDATASIZE LT PUSH2 0x173 JUMPI PUSH1 0x0 CALLDATALOAD PUSH1 0xE0 SHR DUP1 PUSH4 0x7FBBE46F GT PUSH2 0xDE JUMPI DUP1 PUSH4 0xC59D4847 GT PUSH2 0x97 JUMPI DUP1 PUSH4 0xE81DE9F5 GT PUSH2 0x71 JUMPI DUP1 PUSH4 0xE81DE9F5 EQ PUSH2 0x343 JUMPI DUP1 PUSH4 0xEA17532E EQ PUSH2 0x34B JUMPI DUP1 PUSH4 0xF2FDE38B EQ PUSH2 0x36B JUMPI DUP1 PUSH4 0xFFDE0C74 EQ PUSH2 0x37E JUMPI PUSH1 0x0 DUP1 REVERT JUMPDEST DUP1 PUSH4 0xC59D4847 EQ PUSH2 0x31A JUMPI DUP1 PUSH4 0xD0F3A21E EQ PUSH2 0x333 JUMPI DUP1 PUSH4 0xDB0E127A EQ PUSH2 0x33B JUMPI PUSH1 0x0 DUP1 REVERT JUMPDEST DUP1 PUSH4 0x7FBBE46F EQ PUSH2 0x28D JUMPI DUP1 PUSH4 0x8B5B9CCC EQ PUSH2 0x2A0 JUMPI DUP1 PUSH4 0x8DA5CB5B EQ PUSH2 0x2A8 JUMPI DUP1 PUSH4 0xBBDA33D9 EQ PUSH2 0x2CD JUMPI DUP1 PUSH4 0xBDF84AE7 EQ PUSH2 0x2F4 JUMPI DUP1 PUSH4 0xC2E94927 EQ PUSH2 0x307 JUMPI PUSH1 0x0 DUP1 REVERT JUMPDEST DUP1 PUSH4 0x460E2049 GT PUSH2 0x130 JUMPI DUP1 PUSH4 0x460E2049 EQ PUSH2 0x202 JUMPI DUP1 PUSH4 0x47E1D550 EQ PUSH2 0x215 JUMPI DUP1 PUSH4 0x574A5B20 EQ PUSH2 0x235 JUMPI DUP1 PUSH4 0x6CBC2DED EQ PUSH2 0x268 JUMPI DUP1 PUSH4 0x715018A6 EQ PUSH2 0x270 JUMPI DUP1 PUSH4 0x773B549D EQ PUSH2 0x27A JUMPI PUSH1 0x0 DUP1 REVERT JUMPDEST DUP1 PUSH4 0x1BB412D6 EQ PUSH2 0x178 JUMPI DUP1 PUSH4 0x1E756FF9 EQ PUSH2 0x194 JUMPI DUP1 PUSH4 0x25B05C88 EQ PUSH2 0x1A7 JUMPI DUP1 PUSH4 0x342ED956 EQ PUSH2 0x1C7 JUMPI DUP1 PUSH4 0x3532804D EQ PUSH2 0x1E7 JUMPI DUP1 PUSH4 0x3C4F5A66 EQ PUSH2 0x1FA JUMPI JUMPDEST PUSH1 0x0 DUP1 REVERT JUMPDEST PUSH2 0x181 PUSH1 0x2 SLOAD DUP2 JUMP JUMPDEST PUSH1 0x40 MLOAD SWAP1 DUP2 MSTORE PUSH1 0x20 ADD JUMPDEST PUSH1 0x40 MLOAD DUP1 SWAP2 SUB SWAP1 RETURN JUMPDEST PUSH2 0x181 PUSH2 0x1A2 CALLDATASIZE PUSH1 0x4 PUSH2 0x1D97 JUMP JUMPDEST PUSH2 0x3AE JUMP JUMPDEST PUSH2 0x181 PUSH2 0x1B5 CALLDATASIZE PUSH1 0x4 PUSH2 0x1DC3 JUMP JUMPDEST PUSH1 0x4 PUSH1 0x20 MSTORE PUSH1 0x0 SWAP1 DUP2 MSTORE PUSH1 0x40 SWAP1 KECCAK256 SLOAD DUP2 JUMP JUMPDEST PUSH2 0x1DA PUSH2 0x1D5 CALLDATASIZE PUSH1 0x4 PUSH2 0x1DDE JUMP JUMPDEST PUSH2 0x3DB JUMP JUMPDEST PUSH1 0x40 MLOAD PUSH2 0x18B SWAP2 SWAP1 PUSH2 0x1DF7 JUMP JUMPDEST PUSH2 0x181 PUSH2 0x1F5 CALLDATASIZE PUSH1 0x4 PUSH2 0x1D97 JUMP JUMPDEST PUSH2 0x44A JUMP JUMPDEST PUSH2 0x1DA PUSH2 0x519 JUMP JUMPDEST PUSH2 0x1DA PUSH2 0x210 CALLDATASIZE PUSH1 0x4 PUSH2 0x1DDE JUMP JUMPDEST PUSH2 0x69C JUMP JUMPDEST PUSH2 0x228 PUSH2 0x223 CALLDATASIZE PUSH1 0x4 PUSH2 0x1DDE JUMP JUMPDEST PUSH2 0x709 JUMP JUMPDEST PUSH1 0x40 MLOAD PUSH2 0x18B SWAP2 SWAP1 PUSH2 0x1E7B JUMP JUMPDEST PUSH2 0x258 PUSH2 0x243 CALLDATASIZE PUSH1 0x4 PUSH2 0x1DC3 JUMP JUMPDEST PUSH1 0x5 PUSH1 0x20 MSTORE PUSH1 0x0 SWAP1 DUP2 MSTORE PUSH1 0x40 SWAP1 KECCAK256 SLOAD PUSH1 0xFF AND DUP2 JUMP JUMPDEST PUSH1 0x40 MLOAD SWAP1 ISZERO ISZERO DUP2 MSTORE PUSH1 0x20 ADD PUSH2 0x18B JUMP JUMPDEST PUSH2 0x1DA PUSH2 0x7B2 JUMP JUMPDEST PUSH2 0x278 PUSH2 0x7F4 JUMP JUMPDEST STOP JUMPDEST PUSH2 0x181 PUSH2 0x288 CALLDATASIZE PUSH1 0x4 PUSH2 0x1DC3 JUMP JUMPDEST PUSH2 0x808 JUMP JUMPDEST PUSH2 0x278 PUSH2 0x29B CALLDATASIZE PUSH1 0x4 PUSH2 0x1EF4 JUMP JUMPDEST PUSH2 0x84C JUMP JUMPDEST PUSH2 0x1DA PUSH2 0xB87 JUMP JUMPDEST PUSH1 0x0 SLOAD PUSH1 0x1 PUSH1 0x1 PUSH1 0xA0 SHL SUB AND JUMPDEST PUSH1 0x40 MLOAD PUSH1 0x1 PUSH1 0x1 PUSH1 0xA0 SHL SUB SWAP1 SWAP2 AND DUP2 MSTORE PUSH1 0x20 ADD PUSH2 0x18B JUMP JUMPDEST PUSH1 0x40 DUP1 MLOAD DUP1 DUP3 ADD DUP3 MSTORE PUSH1 0x5 DUP2 MSTORE PUSH5 0x446F6F7273 PUSH1 0xD8 SHL PUSH1 0x20 DUP3 ADD MSTORE SWAP1 MLOAD PUSH2 0x18B SWAP2 SWAP1 PUSH2 0x1F65 JUMP JUMPDEST PUSH1 0x1 SLOAD PUSH2 0x2B5 SWAP1 PUSH1 0x1 PUSH1 0x1 PUSH1 0xA0 SHL SUB AND DUP2 JUMP JUMPDEST PUSH2 0x278 PUSH2 0x315 CALLDATASIZE PUSH1 0x4 PUSH2 0x1DC3 JUMP JUMPDEST PUSH2 0xCFF JUMP JUMPDEST PUSH2 0x322 PUSH2 0xDB1 JUMP JUMPDEST PUSH1 0x40 MLOAD PUSH2 0x18B SWAP6 SWAP5 SWAP4 SWAP3 SWAP2 SWAP1 PUSH2 0x1FB3 JUMP JUMPDEST PUSH2 0x278 PUSH2 0xF0C JUMP JUMPDEST PUSH2 0x258 PUSH2 0x1064 JUMP JUMPDEST PUSH2 0x258 PUSH2 0x138B JUMP JUMPDEST PUSH2 0x35E PUSH2 0x359 CALLDATASIZE PUSH1 0x4 PUSH2 0x1DDE JUMP JUMPDEST PUSH2 0x14E5 JUMP JUMPDEST PUSH1 0x40 MLOAD PUSH2 0x18B SWAP2 SWAP1 PUSH2 0x2039 JUMP JUMPDEST PUSH2 0x278 PUSH2 0x379 CALLDATASIZE PUSH1 0x4 PUSH2 0x1DC3 JUMP JUMPDEST PUSH2 0x1652 JUMP JUMPDEST PUSH2 0x3A1 PUSH2 0x38C CALLDATASIZE PUSH1 0x4 PUSH2 0x1DDE JUMP JUMPDEST PUSH1 0x0 SWAP1 DUP2 MSTORE PUSH1 0x3 PUSH1 0x20 MSTORE PUSH1 0x40 SWAP1 KECCAK256 SLOAD PUSH1 0xFF AND SWAP1 JUMP JUMPDEST PUSH1 0x40 MLOAD PUSH2 0x18B SWAP2 SWAP1 PUSH2 0x209F JUMP JUMPDEST PUSH1 0x0 DUP3 DUP2 MSTORE PUSH1 0x3 PUSH1 0x20 SWAP1 DUP2 MSTORE PUSH1 0x40 DUP1 DUP4 KECCAK256 PUSH1 0x1 PUSH1 0x1 PUSH1 0xA0 SHL SUB DUP6 AND DUP5 MSTORE PUSH1 0x8 ADD SWAP1 SWAP2 MSTORE SWAP1 KECCAK256 SLOAD JUMPDEST SWAP3 SWAP2 POP POP JUMP JUMPDEST PUSH1 0x0 DUP2 DUP2 MSTORE PUSH1 0x3 PUSH1 0x20 SWAP1 DUP2 MSTORE PUSH1 0x40 SWAP2 DUP3 SWAP1 KECCAK256 PUSH1 0x6 ADD DUP1 SLOAD DUP4 MLOAD DUP2 DUP5 MUL DUP2 ADD DUP5 ADD SWAP1 SWAP5 MSTORE DUP1 DUP5 MSTORE PUSH1 0x60 SWAP4 SWAP3 DUP4 ADD DUP3 DUP3 DUP1 ISZERO PUSH2 0x43E JUMPI PUSH1 0x20 MUL DUP3 ADD SWAP2 SWAP1 PUSH1 0x0 MSTORE PUSH1 0x20 PUSH1 0x0 KECCAK256 SWAP1 JUMPDEST DUP2 SLOAD PUSH1 0x1 PUSH1 0x1 PUSH1 0xA0 SHL SUB AND DUP2 MSTORE PUSH1 0x1 SWAP1 SWAP2 ADD SWAP1 PUSH1 0x20 ADD DUP1 DUP4 GT PUSH2 0x420 JUMPI JUMPDEST POP POP POP POP POP SWAP1 POP SWAP2 SWAP1 POP JUMP JUMPDEST PUSH1 0x0 DUP1 DUP4 GT DUP1 ISZERO PUSH2 0x45D JUMPI POP PUSH1 0x2 SLOAD DUP4 GT ISZERO JUMPDEST PUSH2 0x482 JUMPI PUSH1 0x40 MLOAD PUSH3 0x461BCD PUSH1 0xE5 SHL DUP2 MSTORE PUSH1 0x4 ADD PUSH2 0x479 SWAP1 PUSH2 0x20AD JUMP JUMPDEST PUSH1 0x40 MLOAD DUP1 SWAP2 SUB SWAP1 REVERT JUMPDEST PUSH1 0x0 DUP4 DUP2 MSTORE PUSH1 0x3 PUSH1 0x20 SWAP1 DUP2 MSTORE PUSH1 0x40 DUP1 DUP4 KECCAK256 PUSH1 0x1 PUSH1 0x1 PUSH1 0xA0 SHL SUB DUP7 AND DUP5 MSTORE PUSH1 0x4 ADD SWAP1 SWAP2 MSTORE SWAP1 KECCAK256 SLOAD PUSH1 0xFF AND PUSH2 0x4EC JUMPI PUSH1 0x40 MLOAD PUSH3 0x461BCD PUSH1 0xE5 SHL DUP2 MSTORE PUSH1 0x20 PUSH1 0x4 DUP3 ADD MSTORE PUSH1 0x12 PUSH1 0x24 DUP3 ADD MSTORE PUSH18 0x506C61796572206E6F7420696E2067616D65 PUSH1 0x70 SHL PUSH1 0x44 DUP3 ADD MSTORE PUSH1 0x64 ADD PUSH2 0x479 JUMP JUMPDEST POP PUSH1 0x0 DUP3 DUP2 MSTORE PUSH1 0x3 PUSH1 0x20 SWAP1 DUP2 MSTORE PUSH1 0x40 DUP1 DUP4 KECCAK256 PUSH1 0x1 PUSH1 0x1 PUSH1 0xA0 SHL SUB DUP6 AND DUP5 MSTORE PUSH1 0x5 ADD SWAP1 SWAP2 MSTORE SWAP1 KECCAK256 SLOAD SWAP3 SWAP2 POP POP JUMP JUMPDEST PUSH1 0x60 PUSH1 0x0 PUSH1 0x1 JUMPDEST PUSH1 0x2 SLOAD DUP2 GT PUSH2 0x559 JUMPI PUSH1 0x0 DUP2 DUP2 MSTORE PUSH1 0x3 PUSH1 0x20 MSTORE PUSH1 0x40 SWAP1 KECCAK256 PUSH1 0x6 ADD SLOAD PUSH2 0x545 SWAP1 DUP4 PUSH2 0x20EC JUMP JUMPDEST SWAP2 POP DUP1 PUSH2 0x551 DUP2 PUSH2 0x20FF JUMP JUMPDEST SWAP2 POP POP PUSH2 0x520 JUMP JUMPDEST POP PUSH1 0x0 DUP2 PUSH8 0xFFFFFFFFFFFFFFFF DUP2 GT ISZERO PUSH2 0x575 JUMPI PUSH2 0x575 PUSH2 0x2118 JUMP JUMPDEST PUSH1 0x40 MLOAD SWAP1 DUP1 DUP3 MSTORE DUP1 PUSH1 0x20 MUL PUSH1 0x20 ADD DUP3 ADD PUSH1 0x40 MSTORE DUP1 ISZERO PUSH2 0x59E JUMPI DUP2 PUSH1 0x20 ADD PUSH1 0x20 DUP3 MUL DUP1 CALLDATASIZE DUP4 CALLDATACOPY ADD SWAP1 POP JUMPDEST POP SWAP1 POP PUSH1 0x0 PUSH1 0x1 JUMPDEST PUSH1 0x2 SLOAD DUP2 GT PUSH2 0x693 JUMPI PUSH1 0x0 DUP2 DUP2 MSTORE PUSH1 0x3 PUSH1 0x20 SWAP1 DUP2 MSTORE PUSH1 0x40 DUP1 DUP4 KECCAK256 PUSH1 0x6 ADD DUP1 SLOAD DUP3 MLOAD DUP2 DUP6 MUL DUP2 ADD DUP6 ADD SWAP1 SWAP4 MSTORE DUP1 DUP4 MSTORE SWAP2 SWAP3 SWAP1 SWAP2 SWAP1 DUP4 ADD DUP3 DUP3 DUP1 ISZERO PUSH2 0x612 JUMPI PUSH1 0x20 MUL DUP3 ADD SWAP2 SWAP1 PUSH1 0x0 MSTORE PUSH1 0x20 PUSH1 0x0 KECCAK256 SWAP1 JUMPDEST DUP2 SLOAD PUSH1 0x1 PUSH1 0x1 PUSH1 0xA0 SHL SUB AND DUP2 MSTORE PUSH1 0x1 SWAP1 SWAP2 ADD SWAP1 PUSH1 0x20 ADD DUP1 DUP4 GT PUSH2 0x5F4 JUMPI JUMPDEST POP POP POP POP POP SWAP1 POP PUSH1 0x0 JUMPDEST DUP2 MLOAD DUP2 LT ISZERO PUSH2 0x67E JUMPI DUP2 DUP2 DUP2 MLOAD DUP2 LT PUSH2 0x637 JUMPI PUSH2 0x637 PUSH2 0x212E JUMP JUMPDEST PUSH1 0x20 MUL PUSH1 0x20 ADD ADD MLOAD DUP6 DUP6 DUP2 MLOAD DUP2 LT PUSH2 0x651 JUMPI PUSH2 0x651 PUSH2 0x212E JUMP JUMPDEST PUSH1 0x1 PUSH1 0x1 PUSH1 0xA0 SHL SUB SWAP1 SWAP3 AND PUSH1 0x20 SWAP3 DUP4 MUL SWAP2 SWAP1 SWAP2 ADD SWAP1 SWAP2 ADD MSTORE DUP4 PUSH2 0x673 DUP2 PUSH2 0x20FF JUMP JUMPDEST SWAP5 POP POP PUSH1 0x1 ADD PUSH2 0x61C JUMP JUMPDEST POP POP DUP1 DUP1 PUSH2 0x68B SWAP1 PUSH2 0x20FF JUMP JUMPDEST SWAP2 POP POP PUSH2 0x5A6 JUMP JUMPDEST POP SWAP1 SWAP4 SWAP3 POP POP POP JUMP JUMPDEST PUSH1 0x0 DUP2 DUP2 MSTORE PUSH1 0x3 PUSH1 0x20 DUP2 DUP2 MSTORE PUSH1 0x40 SWAP3 DUP4 SWAP1 KECCAK256 SWAP1 SWAP2 ADD DUP1 SLOAD DUP4 MLOAD DUP2 DUP5 MUL DUP2 ADD DUP5 ADD SWAP1 SWAP5 MSTORE DUP1 DUP5 MSTORE PUSH1 0x60 SWAP4 SWAP3 DUP4 ADD DUP3 DUP3 DUP1 ISZERO PUSH2 0x43E JUMPI PUSH1 0x20 MUL DUP3 ADD SWAP2 SWAP1 PUSH1 0x0 MSTORE PUSH1 0x20 PUSH1 0x0 KECCAK256 SWAP1 DUP2 SLOAD PUSH1 0x1 PUSH1 0x1 PUSH1 0xA0 SHL SUB AND DUP2 MSTORE PUSH1 0x1 SWAP1 SWAP2 ADD SWAP1 PUSH1 0x20 ADD DUP1 DUP4 GT PUSH2 0x420 JUMPI POP POP POP POP POP SWAP1 POP SWAP2 SWAP1 POP JUMP JUMPDEST PUSH2 0x72E PUSH1 0x40 DUP1 MLOAD PUSH1 0x60 DUP2 ADD SWAP1 SWAP2 MSTORE DUP1 PUSH1 0x0 DUP2 MSTORE PUSH1 0x20 ADD PUSH1 0x0 DUP2 MSTORE PUSH1 0x20 ADD PUSH1 0x0 DUP2 MSTORE POP SWAP1 JUMP JUMPDEST PUSH1 0x0 DUP3 GT DUP1 ISZERO PUSH2 0x740 JUMPI POP PUSH1 0x2 SLOAD DUP3 GT ISZERO JUMPDEST PUSH2 0x75C JUMPI PUSH1 0x40 MLOAD PUSH3 0x461BCD PUSH1 0xE5 SHL DUP2 MSTORE PUSH1 0x4 ADD PUSH2 0x479 SWAP1 PUSH2 0x20AD JUMP JUMPDEST PUSH1 0x0 DUP3 DUP2 MSTORE PUSH1 0x3 PUSH1 0x20 MSTORE PUSH1 0x40 DUP1 DUP3 KECCAK256 DUP2 MLOAD PUSH1 0x60 DUP2 ADD SWAP1 SWAP3 MSTORE DUP1 SLOAD SWAP1 SWAP3 SWAP2 SWAP1 DUP2 SWAP1 PUSH1 0xFF AND PUSH1 0x4 DUP2 GT ISZERO PUSH2 0x790 JUMPI PUSH2 0x790 PUSH2 0x1E43 JUMP JUMPDEST DUP2 MSTORE PUSH1 0x2 DUP5 ADD SLOAD PUSH1 0x20 DUP3 ADD MSTORE PUSH1 0x1 SWAP1 SWAP4 ADD SLOAD PUSH1 0x40 SWAP1 SWAP4 ADD SWAP3 SWAP1 SWAP3 MSTORE POP SWAP3 SWAP2 POP POP JUMP JUMPDEST PUSH1 0x1 SLOAD PUSH1 0x60 SWAP1 PUSH1 0x1 PUSH1 0x1 PUSH1 0xA0 SHL SUB AND CALLER EQ PUSH2 0x7DF JUMPI PUSH1 0x40 MLOAD PUSH3 0x461BCD PUSH1 0xE5 SHL DUP2 MSTORE PUSH1 0x4 ADD PUSH2 0x479 SWAP1 PUSH2 0x2144 JUMP JUMPDEST PUSH2 0x7E7 PUSH2 0x168D JUMP JUMPDEST PUSH2 0x7EF PUSH2 0x179B JUMP JUMPDEST SWAP1 POP SWAP1 JUMP JUMPDEST PUSH2 0x7FC PUSH2 0x1918 JUMP JUMPDEST PUSH2 0x806 PUSH1 0x0 PUSH2 0x1945 JUMP JUMPDEST JUMP JUMPDEST PUSH1 0x1 PUSH1 0x1 PUSH1 0xA0 SHL SUB DUP2 AND PUSH1 0x0 SWAP1 DUP2 MSTORE PUSH1 0x5 PUSH1 0x20 MSTORE PUSH1 0x40 DUP2 KECCAK256 SLOAD PUSH1 0xFF AND PUSH2 0x830 JUMPI POP PUSH1 0x0 SWAP2 SWAP1 POP JUMP JUMPDEST POP PUSH1 0x1 PUSH1 0x1 PUSH1 0xA0 SHL SUB AND PUSH1 0x0 SWAP1 DUP2 MSTORE PUSH1 0x4 PUSH1 0x20 MSTORE PUSH1 0x40 SWAP1 KECCAK256 SLOAD SWAP1 JUMP JUMPDEST PUSH1 0x1 SLOAD PUSH1 0x1 PUSH1 0x1 PUSH1 0xA0 SHL SUB AND CALLER EQ PUSH2 0x876 JUMPI PUSH1 0x40 MLOAD PUSH3 0x461BCD PUSH1 0xE5 SHL DUP2 MSTORE PUSH1 0x4 ADD PUSH2 0x479 SWAP1 PUSH2 0x2144 JUMP JUMPDEST DUP3 PUSH2 0x8B9 JUMPI PUSH1 0x40 MLOAD PUSH3 0x461BCD PUSH1 0xE5 SHL DUP2 MSTORE PUSH1 0x20 PUSH1 0x4 DUP3 ADD MSTORE PUSH1 0x13 PUSH1 0x24 DUP3 ADD MSTORE PUSH19 0x139BC81C1B185E595C9CC81C1C9BDD9A591959 PUSH1 0x6A SHL PUSH1 0x44 DUP3 ADD MSTORE PUSH1 0x64 ADD PUSH2 0x479 JUMP JUMPDEST DUP3 DUP2 EQ PUSH2 0x908 JUMPI PUSH1 0x40 MLOAD PUSH3 0x461BCD PUSH1 0xE5 SHL DUP2 MSTORE PUSH1 0x20 PUSH1 0x4 DUP3 ADD MSTORE PUSH1 0x18 PUSH1 0x24 DUP3 ADD MSTORE PUSH32 0x4172726179206C656E67746873206D757374206D617463680000000000000000 PUSH1 0x44 DUP3 ADD MSTORE PUSH1 0x64 ADD PUSH2 0x479 JUMP JUMPDEST DUP3 PUSH1 0x0 PUSH1 0x14 PUSH1 0x1 PUSH2 0x919 DUP3 DUP6 PUSH2 0x20EC JUMP JUMPDEST PUSH2 0x923 SWAP2 SWAP1 PUSH2 0x217B JUMP JUMPDEST PUSH2 0x92D SWAP2 SWAP1 PUSH2 0x21A4 JUMP JUMPDEST SWAP1 POP PUSH1 0x0 PUSH2 0x93B DUP3 DUP5 PUSH2 0x21A4 JUMP JUMPDEST SWAP1 POP PUSH1 0x0 PUSH2 0x949 DUP4 DUP6 PUSH2 0x21B8 JUMP JUMPDEST SWAP1 POP PUSH1 0x0 DUP1 JUMPDEST DUP5 DUP2 LT ISZERO PUSH2 0xB7B JUMPI PUSH1 0x0 PUSH1 0x2 PUSH1 0x0 DUP2 SLOAD PUSH2 0x968 SWAP1 PUSH2 0x20FF JUMP JUMPDEST SWAP2 DUP3 SWAP1 SSTORE POP PUSH1 0x0 DUP2 DUP2 MSTORE PUSH1 0x3 PUSH1 0x20 MSTORE PUSH1 0x40 DUP2 KECCAK256 DUP1 SLOAD PUSH1 0xFF NOT AND PUSH1 0x1 OR DUP2 SSTORE PUSH1 0x2 DUP2 ADD SWAP2 SWAP1 SWAP2 SSTORE SWAP1 SWAP2 POP DUP6 DUP6 DUP5 LT ISZERO PUSH2 0x9A8 JUMPI PUSH2 0x9A5 PUSH1 0x1 DUP3 PUSH2 0x20EC JUMP JUMPDEST SWAP1 POP JUMPDEST PUSH1 0x0 JUMPDEST DUP2 DUP2 LT ISZERO PUSH2 0xB31 JUMPI PUSH1 0x0 DUP15 DUP15 DUP9 DUP2 DUP2 LT PUSH2 0x9C7 JUMPI PUSH2 0x9C7 PUSH2 0x212E JUMP JUMPDEST SWAP1 POP PUSH1 0x20 MUL ADD PUSH1 0x20 DUP2 ADD SWAP1 PUSH2 0x9DC SWAP2 SWAP1 PUSH2 0x1DC3 JUMP JUMPDEST SWAP1 POP PUSH1 0x1 PUSH1 0x1 PUSH1 0xA0 SHL SUB DUP2 AND PUSH2 0xA2D JUMPI PUSH1 0x40 MLOAD PUSH3 0x461BCD PUSH1 0xE5 SHL DUP2 MSTORE PUSH1 0x20 PUSH1 0x4 DUP3 ADD MSTORE PUSH1 0x16 PUSH1 0x24 DUP3 ADD MSTORE PUSH22 0x496E76616C696420706C617965722061646472657373 PUSH1 0x50 SHL PUSH1 0x44 DUP3 ADD MSTORE PUSH1 0x64 ADD PUSH2 0x479 JUMP JUMPDEST PUSH1 0x3 DUP5 ADD DUP1 SLOAD PUSH1 0x1 DUP2 ADD DUP3 SSTORE PUSH1 0x0 SWAP2 DUP3 MSTORE PUSH1 0x20 SWAP1 SWAP2 KECCAK256 ADD DUP1 SLOAD PUSH1 0x1 PUSH1 0x1 PUSH1 0xA0 SHL SUB NOT AND PUSH1 0x1 PUSH1 0x1 PUSH1 0xA0 SHL SUB DUP4 AND OR SWAP1 SSTORE DUP13 DUP13 DUP9 DUP2 DUP2 LT PUSH2 0xA6F JUMPI PUSH2 0xA6F PUSH2 0x212E JUMP JUMPDEST PUSH1 0x1 PUSH1 0x1 PUSH1 0xA0 SHL SUB DUP5 AND PUSH1 0x0 DUP2 DUP2 MSTORE PUSH1 0x5 DUP10 ADD PUSH1 0x20 SWAP1 DUP2 MSTORE PUSH1 0x40 DUP1 DUP4 KECCAK256 SWAP5 DUP3 MUL SWAP7 SWAP1 SWAP7 ADD CALLDATALOAD SWAP1 SWAP4 SSTORE PUSH1 0x4 DUP10 ADD DUP4 MSTORE DUP5 DUP2 KECCAK256 DUP1 SLOAD PUSH1 0x1 PUSH1 0xFF NOT SWAP2 DUP3 AND DUP2 OR SWAP1 SWAP3 SSTORE PUSH1 0x6 DUP12 ADD DUP1 SLOAD DUP1 DUP5 ADD DUP3 SSTORE SWAP1 DUP5 MSTORE DUP6 DUP5 KECCAK256 ADD DUP1 SLOAD PUSH1 0x1 PUSH1 0x1 PUSH1 0xA0 SHL SUB NOT AND DUP6 OR SWAP1 SSTORE SWAP3 DUP3 MSTORE PUSH1 0x7 DUP11 ADD SWAP1 SWAP4 MSTORE SWAP4 SWAP1 SWAP4 KECCAK256 DUP1 SLOAD SWAP1 SWAP4 AND OR SWAP1 SWAP2 SSTORE POP DUP7 PUSH2 0xAF3 DUP2 PUSH2 0x20FF JUMP JUMPDEST PUSH1 0x1 PUSH1 0x1 PUSH1 0xA0 SHL SUB SWAP1 SWAP3 AND PUSH1 0x0 SWAP1 DUP2 MSTORE PUSH1 0x4 PUSH1 0x20 SWAP1 DUP2 MSTORE PUSH1 0x40 DUP1 DUP4 KECCAK256 DUP10 SWAP1 SSTORE PUSH1 0x5 SWAP1 SWAP2 MSTORE SWAP1 KECCAK256 DUP1 SLOAD PUSH1 0xFF NOT AND PUSH1 0x1 SWAP1 DUP2 OR SWAP1 SWAP2 SSTORE SWAP2 SWAP8 POP POP ADD PUSH2 0x9AB JUMP JUMPDEST POP PUSH32 0xB66BA8FEAEC509998EF3217BC97FBF1A0F906B89FAC25A4ACE8DDFF059A41F12 DUP3 PUSH1 0x3 ADD DUP13 DUP13 PUSH1 0x40 MLOAD PUSH2 0xB68 SWAP4 SWAP3 SWAP2 SWAP1 PUSH2 0x2216 JUMP JUMPDEST PUSH1 0x40 MLOAD DUP1 SWAP2 SUB SWAP1 LOG1 POP POP POP PUSH1 0x1 ADD PUSH2 0x94F JUMP JUMPDEST POP POP POP POP POP POP POP POP POP POP JUMP JUMPDEST PUSH1 0x60 PUSH1 0x0 PUSH1 0x1 JUMPDEST PUSH1 0x2 SLOAD DUP2 GT PUSH2 0xBC8 JUMPI PUSH1 0x0 DUP2 DUP2 MSTORE PUSH1 0x3 PUSH1 0x20 DUP2 SWAP1 MSTORE PUSH1 0x40 SWAP1 SWAP2 KECCAK256 ADD SLOAD PUSH2 0xBB4 SWAP1 DUP4 PUSH2 0x20EC JUMP JUMPDEST SWAP2 POP DUP1 PUSH2 0xBC0 DUP2 PUSH2 0x20FF JUMP JUMPDEST SWAP2 POP POP PUSH2 0xB8E JUMP JUMPDEST POP PUSH1 0x0 DUP2 PUSH8 0xFFFFFFFFFFFFFFFF DUP2 GT ISZERO PUSH2 0xBE4 JUMPI PUSH2 0xBE4 PUSH2 0x2118 JUMP JUMPDEST PUSH1 0x40 MLOAD SWAP1 DUP1 DUP3 MSTORE DUP1 PUSH1 0x20 MUL PUSH1 0x20 ADD DUP3 ADD PUSH1 0x40 MSTORE DUP1 ISZERO PUSH2 0xC0D JUMPI DUP2 PUSH1 0x20 ADD PUSH1 0x20 DUP3 MUL DUP1 CALLDATASIZE DUP4 CALLDATACOPY ADD SWAP1 POP JUMPDEST POP SWAP1 POP PUSH1 0x0 PUSH1 0x1 JUMPDEST PUSH1 0x2 SLOAD DUP2 GT PUSH2 0x693 JUMPI PUSH1 0x0 DUP2 DUP2 MSTORE PUSH1 0x3 PUSH1 0x20 DUP2 DUP2 MSTORE PUSH1 0x40 DUP1 DUP5 KECCAK256 SWAP1 SWAP3 ADD DUP1 SLOAD DUP4 MLOAD DUP2 DUP5 MUL DUP2 ADD DUP5 ADD SWAP1 SWAP5 MSTORE DUP1 DUP5 MSTORE SWAP1 SWAP2 DUP4 ADD DUP3 DUP3 DUP1 ISZERO PUSH2 0xC7E JUMPI PUSH1 0x20 MUL DUP3 ADD SWAP2 SWAP1 PUSH1 0x0 MSTORE PUSH1 0x20 PUSH1 0x0 KECCAK256 SWAP1 JUMPDEST DUP2 SLOAD PUSH1 0x1 PUSH1 0x1 PUSH1 0xA0 SHL SUB AND DUP2 MSTORE PUSH1 0x1 SWAP1 SWAP2 ADD SWAP1 PUSH1 0x20 ADD DUP1 DUP4 GT PUSH2 0xC60 JUMPI JUMPDEST POP POP POP POP POP SWAP1 POP PUSH1 0x0 JUMPDEST DUP2 MLOAD DUP2 LT ISZERO PUSH2 0xCEA JUMPI DUP2 DUP2 DUP2 MLOAD DUP2 LT PUSH2 0xCA3 JUMPI PUSH2 0xCA3 PUSH2 0x212E JUMP JUMPDEST PUSH1 0x20 MUL PUSH1 0x20 ADD ADD MLOAD DUP6 DUP6 DUP2 MLOAD DUP2 LT PUSH2 0xCBD JUMPI PUSH2 0xCBD PUSH2 0x212E JUMP JUMPDEST PUSH1 0x1 PUSH1 0x1 PUSH1 0xA0 SHL SUB SWAP1 SWAP3 AND PUSH1 0x20 SWAP3 DUP4 MUL SWAP2 SWAP1 SWAP2 ADD SWAP1 SWAP2 ADD MSTORE DUP4 PUSH2 0xCDF DUP2 PUSH2 0x20FF JUMP JUMPDEST SWAP5 POP POP PUSH1 0x1 ADD PUSH2 0xC88 JUMP JUMPDEST POP POP DUP1 DUP1 PUSH2 0xCF7 SWAP1 PUSH2 0x20FF JUMP JUMPDEST SWAP2 POP POP PUSH2 0xC15 JUMP JUMPDEST PUSH2 0xD07 PUSH2 0x1918 JUMP JUMPDEST PUSH1 0x1 PUSH1 0x1 PUSH1 0xA0 SHL SUB DUP2 AND PUSH2 0xD5D JUMPI PUSH1 0x40 MLOAD PUSH3 0x461BCD PUSH1 0xE5 SHL DUP2 MSTORE PUSH1 0x20 PUSH1 0x4 DUP3 ADD MSTORE PUSH1 0x1A PUSH1 0x24 DUP3 ADD MSTORE PUSH32 0x496E76616C69642047616D654D61737465722061646472657373000000000000 PUSH1 0x44 DUP3 ADD MSTORE PUSH1 0x64 ADD PUSH2 0x479 JUMP JUMPDEST PUSH1 0x1 DUP1 SLOAD PUSH1 0x1 PUSH1 0x1 PUSH1 0xA0 SHL SUB NOT AND PUSH1 0x1 PUSH1 0x1 PUSH1 0xA0 SHL SUB DUP4 AND SWAP1 DUP2 OR SWAP1 SWAP2 SSTORE PUSH1 0x40 MLOAD SWAP1 DUP2 MSTORE PUSH32 0x63860F6674590A6969C4FE1DC738A9C8F955407C09E6C67A6BDB818F4C35CD8A SWAP1 PUSH1 0x20 ADD PUSH1 0x40 MLOAD DUP1 SWAP2 SUB SWAP1 LOG1 POP JUMP JUMPDEST PUSH1 0x60 PUSH1 0x0 DUP1 PUSH1 0x0 DUP1 PUSH1 0x2 SLOAD PUSH8 0xFFFFFFFFFFFFFFFF DUP2 GT ISZERO PUSH2 0xDD4 JUMPI PUSH2 0xDD4 PUSH2 0x2118 JUMP JUMPDEST PUSH1 0x40 MLOAD SWAP1 DUP1 DUP3 MSTORE DUP1 PUSH1 0x20 MUL PUSH1 0x20 ADD DUP3 ADD PUSH1 0x40 MSTORE DUP1 ISZERO PUSH2 0xE0D JUMPI DUP2 PUSH1 0x20 ADD JUMPDEST PUSH2 0xDFA PUSH2 0x1D4A JUMP JUMPDEST DUP2 MSTORE PUSH1 0x20 ADD SWAP1 PUSH1 0x1 SWAP1 SUB SWAP1 DUP2 PUSH2 0xDF2 JUMPI SWAP1 POP JUMPDEST POP SWAP5 POP PUSH1 0x0 SWAP4 POP DUP4 SWAP3 POP DUP3 SWAP1 POP PUSH1 0x1 JUMPDEST PUSH1 0x2 SLOAD DUP2 GT PUSH2 0xEF8 JUMPI PUSH1 0x0 DUP2 DUP2 MSTORE PUSH1 0x3 PUSH1 0x20 SWAP1 DUP2 MSTORE PUSH1 0x40 SWAP2 DUP3 SWAP1 KECCAK256 DUP3 MLOAD PUSH1 0x60 DUP2 ADD DUP5 MSTORE PUSH1 0x6 DUP3 ADD SLOAD DUP2 MSTORE PUSH1 0x2 DUP3 ADD SLOAD SWAP3 DUP2 ADD SWAP3 SWAP1 SWAP3 MSTORE DUP1 SLOAD SWAP1 SWAP3 DUP3 ADD SWAP1 PUSH1 0xFF AND PUSH1 0x4 DUP2 GT ISZERO PUSH2 0xE6E JUMPI PUSH2 0xE6E PUSH2 0x1E43 JUMP JUMPDEST SWAP1 MSTORE DUP8 PUSH2 0xE7C PUSH1 0x1 DUP6 PUSH2 0x217B JUMP JUMPDEST DUP2 MLOAD DUP2 LT PUSH2 0xE8C JUMPI PUSH2 0xE8C PUSH2 0x212E JUMP JUMPDEST PUSH1 0x20 SWAP1 DUP2 MUL SWAP2 SWAP1 SWAP2 ADD ADD MSTORE PUSH1 0x3 DUP2 ADD SLOAD PUSH2 0xEA6 SWAP1 DUP8 PUSH2 0x20EC JUMP JUMPDEST PUSH1 0x6 DUP3 ADD SLOAD SWAP1 SWAP7 POP PUSH2 0xEB8 SWAP1 DUP7 PUSH2 0x20EC JUMP JUMPDEST SWAP5 POP PUSH1 0x4 DUP2 SLOAD PUSH1 0xFF AND PUSH1 0x4 DUP2 GT ISZERO PUSH2 0xED2 JUMPI PUSH2 0xED2 PUSH2 0x1E43 JUMP JUMPDEST EQ PUSH2 0xEE5 JUMPI DUP3 PUSH2 0xEE1 DUP2 PUSH2 0x20FF JUMP JUMPDEST SWAP4 POP POP JUMPDEST POP DUP1 PUSH2 0xEF0 DUP2 PUSH2 0x20FF JUMP JUMPDEST SWAP2 POP POP PUSH2 0xE1D JUMP JUMPDEST POP PUSH2 0xF03 DUP4 DUP6 PUSH2 0x217B JUMP JUMPDEST SWAP2 POP SWAP1 SWAP2 SWAP3 SWAP4 SWAP5 JUMP JUMPDEST PUSH1 0x1 SLOAD PUSH1 0x1 PUSH1 0x1 PUSH1 0xA0 SHL SUB AND CALLER EQ PUSH2 0xF36 JUMPI PUSH1 0x40 MLOAD PUSH3 0x461BCD PUSH1 0xE5 SHL DUP2 MSTORE PUSH1 0x4 ADD PUSH2 0x479 SWAP1 PUSH2 0x2144 JUMP JUMPDEST PUSH1 0x1 JUMPDEST PUSH1 0x2 SLOAD DUP2 GT PUSH2 0x1061 JUMPI PUSH1 0x0 DUP2 DUP2 MSTORE PUSH1 0x3 PUSH1 0x20 MSTORE PUSH1 0x40 SWAP1 KECCAK256 PUSH1 0x2 DUP2 SLOAD PUSH1 0xFF AND PUSH1 0x4 DUP2 GT ISZERO PUSH2 0xF68 JUMPI PUSH2 0xF68 PUSH2 0x1E43 JUMP JUMPDEST EQ DUP1 ISZERO PUSH2 0xF78 JUMPI POP DUP1 PUSH1 0x1 ADD SLOAD TIMESTAMP GT JUMPDEST ISZERO PUSH2 0x104E JUMPI PUSH1 0x6 DUP2 ADD SLOAD PUSH1 0x0 JUMPDEST DUP2 DUP2 LT ISZERO PUSH2 0xFCF JUMPI PUSH1 0x0 DUP4 PUSH1 0x6 ADD PUSH1 0x0 DUP2 SLOAD DUP2 LT PUSH2 0xFA5 JUMPI PUSH2 0xFA5 PUSH2 0x212E JUMP JUMPDEST PUSH1 0x0 SWAP2 DUP3 MSTORE PUSH1 0x20 SWAP1 SWAP2 KECCAK256 ADD SLOAD PUSH1 0x1 PUSH1 0x1 PUSH1 0xA0 SHL SUB AND SWAP1 POP PUSH2 0xFC6 DUP6 DUP3 PUSH2 0x1995 JUMP JUMPDEST POP PUSH1 0x1 ADD PUSH2 0xF85 JUMP JUMPDEST POP DUP2 SLOAD PUSH1 0xFF NOT AND PUSH1 0x4 OR DUP3 SSTORE PUSH1 0x40 DUP1 MLOAD PUSH1 0x0 DUP2 MSTORE PUSH1 0x20 DUP2 ADD SWAP2 DUP3 SWAP1 MSTORE DUP5 SWAP2 PUSH1 0x0 DUP1 MLOAD PUSH1 0x20 PUSH2 0x22A1 DUP4 CODECOPY DUP2 MLOAD SWAP2 MSTORE SWAP2 PUSH2 0x1006 SWAP2 PUSH2 0x1DF7 JUMP JUMPDEST PUSH1 0x40 MLOAD DUP1 SWAP2 SUB SWAP1 LOG2 DUP3 PUSH32 0x8868888CC18628A149BC88CC32A91976AB30E2CD9AECECB0CFE184A73FE551F9 DUP4 PUSH1 0x2 ADD SLOAD PUSH1 0x40 MLOAD PUSH2 0x1044 SWAP2 DUP2 MSTORE PUSH1 0x20 ADD SWAP1 JUMP JUMPDEST PUSH1 0x40 MLOAD DUP1 SWAP2 SUB SWAP1 LOG2 POP JUMPDEST POP DUP1 PUSH2 0x1059 DUP2 PUSH2 0x20FF JUMP JUMPDEST SWAP2 POP POP PUSH2 0xF39 JUMP JUMPDEST POP JUMP JUMPDEST CALLER PUSH1 0x0 SWAP1 DUP2 MSTORE PUSH1 0x5 PUSH1 0x20 MSTORE PUSH1 0x40 DUP2 KECCAK256 SLOAD PUSH1 0xFF AND PUSH2 0x10BC JUMPI PUSH1 0x40 MLOAD PUSH3 0x461BCD PUSH1 0xE5 SHL DUP2 MSTORE PUSH1 0x20 PUSH1 0x4 DUP3 ADD MSTORE PUSH1 0x16 PUSH1 0x24 DUP3 ADD MSTORE PUSH22 0x506C61796572206E6F7420696E20616E792067616D65 PUSH1 0x50 SHL PUSH1 0x44 DUP3 ADD MSTORE PUSH1 0x64 ADD PUSH2 0x479 JUMP JUMPDEST CALLER PUSH1 0x0 SWAP1 DUP2 MSTORE PUSH1 0x4 PUSH1 0x20 SWAP1 DUP2 MSTORE PUSH1 0x40 DUP1 DUP4 KECCAK256 SLOAD DUP1 DUP5 MSTORE PUSH1 0x3 SWAP1 SWAP3 MSTORE SWAP1 SWAP2 KECCAK256 PUSH1 0x2 DUP2 SLOAD PUSH1 0xFF AND PUSH1 0x4 DUP2 GT ISZERO PUSH2 0x10F2 JUMPI PUSH2 0x10F2 PUSH2 0x1E43 JUMP JUMPDEST EQ PUSH2 0x1131 JUMPI PUSH1 0x40 MLOAD PUSH3 0x461BCD PUSH1 0xE5 SHL DUP2 MSTORE PUSH1 0x20 PUSH1 0x4 DUP3 ADD MSTORE PUSH1 0xF PUSH1 0x24 DUP3 ADD MSTORE PUSH15 0x47616D65206E6F7420616374697665 PUSH1 0x88 SHL PUSH1 0x44 DUP3 ADD MSTORE PUSH1 0x64 ADD PUSH2 0x479 JUMP JUMPDEST CALLER PUSH1 0x0 SWAP1 DUP2 MSTORE PUSH1 0x7 DUP3 ADD PUSH1 0x20 MSTORE PUSH1 0x40 SWAP1 KECCAK256 SLOAD PUSH1 0xFF AND PUSH2 0x1189 JUMPI PUSH1 0x40 MLOAD PUSH3 0x461BCD PUSH1 0xE5 SHL DUP2 MSTORE PUSH1 0x20 PUSH1 0x4 DUP3 ADD MSTORE PUSH1 0x14 PUSH1 0x24 DUP3 ADD MSTORE PUSH20 0x2737BA1030B71030B1BA34BB3290383630BCB2B9 PUSH1 0x61 SHL PUSH1 0x44 DUP3 ADD MSTORE PUSH1 0x64 ADD PUSH2 0x479 JUMP JUMPDEST DUP1 PUSH1 0x1 ADD SLOAD TIMESTAMP GT ISZERO PUSH2 0x126E JUMPI PUSH1 0x6 DUP2 ADD SLOAD PUSH1 0x0 JUMPDEST DUP2 DUP2 LT ISZERO PUSH2 0x11E7 JUMPI PUSH1 0x0 DUP4 PUSH1 0x6 ADD PUSH1 0x0 DUP2 SLOAD DUP2 LT PUSH2 0x11BD JUMPI PUSH2 0x11BD PUSH2 0x212E JUMP JUMPDEST PUSH1 0x0 SWAP2 DUP3 MSTORE PUSH1 0x20 SWAP1 SWAP2 KECCAK256 ADD SLOAD PUSH1 0x1 PUSH1 0x1 PUSH1 0xA0 SHL SUB AND SWAP1 POP PUSH2 0x11DE DUP6 DUP3 PUSH2 0x1995 JUMP JUMPDEST POP PUSH1 0x1 ADD PUSH2 0x119D JUMP JUMPDEST POP DUP2 SLOAD PUSH1 0xFF NOT AND PUSH1 0x4 OR DUP3 SSTORE PUSH1 0x40 DUP1 MLOAD PUSH1 0x0 DUP2 MSTORE PUSH1 0x20 DUP2 ADD SWAP2 DUP3 SWAP1 MSTORE DUP5 SWAP2 PUSH1 0x0 DUP1 MLOAD PUSH1 0x20 PUSH2 0x22A1 DUP4 CODECOPY DUP2 MLOAD SWAP2 MSTORE SWAP2 PUSH2 0x121E SWAP2 PUSH2 0x1DF7 JUMP JUMPDEST PUSH1 0x40 MLOAD DUP1 SWAP2 SUB SWAP1 LOG2 DUP3 PUSH32 0x8868888CC18628A149BC88CC32A91976AB30E2CD9AECECB0CFE184A73FE551F9 DUP4 PUSH1 0x2 ADD SLOAD PUSH1 0x40 MLOAD PUSH2 0x125C SWAP2 DUP2 MSTORE PUSH1 0x20 ADD SWAP1 JUMP JUMPDEST PUSH1 0x40 MLOAD DUP1 SWAP2 SUB SWAP1 LOG2 PUSH1 0x0 SWAP4 POP POP POP POP SWAP1 JUMP JUMPDEST CALLER PUSH1 0x0 SWAP1 DUP2 MSTORE PUSH1 0x8 DUP3 ADD PUSH1 0x20 MSTORE PUSH1 0x40 DUP2 KECCAK256 DUP1 SLOAD SWAP2 PUSH2 0x128B DUP4 PUSH2 0x20FF JUMP JUMPDEST SWAP1 SWAP2 SSTORE POP PUSH1 0x0 SWAP1 POP PUSH2 0x129E PUSH1 0x1 NUMBER PUSH2 0x217B JUMP JUMPDEST PUSH1 0x2 DUP4 ADD SLOAD PUSH1 0x40 DUP1 MLOAD SWAP3 BLOCKHASH PUSH1 0x20 DUP5 ADD MSTORE TIMESTAMP SWAP1 DUP4 ADD MSTORE PUSH12 0xFFFFFFFFFFFFFFFFFFFFFFFF NOT CALLER PUSH1 0x60 SWAP1 DUP2 SHL DUP3 AND DUP2 DUP6 ADD MSTORE PUSH1 0x74 DUP5 ADD SWAP3 SWAP1 SWAP3 MSTORE PUSH1 0x94 DUP4 ADD DUP7 SWAP1 MSTORE ADDRESS SWAP1 SWAP2 SHL AND PUSH1 0xB4 DUP3 ADD MSTORE PUSH1 0xC8 ADD PUSH1 0x40 DUP1 MLOAD PUSH1 0x1F NOT DUP2 DUP5 SUB ADD DUP2 MSTORE SWAP2 SWAP1 MSTORE DUP1 MLOAD PUSH1 0x20 SWAP1 SWAP2 ADD KECCAK256 SWAP1 POP PUSH1 0x0 PUSH2 0x1310 PUSH1 0x2 DUP4 PUSH2 0x21B8 JUMP JUMPDEST PUSH1 0x40 MLOAD SWAP1 ISZERO DUP1 DUP3 MSTORE SWAP2 POP CALLER SWAP1 DUP6 SWAP1 PUSH32 0x4FFF61170B45E4C2809F07A4BB02837D17FCDC209A7CB683FF938C9AA374100D SWAP1 PUSH1 0x20 ADD PUSH1 0x40 MLOAD DUP1 SWAP2 SUB SWAP1 LOG3 DUP1 PUSH2 0x136E JUMPI PUSH2 0x135A DUP5 CALLER PUSH2 0x1995 JUMP JUMPDEST PUSH2 0x1363 DUP5 PUSH2 0x1B99 JUMP JUMPDEST PUSH1 0x0 SWAP5 POP POP POP POP POP SWAP1 JUMP JUMPDEST PUSH2 0x1377 DUP5 PUSH2 0x1B99 JUMP JUMPDEST PUSH2 0x1380 DUP5 PUSH2 0x1C4C JUMP JUMPDEST PUSH1 0x1 SWAP5 POP POP POP POP POP SWAP1 JUMP JUMPDEST PUSH1 0x1 SLOAD PUSH1 0x0 SWAP1 PUSH1 0x1 PUSH1 0x1 PUSH1 0xA0 SHL SUB AND CALLER EQ PUSH2 0x13B8 JUMPI PUSH1 0x40 MLOAD PUSH3 0x461BCD PUSH1 0xE5 SHL DUP2 MSTORE PUSH1 0x4 ADD PUSH2 0x479 SWAP1 PUSH2 0x2144 JUMP JUMPDEST PUSH1 0x1 PUSH1 0x0 DUP2 JUMPDEST PUSH1 0x2 SLOAD DUP2 GT PUSH2 0x14CD JUMPI PUSH1 0x0 DUP2 DUP2 MSTORE PUSH1 0x3 PUSH1 0x20 MSTORE PUSH1 0x40 SWAP1 KECCAK256 PUSH1 0x4 DUP2 SLOAD PUSH1 0xFF AND PUSH1 0x4 DUP2 GT ISZERO PUSH2 0x13ED JUMPI PUSH2 0x13ED PUSH2 0x1E43 JUMP JUMPDEST SUB PUSH2 0x13F8 JUMPI POP PUSH2 0x14BB JUMP JUMPDEST DUP3 PUSH2 0x1402 DUP2 PUSH2 0x20FF JUMP JUMPDEST SWAP4 POP PUSH1 0x1 SWAP1 POP DUP2 SLOAD PUSH1 0xFF AND PUSH1 0x4 DUP2 GT ISZERO PUSH2 0x141E JUMPI PUSH2 0x141E PUSH2 0x1E43 JUMP JUMPDEST EQ DUP1 ISZERO PUSH2 0x142E JUMPI POP PUSH1 0x6 DUP2 ADD SLOAD ISZERO ISZERO JUMPDEST DUP1 ISZERO PUSH2 0x143C JUMPI POP PUSH1 0x2 DUP2 ADD SLOAD ISZERO JUMPDEST ISZERO PUSH2 0x14B4 JUMPI PUSH1 0x1 PUSH1 0x2 DUP3 DUP2 ADD DUP3 SWAP1 SSTORE DUP3 SLOAD PUSH1 0xFF NOT AND OR DUP3 SSTORE PUSH2 0x145D SWAP1 PUSH2 0x1D1C JUMP JUMPDEST PUSH2 0x1467 SWAP1 TIMESTAMP PUSH2 0x20EC JUMP JUMPDEST PUSH1 0x1 DUP3 ADD DUP2 SWAP1 SSTORE PUSH1 0x2 DUP3 ADD SLOAD PUSH1 0x40 DUP1 MLOAD SWAP2 DUP3 MSTORE PUSH1 0x20 DUP3 ADD SWAP3 SWAP1 SWAP3 MSTORE DUP4 SWAP2 PUSH32 0xA359B664A68ACD8839E42112EB50EFF3408165E15074FDE89DDB58A0DB2E691D SWAP2 ADD PUSH1 0x40 MLOAD DUP1 SWAP2 SUB SWAP1 LOG2 PUSH2 0x14B9 JUMP JUMPDEST PUSH1 0x0 SWAP4 POP JUMPDEST POP JUMPDEST DUP1 PUSH2 0x14C5 DUP2 PUSH2 0x20FF JUMP JUMPDEST SWAP2 POP POP PUSH2 0x13BE JUMP JUMPDEST POP DUP1 PUSH1 0x0 SUB PUSH2 0x14DF JUMPI PUSH1 0x1 SWAP3 POP POP POP SWAP1 JUMP JUMPDEST POP SWAP1 POP SWAP1 JUMP JUMPDEST PUSH1 0x60 PUSH1 0x0 DUP3 GT DUP1 ISZERO PUSH2 0x14F9 JUMPI POP PUSH1 0x2 SLOAD DUP3 GT ISZERO JUMPDEST PUSH2 0x1515 JUMPI PUSH1 0x40 MLOAD PUSH3 0x461BCD PUSH1 0xE5 SHL DUP2 MSTORE PUSH1 0x4 ADD PUSH2 0x479 SWAP1 PUSH2 0x20AD JUMP JUMPDEST PUSH1 0x0 DUP3 DUP2 MSTORE PUSH1 0x3 PUSH1 0x20 DUP2 SWAP1 MSTORE PUSH1 0x40 DUP3 KECCAK256 SWAP1 DUP2 ADD SLOAD SWAP1 SWAP2 SWAP1 PUSH8 0xFFFFFFFFFFFFFFFF DUP2 GT ISZERO PUSH2 0x1544 JUMPI PUSH2 0x1544 PUSH2 0x2118 JUMP JUMPDEST PUSH1 0x40 MLOAD SWAP1 DUP1 DUP3 MSTORE DUP1 PUSH1 0x20 MUL PUSH1 0x20 ADD DUP3 ADD PUSH1 0x40 MSTORE DUP1 ISZERO PUSH2 0x1596 JUMPI DUP2 PUSH1 0x20 ADD JUMPDEST PUSH1 0x40 DUP1 MLOAD PUSH1 0x80 DUP2 ADD DUP3 MSTORE PUSH1 0x0 DUP1 DUP3 MSTORE PUSH1 0x20 DUP1 DUP4 ADD DUP3 SWAP1 MSTORE SWAP3 DUP3 ADD DUP2 SWAP1 MSTORE PUSH1 0x60 DUP3 ADD MSTORE DUP3 MSTORE PUSH1 0x0 NOT SWAP1 SWAP3 ADD SWAP2 ADD DUP2 PUSH2 0x1562 JUMPI SWAP1 POP JUMPDEST POP SWAP1 POP PUSH1 0x0 JUMPDEST PUSH1 0x3 DUP4 ADD SLOAD DUP2 LT ISZERO PUSH2 0x164A JUMPI PUSH1 0x0 DUP4 PUSH1 0x3 ADD DUP3 DUP2 SLOAD DUP2 LT PUSH2 0x15BF JUMPI PUSH2 0x15BF PUSH2 0x212E JUMP JUMPDEST PUSH1 0x0 SWAP2 DUP3 MSTORE PUSH1 0x20 DUP1 DUP4 KECCAK256 SWAP1 SWAP2 ADD SLOAD PUSH1 0x40 DUP1 MLOAD PUSH1 0x80 DUP2 ADD DUP3 MSTORE PUSH1 0x1 PUSH1 0x1 PUSH1 0xA0 SHL SUB SWAP1 SWAP3 AND DUP1 DUP4 MSTORE DUP1 DUP6 MSTORE PUSH1 0x5 DUP10 ADD DUP5 MSTORE DUP2 DUP6 KECCAK256 SLOAD DUP4 DUP6 ADD MSTORE DUP1 DUP6 MSTORE PUSH1 0x7 DUP10 ADD DUP5 MSTORE DUP2 DUP6 KECCAK256 SLOAD PUSH1 0xFF AND ISZERO ISZERO DUP4 DUP4 ADD MSTORE DUP1 DUP6 MSTORE PUSH1 0x8 DUP10 ADD SWAP1 SWAP4 MSTORE SWAP1 SWAP3 KECCAK256 SLOAD PUSH1 0x60 DUP4 ADD MSTORE DUP5 MLOAD SWAP1 SWAP3 POP DUP5 SWAP1 DUP5 SWAP1 DUP2 LT PUSH2 0x1636 JUMPI PUSH2 0x1636 PUSH2 0x212E JUMP JUMPDEST PUSH1 0x20 SWAP1 DUP2 MUL SWAP2 SWAP1 SWAP2 ADD ADD MSTORE POP PUSH1 0x1 ADD PUSH2 0x159C JUMP JUMPDEST POP SWAP4 SWAP3 POP POP POP JUMP JUMPDEST PUSH2 0x165A PUSH2 0x1918 JUMP JUMPDEST PUSH1 0x1 PUSH1 0x1 PUSH1 0xA0 SHL SUB DUP2 AND PUSH2 0x1684 JUMPI PUSH1 0x40 MLOAD PUSH4 0x1E4FBDF7 PUSH1 0xE0 SHL DUP2 MSTORE PUSH1 0x0 PUSH1 0x4 DUP3 ADD MSTORE PUSH1 0x24 ADD PUSH2 0x479 JUMP JUMPDEST PUSH2 0x1061 DUP2 PUSH2 0x1945 JUMP JUMPDEST PUSH1 0x1 JUMPDEST PUSH1 0x2 SLOAD DUP2 GT PUSH2 0x1061 JUMPI PUSH1 0x0 DUP2 DUP2 MSTORE PUSH1 0x3 PUSH1 0x20 MSTORE PUSH1 0x40 SWAP1 KECCAK256 PUSH1 0x2 DUP2 ADD SLOAD PUSH1 0xA GT ISZERO DUP1 PUSH2 0x16D0 JUMPI POP PUSH1 0x4 DUP2 SLOAD PUSH1 0xFF AND PUSH1 0x4 DUP2 GT ISZERO PUSH2 0x16CE JUMPI PUSH2 0x16CE PUSH2 0x1E43 JUMP JUMPDEST EQ JUMPDEST PUSH2 0x1734 JUMPI PUSH1 0x40 MLOAD PUSH3 0x461BCD PUSH1 0xE5 SHL DUP2 MSTORE PUSH1 0x20 PUSH1 0x4 DUP3 ADD MSTORE PUSH1 0x2F PUSH1 0x24 DUP3 ADD MSTORE PUSH32 0x4E6F7420616C6C20696E7374616E636573206861766520636F6D706C65746564 PUSH1 0x44 DUP3 ADD MSTORE PUSH15 0x206D6178696D756D20726F756E6473 PUSH1 0x88 SHL PUSH1 0x64 DUP3 ADD MSTORE PUSH1 0x84 ADD PUSH2 0x479 JUMP JUMPDEST PUSH1 0x4 DUP2 SLOAD PUSH1 0xFF AND PUSH1 0x4 DUP2 GT ISZERO PUSH2 0x174C JUMPI PUSH2 0x174C PUSH2 0x1E43 JUMP JUMPDEST EQ PUSH2 0x1788 JUMPI DUP1 SLOAD PUSH1 0xFF NOT AND PUSH1 0x4 OR DUP2 SSTORE PUSH1 0x40 MLOAD DUP3 SWAP1 PUSH1 0x0 DUP1 MLOAD PUSH1 0x20 PUSH2 0x22A1 DUP4 CODECOPY DUP2 MLOAD SWAP2 MSTORE SWAP1 PUSH2 0x177F SWAP1 PUSH1 0x6 DUP6 ADD SWAP1 PUSH2 0x2260 JUMP JUMPDEST PUSH1 0x40 MLOAD DUP1 SWAP2 SUB SWAP1 LOG2 JUMPDEST POP DUP1 PUSH2 0x1793 DUP2 PUSH2 0x20FF JUMP JUMPDEST SWAP2 POP POP PUSH2 0x1690 JUMP JUMPDEST PUSH1 0x60 PUSH1 0x0 PUSH1 0x1 JUMPDEST PUSH1 0x2 SLOAD DUP2 GT PUSH2 0x17DB JUMPI PUSH1 0x0 DUP2 DUP2 MSTORE PUSH1 0x3 PUSH1 0x20 MSTORE PUSH1 0x40 SWAP1 KECCAK256 PUSH1 0x6 ADD SLOAD PUSH2 0x17C7 SWAP1 DUP4 PUSH2 0x20EC JUMP JUMPDEST SWAP2 POP DUP1 PUSH2 0x17D3 DUP2 PUSH2 0x20FF JUMP JUMPDEST SWAP2 POP POP PUSH2 0x17A2 JUMP JUMPDEST POP DUP1 PUSH8 0xFFFFFFFFFFFFFFFF DUP2 GT ISZERO PUSH2 0x17F5 JUMPI PUSH2 0x17F5 PUSH2 0x2118 JUMP JUMPDEST PUSH1 0x40 MLOAD SWAP1 DUP1 DUP3 MSTORE DUP1 PUSH1 0x20 MUL PUSH1 0x20 ADD DUP3 ADD PUSH1 0x40 MSTORE DUP1 ISZERO PUSH2 0x181E JUMPI DUP2 PUSH1 0x20 ADD PUSH1 0x20 DUP3 MUL DUP1 CALLDATASIZE DUP4 CALLDATACOPY ADD SWAP1 POP JUMPDEST POP SWAP2 POP PUSH1 0x0 PUSH1 0x1 JUMPDEST PUSH1 0x2 SLOAD DUP2 GT PUSH2 0x1912 JUMPI PUSH1 0x0 DUP2 DUP2 MSTORE PUSH1 0x3 PUSH1 0x20 SWAP1 DUP2 MSTORE PUSH1 0x40 DUP1 DUP4 KECCAK256 PUSH1 0x6 ADD DUP1 SLOAD DUP3 MLOAD DUP2 DUP6 MUL DUP2 ADD DUP6 ADD SWAP1 SWAP4 MSTORE DUP1 DUP4 MSTORE SWAP2 SWAP3 SWAP1 SWAP2 SWAP1 DUP4 ADD DUP3 DUP3 DUP1 ISZERO PUSH2 0x1892 JUMPI PUSH1 0x20 MUL DUP3 ADD SWAP2 SWAP1 PUSH1 0x0 MSTORE PUSH1 0x20 PUSH1 0x0 KECCAK256 SWAP1 JUMPDEST DUP2 SLOAD PUSH1 0x1 PUSH1 0x1 PUSH1 0xA0 SHL SUB AND DUP2 MSTORE PUSH1 0x1 SWAP1 SWAP2 ADD SWAP1 PUSH1 0x20 ADD DUP1 DUP4 GT PUSH2 0x1874 JUMPI JUMPDEST POP POP POP POP POP SWAP1 POP PUSH1 0x0 JUMPDEST DUP2 MLOAD DUP2 LT ISZERO PUSH2 0x18FD JUMPI DUP2 DUP2 DUP2 MLOAD DUP2 LT PUSH2 0x18B7 JUMPI PUSH2 0x18B7 PUSH2 0x212E JUMP JUMPDEST PUSH1 0x20 MUL PUSH1 0x20 ADD ADD MLOAD DUP7 DUP6 DUP1 PUSH2 0x18CB SWAP1 PUSH2 0x20FF JUMP JUMPDEST SWAP7 POP DUP2 MLOAD DUP2 LT PUSH2 0x18DD JUMPI PUSH2 0x18DD PUSH2 0x212E JUMP JUMPDEST PUSH1 0x1 PUSH1 0x1 PUSH1 0xA0 SHL SUB SWAP1 SWAP3 AND PUSH1 0x20 SWAP3 DUP4 MUL SWAP2 SWAP1 SWAP2 ADD SWAP1 SWAP2 ADD MSTORE PUSH1 0x1 ADD PUSH2 0x189C JUMP JUMPDEST POP POP DUP1 DUP1 PUSH2 0x190A SWAP1 PUSH2 0x20FF JUMP JUMPDEST SWAP2 POP POP PUSH2 0x1826 JUMP JUMPDEST POP POP POP SWAP1 JUMP JUMPDEST PUSH1 0x0 SLOAD PUSH1 0x1 PUSH1 0x1 PUSH1 0xA0 SHL SUB AND CALLER EQ PUSH2 0x806 JUMPI PUSH1 0x40 MLOAD PUSH4 0x118CDAA7 PUSH1 0xE0 SHL DUP2 MSTORE CALLER PUSH1 0x4 DUP3 ADD MSTORE PUSH1 0x24 ADD PUSH2 0x479 JUMP JUMPDEST PUSH1 0x0 DUP1 SLOAD PUSH1 0x1 PUSH1 0x1 PUSH1 0xA0 SHL SUB DUP4 DUP2 AND PUSH1 0x1 PUSH1 0x1 PUSH1 0xA0 SHL SUB NOT DUP4 AND DUP2 OR DUP5 SSTORE PUSH1 0x40 MLOAD SWAP2 SWAP1 SWAP3 AND SWAP3 DUP4 SWAP2 PUSH32 0x8BE0079C531659141344CD1FD0A4F28419497F9722A3DAAFE3B4186F6B6457E0 SWAP2 SWAP1 LOG3 POP POP JUMP JUMPDEST PUSH1 0x0 DUP3 DUP2 MSTORE PUSH1 0x3 PUSH1 0x20 SWAP1 DUP2 MSTORE PUSH1 0x40 DUP1 DUP4 KECCAK256 PUSH1 0x1 PUSH1 0x1 PUSH1 0xA0 SHL SUB DUP6 AND DUP5 MSTORE PUSH1 0x7 DUP2 ADD SWAP1 SWAP3 MSTORE SWAP1 SWAP2 KECCAK256 SLOAD PUSH1 0xFF AND PUSH2 0x1A00 JUMPI PUSH1 0x40 MLOAD PUSH3 0x461BCD PUSH1 0xE5 SHL DUP2 MSTORE PUSH1 0x20 PUSH1 0x4 DUP3 ADD MSTORE PUSH1 0x11 PUSH1 0x24 DUP3 ADD MSTORE PUSH17 0x506C61796572206E6F7420616374697665 PUSH1 0x78 SHL PUSH1 0x44 DUP3 ADD MSTORE PUSH1 0x64 ADD PUSH2 0x479 JUMP JUMPDEST PUSH1 0x1 PUSH1 0x1 PUSH1 0xA0 SHL SUB DUP3 AND PUSH1 0x0 SWAP1 DUP2 MSTORE PUSH1 0x7 DUP3 ADD PUSH1 0x20 SWAP1 DUP2 MSTORE PUSH1 0x40 DUP1 DUP4 KECCAK256 DUP1 SLOAD PUSH1 0xFF NOT SWAP1 DUP2 AND SWAP1 SWAP2 SSTORE PUSH1 0x5 SWAP1 SWAP3 MSTORE DUP3 KECCAK256 DUP1 SLOAD SWAP1 SWAP2 AND SWAP1 SSTORE JUMPDEST PUSH1 0x6 DUP3 ADD SLOAD DUP2 LT ISZERO PUSH2 0x1B3C JUMPI DUP3 PUSH1 0x1 PUSH1 0x1 PUSH1 0xA0 SHL SUB AND DUP3 PUSH1 0x6 ADD DUP3 DUP2 SLOAD DUP2 LT PUSH2 0x1A62 JUMPI PUSH2 0x1A62 PUSH2 0x212E JUMP JUMPDEST PUSH1 0x0 SWAP2 DUP3 MSTORE PUSH1 0x20 SWAP1 SWAP2 KECCAK256 ADD SLOAD PUSH1 0x1 PUSH1 0x1 PUSH1 0xA0 SHL SUB AND SUB PUSH2 0x1B34 JUMPI PUSH1 0x6 DUP3 ADD DUP1 SLOAD PUSH2 0x1A8E SWAP1 PUSH1 0x1 SWAP1 PUSH2 0x217B JUMP JUMPDEST DUP2 SLOAD DUP2 LT PUSH2 0x1A9E JUMPI PUSH2 0x1A9E PUSH2 0x212E JUMP JUMPDEST PUSH1 0x0 SWAP2 DUP3 MSTORE PUSH1 0x20 SWAP1 SWAP2 KECCAK256 ADD SLOAD PUSH1 0x6 DUP4 ADD DUP1 SLOAD PUSH1 0x1 PUSH1 0x1 PUSH1 0xA0 SHL SUB SWAP1 SWAP3 AND SWAP2 DUP4 SWAP1 DUP2 LT PUSH2 0x1ACC JUMPI PUSH2 0x1ACC PUSH2 0x212E JUMP JUMPDEST SWAP1 PUSH1 0x0 MSTORE PUSH1 0x20 PUSH1 0x0 KECCAK256 ADD PUSH1 0x0 PUSH2 0x100 EXP DUP2 SLOAD DUP2 PUSH1 0x1 PUSH1 0x1 PUSH1 0xA0 SHL SUB MUL NOT AND SWAP1 DUP4 PUSH1 0x1 PUSH1 0x1 PUSH1 0xA0 SHL SUB AND MUL OR SWAP1 SSTORE POP DUP2 PUSH1 0x6 ADD DUP1 SLOAD DUP1 PUSH2 0x1B0D JUMPI PUSH2 0x1B0D PUSH2 0x2273 JUMP JUMPDEST PUSH1 0x0 DUP3 DUP2 MSTORE PUSH1 0x20 SWAP1 KECCAK256 DUP2 ADD PUSH1 0x0 NOT SWAP1 DUP2 ADD DUP1 SLOAD PUSH1 0x1 PUSH1 0x1 PUSH1 0xA0 SHL SUB NOT AND SWAP1 SSTORE ADD SWAP1 SSTORE PUSH2 0x1B3C JUMP JUMPDEST PUSH1 0x1 ADD PUSH2 0x1A37 JUMP JUMPDEST POP PUSH1 0x1 PUSH1 0x1 PUSH1 0xA0 SHL SUB DUP3 AND PUSH1 0x0 DUP2 DUP2 MSTORE PUSH1 0x5 DUP4 ADD PUSH1 0x20 MSTORE PUSH1 0x40 SWAP1 DUP2 SWAP1 KECCAK256 SLOAD SWAP1 MLOAD DUP6 SWAP2 PUSH32 0x51479C93D7646904D2282E9E79CDDF11999AC774B7FD0289E2F59CB4AD0F086A SWAP2 PUSH2 0x1B8C SWAP2 DUP2 MSTORE PUSH1 0x20 ADD SWAP1 JUMP JUMPDEST PUSH1 0x40 MLOAD DUP1 SWAP2 SUB SWAP1 LOG3 POP POP POP JUMP JUMPDEST PUSH1 0x0 DUP2 DUP2 MSTORE PUSH1 0x3 PUSH1 0x20 DUP2 SWAP1 MSTORE PUSH1 0x40 SWAP1 SWAP2 KECCAK256 DUP1 SLOAD PUSH1 0xFF NOT AND SWAP1 SWAP2 OR DUP2 SSTORE PUSH1 0x2 DUP2 ADD SLOAD PUSH1 0xA GT ISZERO DUP1 PUSH2 0x1BCE JUMPI POP PUSH1 0x6 DUP2 ADD SLOAD PUSH1 0x1 LT ISZERO JUMPDEST ISZERO PUSH2 0x1C0A JUMPI DUP1 SLOAD PUSH1 0xFF NOT AND PUSH1 0x4 OR DUP2 SSTORE PUSH1 0x40 MLOAD DUP3 SWAP1 PUSH1 0x0 DUP1 MLOAD PUSH1 0x20 PUSH2 0x22A1 DUP4 CODECOPY DUP2 MLOAD SWAP2 MSTORE SWAP1 PUSH2 0x1C01 SWAP1 PUSH1 0x6 DUP6 ADD SWAP1 PUSH2 0x2260 JUMP JUMPDEST PUSH1 0x40 MLOAD DUP1 SWAP2 SUB SWAP1 LOG2 JUMPDEST DUP2 PUSH32 0x8868888CC18628A149BC88CC32A91976AB30E2CD9AECECB0CFE184A73FE551F9 DUP3 PUSH1 0x2 ADD SLOAD PUSH1 0x40 MLOAD PUSH2 0x1C40 SWAP2 DUP2 MSTORE PUSH1 0x20 ADD SWAP1 JUMP JUMPDEST PUSH1 0x40 MLOAD DUP1 SWAP2 SUB SWAP1 LOG2 POP POP JUMP JUMPDEST PUSH1 0x0 DUP2 DUP2 MSTORE PUSH1 0x3 PUSH1 0x20 DUP2 SWAP1 MSTORE PUSH1 0x40 SWAP1 SWAP2 KECCAK256 SWAP1 DUP2 SLOAD PUSH1 0xFF AND PUSH1 0x4 DUP2 GT ISZERO PUSH2 0x1C74 JUMPI PUSH2 0x1C74 PUSH2 0x1E43 JUMP JUMPDEST EQ DUP1 ISZERO PUSH2 0x1C84 JUMPI POP PUSH1 0x6 DUP2 ADD SLOAD ISZERO ISZERO JUMPDEST DUP1 ISZERO PUSH2 0x1C94 JUMPI POP PUSH1 0xA DUP2 PUSH1 0x2 ADD SLOAD LT JUMPDEST ISZERO PUSH2 0x1D18 JUMPI PUSH1 0x2 DUP2 ADD DUP1 SLOAD SWAP1 PUSH1 0x0 PUSH2 0x1CAB DUP4 PUSH2 0x20FF JUMP JUMPDEST SWAP1 SWAP2 SSTORE POP POP DUP1 SLOAD PUSH1 0xFF NOT AND PUSH1 0x2 SWAP1 DUP2 OR DUP3 SSTORE DUP2 ADD SLOAD PUSH2 0x1CC9 SWAP1 PUSH2 0x1D1C JUMP JUMPDEST PUSH2 0x1CD3 SWAP1 TIMESTAMP PUSH2 0x20EC JUMP JUMPDEST PUSH1 0x1 DUP3 ADD DUP2 SWAP1 SSTORE PUSH1 0x2 DUP3 ADD SLOAD PUSH1 0x40 DUP1 MLOAD SWAP2 DUP3 MSTORE PUSH1 0x20 DUP3 ADD SWAP3 SWAP1 SWAP3 MSTORE DUP4 SWAP2 PUSH32 0xA359B664A68ACD8839E42112EB50EFF3408165E15074FDE89DDB58A0DB2E691D SWAP2 ADD PUSH2 0x1C40 JUMP JUMPDEST POP POP JUMP JUMPDEST PUSH1 0x0 DUP1 PUSH1 0x6 PUSH2 0x1D2C PUSH1 0x1 DUP6 PUSH2 0x217B JUMP JUMPDEST PUSH2 0x1D36 SWAP2 SWAP1 PUSH2 0x2289 JUMP JUMPDEST SWAP1 POP PUSH2 0x1D43 DUP2 PUSH1 0x78 PUSH2 0x217B JUMP JUMPDEST SWAP4 SWAP3 POP POP POP JUMP JUMPDEST PUSH1 0x40 MLOAD DUP1 PUSH1 0x60 ADD PUSH1 0x40 MSTORE DUP1 PUSH1 0x0 DUP2 MSTORE PUSH1 0x20 ADD PUSH1 0x0 DUP2 MSTORE PUSH1 0x20 ADD PUSH1 0x0 PUSH1 0x4 DUP2 GT ISZERO PUSH2 0x1D76 JUMPI PUSH2 0x1D76 PUSH2 0x1E43 JUMP JUMPDEST SWAP1 MSTORE SWAP1 JUMP JUMPDEST DUP1 CALLDATALOAD PUSH1 0x1 PUSH1 0x1 PUSH1 0xA0 SHL SUB DUP2 AND DUP2 EQ PUSH2 0x1D92 JUMPI PUSH1 0x0 DUP1 REVERT JUMPDEST SWAP2 SWAP1 POP JUMP JUMPDEST PUSH1 0x0 DUP1 PUSH1 0x40 DUP4 DUP6 SUB SLT ISZERO PUSH2 0x1DAA JUMPI PUSH1 0x0 DUP1 REVERT JUMPDEST DUP3 CALLDATALOAD SWAP2 POP PUSH2 0x1DBA PUSH1 0x20 DUP5 ADD PUSH2 0x1D7B JUMP JUMPDEST SWAP1 POP SWAP3 POP SWAP3 SWAP1 POP JUMP JUMPDEST PUSH1 0x0 PUSH1 0x20 DUP3 DUP5 SUB SLT ISZERO PUSH2 0x1DD5 JUMPI PUSH1 0x0 DUP1 REVERT JUMPDEST PUSH2 0x1D43 DUP3 PUSH2 0x1D7B JUMP JUMPDEST PUSH1 0x0 PUSH1 0x20 DUP3 DUP5 SUB SLT ISZERO PUSH2 0x1DF0 JUMPI PUSH1 0x0 DUP1 REVERT JUMPDEST POP CALLDATALOAD SWAP2 SWAP1 POP JUMP JUMPDEST PUSH1 0x20 DUP1 DUP3 MSTORE DUP3 MLOAD DUP3 DUP3 ADD DUP2 SWAP1 MSTORE PUSH1 0x0 SWAP2 DUP5 ADD SWAP1 PUSH1 0x40 DUP5 ADD SWAP1 DUP4 JUMPDEST DUP2 DUP2 LT ISZERO PUSH2 0x1E38 JUMPI DUP4 MLOAD PUSH1 0x1 PUSH1 0x1 PUSH1 0xA0 SHL SUB AND DUP4 MSTORE PUSH1 0x20 SWAP4 DUP5 ADD SWAP4 SWAP1 SWAP3 ADD SWAP2 PUSH1 0x1 ADD PUSH2 0x1E11 JUMP JUMPDEST POP SWAP1 SWAP6 SWAP5 POP POP POP POP POP JUMP JUMPDEST PUSH4 0x4E487B71 PUSH1 0xE0 SHL PUSH1 0x0 MSTORE PUSH1 0x21 PUSH1 0x4 MSTORE PUSH1 0x24 PUSH1 0x0 REVERT JUMPDEST PUSH1 0x5 DUP2 LT PUSH2 0x1E77 JUMPI PUSH4 0x4E487B71 PUSH1 0xE0 SHL PUSH1 0x0 MSTORE PUSH1 0x21 PUSH1 0x4 MSTORE PUSH1 0x24 PUSH1 0x0 REVERT JUMPDEST SWAP1 MSTORE JUMP JUMPDEST PUSH1 0x0 PUSH1 0x60 DUP3 ADD SWAP1 POP PUSH2 0x1E8E DUP3 DUP5 MLOAD PUSH2 0x1E59 JUMP JUMPDEST PUSH1 0x20 DUP4 ADD MLOAD PUSH1 0x20 DUP4 ADD MSTORE PUSH1 0x40 DUP4 ADD MLOAD PUSH1 0x40 DUP4 ADD MSTORE SWAP3 SWAP2 POP POP JUMP JUMPDEST PUSH1 0x0 DUP1 DUP4 PUSH1 0x1F DUP5 ADD SLT PUSH2 0x1EBA JUMPI PUSH1 0x0 DUP1 REVERT JUMPDEST POP DUP2 CALLDATALOAD PUSH8 0xFFFFFFFFFFFFFFFF DUP2 GT ISZERO PUSH2 0x1ED2 JUMPI PUSH1 0x0 DUP1 REVERT JUMPDEST PUSH1 0x20 DUP4 ADD SWAP2 POP DUP4 PUSH1 0x20 DUP3 PUSH1 0x5 SHL DUP6 ADD ADD GT ISZERO PUSH2 0x1EED JUMPI PUSH1 0x0 DUP1 REVERT JUMPDEST SWAP3 POP SWAP3 SWAP1 POP JUMP JUMPDEST PUSH1 0x0 DUP1 PUSH1 0x0 DUP1 PUSH1 0x40 DUP6 DUP8 SUB SLT ISZERO PUSH2 0x1F0A JUMPI PUSH1 0x0 DUP1 REVERT JUMPDEST DUP5 CALLDATALOAD PUSH8 0xFFFFFFFFFFFFFFFF DUP2 GT ISZERO PUSH2 0x1F21 JUMPI PUSH1 0x0 DUP1 REVERT JUMPDEST PUSH2 0x1F2D DUP8 DUP3 DUP9 ADD PUSH2 0x1EA8 JUMP JUMPDEST SWAP1 SWAP6 POP SWAP4 POP POP PUSH1 0x20 DUP6 ADD CALLDATALOAD PUSH8 0xFFFFFFFFFFFFFFFF DUP2 GT ISZERO PUSH2 0x1F4D JUMPI PUSH1 0x0 DUP1 REVERT JUMPDEST PUSH2 0x1F59 DUP8 DUP3 DUP9 ADD PUSH2 0x1EA8 JUMP JUMPDEST SWAP6 SWAP9 SWAP5 SWAP8 POP SWAP6 POP POP POP POP JUMP JUMPDEST PUSH1 0x20 DUP2 MSTORE PUSH1 0x0 DUP3 MLOAD DUP1 PUSH1 0x20 DUP5 ADD MSTORE PUSH1 0x0 JUMPDEST DUP2 DUP2 LT ISZERO PUSH2 0x1F93 JUMPI PUSH1 0x20 DUP2 DUP7 ADD DUP2 ADD MLOAD PUSH1 0x40 DUP7 DUP5 ADD ADD MSTORE ADD PUSH2 0x1F76 JUMP JUMPDEST POP PUSH1 0x0 PUSH1 0x40 DUP3 DUP6 ADD ADD MSTORE PUSH1 0x40 PUSH1 0x1F NOT PUSH1 0x1F DUP4 ADD AND DUP5 ADD ADD SWAP2 POP POP SWAP3 SWAP2 POP POP JUMP JUMPDEST PUSH1 0xA0 DUP1 DUP3 MSTORE DUP7 MLOAD SWAP1 DUP3 ADD DUP2 SWAP1 MSTORE PUSH1 0x0 SWAP1 PUSH1 0x20 DUP9 ADD SWAP1 PUSH1 0xC0 DUP5 ADD SWAP1 DUP4 JUMPDEST DUP2 DUP2 LT ISZERO PUSH2 0x2012 JUMPI DUP4 MLOAD DUP1 MLOAD DUP5 MSTORE PUSH1 0x20 DUP2 ADD MLOAD PUSH1 0x20 DUP6 ADD MSTORE PUSH1 0x40 DUP2 ADD MLOAD SWAP1 POP PUSH2 0x1FFB PUSH1 0x40 DUP6 ADD DUP3 PUSH2 0x1E59 JUMP JUMPDEST POP PUSH1 0x20 SWAP4 SWAP1 SWAP4 ADD SWAP3 PUSH1 0x60 SWAP3 SWAP1 SWAP3 ADD SWAP2 PUSH1 0x1 ADD PUSH2 0x1FCF JUMP JUMPDEST POP POP PUSH1 0x20 DUP5 ADD SWAP8 SWAP1 SWAP8 MSTORE POP POP PUSH1 0x40 DUP2 ADD SWAP4 SWAP1 SWAP4 MSTORE PUSH1 0x60 DUP4 ADD SWAP2 SWAP1 SWAP2 MSTORE PUSH1 0x80 SWAP1 SWAP2 ADD MSTORE SWAP2 SWAP1 POP JUMP JUMPDEST PUSH1 0x20 DUP1 DUP3 MSTORE DUP3 MLOAD DUP3 DUP3 ADD DUP2 SWAP1 MSTORE PUSH1 0x0 SWAP2 DUP5 ADD SWAP1 PUSH1 0x40 DUP5 ADD SWAP1 DUP4 JUMPDEST DUP2 DUP2 LT ISZERO PUSH2 0x1E38 JUMPI DUP4 MLOAD DUP1 MLOAD PUSH1 0x1 PUSH1 0x1 PUSH1 0xA0 SHL SUB AND DUP5 MSTORE PUSH1 0x20 DUP1 DUP3 ADD MLOAD DUP2 DUP7 ADD MSTORE PUSH1 0x40 DUP1 DUP4 ADD MLOAD ISZERO ISZERO SWAP1 DUP7 ADD MSTORE PUSH1 0x60 SWAP2 DUP3 ADD MLOAD SWAP2 DUP6 ADD SWAP2 SWAP1 SWAP2 MSTORE SWAP1 SWAP4 ADD SWAP3 PUSH1 0x80 SWAP1 SWAP3 ADD SWAP2 PUSH1 0x1 ADD PUSH2 0x2053 JUMP JUMPDEST PUSH1 0x20 DUP2 ADD PUSH2 0x3D5 DUP3 DUP5 PUSH2 0x1E59 JUMP JUMPDEST PUSH1 0x20 DUP1 DUP3 MSTORE PUSH1 0xF SWAP1 DUP3 ADD MSTORE PUSH15 0x125B9D985B1A590819D85B59481251 PUSH1 0x8A SHL PUSH1 0x40 DUP3 ADD MSTORE PUSH1 0x60 ADD SWAP1 JUMP JUMPDEST PUSH4 0x4E487B71 PUSH1 0xE0 SHL PUSH1 0x0 MSTORE PUSH1 0x11 PUSH1 0x4 MSTORE PUSH1 0x24 PUSH1 0x0 REVERT JUMPDEST DUP1 DUP3 ADD DUP1 DUP3 GT ISZERO PUSH2 0x3D5 JUMPI PUSH2 0x3D5 PUSH2 0x20D6 JUMP JUMPDEST PUSH1 0x0 PUSH1 0x1 DUP3 ADD PUSH2 0x2111 JUMPI PUSH2 0x2111 PUSH2 0x20D6 JUMP JUMPDEST POP PUSH1 0x1 ADD SWAP1 JUMP JUMPDEST PUSH4 0x4E487B71 PUSH1 0xE0 SHL PUSH1 0x0 MSTORE PUSH1 0x41 PUSH1 0x4 MSTORE PUSH1 0x24 PUSH1 0x0 REVERT JUMPDEST PUSH4 0x4E487B71 PUSH1 0xE0 SHL PUSH1 0x0 MSTORE PUSH1 0x32 PUSH1 0x4 MSTORE PUSH1 0x24 PUSH1 0x0 REVERT JUMPDEST PUSH1 0x20 DUP1 DUP3 MSTORE PUSH1 0x18 SWAP1 DUP3 ADD MSTORE PUSH32 0x4F6E6C792047616D654D61737465722063616E2063616C6C0000000000000000 PUSH1 0x40 DUP3 ADD MSTORE PUSH1 0x60 ADD SWAP1 JUMP JUMPDEST DUP2 DUP2 SUB DUP2 DUP2 GT ISZERO PUSH2 0x3D5 JUMPI PUSH2 0x3D5 PUSH2 0x20D6 JUMP JUMPDEST PUSH4 0x4E487B71 PUSH1 0xE0 SHL PUSH1 0x0 MSTORE PUSH1 0x12 PUSH1 0x4 MSTORE PUSH1 0x24 PUSH1 0x0 REVERT JUMPDEST PUSH1 0x0 DUP3 PUSH2 0x21B3 JUMPI PUSH2 0x21B3 PUSH2 0x218E JUMP JUMPDEST POP DIV SWAP1 JUMP JUMPDEST PUSH1 0x0 DUP3 PUSH2 0x21C7 JUMPI PUSH2 0x21C7 PUSH2 0x218E JUMP JUMPDEST POP MOD SWAP1 JUMP JUMPDEST PUSH1 0x0 DUP2 SLOAD DUP1 DUP5 MSTORE PUSH1 0x20 DUP5 ADD SWAP4 POP DUP3 PUSH1 0x0 MSTORE PUSH1 0x20 PUSH1 0x0 KECCAK256 PUSH1 0x0 JUMPDEST DUP3 DUP2 LT ISZERO PUSH2 0x220C JUMPI DUP2 SLOAD PUSH1 0x1 PUSH1 0x1 PUSH1 0xA0 SHL SUB AND DUP7 MSTORE PUSH1 0x20 SWAP1 SWAP6 ADD SWAP5 PUSH1 0x1 SWAP2 DUP3 ADD SWAP2 ADD PUSH2 0x21E5 JUMP JUMPDEST POP SWAP4 SWAP5 SWAP4 POP POP POP POP JUMP JUMPDEST PUSH1 0x40 DUP2 MSTORE PUSH1 0x0 PUSH2 0x2229 PUSH1 0x40 DUP4 ADD DUP7 PUSH2 0x21CC JUMP JUMPDEST DUP3 DUP2 SUB PUSH1 0x20 DUP5 ADD MSTORE DUP4 DUP2 MSTORE PUSH1 0x1 PUSH1 0x1 PUSH1 0xFB SHL SUB DUP5 GT ISZERO PUSH2 0x2248 JUMPI PUSH1 0x0 DUP1 REVERT JUMPDEST DUP4 PUSH1 0x5 SHL DUP1 DUP7 PUSH1 0x20 DUP5 ADD CALLDATACOPY ADD PUSH1 0x20 ADD SWAP6 SWAP5 POP POP POP POP POP JUMP JUMPDEST PUSH1 0x20 DUP2 MSTORE PUSH1 0x0 PUSH2 0x1D43 PUSH1 0x20 DUP4 ADD DUP5 PUSH2 0x21CC JUMP JUMPDEST PUSH4 0x4E487B71 PUSH1 0xE0 SHL PUSH1 0x0 MSTORE PUSH1 0x31 PUSH1 0x4 MSTORE PUSH1 0x24 PUSH1 0x0 REVERT JUMPDEST DUP1 DUP3 MUL DUP2 ISZERO DUP3 DUP3 DIV DUP5 EQ OR PUSH2 0x3D5 JUMPI PUSH2 0x3D5 PUSH2 0x20D6 JUMP INVALID 0xA7 PUSH10 0xF576EAEF889EF9EF29D 0x1E 0xAE 0xE6 0xC0 0xE3 0xB0 PUSH20 0x108B66BB8009EC8AF6428BB345A2646970667358 0x22 SLT KECCAK256 SMOD 0xA9 0xAA SMOD LOG0 PUSH0 0xB1 0xC5 SWAP1 0xC0 0xB0 AND 0xA9 0x24 CREATE SGT SWAP13 BYTE SWAP3 BASEFEE PUSH18 0x223D56F2B6091A8E80A53B64736F6C634300 ADDMOD SHR STOP CALLER "
        },
        "methodIdentifiers": {
          "endExpiredGames()": "d0f3a21e",
          "endGame()": "6cbc2ded",
          "gameIdCounter()": "1bb412d6",
          "gameMaster()": "bdf84ae7",
          "getActivePlayers()": "3c4f5a66",
          "getActivePlayers(uint256)": "342ed956",
          "getDoorsOpened(uint256,address)": "1e756ff9",
          "getGameInfo(uint256)": "47e1d550",
          "getGameName()": "bbda33d9",
          "getGameState(uint256)": "ffde0c74",
          "getPlayerGameId(address)": "773b549d",
          "getPlayerInfo(uint256)": "ea17532e",
          "getPlayerNumber(uint256,address)": "3532804d",
          "getPlayers()": "8b5b9ccc",
          "getPlayers(uint256)": "460e2049",
          "getStats()": "c59d4847",
          "initialize(address[],uint256[])": "7fbbe46f",
          "isPlayerInGame(address)": "574a5b20",
          "openDoor()": "db0e127a",
          "owner()": "8da5cb5b",
          "playerGameId(address)": "25b05c88",
          "renounceOwnership()": "715018a6",
          "setGameMaster(address)": "c2e94927",
          "startGames()": "e81de9f5",
          "transferOwnership(address)": "f2fde38b"
        }
      }
    }
  }
}