{
  "_format": "hh-sol-artifact-1",
  "contractName": "Bidding",
  "sourceName": "contracts/games/Bidding.sol",
  "abi": [
    {
      "inputs": [],
      "stateMutability": "nonpayable",
      "type": "constructor"
    },
    {
      "inputs": [
        {
          "internalType": "address",
          "name": "owner",
          "type": "address"
        }
      ],
      "name": "OwnableInvalidOwner",
      "type": "error"
    },
    {
      "inputs": [
        {
          "internalType": "address",
          "name": "account",
          "type": "address"
        }
      ],
      "name": "OwnableUnauthorizedAccount",
      "type": "error"
    },
    {
      "anonymous": false,
      "inputs": [
        {
          "indexed": true,
          "internalType": "uint256",
          "name": "gameId",
          "type": "uint256"
        },
        {
          "indexed": false,
          "internalType": "address[]",
          "name": "winners",
          "type": "address[]"
        }
      ],
      "name": "GameCompleted",
      "type": "event"
    },
    {
      "anonymous": false,
      "inputs": [
        {
          "indexed": false,
          "internalType": "address[]",
          "name": "players",
          "type": "address[]"
        },
        {
          "indexed": false,
          "internalType": "uint256[]",
          "name": "playerNumbers",
          "type": "uint256[]"
        }
      ],
      "name": "GameInitialized",
      "type": "event"
    },
    {
      "anonymous": false,
      "inputs": [
        {
          "indexed": false,
          "internalType": "address",
          "name": "newGameMaster",
          "type": "address"
        }
      ],
      "name": "GameMasterChanged",
      "type": "event"
    },
    {
      "anonymous": false,
      "inputs": [
        {
          "indexed": true,
          "internalType": "address",
          "name": "previousOwner",
          "type": "address"
        },
        {
          "indexed": true,
          "internalType": "address",
          "name": "newOwner",
          "type": "address"
        }
      ],
      "name": "OwnershipTransferred",
      "type": "event"
    },
    {
      "anonymous": false,
      "inputs": [
        {
          "indexed": true,
          "internalType": "uint256",
          "name": "gameId",
          "type": "uint256"
        },
        {
          "indexed": true,
          "internalType": "address",
          "name": "player",
          "type": "address"
        }
      ],
      "name": "PlayerCommitted",
      "type": "event"
    },
    {
      "anonymous": false,
      "inputs": [
        {
          "indexed": true,
          "internalType": "uint256",
          "name": "gameId",
          "type": "uint256"
        },
        {
          "indexed": true,
          "internalType": "address",
          "name": "player",
          "type": "address"
        },
        {
          "indexed": false,
          "internalType": "uint256",
          "name": "playerNumber",
          "type": "uint256"
        }
      ],
      "name": "PlayerEliminated",
      "type": "event"
    },
    {
      "anonymous": false,
      "inputs": [
        {
          "indexed": true,
          "internalType": "uint256",
          "name": "gameId",
          "type": "uint256"
        },
        {
          "indexed": true,
          "internalType": "address",
          "name": "player",
          "type": "address"
        },
        {
          "indexed": false,
          "internalType": "uint256",
          "name": "bid",
          "type": "uint256"
        }
      ],
      "name": "PlayerRevealed",
      "type": "event"
    },
    {
      "anonymous": false,
      "inputs": [
        {
          "indexed": true,
          "internalType": "uint256",
          "name": "gameId",
          "type": "uint256"
        },
        {
          "indexed": true,
          "internalType": "address",
          "name": "player",
          "type": "address"
        },
        {
          "indexed": false,
          "internalType": "uint256",
          "name": "bid",
          "type": "uint256"
        },
        {
          "indexed": false,
          "internalType": "uint256",
          "name": "remainingPoints",
          "type": "uint256"
        }
      ],
      "name": "PointsDeducted",
      "type": "event"
    },
    {
      "anonymous": false,
      "inputs": [
        {
          "indexed": true,
          "internalType": "uint256",
          "name": "gameId",
          "type": "uint256"
        },
        {
          "indexed": false,
          "internalType": "uint256",
          "name": "roundNumber",
          "type": "uint256"
        },
        {
          "indexed": false,
          "internalType": "uint256",
          "name": "phase",
          "type": "uint256"
        },
        {
          "indexed": false,
          "internalType": "uint256",
          "name": "endTime",
          "type": "uint256"
        }
      ],
      "name": "RoundStarted",
      "type": "event"
    },
    {
      "inputs": [
        {
          "internalType": "bytes32",
          "name": "commitment",
          "type": "bytes32"
        }
      ],
      "name": "commitBid",
      "outputs": [],
      "stateMutability": "nonpayable",
      "type": "function"
    },
    {
      "inputs": [],
      "name": "endExpiredGames",
      "outputs": [],
      "stateMutability": "nonpayable",
      "type": "function"
    },
    {
      "inputs": [],
      "name": "endGame",
      "outputs": [
        {
          "internalType": "address[]",
          "name": "",
          "type": "address[]"
        }
      ],
      "stateMutability": "nonpayable",
      "type": "function"
    },
    {
      "inputs": [],
      "name": "gameIdCounter",
      "outputs": [
        {
          "internalType": "uint256",
          "name": "",
          "type": "uint256"
        }
      ],
      "stateMutability": "view",
      "type": "function"
    },
    {
      "inputs": [],
      "name": "gameMaster",
      "outputs": [
        {
          "internalType": "address",
          "name": "",
          "type": "address"
        }
      ],
      "stateMutability": "view",
      "type": "function"
    },
    {
      "inputs": [],
      "name": "getActivePlayers",
      "outputs": [
        {
          "internalType": "address[]",
          "name": "",
          "type": "address[]"
        }
      ],
      "stateMutability": "view",
      "type": "function"
    },
    {
      "inputs": [
        {
          "internalType": "uint256",
          "name": "gameId",
          "type": "uint256"
        }
      ],
      "name": "getCurrentPhase",
      "outputs": [
        {
          "internalType": "uint256",
          "name": "",
          "type": "uint256"
        }
      ],
      "stateMutability": "view",
      "type": "function"
    },
    {
      "inputs": [
        {
          "internalType": "uint256",
          "name": "gameId",
          "type": "uint256"
        }
      ],
      "name": "getGameInfo",
      "outputs": [
        {
          "components": [
            {
              "internalType": "enum GameState",
              "name": "state",
              "type": "uint8"
            },
            {
              "internalType": "uint256",
              "name": "currentRound",
              "type": "uint256"
            },
            {
              "internalType": "uint256",
              "name": "roundEndTime",
              "type": "uint256"
            },
            {
              "internalType": "uint256",
              "name": "gameStartTime",
              "type": "uint256"
            },
            {
              "internalType": "uint256",
              "name": "gameEndTime",
              "type": "uint256"
            }
          ],
          "internalType": "struct IGame.GameInfo",
          "name": "",
          "type": "tuple"
        }
      ],
      "stateMutability": "view",
      "type": "function"
    },
    {
      "inputs": [],
      "name": "getGameName",
      "outputs": [
        {
          "internalType": "string",
          "name": "",
          "type": "string"
        }
      ],
      "stateMutability": "pure",
      "type": "function"
    },
    {
      "inputs": [
        {
          "internalType": "uint256",
          "name": "gameId",
          "type": "uint256"
        }
      ],
      "name": "getGameState",
      "outputs": [
        {
          "internalType": "enum GameState",
          "name": "",
          "type": "uint8"
        }
      ],
      "stateMutability": "view",
      "type": "function"
    },
    {
      "inputs": [],
      "name": "getGames",
      "outputs": [
        {
          "components": [
            {
              "internalType": "uint256",
              "name": "gameId",
              "type": "uint256"
            },
            {
              "internalType": "enum GameState",
              "name": "state",
              "type": "uint8"
            },
            {
              "internalType": "uint256",
              "name": "currentRound",
              "type": "uint256"
            },
            {
              "internalType": "uint256",
              "name": "activePlayerCount",
              "type": "uint256"
            }
          ],
          "internalType": "struct GameInstanceInfo[]",
          "name": "gamesInfo",
          "type": "tuple[]"
        }
      ],
      "stateMutability": "view",
      "type": "function"
    },
    {
      "inputs": [
        {
          "internalType": "address",
          "name": "player",
          "type": "address"
        }
      ],
      "name": "getPlayerGameId",
      "outputs": [
        {
          "internalType": "uint256",
          "name": "",
          "type": "uint256"
        }
      ],
      "stateMutability": "view",
      "type": "function"
    },
    {
      "inputs": [
        {
          "internalType": "uint256",
          "name": "gameId",
          "type": "uint256"
        }
      ],
      "name": "getPlayerInfo",
      "outputs": [
        {
          "components": [
            {
              "internalType": "address",
              "name": "playerAddress",
              "type": "address"
            },
            {
              "internalType": "uint256",
              "name": "playerNumber",
              "type": "uint256"
            },
            {
              "internalType": "uint256",
              "name": "points",
              "type": "uint256"
            },
            {
              "internalType": "bool",
              "name": "hasCommitted",
              "type": "bool"
            },
            {
              "internalType": "bool",
              "name": "hasRevealed",
              "type": "bool"
            },
            {
              "internalType": "bool",
              "name": "isActive",
              "type": "bool"
            }
          ],
          "internalType": "struct Bidding.BiddingPlayerInfo[]",
          "name": "",
          "type": "tuple[]"
        }
      ],
      "stateMutability": "view",
      "type": "function"
    },
    {
      "inputs": [
        {
          "internalType": "uint256",
          "name": "gameId",
          "type": "uint256"
        },
        {
          "internalType": "address",
          "name": "player",
          "type": "address"
        }
      ],
      "name": "getPlayerNumber",
      "outputs": [
        {
          "internalType": "uint256",
          "name": "",
          "type": "uint256"
        }
      ],
      "stateMutability": "view",
      "type": "function"
    },
    {
      "inputs": [
        {
          "internalType": "uint256",
          "name": "gameId",
          "type": "uint256"
        },
        {
          "internalType": "address",
          "name": "player",
          "type": "address"
        }
      ],
      "name": "getPlayerPoints",
      "outputs": [
        {
          "internalType": "uint256",
          "name": "",
          "type": "uint256"
        }
      ],
      "stateMutability": "view",
      "type": "function"
    },
    {
      "inputs": [],
      "name": "getPlayers",
      "outputs": [
        {
          "internalType": "address[]",
          "name": "",
          "type": "address[]"
        }
      ],
      "stateMutability": "view",
      "type": "function"
    },
    {
      "inputs": [
        {
          "internalType": "uint256",
          "name": "gameId",
          "type": "uint256"
        }
      ],
      "name": "getRoundEndTime",
      "outputs": [
        {
          "internalType": "uint256",
          "name": "",
          "type": "uint256"
        }
      ],
      "stateMutability": "view",
      "type": "function"
    },
    {
      "inputs": [
        {
          "internalType": "uint256",
          "name": "gameId",
          "type": "uint256"
        },
        {
          "internalType": "address",
          "name": "player",
          "type": "address"
        }
      ],
      "name": "hasPlayerCommitted",
      "outputs": [
        {
          "internalType": "bool",
          "name": "",
          "type": "bool"
        }
      ],
      "stateMutability": "view",
      "type": "function"
    },
    {
      "inputs": [
        {
          "internalType": "uint256",
          "name": "gameId",
          "type": "uint256"
        },
        {
          "internalType": "address",
          "name": "player",
          "type": "address"
        }
      ],
      "name": "hasPlayerRevealed",
      "outputs": [
        {
          "internalType": "bool",
          "name": "",
          "type": "bool"
        }
      ],
      "stateMutability": "view",
      "type": "function"
    },
    {
      "inputs": [
        {
          "internalType": "address[]",
          "name": "_players",
          "type": "address[]"
        },
        {
          "internalType": "uint256[]",
          "name": "_playerNumbers",
          "type": "uint256[]"
        }
      ],
      "name": "initialize",
      "outputs": [],
      "stateMutability": "nonpayable",
      "type": "function"
    },
    {
      "inputs": [
        {
          "internalType": "address",
          "name": "",
          "type": "address"
        }
      ],
      "name": "isPlayerInGame",
      "outputs": [
        {
          "internalType": "bool",
          "name": "",
          "type": "bool"
        }
      ],
      "stateMutability": "view",
      "type": "function"
    },
    {
      "inputs": [],
      "name": "owner",
      "outputs": [
        {
          "internalType": "address",
          "name": "",
          "type": "address"
        }
      ],
      "stateMutability": "view",
      "type": "function"
    },
    {
      "inputs": [
        {
          "internalType": "address",
          "name": "",
          "type": "address"
        }
      ],
      "name": "playerGameId",
      "outputs": [
        {
          "internalType": "uint256",
          "name": "",
          "type": "uint256"
        }
      ],
      "stateMutability": "view",
      "type": "function"
    },
    {
      "inputs": [],
      "name": "registerMe",
      "outputs": [],
      "stateMutability": "nonpayable",
      "type": "function"
    },
    {
      "inputs": [],
      "name": "renounceOwnership",
      "outputs": [],
      "stateMutability": "nonpayable",
      "type": "function"
    },
    {
      "inputs": [
        {
          "internalType": "uint256",
          "name": "bid",
          "type": "uint256"
        },
        {
          "internalType": "bytes32",
          "name": "salt",
          "type": "bytes32"
        }
      ],
      "name": "revealBid",
      "outputs": [],
      "stateMutability": "nonpayable",
      "type": "function"
    },
    {
      "inputs": [
        {
          "internalType": "address",
          "name": "_newGameMaster",
          "type": "address"
        }
      ],
      "name": "setGameMaster",
      "outputs": [],
      "stateMutability": "nonpayable",
      "type": "function"
    },
    {
      "inputs": [],
      "name": "startGames",
      "outputs": [
        {
          "internalType": "bool",
          "name": "",
          "type": "bool"
        }
      ],
      "stateMutability": "nonpayable",
      "type": "function"
    },
    {
      "inputs": [
        {
          "internalType": "address",
          "name": "newOwner",
          "type": "address"
        }
      ],
      "name": "transferOwnership",
      "outputs": [],
      "stateMutability": "nonpayable",
      "type": "function"
    }
  ],
  "bytecode": "0x60808060405234608757331560715760008054336001600160a01b0319821681178355916001600160a01b03909116907f8be0079c531659141344cd1fd0a4f28419497f9722a3daafe3b4186f6b6457e09080a3600180546001600160a01b03191633179055612819908161008d8239f35b631e4fbdf760e01b600052600060045260246000fd5b600080fdfe6080604052600436101561001257600080fd5b60003560e01c806312b19a13146116f35780631bb412d6146116d557806325b05c88146112105780633532804d1461163a5780633c4f5a661461155d57806347e1d5501461147f57806353fb1cd2146113e4578063572e85ec14611397578063574a5b201461135857806362c5424a146113395780636cbc2ded146112a3578063715018a61461124a578063773b549d146112105780637fbbe46f14610d7f57806384cd7d3314610d1057806386a2cc2714610b525780638b5b9ccc14610a5d5780638da5cb5b14610a345780639a198d611461093e578063bbda33d9146108c0578063bdf84ae714610897578063c04c594714610732578063c2e9492714610677578063d0f3a21e146105c5578063d216b62b14610556578063e81de9f514610448578063ea17532e1461023d578063f2fde38b146101b45763ffde0c741461015b57600080fd5b346101af5760203660031901126101af57600435801515806101a3575b610181906117ed565b6000526003602052602060ff604060002054166101a160405180926117af565bf35b50600254811115610178565b600080fd5b346101af5760203660031901126101af576101cd611740565b6101d5612589565b6001600160a01b0316801561022757600080546001600160a01b03198116831782556001600160a01b0316907f8be0079c531659141344cd1fd0a4f28419497f9722a3daafe3b4186f6b6457e09080a3005b631e4fbdf760e01b600052600060045260246000fd5b346101af5760203660031901126101af576004358015158061043c575b610263906117ed565b600052600360205260406000206005810190815490610281826118fe565b9261028f60405194856118dc565b828452601f1961029e846118fe565b0160005b8181106103fb57505060006007830192600a810192600d8201906009600e84019301935b878110610354578860405180916020820160208352815180915260206040840192019060005b8181106102fa575050500390f35b91935091602060c060019260a087518580831b0381511683528481015185840152604081015160408401526060810151151560608401526080810151151560808401520151151560a08201520194019101918493926102ec565b8061036160019284611ddf565b905460039190911b1c60a083901b83900316600081815260208a81526040808320548b835281842054898452828520548b855283862054948d9052948390205492519560ff9384169594841694909316929091906103be876118c0565b8652602086015260408501521515606084015215156080830152151560a08201526103e9828c61198b565b526103f4818b61198b565b50016102c6565b60209060405161040a816118c0565b60008152600083820152600060408201526000606082015260006080820152600060a0820152828289010152016102a2565b5060025481111561025a565b346101af5760003660031901126101af5761046e60018060a01b03600154163314611d83565b6001805b60025481116105495780600052600360205260406000209060ff82541660058110156105335760011480610526575b1561051857600260ff198354161782556001808301556078420191824211610502576000805160206127c48339815191526060846011846104fd97600288970155015490604051918252600160208301526040820152a261186c565b610472565b634e487b7160e01b600052601160045260246000fd5b9150506104fd60009161186c565b50600882015415156104a1565b634e487b7160e01b600052602160045260246000fd5b6020826040519015158152f35b346101af5760403660031901126101af57600435610572611756565b90801515806105b9575b610585906117ed565b6000526003602052600e6040600020019060018060a01b0316600052602052602060ff604060002054166040519015158152f35b5060025481111561057c565b346101af5760003660031901126101af5760015b60025481116106755780600052600360205260406000209060ff8254169160058310156105335760026106129314610617575b5061186c565b6105d9565b60018101546001811480610668575b1561063c57505061063681611e85565b8261060c565b600214908161065a575b501561063657610655816120be565b610636565b600291500154421183610646565b5060028201544211610626565b005b346101af5760203660031901126101af57610690611740565b610698612589565b6001600160a01b031680156106ed576020817f63860f6674590a6969c4fe1dc738a9c8f955407c09e6c67a6bdb818f4c35cd8a926bffffffffffffffffffffffff60a01b6001541617600155604051908152a1005b60405162461bcd60e51b815260206004820152601a60248201527f496e76616c69642047616d654d617374657220616464726573730000000000006044820152606490fd5b346101af5760003660031901126101af5760025461074f816118fe565b9061075d60405192836118dc565b808252601f1961076c826118fe565b0160005b81811061086457505060015b818111156107f3578260405180916020820160208352815180915260206040840192019060005b8181106107b1575050500390f35b919350916020608060019260608751805183526107d485820151868501906117af565b60408101516040840152015160608201520194019101918493926107a3565b80600052600360205260406000209060ff82541691600860018201549101549061082f60405194610823866118a4565b848652602086016119b5565b60408401526060830152600019810191818311610502578261060c9161085861085f958861198b565b528561198b565b61077c565b602090604051610873816118a4565b60008152600083820152600060408201526000606082015282828701015201610770565b346101af5760003660031901126101af576001546040516001600160a01b039091168152602090f35b346101af5760003660031901126101af5760408051906108e081836118dc565b600782526642696464696e6760c81b6020830152805180926020825280519081602084015260005b8281106109275750506000828201840152601f01601f19168101030190f35b602082820181015187830187015286945001610908565b346101af5760003660031901126101af5760008060405160208101906307983f4560e21b8252609760248201526024815261097a6044826118dc565b51908273dc2b0d2dd2b7759d97d50db4eabdc369731108305af13d15610a2f573d67ffffffffffffffff8111610a1957604051906109c2601f8201601f1916602001836118dc565b8152600060203d92013e5b156109d457005b60405162461bcd60e51b815260206004820152601860248201527f4665654d20726567697374726174696f6e206661696c656400000000000000006044820152606490fd5b634e487b7160e01b600052604160045260246000fd5b6109cd565b346101af5760003660031901126101af576000546040516001600160a01b039091168152602090f35b346101af5760003660031901126101af57600254600160005b82821115610b2757610a889150611916565b6000916001905b80821115610aa95760405180610aa5858261176c565b0390f35b610ad090826000949394526003602052610ad7600560406000200160405193848092611948565b03836118dc565b60005b8251811015610b14576001906001600160a01b03610af8828661198b565b5116610b0d610b068961186c565b988761198b565b5201610ada565b509192610b21915061186c565b90610a8f565b610b46610b4c918360005260036020526005604060002001549061187b565b9161186c565b90610a76565b346101af5760203660031901126101af57336000526005602052610b7d60ff604060002054166119c1565b336000526004602052604060002054806000526003602052604060002060ff8154166005811015610533576002610bb49114611a06565b6001810190610bc66001835414611e43565b600281019182544211610cd557336000908152600d8301602081905260409091205460ff16610c9c57336000908152600b840160209081526040808320600435905592905220805460ff19166001179055600f82018054909190610c299061186c565b8092556040519133867f2e6ed0cae7a81e1893017dfafd5fbaf8594adcc50ff27b5f8eb70e0e90acf315600080a3600884015414610c6357005b60029055603c4201804211610502576011606093826000805160206127c4833981519152965501548252600260208301526040820152a2005b60405162461bcd60e51b8152602060048201526011602482015270105b1c9958591e4818dbdb5b5a5d1d1959607a1b6044820152606490fd5b60405162461bcd60e51b815260206004820152601360248201527210dbdb5b5a5d081c195c9a5bd908195b991959606a1b6044820152606490fd5b346101af5760403660031901126101af57600435610d2c611756565b9080151580610d73575b610d3f906117ed565b6000526003602052600d6040600020019060018060a01b0316600052602052602060ff604060002054166040519015158152f35b50600254811115610d36565b346101af5760403660031901126101af5760043567ffffffffffffffff81116101af57610db09036906004016117bc565b60243567ffffffffffffffff81116101af57610dd09036906004016117bc565b610de860018060a09594951b03600154163314611d83565b81156111d557808203611190576002821061114b576014820192838311610502576013830193841161050257600060148504156111375750601484048304936000958690875b601484048110610e3c578880f35b610e4760025461186c565b9081600255818a52600360205260408a2091600160ff19845416178355600160118401554260038401558990601487048a068310611110575b908b915b818310610f0357505050610ea660405192604084526005604085019101611948565b82810360208401528781526001600160fb1b038811610eff578260206001947fb66ba8feaec509998ef3217bc97fbf1a0f906b89fac25a4ace8ddff059a41f12938b60051b8b848301378b60051b01030190a101610e2e565b8a80fd5b909195610f11818c88611dcf565b356001600160a01b038116810361110c576001600160a01b038116156110ce578d9060018060a01b038116825260056020528b8b8860ff60408620541661101a575b92610f75866040946110119794610f7085600560019c9a01611df7565b611dcf565b35868060a01b038216835260078b0160205283832055858060a01b038116825260068a016020528282208660ff19825416179055610fb68160088c01611df7565b60a086901b8690031680825260098a016020908152838320805460ff199081168917909155828452600a8c0182528484206103e89055828452600482528484208990559183526005905291902080549091168417905561186c565b96019190610e84565b5050506001600160a01b038116909152600460205260408e20548015908f908215611096575b505015611051578d908b8b88610f53565b60405162461bcd60e51b815260206004820152601d60248201527f506c6179657220616c726561647920696e206163746976652067616d650000006044820152606490fd5b81526003602052604090205460ff16905060058110156110ba576004148e38611040565b634e487b7160e01b8f52602160045260248ffd5b60405162461bcd60e51b8152602060048201526016602482015275496e76616c696420706c61796572206164647265737360501b6044820152606490fd5b8d80fd5b905060018a01808b116111235790610e80565b634e487b7160e01b8c52601160045260248cfd5b634e487b7160e01b81526012600452602490fd5b60405162461bcd60e51b815260206004820152601760248201527f4e656564206174206c65617374203220706c61796572730000000000000000006044820152606490fd5b60405162461bcd60e51b815260206004820152601860248201527f4172726179206c656e67746873206d757374206d6174636800000000000000006044820152606490fd5b60405162461bcd60e51b8152602060048201526013602482015272139bc81c1b185e595c9cc81c1c9bdd9a591959606a1b6044820152606490fd5b346101af5760203660031901126101af576001600160a01b03611231611740565b1660005260046020526020604060002054604051908152f35b346101af5760003660031901126101af57611263612589565b600080546001600160a01b0319811682556001600160a01b03167f8be0079c531659141344cd1fd0a4f28419497f9722a3daafe3b4186f6b6457e08280a3005b346101af5760003660031901126101af576112c960018060a01b03600154163314611d83565b60405160206112d881836118dc565b60008252600036813760015b600254811161132b57806000526003825260ff60406000205416906005821015610533576002611318921461131d5761186c565b6112e4565b611326816120be565b61186c565b60405180610aa5858261176c565b346101af5760403660031901126101af57610675602435600435611a44565b346101af5760203660031901126101af576001600160a01b03611379611740565b166000526005602052602060ff604060002054166040519015158152f35b346101af5760203660031901126101af57600435801515806113d8575b6113bd906117ed565b60005260036020526020600160406000200154604051908152f35b506002548111156113b4565b346101af5760403660031901126101af57600435611400611756565b9080151580611473575b611413906117ed565b806000526003602052600660406000200160018060a01b03831660005260205261144460ff6040600020541661182b565b6000526003602052600a6040600020019060018060a01b03166000526020526020604060002054604051908152f35b5060025481111561140a565b346101af5760203660031901126101af57600435600060806040516114a381611888565b828152826020820152826040820152826060820152015280151580611551575b6114cc906117ed565b600052600360205260a0604060002060ff815416906011810154906002810154600460038301549201549261150d6040519561150787611888565b866119b5565b602085019081526040850191825260608501928352608085019384526115376040518096516117af565b516020850152516040840152516060830152516080820152f35b506002548111156114c3565b346101af5760003660031901126101af57600254600160005b82821115611615576115889150611916565b6000916001905b808211156115a55760405180610aa5858261176c565b610ad0908260009493945260036020526115cc600860406000200160405193848092611948565b60005b8251811015611602576001906001600160a01b036115ed828661198b565b51166115fb610b068961186c565b52016115cf565b50919261160f915061186c565b9061158f565b610b46611634918360005260036020526008604060002001549061187b565b90611576565b346101af5760403660031901126101af57600435611656611756565b90801515806116c9575b611669906117ed565b806000526003602052600660406000200160018060a01b03831660005260205261169a60ff6040600020541661182b565b600052600360205260076040600020019060018060a01b03166000526020526020604060002054604051908152f35b50600254811115611660565b346101af5760003660031901126101af576020600254604051908152f35b346101af5760203660031901126101af5760043580151580611734575b611719906117ed565b60005260036020526020600260406000200154604051908152f35b50600254811115611710565b600435906001600160a01b03821682036101af57565b602435906001600160a01b03821682036101af57565b602060408183019282815284518094520192019060005b8181106117905750505090565b82516001600160a01b0316845260209384019390920191600101611783565b9060058210156105335752565b9181601f840112156101af5782359167ffffffffffffffff83116101af576020808501948460051b0101116101af57565b156117f457565b60405162461bcd60e51b815260206004820152600f60248201526e125b9d985b1a590819d85b59481251608a1b6044820152606490fd5b1561183257565b60405162461bcd60e51b8152602060048201526012602482015271506c61796572206e6f7420696e2067616d6560701b6044820152606490fd5b60001981146105025760010190565b9190820180921161050257565b60a0810190811067ffffffffffffffff821117610a1957604052565b6080810190811067ffffffffffffffff821117610a1957604052565b60c0810190811067ffffffffffffffff821117610a1957604052565b90601f8019910116810190811067ffffffffffffffff821117610a1957604052565b67ffffffffffffffff8111610a195760051b60200190565b90611920826118fe565b61192d60405191826118dc565b828152809261193e601f19916118fe565b0190602036910137565b906020825491828152019160005260206000209060005b81811061196c5750505090565b82546001600160a01b031684526020909301926001928301920161195f565b805182101561199f5760209160051b010190565b634e487b7160e01b600052603260045260246000fd5b60058210156105335752565b156119c857565b60405162461bcd60e51b8152602060048201526016602482015275506c61796572206e6f7420696e20616e792067616d6560501b6044820152606490fd5b15611a0d57565b60405162461bcd60e51b815260206004820152600f60248201526e47616d65206e6f742061637469766560881b6044820152606490fd5b90336000526005602052611a5f60ff604060002054166119c1565b33600052600460205260406000205491826000526003602052604060002060ff8154166005811015610533576002611a979114611a06565b336000908152600d8201602052604090205460ff1615611d4a57600e81019060018060a01b0333166000528160205260ff60406000205416611d1257336000908152600a820160205260409020548311611ccd5760018101600181541480611cc0575b611c9a575b5460011901611c5f57600281019384544211611c2457604051602081019185835260408201523360601b606082015260548152611b3d6074826118dc565b519020336000908152600b8301602052604090205403611bee57336000908152600c82016020908152604080832086905593905291909120805460ff19166001179055601081018054909260089291611b959061186c565b809455604051908152857f0319fcec55b5300a4dcc6f96b2df475a149433dc721ba7d96c8fb14495b748ac60203393a3015414908115611be3575b50611bd85750565b611be1906120be565b565b905054421138611bd0565b60405162461bcd60e51b815260206004820152600e60248201526d125b9d985b1a59081c995d99585b60921b6044820152606490fd5b60405162461bcd60e51b815260206004820152601360248201527214995d99585b081c195c9a5bd908195b991959606a1b6044820152606490fd5b60405162461bcd60e51b81526020600482015260136024820152724e6f7420696e2072657665616c20737461676560681b6044820152606490fd5b611ca386611e85565b60ff825416600581101561053357600403611aff57505050505050565b5060028201544211611afa565b60405162461bcd60e51b815260206004820152601c60248201527f426964206578636565647320617661696c61626c6520706f696e7473000000006044820152606490fd5b60405162461bcd60e51b815260206004820152601060248201526f105b1c9958591e481c995d99585b195960821b6044820152606490fd5b60405162461bcd60e51b8152602060048201526011602482015270135d5cdd0818dbdb5b5a5d08199a5c9cdd607a1b6044820152606490fd5b15611d8a57565b60405162461bcd60e51b815260206004820152601860248201527f4f6e6c792047616d654d61737465722063616e2063616c6c00000000000000006044820152606490fd5b919081101561199f5760051b0190565b805482101561199f5760005260206000200190600090565b9081549168010000000000000000831015610a195782611e1f916001611be195018155611ddf565b81546001600160a01b0393841660039290921b91821b9390911b1916919091179055565b15611e4a57565b60405162461bcd60e51b81526020600482015260136024820152724e6f7420696e20636f6d6d697420737461676560681b6044820152606490fd5b80600052600360205260406000206001810190611ea56001835414611e43565b600281018054421180156120ad575b1561206857600f820154926008830193845480911461202757611ed681611916565b600091600d8601835b828110611fba5750505060005b828110611f94575050506002845410600014611f545750507fa7690f576eaef889ef9ef29d1eaee6c0e3b073108b66bb8009ec8af6428bb34591611f4f91600460ff19825416178155600442910155604051918291602083526020830190611948565b0390a2565b600291935055603c4201804211610502576011606092826000805160206127c48339815191529555015490604051918252600260208301526040820152a2565b600190611fb46001600160a01b03611fac838661198b565b51168a6125b2565b01611eec565b8060ff6040611fcb6001948d611ddf565b905460039190911b1c60a085901b859003166000908152602086905220541615611ff6575b01611edf565b612000818b611ddf565b838060a01b0391549060031b1c1661202161201a8861186c565b978761198b565b52611ff0565b50600291935055603c4201804211610502576011606092826000805160206127c48339815191529555015490604051918252600260208301526040820152a2565b60405162461bcd60e51b815260206004820152601b60248201527f43616e6e6f7420656e6420636f6d6d69742073746167652079657400000000006044820152606490fd5b50600f820154600883015414611eb4565b600081815260036020526040902060088101805482906120dd81611916565b91600093600e60009201915b838110612530575050505060005b82811061251257505050600801546122a0575b80600052600360205260406000206002600882015410908115612290575b5015612188578060005260036020527fa7690f576eaef889ef9ef29d1eaee6c0e3b073108b66bb8009ec8af6428bb345611f4f6040600020600460ff19825416178155426004820155604051918291602083526008602084019101611948565b90816000526003602052604060002060118101906121a6825461186c565b82556001808201556078420180421161050257600282949394019081556000600f830155600060108301556000926008830190600d840196600e850193600c600b87019601965b845481101561225b5780600060408c816122096001968b611ddf565b905460039190911b1c60a087901b879003168085526020928352908420805460ff199081169091558185528b8352838520805490911690558084528b825282842084905583528b9052812055016121ed565b50935095915095506000805160206127c4833981519152935060609250549054604051918252600160208301526040820152a2565b6014915060110154101538612128565b9081600052600360205260406000206000199260088201916122c28354611916565b91600095600094600e8401955b81548110156123e9576122e28183611ddf565b905460039190911b1c6001600160a01b031660008181526020899052604090205490919060ff16612318575b60019150016122cf565b6001600160a01b0382166000908152600c87016020908152604080832054600a8a019283905292205491939184111561236957506001925061236361235c8c61186c565b9b8961198b565b5261230e565b8584106123e0575b6040600060018060a01b038416815282602052209081548581039081116105025760019560407f35f48251a260a81f4842c8ab03d63a9e1845547fb728412340a68ec6c8f300219381938c9655600090898060a01b0388168252602052205482519182526020820152a361230e565b94508294612371565b50509350939491905060005b8281106124ec5750505081600052600360205260406000206008810180549061241d82611916565b92600094600092600e8301935b85811061246f5750505050505060005b8281106124495750505061210a565b6001906124696001600160a01b03612461838661198b565b5116866125b2565b0161243a565b8061247c60019284611ddf565b838060a01b0391549060031b1c1660ff60406000858060a01b038416815289602052205416806124cd575b6124b3575b500161242a565b6124c66124bf8b61186c565b9a8a61198b565b52386124ac565b508460406000858060a01b0384168152600c89016020522054146124a7565b60019061250c6001600160a01b03612504838661198b565b5116876125b2565b016123f5565b60019061252a6001600160a01b03612504838661198b565b016120f7565b8061253d60019284611ddf565b838060a01b0391549060031b1c1660ff60406000858060a01b0384168152876020522054161561256f575b50016120e9565b61258261257b8961186c565b988861198b565b5238612568565b6000546001600160a01b0316330361259d57565b63118cdaa760e01b6000523360045260246000fd5b90600091808352600360205260408320916009830160018060a01b03821685528060205260ff6040862054161561278a5760018060a01b03821685526020526040842060ff19815416905560018060a01b03169182845260056020526040842060ff19815416905582845260046020528360408120558360088201945b85548082101561277e57856126448389611ddf565b905460039190911b1c6001600160a01b031614612664575060010161262f565b600096929394959619810190811161276a5790611e1f6126876126a09385611ddf565b905460039190911b1c6001600160a01b03169184611ddf565b805480156127565760001901906126b78282611ddf565b81549060018060a01b039060031b1b19169055555b6001546001600160a01b0316803b156127525790808060079493602460405180948193633ef6cf1d60e21b83528b60048401525af1612742575b505083600052016020527f51479c93d7646904d2282e9e79cddf11999ac774b7fd0289e2f59cb4ad0f086a6020604060002054604051908152a3565b8161274c916118dc565b38612706565b5080fd5b634e487b7160e01b83526031600452602483fd5b634e487b7160e01b84526011600452602484fd5b505090919293506126cc565b60405162461bcd60e51b8152602060048201526011602482015270506c61796572206e6f742061637469766560781b6044820152606490fdfefd9d17e5565deea3d25918d95fc398673b9445ef0a96d12eaf3ab2b198756c65a2646970667358221220304e45b907567926786fd7bbe2780ee85949f4e21c1b315ed3d2123662457f5c64736f6c634300081c0033",
  "linkReferences": {},
  "deployedLinkReferences": {}
}