{
  "_format": "hh-sol-artifact-1",
  "contractName": "GameMaster",
  "sourceName": "contracts/GameMaster.sol",
  "abi": [
    {
      "inputs": [],
      "stateMutability": "nonpayable",
      "type": "constructor"
    },
    {
      "inputs": [
        {
          "internalType": "address",
          "name": "owner",
          "type": "address"
        }
      ],
      "name": "OwnableInvalidOwner",
      "type": "error"
    },
    {
      "inputs": [
        {
          "internalType": "address",
          "name": "account",
          "type": "address"
        }
      ],
      "name": "OwnableUnauthorizedAccount",
      "type": "error"
    },
    {
      "anonymous": false,
      "inputs": [
        {
          "indexed": false,
          "internalType": "string",
          "name": "gameName",
          "type": "string"
        },
        {
          "indexed": false,
          "internalType": "address",
          "name": "gameAddress",
          "type": "address"
        }
      ],
      "name": "GameRegistered",
      "type": "event"
    },
    {
      "anonymous": false,
      "inputs": [
        {
          "indexed": false,
          "internalType": "string",
          "name": "gameName",
          "type": "string"
        },
        {
          "indexed": false,
          "internalType": "address",
          "name": "gameAddress",
          "type": "address"
        },
        {
          "indexed": false,
          "internalType": "uint256",
          "name": "gameId",
          "type": "uint256"
        }
      ],
      "name": "GameStarted",
      "type": "event"
    },
    {
      "anonymous": false,
      "inputs": [
        {
          "indexed": true,
          "internalType": "address",
          "name": "previousOwner",
          "type": "address"
        },
        {
          "indexed": true,
          "internalType": "address",
          "name": "newOwner",
          "type": "address"
        }
      ],
      "name": "OwnershipTransferred",
      "type": "event"
    },
    {
      "anonymous": false,
      "inputs": [
        {
          "indexed": true,
          "internalType": "address",
          "name": "player",
          "type": "address"
        },
        {
          "indexed": false,
          "internalType": "uint256",
          "name": "number",
          "type": "uint256"
        }
      ],
      "name": "PlayerNumberAssigned",
      "type": "event"
    },
    {
      "anonymous": false,
      "inputs": [
        {
          "indexed": false,
          "internalType": "address[]",
          "name": "players",
          "type": "address[]"
        }
      ],
      "name": "PlayersRegistered",
      "type": "event"
    },
    {
      "anonymous": false,
      "inputs": [
        {
          "indexed": false,
          "internalType": "address",
          "name": "newAddress",
          "type": "address"
        }
      ],
      "name": "RagnarokAddressUpdated",
      "type": "event"
    },
    {
      "inputs": [],
      "name": "activeGameCount",
      "outputs": [
        {
          "internalType": "uint256",
          "name": "",
          "type": "uint256"
        }
      ],
      "stateMutability": "view",
      "type": "function"
    },
    {
      "inputs": [
        {
          "internalType": "uint256",
          "name": "",
          "type": "uint256"
        }
      ],
      "name": "activeGames",
      "outputs": [
        {
          "internalType": "address",
          "name": "",
          "type": "address"
        }
      ],
      "stateMutability": "view",
      "type": "function"
    },
    {
      "inputs": [
        {
          "internalType": "string",
          "name": "gameName",
          "type": "string"
        }
      ],
      "name": "endExpiredGames",
      "outputs": [],
      "stateMutability": "nonpayable",
      "type": "function"
    },
    {
      "inputs": [
        {
          "internalType": "string",
          "name": "",
          "type": "string"
        }
      ],
      "name": "gameAddresses",
      "outputs": [
        {
          "internalType": "address",
          "name": "",
          "type": "address"
        }
      ],
      "stateMutability": "view",
      "type": "function"
    },
    {
      "inputs": [],
      "name": "getPlayerCount",
      "outputs": [
        {
          "internalType": "uint256",
          "name": "",
          "type": "uint256"
        }
      ],
      "stateMutability": "view",
      "type": "function"
    },
    {
      "inputs": [
        {
          "internalType": "address",
          "name": "player",
          "type": "address"
        }
      ],
      "name": "getPlayerInfo",
      "outputs": [
        {
          "internalType": "string",
          "name": "gameName",
          "type": "string"
        },
        {
          "internalType": "uint256",
          "name": "gameId",
          "type": "uint256"
        }
      ],
      "stateMutability": "view",
      "type": "function"
    },
    {
      "inputs": [
        {
          "internalType": "address",
          "name": "player",
          "type": "address"
        }
      ],
      "name": "getPlayerNumber",
      "outputs": [
        {
          "internalType": "uint256",
          "name": "",
          "type": "uint256"
        }
      ],
      "stateMutability": "view",
      "type": "function"
    },
    {
      "inputs": [],
      "name": "getPlayers",
      "outputs": [
        {
          "internalType": "address[]",
          "name": "",
          "type": "address[]"
        }
      ],
      "stateMutability": "view",
      "type": "function"
    },
    {
      "inputs": [],
      "name": "getRegisteredGames",
      "outputs": [
        {
          "internalType": "string[]",
          "name": "",
          "type": "string[]"
        }
      ],
      "stateMutability": "view",
      "type": "function"
    },
    {
      "inputs": [
        {
          "internalType": "string",
          "name": "gameName",
          "type": "string"
        }
      ],
      "name": "initializeGame",
      "outputs": [
        {
          "internalType": "uint256",
          "name": "",
          "type": "uint256"
        }
      ],
      "stateMutability": "nonpayable",
      "type": "function"
    },
    {
      "inputs": [
        {
          "internalType": "string",
          "name": "",
          "type": "string"
        }
      ],
      "name": "isGameRegistered",
      "outputs": [
        {
          "internalType": "bool",
          "name": "",
          "type": "bool"
        }
      ],
      "stateMutability": "view",
      "type": "function"
    },
    {
      "inputs": [
        {
          "internalType": "address",
          "name": "",
          "type": "address"
        }
      ],
      "name": "isRegistered",
      "outputs": [
        {
          "internalType": "bool",
          "name": "",
          "type": "bool"
        }
      ],
      "stateMutability": "view",
      "type": "function"
    },
    {
      "inputs": [],
      "name": "owner",
      "outputs": [
        {
          "internalType": "address",
          "name": "",
          "type": "address"
        }
      ],
      "stateMutability": "view",
      "type": "function"
    },
    {
      "inputs": [
        {
          "internalType": "address",
          "name": "",
          "type": "address"
        }
      ],
      "name": "playerNumbers",
      "outputs": [
        {
          "internalType": "uint256",
          "name": "",
          "type": "uint256"
        }
      ],
      "stateMutability": "view",
      "type": "function"
    },
    {
      "inputs": [
        {
          "internalType": "uint256",
          "name": "",
          "type": "uint256"
        }
      ],
      "name": "players",
      "outputs": [
        {
          "internalType": "address",
          "name": "",
          "type": "address"
        }
      ],
      "stateMutability": "view",
      "type": "function"
    },
    {
      "inputs": [],
      "name": "ragnarokAddress",
      "outputs": [
        {
          "internalType": "address",
          "name": "",
          "type": "address"
        }
      ],
      "stateMutability": "view",
      "type": "function"
    },
    {
      "inputs": [
        {
          "internalType": "string",
          "name": "gameName",
          "type": "string"
        },
        {
          "internalType": "address",
          "name": "gameAddress",
          "type": "address"
        }
      ],
      "name": "registerGame",
      "outputs": [],
      "stateMutability": "nonpayable",
      "type": "function"
    },
    {
      "inputs": [],
      "name": "registerPlayers",
      "outputs": [],
      "stateMutability": "nonpayable",
      "type": "function"
    },
    {
      "inputs": [
        {
          "internalType": "uint256",
          "name": "",
          "type": "uint256"
        }
      ],
      "name": "registeredGames",
      "outputs": [
        {
          "internalType": "string",
          "name": "",
          "type": "string"
        }
      ],
      "stateMutability": "view",
      "type": "function"
    },
    {
      "inputs": [],
      "name": "renounceOwnership",
      "outputs": [],
      "stateMutability": "nonpayable",
      "type": "function"
    },
    {
      "inputs": [
        {
          "internalType": "address",
          "name": "_ragnarok",
          "type": "address"
        }
      ],
      "name": "setRagnarokAddress",
      "outputs": [],
      "stateMutability": "nonpayable",
      "type": "function"
    },
    {
      "inputs": [
        {
          "internalType": "string",
          "name": "gameName",
          "type": "string"
        }
      ],
      "name": "startGames",
      "outputs": [
        {
          "internalType": "bool",
          "name": "",
          "type": "bool"
        }
      ],
      "stateMutability": "nonpayable",
      "type": "function"
    },
    {
      "inputs": [
        {
          "internalType": "address",
          "name": "newOwner",
          "type": "address"
        }
      ],
      "name": "transferOwnership",
      "outputs": [],
      "stateMutability": "nonpayable",
      "type": "function"
    }
  ],
  "bytecode": "0x6080604052348015600f57600080fd5b503380603557604051631e4fbdf760e01b81526000600482015260240160405180910390fd5b603c816041565b506091565b600080546001600160a01b038381166001600160a01b0319831681178455604051919092169283917f8be0079c531659141344cd1fd0a4f28419497f9722a3daafe3b4186f6b6457e09190a35050565b611b53806100a06000396000f3fe608060405234801561001057600080fd5b506004361061014d5760003560e01c80638b5b9ccc116100c3578063c3c5a5471161007c578063c3c5a54714610320578063c87f6ff714610343578063d4e103d51461034c578063e03a02881461035f578063f2fde38b1461037f578063f71d96cb1461039257600080fd5b80638b5b9ccc146102ac5780638da5cb5b146102c15780639e3c5a72146102d2578063ada4a401146102f2578063b6e79c5914610305578063c2e522061461031857600080fd5b806355e226c71161011557806355e226c7146101f6578063565fd49614610234578063593284011461023c5780636a6b27221461025d578063715018a61461029157806373025f521461029957600080fd5b806313e4c7141461015257806313f170be146101985780632e7ea48a146101ad57806339e160f1146101c25780634aefbbe7146101e3575b600080fd5b61017b6101603660046113ec565b6007602052600090815260409020546001600160a01b031681565b6040516001600160a01b0390911681526020015b60405180910390f35b6101ab6101a636600461141a565b6103a5565b005b6101b561045c565b60405161018f919061148e565b6101d56101d036600461153c565b610535565b60405190815260200161018f565b6101ab6101f136600461157e565b610898565b61022461020436600461161c565b805160208183018101805160048252928201919093012091525460ff1681565b604051901515815260200161018f565b6101ab610aa3565b61024f61024a36600461141a565b610db6565b60405161018f9291906116b6565b61017b61026b36600461161c565b80516020818301810180516003825292820191909301209152546001600160a01b031681565b6101ab610f8c565b60095461017b906001600160a01b031681565b6102b4610fa0565b60405161018f91906116d8565b6000546001600160a01b031661017b565b6102e56102e03660046113ec565b611002565b60405161018f9190611724565b6101d561030036600461141a565b6110ae565b6101ab61031336600461153c565b61112a565b6001546101d5565b61022461032e36600461141a565b60026020526000908152604090205460ff1681565b6101d560065481565b61022461035a36600461153c565b6111f6565b6101d561036d36600461141a565b60086020526000908152604090205481565b6101ab61038d36600461141a565b6112d5565b61017b6103a03660046113ec565b611313565b6103ad61133d565b6001600160a01b0381166104085760405162461bcd60e51b815260206004820152601860248201527f496e76616c6964205261676e61726f6b2061646472657373000000000000000060448201526064015b60405180910390fd5b600980546001600160a01b0319166001600160a01b0383169081179091556040519081527f86f58a772deb46a7943c854ccac20270071be61c58a7298ffae2fd9cbaed1b209060200160405180910390a150565b60606005805480602002602001604051908101604052809291908181526020016000905b8282101561052c57838290600052602060002001805461049f90611737565b80601f01602080910402602001604051908101604052809291908181526020018280546104cb90611737565b80156105185780601f106104ed57610100808354040283529160200191610518565b820191906000526020600020905b8154815290600101906020018083116104fb57829003601f168201915b505050505081526020019060010190610480565b50505050905090565b600061053f61133d565b60048383604051610551929190611771565b9081526040519081900360200190205460ff166105805760405162461bcd60e51b81526004016103ff90611781565b6001546105c75760405162461bcd60e51b8152602060048201526015602482015274139bc81c1b185e595c9cc81c9959da5cdd195c9959605a1b60448201526064016103ff565b6000600384846040516105db929190611771565b908152604051908190036020019020546001600160a01b031690508060005b6001548110156106f357600860006001838154811061061b5761061b6117ae565b60009182526020808320909101546001600160a01b0316835282019290925260400190205415158061069f5750600160008154811061065c5761065c6117ae565b600091825260209091200154600180546001600160a01b039092169183908110610688576106886117ae565b6000918252602090912001546001600160a01b0316145b6106eb5760405162461bcd60e51b815260206004820181905260248201527f506c61796572206d697373696e67206e756d6265722061737369676e6d656e7460448201526064016103ff565b6001016105fa565b5060015460009067ffffffffffffffff811115610712576107126115d5565b60405190808252806020026020018201604052801561073b578160200160208202803683370190505b50905060005b6001548110156107ae576008600060018381548110610762576107626117ae565b60009182526020808320909101546001600160a01b03168352820192909252604001902054825183908390811061079b5761079b6117ae565b6020908102919091010152600101610741565b50604051637fbbe46f60e01b81526001600160a01b03831690637fbbe46f906107de9060019085906004016117c4565b600060405180830381600087803b1580156107f857600080fd5b505af115801561080c573d6000803e3d6000fd5b5050600680546000935091508261082283611852565b909155506000818152600760205260409081902080546001600160a01b0319166001600160a01b038816179055519091507f556ae6f2a401959ea3e8f5c4035f8063eff09c11d1565ab4f369920dd9da3b36906108869089908990889086906118a2565b60405180910390a19695505050505050565b6108a061133d565b6001600160a01b0381166108ed5760405162461bcd60e51b8152602060048201526014602482015273496e76616c69642067616d65206164647265737360601b60448201526064016103ff565b600483836040516108ff929190611771565b9081526040519081900360200190205460ff161561095f5760405162461bcd60e51b815260206004820152601760248201527f47616d6520616c7265616479207265676973746572656400000000000000000060448201526064016103ff565b816109ac5760405162461bcd60e51b815260206004820152601960248201527f47616d65206e616d652063616e6e6f7420626520656d7074790000000000000060448201526064016103ff565b80600384846040516109bf929190611771565b908152602001604051809103902060006101000a8154816001600160a01b0302191690836001600160a01b03160217905550600160048484604051610a05929190611771565b908152604051908190036020019020805491151560ff19909216919091179055600580546001810182556000919091527f036b6384b5eca791c62761152d0c79bb0604c104a5fb6f4eb0703f3154bb3db001610a62838583611921565b507ff7757a7272e50875150e6020afe9040c7c2485f28d0513dad0f5170af4f20d43838383604051610a96939291906119e1565b60405180910390a1505050565b610aab61133d565b6009546001600160a01b0316610b035760405162461bcd60e51b815260206004820152601860248201527f5261676e61726f6b2061646472657373206e6f7420736574000000000000000060448201526064016103ff565b600954604080516306a3894560e21b815290516001600160a01b03909216916000918391631a8e25149160048082019286929091908290030181865afa158015610b51573d6000803e3d6000fd5b505050506040513d6000823e601f3d908101601f19168201604052610b799190810190611a0d565b90506000815111610bd65760405162461bcd60e51b815260206004820152602160248201527f4e6f207265676973746572656420706c617965727320696e205261676e61726f6044820152606b60f81b60648201526084016103ff565b610be2600160006113ba565b60005b600154811015610c835760006002600060018481548110610c0857610c086117ae565b6000918252602080832091909101546001600160a01b031683528201929092526040018120805460ff19169215159290921790915560018054600892919084908110610c5657610c566117ae565b60009182526020808320909101546001600160a01b03168352820192909252604001812055600101610be5565b5060005b8151811015610d7a576000828281518110610ca457610ca46117ae565b6020026020010151905060006001600160a01b0316816001600160a01b031603610d095760405162461bcd60e51b8152602060048201526016602482015275496e76616c696420706c61796572206164647265737360501b60448201526064016103ff565b6001600160a01b031660008181526008602090815260408083208590556001805480820182557fb10e2d527612073b26eecdfd717e6a320cf44b4afac2b0732d9fcbe2b7fa0cf60180546001600160a01b03191690951790945560029091529020805460ff19168217905501610c87565b507f91a3e38f2c32ac64c536ce722387584b35a6d1c88a1ce13cfa166b4f5627002881604051610daa91906116d8565b60405180910390a15050565b6001600160a01b0381166000908152600260205260408120546060919060ff16610df3575050604080516020810190915260008082529092909150565b60005b600554811015610f6f57600060058281548110610e1557610e156117ae565b906000526020600020018054610e2a90611737565b80601f0160208091040260200160405190810160405280929190818152602001828054610e5690611737565b8015610ea35780601f10610e7857610100808354040283529160200191610ea3565b820191906000526020600020905b815481529060010190602001808311610e8657829003601f168201915b505050505090506000600382604051610ebc9190611ac6565b908152604051908190036020019020546001600160a01b031690508015610f655760405163773b549d60e01b81526001600160a01b038781166004830152829160009183169063773b549d90602401602060405180830381865afa158015610f28573d6000803e3d6000fd5b505050506040513d601f19601f82011682018060405250810190610f4c9190611ae2565b90508015610f6257929792965091945050505050565b50505b5050600101610df6565b506000604051806020016040528060008152509091509150915091565b610f9461133d565b610f9e600061136a565b565b60606001805480602002602001604051908101604052809291908181526020018280548015610ff857602002820191906000526020600020905b81546001600160a01b03168152600190910190602001808311610fda575b5050505050905090565b6005818154811061101257600080fd5b90600052602060002001600091509050805461102d90611737565b80601f016020809104026020016040519081016040528092919081815260200182805461105990611737565b80156110a65780601f1061107b576101008083540402835291602001916110a6565b820191906000526020600020905b81548152906001019060200180831161108957829003601f168201915b505050505081565b6001600160a01b03811660009081526002602052604081205460ff1661110e5760405162461bcd60e51b8152602060048201526015602482015274141b185e595c881b9bdd081c9959da5cdd195c9959605a1b60448201526064016103ff565b506001600160a01b031660009081526008602052604090205490565b61113261133d565b60048282604051611144929190611771565b9081526040519081900360200190205460ff166111735760405162461bcd60e51b81526004016103ff90611781565b600060038383604051611187929190611771565b9081526040805191829003602001822054636879d10f60e11b835290516001600160a01b039091169250829163d0f3a21e91600480830192600092919082900301818387803b1580156111d957600080fd5b505af11580156111ed573d6000803e3d6000fd5b50505050505050565b600061120061133d565b60048383604051611212929190611771565b9081526040519081900360200190205460ff166112415760405162461bcd60e51b81526004016103ff90611781565b600060038484604051611255929190611771565b90815260408051602092819003830181205463e81de9f560e01b825291516001600160a01b039092169350839263e81de9f59260048084019382900301816000875af11580156112a9573d6000803e3d6000fd5b505050506040513d601f19601f820116820180604052508101906112cd9190611afb565b949350505050565b6112dd61133d565b6001600160a01b03811661130757604051631e4fbdf760e01b8152600060048201526024016103ff565b6113108161136a565b50565b6001818154811061132357600080fd5b6000918252602090912001546001600160a01b0316905081565b6000546001600160a01b03163314610f9e5760405163118cdaa760e01b81523360048201526024016103ff565b600080546001600160a01b038381166001600160a01b0319831681178455604051919092169283917f8be0079c531659141344cd1fd0a4f28419497f9722a3daafe3b4186f6b6457e09190a35050565b508054600082559060005260206000209081019061131091905b808211156113e857600081556001016113d4565b5090565b6000602082840312156113fe57600080fd5b5035919050565b6001600160a01b038116811461131057600080fd5b60006020828403121561142c57600080fd5b813561143781611405565b9392505050565b60005b83811015611459578181015183820152602001611441565b50506000910152565b6000815180845261147a81602086016020860161143e565b601f01601f19169290920160200192915050565b6000602082016020835280845180835260408501915060408160051b86010192506020860160005b828110156114e757603f198786030184526114d2858351611462565b945060209384019391909101906001016114b6565b50929695505050505050565b60008083601f84011261150557600080fd5b50813567ffffffffffffffff81111561151d57600080fd5b60208301915083602082850101111561153557600080fd5b9250929050565b6000806020838503121561154f57600080fd5b823567ffffffffffffffff81111561156657600080fd5b611572858286016114f3565b90969095509350505050565b60008060006040848603121561159357600080fd5b833567ffffffffffffffff8111156115aa57600080fd5b6115b6868287016114f3565b90945092505060208401356115ca81611405565b809150509250925092565b634e487b7160e01b600052604160045260246000fd5b604051601f8201601f1916810167ffffffffffffffff81118282101715611614576116146115d5565b604052919050565b60006020828403121561162e57600080fd5b813567ffffffffffffffff81111561164557600080fd5b8201601f8101841361165657600080fd5b803567ffffffffffffffff811115611670576116706115d5565b611683601f8201601f19166020016115eb565b81815285602083850101111561169857600080fd5b81602084016020830137600091810160200191909152949350505050565b6040815260006116c96040830185611462565b90508260208301529392505050565b602080825282518282018190526000918401906040840190835b818110156117195783516001600160a01b03168352602093840193909201916001016116f2565b509095945050505050565b6020815260006114376020830184611462565b600181811c9082168061174b57607f821691505b60208210810361176b57634e487b7160e01b600052602260045260246000fd5b50919050565b8183823760009101908152919050565b60208082526013908201527211d85b59481b9bdd081c9959da5cdd195c9959606a1b604082015260600190565b634e487b7160e01b600052603260045260246000fd5b6040808252835490820181905260008481526020812090916060840190835b8181101561180a5783546001600160a01b03168352600193840193602090930192016117e3565b50508381036020808601919091528551808352918101925085019060005b81811015611846578251845260209384019390920191600101611828565b50919695505050505050565b60006001820161187257634e487b7160e01b600052601160045260246000fd5b5060010190565b81835281816020850137506000828201602090810191909152601f909101601f19169091010190565b6060815260006118b6606083018688611879565b6001600160a01b03949094166020830152506040015292915050565b601f82111561191c57806000526020600020601f840160051c810160208510156118f95750805b601f840160051c820191505b818110156119195760008155600101611905565b50505b505050565b67ffffffffffffffff831115611939576119396115d5565b61194d836119478354611737565b836118d2565b6000601f84116001811461198157600085156119695750838201355b600019600387901b1c1916600186901b178355611919565b600083815260209020601f19861690835b828110156119b25786850135825560209485019460019092019101611992565b50868210156119cf5760001960f88860031b161c19848701351681555b505060018560011b0183555050505050565b6040815260006119f5604083018587611879565b905060018060a01b0383166020830152949350505050565b600060208284031215611a1f57600080fd5b815167ffffffffffffffff811115611a3657600080fd5b8201601f81018413611a4757600080fd5b805167ffffffffffffffff811115611a6157611a616115d5565b8060051b611a71602082016115eb565b91825260208184018101929081019087841115611a8d57600080fd5b6020850194505b83851015611abb5784519250611aa983611405565b82825260209485019490910190611a94565b979650505050505050565b60008251611ad881846020870161143e565b9190910192915050565b600060208284031215611af457600080fd5b5051919050565b600060208284031215611b0d57600080fd5b8151801515811461143757600080fdfea2646970667358221220c3f056a2b8fdbb95b80f4ef413d0736c599f5ed19bc942d22b288b8b6915604264736f6c634300081c0033",
  "linkReferences": {},
  "deployedLinkReferences": {}
}