{
  "_format": "hh-sol-artifact-1",
  "contractName": "Doors",
  "sourceName": "contracts/games/Doors.sol",
  "abi": [
    {
      "inputs": [],
      "stateMutability": "nonpayable",
      "type": "constructor"
    },
    {
      "inputs": [
        {
          "internalType": "address",
          "name": "owner",
          "type": "address"
        }
      ],
      "name": "OwnableInvalidOwner",
      "type": "error"
    },
    {
      "inputs": [
        {
          "internalType": "address",
          "name": "account",
          "type": "address"
        }
      ],
      "name": "OwnableUnauthorizedAccount",
      "type": "error"
    },
    {
      "anonymous": false,
      "inputs": [
        {
          "indexed": true,
          "internalType": "uint256",
          "name": "gameId",
          "type": "uint256"
        },
        {
          "indexed": true,
          "internalType": "address",
          "name": "player",
          "type": "address"
        },
        {
          "indexed": false,
          "internalType": "bool",
          "name": "success",
          "type": "bool"
        }
      ],
      "name": "DoorOpened",
      "type": "event"
    },
    {
      "anonymous": false,
      "inputs": [
        {
          "indexed": true,
          "internalType": "uint256",
          "name": "gameId",
          "type": "uint256"
        },
        {
          "indexed": false,
          "internalType": "address[]",
          "name": "winners",
          "type": "address[]"
        }
      ],
      "name": "GameCompleted",
      "type": "event"
    },
    {
      "anonymous": false,
      "inputs": [
        {
          "indexed": false,
          "internalType": "address[]",
          "name": "players",
          "type": "address[]"
        },
        {
          "indexed": false,
          "internalType": "uint256[]",
          "name": "playerNumbers",
          "type": "uint256[]"
        }
      ],
      "name": "GameInitialized",
      "type": "event"
    },
    {
      "anonymous": false,
      "inputs": [
        {
          "indexed": false,
          "internalType": "address",
          "name": "newGameMaster",
          "type": "address"
        }
      ],
      "name": "GameMasterChanged",
      "type": "event"
    },
    {
      "anonymous": false,
      "inputs": [
        {
          "indexed": true,
          "internalType": "address",
          "name": "previousOwner",
          "type": "address"
        },
        {
          "indexed": true,
          "internalType": "address",
          "name": "newOwner",
          "type": "address"
        }
      ],
      "name": "OwnershipTransferred",
      "type": "event"
    },
    {
      "anonymous": false,
      "inputs": [
        {
          "indexed": true,
          "internalType": "uint256",
          "name": "gameId",
          "type": "uint256"
        },
        {
          "indexed": true,
          "internalType": "address",
          "name": "player",
          "type": "address"
        },
        {
          "indexed": false,
          "internalType": "uint256",
          "name": "playerNumber",
          "type": "uint256"
        }
      ],
      "name": "PlayerEliminated",
      "type": "event"
    },
    {
      "anonymous": false,
      "inputs": [
        {
          "indexed": true,
          "internalType": "uint256",
          "name": "gameId",
          "type": "uint256"
        },
        {
          "indexed": false,
          "internalType": "uint256",
          "name": "roundNumber",
          "type": "uint256"
        }
      ],
      "name": "RoundEnded",
      "type": "event"
    },
    {
      "anonymous": false,
      "inputs": [
        {
          "indexed": true,
          "internalType": "uint256",
          "name": "gameId",
          "type": "uint256"
        },
        {
          "indexed": false,
          "internalType": "uint256",
          "name": "roundNumber",
          "type": "uint256"
        },
        {
          "indexed": false,
          "internalType": "uint256",
          "name": "endTime",
          "type": "uint256"
        }
      ],
      "name": "RoundStarted",
      "type": "event"
    },
    {
      "inputs": [],
      "name": "endExpiredGames",
      "outputs": [],
      "stateMutability": "nonpayable",
      "type": "function"
    },
    {
      "inputs": [],
      "name": "endGame",
      "outputs": [
        {
          "internalType": "address[]",
          "name": "winners",
          "type": "address[]"
        }
      ],
      "stateMutability": "nonpayable",
      "type": "function"
    },
    {
      "inputs": [],
      "name": "gameIdCounter",
      "outputs": [
        {
          "internalType": "uint256",
          "name": "",
          "type": "uint256"
        }
      ],
      "stateMutability": "view",
      "type": "function"
    },
    {
      "inputs": [],
      "name": "gameMaster",
      "outputs": [
        {
          "internalType": "address",
          "name": "",
          "type": "address"
        }
      ],
      "stateMutability": "view",
      "type": "function"
    },
    {
      "inputs": [
        {
          "internalType": "uint256",
          "name": "gameId",
          "type": "uint256"
        }
      ],
      "name": "getActivePlayers",
      "outputs": [
        {
          "internalType": "address[]",
          "name": "",
          "type": "address[]"
        }
      ],
      "stateMutability": "view",
      "type": "function"
    },
    {
      "inputs": [],
      "name": "getActivePlayers",
      "outputs": [
        {
          "internalType": "address[]",
          "name": "",
          "type": "address[]"
        }
      ],
      "stateMutability": "view",
      "type": "function"
    },
    {
      "inputs": [
        {
          "internalType": "uint256",
          "name": "gameId",
          "type": "uint256"
        },
        {
          "internalType": "address",
          "name": "player",
          "type": "address"
        }
      ],
      "name": "getDoorsOpened",
      "outputs": [
        {
          "internalType": "uint256",
          "name": "",
          "type": "uint256"
        }
      ],
      "stateMutability": "view",
      "type": "function"
    },
    {
      "inputs": [
        {
          "internalType": "uint256",
          "name": "gameId",
          "type": "uint256"
        }
      ],
      "name": "getGameInfo",
      "outputs": [
        {
          "components": [
            {
              "internalType": "enum IGame.GameState",
              "name": "state",
              "type": "uint8"
            },
            {
              "internalType": "uint256",
              "name": "currentRound",
              "type": "uint256"
            },
            {
              "internalType": "uint256",
              "name": "roundEndTime",
              "type": "uint256"
            }
          ],
          "internalType": "struct IGame.GameInfo",
          "name": "",
          "type": "tuple"
        }
      ],
      "stateMutability": "view",
      "type": "function"
    },
    {
      "inputs": [],
      "name": "getGameName",
      "outputs": [
        {
          "internalType": "string",
          "name": "",
          "type": "string"
        }
      ],
      "stateMutability": "pure",
      "type": "function"
    },
    {
      "inputs": [
        {
          "internalType": "uint256",
          "name": "gameId",
          "type": "uint256"
        }
      ],
      "name": "getGameState",
      "outputs": [
        {
          "internalType": "enum IGame.GameState",
          "name": "",
          "type": "uint8"
        }
      ],
      "stateMutability": "view",
      "type": "function"
    },
    {
      "inputs": [
        {
          "internalType": "address",
          "name": "player",
          "type": "address"
        }
      ],
      "name": "getPlayerGameId",
      "outputs": [
        {
          "internalType": "uint256",
          "name": "",
          "type": "uint256"
        }
      ],
      "stateMutability": "view",
      "type": "function"
    },
    {
      "inputs": [
        {
          "internalType": "uint256",
          "name": "gameId",
          "type": "uint256"
        }
      ],
      "name": "getPlayerInfo",
      "outputs": [
        {
          "components": [
            {
              "internalType": "address",
              "name": "playerAddress",
              "type": "address"
            },
            {
              "internalType": "uint256",
              "name": "playerNumber",
              "type": "uint256"
            },
            {
              "internalType": "bool",
              "name": "isActive",
              "type": "bool"
            },
            {
              "internalType": "uint256",
              "name": "doorsOpened",
              "type": "uint256"
            }
          ],
          "internalType": "struct Doors.PlayerInfo[]",
          "name": "",
          "type": "tuple[]"
        }
      ],
      "stateMutability": "view",
      "type": "function"
    },
    {
      "inputs": [
        {
          "internalType": "uint256",
          "name": "gameId",
          "type": "uint256"
        },
        {
          "internalType": "address",
          "name": "player",
          "type": "address"
        }
      ],
      "name": "getPlayerNumber",
      "outputs": [
        {
          "internalType": "uint256",
          "name": "",
          "type": "uint256"
        }
      ],
      "stateMutability": "view",
      "type": "function"
    },
    {
      "inputs": [
        {
          "internalType": "uint256",
          "name": "gameId",
          "type": "uint256"
        }
      ],
      "name": "getPlayers",
      "outputs": [
        {
          "internalType": "address[]",
          "name": "",
          "type": "address[]"
        }
      ],
      "stateMutability": "view",
      "type": "function"
    },
    {
      "inputs": [],
      "name": "getPlayers",
      "outputs": [
        {
          "internalType": "address[]",
          "name": "",
          "type": "address[]"
        }
      ],
      "stateMutability": "view",
      "type": "function"
    },
    {
      "inputs": [],
      "name": "getStats",
      "outputs": [
        {
          "components": [
            {
              "internalType": "uint256",
              "name": "activePlayerCount",
              "type": "uint256"
            },
            {
              "internalType": "uint256",
              "name": "currentRound",
              "type": "uint256"
            },
            {
              "internalType": "enum IGame.GameState",
              "name": "state",
              "type": "uint8"
            }
          ],
          "internalType": "struct IGame.GameStats[]",
          "name": "instanceStats",
          "type": "tuple[]"
        },
        {
          "internalType": "uint256",
          "name": "totalPlayers",
          "type": "uint256"
        },
        {
          "internalType": "uint256",
          "name": "totalActivePlayers",
          "type": "uint256"
        },
        {
          "internalType": "uint256",
          "name": "totalEliminatedPlayers",
          "type": "uint256"
        },
        {
          "internalType": "uint256",
          "name": "activeGameCount",
          "type": "uint256"
        }
      ],
      "stateMutability": "view",
      "type": "function"
    },
    {
      "inputs": [
        {
          "internalType": "address[]",
          "name": "_players",
          "type": "address[]"
        },
        {
          "internalType": "uint256[]",
          "name": "_playerNumbers",
          "type": "uint256[]"
        }
      ],
      "name": "initialize",
      "outputs": [],
      "stateMutability": "nonpayable",
      "type": "function"
    },
    {
      "inputs": [
        {
          "internalType": "address",
          "name": "",
          "type": "address"
        }
      ],
      "name": "isPlayerInGame",
      "outputs": [
        {
          "internalType": "bool",
          "name": "",
          "type": "bool"
        }
      ],
      "stateMutability": "view",
      "type": "function"
    },
    {
      "inputs": [],
      "name": "openDoor",
      "outputs": [
        {
          "internalType": "bool",
          "name": "",
          "type": "bool"
        }
      ],
      "stateMutability": "nonpayable",
      "type": "function"
    },
    {
      "inputs": [],
      "name": "owner",
      "outputs": [
        {
          "internalType": "address",
          "name": "",
          "type": "address"
        }
      ],
      "stateMutability": "view",
      "type": "function"
    },
    {
      "inputs": [
        {
          "internalType": "address",
          "name": "",
          "type": "address"
        }
      ],
      "name": "playerGameId",
      "outputs": [
        {
          "internalType": "uint256",
          "name": "",
          "type": "uint256"
        }
      ],
      "stateMutability": "view",
      "type": "function"
    },
    {
      "inputs": [],
      "name": "renounceOwnership",
      "outputs": [],
      "stateMutability": "nonpayable",
      "type": "function"
    },
    {
      "inputs": [
        {
          "internalType": "address",
          "name": "_newGameMaster",
          "type": "address"
        }
      ],
      "name": "setGameMaster",
      "outputs": [],
      "stateMutability": "nonpayable",
      "type": "function"
    },
    {
      "inputs": [],
      "name": "startGames",
      "outputs": [
        {
          "internalType": "bool",
          "name": "",
          "type": "bool"
        }
      ],
      "stateMutability": "nonpayable",
      "type": "function"
    },
    {
      "inputs": [
        {
          "internalType": "address",
          "name": "newOwner",
          "type": "address"
        }
      ],
      "name": "transferOwnership",
      "outputs": [],
      "stateMutability": "nonpayable",
      "type": "function"
    }
  ],
  "bytecode": "0x6080604052348015600f57600080fd5b503380603557604051631e4fbdf760e01b81526000600482015260240160405180910390fd5b603c816053565b50600180546001600160a01b0319163317905560a3565b600080546001600160a01b038381166001600160a01b0319831681178455604051919092169283917f8be0079c531659141344cd1fd0a4f28419497f9722a3daafe3b4186f6b6457e09190a35050565b6122f6806100b26000396000f3fe608060405234801561001057600080fd5b50600436106101735760003560e01c80637fbbe46f116100de578063c59d484711610097578063e81de9f511610071578063e81de9f514610343578063ea17532e1461034b578063f2fde38b1461036b578063ffde0c741461037e57600080fd5b8063c59d48471461031a578063d0f3a21e14610333578063db0e127a1461033b57600080fd5b80637fbbe46f1461028d5780638b5b9ccc146102a05780638da5cb5b146102a8578063bbda33d9146102cd578063bdf84ae7146102f4578063c2e949271461030757600080fd5b8063460e204911610130578063460e20491461020257806347e1d55014610215578063574a5b20146102355780636cbc2ded14610268578063715018a614610270578063773b549d1461027a57600080fd5b80631bb412d6146101785780631e756ff91461019457806325b05c88146101a7578063342ed956146101c75780633532804d146101e75780633c4f5a66146101fa575b600080fd5b61018160025481565b6040519081526020015b60405180910390f35b6101816101a2366004611d97565b6103ae565b6101816101b5366004611dc3565b60046020526000908152604090205481565b6101da6101d5366004611dde565b6103db565b60405161018b9190611df7565b6101816101f5366004611d97565b61044a565b6101da610519565b6101da610210366004611dde565b61069c565b610228610223366004611dde565b610709565b60405161018b9190611e7b565b610258610243366004611dc3565b60056020526000908152604090205460ff1681565b604051901515815260200161018b565b6101da6107b2565b6102786107f4565b005b610181610288366004611dc3565b610808565b61027861029b366004611ef4565b61084c565b6101da610b87565b6000546001600160a01b03165b6040516001600160a01b03909116815260200161018b565b6040805180820182526005815264446f6f727360d81b6020820152905161018b9190611f65565b6001546102b5906001600160a01b031681565b610278610315366004611dc3565b610cff565b610322610db1565b60405161018b959493929190611fb3565b610278610f0c565b610258611064565b61025861138b565b61035e610359366004611dde565b6114e5565b60405161018b9190612039565b610278610379366004611dc3565b611652565b6103a161038c366004611dde565b60009081526003602052604090205460ff1690565b60405161018b919061209f565b60008281526003602090815260408083206001600160a01b03851684526008019091529020545b92915050565b60008181526003602090815260409182902060060180548351818402810184019094528084526060939283018282801561043e57602002820191906000526020600020905b81546001600160a01b03168152600190910190602001808311610420575b50505050509050919050565b6000808311801561045d57506002548311155b6104825760405162461bcd60e51b8152600401610479906120ad565b60405180910390fd5b60008381526003602090815260408083206001600160a01b038616845260040190915290205460ff166104ec5760405162461bcd60e51b8152602060048201526012602482015271506c61796572206e6f7420696e2067616d6560701b6044820152606401610479565b5060008281526003602090815260408083206001600160a01b038516845260050190915290205492915050565b6060600060015b60025481116105595760008181526003602052604090206006015461054590836120ec565b915080610551816120ff565b915050610520565b5060008167ffffffffffffffff81111561057557610575612118565b60405190808252806020026020018201604052801561059e578160200160208202803683370190505b509050600060015b60025481116106935760008181526003602090815260408083206006018054825181850281018501909352808352919290919083018282801561061257602002820191906000526020600020905b81546001600160a01b031681526001909101906020018083116105f4575b5050505050905060005b815181101561067e578181815181106106375761063761212e565b60200260200101518585815181106106515761065161212e565b6001600160a01b039092166020928302919091019091015283610673816120ff565b94505060010161061c565b5050808061068b906120ff565b9150506105a6565b50909392505050565b60008181526003602081815260409283902090910180548351818402810184019094528084526060939283018282801561043e576020028201919060005260206000209081546001600160a01b031681526001909101906020018083116104205750505050509050919050565b61072e6040805160608101909152806000815260200160008152602001600081525090565b60008211801561074057506002548211155b61075c5760405162461bcd60e51b8152600401610479906120ad565b600082815260036020526040808220815160608101909252805490929190819060ff16600481111561079057610790611e43565b8152600284015460208201526001909301546040909301929092525092915050565b6001546060906001600160a01b031633146107df5760405162461bcd60e51b815260040161047990612144565b6107e761168d565b6107ef61179b565b905090565b6107fc611918565b6108066000611945565b565b6001600160a01b03811660009081526005602052604081205460ff1661083057506000919050565b506001600160a01b031660009081526004602052604090205490565b6001546001600160a01b031633146108765760405162461bcd60e51b815260040161047990612144565b826108b95760405162461bcd60e51b8152602060048201526013602482015272139bc81c1b185e595c9cc81c1c9bdd9a591959606a1b6044820152606401610479565b8281146109085760405162461bcd60e51b815260206004820152601860248201527f4172726179206c656e67746873206d757374206d6174636800000000000000006044820152606401610479565b8260006014600161091982856120ec565b610923919061217b565b61092d91906121a4565b9050600061093b82846121a4565b9050600061094983856121b8565b90506000805b84811015610b7b576000600260008154610968906120ff565b91829055506000818152600360205260408120805460ff19166001178155600281019190915590915085858410156109a8576109a56001826120ec565b90505b60005b81811015610b315760008e8e888181106109c7576109c761212e565b90506020020160208101906109dc9190611dc3565b90506001600160a01b038116610a2d5760405162461bcd60e51b8152602060048201526016602482015275496e76616c696420706c61796572206164647265737360501b6044820152606401610479565b600384018054600181018255600091825260209091200180546001600160a01b0319166001600160a01b0383161790558c8c88818110610a6f57610a6f61212e565b6001600160a01b0384166000818152600589016020908152604080832094820296909601359093556004890183528481208054600160ff19918216811790925560068b01805480840182559084528584200180546001600160a01b0319168517905592825260078a01909352939093208054909316179091555086610af3816120ff565b6001600160a01b03909216600090815260046020908152604080832089905560059091529020805460ff1916600190811790915591975050016109ab565b507fb66ba8feaec509998ef3217bc97fbf1a0f906b89fac25a4ace8ddff059a41f12826003018c8c604051610b6893929190612216565b60405180910390a150505060010161094f565b50505050505050505050565b6060600060015b6002548111610bc85760008181526003602081905260409091200154610bb490836120ec565b915080610bc0816120ff565b915050610b8e565b5060008167ffffffffffffffff811115610be457610be4612118565b604051908082528060200260200182016040528015610c0d578160200160208202803683370190505b509050600060015b600254811161069357600081815260036020818152604080842090920180548351818402810184019094528084529091830182828015610c7e57602002820191906000526020600020905b81546001600160a01b03168152600190910190602001808311610c60575b5050505050905060005b8151811015610cea57818181518110610ca357610ca361212e565b6020026020010151858581518110610cbd57610cbd61212e565b6001600160a01b039092166020928302919091019091015283610cdf816120ff565b945050600101610c88565b50508080610cf7906120ff565b915050610c15565b610d07611918565b6001600160a01b038116610d5d5760405162461bcd60e51b815260206004820152601a60248201527f496e76616c69642047616d654d617374657220616464726573730000000000006044820152606401610479565b600180546001600160a01b0319166001600160a01b0383169081179091556040519081527f63860f6674590a6969c4fe1dc738a9c8f955407c09e6c67a6bdb818f4c35cd8a9060200160405180910390a150565b606060008060008060025467ffffffffffffffff811115610dd457610dd4612118565b604051908082528060200260200182016040528015610e0d57816020015b610dfa611d4a565b815260200190600190039081610df25790505b5094506000935083925082905060015b6002548111610ef8576000818152600360209081526040918290208251606081018452600682015481526002820154928101929092528054909282019060ff166004811115610e6e57610e6e611e43565b905287610e7c60018561217b565b81518110610e8c57610e8c61212e565b60209081029190910101526003810154610ea690876120ec565b6006820154909650610eb890866120ec565b94506004815460ff166004811115610ed257610ed2611e43565b14610ee55782610ee1816120ff565b9350505b5080610ef0816120ff565b915050610e1d565b50610f03838561217b565b91509091929394565b6001546001600160a01b03163314610f365760405162461bcd60e51b815260040161047990612144565b60015b60025481116110615760008181526003602052604090206002815460ff166004811115610f6857610f68611e43565b148015610f785750806001015442115b1561104e57600681015460005b81811015610fcf57600083600601600081548110610fa557610fa561212e565b6000918252602090912001546001600160a01b03169050610fc68582611995565b50600101610f85565b50815460ff191660041782556040805160008152602081019182905284916000805160206122a18339815191529161100691611df7565b60405180910390a2827f8868888cc18628a149bc88cc32a91976ab30e2cd9aececb0cfe184a73fe551f9836002015460405161104491815260200190565b60405180910390a2505b5080611059816120ff565b915050610f39565b50565b3360009081526005602052604081205460ff166110bc5760405162461bcd60e51b8152602060048201526016602482015275506c61796572206e6f7420696e20616e792067616d6560501b6044820152606401610479565b3360009081526004602090815260408083205480845260039092529091206002815460ff1660048111156110f2576110f2611e43565b146111315760405162461bcd60e51b815260206004820152600f60248201526e47616d65206e6f742061637469766560881b6044820152606401610479565b33600090815260078201602052604090205460ff166111895760405162461bcd60e51b81526020600482015260146024820152732737ba1030b71030b1ba34bb3290383630bcb2b960611b6044820152606401610479565b806001015442111561126e57600681015460005b818110156111e7576000836006016000815481106111bd576111bd61212e565b6000918252602090912001546001600160a01b031690506111de8582611995565b5060010161119d565b50815460ff191660041782556040805160008152602081019182905284916000805160206122a18339815191529161121e91611df7565b60405180910390a2827f8868888cc18628a149bc88cc32a91976ab30e2cd9aececb0cfe184a73fe551f9836002015460405161125c91815260200190565b60405180910390a26000935050505090565b336000908152600882016020526040812080549161128b836120ff565b909155506000905061129e60014361217b565b6002830154604080519240602084015242908301526bffffffffffffffffffffffff1933606090811b8216818501526074840192909252609483018690523090911b1660b482015260c80160408051601f198184030181529190528051602090910120905060006113106002836121b8565b60405190158082529150339085907f4fff61170b45e4c2809f07a4bb02837d17fcdc209a7cb683ff938c9aa374100d9060200160405180910390a38061136e5761135a8433611995565b61136384611b99565b600094505050505090565b61137784611b99565b61138084611c4c565b600194505050505090565b6001546000906001600160a01b031633146113b85760405162461bcd60e51b815260040161047990612144565b60016000815b60025481116114cd5760008181526003602052604090206004815460ff1660048111156113ed576113ed611e43565b036113f857506114bb565b82611402816120ff565b935060019050815460ff16600481111561141e5761141e611e43565b14801561142e5750600681015415155b801561143c57506002810154155b156114b45760016002828101829055825460ff191617825561145d90611d1c565b61146790426120ec565b60018201819055600282015460408051918252602082019290925283917fa359b664a68acd8839e42112eb50eff3408165e15074fde89ddb58a0db2e691d910160405180910390a26114b9565b600093505b505b806114c5816120ff565b9150506113be565b50806000036114df5760019250505090565b50905090565b60606000821180156114f957506002548211155b6115155760405162461bcd60e51b8152600401610479906120ad565b600082815260036020819052604082209081015490919067ffffffffffffffff81111561154457611544612118565b60405190808252806020026020018201604052801561159657816020015b6040805160808101825260008082526020808301829052928201819052606082015282526000199092019101816115625790505b50905060005b600383015481101561164a5760008360030182815481106115bf576115bf61212e565b6000918252602080832090910154604080516080810182526001600160a01b0390921680835280855260058901845281852054838501528085526007890184528185205460ff161515838301528085526008890190935290922054606083015284519092508490849081106116365761163661212e565b60209081029190910101525060010161159c565b509392505050565b61165a611918565b6001600160a01b03811661168457604051631e4fbdf760e01b815260006004820152602401610479565b61106181611945565b60015b60025481116110615760008181526003602052604090206002810154600a1115806116d057506004815460ff1660048111156116ce576116ce611e43565b145b6117345760405162461bcd60e51b815260206004820152602f60248201527f4e6f7420616c6c20696e7374616e636573206861766520636f6d706c6574656460448201526e206d6178696d756d20726f756e647360881b6064820152608401610479565b6004815460ff16600481111561174c5761174c611e43565b1461178857805460ff1916600417815560405182906000805160206122a18339815191529061177f906006850190612260565b60405180910390a25b5080611793816120ff565b915050611690565b6060600060015b60025481116117db576000818152600360205260409020600601546117c790836120ec565b9150806117d3816120ff565b9150506117a2565b508067ffffffffffffffff8111156117f5576117f5612118565b60405190808252806020026020018201604052801561181e578160200160208202803683370190505b509150600060015b60025481116119125760008181526003602090815260408083206006018054825181850281018501909352808352919290919083018282801561189257602002820191906000526020600020905b81546001600160a01b03168152600190910190602001808311611874575b5050505050905060005b81518110156118fd578181815181106118b7576118b761212e565b60200260200101518685806118cb906120ff565b9650815181106118dd576118dd61212e565b6001600160a01b039092166020928302919091019091015260010161189c565b5050808061190a906120ff565b915050611826565b50505090565b6000546001600160a01b031633146108065760405163118cdaa760e01b8152336004820152602401610479565b600080546001600160a01b038381166001600160a01b0319831681178455604051919092169283917f8be0079c531659141344cd1fd0a4f28419497f9722a3daafe3b4186f6b6457e09190a35050565b60008281526003602090815260408083206001600160a01b0385168452600781019092529091205460ff16611a005760405162461bcd60e51b8152602060048201526011602482015270506c61796572206e6f742061637469766560781b6044820152606401610479565b6001600160a01b03821660009081526007820160209081526040808320805460ff1990811690915560059092528220805490911690555b6006820154811015611b3c57826001600160a01b0316826006018281548110611a6257611a6261212e565b6000918252602090912001546001600160a01b031603611b3457600682018054611a8e9060019061217b565b81548110611a9e57611a9e61212e565b6000918252602090912001546006830180546001600160a01b039092169183908110611acc57611acc61212e565b9060005260206000200160006101000a8154816001600160a01b0302191690836001600160a01b0316021790555081600601805480611b0d57611b0d612273565b600082815260209020810160001990810180546001600160a01b0319169055019055611b3c565b600101611a37565b506001600160a01b03821660008181526005830160205260409081902054905185917f51479c93d7646904d2282e9e79cddf11999ac774b7fd0289e2f59cb4ad0f086a91611b8c91815260200190565b60405180910390a3505050565b6000818152600360208190526040909120805460ff191690911781556002810154600a111580611bce57506006810154600110155b15611c0a57805460ff1916600417815560405182906000805160206122a183398151915290611c01906006850190612260565b60405180910390a25b817f8868888cc18628a149bc88cc32a91976ab30e2cd9aececb0cfe184a73fe551f98260020154604051611c4091815260200190565b60405180910390a25050565b600081815260036020819052604090912090815460ff166004811115611c7457611c74611e43565b148015611c845750600681015415155b8015611c945750600a8160020154105b15611d1857600281018054906000611cab836120ff565b9091555050805460ff191660029081178255810154611cc990611d1c565b611cd390426120ec565b60018201819055600282015460408051918252602082019290925283917fa359b664a68acd8839e42112eb50eff3408165e15074fde89ddb58a0db2e691d9101611c40565b5050565b6000806006611d2c60018561217b565b611d369190612289565b9050611d4381607861217b565b9392505050565b6040518060600160405280600081526020016000815260200160006004811115611d7657611d76611e43565b905290565b80356001600160a01b0381168114611d9257600080fd5b919050565b60008060408385031215611daa57600080fd5b82359150611dba60208401611d7b565b90509250929050565b600060208284031215611dd557600080fd5b611d4382611d7b565b600060208284031215611df057600080fd5b5035919050565b602080825282518282018190526000918401906040840190835b81811015611e385783516001600160a01b0316835260209384019390920191600101611e11565b509095945050505050565b634e487b7160e01b600052602160045260246000fd5b60058110611e7757634e487b7160e01b600052602160045260246000fd5b9052565b6000606082019050611e8e828451611e59565b602083015160208301526040830151604083015292915050565b60008083601f840112611eba57600080fd5b50813567ffffffffffffffff811115611ed257600080fd5b6020830191508360208260051b8501011115611eed57600080fd5b9250929050565b60008060008060408587031215611f0a57600080fd5b843567ffffffffffffffff811115611f2157600080fd5b611f2d87828801611ea8565b909550935050602085013567ffffffffffffffff811115611f4d57600080fd5b611f5987828801611ea8565b95989497509550505050565b602081526000825180602084015260005b81811015611f935760208186018101516040868401015201611f76565b506000604082850101526040601f19601f83011684010191505092915050565b60a08082528651908201819052600090602088019060c0840190835b81811015612012578351805184526020810151602085015260408101519050611ffb6040850182611e59565b506020939093019260609290920191600101611fcf565b50506020840197909752505060408101939093526060830191909152608090910152919050565b602080825282518282018190526000918401906040840190835b81811015611e3857835180516001600160a01b03168452602080820151818601526040808301511515908601526060918201519185019190915290930192608090920191600101612053565b602081016103d58284611e59565b6020808252600f908201526e125b9d985b1a590819d85b59481251608a1b604082015260600190565b634e487b7160e01b600052601160045260246000fd5b808201808211156103d5576103d56120d6565b600060018201612111576121116120d6565b5060010190565b634e487b7160e01b600052604160045260246000fd5b634e487b7160e01b600052603260045260246000fd5b60208082526018908201527f4f6e6c792047616d654d61737465722063616e2063616c6c0000000000000000604082015260600190565b818103818111156103d5576103d56120d6565b634e487b7160e01b600052601260045260246000fd5b6000826121b3576121b361218e565b500490565b6000826121c7576121c761218e565b500690565b6000815480845260208401935082600052602060002060005b8281101561220c5781546001600160a01b03168652602090950194600191820191016121e5565b5093949350505050565b60408152600061222960408301866121cc565b82810360208401528381526001600160fb1b0384111561224857600080fd5b8360051b808660208401370160200195945050505050565b602081526000611d4360208301846121cc565b634e487b7160e01b600052603160045260246000fd5b80820281158282048414176103d5576103d56120d656fea7690f576eaef889ef9ef29d1eaee6c0e3b073108b66bb8009ec8af6428bb345a264697066735822122007a9aa07a05fb1c590c0b016a924f0139c1a924871223d56f2b6091a8e80a53b64736f6c634300081c0033",
  "linkReferences": {},
  "deployedLinkReferences": {}
}