{
  "_format": "hh-sol-artifact-1",
  "contractName": "Ragnarok",
  "sourceName": "contracts/Ragnarok.sol",
  "abi": [
    {
      "inputs": [],
      "stateMutability": "nonpayable",
      "type": "constructor"
    },
    {
      "inputs": [
        {
          "internalType": "address",
          "name": "owner",
          "type": "address"
        }
      ],
      "name": "OwnableInvalidOwner",
      "type": "error"
    },
    {
      "inputs": [
        {
          "internalType": "address",
          "name": "account",
          "type": "address"
        }
      ],
      "name": "OwnableUnauthorizedAccount",
      "type": "error"
    },
    {
      "anonymous": false,
      "inputs": [],
      "name": "GameReset",
      "type": "event"
    },
    {
      "anonymous": false,
      "inputs": [
        {
          "indexed": true,
          "internalType": "address",
          "name": "previousOwner",
          "type": "address"
        },
        {
          "indexed": true,
          "internalType": "address",
          "name": "newOwner",
          "type": "address"
        }
      ],
      "name": "OwnershipTransferred",
      "type": "event"
    },
    {
      "anonymous": false,
      "inputs": [
        {
          "indexed": true,
          "internalType": "address",
          "name": "player",
          "type": "address"
        },
        {
          "indexed": false,
          "internalType": "uint256",
          "name": "amount",
          "type": "uint256"
        }
      ],
      "name": "PlayerRefunded",
      "type": "event"
    },
    {
      "anonymous": false,
      "inputs": [
        {
          "indexed": true,
          "internalType": "address",
          "name": "player",
          "type": "address"
        },
        {
          "indexed": false,
          "internalType": "uint256",
          "name": "playerNumber",
          "type": "uint256"
        }
      ],
      "name": "PlayerRegistered",
      "type": "event"
    },
    {
      "anonymous": false,
      "inputs": [
        {
          "indexed": true,
          "internalType": "address",
          "name": "player",
          "type": "address"
        },
        {
          "indexed": false,
          "internalType": "uint256",
          "name": "amount",
          "type": "uint256"
        }
      ],
      "name": "RefundFailed",
      "type": "event"
    },
    {
      "anonymous": false,
      "inputs": [],
      "name": "RegistrationClosed",
      "type": "event"
    },
    {
      "anonymous": false,
      "inputs": [
        {
          "indexed": false,
          "internalType": "uint256",
          "name": "newFee",
          "type": "uint256"
        }
      ],
      "name": "RegistrationFeeChanged",
      "type": "event"
    },
    {
      "inputs": [],
      "name": "MAX_PLAYERS",
      "outputs": [
        {
          "internalType": "uint256",
          "name": "",
          "type": "uint256"
        }
      ],
      "stateMutability": "view",
      "type": "function"
    },
    {
      "inputs": [],
      "name": "closeRegistration",
      "outputs": [],
      "stateMutability": "nonpayable",
      "type": "function"
    },
    {
      "inputs": [],
      "name": "getPlayerCount",
      "outputs": [
        {
          "internalType": "uint256",
          "name": "",
          "type": "uint256"
        }
      ],
      "stateMutability": "view",
      "type": "function"
    },
    {
      "inputs": [],
      "name": "getRegisteredPlayers",
      "outputs": [
        {
          "internalType": "address[]",
          "name": "",
          "type": "address[]"
        }
      ],
      "stateMutability": "view",
      "type": "function"
    },
    {
      "inputs": [
        {
          "internalType": "address",
          "name": "",
          "type": "address"
        }
      ],
      "name": "isRegistered",
      "outputs": [
        {
          "internalType": "bool",
          "name": "",
          "type": "bool"
        }
      ],
      "stateMutability": "view",
      "type": "function"
    },
    {
      "inputs": [],
      "name": "owner",
      "outputs": [
        {
          "internalType": "address",
          "name": "",
          "type": "address"
        }
      ],
      "stateMutability": "view",
      "type": "function"
    },
    {
      "inputs": [
        {
          "internalType": "address",
          "name": "",
          "type": "address"
        }
      ],
      "name": "playerNumbers",
      "outputs": [
        {
          "internalType": "uint256",
          "name": "",
          "type": "uint256"
        }
      ],
      "stateMutability": "view",
      "type": "function"
    },
    {
      "inputs": [],
      "name": "register",
      "outputs": [],
      "stateMutability": "payable",
      "type": "function"
    },
    {
      "inputs": [
        {
          "internalType": "uint256",
          "name": "",
          "type": "uint256"
        }
      ],
      "name": "registeredPlayers",
      "outputs": [
        {
          "internalType": "address",
          "name": "",
          "type": "address"
        }
      ],
      "stateMutability": "view",
      "type": "function"
    },
    {
      "inputs": [],
      "name": "registrationClosed",
      "outputs": [
        {
          "internalType": "bool",
          "name": "",
          "type": "bool"
        }
      ],
      "stateMutability": "view",
      "type": "function"
    },
    {
      "inputs": [],
      "name": "registrationFee",
      "outputs": [
        {
          "internalType": "uint256",
          "name": "",
          "type": "uint256"
        }
      ],
      "stateMutability": "view",
      "type": "function"
    },
    {
      "inputs": [],
      "name": "renounceOwnership",
      "outputs": [],
      "stateMutability": "nonpayable",
      "type": "function"
    },
    {
      "inputs": [],
      "name": "resetGame",
      "outputs": [],
      "stateMutability": "nonpayable",
      "type": "function"
    },
    {
      "inputs": [
        {
          "internalType": "uint256",
          "name": "_newFee",
          "type": "uint256"
        }
      ],
      "name": "setRegistrationFee",
      "outputs": [],
      "stateMutability": "nonpayable",
      "type": "function"
    },
    {
      "inputs": [
        {
          "internalType": "address",
          "name": "newOwner",
          "type": "address"
        }
      ],
      "name": "transferOwnership",
      "outputs": [],
      "stateMutability": "nonpayable",
      "type": "function"
    },
    {
      "inputs": [],
      "name": "withdraw",
      "outputs": [],
      "stateMutability": "nonpayable",
      "type": "function"
    }
  ],
  "bytecode": "0x6080604052670186cc6acd4b0000600455348015601b57600080fd5b503380604157604051631e4fbdf760e01b81526000600482015260240160405180910390fd5b604881604d565b50609d565b600080546001600160a01b038381166001600160a01b0319831681178455604051919092169283917f8be0079c531659141344cd1fd0a4f28419497f9722a3daafe3b4186f6b6457e09190a35050565b610b9d806100ac6000396000f3fe6080604052600436106100f35760003560e01c80638da5cb5b1161008a578063c320c72711610059578063c320c7271461024c578063c3c5a5471461026c578063e03a02881461029c578063f2fde38b146102c957600080fd5b80638da5cb5b146101da5780639f9a093c146101f8578063bb47221914610222578063c2e522061461023757600080fd5b80634411b3eb116100c65780634411b3eb14610162578063715018a6146101785780637dc673bc1461018d57806389a5b229146101a257600080fd5b806314c44e09146100f85780631a8e2514146101215780631aa3a008146101435780633ccfd60b1461014d575b600080fd5b34801561010457600080fd5b5061010e60045481565b6040519081526020015b60405180910390f35b34801561012d57600080fd5b506101366102e9565b6040516101189190610a95565b61014b6103a3565b005b34801561015957600080fd5b5061014b610636565b34801561016e57600080fd5b5061010e6103e881565b34801561018457600080fd5b5061014b6106d8565b34801561019957600080fd5b5061014b6106ec565b3480156101ae57600080fd5b506101c26101bd366004610ae1565b61072c565b6040516001600160a01b039091168152602001610118565b3480156101e657600080fd5b506000546001600160a01b03166101c2565b34801561020457600080fd5b506003546102129060ff1681565b6040519015158152602001610118565b34801561022e57600080fd5b5061014b610756565b34801561024357600080fd5b5060015461010e565b34801561025857600080fd5b5061014b610267366004610ae1565b610918565b34801561027857600080fd5b50610212610287366004610afa565b60026020526000908152604090205460ff1681565b3480156102a857600080fd5b5061010e6102b7366004610afa565b60056020526000908152604090205481565b3480156102d557600080fd5b5061014b6102e4366004610afa565b6109ab565b60035460609060ff166103435760405162461bcd60e51b815260206004820152601760248201527f526567697374726174696f6e207374696c6c206f70656e00000000000000000060448201526064015b60405180910390fd5b600180548060200260200160405190810160405280929190818152602001828054801561039957602002820191906000526020600020905b81546001600160a01b0316815260019091019060200180831161037b575b5050505050905090565b60035460ff16156103ef5760405162461bcd60e51b8152602060048201526016602482015275149959da5cdd1c985d1a5bdb881a5cc818db1bdcd95960521b604482015260640161033a565b6004543410156104515760405162461bcd60e51b815260206004820152602760248201527f4d7573742073656e64206174206c656173742074686520726567697374726174604482015266696f6e2066656560c81b606482015260840161033a565b3360009081526002602052604090205460ff16156104a65760405162461bcd60e51b8152602060048201526012602482015271105b1c9958591e481c9959da5cdd195c995960721b604482015260640161033a565b6001805433600081815260056020908152604080832085905584860186557fb10e2d527612073b26eecdfd717e6a320cf44b4afac2b0732d9fcbe2b7fa0cf6850180546001600160a01b031916851790556002825291829020805460ff191690951790945551828152919290917f324cb0062138d65997c86cd3012489ceb351d602f2f55c7408306e8040c79f3f910160405180910390a26001546103e811610580576003805460ff191660011790556040517f2fc209f3df2fb10c5fcb1620d3e5f067b9ef99813ca8fa6b24de0418bdac542090600090a15b6000600454346105909190610b2a565b9050801561063257604051600090339083908381818185875af1925050503d80600081146105da576040519150601f19603f3d011682016040523d82523d6000602084013e6105df565b606091505b50509050806106305760405162461bcd60e51b815260206004820152601f60248201527f4661696c656420746f2072657475726e20657863657373207061796d656e7400604482015260640161033a565b505b5050565b61063e6109e6565b600080546040516001600160a01b039091169047908381818185875af1925050503d806000811461068b576040519150601f19603f3d011682016040523d82523d6000602084013e610690565b606091505b50509050806106d55760405162461bcd60e51b815260206004820152601160248201527015da5d1a191c985dd85b0819985a5b1959607a1b604482015260640161033a565b50565b6106e06109e6565b6106ea6000610a13565b565b6106f46109e6565b6003805460ff191660011790556040517f2fc209f3df2fb10c5fcb1620d3e5f067b9ef99813ca8fa6b24de0418bdac542090600090a1565b6001818154811061073c57600080fd5b6000918252602090912001546001600160a01b0316905081565b61075e6109e6565b60035460ff161580610771575060015415155b6107b45760405162461bcd60e51b8152602060048201526014602482015273139bc81c1b185e595c9cc81d1bc81c99599d5b9960621b604482015260640161033a565b60005b6001548110156108d6576000600182815481106107d6576107d6610b51565b60009182526020822001546004546040516001600160a01b03909216935083918381818185875af1925050503d806000811461082e576040519150601f19603f3d011682016040523d82523d6000602084013e610833565b606091505b505090508061088657816001600160a01b03167faf73b0b217208b61be286bbc37095bce7eb8b9ccf617244c2f0f154e8e04e3ff60045460405161087991815260200190565b60405180910390a26108cc565b816001600160a01b03167f48d31f1c958cd44f1f83a52ae2dfaf61e88a1b82c07a6d5711a4abef60b6531e6004546040516108c391815260200190565b60405180910390a25b50506001016107b7565b506108e360016000610a63565b6003805460ff191690556040517fc6976b6410888b44c765590c8368eb4a60e0431d4ad683c8a53ea85a8479f22e90600090a1565b6109206109e6565b600081116109705760405162461bcd60e51b815260206004820152601a60248201527f466565206d7573742062652067726561746572207468616e2030000000000000604482015260640161033a565b60048190556040518181527ffd29c2cd5dc77cf2bad34e3b80ec2592a7c16d32869ccaee99f95af250db954a9060200160405180910390a150565b6109b36109e6565b6001600160a01b0381166109dd57604051631e4fbdf760e01b81526000600482015260240161033a565b6106d581610a13565b6000546001600160a01b031633146106ea5760405163118cdaa760e01b815233600482015260240161033a565b600080546001600160a01b038381166001600160a01b0319831681178455604051919092169283917f8be0079c531659141344cd1fd0a4f28419497f9722a3daafe3b4186f6b6457e09190a35050565b50805460008255906000526020600020908101906106d591905b80821115610a915760008155600101610a7d565b5090565b602080825282518282018190526000918401906040840190835b81811015610ad65783516001600160a01b0316835260209384019390920191600101610aaf565b509095945050505050565b600060208284031215610af357600080fd5b5035919050565b600060208284031215610b0c57600080fd5b81356001600160a01b0381168114610b2357600080fd5b9392505050565b81810381811115610b4b57634e487b7160e01b600052601160045260246000fd5b92915050565b634e487b7160e01b600052603260045260246000fdfea26469706673582212209de78783107b4d728e234de9e98b088505003e14dd5aa22de34404c278bbd65664736f6c634300081c0033",
  "linkReferences": {},
  "deployedLinkReferences": {}
}