{
  "_format": "hh-sol-artifact-1",
  "contractName": "GameMaster",
  "sourceName": "contracts/GameMaster.sol",
  "abi": [
    {
      "inputs": [],
      "stateMutability": "nonpayable",
      "type": "constructor"
    },
    {
      "inputs": [
        {
          "internalType": "address",
          "name": "owner",
          "type": "address"
        }
      ],
      "name": "OwnableInvalidOwner",
      "type": "error"
    },
    {
      "inputs": [
        {
          "internalType": "address",
          "name": "account",
          "type": "address"
        }
      ],
      "name": "OwnableUnauthorizedAccount",
      "type": "error"
    },
    {
      "anonymous": false,
      "inputs": [
        {
          "indexed": false,
          "internalType": "string",
          "name": "gameName",
          "type": "string"
        },
        {
          "indexed": false,
          "internalType": "address",
          "name": "gameAddress",
          "type": "address"
        }
      ],
      "name": "GameRegistered",
      "type": "event"
    },
    {
      "anonymous": false,
      "inputs": [],
      "name": "GameReset",
      "type": "event"
    },
    {
      "anonymous": false,
      "inputs": [
        {
          "indexed": false,
          "internalType": "string",
          "name": "gameName",
          "type": "string"
        },
        {
          "indexed": false,
          "internalType": "address",
          "name": "gameAddress",
          "type": "address"
        },
        {
          "indexed": false,
          "internalType": "uint256",
          "name": "gameId",
          "type": "uint256"
        }
      ],
      "name": "GameStarted",
      "type": "event"
    },
    {
      "anonymous": false,
      "inputs": [
        {
          "indexed": true,
          "internalType": "address",
          "name": "previousOwner",
          "type": "address"
        },
        {
          "indexed": true,
          "internalType": "address",
          "name": "newOwner",
          "type": "address"
        }
      ],
      "name": "OwnershipTransferred",
      "type": "event"
    },
    {
      "anonymous": false,
      "inputs": [
        {
          "indexed": true,
          "internalType": "address",
          "name": "player",
          "type": "address"
        },
        {
          "indexed": false,
          "internalType": "uint256",
          "name": "playerNumber",
          "type": "uint256"
        }
      ],
      "name": "PlayerEliminated",
      "type": "event"
    },
    {
      "anonymous": false,
      "inputs": [
        {
          "indexed": true,
          "internalType": "address",
          "name": "player",
          "type": "address"
        },
        {
          "indexed": false,
          "internalType": "uint256",
          "name": "number",
          "type": "uint256"
        }
      ],
      "name": "PlayerNumberAssigned",
      "type": "event"
    },
    {
      "anonymous": false,
      "inputs": [
        {
          "indexed": true,
          "internalType": "address",
          "name": "player",
          "type": "address"
        },
        {
          "indexed": false,
          "internalType": "uint256",
          "name": "amount",
          "type": "uint256"
        }
      ],
      "name": "PlayerRefunded",
      "type": "event"
    },
    {
      "anonymous": false,
      "inputs": [
        {
          "indexed": true,
          "internalType": "address",
          "name": "player",
          "type": "address"
        },
        {
          "indexed": false,
          "internalType": "uint256",
          "name": "playerNumber",
          "type": "uint256"
        }
      ],
      "name": "PlayerRegistered",
      "type": "event"
    },
    {
      "anonymous": false,
      "inputs": [
        {
          "indexed": false,
          "internalType": "address[]",
          "name": "players",
          "type": "address[]"
        }
      ],
      "name": "PlayersRegistered",
      "type": "event"
    },
    {
      "anonymous": false,
      "inputs": [
        {
          "indexed": true,
          "internalType": "address",
          "name": "player",
          "type": "address"
        },
        {
          "indexed": false,
          "internalType": "uint256",
          "name": "amount",
          "type": "uint256"
        }
      ],
      "name": "RefundFailed",
      "type": "event"
    },
    {
      "anonymous": false,
      "inputs": [],
      "name": "RegistrationClosed",
      "type": "event"
    },
    {
      "anonymous": false,
      "inputs": [
        {
          "indexed": false,
          "internalType": "uint256",
          "name": "newFee",
          "type": "uint256"
        }
      ],
      "name": "RegistrationFeeChanged",
      "type": "event"
    },
    {
      "inputs": [],
      "name": "MAX_PLAYERS",
      "outputs": [
        {
          "internalType": "uint256",
          "name": "",
          "type": "uint256"
        }
      ],
      "stateMutability": "view",
      "type": "function"
    },
    {
      "inputs": [
        {
          "internalType": "uint256",
          "name": "",
          "type": "uint256"
        }
      ],
      "name": "activePlayers",
      "outputs": [
        {
          "internalType": "address",
          "name": "",
          "type": "address"
        }
      ],
      "stateMutability": "view",
      "type": "function"
    },
    {
      "inputs": [],
      "name": "closeRegistration",
      "outputs": [],
      "stateMutability": "nonpayable",
      "type": "function"
    },
    {
      "inputs": [
        {
          "internalType": "uint256",
          "name": "",
          "type": "uint256"
        }
      ],
      "name": "eliminatedPlayers",
      "outputs": [
        {
          "internalType": "address",
          "name": "",
          "type": "address"
        }
      ],
      "stateMutability": "view",
      "type": "function"
    },
    {
      "inputs": [
        {
          "internalType": "string",
          "name": "gameName",
          "type": "string"
        }
      ],
      "name": "endExpiredGames",
      "outputs": [],
      "stateMutability": "nonpayable",
      "type": "function"
    },
    {
      "inputs": [
        {
          "internalType": "string",
          "name": "gameName",
          "type": "string"
        }
      ],
      "name": "endGames",
      "outputs": [
        {
          "internalType": "address[]",
          "name": "",
          "type": "address[]"
        }
      ],
      "stateMutability": "nonpayable",
      "type": "function"
    },
    {
      "inputs": [
        {
          "internalType": "address",
          "name": "",
          "type": "address"
        }
      ],
      "name": "finalPlacements",
      "outputs": [
        {
          "internalType": "uint256",
          "name": "",
          "type": "uint256"
        }
      ],
      "stateMutability": "view",
      "type": "function"
    },
    {
      "inputs": [
        {
          "internalType": "string",
          "name": "",
          "type": "string"
        }
      ],
      "name": "gameAddresses",
      "outputs": [
        {
          "internalType": "address",
          "name": "",
          "type": "address"
        }
      ],
      "stateMutability": "view",
      "type": "function"
    },
    {
      "inputs": [],
      "name": "getActivePlayerCount",
      "outputs": [
        {
          "internalType": "uint256",
          "name": "",
          "type": "uint256"
        }
      ],
      "stateMutability": "view",
      "type": "function"
    },
    {
      "inputs": [],
      "name": "getActivePlayers",
      "outputs": [
        {
          "internalType": "address[]",
          "name": "",
          "type": "address[]"
        }
      ],
      "stateMutability": "view",
      "type": "function"
    },
    {
      "inputs": [],
      "name": "getActivePlayersAndNumbers",
      "outputs": [
        {
          "internalType": "address[]",
          "name": "players",
          "type": "address[]"
        },
        {
          "internalType": "uint256[]",
          "name": "numbers",
          "type": "uint256[]"
        }
      ],
      "stateMutability": "view",
      "type": "function"
    },
    {
      "inputs": [],
      "name": "getEliminatedPlayerCount",
      "outputs": [
        {
          "internalType": "uint256",
          "name": "",
          "type": "uint256"
        }
      ],
      "stateMutability": "view",
      "type": "function"
    },
    {
      "inputs": [],
      "name": "getEliminatedPlayers",
      "outputs": [
        {
          "internalType": "address[]",
          "name": "",
          "type": "address[]"
        }
      ],
      "stateMutability": "view",
      "type": "function"
    },
    {
      "inputs": [],
      "name": "getGames",
      "outputs": [
        {
          "internalType": "string[]",
          "name": "gameTypes",
          "type": "string[]"
        },
        {
          "components": [
            {
              "internalType": "uint256",
              "name": "gameId",
              "type": "uint256"
            },
            {
              "internalType": "enum GameState",
              "name": "state",
              "type": "uint8"
            },
            {
              "internalType": "uint256",
              "name": "currentRound",
              "type": "uint256"
            },
            {
              "internalType": "uint256",
              "name": "activePlayerCount",
              "type": "uint256"
            }
          ],
          "internalType": "struct GameInstanceInfo[][]",
          "name": "gameInstances",
          "type": "tuple[][]"
        }
      ],
      "stateMutability": "view",
      "type": "function"
    },
    {
      "inputs": [],
      "name": "getPlayerCount",
      "outputs": [
        {
          "internalType": "uint256",
          "name": "",
          "type": "uint256"
        }
      ],
      "stateMutability": "view",
      "type": "function"
    },
    {
      "inputs": [
        {
          "internalType": "address",
          "name": "player",
          "type": "address"
        }
      ],
      "name": "getPlayerFinalPlacement",
      "outputs": [
        {
          "internalType": "uint256",
          "name": "",
          "type": "uint256"
        }
      ],
      "stateMutability": "view",
      "type": "function"
    },
    {
      "inputs": [
        {
          "internalType": "address",
          "name": "player",
          "type": "address"
        }
      ],
      "name": "getPlayerInfo",
      "outputs": [
        {
          "internalType": "string",
          "name": "gameName",
          "type": "string"
        },
        {
          "internalType": "uint256",
          "name": "gameId",
          "type": "uint256"
        },
        {
          "internalType": "bool",
          "name": "isActive",
          "type": "bool"
        },
        {
          "internalType": "enum GameState",
          "name": "gameState",
          "type": "uint8"
        },
        {
          "internalType": "uint256",
          "name": "playerNumber",
          "type": "uint256"
        }
      ],
      "stateMutability": "view",
      "type": "function"
    },
    {
      "inputs": [
        {
          "internalType": "address",
          "name": "player",
          "type": "address"
        }
      ],
      "name": "getPlayerNumber",
      "outputs": [
        {
          "internalType": "uint256",
          "name": "",
          "type": "uint256"
        }
      ],
      "stateMutability": "view",
      "type": "function"
    },
    {
      "inputs": [],
      "name": "getRegisteredGames",
      "outputs": [
        {
          "internalType": "string[]",
          "name": "",
          "type": "string[]"
        }
      ],
      "stateMutability": "view",
      "type": "function"
    },
    {
      "inputs": [],
      "name": "getRegisteredPlayers",
      "outputs": [
        {
          "internalType": "address[]",
          "name": "",
          "type": "address[]"
        }
      ],
      "stateMutability": "view",
      "type": "function"
    },
    {
      "inputs": [
        {
          "internalType": "string",
          "name": "gameName",
          "type": "string"
        }
      ],
      "name": "initializeGame",
      "outputs": [
        {
          "internalType": "uint256",
          "name": "",
          "type": "uint256"
        }
      ],
      "stateMutability": "nonpayable",
      "type": "function"
    },
    {
      "inputs": [
        {
          "internalType": "address",
          "name": "",
          "type": "address"
        }
      ],
      "name": "isActivePlayer",
      "outputs": [
        {
          "internalType": "bool",
          "name": "",
          "type": "bool"
        }
      ],
      "stateMutability": "view",
      "type": "function"
    },
    {
      "inputs": [
        {
          "internalType": "string",
          "name": "",
          "type": "string"
        }
      ],
      "name": "isGameRegistered",
      "outputs": [
        {
          "internalType": "bool",
          "name": "",
          "type": "bool"
        }
      ],
      "stateMutability": "view",
      "type": "function"
    },
    {
      "inputs": [
        {
          "internalType": "address",
          "name": "",
          "type": "address"
        }
      ],
      "name": "isRegistered",
      "outputs": [
        {
          "internalType": "bool",
          "name": "",
          "type": "bool"
        }
      ],
      "stateMutability": "view",
      "type": "function"
    },
    {
      "inputs": [],
      "name": "owner",
      "outputs": [
        {
          "internalType": "address",
          "name": "",
          "type": "address"
        }
      ],
      "stateMutability": "view",
      "type": "function"
    },
    {
      "inputs": [
        {
          "internalType": "address",
          "name": "player",
          "type": "address"
        }
      ],
      "name": "playerEliminated",
      "outputs": [],
      "stateMutability": "nonpayable",
      "type": "function"
    },
    {
      "inputs": [
        {
          "internalType": "address",
          "name": "",
          "type": "address"
        }
      ],
      "name": "playerNumbers",
      "outputs": [
        {
          "internalType": "uint256",
          "name": "",
          "type": "uint256"
        }
      ],
      "stateMutability": "view",
      "type": "function"
    },
    {
      "inputs": [],
      "name": "register",
      "outputs": [],
      "stateMutability": "payable",
      "type": "function"
    },
    {
      "inputs": [
        {
          "internalType": "string",
          "name": "gameName",
          "type": "string"
        },
        {
          "internalType": "address",
          "name": "gameAddress",
          "type": "address"
        }
      ],
      "name": "registerGame",
      "outputs": [],
      "stateMutability": "nonpayable",
      "type": "function"
    },
    {
      "inputs": [
        {
          "internalType": "uint256",
          "name": "",
          "type": "uint256"
        }
      ],
      "name": "registeredGames",
      "outputs": [
        {
          "internalType": "string",
          "name": "",
          "type": "string"
        }
      ],
      "stateMutability": "view",
      "type": "function"
    },
    {
      "inputs": [
        {
          "internalType": "uint256",
          "name": "",
          "type": "uint256"
        }
      ],
      "name": "registeredPlayers",
      "outputs": [
        {
          "internalType": "address",
          "name": "",
          "type": "address"
        }
      ],
      "stateMutability": "view",
      "type": "function"
    },
    {
      "inputs": [],
      "name": "registrationClosed",
      "outputs": [
        {
          "internalType": "bool",
          "name": "",
          "type": "bool"
        }
      ],
      "stateMutability": "view",
      "type": "function"
    },
    {
      "inputs": [],
      "name": "registrationFee",
      "outputs": [
        {
          "internalType": "uint256",
          "name": "",
          "type": "uint256"
        }
      ],
      "stateMutability": "view",
      "type": "function"
    },
    {
      "inputs": [],
      "name": "renounceOwnership",
      "outputs": [],
      "stateMutability": "nonpayable",
      "type": "function"
    },
    {
      "inputs": [],
      "name": "resetGame",
      "outputs": [],
      "stateMutability": "nonpayable",
      "type": "function"
    },
    {
      "inputs": [
        {
          "internalType": "uint256",
          "name": "_newFee",
          "type": "uint256"
        }
      ],
      "name": "setRegistrationFee",
      "outputs": [],
      "stateMutability": "nonpayable",
      "type": "function"
    },
    {
      "inputs": [
        {
          "internalType": "string",
          "name": "gameName",
          "type": "string"
        }
      ],
      "name": "startGames",
      "outputs": [
        {
          "internalType": "bool",
          "name": "",
          "type": "bool"
        }
      ],
      "stateMutability": "nonpayable",
      "type": "function"
    },
    {
      "inputs": [
        {
          "internalType": "address",
          "name": "newOwner",
          "type": "address"
        }
      ],
      "name": "transferOwnership",
      "outputs": [],
      "stateMutability": "nonpayable",
      "type": "function"
    },
    {
      "inputs": [],
      "name": "withdraw",
      "outputs": [],
      "stateMutability": "nonpayable",
      "type": "function"
    }
  ],
  "bytecode": "0x608080604052346081573315606b5760008054336001600160a01b0319821681178355916001600160a01b03909116907f8be0079c531659141344cd1fd0a4f28419497f9722a3daafe3b4186f6b6457e09080a367016345785d8a00006004556126b590816100878239f35b631e4fbdf760e01b600052600060045260246000fd5b600080fdfe608080604052600436101561001357600080fd5b600090813560e01c90816314c44e0914611e26575080631a8e251414611da85780631aa3a00814611b0e5780631bc8c8a0146119ac5780632e7ea48a1461197c57806339e160f11461178a5780633c4f5a661461175f5780633ccfd60b146116ea5780634411b3eb146116cd5780634aefbbe7146113aa5780634e347f2a1461138c57806354a7d9311461134d57806355e226c71461132057806359328401146112c057806364328b9c1461122e5780636a6b2722146111e75780636e24b9391461114957806371259638146110fa578063715018a6146110a05780637dc673bc1461105357806389a5b229146110285780638da5cb5b146110015780639e3c5a7214610f9a5780639f9a093c14610f77578063ada4a40114610f28578063b55f108f14610ee4578063b6e79c5914610e2b578063bb47221914610ba0578063c04c5947146108be578063c07dda4a14610885578063c2e5220614610867578063c320c727146107cd578063c3c5a5471461078e578063d03b547e1461070d578063d4e103d51461060e578063e03a0288146105d5578063f2fde38b1461054f578063fbdb3c74146101ee5763fea55dad146101ce57600080fd5b346101eb57806003193601126101eb576020600854604051908152f35b80fd5b50346101eb5760203660031901126101eb57610208611f52565b6001600160a01b0381168083526002602052604083205490919061022e9060ff16612612565b818352600660205260ff6040842054161561050a578283600c54905b81811061045f575b50501561040657818352600660205260408320805460ff19169055600854600160401b8110156103f257906102928260016102b6940160085560086120e0565b81546001600160a01b0393841660039290921b91821b9390911b1916919091179055565b6102c56001546008549061221b565b600181018091116103de5781835260096020526040832055815b600554808210156103d757826102f483612079565b905460039190911b1c6001600160a01b03161461031457506001016102df565b60001981019081116103c3579061029261033061034893612079565b905460039190911b1c6001600160a01b031691612079565b60055480156103af576000190161035e81612079565b81549060018060a01b039060031b1b191690556005555b80825260076020527f6d23a3ab6e6c4048b5879c5716bb756108e4e5d37158a83ea36761c83627da5760206040842054604051908152a280f35b634e487b7160e01b83526031600452602483fd5b634e487b7160e01b84526011600452602484fd5b5050610375565b634e487b7160e01b83526011600452602483fd5b634e487b7160e01b84526041600452602484fd5b60405162461bcd60e51b815260206004820152602b60248201527f4f6e6c7920726567697374657265642067616d65732063616e20656c696d696e60448201526a61746520706c617965727360a81b6064820152608490fd5b610468816120aa565b5060405181548892610479826120f8565b91600181169081156104f357506001146104bf575b5050600a825260208160018060a01b039303019020541633146104b35760010161024a565b50505060013880610252565b9091925088526020882088905b8282106104df575050810190388061048e565b6001816020925484870152019101906104cc565b60ff1916845250508015150281019150388061048e565b60405162461bcd60e51b815260206004820152601960248201527f506c6179657220616c726561647920656c696d696e61746564000000000000006044820152606490fd5b50346101eb5760203660031901126101eb57610569611f52565b610571612656565b6001600160a01b031680156105c15781546001600160a01b03198116821783556001600160a01b03167f8be0079c531659141344cd1fd0a4f28419497f9722a3daafe3b4186f6b6457e08380a380f35b631e4fbdf760e01b82526004829052602482fd5b50346101eb5760203660031901126101eb576020906040906001600160a01b036105fd611f52565b168152600783522054604051908152f35b50346101eb5760203660031901126101eb57806004356001600160401b03811161070a576106426020913690600401611e7f565b61064a612656565b61066a60ff604051838582378581858101600b815203019020541661226e565b80604051928337600a908201908152819003820190205460405163e81de9f560e01b815292839160049183916001600160a01b03165af19081156106ff5782916106bc575b6020826040519015158152f35b90506020813d6020116106f7575b816106d760209383611f68565b810103126106f3575180151581036106f35760209150386106af565b5080fd5b3d91506106ca565b6040513d84823e3d90fd5b50fd5b50346101eb5760203660031901126101eb57600435906008548210156101eb5760085482101561077a57600881527ff3f7a9fe364faab93b216da50a3214154f22a0a2b415b23a84c8169e8b636ee39091015460405160039290921b1c6001600160a01b03168152602090f35b634e487b7160e01b81526032600452602490fd5b50346101eb5760203660031901126101eb5760209060ff906040906001600160a01b036107b9611f52565b168152600284522054166040519015158152f35b50346101eb5760203660031901126101eb576004356107ea612656565b8015610822576020817ffd29c2cd5dc77cf2bad34e3b80ec2592a7c16d32869ccaee99f95af250db954a92600455604051908152a180f35b60405162461bcd60e51b815260206004820152601a60248201527f466565206d7573742062652067726561746572207468616e20300000000000006044820152606490fd5b50346101eb57806003193601126101eb576020600154604051908152f35b50346101eb5760203660031901126101eb576020906040906001600160a01b036108ad611f52565b168152600983522054604051908152f35b50346101eb57806003193601126101eb57600c546108da6122c7565b906108e4816122b0565b906108f26040519283611f68565b808252601f19610901826122b0565b01845b818110610b8d575050835b8181106109da57505061092d60405192604084526040840190611ef9565b8281036020840152815190818152602081016020808460051b84010194019580925b84841061095c5786860387f35b9091929394601f198282030184528751906020808351928381520192019084905b80821061099c575050506020978801979095946001019301919061094f565b9091926020608060019260608751805183526109be8582015186850190612022565b604081015160408401520151606082015201940192019061097d565b610a0760206109f46109ee849896986120aa565b50612132565b8160405193828580945193849201611eb1565b600a90820190815203019020546001600160a01b0316908382610a33575b50600191500193919361090f565b60405163c04c594760e01b815292839060049082905afa8015610b82578490610a77575b60019250610a65828861236e565b52610a70818761236e565b5083610a25565b50903d8085833e610a888183611f68565b810190602081830312610b7a578051906001600160401b038211610b7e570181601f82011215610b7a57805190610abe826122b0565b92610acc6040519485611f68565b82845260208085019360071b83010191818311610b7657602001925b828410610afc575050505090600191610a57565b608084830312610b7657604051608081018181106001600160401b03821117610b62576040528451815260208501516005811015610b5e5791816080936020809401526040870151604082015260608701516060820152815201930192610ae8565b8980fd5b634e487b7160e01b8a52604160045260248afd5b8780fd5b8480fd5b8580fd5b6040513d86823e3d90fd5b6060602082860181019190915201610904565b50346101eb57806003193601126101eb57610bb9612656565b60ff60035416158015610e20575b15610de457805b600154811015610c7e5780610be46001926120c5565b838060a01b0391549060031b1c1683808080600454855af1610c0461223e565b50610c4b57807faf73b0b217208b61be286bbc37095bce7eb8b9ccf617244c2f0f154e8e04e3ff6020600454604051908152a25b8352600960205282604081205501610bce565b807f48d31f1c958cd44f1f83a52ae2dfaf61e88a1b82c07a6d5711a4abef60b6531e6020600454604051908152a2610c38565b506001548160015580610dac575b506005548160055580610d74575b506008548160085580610d3c575b5060ff1960035416600355805b600154811015610d145780610ccb6001926120c5565b838060a01b0391549060031b1c1680845260026020526040842060ff19815416905580845260066020526040842060ff1981541690558352600760205282604081205501610cb5565b507fc6976b6410888b44c765590c8368eb4a60e0431d4ad683c8a53ea85a8479f22e8180a180f35b60088252610d6e907ff3f7a9fe364faab93b216da50a3214154f22a0a2b415b23a84c8169e8b636ee3908101906123a3565b38610ca8565b60058252610da6907f036b6384b5eca791c62761152d0c79bb0604c104a5fb6f4eb0703f3154bb3db0908101906123a3565b38610c9a565b60018252610dde907fb10e2d527612073b26eecdfd717e6a320cf44b4afac2b0732d9fcbe2b7fa0cf6908101906123a3565b38610c8c565b60405162461bcd60e51b8152602060048201526014602482015273139bc81c1b185e595c9cc81d1bc81c99599d5b9960621b6044820152606490fd5b506001541515610bc7565b50346101eb5760203660031901126101eb57806004356001600160401b03811161070a57610e5d903690600401611e7f565b610e65612656565b610e8660ff60405183858237602081858101600b815203019020541661226e565b80604051928337600a9082019081528190036020019020546001600160a01b0316803b1561070a57818091600460405180948193636879d10f60e11b83525af180156106ff57610ed35750f35b81610edd91611f68565b6101eb5780f35b50346101eb5760203660031901126101eb57600435906005548210156101eb576020610f0f83612079565b905460405160039290921b1c6001600160a01b03168152f35b50346101eb5760203660031901126101eb576020906040906001600160a01b03610f50611f52565b1680825260028452610f6760ff8484205416612612565b8152600783522054604051908152f35b50346101eb57806003193601126101eb57602060ff600354166040519015158152f35b50346101eb5760203660031901126101eb57600435600c548110156106f357610fc2906120aa565b919091610fed57610fe9610fd583612132565b604051918291602083526020830190611ed4565b0390f35b634e487b7160e01b81526004819052602490fd5b50346101eb57806003193601126101eb57546040516001600160a01b039091168152602090f35b50346101eb5760203660031901126101eb57600435906001548210156101eb576020610f0f836120c5565b50346101eb57806003193601126101eb5761106c612656565b600160ff1960035416176003557f2fc209f3df2fb10c5fcb1620d3e5f067b9ef99813ca8fa6b24de0418bdac54208180a180f35b50346101eb57806003193601126101eb576110b9612656565b80546001600160a01b03198116825581906001600160a01b03167f8be0079c531659141344cd1fd0a4f28419497f9722a3daafe3b4186f6b6457e08280a380f35b50346101eb5760203660031901126101eb576020906040906001600160a01b03611122611f52565b168082526002845261113960ff8484205416612612565b8152600983522054604051908152f35b50346101eb57806003193601126101eb57600554906111678261233c565b916040519161118083611179816121d6565b0384611f68565b805b8281106111b3576111a584610fe987604051938493604085526040850190611e42565b908382036020850152612045565b6001906001600160a01b036111c8828761236e565b51168352600760205260408320546111e0828861236e565b5201611182565b50346101eb5760206111f836611fba565b8161120c6040519283815193849201611eb1565b600a90820190815281900382019020546040516001600160a01b039091168152f35b50346101eb57806003193601126101eb5760405160088054808352908352909160208301917ff3f7a9fe364faab93b216da50a3214154f22a0a2b415b23a84c8169e8b636ee3915b8181106112a157610fe98561128d81870382611f68565b604051918291602083526020830190611e42565b82546001600160a01b0316845260209093019260019283019201611276565b50346101eb5760203660031901126101eb576113006113176112e86112e3611f52565b6123ba565b9293949160405196879660a0885260a0880190611ed4565b946020870152151560408601526060850190612022565b60808301520390f35b50346101eb57602060ff611337826109f436611fba565b8101600b81520301902054166040519015158152f35b50346101eb5760203660031901126101eb5760209060ff906040906001600160a01b03611378611f52565b168152600684522054166040519015158152f35b50346101eb57806003193601126101eb576020600554604051908152f35b50346101eb5760403660031901126101eb576004356001600160401b0381116106f3576113db903690600401611e7f565b6024356001600160a01b038116939291908490036116c9576113fb612656565b831561168d5760ff60405182848237602081848101600b81520301902054166116485780156116035760405181838237602081838101600a815203019020846bffffffffffffffffffffffff60a01b82541617905560405181838237602081838101600b815203019020600160ff19825416179055600c54600160401b8110156103f25780600161148f9201600c556120aa565b9490946115ef576001600160401b0382116103f2576114ae85546120f8565b601f81116115b4575b508394601f8311600114611532578285967ff7757a7272e50875150e6020afe9040c7c2485f28d0513dad0f5170af4f20d439691611527575b508360011b906000198560031b1c19161790555b61151b604051938493604085526040850191612382565b9060208301520390a180f35b9050840135386114f0565b80855260208520601f19841696865b88811061159c5750847ff7757a7272e50875150e6020afe9040c7c2485f28d0513dad0f5170af4f20d43979810611582575b5050600183811b019055611504565b850135600019600386901b60f8161c191690553880611573565b9091602060018192858a013581550193019101611541565b6115df9086865260208620601f850160051c810191602086106115e5575b601f0160051c01906123a3565b386114b7565b90915081906115d2565b634e487b7160e01b84526004849052602484fd5b60405162461bcd60e51b815260206004820152601960248201527f47616d65206e616d652063616e6e6f7420626520656d707479000000000000006044820152606490fd5b60405162461bcd60e51b815260206004820152601760248201527f47616d6520616c726561647920726567697374657265640000000000000000006044820152606490fd5b60405162461bcd60e51b8152602060048201526014602482015273496e76616c69642067616d65206164647265737360601b6044820152606490fd5b8280fd5b50346101eb57806003193601126101eb5760206040516103e88152f35b50346101eb57806003193601126101eb57611703612656565b8080808060018060a01b0381541647905af161171d61223e565b50156117265780f35b60405162461bcd60e51b815260206004820152601160248201527015da5d1a191c985dd85b0819985a5b1959607a1b6044820152606490fd5b50346101eb57806003193601126101eb57610fe960405161128d81611783816121d6565b0382611f68565b50346101eb5760203660031901126101eb576004356001600160401b0381116106f3576117bb903690600401611e7f565b90916117c5612656565b6117e660ff60405184868237602081868101600b815203019020541661226e565b6005549283156119435760405183828237600a8185019081528190036020019020546001600160a01b03169261181b8561233c565b94835b81811061190c575050833b156116c957826118699560405180978192637fbbe46f60e01b835260406004840152611857604484016121d6565b83810360031901602485015290612045565b038183885af1948515611901576020956118cf575b507f556ae6f2a401959ea3e8f5c4035f8063eff09c11d1565ab4f369920dd9da3b3692936118b9604051938493606085526060850191612382565b90868301528460408301520390a1604051908152f35b926118fb817f556ae6f2a401959ea3e8f5c4035f8063eff09c11d1565ab4f369920dd9da3b3695611f68565b9261187e565b6040513d85823e3d90fd5b80611918600192612079565b838060a01b0391549060031b1c1686526007602052604086205461193c828a61236e565b520161181e565b60405162461bcd60e51b81526020600482015260116024820152704e6f2061637469766520706c617965727360781b6044820152606490fd5b50346101eb57806003193601126101eb57610fe96119986122c7565b604051918291602083526020830190611ef9565b50346101eb5760203660031901126101eb57806004356001600160401b03811161070a576119df82913690600401611e7f565b6119e7612656565b611a0860ff60405183858237602081858101600b815203019020541661226e565b80604051928337600a908201908152819003602001902054604051636cbc2ded60e01b815292839160049183916001600160a01b03165af19081156106ff578291611a64575b60405160208082528190610fe990820185611e42565b90503d8083833e611a758183611f68565b8101906020818303126116c9578051906001600160401b038211611b0a57019080601f830112156116c957815192611aac846122b0565b92611aba6040519485611f68565b84845260208085019560051b8201019283116106f357602001935b828510611aea57505050610fe9915038611a4e565b84516001600160a01b03811681036116c957815260209485019401611ad5565b8380fd5b50806003193601126101eb5760ff60035416611d6a576004543410611d1557338152600260205260ff604082205416611cdb576001543382526007602052806040832055600154600160401b811015611cc757611b76816001611b94930160015560016120e0565b81546001600160a01b0360039290921b91821b19163390911b179055565b338252600260205260408220805460ff19166001179055600554600160401b811015611cc757611b76816001611bcf930160055560056120e0565b338252600660205260408220600160ff198254161790556040519081527f324cb0062138d65997c86cd3012489ceb351d602f2f55c7408306e8040c79f3f60203392a26103e86001541015611c91575b80611c2c6004543461221b565b80611c345750f35b81808092335af1611c4361223e565b5015611c4c5780f35b60405162461bcd60e51b815260206004820152601f60248201527f4661696c656420746f2072657475726e20657863657373207061796d656e74006044820152606490fd5b600160ff1960035416176003557f2fc209f3df2fb10c5fcb1620d3e5f067b9ef99813ca8fa6b24de0418bdac54208180a1611c1f565b634e487b7160e01b83526041600452602483fd5b60405162461bcd60e51b8152602060048201526012602482015271105b1c9958591e481c9959da5cdd195c995960721b6044820152606490fd5b60405162461bcd60e51b815260206004820152602760248201527f4d7573742073656e64206174206c656173742074686520726567697374726174604482015266696f6e2066656560c81b6064820152608490fd5b60405162461bcd60e51b8152602060048201526016602482015275149959da5cdd1c985d1a5bdb881a5cc818db1bdcd95960521b6044820152606490fd5b50346101eb57806003193601126101eb5760405160018054808352908352909160208301917fb10e2d527612073b26eecdfd717e6a320cf44b4afac2b0732d9fcbe2b7fa0cf6915b818110611e0757610fe98561128d81870382611f68565b82546001600160a01b0316845260209093019260019283019201611df0565b9050346106f357816003193601126106f3576020906004548152f35b906020808351928381520192019060005b818110611e605750505090565b82516001600160a01b0316845260209384019390920191600101611e53565b9181601f84011215611eac578235916001600160401b038311611eac5760208381860195010111611eac57565b600080fd5b60005b838110611ec45750506000910152565b8181015183820152602001611eb4565b90602091611eed81518092818552858086019101611eb1565b601f01601f1916010190565b9080602083519182815201916020808360051b8301019401926000915b838310611f2557505050505090565b9091929394602080611f43600193601f198682030187528951611ed4565b97019301930191939290611f16565b600435906001600160a01b0382168203611eac57565b90601f801991011681019081106001600160401b03821117611f8957604052565b634e487b7160e01b600052604160045260246000fd5b6001600160401b038111611f8957601f01601f191660200190565b6020600319820112611eac576004356001600160401b038111611eac5781602382011215611eac57806004013590611ff182611f9f565b92611fff6040519485611f68565b82845260248383010111611eac5781600092602460209301838601378301015290565b90600582101561202f5752565b634e487b7160e01b600052602160045260246000fd5b906020808351928381520192019060005b8181106120635750505090565b8251845260209384019390920191600101612056565b60055481101561209457600560005260206000200190600090565b634e487b7160e01b600052603260045260246000fd5b600c5481101561209457600c60005260206000200190600090565b60015481101561209457600160005260206000200190600090565b80548210156120945760005260206000200190600090565b90600182811c92168015612128575b602083101461211257565b634e487b7160e01b600052602260045260246000fd5b91607f1691612107565b9060405191826000825492612146846120f8565b80845293600181169081156121b4575060011461216d575b5061216b92500383611f68565b565b90506000929192526020600020906000915b81831061219857505090602061216b928201013861215e565b602091935080600191548385890101520191019091849261217f565b90506020925061216b94915060ff191682840152151560051b8201013861215e565b6020600554918281520190600560005260206000209060005b8181106121fc5750505090565b82546001600160a01b03168452602090930192600192830192016121ef565b9190820391821161222857565b634e487b7160e01b600052601160045260246000fd5b3d15612269573d9061224f82611f9f565b9161225d6040519384611f68565b82523d6000602084013e565b606090565b1561227557565b60405162461bcd60e51b815260206004820152601360248201527211d85b59481b9bdd081c9959da5cdd195c9959606a1b6044820152606490fd5b6001600160401b038111611f895760051b60200190565b600c54906122d4826122b0565b916122e26040519384611f68565b808352600c60009081527fdf6966c971051c3d54ec59162606531493a51404a002842f56009d7e5cf4a8c7602085015b83831061231f5750505050565b60016020819261232e85612132565b815201920192019190612312565b90612346826122b0565b6123536040519182611f68565b8281528092612364601f19916122b0565b0190602036910137565b80518210156120945760209160051b010190565b908060209392818452848401376000828201840152601f01601f1916010190565b8181106123ae575050565b600081556001016123a3565b6001600160a01b031660008181526002602052604090205490919060ff16156125ef5781600052600660205260ff604060002054169082600052600760205260406000205460209160405161240f8482611f68565b6000808252600c54909687959086805b8481106124325750505050509493929190565b61243e6109ee826120aa565b9060405182516124518183898701611eb1565b600a90820190815281900386019020546001600160a01b0316918261247c575b50600191500161241f565b60405163773b549d60e01b815260048101869052908682602481875afa9182156125b4576000926125c0575b50816124b5575b50612471565b60a0602493946040519485809263047e1d5560e41b82528660048301525afa9283156125b45760009361251b575b5060608301518581116124fa575b508392506124af565b939b50935096509a5090949951600581101561202f579760013880806124f1565b60a0939193813d82116125ac575b8161253660a09383611f68565b810103126106f3576040519160a083018381106001600160401b038211176125985760405281519060058210156101eb5750906080918352888101518984015260408101516040840152606081015160608401520151608082015291386124e3565b634e487b7160e01b82526041600452602482fd5b3d9150612529565b6040513d6000823e3d90fd5b90918782813d83116125e8575b6125d78183611f68565b810103126101eb57505190386124a8565b503d6125cd565b90506040516125ff602082611f68565b6000815290600090600090600090600090565b1561261957565b60405162461bcd60e51b8152602060048201526015602482015274141b185e595c881b9bdd081c9959da5cdd195c9959605a1b6044820152606490fd5b6000546001600160a01b0316330361266a57565b63118cdaa760e01b6000523360045260246000fdfea26469706673582212201fc5ed4bc9a057690cfe640a83b087613cb514ee758976ad522631f09849867664736f6c634300081c0033",
  "linkReferences": {},
  "deployedLinkReferences": {}
}